{"abi":[{"inputs":[],"name":"checkEndedAuctions","outputs":[],"stateMutability":"payable","type":"function"},{"inputs":[{"internalType":"uint256","name":"minimum","type":"uint256"},{"internalType":"string","name":"dataSell","type":"string"},{"internalType":"string","name":"dataDesc","type":"string"},{"internalType":"uint256","name":"duration","type":"uint256"}],"name":"createCampaign","outputs":[],"stateMutability":"nonpayable","type":"function"},{"inputs":[{"internalType":"uint256","name":"","type":"uint256"}],"name":"deployedCampaigns","outputs":[{"internalType":"address payable","name":"","type":"address"}],"stateMutability":"view","type":"function"},{"inputs":[],"name":"getDeployedCampaigns","outputs":[{"internalType":"address payable[]","name":"","type":"address[]"}],"stateMutability":"view","type":"function"}],"devdoc":{"kind":"dev","methods":{},"version":1},"evm":{"assembly":"    /* \"Campaign.sol\":592:1644  contract CampaignFactory {... */\n  mstore(0x40, 0x80)\n  callvalue\n  dup1\n  iszero\n  tag_1\n  jumpi\n  revert(0x00, 0x00)\ntag_1:\n  pop\n  dataSize(sub_0)\n  dup1\n  dataOffset(sub_0)\n  0x00\n  codecopy\n  0x00\n  return\nstop\n\nsub_0: assembly {\n        /* \"Campaign.sol\":592:1644  contract CampaignFactory {... */\n      mstore(0x40, 0x80)\n      jumpi(tag_1, lt(calldatasize, 0x04))\n      shr(0xe0, calldataload(0x00))\n      dup1\n      0x339d50a5\n      eq\n      tag_2\n      jumpi\n      dup1\n      0x4acb9d4f\n      eq\n      tag_3\n      jumpi\n      dup1\n      0x75da6ba0\n      eq\n      tag_4\n      jumpi\n      dup1\n      0xdc117416\n      eq\n      tag_5\n      jumpi\n    tag_1:\n      revert(0x00, 0x00)\n        /* \"Campaign.sol\":624:666  address payable[] public deployedCampaigns */\n    tag_2:\n      callvalue\n      dup1\n      iszero\n      tag_6\n      jumpi\n      revert(0x00, 0x00)\n    tag_6:\n      pop\n      tag_7\n      0x04\n      dup1\n      calldatasize\n      sub\n      dup2\n      add\n      swap1\n      tag_8\n      swap2\n      swap1\n      tag_9\n      jump\t// in\n    tag_8:\n      tag_10\n      jump\t// in\n    tag_7:\n      mload(0x40)\n      tag_11\n      swap2\n      swap1\n      tag_12\n      jump\t// in\n    tag_11:\n      mload(0x40)\n      dup1\n      swap2\n      sub\n      swap1\n      return\n        /* \"Campaign.sol\":1193:1347  function getDeployedCampaigns()... */\n    tag_3:\n      callvalue\n      dup1\n      iszero\n      tag_13\n      jumpi\n      revert(0x00, 0x00)\n    tag_13:\n      pop\n      tag_14\n      tag_15\n      jump\t// in\n    tag_14:\n      mload(0x40)\n      tag_16\n      swap2\n      swap1\n      tag_17\n      jump\t// in\n    tag_16:\n      mload(0x40)\n      dup1\n      swap2\n      sub\n      swap1\n      return\n        /* \"Campaign.sol\":1355:1641  function checkEndedAuctions() public payable {... */\n    tag_4:\n      tag_18\n      tag_19\n      jump\t// in\n    tag_18:\n      stop\n        /* \"Campaign.sol\":675:1185  function createCampaign(... */\n    tag_5:\n      callvalue\n      dup1\n      iszero\n      tag_20\n      jumpi\n      revert(0x00, 0x00)\n    tag_20:\n      pop\n      tag_21\n      0x04\n      dup1\n      calldatasize\n      sub\n      dup2\n      add\n      swap1\n      tag_22\n      swap2\n      swap1\n      tag_23\n      jump\t// in\n    tag_22:\n      tag_24\n      jump\t// in\n    tag_21:\n      stop\n        /* \"Campaign.sol\":624:666  address payable[] public deployedCampaigns */\n    tag_10:\n      0x00\n      dup2\n      dup2\n      sload\n      dup2\n      lt\n      tag_25\n      jumpi\n      0x00\n      dup1\n      revert\n    tag_25:\n      swap1\n      0x00\n      mstore\n      keccak256(0x00, 0x20)\n      add\n      0x00\n      swap2\n      pop\n      sload\n      swap1\n      0x0100\n      exp\n      swap1\n      div\n      0xffffffffffffffffffffffffffffffffffffffff\n      and\n      dup2\n      jump\t// out\n        /* \"Campaign.sol\":1193:1347  function getDeployedCampaigns()... */\n    tag_15:\n        /* \"Campaign.sol\":1273:1297  address payable[] memory */\n      0x60\n        /* \"Campaign.sol\":1322:1339  deployedCampaigns */\n      0x00\n        /* \"Campaign.sol\":1315:1339  return deployedCampaigns */\n      dup1\n      sload\n      dup1\n      0x20\n      mul\n      0x20\n      add\n      mload(0x40)\n      swap1\n      dup2\n      add\n      0x40\n      mstore\n      dup1\n      swap3\n      swap2\n      swap1\n      dup2\n      dup2\n      mstore\n      0x20\n      add\n      dup3\n      dup1\n      sload\n      dup1\n      iszero\n      tag_28\n      jumpi\n      0x20\n      mul\n      dup3\n      add\n      swap2\n      swap1\n      0x00\n      mstore\n      keccak256(0x00, 0x20)\n      swap1\n    tag_29:\n      dup2\n      0x00\n      swap1\n      sload\n      swap1\n      0x0100\n      exp\n      swap1\n      div\n      0xffffffffffffffffffffffffffffffffffffffff\n      and\n      0xffffffffffffffffffffffffffffffffffffffff\n      and\n      dup2\n      mstore\n      0x20\n      add\n      swap1\n      0x01\n      add\n      swap1\n      dup1\n      dup4\n      gt\n      tag_29\n      jumpi\n    tag_28:\n      pop\n      pop\n      pop\n      pop\n      pop\n      swap1\n      pop\n        /* \"Campaign.sol\":1193:1347  function getDeployedCampaigns()... */\n      swap1\n      jump\t// out\n        /* \"Campaign.sol\":1355:1641  function checkEndedAuctions() public payable {... */\n    tag_19:\n        /* \"Campaign.sol\":1411:1434  uint256 campaignsLength */\n      0x00\n        /* \"Campaign.sol\":1437:1454  deployedCampaigns */\n      0x00\n        /* \"Campaign.sol\":1437:1461  deployedCampaigns.length */\n      dup1\n      sload\n      swap1\n      pop\n        /* \"Campaign.sol\":1411:1461  uint256 campaignsLength = deployedCampaigns.length */\n      swap1\n      pop\n        /* \"Campaign.sol\":1477:1486  uint256 i */\n      0x00\n        /* \"Campaign.sol\":1489:1490  0 */\n      0x00\n        /* \"Campaign.sol\":1477:1490  uint256 i = 0 */\n      swap1\n      pop\n        /* \"Campaign.sol\":1472:1634  for (uint256 i = 0; i < campaignsLength; i++) {... */\n    tag_31:\n        /* \"Campaign.sol\":1496:1511  campaignsLength */\n      dup2\n        /* \"Campaign.sol\":1492:1493  i */\n      dup2\n        /* \"Campaign.sol\":1492:1511  i < campaignsLength */\n      lt\n        /* \"Campaign.sol\":1472:1634  for (uint256 i = 0; i < campaignsLength; i++) {... */\n      iszero\n      tag_32\n      jumpi\n        /* \"Campaign.sol\":1533:1550  Campaign campaign */\n      0x00\n        /* \"Campaign.sol\":1562:1579  deployedCampaigns */\n      0x00\n        /* \"Campaign.sol\":1580:1581  i */\n      dup3\n        /* \"Campaign.sol\":1562:1582  deployedCampaigns[i] */\n      dup2\n      sload\n      dup2\n      lt\n      tag_34\n      jumpi\n      tag_35\n      tag_36\n      jump\t// in\n    tag_35:\n    tag_34:\n      swap1\n      0x00\n      mstore\n      keccak256(0x00, 0x20)\n      add\n      0x00\n      swap1\n      sload\n      swap1\n      0x0100\n      exp\n      swap1\n      div\n      0xffffffffffffffffffffffffffffffffffffffff\n      and\n        /* \"Campaign.sol\":1533:1583  Campaign campaign = Campaign(deployedCampaigns[i]) */\n      swap1\n      pop\n        /* \"Campaign.sol\":1598:1606  campaign */\n      dup1\n        /* \"Campaign.sol\":1598:1620  campaign.EndedAuctions */\n      0xffffffffffffffffffffffffffffffffffffffff\n      and\n      0x8d2a1dad\n        /* \"Campaign.sol\":1598:1622  campaign.EndedAuctions() */\n      mload(0x40)\n      dup2\n      0xffffffff\n      and\n      0xe0\n      shl\n      dup2\n      mstore\n      0x04\n      add\n      0x00\n      mload(0x40)\n      dup1\n      dup4\n      sub\n      dup2\n      0x00\n      dup8\n      dup1\n      extcodesize\n      iszero\n      dup1\n      iszero\n      tag_38\n      jumpi\n      revert(0x00, 0x00)\n    tag_38:\n      pop\n      gas\n      call\n      iszero\n      dup1\n      iszero\n      tag_40\n      jumpi\n      returndatacopy(0x00, 0x00, returndatasize)\n      revert(0x00, returndatasize)\n    tag_40:\n      pop\n      pop\n      pop\n      pop\n        /* \"Campaign.sol\":1518:1634  {... */\n      pop\n        /* \"Campaign.sol\":1513:1516  i++ */\n      dup1\n      dup1\n      0x01\n      add\n      swap2\n      pop\n      pop\n        /* \"Campaign.sol\":1472:1634  for (uint256 i = 0; i < campaignsLength; i++) {... */\n      jump(tag_31)\n    tag_32:\n      pop\n        /* \"Campaign.sol\":1400:1641  {... */\n      pop\n        /* \"Campaign.sol\":1355:1641  function checkEndedAuctions() public payable {... */\n      jump\t// out\n        /* \"Campaign.sol\":675:1185  function createCampaign(... */\n    tag_24:\n        /* \"Campaign.sol\":916:927  uint256 dur */\n      0x00\n        /* \"Campaign.sol\":946:961  block.timestamp */\n      timestamp\n        /* \"Campaign.sol\":935:943  duration */\n      dup3\n        /* \"Campaign.sol\":930:932  60 */\n      0x3c\n        /* \"Campaign.sol\":930:943  60 * duration */\n      tag_42\n      swap2\n      swap1\n      tag_43\n      jump\t// in\n    tag_42:\n        /* \"Campaign.sol\":930:961  60 * duration + block.timestamp */\n      tag_44\n      swap2\n      swap1\n      tag_45\n      jump\t// in\n    tag_44:\n        /* \"Campaign.sol\":916:961  uint256 dur = 60 * duration + block.timestamp */\n      swap1\n      pop\n        /* \"Campaign.sol\":1009:1028  address newCampaign */\n      0x00\n        /* \"Campaign.sol\":1066:1073  minimum */\n      dup6\n        /* \"Campaign.sol\":1075:1083  dataSell */\n      dup6\n        /* \"Campaign.sol\":1085:1093  dataDesc */\n      dup6\n        /* \"Campaign.sol\":1095:1105  msg.sender */\n      caller\n        /* \"Campaign.sol\":1107:1110  dur */\n      dup6\n        /* \"Campaign.sol\":1053:1111  new Campaign(minimum, dataSell, dataDesc, msg.sender, dur) */\n      mload(0x40)\n      tag_46\n      swap1\n      tag_47\n      jump\t// in\n    tag_46:\n      tag_48\n      swap6\n      swap5\n      swap4\n      swap3\n      swap2\n      swap1\n      tag_49\n      jump\t// in\n    tag_48:\n      mload(0x40)\n      dup1\n      swap2\n      sub\n      swap1\n      0x00\n      create\n      dup1\n      iszero\n      dup1\n      iszero\n      tag_50\n      jumpi\n      returndatacopy(0x00, 0x00, returndatasize)\n      revert(0x00, returndatasize)\n    tag_50:\n      pop\n        /* \"Campaign.sol\":1009:1122  address newCampaign = address(... */\n      swap1\n      pop\n        /* \"Campaign.sol\":1133:1150  deployedCampaigns */\n      0x00\n        /* \"Campaign.sol\":1164:1175  newCampaign */\n      dup2\n        /* \"Campaign.sol\":1133:1177  deployedCampaigns.push(payable(newCampaign)) */\n      swap1\n      dup1\n      0x01\n      dup2\n      sload\n      add\n      dup1\n      dup3\n      sstore\n      dup1\n      swap2\n      pop\n      pop\n      0x01\n      swap1\n      sub\n      swap1\n      0x00\n      mstore\n      keccak256(0x00, 0x20)\n      add\n      0x00\n      swap1\n      swap2\n      swap1\n      swap2\n      swap1\n      swap2\n      0x0100\n      exp\n      dup2\n      sload\n      dup2\n      0xffffffffffffffffffffffffffffffffffffffff\n      mul\n      not\n      and\n      swap1\n      dup4\n      0xffffffffffffffffffffffffffffffffffffffff\n      and\n      mul\n      or\n      swap1\n      sstore\n      pop\n        /* \"Campaign.sol\":905:1185  {... */\n      pop\n      pop\n        /* \"Campaign.sol\":675:1185  function createCampaign(... */\n      pop\n      pop\n      pop\n      pop\n      jump\t// out\n    tag_47:\n      dataSize(sub_0)\n      dup1\n      dataOffset(sub_0)\n      dup4\n      codecopy\n      add\n      swap1\n      jump\t// out\n        /* \"#utility.yul\":7:82   */\n    tag_52:\n        /* \"#utility.yul\":40:46   */\n      0x00\n        /* \"#utility.yul\":73:75   */\n      0x40\n        /* \"#utility.yul\":67:76   */\n      mload\n        /* \"#utility.yul\":57:76   */\n      swap1\n      pop\n        /* \"#utility.yul\":7:82   */\n      swap1\n      jump\t// out\n        /* \"#utility.yul\":88:205   */\n    tag_53:\n        /* \"#utility.yul\":197:198   */\n      0x00\n        /* \"#utility.yul\":194:195   */\n      0x00\n        /* \"#utility.yul\":187:199   */\n      revert\n        /* \"#utility.yul\":211:328   */\n    tag_54:\n        /* \"#utility.yul\":320:321   */\n      0x00\n        /* \"#utility.yul\":317:318   */\n      0x00\n        /* \"#utility.yul\":310:322   */\n      revert\n        /* \"#utility.yul\":334:411   */\n    tag_55:\n        /* \"#utility.yul\":371:378   */\n      0x00\n        /* \"#utility.yul\":400:405   */\n      dup2\n        /* \"#utility.yul\":389:405   */\n      swap1\n      pop\n        /* \"#utility.yul\":334:411   */\n      swap2\n      swap1\n      pop\n      jump\t// out\n        /* \"#utility.yul\":417:539   */\n    tag_56:\n        /* \"#utility.yul\":490:514   */\n      tag_92\n        /* \"#utility.yul\":508:513   */\n      dup2\n        /* \"#utility.yul\":490:514   */\n      tag_55\n      jump\t// in\n    tag_92:\n        /* \"#utility.yul\":483:488   */\n      dup2\n        /* \"#utility.yul\":480:515   */\n      eq\n        /* \"#utility.yul\":470:533   */\n      tag_93\n      jumpi\n        /* \"#utility.yul\":529:530   */\n      0x00\n        /* \"#utility.yul\":526:527   */\n      0x00\n        /* \"#utility.yul\":519:531   */\n      revert\n        /* \"#utility.yul\":470:533   */\n    tag_93:\n        /* \"#utility.yul\":417:539   */\n      pop\n      jump\t// out\n        /* \"#utility.yul\":545:684   */\n    tag_57:\n        /* \"#utility.yul\":591:596   */\n      0x00\n        /* \"#utility.yul\":629:635   */\n      dup2\n        /* \"#utility.yul\":616:636   */\n      calldataload\n        /* \"#utility.yul\":607:636   */\n      swap1\n      pop\n        /* \"#utility.yul\":645:678   */\n      tag_95\n        /* \"#utility.yul\":672:677   */\n      dup2\n        /* \"#utility.yul\":645:678   */\n      tag_56\n      jump\t// in\n    tag_95:\n        /* \"#utility.yul\":545:684   */\n      swap3\n      swap2\n      pop\n      pop\n      jump\t// out\n        /* \"#utility.yul\":690:1019   */\n    tag_9:\n        /* \"#utility.yul\":749:755   */\n      0x00\n        /* \"#utility.yul\":798:800   */\n      0x20\n        /* \"#utility.yul\":786:795   */\n      dup3\n        /* \"#utility.yul\":777:784   */\n      dup5\n        /* \"#utility.yul\":773:796   */\n      sub\n        /* \"#utility.yul\":769:801   */\n      slt\n        /* \"#utility.yul\":766:885   */\n      iszero\n      tag_97\n      jumpi\n        /* \"#utility.yul\":804:883   */\n      tag_98\n      tag_53\n      jump\t// in\n    tag_98:\n        /* \"#utility.yul\":766:885   */\n    tag_97:\n        /* \"#utility.yul\":924:925   */\n      0x00\n        /* \"#utility.yul\":949:1002   */\n      tag_99\n        /* \"#utility.yul\":994:1001   */\n      dup5\n        /* \"#utility.yul\":985:991   */\n      dup3\n        /* \"#utility.yul\":974:983   */\n      dup6\n        /* \"#utility.yul\":970:992   */\n      add\n        /* \"#utility.yul\":949:1002   */\n      tag_57\n      jump\t// in\n    tag_99:\n        /* \"#utility.yul\":939:1002   */\n      swap2\n      pop\n        /* \"#utility.yul\":895:1012   */\n      pop\n        /* \"#utility.yul\":690:1019   */\n      swap3\n      swap2\n      pop\n      pop\n      jump\t// out\n        /* \"#utility.yul\":1025:1151   */\n    tag_58:\n        /* \"#utility.yul\":1062:1069   */\n      0x00\n        /* \"#utility.yul\":1102:1144   */\n      0xffffffffffffffffffffffffffffffffffffffff\n        /* \"#utility.yul\":1095:1100   */\n      dup3\n        /* \"#utility.yul\":1091:1145   */\n      and\n        /* \"#utility.yul\":1080:1145   */\n      swap1\n      pop\n        /* \"#utility.yul\":1025:1151   */\n      swap2\n      swap1\n      pop\n      jump\t// out\n        /* \"#utility.yul\":1157:1261   */\n    tag_59:\n        /* \"#utility.yul\":1202:1209   */\n      0x00\n        /* \"#utility.yul\":1231:1255   */\n      tag_102\n        /* \"#utility.yul\":1249:1254   */\n      dup3\n        /* \"#utility.yul\":1231:1255   */\n      tag_58\n      jump\t// in\n    tag_102:\n        /* \"#utility.yul\":1220:1255   */\n      swap1\n      pop\n        /* \"#utility.yul\":1157:1261   */\n      swap2\n      swap1\n      pop\n      jump\t// out\n        /* \"#utility.yul\":1267:1409   */\n    tag_60:\n        /* \"#utility.yul\":1370:1402   */\n      tag_104\n        /* \"#utility.yul\":1396:1401   */\n      dup2\n        /* \"#utility.yul\":1370:1402   */\n      tag_59\n      jump\t// in\n    tag_104:\n        /* \"#utility.yul\":1365:1368   */\n      dup3\n        /* \"#utility.yul\":1358:1403   */\n      mstore\n        /* \"#utility.yul\":1267:1409   */\n      pop\n      pop\n      jump\t// out\n        /* \"#utility.yul\":1415:1669   */\n    tag_12:\n        /* \"#utility.yul\":1524:1528   */\n      0x00\n        /* \"#utility.yul\":1562:1564   */\n      0x20\n        /* \"#utility.yul\":1551:1560   */\n      dup3\n        /* \"#utility.yul\":1547:1565   */\n      add\n        /* \"#utility.yul\":1539:1565   */\n      swap1\n      pop\n        /* \"#utility.yul\":1575:1662   */\n      tag_106\n        /* \"#utility.yul\":1659:1660   */\n      0x00\n        /* \"#utility.yul\":1648:1657   */\n      dup4\n        /* \"#utility.yul\":1644:1661   */\n      add\n        /* \"#utility.yul\":1635:1641   */\n      dup5\n        /* \"#utility.yul\":1575:1662   */\n      tag_60\n      jump\t// in\n    tag_106:\n        /* \"#utility.yul\":1415:1669   */\n      swap3\n      swap2\n      pop\n      pop\n      jump\t// out\n        /* \"#utility.yul\":1675:1797   */\n    tag_61:\n        /* \"#utility.yul\":1750:1756   */\n      0x00\n        /* \"#utility.yul\":1784:1789   */\n      dup2\n        /* \"#utility.yul\":1778:1790   */\n      mload\n        /* \"#utility.yul\":1768:1790   */\n      swap1\n      pop\n        /* \"#utility.yul\":1675:1797   */\n      swap2\n      swap1\n      pop\n      jump\t// out\n        /* \"#utility.yul\":1803:1995   */\n    tag_62:\n        /* \"#utility.yul\":1910:1921   */\n      0x00\n        /* \"#utility.yul\":1944:1950   */\n      dup3\n        /* \"#utility.yul\":1939:1942   */\n      dup3\n        /* \"#utility.yul\":1932:1951   */\n      mstore\n        /* \"#utility.yul\":1984:1988   */\n      0x20\n        /* \"#utility.yul\":1979:1982   */\n      dup3\n        /* \"#utility.yul\":1975:1989   */\n      add\n        /* \"#utility.yul\":1960:1989   */\n      swap1\n      pop\n        /* \"#utility.yul\":1803:1995   */\n      swap3\n      swap2\n      pop\n      pop\n      jump\t// out\n        /* \"#utility.yul\":2001:2141   */\n    tag_63:\n        /* \"#utility.yul\":2076:2080   */\n      0x00\n        /* \"#utility.yul\":2099:2102   */\n      dup2\n        /* \"#utility.yul\":2091:2102   */\n      swap1\n      pop\n        /* \"#utility.yul\":2129:2133   */\n      0x20\n        /* \"#utility.yul\":2124:2127   */\n      dup3\n        /* \"#utility.yul\":2120:2134   */\n      add\n        /* \"#utility.yul\":2112:2134   */\n      swap1\n      pop\n        /* \"#utility.yul\":2001:2141   */\n      swap2\n      swap1\n      pop\n      jump\t// out\n        /* \"#utility.yul\":2147:2279   */\n    tag_64:\n        /* \"#utility.yul\":2240:2272   */\n      tag_111\n        /* \"#utility.yul\":2266:2271   */\n      dup2\n        /* \"#utility.yul\":2240:2272   */\n      tag_59\n      jump\t// in\n    tag_111:\n        /* \"#utility.yul\":2235:2238   */\n      dup3\n        /* \"#utility.yul\":2228:2273   */\n      mstore\n        /* \"#utility.yul\":2147:2279   */\n      pop\n      pop\n      jump\t// out\n        /* \"#utility.yul\":2285:2496   */\n    tag_65:\n        /* \"#utility.yul\":2370:2380   */\n      0x00\n        /* \"#utility.yul\":2391:2453   */\n      tag_113\n        /* \"#utility.yul\":2449:2452   */\n      dup4\n        /* \"#utility.yul\":2441:2447   */\n      dup4\n        /* \"#utility.yul\":2391:2453   */\n      tag_64\n      jump\t// in\n    tag_113:\n        /* \"#utility.yul\":2485:2489   */\n      0x20\n        /* \"#utility.yul\":2480:2483   */\n      dup4\n        /* \"#utility.yul\":2476:2490   */\n      add\n        /* \"#utility.yul\":2462:2490   */\n      swap1\n      pop\n        /* \"#utility.yul\":2285:2496   */\n      swap3\n      swap2\n      pop\n      pop\n      jump\t// out\n        /* \"#utility.yul\":2502:2623   */\n    tag_66:\n        /* \"#utility.yul\":2580:2584   */\n      0x00\n        /* \"#utility.yul\":2612:2616   */\n      0x20\n        /* \"#utility.yul\":2607:2610   */\n      dup3\n        /* \"#utility.yul\":2603:2617   */\n      add\n        /* \"#utility.yul\":2595:2617   */\n      swap1\n      pop\n        /* \"#utility.yul\":2502:2623   */\n      swap2\n      swap1\n      pop\n      jump\t// out\n        /* \"#utility.yul\":2675:3471   */\n    tag_67:\n        /* \"#utility.yul\":2810:2813   */\n      0x00\n        /* \"#utility.yul\":2839:2901   */\n      tag_116\n        /* \"#utility.yul\":2895:2900   */\n      dup3\n        /* \"#utility.yul\":2839:2901   */\n      tag_61\n      jump\t// in\n    tag_116:\n        /* \"#utility.yul\":2917:3011   */\n      tag_117\n        /* \"#utility.yul\":3004:3010   */\n      dup2\n        /* \"#utility.yul\":2999:3002   */\n      dup6\n        /* \"#utility.yul\":2917:3011   */\n      tag_62\n      jump\t// in\n    tag_117:\n        /* \"#utility.yul\":2910:3011   */\n      swap4\n      pop\n        /* \"#utility.yul\":3035:3099   */\n      tag_118\n        /* \"#utility.yul\":3093:3098   */\n      dup4\n        /* \"#utility.yul\":3035:3099   */\n      tag_63\n      jump\t// in\n    tag_118:\n        /* \"#utility.yul\":3122:3129   */\n      dup1\n        /* \"#utility.yul\":3153:3154   */\n      0x00\n        /* \"#utility.yul\":3138:3446   */\n    tag_119:\n        /* \"#utility.yul\":3163:3169   */\n      dup4\n        /* \"#utility.yul\":3160:3161   */\n      dup2\n        /* \"#utility.yul\":3157:3170   */\n      lt\n        /* \"#utility.yul\":3138:3446   */\n      iszero\n      tag_121\n      jumpi\n        /* \"#utility.yul\":3239:3245   */\n      dup2\n        /* \"#utility.yul\":3233:3246   */\n      mload\n        /* \"#utility.yul\":3266:3345   */\n      tag_122\n        /* \"#utility.yul\":3341:3344   */\n      dup9\n        /* \"#utility.yul\":3326:3339   */\n      dup3\n        /* \"#utility.yul\":3266:3345   */\n      tag_65\n      jump\t// in\n    tag_122:\n        /* \"#utility.yul\":3259:3345   */\n      swap8\n      pop\n        /* \"#utility.yul\":3368:3436   */\n      tag_123\n        /* \"#utility.yul\":3429:3435   */\n      dup4\n        /* \"#utility.yul\":3368:3436   */\n      tag_66\n      jump\t// in\n    tag_123:\n        /* \"#utility.yul\":3358:3436   */\n      swap3\n      pop\n        /* \"#utility.yul\":3198:3446   */\n      pop\n        /* \"#utility.yul\":3185:3186   */\n      0x01\n        /* \"#utility.yul\":3182:3183   */\n      dup2\n        /* \"#utility.yul\":3178:3187   */\n      add\n        /* \"#utility.yul\":3173:3187   */\n      swap1\n      pop\n        /* \"#utility.yul\":3138:3446   */\n      jump(tag_119)\n    tag_121:\n        /* \"#utility.yul\":3142:3156   */\n      pop\n        /* \"#utility.yul\":3462:3465   */\n      dup6\n        /* \"#utility.yul\":3455:3465   */\n      swap4\n      pop\n        /* \"#utility.yul\":2815:3471   */\n      pop\n      pop\n      pop\n        /* \"#utility.yul\":2675:3471   */\n      swap3\n      swap2\n      pop\n      pop\n      jump\t// out\n        /* \"#utility.yul\":3477:3882   */\n    tag_17:\n        /* \"#utility.yul\":3636:3640   */\n      0x00\n        /* \"#utility.yul\":3674:3676   */\n      0x20\n        /* \"#utility.yul\":3663:3672   */\n      dup3\n        /* \"#utility.yul\":3659:3677   */\n      add\n        /* \"#utility.yul\":3651:3677   */\n      swap1\n      pop\n        /* \"#utility.yul\":3723:3732   */\n      dup2\n        /* \"#utility.yul\":3717:3721   */\n      dup2\n        /* \"#utility.yul\":3713:3733   */\n      sub\n        /* \"#utility.yul\":3709:3710   */\n      0x00\n        /* \"#utility.yul\":3698:3707   */\n      dup4\n        /* \"#utility.yul\":3694:3711   */\n      add\n        /* \"#utility.yul\":3687:3734   */\n      mstore\n        /* \"#utility.yul\":3751:3875   */\n      tag_125\n        /* \"#utility.yul\":3870:3874   */\n      dup2\n        /* \"#utility.yul\":3861:3867   */\n      dup5\n        /* \"#utility.yul\":3751:3875   */\n      tag_67\n      jump\t// in\n    tag_125:\n        /* \"#utility.yul\":3743:3875   */\n      swap1\n      pop\n        /* \"#utility.yul\":3477:3882   */\n      swap3\n      swap2\n      pop\n      pop\n      jump\t// out\n        /* \"#utility.yul\":3888:4005   */\n    tag_68:\n        /* \"#utility.yul\":3997:3998   */\n      0x00\n        /* \"#utility.yul\":3994:3995   */\n      0x00\n        /* \"#utility.yul\":3987:3999   */\n      revert\n        /* \"#utility.yul\":4011:4128   */\n    tag_69:\n        /* \"#utility.yul\":4120:4121   */\n      0x00\n        /* \"#utility.yul\":4117:4118   */\n      0x00\n        /* \"#utility.yul\":4110:4122   */\n      revert\n        /* \"#utility.yul\":4134:4236   */\n    tag_70:\n        /* \"#utility.yul\":4175:4181   */\n      0x00\n        /* \"#utility.yul\":4226:4228   */\n      0x1f\n        /* \"#utility.yul\":4222:4229   */\n      not\n        /* \"#utility.yul\":4217:4219   */\n      0x1f\n        /* \"#utility.yul\":4210:4215   */\n      dup4\n        /* \"#utility.yul\":4206:4220   */\n      add\n        /* \"#utility.yul\":4202:4230   */\n      and\n        /* \"#utility.yul\":4192:4230   */\n      swap1\n      pop\n        /* \"#utility.yul\":4134:4236   */\n      swap2\n      swap1\n      pop\n      jump\t// out\n        /* \"#utility.yul\":4242:4422   */\n    tag_71:\n        /* \"#utility.yul\":4290:4367   */\n      0x4e487b7100000000000000000000000000000000000000000000000000000000\n        /* \"#utility.yul\":4287:4288   */\n      0x00\n        /* \"#utility.yul\":4280:4368   */\n      mstore\n        /* \"#utility.yul\":4387:4391   */\n      0x41\n        /* \"#utility.yul\":4384:4385   */\n      0x04\n        /* \"#utility.yul\":4377:4392   */\n      mstore\n        /* \"#utility.yul\":4411:4415   */\n      0x24\n        /* \"#utility.yul\":4408:4409   */\n      0x00\n        /* \"#utility.yul\":4401:4416   */\n      revert\n        /* \"#utility.yul\":4428:4709   */\n    tag_72:\n        /* \"#utility.yul\":4511:4538   */\n      tag_131\n        /* \"#utility.yul\":4533:4537   */\n      dup3\n        /* \"#utility.yul\":4511:4538   */\n      tag_70\n      jump\t// in\n    tag_131:\n        /* \"#utility.yul\":4503:4509   */\n      dup2\n        /* \"#utility.yul\":4499:4539   */\n      add\n        /* \"#utility.yul\":4641:4647   */\n      dup2\n        /* \"#utility.yul\":4629:4639   */\n      dup2\n        /* \"#utility.yul\":4626:4648   */\n      lt\n        /* \"#utility.yul\":4605:4623   */\n      0xffffffffffffffff\n        /* \"#utility.yul\":4593:4603   */\n      dup3\n        /* \"#utility.yul\":4590:4624   */\n      gt\n        /* \"#utility.yul\":4587:4649   */\n      or\n        /* \"#utility.yul\":4584:4672   */\n      iszero\n      tag_132\n      jumpi\n        /* \"#utility.yul\":4652:4670   */\n      tag_133\n      tag_71\n      jump\t// in\n    tag_133:\n        /* \"#utility.yul\":4584:4672   */\n    tag_132:\n        /* \"#utility.yul\":4692:4702   */\n      dup1\n        /* \"#utility.yul\":4688:4690   */\n      0x40\n        /* \"#utility.yul\":4681:4703   */\n      mstore\n        /* \"#utility.yul\":4471:4709   */\n      pop\n        /* \"#utility.yul\":4428:4709   */\n      pop\n      pop\n      jump\t// out\n        /* \"#utility.yul\":4715:4844   */\n    tag_73:\n        /* \"#utility.yul\":4749:4755   */\n      0x00\n        /* \"#utility.yul\":4776:4796   */\n      tag_135\n      tag_52\n      jump\t// in\n    tag_135:\n        /* \"#utility.yul\":4766:4796   */\n      swap1\n      pop\n        /* \"#utility.yul\":4805:4838   */\n      tag_136\n        /* \"#utility.yul\":4833:4837   */\n      dup3\n        /* \"#utility.yul\":4825:4831   */\n      dup3\n        /* \"#utility.yul\":4805:4838   */\n      tag_72\n      jump\t// in\n    tag_136:\n        /* \"#utility.yul\":4715:4844   */\n      swap2\n      swap1\n      pop\n      jump\t// out\n        /* \"#utility.yul\":4850:5158   */\n    tag_74:\n        /* \"#utility.yul\":4912:4916   */\n      0x00\n        /* \"#utility.yul\":5002:5020   */\n      0xffffffffffffffff\n        /* \"#utility.yul\":4994:5000   */\n      dup3\n        /* \"#utility.yul\":4991:5021   */\n      gt\n        /* \"#utility.yul\":4988:5044   */\n      iszero\n      tag_138\n      jumpi\n        /* \"#utility.yul\":5024:5042   */\n      tag_139\n      tag_71\n      jump\t// in\n    tag_139:\n        /* \"#utility.yul\":4988:5044   */\n    tag_138:\n        /* \"#utility.yul\":5062:5091   */\n      tag_140\n        /* \"#utility.yul\":5084:5090   */\n      dup3\n        /* \"#utility.yul\":5062:5091   */\n      tag_70\n      jump\t// in\n    tag_140:\n        /* \"#utility.yul\":5054:5091   */\n      swap1\n      pop\n        /* \"#utility.yul\":5146:5150   */\n      0x20\n        /* \"#utility.yul\":5140:5144   */\n      dup2\n        /* \"#utility.yul\":5136:5151   */\n      add\n        /* \"#utility.yul\":5128:5151   */\n      swap1\n      pop\n        /* \"#utility.yul\":4850:5158   */\n      swap2\n      swap1\n      pop\n      jump\t// out\n        /* \"#utility.yul\":5164:5312   */\n    tag_75:\n        /* \"#utility.yul\":5262:5268   */\n      dup3\n        /* \"#utility.yul\":5257:5260   */\n      dup2\n        /* \"#utility.yul\":5252:5255   */\n      dup4\n        /* \"#utility.yul\":5239:5269   */\n      calldatacopy\n        /* \"#utility.yul\":5303:5304   */\n      0x00\n        /* \"#utility.yul\":5294:5300   */\n      dup4\n        /* \"#utility.yul\":5289:5292   */\n      dup4\n        /* \"#utility.yul\":5285:5301   */\n      add\n        /* \"#utility.yul\":5278:5305   */\n      mstore\n        /* \"#utility.yul\":5164:5312   */\n      pop\n      pop\n      pop\n      jump\t// out\n        /* \"#utility.yul\":5318:5743   */\n    tag_76:\n        /* \"#utility.yul\":5396:5401   */\n      0x00\n        /* \"#utility.yul\":5421:5487   */\n      tag_143\n        /* \"#utility.yul\":5437:5486   */\n      tag_144\n        /* \"#utility.yul\":5479:5485   */\n      dup5\n        /* \"#utility.yul\":5437:5486   */\n      tag_74\n      jump\t// in\n    tag_144:\n        /* \"#utility.yul\":5421:5487   */\n      tag_73\n      jump\t// in\n    tag_143:\n        /* \"#utility.yul\":5412:5487   */\n      swap1\n      pop\n        /* \"#utility.yul\":5510:5516   */\n      dup3\n        /* \"#utility.yul\":5503:5508   */\n      dup2\n        /* \"#utility.yul\":5496:5517   */\n      mstore\n        /* \"#utility.yul\":5548:5552   */\n      0x20\n        /* \"#utility.yul\":5541:5546   */\n      dup2\n        /* \"#utility.yul\":5537:5553   */\n      add\n        /* \"#utility.yul\":5586:5589   */\n      dup5\n        /* \"#utility.yul\":5577:5583   */\n      dup5\n        /* \"#utility.yul\":5572:5575   */\n      dup5\n        /* \"#utility.yul\":5568:5584   */\n      add\n        /* \"#utility.yul\":5565:5590   */\n      gt\n        /* \"#utility.yul\":5562:5674   */\n      iszero\n      tag_145\n      jumpi\n        /* \"#utility.yul\":5593:5672   */\n      tag_146\n      tag_69\n      jump\t// in\n    tag_146:\n        /* \"#utility.yul\":5562:5674   */\n    tag_145:\n        /* \"#utility.yul\":5683:5737   */\n      tag_147\n        /* \"#utility.yul\":5730:5736   */\n      dup5\n        /* \"#utility.yul\":5725:5728   */\n      dup3\n        /* \"#utility.yul\":5720:5723   */\n      dup6\n        /* \"#utility.yul\":5683:5737   */\n      tag_75\n      jump\t// in\n    tag_147:\n        /* \"#utility.yul\":5402:5743   */\n      pop\n        /* \"#utility.yul\":5318:5743   */\n      swap4\n      swap3\n      pop\n      pop\n      pop\n      jump\t// out\n        /* \"#utility.yul\":5763:6103   */\n    tag_77:\n        /* \"#utility.yul\":5819:5824   */\n      0x00\n        /* \"#utility.yul\":5868:5871   */\n      dup3\n        /* \"#utility.yul\":5861:5865   */\n      0x1f\n        /* \"#utility.yul\":5853:5859   */\n      dup4\n        /* \"#utility.yul\":5849:5866   */\n      add\n        /* \"#utility.yul\":5845:5872   */\n      slt\n        /* \"#utility.yul\":5835:5957   */\n      tag_149\n      jumpi\n        /* \"#utility.yul\":5876:5955   */\n      tag_150\n      tag_68\n      jump\t// in\n    tag_150:\n        /* \"#utility.yul\":5835:5957   */\n    tag_149:\n        /* \"#utility.yul\":5993:5999   */\n      dup2\n        /* \"#utility.yul\":5980:6000   */\n      calldataload\n        /* \"#utility.yul\":6018:6097   */\n      tag_151\n        /* \"#utility.yul\":6093:6096   */\n      dup5\n        /* \"#utility.yul\":6085:6091   */\n      dup3\n        /* \"#utility.yul\":6078:6082   */\n      0x20\n        /* \"#utility.yul\":6070:6076   */\n      dup7\n        /* \"#utility.yul\":6066:6083   */\n      add\n        /* \"#utility.yul\":6018:6097   */\n      tag_76\n      jump\t// in\n    tag_151:\n        /* \"#utility.yul\":6009:6097   */\n      swap2\n      pop\n        /* \"#utility.yul\":5825:6103   */\n      pop\n        /* \"#utility.yul\":5763:6103   */\n      swap3\n      swap2\n      pop\n      pop\n      jump\t// out\n        /* \"#utility.yul\":6109:7234   */\n    tag_23:\n        /* \"#utility.yul\":6215:6221   */\n      0x00\n        /* \"#utility.yul\":6223:6229   */\n      0x00\n        /* \"#utility.yul\":6231:6237   */\n      0x00\n        /* \"#utility.yul\":6239:6245   */\n      0x00\n        /* \"#utility.yul\":6288:6291   */\n      0x80\n        /* \"#utility.yul\":6276:6285   */\n      dup6\n        /* \"#utility.yul\":6267:6274   */\n      dup8\n        /* \"#utility.yul\":6263:6286   */\n      sub\n        /* \"#utility.yul\":6259:6292   */\n      slt\n        /* \"#utility.yul\":6256:6376   */\n      iszero\n      tag_153\n      jumpi\n        /* \"#utility.yul\":6295:6374   */\n      tag_154\n      tag_53\n      jump\t// in\n    tag_154:\n        /* \"#utility.yul\":6256:6376   */\n    tag_153:\n        /* \"#utility.yul\":6415:6416   */\n      0x00\n        /* \"#utility.yul\":6440:6493   */\n      tag_155\n        /* \"#utility.yul\":6485:6492   */\n      dup8\n        /* \"#utility.yul\":6476:6482   */\n      dup3\n        /* \"#utility.yul\":6465:6474   */\n      dup9\n        /* \"#utility.yul\":6461:6483   */\n      add\n        /* \"#utility.yul\":6440:6493   */\n      tag_57\n      jump\t// in\n    tag_155:\n        /* \"#utility.yul\":6430:6493   */\n      swap5\n      pop\n        /* \"#utility.yul\":6386:6503   */\n      pop\n        /* \"#utility.yul\":6570:6572   */\n      0x20\n        /* \"#utility.yul\":6559:6568   */\n      dup6\n        /* \"#utility.yul\":6555:6573   */\n      add\n        /* \"#utility.yul\":6542:6574   */\n      calldataload\n        /* \"#utility.yul\":6601:6619   */\n      0xffffffffffffffff\n        /* \"#utility.yul\":6593:6599   */\n      dup2\n        /* \"#utility.yul\":6590:6620   */\n      gt\n        /* \"#utility.yul\":6587:6704   */\n      iszero\n      tag_156\n      jumpi\n        /* \"#utility.yul\":6623:6702   */\n      tag_157\n      tag_54\n      jump\t// in\n    tag_157:\n        /* \"#utility.yul\":6587:6704   */\n    tag_156:\n        /* \"#utility.yul\":6728:6791   */\n      tag_158\n        /* \"#utility.yul\":6783:6790   */\n      dup8\n        /* \"#utility.yul\":6774:6780   */\n      dup3\n        /* \"#utility.yul\":6763:6772   */\n      dup9\n        /* \"#utility.yul\":6759:6781   */\n      add\n        /* \"#utility.yul\":6728:6791   */\n      tag_77\n      jump\t// in\n    tag_158:\n        /* \"#utility.yul\":6718:6791   */\n      swap4\n      pop\n        /* \"#utility.yul\":6513:6801   */\n      pop\n        /* \"#utility.yul\":6868:6870   */\n      0x40\n        /* \"#utility.yul\":6857:6866   */\n      dup6\n        /* \"#utility.yul\":6853:6871   */\n      add\n        /* \"#utility.yul\":6840:6872   */\n      calldataload\n        /* \"#utility.yul\":6899:6917   */\n      0xffffffffffffffff\n        /* \"#utility.yul\":6891:6897   */\n      dup2\n        /* \"#utility.yul\":6888:6918   */\n      gt\n        /* \"#utility.yul\":6885:7002   */\n      iszero\n      tag_159\n      jumpi\n        /* \"#utility.yul\":6921:7000   */\n      tag_160\n      tag_54\n      jump\t// in\n    tag_160:\n        /* \"#utility.yul\":6885:7002   */\n    tag_159:\n        /* \"#utility.yul\":7026:7089   */\n      tag_161\n        /* \"#utility.yul\":7081:7088   */\n      dup8\n        /* \"#utility.yul\":7072:7078   */\n      dup3\n        /* \"#utility.yul\":7061:7070   */\n      dup9\n        /* \"#utility.yul\":7057:7079   */\n      add\n        /* \"#utility.yul\":7026:7089   */\n      tag_77\n      jump\t// in\n    tag_161:\n        /* \"#utility.yul\":7016:7089   */\n      swap3\n      pop\n        /* \"#utility.yul\":6811:7099   */\n      pop\n        /* \"#utility.yul\":7138:7140   */\n      0x60\n        /* \"#utility.yul\":7164:7217   */\n      tag_162\n        /* \"#utility.yul\":7209:7216   */\n      dup8\n        /* \"#utility.yul\":7200:7206   */\n      dup3\n        /* \"#utility.yul\":7189:7198   */\n      dup9\n        /* \"#utility.yul\":7185:7207   */\n      add\n        /* \"#utility.yul\":7164:7217   */\n      tag_57\n      jump\t// in\n    tag_162:\n        /* \"#utility.yul\":7154:7217   */\n      swap2\n      pop\n        /* \"#utility.yul\":7109:7227   */\n      pop\n        /* \"#utility.yul\":6109:7234   */\n      swap3\n      swap6\n      swap2\n      swap5\n      pop\n      swap3\n      pop\n      jump\t// out\n        /* \"#utility.yul\":7240:7420   */\n    tag_36:\n        /* \"#utility.yul\":7288:7365   */\n      0x4e487b7100000000000000000000000000000000000000000000000000000000\n        /* \"#utility.yul\":7285:7286   */\n      0x00\n        /* \"#utility.yul\":7278:7366   */\n      mstore\n        /* \"#utility.yul\":7385:7389   */\n      0x32\n        /* \"#utility.yul\":7382:7383   */\n      0x04\n        /* \"#utility.yul\":7375:7390   */\n      mstore\n        /* \"#utility.yul\":7409:7413   */\n      0x24\n        /* \"#utility.yul\":7406:7407   */\n      0x00\n        /* \"#utility.yul\":7399:7414   */\n      revert\n        /* \"#utility.yul\":7426:7606   */\n    tag_78:\n        /* \"#utility.yul\":7474:7551   */\n      0x4e487b7100000000000000000000000000000000000000000000000000000000\n        /* \"#utility.yul\":7471:7472   */\n      0x00\n        /* \"#utility.yul\":7464:7552   */\n      mstore\n        /* \"#utility.yul\":7571:7575   */\n      0x11\n        /* \"#utility.yul\":7568:7569   */\n      0x04\n        /* \"#utility.yul\":7561:7576   */\n      mstore\n        /* \"#utility.yul\":7595:7599   */\n      0x24\n        /* \"#utility.yul\":7592:7593   */\n      0x00\n        /* \"#utility.yul\":7585:7600   */\n      revert\n        /* \"#utility.yul\":7612:8022   */\n    tag_43:\n        /* \"#utility.yul\":7652:7659   */\n      0x00\n        /* \"#utility.yul\":7675:7695   */\n      tag_166\n        /* \"#utility.yul\":7693:7694   */\n      dup3\n        /* \"#utility.yul\":7675:7695   */\n      tag_55\n      jump\t// in\n    tag_166:\n        /* \"#utility.yul\":7670:7695   */\n      swap2\n      pop\n        /* \"#utility.yul\":7709:7729   */\n      tag_167\n        /* \"#utility.yul\":7727:7728   */\n      dup4\n        /* \"#utility.yul\":7709:7729   */\n      tag_55\n      jump\t// in\n    tag_167:\n        /* \"#utility.yul\":7704:7729   */\n      swap3\n      pop\n        /* \"#utility.yul\":7764:7765   */\n      dup3\n        /* \"#utility.yul\":7761:7762   */\n      dup3\n        /* \"#utility.yul\":7757:7766   */\n      mul\n        /* \"#utility.yul\":7786:7816   */\n      tag_168\n        /* \"#utility.yul\":7804:7815   */\n      dup2\n        /* \"#utility.yul\":7786:7816   */\n      tag_55\n      jump\t// in\n    tag_168:\n        /* \"#utility.yul\":7775:7816   */\n      swap2\n      pop\n        /* \"#utility.yul\":7965:7966   */\n      dup3\n        /* \"#utility.yul\":7956:7963   */\n      dup3\n        /* \"#utility.yul\":7952:7967   */\n      div\n        /* \"#utility.yul\":7949:7950   */\n      dup5\n        /* \"#utility.yul\":7946:7968   */\n      eq\n        /* \"#utility.yul\":7926:7927   */\n      dup4\n        /* \"#utility.yul\":7919:7928   */\n      iszero\n        /* \"#utility.yul\":7899:7982   */\n      or\n        /* \"#utility.yul\":7876:8015   */\n      tag_169\n      jumpi\n        /* \"#utility.yul\":7995:8013   */\n      tag_170\n      tag_78\n      jump\t// in\n    tag_170:\n        /* \"#utility.yul\":7876:8015   */\n    tag_169:\n        /* \"#utility.yul\":7660:8022   */\n      pop\n        /* \"#utility.yul\":7612:8022   */\n      swap3\n      swap2\n      pop\n      pop\n      jump\t// out\n        /* \"#utility.yul\":8028:8219   */\n    tag_45:\n        /* \"#utility.yul\":8068:8071   */\n      0x00\n        /* \"#utility.yul\":8087:8107   */\n      tag_172\n        /* \"#utility.yul\":8105:8106   */\n      dup3\n        /* \"#utility.yul\":8087:8107   */\n      tag_55\n      jump\t// in\n    tag_172:\n        /* \"#utility.yul\":8082:8107   */\n      swap2\n      pop\n        /* \"#utility.yul\":8121:8141   */\n      tag_173\n        /* \"#utility.yul\":8139:8140   */\n      dup4\n        /* \"#utility.yul\":8121:8141   */\n      tag_55\n      jump\t// in\n    tag_173:\n        /* \"#utility.yul\":8116:8141   */\n      swap3\n      pop\n        /* \"#utility.yul\":8164:8165   */\n      dup3\n        /* \"#utility.yul\":8161:8162   */\n      dup3\n        /* \"#utility.yul\":8157:8166   */\n      add\n        /* \"#utility.yul\":8150:8166   */\n      swap1\n      pop\n        /* \"#utility.yul\":8185:8188   */\n      dup1\n        /* \"#utility.yul\":8182:8183   */\n      dup3\n        /* \"#utility.yul\":8179:8189   */\n      gt\n        /* \"#utility.yul\":8176:8212   */\n      iszero\n      tag_174\n      jumpi\n        /* \"#utility.yul\":8192:8210   */\n      tag_175\n      tag_78\n      jump\t// in\n    tag_175:\n        /* \"#utility.yul\":8176:8212   */\n    tag_174:\n        /* \"#utility.yul\":8028:8219   */\n      swap3\n      swap2\n      pop\n      pop\n      jump\t// out\n        /* \"#utility.yul\":8225:8343   */\n    tag_79:\n        /* \"#utility.yul\":8312:8336   */\n      tag_177\n        /* \"#utility.yul\":8330:8335   */\n      dup2\n        /* \"#utility.yul\":8312:8336   */\n      tag_55\n      jump\t// in\n    tag_177:\n        /* \"#utility.yul\":8307:8310   */\n      dup3\n        /* \"#utility.yul\":8300:8337   */\n      mstore\n        /* \"#utility.yul\":8225:8343   */\n      pop\n      pop\n      jump\t// out\n        /* \"#utility.yul\":8349:8448   */\n    tag_80:\n        /* \"#utility.yul\":8401:8407   */\n      0x00\n        /* \"#utility.yul\":8435:8440   */\n      dup2\n        /* \"#utility.yul\":8429:8441   */\n      mload\n        /* \"#utility.yul\":8419:8441   */\n      swap1\n      pop\n        /* \"#utility.yul\":8349:8448   */\n      swap2\n      swap1\n      pop\n      jump\t// out\n        /* \"#utility.yul\":8454:8623   */\n    tag_81:\n        /* \"#utility.yul\":8538:8549   */\n      0x00\n        /* \"#utility.yul\":8572:8578   */\n      dup3\n        /* \"#utility.yul\":8567:8570   */\n      dup3\n        /* \"#utility.yul\":8560:8579   */\n      mstore\n        /* \"#utility.yul\":8612:8616   */\n      0x20\n        /* \"#utility.yul\":8607:8610   */\n      dup3\n        /* \"#utility.yul\":8603:8617   */\n      add\n        /* \"#utility.yul\":8588:8617   */\n      swap1\n      pop\n        /* \"#utility.yul\":8454:8623   */\n      swap3\n      swap2\n      pop\n      pop\n      jump\t// out\n        /* \"#utility.yul\":8629:8768   */\n    tag_82:\n        /* \"#utility.yul\":8718:8724   */\n      dup3\n        /* \"#utility.yul\":8713:8716   */\n      dup2\n        /* \"#utility.yul\":8708:8711   */\n      dup4\n        /* \"#utility.yul\":8702:8725   */\n      mcopy\n        /* \"#utility.yul\":8759:8760   */\n      0x00\n        /* \"#utility.yul\":8750:8756   */\n      dup4\n        /* \"#utility.yul\":8745:8748   */\n      dup4\n        /* \"#utility.yul\":8741:8757   */\n      add\n        /* \"#utility.yul\":8734:8761   */\n      mstore\n        /* \"#utility.yul\":8629:8768   */\n      pop\n      pop\n      pop\n      jump\t// out\n        /* \"#utility.yul\":8774:9151   */\n    tag_83:\n        /* \"#utility.yul\":8862:8865   */\n      0x00\n        /* \"#utility.yul\":8890:8929   */\n      tag_182\n        /* \"#utility.yul\":8923:8928   */\n      dup3\n        /* \"#utility.yul\":8890:8929   */\n      tag_80\n      jump\t// in\n    tag_182:\n        /* \"#utility.yul\":8945:9016   */\n      tag_183\n        /* \"#utility.yul\":9009:9015   */\n      dup2\n        /* \"#utility.yul\":9004:9007   */\n      dup6\n        /* \"#utility.yul\":8945:9016   */\n      tag_81\n      jump\t// in\n    tag_183:\n        /* \"#utility.yul\":8938:9016   */\n      swap4\n      pop\n        /* \"#utility.yul\":9025:9090   */\n      tag_184\n        /* \"#utility.yul\":9083:9089   */\n      dup2\n        /* \"#utility.yul\":9078:9081   */\n      dup6\n        /* \"#utility.yul\":9071:9075   */\n      0x20\n        /* \"#utility.yul\":9064:9069   */\n      dup7\n        /* \"#utility.yul\":9060:9076   */\n      add\n        /* \"#utility.yul\":9025:9090   */\n      tag_82\n      jump\t// in\n    tag_184:\n        /* \"#utility.yul\":9115:9144   */\n      tag_185\n        /* \"#utility.yul\":9137:9143   */\n      dup2\n        /* \"#utility.yul\":9115:9144   */\n      tag_70\n      jump\t// in\n    tag_185:\n        /* \"#utility.yul\":9110:9113   */\n      dup5\n        /* \"#utility.yul\":9106:9145   */\n      add\n        /* \"#utility.yul\":9099:9145   */\n      swap2\n      pop\n        /* \"#utility.yul\":8866:9151   */\n      pop\n        /* \"#utility.yul\":8774:9151   */\n      swap3\n      swap2\n      pop\n      pop\n      jump\t// out\n        /* \"#utility.yul\":9157:9253   */\n    tag_84:\n        /* \"#utility.yul\":9194:9201   */\n      0x00\n        /* \"#utility.yul\":9223:9247   */\n      tag_187\n        /* \"#utility.yul\":9241:9246   */\n      dup3\n        /* \"#utility.yul\":9223:9247   */\n      tag_58\n      jump\t// in\n    tag_187:\n        /* \"#utility.yul\":9212:9247   */\n      swap1\n      pop\n        /* \"#utility.yul\":9157:9253   */\n      swap2\n      swap1\n      pop\n      jump\t// out\n        /* \"#utility.yul\":9259:9377   */\n    tag_85:\n        /* \"#utility.yul\":9346:9370   */\n      tag_189\n        /* \"#utility.yul\":9364:9369   */\n      dup2\n        /* \"#utility.yul\":9346:9370   */\n      tag_84\n      jump\t// in\n    tag_189:\n        /* \"#utility.yul\":9341:9344   */\n      dup3\n        /* \"#utility.yul\":9334:9371   */\n      mstore\n        /* \"#utility.yul\":9259:9377   */\n      pop\n      pop\n      jump\t// out\n        /* \"#utility.yul\":9383:10229   */\n    tag_49:\n        /* \"#utility.yul\":9628:9632   */\n      0x00\n        /* \"#utility.yul\":9666:9669   */\n      0xa0\n        /* \"#utility.yul\":9655:9664   */\n      dup3\n        /* \"#utility.yul\":9651:9670   */\n      add\n        /* \"#utility.yul\":9643:9670   */\n      swap1\n      pop\n        /* \"#utility.yul\":9680:9751   */\n      tag_191\n        /* \"#utility.yul\":9748:9749   */\n      0x00\n        /* \"#utility.yul\":9737:9746   */\n      dup4\n        /* \"#utility.yul\":9733:9750   */\n      add\n        /* \"#utility.yul\":9724:9730   */\n      dup9\n        /* \"#utility.yul\":9680:9751   */\n      tag_79\n      jump\t// in\n    tag_191:\n        /* \"#utility.yul\":9798:9807   */\n      dup2\n        /* \"#utility.yul\":9792:9796   */\n      dup2\n        /* \"#utility.yul\":9788:9808   */\n      sub\n        /* \"#utility.yul\":9783:9785   */\n      0x20\n        /* \"#utility.yul\":9772:9781   */\n      dup4\n        /* \"#utility.yul\":9768:9786   */\n      add\n        /* \"#utility.yul\":9761:9809   */\n      mstore\n        /* \"#utility.yul\":9826:9904   */\n      tag_192\n        /* \"#utility.yul\":9899:9903   */\n      dup2\n        /* \"#utility.yul\":9890:9896   */\n      dup8\n        /* \"#utility.yul\":9826:9904   */\n      tag_83\n      jump\t// in\n    tag_192:\n        /* \"#utility.yul\":9818:9904   */\n      swap1\n      pop\n        /* \"#utility.yul\":9951:9960   */\n      dup2\n        /* \"#utility.yul\":9945:9949   */\n      dup2\n        /* \"#utility.yul\":9941:9961   */\n      sub\n        /* \"#utility.yul\":9936:9938   */\n      0x40\n        /* \"#utility.yul\":9925:9934   */\n      dup4\n        /* \"#utility.yul\":9921:9939   */\n      add\n        /* \"#utility.yul\":9914:9962   */\n      mstore\n        /* \"#utility.yul\":9979:10057   */\n      tag_193\n        /* \"#utility.yul\":10052:10056   */\n      dup2\n        /* \"#utility.yul\":10043:10049   */\n      dup7\n        /* \"#utility.yul\":9979:10057   */\n      tag_83\n      jump\t// in\n    tag_193:\n        /* \"#utility.yul\":9971:10057   */\n      swap1\n      pop\n        /* \"#utility.yul\":10067:10139   */\n      tag_194\n        /* \"#utility.yul\":10135:10137   */\n      0x60\n        /* \"#utility.yul\":10124:10133   */\n      dup4\n        /* \"#utility.yul\":10120:10138   */\n      add\n        /* \"#utility.yul\":10111:10117   */\n      dup6\n        /* \"#utility.yul\":10067:10139   */\n      tag_85\n      jump\t// in\n    tag_194:\n        /* \"#utility.yul\":10149:10222   */\n      tag_195\n        /* \"#utility.yul\":10217:10220   */\n      0x80\n        /* \"#utility.yul\":10206:10215   */\n      dup4\n        /* \"#utility.yul\":10202:10221   */\n      add\n        /* \"#utility.yul\":10193:10199   */\n      dup5\n        /* \"#utility.yul\":10149:10222   */\n      tag_79\n      jump\t// in\n    tag_195:\n        /* \"#utility.yul\":9383:10229   */\n      swap7\n      swap6\n      pop\n      pop\n      pop\n      pop\n      pop\n      pop\n      jump\t// out\n    stop\n\n    sub_0: assembly {\n            /* \"Campaign.sol\":1648:7444  contract Campaign {... */\n          mstore(0x40, 0x80)\n            /* \"Campaign.sol\":2541:2959  constructor(... */\n          callvalue\n          dup1\n          iszero\n          tag_1\n          jumpi\n          revert(0x00, 0x00)\n        tag_1:\n          pop\n          mload(0x40)\n          sub(codesize, bytecodeSize)\n          dup1\n          bytecodeSize\n          dup4\n          codecopy\n          dup2\n          dup2\n          add\n          0x40\n          mstore\n          dup2\n          add\n          swap1\n          tag_2\n          swap2\n          swap1\n          tag_3\n          jump\t// in\n        tag_2:\n            /* \"Campaign.sol\":2746:2753  creator */\n          dup2\n            /* \"Campaign.sol\":2736:2743  manager */\n          0x01\n          0x00\n            /* \"Campaign.sol\":2736:2753  manager = creator */\n          0x0100\n          exp\n          dup2\n          sload\n          dup2\n          0xffffffffffffffffffffffffffffffffffffffff\n          mul\n          not\n          and\n          swap1\n          dup4\n          0xffffffffffffffffffffffffffffffffffffffff\n          and\n          mul\n          or\n          swap1\n          sstore\n          pop\n            /* \"Campaign.sol\":2786:2793  minimum */\n          dup5\n            /* \"Campaign.sol\":2764:2783  minimumContribution */\n          0x02\n            /* \"Campaign.sol\":2764:2793  minimumContribution = minimum */\n          dup2\n          swap1\n          sstore\n          pop\n            /* \"Campaign.sol\":2818:2826  dataSell */\n          dup4\n            /* \"Campaign.sol\":2804:2815  dataForSell */\n          0x03\n            /* \"Campaign.sol\":2804:2826  dataForSell = dataSell */\n          swap1\n          dup2\n          tag_6\n          swap2\n          swap1\n          tag_7\n          jump\t// in\n        tag_6:\n          pop\n            /* \"Campaign.sol\":2855:2863  dataDesc */\n          dup3\n            /* \"Campaign.sol\":2837:2852  dataDescription */\n          0x04\n            /* \"Campaign.sol\":2837:2863  dataDescription = dataDesc */\n          swap1\n          dup2\n          tag_8\n          swap2\n          swap1\n          tag_7\n          jump\t// in\n        tag_8:\n          pop\n            /* \"Campaign.sol\":2884:2891  endtime */\n          dup1\n            /* \"Campaign.sol\":2874:2881  endTime */\n          0x0b\n            /* \"Campaign.sol\":2874:2891  endTime = endtime */\n          dup2\n          swap1\n          sstore\n          pop\n            /* \"Campaign.sol\":2911:2916  false */\n          0x00\n            /* \"Campaign.sol\":2902:2908  closed */\n          0x0c\n          0x00\n            /* \"Campaign.sol\":2902:2916  closed = false */\n          0x0100\n          exp\n          dup2\n          sload\n          dup2\n          0xff\n          mul\n          not\n          and\n          swap1\n          dup4\n          iszero\n          iszero\n          mul\n          or\n          swap1\n          sstore\n          pop\n            /* \"Campaign.sol\":2541:2959  constructor(... */\n          pop\n          pop\n          pop\n          pop\n          pop\n            /* \"Campaign.sol\":1648:7444  contract Campaign {... */\n          jump(tag_9)\n            /* \"#utility.yul\":7:82   */\n        tag_10:\n            /* \"#utility.yul\":40:46   */\n          0x00\n            /* \"#utility.yul\":73:75   */\n          0x40\n            /* \"#utility.yul\":67:76   */\n          mload\n            /* \"#utility.yul\":57:76   */\n          swap1\n          pop\n            /* \"#utility.yul\":7:82   */\n          swap1\n          jump\t// out\n            /* \"#utility.yul\":88:205   */\n        tag_11:\n            /* \"#utility.yul\":197:198   */\n          0x00\n            /* \"#utility.yul\":194:195   */\n          0x00\n            /* \"#utility.yul\":187:199   */\n          revert\n            /* \"#utility.yul\":211:328   */\n        tag_12:\n            /* \"#utility.yul\":320:321   */\n          0x00\n            /* \"#utility.yul\":317:318   */\n          0x00\n            /* \"#utility.yul\":310:322   */\n          revert\n            /* \"#utility.yul\":334:411   */\n        tag_13:\n            /* \"#utility.yul\":371:378   */\n          0x00\n            /* \"#utility.yul\":400:405   */\n          dup2\n            /* \"#utility.yul\":389:405   */\n          swap1\n          pop\n            /* \"#utility.yul\":334:411   */\n          swap2\n          swap1\n          pop\n          jump\t// out\n            /* \"#utility.yul\":417:539   */\n        tag_14:\n            /* \"#utility.yul\":490:514   */\n          tag_54\n            /* \"#utility.yul\":508:513   */\n          dup2\n            /* \"#utility.yul\":490:514   */\n          tag_13\n          jump\t// in\n        tag_54:\n            /* \"#utility.yul\":483:488   */\n          dup2\n            /* \"#utility.yul\":480:515   */\n          eq\n            /* \"#utility.yul\":470:533   */\n          tag_55\n          jumpi\n            /* \"#utility.yul\":529:530   */\n          0x00\n            /* \"#utility.yul\":526:527   */\n          0x00\n            /* \"#utility.yul\":519:531   */\n          revert\n            /* \"#utility.yul\":470:533   */\n        tag_55:\n            /* \"#utility.yul\":417:539   */\n          pop\n          jump\t// out\n            /* \"#utility.yul\":545:688   */\n        tag_15:\n            /* \"#utility.yul\":602:607   */\n          0x00\n            /* \"#utility.yul\":633:639   */\n          dup2\n            /* \"#utility.yul\":627:640   */\n          mload\n            /* \"#utility.yul\":618:640   */\n          swap1\n          pop\n            /* \"#utility.yul\":649:682   */\n          tag_57\n            /* \"#utility.yul\":676:681   */\n          dup2\n            /* \"#utility.yul\":649:682   */\n          tag_14\n          jump\t// in\n        tag_57:\n            /* \"#utility.yul\":545:688   */\n          swap3\n          swap2\n          pop\n          pop\n          jump\t// out\n            /* \"#utility.yul\":694:811   */\n        tag_16:\n            /* \"#utility.yul\":803:804   */\n          0x00\n            /* \"#utility.yul\":800:801   */\n          0x00\n            /* \"#utility.yul\":793:805   */\n          revert\n            /* \"#utility.yul\":817:934   */\n        tag_17:\n            /* \"#utility.yul\":926:927   */\n          0x00\n            /* \"#utility.yul\":923:924   */\n          0x00\n            /* \"#utility.yul\":916:928   */\n          revert\n            /* \"#utility.yul\":940:1042   */\n        tag_18:\n            /* \"#utility.yul\":981:987   */\n          0x00\n            /* \"#utility.yul\":1032:1034   */\n          0x1f\n            /* \"#utility.yul\":1028:1035   */\n          not\n            /* \"#utility.yul\":1023:1025   */\n          0x1f\n            /* \"#utility.yul\":1016:1021   */\n          dup4\n            /* \"#utility.yul\":1012:1026   */\n          add\n            /* \"#utility.yul\":1008:1036   */\n          and\n            /* \"#utility.yul\":998:1036   */\n          swap1\n          pop\n            /* \"#utility.yul\":940:1042   */\n          swap2\n          swap1\n          pop\n          jump\t// out\n            /* \"#utility.yul\":1048:1228   */\n        tag_19:\n            /* \"#utility.yul\":1096:1173   */\n          0x4e487b7100000000000000000000000000000000000000000000000000000000\n            /* \"#utility.yul\":1093:1094   */\n          0x00\n            /* \"#utility.yul\":1086:1174   */\n          mstore\n            /* \"#utility.yul\":1193:1197   */\n          0x41\n            /* \"#utility.yul\":1190:1191   */\n          0x04\n            /* \"#utility.yul\":1183:1198   */\n          mstore\n            /* \"#utility.yul\":1217:1221   */\n          0x24\n            /* \"#utility.yul\":1214:1215   */\n          0x00\n            /* \"#utility.yul\":1207:1222   */\n          revert\n            /* \"#utility.yul\":1234:1515   */\n        tag_20:\n            /* \"#utility.yul\":1317:1344   */\n          tag_63\n            /* \"#utility.yul\":1339:1343   */\n          dup3\n            /* \"#utility.yul\":1317:1344   */\n          tag_18\n          jump\t// in\n        tag_63:\n            /* \"#utility.yul\":1309:1315   */\n          dup2\n            /* \"#utility.yul\":1305:1345   */\n          add\n            /* \"#utility.yul\":1447:1453   */\n          dup2\n            /* \"#utility.yul\":1435:1445   */\n          dup2\n            /* \"#utility.yul\":1432:1454   */\n          lt\n            /* \"#utility.yul\":1411:1429   */\n          0xffffffffffffffff\n            /* \"#utility.yul\":1399:1409   */\n          dup3\n            /* \"#utility.yul\":1396:1430   */\n          gt\n            /* \"#utility.yul\":1393:1455   */\n          or\n            /* \"#utility.yul\":1390:1478   */\n          iszero\n          tag_64\n          jumpi\n            /* \"#utility.yul\":1458:1476   */\n          tag_65\n          tag_19\n          jump\t// in\n        tag_65:\n            /* \"#utility.yul\":1390:1478   */\n        tag_64:\n            /* \"#utility.yul\":1498:1508   */\n          dup1\n            /* \"#utility.yul\":1494:1496   */\n          0x40\n            /* \"#utility.yul\":1487:1509   */\n          mstore\n            /* \"#utility.yul\":1277:1515   */\n          pop\n            /* \"#utility.yul\":1234:1515   */\n          pop\n          pop\n          jump\t// out\n            /* \"#utility.yul\":1521:1650   */\n        tag_21:\n            /* \"#utility.yul\":1555:1561   */\n          0x00\n            /* \"#utility.yul\":1582:1602   */\n          tag_67\n          tag_10\n          jump\t// in\n        tag_67:\n            /* \"#utility.yul\":1572:1602   */\n          swap1\n          pop\n            /* \"#utility.yul\":1611:1644   */\n          tag_68\n            /* \"#utility.yul\":1639:1643   */\n          dup3\n            /* \"#utility.yul\":1631:1637   */\n          dup3\n            /* \"#utility.yul\":1611:1644   */\n          tag_20\n          jump\t// in\n        tag_68:\n            /* \"#utility.yul\":1521:1650   */\n          swap2\n          swap1\n          pop\n          jump\t// out\n            /* \"#utility.yul\":1656:1964   */\n        tag_22:\n            /* \"#utility.yul\":1718:1722   */\n          0x00\n            /* \"#utility.yul\":1808:1826   */\n          0xffffffffffffffff\n            /* \"#utility.yul\":1800:1806   */\n          dup3\n            /* \"#utility.yul\":1797:1827   */\n          gt\n            /* \"#utility.yul\":1794:1850   */\n          iszero\n          tag_70\n          jumpi\n            /* \"#utility.yul\":1830:1848   */\n          tag_71\n          tag_19\n          jump\t// in\n        tag_71:\n            /* \"#utility.yul\":1794:1850   */\n        tag_70:\n            /* \"#utility.yul\":1868:1897   */\n          tag_72\n            /* \"#utility.yul\":1890:1896   */\n          dup3\n            /* \"#utility.yul\":1868:1897   */\n          tag_18\n          jump\t// in\n        tag_72:\n            /* \"#utility.yul\":1860:1897   */\n          swap1\n          pop\n            /* \"#utility.yul\":1952:1956   */\n          0x20\n            /* \"#utility.yul\":1946:1950   */\n          dup2\n            /* \"#utility.yul\":1942:1957   */\n          add\n            /* \"#utility.yul\":1934:1957   */\n          swap1\n          pop\n            /* \"#utility.yul\":1656:1964   */\n          swap2\n          swap1\n          pop\n          jump\t// out\n            /* \"#utility.yul\":1970:2109   */\n        tag_23:\n            /* \"#utility.yul\":2059:2065   */\n          dup3\n            /* \"#utility.yul\":2054:2057   */\n          dup2\n            /* \"#utility.yul\":2049:2052   */\n          dup4\n            /* \"#utility.yul\":2043:2066   */\n          mcopy\n            /* \"#utility.yul\":2100:2101   */\n          0x00\n            /* \"#utility.yul\":2091:2097   */\n          dup4\n            /* \"#utility.yul\":2086:2089   */\n          dup4\n            /* \"#utility.yul\":2082:2098   */\n          add\n            /* \"#utility.yul\":2075:2102   */\n          mstore\n            /* \"#utility.yul\":1970:2109   */\n          pop\n          pop\n          pop\n          jump\t// out\n            /* \"#utility.yul\":2115:2549   */\n        tag_24:\n            /* \"#utility.yul\":2204:2209   */\n          0x00\n            /* \"#utility.yul\":2229:2295   */\n          tag_75\n            /* \"#utility.yul\":2245:2294   */\n          tag_76\n            /* \"#utility.yul\":2287:2293   */\n          dup5\n            /* \"#utility.yul\":2245:2294   */\n          tag_22\n          jump\t// in\n        tag_76:\n            /* \"#utility.yul\":2229:2295   */\n          tag_21\n          jump\t// in\n        tag_75:\n            /* \"#utility.yul\":2220:2295   */\n          swap1\n          pop\n            /* \"#utility.yul\":2318:2324   */\n          dup3\n            /* \"#utility.yul\":2311:2316   */\n          dup2\n            /* \"#utility.yul\":2304:2325   */\n          mstore\n            /* \"#utility.yul\":2356:2360   */\n          0x20\n            /* \"#utility.yul\":2349:2354   */\n          dup2\n            /* \"#utility.yul\":2345:2361   */\n          add\n            /* \"#utility.yul\":2394:2397   */\n          dup5\n            /* \"#utility.yul\":2385:2391   */\n          dup5\n            /* \"#utility.yul\":2380:2383   */\n          dup5\n            /* \"#utility.yul\":2376:2392   */\n          add\n            /* \"#utility.yul\":2373:2398   */\n          gt\n            /* \"#utility.yul\":2370:2482   */\n          iszero\n          tag_77\n          jumpi\n            /* \"#utility.yul\":2401:2480   */\n          tag_78\n          tag_17\n          jump\t// in\n        tag_78:\n            /* \"#utility.yul\":2370:2482   */\n        tag_77:\n            /* \"#utility.yul\":2491:2543   */\n          tag_79\n            /* \"#utility.yul\":2536:2542   */\n          dup5\n            /* \"#utility.yul\":2531:2534   */\n          dup3\n            /* \"#utility.yul\":2526:2529   */\n          dup6\n            /* \"#utility.yul\":2491:2543   */\n          tag_23\n          jump\t// in\n        tag_79:\n            /* \"#utility.yul\":2210:2549   */\n          pop\n            /* \"#utility.yul\":2115:2549   */\n          swap4\n          swap3\n          pop\n          pop\n          pop\n          jump\t// out\n            /* \"#utility.yul\":2569:2924   */\n        tag_25:\n            /* \"#utility.yul\":2636:2641   */\n          0x00\n            /* \"#utility.yul\":2685:2688   */\n          dup3\n            /* \"#utility.yul\":2678:2682   */\n          0x1f\n            /* \"#utility.yul\":2670:2676   */\n          dup4\n            /* \"#utility.yul\":2666:2683   */\n          add\n            /* \"#utility.yul\":2662:2689   */\n          slt\n            /* \"#utility.yul\":2652:2774   */\n          tag_81\n          jumpi\n            /* \"#utility.yul\":2693:2772   */\n          tag_82\n          tag_16\n          jump\t// in\n        tag_82:\n            /* \"#utility.yul\":2652:2774   */\n        tag_81:\n            /* \"#utility.yul\":2803:2809   */\n          dup2\n            /* \"#utility.yul\":2797:2810   */\n          mload\n            /* \"#utility.yul\":2828:2918   */\n          tag_83\n            /* \"#utility.yul\":2914:2917   */\n          dup5\n            /* \"#utility.yul\":2906:2912   */\n          dup3\n            /* \"#utility.yul\":2899:2903   */\n          0x20\n            /* \"#utility.yul\":2891:2897   */\n          dup7\n            /* \"#utility.yul\":2887:2904   */\n          add\n            /* \"#utility.yul\":2828:2918   */\n          tag_24\n          jump\t// in\n        tag_83:\n            /* \"#utility.yul\":2819:2918   */\n          swap2\n          pop\n            /* \"#utility.yul\":2642:2924   */\n          pop\n            /* \"#utility.yul\":2569:2924   */\n          swap3\n          swap2\n          pop\n          pop\n          jump\t// out\n            /* \"#utility.yul\":2930:3056   */\n        tag_26:\n            /* \"#utility.yul\":2967:2974   */\n          0x00\n            /* \"#utility.yul\":3007:3049   */\n          0xffffffffffffffffffffffffffffffffffffffff\n            /* \"#utility.yul\":3000:3005   */\n          dup3\n            /* \"#utility.yul\":2996:3050   */\n          and\n            /* \"#utility.yul\":2985:3050   */\n          swap1\n          pop\n            /* \"#utility.yul\":2930:3056   */\n          swap2\n          swap1\n          pop\n          jump\t// out\n            /* \"#utility.yul\":3062:3158   */\n        tag_27:\n            /* \"#utility.yul\":3099:3106   */\n          0x00\n            /* \"#utility.yul\":3128:3152   */\n          tag_86\n            /* \"#utility.yul\":3146:3151   */\n          dup3\n            /* \"#utility.yul\":3128:3152   */\n          tag_26\n          jump\t// in\n        tag_86:\n            /* \"#utility.yul\":3117:3152   */\n          swap1\n          pop\n            /* \"#utility.yul\":3062:3158   */\n          swap2\n          swap1\n          pop\n          jump\t// out\n            /* \"#utility.yul\":3164:3286   */\n        tag_28:\n            /* \"#utility.yul\":3237:3261   */\n          tag_88\n            /* \"#utility.yul\":3255:3260   */\n          dup2\n            /* \"#utility.yul\":3237:3261   */\n          tag_27\n          jump\t// in\n        tag_88:\n            /* \"#utility.yul\":3230:3235   */\n          dup2\n            /* \"#utility.yul\":3227:3262   */\n          eq\n            /* \"#utility.yul\":3217:3280   */\n          tag_89\n          jumpi\n            /* \"#utility.yul\":3276:3277   */\n          0x00\n            /* \"#utility.yul\":3273:3274   */\n          0x00\n            /* \"#utility.yul\":3266:3278   */\n          revert\n            /* \"#utility.yul\":3217:3280   */\n        tag_89:\n            /* \"#utility.yul\":3164:3286   */\n          pop\n          jump\t// out\n            /* \"#utility.yul\":3292:3435   */\n        tag_29:\n            /* \"#utility.yul\":3349:3354   */\n          0x00\n            /* \"#utility.yul\":3380:3386   */\n          dup2\n            /* \"#utility.yul\":3374:3387   */\n          mload\n            /* \"#utility.yul\":3365:3387   */\n          swap1\n          pop\n            /* \"#utility.yul\":3396:3429   */\n          tag_91\n            /* \"#utility.yul\":3423:3428   */\n          dup2\n            /* \"#utility.yul\":3396:3429   */\n          tag_28\n          jump\t// in\n        tag_91:\n            /* \"#utility.yul\":3292:3435   */\n          swap3\n          swap2\n          pop\n          pop\n          jump\t// out\n            /* \"#utility.yul\":3441:4764   */\n        tag_3:\n            /* \"#utility.yul\":3567:3573   */\n          0x00\n            /* \"#utility.yul\":3575:3581   */\n          0x00\n            /* \"#utility.yul\":3583:3589   */\n          0x00\n            /* \"#utility.yul\":3591:3597   */\n          0x00\n            /* \"#utility.yul\":3599:3605   */\n          0x00\n            /* \"#utility.yul\":3648:3651   */\n          0xa0\n            /* \"#utility.yul\":3636:3645   */\n          dup7\n            /* \"#utility.yul\":3627:3634   */\n          dup9\n            /* \"#utility.yul\":3623:3646   */\n          sub\n            /* \"#utility.yul\":3619:3652   */\n          slt\n            /* \"#utility.yul\":3616:3736   */\n          iszero\n          tag_93\n          jumpi\n            /* \"#utility.yul\":3655:3734   */\n          tag_94\n          tag_11\n          jump\t// in\n        tag_94:\n            /* \"#utility.yul\":3616:3736   */\n        tag_93:\n            /* \"#utility.yul\":3775:3776   */\n          0x00\n            /* \"#utility.yul\":3800:3864   */\n          tag_95\n            /* \"#utility.yul\":3856:3863   */\n          dup9\n            /* \"#utility.yul\":3847:3853   */\n          dup3\n            /* \"#utility.yul\":3836:3845   */\n          dup10\n            /* \"#utility.yul\":3832:3854   */\n          add\n            /* \"#utility.yul\":3800:3864   */\n          tag_15\n          jump\t// in\n        tag_95:\n            /* \"#utility.yul\":3790:3864   */\n          swap6\n          pop\n            /* \"#utility.yul\":3746:3874   */\n          pop\n            /* \"#utility.yul\":3934:3936   */\n          0x20\n            /* \"#utility.yul\":3923:3932   */\n          dup7\n            /* \"#utility.yul\":3919:3937   */\n          add\n            /* \"#utility.yul\":3913:3938   */\n          mload\n            /* \"#utility.yul\":3965:3983   */\n          0xffffffffffffffff\n            /* \"#utility.yul\":3957:3963   */\n          dup2\n            /* \"#utility.yul\":3954:3984   */\n          gt\n            /* \"#utility.yul\":3951:4068   */\n          iszero\n          tag_96\n          jumpi\n            /* \"#utility.yul\":3987:4066   */\n          tag_97\n          tag_12\n          jump\t// in\n        tag_97:\n            /* \"#utility.yul\":3951:4068   */\n        tag_96:\n            /* \"#utility.yul\":4092:4166   */\n          tag_98\n            /* \"#utility.yul\":4158:4165   */\n          dup9\n            /* \"#utility.yul\":4149:4155   */\n          dup3\n            /* \"#utility.yul\":4138:4147   */\n          dup10\n            /* \"#utility.yul\":4134:4156   */\n          add\n            /* \"#utility.yul\":4092:4166   */\n          tag_25\n          jump\t// in\n        tag_98:\n            /* \"#utility.yul\":4082:4166   */\n          swap5\n          pop\n            /* \"#utility.yul\":3884:4176   */\n          pop\n            /* \"#utility.yul\":4236:4238   */\n          0x40\n            /* \"#utility.yul\":4225:4234   */\n          dup7\n            /* \"#utility.yul\":4221:4239   */\n          add\n            /* \"#utility.yul\":4215:4240   */\n          mload\n            /* \"#utility.yul\":4267:4285   */\n          0xffffffffffffffff\n            /* \"#utility.yul\":4259:4265   */\n          dup2\n            /* \"#utility.yul\":4256:4286   */\n          gt\n            /* \"#utility.yul\":4253:4370   */\n          iszero\n          tag_99\n          jumpi\n            /* \"#utility.yul\":4289:4368   */\n          tag_100\n          tag_12\n          jump\t// in\n        tag_100:\n            /* \"#utility.yul\":4253:4370   */\n        tag_99:\n            /* \"#utility.yul\":4394:4468   */\n          tag_101\n            /* \"#utility.yul\":4460:4467   */\n          dup9\n            /* \"#utility.yul\":4451:4457   */\n          dup3\n            /* \"#utility.yul\":4440:4449   */\n          dup10\n            /* \"#utility.yul\":4436:4458   */\n          add\n            /* \"#utility.yul\":4394:4468   */\n          tag_25\n          jump\t// in\n        tag_101:\n            /* \"#utility.yul\":4384:4468   */\n          swap4\n          pop\n            /* \"#utility.yul\":4186:4478   */\n          pop\n            /* \"#utility.yul\":4517:4519   */\n          0x60\n            /* \"#utility.yul\":4543:4607   */\n          tag_102\n            /* \"#utility.yul\":4599:4606   */\n          dup9\n            /* \"#utility.yul\":4590:4596   */\n          dup3\n            /* \"#utility.yul\":4579:4588   */\n          dup10\n            /* \"#utility.yul\":4575:4597   */\n          add\n            /* \"#utility.yul\":4543:4607   */\n          tag_29\n          jump\t// in\n        tag_102:\n            /* \"#utility.yul\":4533:4607   */\n          swap3\n          pop\n            /* \"#utility.yul\":4488:4617   */\n          pop\n            /* \"#utility.yul\":4656:4659   */\n          0x80\n            /* \"#utility.yul\":4683:4747   */\n          tag_103\n            /* \"#utility.yul\":4739:4746   */\n          dup9\n            /* \"#utility.yul\":4730:4736   */\n          dup3\n            /* \"#utility.yul\":4719:4728   */\n          dup10\n            /* \"#utility.yul\":4715:4737   */\n          add\n            /* \"#utility.yul\":4683:4747   */\n          tag_15\n          jump\t// in\n        tag_103:\n            /* \"#utility.yul\":4673:4747   */\n          swap2\n          pop\n            /* \"#utility.yul\":4627:4757   */\n          pop\n            /* \"#utility.yul\":3441:4764   */\n          swap3\n          swap6\n          pop\n          swap3\n          swap6\n          swap1\n          swap4\n          pop\n          jump\t// out\n            /* \"#utility.yul\":4770:4869   */\n        tag_30:\n            /* \"#utility.yul\":4822:4828   */\n          0x00\n            /* \"#utility.yul\":4856:4861   */\n          dup2\n            /* \"#utility.yul\":4850:4862   */\n          mload\n            /* \"#utility.yul\":4840:4862   */\n          swap1\n          pop\n            /* \"#utility.yul\":4770:4869   */\n          swap2\n          swap1\n          pop\n          jump\t// out\n            /* \"#utility.yul\":4875:5055   */\n        tag_31:\n            /* \"#utility.yul\":4923:5000   */\n          0x4e487b7100000000000000000000000000000000000000000000000000000000\n            /* \"#utility.yul\":4920:4921   */\n          0x00\n            /* \"#utility.yul\":4913:5001   */\n          mstore\n            /* \"#utility.yul\":5020:5024   */\n          0x22\n            /* \"#utility.yul\":5017:5018   */\n          0x04\n            /* \"#utility.yul\":5010:5025   */\n          mstore\n            /* \"#utility.yul\":5044:5048   */\n          0x24\n            /* \"#utility.yul\":5041:5042   */\n          0x00\n            /* \"#utility.yul\":5034:5049   */\n          revert\n            /* \"#utility.yul\":5061:5381   */\n        tag_32:\n            /* \"#utility.yul\":5105:5111   */\n          0x00\n            /* \"#utility.yul\":5142:5143   */\n          0x02\n            /* \"#utility.yul\":5136:5140   */\n          dup3\n            /* \"#utility.yul\":5132:5144   */\n          div\n            /* \"#utility.yul\":5122:5144   */\n          swap1\n          pop\n            /* \"#utility.yul\":5189:5190   */\n          0x01\n            /* \"#utility.yul\":5183:5187   */\n          dup3\n            /* \"#utility.yul\":5179:5191   */\n          and\n            /* \"#utility.yul\":5210:5228   */\n          dup1\n            /* \"#utility.yul\":5200:5281   */\n          tag_107\n          jumpi\n            /* \"#utility.yul\":5266:5270   */\n          0x7f\n            /* \"#utility.yul\":5258:5264   */\n          dup3\n            /* \"#utility.yul\":5254:5271   */\n          and\n            /* \"#utility.yul\":5244:5271   */\n          swap2\n          pop\n            /* \"#utility.yul\":5200:5281   */\n        tag_107:\n            /* \"#utility.yul\":5328:5330   */\n          0x20\n            /* \"#utility.yul\":5320:5326   */\n          dup3\n            /* \"#utility.yul\":5317:5331   */\n          lt\n            /* \"#utility.yul\":5297:5315   */\n          dup2\n            /* \"#utility.yul\":5294:5332   */\n          sub\n            /* \"#utility.yul\":5291:5375   */\n          tag_108\n          jumpi\n            /* \"#utility.yul\":5347:5365   */\n          tag_109\n          tag_31\n          jump\t// in\n        tag_109:\n            /* \"#utility.yul\":5291:5375   */\n        tag_108:\n            /* \"#utility.yul\":5112:5381   */\n          pop\n            /* \"#utility.yul\":5061:5381   */\n          swap2\n          swap1\n          pop\n          jump\t// out\n            /* \"#utility.yul\":5387:5528   */\n        tag_33:\n            /* \"#utility.yul\":5436:5440   */\n          0x00\n            /* \"#utility.yul\":5459:5462   */\n          dup2\n            /* \"#utility.yul\":5451:5462   */\n          swap1\n          pop\n            /* \"#utility.yul\":5482:5485   */\n          dup2\n            /* \"#utility.yul\":5479:5480   */\n          0x00\n            /* \"#utility.yul\":5472:5486   */\n          mstore\n            /* \"#utility.yul\":5516:5520   */\n          0x20\n            /* \"#utility.yul\":5513:5514   */\n          0x00\n            /* \"#utility.yul\":5503:5521   */\n          keccak256\n            /* \"#utility.yul\":5495:5521   */\n          swap1\n          pop\n            /* \"#utility.yul\":5387:5528   */\n          swap2\n          swap1\n          pop\n          jump\t// out\n            /* \"#utility.yul\":5534:5627   */\n        tag_34:\n            /* \"#utility.yul\":5571:5577   */\n          0x00\n            /* \"#utility.yul\":5618:5620   */\n          0x20\n            /* \"#utility.yul\":5613:5615   */\n          0x1f\n            /* \"#utility.yul\":5606:5611   */\n          dup4\n            /* \"#utility.yul\":5602:5616   */\n          add\n            /* \"#utility.yul\":5598:5621   */\n          div\n            /* \"#utility.yul\":5588:5621   */\n          swap1\n          pop\n            /* \"#utility.yul\":5534:5627   */\n          swap2\n          swap1\n          pop\n          jump\t// out\n            /* \"#utility.yul\":5633:5740   */\n        tag_35:\n            /* \"#utility.yul\":5677:5685   */\n          0x00\n            /* \"#utility.yul\":5727:5732   */\n          dup3\n            /* \"#utility.yul\":5721:5725   */\n          dup3\n            /* \"#utility.yul\":5717:5733   */\n          shl\n            /* \"#utility.yul\":5696:5733   */\n          swap1\n          pop\n            /* \"#utility.yul\":5633:5740   */\n          swap3\n          swap2\n          pop\n          pop\n          jump\t// out\n            /* \"#utility.yul\":5746:6139   */\n        tag_36:\n            /* \"#utility.yul\":5815:5821   */\n          0x00\n            /* \"#utility.yul\":5865:5866   */\n          0x08\n            /* \"#utility.yul\":5853:5863   */\n          dup4\n            /* \"#utility.yul\":5849:5867   */\n          mul\n            /* \"#utility.yul\":5888:5985   */\n          tag_114\n            /* \"#utility.yul\":5918:5984   */\n          0xffffffffffffffffffffffffffffffffffffffffffffffffffffffffffffffff\n            /* \"#utility.yul\":5907:5916   */\n          dup3\n            /* \"#utility.yul\":5888:5985   */\n          tag_35\n          jump\t// in\n        tag_114:\n            /* \"#utility.yul\":6006:6045   */\n          tag_115\n            /* \"#utility.yul\":6036:6044   */\n          dup7\n            /* \"#utility.yul\":6025:6034   */\n          dup4\n            /* \"#utility.yul\":6006:6045   */\n          tag_35\n          jump\t// in\n        tag_115:\n            /* \"#utility.yul\":5994:6045   */\n          swap6\n          pop\n            /* \"#utility.yul\":6078:6082   */\n          dup1\n            /* \"#utility.yul\":6074:6083   */\n          not\n            /* \"#utility.yul\":6067:6072   */\n          dup5\n            /* \"#utility.yul\":6063:6084   */\n          and\n            /* \"#utility.yul\":6054:6084   */\n          swap4\n          pop\n            /* \"#utility.yul\":6127:6131   */\n          dup1\n            /* \"#utility.yul\":6117:6125   */\n          dup7\n            /* \"#utility.yul\":6113:6132   */\n          and\n            /* \"#utility.yul\":6106:6111   */\n          dup5\n            /* \"#utility.yul\":6103:6133   */\n          or\n            /* \"#utility.yul\":6093:6133   */\n          swap3\n          pop\n            /* \"#utility.yul\":5822:6139   */\n          pop\n          pop\n            /* \"#utility.yul\":5746:6139   */\n          swap4\n          swap3\n          pop\n          pop\n          pop\n          jump\t// out\n            /* \"#utility.yul\":6145:6205   */\n        tag_37:\n            /* \"#utility.yul\":6173:6176   */\n          0x00\n            /* \"#utility.yul\":6194:6199   */\n          dup2\n            /* \"#utility.yul\":6187:6199   */\n          swap1\n          pop\n            /* \"#utility.yul\":6145:6205   */\n          swap2\n          swap1\n          pop\n          jump\t// out\n            /* \"#utility.yul\":6211:6353   */\n        tag_38:\n            /* \"#utility.yul\":6261:6270   */\n          0x00\n            /* \"#utility.yul\":6294:6347   */\n          tag_118\n            /* \"#utility.yul\":6312:6346   */\n          tag_119\n            /* \"#utility.yul\":6321:6345   */\n          tag_120\n            /* \"#utility.yul\":6339:6344   */\n          dup5\n            /* \"#utility.yul\":6321:6345   */\n          tag_13\n          jump\t// in\n        tag_120:\n            /* \"#utility.yul\":6312:6346   */\n          tag_37\n          jump\t// in\n        tag_119:\n            /* \"#utility.yul\":6294:6347   */\n          tag_13\n          jump\t// in\n        tag_118:\n            /* \"#utility.yul\":6281:6347   */\n          swap1\n          pop\n            /* \"#utility.yul\":6211:6353   */\n          swap2\n          swap1\n          pop\n          jump\t// out\n            /* \"#utility.yul\":6359:6434   */\n        tag_39:\n            /* \"#utility.yul\":6402:6405   */\n          0x00\n            /* \"#utility.yul\":6423:6428   */\n          dup2\n            /* \"#utility.yul\":6416:6428   */\n          swap1\n          pop\n            /* \"#utility.yul\":6359:6434   */\n          swap2\n          swap1\n          pop\n          jump\t// out\n            /* \"#utility.yul\":6440:6709   */\n        tag_40:\n            /* \"#utility.yul\":6550:6589   */\n          tag_123\n            /* \"#utility.yul\":6581:6588   */\n          dup4\n            /* \"#utility.yul\":6550:6589   */\n          tag_38\n          jump\t// in\n        tag_123:\n            /* \"#utility.yul\":6611:6702   */\n          tag_124\n            /* \"#utility.yul\":6660:6701   */\n          tag_125\n            /* \"#utility.yul\":6684:6700   */\n          dup3\n            /* \"#utility.yul\":6660:6701   */\n          tag_39\n          jump\t// in\n        tag_125:\n            /* \"#utility.yul\":6652:6658   */\n          dup5\n            /* \"#utility.yul\":6645:6649   */\n          dup5\n            /* \"#utility.yul\":6639:6650   */\n          sload\n            /* \"#utility.yul\":6611:6702   */\n          tag_36\n          jump\t// in\n        tag_124:\n            /* \"#utility.yul\":6605:6609   */\n          dup3\n            /* \"#utility.yul\":6598:6703   */\n          sstore\n            /* \"#utility.yul\":6516:6709   */\n          pop\n            /* \"#utility.yul\":6440:6709   */\n          pop\n          pop\n          pop\n          jump\t// out\n            /* \"#utility.yul\":6715:6788   */\n        tag_41:\n            /* \"#utility.yul\":6760:6763   */\n          0x00\n            /* \"#utility.yul\":6781:6782   */\n          0x00\n            /* \"#utility.yul\":6774:6782   */\n          swap1\n          pop\n            /* \"#utility.yul\":6715:6788   */\n          swap1\n          jump\t// out\n            /* \"#utility.yul\":6794:6983   */\n        tag_42:\n            /* \"#utility.yul\":6871:6903   */\n          tag_128\n          tag_41\n          jump\t// in\n        tag_128:\n            /* \"#utility.yul\":6912:6977   */\n          tag_129\n            /* \"#utility.yul\":6970:6976   */\n          dup2\n            /* \"#utility.yul\":6962:6968   */\n          dup5\n            /* \"#utility.yul\":6956:6960   */\n          dup5\n            /* \"#utility.yul\":6912:6977   */\n          tag_40\n          jump\t// in\n        tag_129:\n            /* \"#utility.yul\":6847:6983   */\n          pop\n            /* \"#utility.yul\":6794:6983   */\n          pop\n          pop\n          jump\t// out\n            /* \"#utility.yul\":6989:7175   */\n        tag_43:\n            /* \"#utility.yul\":7049:7169   */\n        tag_131:\n            /* \"#utility.yul\":7066:7069   */\n          dup2\n            /* \"#utility.yul\":7059:7064   */\n          dup2\n            /* \"#utility.yul\":7056:7070   */\n          lt\n            /* \"#utility.yul\":7049:7169   */\n          iszero\n          tag_133\n          jumpi\n            /* \"#utility.yul\":7120:7159   */\n          tag_134\n            /* \"#utility.yul\":7157:7158   */\n          0x00\n            /* \"#utility.yul\":7150:7155   */\n          dup3\n            /* \"#utility.yul\":7120:7159   */\n          tag_42\n          jump\t// in\n        tag_134:\n            /* \"#utility.yul\":7093:7094   */\n          0x01\n            /* \"#utility.yul\":7086:7091   */\n          dup2\n            /* \"#utility.yul\":7082:7095   */\n          add\n            /* \"#utility.yul\":7073:7095   */\n          swap1\n          pop\n            /* \"#utility.yul\":7049:7169   */\n          jump(tag_131)\n        tag_133:\n            /* \"#utility.yul\":6989:7175   */\n          pop\n          pop\n          jump\t// out\n            /* \"#utility.yul\":7181:7724   */\n        tag_44:\n            /* \"#utility.yul\":7282:7284   */\n          0x1f\n            /* \"#utility.yul\":7277:7280   */\n          dup3\n            /* \"#utility.yul\":7274:7285   */\n          gt\n            /* \"#utility.yul\":7271:7717   */\n          iszero\n          tag_136\n          jumpi\n            /* \"#utility.yul\":7316:7354   */\n          tag_137\n            /* \"#utility.yul\":7348:7353   */\n          dup2\n            /* \"#utility.yul\":7316:7354   */\n          tag_33\n          jump\t// in\n        tag_137:\n            /* \"#utility.yul\":7400:7429   */\n          tag_138\n            /* \"#utility.yul\":7418:7428   */\n          dup5\n            /* \"#utility.yul\":7400:7429   */\n          tag_34\n          jump\t// in\n        tag_138:\n            /* \"#utility.yul\":7390:7398   */\n          dup2\n            /* \"#utility.yul\":7386:7430   */\n          add\n            /* \"#utility.yul\":7583:7585   */\n          0x20\n            /* \"#utility.yul\":7571:7581   */\n          dup6\n            /* \"#utility.yul\":7568:7586   */\n          lt\n            /* \"#utility.yul\":7565:7614   */\n          iszero\n          tag_139\n          jumpi\n            /* \"#utility.yul\":7604:7612   */\n          dup2\n            /* \"#utility.yul\":7589:7612   */\n          swap1\n          pop\n            /* \"#utility.yul\":7565:7614   */\n        tag_139:\n            /* \"#utility.yul\":7627:7707   */\n          tag_140\n            /* \"#utility.yul\":7683:7705   */\n          tag_141\n            /* \"#utility.yul\":7701:7704   */\n          dup6\n            /* \"#utility.yul\":7683:7705   */\n          tag_34\n          jump\t// in\n        tag_141:\n            /* \"#utility.yul\":7673:7681   */\n          dup4\n            /* \"#utility.yul\":7669:7706   */\n          add\n            /* \"#utility.yul\":7656:7667   */\n          dup3\n            /* \"#utility.yul\":7627:7707   */\n          tag_43\n          jump\t// in\n        tag_140:\n            /* \"#utility.yul\":7286:7717   */\n          pop\n          pop\n            /* \"#utility.yul\":7271:7717   */\n        tag_136:\n            /* \"#utility.yul\":7181:7724   */\n          pop\n          pop\n          pop\n          jump\t// out\n            /* \"#utility.yul\":7730:7847   */\n        tag_45:\n            /* \"#utility.yul\":7784:7792   */\n          0x00\n            /* \"#utility.yul\":7834:7839   */\n          dup3\n            /* \"#utility.yul\":7828:7832   */\n          dup3\n            /* \"#utility.yul\":7824:7840   */\n          shr\n            /* \"#utility.yul\":7803:7840   */\n          swap1\n          pop\n            /* \"#utility.yul\":7730:7847   */\n          swap3\n          swap2\n          pop\n          pop\n          jump\t// out\n            /* \"#utility.yul\":7853:8022   */\n        tag_46:\n            /* \"#utility.yul\":7897:7903   */\n          0x00\n            /* \"#utility.yul\":7930:7981   */\n          tag_144\n            /* \"#utility.yul\":7978:7979   */\n          0x00\n            /* \"#utility.yul\":7974:7980   */\n          not\n            /* \"#utility.yul\":7966:7971   */\n          dup5\n            /* \"#utility.yul\":7963:7964   */\n          0x08\n            /* \"#utility.yul\":7959:7972   */\n          mul\n            /* \"#utility.yul\":7930:7981   */\n          tag_45\n          jump\t// in\n        tag_144:\n            /* \"#utility.yul\":7926:7982   */\n          not\n            /* \"#utility.yul\":8011:8015   */\n          dup1\n            /* \"#utility.yul\":8005:8009   */\n          dup4\n            /* \"#utility.yul\":8001:8016   */\n          and\n            /* \"#utility.yul\":7991:8016   */\n          swap2\n          pop\n            /* \"#utility.yul\":7904:8022   */\n          pop\n            /* \"#utility.yul\":7853:8022   */\n          swap3\n          swap2\n          pop\n          pop\n          jump\t// out\n            /* \"#utility.yul\":8027:8322   */\n        tag_47:\n            /* \"#utility.yul\":8103:8107   */\n          0x00\n            /* \"#utility.yul\":8249:8278   */\n          tag_146\n            /* \"#utility.yul\":8274:8277   */\n          dup4\n            /* \"#utility.yul\":8268:8272   */\n          dup4\n            /* \"#utility.yul\":8249:8278   */\n          tag_46\n          jump\t// in\n        tag_146:\n            /* \"#utility.yul\":8241:8278   */\n          swap2\n          pop\n            /* \"#utility.yul\":8311:8314   */\n          dup3\n            /* \"#utility.yul\":8308:8309   */\n          0x02\n            /* \"#utility.yul\":8304:8315   */\n          mul\n            /* \"#utility.yul\":8298:8302   */\n          dup3\n            /* \"#utility.yul\":8295:8316   */\n          or\n            /* \"#utility.yul\":8287:8316   */\n          swap1\n          pop\n            /* \"#utility.yul\":8027:8322   */\n          swap3\n          swap2\n          pop\n          pop\n          jump\t// out\n            /* \"#utility.yul\":8327:9722   */\n        tag_7:\n            /* \"#utility.yul\":8444:8481   */\n          tag_148\n            /* \"#utility.yul\":8477:8480   */\n          dup3\n            /* \"#utility.yul\":8444:8481   */\n          tag_30\n          jump\t// in\n        tag_148:\n            /* \"#utility.yul\":8546:8564   */\n          0xffffffffffffffff\n            /* \"#utility.yul\":8538:8544   */\n          dup2\n            /* \"#utility.yul\":8535:8565   */\n          gt\n            /* \"#utility.yul\":8532:8588   */\n          iszero\n          tag_149\n          jumpi\n            /* \"#utility.yul\":8568:8586   */\n          tag_150\n          tag_19\n          jump\t// in\n        tag_150:\n            /* \"#utility.yul\":8532:8588   */\n        tag_149:\n            /* \"#utility.yul\":8612:8650   */\n          tag_151\n            /* \"#utility.yul\":8644:8648   */\n          dup3\n            /* \"#utility.yul\":8638:8649   */\n          sload\n            /* \"#utility.yul\":8612:8650   */\n          tag_32\n          jump\t// in\n        tag_151:\n            /* \"#utility.yul\":8697:8764   */\n          tag_152\n            /* \"#utility.yul\":8757:8763   */\n          dup3\n            /* \"#utility.yul\":8749:8755   */\n          dup3\n            /* \"#utility.yul\":8743:8747   */\n          dup6\n            /* \"#utility.yul\":8697:8764   */\n          tag_44\n          jump\t// in\n        tag_152:\n            /* \"#utility.yul\":8791:8792   */\n          0x00\n            /* \"#utility.yul\":8815:8819   */\n          0x20\n            /* \"#utility.yul\":8802:8819   */\n          swap1\n          pop\n            /* \"#utility.yul\":8847:8849   */\n          0x1f\n            /* \"#utility.yul\":8839:8845   */\n          dup4\n            /* \"#utility.yul\":8836:8850   */\n          gt\n            /* \"#utility.yul\":8864:8865   */\n          0x01\n            /* \"#utility.yul\":8859:9477   */\n          dup2\n          eq\n          tag_154\n          jumpi\n            /* \"#utility.yul\":9521:9522   */\n          0x00\n            /* \"#utility.yul\":9538:9544   */\n          dup5\n            /* \"#utility.yul\":9535:9612   */\n          iszero\n          tag_155\n          jumpi\n            /* \"#utility.yul\":9587:9596   */\n          dup3\n            /* \"#utility.yul\":9582:9585   */\n          dup8\n            /* \"#utility.yul\":9578:9597   */\n          add\n            /* \"#utility.yul\":9572:9598   */\n          mload\n            /* \"#utility.yul\":9563:9598   */\n          swap1\n          pop\n            /* \"#utility.yul\":9535:9612   */\n        tag_155:\n            /* \"#utility.yul\":9638:9705   */\n          tag_156\n            /* \"#utility.yul\":9698:9704   */\n          dup6\n            /* \"#utility.yul\":9691:9696   */\n          dup3\n            /* \"#utility.yul\":9638:9705   */\n          tag_47\n          jump\t// in\n        tag_156:\n            /* \"#utility.yul\":9632:9636   */\n          dup7\n            /* \"#utility.yul\":9625:9706   */\n          sstore\n            /* \"#utility.yul\":9494:9716   */\n          pop\n            /* \"#utility.yul\":8829:9716   */\n          jump(tag_153)\n            /* \"#utility.yul\":8859:9477   */\n        tag_154:\n            /* \"#utility.yul\":8911:8915   */\n          0x1f\n            /* \"#utility.yul\":8907:8916   */\n          not\n            /* \"#utility.yul\":8899:8905   */\n          dup5\n            /* \"#utility.yul\":8895:8917   */\n          and\n            /* \"#utility.yul\":8945:8982   */\n          tag_157\n            /* \"#utility.yul\":8977:8981   */\n          dup7\n            /* \"#utility.yul\":8945:8982   */\n          tag_33\n          jump\t// in\n        tag_157:\n            /* \"#utility.yul\":9004:9005   */\n          0x00\n            /* \"#utility.yul\":9018:9226   */\n        tag_158:\n            /* \"#utility.yul\":9032:9039   */\n          dup3\n            /* \"#utility.yul\":9029:9030   */\n          dup2\n            /* \"#utility.yul\":9026:9040   */\n          lt\n            /* \"#utility.yul\":9018:9226   */\n          iszero\n          tag_160\n          jumpi\n            /* \"#utility.yul\":9111:9120   */\n          dup5\n            /* \"#utility.yul\":9106:9109   */\n          dup10\n            /* \"#utility.yul\":9102:9121   */\n          add\n            /* \"#utility.yul\":9096:9122   */\n          mload\n            /* \"#utility.yul\":9088:9094   */\n          dup3\n            /* \"#utility.yul\":9081:9123   */\n          sstore\n            /* \"#utility.yul\":9162:9163   */\n          0x01\n            /* \"#utility.yul\":9154:9160   */\n          dup3\n            /* \"#utility.yul\":9150:9164   */\n          add\n            /* \"#utility.yul\":9140:9164   */\n          swap2\n          pop\n            /* \"#utility.yul\":9209:9211   */\n          0x20\n            /* \"#utility.yul\":9198:9207   */\n          dup6\n            /* \"#utility.yul\":9194:9212   */\n          add\n            /* \"#utility.yul\":9181:9212   */\n          swap5\n          pop\n            /* \"#utility.yul\":9055:9059   */\n          0x20\n            /* \"#utility.yul\":9052:9053   */\n          dup2\n            /* \"#utility.yul\":9048:9060   */\n          add\n            /* \"#utility.yul\":9043:9060   */\n          swap1\n          pop\n            /* \"#utility.yul\":9018:9226   */\n          jump(tag_158)\n        tag_160:\n            /* \"#utility.yul\":9254:9260   */\n          dup7\n            /* \"#utility.yul\":9245:9252   */\n          dup4\n            /* \"#utility.yul\":9242:9261   */\n          lt\n            /* \"#utility.yul\":9239:9418   */\n          iszero\n          tag_161\n          jumpi\n            /* \"#utility.yul\":9312:9321   */\n          dup5\n            /* \"#utility.yul\":9307:9310   */\n          dup10\n            /* \"#utility.yul\":9303:9322   */\n          add\n            /* \"#utility.yul\":9297:9323   */\n          mload\n            /* \"#utility.yul\":9355:9403   */\n          tag_162\n            /* \"#utility.yul\":9397:9401   */\n          0x1f\n            /* \"#utility.yul\":9389:9395   */\n          dup10\n            /* \"#utility.yul\":9385:9402   */\n          and\n            /* \"#utility.yul\":9374:9383   */\n          dup3\n            /* \"#utility.yul\":9355:9403   */\n          tag_46\n          jump\t// in\n        tag_162:\n            /* \"#utility.yul\":9347:9353   */\n          dup4\n            /* \"#utility.yul\":9340:9404   */\n          sstore\n            /* \"#utility.yul\":9262:9418   */\n          pop\n            /* \"#utility.yul\":9239:9418   */\n        tag_161:\n            /* \"#utility.yul\":9464:9465   */\n          0x01\n            /* \"#utility.yul\":9460:9461   */\n          0x02\n            /* \"#utility.yul\":9452:9458   */\n          dup9\n            /* \"#utility.yul\":9448:9462   */\n          mul\n            /* \"#utility.yul\":9444:9466   */\n          add\n            /* \"#utility.yul\":9438:9442   */\n          dup9\n            /* \"#utility.yul\":9431:9467   */\n          sstore\n            /* \"#utility.yul\":8866:9477   */\n          pop\n          pop\n          pop\n            /* \"#utility.yul\":8829:9716   */\n        tag_153:\n          pop\n            /* \"#utility.yul\":8419:9722   */\n          pop\n          pop\n          pop\n            /* \"#utility.yul\":8327:9722   */\n          pop\n          pop\n          jump\t// out\n            /* \"Campaign.sol\":1648:7444  contract Campaign {... */\n        tag_9:\n          dataSize(sub_0)\n          dup1\n          dataOffset(sub_0)\n          0x00\n          codecopy\n          0x00\n          return\n        stop\n\n        sub_0: assembly {\n                /* \"Campaign.sol\":1648:7444  contract Campaign {... */\n              mstore(0x40, 0x80)\n              jumpi(tag_1, lt(calldatasize, 0x04))\n              shr(0xe0, calldataload(0x00))\n              dup1\n              0x83920e90\n              gt\n              tag_26\n              jumpi\n              dup1\n              0xa0c97bce\n              gt\n              tag_27\n              jumpi\n              dup1\n              0xa0c97bce\n              eq\n              tag_20\n              jumpi\n              dup1\n              0xa39fac12\n              eq\n              tag_21\n              jumpi\n              dup1\n              0xc8b342ab\n              eq\n              tag_22\n              jumpi\n              dup1\n              0xd57bde79\n              eq\n              tag_23\n              jumpi\n              dup1\n              0xd7bb99ba\n              eq\n              tag_24\n              jumpi\n              dup1\n              0xedf26d9b\n              eq\n              tag_25\n              jumpi\n              jump(tag_1)\n            tag_27:\n              dup1\n              0x83920e90\n              eq\n              tag_14\n              jumpi\n              dup1\n              0x8d2a1dad\n              eq\n              tag_15\n              jumpi\n              dup1\n              0x91f90157\n              eq\n              tag_16\n              jumpi\n              dup1\n              0x937e09b1\n              eq\n              tag_17\n              jumpi\n              dup1\n              0x94073c25\n              eq\n              tag_18\n              jumpi\n              dup1\n              0x9ace38c2\n              eq\n              tag_19\n              jumpi\n              jump(tag_1)\n            tag_26:\n              dup1\n              0x4ede3648\n              gt\n              tag_28\n              jumpi\n              dup1\n              0x4ede3648\n              eq\n              tag_8\n              jumpi\n              dup1\n              0x58d65629\n              eq\n              tag_9\n              jumpi\n              dup1\n              0x597e1fb5\n              eq\n              tag_10\n              jumpi\n              dup1\n              0x7b87d856\n              eq\n              tag_11\n              jumpi\n              dup1\n              0x7e06eb7d\n              eq\n              tag_12\n              jumpi\n              dup1\n              0x82fde093\n              eq\n              tag_13\n              jumpi\n              jump(tag_1)\n            tag_28:\n              dup1\n              0x0a144391\n              eq\n              tag_2\n              jumpi\n              dup1\n              0x2ebc9a3e\n              eq\n              tag_3\n              jumpi\n              dup1\n              0x3197cbb6\n              eq\n              tag_4\n              jumpi\n              dup1\n              0x4051ddac\n              eq\n              tag_5\n              jumpi\n              dup1\n              0x481c6a75\n              eq\n              tag_6\n              jumpi\n              dup1\n              0x4e69d560\n              eq\n              tag_7\n              jumpi\n            tag_1:\n              revert(0x00, 0x00)\n                /* \"Campaign.sol\":2121:2162  mapping(address => bool) public approvers */\n            tag_2:\n              callvalue\n              dup1\n              iszero\n              tag_29\n              jumpi\n              revert(0x00, 0x00)\n            tag_29:\n              pop\n              tag_30\n              0x04\n              dup1\n              calldatasize\n              sub\n              dup2\n              add\n              swap1\n              tag_31\n              swap2\n              swap1\n              tag_32\n              jump\t// in\n            tag_31:\n              tag_33\n              jump\t// in\n            tag_30:\n              mload(0x40)\n              tag_34\n              swap2\n              swap1\n              tag_35\n              jump\t// in\n            tag_34:\n              mload(0x40)\n              dup1\n              swap2\n              sub\n              swap1\n              return\n                /* \"Campaign.sol\":2169:2219  mapping(address => uint256) public approversMonney */\n            tag_3:\n              callvalue\n              dup1\n              iszero\n              tag_36\n              jumpi\n              revert(0x00, 0x00)\n            tag_36:\n              pop\n              tag_37\n              0x04\n              dup1\n              calldatasize\n              sub\n              dup2\n              add\n              swap1\n              tag_38\n              swap2\n              swap1\n              tag_32\n              jump\t// in\n            tag_38:\n              tag_39\n              jump\t// in\n            tag_37:\n              mload(0x40)\n              tag_40\n              swap2\n              swap1\n              tag_41\n              jump\t// in\n            tag_40:\n              mload(0x40)\n              dup1\n              swap2\n              sub\n              swap1\n              return\n                /* \"Campaign.sol\":2362:2384  uint256 public endTime */\n            tag_4:\n              callvalue\n              dup1\n              iszero\n              tag_42\n              jumpi\n              revert(0x00, 0x00)\n            tag_42:\n              pop\n              tag_43\n              tag_44\n              jump\t// in\n            tag_43:\n              mload(0x40)\n              tag_45\n              swap2\n              swap1\n              tag_41\n              jump\t// in\n            tag_45:\n              mload(0x40)\n              dup1\n              swap2\n              sub\n              swap1\n              return\n                /* \"Campaign.sol\":6801:7441  function getSummary()... */\n            tag_5:\n              callvalue\n              dup1\n              iszero\n              tag_46\n              jumpi\n              revert(0x00, 0x00)\n            tag_46:\n              pop\n              tag_47\n              tag_48\n              jump\t// in\n            tag_47:\n              mload(0x40)\n              tag_49\n              swap11\n              swap10\n              swap9\n              swap8\n              swap7\n              swap6\n              swap5\n              swap4\n              swap3\n              swap2\n              swap1\n              tag_50\n              jump\t// in\n            tag_49:\n              mload(0x40)\n              dup1\n              swap2\n              sub\n              swap1\n              return\n                /* \"Campaign.sol\":1983:2005  address public manager */\n            tag_6:\n              callvalue\n              dup1\n              iszero\n              tag_51\n              jumpi\n              revert(0x00, 0x00)\n            tag_51:\n              pop\n              tag_52\n              tag_53\n              jump\t// in\n            tag_52:\n              mload(0x40)\n              tag_54\n              swap2\n              swap1\n              tag_55\n              jump\t// in\n            tag_54:\n              mload(0x40)\n              dup1\n              swap2\n              sub\n              swap1\n              return\n                /* \"Campaign.sol\":5160:5240  function getStatus() public view returns (bool) {... */\n            tag_7:\n              callvalue\n              dup1\n              iszero\n              tag_56\n              jumpi\n              revert(0x00, 0x00)\n            tag_56:\n              pop\n              tag_57\n              tag_58\n              jump\t// in\n            tag_57:\n              mload(0x40)\n              tag_59\n              swap2\n              swap1\n              tag_35\n              jump\t// in\n            tag_59:\n              mload(0x40)\n              dup1\n              swap2\n              sub\n              swap1\n              return\n                /* \"Campaign.sol\":6551:6791  function withdrawBid(address payable _address) public {... */\n            tag_8:\n              callvalue\n              dup1\n              iszero\n              tag_60\n              jumpi\n              revert(0x00, 0x00)\n            tag_60:\n              pop\n              tag_61\n              0x04\n              dup1\n              calldatasize\n              sub\n              dup2\n              add\n              swap1\n              tag_62\n              swap2\n              swap1\n              tag_63\n              jump\t// in\n            tag_62:\n              tag_64\n              jump\t// in\n            tag_61:\n              stop\n                /* \"Campaign.sol\":2085:2114  string public dataDescription */\n            tag_9:\n              callvalue\n              dup1\n              iszero\n              tag_65\n              jumpi\n              revert(0x00, 0x00)\n            tag_65:\n              pop\n              tag_66\n              tag_67\n              jump\t// in\n            tag_66:\n              mload(0x40)\n              tag_68\n              swap2\n              swap1\n              tag_69\n              jump\t// in\n            tag_68:\n              mload(0x40)\n              dup1\n              swap2\n              sub\n              swap1\n              return\n                /* \"Campaign.sol\":2391:2409  bool public closed */\n            tag_10:\n              callvalue\n              dup1\n              iszero\n              tag_70\n              jumpi\n              revert(0x00, 0x00)\n            tag_70:\n              pop\n              tag_71\n              tag_72\n              jump\t// in\n            tag_71:\n              mload(0x40)\n              tag_73\n              swap2\n              swap1\n              tag_35\n              jump\t// in\n            tag_73:\n              mload(0x40)\n              dup1\n              swap2\n              sub\n              swap1\n              return\n                /* \"Campaign.sol\":2053:2078  string public dataForSell */\n            tag_11:\n              callvalue\n              dup1\n              iszero\n              tag_74\n              jumpi\n              revert(0x00, 0x00)\n            tag_74:\n              pop\n              tag_75\n              tag_76\n              jump\t// in\n            tag_75:\n              mload(0x40)\n              tag_77\n              swap2\n              swap1\n              tag_69\n              jump\t// in\n            tag_77:\n              mload(0x40)\n              dup1\n              swap2\n              sub\n              swap1\n              return\n                /* \"Campaign.sol\":2967:3092  function compareAddresses(address a, address b) public pure returns (bool) {... */\n            tag_12:\n              callvalue\n              dup1\n              iszero\n              tag_78\n              jumpi\n              revert(0x00, 0x00)\n            tag_78:\n              pop\n              tag_79\n              0x04\n              dup1\n              calldatasize\n              sub\n              dup2\n              add\n              swap1\n              tag_80\n              swap2\n              swap1\n              tag_81\n              jump\t// in\n            tag_80:\n              tag_82\n              jump\t// in\n            tag_79:\n              mload(0x40)\n              tag_83\n              swap2\n              swap1\n              tag_35\n              jump\t// in\n            tag_83:\n              mload(0x40)\n              dup1\n              swap2\n              sub\n              swap1\n              return\n                /* \"Campaign.sol\":2226:2255  uint256 public approversCount */\n            tag_13:\n              callvalue\n              dup1\n              iszero\n              tag_84\n              jumpi\n              revert(0x00, 0x00)\n            tag_84:\n              pop\n              tag_85\n              tag_86\n              jump\t// in\n            tag_85:\n              mload(0x40)\n              tag_87\n              swap2\n              swap1\n              tag_41\n              jump\t// in\n            tag_87:\n              mload(0x40)\n              dup1\n              swap2\n              sub\n              swap1\n              return\n                /* \"Campaign.sol\":4825:4925  function getTransactions() public view returns (Bid[] memory) {... */\n            tag_14:\n              callvalue\n              dup1\n              iszero\n              tag_88\n              jumpi\n              revert(0x00, 0x00)\n            tag_88:\n              pop\n              tag_89\n              tag_90\n              jump\t// in\n            tag_89:\n              mload(0x40)\n              tag_91\n              swap2\n              swap1\n              tag_92\n              jump\t// in\n            tag_91:\n              mload(0x40)\n              dup1\n              swap2\n              sub\n              swap1\n              return\n                /* \"Campaign.sol\":3515:4817  function EndedAuctions() public payable {... */\n            tag_15:\n              tag_93\n              tag_94\n              jump\t// in\n            tag_93:\n              stop\n                /* \"Campaign.sol\":2295:2323  address public highestBidder */\n            tag_16:\n              callvalue\n              dup1\n              iszero\n              tag_95\n              jumpi\n              revert(0x00, 0x00)\n            tag_95:\n              pop\n              tag_96\n              tag_97\n              jump\t// in\n            tag_96:\n              mload(0x40)\n              tag_98\n              swap2\n              swap1\n              tag_55\n              jump\t// in\n            tag_98:\n              mload(0x40)\n              dup1\n              swap2\n              sub\n              swap1\n              return\n                /* \"Campaign.sol\":2012:2046  uint256 public minimumContribution */\n            tag_17:\n              callvalue\n              dup1\n              iszero\n              tag_99\n              jumpi\n              revert(0x00, 0x00)\n            tag_99:\n              pop\n              tag_100\n              tag_101\n              jump\t// in\n            tag_100:\n              mload(0x40)\n              tag_102\n              swap2\n              swap1\n              tag_41\n              jump\t// in\n            tag_102:\n              mload(0x40)\n              dup1\n              swap2\n              sub\n              swap1\n              return\n                /* \"Campaign.sol\":3100:3507  function toLower(address _address) public pure returns (address) {... */\n            tag_18:\n              callvalue\n              dup1\n              iszero\n              tag_103\n              jumpi\n              revert(0x00, 0x00)\n            tag_103:\n              pop\n              tag_104\n              0x04\n              dup1\n              calldatasize\n              sub\n              dup2\n              add\n              swap1\n              tag_105\n              swap2\n              swap1\n              tag_32\n              jump\t// in\n            tag_105:\n              tag_106\n              jump\t// in\n            tag_104:\n              mload(0x40)\n              tag_107\n              swap2\n              swap1\n              tag_55\n              jump\t// in\n            tag_107:\n              mload(0x40)\n              dup1\n              swap2\n              sub\n              swap1\n              return\n                /* \"Campaign.sol\":1951:1976  Bid[] public transactions */\n            tag_19:\n              callvalue\n              dup1\n              iszero\n              tag_108\n              jumpi\n              revert(0x00, 0x00)\n            tag_108:\n              pop\n              tag_109\n              0x04\n              dup1\n              calldatasize\n              sub\n              dup2\n              add\n              swap1\n              tag_110\n              swap2\n              swap1\n              tag_111\n              jump\t// in\n            tag_110:\n              tag_112\n              jump\t// in\n            tag_109:\n              mload(0x40)\n              tag_113\n              swap4\n              swap3\n              swap2\n              swap1\n              tag_114\n              jump\t// in\n            tag_113:\n              mload(0x40)\n              dup1\n              swap2\n              sub\n              swap1\n              return\n                /* \"Campaign.sol\":6322:6542  function paySeller() public {... */\n            tag_20:\n              callvalue\n              dup1\n              iszero\n              tag_115\n              jumpi\n              revert(0x00, 0x00)\n            tag_115:\n              pop\n              tag_116\n              tag_117\n              jump\t// in\n            tag_116:\n              stop\n                /* \"Campaign.sol\":5248:5346  function getAddresses() public view returns (address[] memory) {... */\n            tag_21:\n              callvalue\n              dup1\n              iszero\n              tag_118\n              jumpi\n              revert(0x00, 0x00)\n            tag_118:\n              pop\n              tag_119\n              tag_120\n              jump\t// in\n            tag_119:\n              mload(0x40)\n              tag_121\n              swap2\n              swap1\n              tag_122\n              jump\t// in\n            tag_121:\n              mload(0x40)\n              dup1\n              swap2\n              sub\n              swap1\n              return\n                /* \"Campaign.sol\":4933:5154  function getBid(address add) public view returns (uint256) {... */\n            tag_22:\n              callvalue\n              dup1\n              iszero\n              tag_123\n              jumpi\n              revert(0x00, 0x00)\n            tag_123:\n              pop\n              tag_124\n              0x04\n              dup1\n              calldatasize\n              sub\n              dup2\n              add\n              swap1\n              tag_125\n              swap2\n              swap1\n              tag_32\n              jump\t// in\n            tag_125:\n              tag_126\n              jump\t// in\n            tag_124:\n              mload(0x40)\n              tag_127\n              swap2\n              swap1\n              tag_41\n              jump\t// in\n            tag_127:\n              mload(0x40)\n              dup1\n              swap2\n              sub\n              swap1\n              return\n                /* \"Campaign.sol\":2330:2355  uint256 public highestBid */\n            tag_23:\n              callvalue\n              dup1\n              iszero\n              tag_128\n              jumpi\n              revert(0x00, 0x00)\n            tag_128:\n              pop\n              tag_129\n              tag_130\n              jump\t// in\n            tag_129:\n              mload(0x40)\n              tag_131\n              swap2\n              swap1\n              tag_41\n              jump\t// in\n            tag_131:\n              mload(0x40)\n              dup1\n              swap2\n              sub\n              swap1\n              return\n                /* \"Campaign.sol\":5354:6318  function contribute() public payable {... */\n            tag_24:\n              tag_132\n              tag_133\n              jump\t// in\n            tag_132:\n              stop\n                /* \"Campaign.sol\":2262:2288  address[] public addresses */\n            tag_25:\n              callvalue\n              dup1\n              iszero\n              tag_134\n              jumpi\n              revert(0x00, 0x00)\n            tag_134:\n              pop\n              tag_135\n              0x04\n              dup1\n              calldatasize\n              sub\n              dup2\n              add\n              swap1\n              tag_136\n              swap2\n              swap1\n              tag_111\n              jump\t// in\n            tag_136:\n              tag_137\n              jump\t// in\n            tag_135:\n              mload(0x40)\n              tag_138\n              swap2\n              swap1\n              tag_55\n              jump\t// in\n            tag_138:\n              mload(0x40)\n              dup1\n              swap2\n              sub\n              swap1\n              return\n                /* \"Campaign.sol\":2121:2162  mapping(address => bool) public approvers */\n            tag_33:\n              mstore(0x20, 0x05)\n              dup1\n              0x00\n              mstore\n              keccak256(0x00, 0x40)\n              0x00\n              swap2\n              pop\n              sload\n              swap1\n              0x0100\n              exp\n              swap1\n              div\n              0xff\n              and\n              dup2\n              jump\t// out\n                /* \"Campaign.sol\":2169:2219  mapping(address => uint256) public approversMonney */\n            tag_39:\n              mstore(0x20, 0x06)\n              dup1\n              0x00\n              mstore\n              keccak256(0x00, 0x40)\n              0x00\n              swap2\n              pop\n              swap1\n              pop\n              sload\n              dup2\n              jump\t// out\n                /* \"Campaign.sol\":2362:2384  uint256 public endTime */\n            tag_44:\n              sload(0x0b)\n              dup2\n              jump\t// out\n                /* \"Campaign.sol\":6801:7441  function getSummary()... */\n            tag_48:\n                /* \"Campaign.sol\":6885:6892  uint256 */\n              0x00\n                /* \"Campaign.sol\":6907:6914  uint256 */\n              0x00\n                /* \"Campaign.sol\":6929:6936  uint256 */\n              0x00\n                /* \"Campaign.sol\":6951:6958  address */\n              0x00\n                /* \"Campaign.sol\":6973:6980  uint256 */\n              0x00\n                /* \"Campaign.sol\":6995:7008  string memory */\n              0x60\n                /* \"Campaign.sol\":7023:7036  string memory */\n              dup1\n                /* \"Campaign.sol\":7051:7058  uint256 */\n              0x00\n                /* \"Campaign.sol\":7073:7080  address */\n              0x00\n                /* \"Campaign.sol\":7095:7111  address[] memory */\n              0x60\n                /* \"Campaign.sol\":7161:7180  minimumContribution */\n              sload(0x02)\n                /* \"Campaign.sol\":7195:7216  address(this).balance */\n              selfbalance\n                /* \"Campaign.sol\":7231:7245  approversCount */\n              sload(0x07)\n                /* \"Campaign.sol\":7260:7267  manager */\n              0x01\n              0x00\n              swap1\n              sload\n              swap1\n              0x0100\n              exp\n              swap1\n              div\n              0xffffffffffffffffffffffffffffffffffffffff\n              and\n                /* \"Campaign.sol\":7282:7292  highestBid */\n              sload(0x0a)\n                /* \"Campaign.sol\":7307:7318  dataForSell */\n              0x03\n                /* \"Campaign.sol\":7333:7348  dataDescription */\n              0x04\n                /* \"Campaign.sol\":7363:7370  endTime */\n              sload(0x0b)\n                /* \"Campaign.sol\":7385:7398  highestBidder */\n              0x09\n              0x00\n              swap1\n              sload\n              swap1\n              0x0100\n              exp\n              swap1\n              div\n              0xffffffffffffffffffffffffffffffffffffffff\n              and\n                /* \"Campaign.sol\":7413:7422  addresses */\n              0x08\n                /* \"Campaign.sol\":7139:7433  return (... */\n              dup5\n              dup1\n              sload\n              tag_140\n              swap1\n              tag_141\n              jump\t// in\n            tag_140:\n              dup1\n              0x1f\n              add\n              0x20\n              dup1\n              swap2\n              div\n              mul\n              0x20\n              add\n              mload(0x40)\n              swap1\n              dup2\n              add\n              0x40\n              mstore\n              dup1\n              swap3\n              swap2\n              swap1\n              dup2\n              dup2\n              mstore\n              0x20\n              add\n              dup3\n              dup1\n              sload\n              tag_142\n              swap1\n              tag_141\n              jump\t// in\n            tag_142:\n              dup1\n              iszero\n              tag_143\n              jumpi\n              dup1\n              0x1f\n              lt\n              tag_144\n              jumpi\n              0x0100\n              dup1\n              dup4\n              sload\n              div\n              mul\n              dup4\n              mstore\n              swap2\n              0x20\n              add\n              swap2\n              jump(tag_143)\n            tag_144:\n              dup3\n              add\n              swap2\n              swap1\n              0x00\n              mstore\n              keccak256(0x00, 0x20)\n              swap1\n            tag_145:\n              dup2\n              sload\n              dup2\n              mstore\n              swap1\n              0x01\n              add\n              swap1\n              0x20\n              add\n              dup1\n              dup4\n              gt\n              tag_145\n              jumpi\n              dup3\n              swap1\n              sub\n              0x1f\n              and\n              dup3\n              add\n              swap2\n            tag_143:\n              pop\n              pop\n              pop\n              pop\n              pop\n              swap5\n              pop\n              dup4\n              dup1\n              sload\n              tag_146\n              swap1\n              tag_141\n              jump\t// in\n            tag_146:\n              dup1\n              0x1f\n              add\n              0x20\n              dup1\n              swap2\n              div\n              mul\n              0x20\n              add\n              mload(0x40)\n              swap1\n              dup2\n              add\n              0x40\n              mstore\n              dup1\n              swap3\n              swap2\n              swap1\n              dup2\n              dup2\n              mstore\n              0x20\n              add\n              dup3\n              dup1\n              sload\n              tag_147\n              swap1\n              tag_141\n              jump\t// in\n            tag_147:\n              dup1\n              iszero\n              tag_148\n              jumpi\n              dup1\n              0x1f\n              lt\n              tag_149\n              jumpi\n              0x0100\n              dup1\n              dup4\n              sload\n              div\n              mul\n              dup4\n              mstore\n              swap2\n              0x20\n              add\n              swap2\n              jump(tag_148)\n            tag_149:\n              dup3\n              add\n              swap2\n              swap1\n              0x00\n              mstore\n              keccak256(0x00, 0x20)\n              swap1\n            tag_150:\n              dup2\n              sload\n              dup2\n              mstore\n              swap1\n              0x01\n              add\n              swap1\n              0x20\n              add\n              dup1\n              dup4\n              gt\n              tag_150\n              jumpi\n              dup3\n              swap1\n              sub\n              0x1f\n              and\n              dup3\n              add\n              swap2\n            tag_148:\n              pop\n              pop\n              pop\n              pop\n              pop\n              swap4\n              pop\n              dup1\n              dup1\n              sload\n              dup1\n              0x20\n              mul\n              0x20\n              add\n              mload(0x40)\n              swap1\n              dup2\n              add\n              0x40\n              mstore\n              dup1\n              swap3\n              swap2\n              swap1\n              dup2\n              dup2\n              mstore\n              0x20\n              add\n              dup3\n              dup1\n              sload\n              dup1\n              iszero\n              tag_151\n              jumpi\n              0x20\n              mul\n              dup3\n              add\n              swap2\n              swap1\n              0x00\n              mstore\n              keccak256(0x00, 0x20)\n              swap1\n            tag_152:\n              dup2\n              0x00\n              swap1\n              sload\n              swap1\n              0x0100\n              exp\n              swap1\n              div\n              0xffffffffffffffffffffffffffffffffffffffff\n              and\n              0xffffffffffffffffffffffffffffffffffffffff\n              and\n              dup2\n              mstore\n              0x20\n              add\n              swap1\n              0x01\n              add\n              swap1\n              dup1\n              dup4\n              gt\n              tag_152\n              jumpi\n            tag_151:\n              pop\n              pop\n              pop\n              pop\n              pop\n              swap1\n              pop\n              swap10\n              pop\n              swap10\n              pop\n              swap10\n              pop\n              swap10\n              pop\n              swap10\n              pop\n              swap10\n              pop\n              swap10\n              pop\n              swap10\n              pop\n              swap10\n              pop\n              swap10\n              pop\n                /* \"Campaign.sol\":6801:7441  function getSummary()... */\n              swap1\n              swap2\n              swap3\n              swap4\n              swap5\n              swap6\n              swap7\n              swap8\n              swap9\n              swap10\n              jump\t// out\n                /* \"Campaign.sol\":1983:2005  address public manager */\n            tag_53:\n              0x01\n              0x00\n              swap1\n              sload\n              swap1\n              0x0100\n              exp\n              swap1\n              div\n              0xffffffffffffffffffffffffffffffffffffffff\n              and\n              dup2\n              jump\t// out\n                /* \"Campaign.sol\":5160:5240  function getStatus() public view returns (bool) {... */\n            tag_58:\n                /* \"Campaign.sol\":5202:5206  bool */\n              0x00\n                /* \"Campaign.sol\":5226:5232  closed */\n              0x0c\n              0x00\n              swap1\n              sload\n              swap1\n              0x0100\n              exp\n              swap1\n              div\n              0xff\n              and\n                /* \"Campaign.sol\":5219:5232  return closed */\n              swap1\n              pop\n                /* \"Campaign.sol\":5160:5240  function getStatus() public view returns (bool) {... */\n              swap1\n              jump\t// out\n                /* \"Campaign.sol\":6551:6791  function withdrawBid(address payable _address) public {... */\n            tag_64:\n                /* \"Campaign.sol\":6648:6649  0 */\n              0x00\n                /* \"Campaign.sol\":6620:6635  approversMonney */\n              0x06\n                /* \"Campaign.sol\":6620:6645  approversMonney[_address] */\n              0x00\n                /* \"Campaign.sol\":6636:6644  _address */\n              dup4\n                /* \"Campaign.sol\":6620:6645  approversMonney[_address] */\n              0xffffffffffffffffffffffffffffffffffffffff\n              and\n              0xffffffffffffffffffffffffffffffffffffffff\n              and\n              dup2\n              mstore\n              0x20\n              add\n              swap1\n              dup2\n              mstore\n              0x20\n              add\n              0x00\n              keccak256\n              sload\n                /* \"Campaign.sol\":6620:6649  approversMonney[_address] > 0 */\n              gt\n                /* \"Campaign.sol\":6612:6670  require(approversMonney[_address] > 0, \"No bid to refund\") */\n              tag_155\n              jumpi\n              mload(0x40)\n              0x08c379a000000000000000000000000000000000000000000000000000000000\n              dup2\n              mstore\n              0x04\n              add\n              tag_156\n              swap1\n              tag_157\n              jump\t// in\n            tag_156:\n              mload(0x40)\n              dup1\n              swap2\n              sub\n              swap1\n              revert\n            tag_155:\n                /* \"Campaign.sol\":6677:6691  uint256 refund */\n              0x00\n                /* \"Campaign.sol\":6694:6709  approversMonney */\n              0x06\n                /* \"Campaign.sol\":6694:6719  approversMonney[_address] */\n              0x00\n                /* \"Campaign.sol\":6710:6718  _address */\n              dup4\n                /* \"Campaign.sol\":6694:6719  approversMonney[_address] */\n              0xffffffffffffffffffffffffffffffffffffffff\n              and\n              0xffffffffffffffffffffffffffffffffffffffff\n              and\n              dup2\n              mstore\n              0x20\n              add\n              swap1\n              dup2\n              mstore\n              0x20\n              add\n              0x00\n              keccak256\n              sload\n                /* \"Campaign.sol\":6677:6719  uint256 refund = approversMonney[_address] */\n              swap1\n              pop\n                /* \"Campaign.sol\":6754:6755  0 */\n              0x00\n                /* \"Campaign.sol\":6726:6741  approversMonney */\n              0x06\n                /* \"Campaign.sol\":6726:6751  approversMonney[_address] */\n              0x00\n                /* \"Campaign.sol\":6742:6750  _address */\n              dup5\n                /* \"Campaign.sol\":6726:6751  approversMonney[_address] */\n              0xffffffffffffffffffffffffffffffffffffffff\n              and\n              0xffffffffffffffffffffffffffffffffffffffff\n              and\n              dup2\n              mstore\n              0x20\n              add\n              swap1\n              dup2\n              mstore\n              0x20\n              add\n              0x00\n              keccak256\n                /* \"Campaign.sol\":6726:6755  approversMonney[_address] = 0 */\n              dup2\n              swap1\n              sstore\n              pop\n                /* \"Campaign.sol\":6762:6770  _address */\n              dup2\n                /* \"Campaign.sol\":6762:6779  _address.transfer */\n              0xffffffffffffffffffffffffffffffffffffffff\n              and\n                /* \"Campaign.sol\":6762:6787  _address.transfer(refund) */\n              0x08fc\n                /* \"Campaign.sol\":6780:6786  refund */\n              dup3\n                /* \"Campaign.sol\":6762:6787  _address.transfer(refund) */\n              swap1\n              dup2\n              iszero\n              mul\n              swap1\n              mload(0x40)\n              0x00\n              mload(0x40)\n              dup1\n              dup4\n              sub\n              dup2\n              dup6\n              dup9\n              dup9\n              call\n              swap4\n              pop\n              pop\n              pop\n              pop\n              iszero\n              dup1\n              iszero\n              tag_159\n              jumpi\n              returndatacopy(0x00, 0x00, returndatasize)\n              revert(0x00, returndatasize)\n            tag_159:\n              pop\n                /* \"Campaign.sol\":6605:6791  {... */\n              pop\n                /* \"Campaign.sol\":6551:6791  function withdrawBid(address payable _address) public {... */\n              pop\n              jump\t// out\n                /* \"Campaign.sol\":2085:2114  string public dataDescription */\n            tag_67:\n              0x04\n              dup1\n              sload\n              tag_160\n              swap1\n              tag_141\n              jump\t// in\n            tag_160:\n              dup1\n              0x1f\n              add\n              0x20\n              dup1\n              swap2\n              div\n              mul\n              0x20\n              add\n              mload(0x40)\n              swap1\n              dup2\n              add\n              0x40\n              mstore\n              dup1\n              swap3\n              swap2\n              swap1\n              dup2\n              dup2\n              mstore\n              0x20\n              add\n              dup3\n              dup1\n              sload\n              tag_161\n              swap1\n              tag_141\n              jump\t// in\n            tag_161:\n              dup1\n              iszero\n              tag_162\n              jumpi\n              dup1\n              0x1f\n              lt\n              tag_163\n              jumpi\n              0x0100\n              dup1\n              dup4\n              sload\n              div\n              mul\n              dup4\n              mstore\n              swap2\n              0x20\n              add\n              swap2\n              jump(tag_162)\n            tag_163:\n              dup3\n              add\n              swap2\n              swap1\n              0x00\n              mstore\n              keccak256(0x00, 0x20)\n              swap1\n            tag_164:\n              dup2\n              sload\n              dup2\n              mstore\n              swap1\n              0x01\n              add\n              swap1\n              0x20\n              add\n              dup1\n              dup4\n              gt\n              tag_164\n              jumpi\n              dup3\n              swap1\n              sub\n              0x1f\n              and\n              dup3\n              add\n              swap2\n            tag_162:\n              pop\n              pop\n              pop\n              pop\n              pop\n              dup2\n              jump\t// out\n                /* \"Campaign.sol\":2391:2409  bool public closed */\n            tag_72:\n              0x0c\n              0x00\n              swap1\n              sload\n              swap1\n              0x0100\n              exp\n              swap1\n              div\n              0xff\n              and\n              dup2\n              jump\t// out\n                /* \"Campaign.sol\":2053:2078  string public dataForSell */\n            tag_76:\n              0x03\n              dup1\n              sload\n              tag_165\n              swap1\n              tag_141\n              jump\t// in\n            tag_165:\n              dup1\n              0x1f\n              add\n              0x20\n              dup1\n              swap2\n              div\n              mul\n              0x20\n              add\n              mload(0x40)\n              swap1\n              dup2\n              add\n              0x40\n              mstore\n              dup1\n              swap3\n              swap2\n              swap1\n              dup2\n              dup2\n              mstore\n              0x20\n              add\n              dup3\n              dup1\n              sload\n              tag_166\n              swap1\n              tag_141\n              jump\t// in\n            tag_166:\n              dup1\n              iszero\n              tag_167\n              jumpi\n              dup1\n              0x1f\n              lt\n              tag_168\n              jumpi\n              0x0100\n              dup1\n              dup4\n              sload\n              div\n              mul\n              dup4\n              mstore\n              swap2\n              0x20\n              add\n              swap2\n              jump(tag_167)\n            tag_168:\n              dup3\n              add\n              swap2\n              swap1\n              0x00\n              mstore\n              keccak256(0x00, 0x20)\n              swap1\n            tag_169:\n              dup2\n              sload\n              dup2\n              mstore\n              swap1\n              0x01\n              add\n              swap1\n              0x20\n              add\n              dup1\n              dup4\n              gt\n              tag_169\n              jumpi\n              dup3\n              swap1\n              sub\n              0x1f\n              and\n              dup3\n              add\n              swap2\n            tag_167:\n              pop\n              pop\n              pop\n              pop\n              pop\n              dup2\n              jump\t// out\n                /* \"Campaign.sol\":2967:3092  function compareAddresses(address a, address b) public pure returns (bool) {... */\n            tag_82:\n                /* \"Campaign.sol\":3036:3040  bool */\n              0x00\n                /* \"Campaign.sol\":3074:3084  toLower(b) */\n              tag_171\n                /* \"Campaign.sol\":3082:3083  b */\n              dup3\n                /* \"Campaign.sol\":3074:3081  toLower */\n              tag_106\n                /* \"Campaign.sol\":3074:3084  toLower(b) */\n              jump\t// in\n            tag_171:\n                /* \"Campaign.sol\":3060:3084  toLower(a) == toLower(b) */\n              0xffffffffffffffffffffffffffffffffffffffff\n              and\n                /* \"Campaign.sol\":3060:3070  toLower(a) */\n              tag_172\n                /* \"Campaign.sol\":3068:3069  a */\n              dup5\n                /* \"Campaign.sol\":3060:3067  toLower */\n              tag_106\n                /* \"Campaign.sol\":3060:3070  toLower(a) */\n              jump\t// in\n            tag_172:\n                /* \"Campaign.sol\":3060:3084  toLower(a) == toLower(b) */\n              0xffffffffffffffffffffffffffffffffffffffff\n              and\n              eq\n                /* \"Campaign.sol\":3053:3084  return toLower(a) == toLower(b) */\n              swap1\n              pop\n                /* \"Campaign.sol\":2967:3092  function compareAddresses(address a, address b) public pure returns (bool) {... */\n              swap3\n              swap2\n              pop\n              pop\n              jump\t// out\n                /* \"Campaign.sol\":2226:2255  uint256 public approversCount */\n            tag_86:\n              sload(0x07)\n              dup2\n              jump\t// out\n                /* \"Campaign.sol\":4825:4925  function getTransactions() public view returns (Bid[] memory) {... */\n            tag_90:\n                /* \"Campaign.sol\":4873:4885  Bid[] memory */\n              0x60\n                /* \"Campaign.sol\":4905:4917  transactions */\n              0x00\n                /* \"Campaign.sol\":4898:4917  return transactions */\n              dup1\n              sload\n              dup1\n              0x20\n              mul\n              0x20\n              add\n              mload(0x40)\n              swap1\n              dup2\n              add\n              0x40\n              mstore\n              dup1\n              swap3\n              swap2\n              swap1\n              dup2\n              dup2\n              mstore\n              0x20\n              add\n              0x00\n              swap1\n            tag_174:\n              dup3\n              dup3\n              lt\n              iszero\n              tag_175\n              jumpi\n              dup4\n              dup3\n              swap1\n              0x00\n              mstore\n              keccak256(0x00, 0x20)\n              swap1\n              0x03\n              mul\n              add\n              mload(0x40)\n              dup1\n              0x60\n              add\n              0x40\n              mstore\n              swap1\n              dup2\n              0x00\n              dup3\n              add\n              sload\n              dup2\n              mstore\n              0x20\n              add\n              0x01\n              dup3\n              add\n              sload\n              dup2\n              mstore\n              0x20\n              add\n              0x02\n              dup3\n              add\n              0x00\n              swap1\n              sload\n              swap1\n              0x0100\n              exp\n              swap1\n              div\n              0xffffffffffffffffffffffffffffffffffffffff\n              and\n              0xffffffffffffffffffffffffffffffffffffffff\n              and\n              0xffffffffffffffffffffffffffffffffffffffff\n              and\n              dup2\n              mstore\n              pop\n              pop\n              dup2\n              mstore\n              0x20\n              add\n              swap1\n              0x01\n              add\n              swap1\n              jump(tag_174)\n            tag_175:\n              pop\n              pop\n              pop\n              pop\n              swap1\n              pop\n                /* \"Campaign.sol\":4825:4925  function getTransactions() public view returns (Bid[] memory) {... */\n              swap1\n              jump\t// out\n                /* \"Campaign.sol\":3515:4817  function EndedAuctions() public payable {... */\n            tag_94:\n                /* \"Campaign.sol\":3628:3643  block.timestamp */\n              timestamp\n                /* \"Campaign.sol\":3618:3625  endTime */\n              sload(0x0b)\n                /* \"Campaign.sol\":3618:3643  endTime < block.timestamp */\n              lt\n                /* \"Campaign.sol\":3614:4810  if (endTime < block.timestamp) {... */\n              iszero\n              tag_178\n              jumpi\n                /* \"Campaign.sol\":3705:3718  uint256 index */\n              0x00\n                /* \"Campaign.sol\":3721:3722  0 */\n              0x00\n                /* \"Campaign.sol\":3705:3722  uint256 index = 0 */\n              swap1\n              pop\n                /* \"Campaign.sol\":3737:3773  address[] memory nonWinningAddresses */\n              0x00\n                /* \"Campaign.sol\":3827:3828  1 */\n              0x01\n                /* \"Campaign.sol\":3808:3817  addresses */\n              0x08\n                /* \"Campaign.sol\":3808:3824  addresses.length */\n              dup1\n              sload\n              swap1\n              pop\n                /* \"Campaign.sol\":3808:3828  addresses.length - 1 */\n              tag_179\n              swap2\n              swap1\n              tag_180\n              jump\t// in\n            tag_179:\n                /* \"Campaign.sol\":3776:3843  new address[](... */\n              0xffffffffffffffff\n              dup2\n              gt\n              iszero\n              tag_181\n              jumpi\n              tag_182\n              tag_183\n              jump\t// in\n            tag_182:\n            tag_181:\n              mload(0x40)\n              swap1\n              dup1\n              dup3\n              mstore\n              dup1\n              0x20\n              mul\n              0x20\n              add\n              dup3\n              add\n              0x40\n              mstore\n              dup1\n              iszero\n              tag_184\n              jumpi\n              dup2\n              0x20\n              add\n              0x20\n              dup3\n              mul\n              dup1\n              calldatasize\n              dup4\n              calldatacopy\n              dup1\n              dup3\n              add\n              swap2\n              pop\n              pop\n              swap1\n              pop\n            tag_184:\n              pop\n                /* \"Campaign.sol\":3737:3843  address[] memory nonWinningAddresses = new address[](... */\n              swap1\n              pop\n                /* \"Campaign.sol\":3865:3871  uint i */\n              0x00\n                /* \"Campaign.sol\":3874:3875  0 */\n              0x00\n                /* \"Campaign.sol\":3865:3875  uint i = 0 */\n              swap1\n              pop\n                /* \"Campaign.sol\":3860:4549  for (uint i = 0; i < addresses.length; i++) {... */\n            tag_185:\n                /* \"Campaign.sol\":3881:3890  addresses */\n              0x08\n                /* \"Campaign.sol\":3881:3897  addresses.length */\n              dup1\n              sload\n              swap1\n              pop\n                /* \"Campaign.sol\":3877:3878  i */\n              dup2\n                /* \"Campaign.sol\":3877:3897  i < addresses.length */\n              lt\n                /* \"Campaign.sol\":3860:4549  for (uint i = 0; i < addresses.length; i++) {... */\n              iszero\n              tag_186\n              jumpi\n                /* \"Campaign.sol\":3943:3964  toLower(addresses[i]) */\n              tag_188\n                /* \"Campaign.sol\":3951:3960  addresses */\n              0x08\n                /* \"Campaign.sol\":3961:3962  i */\n              dup3\n                /* \"Campaign.sol\":3951:3963  addresses[i] */\n              dup2\n              sload\n              dup2\n              lt\n              tag_189\n              jumpi\n              tag_190\n              tag_191\n              jump\t// in\n            tag_190:\n            tag_189:\n              swap1\n              0x00\n              mstore\n              keccak256(0x00, 0x20)\n              add\n              0x00\n              swap1\n              sload\n              swap1\n              0x0100\n              exp\n              swap1\n              div\n              0xffffffffffffffffffffffffffffffffffffffff\n              and\n                /* \"Campaign.sol\":3943:3950  toLower */\n              tag_106\n                /* \"Campaign.sol\":3943:3964  toLower(addresses[i]) */\n              jump\t// in\n            tag_188:\n                /* \"Campaign.sol\":3928:3965  LogMyVariable1(toLower(addresses[i])) */\n              0xffffffffffffffffffffffffffffffffffffffff\n              and\n              0xdb2255c40dd3a96ac26cefe042ef05b7245beb67ba6fe3deb5a32048c48ae645\n              mload(0x40)\n              mload(0x40)\n              dup1\n              swap2\n              sub\n              swap1\n              log2\n                /* \"Campaign.sol\":4004:4017  highestBidder */\n              0x09\n              0x00\n              swap1\n              sload\n              swap1\n              0x0100\n              exp\n              swap1\n              div\n              0xffffffffffffffffffffffffffffffffffffffff\n              and\n                /* \"Campaign.sol\":3989:4018  LogMyVariable1(highestBidder) */\n              0xffffffffffffffffffffffffffffffffffffffff\n              and\n              0xdb2255c40dd3a96ac26cefe042ef05b7245beb67ba6fe3deb5a32048c48ae645\n              mload(0x40)\n              mload(0x40)\n              dup1\n              swap2\n              sub\n              swap1\n              log2\n                /* \"Campaign.sol\":4064:4200  compareAddresses(... */\n              tag_193\n                /* \"Campaign.sol\":4107:4128  toLower(addresses[i]) */\n              tag_194\n                /* \"Campaign.sol\":4115:4124  addresses */\n              0x08\n                /* \"Campaign.sol\":4125:4126  i */\n              dup4\n                /* \"Campaign.sol\":4115:4127  addresses[i] */\n              dup2\n              sload\n              dup2\n              lt\n              tag_195\n              jumpi\n              tag_196\n              tag_191\n              jump\t// in\n            tag_196:\n            tag_195:\n              swap1\n              0x00\n              mstore\n              keccak256(0x00, 0x20)\n              add\n              0x00\n              swap1\n              sload\n              swap1\n              0x0100\n              exp\n              swap1\n              div\n              0xffffffffffffffffffffffffffffffffffffffff\n              and\n                /* \"Campaign.sol\":4107:4114  toLower */\n              tag_106\n                /* \"Campaign.sol\":4107:4128  toLower(addresses[i]) */\n              jump\t// in\n            tag_194:\n                /* \"Campaign.sol\":4155:4177  toLower(highestBidder) */\n              tag_198\n                /* \"Campaign.sol\":4163:4176  highestBidder */\n              0x09\n              0x00\n              swap1\n              sload\n              swap1\n              0x0100\n              exp\n              swap1\n              div\n              0xffffffffffffffffffffffffffffffffffffffff\n              and\n                /* \"Campaign.sol\":4155:4162  toLower */\n              tag_106\n                /* \"Campaign.sol\":4155:4177  toLower(highestBidder) */\n              jump\t// in\n            tag_198:\n                /* \"Campaign.sol\":4064:4080  compareAddresses */\n              tag_82\n                /* \"Campaign.sol\":4064:4200  compareAddresses(... */\n              jump\t// in\n            tag_193:\n                /* \"Campaign.sol\":4037:4334  if (... */\n              tag_199\n              jumpi\n                /* \"Campaign.sol\":4272:4281  addresses */\n              0x08\n                /* \"Campaign.sol\":4282:4283  i */\n              dup2\n                /* \"Campaign.sol\":4272:4284  addresses[i] */\n              dup2\n              sload\n              dup2\n              lt\n              tag_200\n              jumpi\n              tag_201\n              tag_191\n              jump\t// in\n            tag_201:\n            tag_200:\n              swap1\n              0x00\n              mstore\n              keccak256(0x00, 0x20)\n              add\n              0x00\n              swap1\n              sload\n              swap1\n              0x0100\n              exp\n              swap1\n              div\n              0xffffffffffffffffffffffffffffffffffffffff\n              and\n                /* \"Campaign.sol\":4243:4262  nonWinningAddresses */\n              dup3\n                /* \"Campaign.sol\":4263:4268  index */\n              dup5\n                /* \"Campaign.sol\":4243:4269  nonWinningAddresses[index] */\n              dup2\n              mload\n              dup2\n              lt\n              tag_203\n              jumpi\n              tag_204\n              tag_191\n              jump\t// in\n            tag_204:\n            tag_203:\n              0x20\n              mul\n              0x20\n              add\n              add\n                /* \"Campaign.sol\":4243:4284  nonWinningAddresses[index] = addresses[i] */\n              swap1\n              0xffffffffffffffffffffffffffffffffffffffff\n              and\n              swap1\n              dup2\n              0xffffffffffffffffffffffffffffffffffffffff\n              and\n              dup2\n              mstore\n              pop\n              pop\n                /* \"Campaign.sol\":4307:4314  index++ */\n              dup3\n              dup1\n              tag_205\n              swap1\n              tag_206\n              jump\t// in\n            tag_205:\n              swap4\n              pop\n              pop\n                /* \"Campaign.sol\":4037:4334  if (... */\n            tag_199:\n                /* \"Campaign.sol\":3899:3902  i++ */\n              dup1\n              dup1\n              0x01\n              add\n              swap2\n              pop\n              pop\n                /* \"Campaign.sol\":3860:4549  for (uint i = 0; i < addresses.length; i++) {... */\n              jump(tag_185)\n            tag_186:\n              pop\n                /* \"Campaign.sol\":4584:4603  nonWinningAddresses */\n              dup1\n                /* \"Campaign.sol\":4570:4604  LogMyVariable(nonWinningAddresses) */\n              mload(0x40)\n              tag_207\n              swap2\n              swap1\n              tag_208\n              jump\t// in\n            tag_207:\n              mload(0x40)\n              dup1\n              swap2\n              sub\n              swap1\n              keccak256\n              0x8f58f64f8e5f3dff0793565c7810439028723c99baee435e979ede9712271433\n              mload(0x40)\n              mload(0x40)\n              dup1\n              swap2\n              sub\n              swap1\n              log2\n                /* \"Campaign.sol\":4638:4647  addresses */\n              0x08\n                /* \"Campaign.sol\":4624:4648  LogMyVariable(addresses) */\n              mload(0x40)\n              tag_209\n              swap2\n              swap1\n              tag_210\n              jump\t// in\n            tag_209:\n              mload(0x40)\n              dup1\n              swap2\n              sub\n              swap1\n              keccak256\n              0x8f58f64f8e5f3dff0793565c7810439028723c99baee435e979ede9712271433\n              mload(0x40)\n              mload(0x40)\n              dup1\n              swap2\n              sub\n              swap1\n              log2\n                /* \"Campaign.sol\":4668:4677  uint256 i */\n              0x00\n                /* \"Campaign.sol\":4680:4681  0 */\n              0x00\n                /* \"Campaign.sol\":4668:4681  uint256 i = 0 */\n              swap1\n              pop\n                /* \"Campaign.sol\":4663:4799  for (uint256 i = 0; i < nonWinningAddresses.length; i++) {... */\n            tag_211:\n                /* \"Campaign.sol\":4687:4706  nonWinningAddresses */\n              dup2\n                /* \"Campaign.sol\":4687:4713  nonWinningAddresses.length */\n              mload\n                /* \"Campaign.sol\":4683:4684  i */\n              dup2\n                /* \"Campaign.sol\":4683:4713  i < nonWinningAddresses.length */\n              lt\n                /* \"Campaign.sol\":4663:4799  for (uint256 i = 0; i < nonWinningAddresses.length; i++) {... */\n              iszero\n              tag_212\n              jumpi\n                /* \"Campaign.sol\":4739:4783  withdrawBid(payable(nonWinningAddresses[i])) */\n              tag_214\n                /* \"Campaign.sol\":4759:4778  nonWinningAddresses */\n              dup3\n                /* \"Campaign.sol\":4779:4780  i */\n              dup3\n                /* \"Campaign.sol\":4759:4781  nonWinningAddresses[i] */\n              dup2\n              mload\n              dup2\n              lt\n              tag_215\n              jumpi\n              tag_216\n              tag_191\n              jump\t// in\n            tag_216:\n            tag_215:\n              0x20\n              mul\n              0x20\n              add\n              add\n              mload\n                /* \"Campaign.sol\":4739:4750  withdrawBid */\n              tag_64\n                /* \"Campaign.sol\":4739:4783  withdrawBid(payable(nonWinningAddresses[i])) */\n              jump\t// in\n            tag_214:\n                /* \"Campaign.sol\":4715:4718  i++ */\n              dup1\n              dup1\n              0x01\n              add\n              swap2\n              pop\n              pop\n                /* \"Campaign.sol\":4663:4799  for (uint256 i = 0; i < nonWinningAddresses.length; i++) {... */\n              jump(tag_211)\n            tag_212:\n              pop\n                /* \"Campaign.sol\":3645:4810  {... */\n              pop\n              pop\n                /* \"Campaign.sol\":3614:4810  if (endTime < block.timestamp) {... */\n            tag_178:\n                /* \"Campaign.sol\":3515:4817  function EndedAuctions() public payable {... */\n              jump\t// out\n                /* \"Campaign.sol\":2295:2323  address public highestBidder */\n            tag_97:\n              0x09\n              0x00\n              swap1\n              sload\n              swap1\n              0x0100\n              exp\n              swap1\n              div\n              0xffffffffffffffffffffffffffffffffffffffff\n              and\n              dup2\n              jump\t// out\n                /* \"Campaign.sol\":2012:2046  uint256 public minimumContribution */\n            tag_101:\n              sload(0x02)\n              dup2\n              jump\t// out\n                /* \"Campaign.sol\":3100:3507  function toLower(address _address) public pure returns (address) {... */\n            tag_106:\n                /* \"Campaign.sol\":3156:3163  address */\n              0x00\n                /* \"Campaign.sol\":3176:3194  uint160 intAddress */\n              0x00\n                /* \"Campaign.sol\":3205:3213  _address */\n              dup3\n                /* \"Campaign.sol\":3176:3214  uint160 intAddress = uint160(_address) */\n              swap1\n              pop\n                /* \"Campaign.sol\":3230:3236  uint i */\n              0x00\n                /* \"Campaign.sol\":3239:3240  0 */\n              0x00\n                /* \"Campaign.sol\":3230:3240  uint i = 0 */\n              swap1\n              pop\n                /* \"Campaign.sol\":3225:3463  for (uint i = 0; i < 20; i++) {... */\n            tag_218:\n                /* \"Campaign.sol\":3246:3248  20 */\n              0x14\n                /* \"Campaign.sol\":3242:3243  i */\n              dup2\n                /* \"Campaign.sol\":3242:3248  i < 20 */\n              lt\n                /* \"Campaign.sol\":3225:3463  for (uint i = 0; i < 20; i++) {... */\n              iszero\n              tag_219\n              jumpi\n                /* \"Campaign.sol\":3270:3277  uint8 b */\n              0x00\n                /* \"Campaign.sol\":3294:3302  _address */\n              dup5\n                /* \"Campaign.sol\":3286:3303  bytes20(_address) */\n              0x60\n              shl\n                /* \"Campaign.sol\":3304:3305  i */\n              dup3\n                /* \"Campaign.sol\":3286:3306  bytes20(_address)[i] */\n              0x14\n              dup2\n              lt\n              tag_221\n              jumpi\n              tag_222\n              tag_191\n              jump\t// in\n            tag_222:\n            tag_221:\n              byte\n              0xf8\n              shl\n                /* \"Campaign.sol\":3280:3307  uint8(bytes20(_address)[i]) */\n              0xf8\n              shr\n                /* \"Campaign.sol\":3270:3307  uint8 b = uint8(bytes20(_address)[i]) */\n              swap1\n              pop\n                /* \"Campaign.sol\":3331:3333  65 */\n              0x41\n                /* \"Campaign.sol\":3326:3327  b */\n              dup2\n                /* \"Campaign.sol\":3326:3333  b >= 65 */\n              0xff\n              and\n              lt\n              iszero\n                /* \"Campaign.sol\":3326:3344  b >= 65 && b <= 90 */\n              dup1\n              iszero\n              tag_223\n              jumpi\n              pop\n                /* \"Campaign.sol\":3342:3344  90 */\n              0x5a\n                /* \"Campaign.sol\":3337:3338  b */\n              dup2\n                /* \"Campaign.sol\":3337:3344  b <= 90 */\n              0xff\n              and\n              gt\n              iszero\n                /* \"Campaign.sol\":3326:3344  b >= 65 && b <= 90 */\n            tag_223:\n                /* \"Campaign.sol\":3322:3388  if (b >= 65 && b <= 90) {... */\n              iszero\n              tag_224\n              jumpi\n                /* \"Campaign.sol\":3370:3372  32 */\n              0x20\n                /* \"Campaign.sol\":3365:3372  b += 32 */\n              dup2\n              tag_225\n              swap2\n              swap1\n              tag_226\n              jump\t// in\n            tag_225:\n              swap1\n              pop\n                /* \"Campaign.sol\":3322:3388  if (b >= 65 && b <= 90) {... */\n            tag_224:\n                /* \"Campaign.sol\":3448:3449  i */\n              dup2\n                /* \"Campaign.sol\":3443:3445  19 */\n              0x13\n                /* \"Campaign.sol\":3443:3449  19 - i */\n              tag_227\n              swap2\n              swap1\n              tag_180\n              jump\t// in\n            tag_227:\n                /* \"Campaign.sol\":3438:3439  8 */\n              0x08\n                /* \"Campaign.sol\":3438:3450  8 * (19 - i) */\n              tag_228\n              swap2\n              swap1\n              tag_229\n              jump\t// in\n            tag_228:\n                /* \"Campaign.sol\":3416:3451  uint160(b) << uint160(8 * (19 - i)) */\n              0xffffffffffffffffffffffffffffffffffffffff\n              and\n                /* \"Campaign.sol\":3424:3425  b */\n              dup2\n                /* \"Campaign.sol\":3416:3426  uint160(b) */\n              0xff\n              and\n                /* \"Campaign.sol\":3416:3451  uint160(b) << uint160(8 * (19 - i)) */\n              0xffffffffffffffffffffffffffffffffffffffff\n              and\n              swap1\n              shl\n                /* \"Campaign.sol\":3402:3451  intAddress |= uint160(b) << uint160(8 * (19 - i)) */\n              dup4\n              or\n              swap3\n              pop\n                /* \"Campaign.sol\":3255:3463  {... */\n              pop\n                /* \"Campaign.sol\":3250:3253  i++ */\n              dup1\n              dup1\n              0x01\n              add\n              swap2\n              pop\n              pop\n                /* \"Campaign.sol\":3225:3463  for (uint i = 0; i < 20; i++) {... */\n              jump(tag_218)\n            tag_219:\n              pop\n                /* \"Campaign.sol\":3488:3498  intAddress */\n              dup1\n                /* \"Campaign.sol\":3473:3499  return address(intAddress) */\n              swap2\n              pop\n              pop\n                /* \"Campaign.sol\":3100:3507  function toLower(address _address) public pure returns (address) {... */\n              swap2\n              swap1\n              pop\n              jump\t// out\n                /* \"Campaign.sol\":1951:1976  Bid[] public transactions */\n            tag_112:\n              0x00\n              dup2\n              dup2\n              sload\n              dup2\n              lt\n              tag_230\n              jumpi\n              0x00\n              dup1\n              revert\n            tag_230:\n              swap1\n              0x00\n              mstore\n              keccak256(0x00, 0x20)\n              swap1\n              0x03\n              mul\n              add\n              0x00\n              swap2\n              pop\n              swap1\n              pop\n              dup1\n              0x00\n              add\n              sload\n              swap1\n              dup1\n              0x01\n              add\n              sload\n              swap1\n              dup1\n              0x02\n              add\n              0x00\n              swap1\n              sload\n              swap1\n              0x0100\n              exp\n              swap1\n              div\n              0xffffffffffffffffffffffffffffffffffffffff\n              and\n              swap1\n              pop\n              dup4\n              jump\t// out\n                /* \"Campaign.sol\":6322:6542  function paySeller() public {... */\n            tag_117:\n                /* \"Campaign.sol\":6366:6372  closed */\n              0x0c\n              0x00\n              swap1\n              sload\n              swap1\n              0x0100\n              exp\n              swap1\n              div\n              0xff\n              and\n                /* \"Campaign.sol\":6365:6372  !closed */\n              iszero\n                /* \"Campaign.sol\":6357:6399  require(!closed, \"Auction already closed\") */\n              tag_233\n              jumpi\n              mload(0x40)\n              0x08c379a000000000000000000000000000000000000000000000000000000000\n              dup2\n              mstore\n              0x04\n              add\n              tag_234\n              swap1\n              tag_235\n              jump\t// in\n            tag_234:\n              mload(0x40)\n              dup1\n              swap2\n              sub\n              swap1\n              revert\n            tag_233:\n                /* \"Campaign.sol\":6439:6449  highestBid */\n              sload(0x0a)\n                /* \"Campaign.sol\":6414:6435  address(this).balance */\n              selfbalance\n                /* \"Campaign.sol\":6414:6449  address(this).balance >= highestBid */\n              lt\n              iszero\n                /* \"Campaign.sol\":6406:6474  require(address(this).balance >= highestBid, \"Insufficient balance\") */\n              tag_236\n              jumpi\n              mload(0x40)\n              0x08c379a000000000000000000000000000000000000000000000000000000000\n              dup2\n              mstore\n              0x04\n              add\n              tag_237\n              swap1\n              tag_238\n              jump\t// in\n            tag_237:\n              mload(0x40)\n              dup1\n              swap2\n              sub\n              swap1\n              revert\n            tag_236:\n                /* \"Campaign.sol\":6489:6496  manager */\n              0x01\n              0x00\n              swap1\n              sload\n              swap1\n              0x0100\n              exp\n              swap1\n              div\n              0xffffffffffffffffffffffffffffffffffffffff\n              and\n                /* \"Campaign.sol\":6481:6506  payable(manager).transfer */\n              0xffffffffffffffffffffffffffffffffffffffff\n              and\n                /* \"Campaign.sol\":6481:6518  payable(manager).transfer(highestBid) */\n              0x08fc\n                /* \"Campaign.sol\":6507:6517  highestBid */\n              sload(0x0a)\n                /* \"Campaign.sol\":6481:6518  payable(manager).transfer(highestBid) */\n              swap1\n              dup2\n              iszero\n              mul\n              swap1\n              mload(0x40)\n              0x00\n              mload(0x40)\n              dup1\n              dup4\n              sub\n              dup2\n              dup6\n              dup9\n              dup9\n              call\n              swap4\n              pop\n              pop\n              pop\n              pop\n              iszero\n              dup1\n              iszero\n              tag_240\n              jumpi\n              returndatacopy(0x00, 0x00, returndatasize)\n              revert(0x00, returndatasize)\n            tag_240:\n              pop\n                /* \"Campaign.sol\":6534:6538  true */\n              0x01\n                /* \"Campaign.sol\":6525:6531  closed */\n              0x0c\n              0x00\n                /* \"Campaign.sol\":6525:6538  closed = true */\n              0x0100\n              exp\n              dup2\n              sload\n              dup2\n              0xff\n              mul\n              not\n              and\n              swap1\n              dup4\n              iszero\n              iszero\n              mul\n              or\n              swap1\n              sstore\n              pop\n                /* \"Campaign.sol\":6322:6542  function paySeller() public {... */\n              jump\t// out\n                /* \"Campaign.sol\":5248:5346  function getAddresses() public view returns (address[] memory) {... */\n            tag_120:\n                /* \"Campaign.sol\":5293:5309  address[] memory */\n              0x60\n                /* \"Campaign.sol\":5329:5338  addresses */\n              0x08\n                /* \"Campaign.sol\":5322:5338  return addresses */\n              dup1\n              sload\n              dup1\n              0x20\n              mul\n              0x20\n              add\n              mload(0x40)\n              swap1\n              dup2\n              add\n              0x40\n              mstore\n              dup1\n              swap3\n              swap2\n              swap1\n              dup2\n              dup2\n              mstore\n              0x20\n              add\n              dup3\n              dup1\n              sload\n              dup1\n              iszero\n              tag_242\n              jumpi\n              0x20\n              mul\n              dup3\n              add\n              swap2\n              swap1\n              0x00\n              mstore\n              keccak256(0x00, 0x20)\n              swap1\n            tag_243:\n              dup2\n              0x00\n              swap1\n              sload\n              swap1\n              0x0100\n              exp\n              swap1\n              div\n              0xffffffffffffffffffffffffffffffffffffffff\n              and\n              0xffffffffffffffffffffffffffffffffffffffff\n              and\n              dup2\n              mstore\n              0x20\n              add\n              swap1\n              0x01\n              add\n              swap1\n              dup1\n              dup4\n              gt\n              tag_243\n              jumpi\n            tag_242:\n              pop\n              pop\n              pop\n              pop\n              pop\n              swap1\n              pop\n                /* \"Campaign.sol\":5248:5346  function getAddresses() public view returns (address[] memory) {... */\n              swap1\n              jump\t// out\n                /* \"Campaign.sol\":4933:5154  function getBid(address add) public view returns (uint256) {... */\n            tag_126:\n                /* \"Campaign.sol\":4983:4990  uint256 */\n              0x00\n                /* \"Campaign.sol\":5003:5017  uint256 monney */\n              0x00\n                /* \"Campaign.sol\":5020:5021  0 */\n              0x00\n                /* \"Campaign.sol\":5003:5021  uint256 monney = 0 */\n              swap1\n              pop\n                /* \"Campaign.sol\":5062:5063  0 */\n              0x00\n                /* \"Campaign.sol\":5038:5053  approversMonney */\n              0x06\n                /* \"Campaign.sol\":5038:5058  approversMonney[add] */\n              0x00\n                /* \"Campaign.sol\":5054:5057  add */\n              dup6\n                /* \"Campaign.sol\":5038:5058  approversMonney[add] */\n              0xffffffffffffffffffffffffffffffffffffffff\n              and\n              0xffffffffffffffffffffffffffffffffffffffff\n              and\n              dup2\n              mstore\n              0x20\n              add\n              swap1\n              dup2\n              mstore\n              0x20\n              add\n              0x00\n              keccak256\n              sload\n                /* \"Campaign.sol\":5038:5063  approversMonney[add] != 0 */\n              eq\n                /* \"Campaign.sol\":5034:5121  if (approversMonney[add] != 0) {... */\n              tag_245\n              jumpi\n                /* \"Campaign.sol\":5089:5104  approversMonney */\n              0x06\n                /* \"Campaign.sol\":5089:5109  approversMonney[add] */\n              0x00\n                /* \"Campaign.sol\":5105:5108  add */\n              dup5\n                /* \"Campaign.sol\":5089:5109  approversMonney[add] */\n              0xffffffffffffffffffffffffffffffffffffffff\n              and\n              0xffffffffffffffffffffffffffffffffffffffff\n              and\n              dup2\n              mstore\n              0x20\n              add\n              swap1\n              dup2\n              mstore\n              0x20\n              add\n              0x00\n              keccak256\n              sload\n                /* \"Campaign.sol\":5080:5109  monney = approversMonney[add] */\n              swap1\n              pop\n                /* \"Campaign.sol\":5034:5121  if (approversMonney[add] != 0) {... */\n            tag_245:\n                /* \"Campaign.sol\":5140:5146  monney */\n              dup1\n                /* \"Campaign.sol\":5133:5146  return monney */\n              swap2\n              pop\n              pop\n                /* \"Campaign.sol\":4933:5154  function getBid(address add) public view returns (uint256) {... */\n              swap2\n              swap1\n              pop\n              jump\t// out\n                /* \"Campaign.sol\":2330:2355  uint256 public highestBid */\n            tag_130:\n              sload(0x0a)\n              dup2\n              jump\t// out\n                /* \"Campaign.sol\":5354:6318  function contribute() public payable {... */\n            tag_133:\n                /* \"Campaign.sol\":5424:5431  manager */\n              0x01\n              0x00\n              swap1\n              sload\n              swap1\n              0x0100\n              exp\n              swap1\n              div\n              0xffffffffffffffffffffffffffffffffffffffff\n              and\n                /* \"Campaign.sol\":5410:5431  msg.sender != manager */\n              0xffffffffffffffffffffffffffffffffffffffff\n              and\n                /* \"Campaign.sol\":5410:5420  msg.sender */\n              caller\n                /* \"Campaign.sol\":5410:5431  msg.sender != manager */\n              0xffffffffffffffffffffffffffffffffffffffff\n              and\n              sub\n                /* \"Campaign.sol\":5402:5463  require(msg.sender != manager, \"you can't buy your own data\") */\n              tag_247\n              jumpi\n              mload(0x40)\n              0x08c379a000000000000000000000000000000000000000000000000000000000\n              dup2\n              mstore\n              0x04\n              add\n              tag_248\n              swap1\n              tag_249\n              jump\t// in\n            tag_248:\n              mload(0x40)\n              dup1\n              swap2\n              sub\n              swap1\n              revert\n            tag_247:\n                /* \"Campaign.sol\":5506:5521  block.timestamp */\n              timestamp\n                /* \"Campaign.sol\":5496:5503  endTime */\n              sload(0x0b)\n                /* \"Campaign.sol\":5496:5521  endTime > block.timestamp */\n              gt\n                /* \"Campaign.sol\":5474:5589  require(... */\n              tag_250\n              jumpi\n              mload(0x40)\n              0x08c379a000000000000000000000000000000000000000000000000000000000\n              dup2\n              mstore\n              0x04\n              add\n              tag_251\n              swap1\n              tag_252\n              jump\t// in\n            tag_251:\n              mload(0x40)\n              dup1\n              swap2\n              sub\n              swap1\n              revert\n            tag_250:\n                /* \"Campaign.sol\":5602:5620  uint256 currentBid */\n              0x00\n                /* \"Campaign.sol\":5623:5638  approversMonney */\n              0x06\n                /* \"Campaign.sol\":5623:5650  approversMonney[msg.sender] */\n              0x00\n                /* \"Campaign.sol\":5639:5649  msg.sender */\n              caller\n                /* \"Campaign.sol\":5623:5650  approversMonney[msg.sender] */\n              0xffffffffffffffffffffffffffffffffffffffff\n              and\n              0xffffffffffffffffffffffffffffffffffffffff\n              and\n              dup2\n              mstore\n              0x20\n              add\n              swap1\n              dup2\n              mstore\n              0x20\n              add\n              0x00\n              keccak256\n              sload\n                /* \"Campaign.sol\":5602:5650  uint256 currentBid = approversMonney[msg.sender] */\n              swap1\n              pop\n                /* \"Campaign.sol\":5661:5680  uint256 newTotalBid */\n              0x00\n                /* \"Campaign.sol\":5696:5705  msg.value */\n              callvalue\n                /* \"Campaign.sol\":5683:5693  currentBid */\n              dup3\n                /* \"Campaign.sol\":5683:5705  currentBid + msg.value */\n              tag_253\n              swap2\n              swap1\n              tag_254\n              jump\t// in\n            tag_253:\n                /* \"Campaign.sol\":5661:5705  uint256 newTotalBid = currentBid + msg.value */\n              swap1\n              pop\n                /* \"Campaign.sol\":5741:5760  minimumContribution */\n              sload(0x02)\n                /* \"Campaign.sol\":5726:5737  newTotalBid */\n              dup2\n                /* \"Campaign.sol\":5726:5760  newTotalBid >= minimumContribution */\n              lt\n              iszero\n                /* \"Campaign.sol\":5718:5782  require(newTotalBid >= minimumContribution, \"Bid below minimum\") */\n              tag_255\n              jumpi\n              mload(0x40)\n              0x08c379a000000000000000000000000000000000000000000000000000000000\n              dup2\n              mstore\n              0x04\n              add\n              tag_256\n              swap1\n              tag_257\n              jump\t// in\n            tag_256:\n              mload(0x40)\n              dup1\n              swap2\n              sub\n              swap1\n              revert\n            tag_255:\n                /* \"Campaign.sol\":5829:5839  highestBid */\n              sload(0x0a)\n                /* \"Campaign.sol\":5815:5826  newTotalBid */\n              dup2\n                /* \"Campaign.sol\":5815:5839  newTotalBid > highestBid */\n              gt\n                /* \"Campaign.sol\":5793:5905  require(... */\n              tag_258\n              jumpi\n              mload(0x40)\n              0x08c379a000000000000000000000000000000000000000000000000000000000\n              dup2\n              mstore\n              0x04\n              add\n              tag_259\n              swap1\n              tag_260\n              jump\t// in\n            tag_259:\n              mload(0x40)\n              dup1\n              swap2\n              sub\n              swap1\n              revert\n            tag_258:\n                /* \"Campaign.sol\":5971:5981  msg.sender */\n              caller\n                /* \"Campaign.sol\":5955:5968  highestBidder */\n              0x09\n              0x00\n                /* \"Campaign.sol\":5955:5981  highestBidder = msg.sender */\n              0x0100\n              exp\n              dup2\n              sload\n              dup2\n              0xffffffffffffffffffffffffffffffffffffffff\n              mul\n              not\n              and\n              swap1\n              dup4\n              0xffffffffffffffffffffffffffffffffffffffff\n              and\n              mul\n              or\n              swap1\n              sstore\n              pop\n                /* \"Campaign.sol\":6005:6016  newTotalBid */\n              dup1\n                /* \"Campaign.sol\":5992:6002  highestBid */\n              0x0a\n                /* \"Campaign.sol\":5992:6016  highestBid = newTotalBid */\n              dup2\n              swap1\n              sstore\n              pop\n                /* \"Campaign.sol\":6057:6068  newTotalBid */\n              dup1\n                /* \"Campaign.sol\":6027:6042  approversMonney */\n              0x06\n                /* \"Campaign.sol\":6027:6054  approversMonney[msg.sender] */\n              0x00\n                /* \"Campaign.sol\":6043:6053  msg.sender */\n              caller\n                /* \"Campaign.sol\":6027:6054  approversMonney[msg.sender] */\n              0xffffffffffffffffffffffffffffffffffffffff\n              and\n              0xffffffffffffffffffffffffffffffffffffffff\n              and\n              dup2\n              mstore\n              0x20\n              add\n              swap1\n              dup2\n              mstore\n              0x20\n              add\n              0x00\n              keccak256\n                /* \"Campaign.sol\":6027:6068  approversMonney[msg.sender] = newTotalBid */\n              dup2\n              swap1\n              sstore\n              pop\n                /* \"Campaign.sol\":6081:6093  transactions */\n              0x00\n                /* \"Campaign.sol\":6099:6142  Bid(msg.value, block.timestamp, msg.sender) */\n              mload(0x40)\n              dup1\n              0x60\n              add\n              0x40\n              mstore\n              dup1\n                /* \"Campaign.sol\":6103:6112  msg.value */\n              callvalue\n                /* \"Campaign.sol\":6099:6142  Bid(msg.value, block.timestamp, msg.sender) */\n              dup2\n              mstore\n              0x20\n              add\n                /* \"Campaign.sol\":6114:6129  block.timestamp */\n              timestamp\n                /* \"Campaign.sol\":6099:6142  Bid(msg.value, block.timestamp, msg.sender) */\n              dup2\n              mstore\n              0x20\n              add\n                /* \"Campaign.sol\":6131:6141  msg.sender */\n              caller\n                /* \"Campaign.sol\":6099:6142  Bid(msg.value, block.timestamp, msg.sender) */\n              0xffffffffffffffffffffffffffffffffffffffff\n              and\n              dup2\n              mstore\n              pop\n                /* \"Campaign.sol\":6081:6143  transactions.push(Bid(msg.value, block.timestamp, msg.sender)) */\n              swap1\n              dup1\n              0x01\n              dup2\n              sload\n              add\n              dup1\n              dup3\n              sstore\n              dup1\n              swap2\n              pop\n              pop\n              0x01\n              swap1\n              sub\n              swap1\n              0x00\n              mstore\n              keccak256(0x00, 0x20)\n              swap1\n              0x03\n              mul\n              add\n              0x00\n              swap1\n              swap2\n              swap1\n              swap2\n              swap1\n              swap2\n              pop\n              0x00\n              dup3\n              add\n              mload\n              dup2\n              0x00\n              add\n              sstore\n              0x20\n              dup3\n              add\n              mload\n              dup2\n              0x01\n              add\n              sstore\n              0x40\n              dup3\n              add\n              mload\n              dup2\n              0x02\n              add\n              exp(0x0100, 0x00)\n              dup2\n              sload\n              dup2\n              0xffffffffffffffffffffffffffffffffffffffff\n              mul\n              not\n              and\n              swap1\n              dup4\n              0xffffffffffffffffffffffffffffffffffffffff\n              and\n              mul\n              or\n              swap1\n              sstore\n              pop\n              pop\n              pop\n                /* \"Campaign.sol\":6161:6170  approvers */\n              0x05\n                /* \"Campaign.sol\":6161:6182  approvers[msg.sender] */\n              0x00\n                /* \"Campaign.sol\":6171:6181  msg.sender */\n              caller\n                /* \"Campaign.sol\":6161:6182  approvers[msg.sender] */\n              0xffffffffffffffffffffffffffffffffffffffff\n              and\n              0xffffffffffffffffffffffffffffffffffffffff\n              and\n              dup2\n              mstore\n              0x20\n              add\n              swap1\n              dup2\n              mstore\n              0x20\n              add\n              0x00\n              keccak256\n              0x00\n              swap1\n              sload\n              swap1\n              0x0100\n              exp\n              swap1\n              div\n              0xff\n              and\n                /* \"Campaign.sol\":6156:6311  if (!approvers[msg.sender]) {... */\n              tag_262\n              jumpi\n                /* \"Campaign.sol\":6223:6227  true */\n              0x01\n                /* \"Campaign.sol\":6199:6208  approvers */\n              0x05\n                /* \"Campaign.sol\":6199:6220  approvers[msg.sender] */\n              0x00\n                /* \"Campaign.sol\":6209:6219  msg.sender */\n              caller\n                /* \"Campaign.sol\":6199:6220  approvers[msg.sender] */\n              0xffffffffffffffffffffffffffffffffffffffff\n              and\n              0xffffffffffffffffffffffffffffffffffffffff\n              and\n              dup2\n              mstore\n              0x20\n              add\n              swap1\n              dup2\n              mstore\n              0x20\n              add\n              0x00\n              keccak256\n              0x00\n                /* \"Campaign.sol\":6199:6227  approvers[msg.sender] = true */\n              0x0100\n              exp\n              dup2\n              sload\n              dup2\n              0xff\n              mul\n              not\n              and\n              swap1\n              dup4\n              iszero\n              iszero\n              mul\n              or\n              swap1\n              sstore\n              pop\n                /* \"Campaign.sol\":6242:6256  approversCount */\n              0x07\n              0x00\n                /* \"Campaign.sol\":6242:6258  approversCount++ */\n              dup2\n              sload\n              dup1\n              swap3\n              swap2\n              swap1\n              tag_263\n              swap1\n              tag_206\n              jump\t// in\n            tag_263:\n              swap2\n              swap1\n              pop\n              sstore\n              pop\n                /* \"Campaign.sol\":6273:6282  addresses */\n              0x08\n                /* \"Campaign.sol\":6288:6298  msg.sender */\n              caller\n                /* \"Campaign.sol\":6273:6299  addresses.push(msg.sender) */\n              swap1\n              dup1\n              0x01\n              dup2\n              sload\n              add\n              dup1\n              dup3\n              sstore\n              dup1\n              swap2\n              pop\n              pop\n              0x01\n              swap1\n              sub\n              swap1\n              0x00\n              mstore\n              keccak256(0x00, 0x20)\n              add\n              0x00\n              swap1\n              swap2\n              swap1\n              swap2\n              swap1\n              swap2\n              0x0100\n              exp\n              dup2\n              sload\n              dup2\n              0xffffffffffffffffffffffffffffffffffffffff\n              mul\n              not\n              and\n              swap1\n              dup4\n              0xffffffffffffffffffffffffffffffffffffffff\n              and\n              mul\n              or\n              swap1\n              sstore\n              pop\n                /* \"Campaign.sol\":6156:6311  if (!approvers[msg.sender]) {... */\n            tag_262:\n                /* \"Campaign.sol\":5391:6318  {... */\n              pop\n              pop\n                /* \"Campaign.sol\":5354:6318  function contribute() public payable {... */\n              jump\t// out\n                /* \"Campaign.sol\":2262:2288  address[] public addresses */\n            tag_137:\n              0x08\n              dup2\n              dup2\n              sload\n              dup2\n              lt\n              tag_265\n              jumpi\n              0x00\n              dup1\n              revert\n            tag_265:\n              swap1\n              0x00\n              mstore\n              keccak256(0x00, 0x20)\n              add\n              0x00\n              swap2\n              pop\n              sload\n              swap1\n              0x0100\n              exp\n              swap1\n              div\n              0xffffffffffffffffffffffffffffffffffffffff\n              and\n              dup2\n              jump\t// out\n                /* \"#utility.yul\":88:205   */\n            tag_268:\n                /* \"#utility.yul\":197:198   */\n              0x00\n                /* \"#utility.yul\":194:195   */\n              0x00\n                /* \"#utility.yul\":187:199   */\n              revert\n                /* \"#utility.yul\":334:460   */\n            tag_270:\n                /* \"#utility.yul\":371:378   */\n              0x00\n                /* \"#utility.yul\":411:453   */\n              0xffffffffffffffffffffffffffffffffffffffff\n                /* \"#utility.yul\":404:409   */\n              dup3\n                /* \"#utility.yul\":400:454   */\n              and\n                /* \"#utility.yul\":389:454   */\n              swap1\n              pop\n                /* \"#utility.yul\":334:460   */\n              swap2\n              swap1\n              pop\n              jump\t// out\n                /* \"#utility.yul\":466:562   */\n            tag_271:\n                /* \"#utility.yul\":503:510   */\n              0x00\n                /* \"#utility.yul\":532:556   */\n              tag_339\n                /* \"#utility.yul\":550:555   */\n              dup3\n                /* \"#utility.yul\":532:556   */\n              tag_270\n              jump\t// in\n            tag_339:\n                /* \"#utility.yul\":521:556   */\n              swap1\n              pop\n                /* \"#utility.yul\":466:562   */\n              swap2\n              swap1\n              pop\n              jump\t// out\n                /* \"#utility.yul\":568:690   */\n            tag_272:\n                /* \"#utility.yul\":641:665   */\n              tag_341\n                /* \"#utility.yul\":659:664   */\n              dup2\n                /* \"#utility.yul\":641:665   */\n              tag_271\n              jump\t// in\n            tag_341:\n                /* \"#utility.yul\":634:639   */\n              dup2\n                /* \"#utility.yul\":631:666   */\n              eq\n                /* \"#utility.yul\":621:684   */\n              tag_342\n              jumpi\n                /* \"#utility.yul\":680:681   */\n              0x00\n                /* \"#utility.yul\":677:678   */\n              0x00\n                /* \"#utility.yul\":670:682   */\n              revert\n                /* \"#utility.yul\":621:684   */\n            tag_342:\n                /* \"#utility.yul\":568:690   */\n              pop\n              jump\t// out\n                /* \"#utility.yul\":696:835   */\n            tag_273:\n                /* \"#utility.yul\":742:747   */\n              0x00\n                /* \"#utility.yul\":780:786   */\n              dup2\n                /* \"#utility.yul\":767:787   */\n              calldataload\n                /* \"#utility.yul\":758:787   */\n              swap1\n              pop\n                /* \"#utility.yul\":796:829   */\n              tag_344\n                /* \"#utility.yul\":823:828   */\n              dup2\n                /* \"#utility.yul\":796:829   */\n              tag_272\n              jump\t// in\n            tag_344:\n                /* \"#utility.yul\":696:835   */\n              swap3\n              swap2\n              pop\n              pop\n              jump\t// out\n                /* \"#utility.yul\":841:1170   */\n            tag_32:\n                /* \"#utility.yul\":900:906   */\n              0x00\n                /* \"#utility.yul\":949:951   */\n              0x20\n                /* \"#utility.yul\":937:946   */\n              dup3\n                /* \"#utility.yul\":928:935   */\n              dup5\n                /* \"#utility.yul\":924:947   */\n              sub\n                /* \"#utility.yul\":920:952   */\n              slt\n                /* \"#utility.yul\":917:1036   */\n              iszero\n              tag_346\n              jumpi\n                /* \"#utility.yul\":955:1034   */\n              tag_347\n              tag_268\n              jump\t// in\n            tag_347:\n                /* \"#utility.yul\":917:1036   */\n            tag_346:\n                /* \"#utility.yul\":1075:1076   */\n              0x00\n                /* \"#utility.yul\":1100:1153   */\n              tag_348\n                /* \"#utility.yul\":1145:1152   */\n              dup5\n                /* \"#utility.yul\":1136:1142   */\n              dup3\n                /* \"#utility.yul\":1125:1134   */\n              dup6\n                /* \"#utility.yul\":1121:1143   */\n              add\n                /* \"#utility.yul\":1100:1153   */\n              tag_273\n              jump\t// in\n            tag_348:\n                /* \"#utility.yul\":1090:1153   */\n              swap2\n              pop\n                /* \"#utility.yul\":1046:1163   */\n              pop\n                /* \"#utility.yul\":841:1170   */\n              swap3\n              swap2\n              pop\n              pop\n              jump\t// out\n                /* \"#utility.yul\":1176:1266   */\n            tag_274:\n                /* \"#utility.yul\":1210:1217   */\n              0x00\n                /* \"#utility.yul\":1253:1258   */\n              dup2\n                /* \"#utility.yul\":1246:1259   */\n              iszero\n                /* \"#utility.yul\":1239:1260   */\n              iszero\n                /* \"#utility.yul\":1228:1260   */\n              swap1\n              pop\n                /* \"#utility.yul\":1176:1266   */\n              swap2\n              swap1\n              pop\n              jump\t// out\n                /* \"#utility.yul\":1272:1381   */\n            tag_275:\n                /* \"#utility.yul\":1353:1374   */\n              tag_351\n                /* \"#utility.yul\":1368:1373   */\n              dup2\n                /* \"#utility.yul\":1353:1374   */\n              tag_274\n              jump\t// in\n            tag_351:\n                /* \"#utility.yul\":1348:1351   */\n              dup3\n                /* \"#utility.yul\":1341:1375   */\n              mstore\n                /* \"#utility.yul\":1272:1381   */\n              pop\n              pop\n              jump\t// out\n                /* \"#utility.yul\":1387:1597   */\n            tag_35:\n                /* \"#utility.yul\":1474:1478   */\n              0x00\n                /* \"#utility.yul\":1512:1514   */\n              0x20\n                /* \"#utility.yul\":1501:1510   */\n              dup3\n                /* \"#utility.yul\":1497:1515   */\n              add\n                /* \"#utility.yul\":1489:1515   */\n              swap1\n              pop\n                /* \"#utility.yul\":1525:1590   */\n              tag_353\n                /* \"#utility.yul\":1587:1588   */\n              0x00\n                /* \"#utility.yul\":1576:1585   */\n              dup4\n                /* \"#utility.yul\":1572:1589   */\n              add\n                /* \"#utility.yul\":1563:1569   */\n              dup5\n                /* \"#utility.yul\":1525:1590   */\n              tag_275\n              jump\t// in\n            tag_353:\n                /* \"#utility.yul\":1387:1597   */\n              swap3\n              swap2\n              pop\n              pop\n              jump\t// out\n                /* \"#utility.yul\":1603:1680   */\n            tag_276:\n                /* \"#utility.yul\":1640:1647   */\n              0x00\n                /* \"#utility.yul\":1669:1674   */\n              dup2\n                /* \"#utility.yul\":1658:1674   */\n              swap1\n              pop\n                /* \"#utility.yul\":1603:1680   */\n              swap2\n              swap1\n              pop\n              jump\t// out\n                /* \"#utility.yul\":1686:1804   */\n            tag_277:\n                /* \"#utility.yul\":1773:1797   */\n              tag_356\n                /* \"#utility.yul\":1791:1796   */\n              dup2\n                /* \"#utility.yul\":1773:1797   */\n              tag_276\n              jump\t// in\n            tag_356:\n                /* \"#utility.yul\":1768:1771   */\n              dup3\n                /* \"#utility.yul\":1761:1798   */\n              mstore\n                /* \"#utility.yul\":1686:1804   */\n              pop\n              pop\n              jump\t// out\n                /* \"#utility.yul\":1810:2032   */\n            tag_41:\n                /* \"#utility.yul\":1903:1907   */\n              0x00\n                /* \"#utility.yul\":1941:1943   */\n              0x20\n                /* \"#utility.yul\":1930:1939   */\n              dup3\n                /* \"#utility.yul\":1926:1944   */\n              add\n                /* \"#utility.yul\":1918:1944   */\n              swap1\n              pop\n                /* \"#utility.yul\":1954:2025   */\n              tag_358\n                /* \"#utility.yul\":2022:2023   */\n              0x00\n                /* \"#utility.yul\":2011:2020   */\n              dup4\n                /* \"#utility.yul\":2007:2024   */\n              add\n                /* \"#utility.yul\":1998:2004   */\n              dup5\n                /* \"#utility.yul\":1954:2025   */\n              tag_277\n              jump\t// in\n            tag_358:\n                /* \"#utility.yul\":1810:2032   */\n              swap3\n              swap2\n              pop\n              pop\n              jump\t// out\n                /* \"#utility.yul\":2038:2156   */\n            tag_278:\n                /* \"#utility.yul\":2125:2149   */\n              tag_360\n                /* \"#utility.yul\":2143:2148   */\n              dup2\n                /* \"#utility.yul\":2125:2149   */\n              tag_271\n              jump\t// in\n            tag_360:\n                /* \"#utility.yul\":2120:2123   */\n              dup3\n                /* \"#utility.yul\":2113:2150   */\n              mstore\n                /* \"#utility.yul\":2038:2156   */\n              pop\n              pop\n              jump\t// out\n                /* \"#utility.yul\":2162:2261   */\n            tag_279:\n                /* \"#utility.yul\":2214:2220   */\n              0x00\n                /* \"#utility.yul\":2248:2253   */\n              dup2\n                /* \"#utility.yul\":2242:2254   */\n              mload\n                /* \"#utility.yul\":2232:2254   */\n              swap1\n              pop\n                /* \"#utility.yul\":2162:2261   */\n              swap2\n              swap1\n              pop\n              jump\t// out\n                /* \"#utility.yul\":2267:2436   */\n            tag_280:\n                /* \"#utility.yul\":2351:2362   */\n              0x00\n                /* \"#utility.yul\":2385:2391   */\n              dup3\n                /* \"#utility.yul\":2380:2383   */\n              dup3\n                /* \"#utility.yul\":2373:2392   */\n              mstore\n                /* \"#utility.yul\":2425:2429   */\n              0x20\n                /* \"#utility.yul\":2420:2423   */\n              dup3\n                /* \"#utility.yul\":2416:2430   */\n              add\n                /* \"#utility.yul\":2401:2430   */\n              swap1\n              pop\n                /* \"#utility.yul\":2267:2436   */\n              swap3\n              swap2\n              pop\n              pop\n              jump\t// out\n                /* \"#utility.yul\":2442:2581   */\n            tag_281:\n                /* \"#utility.yul\":2531:2537   */\n              dup3\n                /* \"#utility.yul\":2526:2529   */\n              dup2\n                /* \"#utility.yul\":2521:2524   */\n              dup4\n                /* \"#utility.yul\":2515:2538   */\n              mcopy\n                /* \"#utility.yul\":2572:2573   */\n              0x00\n                /* \"#utility.yul\":2563:2569   */\n              dup4\n                /* \"#utility.yul\":2558:2561   */\n              dup4\n                /* \"#utility.yul\":2554:2570   */\n              add\n                /* \"#utility.yul\":2547:2574   */\n              mstore\n                /* \"#utility.yul\":2442:2581   */\n              pop\n              pop\n              pop\n              jump\t// out\n                /* \"#utility.yul\":2587:2689   */\n            tag_282:\n                /* \"#utility.yul\":2628:2634   */\n              0x00\n                /* \"#utility.yul\":2679:2681   */\n              0x1f\n                /* \"#utility.yul\":2675:2682   */\n              not\n                /* \"#utility.yul\":2670:2672   */\n              0x1f\n                /* \"#utility.yul\":2663:2668   */\n              dup4\n                /* \"#utility.yul\":2659:2673   */\n              add\n                /* \"#utility.yul\":2655:2683   */\n              and\n                /* \"#utility.yul\":2645:2683   */\n              swap1\n              pop\n                /* \"#utility.yul\":2587:2689   */\n              swap2\n              swap1\n              pop\n              jump\t// out\n                /* \"#utility.yul\":2695:3072   */\n            tag_283:\n                /* \"#utility.yul\":2783:2786   */\n              0x00\n                /* \"#utility.yul\":2811:2850   */\n              tag_366\n                /* \"#utility.yul\":2844:2849   */\n              dup3\n                /* \"#utility.yul\":2811:2850   */\n              tag_279\n              jump\t// in\n            tag_366:\n                /* \"#utility.yul\":2866:2937   */\n              tag_367\n                /* \"#utility.yul\":2930:2936   */\n              dup2\n                /* \"#utility.yul\":2925:2928   */\n              dup6\n                /* \"#utility.yul\":2866:2937   */\n              tag_280\n              jump\t// in\n            tag_367:\n                /* \"#utility.yul\":2859:2937   */\n              swap4\n              pop\n                /* \"#utility.yul\":2946:3011   */\n              tag_368\n                /* \"#utility.yul\":3004:3010   */\n              dup2\n                /* \"#utility.yul\":2999:3002   */\n              dup6\n                /* \"#utility.yul\":2992:2996   */\n              0x20\n                /* \"#utility.yul\":2985:2990   */\n              dup7\n                /* \"#utility.yul\":2981:2997   */\n              add\n                /* \"#utility.yul\":2946:3011   */\n              tag_281\n              jump\t// in\n            tag_368:\n                /* \"#utility.yul\":3036:3065   */\n              tag_369\n                /* \"#utility.yul\":3058:3064   */\n              dup2\n                /* \"#utility.yul\":3036:3065   */\n              tag_282\n              jump\t// in\n            tag_369:\n                /* \"#utility.yul\":3031:3034   */\n              dup5\n                /* \"#utility.yul\":3027:3066   */\n              add\n                /* \"#utility.yul\":3020:3066   */\n              swap2\n              pop\n                /* \"#utility.yul\":2787:3072   */\n              pop\n                /* \"#utility.yul\":2695:3072   */\n              swap3\n              swap2\n              pop\n              pop\n              jump\t// out\n                /* \"#utility.yul\":3078:3192   */\n            tag_284:\n                /* \"#utility.yul\":3145:3151   */\n              0x00\n                /* \"#utility.yul\":3179:3184   */\n              dup2\n                /* \"#utility.yul\":3173:3185   */\n              mload\n                /* \"#utility.yul\":3163:3185   */\n              swap1\n              pop\n                /* \"#utility.yul\":3078:3192   */\n              swap2\n              swap1\n              pop\n              jump\t// out\n                /* \"#utility.yul\":3198:3382   */\n            tag_285:\n                /* \"#utility.yul\":3297:3308   */\n              0x00\n                /* \"#utility.yul\":3331:3337   */\n              dup3\n                /* \"#utility.yul\":3326:3329   */\n              dup3\n                /* \"#utility.yul\":3319:3338   */\n              mstore\n                /* \"#utility.yul\":3371:3375   */\n              0x20\n                /* \"#utility.yul\":3366:3369   */\n              dup3\n                /* \"#utility.yul\":3362:3376   */\n              add\n                /* \"#utility.yul\":3347:3376   */\n              swap1\n              pop\n                /* \"#utility.yul\":3198:3382   */\n              swap3\n              swap2\n              pop\n              pop\n              jump\t// out\n                /* \"#utility.yul\":3388:3520   */\n            tag_286:\n                /* \"#utility.yul\":3455:3459   */\n              0x00\n                /* \"#utility.yul\":3478:3481   */\n              dup2\n                /* \"#utility.yul\":3470:3481   */\n              swap1\n              pop\n                /* \"#utility.yul\":3508:3512   */\n              0x20\n                /* \"#utility.yul\":3503:3506   */\n              dup3\n                /* \"#utility.yul\":3499:3513   */\n              add\n                /* \"#utility.yul\":3491:3513   */\n              swap1\n              pop\n                /* \"#utility.yul\":3388:3520   */\n              swap2\n              swap1\n              pop\n              jump\t// out\n                /* \"#utility.yul\":3526:3634   */\n            tag_287:\n                /* \"#utility.yul\":3603:3627   */\n              tag_374\n                /* \"#utility.yul\":3621:3626   */\n              dup2\n                /* \"#utility.yul\":3603:3627   */\n              tag_271\n              jump\t// in\n            tag_374:\n                /* \"#utility.yul\":3598:3601   */\n              dup3\n                /* \"#utility.yul\":3591:3628   */\n              mstore\n                /* \"#utility.yul\":3526:3634   */\n              pop\n              pop\n              jump\t// out\n                /* \"#utility.yul\":3640:3819   */\n            tag_288:\n                /* \"#utility.yul\":3709:3719   */\n              0x00\n                /* \"#utility.yul\":3730:3776   */\n              tag_376\n                /* \"#utility.yul\":3772:3775   */\n              dup4\n                /* \"#utility.yul\":3764:3770   */\n              dup4\n                /* \"#utility.yul\":3730:3776   */\n              tag_287\n              jump\t// in\n            tag_376:\n                /* \"#utility.yul\":3808:3812   */\n              0x20\n                /* \"#utility.yul\":3803:3806   */\n              dup4\n                /* \"#utility.yul\":3799:3813   */\n              add\n                /* \"#utility.yul\":3785:3813   */\n              swap1\n              pop\n                /* \"#utility.yul\":3640:3819   */\n              swap3\n              swap2\n              pop\n              pop\n              jump\t// out\n                /* \"#utility.yul\":3825:3938   */\n            tag_289:\n                /* \"#utility.yul\":3895:3899   */\n              0x00\n                /* \"#utility.yul\":3927:3931   */\n              0x20\n                /* \"#utility.yul\":3922:3925   */\n              dup3\n                /* \"#utility.yul\":3918:3932   */\n              add\n                /* \"#utility.yul\":3910:3932   */\n              swap1\n              pop\n                /* \"#utility.yul\":3825:3938   */\n              swap2\n              swap1\n              pop\n              jump\t// out\n                /* \"#utility.yul\":3974:4706   */\n            tag_290:\n                /* \"#utility.yul\":4093:4096   */\n              0x00\n                /* \"#utility.yul\":4122:4176   */\n              tag_379\n                /* \"#utility.yul\":4170:4175   */\n              dup3\n                /* \"#utility.yul\":4122:4176   */\n              tag_284\n              jump\t// in\n            tag_379:\n                /* \"#utility.yul\":4192:4278   */\n              tag_380\n                /* \"#utility.yul\":4271:4277   */\n              dup2\n                /* \"#utility.yul\":4266:4269   */\n              dup6\n                /* \"#utility.yul\":4192:4278   */\n              tag_285\n              jump\t// in\n            tag_380:\n                /* \"#utility.yul\":4185:4278   */\n              swap4\n              pop\n                /* \"#utility.yul\":4302:4358   */\n              tag_381\n                /* \"#utility.yul\":4352:4357   */\n              dup4\n                /* \"#utility.yul\":4302:4358   */\n              tag_286\n              jump\t// in\n            tag_381:\n                /* \"#utility.yul\":4381:4388   */\n              dup1\n                /* \"#utility.yul\":4412:4413   */\n              0x00\n                /* \"#utility.yul\":4397:4681   */\n            tag_382:\n                /* \"#utility.yul\":4422:4428   */\n              dup4\n                /* \"#utility.yul\":4419:4420   */\n              dup2\n                /* \"#utility.yul\":4416:4429   */\n              lt\n                /* \"#utility.yul\":4397:4681   */\n              iszero\n              tag_384\n              jumpi\n                /* \"#utility.yul\":4498:4504   */\n              dup2\n                /* \"#utility.yul\":4492:4505   */\n              mload\n                /* \"#utility.yul\":4525:4588   */\n              tag_385\n                /* \"#utility.yul\":4584:4587   */\n              dup9\n                /* \"#utility.yul\":4569:4582   */\n              dup3\n                /* \"#utility.yul\":4525:4588   */\n              tag_288\n              jump\t// in\n            tag_385:\n                /* \"#utility.yul\":4518:4588   */\n              swap8\n              pop\n                /* \"#utility.yul\":4611:4671   */\n              tag_386\n                /* \"#utility.yul\":4664:4670   */\n              dup4\n                /* \"#utility.yul\":4611:4671   */\n              tag_289\n              jump\t// in\n            tag_386:\n                /* \"#utility.yul\":4601:4671   */\n              swap3\n              pop\n                /* \"#utility.yul\":4457:4681   */\n              pop\n                /* \"#utility.yul\":4444:4445   */\n              0x01\n                /* \"#utility.yul\":4441:4442   */\n              dup2\n                /* \"#utility.yul\":4437:4446   */\n              add\n                /* \"#utility.yul\":4432:4446   */\n              swap1\n              pop\n                /* \"#utility.yul\":4397:4681   */\n              jump(tag_382)\n            tag_384:\n                /* \"#utility.yul\":4401:4415   */\n              pop\n                /* \"#utility.yul\":4697:4700   */\n              dup6\n                /* \"#utility.yul\":4690:4700   */\n              swap4\n              pop\n                /* \"#utility.yul\":4098:4706   */\n              pop\n              pop\n              pop\n                /* \"#utility.yul\":3974:4706   */\n              swap3\n              swap2\n              pop\n              pop\n              jump\t// out\n                /* \"#utility.yul\":4712:6264   */\n            tag_50:\n                /* \"#utility.yul\":5147:5151   */\n              0x00\n                /* \"#utility.yul\":5185:5188   */\n              0x0140\n                /* \"#utility.yul\":5174:5183   */\n              dup3\n                /* \"#utility.yul\":5170:5189   */\n              add\n                /* \"#utility.yul\":5162:5189   */\n              swap1\n              pop\n                /* \"#utility.yul\":5199:5270   */\n              tag_388\n                /* \"#utility.yul\":5267:5268   */\n              0x00\n                /* \"#utility.yul\":5256:5265   */\n              dup4\n                /* \"#utility.yul\":5252:5269   */\n              add\n                /* \"#utility.yul\":5243:5249   */\n              dup14\n                /* \"#utility.yul\":5199:5270   */\n              tag_277\n              jump\t// in\n            tag_388:\n                /* \"#utility.yul\":5280:5352   */\n              tag_389\n                /* \"#utility.yul\":5348:5350   */\n              0x20\n                /* \"#utility.yul\":5337:5346   */\n              dup4\n                /* \"#utility.yul\":5333:5351   */\n              add\n                /* \"#utility.yul\":5324:5330   */\n              dup13\n                /* \"#utility.yul\":5280:5352   */\n              tag_277\n              jump\t// in\n            tag_389:\n                /* \"#utility.yul\":5362:5434   */\n              tag_390\n                /* \"#utility.yul\":5430:5432   */\n              0x40\n                /* \"#utility.yul\":5419:5428   */\n              dup4\n                /* \"#utility.yul\":5415:5433   */\n              add\n                /* \"#utility.yul\":5406:5412   */\n              dup12\n                /* \"#utility.yul\":5362:5434   */\n              tag_277\n              jump\t// in\n            tag_390:\n                /* \"#utility.yul\":5444:5516   */\n              tag_391\n                /* \"#utility.yul\":5512:5514   */\n              0x60\n                /* \"#utility.yul\":5501:5510   */\n              dup4\n                /* \"#utility.yul\":5497:5515   */\n              add\n                /* \"#utility.yul\":5488:5494   */\n              dup11\n                /* \"#utility.yul\":5444:5516   */\n              tag_278\n              jump\t// in\n            tag_391:\n                /* \"#utility.yul\":5526:5599   */\n              tag_392\n                /* \"#utility.yul\":5594:5597   */\n              0x80\n                /* \"#utility.yul\":5583:5592   */\n              dup4\n                /* \"#utility.yul\":5579:5598   */\n              add\n                /* \"#utility.yul\":5570:5576   */\n              dup10\n                /* \"#utility.yul\":5526:5599   */\n              tag_277\n              jump\t// in\n            tag_392:\n                /* \"#utility.yul\":5647:5656   */\n              dup2\n                /* \"#utility.yul\":5641:5645   */\n              dup2\n                /* \"#utility.yul\":5637:5657   */\n              sub\n                /* \"#utility.yul\":5631:5634   */\n              0xa0\n                /* \"#utility.yul\":5620:5629   */\n              dup4\n                /* \"#utility.yul\":5616:5635   */\n              add\n                /* \"#utility.yul\":5609:5658   */\n              mstore\n                /* \"#utility.yul\":5675:5753   */\n              tag_393\n                /* \"#utility.yul\":5748:5752   */\n              dup2\n                /* \"#utility.yul\":5739:5745   */\n              dup9\n                /* \"#utility.yul\":5675:5753   */\n              tag_283\n              jump\t// in\n            tag_393:\n                /* \"#utility.yul\":5667:5753   */\n              swap1\n              pop\n                /* \"#utility.yul\":5801:5810   */\n              dup2\n                /* \"#utility.yul\":5795:5799   */\n              dup2\n                /* \"#utility.yul\":5791:5811   */\n              sub\n                /* \"#utility.yul\":5785:5788   */\n              0xc0\n                /* \"#utility.yul\":5774:5783   */\n              dup4\n                /* \"#utility.yul\":5770:5789   */\n              add\n                /* \"#utility.yul\":5763:5812   */\n              mstore\n                /* \"#utility.yul\":5829:5907   */\n              tag_394\n                /* \"#utility.yul\":5902:5906   */\n              dup2\n                /* \"#utility.yul\":5893:5899   */\n              dup8\n                /* \"#utility.yul\":5829:5907   */\n              tag_283\n              jump\t// in\n            tag_394:\n                /* \"#utility.yul\":5821:5907   */\n              swap1\n              pop\n                /* \"#utility.yul\":5917:5990   */\n              tag_395\n                /* \"#utility.yul\":5985:5988   */\n              0xe0\n                /* \"#utility.yul\":5974:5983   */\n              dup4\n                /* \"#utility.yul\":5970:5989   */\n              add\n                /* \"#utility.yul\":5961:5967   */\n              dup7\n                /* \"#utility.yul\":5917:5990   */\n              tag_277\n              jump\t// in\n            tag_395:\n                /* \"#utility.yul\":6000:6073   */\n              tag_396\n                /* \"#utility.yul\":6068:6071   */\n              0x0100\n                /* \"#utility.yul\":6057:6066   */\n              dup4\n                /* \"#utility.yul\":6053:6072   */\n              add\n                /* \"#utility.yul\":6044:6050   */\n              dup6\n                /* \"#utility.yul\":6000:6073   */\n              tag_278\n              jump\t// in\n            tag_396:\n                /* \"#utility.yul\":6121:6130   */\n              dup2\n                /* \"#utility.yul\":6115:6119   */\n              dup2\n                /* \"#utility.yul\":6111:6131   */\n              sub\n                /* \"#utility.yul\":6105:6108   */\n              0x0120\n                /* \"#utility.yul\":6094:6103   */\n              dup4\n                /* \"#utility.yul\":6090:6109   */\n              add\n                /* \"#utility.yul\":6083:6132   */\n              mstore\n                /* \"#utility.yul\":6149:6257   */\n              tag_397\n                /* \"#utility.yul\":6252:6256   */\n              dup2\n                /* \"#utility.yul\":6243:6249   */\n              dup5\n                /* \"#utility.yul\":6149:6257   */\n              tag_290\n              jump\t// in\n            tag_397:\n                /* \"#utility.yul\":6141:6257   */\n              swap1\n              pop\n                /* \"#utility.yul\":4712:6264   */\n              swap12\n              swap11\n              pop\n              pop\n              pop\n              pop\n              pop\n              pop\n              pop\n              pop\n              pop\n              pop\n              pop\n              jump\t// out\n                /* \"#utility.yul\":6270:6492   */\n            tag_55:\n                /* \"#utility.yul\":6363:6367   */\n              0x00\n                /* \"#utility.yul\":6401:6403   */\n              0x20\n                /* \"#utility.yul\":6390:6399   */\n              dup3\n                /* \"#utility.yul\":6386:6404   */\n              add\n                /* \"#utility.yul\":6378:6404   */\n              swap1\n              pop\n                /* \"#utility.yul\":6414:6485   */\n              tag_399\n                /* \"#utility.yul\":6482:6483   */\n              0x00\n                /* \"#utility.yul\":6471:6480   */\n              dup4\n                /* \"#utility.yul\":6467:6484   */\n              add\n                /* \"#utility.yul\":6458:6464   */\n              dup5\n                /* \"#utility.yul\":6414:6485   */\n              tag_278\n              jump\t// in\n            tag_399:\n                /* \"#utility.yul\":6270:6492   */\n              swap3\n              swap2\n              pop\n              pop\n              jump\t// out\n                /* \"#utility.yul\":6498:6602   */\n            tag_291:\n                /* \"#utility.yul\":6543:6550   */\n              0x00\n                /* \"#utility.yul\":6572:6596   */\n              tag_401\n                /* \"#utility.yul\":6590:6595   */\n              dup3\n                /* \"#utility.yul\":6572:6596   */\n              tag_270\n              jump\t// in\n            tag_401:\n                /* \"#utility.yul\":6561:6596   */\n              swap1\n              pop\n                /* \"#utility.yul\":6498:6602   */\n              swap2\n              swap1\n              pop\n              jump\t// out\n                /* \"#utility.yul\":6608:6746   */\n            tag_292:\n                /* \"#utility.yul\":6689:6721   */\n              tag_403\n                /* \"#utility.yul\":6715:6720   */\n              dup2\n                /* \"#utility.yul\":6689:6721   */\n              tag_291\n              jump\t// in\n            tag_403:\n                /* \"#utility.yul\":6682:6687   */\n              dup2\n                /* \"#utility.yul\":6679:6722   */\n              eq\n                /* \"#utility.yul\":6669:6740   */\n              tag_404\n              jumpi\n                /* \"#utility.yul\":6736:6737   */\n              0x00\n                /* \"#utility.yul\":6733:6734   */\n              0x00\n                /* \"#utility.yul\":6726:6738   */\n              revert\n                /* \"#utility.yul\":6669:6740   */\n            tag_404:\n                /* \"#utility.yul\":6608:6746   */\n              pop\n              jump\t// out\n                /* \"#utility.yul\":6752:6907   */\n            tag_293:\n                /* \"#utility.yul\":6806:6811   */\n              0x00\n                /* \"#utility.yul\":6844:6850   */\n              dup2\n                /* \"#utility.yul\":6831:6851   */\n              calldataload\n                /* \"#utility.yul\":6822:6851   */\n              swap1\n              pop\n                /* \"#utility.yul\":6860:6901   */\n              tag_406\n                /* \"#utility.yul\":6895:6900   */\n              dup2\n                /* \"#utility.yul\":6860:6901   */\n              tag_292\n              jump\t// in\n            tag_406:\n                /* \"#utility.yul\":6752:6907   */\n              swap3\n              swap2\n              pop\n              pop\n              jump\t// out\n                /* \"#utility.yul\":6913:7258   */\n            tag_63:\n                /* \"#utility.yul\":6980:6986   */\n              0x00\n                /* \"#utility.yul\":7029:7031   */\n              0x20\n                /* \"#utility.yul\":7017:7026   */\n              dup3\n                /* \"#utility.yul\":7008:7015   */\n              dup5\n                /* \"#utility.yul\":7004:7027   */\n              sub\n                /* \"#utility.yul\":7000:7032   */\n              slt\n                /* \"#utility.yul\":6997:7116   */\n              iszero\n              tag_408\n              jumpi\n                /* \"#utility.yul\":7035:7114   */\n              tag_409\n              tag_268\n              jump\t// in\n            tag_409:\n                /* \"#utility.yul\":6997:7116   */\n            tag_408:\n                /* \"#utility.yul\":7155:7156   */\n              0x00\n                /* \"#utility.yul\":7180:7241   */\n              tag_410\n                /* \"#utility.yul\":7233:7240   */\n              dup5\n                /* \"#utility.yul\":7224:7230   */\n              dup3\n                /* \"#utility.yul\":7213:7222   */\n              dup6\n                /* \"#utility.yul\":7209:7231   */\n              add\n                /* \"#utility.yul\":7180:7241   */\n              tag_293\n              jump\t// in\n            tag_410:\n                /* \"#utility.yul\":7170:7241   */\n              swap2\n              pop\n                /* \"#utility.yul\":7126:7251   */\n              pop\n                /* \"#utility.yul\":6913:7258   */\n              swap3\n              swap2\n              pop\n              pop\n              jump\t// out\n                /* \"#utility.yul\":7264:7577   */\n            tag_69:\n                /* \"#utility.yul\":7377:7381   */\n              0x00\n                /* \"#utility.yul\":7415:7417   */\n              0x20\n                /* \"#utility.yul\":7404:7413   */\n              dup3\n                /* \"#utility.yul\":7400:7418   */\n              add\n                /* \"#utility.yul\":7392:7418   */\n              swap1\n              pop\n                /* \"#utility.yul\":7464:7473   */\n              dup2\n                /* \"#utility.yul\":7458:7462   */\n              dup2\n                /* \"#utility.yul\":7454:7474   */\n              sub\n                /* \"#utility.yul\":7450:7451   */\n              0x00\n                /* \"#utility.yul\":7439:7448   */\n              dup4\n                /* \"#utility.yul\":7435:7452   */\n              add\n                /* \"#utility.yul\":7428:7475   */\n              mstore\n                /* \"#utility.yul\":7492:7570   */\n              tag_412\n                /* \"#utility.yul\":7565:7569   */\n              dup2\n                /* \"#utility.yul\":7556:7562   */\n              dup5\n                /* \"#utility.yul\":7492:7570   */\n              tag_283\n              jump\t// in\n            tag_412:\n                /* \"#utility.yul\":7484:7570   */\n              swap1\n              pop\n                /* \"#utility.yul\":7264:7577   */\n              swap3\n              swap2\n              pop\n              pop\n              jump\t// out\n                /* \"#utility.yul\":7583:8057   */\n            tag_81:\n                /* \"#utility.yul\":7651:7657   */\n              0x00\n                /* \"#utility.yul\":7659:7665   */\n              0x00\n                /* \"#utility.yul\":7708:7710   */\n              0x40\n                /* \"#utility.yul\":7696:7705   */\n              dup4\n                /* \"#utility.yul\":7687:7694   */\n              dup6\n                /* \"#utility.yul\":7683:7706   */\n              sub\n                /* \"#utility.yul\":7679:7711   */\n              slt\n                /* \"#utility.yul\":7676:7795   */\n              iszero\n              tag_414\n              jumpi\n                /* \"#utility.yul\":7714:7793   */\n              tag_415\n              tag_268\n              jump\t// in\n            tag_415:\n                /* \"#utility.yul\":7676:7795   */\n            tag_414:\n                /* \"#utility.yul\":7834:7835   */\n              0x00\n                /* \"#utility.yul\":7859:7912   */\n              tag_416\n                /* \"#utility.yul\":7904:7911   */\n              dup6\n                /* \"#utility.yul\":7895:7901   */\n              dup3\n                /* \"#utility.yul\":7884:7893   */\n              dup7\n                /* \"#utility.yul\":7880:7902   */\n              add\n                /* \"#utility.yul\":7859:7912   */\n              tag_273\n              jump\t// in\n            tag_416:\n                /* \"#utility.yul\":7849:7912   */\n              swap3\n              pop\n                /* \"#utility.yul\":7805:7922   */\n              pop\n                /* \"#utility.yul\":7961:7963   */\n              0x20\n                /* \"#utility.yul\":7987:8040   */\n              tag_417\n                /* \"#utility.yul\":8032:8039   */\n              dup6\n                /* \"#utility.yul\":8023:8029   */\n              dup3\n                /* \"#utility.yul\":8012:8021   */\n              dup7\n                /* \"#utility.yul\":8008:8030   */\n              add\n                /* \"#utility.yul\":7987:8040   */\n              tag_273\n              jump\t// in\n            tag_417:\n                /* \"#utility.yul\":7977:8040   */\n              swap2\n              pop\n                /* \"#utility.yul\":7932:8050   */\n              pop\n                /* \"#utility.yul\":7583:8057   */\n              swap3\n              pop\n              swap3\n              swap1\n              pop\n              jump\t// out\n                /* \"#utility.yul\":8063:8197   */\n            tag_294:\n                /* \"#utility.yul\":8150:8156   */\n              0x00\n                /* \"#utility.yul\":8184:8189   */\n              dup2\n                /* \"#utility.yul\":8178:8190   */\n              mload\n                /* \"#utility.yul\":8168:8190   */\n              swap1\n              pop\n                /* \"#utility.yul\":8063:8197   */\n              swap2\n              swap1\n              pop\n              jump\t// out\n                /* \"#utility.yul\":8203:8407   */\n            tag_295:\n                /* \"#utility.yul\":8322:8333   */\n              0x00\n                /* \"#utility.yul\":8356:8362   */\n              dup3\n                /* \"#utility.yul\":8351:8354   */\n              dup3\n                /* \"#utility.yul\":8344:8363   */\n              mstore\n                /* \"#utility.yul\":8396:8400   */\n              0x20\n                /* \"#utility.yul\":8391:8394   */\n              dup3\n                /* \"#utility.yul\":8387:8401   */\n              add\n                /* \"#utility.yul\":8372:8401   */\n              swap1\n              pop\n                /* \"#utility.yul\":8203:8407   */\n              swap3\n              swap2\n              pop\n              pop\n              jump\t// out\n                /* \"#utility.yul\":8413:8565   */\n            tag_296:\n                /* \"#utility.yul\":8500:8504   */\n              0x00\n                /* \"#utility.yul\":8523:8526   */\n              dup2\n                /* \"#utility.yul\":8515:8526   */\n              swap1\n              pop\n                /* \"#utility.yul\":8553:8557   */\n              0x20\n                /* \"#utility.yul\":8548:8551   */\n              dup3\n                /* \"#utility.yul\":8544:8558   */\n              add\n                /* \"#utility.yul\":8536:8558   */\n              swap1\n              pop\n                /* \"#utility.yul\":8413:8565   */\n              swap2\n              swap1\n              pop\n              jump\t// out\n                /* \"#utility.yul\":8571:8679   */\n            tag_297:\n                /* \"#utility.yul\":8648:8672   */\n              tag_422\n                /* \"#utility.yul\":8666:8671   */\n              dup2\n                /* \"#utility.yul\":8648:8672   */\n              tag_276\n              jump\t// in\n            tag_422:\n                /* \"#utility.yul\":8643:8646   */\n              dup3\n                /* \"#utility.yul\":8636:8673   */\n              mstore\n                /* \"#utility.yul\":8571:8679   */\n              pop\n              pop\n              jump\t// out\n                /* \"#utility.yul\":8735:9406   */\n            tag_298:\n                /* \"#utility.yul\":8862:8866   */\n              0x60\n                /* \"#utility.yul\":8857:8860   */\n              dup3\n                /* \"#utility.yul\":8853:8867   */\n              add\n                /* \"#utility.yul\":8950:8954   */\n              0x00\n                /* \"#utility.yul\":8943:8948   */\n              dup3\n                /* \"#utility.yul\":8939:8955   */\n              add\n                /* \"#utility.yul\":8933:8956   */\n              mload\n                /* \"#utility.yul\":8969:9032   */\n              tag_424\n                /* \"#utility.yul\":9026:9030   */\n              0x00\n                /* \"#utility.yul\":9021:9024   */\n              dup6\n                /* \"#utility.yul\":9017:9031   */\n              add\n                /* \"#utility.yul\":9003:9015   */\n              dup3\n                /* \"#utility.yul\":8969:9032   */\n              tag_297\n              jump\t// in\n            tag_424:\n                /* \"#utility.yul\":8877:9042   */\n              pop\n                /* \"#utility.yul\":9124:9128   */\n              0x20\n                /* \"#utility.yul\":9117:9122   */\n              dup3\n                /* \"#utility.yul\":9113:9129   */\n              add\n                /* \"#utility.yul\":9107:9130   */\n              mload\n                /* \"#utility.yul\":9143:9206   */\n              tag_425\n                /* \"#utility.yul\":9200:9204   */\n              0x20\n                /* \"#utility.yul\":9195:9198   */\n              dup6\n                /* \"#utility.yul\":9191:9205   */\n              add\n                /* \"#utility.yul\":9177:9189   */\n              dup3\n                /* \"#utility.yul\":9143:9206   */\n              tag_297\n              jump\t// in\n            tag_425:\n                /* \"#utility.yul\":9052:9216   */\n              pop\n                /* \"#utility.yul\":9307:9311   */\n              0x40\n                /* \"#utility.yul\":9300:9305   */\n              dup3\n                /* \"#utility.yul\":9296:9312   */\n              add\n                /* \"#utility.yul\":9290:9313   */\n              mload\n                /* \"#utility.yul\":9326:9389   */\n              tag_426\n                /* \"#utility.yul\":9383:9387   */\n              0x40\n                /* \"#utility.yul\":9378:9381   */\n              dup6\n                /* \"#utility.yul\":9374:9388   */\n              add\n                /* \"#utility.yul\":9360:9372   */\n              dup3\n                /* \"#utility.yul\":9326:9389   */\n              tag_287\n              jump\t// in\n            tag_426:\n                /* \"#utility.yul\":9226:9399   */\n              pop\n                /* \"#utility.yul\":8831:9406   */\n              pop\n                /* \"#utility.yul\":8735:9406   */\n              pop\n              pop\n              jump\t// out\n                /* \"#utility.yul\":9412:9671   */\n            tag_299:\n                /* \"#utility.yul\":9521:9531   */\n              0x00\n                /* \"#utility.yul\":9542:9628   */\n              tag_428\n                /* \"#utility.yul\":9624:9627   */\n              dup4\n                /* \"#utility.yul\":9616:9622   */\n              dup4\n                /* \"#utility.yul\":9542:9628   */\n              tag_298\n              jump\t// in\n            tag_428:\n                /* \"#utility.yul\":9660:9664   */\n              0x60\n                /* \"#utility.yul\":9655:9658   */\n              dup4\n                /* \"#utility.yul\":9651:9665   */\n              add\n                /* \"#utility.yul\":9637:9665   */\n              swap1\n              pop\n                /* \"#utility.yul\":9412:9671   */\n              swap3\n              swap2\n              pop\n              pop\n              jump\t// out\n                /* \"#utility.yul\":9677:9810   */\n            tag_300:\n                /* \"#utility.yul\":9767:9771   */\n              0x00\n                /* \"#utility.yul\":9799:9803   */\n              0x20\n                /* \"#utility.yul\":9794:9797   */\n              dup3\n                /* \"#utility.yul\":9790:9804   */\n              add\n                /* \"#utility.yul\":9782:9804   */\n              swap1\n              pop\n                /* \"#utility.yul\":9677:9810   */\n              swap2\n              swap1\n              pop\n              jump\t// out\n                /* \"#utility.yul\":9870:10762   */\n            tag_301:\n                /* \"#utility.yul\":10029:10032   */\n              0x00\n                /* \"#utility.yul\":10058:10132   */\n              tag_431\n                /* \"#utility.yul\":10126:10131   */\n              dup3\n                /* \"#utility.yul\":10058:10132   */\n              tag_294\n              jump\t// in\n            tag_431:\n                /* \"#utility.yul\":10148:10254   */\n              tag_432\n                /* \"#utility.yul\":10247:10253   */\n              dup2\n                /* \"#utility.yul\":10242:10245   */\n              dup6\n                /* \"#utility.yul\":10148:10254   */\n              tag_295\n              jump\t// in\n            tag_432:\n                /* \"#utility.yul\":10141:10254   */\n              swap4\n              pop\n                /* \"#utility.yul\":10278:10354   */\n              tag_433\n                /* \"#utility.yul\":10348:10353   */\n              dup4\n                /* \"#utility.yul\":10278:10354   */\n              tag_296\n              jump\t// in\n            tag_433:\n                /* \"#utility.yul\":10377:10384   */\n              dup1\n                /* \"#utility.yul\":10408:10409   */\n              0x00\n                /* \"#utility.yul\":10393:10737   */\n            tag_434:\n                /* \"#utility.yul\":10418:10424   */\n              dup4\n                /* \"#utility.yul\":10415:10416   */\n              dup2\n                /* \"#utility.yul\":10412:10425   */\n              lt\n                /* \"#utility.yul\":10393:10737   */\n              iszero\n              tag_436\n              jumpi\n                /* \"#utility.yul\":10494:10500   */\n              dup2\n                /* \"#utility.yul\":10488:10501   */\n              mload\n                /* \"#utility.yul\":10521:10624   */\n              tag_437\n                /* \"#utility.yul\":10620:10623   */\n              dup9\n                /* \"#utility.yul\":10605:10618   */\n              dup3\n                /* \"#utility.yul\":10521:10624   */\n              tag_299\n              jump\t// in\n            tag_437:\n                /* \"#utility.yul\":10514:10624   */\n              swap8\n              pop\n                /* \"#utility.yul\":10647:10727   */\n              tag_438\n                /* \"#utility.yul\":10720:10726   */\n              dup4\n                /* \"#utility.yul\":10647:10727   */\n              tag_300\n              jump\t// in\n            tag_438:\n                /* \"#utility.yul\":10637:10727   */\n              swap3\n              pop\n                /* \"#utility.yul\":10453:10737   */\n              pop\n                /* \"#utility.yul\":10440:10441   */\n              0x01\n                /* \"#utility.yul\":10437:10438   */\n              dup2\n                /* \"#utility.yul\":10433:10442   */\n              add\n                /* \"#utility.yul\":10428:10442   */\n              swap1\n              pop\n                /* \"#utility.yul\":10393:10737   */\n              jump(tag_434)\n            tag_436:\n                /* \"#utility.yul\":10397:10411   */\n              pop\n                /* \"#utility.yul\":10753:10756   */\n              dup6\n                /* \"#utility.yul\":10746:10756   */\n              swap4\n              pop\n                /* \"#utility.yul\":10034:10762   */\n              pop\n              pop\n              pop\n                /* \"#utility.yul\":9870:10762   */\n              swap3\n              swap2\n              pop\n              pop\n              jump\t// out\n                /* \"#utility.yul\":10768:11221   */\n            tag_92:\n                /* \"#utility.yul\":10951:10955   */\n              0x00\n                /* \"#utility.yul\":10989:10991   */\n              0x20\n                /* \"#utility.yul\":10978:10987   */\n              dup3\n                /* \"#utility.yul\":10974:10992   */\n              add\n                /* \"#utility.yul\":10966:10992   */\n              swap1\n              pop\n                /* \"#utility.yul\":11038:11047   */\n              dup2\n                /* \"#utility.yul\":11032:11036   */\n              dup2\n                /* \"#utility.yul\":11028:11048   */\n              sub\n                /* \"#utility.yul\":11024:11025   */\n              0x00\n                /* \"#utility.yul\":11013:11022   */\n              dup4\n                /* \"#utility.yul\":11009:11026   */\n              add\n                /* \"#utility.yul\":11002:11049   */\n              mstore\n                /* \"#utility.yul\":11066:11214   */\n              tag_440\n                /* \"#utility.yul\":11209:11213   */\n              dup2\n                /* \"#utility.yul\":11200:11206   */\n              dup5\n                /* \"#utility.yul\":11066:11214   */\n              tag_301\n              jump\t// in\n            tag_440:\n                /* \"#utility.yul\":11058:11214   */\n              swap1\n              pop\n                /* \"#utility.yul\":10768:11221   */\n              swap3\n              swap2\n              pop\n              pop\n              jump\t// out\n                /* \"#utility.yul\":11227:11349   */\n            tag_302:\n                /* \"#utility.yul\":11300:11324   */\n              tag_442\n                /* \"#utility.yul\":11318:11323   */\n              dup2\n                /* \"#utility.yul\":11300:11324   */\n              tag_276\n              jump\t// in\n            tag_442:\n                /* \"#utility.yul\":11293:11298   */\n              dup2\n                /* \"#utility.yul\":11290:11325   */\n              eq\n                /* \"#utility.yul\":11280:11343   */\n              tag_443\n              jumpi\n                /* \"#utility.yul\":11339:11340   */\n              0x00\n                /* \"#utility.yul\":11336:11337   */\n              0x00\n                /* \"#utility.yul\":11329:11341   */\n              revert\n                /* \"#utility.yul\":11280:11343   */\n            tag_443:\n                /* \"#utility.yul\":11227:11349   */\n              pop\n              jump\t// out\n                /* \"#utility.yul\":11355:11494   */\n            tag_303:\n                /* \"#utility.yul\":11401:11406   */\n              0x00\n                /* \"#utility.yul\":11439:11445   */\n              dup2\n                /* \"#utility.yul\":11426:11446   */\n              calldataload\n                /* \"#utility.yul\":11417:11446   */\n              swap1\n              pop\n                /* \"#utility.yul\":11455:11488   */\n              tag_445\n                /* \"#utility.yul\":11482:11487   */\n              dup2\n                /* \"#utility.yul\":11455:11488   */\n              tag_302\n              jump\t// in\n            tag_445:\n                /* \"#utility.yul\":11355:11494   */\n              swap3\n              swap2\n              pop\n              pop\n              jump\t// out\n                /* \"#utility.yul\":11500:11829   */\n            tag_111:\n                /* \"#utility.yul\":11559:11565   */\n              0x00\n                /* \"#utility.yul\":11608:11610   */\n              0x20\n                /* \"#utility.yul\":11596:11605   */\n              dup3\n                /* \"#utility.yul\":11587:11594   */\n              dup5\n                /* \"#utility.yul\":11583:11606   */\n              sub\n                /* \"#utility.yul\":11579:11611   */\n              slt\n                /* \"#utility.yul\":11576:11695   */\n              iszero\n              tag_447\n              jumpi\n                /* \"#utility.yul\":11614:11693   */\n              tag_448\n              tag_268\n              jump\t// in\n            tag_448:\n                /* \"#utility.yul\":11576:11695   */\n            tag_447:\n                /* \"#utility.yul\":11734:11735   */\n              0x00\n                /* \"#utility.yul\":11759:11812   */\n              tag_449\n                /* \"#utility.yul\":11804:11811   */\n              dup5\n                /* \"#utility.yul\":11795:11801   */\n              dup3\n                /* \"#utility.yul\":11784:11793   */\n              dup6\n                /* \"#utility.yul\":11780:11802   */\n              add\n                /* \"#utility.yul\":11759:11812   */\n              tag_303\n              jump\t// in\n            tag_449:\n                /* \"#utility.yul\":11749:11812   */\n              swap2\n              pop\n                /* \"#utility.yul\":11705:11822   */\n              pop\n                /* \"#utility.yul\":11500:11829   */\n              swap3\n              swap2\n              pop\n              pop\n              jump\t// out\n                /* \"#utility.yul\":11835:12277   */\n            tag_114:\n                /* \"#utility.yul\":11984:11988   */\n              0x00\n                /* \"#utility.yul\":12022:12024   */\n              0x60\n                /* \"#utility.yul\":12011:12020   */\n              dup3\n                /* \"#utility.yul\":12007:12025   */\n              add\n                /* \"#utility.yul\":11999:12025   */\n              swap1\n              pop\n                /* \"#utility.yul\":12035:12106   */\n              tag_451\n                /* \"#utility.yul\":12103:12104   */\n              0x00\n                /* \"#utility.yul\":12092:12101   */\n              dup4\n                /* \"#utility.yul\":12088:12105   */\n              add\n                /* \"#utility.yul\":12079:12085   */\n              dup7\n                /* \"#utility.yul\":12035:12106   */\n              tag_277\n              jump\t// in\n            tag_451:\n                /* \"#utility.yul\":12116:12188   */\n              tag_452\n                /* \"#utility.yul\":12184:12186   */\n              0x20\n                /* \"#utility.yul\":12173:12182   */\n              dup4\n                /* \"#utility.yul\":12169:12187   */\n              add\n                /* \"#utility.yul\":12160:12166   */\n              dup6\n                /* \"#utility.yul\":12116:12188   */\n              tag_277\n              jump\t// in\n            tag_452:\n                /* \"#utility.yul\":12198:12270   */\n              tag_453\n                /* \"#utility.yul\":12266:12268   */\n              0x40\n                /* \"#utility.yul\":12255:12264   */\n              dup4\n                /* \"#utility.yul\":12251:12269   */\n              add\n                /* \"#utility.yul\":12242:12248   */\n              dup5\n                /* \"#utility.yul\":12198:12270   */\n              tag_278\n              jump\t// in\n            tag_453:\n                /* \"#utility.yul\":11835:12277   */\n              swap5\n              swap4\n              pop\n              pop\n              pop\n              pop\n              jump\t// out\n                /* \"#utility.yul\":12283:12656   */\n            tag_122:\n                /* \"#utility.yul\":12426:12430   */\n              0x00\n                /* \"#utility.yul\":12464:12466   */\n              0x20\n                /* \"#utility.yul\":12453:12462   */\n              dup3\n                /* \"#utility.yul\":12449:12467   */\n              add\n                /* \"#utility.yul\":12441:12467   */\n              swap1\n              pop\n                /* \"#utility.yul\":12513:12522   */\n              dup2\n                /* \"#utility.yul\":12507:12511   */\n              dup2\n                /* \"#utility.yul\":12503:12523   */\n              sub\n                /* \"#utility.yul\":12499:12500   */\n              0x00\n                /* \"#utility.yul\":12488:12497   */\n              dup4\n                /* \"#utility.yul\":12484:12501   */\n              add\n                /* \"#utility.yul\":12477:12524   */\n              mstore\n                /* \"#utility.yul\":12541:12649   */\n              tag_455\n                /* \"#utility.yul\":12644:12648   */\n              dup2\n                /* \"#utility.yul\":12635:12641   */\n              dup5\n                /* \"#utility.yul\":12541:12649   */\n              tag_290\n              jump\t// in\n            tag_455:\n                /* \"#utility.yul\":12533:12649   */\n              swap1\n              pop\n                /* \"#utility.yul\":12283:12656   */\n              swap3\n              swap2\n              pop\n              pop\n              jump\t// out\n                /* \"#utility.yul\":12662:12842   */\n            tag_304:\n                /* \"#utility.yul\":12710:12787   */\n              0x4e487b7100000000000000000000000000000000000000000000000000000000\n                /* \"#utility.yul\":12707:12708   */\n              0x00\n                /* \"#utility.yul\":12700:12788   */\n              mstore\n                /* \"#utility.yul\":12807:12811   */\n              0x22\n                /* \"#utility.yul\":12804:12805   */\n              0x04\n                /* \"#utility.yul\":12797:12812   */\n              mstore\n                /* \"#utility.yul\":12831:12835   */\n              0x24\n                /* \"#utility.yul\":12828:12829   */\n              0x00\n                /* \"#utility.yul\":12821:12836   */\n              revert\n                /* \"#utility.yul\":12848:13168   */\n            tag_141:\n                /* \"#utility.yul\":12892:12898   */\n              0x00\n                /* \"#utility.yul\":12929:12930   */\n              0x02\n                /* \"#utility.yul\":12923:12927   */\n              dup3\n                /* \"#utility.yul\":12919:12931   */\n              div\n                /* \"#utility.yul\":12909:12931   */\n              swap1\n              pop\n                /* \"#utility.yul\":12976:12977   */\n              0x01\n                /* \"#utility.yul\":12970:12974   */\n              dup3\n                /* \"#utility.yul\":12966:12978   */\n              and\n                /* \"#utility.yul\":12997:13015   */\n              dup1\n                /* \"#utility.yul\":12987:13068   */\n              tag_458\n              jumpi\n                /* \"#utility.yul\":13053:13057   */\n              0x7f\n                /* \"#utility.yul\":13045:13051   */\n              dup3\n                /* \"#utility.yul\":13041:13058   */\n              and\n                /* \"#utility.yul\":13031:13058   */\n              swap2\n              pop\n                /* \"#utility.yul\":12987:13068   */\n            tag_458:\n                /* \"#utility.yul\":13115:13117   */\n              0x20\n                /* \"#utility.yul\":13107:13113   */\n              dup3\n                /* \"#utility.yul\":13104:13118   */\n              lt\n                /* \"#utility.yul\":13084:13102   */\n              dup2\n                /* \"#utility.yul\":13081:13119   */\n              sub\n                /* \"#utility.yul\":13078:13162   */\n              tag_459\n              jumpi\n                /* \"#utility.yul\":13134:13152   */\n              tag_460\n              tag_304\n              jump\t// in\n            tag_460:\n                /* \"#utility.yul\":13078:13162   */\n            tag_459:\n                /* \"#utility.yul\":12899:13168   */\n              pop\n                /* \"#utility.yul\":12848:13168   */\n              swap2\n              swap1\n              pop\n              jump\t// out\n                /* \"#utility.yul\":13174:13340   */\n            tag_305:\n                /* \"#utility.yul\":13314:13332   */\n              0x4e6f2062696420746f20726566756e6400000000000000000000000000000000\n                /* \"#utility.yul\":13310:13311   */\n              0x00\n                /* \"#utility.yul\":13302:13308   */\n              dup3\n                /* \"#utility.yul\":13298:13312   */\n              add\n                /* \"#utility.yul\":13291:13333   */\n              mstore\n                /* \"#utility.yul\":13174:13340   */\n              pop\n              jump\t// out\n                /* \"#utility.yul\":13346:13712   */\n            tag_306:\n                /* \"#utility.yul\":13488:13491   */\n              0x00\n                /* \"#utility.yul\":13509:13576   */\n              tag_463\n                /* \"#utility.yul\":13573:13575   */\n              0x10\n                /* \"#utility.yul\":13568:13571   */\n              dup4\n                /* \"#utility.yul\":13509:13576   */\n              tag_280\n              jump\t// in\n            tag_463:\n                /* \"#utility.yul\":13502:13576   */\n              swap2\n              pop\n                /* \"#utility.yul\":13585:13678   */\n              tag_464\n                /* \"#utility.yul\":13674:13677   */\n              dup3\n                /* \"#utility.yul\":13585:13678   */\n              tag_305\n              jump\t// in\n            tag_464:\n                /* \"#utility.yul\":13703:13705   */\n              0x20\n                /* \"#utility.yul\":13698:13701   */\n              dup3\n                /* \"#utility.yul\":13694:13706   */\n              add\n                /* \"#utility.yul\":13687:13706   */\n              swap1\n              pop\n                /* \"#utility.yul\":13346:13712   */\n              swap2\n              swap1\n              pop\n              jump\t// out\n                /* \"#utility.yul\":13718:14137   */\n            tag_157:\n                /* \"#utility.yul\":13884:13888   */\n              0x00\n                /* \"#utility.yul\":13922:13924   */\n              0x20\n                /* \"#utility.yul\":13911:13920   */\n              dup3\n                /* \"#utility.yul\":13907:13925   */\n              add\n                /* \"#utility.yul\":13899:13925   */\n              swap1\n              pop\n                /* \"#utility.yul\":13971:13980   */\n              dup2\n                /* \"#utility.yul\":13965:13969   */\n              dup2\n                /* \"#utility.yul\":13961:13981   */\n              sub\n                /* \"#utility.yul\":13957:13958   */\n              0x00\n                /* \"#utility.yul\":13946:13955   */\n              dup4\n                /* \"#utility.yul\":13942:13959   */\n              add\n                /* \"#utility.yul\":13935:13982   */\n              mstore\n                /* \"#utility.yul\":13999:14130   */\n              tag_466\n                /* \"#utility.yul\":14125:14129   */\n              dup2\n                /* \"#utility.yul\":13999:14130   */\n              tag_306\n              jump\t// in\n            tag_466:\n                /* \"#utility.yul\":13991:14130   */\n              swap1\n              pop\n                /* \"#utility.yul\":13718:14137   */\n              swap2\n              swap1\n              pop\n              jump\t// out\n                /* \"#utility.yul\":14143:14323   */\n            tag_307:\n                /* \"#utility.yul\":14191:14268   */\n              0x4e487b7100000000000000000000000000000000000000000000000000000000\n                /* \"#utility.yul\":14188:14189   */\n              0x00\n                /* \"#utility.yul\":14181:14269   */\n              mstore\n                /* \"#utility.yul\":14288:14292   */\n              0x11\n                /* \"#utility.yul\":14285:14286   */\n              0x04\n                /* \"#utility.yul\":14278:14293   */\n              mstore\n                /* \"#utility.yul\":14312:14316   */\n              0x24\n                /* \"#utility.yul\":14309:14310   */\n              0x00\n                /* \"#utility.yul\":14302:14317   */\n              revert\n                /* \"#utility.yul\":14329:14523   */\n            tag_180:\n                /* \"#utility.yul\":14369:14373   */\n              0x00\n                /* \"#utility.yul\":14389:14409   */\n              tag_469\n                /* \"#utility.yul\":14407:14408   */\n              dup3\n                /* \"#utility.yul\":14389:14409   */\n              tag_276\n              jump\t// in\n            tag_469:\n                /* \"#utility.yul\":14384:14409   */\n              swap2\n              pop\n                /* \"#utility.yul\":14423:14443   */\n              tag_470\n                /* \"#utility.yul\":14441:14442   */\n              dup4\n                /* \"#utility.yul\":14423:14443   */\n              tag_276\n              jump\t// in\n            tag_470:\n                /* \"#utility.yul\":14418:14443   */\n              swap3\n              pop\n                /* \"#utility.yul\":14467:14468   */\n              dup3\n                /* \"#utility.yul\":14464:14465   */\n              dup3\n                /* \"#utility.yul\":14460:14469   */\n              sub\n                /* \"#utility.yul\":14452:14469   */\n              swap1\n              pop\n                /* \"#utility.yul\":14491:14492   */\n              dup2\n                /* \"#utility.yul\":14485:14489   */\n              dup2\n                /* \"#utility.yul\":14482:14493   */\n              gt\n                /* \"#utility.yul\":14479:14516   */\n              iszero\n              tag_471\n              jumpi\n                /* \"#utility.yul\":14496:14514   */\n              tag_472\n              tag_307\n              jump\t// in\n            tag_472:\n                /* \"#utility.yul\":14479:14516   */\n            tag_471:\n                /* \"#utility.yul\":14329:14523   */\n              swap3\n              swap2\n              pop\n              pop\n              jump\t// out\n                /* \"#utility.yul\":14529:14709   */\n            tag_183:\n                /* \"#utility.yul\":14577:14654   */\n              0x4e487b7100000000000000000000000000000000000000000000000000000000\n                /* \"#utility.yul\":14574:14575   */\n              0x00\n                /* \"#utility.yul\":14567:14655   */\n              mstore\n                /* \"#utility.yul\":14674:14678   */\n              0x41\n                /* \"#utility.yul\":14671:14672   */\n              0x04\n                /* \"#utility.yul\":14664:14679   */\n              mstore\n                /* \"#utility.yul\":14698:14702   */\n              0x24\n                /* \"#utility.yul\":14695:14696   */\n              0x00\n                /* \"#utility.yul\":14688:14703   */\n              revert\n                /* \"#utility.yul\":14715:14895   */\n            tag_191:\n                /* \"#utility.yul\":14763:14840   */\n              0x4e487b7100000000000000000000000000000000000000000000000000000000\n                /* \"#utility.yul\":14760:14761   */\n              0x00\n                /* \"#utility.yul\":14753:14841   */\n              mstore\n                /* \"#utility.yul\":14860:14864   */\n              0x32\n                /* \"#utility.yul\":14857:14858   */\n              0x04\n                /* \"#utility.yul\":14850:14865   */\n              mstore\n                /* \"#utility.yul\":14884:14888   */\n              0x24\n                /* \"#utility.yul\":14881:14882   */\n              0x00\n                /* \"#utility.yul\":14874:14889   */\n              revert\n                /* \"#utility.yul\":14901:15134   */\n            tag_206:\n                /* \"#utility.yul\":14940:14943   */\n              0x00\n                /* \"#utility.yul\":14963:14987   */\n              tag_476\n                /* \"#utility.yul\":14981:14986   */\n              dup3\n                /* \"#utility.yul\":14963:14987   */\n              tag_276\n              jump\t// in\n            tag_476:\n                /* \"#utility.yul\":14954:14987   */\n              swap2\n              pop\n                /* \"#utility.yul\":15009:15075   */\n              0xffffffffffffffffffffffffffffffffffffffffffffffffffffffffffffffff\n                /* \"#utility.yul\":15002:15007   */\n              dup3\n                /* \"#utility.yul\":14999:15076   */\n              sub\n                /* \"#utility.yul\":14996:15099   */\n              tag_477\n              jumpi\n                /* \"#utility.yul\":15079:15097   */\n              tag_478\n              tag_307\n              jump\t// in\n            tag_478:\n                /* \"#utility.yul\":14996:15099   */\n            tag_477:\n                /* \"#utility.yul\":15126:15127   */\n              0x01\n                /* \"#utility.yul\":15119:15124   */\n              dup3\n                /* \"#utility.yul\":15115:15128   */\n              add\n                /* \"#utility.yul\":15108:15128   */\n              swap1\n              pop\n                /* \"#utility.yul\":14901:15134   */\n              swap2\n              swap1\n              pop\n              jump\t// out\n                /* \"#utility.yul\":15140:15303   */\n            tag_308:\n                /* \"#utility.yul\":15257:15268   */\n              0x00\n                /* \"#utility.yul\":15294:15297   */\n              dup2\n                /* \"#utility.yul\":15279:15297   */\n              swap1\n              pop\n                /* \"#utility.yul\":15140:15303   */\n              swap3\n              swap2\n              pop\n              pop\n              jump\t// out\n                /* \"#utility.yul\":15309:15425   */\n            tag_309:\n                /* \"#utility.yul\":15394:15418   */\n              tag_481\n                /* \"#utility.yul\":15412:15417   */\n              dup2\n                /* \"#utility.yul\":15394:15418   */\n              tag_271\n              jump\t// in\n            tag_481:\n                /* \"#utility.yul\":15389:15392   */\n              dup3\n                /* \"#utility.yul\":15382:15419   */\n              mstore\n                /* \"#utility.yul\":15309:15425   */\n              pop\n              pop\n              jump\t// out\n                /* \"#utility.yul\":15431:15626   */\n            tag_310:\n                /* \"#utility.yul\":15508:15518   */\n              0x00\n                /* \"#utility.yul\":15529:15583   */\n              tag_483\n                /* \"#utility.yul\":15579:15582   */\n              dup4\n                /* \"#utility.yul\":15571:15577   */\n              dup4\n                /* \"#utility.yul\":15529:15583   */\n              tag_309\n              jump\t// in\n            tag_483:\n                /* \"#utility.yul\":15615:15619   */\n              0x20\n                /* \"#utility.yul\":15610:15613   */\n              dup4\n                /* \"#utility.yul\":15606:15620   */\n              add\n                /* \"#utility.yul\":15592:15620   */\n              swap1\n              pop\n                /* \"#utility.yul\":15431:15626   */\n              swap3\n              swap2\n              pop\n              pop\n              jump\t// out\n                /* \"#utility.yul\":15662:16438   */\n            tag_311:\n                /* \"#utility.yul\":15799:15802   */\n              0x00\n                /* \"#utility.yul\":15828:15882   */\n              tag_485\n                /* \"#utility.yul\":15876:15881   */\n              dup3\n                /* \"#utility.yul\":15828:15882   */\n              tag_284\n              jump\t// in\n            tag_485:\n                /* \"#utility.yul\":15898:16002   */\n              tag_486\n                /* \"#utility.yul\":15995:16001   */\n              dup2\n                /* \"#utility.yul\":15990:15993   */\n              dup6\n                /* \"#utility.yul\":15898:16002   */\n              tag_308\n              jump\t// in\n            tag_486:\n                /* \"#utility.yul\":15891:16002   */\n              swap4\n              pop\n                /* \"#utility.yul\":16026:16082   */\n              tag_487\n                /* \"#utility.yul\":16076:16081   */\n              dup4\n                /* \"#utility.yul\":16026:16082   */\n              tag_286\n              jump\t// in\n            tag_487:\n                /* \"#utility.yul\":16105:16112   */\n              dup1\n                /* \"#utility.yul\":16136:16137   */\n              0x00\n                /* \"#utility.yul\":16121:16413   */\n            tag_488:\n                /* \"#utility.yul\":16146:16152   */\n              dup4\n                /* \"#utility.yul\":16143:16144   */\n              dup2\n                /* \"#utility.yul\":16140:16153   */\n              lt\n                /* \"#utility.yul\":16121:16413   */\n              iszero\n              tag_490\n              jumpi\n                /* \"#utility.yul\":16222:16228   */\n              dup2\n                /* \"#utility.yul\":16216:16229   */\n              mload\n                /* \"#utility.yul\":16249:16320   */\n              tag_491\n                /* \"#utility.yul\":16316:16319   */\n              dup9\n                /* \"#utility.yul\":16301:16314   */\n              dup3\n                /* \"#utility.yul\":16249:16320   */\n              tag_310\n              jump\t// in\n            tag_491:\n                /* \"#utility.yul\":16242:16320   */\n              swap8\n              pop\n                /* \"#utility.yul\":16343:16403   */\n              tag_492\n                /* \"#utility.yul\":16396:16402   */\n              dup4\n                /* \"#utility.yul\":16343:16403   */\n              tag_289\n              jump\t// in\n            tag_492:\n                /* \"#utility.yul\":16333:16403   */\n              swap3\n              pop\n                /* \"#utility.yul\":16181:16413   */\n              pop\n                /* \"#utility.yul\":16168:16169   */\n              0x01\n                /* \"#utility.yul\":16165:16166   */\n              dup2\n                /* \"#utility.yul\":16161:16170   */\n              add\n                /* \"#utility.yul\":16156:16170   */\n              swap1\n              pop\n                /* \"#utility.yul\":16121:16413   */\n              jump(tag_488)\n            tag_490:\n                /* \"#utility.yul\":16125:16139   */\n              pop\n                /* \"#utility.yul\":16429:16432   */\n              dup6\n                /* \"#utility.yul\":16422:16432   */\n              swap4\n              pop\n                /* \"#utility.yul\":15804:16438   */\n              pop\n              pop\n              pop\n                /* \"#utility.yul\":15662:16438   */\n              swap3\n              swap2\n              pop\n              pop\n              jump\t// out\n                /* \"#utility.yul\":16444:16779   */\n            tag_208:\n                /* \"#utility.yul\":16606:16609   */\n              0x00\n                /* \"#utility.yul\":16628:16753   */\n              tag_494\n                /* \"#utility.yul\":16749:16752   */\n              dup3\n                /* \"#utility.yul\":16740:16746   */\n              dup5\n                /* \"#utility.yul\":16628:16753   */\n              tag_311\n              jump\t// in\n            tag_494:\n                /* \"#utility.yul\":16621:16753   */\n              swap2\n              pop\n                /* \"#utility.yul\":16770:16773   */\n              dup2\n                /* \"#utility.yul\":16763:16773   */\n              swap1\n              pop\n                /* \"#utility.yul\":16444:16779   */\n              swap3\n              swap2\n              pop\n              pop\n              jump\t// out\n                /* \"#utility.yul\":16785:16896   */\n            tag_312:\n                /* \"#utility.yul\":16849:16855   */\n              0x00\n                /* \"#utility.yul\":16883:16888   */\n              dup2\n                /* \"#utility.yul\":16877:16889   */\n              sload\n                /* \"#utility.yul\":16867:16889   */\n              swap1\n              pop\n                /* \"#utility.yul\":16785:16896   */\n              swap2\n              swap1\n              pop\n              jump\t// out\n                /* \"#utility.yul\":16902:17058   */\n            tag_313:\n                /* \"#utility.yul\":16966:16970   */\n              0x00\n                /* \"#utility.yul\":16989:16992   */\n              dup2\n                /* \"#utility.yul\":16981:16992   */\n              swap1\n              pop\n                /* \"#utility.yul\":17012:17015   */\n              dup2\n                /* \"#utility.yul\":17009:17010   */\n              0x00\n                /* \"#utility.yul\":17002:17016   */\n              mstore\n                /* \"#utility.yul\":17046:17050   */\n              0x20\n                /* \"#utility.yul\":17043:17044   */\n              0x00\n                /* \"#utility.yul\":17033:17051   */\n              keccak256\n                /* \"#utility.yul\":17025:17051   */\n              swap1\n              pop\n                /* \"#utility.yul\":16902:17058   */\n              swap2\n              swap1\n              pop\n              jump\t// out\n                /* \"#utility.yul\":17064:17166   */\n            tag_314:\n                /* \"#utility.yul\":17106:17114   */\n              0x00\n                /* \"#utility.yul\":17153:17158   */\n              dup2\n                /* \"#utility.yul\":17150:17151   */\n              0x00\n                /* \"#utility.yul\":17146:17159   */\n              shr\n                /* \"#utility.yul\":17125:17159   */\n              swap1\n              pop\n                /* \"#utility.yul\":17064:17166   */\n              swap2\n              swap1\n              pop\n              jump\t// out\n                /* \"#utility.yul\":17172:17311   */\n            tag_315:\n                /* \"#utility.yul\":17222:17229   */\n              0x00\n                /* \"#utility.yul\":17262:17304   */\n              0xffffffffffffffffffffffffffffffffffffffff\n                /* \"#utility.yul\":17255:17260   */\n              dup3\n                /* \"#utility.yul\":17251:17305   */\n              and\n                /* \"#utility.yul\":17240:17305   */\n              swap1\n              pop\n                /* \"#utility.yul\":17172:17311   */\n              swap2\n              swap1\n              pop\n              jump\t// out\n                /* \"#utility.yul\":17317:17484   */\n            tag_316:\n                /* \"#utility.yul\":17387:17392   */\n              0x00\n                /* \"#utility.yul\":17412:17478   */\n              tag_500\n                /* \"#utility.yul\":17443:17477   */\n              tag_501\n                /* \"#utility.yul\":17466:17476   */\n              dup4\n                /* \"#utility.yul\":17443:17477   */\n              tag_314\n              jump\t// in\n            tag_501:\n                /* \"#utility.yul\":17412:17478   */\n              tag_315\n              jump\t// in\n            tag_500:\n                /* \"#utility.yul\":17403:17478   */\n              swap1\n              pop\n                /* \"#utility.yul\":17317:17484   */\n              swap2\n              swap1\n              pop\n              jump\t// out\n                /* \"#utility.yul\":17490:17635   */\n            tag_317:\n                /* \"#utility.yul\":17545:17550   */\n              0x00\n                /* \"#utility.yul\":17570:17628   */\n              tag_503\n                /* \"#utility.yul\":17622:17626   */\n              dup3\n                /* \"#utility.yul\":17616:17627   */\n              sload\n                /* \"#utility.yul\":17570:17628   */\n              tag_316\n              jump\t// in\n            tag_503:\n                /* \"#utility.yul\":17561:17628   */\n              swap1\n              pop\n                /* \"#utility.yul\":17490:17635   */\n              swap2\n              swap1\n              pop\n              jump\t// out\n                /* \"#utility.yul\":17641:17751   */\n            tag_318:\n                /* \"#utility.yul\":17708:17712   */\n              0x00\n                /* \"#utility.yul\":17740:17744   */\n              0x01\n                /* \"#utility.yul\":17735:17738   */\n              dup3\n                /* \"#utility.yul\":17731:17745   */\n              add\n                /* \"#utility.yul\":17723:17745   */\n              swap1\n              pop\n                /* \"#utility.yul\":17641:17751   */\n              swap2\n              swap1\n              pop\n              jump\t// out\n                /* \"#utility.yul\":17787:18582   */\n            tag_319:\n                /* \"#utility.yul\":17921:17924   */\n              0x00\n                /* \"#utility.yul\":17950:18001   */\n              tag_506\n                /* \"#utility.yul\":17995:18000   */\n              dup3\n                /* \"#utility.yul\":17950:18001   */\n              tag_312\n              jump\t// in\n            tag_506:\n                /* \"#utility.yul\":18017:18121   */\n              tag_507\n                /* \"#utility.yul\":18114:18120   */\n              dup2\n                /* \"#utility.yul\":18109:18112   */\n              dup6\n                /* \"#utility.yul\":18017:18121   */\n              tag_308\n              jump\t// in\n            tag_507:\n                /* \"#utility.yul\":18010:18121   */\n              swap4\n              pop\n                /* \"#utility.yul\":18145:18198   */\n              tag_508\n                /* \"#utility.yul\":18192:18197   */\n              dup4\n                /* \"#utility.yul\":18145:18198   */\n              tag_313\n              jump\t// in\n            tag_508:\n                /* \"#utility.yul\":18221:18228   */\n              dup1\n                /* \"#utility.yul\":18252:18253   */\n              0x00\n                /* \"#utility.yul\":18237:18557   */\n            tag_509:\n                /* \"#utility.yul\":18262:18268   */\n              dup4\n                /* \"#utility.yul\":18259:18260   */\n              dup2\n                /* \"#utility.yul\":18256:18269   */\n              lt\n                /* \"#utility.yul\":18237:18557   */\n              iszero\n              tag_511\n              jumpi\n                /* \"#utility.yul\":18332:18376   */\n              tag_512\n                /* \"#utility.yul\":18369:18375   */\n              dup3\n                /* \"#utility.yul\":18332:18376   */\n              tag_317\n              jump\t// in\n            tag_512:\n                /* \"#utility.yul\":18396:18467   */\n              tag_513\n                /* \"#utility.yul\":18463:18466   */\n              dup9\n                /* \"#utility.yul\":18448:18461   */\n              dup3\n                /* \"#utility.yul\":18396:18467   */\n              tag_310\n              jump\t// in\n            tag_513:\n                /* \"#utility.yul\":18389:18467   */\n              swap8\n              pop\n                /* \"#utility.yul\":18490:18547   */\n              tag_514\n                /* \"#utility.yul\":18540:18546   */\n              dup4\n                /* \"#utility.yul\":18490:18547   */\n              tag_318\n              jump\t// in\n            tag_514:\n                /* \"#utility.yul\":18480:18547   */\n              swap3\n              pop\n                /* \"#utility.yul\":18297:18557   */\n              pop\n                /* \"#utility.yul\":18284:18285   */\n              0x01\n                /* \"#utility.yul\":18281:18282   */\n              dup2\n                /* \"#utility.yul\":18277:18286   */\n              add\n                /* \"#utility.yul\":18272:18286   */\n              swap1\n              pop\n                /* \"#utility.yul\":18237:18557   */\n              jump(tag_509)\n            tag_511:\n                /* \"#utility.yul\":18241:18255   */\n              pop\n                /* \"#utility.yul\":18573:18576   */\n              dup6\n                /* \"#utility.yul\":18566:18576   */\n              swap4\n              pop\n                /* \"#utility.yul\":17926:18582   */\n              pop\n              pop\n              pop\n                /* \"#utility.yul\":17787:18582   */\n              swap3\n              swap2\n              pop\n              pop\n              jump\t// out\n                /* \"#utility.yul\":18588:18917   */\n            tag_210:\n                /* \"#utility.yul\":18747:18750   */\n              0x00\n                /* \"#utility.yul\":18769:18891   */\n              tag_516\n                /* \"#utility.yul\":18887:18890   */\n              dup3\n                /* \"#utility.yul\":18878:18884   */\n              dup5\n                /* \"#utility.yul\":18769:18891   */\n              tag_319\n              jump\t// in\n            tag_516:\n                /* \"#utility.yul\":18762:18891   */\n              swap2\n              pop\n                /* \"#utility.yul\":18908:18911   */\n              dup2\n                /* \"#utility.yul\":18901:18911   */\n              swap1\n              pop\n                /* \"#utility.yul\":18588:18917   */\n              swap3\n              swap2\n              pop\n              pop\n              jump\t// out\n                /* \"#utility.yul\":18923:19009   */\n            tag_320:\n                /* \"#utility.yul\":18958:18965   */\n              0x00\n                /* \"#utility.yul\":18998:19002   */\n              0xff\n                /* \"#utility.yul\":18991:18996   */\n              dup3\n                /* \"#utility.yul\":18987:19003   */\n              and\n                /* \"#utility.yul\":18976:19003   */\n              swap1\n              pop\n                /* \"#utility.yul\":18923:19009   */\n              swap2\n              swap1\n              pop\n              jump\t// out\n                /* \"#utility.yul\":19015:19203   */\n            tag_226:\n                /* \"#utility.yul\":19053:19056   */\n              0x00\n                /* \"#utility.yul\":19072:19090   */\n              tag_519\n                /* \"#utility.yul\":19088:19089   */\n              dup3\n                /* \"#utility.yul\":19072:19090   */\n              tag_320\n              jump\t// in\n            tag_519:\n                /* \"#utility.yul\":19067:19090   */\n              swap2\n              pop\n                /* \"#utility.yul\":19104:19122   */\n              tag_520\n                /* \"#utility.yul\":19120:19121   */\n              dup4\n                /* \"#utility.yul\":19104:19122   */\n              tag_320\n              jump\t// in\n            tag_520:\n                /* \"#utility.yul\":19099:19122   */\n              swap3\n              pop\n                /* \"#utility.yul\":19145:19146   */\n              dup3\n                /* \"#utility.yul\":19142:19143   */\n              dup3\n                /* \"#utility.yul\":19138:19147   */\n              add\n                /* \"#utility.yul\":19131:19147   */\n              swap1\n              pop\n                /* \"#utility.yul\":19168:19172   */\n              0xff\n                /* \"#utility.yul\":19163:19166   */\n              dup2\n                /* \"#utility.yul\":19160:19173   */\n              gt\n                /* \"#utility.yul\":19157:19196   */\n              iszero\n              tag_521\n              jumpi\n                /* \"#utility.yul\":19176:19194   */\n              tag_522\n              tag_307\n              jump\t// in\n            tag_522:\n                /* \"#utility.yul\":19157:19196   */\n            tag_521:\n                /* \"#utility.yul\":19015:19203   */\n              swap3\n              swap2\n              pop\n              pop\n              jump\t// out\n                /* \"#utility.yul\":19209:19619   */\n            tag_229:\n                /* \"#utility.yul\":19249:19256   */\n              0x00\n                /* \"#utility.yul\":19272:19292   */\n              tag_524\n                /* \"#utility.yul\":19290:19291   */\n              dup3\n                /* \"#utility.yul\":19272:19292   */\n              tag_276\n              jump\t// in\n            tag_524:\n                /* \"#utility.yul\":19267:19292   */\n              swap2\n              pop\n                /* \"#utility.yul\":19306:19326   */\n              tag_525\n                /* \"#utility.yul\":19324:19325   */\n              dup4\n                /* \"#utility.yul\":19306:19326   */\n              tag_276\n              jump\t// in\n            tag_525:\n                /* \"#utility.yul\":19301:19326   */\n              swap3\n              pop\n                /* \"#utility.yul\":19361:19362   */\n              dup3\n                /* \"#utility.yul\":19358:19359   */\n              dup3\n                /* \"#utility.yul\":19354:19363   */\n              mul\n                /* \"#utility.yul\":19383:19413   */\n              tag_526\n                /* \"#utility.yul\":19401:19412   */\n              dup2\n                /* \"#utility.yul\":19383:19413   */\n              tag_276\n              jump\t// in\n            tag_526:\n                /* \"#utility.yul\":19372:19413   */\n              swap2\n              pop\n                /* \"#utility.yul\":19562:19563   */\n              dup3\n                /* \"#utility.yul\":19553:19560   */\n              dup3\n                /* \"#utility.yul\":19549:19564   */\n              div\n                /* \"#utility.yul\":19546:19547   */\n              dup5\n                /* \"#utility.yul\":19543:19565   */\n              eq\n                /* \"#utility.yul\":19523:19524   */\n              dup4\n                /* \"#utility.yul\":19516:19525   */\n              iszero\n                /* \"#utility.yul\":19496:19579   */\n              or\n                /* \"#utility.yul\":19473:19612   */\n              tag_527\n              jumpi\n                /* \"#utility.yul\":19592:19610   */\n              tag_528\n              tag_307\n              jump\t// in\n            tag_528:\n                /* \"#utility.yul\":19473:19612   */\n            tag_527:\n                /* \"#utility.yul\":19257:19619   */\n              pop\n                /* \"#utility.yul\":19209:19619   */\n              swap3\n              swap2\n              pop\n              pop\n              jump\t// out\n                /* \"#utility.yul\":19625:19797   */\n            tag_321:\n                /* \"#utility.yul\":19765:19789   */\n              0x41756374696f6e20616c726561647920636c6f73656400000000000000000000\n                /* \"#utility.yul\":19761:19762   */\n              0x00\n                /* \"#utility.yul\":19753:19759   */\n              dup3\n                /* \"#utility.yul\":19749:19763   */\n              add\n                /* \"#utility.yul\":19742:19790   */\n              mstore\n                /* \"#utility.yul\":19625:19797   */\n              pop\n              jump\t// out\n                /* \"#utility.yul\":19803:20169   */\n            tag_322:\n                /* \"#utility.yul\":19945:19948   */\n              0x00\n                /* \"#utility.yul\":19966:20033   */\n              tag_531\n                /* \"#utility.yul\":20030:20032   */\n              0x16\n                /* \"#utility.yul\":20025:20028   */\n              dup4\n                /* \"#utility.yul\":19966:20033   */\n              tag_280\n              jump\t// in\n            tag_531:\n                /* \"#utility.yul\":19959:20033   */\n              swap2\n              pop\n                /* \"#utility.yul\":20042:20135   */\n              tag_532\n                /* \"#utility.yul\":20131:20134   */\n              dup3\n                /* \"#utility.yul\":20042:20135   */\n              tag_321\n              jump\t// in\n            tag_532:\n                /* \"#utility.yul\":20160:20162   */\n              0x20\n                /* \"#utility.yul\":20155:20158   */\n              dup3\n                /* \"#utility.yul\":20151:20163   */\n              add\n                /* \"#utility.yul\":20144:20163   */\n              swap1\n              pop\n                /* \"#utility.yul\":19803:20169   */\n              swap2\n              swap1\n              pop\n              jump\t// out\n                /* \"#utility.yul\":20175:20594   */\n            tag_235:\n                /* \"#utility.yul\":20341:20345   */\n              0x00\n                /* \"#utility.yul\":20379:20381   */\n              0x20\n                /* \"#utility.yul\":20368:20377   */\n              dup3\n                /* \"#utility.yul\":20364:20382   */\n              add\n                /* \"#utility.yul\":20356:20382   */\n              swap1\n              pop\n                /* \"#utility.yul\":20428:20437   */\n              dup2\n                /* \"#utility.yul\":20422:20426   */\n              dup2\n                /* \"#utility.yul\":20418:20438   */\n              sub\n                /* \"#utility.yul\":20414:20415   */\n              0x00\n                /* \"#utility.yul\":20403:20412   */\n              dup4\n                /* \"#utility.yul\":20399:20416   */\n              add\n                /* \"#utility.yul\":20392:20439   */\n              mstore\n                /* \"#utility.yul\":20456:20587   */\n              tag_534\n                /* \"#utility.yul\":20582:20586   */\n              dup2\n                /* \"#utility.yul\":20456:20587   */\n              tag_322\n              jump\t// in\n            tag_534:\n                /* \"#utility.yul\":20448:20587   */\n              swap1\n              pop\n                /* \"#utility.yul\":20175:20594   */\n              swap2\n              swap1\n              pop\n              jump\t// out\n                /* \"#utility.yul\":20600:20770   */\n            tag_323:\n                /* \"#utility.yul\":20740:20762   */\n              0x496e73756666696369656e742062616c616e6365000000000000000000000000\n                /* \"#utility.yul\":20736:20737   */\n              0x00\n                /* \"#utility.yul\":20728:20734   */\n              dup3\n                /* \"#utility.yul\":20724:20738   */\n              add\n                /* \"#utility.yul\":20717:20763   */\n              mstore\n                /* \"#utility.yul\":20600:20770   */\n              pop\n              jump\t// out\n                /* \"#utility.yul\":20776:21142   */\n            tag_324:\n                /* \"#utility.yul\":20918:20921   */\n              0x00\n                /* \"#utility.yul\":20939:21006   */\n              tag_537\n                /* \"#utility.yul\":21003:21005   */\n              0x14\n                /* \"#utility.yul\":20998:21001   */\n              dup4\n                /* \"#utility.yul\":20939:21006   */\n              tag_280\n              jump\t// in\n            tag_537:\n                /* \"#utility.yul\":20932:21006   */\n              swap2\n              pop\n                /* \"#utility.yul\":21015:21108   */\n              tag_538\n                /* \"#utility.yul\":21104:21107   */\n              dup3\n                /* \"#utility.yul\":21015:21108   */\n              tag_323\n              jump\t// in\n            tag_538:\n                /* \"#utility.yul\":21133:21135   */\n              0x20\n                /* \"#utility.yul\":21128:21131   */\n              dup3\n                /* \"#utility.yul\":21124:21136   */\n              add\n                /* \"#utility.yul\":21117:21136   */\n              swap1\n              pop\n                /* \"#utility.yul\":20776:21142   */\n              swap2\n              swap1\n              pop\n              jump\t// out\n                /* \"#utility.yul\":21148:21567   */\n            tag_238:\n                /* \"#utility.yul\":21314:21318   */\n              0x00\n                /* \"#utility.yul\":21352:21354   */\n              0x20\n                /* \"#utility.yul\":21341:21350   */\n              dup3\n                /* \"#utility.yul\":21337:21355   */\n              add\n                /* \"#utility.yul\":21329:21355   */\n              swap1\n              pop\n                /* \"#utility.yul\":21401:21410   */\n              dup2\n                /* \"#utility.yul\":21395:21399   */\n              dup2\n                /* \"#utility.yul\":21391:21411   */\n              sub\n                /* \"#utility.yul\":21387:21388   */\n              0x00\n                /* \"#utility.yul\":21376:21385   */\n              dup4\n                /* \"#utility.yul\":21372:21389   */\n              add\n                /* \"#utility.yul\":21365:21412   */\n              mstore\n                /* \"#utility.yul\":21429:21560   */\n              tag_540\n                /* \"#utility.yul\":21555:21559   */\n              dup2\n                /* \"#utility.yul\":21429:21560   */\n              tag_324\n              jump\t// in\n            tag_540:\n                /* \"#utility.yul\":21421:21560   */\n              swap1\n              pop\n                /* \"#utility.yul\":21148:21567   */\n              swap2\n              swap1\n              pop\n              jump\t// out\n                /* \"#utility.yul\":21573:21750   */\n            tag_325:\n                /* \"#utility.yul\":21713:21742   */\n              0x796f752063616e27742062757920796f7572206f776e20646174610000000000\n                /* \"#utility.yul\":21709:21710   */\n              0x00\n                /* \"#utility.yul\":21701:21707   */\n              dup3\n                /* \"#utility.yul\":21697:21711   */\n              add\n                /* \"#utility.yul\":21690:21743   */\n              mstore\n                /* \"#utility.yul\":21573:21750   */\n              pop\n              jump\t// out\n                /* \"#utility.yul\":21756:22122   */\n            tag_326:\n                /* \"#utility.yul\":21898:21901   */\n              0x00\n                /* \"#utility.yul\":21919:21986   */\n              tag_543\n                /* \"#utility.yul\":21983:21985   */\n              0x1b\n                /* \"#utility.yul\":21978:21981   */\n              dup4\n                /* \"#utility.yul\":21919:21986   */\n              tag_280\n              jump\t// in\n            tag_543:\n                /* \"#utility.yul\":21912:21986   */\n              swap2\n              pop\n                /* \"#utility.yul\":21995:22088   */\n              tag_544\n                /* \"#utility.yul\":22084:22087   */\n              dup3\n                /* \"#utility.yul\":21995:22088   */\n              tag_325\n              jump\t// in\n            tag_544:\n                /* \"#utility.yul\":22113:22115   */\n              0x20\n                /* \"#utility.yul\":22108:22111   */\n              dup3\n                /* \"#utility.yul\":22104:22116   */\n              add\n                /* \"#utility.yul\":22097:22116   */\n              swap1\n              pop\n                /* \"#utility.yul\":21756:22122   */\n              swap2\n              swap1\n              pop\n              jump\t// out\n                /* \"#utility.yul\":22128:22547   */\n            tag_249:\n                /* \"#utility.yul\":22294:22298   */\n              0x00\n                /* \"#utility.yul\":22332:22334   */\n              0x20\n                /* \"#utility.yul\":22321:22330   */\n              dup3\n                /* \"#utility.yul\":22317:22335   */\n              add\n                /* \"#utility.yul\":22309:22335   */\n              swap1\n              pop\n                /* \"#utility.yul\":22381:22390   */\n              dup2\n                /* \"#utility.yul\":22375:22379   */\n              dup2\n                /* \"#utility.yul\":22371:22391   */\n              sub\n                /* \"#utility.yul\":22367:22368   */\n              0x00\n                /* \"#utility.yul\":22356:22365   */\n              dup4\n                /* \"#utility.yul\":22352:22369   */\n              add\n                /* \"#utility.yul\":22345:22392   */\n              mstore\n                /* \"#utility.yul\":22409:22540   */\n              tag_546\n                /* \"#utility.yul\":22535:22539   */\n              dup2\n                /* \"#utility.yul\":22409:22540   */\n              tag_326\n              jump\t// in\n            tag_546:\n                /* \"#utility.yul\":22401:22540   */\n              swap1\n              pop\n                /* \"#utility.yul\":22128:22547   */\n              swap2\n              swap1\n              pop\n              jump\t// out\n                /* \"#utility.yul\":22553:22780   */\n            tag_327:\n                /* \"#utility.yul\":22693:22727   */\n              0x796f752063616e277420636f6e7472696275746520746f20616e20656e646564\n                /* \"#utility.yul\":22689:22690   */\n              0x00\n                /* \"#utility.yul\":22681:22687   */\n              dup3\n                /* \"#utility.yul\":22677:22691   */\n              add\n                /* \"#utility.yul\":22670:22728   */\n              mstore\n                /* \"#utility.yul\":22762:22772   */\n              0x2061756374696f6e000000000000000000000000000000000000000000000000\n                /* \"#utility.yul\":22757:22759   */\n              0x20\n                /* \"#utility.yul\":22749:22755   */\n              dup3\n                /* \"#utility.yul\":22745:22760   */\n              add\n                /* \"#utility.yul\":22738:22773   */\n              mstore\n                /* \"#utility.yul\":22553:22780   */\n              pop\n              jump\t// out\n                /* \"#utility.yul\":22786:23152   */\n            tag_328:\n                /* \"#utility.yul\":22928:22931   */\n              0x00\n                /* \"#utility.yul\":22949:23016   */\n              tag_549\n                /* \"#utility.yul\":23013:23015   */\n              0x28\n                /* \"#utility.yul\":23008:23011   */\n              dup4\n                /* \"#utility.yul\":22949:23016   */\n              tag_280\n              jump\t// in\n            tag_549:\n                /* \"#utility.yul\":22942:23016   */\n              swap2\n              pop\n                /* \"#utility.yul\":23025:23118   */\n              tag_550\n                /* \"#utility.yul\":23114:23117   */\n              dup3\n                /* \"#utility.yul\":23025:23118   */\n              tag_327\n              jump\t// in\n            tag_550:\n                /* \"#utility.yul\":23143:23145   */\n              0x40\n                /* \"#utility.yul\":23138:23141   */\n              dup3\n                /* \"#utility.yul\":23134:23146   */\n              add\n                /* \"#utility.yul\":23127:23146   */\n              swap1\n              pop\n                /* \"#utility.yul\":22786:23152   */\n              swap2\n              swap1\n              pop\n              jump\t// out\n                /* \"#utility.yul\":23158:23577   */\n            tag_252:\n                /* \"#utility.yul\":23324:23328   */\n              0x00\n                /* \"#utility.yul\":23362:23364   */\n              0x20\n                /* \"#utility.yul\":23351:23360   */\n              dup3\n                /* \"#utility.yul\":23347:23365   */\n              add\n                /* \"#utility.yul\":23339:23365   */\n              swap1\n              pop\n                /* \"#utility.yul\":23411:23420   */\n              dup2\n                /* \"#utility.yul\":23405:23409   */\n              dup2\n                /* \"#utility.yul\":23401:23421   */\n              sub\n                /* \"#utility.yul\":23397:23398   */\n              0x00\n                /* \"#utility.yul\":23386:23395   */\n              dup4\n                /* \"#utility.yul\":23382:23399   */\n              add\n                /* \"#utility.yul\":23375:23422   */\n              mstore\n                /* \"#utility.yul\":23439:23570   */\n              tag_552\n                /* \"#utility.yul\":23565:23569   */\n              dup2\n                /* \"#utility.yul\":23439:23570   */\n              tag_328\n              jump\t// in\n            tag_552:\n                /* \"#utility.yul\":23431:23570   */\n              swap1\n              pop\n                /* \"#utility.yul\":23158:23577   */\n              swap2\n              swap1\n              pop\n              jump\t// out\n                /* \"#utility.yul\":23583:23774   */\n            tag_254:\n                /* \"#utility.yul\":23623:23626   */\n              0x00\n                /* \"#utility.yul\":23642:23662   */\n              tag_554\n                /* \"#utility.yul\":23660:23661   */\n              dup3\n                /* \"#utility.yul\":23642:23662   */\n              tag_276\n              jump\t// in\n            tag_554:\n                /* \"#utility.yul\":23637:23662   */\n              swap2\n              pop\n                /* \"#utility.yul\":23676:23696   */\n              tag_555\n                /* \"#utility.yul\":23694:23695   */\n              dup4\n                /* \"#utility.yul\":23676:23696   */\n              tag_276\n              jump\t// in\n            tag_555:\n                /* \"#utility.yul\":23671:23696   */\n              swap3\n              pop\n                /* \"#utility.yul\":23719:23720   */\n              dup3\n                /* \"#utility.yul\":23716:23717   */\n              dup3\n                /* \"#utility.yul\":23712:23721   */\n              add\n                /* \"#utility.yul\":23705:23721   */\n              swap1\n              pop\n                /* \"#utility.yul\":23740:23743   */\n              dup1\n                /* \"#utility.yul\":23737:23738   */\n              dup3\n                /* \"#utility.yul\":23734:23744   */\n              gt\n                /* \"#utility.yul\":23731:23767   */\n              iszero\n              tag_556\n              jumpi\n                /* \"#utility.yul\":23747:23765   */\n              tag_557\n              tag_307\n              jump\t// in\n            tag_557:\n                /* \"#utility.yul\":23731:23767   */\n            tag_556:\n                /* \"#utility.yul\":23583:23774   */\n              swap3\n              swap2\n              pop\n              pop\n              jump\t// out\n                /* \"#utility.yul\":23780:23947   */\n            tag_329:\n                /* \"#utility.yul\":23920:23939   */\n              0x4269642062656c6f77206d696e696d756d000000000000000000000000000000\n                /* \"#utility.yul\":23916:23917   */\n              0x00\n                /* \"#utility.yul\":23908:23914   */\n              dup3\n                /* \"#utility.yul\":23904:23918   */\n              add\n                /* \"#utility.yul\":23897:23940   */\n              mstore\n                /* \"#utility.yul\":23780:23947   */\n              pop\n              jump\t// out\n                /* \"#utility.yul\":23953:24319   */\n            tag_330:\n                /* \"#utility.yul\":24095:24098   */\n              0x00\n                /* \"#utility.yul\":24116:24183   */\n              tag_560\n                /* \"#utility.yul\":24180:24182   */\n              0x11\n                /* \"#utility.yul\":24175:24178   */\n              dup4\n                /* \"#utility.yul\":24116:24183   */\n              tag_280\n              jump\t// in\n            tag_560:\n                /* \"#utility.yul\":24109:24183   */\n              swap2\n              pop\n                /* \"#utility.yul\":24192:24285   */\n              tag_561\n                /* \"#utility.yul\":24281:24284   */\n              dup3\n                /* \"#utility.yul\":24192:24285   */\n              tag_329\n              jump\t// in\n            tag_561:\n                /* \"#utility.yul\":24310:24312   */\n              0x20\n                /* \"#utility.yul\":24305:24308   */\n              dup3\n                /* \"#utility.yul\":24301:24313   */\n              add\n                /* \"#utility.yul\":24294:24313   */\n              swap1\n              pop\n                /* \"#utility.yul\":23953:24319   */\n              swap2\n              swap1\n              pop\n              jump\t// out\n                /* \"#utility.yul\":24325:24744   */\n            tag_257:\n                /* \"#utility.yul\":24491:24495   */\n              0x00\n                /* \"#utility.yul\":24529:24531   */\n              0x20\n                /* \"#utility.yul\":24518:24527   */\n              dup3\n                /* \"#utility.yul\":24514:24532   */\n              add\n                /* \"#utility.yul\":24506:24532   */\n              swap1\n              pop\n                /* \"#utility.yul\":24578:24587   */\n              dup2\n                /* \"#utility.yul\":24572:24576   */\n              dup2\n                /* \"#utility.yul\":24568:24588   */\n              sub\n                /* \"#utility.yul\":24564:24565   */\n              0x00\n                /* \"#utility.yul\":24553:24562   */\n              dup4\n                /* \"#utility.yul\":24549:24566   */\n              add\n                /* \"#utility.yul\":24542:24589   */\n              mstore\n                /* \"#utility.yul\":24606:24737   */\n              tag_563\n                /* \"#utility.yul\":24732:24736   */\n              dup2\n                /* \"#utility.yul\":24606:24737   */\n              tag_330\n              jump\t// in\n            tag_563:\n                /* \"#utility.yul\":24598:24737   */\n              swap1\n              pop\n                /* \"#utility.yul\":24325:24744   */\n              swap2\n              swap1\n              pop\n              jump\t// out\n                /* \"#utility.yul\":24750:24975   */\n            tag_331:\n                /* \"#utility.yul\":24890:24924   */\n              0x546865726520616c7265616479206973206120686967686572206f7220657175\n                /* \"#utility.yul\":24886:24887   */\n              0x00\n                /* \"#utility.yul\":24878:24884   */\n              dup3\n                /* \"#utility.yul\":24874:24888   */\n              add\n                /* \"#utility.yul\":24867:24925   */\n              mstore\n                /* \"#utility.yul\":24959:24967   */\n              0x616c206269640000000000000000000000000000000000000000000000000000\n                /* \"#utility.yul\":24954:24956   */\n              0x20\n                /* \"#utility.yul\":24946:24952   */\n              dup3\n                /* \"#utility.yul\":24942:24957   */\n              add\n                /* \"#utility.yul\":24935:24968   */\n              mstore\n                /* \"#utility.yul\":24750:24975   */\n              pop\n              jump\t// out\n                /* \"#utility.yul\":24981:25347   */\n            tag_332:\n                /* \"#utility.yul\":25123:25126   */\n              0x00\n                /* \"#utility.yul\":25144:25211   */\n              tag_566\n                /* \"#utility.yul\":25208:25210   */\n              0x26\n                /* \"#utility.yul\":25203:25206   */\n              dup4\n                /* \"#utility.yul\":25144:25211   */\n              tag_280\n              jump\t// in\n            tag_566:\n                /* \"#utility.yul\":25137:25211   */\n              swap2\n              pop\n                /* \"#utility.yul\":25220:25313   */\n              tag_567\n                /* \"#utility.yul\":25309:25312   */\n              dup3\n                /* \"#utility.yul\":25220:25313   */\n              tag_331\n              jump\t// in\n            tag_567:\n                /* \"#utility.yul\":25338:25340   */\n              0x40\n                /* \"#utility.yul\":25333:25336   */\n              dup3\n                /* \"#utility.yul\":25329:25341   */\n              add\n                /* \"#utility.yul\":25322:25341   */\n              swap1\n              pop\n                /* \"#utility.yul\":24981:25347   */\n              swap2\n              swap1\n              pop\n              jump\t// out\n                /* \"#utility.yul\":25353:25772   */\n            tag_260:\n                /* \"#utility.yul\":25519:25523   */\n              0x00\n                /* \"#utility.yul\":25557:25559   */\n              0x20\n                /* \"#utility.yul\":25546:25555   */\n              dup3\n                /* \"#utility.yul\":25542:25560   */\n              add\n                /* \"#utility.yul\":25534:25560   */\n              swap1\n              pop\n                /* \"#utility.yul\":25606:25615   */\n              dup2\n                /* \"#utility.yul\":25600:25604   */\n              dup2\n                /* \"#utility.yul\":25596:25616   */\n              sub\n                /* \"#utility.yul\":25592:25593   */\n              0x00\n                /* \"#utility.yul\":25581:25590   */\n              dup4\n                /* \"#utility.yul\":25577:25594   */\n              add\n                /* \"#utility.yul\":25570:25617   */\n              mstore\n                /* \"#utility.yul\":25634:25765   */\n              tag_569\n                /* \"#utility.yul\":25760:25764   */\n              dup2\n                /* \"#utility.yul\":25634:25765   */\n              tag_332\n              jump\t// in\n            tag_569:\n                /* \"#utility.yul\":25626:25765   */\n              swap1\n              pop\n                /* \"#utility.yul\":25353:25772   */\n              swap2\n              swap1\n              pop\n              jump\t// out\n\n            auxdata: 0xa2646970667358221220fe3039a573254d3ae10c6a3b7b1fef640e8638366ed011fad8a394bf59e0162664736f6c634300081e0033\n        }\n    }\n\n    auxdata: 0xa26469706673582212207f0cfd72fb15599330b3c982be7ac72e6675d7300b63184503f58a3ca1a22bc364736f6c634300081e0033\n}\n","bytecode":{"linkReferences":{},"object":"6080604052348015600e575f5ffd5b506131c88061001c5f395ff3fe60806040526004361061003e575f3560e01c8063339d50a5146100425780634acb9d4f1461007e57806375da6ba0146100a8578063dc117416146100b2575b5f5ffd5b34801561004d575f5ffd5b506100686004803603810190610063919061036d565b6100da565b60405161007591906103d7565b60405180910390f35b348015610089575f5ffd5b50610092610114565b60405161009f91906104a7565b60405180910390f35b6100b061019e565b005b3480156100bd575f5ffd5b506100d860048036038101906100d39190610603565b61025e565b005b5f81815481106100e8575f80fd5b905f5260205f20015f915054906101000a900473ffffffffffffffffffffffffffffffffffffffff1681565b60605f80548060200260200160405190810160405280929190818152602001828054801561019457602002820191905f5260205f20905b815f9054906101000a900473ffffffffffffffffffffffffffffffffffffffff1673ffffffffffffffffffffffffffffffffffffffff168152602001906001019080831161014b575b5050505050905090565b5f5f8054905090505f5f90505b8181101561025a575f5f82815481106101c7576101c661069f565b5b905f5260205f20015f9054906101000a900473ffffffffffffffffffffffffffffffffffffffff1690508073ffffffffffffffffffffffffffffffffffffffff16638d2a1dad6040518163ffffffff1660e01b81526004015f604051808303815f87803b158015610236575f5ffd5b505af1158015610248573d5f5f3e3d5ffd5b505050505080806001019150506101ab565b5050565b5f4282603c61026d91906106f9565b610277919061073a565b90505f858585338560405161028b9061031c565b6102999594939291906107fc565b604051809103905ff0801580156102b2573d5f5f3e3d5ffd5b5090505f81908060018154018082558091505060019003905f5260205f20015f9091909190916101000a81548173ffffffffffffffffffffffffffffffffffffffff021916908373ffffffffffffffffffffffffffffffffffffffff160217905550505050505050565b6129378061085c83390190565b5f604051905090565b5f5ffd5b5f5ffd5b5f819050919050565b61034c8161033a565b8114610356575f5ffd5b50565b5f8135905061036781610343565b92915050565b5f6020828403121561038257610381610332565b5b5f61038f84828501610359565b91505092915050565b5f73ffffffffffffffffffffffffffffffffffffffff82169050919050565b5f6103c182610398565b9050919050565b6103d1816103b7565b82525050565b5f6020820190506103ea5f8301846103c8565b92915050565b5f81519050919050565b5f82825260208201905092915050565b5f819050602082019050919050565b610422816103b7565b82525050565b5f6104338383610419565b60208301905092915050565b5f602082019050919050565b5f610455826103f0565b61045f81856103fa565b935061046a8361040a565b805f5b8381101561049a5781516104818882610428565b975061048c8361043f565b92505060018101905061046d565b5085935050505092915050565b5f6020820190508181035f8301526104bf818461044b565b905092915050565b5f5ffd5b5f5ffd5b5f601f19601f8301169050919050565b7f4e487b71000000000000000000000000000000000000000000000000000000005f52604160045260245ffd5b610515826104cf565b810181811067ffffffffffffffff82111715610534576105336104df565b5b80604052505050565b5f610546610329565b9050610552828261050c565b919050565b5f67ffffffffffffffff821115610571576105706104df565b5b61057a826104cf565b9050602081019050919050565b828183375f83830152505050565b5f6105a76105a284610557565b61053d565b9050828152602081018484840111156105c3576105c26104cb565b5b6105ce848285610587565b509392505050565b5f82601f8301126105ea576105e96104c7565b5b81356105fa848260208601610595565b91505092915050565b5f5f5f5f6080858703121561061b5761061a610332565b5b5f61062887828801610359565b945050602085013567ffffffffffffffff81111561064957610648610336565b5b610655878288016105d6565b935050604085013567ffffffffffffffff81111561067657610675610336565b5b610682878288016105d6565b925050606061069387828801610359565b91505092959194509250565b7f4e487b71000000000000000000000000000000000000000000000000000000005f52603260045260245ffd5b7f4e487b71000000000000000000000000000000000000000000000000000000005f52601160045260245ffd5b5f6107038261033a565b915061070e8361033a565b925082820261071c8161033a565b91508282048414831517610733576107326106cc565b5b5092915050565b5f6107448261033a565b915061074f8361033a565b9250828201905080821115610767576107666106cc565b5b92915050565b6107768161033a565b82525050565b5f81519050919050565b5f82825260208201905092915050565b8281835e5f83830152505050565b5f6107ae8261077c565b6107b88185610786565b93506107c8818560208601610796565b6107d1816104cf565b840191505092915050565b5f6107e682610398565b9050919050565b6107f6816107dc565b82525050565b5f60a08201905061080f5f83018861076d565b818103602083015261082181876107a4565b9050818103604083015261083581866107a4565b905061084460608301856107ed565b610851608083018461076d565b969550505050505056fe608060405234801561000f575f5ffd5b506040516129373803806129378339818101604052810190610031919061029c565b8160015f6101000a81548173ffffffffffffffffffffffffffffffffffffffff021916908373ffffffffffffffffffffffffffffffffffffffff1602179055508460028190555083600390816100879190610552565b5082600490816100979190610552565b5080600b819055505f600c5f6101000a81548160ff0219169083151502179055505050505050610621565b5f604051905090565b5f5ffd5b5f5ffd5b5f819050919050565b6100e5816100d3565b81146100ef575f5ffd5b50565b5f81519050610100816100dc565b92915050565b5f5ffd5b5f5ffd5b5f601f19601f8301169050919050565b7f4e487b71000000000000000000000000000000000000000000000000000000005f52604160045260245ffd5b6101548261010e565b810181811067ffffffffffffffff821117156101735761017261011e565b5b80604052505050565b5f6101856100c2565b9050610191828261014b565b919050565b5f67ffffffffffffffff8211156101b0576101af61011e565b5b6101b98261010e565b9050602081019050919050565b8281835e5f83830152505050565b5f6101e66101e184610196565b61017c565b9050828152602081018484840111156102025761020161010a565b5b61020d8482856101c6565b509392505050565b5f82601f83011261022957610228610106565b5b81516102398482602086016101d4565b91505092915050565b5f73ffffffffffffffffffffffffffffffffffffffff82169050919050565b5f61026b82610242565b9050919050565b61027b81610261565b8114610285575f5ffd5b50565b5f8151905061029681610272565b92915050565b5f5f5f5f5f60a086880312156102b5576102b46100cb565b5b5f6102c2888289016100f2565b955050602086015167ffffffffffffffff8111156102e3576102e26100cf565b5b6102ef88828901610215565b945050604086015167ffffffffffffffff8111156103105761030f6100cf565b5b61031c88828901610215565b935050606061032d88828901610288565b925050608061033e888289016100f2565b9150509295509295909350565b5f81519050919050565b7f4e487b71000000000000000000000000000000000000000000000000000000005f52602260045260245ffd5b5f600282049050600182168061039957607f821691505b6020821081036103ac576103ab610355565b5b50919050565b5f819050815f5260205f209050919050565b5f6020601f8301049050919050565b5f82821b905092915050565b5f6008830261040e7fffffffffffffffffffffffffffffffffffffffffffffffffffffffffffffffff826103d3565b61041886836103d3565b95508019841693508086168417925050509392505050565b5f819050919050565b5f61045361044e610449846100d3565b610430565b6100d3565b9050919050565b5f819050919050565b61046c83610439565b6104806104788261045a565b8484546103df565b825550505050565b5f5f905090565b610497610488565b6104a2818484610463565b505050565b5b818110156104c5576104ba5f8261048f565b6001810190506104a8565b5050565b601f82111561050a576104db816103b2565b6104e4846103c4565b810160208510156104f3578190505b6105076104ff856103c4565b8301826104a7565b50505b505050565b5f82821c905092915050565b5f61052a5f198460080261050f565b1980831691505092915050565b5f610542838361051b565b9150826002028217905092915050565b61055b8261034b565b67ffffffffffffffff8111156105745761057361011e565b5b61057e8254610382565b6105898282856104c9565b5f60209050601f8311600181146105ba575f84156105a8578287015190505b6105b28582610537565b865550610619565b601f1984166105c8866103b2565b5f5b828110156105ef578489015182556001820191506020850194506020810190506105ca565b8683101561060c5784890151610608601f89168261051b565b8355505b6001600288020188555050505b505050505050565b6123098061062e5f395ff3fe60806040526004361061014a575f3560e01c806383920e90116100b5578063a0c97bce1161006e578063a0c97bce14610485578063a39fac121461049b578063c8b342ab146104c5578063d57bde7914610501578063d7bb99ba1461052b578063edf26d9b146105355761014a565b806383920e90146103835780638d2a1dad146103ad57806391f90157146103b7578063937e09b1146103e157806394073c251461040b5780639ace38c2146104475761014a565b80634ede3648116101075780634ede36481461027757806358d656291461029f578063597e1fb5146102c95780637b87d856146102f35780637e06eb7d1461031d57806382fde093146103595761014a565b80630a1443911461014e5780632ebc9a3e1461018a5780633197cbb6146101c65780634051ddac146101f0578063481c6a75146102235780634e69d5601461024d575b5f5ffd5b348015610159575f5ffd5b50610174600480360381019061016f91906116f3565b610571565b6040516101819190611738565b60405180910390f35b348015610195575f5ffd5b506101b060048036038101906101ab91906116f3565b61058e565b6040516101bd9190611769565b60405180910390f35b3480156101d1575f5ffd5b506101da6105a3565b6040516101e79190611769565b60405180910390f35b3480156101fb575f5ffd5b506102046105a9565b60405161021a9a999897969594939291906118b8565b60405180910390f35b34801561022e575f5ffd5b506102376107c5565b6040516102449190611967565b60405180910390f35b348015610258575f5ffd5b506102616107ea565b60405161026e9190611738565b60405180910390f35b348015610282575f5ffd5b5061029d600480360381019061029891906119bb565b6107ff565b005b3480156102aa575f5ffd5b506102b3610949565b6040516102c091906119e6565b60405180910390f35b3480156102d4575f5ffd5b506102dd6109d5565b6040516102ea9190611738565b60405180910390f35b3480156102fe575f5ffd5b506103076109e7565b60405161031491906119e6565b60405180910390f35b348015610328575f5ffd5b50610343600480360381019061033e9190611a06565b610a73565b6040516103509190611738565b60405180910390f35b348015610364575f5ffd5b5061036d610abb565b60405161037a9190611769565b60405180910390f35b34801561038e575f5ffd5b50610397610ac1565b6040516103a49190611b3b565b60405180910390f35b6103b5610b84565b005b3480156103c2575f5ffd5b506103cb610ed4565b6040516103d89190611967565b60405180910390f35b3480156103ec575f5ffd5b506103f5610ef9565b6040516104029190611769565b60405180910390f35b348015610416575f5ffd5b50610431600480360381019061042c91906116f3565b610eff565b60405161043e9190611967565b60405180910390f35b348015610452575f5ffd5b5061046d60048036038101906104689190611b85565b610fc6565b60405161047c93929190611bb0565b60405180910390f35b348015610490575f5ffd5b50610499611019565b005b3480156104a6575f5ffd5b506104af611130565b6040516104bc9190611be5565b60405180910390f35b3480156104d0575f5ffd5b506104eb60048036038101906104e691906116f3565b6111bb565b6040516104f89190611769565b60405180910390f35b34801561050c575f5ffd5b5061051561124e565b6040516105229190611769565b60405180910390f35b610533611254565b005b348015610540575f5ffd5b5061055b60048036038101906105569190611b85565b61165a565b6040516105689190611967565b60405180910390f35b6005602052805f5260405f205f915054906101000a900460ff1681565b6006602052805f5260405f205f915090505481565b600b5481565b5f5f5f5f5f6060805f5f60606002544760075460015f9054906101000a900473ffffffffffffffffffffffffffffffffffffffff16600a5460036004600b5460095f9054906101000a900473ffffffffffffffffffffffffffffffffffffffff16600884805461061890611c32565b80601f016020809104026020016040519081016040528092919081815260200182805461064490611c32565b801561068f5780601f106106665761010080835404028352916020019161068f565b820191905f5260205f20905b81548152906001019060200180831161067257829003601f168201915b505050505094508380546106a290611c32565b80601f01602080910402602001604051908101604052809291908181526020018280546106ce90611c32565b80156107195780601f106106f057610100808354040283529160200191610719565b820191905f5260205f20905b8154815290600101906020018083116106fc57829003601f168201915b505050505093508080548060200260200160405190810160405280929190818152602001828054801561079e57602002820191905f5260205f20905b815f9054906101000a900473ffffffffffffffffffffffffffffffffffffffff1673ffffffffffffffffffffffffffffffffffffffff1681526020019060010190808311610755575b50505050509050995099509950995099509950995099509950995090919293949596979899565b60015f9054906101000a900473ffffffffffffffffffffffffffffffffffffffff1681565b5f600c5f9054906101000a900460ff16905090565b5f60065f8373ffffffffffffffffffffffffffffffffffffffff1673ffffffffffffffffffffffffffffffffffffffff1681526020019081526020015f20541161087e576040517f08c379a000000000000000000000000000000000000000000000000000000000815260040161087590611cac565b60405180910390fd5b5f60065f8373ffffffffffffffffffffffffffffffffffffffff1673ffffffffffffffffffffffffffffffffffffffff1681526020019081526020015f205490505f60065f8473ffffffffffffffffffffffffffffffffffffffff1673ffffffffffffffffffffffffffffffffffffffff1681526020019081526020015f20819055508173ffffffffffffffffffffffffffffffffffffffff166108fc8290811502906040515f60405180830381858888f19350505050158015610944573d5f5f3e3d5ffd5b505050565b6004805461095690611c32565b80601f016020809104026020016040519081016040528092919081815260200182805461098290611c32565b80156109cd5780601f106109a4576101008083540402835291602001916109cd565b820191905f5260205f20905b8154815290600101906020018083116109b057829003601f168201915b505050505081565b600c5f9054906101000a900460ff1681565b600380546109f490611c32565b80601f0160208091040260200160405190810160405280929190818152602001828054610a2090611c32565b8015610a6b5780601f10610a4257610100808354040283529160200191610a6b565b820191905f5260205f20905b815481529060010190602001808311610a4e57829003601f168201915b505050505081565b5f610a7d82610eff565b73ffffffffffffffffffffffffffffffffffffffff16610a9c84610eff565b73ffffffffffffffffffffffffffffffffffffffff1614905092915050565b60075481565b60605f805480602002602001604051908101604052809291908181526020015f905b82821015610b7b578382905f5260205f2090600302016040518060600160405290815f820154815260200160018201548152602001600282015f9054906101000a900473ffffffffffffffffffffffffffffffffffffffff1673ffffffffffffffffffffffffffffffffffffffff1673ffffffffffffffffffffffffffffffffffffffff168152505081526020019060010190610ae3565b50505050905090565b42600b541015610ed2575f5f90505f6001600880549050610ba59190611cf7565b67ffffffffffffffff811115610bbe57610bbd611d2a565b5b604051908082528060200260200182016040528015610bec5781602001602082028036833780820191505090505b5090505f5f90505b600880549050811015610e0a57610c4560088281548110610c1857610c17611d57565b5b905f5260205f20015f9054906101000a900473ffffffffffffffffffffffffffffffffffffffff16610eff565b73ffffffffffffffffffffffffffffffffffffffff167fdb2255c40dd3a96ac26cefe042ef05b7245beb67ba6fe3deb5a32048c48ae64560405160405180910390a260095f9054906101000a900473ffffffffffffffffffffffffffffffffffffffff1673ffffffffffffffffffffffffffffffffffffffff167fdb2255c40dd3a96ac26cefe042ef05b7245beb67ba6fe3deb5a32048c48ae64560405160405180910390a2610d61610d3260088381548110610d0557610d04611d57565b5b905f5260205f20015f9054906101000a900473ffffffffffffffffffffffffffffffffffffffff16610eff565b610d5c60095f9054906101000a900473ffffffffffffffffffffffffffffffffffffffff16610eff565b610a73565b610dfd5760088181548110610d7957610d78611d57565b5b905f5260205f20015f9054906101000a900473ffffffffffffffffffffffffffffffffffffffff16828481518110610db457610db3611d57565b5b602002602001019073ffffffffffffffffffffffffffffffffffffffff16908173ffffffffffffffffffffffffffffffffffffffff16815250508280610df990611d84565b9350505b8080600101915050610bf4565b5080604051610e199190611e57565b60405180910390207f8f58f64f8e5f3dff0793565c7810439028723c99baee435e979ede971227143360405160405180910390a26008604051610e5c9190611f4d565b60405180910390207f8f58f64f8e5f3dff0793565c7810439028723c99baee435e979ede971227143360405160405180910390a25f5f90505b8151811015610ece57610ec1828281518110610eb457610eb3611d57565b5b60200260200101516107ff565b8080600101915050610e95565b5050505b565b60095f9054906101000a900473ffffffffffffffffffffffffffffffffffffffff1681565b60025481565b5f5f8290505f5f90505b6014811015610fbc575f8460601b8260148110610f2957610f28611d57565b5b1a60f81b60f81c905060418160ff1610158015610f4a5750605a8160ff1611155b15610f5f57602081610f5c9190611f6f565b90505b816013610f6c9190611cf7565b6008610f789190611fa3565b73ffffffffffffffffffffffffffffffffffffffff168160ff1673ffffffffffffffffffffffffffffffffffffffff16901b83179250508080600101915050610f09565b5080915050919050565b5f8181548110610fd4575f80fd5b905f5260205f2090600302015f91509050805f015490806001015490806002015f9054906101000a900473ffffffffffffffffffffffffffffffffffffffff16905083565b600c5f9054906101000a900460ff1615611068576040517f08c379a000000000000000000000000000000000000000000000000000000000815260040161105f9061202e565b60405180910390fd5b600a544710156110ad576040517f08c379a00000000000000000000000000000000000000000000000000000000081526004016110a490612096565b60405180910390fd5b60015f9054906101000a900473ffffffffffffffffffffffffffffffffffffffff1673ffffffffffffffffffffffffffffffffffffffff166108fc600a5490811502906040515f60405180830381858888f19350505050158015611113573d5f5f3e3d5ffd5b506001600c5f6101000a81548160ff021916908315150217905550565b606060088054806020026020016040519081016040528092919081815260200182805480156111b157602002820191905f5260205f20905b815f9054906101000a900473ffffffffffffffffffffffffffffffffffffffff1673ffffffffffffffffffffffffffffffffffffffff1681526020019060010190808311611168575b5050505050905090565b5f5f5f90505f60065f8573ffffffffffffffffffffffffffffffffffffffff1673ffffffffffffffffffffffffffffffffffffffff1681526020019081526020015f2054146112455760065f8473ffffffffffffffffffffffffffffffffffffffff1673ffffffffffffffffffffffffffffffffffffffff1681526020019081526020015f205490505b80915050919050565b600a5481565b60015f9054906101000a900473ffffffffffffffffffffffffffffffffffffffff1673ffffffffffffffffffffffffffffffffffffffff163373ffffffffffffffffffffffffffffffffffffffff16036112e3576040517f08c379a00000000000000000000000000000000000000000000000000000000081526004016112da906120fe565b60405180910390fd5b42600b5411611327576040517f08c379a000000000000000000000000000000000000000000000000000000000815260040161131e9061218c565b60405180910390fd5b5f60065f3373ffffffffffffffffffffffffffffffffffffffff1673ffffffffffffffffffffffffffffffffffffffff1681526020019081526020015f205490505f348261137591906121aa565b90506002548110156113bc576040517f08c379a00000000000000000000000000000000000000000000000000000000081526004016113b390612227565b60405180910390fd5b600a548111611400576040517f08c379a00000000000000000000000000000000000000000000000000000000081526004016113f7906122b5565b60405180910390fd5b3360095f6101000a81548173ffffffffffffffffffffffffffffffffffffffff021916908373ffffffffffffffffffffffffffffffffffffffff16021790555080600a819055508060065f3373ffffffffffffffffffffffffffffffffffffffff1673ffffffffffffffffffffffffffffffffffffffff1681526020019081526020015f20819055505f60405180606001604052803481526020014281526020013373ffffffffffffffffffffffffffffffffffffffff16815250908060018154018082558091505060019003905f5260205f2090600302015f909190919091505f820151815f0155602082015181600101556040820151816002015f6101000a81548173ffffffffffffffffffffffffffffffffffffffff021916908373ffffffffffffffffffffffffffffffffffffffff160217905550505060055f3373ffffffffffffffffffffffffffffffffffffffff1673ffffffffffffffffffffffffffffffffffffffff1681526020019081526020015f205f9054906101000a900460ff1661165657600160055f3373ffffffffffffffffffffffffffffffffffffffff1673ffffffffffffffffffffffffffffffffffffffff1681526020019081526020015f205f6101000a81548160ff02191690831515021790555060075f8154809291906115f090611d84565b9190505550600833908060018154018082558091505060019003905f5260205f20015f9091909190916101000a81548173ffffffffffffffffffffffffffffffffffffffff021916908373ffffffffffffffffffffffffffffffffffffffff1602179055505b5050565b60088181548110611669575f80fd5b905f5260205f20015f915054906101000a900473ffffffffffffffffffffffffffffffffffffffff1681565b5f5ffd5b5f73ffffffffffffffffffffffffffffffffffffffff82169050919050565b5f6116c282611699565b9050919050565b6116d2816116b8565b81146116dc575f5ffd5b50565b5f813590506116ed816116c9565b92915050565b5f6020828403121561170857611707611695565b5b5f611715848285016116df565b91505092915050565b5f8115159050919050565b6117328161171e565b82525050565b5f60208201905061174b5f830184611729565b92915050565b5f819050919050565b61176381611751565b82525050565b5f60208201905061177c5f83018461175a565b92915050565b61178b816116b8565b82525050565b5f81519050919050565b5f82825260208201905092915050565b8281835e5f83830152505050565b5f601f19601f8301169050919050565b5f6117d382611791565b6117dd818561179b565b93506117ed8185602086016117ab565b6117f6816117b9565b840191505092915050565b5f81519050919050565b5f82825260208201905092915050565b5f819050602082019050919050565b611833816116b8565b82525050565b5f611844838361182a565b60208301905092915050565b5f602082019050919050565b5f61186682611801565b611870818561180b565b935061187b8361181b565b805f5b838110156118ab5781516118928882611839565b975061189d83611850565b92505060018101905061187e565b5085935050505092915050565b5f610140820190506118cc5f83018d61175a565b6118d9602083018c61175a565b6118e6604083018b61175a565b6118f3606083018a611782565b611900608083018961175a565b81810360a083015261191281886117c9565b905081810360c083015261192681876117c9565b905061193560e083018661175a565b611943610100830185611782565b818103610120830152611956818461185c565b90509b9a5050505050505050505050565b5f60208201905061197a5f830184611782565b92915050565b5f61198a82611699565b9050919050565b61199a81611980565b81146119a4575f5ffd5b50565b5f813590506119b581611991565b92915050565b5f602082840312156119d0576119cf611695565b5b5f6119dd848285016119a7565b91505092915050565b5f6020820190508181035f8301526119fe81846117c9565b905092915050565b5f5f60408385031215611a1c57611a1b611695565b5b5f611a29858286016116df565b9250506020611a3a858286016116df565b9150509250929050565b5f81519050919050565b5f82825260208201905092915050565b5f819050602082019050919050565b611a7681611751565b82525050565b606082015f820151611a905f850182611a6d565b506020820151611aa36020850182611a6d565b506040820151611ab6604085018261182a565b50505050565b5f611ac78383611a7c565b60608301905092915050565b5f602082019050919050565b5f611ae982611a44565b611af38185611a4e565b9350611afe83611a5e565b805f5b83811015611b2e578151611b158882611abc565b9750611b2083611ad3565b925050600181019050611b01565b5085935050505092915050565b5f6020820190508181035f830152611b538184611adf565b905092915050565b611b6481611751565b8114611b6e575f5ffd5b50565b5f81359050611b7f81611b5b565b92915050565b5f60208284031215611b9a57611b99611695565b5b5f611ba784828501611b71565b91505092915050565b5f606082019050611bc35f83018661175a565b611bd0602083018561175a565b611bdd6040830184611782565b949350505050565b5f6020820190508181035f830152611bfd818461185c565b905092915050565b7f4e487b71000000000000000000000000000000000000000000000000000000005f52602260045260245ffd5b5f6002820490506001821680611c4957607f821691505b602082108103611c5c57611c5b611c05565b5b50919050565b7f4e6f2062696420746f20726566756e64000000000000000000000000000000005f82015250565b5f611c9660108361179b565b9150611ca182611c62565b602082019050919050565b5f6020820190508181035f830152611cc381611c8a565b9050919050565b7f4e487b71000000000000000000000000000000000000000000000000000000005f52601160045260245ffd5b5f611d0182611751565b9150611d0c83611751565b9250828203905081811115611d2457611d23611cca565b5b92915050565b7f4e487b71000000000000000000000000000000000000000000000000000000005f52604160045260245ffd5b7f4e487b71000000000000000000000000000000000000000000000000000000005f52603260045260245ffd5b5f611d8e82611751565b91507fffffffffffffffffffffffffffffffffffffffffffffffffffffffffffffffff8203611dc057611dbf611cca565b5b600182019050919050565b5f81905092915050565b611dde816116b8565b82525050565b5f611def8383611dd5565b60208301905092915050565b5f611e0582611801565b611e0f8185611dcb565b9350611e1a8361181b565b805f5b83811015611e4a578151611e318882611de4565b9750611e3c83611850565b925050600181019050611e1d565b5085935050505092915050565b5f611e628284611dfb565b915081905092915050565b5f81549050919050565b5f819050815f5260205f209050919050565b5f815f1c9050919050565b5f73ffffffffffffffffffffffffffffffffffffffff82169050919050565b5f611ec5611ec083611e89565b611e94565b9050919050565b5f611ed78254611eb3565b9050919050565b5f600182019050919050565b5f611ef482611e6d565b611efe8185611dcb565b9350611f0983611e77565b805f5b83811015611f4057611f1d82611ecc565b611f278882611de4565b9750611f3283611ede565b925050600181019050611f0c565b5085935050505092915050565b5f611f588284611eea565b915081905092915050565b5f60ff82169050919050565b5f611f7982611f63565b9150611f8483611f63565b9250828201905060ff811115611f9d57611f9c611cca565b5b92915050565b5f611fad82611751565b9150611fb883611751565b9250828202611fc681611751565b91508282048414831517611fdd57611fdc611cca565b5b5092915050565b7f41756374696f6e20616c726561647920636c6f736564000000000000000000005f82015250565b5f61201860168361179b565b915061202382611fe4565b602082019050919050565b5f6020820190508181035f8301526120458161200c565b9050919050565b7f496e73756666696369656e742062616c616e63650000000000000000000000005f82015250565b5f61208060148361179b565b915061208b8261204c565b602082019050919050565b5f6020820190508181035f8301526120ad81612074565b9050919050565b7f796f752063616e27742062757920796f7572206f776e206461746100000000005f82015250565b5f6120e8601b8361179b565b91506120f3826120b4565b602082019050919050565b5f6020820190508181035f830152612115816120dc565b9050919050565b7f796f752063616e277420636f6e7472696275746520746f20616e20656e6465645f8201527f2061756374696f6e000000000000000000000000000000000000000000000000602082015250565b5f61217660288361179b565b91506121818261211c565b604082019050919050565b5f6020820190508181035f8301526121a38161216a565b9050919050565b5f6121b482611751565b91506121bf83611751565b92508282019050808211156121d7576121d6611cca565b5b92915050565b7f4269642062656c6f77206d696e696d756d0000000000000000000000000000005f82015250565b5f61221160118361179b565b915061221c826121dd565b602082019050919050565b5f6020820190508181035f83015261223e81612205565b9050919050565b7f546865726520616c7265616479206973206120686967686572206f72206571755f8201527f616c206269640000000000000000000000000000000000000000000000000000602082015250565b5f61229f60268361179b565b91506122aa82612245565b604082019050919050565b5f6020820190508181035f8301526122cc81612293565b905091905056fea2646970667358221220fe3039a573254d3ae10c6a3b7b1fef640e8638366ed011fad8a394bf59e0162664736f6c634300081e0033a26469706673582212207f0cfd72fb15599330b3c982be7ac72e6675d7300b63184503f58a3ca1a22bc364736f6c634300081e0033","opcodes":"PUSH1 0x80 PUSH1 0x40 MSTORE CALLVALUE DUP1 ISZERO PUSH1 0xE JUMPI PUSH0 PUSH0 REVERT JUMPDEST POP PUSH2 0x31C8 DUP1 PUSH2 0x1C PUSH0 CODECOPY PUSH0 RETURN INVALID PUSH1 0x80 PUSH1 0x40 MSTORE PUSH1 0x4 CALLDATASIZE LT PUSH2 0x3E JUMPI PUSH0 CALLDATALOAD PUSH1 0xE0 SHR DUP1 PUSH4 0x339D50A5 EQ PUSH2 0x42 JUMPI DUP1 PUSH4 0x4ACB9D4F EQ PUSH2 0x7E JUMPI DUP1 PUSH4 0x75DA6BA0 EQ PUSH2 0xA8 JUMPI DUP1 PUSH4 0xDC117416 EQ PUSH2 0xB2 JUMPI JUMPDEST PUSH0 PUSH0 REVERT JUMPDEST CALLVALUE DUP1 ISZERO PUSH2 0x4D JUMPI PUSH0 PUSH0 REVERT JUMPDEST POP PUSH2 0x68 PUSH1 0x4 DUP1 CALLDATASIZE SUB DUP2 ADD SWAP1 PUSH2 0x63 SWAP2 SWAP1 PUSH2 0x36D JUMP JUMPDEST PUSH2 0xDA JUMP JUMPDEST PUSH1 0x40 MLOAD PUSH2 0x75 SWAP2 SWAP1 PUSH2 0x3D7 JUMP JUMPDEST PUSH1 0x40 MLOAD DUP1 SWAP2 SUB SWAP1 RETURN JUMPDEST CALLVALUE DUP1 ISZERO PUSH2 0x89 JUMPI PUSH0 PUSH0 REVERT JUMPDEST POP PUSH2 0x92 PUSH2 0x114 JUMP JUMPDEST PUSH1 0x40 MLOAD PUSH2 0x9F SWAP2 SWAP1 PUSH2 0x4A7 JUMP JUMPDEST PUSH1 0x40 MLOAD DUP1 SWAP2 SUB SWAP1 RETURN JUMPDEST PUSH2 0xB0 PUSH2 0x19E JUMP JUMPDEST STOP JUMPDEST CALLVALUE DUP1 ISZERO PUSH2 0xBD JUMPI PUSH0 PUSH0 REVERT JUMPDEST POP PUSH2 0xD8 PUSH1 0x4 DUP1 CALLDATASIZE SUB DUP2 ADD SWAP1 PUSH2 0xD3 SWAP2 SWAP1 PUSH2 0x603 JUMP JUMPDEST PUSH2 0x25E JUMP JUMPDEST STOP JUMPDEST PUSH0 DUP2 DUP2 SLOAD DUP2 LT PUSH2 0xE8 JUMPI PUSH0 DUP1 REVERT JUMPDEST SWAP1 PUSH0 MSTORE PUSH1 0x20 PUSH0 KECCAK256 ADD PUSH0 SWAP2 POP SLOAD SWAP1 PUSH2 0x100 EXP SWAP1 DIV PUSH20 0xFFFFFFFFFFFFFFFFFFFFFFFFFFFFFFFFFFFFFFFF AND DUP2 JUMP JUMPDEST PUSH1 0x60 PUSH0 DUP1 SLOAD DUP1 PUSH1 0x20 MUL PUSH1 0x20 ADD PUSH1 0x40 MLOAD SWAP1 DUP2 ADD PUSH1 0x40 MSTORE DUP1 SWAP3 SWAP2 SWAP1 DUP2 DUP2 MSTORE PUSH1 0x20 ADD DUP3 DUP1 SLOAD DUP1 ISZERO PUSH2 0x194 JUMPI PUSH1 0x20 MUL DUP3 ADD SWAP2 SWAP1 PUSH0 MSTORE PUSH1 0x20 PUSH0 KECCAK256 SWAP1 JUMPDEST DUP2 PUSH0 SWAP1 SLOAD SWAP1 PUSH2 0x100 EXP SWAP1 DIV PUSH20 0xFFFFFFFFFFFFFFFFFFFFFFFFFFFFFFFFFFFFFFFF AND PUSH20 0xFFFFFFFFFFFFFFFFFFFFFFFFFFFFFFFFFFFFFFFF AND DUP2 MSTORE PUSH1 0x20 ADD SWAP1 PUSH1 0x1 ADD SWAP1 DUP1 DUP4 GT PUSH2 0x14B JUMPI JUMPDEST POP POP POP POP POP SWAP1 POP SWAP1 JUMP JUMPDEST PUSH0 PUSH0 DUP1 SLOAD SWAP1 POP SWAP1 POP PUSH0 PUSH0 SWAP1 POP JUMPDEST DUP2 DUP2 LT ISZERO PUSH2 0x25A JUMPI PUSH0 PUSH0 DUP3 DUP2 SLOAD DUP2 LT PUSH2 0x1C7 JUMPI PUSH2 0x1C6 PUSH2 0x69F JUMP JUMPDEST JUMPDEST SWAP1 PUSH0 MSTORE PUSH1 0x20 PUSH0 KECCAK256 ADD PUSH0 SWAP1 SLOAD SWAP1 PUSH2 0x100 EXP SWAP1 DIV PUSH20 0xFFFFFFFFFFFFFFFFFFFFFFFFFFFFFFFFFFFFFFFF AND SWAP1 POP DUP1 PUSH20 0xFFFFFFFFFFFFFFFFFFFFFFFFFFFFFFFFFFFFFFFF AND PUSH4 0x8D2A1DAD PUSH1 0x40 MLOAD DUP2 PUSH4 0xFFFFFFFF AND PUSH1 0xE0 SHL DUP2 MSTORE PUSH1 0x4 ADD PUSH0 PUSH1 0x40 MLOAD DUP1 DUP4 SUB DUP2 PUSH0 DUP8 DUP1 EXTCODESIZE ISZERO DUP1 ISZERO PUSH2 0x236 JUMPI PUSH0 PUSH0 REVERT JUMPDEST POP GAS CALL ISZERO DUP1 ISZERO PUSH2 0x248 JUMPI RETURNDATASIZE PUSH0 PUSH0 RETURNDATACOPY RETURNDATASIZE PUSH0 REVERT JUMPDEST POP POP POP POP POP DUP1 DUP1 PUSH1 0x1 ADD SWAP2 POP POP PUSH2 0x1AB JUMP JUMPDEST POP POP JUMP JUMPDEST PUSH0 TIMESTAMP DUP3 PUSH1 0x3C PUSH2 0x26D SWAP2 SWAP1 PUSH2 0x6F9 JUMP JUMPDEST PUSH2 0x277 SWAP2 SWAP1 PUSH2 0x73A JUMP JUMPDEST SWAP1 POP PUSH0 DUP6 DUP6 DUP6 CALLER DUP6 PUSH1 0x40 MLOAD PUSH2 0x28B SWAP1 PUSH2 0x31C JUMP JUMPDEST PUSH2 0x299 SWAP6 SWAP5 SWAP4 SWAP3 SWAP2 SWAP1 PUSH2 0x7FC JUMP JUMPDEST PUSH1 0x40 MLOAD DUP1 SWAP2 SUB SWAP1 PUSH0 CREATE DUP1 ISZERO DUP1 ISZERO PUSH2 0x2B2 JUMPI RETURNDATASIZE PUSH0 PUSH0 RETURNDATACOPY RETURNDATASIZE PUSH0 REVERT JUMPDEST POP SWAP1 POP PUSH0 DUP2 SWAP1 DUP1 PUSH1 0x1 DUP2 SLOAD ADD DUP1 DUP3 SSTORE DUP1 SWAP2 POP POP PUSH1 0x1 SWAP1 SUB SWAP1 PUSH0 MSTORE PUSH1 0x20 PUSH0 KECCAK256 ADD PUSH0 SWAP1 SWAP2 SWAP1 SWAP2 SWAP1 SWAP2 PUSH2 0x100 EXP DUP2 SLOAD DUP2 PUSH20 0xFFFFFFFFFFFFFFFFFFFFFFFFFFFFFFFFFFFFFFFF MUL NOT AND SWAP1 DUP4 PUSH20 0xFFFFFFFFFFFFFFFFFFFFFFFFFFFFFFFFFFFFFFFF AND MUL OR SWAP1 SSTORE POP POP POP POP POP POP POP JUMP JUMPDEST PUSH2 0x2937 DUP1 PUSH2 0x85C DUP4 CODECOPY ADD SWAP1 JUMP JUMPDEST PUSH0 PUSH1 0x40 MLOAD SWAP1 POP SWAP1 JUMP JUMPDEST PUSH0 PUSH0 REVERT JUMPDEST PUSH0 PUSH0 REVERT JUMPDEST PUSH0 DUP2 SWAP1 POP SWAP2 SWAP1 POP JUMP JUMPDEST PUSH2 0x34C DUP2 PUSH2 0x33A JUMP JUMPDEST DUP2 EQ PUSH2 0x356 JUMPI PUSH0 PUSH0 REVERT JUMPDEST POP JUMP JUMPDEST PUSH0 DUP2 CALLDATALOAD SWAP1 POP PUSH2 0x367 DUP2 PUSH2 0x343 JUMP JUMPDEST SWAP3 SWAP2 POP POP JUMP JUMPDEST PUSH0 PUSH1 0x20 DUP3 DUP5 SUB SLT ISZERO PUSH2 0x382 JUMPI PUSH2 0x381 PUSH2 0x332 JUMP JUMPDEST JUMPDEST PUSH0 PUSH2 0x38F DUP5 DUP3 DUP6 ADD PUSH2 0x359 JUMP JUMPDEST SWAP2 POP POP SWAP3 SWAP2 POP POP JUMP JUMPDEST PUSH0 PUSH20 0xFFFFFFFFFFFFFFFFFFFFFFFFFFFFFFFFFFFFFFFF DUP3 AND SWAP1 POP SWAP2 SWAP1 POP JUMP JUMPDEST PUSH0 PUSH2 0x3C1 DUP3 PUSH2 0x398 JUMP JUMPDEST SWAP1 POP SWAP2 SWAP1 POP JUMP JUMPDEST PUSH2 0x3D1 DUP2 PUSH2 0x3B7 JUMP JUMPDEST DUP3 MSTORE POP POP JUMP JUMPDEST PUSH0 PUSH1 0x20 DUP3 ADD SWAP1 POP PUSH2 0x3EA PUSH0 DUP4 ADD DUP5 PUSH2 0x3C8 JUMP JUMPDEST SWAP3 SWAP2 POP POP JUMP JUMPDEST PUSH0 DUP2 MLOAD SWAP1 POP SWAP2 SWAP1 POP JUMP JUMPDEST PUSH0 DUP3 DUP3 MSTORE PUSH1 0x20 DUP3 ADD SWAP1 POP SWAP3 SWAP2 POP POP JUMP JUMPDEST PUSH0 DUP2 SWAP1 POP PUSH1 0x20 DUP3 ADD SWAP1 POP SWAP2 SWAP1 POP JUMP JUMPDEST PUSH2 0x422 DUP2 PUSH2 0x3B7 JUMP JUMPDEST DUP3 MSTORE POP POP JUMP JUMPDEST PUSH0 PUSH2 0x433 DUP4 DUP4 PUSH2 0x419 JUMP JUMPDEST PUSH1 0x20 DUP4 ADD SWAP1 POP SWAP3 SWAP2 POP POP JUMP JUMPDEST PUSH0 PUSH1 0x20 DUP3 ADD SWAP1 POP SWAP2 SWAP1 POP JUMP JUMPDEST PUSH0 PUSH2 0x455 DUP3 PUSH2 0x3F0 JUMP JUMPDEST PUSH2 0x45F DUP2 DUP6 PUSH2 0x3FA JUMP JUMPDEST SWAP4 POP PUSH2 0x46A DUP4 PUSH2 0x40A JUMP JUMPDEST DUP1 PUSH0 JUMPDEST DUP4 DUP2 LT ISZERO PUSH2 0x49A JUMPI DUP2 MLOAD PUSH2 0x481 DUP9 DUP3 PUSH2 0x428 JUMP JUMPDEST SWAP8 POP PUSH2 0x48C DUP4 PUSH2 0x43F JUMP JUMPDEST SWAP3 POP POP PUSH1 0x1 DUP2 ADD SWAP1 POP PUSH2 0x46D JUMP JUMPDEST POP DUP6 SWAP4 POP POP POP POP SWAP3 SWAP2 POP POP JUMP JUMPDEST PUSH0 PUSH1 0x20 DUP3 ADD SWAP1 POP DUP2 DUP2 SUB PUSH0 DUP4 ADD MSTORE PUSH2 0x4BF DUP2 DUP5 PUSH2 0x44B JUMP JUMPDEST SWAP1 POP SWAP3 SWAP2 POP POP JUMP JUMPDEST PUSH0 PUSH0 REVERT JUMPDEST PUSH0 PUSH0 REVERT JUMPDEST PUSH0 PUSH1 0x1F NOT PUSH1 0x1F DUP4 ADD AND SWAP1 POP SWAP2 SWAP1 POP JUMP JUMPDEST PUSH32 0x4E487B7100000000000000000000000000000000000000000000000000000000 PUSH0 MSTORE PUSH1 0x41 PUSH1 0x4 MSTORE PUSH1 0x24 PUSH0 REVERT JUMPDEST PUSH2 0x515 DUP3 PUSH2 0x4CF JUMP JUMPDEST DUP2 ADD DUP2 DUP2 LT PUSH8 0xFFFFFFFFFFFFFFFF DUP3 GT OR ISZERO PUSH2 0x534 JUMPI PUSH2 0x533 PUSH2 0x4DF JUMP JUMPDEST JUMPDEST DUP1 PUSH1 0x40 MSTORE POP POP POP JUMP JUMPDEST PUSH0 PUSH2 0x546 PUSH2 0x329 JUMP JUMPDEST SWAP1 POP PUSH2 0x552 DUP3 DUP3 PUSH2 0x50C JUMP JUMPDEST SWAP2 SWAP1 POP JUMP JUMPDEST PUSH0 PUSH8 0xFFFFFFFFFFFFFFFF DUP3 GT ISZERO PUSH2 0x571 JUMPI PUSH2 0x570 PUSH2 0x4DF JUMP JUMPDEST JUMPDEST PUSH2 0x57A DUP3 PUSH2 0x4CF JUMP JUMPDEST SWAP1 POP PUSH1 0x20 DUP2 ADD SWAP1 POP SWAP2 SWAP1 POP JUMP JUMPDEST DUP3 DUP2 DUP4 CALLDATACOPY PUSH0 DUP4 DUP4 ADD MSTORE POP POP POP JUMP JUMPDEST PUSH0 PUSH2 0x5A7 PUSH2 0x5A2 DUP5 PUSH2 0x557 JUMP JUMPDEST PUSH2 0x53D JUMP JUMPDEST SWAP1 POP DUP3 DUP2 MSTORE PUSH1 0x20 DUP2 ADD DUP5 DUP5 DUP5 ADD GT ISZERO PUSH2 0x5C3 JUMPI PUSH2 0x5C2 PUSH2 0x4CB JUMP JUMPDEST JUMPDEST PUSH2 0x5CE DUP5 DUP3 DUP6 PUSH2 0x587 JUMP JUMPDEST POP SWAP4 SWAP3 POP POP POP JUMP JUMPDEST PUSH0 DUP3 PUSH1 0x1F DUP4 ADD SLT PUSH2 0x5EA JUMPI PUSH2 0x5E9 PUSH2 0x4C7 JUMP JUMPDEST JUMPDEST DUP2 CALLDATALOAD PUSH2 0x5FA DUP5 DUP3 PUSH1 0x20 DUP7 ADD PUSH2 0x595 JUMP JUMPDEST SWAP2 POP POP SWAP3 SWAP2 POP POP JUMP JUMPDEST PUSH0 PUSH0 PUSH0 PUSH0 PUSH1 0x80 DUP6 DUP8 SUB SLT ISZERO PUSH2 0x61B JUMPI PUSH2 0x61A PUSH2 0x332 JUMP JUMPDEST JUMPDEST PUSH0 PUSH2 0x628 DUP8 DUP3 DUP9 ADD PUSH2 0x359 JUMP JUMPDEST SWAP5 POP POP PUSH1 0x20 DUP6 ADD CALLDATALOAD PUSH8 0xFFFFFFFFFFFFFFFF DUP2 GT ISZERO PUSH2 0x649 JUMPI PUSH2 0x648 PUSH2 0x336 JUMP JUMPDEST JUMPDEST PUSH2 0x655 DUP8 DUP3 DUP9 ADD PUSH2 0x5D6 JUMP JUMPDEST SWAP4 POP POP PUSH1 0x40 DUP6 ADD CALLDATALOAD PUSH8 0xFFFFFFFFFFFFFFFF DUP2 GT ISZERO PUSH2 0x676 JUMPI PUSH2 0x675 PUSH2 0x336 JUMP JUMPDEST JUMPDEST PUSH2 0x682 DUP8 DUP3 DUP9 ADD PUSH2 0x5D6 JUMP JUMPDEST SWAP3 POP POP PUSH1 0x60 PUSH2 0x693 DUP8 DUP3 DUP9 ADD PUSH2 0x359 JUMP JUMPDEST SWAP2 POP POP SWAP3 SWAP6 SWAP2 SWAP5 POP SWAP3 POP JUMP JUMPDEST PUSH32 0x4E487B7100000000000000000000000000000000000000000000000000000000 PUSH0 MSTORE PUSH1 0x32 PUSH1 0x4 MSTORE PUSH1 0x24 PUSH0 REVERT JUMPDEST PUSH32 0x4E487B7100000000000000000000000000000000000000000000000000000000 PUSH0 MSTORE PUSH1 0x11 PUSH1 0x4 MSTORE PUSH1 0x24 PUSH0 REVERT JUMPDEST PUSH0 PUSH2 0x703 DUP3 PUSH2 0x33A JUMP JUMPDEST SWAP2 POP PUSH2 0x70E DUP4 PUSH2 0x33A JUMP JUMPDEST SWAP3 POP DUP3 DUP3 MUL PUSH2 0x71C DUP2 PUSH2 0x33A JUMP JUMPDEST SWAP2 POP DUP3 DUP3 DIV DUP5 EQ DUP4 ISZERO OR PUSH2 0x733 JUMPI PUSH2 0x732 PUSH2 0x6CC JUMP JUMPDEST JUMPDEST POP SWAP3 SWAP2 POP POP JUMP JUMPDEST PUSH0 PUSH2 0x744 DUP3 PUSH2 0x33A JUMP JUMPDEST SWAP2 POP PUSH2 0x74F DUP4 PUSH2 0x33A JUMP JUMPDEST SWAP3 POP DUP3 DUP3 ADD SWAP1 POP DUP1 DUP3 GT ISZERO PUSH2 0x767 JUMPI PUSH2 0x766 PUSH2 0x6CC JUMP JUMPDEST JUMPDEST SWAP3 SWAP2 POP POP JUMP JUMPDEST PUSH2 0x776 DUP2 PUSH2 0x33A JUMP JUMPDEST DUP3 MSTORE POP POP JUMP JUMPDEST PUSH0 DUP2 MLOAD SWAP1 POP SWAP2 SWAP1 POP JUMP JUMPDEST PUSH0 DUP3 DUP3 MSTORE PUSH1 0x20 DUP3 ADD SWAP1 POP SWAP3 SWAP2 POP POP JUMP JUMPDEST DUP3 DUP2 DUP4 MCOPY PUSH0 DUP4 DUP4 ADD MSTORE POP POP POP JUMP JUMPDEST PUSH0 PUSH2 0x7AE DUP3 PUSH2 0x77C JUMP JUMPDEST PUSH2 0x7B8 DUP2 DUP6 PUSH2 0x786 JUMP JUMPDEST SWAP4 POP PUSH2 0x7C8 DUP2 DUP6 PUSH1 0x20 DUP7 ADD PUSH2 0x796 JUMP JUMPDEST PUSH2 0x7D1 DUP2 PUSH2 0x4CF JUMP JUMPDEST DUP5 ADD SWAP2 POP POP SWAP3 SWAP2 POP POP JUMP JUMPDEST PUSH0 PUSH2 0x7E6 DUP3 PUSH2 0x398 JUMP JUMPDEST SWAP1 POP SWAP2 SWAP1 POP JUMP JUMPDEST PUSH2 0x7F6 DUP2 PUSH2 0x7DC JUMP JUMPDEST DUP3 MSTORE POP POP JUMP JUMPDEST PUSH0 PUSH1 0xA0 DUP3 ADD SWAP1 POP PUSH2 0x80F PUSH0 DUP4 ADD DUP9 PUSH2 0x76D JUMP JUMPDEST DUP2 DUP2 SUB PUSH1 0x20 DUP4 ADD MSTORE PUSH2 0x821 DUP2 DUP8 PUSH2 0x7A4 JUMP JUMPDEST SWAP1 POP DUP2 DUP2 SUB PUSH1 0x40 DUP4 ADD MSTORE PUSH2 0x835 DUP2 DUP7 PUSH2 0x7A4 JUMP JUMPDEST SWAP1 POP PUSH2 0x844 PUSH1 0x60 DUP4 ADD DUP6 PUSH2 0x7ED JUMP JUMPDEST PUSH2 0x851 PUSH1 0x80 DUP4 ADD DUP5 PUSH2 0x76D JUMP JUMPDEST SWAP7 SWAP6 POP POP POP POP POP POP JUMP INVALID PUSH1 0x80 PUSH1 0x40 MSTORE CALLVALUE DUP1 ISZERO PUSH2 0xF JUMPI PUSH0 PUSH0 REVERT JUMPDEST POP PUSH1 0x40 MLOAD PUSH2 0x2937 CODESIZE SUB DUP1 PUSH2 0x2937 DUP4 CODECOPY DUP2 DUP2 ADD PUSH1 0x40 MSTORE DUP2 ADD SWAP1 PUSH2 0x31 SWAP2 SWAP1 PUSH2 0x29C JUMP JUMPDEST DUP2 PUSH1 0x1 PUSH0 PUSH2 0x100 EXP DUP2 SLOAD DUP2 PUSH20 0xFFFFFFFFFFFFFFFFFFFFFFFFFFFFFFFFFFFFFFFF MUL NOT AND SWAP1 DUP4 PUSH20 0xFFFFFFFFFFFFFFFFFFFFFFFFFFFFFFFFFFFFFFFF AND MUL OR SWAP1 SSTORE POP DUP5 PUSH1 0x2 DUP2 SWAP1 SSTORE POP DUP4 PUSH1 0x3 SWAP1 DUP2 PUSH2 0x87 SWAP2 SWAP1 PUSH2 0x552 JUMP JUMPDEST POP DUP3 PUSH1 0x4 SWAP1 DUP2 PUSH2 0x97 SWAP2 SWAP1 PUSH2 0x552 JUMP JUMPDEST POP DUP1 PUSH1 0xB DUP2 SWAP1 SSTORE POP PUSH0 PUSH1 0xC PUSH0 PUSH2 0x100 EXP DUP2 SLOAD DUP2 PUSH1 0xFF MUL NOT AND SWAP1 DUP4 ISZERO ISZERO MUL OR SWAP1 SSTORE POP POP POP POP POP POP PUSH2 0x621 JUMP JUMPDEST PUSH0 PUSH1 0x40 MLOAD SWAP1 POP SWAP1 JUMP JUMPDEST PUSH0 PUSH0 REVERT JUMPDEST PUSH0 PUSH0 REVERT JUMPDEST PUSH0 DUP2 SWAP1 POP SWAP2 SWAP1 POP JUMP JUMPDEST PUSH2 0xE5 DUP2 PUSH2 0xD3 JUMP JUMPDEST DUP2 EQ PUSH2 0xEF JUMPI PUSH0 PUSH0 REVERT JUMPDEST POP JUMP JUMPDEST PUSH0 DUP2 MLOAD SWAP1 POP PUSH2 0x100 DUP2 PUSH2 0xDC JUMP JUMPDEST SWAP3 SWAP2 POP POP JUMP JUMPDEST PUSH0 PUSH0 REVERT JUMPDEST PUSH0 PUSH0 REVERT JUMPDEST PUSH0 PUSH1 0x1F NOT PUSH1 0x1F DUP4 ADD AND SWAP1 POP SWAP2 SWAP1 POP JUMP JUMPDEST PUSH32 0x4E487B7100000000000000000000000000000000000000000000000000000000 PUSH0 MSTORE PUSH1 0x41 PUSH1 0x4 MSTORE PUSH1 0x24 PUSH0 REVERT JUMPDEST PUSH2 0x154 DUP3 PUSH2 0x10E JUMP JUMPDEST DUP2 ADD DUP2 DUP2 LT PUSH8 0xFFFFFFFFFFFFFFFF DUP3 GT OR ISZERO PUSH2 0x173 JUMPI PUSH2 0x172 PUSH2 0x11E JUMP JUMPDEST JUMPDEST DUP1 PUSH1 0x40 MSTORE POP POP POP JUMP JUMPDEST PUSH0 PUSH2 0x185 PUSH2 0xC2 JUMP JUMPDEST SWAP1 POP PUSH2 0x191 DUP3 DUP3 PUSH2 0x14B JUMP JUMPDEST SWAP2 SWAP1 POP JUMP JUMPDEST PUSH0 PUSH8 0xFFFFFFFFFFFFFFFF DUP3 GT ISZERO PUSH2 0x1B0 JUMPI PUSH2 0x1AF PUSH2 0x11E JUMP JUMPDEST JUMPDEST PUSH2 0x1B9 DUP3 PUSH2 0x10E JUMP JUMPDEST SWAP1 POP PUSH1 0x20 DUP2 ADD SWAP1 POP SWAP2 SWAP1 POP JUMP JUMPDEST DUP3 DUP2 DUP4 MCOPY PUSH0 DUP4 DUP4 ADD MSTORE POP POP POP JUMP JUMPDEST PUSH0 PUSH2 0x1E6 PUSH2 0x1E1 DUP5 PUSH2 0x196 JUMP JUMPDEST PUSH2 0x17C JUMP JUMPDEST SWAP1 POP DUP3 DUP2 MSTORE PUSH1 0x20 DUP2 ADD DUP5 DUP5 DUP5 ADD GT ISZERO PUSH2 0x202 JUMPI PUSH2 0x201 PUSH2 0x10A JUMP JUMPDEST JUMPDEST PUSH2 0x20D DUP5 DUP3 DUP6 PUSH2 0x1C6 JUMP JUMPDEST POP SWAP4 SWAP3 POP POP POP JUMP JUMPDEST PUSH0 DUP3 PUSH1 0x1F DUP4 ADD SLT PUSH2 0x229 JUMPI PUSH2 0x228 PUSH2 0x106 JUMP JUMPDEST JUMPDEST DUP2 MLOAD PUSH2 0x239 DUP5 DUP3 PUSH1 0x20 DUP7 ADD PUSH2 0x1D4 JUMP JUMPDEST SWAP2 POP POP SWAP3 SWAP2 POP POP JUMP JUMPDEST PUSH0 PUSH20 0xFFFFFFFFFFFFFFFFFFFFFFFFFFFFFFFFFFFFFFFF DUP3 AND SWAP1 POP SWAP2 SWAP1 POP JUMP JUMPDEST PUSH0 PUSH2 0x26B DUP3 PUSH2 0x242 JUMP JUMPDEST SWAP1 POP SWAP2 SWAP1 POP JUMP JUMPDEST PUSH2 0x27B DUP2 PUSH2 0x261 JUMP JUMPDEST DUP2 EQ PUSH2 0x285 JUMPI PUSH0 PUSH0 REVERT JUMPDEST POP JUMP JUMPDEST PUSH0 DUP2 MLOAD SWAP1 POP PUSH2 0x296 DUP2 PUSH2 0x272 JUMP JUMPDEST SWAP3 SWAP2 POP POP JUMP JUMPDEST PUSH0 PUSH0 PUSH0 PUSH0 PUSH0 PUSH1 0xA0 DUP7 DUP9 SUB SLT ISZERO PUSH2 0x2B5 JUMPI PUSH2 0x2B4 PUSH2 0xCB JUMP JUMPDEST JUMPDEST PUSH0 PUSH2 0x2C2 DUP9 DUP3 DUP10 ADD PUSH2 0xF2 JUMP JUMPDEST SWAP6 POP POP PUSH1 0x20 DUP7 ADD MLOAD PUSH8 0xFFFFFFFFFFFFFFFF DUP2 GT ISZERO PUSH2 0x2E3 JUMPI PUSH2 0x2E2 PUSH2 0xCF JUMP JUMPDEST JUMPDEST PUSH2 0x2EF DUP9 DUP3 DUP10 ADD PUSH2 0x215 JUMP JUMPDEST SWAP5 POP POP PUSH1 0x40 DUP7 ADD MLOAD PUSH8 0xFFFFFFFFFFFFFFFF DUP2 GT ISZERO PUSH2 0x310 JUMPI PUSH2 0x30F PUSH2 0xCF JUMP JUMPDEST JUMPDEST PUSH2 0x31C DUP9 DUP3 DUP10 ADD PUSH2 0x215 JUMP JUMPDEST SWAP4 POP POP PUSH1 0x60 PUSH2 0x32D DUP9 DUP3 DUP10 ADD PUSH2 0x288 JUMP JUMPDEST SWAP3 POP POP PUSH1 0x80 PUSH2 0x33E DUP9 DUP3 DUP10 ADD PUSH2 0xF2 JUMP JUMPDEST SWAP2 POP POP SWAP3 SWAP6 POP SWAP3 SWAP6 SWAP1 SWAP4 POP JUMP JUMPDEST PUSH0 DUP2 MLOAD SWAP1 POP SWAP2 SWAP1 POP JUMP JUMPDEST PUSH32 0x4E487B7100000000000000000000000000000000000000000000000000000000 PUSH0 MSTORE PUSH1 0x22 PUSH1 0x4 MSTORE PUSH1 0x24 PUSH0 REVERT JUMPDEST PUSH0 PUSH1 0x2 DUP3 DIV SWAP1 POP PUSH1 0x1 DUP3 AND DUP1 PUSH2 0x399 JUMPI PUSH1 0x7F DUP3 AND SWAP2 POP JUMPDEST PUSH1 0x20 DUP3 LT DUP2 SUB PUSH2 0x3AC JUMPI PUSH2 0x3AB PUSH2 0x355 JUMP JUMPDEST JUMPDEST POP SWAP2 SWAP1 POP JUMP JUMPDEST PUSH0 DUP2 SWAP1 POP DUP2 PUSH0 MSTORE PUSH1 0x20 PUSH0 KECCAK256 SWAP1 POP SWAP2 SWAP1 POP JUMP JUMPDEST PUSH0 PUSH1 0x20 PUSH1 0x1F DUP4 ADD DIV SWAP1 POP SWAP2 SWAP1 POP JUMP JUMPDEST PUSH0 DUP3 DUP3 SHL SWAP1 POP SWAP3 SWAP2 POP POP JUMP JUMPDEST PUSH0 PUSH1 0x8 DUP4 MUL PUSH2 0x40E PUSH32 0xFFFFFFFFFFFFFFFFFFFFFFFFFFFFFFFFFFFFFFFFFFFFFFFFFFFFFFFFFFFFFFFF DUP3 PUSH2 0x3D3 JUMP JUMPDEST PUSH2 0x418 DUP7 DUP4 PUSH2 0x3D3 JUMP JUMPDEST SWAP6 POP DUP1 NOT DUP5 AND SWAP4 POP DUP1 DUP7 AND DUP5 OR SWAP3 POP POP POP SWAP4 SWAP3 POP POP POP JUMP JUMPDEST PUSH0 DUP2 SWAP1 POP SWAP2 SWAP1 POP JUMP JUMPDEST PUSH0 PUSH2 0x453 PUSH2 0x44E PUSH2 0x449 DUP5 PUSH2 0xD3 JUMP JUMPDEST PUSH2 0x430 JUMP JUMPDEST PUSH2 0xD3 JUMP JUMPDEST SWAP1 POP SWAP2 SWAP1 POP JUMP JUMPDEST PUSH0 DUP2 SWAP1 POP SWAP2 SWAP1 POP JUMP JUMPDEST PUSH2 0x46C DUP4 PUSH2 0x439 JUMP JUMPDEST PUSH2 0x480 PUSH2 0x478 DUP3 PUSH2 0x45A JUMP JUMPDEST DUP5 DUP5 SLOAD PUSH2 0x3DF JUMP JUMPDEST DUP3 SSTORE POP POP POP POP JUMP JUMPDEST PUSH0 PUSH0 SWAP1 POP SWAP1 JUMP JUMPDEST PUSH2 0x497 PUSH2 0x488 JUMP JUMPDEST PUSH2 0x4A2 DUP2 DUP5 DUP5 PUSH2 0x463 JUMP JUMPDEST POP POP POP JUMP JUMPDEST JUMPDEST DUP2 DUP2 LT ISZERO PUSH2 0x4C5 JUMPI PUSH2 0x4BA PUSH0 DUP3 PUSH2 0x48F JUMP JUMPDEST PUSH1 0x1 DUP2 ADD SWAP1 POP PUSH2 0x4A8 JUMP JUMPDEST POP POP JUMP JUMPDEST PUSH1 0x1F DUP3 GT ISZERO PUSH2 0x50A JUMPI PUSH2 0x4DB DUP2 PUSH2 0x3B2 JUMP JUMPDEST PUSH2 0x4E4 DUP5 PUSH2 0x3C4 JUMP JUMPDEST DUP2 ADD PUSH1 0x20 DUP6 LT ISZERO PUSH2 0x4F3 JUMPI DUP2 SWAP1 POP JUMPDEST PUSH2 0x507 PUSH2 0x4FF DUP6 PUSH2 0x3C4 JUMP JUMPDEST DUP4 ADD DUP3 PUSH2 0x4A7 JUMP JUMPDEST POP POP JUMPDEST POP POP POP JUMP JUMPDEST PUSH0 DUP3 DUP3 SHR SWAP1 POP SWAP3 SWAP2 POP POP JUMP JUMPDEST PUSH0 PUSH2 0x52A PUSH0 NOT DUP5 PUSH1 0x8 MUL PUSH2 0x50F JUMP JUMPDEST NOT DUP1 DUP4 AND SWAP2 POP POP SWAP3 SWAP2 POP POP JUMP JUMPDEST PUSH0 PUSH2 0x542 DUP4 DUP4 PUSH2 0x51B JUMP JUMPDEST SWAP2 POP DUP3 PUSH1 0x2 MUL DUP3 OR SWAP1 POP SWAP3 SWAP2 POP POP JUMP JUMPDEST PUSH2 0x55B DUP3 PUSH2 0x34B JUMP JUMPDEST PUSH8 0xFFFFFFFFFFFFFFFF DUP2 GT ISZERO PUSH2 0x574 JUMPI PUSH2 0x573 PUSH2 0x11E JUMP JUMPDEST JUMPDEST PUSH2 0x57E DUP3 SLOAD PUSH2 0x382 JUMP JUMPDEST PUSH2 0x589 DUP3 DUP3 DUP6 PUSH2 0x4C9 JUMP JUMPDEST PUSH0 PUSH1 0x20 SWAP1 POP PUSH1 0x1F DUP4 GT PUSH1 0x1 DUP2 EQ PUSH2 0x5BA JUMPI PUSH0 DUP5 ISZERO PUSH2 0x5A8 JUMPI DUP3 DUP8 ADD MLOAD SWAP1 POP JUMPDEST PUSH2 0x5B2 DUP6 DUP3 PUSH2 0x537 JUMP JUMPDEST DUP7 SSTORE POP PUSH2 0x619 JUMP JUMPDEST PUSH1 0x1F NOT DUP5 AND PUSH2 0x5C8 DUP7 PUSH2 0x3B2 JUMP JUMPDEST PUSH0 JUMPDEST DUP3 DUP2 LT ISZERO PUSH2 0x5EF JUMPI DUP5 DUP10 ADD MLOAD DUP3 SSTORE PUSH1 0x1 DUP3 ADD SWAP2 POP PUSH1 0x20 DUP6 ADD SWAP5 POP PUSH1 0x20 DUP2 ADD SWAP1 POP PUSH2 0x5CA JUMP JUMPDEST DUP7 DUP4 LT ISZERO PUSH2 0x60C JUMPI DUP5 DUP10 ADD MLOAD PUSH2 0x608 PUSH1 0x1F DUP10 AND DUP3 PUSH2 0x51B JUMP JUMPDEST DUP4 SSTORE POP JUMPDEST PUSH1 0x1 PUSH1 0x2 DUP9 MUL ADD DUP9 SSTORE POP POP POP JUMPDEST POP POP POP POP POP POP JUMP JUMPDEST PUSH2 0x2309 DUP1 PUSH2 0x62E PUSH0 CODECOPY PUSH0 RETURN INVALID PUSH1 0x80 PUSH1 0x40 MSTORE PUSH1 0x4 CALLDATASIZE LT PUSH2 0x14A JUMPI PUSH0 CALLDATALOAD PUSH1 0xE0 SHR DUP1 PUSH4 0x83920E90 GT PUSH2 0xB5 JUMPI DUP1 PUSH4 0xA0C97BCE GT PUSH2 0x6E JUMPI DUP1 PUSH4 0xA0C97BCE EQ PUSH2 0x485 JUMPI DUP1 PUSH4 0xA39FAC12 EQ PUSH2 0x49B JUMPI DUP1 PUSH4 0xC8B342AB EQ PUSH2 0x4C5 JUMPI DUP1 PUSH4 0xD57BDE79 EQ PUSH2 0x501 JUMPI DUP1 PUSH4 0xD7BB99BA EQ PUSH2 0x52B JUMPI DUP1 PUSH4 0xEDF26D9B EQ PUSH2 0x535 JUMPI PUSH2 0x14A JUMP JUMPDEST DUP1 PUSH4 0x83920E90 EQ PUSH2 0x383 JUMPI DUP1 PUSH4 0x8D2A1DAD EQ PUSH2 0x3AD JUMPI DUP1 PUSH4 0x91F90157 EQ PUSH2 0x3B7 JUMPI DUP1 PUSH4 0x937E09B1 EQ PUSH2 0x3E1 JUMPI DUP1 PUSH4 0x94073C25 EQ PUSH2 0x40B JUMPI DUP1 PUSH4 0x9ACE38C2 EQ PUSH2 0x447 JUMPI PUSH2 0x14A JUMP JUMPDEST DUP1 PUSH4 0x4EDE3648 GT PUSH2 0x107 JUMPI DUP1 PUSH4 0x4EDE3648 EQ PUSH2 0x277 JUMPI DUP1 PUSH4 0x58D65629 EQ PUSH2 0x29F JUMPI DUP1 PUSH4 0x597E1FB5 EQ PUSH2 0x2C9 JUMPI DUP1 PUSH4 0x7B87D856 EQ PUSH2 0x2F3 JUMPI DUP1 PUSH4 0x7E06EB7D EQ PUSH2 0x31D JUMPI DUP1 PUSH4 0x82FDE093 EQ PUSH2 0x359 JUMPI PUSH2 0x14A JUMP JUMPDEST DUP1 PUSH4 0xA144391 EQ PUSH2 0x14E JUMPI DUP1 PUSH4 0x2EBC9A3E EQ PUSH2 0x18A JUMPI DUP1 PUSH4 0x3197CBB6 EQ PUSH2 0x1C6 JUMPI DUP1 PUSH4 0x4051DDAC EQ PUSH2 0x1F0 JUMPI DUP1 PUSH4 0x481C6A75 EQ PUSH2 0x223 JUMPI DUP1 PUSH4 0x4E69D560 EQ PUSH2 0x24D JUMPI JUMPDEST PUSH0 PUSH0 REVERT JUMPDEST CALLVALUE DUP1 ISZERO PUSH2 0x159 JUMPI PUSH0 PUSH0 REVERT JUMPDEST POP PUSH2 0x174 PUSH1 0x4 DUP1 CALLDATASIZE SUB DUP2 ADD SWAP1 PUSH2 0x16F SWAP2 SWAP1 PUSH2 0x16F3 JUMP JUMPDEST PUSH2 0x571 JUMP JUMPDEST PUSH1 0x40 MLOAD PUSH2 0x181 SWAP2 SWAP1 PUSH2 0x1738 JUMP JUMPDEST PUSH1 0x40 MLOAD DUP1 SWAP2 SUB SWAP1 RETURN JUMPDEST CALLVALUE DUP1 ISZERO PUSH2 0x195 JUMPI PUSH0 PUSH0 REVERT JUMPDEST POP PUSH2 0x1B0 PUSH1 0x4 DUP1 CALLDATASIZE SUB DUP2 ADD SWAP1 PUSH2 0x1AB SWAP2 SWAP1 PUSH2 0x16F3 JUMP JUMPDEST PUSH2 0x58E JUMP JUMPDEST PUSH1 0x40 MLOAD PUSH2 0x1BD SWAP2 SWAP1 PUSH2 0x1769 JUMP JUMPDEST PUSH1 0x40 MLOAD DUP1 SWAP2 SUB SWAP1 RETURN JUMPDEST CALLVALUE DUP1 ISZERO PUSH2 0x1D1 JUMPI PUSH0 PUSH0 REVERT JUMPDEST POP PUSH2 0x1DA PUSH2 0x5A3 JUMP JUMPDEST PUSH1 0x40 MLOAD PUSH2 0x1E7 SWAP2 SWAP1 PUSH2 0x1769 JUMP JUMPDEST PUSH1 0x40 MLOAD DUP1 SWAP2 SUB SWAP1 RETURN JUMPDEST CALLVALUE DUP1 ISZERO PUSH2 0x1FB JUMPI PUSH0 PUSH0 REVERT JUMPDEST POP PUSH2 0x204 PUSH2 0x5A9 JUMP JUMPDEST PUSH1 0x40 MLOAD PUSH2 0x21A SWAP11 SWAP10 SWAP9 SWAP8 SWAP7 SWAP6 SWAP5 SWAP4 SWAP3 SWAP2 SWAP1 PUSH2 0x18B8 JUMP JUMPDEST PUSH1 0x40 MLOAD DUP1 SWAP2 SUB SWAP1 RETURN JUMPDEST CALLVALUE DUP1 ISZERO PUSH2 0x22E JUMPI PUSH0 PUSH0 REVERT JUMPDEST POP PUSH2 0x237 PUSH2 0x7C5 JUMP JUMPDEST PUSH1 0x40 MLOAD PUSH2 0x244 SWAP2 SWAP1 PUSH2 0x1967 JUMP JUMPDEST PUSH1 0x40 MLOAD DUP1 SWAP2 SUB SWAP1 RETURN JUMPDEST CALLVALUE DUP1 ISZERO PUSH2 0x258 JUMPI PUSH0 PUSH0 REVERT JUMPDEST POP PUSH2 0x261 PUSH2 0x7EA JUMP JUMPDEST PUSH1 0x40 MLOAD PUSH2 0x26E SWAP2 SWAP1 PUSH2 0x1738 JUMP JUMPDEST PUSH1 0x40 MLOAD DUP1 SWAP2 SUB SWAP1 RETURN JUMPDEST CALLVALUE DUP1 ISZERO PUSH2 0x282 JUMPI PUSH0 PUSH0 REVERT JUMPDEST POP PUSH2 0x29D PUSH1 0x4 DUP1 CALLDATASIZE SUB DUP2 ADD SWAP1 PUSH2 0x298 SWAP2 SWAP1 PUSH2 0x19BB JUMP JUMPDEST PUSH2 0x7FF JUMP JUMPDEST STOP JUMPDEST CALLVALUE DUP1 ISZERO PUSH2 0x2AA JUMPI PUSH0 PUSH0 REVERT JUMPDEST POP PUSH2 0x2B3 PUSH2 0x949 JUMP JUMPDEST PUSH1 0x40 MLOAD PUSH2 0x2C0 SWAP2 SWAP1 PUSH2 0x19E6 JUMP JUMPDEST PUSH1 0x40 MLOAD DUP1 SWAP2 SUB SWAP1 RETURN JUMPDEST CALLVALUE DUP1 ISZERO PUSH2 0x2D4 JUMPI PUSH0 PUSH0 REVERT JUMPDEST POP PUSH2 0x2DD PUSH2 0x9D5 JUMP JUMPDEST PUSH1 0x40 MLOAD PUSH2 0x2EA SWAP2 SWAP1 PUSH2 0x1738 JUMP JUMPDEST PUSH1 0x40 MLOAD DUP1 SWAP2 SUB SWAP1 RETURN JUMPDEST CALLVALUE DUP1 ISZERO PUSH2 0x2FE JUMPI PUSH0 PUSH0 REVERT JUMPDEST POP PUSH2 0x307 PUSH2 0x9E7 JUMP JUMPDEST PUSH1 0x40 MLOAD PUSH2 0x314 SWAP2 SWAP1 PUSH2 0x19E6 JUMP JUMPDEST PUSH1 0x40 MLOAD DUP1 SWAP2 SUB SWAP1 RETURN JUMPDEST CALLVALUE DUP1 ISZERO PUSH2 0x328 JUMPI PUSH0 PUSH0 REVERT JUMPDEST POP PUSH2 0x343 PUSH1 0x4 DUP1 CALLDATASIZE SUB DUP2 ADD SWAP1 PUSH2 0x33E SWAP2 SWAP1 PUSH2 0x1A06 JUMP JUMPDEST PUSH2 0xA73 JUMP JUMPDEST PUSH1 0x40 MLOAD PUSH2 0x350 SWAP2 SWAP1 PUSH2 0x1738 JUMP JUMPDEST PUSH1 0x40 MLOAD DUP1 SWAP2 SUB SWAP1 RETURN JUMPDEST CALLVALUE DUP1 ISZERO PUSH2 0x364 JUMPI PUSH0 PUSH0 REVERT JUMPDEST POP PUSH2 0x36D PUSH2 0xABB JUMP JUMPDEST PUSH1 0x40 MLOAD PUSH2 0x37A SWAP2 SWAP1 PUSH2 0x1769 JUMP JUMPDEST PUSH1 0x40 MLOAD DUP1 SWAP2 SUB SWAP1 RETURN JUMPDEST CALLVALUE DUP1 ISZERO PUSH2 0x38E JUMPI PUSH0 PUSH0 REVERT JUMPDEST POP PUSH2 0x397 PUSH2 0xAC1 JUMP JUMPDEST PUSH1 0x40 MLOAD PUSH2 0x3A4 SWAP2 SWAP1 PUSH2 0x1B3B JUMP JUMPDEST PUSH1 0x40 MLOAD DUP1 SWAP2 SUB SWAP1 RETURN JUMPDEST PUSH2 0x3B5 PUSH2 0xB84 JUMP JUMPDEST STOP JUMPDEST CALLVALUE DUP1 ISZERO PUSH2 0x3C2 JUMPI PUSH0 PUSH0 REVERT JUMPDEST POP PUSH2 0x3CB PUSH2 0xED4 JUMP JUMPDEST PUSH1 0x40 MLOAD PUSH2 0x3D8 SWAP2 SWAP1 PUSH2 0x1967 JUMP JUMPDEST PUSH1 0x40 MLOAD DUP1 SWAP2 SUB SWAP1 RETURN JUMPDEST CALLVALUE DUP1 ISZERO PUSH2 0x3EC JUMPI PUSH0 PUSH0 REVERT JUMPDEST POP PUSH2 0x3F5 PUSH2 0xEF9 JUMP JUMPDEST PUSH1 0x40 MLOAD PUSH2 0x402 SWAP2 SWAP1 PUSH2 0x1769 JUMP JUMPDEST PUSH1 0x40 MLOAD DUP1 SWAP2 SUB SWAP1 RETURN JUMPDEST CALLVALUE DUP1 ISZERO PUSH2 0x416 JUMPI PUSH0 PUSH0 REVERT JUMPDEST POP PUSH2 0x431 PUSH1 0x4 DUP1 CALLDATASIZE SUB DUP2 ADD SWAP1 PUSH2 0x42C SWAP2 SWAP1 PUSH2 0x16F3 JUMP JUMPDEST PUSH2 0xEFF JUMP JUMPDEST PUSH1 0x40 MLOAD PUSH2 0x43E SWAP2 SWAP1 PUSH2 0x1967 JUMP JUMPDEST PUSH1 0x40 MLOAD DUP1 SWAP2 SUB SWAP1 RETURN JUMPDEST CALLVALUE DUP1 ISZERO PUSH2 0x452 JUMPI PUSH0 PUSH0 REVERT JUMPDEST POP PUSH2 0x46D PUSH1 0x4 DUP1 CALLDATASIZE SUB DUP2 ADD SWAP1 PUSH2 0x468 SWAP2 SWAP1 PUSH2 0x1B85 JUMP JUMPDEST PUSH2 0xFC6 JUMP JUMPDEST PUSH1 0x40 MLOAD PUSH2 0x47C SWAP4 SWAP3 SWAP2 SWAP1 PUSH2 0x1BB0 JUMP JUMPDEST PUSH1 0x40 MLOAD DUP1 SWAP2 SUB SWAP1 RETURN JUMPDEST CALLVALUE DUP1 ISZERO PUSH2 0x490 JUMPI PUSH0 PUSH0 REVERT JUMPDEST POP PUSH2 0x499 PUSH2 0x1019 JUMP JUMPDEST STOP JUMPDEST CALLVALUE DUP1 ISZERO PUSH2 0x4A6 JUMPI PUSH0 PUSH0 REVERT JUMPDEST POP PUSH2 0x4AF PUSH2 0x1130 JUMP JUMPDEST PUSH1 0x40 MLOAD PUSH2 0x4BC SWAP2 SWAP1 PUSH2 0x1BE5 JUMP JUMPDEST PUSH1 0x40 MLOAD DUP1 SWAP2 SUB SWAP1 RETURN JUMPDEST CALLVALUE DUP1 ISZERO PUSH2 0x4D0 JUMPI PUSH0 PUSH0 REVERT JUMPDEST POP PUSH2 0x4EB PUSH1 0x4 DUP1 CALLDATASIZE SUB DUP2 ADD SWAP1 PUSH2 0x4E6 SWAP2 SWAP1 PUSH2 0x16F3 JUMP JUMPDEST PUSH2 0x11BB JUMP JUMPDEST PUSH1 0x40 MLOAD PUSH2 0x4F8 SWAP2 SWAP1 PUSH2 0x1769 JUMP JUMPDEST PUSH1 0x40 MLOAD DUP1 SWAP2 SUB SWAP1 RETURN JUMPDEST CALLVALUE DUP1 ISZERO PUSH2 0x50C JUMPI PUSH0 PUSH0 REVERT JUMPDEST POP PUSH2 0x515 PUSH2 0x124E JUMP JUMPDEST PUSH1 0x40 MLOAD PUSH2 0x522 SWAP2 SWAP1 PUSH2 0x1769 JUMP JUMPDEST PUSH1 0x40 MLOAD DUP1 SWAP2 SUB SWAP1 RETURN JUMPDEST PUSH2 0x533 PUSH2 0x1254 JUMP JUMPDEST STOP JUMPDEST CALLVALUE DUP1 ISZERO PUSH2 0x540 JUMPI PUSH0 PUSH0 REVERT JUMPDEST POP PUSH2 0x55B PUSH1 0x4 DUP1 CALLDATASIZE SUB DUP2 ADD SWAP1 PUSH2 0x556 SWAP2 SWAP1 PUSH2 0x1B85 JUMP JUMPDEST PUSH2 0x165A JUMP JUMPDEST PUSH1 0x40 MLOAD PUSH2 0x568 SWAP2 SWAP1 PUSH2 0x1967 JUMP JUMPDEST PUSH1 0x40 MLOAD DUP1 SWAP2 SUB SWAP1 RETURN JUMPDEST PUSH1 0x5 PUSH1 0x20 MSTORE DUP1 PUSH0 MSTORE PUSH1 0x40 PUSH0 KECCAK256 PUSH0 SWAP2 POP SLOAD SWAP1 PUSH2 0x100 EXP SWAP1 DIV PUSH1 0xFF AND DUP2 JUMP JUMPDEST PUSH1 0x6 PUSH1 0x20 MSTORE DUP1 PUSH0 MSTORE PUSH1 0x40 PUSH0 KECCAK256 PUSH0 SWAP2 POP SWAP1 POP SLOAD DUP2 JUMP JUMPDEST PUSH1 0xB SLOAD DUP2 JUMP JUMPDEST PUSH0 PUSH0 PUSH0 PUSH0 PUSH0 PUSH1 0x60 DUP1 PUSH0 PUSH0 PUSH1 0x60 PUSH1 0x2 SLOAD SELFBALANCE PUSH1 0x7 SLOAD PUSH1 0x1 PUSH0 SWAP1 SLOAD SWAP1 PUSH2 0x100 EXP SWAP1 DIV PUSH20 0xFFFFFFFFFFFFFFFFFFFFFFFFFFFFFFFFFFFFFFFF AND PUSH1 0xA SLOAD PUSH1 0x3 PUSH1 0x4 PUSH1 0xB SLOAD PUSH1 0x9 PUSH0 SWAP1 SLOAD SWAP1 PUSH2 0x100 EXP SWAP1 DIV PUSH20 0xFFFFFFFFFFFFFFFFFFFFFFFFFFFFFFFFFFFFFFFF AND PUSH1 0x8 DUP5 DUP1 SLOAD PUSH2 0x618 SWAP1 PUSH2 0x1C32 JUMP JUMPDEST DUP1 PUSH1 0x1F ADD PUSH1 0x20 DUP1 SWAP2 DIV MUL PUSH1 0x20 ADD PUSH1 0x40 MLOAD SWAP1 DUP2 ADD PUSH1 0x40 MSTORE DUP1 SWAP3 SWAP2 SWAP1 DUP2 DUP2 MSTORE PUSH1 0x20 ADD DUP3 DUP1 SLOAD PUSH2 0x644 SWAP1 PUSH2 0x1C32 JUMP JUMPDEST DUP1 ISZERO PUSH2 0x68F JUMPI DUP1 PUSH1 0x1F LT PUSH2 0x666 JUMPI PUSH2 0x100 DUP1 DUP4 SLOAD DIV MUL DUP4 MSTORE SWAP2 PUSH1 0x20 ADD SWAP2 PUSH2 0x68F JUMP JUMPDEST DUP3 ADD SWAP2 SWAP1 PUSH0 MSTORE PUSH1 0x20 PUSH0 KECCAK256 SWAP1 JUMPDEST DUP2 SLOAD DUP2 MSTORE SWAP1 PUSH1 0x1 ADD SWAP1 PUSH1 0x20 ADD DUP1 DUP4 GT PUSH2 0x672 JUMPI DUP3 SWAP1 SUB PUSH1 0x1F AND DUP3 ADD SWAP2 JUMPDEST POP POP POP POP POP SWAP5 POP DUP4 DUP1 SLOAD PUSH2 0x6A2 SWAP1 PUSH2 0x1C32 JUMP JUMPDEST DUP1 PUSH1 0x1F ADD PUSH1 0x20 DUP1 SWAP2 DIV MUL PUSH1 0x20 ADD PUSH1 0x40 MLOAD SWAP1 DUP2 ADD PUSH1 0x40 MSTORE DUP1 SWAP3 SWAP2 SWAP1 DUP2 DUP2 MSTORE PUSH1 0x20 ADD DUP3 DUP1 SLOAD PUSH2 0x6CE SWAP1 PUSH2 0x1C32 JUMP JUMPDEST DUP1 ISZERO PUSH2 0x719 JUMPI DUP1 PUSH1 0x1F LT PUSH2 0x6F0 JUMPI PUSH2 0x100 DUP1 DUP4 SLOAD DIV MUL DUP4 MSTORE SWAP2 PUSH1 0x20 ADD SWAP2 PUSH2 0x719 JUMP JUMPDEST DUP3 ADD SWAP2 SWAP1 PUSH0 MSTORE PUSH1 0x20 PUSH0 KECCAK256 SWAP1 JUMPDEST DUP2 SLOAD DUP2 MSTORE SWAP1 PUSH1 0x1 ADD SWAP1 PUSH1 0x20 ADD DUP1 DUP4 GT PUSH2 0x6FC JUMPI DUP3 SWAP1 SUB PUSH1 0x1F AND DUP3 ADD SWAP2 JUMPDEST POP POP POP POP POP SWAP4 POP DUP1 DUP1 SLOAD DUP1 PUSH1 0x20 MUL PUSH1 0x20 ADD PUSH1 0x40 MLOAD SWAP1 DUP2 ADD PUSH1 0x40 MSTORE DUP1 SWAP3 SWAP2 SWAP1 DUP2 DUP2 MSTORE PUSH1 0x20 ADD DUP3 DUP1 SLOAD DUP1 ISZERO PUSH2 0x79E JUMPI PUSH1 0x20 MUL DUP3 ADD SWAP2 SWAP1 PUSH0 MSTORE PUSH1 0x20 PUSH0 KECCAK256 SWAP1 JUMPDEST DUP2 PUSH0 SWAP1 SLOAD SWAP1 PUSH2 0x100 EXP SWAP1 DIV PUSH20 0xFFFFFFFFFFFFFFFFFFFFFFFFFFFFFFFFFFFFFFFF AND PUSH20 0xFFFFFFFFFFFFFFFFFFFFFFFFFFFFFFFFFFFFFFFF AND DUP2 MSTORE PUSH1 0x20 ADD SWAP1 PUSH1 0x1 ADD SWAP1 DUP1 DUP4 GT PUSH2 0x755 JUMPI JUMPDEST POP POP POP POP POP SWAP1 POP SWAP10 POP SWAP10 POP SWAP10 POP SWAP10 POP SWAP10 POP SWAP10 POP SWAP10 POP SWAP10 POP SWAP10 POP SWAP10 POP SWAP1 SWAP2 SWAP3 SWAP4 SWAP5 SWAP6 SWAP7 SWAP8 SWAP9 SWAP10 JUMP JUMPDEST PUSH1 0x1 PUSH0 SWAP1 SLOAD SWAP1 PUSH2 0x100 EXP SWAP1 DIV PUSH20 0xFFFFFFFFFFFFFFFFFFFFFFFFFFFFFFFFFFFFFFFF AND DUP2 JUMP JUMPDEST PUSH0 PUSH1 0xC PUSH0 SWAP1 SLOAD SWAP1 PUSH2 0x100 EXP SWAP1 DIV PUSH1 0xFF AND SWAP1 POP SWAP1 JUMP JUMPDEST PUSH0 PUSH1 0x6 PUSH0 DUP4 PUSH20 0xFFFFFFFFFFFFFFFFFFFFFFFFFFFFFFFFFFFFFFFF AND PUSH20 0xFFFFFFFFFFFFFFFFFFFFFFFFFFFFFFFFFFFFFFFF AND DUP2 MSTORE PUSH1 0x20 ADD SWAP1 DUP2 MSTORE PUSH1 0x20 ADD PUSH0 KECCAK256 SLOAD GT PUSH2 0x87E JUMPI PUSH1 0x40 MLOAD PUSH32 0x8C379A000000000000000000000000000000000000000000000000000000000 DUP2 MSTORE PUSH1 0x4 ADD PUSH2 0x875 SWAP1 PUSH2 0x1CAC JUMP JUMPDEST PUSH1 0x40 MLOAD DUP1 SWAP2 SUB SWAP1 REVERT JUMPDEST PUSH0 PUSH1 0x6 PUSH0 DUP4 PUSH20 0xFFFFFFFFFFFFFFFFFFFFFFFFFFFFFFFFFFFFFFFF AND PUSH20 0xFFFFFFFFFFFFFFFFFFFFFFFFFFFFFFFFFFFFFFFF AND DUP2 MSTORE PUSH1 0x20 ADD SWAP1 DUP2 MSTORE PUSH1 0x20 ADD PUSH0 KECCAK256 SLOAD SWAP1 POP PUSH0 PUSH1 0x6 PUSH0 DUP5 PUSH20 0xFFFFFFFFFFFFFFFFFFFFFFFFFFFFFFFFFFFFFFFF AND PUSH20 0xFFFFFFFFFFFFFFFFFFFFFFFFFFFFFFFFFFFFFFFF AND DUP2 MSTORE PUSH1 0x20 ADD SWAP1 DUP2 MSTORE PUSH1 0x20 ADD PUSH0 KECCAK256 DUP2 SWAP1 SSTORE POP DUP2 PUSH20 0xFFFFFFFFFFFFFFFFFFFFFFFFFFFFFFFFFFFFFFFF AND PUSH2 0x8FC DUP3 SWAP1 DUP2 ISZERO MUL SWAP1 PUSH1 0x40 MLOAD PUSH0 PUSH1 0x40 MLOAD DUP1 DUP4 SUB DUP2 DUP6 DUP9 DUP9 CALL SWAP4 POP POP POP POP ISZERO DUP1 ISZERO PUSH2 0x944 JUMPI RETURNDATASIZE PUSH0 PUSH0 RETURNDATACOPY RETURNDATASIZE PUSH0 REVERT JUMPDEST POP POP POP JUMP JUMPDEST PUSH1 0x4 DUP1 SLOAD PUSH2 0x956 SWAP1 PUSH2 0x1C32 JUMP JUMPDEST DUP1 PUSH1 0x1F ADD PUSH1 0x20 DUP1 SWAP2 DIV MUL PUSH1 0x20 ADD PUSH1 0x40 MLOAD SWAP1 DUP2 ADD PUSH1 0x40 MSTORE DUP1 SWAP3 SWAP2 SWAP1 DUP2 DUP2 MSTORE PUSH1 0x20 ADD DUP3 DUP1 SLOAD PUSH2 0x982 SWAP1 PUSH2 0x1C32 JUMP JUMPDEST DUP1 ISZERO PUSH2 0x9CD JUMPI DUP1 PUSH1 0x1F LT PUSH2 0x9A4 JUMPI PUSH2 0x100 DUP1 DUP4 SLOAD DIV MUL DUP4 MSTORE SWAP2 PUSH1 0x20 ADD SWAP2 PUSH2 0x9CD JUMP JUMPDEST DUP3 ADD SWAP2 SWAP1 PUSH0 MSTORE PUSH1 0x20 PUSH0 KECCAK256 SWAP1 JUMPDEST DUP2 SLOAD DUP2 MSTORE SWAP1 PUSH1 0x1 ADD SWAP1 PUSH1 0x20 ADD DUP1 DUP4 GT PUSH2 0x9B0 JUMPI DUP3 SWAP1 SUB PUSH1 0x1F AND DUP3 ADD SWAP2 JUMPDEST POP POP POP POP POP DUP2 JUMP JUMPDEST PUSH1 0xC PUSH0 SWAP1 SLOAD SWAP1 PUSH2 0x100 EXP SWAP1 DIV PUSH1 0xFF AND DUP2 JUMP JUMPDEST PUSH1 0x3 DUP1 SLOAD PUSH2 0x9F4 SWAP1 PUSH2 0x1C32 JUMP JUMPDEST DUP1 PUSH1 0x1F ADD PUSH1 0x20 DUP1 SWAP2 DIV MUL PUSH1 0x20 ADD PUSH1 0x40 MLOAD SWAP1 DUP2 ADD PUSH1 0x40 MSTORE DUP1 SWAP3 SWAP2 SWAP1 DUP2 DUP2 MSTORE PUSH1 0x20 ADD DUP3 DUP1 SLOAD PUSH2 0xA20 SWAP1 PUSH2 0x1C32 JUMP JUMPDEST DUP1 ISZERO PUSH2 0xA6B JUMPI DUP1 PUSH1 0x1F LT PUSH2 0xA42 JUMPI PUSH2 0x100 DUP1 DUP4 SLOAD DIV MUL DUP4 MSTORE SWAP2 PUSH1 0x20 ADD SWAP2 PUSH2 0xA6B JUMP JUMPDEST DUP3 ADD SWAP2 SWAP1 PUSH0 MSTORE PUSH1 0x20 PUSH0 KECCAK256 SWAP1 JUMPDEST DUP2 SLOAD DUP2 MSTORE SWAP1 PUSH1 0x1 ADD SWAP1 PUSH1 0x20 ADD DUP1 DUP4 GT PUSH2 0xA4E JUMPI DUP3 SWAP1 SUB PUSH1 0x1F AND DUP3 ADD SWAP2 JUMPDEST POP POP POP POP POP DUP2 JUMP JUMPDEST PUSH0 PUSH2 0xA7D DUP3 PUSH2 0xEFF JUMP JUMPDEST PUSH20 0xFFFFFFFFFFFFFFFFFFFFFFFFFFFFFFFFFFFFFFFF AND PUSH2 0xA9C DUP5 PUSH2 0xEFF JUMP JUMPDEST PUSH20 0xFFFFFFFFFFFFFFFFFFFFFFFFFFFFFFFFFFFFFFFF AND EQ SWAP1 POP SWAP3 SWAP2 POP POP JUMP JUMPDEST PUSH1 0x7 SLOAD DUP2 JUMP JUMPDEST PUSH1 0x60 PUSH0 DUP1 SLOAD DUP1 PUSH1 0x20 MUL PUSH1 0x20 ADD PUSH1 0x40 MLOAD SWAP1 DUP2 ADD PUSH1 0x40 MSTORE DUP1 SWAP3 SWAP2 SWAP1 DUP2 DUP2 MSTORE PUSH1 0x20 ADD PUSH0 SWAP1 JUMPDEST DUP3 DUP3 LT ISZERO PUSH2 0xB7B JUMPI DUP4 DUP3 SWAP1 PUSH0 MSTORE PUSH1 0x20 PUSH0 KECCAK256 SWAP1 PUSH1 0x3 MUL ADD PUSH1 0x40 MLOAD DUP1 PUSH1 0x60 ADD PUSH1 0x40 MSTORE SWAP1 DUP2 PUSH0 DUP3 ADD SLOAD DUP2 MSTORE PUSH1 0x20 ADD PUSH1 0x1 DUP3 ADD SLOAD DUP2 MSTORE PUSH1 0x20 ADD PUSH1 0x2 DUP3 ADD PUSH0 SWAP1 SLOAD SWAP1 PUSH2 0x100 EXP SWAP1 DIV PUSH20 0xFFFFFFFFFFFFFFFFFFFFFFFFFFFFFFFFFFFFFFFF AND PUSH20 0xFFFFFFFFFFFFFFFFFFFFFFFFFFFFFFFFFFFFFFFF AND PUSH20 0xFFFFFFFFFFFFFFFFFFFFFFFFFFFFFFFFFFFFFFFF AND DUP2 MSTORE POP POP DUP2 MSTORE PUSH1 0x20 ADD SWAP1 PUSH1 0x1 ADD SWAP1 PUSH2 0xAE3 JUMP JUMPDEST POP POP POP POP SWAP1 POP SWAP1 JUMP JUMPDEST TIMESTAMP PUSH1 0xB SLOAD LT ISZERO PUSH2 0xED2 JUMPI PUSH0 PUSH0 SWAP1 POP PUSH0 PUSH1 0x1 PUSH1 0x8 DUP1 SLOAD SWAP1 POP PUSH2 0xBA5 SWAP2 SWAP1 PUSH2 0x1CF7 JUMP JUMPDEST PUSH8 0xFFFFFFFFFFFFFFFF DUP2 GT ISZERO PUSH2 0xBBE JUMPI PUSH2 0xBBD PUSH2 0x1D2A JUMP JUMPDEST JUMPDEST PUSH1 0x40 MLOAD SWAP1 DUP1 DUP3 MSTORE DUP1 PUSH1 0x20 MUL PUSH1 0x20 ADD DUP3 ADD PUSH1 0x40 MSTORE DUP1 ISZERO PUSH2 0xBEC JUMPI DUP2 PUSH1 0x20 ADD PUSH1 0x20 DUP3 MUL DUP1 CALLDATASIZE DUP4 CALLDATACOPY DUP1 DUP3 ADD SWAP2 POP POP SWAP1 POP JUMPDEST POP SWAP1 POP PUSH0 PUSH0 SWAP1 POP JUMPDEST PUSH1 0x8 DUP1 SLOAD SWAP1 POP DUP2 LT ISZERO PUSH2 0xE0A JUMPI PUSH2 0xC45 PUSH1 0x8 DUP3 DUP2 SLOAD DUP2 LT PUSH2 0xC18 JUMPI PUSH2 0xC17 PUSH2 0x1D57 JUMP JUMPDEST JUMPDEST SWAP1 PUSH0 MSTORE PUSH1 0x20 PUSH0 KECCAK256 ADD PUSH0 SWAP1 SLOAD SWAP1 PUSH2 0x100 EXP SWAP1 DIV PUSH20 0xFFFFFFFFFFFFFFFFFFFFFFFFFFFFFFFFFFFFFFFF AND PUSH2 0xEFF JUMP JUMPDEST PUSH20 0xFFFFFFFFFFFFFFFFFFFFFFFFFFFFFFFFFFFFFFFF AND PUSH32 0xDB2255C40DD3A96AC26CEFE042EF05B7245BEB67BA6FE3DEB5A32048C48AE645 PUSH1 0x40 MLOAD PUSH1 0x40 MLOAD DUP1 SWAP2 SUB SWAP1 LOG2 PUSH1 0x9 PUSH0 SWAP1 SLOAD SWAP1 PUSH2 0x100 EXP SWAP1 DIV PUSH20 0xFFFFFFFFFFFFFFFFFFFFFFFFFFFFFFFFFFFFFFFF AND PUSH20 0xFFFFFFFFFFFFFFFFFFFFFFFFFFFFFFFFFFFFFFFF AND PUSH32 0xDB2255C40DD3A96AC26CEFE042EF05B7245BEB67BA6FE3DEB5A32048C48AE645 PUSH1 0x40 MLOAD PUSH1 0x40 MLOAD DUP1 SWAP2 SUB SWAP1 LOG2 PUSH2 0xD61 PUSH2 0xD32 PUSH1 0x8 DUP4 DUP2 SLOAD DUP2 LT PUSH2 0xD05 JUMPI PUSH2 0xD04 PUSH2 0x1D57 JUMP JUMPDEST JUMPDEST SWAP1 PUSH0 MSTORE PUSH1 0x20 PUSH0 KECCAK256 ADD PUSH0 SWAP1 SLOAD SWAP1 PUSH2 0x100 EXP SWAP1 DIV PUSH20 0xFFFFFFFFFFFFFFFFFFFFFFFFFFFFFFFFFFFFFFFF AND PUSH2 0xEFF JUMP JUMPDEST PUSH2 0xD5C PUSH1 0x9 PUSH0 SWAP1 SLOAD SWAP1 PUSH2 0x100 EXP SWAP1 DIV PUSH20 0xFFFFFFFFFFFFFFFFFFFFFFFFFFFFFFFFFFFFFFFF AND PUSH2 0xEFF JUMP JUMPDEST PUSH2 0xA73 JUMP JUMPDEST PUSH2 0xDFD JUMPI PUSH1 0x8 DUP2 DUP2 SLOAD DUP2 LT PUSH2 0xD79 JUMPI PUSH2 0xD78 PUSH2 0x1D57 JUMP JUMPDEST JUMPDEST SWAP1 PUSH0 MSTORE PUSH1 0x20 PUSH0 KECCAK256 ADD PUSH0 SWAP1 SLOAD SWAP1 PUSH2 0x100 EXP SWAP1 DIV PUSH20 0xFFFFFFFFFFFFFFFFFFFFFFFFFFFFFFFFFFFFFFFF AND DUP3 DUP5 DUP2 MLOAD DUP2 LT PUSH2 0xDB4 JUMPI PUSH2 0xDB3 PUSH2 0x1D57 JUMP JUMPDEST JUMPDEST PUSH1 0x20 MUL PUSH1 0x20 ADD ADD SWAP1 PUSH20 0xFFFFFFFFFFFFFFFFFFFFFFFFFFFFFFFFFFFFFFFF AND SWAP1 DUP2 PUSH20 0xFFFFFFFFFFFFFFFFFFFFFFFFFFFFFFFFFFFFFFFF AND DUP2 MSTORE POP POP DUP3 DUP1 PUSH2 0xDF9 SWAP1 PUSH2 0x1D84 JUMP JUMPDEST SWAP4 POP POP JUMPDEST DUP1 DUP1 PUSH1 0x1 ADD SWAP2 POP POP PUSH2 0xBF4 JUMP JUMPDEST POP DUP1 PUSH1 0x40 MLOAD PUSH2 0xE19 SWAP2 SWAP1 PUSH2 0x1E57 JUMP JUMPDEST PUSH1 0x40 MLOAD DUP1 SWAP2 SUB SWAP1 KECCAK256 PUSH32 0x8F58F64F8E5F3DFF0793565C7810439028723C99BAEE435E979EDE9712271433 PUSH1 0x40 MLOAD PUSH1 0x40 MLOAD DUP1 SWAP2 SUB SWAP1 LOG2 PUSH1 0x8 PUSH1 0x40 MLOAD PUSH2 0xE5C SWAP2 SWAP1 PUSH2 0x1F4D JUMP JUMPDEST PUSH1 0x40 MLOAD DUP1 SWAP2 SUB SWAP1 KECCAK256 PUSH32 0x8F58F64F8E5F3DFF0793565C7810439028723C99BAEE435E979EDE9712271433 PUSH1 0x40 MLOAD PUSH1 0x40 MLOAD DUP1 SWAP2 SUB SWAP1 LOG2 PUSH0 PUSH0 SWAP1 POP JUMPDEST DUP2 MLOAD DUP2 LT ISZERO PUSH2 0xECE JUMPI PUSH2 0xEC1 DUP3 DUP3 DUP2 MLOAD DUP2 LT PUSH2 0xEB4 JUMPI PUSH2 0xEB3 PUSH2 0x1D57 JUMP JUMPDEST JUMPDEST PUSH1 0x20 MUL PUSH1 0x20 ADD ADD MLOAD PUSH2 0x7FF JUMP JUMPDEST DUP1 DUP1 PUSH1 0x1 ADD SWAP2 POP POP PUSH2 0xE95 JUMP JUMPDEST POP POP POP JUMPDEST JUMP JUMPDEST PUSH1 0x9 PUSH0 SWAP1 SLOAD SWAP1 PUSH2 0x100 EXP SWAP1 DIV PUSH20 0xFFFFFFFFFFFFFFFFFFFFFFFFFFFFFFFFFFFFFFFF AND DUP2 JUMP JUMPDEST PUSH1 0x2 SLOAD DUP2 JUMP JUMPDEST PUSH0 PUSH0 DUP3 SWAP1 POP PUSH0 PUSH0 SWAP1 POP JUMPDEST PUSH1 0x14 DUP2 LT ISZERO PUSH2 0xFBC JUMPI PUSH0 DUP5 PUSH1 0x60 SHL DUP3 PUSH1 0x14 DUP2 LT PUSH2 0xF29 JUMPI PUSH2 0xF28 PUSH2 0x1D57 JUMP JUMPDEST JUMPDEST BYTE PUSH1 0xF8 SHL PUSH1 0xF8 SHR SWAP1 POP PUSH1 0x41 DUP2 PUSH1 0xFF AND LT ISZERO DUP1 ISZERO PUSH2 0xF4A JUMPI POP PUSH1 0x5A DUP2 PUSH1 0xFF AND GT ISZERO JUMPDEST ISZERO PUSH2 0xF5F JUMPI PUSH1 0x20 DUP2 PUSH2 0xF5C SWAP2 SWAP1 PUSH2 0x1F6F JUMP JUMPDEST SWAP1 POP JUMPDEST DUP2 PUSH1 0x13 PUSH2 0xF6C SWAP2 SWAP1 PUSH2 0x1CF7 JUMP JUMPDEST PUSH1 0x8 PUSH2 0xF78 SWAP2 SWAP1 PUSH2 0x1FA3 JUMP JUMPDEST PUSH20 0xFFFFFFFFFFFFFFFFFFFFFFFFFFFFFFFFFFFFFFFF AND DUP2 PUSH1 0xFF AND PUSH20 0xFFFFFFFFFFFFFFFFFFFFFFFFFFFFFFFFFFFFFFFF AND SWAP1 SHL DUP4 OR SWAP3 POP POP DUP1 DUP1 PUSH1 0x1 ADD SWAP2 POP POP PUSH2 0xF09 JUMP JUMPDEST POP DUP1 SWAP2 POP POP SWAP2 SWAP1 POP JUMP JUMPDEST PUSH0 DUP2 DUP2 SLOAD DUP2 LT PUSH2 0xFD4 JUMPI PUSH0 DUP1 REVERT JUMPDEST SWAP1 PUSH0 MSTORE PUSH1 0x20 PUSH0 KECCAK256 SWAP1 PUSH1 0x3 MUL ADD PUSH0 SWAP2 POP SWAP1 POP DUP1 PUSH0 ADD SLOAD SWAP1 DUP1 PUSH1 0x1 ADD SLOAD SWAP1 DUP1 PUSH1 0x2 ADD PUSH0 SWAP1 SLOAD SWAP1 PUSH2 0x100 EXP SWAP1 DIV PUSH20 0xFFFFFFFFFFFFFFFFFFFFFFFFFFFFFFFFFFFFFFFF AND SWAP1 POP DUP4 JUMP JUMPDEST PUSH1 0xC PUSH0 SWAP1 SLOAD SWAP1 PUSH2 0x100 EXP SWAP1 DIV PUSH1 0xFF AND ISZERO PUSH2 0x1068 JUMPI PUSH1 0x40 MLOAD PUSH32 0x8C379A000000000000000000000000000000000000000000000000000000000 DUP2 MSTORE PUSH1 0x4 ADD PUSH2 0x105F SWAP1 PUSH2 0x202E JUMP JUMPDEST PUSH1 0x40 MLOAD DUP1 SWAP2 SUB SWAP1 REVERT JUMPDEST PUSH1 0xA SLOAD SELFBALANCE LT ISZERO PUSH2 0x10AD JUMPI PUSH1 0x40 MLOAD PUSH32 0x8C379A000000000000000000000000000000000000000000000000000000000 DUP2 MSTORE PUSH1 0x4 ADD PUSH2 0x10A4 SWAP1 PUSH2 0x2096 JUMP JUMPDEST PUSH1 0x40 MLOAD DUP1 SWAP2 SUB SWAP1 REVERT JUMPDEST PUSH1 0x1 PUSH0 SWAP1 SLOAD SWAP1 PUSH2 0x100 EXP SWAP1 DIV PUSH20 0xFFFFFFFFFFFFFFFFFFFFFFFFFFFFFFFFFFFFFFFF AND PUSH20 0xFFFFFFFFFFFFFFFFFFFFFFFFFFFFFFFFFFFFFFFF AND PUSH2 0x8FC PUSH1 0xA SLOAD SWAP1 DUP2 ISZERO MUL SWAP1 PUSH1 0x40 MLOAD PUSH0 PUSH1 0x40 MLOAD DUP1 DUP4 SUB DUP2 DUP6 DUP9 DUP9 CALL SWAP4 POP POP POP POP ISZERO DUP1 ISZERO PUSH2 0x1113 JUMPI RETURNDATASIZE PUSH0 PUSH0 RETURNDATACOPY RETURNDATASIZE PUSH0 REVERT JUMPDEST POP PUSH1 0x1 PUSH1 0xC PUSH0 PUSH2 0x100 EXP DUP2 SLOAD DUP2 PUSH1 0xFF MUL NOT AND SWAP1 DUP4 ISZERO ISZERO MUL OR SWAP1 SSTORE POP JUMP JUMPDEST PUSH1 0x60 PUSH1 0x8 DUP1 SLOAD DUP1 PUSH1 0x20 MUL PUSH1 0x20 ADD PUSH1 0x40 MLOAD SWAP1 DUP2 ADD PUSH1 0x40 MSTORE DUP1 SWAP3 SWAP2 SWAP1 DUP2 DUP2 MSTORE PUSH1 0x20 ADD DUP3 DUP1 SLOAD DUP1 ISZERO PUSH2 0x11B1 JUMPI PUSH1 0x20 MUL DUP3 ADD SWAP2 SWAP1 PUSH0 MSTORE PUSH1 0x20 PUSH0 KECCAK256 SWAP1 JUMPDEST DUP2 PUSH0 SWAP1 SLOAD SWAP1 PUSH2 0x100 EXP SWAP1 DIV PUSH20 0xFFFFFFFFFFFFFFFFFFFFFFFFFFFFFFFFFFFFFFFF AND PUSH20 0xFFFFFFFFFFFFFFFFFFFFFFFFFFFFFFFFFFFFFFFF AND DUP2 MSTORE PUSH1 0x20 ADD SWAP1 PUSH1 0x1 ADD SWAP1 DUP1 DUP4 GT PUSH2 0x1168 JUMPI JUMPDEST POP POP POP POP POP SWAP1 POP SWAP1 JUMP JUMPDEST PUSH0 PUSH0 PUSH0 SWAP1 POP PUSH0 PUSH1 0x6 PUSH0 DUP6 PUSH20 0xFFFFFFFFFFFFFFFFFFFFFFFFFFFFFFFFFFFFFFFF AND PUSH20 0xFFFFFFFFFFFFFFFFFFFFFFFFFFFFFFFFFFFFFFFF AND DUP2 MSTORE PUSH1 0x20 ADD SWAP1 DUP2 MSTORE PUSH1 0x20 ADD PUSH0 KECCAK256 SLOAD EQ PUSH2 0x1245 JUMPI PUSH1 0x6 PUSH0 DUP5 PUSH20 0xFFFFFFFFFFFFFFFFFFFFFFFFFFFFFFFFFFFFFFFF AND PUSH20 0xFFFFFFFFFFFFFFFFFFFFFFFFFFFFFFFFFFFFFFFF AND DUP2 MSTORE PUSH1 0x20 ADD SWAP1 DUP2 MSTORE PUSH1 0x20 ADD PUSH0 KECCAK256 SLOAD SWAP1 POP JUMPDEST DUP1 SWAP2 POP POP SWAP2 SWAP1 POP JUMP JUMPDEST PUSH1 0xA SLOAD DUP2 JUMP JUMPDEST PUSH1 0x1 PUSH0 SWAP1 SLOAD SWAP1 PUSH2 0x100 EXP SWAP1 DIV PUSH20 0xFFFFFFFFFFFFFFFFFFFFFFFFFFFFFFFFFFFFFFFF AND PUSH20 0xFFFFFFFFFFFFFFFFFFFFFFFFFFFFFFFFFFFFFFFF AND CALLER PUSH20 0xFFFFFFFFFFFFFFFFFFFFFFFFFFFFFFFFFFFFFFFF AND SUB PUSH2 0x12E3 JUMPI PUSH1 0x40 MLOAD PUSH32 0x8C379A000000000000000000000000000000000000000000000000000000000 DUP2 MSTORE PUSH1 0x4 ADD PUSH2 0x12DA SWAP1 PUSH2 0x20FE JUMP JUMPDEST PUSH1 0x40 MLOAD DUP1 SWAP2 SUB SWAP1 REVERT JUMPDEST TIMESTAMP PUSH1 0xB SLOAD GT PUSH2 0x1327 JUMPI PUSH1 0x40 MLOAD PUSH32 0x8C379A000000000000000000000000000000000000000000000000000000000 DUP2 MSTORE PUSH1 0x4 ADD PUSH2 0x131E SWAP1 PUSH2 0x218C JUMP JUMPDEST PUSH1 0x40 MLOAD DUP1 SWAP2 SUB SWAP1 REVERT JUMPDEST PUSH0 PUSH1 0x6 PUSH0 CALLER PUSH20 0xFFFFFFFFFFFFFFFFFFFFFFFFFFFFFFFFFFFFFFFF AND PUSH20 0xFFFFFFFFFFFFFFFFFFFFFFFFFFFFFFFFFFFFFFFF AND DUP2 MSTORE PUSH1 0x20 ADD SWAP1 DUP2 MSTORE PUSH1 0x20 ADD PUSH0 KECCAK256 SLOAD SWAP1 POP PUSH0 CALLVALUE DUP3 PUSH2 0x1375 SWAP2 SWAP1 PUSH2 0x21AA JUMP JUMPDEST SWAP1 POP PUSH1 0x2 SLOAD DUP2 LT ISZERO PUSH2 0x13BC JUMPI PUSH1 0x40 MLOAD PUSH32 0x8C379A000000000000000000000000000000000000000000000000000000000 DUP2 MSTORE PUSH1 0x4 ADD PUSH2 0x13B3 SWAP1 PUSH2 0x2227 JUMP JUMPDEST PUSH1 0x40 MLOAD DUP1 SWAP2 SUB SWAP1 REVERT JUMPDEST PUSH1 0xA SLOAD DUP2 GT PUSH2 0x1400 JUMPI PUSH1 0x40 MLOAD PUSH32 0x8C379A000000000000000000000000000000000000000000000000000000000 DUP2 MSTORE PUSH1 0x4 ADD PUSH2 0x13F7 SWAP1 PUSH2 0x22B5 JUMP JUMPDEST PUSH1 0x40 MLOAD DUP1 SWAP2 SUB SWAP1 REVERT JUMPDEST CALLER PUSH1 0x9 PUSH0 PUSH2 0x100 EXP DUP2 SLOAD DUP2 PUSH20 0xFFFFFFFFFFFFFFFFFFFFFFFFFFFFFFFFFFFFFFFF MUL NOT AND SWAP1 DUP4 PUSH20 0xFFFFFFFFFFFFFFFFFFFFFFFFFFFFFFFFFFFFFFFF AND MUL OR SWAP1 SSTORE POP DUP1 PUSH1 0xA DUP2 SWAP1 SSTORE POP DUP1 PUSH1 0x6 PUSH0 CALLER PUSH20 0xFFFFFFFFFFFFFFFFFFFFFFFFFFFFFFFFFFFFFFFF AND PUSH20 0xFFFFFFFFFFFFFFFFFFFFFFFFFFFFFFFFFFFFFFFF AND DUP2 MSTORE PUSH1 0x20 ADD SWAP1 DUP2 MSTORE PUSH1 0x20 ADD PUSH0 KECCAK256 DUP2 SWAP1 SSTORE POP PUSH0 PUSH1 0x40 MLOAD DUP1 PUSH1 0x60 ADD PUSH1 0x40 MSTORE DUP1 CALLVALUE DUP2 MSTORE PUSH1 0x20 ADD TIMESTAMP DUP2 MSTORE PUSH1 0x20 ADD CALLER PUSH20 0xFFFFFFFFFFFFFFFFFFFFFFFFFFFFFFFFFFFFFFFF AND DUP2 MSTORE POP SWAP1 DUP1 PUSH1 0x1 DUP2 SLOAD ADD DUP1 DUP3 SSTORE DUP1 SWAP2 POP POP PUSH1 0x1 SWAP1 SUB SWAP1 PUSH0 MSTORE PUSH1 0x20 PUSH0 KECCAK256 SWAP1 PUSH1 0x3 MUL ADD PUSH0 SWAP1 SWAP2 SWAP1 SWAP2 SWAP1 SWAP2 POP PUSH0 DUP3 ADD MLOAD DUP2 PUSH0 ADD SSTORE PUSH1 0x20 DUP3 ADD MLOAD DUP2 PUSH1 0x1 ADD SSTORE PUSH1 0x40 DUP3 ADD MLOAD DUP2 PUSH1 0x2 ADD PUSH0 PUSH2 0x100 EXP DUP2 SLOAD DUP2 PUSH20 0xFFFFFFFFFFFFFFFFFFFFFFFFFFFFFFFFFFFFFFFF MUL NOT AND SWAP1 DUP4 PUSH20 0xFFFFFFFFFFFFFFFFFFFFFFFFFFFFFFFFFFFFFFFF AND MUL OR SWAP1 SSTORE POP POP POP PUSH1 0x5 PUSH0 CALLER PUSH20 0xFFFFFFFFFFFFFFFFFFFFFFFFFFFFFFFFFFFFFFFF AND PUSH20 0xFFFFFFFFFFFFFFFFFFFFFFFFFFFFFFFFFFFFFFFF AND DUP2 MSTORE PUSH1 0x20 ADD SWAP1 DUP2 MSTORE PUSH1 0x20 ADD PUSH0 KECCAK256 PUSH0 SWAP1 SLOAD SWAP1 PUSH2 0x100 EXP SWAP1 DIV PUSH1 0xFF AND PUSH2 0x1656 JUMPI PUSH1 0x1 PUSH1 0x5 PUSH0 CALLER PUSH20 0xFFFFFFFFFFFFFFFFFFFFFFFFFFFFFFFFFFFFFFFF AND PUSH20 0xFFFFFFFFFFFFFFFFFFFFFFFFFFFFFFFFFFFFFFFF AND DUP2 MSTORE PUSH1 0x20 ADD SWAP1 DUP2 MSTORE PUSH1 0x20 ADD PUSH0 KECCAK256 PUSH0 PUSH2 0x100 EXP DUP2 SLOAD DUP2 PUSH1 0xFF MUL NOT AND SWAP1 DUP4 ISZERO ISZERO MUL OR SWAP1 SSTORE POP PUSH1 0x7 PUSH0 DUP2 SLOAD DUP1 SWAP3 SWAP2 SWAP1 PUSH2 0x15F0 SWAP1 PUSH2 0x1D84 JUMP JUMPDEST SWAP2 SWAP1 POP SSTORE POP PUSH1 0x8 CALLER SWAP1 DUP1 PUSH1 0x1 DUP2 SLOAD ADD DUP1 DUP3 SSTORE DUP1 SWAP2 POP POP PUSH1 0x1 SWAP1 SUB SWAP1 PUSH0 MSTORE PUSH1 0x20 PUSH0 KECCAK256 ADD PUSH0 SWAP1 SWAP2 SWAP1 SWAP2 SWAP1 SWAP2 PUSH2 0x100 EXP DUP2 SLOAD DUP2 PUSH20 0xFFFFFFFFFFFFFFFFFFFFFFFFFFFFFFFFFFFFFFFF MUL NOT AND SWAP1 DUP4 PUSH20 0xFFFFFFFFFFFFFFFFFFFFFFFFFFFFFFFFFFFFFFFF AND MUL OR SWAP1 SSTORE POP JUMPDEST POP POP JUMP JUMPDEST PUSH1 0x8 DUP2 DUP2 SLOAD DUP2 LT PUSH2 0x1669 JUMPI PUSH0 DUP1 REVERT JUMPDEST SWAP1 PUSH0 MSTORE PUSH1 0x20 PUSH0 KECCAK256 ADD PUSH0 SWAP2 POP SLOAD SWAP1 PUSH2 0x100 EXP SWAP1 DIV PUSH20 0xFFFFFFFFFFFFFFFFFFFFFFFFFFFFFFFFFFFFFFFF AND DUP2 JUMP JUMPDEST PUSH0 PUSH0 REVERT JUMPDEST PUSH0 PUSH20 0xFFFFFFFFFFFFFFFFFFFFFFFFFFFFFFFFFFFFFFFF DUP3 AND SWAP1 POP SWAP2 SWAP1 POP JUMP JUMPDEST PUSH0 PUSH2 0x16C2 DUP3 PUSH2 0x1699 JUMP JUMPDEST SWAP1 POP SWAP2 SWAP1 POP JUMP JUMPDEST PUSH2 0x16D2 DUP2 PUSH2 0x16B8 JUMP JUMPDEST DUP2 EQ PUSH2 0x16DC JUMPI PUSH0 PUSH0 REVERT JUMPDEST POP JUMP JUMPDEST PUSH0 DUP2 CALLDATALOAD SWAP1 POP PUSH2 0x16ED DUP2 PUSH2 0x16C9 JUMP JUMPDEST SWAP3 SWAP2 POP POP JUMP JUMPDEST PUSH0 PUSH1 0x20 DUP3 DUP5 SUB SLT ISZERO PUSH2 0x1708 JUMPI PUSH2 0x1707 PUSH2 0x1695 JUMP JUMPDEST JUMPDEST PUSH0 PUSH2 0x1715 DUP5 DUP3 DUP6 ADD PUSH2 0x16DF JUMP JUMPDEST SWAP2 POP POP SWAP3 SWAP2 POP POP JUMP JUMPDEST PUSH0 DUP2 ISZERO ISZERO SWAP1 POP SWAP2 SWAP1 POP JUMP JUMPDEST PUSH2 0x1732 DUP2 PUSH2 0x171E JUMP JUMPDEST DUP3 MSTORE POP POP JUMP JUMPDEST PUSH0 PUSH1 0x20 DUP3 ADD SWAP1 POP PUSH2 0x174B PUSH0 DUP4 ADD DUP5 PUSH2 0x1729 JUMP JUMPDEST SWAP3 SWAP2 POP POP JUMP JUMPDEST PUSH0 DUP2 SWAP1 POP SWAP2 SWAP1 POP JUMP JUMPDEST PUSH2 0x1763 DUP2 PUSH2 0x1751 JUMP JUMPDEST DUP3 MSTORE POP POP JUMP JUMPDEST PUSH0 PUSH1 0x20 DUP3 ADD SWAP1 POP PUSH2 0x177C PUSH0 DUP4 ADD DUP5 PUSH2 0x175A JUMP JUMPDEST SWAP3 SWAP2 POP POP JUMP JUMPDEST PUSH2 0x178B DUP2 PUSH2 0x16B8 JUMP JUMPDEST DUP3 MSTORE POP POP JUMP JUMPDEST PUSH0 DUP2 MLOAD SWAP1 POP SWAP2 SWAP1 POP JUMP JUMPDEST PUSH0 DUP3 DUP3 MSTORE PUSH1 0x20 DUP3 ADD SWAP1 POP SWAP3 SWAP2 POP POP JUMP JUMPDEST DUP3 DUP2 DUP4 MCOPY PUSH0 DUP4 DUP4 ADD MSTORE POP POP POP JUMP JUMPDEST PUSH0 PUSH1 0x1F NOT PUSH1 0x1F DUP4 ADD AND SWAP1 POP SWAP2 SWAP1 POP JUMP JUMPDEST PUSH0 PUSH2 0x17D3 DUP3 PUSH2 0x1791 JUMP JUMPDEST PUSH2 0x17DD DUP2 DUP6 PUSH2 0x179B JUMP JUMPDEST SWAP4 POP PUSH2 0x17ED DUP2 DUP6 PUSH1 0x20 DUP7 ADD PUSH2 0x17AB JUMP JUMPDEST PUSH2 0x17F6 DUP2 PUSH2 0x17B9 JUMP JUMPDEST DUP5 ADD SWAP2 POP POP SWAP3 SWAP2 POP POP JUMP JUMPDEST PUSH0 DUP2 MLOAD SWAP1 POP SWAP2 SWAP1 POP JUMP JUMPDEST PUSH0 DUP3 DUP3 MSTORE PUSH1 0x20 DUP3 ADD SWAP1 POP SWAP3 SWAP2 POP POP JUMP JUMPDEST PUSH0 DUP2 SWAP1 POP PUSH1 0x20 DUP3 ADD SWAP1 POP SWAP2 SWAP1 POP JUMP JUMPDEST PUSH2 0x1833 DUP2 PUSH2 0x16B8 JUMP JUMPDEST DUP3 MSTORE POP POP JUMP JUMPDEST PUSH0 PUSH2 0x1844 DUP4 DUP4 PUSH2 0x182A JUMP JUMPDEST PUSH1 0x20 DUP4 ADD SWAP1 POP SWAP3 SWAP2 POP POP JUMP JUMPDEST PUSH0 PUSH1 0x20 DUP3 ADD SWAP1 POP SWAP2 SWAP1 POP JUMP JUMPDEST PUSH0 PUSH2 0x1866 DUP3 PUSH2 0x1801 JUMP JUMPDEST PUSH2 0x1870 DUP2 DUP6 PUSH2 0x180B JUMP JUMPDEST SWAP4 POP PUSH2 0x187B DUP4 PUSH2 0x181B JUMP JUMPDEST DUP1 PUSH0 JUMPDEST DUP4 DUP2 LT ISZERO PUSH2 0x18AB JUMPI DUP2 MLOAD PUSH2 0x1892 DUP9 DUP3 PUSH2 0x1839 JUMP JUMPDEST SWAP8 POP PUSH2 0x189D DUP4 PUSH2 0x1850 JUMP JUMPDEST SWAP3 POP POP PUSH1 0x1 DUP2 ADD SWAP1 POP PUSH2 0x187E JUMP JUMPDEST POP DUP6 SWAP4 POP POP POP POP SWAP3 SWAP2 POP POP JUMP JUMPDEST PUSH0 PUSH2 0x140 DUP3 ADD SWAP1 POP PUSH2 0x18CC PUSH0 DUP4 ADD DUP14 PUSH2 0x175A JUMP JUMPDEST PUSH2 0x18D9 PUSH1 0x20 DUP4 ADD DUP13 PUSH2 0x175A JUMP JUMPDEST PUSH2 0x18E6 PUSH1 0x40 DUP4 ADD DUP12 PUSH2 0x175A JUMP JUMPDEST PUSH2 0x18F3 PUSH1 0x60 DUP4 ADD DUP11 PUSH2 0x1782 JUMP JUMPDEST PUSH2 0x1900 PUSH1 0x80 DUP4 ADD DUP10 PUSH2 0x175A JUMP JUMPDEST DUP2 DUP2 SUB PUSH1 0xA0 DUP4 ADD MSTORE PUSH2 0x1912 DUP2 DUP9 PUSH2 0x17C9 JUMP JUMPDEST SWAP1 POP DUP2 DUP2 SUB PUSH1 0xC0 DUP4 ADD MSTORE PUSH2 0x1926 DUP2 DUP8 PUSH2 0x17C9 JUMP JUMPDEST SWAP1 POP PUSH2 0x1935 PUSH1 0xE0 DUP4 ADD DUP7 PUSH2 0x175A JUMP JUMPDEST PUSH2 0x1943 PUSH2 0x100 DUP4 ADD DUP6 PUSH2 0x1782 JUMP JUMPDEST DUP2 DUP2 SUB PUSH2 0x120 DUP4 ADD MSTORE PUSH2 0x1956 DUP2 DUP5 PUSH2 0x185C JUMP JUMPDEST SWAP1 POP SWAP12 SWAP11 POP POP POP POP POP POP POP POP POP POP POP JUMP JUMPDEST PUSH0 PUSH1 0x20 DUP3 ADD SWAP1 POP PUSH2 0x197A PUSH0 DUP4 ADD DUP5 PUSH2 0x1782 JUMP JUMPDEST SWAP3 SWAP2 POP POP JUMP JUMPDEST PUSH0 PUSH2 0x198A DUP3 PUSH2 0x1699 JUMP JUMPDEST SWAP1 POP SWAP2 SWAP1 POP JUMP JUMPDEST PUSH2 0x199A DUP2 PUSH2 0x1980 JUMP JUMPDEST DUP2 EQ PUSH2 0x19A4 JUMPI PUSH0 PUSH0 REVERT JUMPDEST POP JUMP JUMPDEST PUSH0 DUP2 CALLDATALOAD SWAP1 POP PUSH2 0x19B5 DUP2 PUSH2 0x1991 JUMP JUMPDEST SWAP3 SWAP2 POP POP JUMP JUMPDEST PUSH0 PUSH1 0x20 DUP3 DUP5 SUB SLT ISZERO PUSH2 0x19D0 JUMPI PUSH2 0x19CF PUSH2 0x1695 JUMP JUMPDEST JUMPDEST PUSH0 PUSH2 0x19DD DUP5 DUP3 DUP6 ADD PUSH2 0x19A7 JUMP JUMPDEST SWAP2 POP POP SWAP3 SWAP2 POP POP JUMP JUMPDEST PUSH0 PUSH1 0x20 DUP3 ADD SWAP1 POP DUP2 DUP2 SUB PUSH0 DUP4 ADD MSTORE PUSH2 0x19FE DUP2 DUP5 PUSH2 0x17C9 JUMP JUMPDEST SWAP1 POP SWAP3 SWAP2 POP POP JUMP JUMPDEST PUSH0 PUSH0 PUSH1 0x40 DUP4 DUP6 SUB SLT ISZERO PUSH2 0x1A1C JUMPI PUSH2 0x1A1B PUSH2 0x1695 JUMP JUMPDEST JUMPDEST PUSH0 PUSH2 0x1A29 DUP6 DUP3 DUP7 ADD PUSH2 0x16DF JUMP JUMPDEST SWAP3 POP POP PUSH1 0x20 PUSH2 0x1A3A DUP6 DUP3 DUP7 ADD PUSH2 0x16DF JUMP JUMPDEST SWAP2 POP POP SWAP3 POP SWAP3 SWAP1 POP JUMP JUMPDEST PUSH0 DUP2 MLOAD SWAP1 POP SWAP2 SWAP1 POP JUMP JUMPDEST PUSH0 DUP3 DUP3 MSTORE PUSH1 0x20 DUP3 ADD SWAP1 POP SWAP3 SWAP2 POP POP JUMP JUMPDEST PUSH0 DUP2 SWAP1 POP PUSH1 0x20 DUP3 ADD SWAP1 POP SWAP2 SWAP1 POP JUMP JUMPDEST PUSH2 0x1A76 DUP2 PUSH2 0x1751 JUMP JUMPDEST DUP3 MSTORE POP POP JUMP JUMPDEST PUSH1 0x60 DUP3 ADD PUSH0 DUP3 ADD MLOAD PUSH2 0x1A90 PUSH0 DUP6 ADD DUP3 PUSH2 0x1A6D JUMP JUMPDEST POP PUSH1 0x20 DUP3 ADD MLOAD PUSH2 0x1AA3 PUSH1 0x20 DUP6 ADD DUP3 PUSH2 0x1A6D JUMP JUMPDEST POP PUSH1 0x40 DUP3 ADD MLOAD PUSH2 0x1AB6 PUSH1 0x40 DUP6 ADD DUP3 PUSH2 0x182A JUMP JUMPDEST POP POP POP POP JUMP JUMPDEST PUSH0 PUSH2 0x1AC7 DUP4 DUP4 PUSH2 0x1A7C JUMP JUMPDEST PUSH1 0x60 DUP4 ADD SWAP1 POP SWAP3 SWAP2 POP POP JUMP JUMPDEST PUSH0 PUSH1 0x20 DUP3 ADD SWAP1 POP SWAP2 SWAP1 POP JUMP JUMPDEST PUSH0 PUSH2 0x1AE9 DUP3 PUSH2 0x1A44 JUMP JUMPDEST PUSH2 0x1AF3 DUP2 DUP6 PUSH2 0x1A4E JUMP JUMPDEST SWAP4 POP PUSH2 0x1AFE DUP4 PUSH2 0x1A5E JUMP JUMPDEST DUP1 PUSH0 JUMPDEST DUP4 DUP2 LT ISZERO PUSH2 0x1B2E JUMPI DUP2 MLOAD PUSH2 0x1B15 DUP9 DUP3 PUSH2 0x1ABC JUMP JUMPDEST SWAP8 POP PUSH2 0x1B20 DUP4 PUSH2 0x1AD3 JUMP JUMPDEST SWAP3 POP POP PUSH1 0x1 DUP2 ADD SWAP1 POP PUSH2 0x1B01 JUMP JUMPDEST POP DUP6 SWAP4 POP POP POP POP SWAP3 SWAP2 POP POP JUMP JUMPDEST PUSH0 PUSH1 0x20 DUP3 ADD SWAP1 POP DUP2 DUP2 SUB PUSH0 DUP4 ADD MSTORE PUSH2 0x1B53 DUP2 DUP5 PUSH2 0x1ADF JUMP JUMPDEST SWAP1 POP SWAP3 SWAP2 POP POP JUMP JUMPDEST PUSH2 0x1B64 DUP2 PUSH2 0x1751 JUMP JUMPDEST DUP2 EQ PUSH2 0x1B6E JUMPI PUSH0 PUSH0 REVERT JUMPDEST POP JUMP JUMPDEST PUSH0 DUP2 CALLDATALOAD SWAP1 POP PUSH2 0x1B7F DUP2 PUSH2 0x1B5B JUMP JUMPDEST SWAP3 SWAP2 POP POP JUMP JUMPDEST PUSH0 PUSH1 0x20 DUP3 DUP5 SUB SLT ISZERO PUSH2 0x1B9A JUMPI PUSH2 0x1B99 PUSH2 0x1695 JUMP JUMPDEST JUMPDEST PUSH0 PUSH2 0x1BA7 DUP5 DUP3 DUP6 ADD PUSH2 0x1B71 JUMP JUMPDEST SWAP2 POP POP SWAP3 SWAP2 POP POP JUMP JUMPDEST PUSH0 PUSH1 0x60 DUP3 ADD SWAP1 POP PUSH2 0x1BC3 PUSH0 DUP4 ADD DUP7 PUSH2 0x175A JUMP JUMPDEST PUSH2 0x1BD0 PUSH1 0x20 DUP4 ADD DUP6 PUSH2 0x175A JUMP JUMPDEST PUSH2 0x1BDD PUSH1 0x40 DUP4 ADD DUP5 PUSH2 0x1782 JUMP JUMPDEST SWAP5 SWAP4 POP POP POP POP JUMP JUMPDEST PUSH0 PUSH1 0x20 DUP3 ADD SWAP1 POP DUP2 DUP2 SUB PUSH0 DUP4 ADD MSTORE PUSH2 0x1BFD DUP2 DUP5 PUSH2 0x185C JUMP JUMPDEST SWAP1 POP SWAP3 SWAP2 POP POP JUMP JUMPDEST PUSH32 0x4E487B7100000000000000000000000000000000000000000000000000000000 PUSH0 MSTORE PUSH1 0x22 PUSH1 0x4 MSTORE PUSH1 0x24 PUSH0 REVERT JUMPDEST PUSH0 PUSH1 0x2 DUP3 DIV SWAP1 POP PUSH1 0x1 DUP3 AND DUP1 PUSH2 0x1C49 JUMPI PUSH1 0x7F DUP3 AND SWAP2 POP JUMPDEST PUSH1 0x20 DUP3 LT DUP2 SUB PUSH2 0x1C5C JUMPI PUSH2 0x1C5B PUSH2 0x1C05 JUMP JUMPDEST JUMPDEST POP SWAP2 SWAP1 POP JUMP JUMPDEST PUSH32 0x4E6F2062696420746F20726566756E6400000000000000000000000000000000 PUSH0 DUP3 ADD MSTORE POP JUMP JUMPDEST PUSH0 PUSH2 0x1C96 PUSH1 0x10 DUP4 PUSH2 0x179B JUMP JUMPDEST SWAP2 POP PUSH2 0x1CA1 DUP3 PUSH2 0x1C62 JUMP JUMPDEST PUSH1 0x20 DUP3 ADD SWAP1 POP SWAP2 SWAP1 POP JUMP JUMPDEST PUSH0 PUSH1 0x20 DUP3 ADD SWAP1 POP DUP2 DUP2 SUB PUSH0 DUP4 ADD MSTORE PUSH2 0x1CC3 DUP2 PUSH2 0x1C8A JUMP JUMPDEST SWAP1 POP SWAP2 SWAP1 POP JUMP JUMPDEST PUSH32 0x4E487B7100000000000000000000000000000000000000000000000000000000 PUSH0 MSTORE PUSH1 0x11 PUSH1 0x4 MSTORE PUSH1 0x24 PUSH0 REVERT JUMPDEST PUSH0 PUSH2 0x1D01 DUP3 PUSH2 0x1751 JUMP JUMPDEST SWAP2 POP PUSH2 0x1D0C DUP4 PUSH2 0x1751 JUMP JUMPDEST SWAP3 POP DUP3 DUP3 SUB SWAP1 POP DUP2 DUP2 GT ISZERO PUSH2 0x1D24 JUMPI PUSH2 0x1D23 PUSH2 0x1CCA JUMP JUMPDEST JUMPDEST SWAP3 SWAP2 POP POP JUMP JUMPDEST PUSH32 0x4E487B7100000000000000000000000000000000000000000000000000000000 PUSH0 MSTORE PUSH1 0x41 PUSH1 0x4 MSTORE PUSH1 0x24 PUSH0 REVERT JUMPDEST PUSH32 0x4E487B7100000000000000000000000000000000000000000000000000000000 PUSH0 MSTORE PUSH1 0x32 PUSH1 0x4 MSTORE PUSH1 0x24 PUSH0 REVERT JUMPDEST PUSH0 PUSH2 0x1D8E DUP3 PUSH2 0x1751 JUMP JUMPDEST SWAP2 POP PUSH32 0xFFFFFFFFFFFFFFFFFFFFFFFFFFFFFFFFFFFFFFFFFFFFFFFFFFFFFFFFFFFFFFFF DUP3 SUB PUSH2 0x1DC0 JUMPI PUSH2 0x1DBF PUSH2 0x1CCA JUMP JUMPDEST JUMPDEST PUSH1 0x1 DUP3 ADD SWAP1 POP SWAP2 SWAP1 POP JUMP JUMPDEST PUSH0 DUP2 SWAP1 POP SWAP3 SWAP2 POP POP JUMP JUMPDEST PUSH2 0x1DDE DUP2 PUSH2 0x16B8 JUMP JUMPDEST DUP3 MSTORE POP POP JUMP JUMPDEST PUSH0 PUSH2 0x1DEF DUP4 DUP4 PUSH2 0x1DD5 JUMP JUMPDEST PUSH1 0x20 DUP4 ADD SWAP1 POP SWAP3 SWAP2 POP POP JUMP JUMPDEST PUSH0 PUSH2 0x1E05 DUP3 PUSH2 0x1801 JUMP JUMPDEST PUSH2 0x1E0F DUP2 DUP6 PUSH2 0x1DCB JUMP JUMPDEST SWAP4 POP PUSH2 0x1E1A DUP4 PUSH2 0x181B JUMP JUMPDEST DUP1 PUSH0 JUMPDEST DUP4 DUP2 LT ISZERO PUSH2 0x1E4A JUMPI DUP2 MLOAD PUSH2 0x1E31 DUP9 DUP3 PUSH2 0x1DE4 JUMP JUMPDEST SWAP8 POP PUSH2 0x1E3C DUP4 PUSH2 0x1850 JUMP JUMPDEST SWAP3 POP POP PUSH1 0x1 DUP2 ADD SWAP1 POP PUSH2 0x1E1D JUMP JUMPDEST POP DUP6 SWAP4 POP POP POP POP SWAP3 SWAP2 POP POP JUMP JUMPDEST PUSH0 PUSH2 0x1E62 DUP3 DUP5 PUSH2 0x1DFB JUMP JUMPDEST SWAP2 POP DUP2 SWAP1 POP SWAP3 SWAP2 POP POP JUMP JUMPDEST PUSH0 DUP2 SLOAD SWAP1 POP SWAP2 SWAP1 POP JUMP JUMPDEST PUSH0 DUP2 SWAP1 POP DUP2 PUSH0 MSTORE PUSH1 0x20 PUSH0 KECCAK256 SWAP1 POP SWAP2 SWAP1 POP JUMP JUMPDEST PUSH0 DUP2 PUSH0 SHR SWAP1 POP SWAP2 SWAP1 POP JUMP JUMPDEST PUSH0 PUSH20 0xFFFFFFFFFFFFFFFFFFFFFFFFFFFFFFFFFFFFFFFF DUP3 AND SWAP1 POP SWAP2 SWAP1 POP JUMP JUMPDEST PUSH0 PUSH2 0x1EC5 PUSH2 0x1EC0 DUP4 PUSH2 0x1E89 JUMP JUMPDEST PUSH2 0x1E94 JUMP JUMPDEST SWAP1 POP SWAP2 SWAP1 POP JUMP JUMPDEST PUSH0 PUSH2 0x1ED7 DUP3 SLOAD PUSH2 0x1EB3 JUMP JUMPDEST SWAP1 POP SWAP2 SWAP1 POP JUMP JUMPDEST PUSH0 PUSH1 0x1 DUP3 ADD SWAP1 POP SWAP2 SWAP1 POP JUMP JUMPDEST PUSH0 PUSH2 0x1EF4 DUP3 PUSH2 0x1E6D JUMP JUMPDEST PUSH2 0x1EFE DUP2 DUP6 PUSH2 0x1DCB JUMP JUMPDEST SWAP4 POP PUSH2 0x1F09 DUP4 PUSH2 0x1E77 JUMP JUMPDEST DUP1 PUSH0 JUMPDEST DUP4 DUP2 LT ISZERO PUSH2 0x1F40 JUMPI PUSH2 0x1F1D DUP3 PUSH2 0x1ECC JUMP JUMPDEST PUSH2 0x1F27 DUP9 DUP3 PUSH2 0x1DE4 JUMP JUMPDEST SWAP8 POP PUSH2 0x1F32 DUP4 PUSH2 0x1EDE JUMP JUMPDEST SWAP3 POP POP PUSH1 0x1 DUP2 ADD SWAP1 POP PUSH2 0x1F0C JUMP JUMPDEST POP DUP6 SWAP4 POP POP POP POP SWAP3 SWAP2 POP POP JUMP JUMPDEST PUSH0 PUSH2 0x1F58 DUP3 DUP5 PUSH2 0x1EEA JUMP JUMPDEST SWAP2 POP DUP2 SWAP1 POP SWAP3 SWAP2 POP POP JUMP JUMPDEST PUSH0 PUSH1 0xFF DUP3 AND SWAP1 POP SWAP2 SWAP1 POP JUMP JUMPDEST PUSH0 PUSH2 0x1F79 DUP3 PUSH2 0x1F63 JUMP JUMPDEST SWAP2 POP PUSH2 0x1F84 DUP4 PUSH2 0x1F63 JUMP JUMPDEST SWAP3 POP DUP3 DUP3 ADD SWAP1 POP PUSH1 0xFF DUP2 GT ISZERO PUSH2 0x1F9D JUMPI PUSH2 0x1F9C PUSH2 0x1CCA JUMP JUMPDEST JUMPDEST SWAP3 SWAP2 POP POP JUMP JUMPDEST PUSH0 PUSH2 0x1FAD DUP3 PUSH2 0x1751 JUMP JUMPDEST SWAP2 POP PUSH2 0x1FB8 DUP4 PUSH2 0x1751 JUMP JUMPDEST SWAP3 POP DUP3 DUP3 MUL PUSH2 0x1FC6 DUP2 PUSH2 0x1751 JUMP JUMPDEST SWAP2 POP DUP3 DUP3 DIV DUP5 EQ DUP4 ISZERO OR PUSH2 0x1FDD JUMPI PUSH2 0x1FDC PUSH2 0x1CCA JUMP JUMPDEST JUMPDEST POP SWAP3 SWAP2 POP POP JUMP JUMPDEST PUSH32 0x41756374696F6E20616C726561647920636C6F73656400000000000000000000 PUSH0 DUP3 ADD MSTORE POP JUMP JUMPDEST PUSH0 PUSH2 0x2018 PUSH1 0x16 DUP4 PUSH2 0x179B JUMP JUMPDEST SWAP2 POP PUSH2 0x2023 DUP3 PUSH2 0x1FE4 JUMP JUMPDEST PUSH1 0x20 DUP3 ADD SWAP1 POP SWAP2 SWAP1 POP JUMP JUMPDEST PUSH0 PUSH1 0x20 DUP3 ADD SWAP1 POP DUP2 DUP2 SUB PUSH0 DUP4 ADD MSTORE PUSH2 0x2045 DUP2 PUSH2 0x200C JUMP JUMPDEST SWAP1 POP SWAP2 SWAP1 POP JUMP JUMPDEST PUSH32 0x496E73756666696369656E742062616C616E6365000000000000000000000000 PUSH0 DUP3 ADD MSTORE POP JUMP JUMPDEST PUSH0 PUSH2 0x2080 PUSH1 0x14 DUP4 PUSH2 0x179B JUMP JUMPDEST SWAP2 POP PUSH2 0x208B DUP3 PUSH2 0x204C JUMP JUMPDEST PUSH1 0x20 DUP3 ADD SWAP1 POP SWAP2 SWAP1 POP JUMP JUMPDEST PUSH0 PUSH1 0x20 DUP3 ADD SWAP1 POP DUP2 DUP2 SUB PUSH0 DUP4 ADD MSTORE PUSH2 0x20AD DUP2 PUSH2 0x2074 JUMP JUMPDEST SWAP1 POP SWAP2 SWAP1 POP JUMP JUMPDEST PUSH32 0x796F752063616E27742062757920796F7572206F776E20646174610000000000 PUSH0 DUP3 ADD MSTORE POP JUMP JUMPDEST PUSH0 PUSH2 0x20E8 PUSH1 0x1B DUP4 PUSH2 0x179B JUMP JUMPDEST SWAP2 POP PUSH2 0x20F3 DUP3 PUSH2 0x20B4 JUMP JUMPDEST PUSH1 0x20 DUP3 ADD SWAP1 POP SWAP2 SWAP1 POP JUMP JUMPDEST PUSH0 PUSH1 0x20 DUP3 ADD SWAP1 POP DUP2 DUP2 SUB PUSH0 DUP4 ADD MSTORE PUSH2 0x2115 DUP2 PUSH2 0x20DC JUMP JUMPDEST SWAP1 POP SWAP2 SWAP1 POP JUMP JUMPDEST PUSH32 0x796F752063616E277420636F6E7472696275746520746F20616E20656E646564 PUSH0 DUP3 ADD MSTORE PUSH32 0x2061756374696F6E000000000000000000000000000000000000000000000000 PUSH1 0x20 DUP3 ADD MSTORE POP JUMP JUMPDEST PUSH0 PUSH2 0x2176 PUSH1 0x28 DUP4 PUSH2 0x179B JUMP JUMPDEST SWAP2 POP PUSH2 0x2181 DUP3 PUSH2 0x211C JUMP JUMPDEST PUSH1 0x40 DUP3 ADD SWAP1 POP SWAP2 SWAP1 POP JUMP JUMPDEST PUSH0 PUSH1 0x20 DUP3 ADD SWAP1 POP DUP2 DUP2 SUB PUSH0 DUP4 ADD MSTORE PUSH2 0x21A3 DUP2 PUSH2 0x216A JUMP JUMPDEST SWAP1 POP SWAP2 SWAP1 POP JUMP JUMPDEST PUSH0 PUSH2 0x21B4 DUP3 PUSH2 0x1751 JUMP JUMPDEST SWAP2 POP PUSH2 0x21BF DUP4 PUSH2 0x1751 JUMP JUMPDEST SWAP3 POP DUP3 DUP3 ADD SWAP1 POP DUP1 DUP3 GT ISZERO PUSH2 0x21D7 JUMPI PUSH2 0x21D6 PUSH2 0x1CCA JUMP JUMPDEST JUMPDEST SWAP3 SWAP2 POP POP JUMP JUMPDEST PUSH32 0x4269642062656C6F77206D696E696D756D000000000000000000000000000000 PUSH0 DUP3 ADD MSTORE POP JUMP JUMPDEST PUSH0 PUSH2 0x2211 PUSH1 0x11 DUP4 PUSH2 0x179B JUMP JUMPDEST SWAP2 POP PUSH2 0x221C DUP3 PUSH2 0x21DD JUMP JUMPDEST PUSH1 0x20 DUP3 ADD SWAP1 POP SWAP2 SWAP1 POP JUMP JUMPDEST PUSH0 PUSH1 0x20 DUP3 ADD SWAP1 POP DUP2 DUP2 SUB PUSH0 DUP4 ADD MSTORE PUSH2 0x223E DUP2 PUSH2 0x2205 JUMP JUMPDEST SWAP1 POP SWAP2 SWAP1 POP JUMP JUMPDEST PUSH32 0x546865726520616C7265616479206973206120686967686572206F7220657175 PUSH0 DUP3 ADD MSTORE PUSH32 0x616C206269640000000000000000000000000000000000000000000000000000 PUSH1 0x20 DUP3 ADD MSTORE POP JUMP JUMPDEST PUSH0 PUSH2 0x229F PUSH1 0x26 DUP4 PUSH2 0x179B JUMP JUMPDEST SWAP2 POP PUSH2 0x22AA DUP3 PUSH2 0x2245 JUMP JUMPDEST PUSH1 0x40 DUP3 ADD SWAP1 POP SWAP2 SWAP1 POP JUMP JUMPDEST PUSH0 PUSH1 0x20 DUP3 ADD SWAP1 POP DUP2 DUP2 SUB PUSH0 DUP4 ADD MSTORE PUSH2 0x22CC DUP2 PUSH2 0x2293 JUMP JUMPDEST SWAP1 POP SWAP2 SWAP1 POP JUMP INVALID LOG2 PUSH5 0x6970667358 0x22 SLT KECCAK256 INVALID ADDRESS CODECOPY 0xA5 PUSH20 0x254D3AE10C6A3B7B1FEF640E8638366ED011FAD8 LOG3 SWAP5 0xBF MSIZE RJUMP 0x1626 PUSH5 0x736F6C6343 STOP ADDMOD 0x1E STOP CALLER LOG2 PUSH5 0x6970667358 0x22 SLT KECCAK256 PUSH32 0xCFD72FB15599330B3C982BE7AC72E6675D7300B63184503F58A3CA1A22BC364 PUSH20 0x6F6C634300081E00330000000000000000000000 "},"gasEstimates":{"creation":{"codeDepositCost":"2548800","executionCost":"2753","totalCost":"2551553"},"external":{"checkEndedAuctions()":"infinite","createCampaign(uint256,string,string,uint256)":"infinite","deployedCampaigns(uint256)":"4921","getDeployedCampaigns()":"infinite"}},"methodIdentifiers":{"checkEndedAuctions()":"75da6ba0","createCampaign(uint256,string,string,uint256)":"dc117416","deployedCampaigns(uint256)":"339d50a5","getDeployedCampaigns()":"4acb9d4f"}},"storageLayout":{"storage":[{"astId":5,"contract":"Campaign.sol:CampaignFactory","label":"deployedCampaigns","offset":0,"slot":"0","type":"t_array(t_address_payable)dyn_storage"}],"types":{"t_address_payable":{"encoding":"inplace","label":"address payable","numberOfBytes":"20"},"t_array(t_address_payable)dyn_storage":{"base":"t_address_payable","encoding":"dynamic_array","label":"address payable[]","numberOfBytes":"32"}}},"transientStorageLayout":{"storage":[],"types":null},"userdoc":{"kind":"user","methods":{},"version":1}}