{"abi":[{"inputs":[{"internalType":"uint256","name":"minimum","type":"uint256"},{"internalType":"string","name":"dataSell","type":"string"},{"internalType":"string","name":"dataDesc","type":"string"},{"internalType":"address","name":"creator","type":"address"},{"internalType":"uint256","name":"duration","type":"uint256"},{"internalType":"address","name":"factoryAddress","type":"address"}],"stateMutability":"nonpayable","type":"constructor"},{"anonymous":false,"inputs":[{"indexed":false,"internalType":"address","name":"contributor","type":"address"}],"name":"BidAdded","type":"event"},{"anonymous":false,"inputs":[{"indexed":true,"internalType":"address","name":"contributor","type":"address"},{"indexed":false,"internalType":"uint256","name":"amount","type":"uint256"}],"name":"RefundProcessed","type":"event"},{"anonymous":false,"inputs":[{"indexed":true,"internalType":"address","name":"seller","type":"address"},{"indexed":false,"internalType":"uint256","name":"amount","type":"uint256"}],"name":"SellerPaid","type":"event"},{"inputs":[{"internalType":"uint256","name":"","type":"uint256"}],"name":"addresses","outputs":[{"internalType":"address","name":"","type":"address"}],"stateMutability":"view","type":"function"},{"inputs":[{"internalType":"address","name":"","type":"address"}],"name":"approvers","outputs":[{"internalType":"bool","name":"","type":"bool"}],"stateMutability":"view","type":"function"},{"inputs":[],"name":"approversCount","outputs":[{"internalType":"uint256","name":"","type":"uint256"}],"stateMutability":"view","type":"function"},{"inputs":[{"internalType":"address","name":"","type":"address"}],"name":"approversMoney","outputs":[{"internalType":"uint256","name":"","type":"uint256"}],"stateMutability":"view","type":"function"},{"inputs":[],"name":"closed","outputs":[{"internalType":"bool","name":"","type":"bool"}],"stateMutability":"view","type":"function"},{"inputs":[],"name":"contribute","outputs":[],"stateMutability":"payable","type":"function"},{"inputs":[],"name":"dataDescription","outputs":[{"internalType":"string","name":"","type":"string"}],"stateMutability":"view","type":"function"},{"inputs":[],"name":"dataForSell","outputs":[{"internalType":"string","name":"","type":"string"}],"stateMutability":"view","type":"function"},{"inputs":[],"name":"endTime","outputs":[{"internalType":"uint256","name":"","type":"uint256"}],"stateMutability":"view","type":"function"},{"inputs":[],"name":"factory","outputs":[{"internalType":"contract CampaignFactory","name":"","type":"address"}],"stateMutability":"view","type":"function"},{"inputs":[],"name":"finalizeAuctionIfNeeded","outputs":[],"stateMutability":"nonpayable","type":"function"},{"inputs":[],"name":"getAddresses","outputs":[{"internalType":"address[]","name":"","type":"address[]"}],"stateMutability":"view","type":"function"},{"inputs":[{"internalType":"address","name":"bidder","type":"address"}],"name":"getBid","outputs":[{"internalType":"uint256","name":"","type":"uint256"}],"stateMutability":"view","type":"function"},{"inputs":[],"name":"getData","outputs":[{"internalType":"string","name":"","type":"string"}],"stateMutability":"view","type":"function"},{"inputs":[],"name":"getStatus","outputs":[{"internalType":"bool","name":"","type":"bool"}],"stateMutability":"view","type":"function"},{"inputs":[],"name":"getSummary","outputs":[{"internalType":"uint256","name":"","type":"uint256"},{"internalType":"uint256","name":"","type":"uint256"},{"internalType":"uint256","name":"","type":"uint256"},{"internalType":"address","name":"","type":"address"},{"internalType":"uint256","name":"","type":"uint256"},{"internalType":"string","name":"","type":"string"},{"internalType":"string","name":"","type":"string"},{"internalType":"address","name":"","type":"address"},{"internalType":"address[]","name":"","type":"address[]"},{"internalType":"uint256","name":"","type":"uint256"}],"stateMutability":"view","type":"function"},{"inputs":[],"name":"getTransactions","outputs":[{"components":[{"internalType":"uint256","name":"value","type":"uint256"},{"internalType":"uint256","name":"time","type":"uint256"},{"internalType":"address","name":"bidderAddress","type":"address"}],"internalType":"struct Campaign.Bid[]","name":"","type":"tuple[]"}],"stateMutability":"view","type":"function"},{"inputs":[],"name":"highestBid","outputs":[{"internalType":"uint256","name":"","type":"uint256"}],"stateMutability":"view","type":"function"},{"inputs":[],"name":"highestBidder","outputs":[{"internalType":"address","name":"","type":"address"}],"stateMutability":"view","type":"function"},{"inputs":[],"name":"manager","outputs":[{"internalType":"address","name":"","type":"address"}],"stateMutability":"view","type":"function"},{"inputs":[],"name":"minimumContribution","outputs":[{"internalType":"uint256","name":"","type":"uint256"}],"stateMutability":"view","type":"function"},{"inputs":[],"name":"nextRefundIndex","outputs":[{"internalType":"uint256","name":"","type":"uint256"}],"stateMutability":"view","type":"function"},{"inputs":[{"internalType":"uint256","name":"maxRefunds","type":"uint256"}],"name":"processRefunds","outputs":[],"stateMutability":"nonpayable","type":"function"},{"inputs":[{"internalType":"uint256","name":"","type":"uint256"}],"name":"transactions","outputs":[{"internalType":"uint256","name":"value","type":"uint256"},{"internalType":"uint256","name":"time","type":"uint256"},{"internalType":"address","name":"bidderAddress","type":"address"}],"stateMutability":"view","type":"function"},{"inputs":[],"name":"withdrawRefund","outputs":[],"stateMutability":"nonpayable","type":"function"}],"devdoc":{"kind":"dev","methods":{},"version":1},"evm":{"assembly":"    /* \"Campaign.sol\":561:6779  contract Campaign {... */\n  mstore(0x40, 0x80)\n    /* \"Campaign.sol\":1651:2100  constructor(... */\n  callvalue\n  dup1\n  iszero\n  tag_1\n  jumpi\n  revert(0x00, 0x00)\ntag_1:\n  pop\n  mload(0x40)\n  sub(codesize, bytecodeSize)\n  dup1\n  bytecodeSize\n  dup4\n  codecopy\n  dup2\n  dup2\n  add\n  0x40\n  mstore\n  dup2\n  add\n  swap1\n  tag_2\n  swap2\n  swap1\n  tag_3\n  jump\t// in\ntag_2:\n    /* \"Campaign.sol\":1869:1876  creator */\n  dup3\n    /* \"Campaign.sol\":1859:1866  manager */\n  0x01\n  0x00\n    /* \"Campaign.sol\":1859:1876  manager = creator */\n  0x0100\n  exp\n  dup2\n  sload\n  dup2\n  0xffffffffffffffffffffffffffffffffffffffff\n  mul\n  not\n  and\n  swap1\n  dup4\n  0xffffffffffffffffffffffffffffffffffffffff\n  and\n  mul\n  or\n  swap1\n  sstore\n  pop\n    /* \"Campaign.sol\":1909:1916  minimum */\n  dup6\n    /* \"Campaign.sol\":1887:1906  minimumContribution */\n  0x02\n    /* \"Campaign.sol\":1887:1916  minimumContribution = minimum */\n  dup2\n  swap1\n  sstore\n  pop\n    /* \"Campaign.sol\":1941:1949  dataSell */\n  dup5\n    /* \"Campaign.sol\":1927:1938  dataForSell */\n  0x03\n    /* \"Campaign.sol\":1927:1949  dataForSell = dataSell */\n  swap1\n  dup2\n  tag_6\n  swap2\n  swap1\n  tag_7\n  jump\t// in\ntag_6:\n  pop\n    /* \"Campaign.sol\":1978:1986  dataDesc */\n  dup4\n    /* \"Campaign.sol\":1960:1975  dataDescription */\n  0x04\n    /* \"Campaign.sol\":1960:1986  dataDescription = dataDesc */\n  swap1\n  dup2\n  tag_8\n  swap2\n  swap1\n  tag_7\n  jump\t// in\ntag_8:\n  pop\n    /* \"Campaign.sol\":2007:2015  duration */\n  dup2\n    /* \"Campaign.sol\":1997:2004  endTime */\n  0x0c\n    /* \"Campaign.sol\":1997:2015  endTime = duration */\n  dup2\n  swap1\n  sstore\n  pop\n    /* \"Campaign.sol\":2035:2040  false */\n  0x00\n    /* \"Campaign.sol\":2026:2032  closed */\n  0x0d\n  0x00\n    /* \"Campaign.sol\":2026:2040  closed = false */\n  0x0100\n  exp\n  dup2\n  sload\n  dup2\n  0xff\n  mul\n  not\n  and\n  swap1\n  dup4\n  iszero\n  iszero\n  mul\n  or\n  swap1\n  sstore\n  pop\n    /* \"Campaign.sol\":2077:2091  factoryAddress */\n  dup1\n    /* \"Campaign.sol\":2051:2058  factory */\n  0x00\n  0x00\n    /* \"Campaign.sol\":2051:2092  factory = CampaignFactory(factoryAddress) */\n  0x0100\n  exp\n  dup2\n  sload\n  dup2\n  0xffffffffffffffffffffffffffffffffffffffff\n  mul\n  not\n  and\n  swap1\n  dup4\n  0xffffffffffffffffffffffffffffffffffffffff\n  and\n  mul\n  or\n  swap1\n  sstore\n  pop\n    /* \"Campaign.sol\":1651:2100  constructor(... */\n  pop\n  pop\n  pop\n  pop\n  pop\n  pop\n    /* \"Campaign.sol\":561:6779  contract Campaign {... */\n  jump(tag_9)\n    /* \"#utility.yul\":7:82   */\ntag_10:\n    /* \"#utility.yul\":40:46   */\n  0x00\n    /* \"#utility.yul\":73:75   */\n  0x40\n    /* \"#utility.yul\":67:76   */\n  mload\n    /* \"#utility.yul\":57:76   */\n  swap1\n  pop\n    /* \"#utility.yul\":7:82   */\n  swap1\n  jump\t// out\n    /* \"#utility.yul\":88:205   */\ntag_11:\n    /* \"#utility.yul\":197:198   */\n  0x00\n    /* \"#utility.yul\":194:195   */\n  0x00\n    /* \"#utility.yul\":187:199   */\n  revert\n    /* \"#utility.yul\":211:328   */\ntag_12:\n    /* \"#utility.yul\":320:321   */\n  0x00\n    /* \"#utility.yul\":317:318   */\n  0x00\n    /* \"#utility.yul\":310:322   */\n  revert\n    /* \"#utility.yul\":334:411   */\ntag_13:\n    /* \"#utility.yul\":371:378   */\n  0x00\n    /* \"#utility.yul\":400:405   */\n  dup2\n    /* \"#utility.yul\":389:405   */\n  swap1\n  pop\n    /* \"#utility.yul\":334:411   */\n  swap2\n  swap1\n  pop\n  jump\t// out\n    /* \"#utility.yul\":417:539   */\ntag_14:\n    /* \"#utility.yul\":490:514   */\n  tag_54\n    /* \"#utility.yul\":508:513   */\n  dup2\n    /* \"#utility.yul\":490:514   */\n  tag_13\n  jump\t// in\ntag_54:\n    /* \"#utility.yul\":483:488   */\n  dup2\n    /* \"#utility.yul\":480:515   */\n  eq\n    /* \"#utility.yul\":470:533   */\n  tag_55\n  jumpi\n    /* \"#utility.yul\":529:530   */\n  0x00\n    /* \"#utility.yul\":526:527   */\n  0x00\n    /* \"#utility.yul\":519:531   */\n  revert\n    /* \"#utility.yul\":470:533   */\ntag_55:\n    /* \"#utility.yul\":417:539   */\n  pop\n  jump\t// out\n    /* \"#utility.yul\":545:688   */\ntag_15:\n    /* \"#utility.yul\":602:607   */\n  0x00\n    /* \"#utility.yul\":633:639   */\n  dup2\n    /* \"#utility.yul\":627:640   */\n  mload\n    /* \"#utility.yul\":618:640   */\n  swap1\n  pop\n    /* \"#utility.yul\":649:682   */\n  tag_57\n    /* \"#utility.yul\":676:681   */\n  dup2\n    /* \"#utility.yul\":649:682   */\n  tag_14\n  jump\t// in\ntag_57:\n    /* \"#utility.yul\":545:688   */\n  swap3\n  swap2\n  pop\n  pop\n  jump\t// out\n    /* \"#utility.yul\":694:811   */\ntag_16:\n    /* \"#utility.yul\":803:804   */\n  0x00\n    /* \"#utility.yul\":800:801   */\n  0x00\n    /* \"#utility.yul\":793:805   */\n  revert\n    /* \"#utility.yul\":817:934   */\ntag_17:\n    /* \"#utility.yul\":926:927   */\n  0x00\n    /* \"#utility.yul\":923:924   */\n  0x00\n    /* \"#utility.yul\":916:928   */\n  revert\n    /* \"#utility.yul\":940:1042   */\ntag_18:\n    /* \"#utility.yul\":981:987   */\n  0x00\n    /* \"#utility.yul\":1032:1034   */\n  0x1f\n    /* \"#utility.yul\":1028:1035   */\n  not\n    /* \"#utility.yul\":1023:1025   */\n  0x1f\n    /* \"#utility.yul\":1016:1021   */\n  dup4\n    /* \"#utility.yul\":1012:1026   */\n  add\n    /* \"#utility.yul\":1008:1036   */\n  and\n    /* \"#utility.yul\":998:1036   */\n  swap1\n  pop\n    /* \"#utility.yul\":940:1042   */\n  swap2\n  swap1\n  pop\n  jump\t// out\n    /* \"#utility.yul\":1048:1228   */\ntag_19:\n    /* \"#utility.yul\":1096:1173   */\n  0x4e487b7100000000000000000000000000000000000000000000000000000000\n    /* \"#utility.yul\":1093:1094   */\n  0x00\n    /* \"#utility.yul\":1086:1174   */\n  mstore\n    /* \"#utility.yul\":1193:1197   */\n  0x41\n    /* \"#utility.yul\":1190:1191   */\n  0x04\n    /* \"#utility.yul\":1183:1198   */\n  mstore\n    /* \"#utility.yul\":1217:1221   */\n  0x24\n    /* \"#utility.yul\":1214:1215   */\n  0x00\n    /* \"#utility.yul\":1207:1222   */\n  revert\n    /* \"#utility.yul\":1234:1515   */\ntag_20:\n    /* \"#utility.yul\":1317:1344   */\n  tag_63\n    /* \"#utility.yul\":1339:1343   */\n  dup3\n    /* \"#utility.yul\":1317:1344   */\n  tag_18\n  jump\t// in\ntag_63:\n    /* \"#utility.yul\":1309:1315   */\n  dup2\n    /* \"#utility.yul\":1305:1345   */\n  add\n    /* \"#utility.yul\":1447:1453   */\n  dup2\n    /* \"#utility.yul\":1435:1445   */\n  dup2\n    /* \"#utility.yul\":1432:1454   */\n  lt\n    /* \"#utility.yul\":1411:1429   */\n  0xffffffffffffffff\n    /* \"#utility.yul\":1399:1409   */\n  dup3\n    /* \"#utility.yul\":1396:1430   */\n  gt\n    /* \"#utility.yul\":1393:1455   */\n  or\n    /* \"#utility.yul\":1390:1478   */\n  iszero\n  tag_64\n  jumpi\n    /* \"#utility.yul\":1458:1476   */\n  tag_65\n  tag_19\n  jump\t// in\ntag_65:\n    /* \"#utility.yul\":1390:1478   */\ntag_64:\n    /* \"#utility.yul\":1498:1508   */\n  dup1\n    /* \"#utility.yul\":1494:1496   */\n  0x40\n    /* \"#utility.yul\":1487:1509   */\n  mstore\n    /* \"#utility.yul\":1277:1515   */\n  pop\n    /* \"#utility.yul\":1234:1515   */\n  pop\n  pop\n  jump\t// out\n    /* \"#utility.yul\":1521:1650   */\ntag_21:\n    /* \"#utility.yul\":1555:1561   */\n  0x00\n    /* \"#utility.yul\":1582:1602   */\n  tag_67\n  tag_10\n  jump\t// in\ntag_67:\n    /* \"#utility.yul\":1572:1602   */\n  swap1\n  pop\n    /* \"#utility.yul\":1611:1644   */\n  tag_68\n    /* \"#utility.yul\":1639:1643   */\n  dup3\n    /* \"#utility.yul\":1631:1637   */\n  dup3\n    /* \"#utility.yul\":1611:1644   */\n  tag_20\n  jump\t// in\ntag_68:\n    /* \"#utility.yul\":1521:1650   */\n  swap2\n  swap1\n  pop\n  jump\t// out\n    /* \"#utility.yul\":1656:1964   */\ntag_22:\n    /* \"#utility.yul\":1718:1722   */\n  0x00\n    /* \"#utility.yul\":1808:1826   */\n  0xffffffffffffffff\n    /* \"#utility.yul\":1800:1806   */\n  dup3\n    /* \"#utility.yul\":1797:1827   */\n  gt\n    /* \"#utility.yul\":1794:1850   */\n  iszero\n  tag_70\n  jumpi\n    /* \"#utility.yul\":1830:1848   */\n  tag_71\n  tag_19\n  jump\t// in\ntag_71:\n    /* \"#utility.yul\":1794:1850   */\ntag_70:\n    /* \"#utility.yul\":1868:1897   */\n  tag_72\n    /* \"#utility.yul\":1890:1896   */\n  dup3\n    /* \"#utility.yul\":1868:1897   */\n  tag_18\n  jump\t// in\ntag_72:\n    /* \"#utility.yul\":1860:1897   */\n  swap1\n  pop\n    /* \"#utility.yul\":1952:1956   */\n  0x20\n    /* \"#utility.yul\":1946:1950   */\n  dup2\n    /* \"#utility.yul\":1942:1957   */\n  add\n    /* \"#utility.yul\":1934:1957   */\n  swap1\n  pop\n    /* \"#utility.yul\":1656:1964   */\n  swap2\n  swap1\n  pop\n  jump\t// out\n    /* \"#utility.yul\":1970:2109   */\ntag_23:\n    /* \"#utility.yul\":2059:2065   */\n  dup3\n    /* \"#utility.yul\":2054:2057   */\n  dup2\n    /* \"#utility.yul\":2049:2052   */\n  dup4\n    /* \"#utility.yul\":2043:2066   */\n  mcopy\n    /* \"#utility.yul\":2100:2101   */\n  0x00\n    /* \"#utility.yul\":2091:2097   */\n  dup4\n    /* \"#utility.yul\":2086:2089   */\n  dup4\n    /* \"#utility.yul\":2082:2098   */\n  add\n    /* \"#utility.yul\":2075:2102   */\n  mstore\n    /* \"#utility.yul\":1970:2109   */\n  pop\n  pop\n  pop\n  jump\t// out\n    /* \"#utility.yul\":2115:2549   */\ntag_24:\n    /* \"#utility.yul\":2204:2209   */\n  0x00\n    /* \"#utility.yul\":2229:2295   */\n  tag_75\n    /* \"#utility.yul\":2245:2294   */\n  tag_76\n    /* \"#utility.yul\":2287:2293   */\n  dup5\n    /* \"#utility.yul\":2245:2294   */\n  tag_22\n  jump\t// in\ntag_76:\n    /* \"#utility.yul\":2229:2295   */\n  tag_21\n  jump\t// in\ntag_75:\n    /* \"#utility.yul\":2220:2295   */\n  swap1\n  pop\n    /* \"#utility.yul\":2318:2324   */\n  dup3\n    /* \"#utility.yul\":2311:2316   */\n  dup2\n    /* \"#utility.yul\":2304:2325   */\n  mstore\n    /* \"#utility.yul\":2356:2360   */\n  0x20\n    /* \"#utility.yul\":2349:2354   */\n  dup2\n    /* \"#utility.yul\":2345:2361   */\n  add\n    /* \"#utility.yul\":2394:2397   */\n  dup5\n    /* \"#utility.yul\":2385:2391   */\n  dup5\n    /* \"#utility.yul\":2380:2383   */\n  dup5\n    /* \"#utility.yul\":2376:2392   */\n  add\n    /* \"#utility.yul\":2373:2398   */\n  gt\n    /* \"#utility.yul\":2370:2482   */\n  iszero\n  tag_77\n  jumpi\n    /* \"#utility.yul\":2401:2480   */\n  tag_78\n  tag_17\n  jump\t// in\ntag_78:\n    /* \"#utility.yul\":2370:2482   */\ntag_77:\n    /* \"#utility.yul\":2491:2543   */\n  tag_79\n    /* \"#utility.yul\":2536:2542   */\n  dup5\n    /* \"#utility.yul\":2531:2534   */\n  dup3\n    /* \"#utility.yul\":2526:2529   */\n  dup6\n    /* \"#utility.yul\":2491:2543   */\n  tag_23\n  jump\t// in\ntag_79:\n    /* \"#utility.yul\":2210:2549   */\n  pop\n    /* \"#utility.yul\":2115:2549   */\n  swap4\n  swap3\n  pop\n  pop\n  pop\n  jump\t// out\n    /* \"#utility.yul\":2569:2924   */\ntag_25:\n    /* \"#utility.yul\":2636:2641   */\n  0x00\n    /* \"#utility.yul\":2685:2688   */\n  dup3\n    /* \"#utility.yul\":2678:2682   */\n  0x1f\n    /* \"#utility.yul\":2670:2676   */\n  dup4\n    /* \"#utility.yul\":2666:2683   */\n  add\n    /* \"#utility.yul\":2662:2689   */\n  slt\n    /* \"#utility.yul\":2652:2774   */\n  tag_81\n  jumpi\n    /* \"#utility.yul\":2693:2772   */\n  tag_82\n  tag_16\n  jump\t// in\ntag_82:\n    /* \"#utility.yul\":2652:2774   */\ntag_81:\n    /* \"#utility.yul\":2803:2809   */\n  dup2\n    /* \"#utility.yul\":2797:2810   */\n  mload\n    /* \"#utility.yul\":2828:2918   */\n  tag_83\n    /* \"#utility.yul\":2914:2917   */\n  dup5\n    /* \"#utility.yul\":2906:2912   */\n  dup3\n    /* \"#utility.yul\":2899:2903   */\n  0x20\n    /* \"#utility.yul\":2891:2897   */\n  dup7\n    /* \"#utility.yul\":2887:2904   */\n  add\n    /* \"#utility.yul\":2828:2918   */\n  tag_24\n  jump\t// in\ntag_83:\n    /* \"#utility.yul\":2819:2918   */\n  swap2\n  pop\n    /* \"#utility.yul\":2642:2924   */\n  pop\n    /* \"#utility.yul\":2569:2924   */\n  swap3\n  swap2\n  pop\n  pop\n  jump\t// out\n    /* \"#utility.yul\":2930:3056   */\ntag_26:\n    /* \"#utility.yul\":2967:2974   */\n  0x00\n    /* \"#utility.yul\":3007:3049   */\n  0xffffffffffffffffffffffffffffffffffffffff\n    /* \"#utility.yul\":3000:3005   */\n  dup3\n    /* \"#utility.yul\":2996:3050   */\n  and\n    /* \"#utility.yul\":2985:3050   */\n  swap1\n  pop\n    /* \"#utility.yul\":2930:3056   */\n  swap2\n  swap1\n  pop\n  jump\t// out\n    /* \"#utility.yul\":3062:3158   */\ntag_27:\n    /* \"#utility.yul\":3099:3106   */\n  0x00\n    /* \"#utility.yul\":3128:3152   */\n  tag_86\n    /* \"#utility.yul\":3146:3151   */\n  dup3\n    /* \"#utility.yul\":3128:3152   */\n  tag_26\n  jump\t// in\ntag_86:\n    /* \"#utility.yul\":3117:3152   */\n  swap1\n  pop\n    /* \"#utility.yul\":3062:3158   */\n  swap2\n  swap1\n  pop\n  jump\t// out\n    /* \"#utility.yul\":3164:3286   */\ntag_28:\n    /* \"#utility.yul\":3237:3261   */\n  tag_88\n    /* \"#utility.yul\":3255:3260   */\n  dup2\n    /* \"#utility.yul\":3237:3261   */\n  tag_27\n  jump\t// in\ntag_88:\n    /* \"#utility.yul\":3230:3235   */\n  dup2\n    /* \"#utility.yul\":3227:3262   */\n  eq\n    /* \"#utility.yul\":3217:3280   */\n  tag_89\n  jumpi\n    /* \"#utility.yul\":3276:3277   */\n  0x00\n    /* \"#utility.yul\":3273:3274   */\n  0x00\n    /* \"#utility.yul\":3266:3278   */\n  revert\n    /* \"#utility.yul\":3217:3280   */\ntag_89:\n    /* \"#utility.yul\":3164:3286   */\n  pop\n  jump\t// out\n    /* \"#utility.yul\":3292:3435   */\ntag_29:\n    /* \"#utility.yul\":3349:3354   */\n  0x00\n    /* \"#utility.yul\":3380:3386   */\n  dup2\n    /* \"#utility.yul\":3374:3387   */\n  mload\n    /* \"#utility.yul\":3365:3387   */\n  swap1\n  pop\n    /* \"#utility.yul\":3396:3429   */\n  tag_91\n    /* \"#utility.yul\":3423:3428   */\n  dup2\n    /* \"#utility.yul\":3396:3429   */\n  tag_28\n  jump\t// in\ntag_91:\n    /* \"#utility.yul\":3292:3435   */\n  swap3\n  swap2\n  pop\n  pop\n  jump\t// out\n    /* \"#utility.yul\":3441:4921   */\ntag_3:\n    /* \"#utility.yul\":3576:3582   */\n  0x00\n    /* \"#utility.yul\":3584:3590   */\n  0x00\n    /* \"#utility.yul\":3592:3598   */\n  0x00\n    /* \"#utility.yul\":3600:3606   */\n  0x00\n    /* \"#utility.yul\":3608:3614   */\n  0x00\n    /* \"#utility.yul\":3616:3622   */\n  0x00\n    /* \"#utility.yul\":3665:3668   */\n  0xc0\n    /* \"#utility.yul\":3653:3662   */\n  dup8\n    /* \"#utility.yul\":3644:3651   */\n  dup10\n    /* \"#utility.yul\":3640:3663   */\n  sub\n    /* \"#utility.yul\":3636:3669   */\n  slt\n    /* \"#utility.yul\":3633:3753   */\n  iszero\n  tag_93\n  jumpi\n    /* \"#utility.yul\":3672:3751   */\n  tag_94\n  tag_11\n  jump\t// in\ntag_94:\n    /* \"#utility.yul\":3633:3753   */\ntag_93:\n    /* \"#utility.yul\":3792:3793   */\n  0x00\n    /* \"#utility.yul\":3817:3881   */\n  tag_95\n    /* \"#utility.yul\":3873:3880   */\n  dup10\n    /* \"#utility.yul\":3864:3870   */\n  dup3\n    /* \"#utility.yul\":3853:3862   */\n  dup11\n    /* \"#utility.yul\":3849:3871   */\n  add\n    /* \"#utility.yul\":3817:3881   */\n  tag_15\n  jump\t// in\ntag_95:\n    /* \"#utility.yul\":3807:3881   */\n  swap7\n  pop\n    /* \"#utility.yul\":3763:3891   */\n  pop\n    /* \"#utility.yul\":3951:3953   */\n  0x20\n    /* \"#utility.yul\":3940:3949   */\n  dup8\n    /* \"#utility.yul\":3936:3954   */\n  add\n    /* \"#utility.yul\":3930:3955   */\n  mload\n    /* \"#utility.yul\":3982:4000   */\n  0xffffffffffffffff\n    /* \"#utility.yul\":3974:3980   */\n  dup2\n    /* \"#utility.yul\":3971:4001   */\n  gt\n    /* \"#utility.yul\":3968:4085   */\n  iszero\n  tag_96\n  jumpi\n    /* \"#utility.yul\":4004:4083   */\n  tag_97\n  tag_12\n  jump\t// in\ntag_97:\n    /* \"#utility.yul\":3968:4085   */\ntag_96:\n    /* \"#utility.yul\":4109:4183   */\n  tag_98\n    /* \"#utility.yul\":4175:4182   */\n  dup10\n    /* \"#utility.yul\":4166:4172   */\n  dup3\n    /* \"#utility.yul\":4155:4164   */\n  dup11\n    /* \"#utility.yul\":4151:4173   */\n  add\n    /* \"#utility.yul\":4109:4183   */\n  tag_25\n  jump\t// in\ntag_98:\n    /* \"#utility.yul\":4099:4183   */\n  swap6\n  pop\n    /* \"#utility.yul\":3901:4193   */\n  pop\n    /* \"#utility.yul\":4253:4255   */\n  0x40\n    /* \"#utility.yul\":4242:4251   */\n  dup8\n    /* \"#utility.yul\":4238:4256   */\n  add\n    /* \"#utility.yul\":4232:4257   */\n  mload\n    /* \"#utility.yul\":4284:4302   */\n  0xffffffffffffffff\n    /* \"#utility.yul\":4276:4282   */\n  dup2\n    /* \"#utility.yul\":4273:4303   */\n  gt\n    /* \"#utility.yul\":4270:4387   */\n  iszero\n  tag_99\n  jumpi\n    /* \"#utility.yul\":4306:4385   */\n  tag_100\n  tag_12\n  jump\t// in\ntag_100:\n    /* \"#utility.yul\":4270:4387   */\ntag_99:\n    /* \"#utility.yul\":4411:4485   */\n  tag_101\n    /* \"#utility.yul\":4477:4484   */\n  dup10\n    /* \"#utility.yul\":4468:4474   */\n  dup3\n    /* \"#utility.yul\":4457:4466   */\n  dup11\n    /* \"#utility.yul\":4453:4475   */\n  add\n    /* \"#utility.yul\":4411:4485   */\n  tag_25\n  jump\t// in\ntag_101:\n    /* \"#utility.yul\":4401:4485   */\n  swap5\n  pop\n    /* \"#utility.yul\":4203:4495   */\n  pop\n    /* \"#utility.yul\":4534:4536   */\n  0x60\n    /* \"#utility.yul\":4560:4624   */\n  tag_102\n    /* \"#utility.yul\":4616:4623   */\n  dup10\n    /* \"#utility.yul\":4607:4613   */\n  dup3\n    /* \"#utility.yul\":4596:4605   */\n  dup11\n    /* \"#utility.yul\":4592:4614   */\n  add\n    /* \"#utility.yul\":4560:4624   */\n  tag_29\n  jump\t// in\ntag_102:\n    /* \"#utility.yul\":4550:4624   */\n  swap4\n  pop\n    /* \"#utility.yul\":4505:4634   */\n  pop\n    /* \"#utility.yul\":4673:4676   */\n  0x80\n    /* \"#utility.yul\":4700:4764   */\n  tag_103\n    /* \"#utility.yul\":4756:4763   */\n  dup10\n    /* \"#utility.yul\":4747:4753   */\n  dup3\n    /* \"#utility.yul\":4736:4745   */\n  dup11\n    /* \"#utility.yul\":4732:4754   */\n  add\n    /* \"#utility.yul\":4700:4764   */\n  tag_15\n  jump\t// in\ntag_103:\n    /* \"#utility.yul\":4690:4764   */\n  swap3\n  pop\n    /* \"#utility.yul\":4644:4774   */\n  pop\n    /* \"#utility.yul\":4813:4816   */\n  0xa0\n    /* \"#utility.yul\":4840:4904   */\n  tag_104\n    /* \"#utility.yul\":4896:4903   */\n  dup10\n    /* \"#utility.yul\":4887:4893   */\n  dup3\n    /* \"#utility.yul\":4876:4885   */\n  dup11\n    /* \"#utility.yul\":4872:4894   */\n  add\n    /* \"#utility.yul\":4840:4904   */\n  tag_29\n  jump\t// in\ntag_104:\n    /* \"#utility.yul\":4830:4904   */\n  swap2\n  pop\n    /* \"#utility.yul\":4784:4914   */\n  pop\n    /* \"#utility.yul\":3441:4921   */\n  swap3\n  swap6\n  pop\n  swap3\n  swap6\n  pop\n  swap3\n  swap6\n  jump\t// out\n    /* \"#utility.yul\":4927:5026   */\ntag_30:\n    /* \"#utility.yul\":4979:4985   */\n  0x00\n    /* \"#utility.yul\":5013:5018   */\n  dup2\n    /* \"#utility.yul\":5007:5019   */\n  mload\n    /* \"#utility.yul\":4997:5019   */\n  swap1\n  pop\n    /* \"#utility.yul\":4927:5026   */\n  swap2\n  swap1\n  pop\n  jump\t// out\n    /* \"#utility.yul\":5032:5212   */\ntag_31:\n    /* \"#utility.yul\":5080:5157   */\n  0x4e487b7100000000000000000000000000000000000000000000000000000000\n    /* \"#utility.yul\":5077:5078   */\n  0x00\n    /* \"#utility.yul\":5070:5158   */\n  mstore\n    /* \"#utility.yul\":5177:5181   */\n  0x22\n    /* \"#utility.yul\":5174:5175   */\n  0x04\n    /* \"#utility.yul\":5167:5182   */\n  mstore\n    /* \"#utility.yul\":5201:5205   */\n  0x24\n    /* \"#utility.yul\":5198:5199   */\n  0x00\n    /* \"#utility.yul\":5191:5206   */\n  revert\n    /* \"#utility.yul\":5218:5538   */\ntag_32:\n    /* \"#utility.yul\":5262:5268   */\n  0x00\n    /* \"#utility.yul\":5299:5300   */\n  0x02\n    /* \"#utility.yul\":5293:5297   */\n  dup3\n    /* \"#utility.yul\":5289:5301   */\n  div\n    /* \"#utility.yul\":5279:5301   */\n  swap1\n  pop\n    /* \"#utility.yul\":5346:5347   */\n  0x01\n    /* \"#utility.yul\":5340:5344   */\n  dup3\n    /* \"#utility.yul\":5336:5348   */\n  and\n    /* \"#utility.yul\":5367:5385   */\n  dup1\n    /* \"#utility.yul\":5357:5438   */\n  tag_108\n  jumpi\n    /* \"#utility.yul\":5423:5427   */\n  0x7f\n    /* \"#utility.yul\":5415:5421   */\n  dup3\n    /* \"#utility.yul\":5411:5428   */\n  and\n    /* \"#utility.yul\":5401:5428   */\n  swap2\n  pop\n    /* \"#utility.yul\":5357:5438   */\ntag_108:\n    /* \"#utility.yul\":5485:5487   */\n  0x20\n    /* \"#utility.yul\":5477:5483   */\n  dup3\n    /* \"#utility.yul\":5474:5488   */\n  lt\n    /* \"#utility.yul\":5454:5472   */\n  dup2\n    /* \"#utility.yul\":5451:5489   */\n  sub\n    /* \"#utility.yul\":5448:5532   */\n  tag_109\n  jumpi\n    /* \"#utility.yul\":5504:5522   */\n  tag_110\n  tag_31\n  jump\t// in\ntag_110:\n    /* \"#utility.yul\":5448:5532   */\ntag_109:\n    /* \"#utility.yul\":5269:5538   */\n  pop\n    /* \"#utility.yul\":5218:5538   */\n  swap2\n  swap1\n  pop\n  jump\t// out\n    /* \"#utility.yul\":5544:5685   */\ntag_33:\n    /* \"#utility.yul\":5593:5597   */\n  0x00\n    /* \"#utility.yul\":5616:5619   */\n  dup2\n    /* \"#utility.yul\":5608:5619   */\n  swap1\n  pop\n    /* \"#utility.yul\":5639:5642   */\n  dup2\n    /* \"#utility.yul\":5636:5637   */\n  0x00\n    /* \"#utility.yul\":5629:5643   */\n  mstore\n    /* \"#utility.yul\":5673:5677   */\n  0x20\n    /* \"#utility.yul\":5670:5671   */\n  0x00\n    /* \"#utility.yul\":5660:5678   */\n  keccak256\n    /* \"#utility.yul\":5652:5678   */\n  swap1\n  pop\n    /* \"#utility.yul\":5544:5685   */\n  swap2\n  swap1\n  pop\n  jump\t// out\n    /* \"#utility.yul\":5691:5784   */\ntag_34:\n    /* \"#utility.yul\":5728:5734   */\n  0x00\n    /* \"#utility.yul\":5775:5777   */\n  0x20\n    /* \"#utility.yul\":5770:5772   */\n  0x1f\n    /* \"#utility.yul\":5763:5768   */\n  dup4\n    /* \"#utility.yul\":5759:5773   */\n  add\n    /* \"#utility.yul\":5755:5778   */\n  div\n    /* \"#utility.yul\":5745:5778   */\n  swap1\n  pop\n    /* \"#utility.yul\":5691:5784   */\n  swap2\n  swap1\n  pop\n  jump\t// out\n    /* \"#utility.yul\":5790:5897   */\ntag_35:\n    /* \"#utility.yul\":5834:5842   */\n  0x00\n    /* \"#utility.yul\":5884:5889   */\n  dup3\n    /* \"#utility.yul\":5878:5882   */\n  dup3\n    /* \"#utility.yul\":5874:5890   */\n  shl\n    /* \"#utility.yul\":5853:5890   */\n  swap1\n  pop\n    /* \"#utility.yul\":5790:5897   */\n  swap3\n  swap2\n  pop\n  pop\n  jump\t// out\n    /* \"#utility.yul\":5903:6296   */\ntag_36:\n    /* \"#utility.yul\":5972:5978   */\n  0x00\n    /* \"#utility.yul\":6022:6023   */\n  0x08\n    /* \"#utility.yul\":6010:6020   */\n  dup4\n    /* \"#utility.yul\":6006:6024   */\n  mul\n    /* \"#utility.yul\":6045:6142   */\n  tag_115\n    /* \"#utility.yul\":6075:6141   */\n  0xffffffffffffffffffffffffffffffffffffffffffffffffffffffffffffffff\n    /* \"#utility.yul\":6064:6073   */\n  dup3\n    /* \"#utility.yul\":6045:6142   */\n  tag_35\n  jump\t// in\ntag_115:\n    /* \"#utility.yul\":6163:6202   */\n  tag_116\n    /* \"#utility.yul\":6193:6201   */\n  dup7\n    /* \"#utility.yul\":6182:6191   */\n  dup4\n    /* \"#utility.yul\":6163:6202   */\n  tag_35\n  jump\t// in\ntag_116:\n    /* \"#utility.yul\":6151:6202   */\n  swap6\n  pop\n    /* \"#utility.yul\":6235:6239   */\n  dup1\n    /* \"#utility.yul\":6231:6240   */\n  not\n    /* \"#utility.yul\":6224:6229   */\n  dup5\n    /* \"#utility.yul\":6220:6241   */\n  and\n    /* \"#utility.yul\":6211:6241   */\n  swap4\n  pop\n    /* \"#utility.yul\":6284:6288   */\n  dup1\n    /* \"#utility.yul\":6274:6282   */\n  dup7\n    /* \"#utility.yul\":6270:6289   */\n  and\n    /* \"#utility.yul\":6263:6268   */\n  dup5\n    /* \"#utility.yul\":6260:6290   */\n  or\n    /* \"#utility.yul\":6250:6290   */\n  swap3\n  pop\n    /* \"#utility.yul\":5979:6296   */\n  pop\n  pop\n    /* \"#utility.yul\":5903:6296   */\n  swap4\n  swap3\n  pop\n  pop\n  pop\n  jump\t// out\n    /* \"#utility.yul\":6302:6362   */\ntag_37:\n    /* \"#utility.yul\":6330:6333   */\n  0x00\n    /* \"#utility.yul\":6351:6356   */\n  dup2\n    /* \"#utility.yul\":6344:6356   */\n  swap1\n  pop\n    /* \"#utility.yul\":6302:6362   */\n  swap2\n  swap1\n  pop\n  jump\t// out\n    /* \"#utility.yul\":6368:6510   */\ntag_38:\n    /* \"#utility.yul\":6418:6427   */\n  0x00\n    /* \"#utility.yul\":6451:6504   */\n  tag_119\n    /* \"#utility.yul\":6469:6503   */\n  tag_120\n    /* \"#utility.yul\":6478:6502   */\n  tag_121\n    /* \"#utility.yul\":6496:6501   */\n  dup5\n    /* \"#utility.yul\":6478:6502   */\n  tag_13\n  jump\t// in\ntag_121:\n    /* \"#utility.yul\":6469:6503   */\n  tag_37\n  jump\t// in\ntag_120:\n    /* \"#utility.yul\":6451:6504   */\n  tag_13\n  jump\t// in\ntag_119:\n    /* \"#utility.yul\":6438:6504   */\n  swap1\n  pop\n    /* \"#utility.yul\":6368:6510   */\n  swap2\n  swap1\n  pop\n  jump\t// out\n    /* \"#utility.yul\":6516:6591   */\ntag_39:\n    /* \"#utility.yul\":6559:6562   */\n  0x00\n    /* \"#utility.yul\":6580:6585   */\n  dup2\n    /* \"#utility.yul\":6573:6585   */\n  swap1\n  pop\n    /* \"#utility.yul\":6516:6591   */\n  swap2\n  swap1\n  pop\n  jump\t// out\n    /* \"#utility.yul\":6597:6866   */\ntag_40:\n    /* \"#utility.yul\":6707:6746   */\n  tag_124\n    /* \"#utility.yul\":6738:6745   */\n  dup4\n    /* \"#utility.yul\":6707:6746   */\n  tag_38\n  jump\t// in\ntag_124:\n    /* \"#utility.yul\":6768:6859   */\n  tag_125\n    /* \"#utility.yul\":6817:6858   */\n  tag_126\n    /* \"#utility.yul\":6841:6857   */\n  dup3\n    /* \"#utility.yul\":6817:6858   */\n  tag_39\n  jump\t// in\ntag_126:\n    /* \"#utility.yul\":6809:6815   */\n  dup5\n    /* \"#utility.yul\":6802:6806   */\n  dup5\n    /* \"#utility.yul\":6796:6807   */\n  sload\n    /* \"#utility.yul\":6768:6859   */\n  tag_36\n  jump\t// in\ntag_125:\n    /* \"#utility.yul\":6762:6766   */\n  dup3\n    /* \"#utility.yul\":6755:6860   */\n  sstore\n    /* \"#utility.yul\":6673:6866   */\n  pop\n    /* \"#utility.yul\":6597:6866   */\n  pop\n  pop\n  pop\n  jump\t// out\n    /* \"#utility.yul\":6872:6945   */\ntag_41:\n    /* \"#utility.yul\":6917:6920   */\n  0x00\n    /* \"#utility.yul\":6938:6939   */\n  0x00\n    /* \"#utility.yul\":6931:6939   */\n  swap1\n  pop\n    /* \"#utility.yul\":6872:6945   */\n  swap1\n  jump\t// out\n    /* \"#utility.yul\":6951:7140   */\ntag_42:\n    /* \"#utility.yul\":7028:7060   */\n  tag_129\n  tag_41\n  jump\t// in\ntag_129:\n    /* \"#utility.yul\":7069:7134   */\n  tag_130\n    /* \"#utility.yul\":7127:7133   */\n  dup2\n    /* \"#utility.yul\":7119:7125   */\n  dup5\n    /* \"#utility.yul\":7113:7117   */\n  dup5\n    /* \"#utility.yul\":7069:7134   */\n  tag_40\n  jump\t// in\ntag_130:\n    /* \"#utility.yul\":7004:7140   */\n  pop\n    /* \"#utility.yul\":6951:7140   */\n  pop\n  pop\n  jump\t// out\n    /* \"#utility.yul\":7146:7360   */\ntag_43:\n    /* \"#utility.yul\":7231:7232   */\n  0x00\n    /* \"#utility.yul\":7216:7354   */\ntag_132:\n    /* \"#utility.yul\":7241:7250   */\n  dup3\n    /* \"#utility.yul\":7238:7239   */\n  dup2\n    /* \"#utility.yul\":7235:7251   */\n  lt\n    /* \"#utility.yul\":7216:7354   */\n  iszero\n  tag_134\n  jumpi\n    /* \"#utility.yul\":7293:7344   */\n  tag_135\n    /* \"#utility.yul\":7342:7343   */\n  0x00\n    /* \"#utility.yul\":7338:7339   */\n  dup3\n    /* \"#utility.yul\":7327:7336   */\n  dup5\n    /* \"#utility.yul\":7323:7340   */\n  add\n    /* \"#utility.yul\":7293:7344   */\n  tag_42\n  jump\t// in\ntag_135:\n    /* \"#utility.yul\":7266:7267   */\n  0x01\n    /* \"#utility.yul\":7263:7264   */\n  dup2\n    /* \"#utility.yul\":7259:7268   */\n  add\n    /* \"#utility.yul\":7254:7268   */\n  swap1\n  pop\n    /* \"#utility.yul\":7216:7354   */\n  jump(tag_132)\ntag_134:\n    /* \"#utility.yul\":7220:7234   */\n  pop\n    /* \"#utility.yul\":7146:7360   */\n  pop\n  pop\n  jump\t// out\n    /* \"#utility.yul\":7366:8112   */\ntag_44:\n    /* \"#utility.yul\":7467:7469   */\n  0x1f\n    /* \"#utility.yul\":7462:7465   */\n  dup3\n    /* \"#utility.yul\":7459:7470   */\n  gt\n    /* \"#utility.yul\":7456:8105   */\n  iszero\n  tag_137\n  jumpi\n    /* \"#utility.yul\":7496:7506   */\n  dup3\n    /* \"#utility.yul\":7491:7494   */\n  dup3\n    /* \"#utility.yul\":7488:7507   */\n  gt\n    /* \"#utility.yul\":7485:8095   */\n  iszero\n  tag_138\n  jumpi\n    /* \"#utility.yul\":7542:7580   */\n  tag_139\n    /* \"#utility.yul\":7574:7579   */\n  dup2\n    /* \"#utility.yul\":7542:7580   */\n  tag_33\n  jump\t// in\ntag_139:\n    /* \"#utility.yul\":7617:7639   */\n  tag_140\n    /* \"#utility.yul\":7635:7638   */\n  dup4\n    /* \"#utility.yul\":7617:7639   */\n  tag_34\n  jump\t// in\ntag_140:\n    /* \"#utility.yul\":7676:7705   */\n  tag_141\n    /* \"#utility.yul\":7694:7704   */\n  dup6\n    /* \"#utility.yul\":7676:7705   */\n  tag_34\n  jump\t// in\ntag_141:\n    /* \"#utility.yul\":7866:7868   */\n  0x20\n    /* \"#utility.yul\":7854:7864   */\n  dup7\n    /* \"#utility.yul\":7851:7869   */\n  lt\n    /* \"#utility.yul\":7848:7927   */\n  iszero\n  tag_142\n  jumpi\n    /* \"#utility.yul\":7908:7909   */\n  0x00\n    /* \"#utility.yul\":7892:7909   */\n  swap1\n  pop\n    /* \"#utility.yul\":7848:7927   */\ntag_142:\n    /* \"#utility.yul\":7977:7989   */\n  dup1\n    /* \"#utility.yul\":7967:7975   */\n  dup4\n    /* \"#utility.yul\":7963:7990   */\n  add\n    /* \"#utility.yul\":8007:8081   */\n  tag_143\n    /* \"#utility.yul\":8067:8079   */\n  dup3\n    /* \"#utility.yul\":8053:8065   */\n  dup5\n    /* \"#utility.yul\":8049:8080   */\n  sub\n    /* \"#utility.yul\":8036:8047   */\n  dup3\n    /* \"#utility.yul\":8007:8081   */\n  tag_43\n  jump\t// in\ntag_143:\n    /* \"#utility.yul\":7508:8095   */\n  pop\n  pop\n  pop\n  pop\n    /* \"#utility.yul\":7485:8095   */\ntag_138:\n    /* \"#utility.yul\":7456:8105   */\ntag_137:\n    /* \"#utility.yul\":7366:8112   */\n  pop\n  pop\n  pop\n  jump\t// out\n    /* \"#utility.yul\":8118:8235   */\ntag_45:\n    /* \"#utility.yul\":8172:8180   */\n  0x00\n    /* \"#utility.yul\":8222:8227   */\n  dup3\n    /* \"#utility.yul\":8216:8220   */\n  dup3\n    /* \"#utility.yul\":8212:8228   */\n  shr\n    /* \"#utility.yul\":8191:8228   */\n  swap1\n  pop\n    /* \"#utility.yul\":8118:8235   */\n  swap3\n  swap2\n  pop\n  pop\n  jump\t// out\n    /* \"#utility.yul\":8241:8410   */\ntag_46:\n    /* \"#utility.yul\":8285:8291   */\n  0x00\n    /* \"#utility.yul\":8318:8369   */\n  tag_146\n    /* \"#utility.yul\":8366:8367   */\n  0x00\n    /* \"#utility.yul\":8362:8368   */\n  not\n    /* \"#utility.yul\":8354:8359   */\n  dup5\n    /* \"#utility.yul\":8351:8352   */\n  0x08\n    /* \"#utility.yul\":8347:8360   */\n  mul\n    /* \"#utility.yul\":8318:8369   */\n  tag_45\n  jump\t// in\ntag_146:\n    /* \"#utility.yul\":8314:8370   */\n  not\n    /* \"#utility.yul\":8399:8403   */\n  dup1\n    /* \"#utility.yul\":8393:8397   */\n  dup4\n    /* \"#utility.yul\":8389:8404   */\n  and\n    /* \"#utility.yul\":8379:8404   */\n  swap2\n  pop\n    /* \"#utility.yul\":8292:8410   */\n  pop\n    /* \"#utility.yul\":8241:8410   */\n  swap3\n  swap2\n  pop\n  pop\n  jump\t// out\n    /* \"#utility.yul\":8415:8710   */\ntag_47:\n    /* \"#utility.yul\":8491:8495   */\n  0x00\n    /* \"#utility.yul\":8637:8666   */\n  tag_148\n    /* \"#utility.yul\":8662:8665   */\n  dup4\n    /* \"#utility.yul\":8656:8660   */\n  dup4\n    /* \"#utility.yul\":8637:8666   */\n  tag_46\n  jump\t// in\ntag_148:\n    /* \"#utility.yul\":8629:8666   */\n  swap2\n  pop\n    /* \"#utility.yul\":8699:8702   */\n  dup3\n    /* \"#utility.yul\":8696:8697   */\n  0x02\n    /* \"#utility.yul\":8692:8703   */\n  mul\n    /* \"#utility.yul\":8686:8690   */\n  dup3\n    /* \"#utility.yul\":8683:8704   */\n  or\n    /* \"#utility.yul\":8675:8704   */\n  swap1\n  pop\n    /* \"#utility.yul\":8415:8710   */\n  swap3\n  swap2\n  pop\n  pop\n  jump\t// out\n    /* \"#utility.yul\":8715:10110   */\ntag_7:\n    /* \"#utility.yul\":8832:8869   */\n  tag_150\n    /* \"#utility.yul\":8865:8868   */\n  dup3\n    /* \"#utility.yul\":8832:8869   */\n  tag_30\n  jump\t// in\ntag_150:\n    /* \"#utility.yul\":8934:8952   */\n  0xffffffffffffffff\n    /* \"#utility.yul\":8926:8932   */\n  dup2\n    /* \"#utility.yul\":8923:8953   */\n  gt\n    /* \"#utility.yul\":8920:8976   */\n  iszero\n  tag_151\n  jumpi\n    /* \"#utility.yul\":8956:8974   */\n  tag_152\n  tag_19\n  jump\t// in\ntag_152:\n    /* \"#utility.yul\":8920:8976   */\ntag_151:\n    /* \"#utility.yul\":9000:9038   */\n  tag_153\n    /* \"#utility.yul\":9032:9036   */\n  dup3\n    /* \"#utility.yul\":9026:9037   */\n  sload\n    /* \"#utility.yul\":9000:9038   */\n  tag_32\n  jump\t// in\ntag_153:\n    /* \"#utility.yul\":9085:9152   */\n  tag_154\n    /* \"#utility.yul\":9145:9151   */\n  dup3\n    /* \"#utility.yul\":9137:9143   */\n  dup3\n    /* \"#utility.yul\":9131:9135   */\n  dup6\n    /* \"#utility.yul\":9085:9152   */\n  tag_44\n  jump\t// in\ntag_154:\n    /* \"#utility.yul\":9179:9180   */\n  0x00\n    /* \"#utility.yul\":9203:9207   */\n  0x20\n    /* \"#utility.yul\":9190:9207   */\n  swap1\n  pop\n    /* \"#utility.yul\":9235:9237   */\n  0x1f\n    /* \"#utility.yul\":9227:9233   */\n  dup4\n    /* \"#utility.yul\":9224:9238   */\n  gt\n    /* \"#utility.yul\":9252:9253   */\n  0x01\n    /* \"#utility.yul\":9247:9865   */\n  dup2\n  eq\n  tag_156\n  jumpi\n    /* \"#utility.yul\":9909:9910   */\n  0x00\n    /* \"#utility.yul\":9926:9932   */\n  dup5\n    /* \"#utility.yul\":9923:10000   */\n  iszero\n  tag_157\n  jumpi\n    /* \"#utility.yul\":9975:9984   */\n  dup3\n    /* \"#utility.yul\":9970:9973   */\n  dup8\n    /* \"#utility.yul\":9966:9985   */\n  add\n    /* \"#utility.yul\":9960:9986   */\n  mload\n    /* \"#utility.yul\":9951:9986   */\n  swap1\n  pop\n    /* \"#utility.yul\":9923:10000   */\ntag_157:\n    /* \"#utility.yul\":10026:10093   */\n  tag_158\n    /* \"#utility.yul\":10086:10092   */\n  dup6\n    /* \"#utility.yul\":10079:10084   */\n  dup3\n    /* \"#utility.yul\":10026:10093   */\n  tag_47\n  jump\t// in\ntag_158:\n    /* \"#utility.yul\":10020:10024   */\n  dup7\n    /* \"#utility.yul\":10013:10094   */\n  sstore\n    /* \"#utility.yul\":9882:10104   */\n  pop\n    /* \"#utility.yul\":9217:10104   */\n  jump(tag_155)\n    /* \"#utility.yul\":9247:9865   */\ntag_156:\n    /* \"#utility.yul\":9299:9303   */\n  0x1f\n    /* \"#utility.yul\":9295:9304   */\n  not\n    /* \"#utility.yul\":9287:9293   */\n  dup5\n    /* \"#utility.yul\":9283:9305   */\n  and\n    /* \"#utility.yul\":9333:9370   */\n  tag_159\n    /* \"#utility.yul\":9365:9369   */\n  dup7\n    /* \"#utility.yul\":9333:9370   */\n  tag_33\n  jump\t// in\ntag_159:\n    /* \"#utility.yul\":9392:9393   */\n  0x00\n    /* \"#utility.yul\":9406:9614   */\ntag_160:\n    /* \"#utility.yul\":9420:9427   */\n  dup3\n    /* \"#utility.yul\":9417:9418   */\n  dup2\n    /* \"#utility.yul\":9414:9428   */\n  lt\n    /* \"#utility.yul\":9406:9614   */\n  iszero\n  tag_162\n  jumpi\n    /* \"#utility.yul\":9499:9508   */\n  dup5\n    /* \"#utility.yul\":9494:9497   */\n  dup10\n    /* \"#utility.yul\":9490:9509   */\n  add\n    /* \"#utility.yul\":9484:9510   */\n  mload\n    /* \"#utility.yul\":9476:9482   */\n  dup3\n    /* \"#utility.yul\":9469:9511   */\n  sstore\n    /* \"#utility.yul\":9550:9551   */\n  0x01\n    /* \"#utility.yul\":9542:9548   */\n  dup3\n    /* \"#utility.yul\":9538:9552   */\n  add\n    /* \"#utility.yul\":9528:9552   */\n  swap2\n  pop\n    /* \"#utility.yul\":9597:9599   */\n  0x20\n    /* \"#utility.yul\":9586:9595   */\n  dup6\n    /* \"#utility.yul\":9582:9600   */\n  add\n    /* \"#utility.yul\":9569:9600   */\n  swap5\n  pop\n    /* \"#utility.yul\":9443:9447   */\n  0x20\n    /* \"#utility.yul\":9440:9441   */\n  dup2\n    /* \"#utility.yul\":9436:9448   */\n  add\n    /* \"#utility.yul\":9431:9448   */\n  swap1\n  pop\n    /* \"#utility.yul\":9406:9614   */\n  jump(tag_160)\ntag_162:\n    /* \"#utility.yul\":9642:9648   */\n  dup7\n    /* \"#utility.yul\":9633:9640   */\n  dup4\n    /* \"#utility.yul\":9630:9649   */\n  lt\n    /* \"#utility.yul\":9627:9806   */\n  iszero\n  tag_163\n  jumpi\n    /* \"#utility.yul\":9700:9709   */\n  dup5\n    /* \"#utility.yul\":9695:9698   */\n  dup10\n    /* \"#utility.yul\":9691:9710   */\n  add\n    /* \"#utility.yul\":9685:9711   */\n  mload\n    /* \"#utility.yul\":9743:9791   */\n  tag_164\n    /* \"#utility.yul\":9785:9789   */\n  0x1f\n    /* \"#utility.yul\":9777:9783   */\n  dup10\n    /* \"#utility.yul\":9773:9790   */\n  and\n    /* \"#utility.yul\":9762:9771   */\n  dup3\n    /* \"#utility.yul\":9743:9791   */\n  tag_46\n  jump\t// in\ntag_164:\n    /* \"#utility.yul\":9735:9741   */\n  dup4\n    /* \"#utility.yul\":9728:9792   */\n  sstore\n    /* \"#utility.yul\":9650:9806   */\n  pop\n    /* \"#utility.yul\":9627:9806   */\ntag_163:\n    /* \"#utility.yul\":9852:9853   */\n  0x01\n    /* \"#utility.yul\":9848:9849   */\n  0x02\n    /* \"#utility.yul\":9840:9846   */\n  dup9\n    /* \"#utility.yul\":9836:9850   */\n  mul\n    /* \"#utility.yul\":9832:9854   */\n  add\n    /* \"#utility.yul\":9826:9830   */\n  dup9\n    /* \"#utility.yul\":9819:9855   */\n  sstore\n    /* \"#utility.yul\":9254:9865   */\n  pop\n  pop\n  pop\n    /* \"#utility.yul\":9217:10104   */\ntag_155:\n  pop\n    /* \"#utility.yul\":8807:10110   */\n  pop\n  pop\n  pop\n    /* \"#utility.yul\":8715:10110   */\n  pop\n  pop\n  jump\t// out\n    /* \"Campaign.sol\":561:6779  contract Campaign {... */\ntag_9:\n  dataSize(sub_0)\n  dup1\n  dataOffset(sub_0)\n  0x00\n  codecopy\n  0x00\n  return\nstop\n\nsub_0: assembly {\n        /* \"Campaign.sol\":561:6779  contract Campaign {... */\n      mstore(0x40, 0x80)\n      jumpi(tag_1, lt(calldatasize, 0x04))\n      shr(0xe0, calldataload(0x00))\n      dup1\n      0x82fde093\n      gt\n      tag_27\n      jumpi\n      dup1\n      0xa39fac12\n      gt\n      tag_28\n      jumpi\n      dup1\n      0xc8b342ab\n      gt\n      tag_29\n      jumpi\n      dup1\n      0xc8b342ab\n      eq\n      tag_23\n      jumpi\n      dup1\n      0xd57bde79\n      eq\n      tag_24\n      jumpi\n      dup1\n      0xd7bb99ba\n      eq\n      tag_25\n      jumpi\n      dup1\n      0xedf26d9b\n      eq\n      tag_26\n      jumpi\n      jump(tag_1)\n    tag_29:\n      dup1\n      0xa39fac12\n      eq\n      tag_20\n      jumpi\n      dup1\n      0xc45a0155\n      eq\n      tag_21\n      jumpi\n      dup1\n      0xc6f56901\n      eq\n      tag_22\n      jumpi\n      jump(tag_1)\n    tag_28:\n      dup1\n      0x82fde093\n      eq\n      tag_14\n      jumpi\n      dup1\n      0x83920e90\n      eq\n      tag_15\n      jumpi\n      dup1\n      0x91f90157\n      eq\n      tag_16\n      jumpi\n      dup1\n      0x937e09b1\n      eq\n      tag_17\n      jumpi\n      dup1\n      0x976af615\n      eq\n      tag_18\n      jumpi\n      dup1\n      0x9ace38c2\n      eq\n      tag_19\n      jumpi\n      jump(tag_1)\n    tag_27:\n      dup1\n      0x481c6a75\n      gt\n      tag_30\n      jumpi\n      dup1\n      0x481c6a75\n      eq\n      tag_8\n      jumpi\n      dup1\n      0x4e69d560\n      eq\n      tag_9\n      jumpi\n      dup1\n      0x58d65629\n      eq\n      tag_10\n      jumpi\n      dup1\n      0x597e1fb5\n      eq\n      tag_11\n      jumpi\n      dup1\n      0x5dc1d641\n      eq\n      tag_12\n      jumpi\n      dup1\n      0x7b87d856\n      eq\n      tag_13\n      jumpi\n      jump(tag_1)\n    tag_30:\n      dup1\n      0x074d55c4\n      eq\n      tag_2\n      jumpi\n      dup1\n      0x0a144391\n      eq\n      tag_3\n      jumpi\n      dup1\n      0x110f8874\n      eq\n      tag_4\n      jumpi\n      dup1\n      0x3197cbb6\n      eq\n      tag_5\n      jumpi\n      dup1\n      0x3bc5de30\n      eq\n      tag_6\n      jumpi\n      dup1\n      0x4051ddac\n      eq\n      tag_7\n      jumpi\n    tag_1:\n      revert(0x00, 0x00)\n        /* \"Campaign.sol\":1375:1405  uint256 public nextRefundIndex */\n    tag_2:\n      callvalue\n      dup1\n      iszero\n      tag_31\n      jumpi\n      revert(0x00, 0x00)\n    tag_31:\n      pop\n      tag_32\n      tag_33\n      jump\t// in\n    tag_32:\n      mload(0x40)\n      tag_34\n      swap2\n      swap1\n      tag_35\n      jump\t// in\n    tag_34:\n      mload(0x40)\n      dup1\n      swap2\n      sub\n      swap1\n      return\n        /* \"Campaign.sol\":1049:1090  mapping(address => bool) public approvers */\n    tag_3:\n      callvalue\n      dup1\n      iszero\n      tag_36\n      jumpi\n      revert(0x00, 0x00)\n    tag_36:\n      pop\n      tag_37\n      0x04\n      dup1\n      calldatasize\n      sub\n      dup2\n      add\n      swap1\n      tag_38\n      swap2\n      swap1\n      tag_39\n      jump\t// in\n    tag_38:\n      tag_40\n      jump\t// in\n    tag_37:\n      mload(0x40)\n      tag_41\n      swap2\n      swap1\n      tag_42\n      jump\t// in\n    tag_41:\n      mload(0x40)\n      dup1\n      swap2\n      sub\n      swap1\n      return\n        /* \"Campaign.sol\":4201:4693  function withdrawRefund() public {... */\n    tag_4:\n      callvalue\n      dup1\n      iszero\n      tag_43\n      jumpi\n      revert(0x00, 0x00)\n    tag_43:\n      pop\n      tag_44\n      tag_45\n      jump\t// in\n    tag_44:\n      stop\n        /* \"Campaign.sol\":1323:1345  uint256 public endTime */\n    tag_5:\n      callvalue\n      dup1\n      iszero\n      tag_46\n      jumpi\n      revert(0x00, 0x00)\n    tag_46:\n      pop\n      tag_47\n      tag_48\n      jump\t// in\n    tag_47:\n      mload(0x40)\n      tag_49\n      swap2\n      swap1\n      tag_35\n      jump\t// in\n    tag_49:\n      mload(0x40)\n      dup1\n      swap2\n      sub\n      swap1\n      return\n        /* \"Campaign.sol\":5888:6113  function getData() public view returns (string memory) {... */\n    tag_6:\n      callvalue\n      dup1\n      iszero\n      tag_50\n      jumpi\n      revert(0x00, 0x00)\n    tag_50:\n      pop\n      tag_51\n      tag_52\n      jump\t// in\n    tag_51:\n      mload(0x40)\n      tag_53\n      swap2\n      swap1\n      tag_54\n      jump\t// in\n    tag_53:\n      mload(0x40)\n      dup1\n      swap2\n      sub\n      swap1\n      return\n        /* \"Campaign.sol\":6227:6776  function getSummary()... */\n    tag_7:\n      callvalue\n      dup1\n      iszero\n      tag_55\n      jumpi\n      revert(0x00, 0x00)\n    tag_55:\n      pop\n      tag_56\n      tag_57\n      jump\t// in\n    tag_56:\n      mload(0x40)\n      tag_58\n      swap11\n      swap10\n      swap9\n      swap8\n      swap7\n      swap6\n      swap5\n      swap4\n      swap3\n      swap2\n      swap1\n      tag_59\n      jump\t// in\n    tag_58:\n      mload(0x40)\n      dup1\n      swap2\n      sub\n      swap1\n      return\n        /* \"Campaign.sol\":909:931  address public manager */\n    tag_8:\n      callvalue\n      dup1\n      iszero\n      tag_60\n      jumpi\n      revert(0x00, 0x00)\n    tag_60:\n      pop\n      tag_61\n      tag_62\n      jump\t// in\n    tag_61:\n      mload(0x40)\n      tag_63\n      swap2\n      swap1\n      tag_64\n      jump\t// in\n    tag_63:\n      mload(0x40)\n      dup1\n      swap2\n      sub\n      swap1\n      return\n        /* \"Campaign.sol\":5574:5654  function getStatus() public view returns (bool) {... */\n    tag_9:\n      callvalue\n      dup1\n      iszero\n      tag_65\n      jumpi\n      revert(0x00, 0x00)\n    tag_65:\n      pop\n      tag_66\n      tag_67\n      jump\t// in\n    tag_66:\n      mload(0x40)\n      tag_68\n      swap2\n      swap1\n      tag_42\n      jump\t// in\n    tag_68:\n      mload(0x40)\n      dup1\n      swap2\n      sub\n      swap1\n      return\n        /* \"Campaign.sol\":1011:1040  string public dataDescription */\n    tag_10:\n      callvalue\n      dup1\n      iszero\n      tag_69\n      jumpi\n      revert(0x00, 0x00)\n    tag_69:\n      pop\n      tag_70\n      tag_71\n      jump\t// in\n    tag_70:\n      mload(0x40)\n      tag_72\n      swap2\n      swap1\n      tag_54\n      jump\t// in\n    tag_72:\n      mload(0x40)\n      dup1\n      swap2\n      sub\n      swap1\n      return\n        /* \"Campaign.sol\":1351:1369  bool public closed */\n    tag_11:\n      callvalue\n      dup1\n      iszero\n      tag_73\n      jumpi\n      revert(0x00, 0x00)\n    tag_73:\n      pop\n      tag_74\n      tag_75\n      jump\t// in\n    tag_74:\n      mload(0x40)\n      tag_76\n      swap2\n      swap1\n      tag_42\n      jump\t// in\n    tag_76:\n      mload(0x40)\n      dup1\n      swap2\n      sub\n      swap1\n      return\n        /* \"Campaign.sol\":1097:1146  mapping(address => uint256) public approversMoney */\n    tag_12:\n      callvalue\n      dup1\n      iszero\n      tag_77\n      jumpi\n      revert(0x00, 0x00)\n    tag_77:\n      pop\n      tag_78\n      0x04\n      dup1\n      calldatasize\n      sub\n      dup2\n      add\n      swap1\n      tag_79\n      swap2\n      swap1\n      tag_39\n      jump\t// in\n    tag_79:\n      tag_80\n      jump\t// in\n    tag_78:\n      mload(0x40)\n      tag_81\n      swap2\n      swap1\n      tag_35\n      jump\t// in\n    tag_81:\n      mload(0x40)\n      dup1\n      swap2\n      sub\n      swap1\n      return\n        /* \"Campaign.sol\":979:1004  string public dataForSell */\n    tag_13:\n      callvalue\n      dup1\n      iszero\n      tag_82\n      jumpi\n      revert(0x00, 0x00)\n    tag_82:\n      pop\n      tag_83\n      tag_84\n      jump\t// in\n    tag_83:\n      mload(0x40)\n      tag_85\n      swap2\n      swap1\n      tag_54\n      jump\t// in\n    tag_85:\n      mload(0x40)\n      dup1\n      swap2\n      sub\n      swap1\n      return\n        /* \"Campaign.sol\":1153:1182  uint256 public approversCount */\n    tag_14:\n      callvalue\n      dup1\n      iszero\n      tag_86\n      jumpi\n      revert(0x00, 0x00)\n    tag_86:\n      pop\n      tag_87\n      tag_88\n      jump\t// in\n    tag_87:\n      mload(0x40)\n      tag_89\n      swap2\n      swap1\n      tag_35\n      jump\t// in\n    tag_89:\n      mload(0x40)\n      dup1\n      swap2\n      sub\n      swap1\n      return\n        /* \"Campaign.sol\":5780:5880  function getTransactions() public view returns (Bid[] memory) {... */\n    tag_15:\n      callvalue\n      dup1\n      iszero\n      tag_90\n      jumpi\n      revert(0x00, 0x00)\n    tag_90:\n      pop\n      tag_91\n      tag_92\n      jump\t// in\n    tag_91:\n      mload(0x40)\n      tag_93\n      swap2\n      swap1\n      tag_94\n      jump\t// in\n    tag_93:\n      mload(0x40)\n      dup1\n      swap2\n      sub\n      swap1\n      return\n        /* \"Campaign.sol\":1258:1286  address public highestBidder */\n    tag_16:\n      callvalue\n      dup1\n      iszero\n      tag_95\n      jumpi\n      revert(0x00, 0x00)\n    tag_95:\n      pop\n      tag_96\n      tag_97\n      jump\t// in\n    tag_96:\n      mload(0x40)\n      tag_98\n      swap2\n      swap1\n      tag_64\n      jump\t// in\n    tag_98:\n      mload(0x40)\n      dup1\n      swap2\n      sub\n      swap1\n      return\n        /* \"Campaign.sol\":938:972  uint256 public minimumContribution */\n    tag_17:\n      callvalue\n      dup1\n      iszero\n      tag_99\n      jumpi\n      revert(0x00, 0x00)\n    tag_99:\n      pop\n      tag_100\n      tag_101\n      jump\t// in\n    tag_100:\n      mload(0x40)\n      tag_102\n      swap2\n      swap1\n      tag_35\n      jump\t// in\n    tag_102:\n      mload(0x40)\n      dup1\n      swap2\n      sub\n      swap1\n      return\n        /* \"Campaign.sol\":3645:4195  function finalizeAuctionIfNeeded() public onlyAfterEnd {... */\n    tag_18:\n      callvalue\n      dup1\n      iszero\n      tag_103\n      jumpi\n      revert(0x00, 0x00)\n    tag_103:\n      pop\n      tag_104\n      tag_105\n      jump\t// in\n    tag_104:\n      stop\n        /* \"Campaign.sol\":1224:1249  Bid[] public transactions */\n    tag_19:\n      callvalue\n      dup1\n      iszero\n      tag_106\n      jumpi\n      revert(0x00, 0x00)\n    tag_106:\n      pop\n      tag_107\n      0x04\n      dup1\n      calldatasize\n      sub\n      dup2\n      add\n      swap1\n      tag_108\n      swap2\n      swap1\n      tag_109\n      jump\t// in\n    tag_108:\n      tag_110\n      jump\t// in\n    tag_107:\n      mload(0x40)\n      tag_111\n      swap4\n      swap3\n      swap2\n      swap1\n      tag_112\n      jump\t// in\n    tag_111:\n      mload(0x40)\n      dup1\n      swap2\n      sub\n      swap1\n      return\n        /* \"Campaign.sol\":6121:6219  function getAddresses() public view returns (address[] memory) {... */\n    tag_20:\n      callvalue\n      dup1\n      iszero\n      tag_113\n      jumpi\n      revert(0x00, 0x00)\n    tag_113:\n      pop\n      tag_114\n      tag_115\n      jump\t// in\n    tag_114:\n      mload(0x40)\n      tag_116\n      swap2\n      swap1\n      tag_117\n      jump\t// in\n    tag_116:\n      mload(0x40)\n      dup1\n      swap2\n      sub\n      swap1\n      return\n        /* \"Campaign.sol\":586:616  CampaignFactory public factory */\n    tag_21:\n      callvalue\n      dup1\n      iszero\n      tag_118\n      jumpi\n      revert(0x00, 0x00)\n    tag_118:\n      pop\n      tag_119\n      tag_120\n      jump\t// in\n    tag_119:\n      mload(0x40)\n      tag_121\n      swap2\n      swap1\n      tag_122\n      jump\t// in\n    tag_121:\n      mload(0x40)\n      dup1\n      swap2\n      sub\n      swap1\n      return\n        /* \"Campaign.sol\":4699:5567  function processRefunds(uint256 maxRefunds) public {... */\n    tag_22:\n      callvalue\n      dup1\n      iszero\n      tag_123\n      jumpi\n      revert(0x00, 0x00)\n    tag_123:\n      pop\n      tag_124\n      0x04\n      dup1\n      calldatasize\n      sub\n      dup2\n      add\n      swap1\n      tag_125\n      swap2\n      swap1\n      tag_109\n      jump\t// in\n    tag_125:\n      tag_126\n      jump\t// in\n    tag_124:\n      stop\n        /* \"Campaign.sol\":5662:5772  function getBid(address bidder) public view returns (uint256) {... */\n    tag_23:\n      callvalue\n      dup1\n      iszero\n      tag_127\n      jumpi\n      revert(0x00, 0x00)\n    tag_127:\n      pop\n      tag_128\n      0x04\n      dup1\n      calldatasize\n      sub\n      dup2\n      add\n      swap1\n      tag_129\n      swap2\n      swap1\n      tag_39\n      jump\t// in\n    tag_129:\n      tag_130\n      jump\t// in\n    tag_128:\n      mload(0x40)\n      tag_131\n      swap2\n      swap1\n      tag_35\n      jump\t// in\n    tag_131:\n      mload(0x40)\n      dup1\n      swap2\n      sub\n      swap1\n      return\n        /* \"Campaign.sol\":1292:1317  uint256 public highestBid */\n    tag_24:\n      callvalue\n      dup1\n      iszero\n      tag_132\n      jumpi\n      revert(0x00, 0x00)\n    tag_132:\n      pop\n      tag_133\n      tag_134\n      jump\t// in\n    tag_133:\n      mload(0x40)\n      tag_135\n      swap2\n      swap1\n      tag_35\n      jump\t// in\n    tag_135:\n      mload(0x40)\n      dup1\n      swap2\n      sub\n      swap1\n      return\n        /* \"Campaign.sol\":2104:3637  function contribute() public payable onlyBeforeEnd {... */\n    tag_25:\n      tag_136\n      tag_137\n      jump\t// in\n    tag_136:\n      stop\n        /* \"Campaign.sol\":1191:1217  address[] public addresses */\n    tag_26:\n      callvalue\n      dup1\n      iszero\n      tag_138\n      jumpi\n      revert(0x00, 0x00)\n    tag_138:\n      pop\n      tag_139\n      0x04\n      dup1\n      calldatasize\n      sub\n      dup2\n      add\n      swap1\n      tag_140\n      swap2\n      swap1\n      tag_109\n      jump\t// in\n    tag_140:\n      tag_141\n      jump\t// in\n    tag_139:\n      mload(0x40)\n      tag_142\n      swap2\n      swap1\n      tag_64\n      jump\t// in\n    tag_142:\n      mload(0x40)\n      dup1\n      swap2\n      sub\n      swap1\n      return\n        /* \"Campaign.sol\":1375:1405  uint256 public nextRefundIndex */\n    tag_33:\n      sload(0x0e)\n      dup2\n      jump\t// out\n        /* \"Campaign.sol\":1049:1090  mapping(address => bool) public approvers */\n    tag_40:\n      mstore(0x20, 0x05)\n      dup1\n      0x00\n      mstore\n      keccak256(0x00, 0x40)\n      0x00\n      swap2\n      pop\n      sload\n      swap1\n      0x0100\n      exp\n      swap1\n      div\n      0xff\n      and\n      dup2\n      jump\t// out\n        /* \"Campaign.sol\":4201:4693  function withdrawRefund() public {... */\n    tag_45:\n        /* \"Campaign.sol\":4252:4258  closed */\n      0x0d\n      0x00\n      swap1\n      sload\n      swap1\n      0x0100\n      exp\n      swap1\n      div\n      0xff\n      and\n        /* \"Campaign.sol\":4244:4284  require(closed, \"Auction not finalized\") */\n      tag_144\n      jumpi\n      mload(0x40)\n      0x08c379a000000000000000000000000000000000000000000000000000000000\n      dup2\n      mstore\n      0x04\n      add\n      tag_145\n      swap1\n      tag_146\n      jump\t// in\n    tag_145:\n      mload(0x40)\n      dup1\n      swap2\n      sub\n      swap1\n      revert\n    tag_144:\n        /* \"Campaign.sol\":4316:4329  highestBidder */\n      0x0a\n      0x00\n      swap1\n      sload\n      swap1\n      0x0100\n      exp\n      swap1\n      div\n      0xffffffffffffffffffffffffffffffffffffffff\n      and\n        /* \"Campaign.sol\":4302:4329  msg.sender != highestBidder */\n      0xffffffffffffffffffffffffffffffffffffffff\n      and\n        /* \"Campaign.sol\":4302:4312  msg.sender */\n      caller\n        /* \"Campaign.sol\":4302:4329  msg.sender != highestBidder */\n      0xffffffffffffffffffffffffffffffffffffffff\n      and\n      sub\n        /* \"Campaign.sol\":4294:4354  require(msg.sender != highestBidder, \"Winner has no refund\") */\n      tag_147\n      jumpi\n      mload(0x40)\n      0x08c379a000000000000000000000000000000000000000000000000000000000\n      dup2\n      mstore\n      0x04\n      add\n      tag_148\n      swap1\n      tag_149\n      jump\t// in\n    tag_148:\n      mload(0x40)\n      dup1\n      swap2\n      sub\n      swap1\n      revert\n    tag_147:\n        /* \"Campaign.sol\":4365:4385  uint256 refundAmount */\n      0x00\n        /* \"Campaign.sol\":4388:4402  approversMoney */\n      0x06\n        /* \"Campaign.sol\":4388:4414  approversMoney[msg.sender] */\n      0x00\n        /* \"Campaign.sol\":4403:4413  msg.sender */\n      caller\n        /* \"Campaign.sol\":4388:4414  approversMoney[msg.sender] */\n      0xffffffffffffffffffffffffffffffffffffffff\n      and\n      0xffffffffffffffffffffffffffffffffffffffff\n      and\n      dup2\n      mstore\n      0x20\n      add\n      swap1\n      dup2\n      mstore\n      0x20\n      add\n      0x00\n      keccak256\n      sload\n        /* \"Campaign.sol\":4365:4414  uint256 refundAmount = approversMoney[msg.sender] */\n      swap1\n      pop\n        /* \"Campaign.sol\":4447:4448  0 */\n      0x00\n        /* \"Campaign.sol\":4432:4444  refundAmount */\n      dup2\n        /* \"Campaign.sol\":4432:4448  refundAmount > 0 */\n      gt\n        /* \"Campaign.sol\":4424:4472  require(refundAmount > 0, \"No refund available\") */\n      tag_150\n      jumpi\n      mload(0x40)\n      0x08c379a000000000000000000000000000000000000000000000000000000000\n      dup2\n      mstore\n      0x04\n      add\n      tag_151\n      swap1\n      tag_152\n      jump\t// in\n    tag_151:\n      mload(0x40)\n      dup1\n      swap2\n      sub\n      swap1\n      revert\n    tag_150:\n        /* \"Campaign.sol\":4512:4513  0 */\n      0x00\n        /* \"Campaign.sol\":4483:4497  approversMoney */\n      0x06\n        /* \"Campaign.sol\":4483:4509  approversMoney[msg.sender] */\n      0x00\n        /* \"Campaign.sol\":4498:4508  msg.sender */\n      caller\n        /* \"Campaign.sol\":4483:4509  approversMoney[msg.sender] */\n      0xffffffffffffffffffffffffffffffffffffffff\n      and\n      0xffffffffffffffffffffffffffffffffffffffff\n      and\n      dup2\n      mstore\n      0x20\n      add\n      swap1\n      dup2\n      mstore\n      0x20\n      add\n      0x00\n      keccak256\n        /* \"Campaign.sol\":4483:4513  approversMoney[msg.sender] = 0 */\n      dup2\n      swap1\n      sstore\n      pop\n        /* \"Campaign.sol\":4525:4534  bool sent */\n      0x00\n        /* \"Campaign.sol\":4548:4558  msg.sender */\n      caller\n        /* \"Campaign.sol\":4540:4564  payable(msg.sender).call */\n      0xffffffffffffffffffffffffffffffffffffffff\n      and\n        /* \"Campaign.sol\":4572:4584  refundAmount */\n      dup3\n        /* \"Campaign.sol\":4540:4589  payable(msg.sender).call{value: refundAmount}(\"\") */\n      mload(0x40)\n      tag_153\n      swap1\n      tag_154\n      jump\t// in\n    tag_153:\n      0x00\n      mload(0x40)\n      dup1\n      dup4\n      sub\n      dup2\n      dup6\n      dup8\n      gas\n      call\n      swap3\n      pop\n      pop\n      pop\n      returndatasize\n      dup1\n      0x00\n      dup2\n      eq\n      tag_157\n      jumpi\n      mload(0x40)\n      swap2\n      pop\n      and(add(returndatasize, 0x3f), not(0x1f))\n      dup3\n      add\n      0x40\n      mstore\n      returndatasize\n      dup3\n      mstore\n      returndatasize\n      0x00\n      0x20\n      dup5\n      add\n      returndatacopy\n      jump(tag_156)\n    tag_157:\n      0x60\n      swap2\n      pop\n    tag_156:\n      pop\n        /* \"Campaign.sol\":4524:4589  (bool sent, ) = payable(msg.sender).call{value: refundAmount}(\"\") */\n      pop\n      swap1\n      pop\n        /* \"Campaign.sol\":4607:4611  sent */\n      dup1\n        /* \"Campaign.sol\":4599:4629  require(sent, \"Refund failed\") */\n      tag_158\n      jumpi\n      mload(0x40)\n      0x08c379a000000000000000000000000000000000000000000000000000000000\n      dup2\n      mstore\n      0x04\n      add\n      tag_159\n      swap1\n      tag_160\n      jump\t// in\n    tag_159:\n      mload(0x40)\n      dup1\n      swap2\n      sub\n      swap1\n      revert\n    tag_158:\n        /* \"Campaign.sol\":4661:4671  msg.sender */\n      caller\n        /* \"Campaign.sol\":4645:4686  RefundProcessed(msg.sender, refundAmount) */\n      0xffffffffffffffffffffffffffffffffffffffff\n      and\n      0x3367befd2b2f39615cd79917c2153263c4af1d3945ec003e5d5bfc13a8d85833\n        /* \"Campaign.sol\":4673:4685  refundAmount */\n      dup4\n        /* \"Campaign.sol\":4645:4686  RefundProcessed(msg.sender, refundAmount) */\n      mload(0x40)\n      tag_161\n      swap2\n      swap1\n      tag_35\n      jump\t// in\n    tag_161:\n      mload(0x40)\n      dup1\n      swap2\n      sub\n      swap1\n      log2\n        /* \"Campaign.sol\":4234:4693  {... */\n      pop\n      pop\n        /* \"Campaign.sol\":4201:4693  function withdrawRefund() public {... */\n      jump\t// out\n        /* \"Campaign.sol\":1323:1345  uint256 public endTime */\n    tag_48:\n      sload(0x0c)\n      dup2\n      jump\t// out\n        /* \"Campaign.sol\":5888:6113  function getData() public view returns (string memory) {... */\n    tag_52:\n        /* \"Campaign.sol\":5928:5941  string memory */\n      0x60\n        /* \"Campaign.sol\":5962:5968  closed */\n      0x0d\n      0x00\n      swap1\n      sload\n      swap1\n      0x0100\n      exp\n      swap1\n      div\n      0xff\n      and\n        /* \"Campaign.sol\":5954:5994  require(closed, \"Auction not finalized\") */\n      tag_163\n      jumpi\n      mload(0x40)\n      0x08c379a000000000000000000000000000000000000000000000000000000000\n      dup2\n      mstore\n      0x04\n      add\n      tag_164\n      swap1\n      tag_146\n      jump\t// in\n    tag_164:\n      mload(0x40)\n      dup1\n      swap2\n      sub\n      swap1\n      revert\n    tag_163:\n        /* \"Campaign.sol\":6027:6040  highestBidder */\n      0x0a\n      0x00\n      swap1\n      sload\n      swap1\n      0x0100\n      exp\n      swap1\n      div\n      0xffffffffffffffffffffffffffffffffffffffff\n      and\n        /* \"Campaign.sol\":6013:6040  msg.sender == highestBidder */\n      0xffffffffffffffffffffffffffffffffffffffff\n      and\n        /* \"Campaign.sol\":6013:6023  msg.sender */\n      caller\n        /* \"Campaign.sol\":6013:6040  msg.sender == highestBidder */\n      0xffffffffffffffffffffffffffffffffffffffff\n      and\n      eq\n        /* \"Campaign.sol\":6005:6076  require(msg.sender == highestBidder, \"Only winner can access the data\") */\n      tag_165\n      jumpi\n      mload(0x40)\n      0x08c379a000000000000000000000000000000000000000000000000000000000\n      dup2\n      mstore\n      0x04\n      add\n      tag_166\n      swap1\n      tag_167\n      jump\t// in\n    tag_166:\n      mload(0x40)\n      dup1\n      swap2\n      sub\n      swap1\n      revert\n    tag_165:\n        /* \"Campaign.sol\":6094:6105  dataForSell */\n      0x03\n        /* \"Campaign.sol\":6087:6105  return dataForSell */\n      dup1\n      sload\n      tag_168\n      swap1\n      tag_169\n      jump\t// in\n    tag_168:\n      dup1\n      0x1f\n      add\n      0x20\n      dup1\n      swap2\n      div\n      mul\n      0x20\n      add\n      mload(0x40)\n      swap1\n      dup2\n      add\n      0x40\n      mstore\n      dup1\n      swap3\n      swap2\n      swap1\n      dup2\n      dup2\n      mstore\n      0x20\n      add\n      dup3\n      dup1\n      sload\n      tag_170\n      swap1\n      tag_169\n      jump\t// in\n    tag_170:\n      dup1\n      iszero\n      tag_171\n      jumpi\n      dup1\n      0x1f\n      lt\n      tag_172\n      jumpi\n      0x0100\n      dup1\n      dup4\n      sload\n      div\n      mul\n      dup4\n      mstore\n      swap2\n      0x20\n      add\n      swap2\n      jump(tag_171)\n    tag_172:\n      dup3\n      add\n      swap2\n      swap1\n      0x00\n      mstore\n      keccak256(0x00, 0x20)\n      swap1\n    tag_173:\n      dup2\n      sload\n      dup2\n      mstore\n      swap1\n      0x01\n      add\n      swap1\n      0x20\n      add\n      dup1\n      dup4\n      gt\n      tag_173\n      jumpi\n      dup3\n      swap1\n      sub\n      0x1f\n      and\n      dup3\n      add\n      swap2\n    tag_171:\n      pop\n      pop\n      pop\n      pop\n      pop\n      swap1\n      pop\n        /* \"Campaign.sol\":5888:6113  function getData() public view returns (string memory) {... */\n      swap1\n      jump\t// out\n        /* \"Campaign.sol\":6227:6776  function getSummary()... */\n    tag_57:\n        /* \"Campaign.sol\":6311:6318  uint256 */\n      0x00\n        /* \"Campaign.sol\":6320:6327  uint256 */\n      0x00\n        /* \"Campaign.sol\":6329:6336  uint256 */\n      0x00\n        /* \"Campaign.sol\":6338:6345  address */\n      0x00\n        /* \"Campaign.sol\":6360:6367  uint256 */\n      0x00\n        /* \"Campaign.sol\":6369:6382  string memory */\n      0x60\n        /* \"Campaign.sol\":6384:6397  string memory */\n      dup1\n        /* \"Campaign.sol\":6412:6419  address */\n      0x00\n        /* \"Campaign.sol\":6421:6437  address[] memory */\n      0x60\n        /* \"Campaign.sol\":6439:6446  uint256 */\n      0x00\n        /* \"Campaign.sol\":6496:6515  minimumContribution */\n      sload(0x02)\n        /* \"Campaign.sol\":6530:6551  address(this).balance */\n      selfbalance\n        /* \"Campaign.sol\":6566:6580  approversCount */\n      sload(0x07)\n        /* \"Campaign.sol\":6595:6602  manager */\n      0x01\n      0x00\n      swap1\n      sload\n      swap1\n      0x0100\n      exp\n      swap1\n      div\n      0xffffffffffffffffffffffffffffffffffffffff\n      and\n        /* \"Campaign.sol\":6617:6627  highestBid */\n      sload(0x0b)\n        /* \"Campaign.sol\":6642:6653  dataForSell */\n      0x03\n        /* \"Campaign.sol\":6668:6683  dataDescription */\n      0x04\n        /* \"Campaign.sol\":6698:6711  highestBidder */\n      0x0a\n      0x00\n      swap1\n      sload\n      swap1\n      0x0100\n      exp\n      swap1\n      div\n      0xffffffffffffffffffffffffffffffffffffffff\n      and\n        /* \"Campaign.sol\":6726:6735  addresses */\n      0x08\n        /* \"Campaign.sol\":6750:6757  endTime */\n      sload(0x0c)\n        /* \"Campaign.sol\":6474:6768  return (... */\n      dup5\n      dup1\n      sload\n      tag_175\n      swap1\n      tag_169\n      jump\t// in\n    tag_175:\n      dup1\n      0x1f\n      add\n      0x20\n      dup1\n      swap2\n      div\n      mul\n      0x20\n      add\n      mload(0x40)\n      swap1\n      dup2\n      add\n      0x40\n      mstore\n      dup1\n      swap3\n      swap2\n      swap1\n      dup2\n      dup2\n      mstore\n      0x20\n      add\n      dup3\n      dup1\n      sload\n      tag_176\n      swap1\n      tag_169\n      jump\t// in\n    tag_176:\n      dup1\n      iszero\n      tag_177\n      jumpi\n      dup1\n      0x1f\n      lt\n      tag_178\n      jumpi\n      0x0100\n      dup1\n      dup4\n      sload\n      div\n      mul\n      dup4\n      mstore\n      swap2\n      0x20\n      add\n      swap2\n      jump(tag_177)\n    tag_178:\n      dup3\n      add\n      swap2\n      swap1\n      0x00\n      mstore\n      keccak256(0x00, 0x20)\n      swap1\n    tag_179:\n      dup2\n      sload\n      dup2\n      mstore\n      swap1\n      0x01\n      add\n      swap1\n      0x20\n      add\n      dup1\n      dup4\n      gt\n      tag_179\n      jumpi\n      dup3\n      swap1\n      sub\n      0x1f\n      and\n      dup3\n      add\n      swap2\n    tag_177:\n      pop\n      pop\n      pop\n      pop\n      pop\n      swap5\n      pop\n      dup4\n      dup1\n      sload\n      tag_180\n      swap1\n      tag_169\n      jump\t// in\n    tag_180:\n      dup1\n      0x1f\n      add\n      0x20\n      dup1\n      swap2\n      div\n      mul\n      0x20\n      add\n      mload(0x40)\n      swap1\n      dup2\n      add\n      0x40\n      mstore\n      dup1\n      swap3\n      swap2\n      swap1\n      dup2\n      dup2\n      mstore\n      0x20\n      add\n      dup3\n      dup1\n      sload\n      tag_181\n      swap1\n      tag_169\n      jump\t// in\n    tag_181:\n      dup1\n      iszero\n      tag_182\n      jumpi\n      dup1\n      0x1f\n      lt\n      tag_183\n      jumpi\n      0x0100\n      dup1\n      dup4\n      sload\n      div\n      mul\n      dup4\n      mstore\n      swap2\n      0x20\n      add\n      swap2\n      jump(tag_182)\n    tag_183:\n      dup3\n      add\n      swap2\n      swap1\n      0x00\n      mstore\n      keccak256(0x00, 0x20)\n      swap1\n    tag_184:\n      dup2\n      sload\n      dup2\n      mstore\n      swap1\n      0x01\n      add\n      swap1\n      0x20\n      add\n      dup1\n      dup4\n      gt\n      tag_184\n      jumpi\n      dup3\n      swap1\n      sub\n      0x1f\n      and\n      dup3\n      add\n      swap2\n    tag_182:\n      pop\n      pop\n      pop\n      pop\n      pop\n      swap4\n      pop\n      dup2\n      dup1\n      sload\n      dup1\n      0x20\n      mul\n      0x20\n      add\n      mload(0x40)\n      swap1\n      dup2\n      add\n      0x40\n      mstore\n      dup1\n      swap3\n      swap2\n      swap1\n      dup2\n      dup2\n      mstore\n      0x20\n      add\n      dup3\n      dup1\n      sload\n      dup1\n      iszero\n      tag_185\n      jumpi\n      0x20\n      mul\n      dup3\n      add\n      swap2\n      swap1\n      0x00\n      mstore\n      keccak256(0x00, 0x20)\n      swap1\n    tag_186:\n      dup2\n      0x00\n      swap1\n      sload\n      swap1\n      0x0100\n      exp\n      swap1\n      div\n      0xffffffffffffffffffffffffffffffffffffffff\n      and\n      0xffffffffffffffffffffffffffffffffffffffff\n      and\n      dup2\n      mstore\n      0x20\n      add\n      swap1\n      0x01\n      add\n      swap1\n      dup1\n      dup4\n      gt\n      tag_186\n      jumpi\n    tag_185:\n      pop\n      pop\n      pop\n      pop\n      pop\n      swap2\n      pop\n      swap10\n      pop\n      swap10\n      pop\n      swap10\n      pop\n      swap10\n      pop\n      swap10\n      pop\n      swap10\n      pop\n      swap10\n      pop\n      swap10\n      pop\n      swap10\n      pop\n      swap10\n      pop\n        /* \"Campaign.sol\":6227:6776  function getSummary()... */\n      swap1\n      swap2\n      swap3\n      swap4\n      swap5\n      swap6\n      swap7\n      swap8\n      swap9\n      swap10\n      jump\t// out\n        /* \"Campaign.sol\":909:931  address public manager */\n    tag_62:\n      0x01\n      0x00\n      swap1\n      sload\n      swap1\n      0x0100\n      exp\n      swap1\n      div\n      0xffffffffffffffffffffffffffffffffffffffff\n      and\n      dup2\n      jump\t// out\n        /* \"Campaign.sol\":5574:5654  function getStatus() public view returns (bool) {... */\n    tag_67:\n        /* \"Campaign.sol\":5616:5620  bool */\n      0x00\n        /* \"Campaign.sol\":5640:5646  closed */\n      0x0d\n      0x00\n      swap1\n      sload\n      swap1\n      0x0100\n      exp\n      swap1\n      div\n      0xff\n      and\n        /* \"Campaign.sol\":5633:5646  return closed */\n      swap1\n      pop\n        /* \"Campaign.sol\":5574:5654  function getStatus() public view returns (bool) {... */\n      swap1\n      jump\t// out\n        /* \"Campaign.sol\":1011:1040  string public dataDescription */\n    tag_71:\n      0x04\n      dup1\n      sload\n      tag_188\n      swap1\n      tag_169\n      jump\t// in\n    tag_188:\n      dup1\n      0x1f\n      add\n      0x20\n      dup1\n      swap2\n      div\n      mul\n      0x20\n      add\n      mload(0x40)\n      swap1\n      dup2\n      add\n      0x40\n      mstore\n      dup1\n      swap3\n      swap2\n      swap1\n      dup2\n      dup2\n      mstore\n      0x20\n      add\n      dup3\n      dup1\n      sload\n      tag_189\n      swap1\n      tag_169\n      jump\t// in\n    tag_189:\n      dup1\n      iszero\n      tag_190\n      jumpi\n      dup1\n      0x1f\n      lt\n      tag_191\n      jumpi\n      0x0100\n      dup1\n      dup4\n      sload\n      div\n      mul\n      dup4\n      mstore\n      swap2\n      0x20\n      add\n      swap2\n      jump(tag_190)\n    tag_191:\n      dup3\n      add\n      swap2\n      swap1\n      0x00\n      mstore\n      keccak256(0x00, 0x20)\n      swap1\n    tag_192:\n      dup2\n      sload\n      dup2\n      mstore\n      swap1\n      0x01\n      add\n      swap1\n      0x20\n      add\n      dup1\n      dup4\n      gt\n      tag_192\n      jumpi\n      dup3\n      swap1\n      sub\n      0x1f\n      and\n      dup3\n      add\n      swap2\n    tag_190:\n      pop\n      pop\n      pop\n      pop\n      pop\n      dup2\n      jump\t// out\n        /* \"Campaign.sol\":1351:1369  bool public closed */\n    tag_75:\n      0x0d\n      0x00\n      swap1\n      sload\n      swap1\n      0x0100\n      exp\n      swap1\n      div\n      0xff\n      and\n      dup2\n      jump\t// out\n        /* \"Campaign.sol\":1097:1146  mapping(address => uint256) public approversMoney */\n    tag_80:\n      mstore(0x20, 0x06)\n      dup1\n      0x00\n      mstore\n      keccak256(0x00, 0x40)\n      0x00\n      swap2\n      pop\n      swap1\n      pop\n      sload\n      dup2\n      jump\t// out\n        /* \"Campaign.sol\":979:1004  string public dataForSell */\n    tag_84:\n      0x03\n      dup1\n      sload\n      tag_193\n      swap1\n      tag_169\n      jump\t// in\n    tag_193:\n      dup1\n      0x1f\n      add\n      0x20\n      dup1\n      swap2\n      div\n      mul\n      0x20\n      add\n      mload(0x40)\n      swap1\n      dup2\n      add\n      0x40\n      mstore\n      dup1\n      swap3\n      swap2\n      swap1\n      dup2\n      dup2\n      mstore\n      0x20\n      add\n      dup3\n      dup1\n      sload\n      tag_194\n      swap1\n      tag_169\n      jump\t// in\n    tag_194:\n      dup1\n      iszero\n      tag_195\n      jumpi\n      dup1\n      0x1f\n      lt\n      tag_196\n      jumpi\n      0x0100\n      dup1\n      dup4\n      sload\n      div\n      mul\n      dup4\n      mstore\n      swap2\n      0x20\n      add\n      swap2\n      jump(tag_195)\n    tag_196:\n      dup3\n      add\n      swap2\n      swap1\n      0x00\n      mstore\n      keccak256(0x00, 0x20)\n      swap1\n    tag_197:\n      dup2\n      sload\n      dup2\n      mstore\n      swap1\n      0x01\n      add\n      swap1\n      0x20\n      add\n      dup1\n      dup4\n      gt\n      tag_197\n      jumpi\n      dup3\n      swap1\n      sub\n      0x1f\n      and\n      dup3\n      add\n      swap2\n    tag_195:\n      pop\n      pop\n      pop\n      pop\n      pop\n      dup2\n      jump\t// out\n        /* \"Campaign.sol\":1153:1182  uint256 public approversCount */\n    tag_88:\n      sload(0x07)\n      dup2\n      jump\t// out\n        /* \"Campaign.sol\":5780:5880  function getTransactions() public view returns (Bid[] memory) {... */\n    tag_92:\n        /* \"Campaign.sol\":5828:5840  Bid[] memory */\n      0x60\n        /* \"Campaign.sol\":5860:5872  transactions */\n      0x09\n        /* \"Campaign.sol\":5853:5872  return transactions */\n      dup1\n      sload\n      dup1\n      0x20\n      mul\n      0x20\n      add\n      mload(0x40)\n      swap1\n      dup2\n      add\n      0x40\n      mstore\n      dup1\n      swap3\n      swap2\n      swap1\n      dup2\n      dup2\n      mstore\n      0x20\n      add\n      0x00\n      swap1\n    tag_199:\n      dup3\n      dup3\n      lt\n      iszero\n      tag_200\n      jumpi\n      dup4\n      dup3\n      swap1\n      0x00\n      mstore\n      keccak256(0x00, 0x20)\n      swap1\n      0x03\n      mul\n      add\n      mload(0x40)\n      dup1\n      0x60\n      add\n      0x40\n      mstore\n      swap1\n      dup2\n      0x00\n      dup3\n      add\n      sload\n      dup2\n      mstore\n      0x20\n      add\n      0x01\n      dup3\n      add\n      sload\n      dup2\n      mstore\n      0x20\n      add\n      0x02\n      dup3\n      add\n      0x00\n      swap1\n      sload\n      swap1\n      0x0100\n      exp\n      swap1\n      div\n      0xffffffffffffffffffffffffffffffffffffffff\n      and\n      0xffffffffffffffffffffffffffffffffffffffff\n      and\n      0xffffffffffffffffffffffffffffffffffffffff\n      and\n      dup2\n      mstore\n      pop\n      pop\n      dup2\n      mstore\n      0x20\n      add\n      swap1\n      0x01\n      add\n      swap1\n      jump(tag_199)\n    tag_200:\n      pop\n      pop\n      pop\n      pop\n      swap1\n      pop\n        /* \"Campaign.sol\":5780:5880  function getTransactions() public view returns (Bid[] memory) {... */\n      swap1\n      jump\t// out\n        /* \"Campaign.sol\":1258:1286  address public highestBidder */\n    tag_97:\n      0x0a\n      0x00\n      swap1\n      sload\n      swap1\n      0x0100\n      exp\n      swap1\n      div\n      0xffffffffffffffffffffffffffffffffffffffff\n      and\n      dup2\n      jump\t// out\n        /* \"Campaign.sol\":938:972  uint256 public minimumContribution */\n    tag_101:\n      sload(0x02)\n      dup2\n      jump\t// out\n        /* \"Campaign.sol\":3645:4195  function finalizeAuctionIfNeeded() public onlyAfterEnd {... */\n    tag_105:\n        /* \"Campaign.sol\":1590:1597  endTime */\n      sload(0x0c)\n        /* \"Campaign.sol\":1571:1586  block.timestamp */\n      timestamp\n        /* \"Campaign.sol\":1571:1597  block.timestamp >= endTime */\n      lt\n      iszero\n        /* \"Campaign.sol\":1563:1623  require(block.timestamp >= endTime, \"Auction not ended yet\") */\n      tag_203\n      jumpi\n      mload(0x40)\n      0x08c379a000000000000000000000000000000000000000000000000000000000\n      dup2\n      mstore\n      0x04\n      add\n      tag_204\n      swap1\n      tag_205\n      jump\t// in\n    tag_204:\n      mload(0x40)\n      dup1\n      swap2\n      sub\n      swap1\n      revert\n    tag_203:\n        /* \"Campaign.sol\":3719:3725  closed */\n      0x0d\n      0x00\n      swap1\n      sload\n      swap1\n      0x0100\n      exp\n      swap1\n      div\n      0xff\n      and\n        /* \"Campaign.sol\":3718:3725  !closed */\n      iszero\n        /* \"Campaign.sol\":3710:3755  require(!closed, \"Auction already finalized\") */\n      tag_207\n      jumpi\n      mload(0x40)\n      0x08c379a000000000000000000000000000000000000000000000000000000000\n      dup2\n      mstore\n      0x04\n      add\n      tag_208\n      swap1\n      tag_209\n      jump\t// in\n    tag_208:\n      mload(0x40)\n      dup1\n      swap2\n      sub\n      swap1\n      revert\n    tag_207:\n        /* \"Campaign.sol\":3775:3779  true */\n      0x01\n        /* \"Campaign.sol\":3766:3772  closed */\n      0x0d\n      0x00\n        /* \"Campaign.sol\":3766:3779  closed = true */\n      0x0100\n      exp\n      dup2\n      sload\n      dup2\n      0xff\n      mul\n      not\n      and\n      swap1\n      dup4\n      iszero\n      iszero\n      mul\n      or\n      swap1\n      sstore\n      pop\n        /* \"Campaign.sol\":3807:3808  0 */\n      0x00\n        /* \"Campaign.sol\":3794:3804  highestBid */\n      sload(0x0b)\n        /* \"Campaign.sol\":3794:3808  highestBid > 0 */\n      gt\n        /* \"Campaign.sol\":3790:4189  if (highestBid > 0) {... */\n      iszero\n      tag_210\n      jumpi\n        /* \"Campaign.sol\":3857:3867  highestBid */\n      sload(0x0b)\n        /* \"Campaign.sol\":3832:3853  address(this).balance */\n      selfbalance\n        /* \"Campaign.sol\":3832:3867  address(this).balance >= highestBid */\n      lt\n      iszero\n        /* \"Campaign.sol\":3824:3892  require(address(this).balance >= highestBid, \"Insufficient balance\") */\n      tag_211\n      jumpi\n      mload(0x40)\n      0x08c379a000000000000000000000000000000000000000000000000000000000\n      dup2\n      mstore\n      0x04\n      add\n      tag_212\n      swap1\n      tag_213\n      jump\t// in\n    tag_212:\n      mload(0x40)\n      dup1\n      swap2\n      sub\n      swap1\n      revert\n    tag_211:\n        /* \"Campaign.sol\":3938:3939  0 */\n      0x00\n        /* \"Campaign.sol\":3906:3920  approversMoney */\n      0x06\n        /* \"Campaign.sol\":3906:3935  approversMoney[highestBidder] */\n      0x00\n        /* \"Campaign.sol\":3921:3934  highestBidder */\n      0x0a\n      0x00\n      swap1\n      sload\n      swap1\n      0x0100\n      exp\n      swap1\n      div\n      0xffffffffffffffffffffffffffffffffffffffff\n      and\n        /* \"Campaign.sol\":3906:3935  approversMoney[highestBidder] */\n      0xffffffffffffffffffffffffffffffffffffffff\n      and\n      0xffffffffffffffffffffffffffffffffffffffff\n      and\n      dup2\n      mstore\n      0x20\n      add\n      swap1\n      dup2\n      mstore\n      0x20\n      add\n      0x00\n      keccak256\n        /* \"Campaign.sol\":3906:3939  approversMoney[highestBidder] = 0 */\n      dup2\n      swap1\n      sstore\n      pop\n        /* \"Campaign.sol\":3955:3964  bool sent */\n      0x00\n        /* \"Campaign.sol\":3978:3985  manager */\n      0x01\n      0x00\n      swap1\n      sload\n      swap1\n      0x0100\n      exp\n      swap1\n      div\n      0xffffffffffffffffffffffffffffffffffffffff\n      and\n        /* \"Campaign.sol\":3970:3991  payable(manager).call */\n      0xffffffffffffffffffffffffffffffffffffffff\n      and\n        /* \"Campaign.sol\":3999:4009  highestBid */\n      sload(0x0b)\n        /* \"Campaign.sol\":3970:4014  payable(manager).call{value: highestBid}(\"\") */\n      mload(0x40)\n      tag_214\n      swap1\n      tag_154\n      jump\t// in\n    tag_214:\n      0x00\n      mload(0x40)\n      dup1\n      dup4\n      sub\n      dup2\n      dup6\n      dup8\n      gas\n      call\n      swap3\n      pop\n      pop\n      pop\n      returndatasize\n      dup1\n      0x00\n      dup2\n      eq\n      tag_217\n      jumpi\n      mload(0x40)\n      swap2\n      pop\n      and(add(returndatasize, 0x3f), not(0x1f))\n      dup3\n      add\n      0x40\n      mstore\n      returndatasize\n      dup3\n      mstore\n      returndatasize\n      0x00\n      0x20\n      dup5\n      add\n      returndatacopy\n      jump(tag_216)\n    tag_217:\n      0x60\n      swap2\n      pop\n    tag_216:\n      pop\n        /* \"Campaign.sol\":3954:4014  (bool sent, ) = payable(manager).call{value: highestBid}(\"\") */\n      pop\n      swap1\n      pop\n        /* \"Campaign.sol\":4036:4040  sent */\n      dup1\n        /* \"Campaign.sol\":4028:4066  require(sent, \"Seller payment failed\") */\n      tag_218\n      jumpi\n      mload(0x40)\n      0x08c379a000000000000000000000000000000000000000000000000000000000\n      dup2\n      mstore\n      0x04\n      add\n      tag_219\n      swap1\n      tag_220\n      jump\t// in\n    tag_219:\n      mload(0x40)\n      dup1\n      swap2\n      sub\n      swap1\n      revert\n    tag_218:\n        /* \"Campaign.sol\":4081:4088  factory */\n      0x00\n      0x00\n      swap1\n      sload\n      swap1\n      0x0100\n      exp\n      swap1\n      div\n      0xffffffffffffffffffffffffffffffffffffffff\n      and\n        /* \"Campaign.sol\":4081:4101  factory.changeBudget */\n      0xffffffffffffffffffffffffffffffffffffffff\n      and\n      0x8dfac90c\n        /* \"Campaign.sol\":4102:4109  manager */\n      0x01\n      0x00\n      swap1\n      sload\n      swap1\n      0x0100\n      exp\n      swap1\n      div\n      0xffffffffffffffffffffffffffffffffffffffff\n      and\n        /* \"Campaign.sol\":4111:4121  highestBid */\n      sload(0x0b)\n        /* \"Campaign.sol\":4123:4127  true */\n      0x01\n        /* \"Campaign.sol\":4081:4128  factory.changeBudget(manager, highestBid, true) */\n      mload(0x40)\n      dup5\n      0xffffffff\n      and\n      0xe0\n      shl\n      dup2\n      mstore\n      0x04\n      add\n      tag_221\n      swap4\n      swap3\n      swap2\n      swap1\n      tag_222\n      jump\t// in\n    tag_221:\n      0x00\n      mload(0x40)\n      dup1\n      dup4\n      sub\n      dup2\n      0x00\n      dup8\n      dup1\n      extcodesize\n      iszero\n      dup1\n      iszero\n      tag_223\n      jumpi\n      revert(0x00, 0x00)\n    tag_223:\n      pop\n      gas\n      call\n      iszero\n      dup1\n      iszero\n      tag_225\n      jumpi\n      returndatacopy(0x00, 0x00, returndatasize)\n      revert(0x00, returndatasize)\n    tag_225:\n      pop\n      pop\n      pop\n      pop\n        /* \"Campaign.sol\":4158:4165  manager */\n      0x01\n      0x00\n      swap1\n      sload\n      swap1\n      0x0100\n      exp\n      swap1\n      div\n      0xffffffffffffffffffffffffffffffffffffffff\n      and\n        /* \"Campaign.sol\":4147:4178  SellerPaid(manager, highestBid) */\n      0xffffffffffffffffffffffffffffffffffffffff\n      and\n      0xcb4a9094da4df77fb2c0dbaa5047660b1237e61d82a02176c1be74ca757f2531\n        /* \"Campaign.sol\":4167:4177  highestBid */\n      sload(0x0b)\n        /* \"Campaign.sol\":4147:4178  SellerPaid(manager, highestBid) */\n      mload(0x40)\n      tag_226\n      swap2\n      swap1\n      tag_35\n      jump\t// in\n    tag_226:\n      mload(0x40)\n      dup1\n      swap2\n      sub\n      swap1\n      log2\n        /* \"Campaign.sol\":3810:4189  {... */\n      pop\n        /* \"Campaign.sol\":3790:4189  if (highestBid > 0) {... */\n    tag_210:\n        /* \"Campaign.sol\":3645:4195  function finalizeAuctionIfNeeded() public onlyAfterEnd {... */\n      jump\t// out\n        /* \"Campaign.sol\":1224:1249  Bid[] public transactions */\n    tag_110:\n      0x09\n      dup2\n      dup2\n      sload\n      dup2\n      lt\n      tag_227\n      jumpi\n      0x00\n      dup1\n      revert\n    tag_227:\n      swap1\n      0x00\n      mstore\n      keccak256(0x00, 0x20)\n      swap1\n      0x03\n      mul\n      add\n      0x00\n      swap2\n      pop\n      swap1\n      pop\n      dup1\n      0x00\n      add\n      sload\n      swap1\n      dup1\n      0x01\n      add\n      sload\n      swap1\n      dup1\n      0x02\n      add\n      0x00\n      swap1\n      sload\n      swap1\n      0x0100\n      exp\n      swap1\n      div\n      0xffffffffffffffffffffffffffffffffffffffff\n      and\n      swap1\n      pop\n      dup4\n      jump\t// out\n        /* \"Campaign.sol\":6121:6219  function getAddresses() public view returns (address[] memory) {... */\n    tag_115:\n        /* \"Campaign.sol\":6166:6182  address[] memory */\n      0x60\n        /* \"Campaign.sol\":6202:6211  addresses */\n      0x08\n        /* \"Campaign.sol\":6195:6211  return addresses */\n      dup1\n      sload\n      dup1\n      0x20\n      mul\n      0x20\n      add\n      mload(0x40)\n      swap1\n      dup2\n      add\n      0x40\n      mstore\n      dup1\n      swap3\n      swap2\n      swap1\n      dup2\n      dup2\n      mstore\n      0x20\n      add\n      dup3\n      dup1\n      sload\n      dup1\n      iszero\n      tag_230\n      jumpi\n      0x20\n      mul\n      dup3\n      add\n      swap2\n      swap1\n      0x00\n      mstore\n      keccak256(0x00, 0x20)\n      swap1\n    tag_231:\n      dup2\n      0x00\n      swap1\n      sload\n      swap1\n      0x0100\n      exp\n      swap1\n      div\n      0xffffffffffffffffffffffffffffffffffffffff\n      and\n      0xffffffffffffffffffffffffffffffffffffffff\n      and\n      dup2\n      mstore\n      0x20\n      add\n      swap1\n      0x01\n      add\n      swap1\n      dup1\n      dup4\n      gt\n      tag_231\n      jumpi\n    tag_230:\n      pop\n      pop\n      pop\n      pop\n      pop\n      swap1\n      pop\n        /* \"Campaign.sol\":6121:6219  function getAddresses() public view returns (address[] memory) {... */\n      swap1\n      jump\t// out\n        /* \"Campaign.sol\":586:616  CampaignFactory public factory */\n    tag_120:\n      0x00\n      0x00\n      swap1\n      sload\n      swap1\n      0x0100\n      exp\n      swap1\n      div\n      0xffffffffffffffffffffffffffffffffffffffff\n      and\n      dup2\n      jump\t// out\n        /* \"Campaign.sol\":4699:5567  function processRefunds(uint256 maxRefunds) public {... */\n    tag_126:\n        /* \"Campaign.sol\":4768:4774  closed */\n      0x0d\n      0x00\n      swap1\n      sload\n      swap1\n      0x0100\n      exp\n      swap1\n      div\n      0xff\n      and\n        /* \"Campaign.sol\":4760:4800  require(closed, \"Auction not finalized\") */\n      tag_233\n      jumpi\n      mload(0x40)\n      0x08c379a000000000000000000000000000000000000000000000000000000000\n      dup2\n      mstore\n      0x04\n      add\n      tag_234\n      swap1\n      tag_146\n      jump\t// in\n    tag_234:\n      mload(0x40)\n      dup1\n      swap2\n      sub\n      swap1\n      revert\n    tag_233:\n        /* \"Campaign.sol\":4831:4832  0 */\n      0x00\n        /* \"Campaign.sol\":4818:4828  maxRefunds */\n      dup2\n        /* \"Campaign.sol\":4818:4832  maxRefunds > 0 */\n      gt\n        /* \"Campaign.sol\":4810:4856  require(maxRefunds > 0, \"Batch size required\") */\n      tag_235\n      jumpi\n      mload(0x40)\n      0x08c379a000000000000000000000000000000000000000000000000000000000\n      dup2\n      mstore\n      0x04\n      add\n      tag_236\n      swap1\n      tag_237\n      jump\t// in\n    tag_236:\n      mload(0x40)\n      dup1\n      swap2\n      sub\n      swap1\n      revert\n    tag_235:\n        /* \"Campaign.sol\":4867:4884  uint256 processed */\n      0x00\n        /* \"Campaign.sol\":4887:4888  0 */\n      0x00\n        /* \"Campaign.sol\":4867:4888  uint256 processed = 0 */\n      swap1\n      pop\n        /* \"Campaign.sol\":4899:5561  while (nextRefundIndex < addresses.length && processed < maxRefunds) {... */\n    tag_238:\n        /* \"Campaign.sol\":4924:4933  addresses */\n      0x08\n        /* \"Campaign.sol\":4924:4940  addresses.length */\n      dup1\n      sload\n      swap1\n      pop\n        /* \"Campaign.sol\":4906:4921  nextRefundIndex */\n      sload(0x0e)\n        /* \"Campaign.sol\":4906:4940  nextRefundIndex < addresses.length */\n      lt\n        /* \"Campaign.sol\":4906:4966  nextRefundIndex < addresses.length && processed < maxRefunds */\n      dup1\n      iszero\n      tag_240\n      jumpi\n      pop\n        /* \"Campaign.sol\":4956:4966  maxRefunds */\n      dup2\n        /* \"Campaign.sol\":4944:4953  processed */\n      dup2\n        /* \"Campaign.sol\":4944:4966  processed < maxRefunds */\n      lt\n        /* \"Campaign.sol\":4906:4966  nextRefundIndex < addresses.length && processed < maxRefunds */\n    tag_240:\n        /* \"Campaign.sol\":4899:5561  while (nextRefundIndex < addresses.length && processed < maxRefunds) {... */\n      iszero\n      tag_239\n      jumpi\n        /* \"Campaign.sol\":4982:5001  address contributor */\n      0x00\n        /* \"Campaign.sol\":5004:5013  addresses */\n      0x08\n        /* \"Campaign.sol\":5014:5029  nextRefundIndex */\n      sload(0x0e)\n        /* \"Campaign.sol\":5004:5030  addresses[nextRefundIndex] */\n      dup2\n      sload\n      dup2\n      lt\n      tag_241\n      jumpi\n      tag_242\n      tag_243\n      jump\t// in\n    tag_242:\n    tag_241:\n      swap1\n      0x00\n      mstore\n      keccak256(0x00, 0x20)\n      add\n      0x00\n      swap1\n      sload\n      swap1\n      0x0100\n      exp\n      swap1\n      div\n      0xffffffffffffffffffffffffffffffffffffffff\n      and\n        /* \"Campaign.sol\":4982:5030  address contributor = addresses[nextRefundIndex] */\n      swap1\n      pop\n        /* \"Campaign.sol\":5044:5059  nextRefundIndex */\n      0x0e\n      0x00\n        /* \"Campaign.sol\":5044:5061  nextRefundIndex++ */\n      dup2\n      sload\n      dup1\n      swap3\n      swap2\n      swap1\n      tag_245\n      swap1\n      tag_246\n      jump\t// in\n    tag_245:\n      swap2\n      swap1\n      pop\n      sstore\n      pop\n        /* \"Campaign.sol\":5095:5108  highestBidder */\n      0x0a\n      0x00\n      swap1\n      sload\n      swap1\n      0x0100\n      exp\n      swap1\n      div\n      0xffffffffffffffffffffffffffffffffffffffff\n      and\n        /* \"Campaign.sol\":5080:5108  contributor == highestBidder */\n      0xffffffffffffffffffffffffffffffffffffffff\n      and\n        /* \"Campaign.sol\":5080:5091  contributor */\n      dup2\n        /* \"Campaign.sol\":5080:5108  contributor == highestBidder */\n      0xffffffffffffffffffffffffffffffffffffffff\n      and\n      sub\n        /* \"Campaign.sol\":5076:5151  if (contributor == highestBidder) {... */\n      tag_247\n      jumpi\n        /* \"Campaign.sol\":5128:5136  continue */\n      pop\n      jump(tag_238)\n        /* \"Campaign.sol\":5076:5151  if (contributor == highestBidder) {... */\n    tag_247:\n        /* \"Campaign.sol\":5165:5185  uint256 refundAmount */\n      0x00\n        /* \"Campaign.sol\":5188:5202  approversMoney */\n      0x06\n        /* \"Campaign.sol\":5188:5215  approversMoney[contributor] */\n      0x00\n        /* \"Campaign.sol\":5203:5214  contributor */\n      dup4\n        /* \"Campaign.sol\":5188:5215  approversMoney[contributor] */\n      0xffffffffffffffffffffffffffffffffffffffff\n      and\n      0xffffffffffffffffffffffffffffffffffffffff\n      and\n      dup2\n      mstore\n      0x20\n      add\n      swap1\n      dup2\n      mstore\n      0x20\n      add\n      0x00\n      keccak256\n      sload\n        /* \"Campaign.sol\":5165:5215  uint256 refundAmount = approversMoney[contributor] */\n      swap1\n      pop\n        /* \"Campaign.sol\":5249:5250  0 */\n      0x00\n        /* \"Campaign.sol\":5233:5245  refundAmount */\n      dup2\n        /* \"Campaign.sol\":5233:5250  refundAmount == 0 */\n      sub\n        /* \"Campaign.sol\":5229:5293  if (refundAmount == 0) {... */\n      tag_248\n      jumpi\n        /* \"Campaign.sol\":5270:5278  continue */\n      pop\n      pop\n      jump(tag_238)\n        /* \"Campaign.sol\":5229:5293  if (refundAmount == 0) {... */\n    tag_248:\n        /* \"Campaign.sol\":5337:5338  0 */\n      0x00\n        /* \"Campaign.sol\":5307:5321  approversMoney */\n      0x06\n        /* \"Campaign.sol\":5307:5334  approversMoney[contributor] */\n      0x00\n        /* \"Campaign.sol\":5322:5333  contributor */\n      dup5\n        /* \"Campaign.sol\":5307:5334  approversMoney[contributor] */\n      0xffffffffffffffffffffffffffffffffffffffff\n      and\n      0xffffffffffffffffffffffffffffffffffffffff\n      and\n      dup2\n      mstore\n      0x20\n      add\n      swap1\n      dup2\n      mstore\n      0x20\n      add\n      0x00\n      keccak256\n        /* \"Campaign.sol\":5307:5338  approversMoney[contributor] = 0 */\n      dup2\n      swap1\n      sstore\n      pop\n        /* \"Campaign.sol\":5354:5363  bool sent */\n      0x00\n        /* \"Campaign.sol\":5377:5388  contributor */\n      dup3\n        /* \"Campaign.sol\":5369:5394  payable(contributor).call */\n      0xffffffffffffffffffffffffffffffffffffffff\n      and\n        /* \"Campaign.sol\":5402:5414  refundAmount */\n      dup3\n        /* \"Campaign.sol\":5369:5419  payable(contributor).call{value: refundAmount}(\"\") */\n      mload(0x40)\n      tag_249\n      swap1\n      tag_154\n      jump\t// in\n    tag_249:\n      0x00\n      mload(0x40)\n      dup1\n      dup4\n      sub\n      dup2\n      dup6\n      dup8\n      gas\n      call\n      swap3\n      pop\n      pop\n      pop\n      returndatasize\n      dup1\n      0x00\n      dup2\n      eq\n      tag_252\n      jumpi\n      mload(0x40)\n      swap2\n      pop\n      and(add(returndatasize, 0x3f), not(0x1f))\n      dup3\n      add\n      0x40\n      mstore\n      returndatasize\n      dup3\n      mstore\n      returndatasize\n      0x00\n      0x20\n      dup5\n      add\n      returndatacopy\n      jump(tag_251)\n    tag_252:\n      0x60\n      swap2\n      pop\n    tag_251:\n      pop\n        /* \"Campaign.sol\":5353:5419  (bool sent, ) = payable(contributor).call{value: refundAmount}(\"\") */\n      pop\n      swap1\n      pop\n        /* \"Campaign.sol\":5441:5445  sent */\n      dup1\n        /* \"Campaign.sol\":5433:5463  require(sent, \"Refund failed\") */\n      tag_253\n      jumpi\n      mload(0x40)\n      0x08c379a000000000000000000000000000000000000000000000000000000000\n      dup2\n      mstore\n      0x04\n      add\n      tag_254\n      swap1\n      tag_160\n      jump\t// in\n    tag_254:\n      mload(0x40)\n      dup1\n      swap2\n      sub\n      swap1\n      revert\n    tag_253:\n        /* \"Campaign.sol\":5499:5510  contributor */\n      dup3\n        /* \"Campaign.sol\":5483:5525  RefundProcessed(contributor, refundAmount) */\n      0xffffffffffffffffffffffffffffffffffffffff\n      and\n      0x3367befd2b2f39615cd79917c2153263c4af1d3945ec003e5d5bfc13a8d85833\n        /* \"Campaign.sol\":5512:5524  refundAmount */\n      dup4\n        /* \"Campaign.sol\":5483:5525  RefundProcessed(contributor, refundAmount) */\n      mload(0x40)\n      tag_255\n      swap2\n      swap1\n      tag_35\n      jump\t// in\n    tag_255:\n      mload(0x40)\n      dup1\n      swap2\n      sub\n      swap1\n      log2\n        /* \"Campaign.sol\":5539:5550  processed++ */\n      dup4\n      dup1\n      tag_256\n      swap1\n      tag_246\n      jump\t// in\n    tag_256:\n      swap5\n      pop\n      pop\n        /* \"Campaign.sol\":4968:5561  {... */\n      pop\n      pop\n      pop\n        /* \"Campaign.sol\":4899:5561  while (nextRefundIndex < addresses.length && processed < maxRefunds) {... */\n      jump(tag_238)\n    tag_239:\n        /* \"Campaign.sol\":4750:5567  {... */\n      pop\n        /* \"Campaign.sol\":4699:5567  function processRefunds(uint256 maxRefunds) public {... */\n      pop\n      jump\t// out\n        /* \"Campaign.sol\":5662:5772  function getBid(address bidder) public view returns (uint256) {... */\n    tag_130:\n        /* \"Campaign.sol\":5715:5722  uint256 */\n      0x00\n        /* \"Campaign.sol\":5742:5756  approversMoney */\n      0x06\n        /* \"Campaign.sol\":5742:5764  approversMoney[bidder] */\n      0x00\n        /* \"Campaign.sol\":5757:5763  bidder */\n      dup4\n        /* \"Campaign.sol\":5742:5764  approversMoney[bidder] */\n      0xffffffffffffffffffffffffffffffffffffffff\n      and\n      0xffffffffffffffffffffffffffffffffffffffff\n      and\n      dup2\n      mstore\n      0x20\n      add\n      swap1\n      dup2\n      mstore\n      0x20\n      add\n      0x00\n      keccak256\n      sload\n        /* \"Campaign.sol\":5735:5764  return approversMoney[bidder] */\n      swap1\n      pop\n        /* \"Campaign.sol\":5662:5772  function getBid(address bidder) public view returns (uint256) {... */\n      swap2\n      swap1\n      pop\n      jump\t// out\n        /* \"Campaign.sol\":1292:1317  uint256 public highestBid */\n    tag_134:\n      sload(0x0b)\n      dup2\n      jump\t// out\n        /* \"Campaign.sol\":2104:3637  function contribute() public payable onlyBeforeEnd {... */\n    tag_137:\n        /* \"Campaign.sol\":1475:1482  endTime */\n      sload(0x0c)\n        /* \"Campaign.sol\":1457:1472  block.timestamp */\n      timestamp\n        /* \"Campaign.sol\":1457:1482  block.timestamp < endTime */\n      lt\n        /* \"Campaign.sol\":1449:1500  require(block.timestamp < endTime, \"Auction ended\") */\n      tag_259\n      jumpi\n      mload(0x40)\n      0x08c379a000000000000000000000000000000000000000000000000000000000\n      dup2\n      mstore\n      0x04\n      add\n      tag_260\n      swap1\n      tag_261\n      jump\t// in\n    tag_260:\n      mload(0x40)\n      dup1\n      swap2\n      sub\n      swap1\n      revert\n    tag_259:\n        /* \"Campaign.sol\":2184:2191  manager */\n      0x01\n      0x00\n      swap1\n      sload\n      swap1\n      0x0100\n      exp\n      swap1\n      div\n      0xffffffffffffffffffffffffffffffffffffffff\n      and\n        /* \"Campaign.sol\":2170:2191  msg.sender != manager */\n      0xffffffffffffffffffffffffffffffffffffffff\n      and\n        /* \"Campaign.sol\":2170:2180  msg.sender */\n      caller\n        /* \"Campaign.sol\":2170:2191  msg.sender != manager */\n      0xffffffffffffffffffffffffffffffffffffffff\n      and\n      sub\n        /* \"Campaign.sol\":2162:2229  require(msg.sender != manager, \"You can't bid on your own auction\") */\n      tag_263\n      jumpi\n      mload(0x40)\n      0x08c379a000000000000000000000000000000000000000000000000000000000\n      dup2\n      mstore\n      0x04\n      add\n      tag_264\n      swap1\n      tag_265\n      jump\t// in\n    tag_264:\n      mload(0x40)\n      dup1\n      swap2\n      sub\n      swap1\n      revert\n    tag_263:\n        /* \"Campaign.sol\":2256:2257  0 */\n      0x00\n        /* \"Campaign.sol\":2244:2253  msg.value */\n      callvalue\n        /* \"Campaign.sol\":2244:2257  msg.value > 0 */\n      gt\n        /* \"Campaign.sol\":2236:2282  require(msg.value > 0, \"Must send some ether\") */\n      tag_266\n      jumpi\n      mload(0x40)\n      0x08c379a000000000000000000000000000000000000000000000000000000000\n      dup2\n      mstore\n      0x04\n      add\n      tag_267\n      swap1\n      tag_268\n      jump\t// in\n    tag_267:\n      mload(0x40)\n      dup1\n      swap2\n      sub\n      swap1\n      revert\n    tag_266:\n        /* \"Campaign.sol\":2291:2307  uint256 previous */\n      0x00\n        /* \"Campaign.sol\":2310:2324  approversMoney */\n      0x06\n        /* \"Campaign.sol\":2310:2336  approversMoney[msg.sender] */\n      0x00\n        /* \"Campaign.sol\":2325:2335  msg.sender */\n      caller\n        /* \"Campaign.sol\":2310:2336  approversMoney[msg.sender] */\n      0xffffffffffffffffffffffffffffffffffffffff\n      and\n      0xffffffffffffffffffffffffffffffffffffffff\n      and\n      dup2\n      mstore\n      0x20\n      add\n      swap1\n      dup2\n      mstore\n      0x20\n      add\n      0x00\n      keccak256\n      sload\n        /* \"Campaign.sol\":2291:2336  uint256 previous = approversMoney[msg.sender] */\n      swap1\n      pop\n        /* \"Campaign.sol\":2343:2359  uint256 newTotal */\n      0x00\n        /* \"Campaign.sol\":2373:2382  msg.value */\n      callvalue\n        /* \"Campaign.sol\":2362:2370  previous */\n      dup3\n        /* \"Campaign.sol\":2362:2382  previous + msg.value */\n      tag_269\n      swap2\n      swap1\n      tag_270\n      jump\t// in\n    tag_269:\n        /* \"Campaign.sol\":2343:2382  uint256 newTotal = previous + msg.value */\n      swap1\n      pop\n        /* \"Campaign.sol\":2483:2484  0 */\n      0x00\n        /* \"Campaign.sol\":2458:2485  highestBidder == address(0) */\n      0xffffffffffffffffffffffffffffffffffffffff\n      and\n        /* \"Campaign.sol\":2458:2471  highestBidder */\n      0x0a\n      0x00\n      swap1\n      sload\n      swap1\n      0x0100\n      exp\n      swap1\n      div\n      0xffffffffffffffffffffffffffffffffffffffff\n      and\n        /* \"Campaign.sol\":2458:2485  highestBidder == address(0) */\n      0xffffffffffffffffffffffffffffffffffffffff\n      and\n      sub\n        /* \"Campaign.sol\":2454:3270  if (highestBidder == address(0)) {... */\n      tag_271\n      jumpi\n        /* \"Campaign.sol\":2518:2537  minimumContribution */\n      sload(0x02)\n        /* \"Campaign.sol\":2506:2514  newTotal */\n      dup2\n        /* \"Campaign.sol\":2506:2537  newTotal >= minimumContribution */\n      lt\n      iszero\n        /* \"Campaign.sol\":2498:2559  require(newTotal >= minimumContribution, \"Below minimum bid\") */\n      tag_272\n      jumpi\n      mload(0x40)\n      0x08c379a000000000000000000000000000000000000000000000000000000000\n      dup2\n      mstore\n      0x04\n      add\n      tag_273\n      swap1\n      tag_274\n      jump\t// in\n    tag_273:\n      mload(0x40)\n      dup1\n      swap2\n      sub\n      swap1\n      revert\n    tag_272:\n        /* \"Campaign.sol\":2570:2577  factory */\n      0x00\n      0x00\n      swap1\n      sload\n      swap1\n      0x0100\n      exp\n      swap1\n      div\n      0xffffffffffffffffffffffffffffffffffffffff\n      and\n        /* \"Campaign.sol\":2570:2590  factory.changeBudget */\n      0xffffffffffffffffffffffffffffffffffffffff\n      and\n      0x8dfac90c\n        /* \"Campaign.sol\":2591:2601  msg.sender */\n      caller\n        /* \"Campaign.sol\":2603:2612  msg.value */\n      callvalue\n        /* \"Campaign.sol\":2614:2619  false */\n      0x00\n        /* \"Campaign.sol\":2570:2620  factory.changeBudget(msg.sender, msg.value, false) */\n      mload(0x40)\n      dup5\n      0xffffffff\n      and\n      0xe0\n      shl\n      dup2\n      mstore\n      0x04\n      add\n      tag_275\n      swap4\n      swap3\n      swap2\n      swap1\n      tag_222\n      jump\t// in\n    tag_275:\n      0x00\n      mload(0x40)\n      dup1\n      dup4\n      sub\n      dup2\n      0x00\n      dup8\n      dup1\n      extcodesize\n      iszero\n      dup1\n      iszero\n      tag_276\n      jumpi\n      revert(0x00, 0x00)\n    tag_276:\n      pop\n      gas\n      call\n      iszero\n      dup1\n      iszero\n      tag_278\n      jumpi\n      returndatacopy(0x00, 0x00, returndatasize)\n      revert(0x00, returndatasize)\n    tag_278:\n      pop\n      pop\n      pop\n      pop\n        /* \"Campaign.sol\":2454:3270  if (highestBidder == address(0)) {... */\n      jump(tag_279)\n    tag_271:\n        /* \"Campaign.sol\":2703:2713  highestBid */\n      sload(0x0b)\n        /* \"Campaign.sol\":2692:2700  newTotal */\n      dup2\n        /* \"Campaign.sol\":2692:2713  newTotal > highestBid */\n      gt\n        /* \"Campaign.sol\":2684:2749  require(newTotal > highestBid, \"Bid must exceed current highest\") */\n      tag_280\n      jumpi\n      mload(0x40)\n      0x08c379a000000000000000000000000000000000000000000000000000000000\n      dup2\n      mstore\n      0x04\n      add\n      tag_281\n      swap1\n      tag_282\n      jump\t// in\n    tag_281:\n      mload(0x40)\n      dup1\n      swap2\n      sub\n      swap1\n      revert\n    tag_280:\n        /* \"Campaign.sol\":2865:2878  highestBidder */\n      0x0a\n      0x00\n      swap1\n      sload\n      swap1\n      0x0100\n      exp\n      swap1\n      div\n      0xffffffffffffffffffffffffffffffffffffffff\n      and\n        /* \"Campaign.sol\":2851:2878  msg.sender != highestBidder */\n      0xffffffffffffffffffffffffffffffffffffffff\n      and\n        /* \"Campaign.sol\":2851:2861  msg.sender */\n      caller\n        /* \"Campaign.sol\":2851:2878  msg.sender != highestBidder */\n      0xffffffffffffffffffffffffffffffffffffffff\n      and\n      eq\n        /* \"Campaign.sol\":2847:3263  if (msg.sender != highestBidder) {... */\n      tag_283\n      jumpi\n        /* \"Campaign.sol\":2895:2902  factory */\n      0x00\n      0x00\n      swap1\n      sload\n      swap1\n      0x0100\n      exp\n      swap1\n      div\n      0xffffffffffffffffffffffffffffffffffffffff\n      and\n        /* \"Campaign.sol\":2895:2915  factory.changeBudget */\n      0xffffffffffffffffffffffffffffffffffffffff\n      and\n      0x8dfac90c\n        /* \"Campaign.sol\":2916:2929  highestBidder */\n      0x0a\n      0x00\n      swap1\n      sload\n      swap1\n      0x0100\n      exp\n      swap1\n      div\n      0xffffffffffffffffffffffffffffffffffffffff\n      and\n        /* \"Campaign.sol\":2931:2941  highestBid */\n      sload(0x0b)\n        /* \"Campaign.sol\":2943:2947  true */\n      0x01\n        /* \"Campaign.sol\":2895:2948  factory.changeBudget(highestBidder, highestBid, true) */\n      mload(0x40)\n      dup5\n      0xffffffff\n      and\n      0xe0\n      shl\n      dup2\n      mstore\n      0x04\n      add\n      tag_284\n      swap4\n      swap3\n      swap2\n      swap1\n      tag_222\n      jump\t// in\n    tag_284:\n      0x00\n      mload(0x40)\n      dup1\n      dup4\n      sub\n      dup2\n      0x00\n      dup8\n      dup1\n      extcodesize\n      iszero\n      dup1\n      iszero\n      tag_285\n      jumpi\n      revert(0x00, 0x00)\n    tag_285:\n      pop\n      gas\n      call\n      iszero\n      dup1\n      iszero\n      tag_287\n      jumpi\n      returndatacopy(0x00, 0x00, returndatasize)\n      revert(0x00, returndatasize)\n    tag_287:\n      pop\n      pop\n      pop\n      pop\n        /* \"Campaign.sol\":2999:3006  factory */\n      0x00\n      0x00\n      swap1\n      sload\n      swap1\n      0x0100\n      exp\n      swap1\n      div\n      0xffffffffffffffffffffffffffffffffffffffff\n      and\n        /* \"Campaign.sol\":2999:3019  factory.changeBudget */\n      0xffffffffffffffffffffffffffffffffffffffff\n      and\n      0x8dfac90c\n        /* \"Campaign.sol\":3020:3030  msg.sender */\n      caller\n        /* \"Campaign.sol\":3032:3040  newTotal */\n      dup4\n        /* \"Campaign.sol\":3042:3047  false */\n      0x00\n        /* \"Campaign.sol\":2999:3048  factory.changeBudget(msg.sender, newTotal, false) */\n      mload(0x40)\n      dup5\n      0xffffffff\n      and\n      0xe0\n      shl\n      dup2\n      mstore\n      0x04\n      add\n      tag_288\n      swap4\n      swap3\n      swap2\n      swap1\n      tag_222\n      jump\t// in\n    tag_288:\n      0x00\n      mload(0x40)\n      dup1\n      dup4\n      sub\n      dup2\n      0x00\n      dup8\n      dup1\n      extcodesize\n      iszero\n      dup1\n      iszero\n      tag_289\n      jumpi\n      revert(0x00, 0x00)\n    tag_289:\n      pop\n      gas\n      call\n      iszero\n      dup1\n      iszero\n      tag_291\n      jumpi\n      returndatacopy(0x00, 0x00, returndatasize)\n      revert(0x00, returndatasize)\n    tag_291:\n      pop\n      pop\n      pop\n      pop\n        /* \"Campaign.sol\":2847:3263  if (msg.sender != highestBidder) {... */\n      jump(tag_292)\n    tag_283:\n        /* \"Campaign.sol\":3201:3208  factory */\n      0x00\n      0x00\n      swap1\n      sload\n      swap1\n      0x0100\n      exp\n      swap1\n      div\n      0xffffffffffffffffffffffffffffffffffffffff\n      and\n        /* \"Campaign.sol\":3201:3221  factory.changeBudget */\n      0xffffffffffffffffffffffffffffffffffffffff\n      and\n      0x8dfac90c\n        /* \"Campaign.sol\":3222:3232  msg.sender */\n      caller\n        /* \"Campaign.sol\":3234:3243  msg.value */\n      callvalue\n        /* \"Campaign.sol\":3245:3250  false */\n      0x00\n        /* \"Campaign.sol\":3201:3251  factory.changeBudget(msg.sender, msg.value, false) */\n      mload(0x40)\n      dup5\n      0xffffffff\n      and\n      0xe0\n      shl\n      dup2\n      mstore\n      0x04\n      add\n      tag_293\n      swap4\n      swap3\n      swap2\n      swap1\n      tag_222\n      jump\t// in\n    tag_293:\n      0x00\n      mload(0x40)\n      dup1\n      dup4\n      sub\n      dup2\n      0x00\n      dup8\n      dup1\n      extcodesize\n      iszero\n      dup1\n      iszero\n      tag_294\n      jumpi\n      revert(0x00, 0x00)\n    tag_294:\n      pop\n      gas\n      call\n      iszero\n      dup1\n      iszero\n      tag_296\n      jumpi\n      returndatacopy(0x00, 0x00, returndatasize)\n      revert(0x00, returndatasize)\n    tag_296:\n      pop\n      pop\n      pop\n      pop\n        /* \"Campaign.sol\":2847:3263  if (msg.sender != highestBidder) {... */\n    tag_292:\n        /* \"Campaign.sol\":2454:3270  if (highestBidder == address(0)) {... */\n    tag_279:\n        /* \"Campaign.sol\":3307:3315  newTotal */\n      dup1\n        /* \"Campaign.sol\":3278:3292  approversMoney */\n      0x06\n        /* \"Campaign.sol\":3278:3304  approversMoney[msg.sender] */\n      0x00\n        /* \"Campaign.sol\":3293:3303  msg.sender */\n      caller\n        /* \"Campaign.sol\":3278:3304  approversMoney[msg.sender] */\n      0xffffffffffffffffffffffffffffffffffffffff\n      and\n      0xffffffffffffffffffffffffffffffffffffffff\n      and\n      dup2\n      mstore\n      0x20\n      add\n      swap1\n      dup2\n      mstore\n      0x20\n      add\n      0x00\n      keccak256\n        /* \"Campaign.sol\":3278:3315  approversMoney[msg.sender] = newTotal */\n      dup2\n      swap1\n      sstore\n      pop\n        /* \"Campaign.sol\":3335:3343  newTotal */\n      dup1\n        /* \"Campaign.sol\":3322:3332  highestBid */\n      0x0b\n        /* \"Campaign.sol\":3322:3343  highestBid = newTotal */\n      dup2\n      swap1\n      sstore\n      pop\n        /* \"Campaign.sol\":3366:3376  msg.sender */\n      caller\n        /* \"Campaign.sol\":3350:3363  highestBidder */\n      0x0a\n      0x00\n        /* \"Campaign.sol\":3350:3376  highestBidder = msg.sender */\n      0x0100\n      exp\n      dup2\n      sload\n      dup2\n      0xffffffffffffffffffffffffffffffffffffffff\n      mul\n      not\n      and\n      swap1\n      dup4\n      0xffffffffffffffffffffffffffffffffffffffff\n      and\n      mul\n      or\n      swap1\n      sstore\n      pop\n        /* \"Campaign.sol\":3385:3397  transactions */\n      0x09\n        /* \"Campaign.sol\":3403:3446  Bid(msg.value, block.timestamp, msg.sender) */\n      mload(0x40)\n      dup1\n      0x60\n      add\n      0x40\n      mstore\n      dup1\n        /* \"Campaign.sol\":3407:3416  msg.value */\n      callvalue\n        /* \"Campaign.sol\":3403:3446  Bid(msg.value, block.timestamp, msg.sender) */\n      dup2\n      mstore\n      0x20\n      add\n        /* \"Campaign.sol\":3418:3433  block.timestamp */\n      timestamp\n        /* \"Campaign.sol\":3403:3446  Bid(msg.value, block.timestamp, msg.sender) */\n      dup2\n      mstore\n      0x20\n      add\n        /* \"Campaign.sol\":3435:3445  msg.sender */\n      caller\n        /* \"Campaign.sol\":3403:3446  Bid(msg.value, block.timestamp, msg.sender) */\n      0xffffffffffffffffffffffffffffffffffffffff\n      and\n      dup2\n      mstore\n      pop\n        /* \"Campaign.sol\":3385:3447  transactions.push(Bid(msg.value, block.timestamp, msg.sender)) */\n      swap1\n      dup1\n      0x01\n      dup2\n      sload\n      add\n      dup1\n      dup3\n      sstore\n      dup1\n      swap2\n      pop\n      pop\n      0x01\n      swap1\n      sub\n      swap1\n      0x00\n      mstore\n      keccak256(0x00, 0x20)\n      swap1\n      0x03\n      mul\n      add\n      0x00\n      swap1\n      swap2\n      swap1\n      swap2\n      swap1\n      swap2\n      pop\n      0x00\n      dup3\n      add\n      mload\n      dup2\n      0x00\n      add\n      sstore\n      0x20\n      dup3\n      add\n      mload\n      dup2\n      0x01\n      add\n      sstore\n      0x40\n      dup3\n      add\n      mload\n      dup2\n      0x02\n      add\n      exp(0x0100, 0x00)\n      dup2\n      sload\n      dup2\n      0xffffffffffffffffffffffffffffffffffffffff\n      mul\n      not\n      and\n      swap1\n      dup4\n      0xffffffffffffffffffffffffffffffffffffffff\n      and\n      mul\n      or\n      swap1\n      sstore\n      pop\n      pop\n      pop\n        /* \"Campaign.sol\":3461:3470  approvers */\n      0x05\n        /* \"Campaign.sol\":3461:3482  approvers[msg.sender] */\n      0x00\n        /* \"Campaign.sol\":3471:3481  msg.sender */\n      caller\n        /* \"Campaign.sol\":3461:3482  approvers[msg.sender] */\n      0xffffffffffffffffffffffffffffffffffffffff\n      and\n      0xffffffffffffffffffffffffffffffffffffffff\n      and\n      dup2\n      mstore\n      0x20\n      add\n      swap1\n      dup2\n      mstore\n      0x20\n      add\n      0x00\n      keccak256\n      0x00\n      swap1\n      sload\n      swap1\n      0x0100\n      exp\n      swap1\n      div\n      0xff\n      and\n        /* \"Campaign.sol\":3456:3595  if (!approvers[msg.sender]) {... */\n      tag_298\n      jumpi\n        /* \"Campaign.sol\":3519:3523  true */\n      0x01\n        /* \"Campaign.sol\":3495:3504  approvers */\n      0x05\n        /* \"Campaign.sol\":3495:3516  approvers[msg.sender] */\n      0x00\n        /* \"Campaign.sol\":3505:3515  msg.sender */\n      caller\n        /* \"Campaign.sol\":3495:3516  approvers[msg.sender] */\n      0xffffffffffffffffffffffffffffffffffffffff\n      and\n      0xffffffffffffffffffffffffffffffffffffffff\n      and\n      dup2\n      mstore\n      0x20\n      add\n      swap1\n      dup2\n      mstore\n      0x20\n      add\n      0x00\n      keccak256\n      0x00\n        /* \"Campaign.sol\":3495:3523  approvers[msg.sender] = true */\n      0x0100\n      exp\n      dup2\n      sload\n      dup2\n      0xff\n      mul\n      not\n      and\n      swap1\n      dup4\n      iszero\n      iszero\n      mul\n      or\n      swap1\n      sstore\n      pop\n        /* \"Campaign.sol\":3534:3548  approversCount */\n      0x07\n      0x00\n        /* \"Campaign.sol\":3534:3550  approversCount++ */\n      dup2\n      sload\n      dup1\n      swap3\n      swap2\n      swap1\n      tag_299\n      swap1\n      tag_246\n      jump\t// in\n    tag_299:\n      swap2\n      swap1\n      pop\n      sstore\n      pop\n        /* \"Campaign.sol\":3561:3570  addresses */\n      0x08\n        /* \"Campaign.sol\":3576:3586  msg.sender */\n      caller\n        /* \"Campaign.sol\":3561:3587  addresses.push(msg.sender) */\n      swap1\n      dup1\n      0x01\n      dup2\n      sload\n      add\n      dup1\n      dup3\n      sstore\n      dup1\n      swap2\n      pop\n      pop\n      0x01\n      swap1\n      sub\n      swap1\n      0x00\n      mstore\n      keccak256(0x00, 0x20)\n      add\n      0x00\n      swap1\n      swap2\n      swap1\n      swap2\n      swap1\n      swap2\n      0x0100\n      exp\n      dup2\n      sload\n      dup2\n      0xffffffffffffffffffffffffffffffffffffffff\n      mul\n      not\n      and\n      swap1\n      dup4\n      0xffffffffffffffffffffffffffffffffffffffff\n      and\n      mul\n      or\n      swap1\n      sstore\n      pop\n        /* \"Campaign.sol\":3456:3595  if (!approvers[msg.sender]) {... */\n    tag_298:\n        /* \"Campaign.sol\":3606:3626  BidAdded(msg.sender) */\n      0x6cd3b8608d4368d7a92cfda5a745dfb2993256da9506cd888f31ff9aa48e2bd9\n        /* \"Campaign.sol\":3615:3625  msg.sender */\n      caller\n        /* \"Campaign.sol\":3606:3626  BidAdded(msg.sender) */\n      mload(0x40)\n      tag_301\n      swap2\n      swap1\n      tag_64\n      jump\t// in\n    tag_301:\n      mload(0x40)\n      dup1\n      swap2\n      sub\n      swap1\n      log1\n        /* \"Campaign.sol\":2155:3637  {... */\n      pop\n      pop\n        /* \"Campaign.sol\":2104:3637  function contribute() public payable onlyBeforeEnd {... */\n      jump\t// out\n        /* \"Campaign.sol\":1191:1217  address[] public addresses */\n    tag_141:\n      0x08\n      dup2\n      dup2\n      sload\n      dup2\n      lt\n      tag_302\n      jumpi\n      0x00\n      dup1\n      revert\n    tag_302:\n      swap1\n      0x00\n      mstore\n      keccak256(0x00, 0x20)\n      add\n      0x00\n      swap2\n      pop\n      sload\n      swap1\n      0x0100\n      exp\n      swap1\n      div\n      0xffffffffffffffffffffffffffffffffffffffff\n      and\n      dup2\n      jump\t// out\n        /* \"#utility.yul\":7:84   */\n    tag_304:\n        /* \"#utility.yul\":44:51   */\n      0x00\n        /* \"#utility.yul\":73:78   */\n      dup2\n        /* \"#utility.yul\":62:78   */\n      swap1\n      pop\n        /* \"#utility.yul\":7:84   */\n      swap2\n      swap1\n      pop\n      jump\t// out\n        /* \"#utility.yul\":90:208   */\n    tag_305:\n        /* \"#utility.yul\":177:201   */\n      tag_381\n        /* \"#utility.yul\":195:200   */\n      dup2\n        /* \"#utility.yul\":177:201   */\n      tag_304\n      jump\t// in\n    tag_381:\n        /* \"#utility.yul\":172:175   */\n      dup3\n        /* \"#utility.yul\":165:202   */\n      mstore\n        /* \"#utility.yul\":90:208   */\n      pop\n      pop\n      jump\t// out\n        /* \"#utility.yul\":214:436   */\n    tag_35:\n        /* \"#utility.yul\":307:311   */\n      0x00\n        /* \"#utility.yul\":345:347   */\n      0x20\n        /* \"#utility.yul\":334:343   */\n      dup3\n        /* \"#utility.yul\":330:348   */\n      add\n        /* \"#utility.yul\":322:348   */\n      swap1\n      pop\n        /* \"#utility.yul\":358:429   */\n      tag_383\n        /* \"#utility.yul\":426:427   */\n      0x00\n        /* \"#utility.yul\":415:424   */\n      dup4\n        /* \"#utility.yul\":411:428   */\n      add\n        /* \"#utility.yul\":402:408   */\n      dup5\n        /* \"#utility.yul\":358:429   */\n      tag_305\n      jump\t// in\n    tag_383:\n        /* \"#utility.yul\":214:436   */\n      swap3\n      swap2\n      pop\n      pop\n      jump\t// out\n        /* \"#utility.yul\":523:640   */\n    tag_307:\n        /* \"#utility.yul\":632:633   */\n      0x00\n        /* \"#utility.yul\":629:630   */\n      0x00\n        /* \"#utility.yul\":622:634   */\n      revert\n        /* \"#utility.yul\":769:895   */\n    tag_309:\n        /* \"#utility.yul\":806:813   */\n      0x00\n        /* \"#utility.yul\":846:888   */\n      0xffffffffffffffffffffffffffffffffffffffff\n        /* \"#utility.yul\":839:844   */\n      dup3\n        /* \"#utility.yul\":835:889   */\n      and\n        /* \"#utility.yul\":824:889   */\n      swap1\n      pop\n        /* \"#utility.yul\":769:895   */\n      swap2\n      swap1\n      pop\n      jump\t// out\n        /* \"#utility.yul\":901:997   */\n    tag_310:\n        /* \"#utility.yul\":938:945   */\n      0x00\n        /* \"#utility.yul\":967:991   */\n      tag_389\n        /* \"#utility.yul\":985:990   */\n      dup3\n        /* \"#utility.yul\":967:991   */\n      tag_309\n      jump\t// in\n    tag_389:\n        /* \"#utility.yul\":956:991   */\n      swap1\n      pop\n        /* \"#utility.yul\":901:997   */\n      swap2\n      swap1\n      pop\n      jump\t// out\n        /* \"#utility.yul\":1003:1125   */\n    tag_311:\n        /* \"#utility.yul\":1076:1100   */\n      tag_391\n        /* \"#utility.yul\":1094:1099   */\n      dup2\n        /* \"#utility.yul\":1076:1100   */\n      tag_310\n      jump\t// in\n    tag_391:\n        /* \"#utility.yul\":1069:1074   */\n      dup2\n        /* \"#utility.yul\":1066:1101   */\n      eq\n        /* \"#utility.yul\":1056:1119   */\n      tag_392\n      jumpi\n        /* \"#utility.yul\":1115:1116   */\n      0x00\n        /* \"#utility.yul\":1112:1113   */\n      0x00\n        /* \"#utility.yul\":1105:1117   */\n      revert\n        /* \"#utility.yul\":1056:1119   */\n    tag_392:\n        /* \"#utility.yul\":1003:1125   */\n      pop\n      jump\t// out\n        /* \"#utility.yul\":1131:1270   */\n    tag_312:\n        /* \"#utility.yul\":1177:1182   */\n      0x00\n        /* \"#utility.yul\":1215:1221   */\n      dup2\n        /* \"#utility.yul\":1202:1222   */\n      calldataload\n        /* \"#utility.yul\":1193:1222   */\n      swap1\n      pop\n        /* \"#utility.yul\":1231:1264   */\n      tag_394\n        /* \"#utility.yul\":1258:1263   */\n      dup2\n        /* \"#utility.yul\":1231:1264   */\n      tag_311\n      jump\t// in\n    tag_394:\n        /* \"#utility.yul\":1131:1270   */\n      swap3\n      swap2\n      pop\n      pop\n      jump\t// out\n        /* \"#utility.yul\":1276:1605   */\n    tag_39:\n        /* \"#utility.yul\":1335:1341   */\n      0x00\n        /* \"#utility.yul\":1384:1386   */\n      0x20\n        /* \"#utility.yul\":1372:1381   */\n      dup3\n        /* \"#utility.yul\":1363:1370   */\n      dup5\n        /* \"#utility.yul\":1359:1382   */\n      sub\n        /* \"#utility.yul\":1355:1387   */\n      slt\n        /* \"#utility.yul\":1352:1471   */\n      iszero\n      tag_396\n      jumpi\n        /* \"#utility.yul\":1390:1469   */\n      tag_397\n      tag_307\n      jump\t// in\n    tag_397:\n        /* \"#utility.yul\":1352:1471   */\n    tag_396:\n        /* \"#utility.yul\":1510:1511   */\n      0x00\n        /* \"#utility.yul\":1535:1588   */\n      tag_398\n        /* \"#utility.yul\":1580:1587   */\n      dup5\n        /* \"#utility.yul\":1571:1577   */\n      dup3\n        /* \"#utility.yul\":1560:1569   */\n      dup6\n        /* \"#utility.yul\":1556:1578   */\n      add\n        /* \"#utility.yul\":1535:1588   */\n      tag_312\n      jump\t// in\n    tag_398:\n        /* \"#utility.yul\":1525:1588   */\n      swap2\n      pop\n        /* \"#utility.yul\":1481:1598   */\n      pop\n        /* \"#utility.yul\":1276:1605   */\n      swap3\n      swap2\n      pop\n      pop\n      jump\t// out\n        /* \"#utility.yul\":1611:1701   */\n    tag_313:\n        /* \"#utility.yul\":1645:1652   */\n      0x00\n        /* \"#utility.yul\":1688:1693   */\n      dup2\n        /* \"#utility.yul\":1681:1694   */\n      iszero\n        /* \"#utility.yul\":1674:1695   */\n      iszero\n        /* \"#utility.yul\":1663:1695   */\n      swap1\n      pop\n        /* \"#utility.yul\":1611:1701   */\n      swap2\n      swap1\n      pop\n      jump\t// out\n        /* \"#utility.yul\":1707:1816   */\n    tag_314:\n        /* \"#utility.yul\":1788:1809   */\n      tag_401\n        /* \"#utility.yul\":1803:1808   */\n      dup2\n        /* \"#utility.yul\":1788:1809   */\n      tag_313\n      jump\t// in\n    tag_401:\n        /* \"#utility.yul\":1783:1786   */\n      dup3\n        /* \"#utility.yul\":1776:1810   */\n      mstore\n        /* \"#utility.yul\":1707:1816   */\n      pop\n      pop\n      jump\t// out\n        /* \"#utility.yul\":1822:2032   */\n    tag_42:\n        /* \"#utility.yul\":1909:1913   */\n      0x00\n        /* \"#utility.yul\":1947:1949   */\n      0x20\n        /* \"#utility.yul\":1936:1945   */\n      dup3\n        /* \"#utility.yul\":1932:1950   */\n      add\n        /* \"#utility.yul\":1924:1950   */\n      swap1\n      pop\n        /* \"#utility.yul\":1960:2025   */\n      tag_403\n        /* \"#utility.yul\":2022:2023   */\n      0x00\n        /* \"#utility.yul\":2011:2020   */\n      dup4\n        /* \"#utility.yul\":2007:2024   */\n      add\n        /* \"#utility.yul\":1998:2004   */\n      dup5\n        /* \"#utility.yul\":1960:2025   */\n      tag_314\n      jump\t// in\n    tag_403:\n        /* \"#utility.yul\":1822:2032   */\n      swap3\n      swap2\n      pop\n      pop\n      jump\t// out\n        /* \"#utility.yul\":2038:2137   */\n    tag_315:\n        /* \"#utility.yul\":2090:2096   */\n      0x00\n        /* \"#utility.yul\":2124:2129   */\n      dup2\n        /* \"#utility.yul\":2118:2130   */\n      mload\n        /* \"#utility.yul\":2108:2130   */\n      swap1\n      pop\n        /* \"#utility.yul\":2038:2137   */\n      swap2\n      swap1\n      pop\n      jump\t// out\n        /* \"#utility.yul\":2143:2312   */\n    tag_316:\n        /* \"#utility.yul\":2227:2238   */\n      0x00\n        /* \"#utility.yul\":2261:2267   */\n      dup3\n        /* \"#utility.yul\":2256:2259   */\n      dup3\n        /* \"#utility.yul\":2249:2268   */\n      mstore\n        /* \"#utility.yul\":2301:2305   */\n      0x20\n        /* \"#utility.yul\":2296:2299   */\n      dup3\n        /* \"#utility.yul\":2292:2306   */\n      add\n        /* \"#utility.yul\":2277:2306   */\n      swap1\n      pop\n        /* \"#utility.yul\":2143:2312   */\n      swap3\n      swap2\n      pop\n      pop\n      jump\t// out\n        /* \"#utility.yul\":2318:2457   */\n    tag_317:\n        /* \"#utility.yul\":2407:2413   */\n      dup3\n        /* \"#utility.yul\":2402:2405   */\n      dup2\n        /* \"#utility.yul\":2397:2400   */\n      dup4\n        /* \"#utility.yul\":2391:2414   */\n      mcopy\n        /* \"#utility.yul\":2448:2449   */\n      0x00\n        /* \"#utility.yul\":2439:2445   */\n      dup4\n        /* \"#utility.yul\":2434:2437   */\n      dup4\n        /* \"#utility.yul\":2430:2446   */\n      add\n        /* \"#utility.yul\":2423:2450   */\n      mstore\n        /* \"#utility.yul\":2318:2457   */\n      pop\n      pop\n      pop\n      jump\t// out\n        /* \"#utility.yul\":2463:2565   */\n    tag_318:\n        /* \"#utility.yul\":2504:2510   */\n      0x00\n        /* \"#utility.yul\":2555:2557   */\n      0x1f\n        /* \"#utility.yul\":2551:2558   */\n      not\n        /* \"#utility.yul\":2546:2548   */\n      0x1f\n        /* \"#utility.yul\":2539:2544   */\n      dup4\n        /* \"#utility.yul\":2535:2549   */\n      add\n        /* \"#utility.yul\":2531:2559   */\n      and\n        /* \"#utility.yul\":2521:2559   */\n      swap1\n      pop\n        /* \"#utility.yul\":2463:2565   */\n      swap2\n      swap1\n      pop\n      jump\t// out\n        /* \"#utility.yul\":2571:2948   */\n    tag_319:\n        /* \"#utility.yul\":2659:2662   */\n      0x00\n        /* \"#utility.yul\":2687:2726   */\n      tag_409\n        /* \"#utility.yul\":2720:2725   */\n      dup3\n        /* \"#utility.yul\":2687:2726   */\n      tag_315\n      jump\t// in\n    tag_409:\n        /* \"#utility.yul\":2742:2813   */\n      tag_410\n        /* \"#utility.yul\":2806:2812   */\n      dup2\n        /* \"#utility.yul\":2801:2804   */\n      dup6\n        /* \"#utility.yul\":2742:2813   */\n      tag_316\n      jump\t// in\n    tag_410:\n        /* \"#utility.yul\":2735:2813   */\n      swap4\n      pop\n        /* \"#utility.yul\":2822:2887   */\n      tag_411\n        /* \"#utility.yul\":2880:2886   */\n      dup2\n        /* \"#utility.yul\":2875:2878   */\n      dup6\n        /* \"#utility.yul\":2868:2872   */\n      0x20\n        /* \"#utility.yul\":2861:2866   */\n      dup7\n        /* \"#utility.yul\":2857:2873   */\n      add\n        /* \"#utility.yul\":2822:2887   */\n      tag_317\n      jump\t// in\n    tag_411:\n        /* \"#utility.yul\":2912:2941   */\n      tag_412\n        /* \"#utility.yul\":2934:2940   */\n      dup2\n        /* \"#utility.yul\":2912:2941   */\n      tag_318\n      jump\t// in\n    tag_412:\n        /* \"#utility.yul\":2907:2910   */\n      dup5\n        /* \"#utility.yul\":2903:2942   */\n      add\n        /* \"#utility.yul\":2896:2942   */\n      swap2\n      pop\n        /* \"#utility.yul\":2663:2948   */\n      pop\n        /* \"#utility.yul\":2571:2948   */\n      swap3\n      swap2\n      pop\n      pop\n      jump\t// out\n        /* \"#utility.yul\":2954:3267   */\n    tag_54:\n        /* \"#utility.yul\":3067:3071   */\n      0x00\n        /* \"#utility.yul\":3105:3107   */\n      0x20\n        /* \"#utility.yul\":3094:3103   */\n      dup3\n        /* \"#utility.yul\":3090:3108   */\n      add\n        /* \"#utility.yul\":3082:3108   */\n      swap1\n      pop\n        /* \"#utility.yul\":3154:3163   */\n      dup2\n        /* \"#utility.yul\":3148:3152   */\n      dup2\n        /* \"#utility.yul\":3144:3164   */\n      sub\n        /* \"#utility.yul\":3140:3141   */\n      0x00\n        /* \"#utility.yul\":3129:3138   */\n      dup4\n        /* \"#utility.yul\":3125:3142   */\n      add\n        /* \"#utility.yul\":3118:3165   */\n      mstore\n        /* \"#utility.yul\":3182:3260   */\n      tag_414\n        /* \"#utility.yul\":3255:3259   */\n      dup2\n        /* \"#utility.yul\":3246:3252   */\n      dup5\n        /* \"#utility.yul\":3182:3260   */\n      tag_319\n      jump\t// in\n    tag_414:\n        /* \"#utility.yul\":3174:3260   */\n      swap1\n      pop\n        /* \"#utility.yul\":2954:3267   */\n      swap3\n      swap2\n      pop\n      pop\n      jump\t// out\n        /* \"#utility.yul\":3273:3391   */\n    tag_320:\n        /* \"#utility.yul\":3360:3384   */\n      tag_416\n        /* \"#utility.yul\":3378:3383   */\n      dup2\n        /* \"#utility.yul\":3360:3384   */\n      tag_310\n      jump\t// in\n    tag_416:\n        /* \"#utility.yul\":3355:3358   */\n      dup3\n        /* \"#utility.yul\":3348:3385   */\n      mstore\n        /* \"#utility.yul\":3273:3391   */\n      pop\n      pop\n      jump\t// out\n        /* \"#utility.yul\":3397:3511   */\n    tag_321:\n        /* \"#utility.yul\":3464:3470   */\n      0x00\n        /* \"#utility.yul\":3498:3503   */\n      dup2\n        /* \"#utility.yul\":3492:3504   */\n      mload\n        /* \"#utility.yul\":3482:3504   */\n      swap1\n      pop\n        /* \"#utility.yul\":3397:3511   */\n      swap2\n      swap1\n      pop\n      jump\t// out\n        /* \"#utility.yul\":3517:3701   */\n    tag_322:\n        /* \"#utility.yul\":3616:3627   */\n      0x00\n        /* \"#utility.yul\":3650:3656   */\n      dup3\n        /* \"#utility.yul\":3645:3648   */\n      dup3\n        /* \"#utility.yul\":3638:3657   */\n      mstore\n        /* \"#utility.yul\":3690:3694   */\n      0x20\n        /* \"#utility.yul\":3685:3688   */\n      dup3\n        /* \"#utility.yul\":3681:3695   */\n      add\n        /* \"#utility.yul\":3666:3695   */\n      swap1\n      pop\n        /* \"#utility.yul\":3517:3701   */\n      swap3\n      swap2\n      pop\n      pop\n      jump\t// out\n        /* \"#utility.yul\":3707:3839   */\n    tag_323:\n        /* \"#utility.yul\":3774:3778   */\n      0x00\n        /* \"#utility.yul\":3797:3800   */\n      dup2\n        /* \"#utility.yul\":3789:3800   */\n      swap1\n      pop\n        /* \"#utility.yul\":3827:3831   */\n      0x20\n        /* \"#utility.yul\":3822:3825   */\n      dup3\n        /* \"#utility.yul\":3818:3832   */\n      add\n        /* \"#utility.yul\":3810:3832   */\n      swap1\n      pop\n        /* \"#utility.yul\":3707:3839   */\n      swap2\n      swap1\n      pop\n      jump\t// out\n        /* \"#utility.yul\":3845:3953   */\n    tag_324:\n        /* \"#utility.yul\":3922:3946   */\n      tag_421\n        /* \"#utility.yul\":3940:3945   */\n      dup2\n        /* \"#utility.yul\":3922:3946   */\n      tag_310\n      jump\t// in\n    tag_421:\n        /* \"#utility.yul\":3917:3920   */\n      dup3\n        /* \"#utility.yul\":3910:3947   */\n      mstore\n        /* \"#utility.yul\":3845:3953   */\n      pop\n      pop\n      jump\t// out\n        /* \"#utility.yul\":3959:4138   */\n    tag_325:\n        /* \"#utility.yul\":4028:4038   */\n      0x00\n        /* \"#utility.yul\":4049:4095   */\n      tag_423\n        /* \"#utility.yul\":4091:4094   */\n      dup4\n        /* \"#utility.yul\":4083:4089   */\n      dup4\n        /* \"#utility.yul\":4049:4095   */\n      tag_324\n      jump\t// in\n    tag_423:\n        /* \"#utility.yul\":4127:4131   */\n      0x20\n        /* \"#utility.yul\":4122:4125   */\n      dup4\n        /* \"#utility.yul\":4118:4132   */\n      add\n        /* \"#utility.yul\":4104:4132   */\n      swap1\n      pop\n        /* \"#utility.yul\":3959:4138   */\n      swap3\n      swap2\n      pop\n      pop\n      jump\t// out\n        /* \"#utility.yul\":4144:4257   */\n    tag_326:\n        /* \"#utility.yul\":4214:4218   */\n      0x00\n        /* \"#utility.yul\":4246:4250   */\n      0x20\n        /* \"#utility.yul\":4241:4244   */\n      dup3\n        /* \"#utility.yul\":4237:4251   */\n      add\n        /* \"#utility.yul\":4229:4251   */\n      swap1\n      pop\n        /* \"#utility.yul\":4144:4257   */\n      swap2\n      swap1\n      pop\n      jump\t// out\n        /* \"#utility.yul\":4293:5025   */\n    tag_327:\n        /* \"#utility.yul\":4412:4415   */\n      0x00\n        /* \"#utility.yul\":4441:4495   */\n      tag_426\n        /* \"#utility.yul\":4489:4494   */\n      dup3\n        /* \"#utility.yul\":4441:4495   */\n      tag_321\n      jump\t// in\n    tag_426:\n        /* \"#utility.yul\":4511:4597   */\n      tag_427\n        /* \"#utility.yul\":4590:4596   */\n      dup2\n        /* \"#utility.yul\":4585:4588   */\n      dup6\n        /* \"#utility.yul\":4511:4597   */\n      tag_322\n      jump\t// in\n    tag_427:\n        /* \"#utility.yul\":4504:4597   */\n      swap4\n      pop\n        /* \"#utility.yul\":4621:4677   */\n      tag_428\n        /* \"#utility.yul\":4671:4676   */\n      dup4\n        /* \"#utility.yul\":4621:4677   */\n      tag_323\n      jump\t// in\n    tag_428:\n        /* \"#utility.yul\":4700:4707   */\n      dup1\n        /* \"#utility.yul\":4731:4732   */\n      0x00\n        /* \"#utility.yul\":4716:5000   */\n    tag_429:\n        /* \"#utility.yul\":4741:4747   */\n      dup4\n        /* \"#utility.yul\":4738:4739   */\n      dup2\n        /* \"#utility.yul\":4735:4748   */\n      lt\n        /* \"#utility.yul\":4716:5000   */\n      iszero\n      tag_431\n      jumpi\n        /* \"#utility.yul\":4817:4823   */\n      dup2\n        /* \"#utility.yul\":4811:4824   */\n      mload\n        /* \"#utility.yul\":4844:4907   */\n      tag_432\n        /* \"#utility.yul\":4903:4906   */\n      dup9\n        /* \"#utility.yul\":4888:4901   */\n      dup3\n        /* \"#utility.yul\":4844:4907   */\n      tag_325\n      jump\t// in\n    tag_432:\n        /* \"#utility.yul\":4837:4907   */\n      swap8\n      pop\n        /* \"#utility.yul\":4930:4990   */\n      tag_433\n        /* \"#utility.yul\":4983:4989   */\n      dup4\n        /* \"#utility.yul\":4930:4990   */\n      tag_326\n      jump\t// in\n    tag_433:\n        /* \"#utility.yul\":4920:4990   */\n      swap3\n      pop\n        /* \"#utility.yul\":4776:5000   */\n      pop\n        /* \"#utility.yul\":4763:4764   */\n      0x01\n        /* \"#utility.yul\":4760:4761   */\n      dup2\n        /* \"#utility.yul\":4756:4765   */\n      add\n        /* \"#utility.yul\":4751:4765   */\n      swap1\n      pop\n        /* \"#utility.yul\":4716:5000   */\n      jump(tag_429)\n    tag_431:\n        /* \"#utility.yul\":4720:4734   */\n      pop\n        /* \"#utility.yul\":5016:5019   */\n      dup6\n        /* \"#utility.yul\":5009:5019   */\n      swap4\n      pop\n        /* \"#utility.yul\":4417:5025   */\n      pop\n      pop\n      pop\n        /* \"#utility.yul\":4293:5025   */\n      swap3\n      swap2\n      pop\n      pop\n      jump\t// out\n        /* \"#utility.yul\":5031:6583   */\n    tag_59:\n        /* \"#utility.yul\":5466:5470   */\n      0x00\n        /* \"#utility.yul\":5504:5507   */\n      0x0140\n        /* \"#utility.yul\":5493:5502   */\n      dup3\n        /* \"#utility.yul\":5489:5508   */\n      add\n        /* \"#utility.yul\":5481:5508   */\n      swap1\n      pop\n        /* \"#utility.yul\":5518:5589   */\n      tag_435\n        /* \"#utility.yul\":5586:5587   */\n      0x00\n        /* \"#utility.yul\":5575:5584   */\n      dup4\n        /* \"#utility.yul\":5571:5588   */\n      add\n        /* \"#utility.yul\":5562:5568   */\n      dup14\n        /* \"#utility.yul\":5518:5589   */\n      tag_305\n      jump\t// in\n    tag_435:\n        /* \"#utility.yul\":5599:5671   */\n      tag_436\n        /* \"#utility.yul\":5667:5669   */\n      0x20\n        /* \"#utility.yul\":5656:5665   */\n      dup4\n        /* \"#utility.yul\":5652:5670   */\n      add\n        /* \"#utility.yul\":5643:5649   */\n      dup13\n        /* \"#utility.yul\":5599:5671   */\n      tag_305\n      jump\t// in\n    tag_436:\n        /* \"#utility.yul\":5681:5753   */\n      tag_437\n        /* \"#utility.yul\":5749:5751   */\n      0x40\n        /* \"#utility.yul\":5738:5747   */\n      dup4\n        /* \"#utility.yul\":5734:5752   */\n      add\n        /* \"#utility.yul\":5725:5731   */\n      dup12\n        /* \"#utility.yul\":5681:5753   */\n      tag_305\n      jump\t// in\n    tag_437:\n        /* \"#utility.yul\":5763:5835   */\n      tag_438\n        /* \"#utility.yul\":5831:5833   */\n      0x60\n        /* \"#utility.yul\":5820:5829   */\n      dup4\n        /* \"#utility.yul\":5816:5834   */\n      add\n        /* \"#utility.yul\":5807:5813   */\n      dup11\n        /* \"#utility.yul\":5763:5835   */\n      tag_320\n      jump\t// in\n    tag_438:\n        /* \"#utility.yul\":5845:5918   */\n      tag_439\n        /* \"#utility.yul\":5913:5916   */\n      0x80\n        /* \"#utility.yul\":5902:5911   */\n      dup4\n        /* \"#utility.yul\":5898:5917   */\n      add\n        /* \"#utility.yul\":5889:5895   */\n      dup10\n        /* \"#utility.yul\":5845:5918   */\n      tag_305\n      jump\t// in\n    tag_439:\n        /* \"#utility.yul\":5966:5975   */\n      dup2\n        /* \"#utility.yul\":5960:5964   */\n      dup2\n        /* \"#utility.yul\":5956:5976   */\n      sub\n        /* \"#utility.yul\":5950:5953   */\n      0xa0\n        /* \"#utility.yul\":5939:5948   */\n      dup4\n        /* \"#utility.yul\":5935:5954   */\n      add\n        /* \"#utility.yul\":5928:5977   */\n      mstore\n        /* \"#utility.yul\":5994:6072   */\n      tag_440\n        /* \"#utility.yul\":6067:6071   */\n      dup2\n        /* \"#utility.yul\":6058:6064   */\n      dup9\n        /* \"#utility.yul\":5994:6072   */\n      tag_319\n      jump\t// in\n    tag_440:\n        /* \"#utility.yul\":5986:6072   */\n      swap1\n      pop\n        /* \"#utility.yul\":6120:6129   */\n      dup2\n        /* \"#utility.yul\":6114:6118   */\n      dup2\n        /* \"#utility.yul\":6110:6130   */\n      sub\n        /* \"#utility.yul\":6104:6107   */\n      0xc0\n        /* \"#utility.yul\":6093:6102   */\n      dup4\n        /* \"#utility.yul\":6089:6108   */\n      add\n        /* \"#utility.yul\":6082:6131   */\n      mstore\n        /* \"#utility.yul\":6148:6226   */\n      tag_441\n        /* \"#utility.yul\":6221:6225   */\n      dup2\n        /* \"#utility.yul\":6212:6218   */\n      dup8\n        /* \"#utility.yul\":6148:6226   */\n      tag_319\n      jump\t// in\n    tag_441:\n        /* \"#utility.yul\":6140:6226   */\n      swap1\n      pop\n        /* \"#utility.yul\":6236:6309   */\n      tag_442\n        /* \"#utility.yul\":6304:6307   */\n      0xe0\n        /* \"#utility.yul\":6293:6302   */\n      dup4\n        /* \"#utility.yul\":6289:6308   */\n      add\n        /* \"#utility.yul\":6280:6286   */\n      dup7\n        /* \"#utility.yul\":6236:6309   */\n      tag_320\n      jump\t// in\n    tag_442:\n        /* \"#utility.yul\":6357:6366   */\n      dup2\n        /* \"#utility.yul\":6351:6355   */\n      dup2\n        /* \"#utility.yul\":6347:6367   */\n      sub\n        /* \"#utility.yul\":6341:6344   */\n      0x0100\n        /* \"#utility.yul\":6330:6339   */\n      dup4\n        /* \"#utility.yul\":6326:6345   */\n      add\n        /* \"#utility.yul\":6319:6368   */\n      mstore\n        /* \"#utility.yul\":6385:6493   */\n      tag_443\n        /* \"#utility.yul\":6488:6492   */\n      dup2\n        /* \"#utility.yul\":6479:6485   */\n      dup6\n        /* \"#utility.yul\":6385:6493   */\n      tag_327\n      jump\t// in\n    tag_443:\n        /* \"#utility.yul\":6377:6493   */\n      swap1\n      pop\n        /* \"#utility.yul\":6503:6576   */\n      tag_444\n        /* \"#utility.yul\":6571:6574   */\n      0x0120\n        /* \"#utility.yul\":6560:6569   */\n      dup4\n        /* \"#utility.yul\":6556:6575   */\n      add\n        /* \"#utility.yul\":6547:6553   */\n      dup5\n        /* \"#utility.yul\":6503:6576   */\n      tag_305\n      jump\t// in\n    tag_444:\n        /* \"#utility.yul\":5031:6583   */\n      swap12\n      swap11\n      pop\n      pop\n      pop\n      pop\n      pop\n      pop\n      pop\n      pop\n      pop\n      pop\n      pop\n      jump\t// out\n        /* \"#utility.yul\":6589:6811   */\n    tag_64:\n        /* \"#utility.yul\":6682:6686   */\n      0x00\n        /* \"#utility.yul\":6720:6722   */\n      0x20\n        /* \"#utility.yul\":6709:6718   */\n      dup3\n        /* \"#utility.yul\":6705:6723   */\n      add\n        /* \"#utility.yul\":6697:6723   */\n      swap1\n      pop\n        /* \"#utility.yul\":6733:6804   */\n      tag_446\n        /* \"#utility.yul\":6801:6802   */\n      0x00\n        /* \"#utility.yul\":6790:6799   */\n      dup4\n        /* \"#utility.yul\":6786:6803   */\n      add\n        /* \"#utility.yul\":6777:6783   */\n      dup5\n        /* \"#utility.yul\":6733:6804   */\n      tag_320\n      jump\t// in\n    tag_446:\n        /* \"#utility.yul\":6589:6811   */\n      swap3\n      swap2\n      pop\n      pop\n      jump\t// out\n        /* \"#utility.yul\":6817:6950   */\n    tag_328:\n        /* \"#utility.yul\":6903:6909   */\n      0x00\n        /* \"#utility.yul\":6937:6942   */\n      dup2\n        /* \"#utility.yul\":6931:6943   */\n      mload\n        /* \"#utility.yul\":6921:6943   */\n      swap1\n      pop\n        /* \"#utility.yul\":6817:6950   */\n      swap2\n      swap1\n      pop\n      jump\t// out\n        /* \"#utility.yul\":6956:7159   */\n    tag_329:\n        /* \"#utility.yul\":7074:7085   */\n      0x00\n        /* \"#utility.yul\":7108:7114   */\n      dup3\n        /* \"#utility.yul\":7103:7106   */\n      dup3\n        /* \"#utility.yul\":7096:7115   */\n      mstore\n        /* \"#utility.yul\":7148:7152   */\n      0x20\n        /* \"#utility.yul\":7143:7146   */\n      dup3\n        /* \"#utility.yul\":7139:7153   */\n      add\n        /* \"#utility.yul\":7124:7153   */\n      swap1\n      pop\n        /* \"#utility.yul\":6956:7159   */\n      swap3\n      swap2\n      pop\n      pop\n      jump\t// out\n        /* \"#utility.yul\":7165:7316   */\n    tag_330:\n        /* \"#utility.yul\":7251:7255   */\n      0x00\n        /* \"#utility.yul\":7274:7277   */\n      dup2\n        /* \"#utility.yul\":7266:7277   */\n      swap1\n      pop\n        /* \"#utility.yul\":7304:7308   */\n      0x20\n        /* \"#utility.yul\":7299:7302   */\n      dup3\n        /* \"#utility.yul\":7295:7309   */\n      add\n        /* \"#utility.yul\":7287:7309   */\n      swap1\n      pop\n        /* \"#utility.yul\":7165:7316   */\n      swap2\n      swap1\n      pop\n      jump\t// out\n        /* \"#utility.yul\":7322:7430   */\n    tag_331:\n        /* \"#utility.yul\":7399:7423   */\n      tag_451\n        /* \"#utility.yul\":7417:7422   */\n      dup2\n        /* \"#utility.yul\":7399:7423   */\n      tag_304\n      jump\t// in\n    tag_451:\n        /* \"#utility.yul\":7394:7397   */\n      dup3\n        /* \"#utility.yul\":7387:7424   */\n      mstore\n        /* \"#utility.yul\":7322:7430   */\n      pop\n      pop\n      jump\t// out\n        /* \"#utility.yul\":7486:8155   */\n    tag_332:\n        /* \"#utility.yul\":7611:7615   */\n      0x60\n        /* \"#utility.yul\":7606:7609   */\n      dup3\n        /* \"#utility.yul\":7602:7616   */\n      add\n        /* \"#utility.yul\":7699:7703   */\n      0x00\n        /* \"#utility.yul\":7692:7697   */\n      dup3\n        /* \"#utility.yul\":7688:7704   */\n      add\n        /* \"#utility.yul\":7682:7705   */\n      mload\n        /* \"#utility.yul\":7718:7781   */\n      tag_453\n        /* \"#utility.yul\":7775:7779   */\n      0x00\n        /* \"#utility.yul\":7770:7773   */\n      dup6\n        /* \"#utility.yul\":7766:7780   */\n      add\n        /* \"#utility.yul\":7752:7764   */\n      dup3\n        /* \"#utility.yul\":7718:7781   */\n      tag_331\n      jump\t// in\n    tag_453:\n        /* \"#utility.yul\":7626:7791   */\n      pop\n        /* \"#utility.yul\":7873:7877   */\n      0x20\n        /* \"#utility.yul\":7866:7871   */\n      dup3\n        /* \"#utility.yul\":7862:7878   */\n      add\n        /* \"#utility.yul\":7856:7879   */\n      mload\n        /* \"#utility.yul\":7892:7955   */\n      tag_454\n        /* \"#utility.yul\":7949:7953   */\n      0x20\n        /* \"#utility.yul\":7944:7947   */\n      dup6\n        /* \"#utility.yul\":7940:7954   */\n      add\n        /* \"#utility.yul\":7926:7938   */\n      dup3\n        /* \"#utility.yul\":7892:7955   */\n      tag_331\n      jump\t// in\n    tag_454:\n        /* \"#utility.yul\":7801:7965   */\n      pop\n        /* \"#utility.yul\":8056:8060   */\n      0x40\n        /* \"#utility.yul\":8049:8054   */\n      dup3\n        /* \"#utility.yul\":8045:8061   */\n      add\n        /* \"#utility.yul\":8039:8062   */\n      mload\n        /* \"#utility.yul\":8075:8138   */\n      tag_455\n        /* \"#utility.yul\":8132:8136   */\n      0x40\n        /* \"#utility.yul\":8127:8130   */\n      dup6\n        /* \"#utility.yul\":8123:8137   */\n      add\n        /* \"#utility.yul\":8109:8121   */\n      dup3\n        /* \"#utility.yul\":8075:8138   */\n      tag_324\n      jump\t// in\n    tag_455:\n        /* \"#utility.yul\":7975:8148   */\n      pop\n        /* \"#utility.yul\":7580:8155   */\n      pop\n        /* \"#utility.yul\":7486:8155   */\n      pop\n      pop\n      jump\t// out\n        /* \"#utility.yul\":8161:8416   */\n    tag_333:\n        /* \"#utility.yul\":8268:8278   */\n      0x00\n        /* \"#utility.yul\":8289:8373   */\n      tag_457\n        /* \"#utility.yul\":8369:8372   */\n      dup4\n        /* \"#utility.yul\":8361:8367   */\n      dup4\n        /* \"#utility.yul\":8289:8373   */\n      tag_332\n      jump\t// in\n    tag_457:\n        /* \"#utility.yul\":8405:8409   */\n      0x60\n        /* \"#utility.yul\":8400:8403   */\n      dup4\n        /* \"#utility.yul\":8396:8410   */\n      add\n        /* \"#utility.yul\":8382:8410   */\n      swap1\n      pop\n        /* \"#utility.yul\":8161:8416   */\n      swap3\n      swap2\n      pop\n      pop\n      jump\t// out\n        /* \"#utility.yul\":8422:8554   */\n    tag_334:\n        /* \"#utility.yul\":8511:8515   */\n      0x00\n        /* \"#utility.yul\":8543:8547   */\n      0x20\n        /* \"#utility.yul\":8538:8541   */\n      dup3\n        /* \"#utility.yul\":8534:8548   */\n      add\n        /* \"#utility.yul\":8526:8548   */\n      swap1\n      pop\n        /* \"#utility.yul\":8422:8554   */\n      swap2\n      swap1\n      pop\n      jump\t// out\n        /* \"#utility.yul\":8614:9498   */\n    tag_335:\n        /* \"#utility.yul\":8771:8774   */\n      0x00\n        /* \"#utility.yul\":8800:8873   */\n      tag_460\n        /* \"#utility.yul\":8867:8872   */\n      dup3\n        /* \"#utility.yul\":8800:8873   */\n      tag_328\n      jump\t// in\n    tag_460:\n        /* \"#utility.yul\":8889:8994   */\n      tag_461\n        /* \"#utility.yul\":8987:8993   */\n      dup2\n        /* \"#utility.yul\":8982:8985   */\n      dup6\n        /* \"#utility.yul\":8889:8994   */\n      tag_329\n      jump\t// in\n    tag_461:\n        /* \"#utility.yul\":8882:8994   */\n      swap4\n      pop\n        /* \"#utility.yul\":9018:9093   */\n      tag_462\n        /* \"#utility.yul\":9087:9092   */\n      dup4\n        /* \"#utility.yul\":9018:9093   */\n      tag_330\n      jump\t// in\n    tag_462:\n        /* \"#utility.yul\":9116:9123   */\n      dup1\n        /* \"#utility.yul\":9147:9148   */\n      0x00\n        /* \"#utility.yul\":9132:9473   */\n    tag_463:\n        /* \"#utility.yul\":9157:9163   */\n      dup4\n        /* \"#utility.yul\":9154:9155   */\n      dup2\n        /* \"#utility.yul\":9151:9164   */\n      lt\n        /* \"#utility.yul\":9132:9473   */\n      iszero\n      tag_465\n      jumpi\n        /* \"#utility.yul\":9233:9239   */\n      dup2\n        /* \"#utility.yul\":9227:9240   */\n      mload\n        /* \"#utility.yul\":9260:9361   */\n      tag_466\n        /* \"#utility.yul\":9357:9360   */\n      dup9\n        /* \"#utility.yul\":9342:9355   */\n      dup3\n        /* \"#utility.yul\":9260:9361   */\n      tag_333\n      jump\t// in\n    tag_466:\n        /* \"#utility.yul\":9253:9361   */\n      swap8\n      pop\n        /* \"#utility.yul\":9384:9463   */\n      tag_467\n        /* \"#utility.yul\":9456:9462   */\n      dup4\n        /* \"#utility.yul\":9384:9463   */\n      tag_334\n      jump\t// in\n    tag_467:\n        /* \"#utility.yul\":9374:9463   */\n      swap3\n      pop\n        /* \"#utility.yul\":9192:9473   */\n      pop\n        /* \"#utility.yul\":9179:9180   */\n      0x01\n        /* \"#utility.yul\":9176:9177   */\n      dup2\n        /* \"#utility.yul\":9172:9181   */\n      add\n        /* \"#utility.yul\":9167:9181   */\n      swap1\n      pop\n        /* \"#utility.yul\":9132:9473   */\n      jump(tag_463)\n    tag_465:\n        /* \"#utility.yul\":9136:9150   */\n      pop\n        /* \"#utility.yul\":9489:9492   */\n      dup6\n        /* \"#utility.yul\":9482:9492   */\n      swap4\n      pop\n        /* \"#utility.yul\":8776:9498   */\n      pop\n      pop\n      pop\n        /* \"#utility.yul\":8614:9498   */\n      swap3\n      swap2\n      pop\n      pop\n      jump\t// out\n        /* \"#utility.yul\":9504:9953   */\n    tag_94:\n        /* \"#utility.yul\":9685:9689   */\n      0x00\n        /* \"#utility.yul\":9723:9725   */\n      0x20\n        /* \"#utility.yul\":9712:9721   */\n      dup3\n        /* \"#utility.yul\":9708:9726   */\n      add\n        /* \"#utility.yul\":9700:9726   */\n      swap1\n      pop\n        /* \"#utility.yul\":9772:9781   */\n      dup2\n        /* \"#utility.yul\":9766:9770   */\n      dup2\n        /* \"#utility.yul\":9762:9782   */\n      sub\n        /* \"#utility.yul\":9758:9759   */\n      0x00\n        /* \"#utility.yul\":9747:9756   */\n      dup4\n        /* \"#utility.yul\":9743:9760   */\n      add\n        /* \"#utility.yul\":9736:9783   */\n      mstore\n        /* \"#utility.yul\":9800:9946   */\n      tag_469\n        /* \"#utility.yul\":9941:9945   */\n      dup2\n        /* \"#utility.yul\":9932:9938   */\n      dup5\n        /* \"#utility.yul\":9800:9946   */\n      tag_335\n      jump\t// in\n    tag_469:\n        /* \"#utility.yul\":9792:9946   */\n      swap1\n      pop\n        /* \"#utility.yul\":9504:9953   */\n      swap3\n      swap2\n      pop\n      pop\n      jump\t// out\n        /* \"#utility.yul\":9959:10081   */\n    tag_336:\n        /* \"#utility.yul\":10032:10056   */\n      tag_471\n        /* \"#utility.yul\":10050:10055   */\n      dup2\n        /* \"#utility.yul\":10032:10056   */\n      tag_304\n      jump\t// in\n    tag_471:\n        /* \"#utility.yul\":10025:10030   */\n      dup2\n        /* \"#utility.yul\":10022:10057   */\n      eq\n        /* \"#utility.yul\":10012:10075   */\n      tag_472\n      jumpi\n        /* \"#utility.yul\":10071:10072   */\n      0x00\n        /* \"#utility.yul\":10068:10069   */\n      0x00\n        /* \"#utility.yul\":10061:10073   */\n      revert\n        /* \"#utility.yul\":10012:10075   */\n    tag_472:\n        /* \"#utility.yul\":9959:10081   */\n      pop\n      jump\t// out\n        /* \"#utility.yul\":10087:10226   */\n    tag_337:\n        /* \"#utility.yul\":10133:10138   */\n      0x00\n        /* \"#utility.yul\":10171:10177   */\n      dup2\n        /* \"#utility.yul\":10158:10178   */\n      calldataload\n        /* \"#utility.yul\":10149:10178   */\n      swap1\n      pop\n        /* \"#utility.yul\":10187:10220   */\n      tag_474\n        /* \"#utility.yul\":10214:10219   */\n      dup2\n        /* \"#utility.yul\":10187:10220   */\n      tag_336\n      jump\t// in\n    tag_474:\n        /* \"#utility.yul\":10087:10226   */\n      swap3\n      swap2\n      pop\n      pop\n      jump\t// out\n        /* \"#utility.yul\":10232:10561   */\n    tag_109:\n        /* \"#utility.yul\":10291:10297   */\n      0x00\n        /* \"#utility.yul\":10340:10342   */\n      0x20\n        /* \"#utility.yul\":10328:10337   */\n      dup3\n        /* \"#utility.yul\":10319:10326   */\n      dup5\n        /* \"#utility.yul\":10315:10338   */\n      sub\n        /* \"#utility.yul\":10311:10343   */\n      slt\n        /* \"#utility.yul\":10308:10427   */\n      iszero\n      tag_476\n      jumpi\n        /* \"#utility.yul\":10346:10425   */\n      tag_477\n      tag_307\n      jump\t// in\n    tag_477:\n        /* \"#utility.yul\":10308:10427   */\n    tag_476:\n        /* \"#utility.yul\":10466:10467   */\n      0x00\n        /* \"#utility.yul\":10491:10544   */\n      tag_478\n        /* \"#utility.yul\":10536:10543   */\n      dup5\n        /* \"#utility.yul\":10527:10533   */\n      dup3\n        /* \"#utility.yul\":10516:10525   */\n      dup6\n        /* \"#utility.yul\":10512:10534   */\n      add\n        /* \"#utility.yul\":10491:10544   */\n      tag_337\n      jump\t// in\n    tag_478:\n        /* \"#utility.yul\":10481:10544   */\n      swap2\n      pop\n        /* \"#utility.yul\":10437:10554   */\n      pop\n        /* \"#utility.yul\":10232:10561   */\n      swap3\n      swap2\n      pop\n      pop\n      jump\t// out\n        /* \"#utility.yul\":10567:11009   */\n    tag_112:\n        /* \"#utility.yul\":10716:10720   */\n      0x00\n        /* \"#utility.yul\":10754:10756   */\n      0x60\n        /* \"#utility.yul\":10743:10752   */\n      dup3\n        /* \"#utility.yul\":10739:10757   */\n      add\n        /* \"#utility.yul\":10731:10757   */\n      swap1\n      pop\n        /* \"#utility.yul\":10767:10838   */\n      tag_480\n        /* \"#utility.yul\":10835:10836   */\n      0x00\n        /* \"#utility.yul\":10824:10833   */\n      dup4\n        /* \"#utility.yul\":10820:10837   */\n      add\n        /* \"#utility.yul\":10811:10817   */\n      dup7\n        /* \"#utility.yul\":10767:10838   */\n      tag_305\n      jump\t// in\n    tag_480:\n        /* \"#utility.yul\":10848:10920   */\n      tag_481\n        /* \"#utility.yul\":10916:10918   */\n      0x20\n        /* \"#utility.yul\":10905:10914   */\n      dup4\n        /* \"#utility.yul\":10901:10919   */\n      add\n        /* \"#utility.yul\":10892:10898   */\n      dup6\n        /* \"#utility.yul\":10848:10920   */\n      tag_305\n      jump\t// in\n    tag_481:\n        /* \"#utility.yul\":10930:11002   */\n      tag_482\n        /* \"#utility.yul\":10998:11000   */\n      0x40\n        /* \"#utility.yul\":10987:10996   */\n      dup4\n        /* \"#utility.yul\":10983:11001   */\n      add\n        /* \"#utility.yul\":10974:10980   */\n      dup5\n        /* \"#utility.yul\":10930:11002   */\n      tag_320\n      jump\t// in\n    tag_482:\n        /* \"#utility.yul\":10567:11009   */\n      swap5\n      swap4\n      pop\n      pop\n      pop\n      pop\n      jump\t// out\n        /* \"#utility.yul\":11015:11388   */\n    tag_117:\n        /* \"#utility.yul\":11158:11162   */\n      0x00\n        /* \"#utility.yul\":11196:11198   */\n      0x20\n        /* \"#utility.yul\":11185:11194   */\n      dup3\n        /* \"#utility.yul\":11181:11199   */\n      add\n        /* \"#utility.yul\":11173:11199   */\n      swap1\n      pop\n        /* \"#utility.yul\":11245:11254   */\n      dup2\n        /* \"#utility.yul\":11239:11243   */\n      dup2\n        /* \"#utility.yul\":11235:11255   */\n      sub\n        /* \"#utility.yul\":11231:11232   */\n      0x00\n        /* \"#utility.yul\":11220:11229   */\n      dup4\n        /* \"#utility.yul\":11216:11233   */\n      add\n        /* \"#utility.yul\":11209:11256   */\n      mstore\n        /* \"#utility.yul\":11273:11381   */\n      tag_484\n        /* \"#utility.yul\":11376:11380   */\n      dup2\n        /* \"#utility.yul\":11367:11373   */\n      dup5\n        /* \"#utility.yul\":11273:11381   */\n      tag_327\n      jump\t// in\n    tag_484:\n        /* \"#utility.yul\":11265:11381   */\n      swap1\n      pop\n        /* \"#utility.yul\":11015:11388   */\n      swap3\n      swap2\n      pop\n      pop\n      jump\t// out\n        /* \"#utility.yul\":11394:11454   */\n    tag_338:\n        /* \"#utility.yul\":11422:11425   */\n      0x00\n        /* \"#utility.yul\":11443:11448   */\n      dup2\n        /* \"#utility.yul\":11436:11448   */\n      swap1\n      pop\n        /* \"#utility.yul\":11394:11454   */\n      swap2\n      swap1\n      pop\n      jump\t// out\n        /* \"#utility.yul\":11460:11602   */\n    tag_339:\n        /* \"#utility.yul\":11510:11519   */\n      0x00\n        /* \"#utility.yul\":11543:11596   */\n      tag_487\n        /* \"#utility.yul\":11561:11595   */\n      tag_488\n        /* \"#utility.yul\":11570:11594   */\n      tag_489\n        /* \"#utility.yul\":11588:11593   */\n      dup5\n        /* \"#utility.yul\":11570:11594   */\n      tag_309\n      jump\t// in\n    tag_489:\n        /* \"#utility.yul\":11561:11595   */\n      tag_338\n      jump\t// in\n    tag_488:\n        /* \"#utility.yul\":11543:11596   */\n      tag_309\n      jump\t// in\n    tag_487:\n        /* \"#utility.yul\":11530:11596   */\n      swap1\n      pop\n        /* \"#utility.yul\":11460:11602   */\n      swap2\n      swap1\n      pop\n      jump\t// out\n        /* \"#utility.yul\":11608:11734   */\n    tag_340:\n        /* \"#utility.yul\":11658:11667   */\n      0x00\n        /* \"#utility.yul\":11691:11728   */\n      tag_491\n        /* \"#utility.yul\":11722:11727   */\n      dup3\n        /* \"#utility.yul\":11691:11728   */\n      tag_339\n      jump\t// in\n    tag_491:\n        /* \"#utility.yul\":11678:11728   */\n      swap1\n      pop\n        /* \"#utility.yul\":11608:11734   */\n      swap2\n      swap1\n      pop\n      jump\t// out\n        /* \"#utility.yul\":11740:11889   */\n    tag_341:\n        /* \"#utility.yul\":11813:11822   */\n      0x00\n        /* \"#utility.yul\":11846:11883   */\n      tag_493\n        /* \"#utility.yul\":11877:11882   */\n      dup3\n        /* \"#utility.yul\":11846:11883   */\n      tag_340\n      jump\t// in\n    tag_493:\n        /* \"#utility.yul\":11833:11883   */\n      swap1\n      pop\n        /* \"#utility.yul\":11740:11889   */\n      swap2\n      swap1\n      pop\n      jump\t// out\n        /* \"#utility.yul\":11895:12072   */\n    tag_342:\n        /* \"#utility.yul\":12005:12065   */\n      tag_495\n        /* \"#utility.yul\":12059:12064   */\n      dup2\n        /* \"#utility.yul\":12005:12065   */\n      tag_341\n      jump\t// in\n    tag_495:\n        /* \"#utility.yul\":12000:12003   */\n      dup3\n        /* \"#utility.yul\":11993:12066   */\n      mstore\n        /* \"#utility.yul\":11895:12072   */\n      pop\n      pop\n      jump\t// out\n        /* \"#utility.yul\":12078:12346   */\n    tag_122:\n        /* \"#utility.yul\":12194:12198   */\n      0x00\n        /* \"#utility.yul\":12232:12234   */\n      0x20\n        /* \"#utility.yul\":12221:12230   */\n      dup3\n        /* \"#utility.yul\":12217:12235   */\n      add\n        /* \"#utility.yul\":12209:12235   */\n      swap1\n      pop\n        /* \"#utility.yul\":12245:12339   */\n      tag_497\n        /* \"#utility.yul\":12336:12337   */\n      0x00\n        /* \"#utility.yul\":12325:12334   */\n      dup4\n        /* \"#utility.yul\":12321:12338   */\n      add\n        /* \"#utility.yul\":12312:12318   */\n      dup5\n        /* \"#utility.yul\":12245:12339   */\n      tag_342\n      jump\t// in\n    tag_497:\n        /* \"#utility.yul\":12078:12346   */\n      swap3\n      swap2\n      pop\n      pop\n      jump\t// out\n        /* \"#utility.yul\":12352:12523   */\n    tag_343:\n        /* \"#utility.yul\":12492:12515   */\n      0x41756374696f6e206e6f742066696e616c697a65640000000000000000000000\n        /* \"#utility.yul\":12488:12489   */\n      0x00\n        /* \"#utility.yul\":12480:12486   */\n      dup3\n        /* \"#utility.yul\":12476:12490   */\n      add\n        /* \"#utility.yul\":12469:12516   */\n      mstore\n        /* \"#utility.yul\":12352:12523   */\n      pop\n      jump\t// out\n        /* \"#utility.yul\":12529:12895   */\n    tag_344:\n        /* \"#utility.yul\":12671:12674   */\n      0x00\n        /* \"#utility.yul\":12692:12759   */\n      tag_500\n        /* \"#utility.yul\":12756:12758   */\n      0x15\n        /* \"#utility.yul\":12751:12754   */\n      dup4\n        /* \"#utility.yul\":12692:12759   */\n      tag_316\n      jump\t// in\n    tag_500:\n        /* \"#utility.yul\":12685:12759   */\n      swap2\n      pop\n        /* \"#utility.yul\":12768:12861   */\n      tag_501\n        /* \"#utility.yul\":12857:12860   */\n      dup3\n        /* \"#utility.yul\":12768:12861   */\n      tag_343\n      jump\t// in\n    tag_501:\n        /* \"#utility.yul\":12886:12888   */\n      0x20\n        /* \"#utility.yul\":12881:12884   */\n      dup3\n        /* \"#utility.yul\":12877:12889   */\n      add\n        /* \"#utility.yul\":12870:12889   */\n      swap1\n      pop\n        /* \"#utility.yul\":12529:12895   */\n      swap2\n      swap1\n      pop\n      jump\t// out\n        /* \"#utility.yul\":12901:13320   */\n    tag_146:\n        /* \"#utility.yul\":13067:13071   */\n      0x00\n        /* \"#utility.yul\":13105:13107   */\n      0x20\n        /* \"#utility.yul\":13094:13103   */\n      dup3\n        /* \"#utility.yul\":13090:13108   */\n      add\n        /* \"#utility.yul\":13082:13108   */\n      swap1\n      pop\n        /* \"#utility.yul\":13154:13163   */\n      dup2\n        /* \"#utility.yul\":13148:13152   */\n      dup2\n        /* \"#utility.yul\":13144:13164   */\n      sub\n        /* \"#utility.yul\":13140:13141   */\n      0x00\n        /* \"#utility.yul\":13129:13138   */\n      dup4\n        /* \"#utility.yul\":13125:13142   */\n      add\n        /* \"#utility.yul\":13118:13165   */\n      mstore\n        /* \"#utility.yul\":13182:13313   */\n      tag_503\n        /* \"#utility.yul\":13308:13312   */\n      dup2\n        /* \"#utility.yul\":13182:13313   */\n      tag_344\n      jump\t// in\n    tag_503:\n        /* \"#utility.yul\":13174:13313   */\n      swap1\n      pop\n        /* \"#utility.yul\":12901:13320   */\n      swap2\n      swap1\n      pop\n      jump\t// out\n        /* \"#utility.yul\":13326:13496   */\n    tag_345:\n        /* \"#utility.yul\":13466:13488   */\n      0x57696e6e657220686173206e6f20726566756e64000000000000000000000000\n        /* \"#utility.yul\":13462:13463   */\n      0x00\n        /* \"#utility.yul\":13454:13460   */\n      dup3\n        /* \"#utility.yul\":13450:13464   */\n      add\n        /* \"#utility.yul\":13443:13489   */\n      mstore\n        /* \"#utility.yul\":13326:13496   */\n      pop\n      jump\t// out\n        /* \"#utility.yul\":13502:13868   */\n    tag_346:\n        /* \"#utility.yul\":13644:13647   */\n      0x00\n        /* \"#utility.yul\":13665:13732   */\n      tag_506\n        /* \"#utility.yul\":13729:13731   */\n      0x14\n        /* \"#utility.yul\":13724:13727   */\n      dup4\n        /* \"#utility.yul\":13665:13732   */\n      tag_316\n      jump\t// in\n    tag_506:\n        /* \"#utility.yul\":13658:13732   */\n      swap2\n      pop\n        /* \"#utility.yul\":13741:13834   */\n      tag_507\n        /* \"#utility.yul\":13830:13833   */\n      dup3\n        /* \"#utility.yul\":13741:13834   */\n      tag_345\n      jump\t// in\n    tag_507:\n        /* \"#utility.yul\":13859:13861   */\n      0x20\n        /* \"#utility.yul\":13854:13857   */\n      dup3\n        /* \"#utility.yul\":13850:13862   */\n      add\n        /* \"#utility.yul\":13843:13862   */\n      swap1\n      pop\n        /* \"#utility.yul\":13502:13868   */\n      swap2\n      swap1\n      pop\n      jump\t// out\n        /* \"#utility.yul\":13874:14293   */\n    tag_149:\n        /* \"#utility.yul\":14040:14044   */\n      0x00\n        /* \"#utility.yul\":14078:14080   */\n      0x20\n        /* \"#utility.yul\":14067:14076   */\n      dup3\n        /* \"#utility.yul\":14063:14081   */\n      add\n        /* \"#utility.yul\":14055:14081   */\n      swap1\n      pop\n        /* \"#utility.yul\":14127:14136   */\n      dup2\n        /* \"#utility.yul\":14121:14125   */\n      dup2\n        /* \"#utility.yul\":14117:14137   */\n      sub\n        /* \"#utility.yul\":14113:14114   */\n      0x00\n        /* \"#utility.yul\":14102:14111   */\n      dup4\n        /* \"#utility.yul\":14098:14115   */\n      add\n        /* \"#utility.yul\":14091:14138   */\n      mstore\n        /* \"#utility.yul\":14155:14286   */\n      tag_509\n        /* \"#utility.yul\":14281:14285   */\n      dup2\n        /* \"#utility.yul\":14155:14286   */\n      tag_346\n      jump\t// in\n    tag_509:\n        /* \"#utility.yul\":14147:14286   */\n      swap1\n      pop\n        /* \"#utility.yul\":13874:14293   */\n      swap2\n      swap1\n      pop\n      jump\t// out\n        /* \"#utility.yul\":14299:14468   */\n    tag_347:\n        /* \"#utility.yul\":14439:14460   */\n      0x4e6f20726566756e6420617661696c61626c6500000000000000000000000000\n        /* \"#utility.yul\":14435:14436   */\n      0x00\n        /* \"#utility.yul\":14427:14433   */\n      dup3\n        /* \"#utility.yul\":14423:14437   */\n      add\n        /* \"#utility.yul\":14416:14461   */\n      mstore\n        /* \"#utility.yul\":14299:14468   */\n      pop\n      jump\t// out\n        /* \"#utility.yul\":14474:14840   */\n    tag_348:\n        /* \"#utility.yul\":14616:14619   */\n      0x00\n        /* \"#utility.yul\":14637:14704   */\n      tag_512\n        /* \"#utility.yul\":14701:14703   */\n      0x13\n        /* \"#utility.yul\":14696:14699   */\n      dup4\n        /* \"#utility.yul\":14637:14704   */\n      tag_316\n      jump\t// in\n    tag_512:\n        /* \"#utility.yul\":14630:14704   */\n      swap2\n      pop\n        /* \"#utility.yul\":14713:14806   */\n      tag_513\n        /* \"#utility.yul\":14802:14805   */\n      dup3\n        /* \"#utility.yul\":14713:14806   */\n      tag_347\n      jump\t// in\n    tag_513:\n        /* \"#utility.yul\":14831:14833   */\n      0x20\n        /* \"#utility.yul\":14826:14829   */\n      dup3\n        /* \"#utility.yul\":14822:14834   */\n      add\n        /* \"#utility.yul\":14815:14834   */\n      swap1\n      pop\n        /* \"#utility.yul\":14474:14840   */\n      swap2\n      swap1\n      pop\n      jump\t// out\n        /* \"#utility.yul\":14846:15265   */\n    tag_152:\n        /* \"#utility.yul\":15012:15016   */\n      0x00\n        /* \"#utility.yul\":15050:15052   */\n      0x20\n        /* \"#utility.yul\":15039:15048   */\n      dup3\n        /* \"#utility.yul\":15035:15053   */\n      add\n        /* \"#utility.yul\":15027:15053   */\n      swap1\n      pop\n        /* \"#utility.yul\":15099:15108   */\n      dup2\n        /* \"#utility.yul\":15093:15097   */\n      dup2\n        /* \"#utility.yul\":15089:15109   */\n      sub\n        /* \"#utility.yul\":15085:15086   */\n      0x00\n        /* \"#utility.yul\":15074:15083   */\n      dup4\n        /* \"#utility.yul\":15070:15087   */\n      add\n        /* \"#utility.yul\":15063:15110   */\n      mstore\n        /* \"#utility.yul\":15127:15258   */\n      tag_515\n        /* \"#utility.yul\":15253:15257   */\n      dup2\n        /* \"#utility.yul\":15127:15258   */\n      tag_348\n      jump\t// in\n    tag_515:\n        /* \"#utility.yul\":15119:15258   */\n      swap1\n      pop\n        /* \"#utility.yul\":14846:15265   */\n      swap2\n      swap1\n      pop\n      jump\t// out\n        /* \"#utility.yul\":15271:15418   */\n    tag_349:\n        /* \"#utility.yul\":15372:15383   */\n      0x00\n        /* \"#utility.yul\":15409:15412   */\n      dup2\n        /* \"#utility.yul\":15394:15412   */\n      swap1\n      pop\n        /* \"#utility.yul\":15271:15418   */\n      swap3\n      swap2\n      pop\n      pop\n      jump\t// out\n        /* \"#utility.yul\":15424:15538   */\n    tag_350:\n      pop\n      jump\t// out\n        /* \"#utility.yul\":15544:15942   */\n    tag_351:\n        /* \"#utility.yul\":15703:15706   */\n      0x00\n        /* \"#utility.yul\":15724:15807   */\n      tag_519\n        /* \"#utility.yul\":15805:15806   */\n      0x00\n        /* \"#utility.yul\":15800:15803   */\n      dup4\n        /* \"#utility.yul\":15724:15807   */\n      tag_349\n      jump\t// in\n    tag_519:\n        /* \"#utility.yul\":15717:15807   */\n      swap2\n      pop\n        /* \"#utility.yul\":15816:15909   */\n      tag_520\n        /* \"#utility.yul\":15905:15908   */\n      dup3\n        /* \"#utility.yul\":15816:15909   */\n      tag_350\n      jump\t// in\n    tag_520:\n        /* \"#utility.yul\":15934:15935   */\n      0x00\n        /* \"#utility.yul\":15929:15932   */\n      dup3\n        /* \"#utility.yul\":15925:15936   */\n      add\n        /* \"#utility.yul\":15918:15936   */\n      swap1\n      pop\n        /* \"#utility.yul\":15544:15942   */\n      swap2\n      swap1\n      pop\n      jump\t// out\n        /* \"#utility.yul\":15948:16327   */\n    tag_154:\n        /* \"#utility.yul\":16132:16135   */\n      0x00\n        /* \"#utility.yul\":16154:16301   */\n      tag_522\n        /* \"#utility.yul\":16297:16300   */\n      dup3\n        /* \"#utility.yul\":16154:16301   */\n      tag_351\n      jump\t// in\n    tag_522:\n        /* \"#utility.yul\":16147:16301   */\n      swap2\n      pop\n        /* \"#utility.yul\":16318:16321   */\n      dup2\n        /* \"#utility.yul\":16311:16321   */\n      swap1\n      pop\n        /* \"#utility.yul\":15948:16327   */\n      swap2\n      swap1\n      pop\n      jump\t// out\n        /* \"#utility.yul\":16333:16496   */\n    tag_352:\n        /* \"#utility.yul\":16473:16488   */\n      0x526566756e64206661696c656400000000000000000000000000000000000000\n        /* \"#utility.yul\":16469:16470   */\n      0x00\n        /* \"#utility.yul\":16461:16467   */\n      dup3\n        /* \"#utility.yul\":16457:16471   */\n      add\n        /* \"#utility.yul\":16450:16489   */\n      mstore\n        /* \"#utility.yul\":16333:16496   */\n      pop\n      jump\t// out\n        /* \"#utility.yul\":16502:16868   */\n    tag_353:\n        /* \"#utility.yul\":16644:16647   */\n      0x00\n        /* \"#utility.yul\":16665:16732   */\n      tag_525\n        /* \"#utility.yul\":16729:16731   */\n      0x0d\n        /* \"#utility.yul\":16724:16727   */\n      dup4\n        /* \"#utility.yul\":16665:16732   */\n      tag_316\n      jump\t// in\n    tag_525:\n        /* \"#utility.yul\":16658:16732   */\n      swap2\n      pop\n        /* \"#utility.yul\":16741:16834   */\n      tag_526\n        /* \"#utility.yul\":16830:16833   */\n      dup3\n        /* \"#utility.yul\":16741:16834   */\n      tag_352\n      jump\t// in\n    tag_526:\n        /* \"#utility.yul\":16859:16861   */\n      0x20\n        /* \"#utility.yul\":16854:16857   */\n      dup3\n        /* \"#utility.yul\":16850:16862   */\n      add\n        /* \"#utility.yul\":16843:16862   */\n      swap1\n      pop\n        /* \"#utility.yul\":16502:16868   */\n      swap2\n      swap1\n      pop\n      jump\t// out\n        /* \"#utility.yul\":16874:17293   */\n    tag_160:\n        /* \"#utility.yul\":17040:17044   */\n      0x00\n        /* \"#utility.yul\":17078:17080   */\n      0x20\n        /* \"#utility.yul\":17067:17076   */\n      dup3\n        /* \"#utility.yul\":17063:17081   */\n      add\n        /* \"#utility.yul\":17055:17081   */\n      swap1\n      pop\n        /* \"#utility.yul\":17127:17136   */\n      dup2\n        /* \"#utility.yul\":17121:17125   */\n      dup2\n        /* \"#utility.yul\":17117:17137   */\n      sub\n        /* \"#utility.yul\":17113:17114   */\n      0x00\n        /* \"#utility.yul\":17102:17111   */\n      dup4\n        /* \"#utility.yul\":17098:17115   */\n      add\n        /* \"#utility.yul\":17091:17138   */\n      mstore\n        /* \"#utility.yul\":17155:17286   */\n      tag_528\n        /* \"#utility.yul\":17281:17285   */\n      dup2\n        /* \"#utility.yul\":17155:17286   */\n      tag_353\n      jump\t// in\n    tag_528:\n        /* \"#utility.yul\":17147:17286   */\n      swap1\n      pop\n        /* \"#utility.yul\":16874:17293   */\n      swap2\n      swap1\n      pop\n      jump\t// out\n        /* \"#utility.yul\":17299:17480   */\n    tag_354:\n        /* \"#utility.yul\":17439:17472   */\n      0x4f6e6c792077696e6e65722063616e2061636365737320746865206461746100\n        /* \"#utility.yul\":17435:17436   */\n      0x00\n        /* \"#utility.yul\":17427:17433   */\n      dup3\n        /* \"#utility.yul\":17423:17437   */\n      add\n        /* \"#utility.yul\":17416:17473   */\n      mstore\n        /* \"#utility.yul\":17299:17480   */\n      pop\n      jump\t// out\n        /* \"#utility.yul\":17486:17852   */\n    tag_355:\n        /* \"#utility.yul\":17628:17631   */\n      0x00\n        /* \"#utility.yul\":17649:17716   */\n      tag_531\n        /* \"#utility.yul\":17713:17715   */\n      0x1f\n        /* \"#utility.yul\":17708:17711   */\n      dup4\n        /* \"#utility.yul\":17649:17716   */\n      tag_316\n      jump\t// in\n    tag_531:\n        /* \"#utility.yul\":17642:17716   */\n      swap2\n      pop\n        /* \"#utility.yul\":17725:17818   */\n      tag_532\n        /* \"#utility.yul\":17814:17817   */\n      dup3\n        /* \"#utility.yul\":17725:17818   */\n      tag_354\n      jump\t// in\n    tag_532:\n        /* \"#utility.yul\":17843:17845   */\n      0x20\n        /* \"#utility.yul\":17838:17841   */\n      dup3\n        /* \"#utility.yul\":17834:17846   */\n      add\n        /* \"#utility.yul\":17827:17846   */\n      swap1\n      pop\n        /* \"#utility.yul\":17486:17852   */\n      swap2\n      swap1\n      pop\n      jump\t// out\n        /* \"#utility.yul\":17858:18277   */\n    tag_167:\n        /* \"#utility.yul\":18024:18028   */\n      0x00\n        /* \"#utility.yul\":18062:18064   */\n      0x20\n        /* \"#utility.yul\":18051:18060   */\n      dup3\n        /* \"#utility.yul\":18047:18065   */\n      add\n        /* \"#utility.yul\":18039:18065   */\n      swap1\n      pop\n        /* \"#utility.yul\":18111:18120   */\n      dup2\n        /* \"#utility.yul\":18105:18109   */\n      dup2\n        /* \"#utility.yul\":18101:18121   */\n      sub\n        /* \"#utility.yul\":18097:18098   */\n      0x00\n        /* \"#utility.yul\":18086:18095   */\n      dup4\n        /* \"#utility.yul\":18082:18099   */\n      add\n        /* \"#utility.yul\":18075:18122   */\n      mstore\n        /* \"#utility.yul\":18139:18270   */\n      tag_534\n        /* \"#utility.yul\":18265:18269   */\n      dup2\n        /* \"#utility.yul\":18139:18270   */\n      tag_355\n      jump\t// in\n    tag_534:\n        /* \"#utility.yul\":18131:18270   */\n      swap1\n      pop\n        /* \"#utility.yul\":17858:18277   */\n      swap2\n      swap1\n      pop\n      jump\t// out\n        /* \"#utility.yul\":18283:18463   */\n    tag_356:\n        /* \"#utility.yul\":18331:18408   */\n      0x4e487b7100000000000000000000000000000000000000000000000000000000\n        /* \"#utility.yul\":18328:18329   */\n      0x00\n        /* \"#utility.yul\":18321:18409   */\n      mstore\n        /* \"#utility.yul\":18428:18432   */\n      0x22\n        /* \"#utility.yul\":18425:18426   */\n      0x04\n        /* \"#utility.yul\":18418:18433   */\n      mstore\n        /* \"#utility.yul\":18452:18456   */\n      0x24\n        /* \"#utility.yul\":18449:18450   */\n      0x00\n        /* \"#utility.yul\":18442:18457   */\n      revert\n        /* \"#utility.yul\":18469:18789   */\n    tag_169:\n        /* \"#utility.yul\":18513:18519   */\n      0x00\n        /* \"#utility.yul\":18550:18551   */\n      0x02\n        /* \"#utility.yul\":18544:18548   */\n      dup3\n        /* \"#utility.yul\":18540:18552   */\n      div\n        /* \"#utility.yul\":18530:18552   */\n      swap1\n      pop\n        /* \"#utility.yul\":18597:18598   */\n      0x01\n        /* \"#utility.yul\":18591:18595   */\n      dup3\n        /* \"#utility.yul\":18587:18599   */\n      and\n        /* \"#utility.yul\":18618:18636   */\n      dup1\n        /* \"#utility.yul\":18608:18689   */\n      tag_537\n      jumpi\n        /* \"#utility.yul\":18674:18678   */\n      0x7f\n        /* \"#utility.yul\":18666:18672   */\n      dup3\n        /* \"#utility.yul\":18662:18679   */\n      and\n        /* \"#utility.yul\":18652:18679   */\n      swap2\n      pop\n        /* \"#utility.yul\":18608:18689   */\n    tag_537:\n        /* \"#utility.yul\":18736:18738   */\n      0x20\n        /* \"#utility.yul\":18728:18734   */\n      dup3\n        /* \"#utility.yul\":18725:18739   */\n      lt\n        /* \"#utility.yul\":18705:18723   */\n      dup2\n        /* \"#utility.yul\":18702:18740   */\n      sub\n        /* \"#utility.yul\":18699:18783   */\n      tag_538\n      jumpi\n        /* \"#utility.yul\":18755:18773   */\n      tag_539\n      tag_356\n      jump\t// in\n    tag_539:\n        /* \"#utility.yul\":18699:18783   */\n    tag_538:\n        /* \"#utility.yul\":18520:18789   */\n      pop\n        /* \"#utility.yul\":18469:18789   */\n      swap2\n      swap1\n      pop\n      jump\t// out\n        /* \"#utility.yul\":18795:18966   */\n    tag_357:\n        /* \"#utility.yul\":18935:18958   */\n      0x41756374696f6e206e6f7420656e646564207965740000000000000000000000\n        /* \"#utility.yul\":18931:18932   */\n      0x00\n        /* \"#utility.yul\":18923:18929   */\n      dup3\n        /* \"#utility.yul\":18919:18933   */\n      add\n        /* \"#utility.yul\":18912:18959   */\n      mstore\n        /* \"#utility.yul\":18795:18966   */\n      pop\n      jump\t// out\n        /* \"#utility.yul\":18972:19338   */\n    tag_358:\n        /* \"#utility.yul\":19114:19117   */\n      0x00\n        /* \"#utility.yul\":19135:19202   */\n      tag_542\n        /* \"#utility.yul\":19199:19201   */\n      0x15\n        /* \"#utility.yul\":19194:19197   */\n      dup4\n        /* \"#utility.yul\":19135:19202   */\n      tag_316\n      jump\t// in\n    tag_542:\n        /* \"#utility.yul\":19128:19202   */\n      swap2\n      pop\n        /* \"#utility.yul\":19211:19304   */\n      tag_543\n        /* \"#utility.yul\":19300:19303   */\n      dup3\n        /* \"#utility.yul\":19211:19304   */\n      tag_357\n      jump\t// in\n    tag_543:\n        /* \"#utility.yul\":19329:19331   */\n      0x20\n        /* \"#utility.yul\":19324:19327   */\n      dup3\n        /* \"#utility.yul\":19320:19332   */\n      add\n        /* \"#utility.yul\":19313:19332   */\n      swap1\n      pop\n        /* \"#utility.yul\":18972:19338   */\n      swap2\n      swap1\n      pop\n      jump\t// out\n        /* \"#utility.yul\":19344:19763   */\n    tag_205:\n        /* \"#utility.yul\":19510:19514   */\n      0x00\n        /* \"#utility.yul\":19548:19550   */\n      0x20\n        /* \"#utility.yul\":19537:19546   */\n      dup3\n        /* \"#utility.yul\":19533:19551   */\n      add\n        /* \"#utility.yul\":19525:19551   */\n      swap1\n      pop\n        /* \"#utility.yul\":19597:19606   */\n      dup2\n        /* \"#utility.yul\":19591:19595   */\n      dup2\n        /* \"#utility.yul\":19587:19607   */\n      sub\n        /* \"#utility.yul\":19583:19584   */\n      0x00\n        /* \"#utility.yul\":19572:19581   */\n      dup4\n        /* \"#utility.yul\":19568:19585   */\n      add\n        /* \"#utility.yul\":19561:19608   */\n      mstore\n        /* \"#utility.yul\":19625:19756   */\n      tag_545\n        /* \"#utility.yul\":19751:19755   */\n      dup2\n        /* \"#utility.yul\":19625:19756   */\n      tag_358\n      jump\t// in\n    tag_545:\n        /* \"#utility.yul\":19617:19756   */\n      swap1\n      pop\n        /* \"#utility.yul\":19344:19763   */\n      swap2\n      swap1\n      pop\n      jump\t// out\n        /* \"#utility.yul\":19769:19944   */\n    tag_359:\n        /* \"#utility.yul\":19909:19936   */\n      0x41756374696f6e20616c72656164792066696e616c697a656400000000000000\n        /* \"#utility.yul\":19905:19906   */\n      0x00\n        /* \"#utility.yul\":19897:19903   */\n      dup3\n        /* \"#utility.yul\":19893:19907   */\n      add\n        /* \"#utility.yul\":19886:19937   */\n      mstore\n        /* \"#utility.yul\":19769:19944   */\n      pop\n      jump\t// out\n        /* \"#utility.yul\":19950:20316   */\n    tag_360:\n        /* \"#utility.yul\":20092:20095   */\n      0x00\n        /* \"#utility.yul\":20113:20180   */\n      tag_548\n        /* \"#utility.yul\":20177:20179   */\n      0x19\n        /* \"#utility.yul\":20172:20175   */\n      dup4\n        /* \"#utility.yul\":20113:20180   */\n      tag_316\n      jump\t// in\n    tag_548:\n        /* \"#utility.yul\":20106:20180   */\n      swap2\n      pop\n        /* \"#utility.yul\":20189:20282   */\n      tag_549\n        /* \"#utility.yul\":20278:20281   */\n      dup3\n        /* \"#utility.yul\":20189:20282   */\n      tag_359\n      jump\t// in\n    tag_549:\n        /* \"#utility.yul\":20307:20309   */\n      0x20\n        /* \"#utility.yul\":20302:20305   */\n      dup3\n        /* \"#utility.yul\":20298:20310   */\n      add\n        /* \"#utility.yul\":20291:20310   */\n      swap1\n      pop\n        /* \"#utility.yul\":19950:20316   */\n      swap2\n      swap1\n      pop\n      jump\t// out\n        /* \"#utility.yul\":20322:20741   */\n    tag_209:\n        /* \"#utility.yul\":20488:20492   */\n      0x00\n        /* \"#utility.yul\":20526:20528   */\n      0x20\n        /* \"#utility.yul\":20515:20524   */\n      dup3\n        /* \"#utility.yul\":20511:20529   */\n      add\n        /* \"#utility.yul\":20503:20529   */\n      swap1\n      pop\n        /* \"#utility.yul\":20575:20584   */\n      dup2\n        /* \"#utility.yul\":20569:20573   */\n      dup2\n        /* \"#utility.yul\":20565:20585   */\n      sub\n        /* \"#utility.yul\":20561:20562   */\n      0x00\n        /* \"#utility.yul\":20550:20559   */\n      dup4\n        /* \"#utility.yul\":20546:20563   */\n      add\n        /* \"#utility.yul\":20539:20586   */\n      mstore\n        /* \"#utility.yul\":20603:20734   */\n      tag_551\n        /* \"#utility.yul\":20729:20733   */\n      dup2\n        /* \"#utility.yul\":20603:20734   */\n      tag_360\n      jump\t// in\n    tag_551:\n        /* \"#utility.yul\":20595:20734   */\n      swap1\n      pop\n        /* \"#utility.yul\":20322:20741   */\n      swap2\n      swap1\n      pop\n      jump\t// out\n        /* \"#utility.yul\":20747:20917   */\n    tag_361:\n        /* \"#utility.yul\":20887:20909   */\n      0x496e73756666696369656e742062616c616e6365000000000000000000000000\n        /* \"#utility.yul\":20883:20884   */\n      0x00\n        /* \"#utility.yul\":20875:20881   */\n      dup3\n        /* \"#utility.yul\":20871:20885   */\n      add\n        /* \"#utility.yul\":20864:20910   */\n      mstore\n        /* \"#utility.yul\":20747:20917   */\n      pop\n      jump\t// out\n        /* \"#utility.yul\":20923:21289   */\n    tag_362:\n        /* \"#utility.yul\":21065:21068   */\n      0x00\n        /* \"#utility.yul\":21086:21153   */\n      tag_554\n        /* \"#utility.yul\":21150:21152   */\n      0x14\n        /* \"#utility.yul\":21145:21148   */\n      dup4\n        /* \"#utility.yul\":21086:21153   */\n      tag_316\n      jump\t// in\n    tag_554:\n        /* \"#utility.yul\":21079:21153   */\n      swap2\n      pop\n        /* \"#utility.yul\":21162:21255   */\n      tag_555\n        /* \"#utility.yul\":21251:21254   */\n      dup3\n        /* \"#utility.yul\":21162:21255   */\n      tag_361\n      jump\t// in\n    tag_555:\n        /* \"#utility.yul\":21280:21282   */\n      0x20\n        /* \"#utility.yul\":21275:21278   */\n      dup3\n        /* \"#utility.yul\":21271:21283   */\n      add\n        /* \"#utility.yul\":21264:21283   */\n      swap1\n      pop\n        /* \"#utility.yul\":20923:21289   */\n      swap2\n      swap1\n      pop\n      jump\t// out\n        /* \"#utility.yul\":21295:21714   */\n    tag_213:\n        /* \"#utility.yul\":21461:21465   */\n      0x00\n        /* \"#utility.yul\":21499:21501   */\n      0x20\n        /* \"#utility.yul\":21488:21497   */\n      dup3\n        /* \"#utility.yul\":21484:21502   */\n      add\n        /* \"#utility.yul\":21476:21502   */\n      swap1\n      pop\n        /* \"#utility.yul\":21548:21557   */\n      dup2\n        /* \"#utility.yul\":21542:21546   */\n      dup2\n        /* \"#utility.yul\":21538:21558   */\n      sub\n        /* \"#utility.yul\":21534:21535   */\n      0x00\n        /* \"#utility.yul\":21523:21532   */\n      dup4\n        /* \"#utility.yul\":21519:21536   */\n      add\n        /* \"#utility.yul\":21512:21559   */\n      mstore\n        /* \"#utility.yul\":21576:21707   */\n      tag_557\n        /* \"#utility.yul\":21702:21706   */\n      dup2\n        /* \"#utility.yul\":21576:21707   */\n      tag_362\n      jump\t// in\n    tag_557:\n        /* \"#utility.yul\":21568:21707   */\n      swap1\n      pop\n        /* \"#utility.yul\":21295:21714   */\n      swap2\n      swap1\n      pop\n      jump\t// out\n        /* \"#utility.yul\":21720:21891   */\n    tag_363:\n        /* \"#utility.yul\":21860:21883   */\n      0x53656c6c6572207061796d656e74206661696c65640000000000000000000000\n        /* \"#utility.yul\":21856:21857   */\n      0x00\n        /* \"#utility.yul\":21848:21854   */\n      dup3\n        /* \"#utility.yul\":21844:21858   */\n      add\n        /* \"#utility.yul\":21837:21884   */\n      mstore\n        /* \"#utility.yul\":21720:21891   */\n      pop\n      jump\t// out\n        /* \"#utility.yul\":21897:22263   */\n    tag_364:\n        /* \"#utility.yul\":22039:22042   */\n      0x00\n        /* \"#utility.yul\":22060:22127   */\n      tag_560\n        /* \"#utility.yul\":22124:22126   */\n      0x15\n        /* \"#utility.yul\":22119:22122   */\n      dup4\n        /* \"#utility.yul\":22060:22127   */\n      tag_316\n      jump\t// in\n    tag_560:\n        /* \"#utility.yul\":22053:22127   */\n      swap2\n      pop\n        /* \"#utility.yul\":22136:22229   */\n      tag_561\n        /* \"#utility.yul\":22225:22228   */\n      dup3\n        /* \"#utility.yul\":22136:22229   */\n      tag_363\n      jump\t// in\n    tag_561:\n        /* \"#utility.yul\":22254:22256   */\n      0x20\n        /* \"#utility.yul\":22249:22252   */\n      dup3\n        /* \"#utility.yul\":22245:22257   */\n      add\n        /* \"#utility.yul\":22238:22257   */\n      swap1\n      pop\n        /* \"#utility.yul\":21897:22263   */\n      swap2\n      swap1\n      pop\n      jump\t// out\n        /* \"#utility.yul\":22269:22688   */\n    tag_220:\n        /* \"#utility.yul\":22435:22439   */\n      0x00\n        /* \"#utility.yul\":22473:22475   */\n      0x20\n        /* \"#utility.yul\":22462:22471   */\n      dup3\n        /* \"#utility.yul\":22458:22476   */\n      add\n        /* \"#utility.yul\":22450:22476   */\n      swap1\n      pop\n        /* \"#utility.yul\":22522:22531   */\n      dup2\n        /* \"#utility.yul\":22516:22520   */\n      dup2\n        /* \"#utility.yul\":22512:22532   */\n      sub\n        /* \"#utility.yul\":22508:22509   */\n      0x00\n        /* \"#utility.yul\":22497:22506   */\n      dup4\n        /* \"#utility.yul\":22493:22510   */\n      add\n        /* \"#utility.yul\":22486:22533   */\n      mstore\n        /* \"#utility.yul\":22550:22681   */\n      tag_563\n        /* \"#utility.yul\":22676:22680   */\n      dup2\n        /* \"#utility.yul\":22550:22681   */\n      tag_364\n      jump\t// in\n    tag_563:\n        /* \"#utility.yul\":22542:22681   */\n      swap1\n      pop\n        /* \"#utility.yul\":22269:22688   */\n      swap2\n      swap1\n      pop\n      jump\t// out\n        /* \"#utility.yul\":22694:23124   */\n    tag_222:\n        /* \"#utility.yul\":22837:22841   */\n      0x00\n        /* \"#utility.yul\":22875:22877   */\n      0x60\n        /* \"#utility.yul\":22864:22873   */\n      dup3\n        /* \"#utility.yul\":22860:22878   */\n      add\n        /* \"#utility.yul\":22852:22878   */\n      swap1\n      pop\n        /* \"#utility.yul\":22888:22959   */\n      tag_565\n        /* \"#utility.yul\":22956:22957   */\n      0x00\n        /* \"#utility.yul\":22945:22954   */\n      dup4\n        /* \"#utility.yul\":22941:22958   */\n      add\n        /* \"#utility.yul\":22932:22938   */\n      dup7\n        /* \"#utility.yul\":22888:22959   */\n      tag_320\n      jump\t// in\n    tag_565:\n        /* \"#utility.yul\":22969:23041   */\n      tag_566\n        /* \"#utility.yul\":23037:23039   */\n      0x20\n        /* \"#utility.yul\":23026:23035   */\n      dup4\n        /* \"#utility.yul\":23022:23040   */\n      add\n        /* \"#utility.yul\":23013:23019   */\n      dup6\n        /* \"#utility.yul\":22969:23041   */\n      tag_305\n      jump\t// in\n    tag_566:\n        /* \"#utility.yul\":23051:23117   */\n      tag_567\n        /* \"#utility.yul\":23113:23115   */\n      0x40\n        /* \"#utility.yul\":23102:23111   */\n      dup4\n        /* \"#utility.yul\":23098:23116   */\n      add\n        /* \"#utility.yul\":23089:23095   */\n      dup5\n        /* \"#utility.yul\":23051:23117   */\n      tag_314\n      jump\t// in\n    tag_567:\n        /* \"#utility.yul\":22694:23124   */\n      swap5\n      swap4\n      pop\n      pop\n      pop\n      pop\n      jump\t// out\n        /* \"#utility.yul\":23130:23299   */\n    tag_365:\n        /* \"#utility.yul\":23270:23291   */\n      0x42617463682073697a6520726571756972656400000000000000000000000000\n        /* \"#utility.yul\":23266:23267   */\n      0x00\n        /* \"#utility.yul\":23258:23264   */\n      dup3\n        /* \"#utility.yul\":23254:23268   */\n      add\n        /* \"#utility.yul\":23247:23292   */\n      mstore\n        /* \"#utility.yul\":23130:23299   */\n      pop\n      jump\t// out\n        /* \"#utility.yul\":23305:23671   */\n    tag_366:\n        /* \"#utility.yul\":23447:23450   */\n      0x00\n        /* \"#utility.yul\":23468:23535   */\n      tag_570\n        /* \"#utility.yul\":23532:23534   */\n      0x13\n        /* \"#utility.yul\":23527:23530   */\n      dup4\n        /* \"#utility.yul\":23468:23535   */\n      tag_316\n      jump\t// in\n    tag_570:\n        /* \"#utility.yul\":23461:23535   */\n      swap2\n      pop\n        /* \"#utility.yul\":23544:23637   */\n      tag_571\n        /* \"#utility.yul\":23633:23636   */\n      dup3\n        /* \"#utility.yul\":23544:23637   */\n      tag_365\n      jump\t// in\n    tag_571:\n        /* \"#utility.yul\":23662:23664   */\n      0x20\n        /* \"#utility.yul\":23657:23660   */\n      dup3\n        /* \"#utility.yul\":23653:23665   */\n      add\n        /* \"#utility.yul\":23646:23665   */\n      swap1\n      pop\n        /* \"#utility.yul\":23305:23671   */\n      swap2\n      swap1\n      pop\n      jump\t// out\n        /* \"#utility.yul\":23677:24096   */\n    tag_237:\n        /* \"#utility.yul\":23843:23847   */\n      0x00\n        /* \"#utility.yul\":23881:23883   */\n      0x20\n        /* \"#utility.yul\":23870:23879   */\n      dup3\n        /* \"#utility.yul\":23866:23884   */\n      add\n        /* \"#utility.yul\":23858:23884   */\n      swap1\n      pop\n        /* \"#utility.yul\":23930:23939   */\n      dup2\n        /* \"#utility.yul\":23924:23928   */\n      dup2\n        /* \"#utility.yul\":23920:23940   */\n      sub\n        /* \"#utility.yul\":23916:23917   */\n      0x00\n        /* \"#utility.yul\":23905:23914   */\n      dup4\n        /* \"#utility.yul\":23901:23918   */\n      add\n        /* \"#utility.yul\":23894:23941   */\n      mstore\n        /* \"#utility.yul\":23958:24089   */\n      tag_573\n        /* \"#utility.yul\":24084:24088   */\n      dup2\n        /* \"#utility.yul\":23958:24089   */\n      tag_366\n      jump\t// in\n    tag_573:\n        /* \"#utility.yul\":23950:24089   */\n      swap1\n      pop\n        /* \"#utility.yul\":23677:24096   */\n      swap2\n      swap1\n      pop\n      jump\t// out\n        /* \"#utility.yul\":24102:24282   */\n    tag_243:\n        /* \"#utility.yul\":24150:24227   */\n      0x4e487b7100000000000000000000000000000000000000000000000000000000\n        /* \"#utility.yul\":24147:24148   */\n      0x00\n        /* \"#utility.yul\":24140:24228   */\n      mstore\n        /* \"#utility.yul\":24247:24251   */\n      0x32\n        /* \"#utility.yul\":24244:24245   */\n      0x04\n        /* \"#utility.yul\":24237:24252   */\n      mstore\n        /* \"#utility.yul\":24271:24275   */\n      0x24\n        /* \"#utility.yul\":24268:24269   */\n      0x00\n        /* \"#utility.yul\":24261:24276   */\n      revert\n        /* \"#utility.yul\":24288:24468   */\n    tag_367:\n        /* \"#utility.yul\":24336:24413   */\n      0x4e487b7100000000000000000000000000000000000000000000000000000000\n        /* \"#utility.yul\":24333:24334   */\n      0x00\n        /* \"#utility.yul\":24326:24414   */\n      mstore\n        /* \"#utility.yul\":24433:24437   */\n      0x11\n        /* \"#utility.yul\":24430:24431   */\n      0x04\n        /* \"#utility.yul\":24423:24438   */\n      mstore\n        /* \"#utility.yul\":24457:24461   */\n      0x24\n        /* \"#utility.yul\":24454:24455   */\n      0x00\n        /* \"#utility.yul\":24447:24462   */\n      revert\n        /* \"#utility.yul\":24474:24707   */\n    tag_246:\n        /* \"#utility.yul\":24513:24516   */\n      0x00\n        /* \"#utility.yul\":24536:24560   */\n      tag_577\n        /* \"#utility.yul\":24554:24559   */\n      dup3\n        /* \"#utility.yul\":24536:24560   */\n      tag_304\n      jump\t// in\n    tag_577:\n        /* \"#utility.yul\":24527:24560   */\n      swap2\n      pop\n        /* \"#utility.yul\":24582:24648   */\n      0xffffffffffffffffffffffffffffffffffffffffffffffffffffffffffffffff\n        /* \"#utility.yul\":24575:24580   */\n      dup3\n        /* \"#utility.yul\":24572:24649   */\n      sub\n        /* \"#utility.yul\":24569:24672   */\n      tag_578\n      jumpi\n        /* \"#utility.yul\":24652:24670   */\n      tag_579\n      tag_367\n      jump\t// in\n    tag_579:\n        /* \"#utility.yul\":24569:24672   */\n    tag_578:\n        /* \"#utility.yul\":24699:24700   */\n      0x01\n        /* \"#utility.yul\":24692:24697   */\n      dup3\n        /* \"#utility.yul\":24688:24701   */\n      add\n        /* \"#utility.yul\":24681:24701   */\n      swap1\n      pop\n        /* \"#utility.yul\":24474:24707   */\n      swap2\n      swap1\n      pop\n      jump\t// out\n        /* \"#utility.yul\":24713:24876   */\n    tag_368:\n        /* \"#utility.yul\":24853:24868   */\n      0x41756374696f6e20656e64656400000000000000000000000000000000000000\n        /* \"#utility.yul\":24849:24850   */\n      0x00\n        /* \"#utility.yul\":24841:24847   */\n      dup3\n        /* \"#utility.yul\":24837:24851   */\n      add\n        /* \"#utility.yul\":24830:24869   */\n      mstore\n        /* \"#utility.yul\":24713:24876   */\n      pop\n      jump\t// out\n        /* \"#utility.yul\":24882:25248   */\n    tag_369:\n        /* \"#utility.yul\":25024:25027   */\n      0x00\n        /* \"#utility.yul\":25045:25112   */\n      tag_582\n        /* \"#utility.yul\":25109:25111   */\n      0x0d\n        /* \"#utility.yul\":25104:25107   */\n      dup4\n        /* \"#utility.yul\":25045:25112   */\n      tag_316\n      jump\t// in\n    tag_582:\n        /* \"#utility.yul\":25038:25112   */\n      swap2\n      pop\n        /* \"#utility.yul\":25121:25214   */\n      tag_583\n        /* \"#utility.yul\":25210:25213   */\n      dup3\n        /* \"#utility.yul\":25121:25214   */\n      tag_368\n      jump\t// in\n    tag_583:\n        /* \"#utility.yul\":25239:25241   */\n      0x20\n        /* \"#utility.yul\":25234:25237   */\n      dup3\n        /* \"#utility.yul\":25230:25242   */\n      add\n        /* \"#utility.yul\":25223:25242   */\n      swap1\n      pop\n        /* \"#utility.yul\":24882:25248   */\n      swap2\n      swap1\n      pop\n      jump\t// out\n        /* \"#utility.yul\":25254:25673   */\n    tag_261:\n        /* \"#utility.yul\":25420:25424   */\n      0x00\n        /* \"#utility.yul\":25458:25460   */\n      0x20\n        /* \"#utility.yul\":25447:25456   */\n      dup3\n        /* \"#utility.yul\":25443:25461   */\n      add\n        /* \"#utility.yul\":25435:25461   */\n      swap1\n      pop\n        /* \"#utility.yul\":25507:25516   */\n      dup2\n        /* \"#utility.yul\":25501:25505   */\n      dup2\n        /* \"#utility.yul\":25497:25517   */\n      sub\n        /* \"#utility.yul\":25493:25494   */\n      0x00\n        /* \"#utility.yul\":25482:25491   */\n      dup4\n        /* \"#utility.yul\":25478:25495   */\n      add\n        /* \"#utility.yul\":25471:25518   */\n      mstore\n        /* \"#utility.yul\":25535:25666   */\n      tag_585\n        /* \"#utility.yul\":25661:25665   */\n      dup2\n        /* \"#utility.yul\":25535:25666   */\n      tag_369\n      jump\t// in\n    tag_585:\n        /* \"#utility.yul\":25527:25666   */\n      swap1\n      pop\n        /* \"#utility.yul\":25254:25673   */\n      swap2\n      swap1\n      pop\n      jump\t// out\n        /* \"#utility.yul\":25679:25899   */\n    tag_370:\n        /* \"#utility.yul\":25819:25853   */\n      0x596f752063616e277420626964206f6e20796f7572206f776e2061756374696f\n        /* \"#utility.yul\":25815:25816   */\n      0x00\n        /* \"#utility.yul\":25807:25813   */\n      dup3\n        /* \"#utility.yul\":25803:25817   */\n      add\n        /* \"#utility.yul\":25796:25854   */\n      mstore\n        /* \"#utility.yul\":25888:25891   */\n      0x6e00000000000000000000000000000000000000000000000000000000000000\n        /* \"#utility.yul\":25883:25885   */\n      0x20\n        /* \"#utility.yul\":25875:25881   */\n      dup3\n        /* \"#utility.yul\":25871:25886   */\n      add\n        /* \"#utility.yul\":25864:25892   */\n      mstore\n        /* \"#utility.yul\":25679:25899   */\n      pop\n      jump\t// out\n        /* \"#utility.yul\":25905:26271   */\n    tag_371:\n        /* \"#utility.yul\":26047:26050   */\n      0x00\n        /* \"#utility.yul\":26068:26135   */\n      tag_588\n        /* \"#utility.yul\":26132:26134   */\n      0x21\n        /* \"#utility.yul\":26127:26130   */\n      dup4\n        /* \"#utility.yul\":26068:26135   */\n      tag_316\n      jump\t// in\n    tag_588:\n        /* \"#utility.yul\":26061:26135   */\n      swap2\n      pop\n        /* \"#utility.yul\":26144:26237   */\n      tag_589\n        /* \"#utility.yul\":26233:26236   */\n      dup3\n        /* \"#utility.yul\":26144:26237   */\n      tag_370\n      jump\t// in\n    tag_589:\n        /* \"#utility.yul\":26262:26264   */\n      0x40\n        /* \"#utility.yul\":26257:26260   */\n      dup3\n        /* \"#utility.yul\":26253:26265   */\n      add\n        /* \"#utility.yul\":26246:26265   */\n      swap1\n      pop\n        /* \"#utility.yul\":25905:26271   */\n      swap2\n      swap1\n      pop\n      jump\t// out\n        /* \"#utility.yul\":26277:26696   */\n    tag_265:\n        /* \"#utility.yul\":26443:26447   */\n      0x00\n        /* \"#utility.yul\":26481:26483   */\n      0x20\n        /* \"#utility.yul\":26470:26479   */\n      dup3\n        /* \"#utility.yul\":26466:26484   */\n      add\n        /* \"#utility.yul\":26458:26484   */\n      swap1\n      pop\n        /* \"#utility.yul\":26530:26539   */\n      dup2\n        /* \"#utility.yul\":26524:26528   */\n      dup2\n        /* \"#utility.yul\":26520:26540   */\n      sub\n        /* \"#utility.yul\":26516:26517   */\n      0x00\n        /* \"#utility.yul\":26505:26514   */\n      dup4\n        /* \"#utility.yul\":26501:26518   */\n      add\n        /* \"#utility.yul\":26494:26541   */\n      mstore\n        /* \"#utility.yul\":26558:26689   */\n      tag_591\n        /* \"#utility.yul\":26684:26688   */\n      dup2\n        /* \"#utility.yul\":26558:26689   */\n      tag_371\n      jump\t// in\n    tag_591:\n        /* \"#utility.yul\":26550:26689   */\n      swap1\n      pop\n        /* \"#utility.yul\":26277:26696   */\n      swap2\n      swap1\n      pop\n      jump\t// out\n        /* \"#utility.yul\":26702:26872   */\n    tag_372:\n        /* \"#utility.yul\":26842:26864   */\n      0x4d7573742073656e6420736f6d65206574686572000000000000000000000000\n        /* \"#utility.yul\":26838:26839   */\n      0x00\n        /* \"#utility.yul\":26830:26836   */\n      dup3\n        /* \"#utility.yul\":26826:26840   */\n      add\n        /* \"#utility.yul\":26819:26865   */\n      mstore\n        /* \"#utility.yul\":26702:26872   */\n      pop\n      jump\t// out\n        /* \"#utility.yul\":26878:27244   */\n    tag_373:\n        /* \"#utility.yul\":27020:27023   */\n      0x00\n        /* \"#utility.yul\":27041:27108   */\n      tag_594\n        /* \"#utility.yul\":27105:27107   */\n      0x14\n        /* \"#utility.yul\":27100:27103   */\n      dup4\n        /* \"#utility.yul\":27041:27108   */\n      tag_316\n      jump\t// in\n    tag_594:\n        /* \"#utility.yul\":27034:27108   */\n      swap2\n      pop\n        /* \"#utility.yul\":27117:27210   */\n      tag_595\n        /* \"#utility.yul\":27206:27209   */\n      dup3\n        /* \"#utility.yul\":27117:27210   */\n      tag_372\n      jump\t// in\n    tag_595:\n        /* \"#utility.yul\":27235:27237   */\n      0x20\n        /* \"#utility.yul\":27230:27233   */\n      dup3\n        /* \"#utility.yul\":27226:27238   */\n      add\n        /* \"#utility.yul\":27219:27238   */\n      swap1\n      pop\n        /* \"#utility.yul\":26878:27244   */\n      swap2\n      swap1\n      pop\n      jump\t// out\n        /* \"#utility.yul\":27250:27669   */\n    tag_268:\n        /* \"#utility.yul\":27416:27420   */\n      0x00\n        /* \"#utility.yul\":27454:27456   */\n      0x20\n        /* \"#utility.yul\":27443:27452   */\n      dup3\n        /* \"#utility.yul\":27439:27457   */\n      add\n        /* \"#utility.yul\":27431:27457   */\n      swap1\n      pop\n        /* \"#utility.yul\":27503:27512   */\n      dup2\n        /* \"#utility.yul\":27497:27501   */\n      dup2\n        /* \"#utility.yul\":27493:27513   */\n      sub\n        /* \"#utility.yul\":27489:27490   */\n      0x00\n        /* \"#utility.yul\":27478:27487   */\n      dup4\n        /* \"#utility.yul\":27474:27491   */\n      add\n        /* \"#utility.yul\":27467:27514   */\n      mstore\n        /* \"#utility.yul\":27531:27662   */\n      tag_597\n        /* \"#utility.yul\":27657:27661   */\n      dup2\n        /* \"#utility.yul\":27531:27662   */\n      tag_373\n      jump\t// in\n    tag_597:\n        /* \"#utility.yul\":27523:27662   */\n      swap1\n      pop\n        /* \"#utility.yul\":27250:27669   */\n      swap2\n      swap1\n      pop\n      jump\t// out\n        /* \"#utility.yul\":27675:27866   */\n    tag_270:\n        /* \"#utility.yul\":27715:27718   */\n      0x00\n        /* \"#utility.yul\":27734:27754   */\n      tag_599\n        /* \"#utility.yul\":27752:27753   */\n      dup3\n        /* \"#utility.yul\":27734:27754   */\n      tag_304\n      jump\t// in\n    tag_599:\n        /* \"#utility.yul\":27729:27754   */\n      swap2\n      pop\n        /* \"#utility.yul\":27768:27788   */\n      tag_600\n        /* \"#utility.yul\":27786:27787   */\n      dup4\n        /* \"#utility.yul\":27768:27788   */\n      tag_304\n      jump\t// in\n    tag_600:\n        /* \"#utility.yul\":27763:27788   */\n      swap3\n      pop\n        /* \"#utility.yul\":27811:27812   */\n      dup3\n        /* \"#utility.yul\":27808:27809   */\n      dup3\n        /* \"#utility.yul\":27804:27813   */\n      add\n        /* \"#utility.yul\":27797:27813   */\n      swap1\n      pop\n        /* \"#utility.yul\":27832:27835   */\n      dup1\n        /* \"#utility.yul\":27829:27830   */\n      dup3\n        /* \"#utility.yul\":27826:27836   */\n      gt\n        /* \"#utility.yul\":27823:27859   */\n      iszero\n      tag_601\n      jumpi\n        /* \"#utility.yul\":27839:27857   */\n      tag_602\n      tag_367\n      jump\t// in\n    tag_602:\n        /* \"#utility.yul\":27823:27859   */\n    tag_601:\n        /* \"#utility.yul\":27675:27866   */\n      swap3\n      swap2\n      pop\n      pop\n      jump\t// out\n        /* \"#utility.yul\":27872:28039   */\n    tag_374:\n        /* \"#utility.yul\":28012:28031   */\n      0x42656c6f77206d696e696d756d20626964000000000000000000000000000000\n        /* \"#utility.yul\":28008:28009   */\n      0x00\n        /* \"#utility.yul\":28000:28006   */\n      dup3\n        /* \"#utility.yul\":27996:28010   */\n      add\n        /* \"#utility.yul\":27989:28032   */\n      mstore\n        /* \"#utility.yul\":27872:28039   */\n      pop\n      jump\t// out\n        /* \"#utility.yul\":28045:28411   */\n    tag_375:\n        /* \"#utility.yul\":28187:28190   */\n      0x00\n        /* \"#utility.yul\":28208:28275   */\n      tag_605\n        /* \"#utility.yul\":28272:28274   */\n      0x11\n        /* \"#utility.yul\":28267:28270   */\n      dup4\n        /* \"#utility.yul\":28208:28275   */\n      tag_316\n      jump\t// in\n    tag_605:\n        /* \"#utility.yul\":28201:28275   */\n      swap2\n      pop\n        /* \"#utility.yul\":28284:28377   */\n      tag_606\n        /* \"#utility.yul\":28373:28376   */\n      dup3\n        /* \"#utility.yul\":28284:28377   */\n      tag_374\n      jump\t// in\n    tag_606:\n        /* \"#utility.yul\":28402:28404   */\n      0x20\n        /* \"#utility.yul\":28397:28400   */\n      dup3\n        /* \"#utility.yul\":28393:28405   */\n      add\n        /* \"#utility.yul\":28386:28405   */\n      swap1\n      pop\n        /* \"#utility.yul\":28045:28411   */\n      swap2\n      swap1\n      pop\n      jump\t// out\n        /* \"#utility.yul\":28417:28836   */\n    tag_274:\n        /* \"#utility.yul\":28583:28587   */\n      0x00\n        /* \"#utility.yul\":28621:28623   */\n      0x20\n        /* \"#utility.yul\":28610:28619   */\n      dup3\n        /* \"#utility.yul\":28606:28624   */\n      add\n        /* \"#utility.yul\":28598:28624   */\n      swap1\n      pop\n        /* \"#utility.yul\":28670:28679   */\n      dup2\n        /* \"#utility.yul\":28664:28668   */\n      dup2\n        /* \"#utility.yul\":28660:28680   */\n      sub\n        /* \"#utility.yul\":28656:28657   */\n      0x00\n        /* \"#utility.yul\":28645:28654   */\n      dup4\n        /* \"#utility.yul\":28641:28658   */\n      add\n        /* \"#utility.yul\":28634:28681   */\n      mstore\n        /* \"#utility.yul\":28698:28829   */\n      tag_608\n        /* \"#utility.yul\":28824:28828   */\n      dup2\n        /* \"#utility.yul\":28698:28829   */\n      tag_375\n      jump\t// in\n    tag_608:\n        /* \"#utility.yul\":28690:28829   */\n      swap1\n      pop\n        /* \"#utility.yul\":28417:28836   */\n      swap2\n      swap1\n      pop\n      jump\t// out\n        /* \"#utility.yul\":28842:29023   */\n    tag_376:\n        /* \"#utility.yul\":28982:29015   */\n      0x426964206d757374206578636565642063757272656e74206869676865737400\n        /* \"#utility.yul\":28978:28979   */\n      0x00\n        /* \"#utility.yul\":28970:28976   */\n      dup3\n        /* \"#utility.yul\":28966:28980   */\n      add\n        /* \"#utility.yul\":28959:29016   */\n      mstore\n        /* \"#utility.yul\":28842:29023   */\n      pop\n      jump\t// out\n        /* \"#utility.yul\":29029:29395   */\n    tag_377:\n        /* \"#utility.yul\":29171:29174   */\n      0x00\n        /* \"#utility.yul\":29192:29259   */\n      tag_611\n        /* \"#utility.yul\":29256:29258   */\n      0x1f\n        /* \"#utility.yul\":29251:29254   */\n      dup4\n        /* \"#utility.yul\":29192:29259   */\n      tag_316\n      jump\t// in\n    tag_611:\n        /* \"#utility.yul\":29185:29259   */\n      swap2\n      pop\n        /* \"#utility.yul\":29268:29361   */\n      tag_612\n        /* \"#utility.yul\":29357:29360   */\n      dup3\n        /* \"#utility.yul\":29268:29361   */\n      tag_376\n      jump\t// in\n    tag_612:\n        /* \"#utility.yul\":29386:29388   */\n      0x20\n        /* \"#utility.yul\":29381:29384   */\n      dup3\n        /* \"#utility.yul\":29377:29389   */\n      add\n        /* \"#utility.yul\":29370:29389   */\n      swap1\n      pop\n        /* \"#utility.yul\":29029:29395   */\n      swap2\n      swap1\n      pop\n      jump\t// out\n        /* \"#utility.yul\":29401:29820   */\n    tag_282:\n        /* \"#utility.yul\":29567:29571   */\n      0x00\n        /* \"#utility.yul\":29605:29607   */\n      0x20\n        /* \"#utility.yul\":29594:29603   */\n      dup3\n        /* \"#utility.yul\":29590:29608   */\n      add\n        /* \"#utility.yul\":29582:29608   */\n      swap1\n      pop\n        /* \"#utility.yul\":29654:29663   */\n      dup2\n        /* \"#utility.yul\":29648:29652   */\n      dup2\n        /* \"#utility.yul\":29644:29664   */\n      sub\n        /* \"#utility.yul\":29640:29641   */\n      0x00\n        /* \"#utility.yul\":29629:29638   */\n      dup4\n        /* \"#utility.yul\":29625:29642   */\n      add\n        /* \"#utility.yul\":29618:29665   */\n      mstore\n        /* \"#utility.yul\":29682:29813   */\n      tag_614\n        /* \"#utility.yul\":29808:29812   */\n      dup2\n        /* \"#utility.yul\":29682:29813   */\n      tag_377\n      jump\t// in\n    tag_614:\n        /* \"#utility.yul\":29674:29813   */\n      swap1\n      pop\n        /* \"#utility.yul\":29401:29820   */\n      swap2\n      swap1\n      pop\n      jump\t// out\n\n    auxdata: 0xa264697066735822122046a8243e46f5b1fa54b93085a651fab7b9f195be1f7bc87edde3f2055dd65e0864736f6c63430008230033\n}\n","bytecode":{"linkReferences":{},"object":"608060405234801561000f575f5ffd5b506040516131a03803806131a0833981810160405281019061003191906102dc565b8260015f6101000a81548173ffffffffffffffffffffffffffffffffffffffff021916908373ffffffffffffffffffffffffffffffffffffffff16021790555085600281905550846003908161008791906105b5565b50836004908161009791906105b5565b5081600c819055505f600d5f6101000a81548160ff021916908315150217905550805f5f6101000a81548173ffffffffffffffffffffffffffffffffffffffff021916908373ffffffffffffffffffffffffffffffffffffffff160217905550505050505050610684565b5f604051905090565b5f5ffd5b5f5ffd5b5f819050919050565b61012581610113565b811461012f575f5ffd5b50565b5f815190506101408161011c565b92915050565b5f5ffd5b5f5ffd5b5f601f19601f8301169050919050565b7f4e487b71000000000000000000000000000000000000000000000000000000005f52604160045260245ffd5b6101948261014e565b810181811067ffffffffffffffff821117156101b3576101b261015e565b5b80604052505050565b5f6101c5610102565b90506101d1828261018b565b919050565b5f67ffffffffffffffff8211156101f0576101ef61015e565b5b6101f98261014e565b9050602081019050919050565b8281835e5f83830152505050565b5f610226610221846101d6565b6101bc565b9050828152602081018484840111156102425761024161014a565b5b61024d848285610206565b509392505050565b5f82601f83011261026957610268610146565b5b8151610279848260208601610214565b91505092915050565b5f73ffffffffffffffffffffffffffffffffffffffff82169050919050565b5f6102ab82610282565b9050919050565b6102bb816102a1565b81146102c5575f5ffd5b50565b5f815190506102d6816102b2565b92915050565b5f5f5f5f5f5f60c087890312156102f6576102f561010b565b5b5f61030389828a01610132565b965050602087015167ffffffffffffffff8111156103245761032361010f565b5b61033089828a01610255565b955050604087015167ffffffffffffffff8111156103515761035061010f565b5b61035d89828a01610255565b945050606061036e89828a016102c8565b935050608061037f89828a01610132565b92505060a061039089828a016102c8565b9150509295509295509295565b5f81519050919050565b7f4e487b71000000000000000000000000000000000000000000000000000000005f52602260045260245ffd5b5f60028204905060018216806103eb57607f821691505b6020821081036103fe576103fd6103a7565b5b50919050565b5f819050815f5260205f209050919050565b5f6020601f8301049050919050565b5f82821b905092915050565b5f600883026104607fffffffffffffffffffffffffffffffffffffffffffffffffffffffffffffffff82610425565b61046a8683610425565b95508019841693508086168417925050509392505050565b5f819050919050565b5f6104a56104a061049b84610113565b610482565b610113565b9050919050565b5f819050919050565b6104be8361048b565b6104d26104ca826104ac565b848454610431565b825550505050565b5f5f905090565b6104e96104da565b6104f48184846104b5565b505050565b5f5b8281101561051a5761050f5f8284016104e1565b6001810190506104fb565b505050565b601f82111561056d578282111561056c5761053981610404565b61054283610416565b61054b85610416565b6020861015610558575f90505b808301610567828403826104f9565b505050505b5b505050565b5f82821c905092915050565b5f61058d5f1984600802610572565b1980831691505092915050565b5f6105a5838361057e565b9150826002028217905092915050565b6105be8261039d565b67ffffffffffffffff8111156105d7576105d661015e565b5b6105e182546103d4565b6105ec82828561051f565b5f60209050601f83116001811461061d575f841561060b578287015190505b610615858261059a565b86555061067c565b601f19841661062b86610404565b5f5b828110156106525784890151825560018201915060208501945060208101905061062d565b8683101561066f578489015161066b601f89168261057e565b8355505b6001600288020188555050505b505050505050565b612b0f806106915f395ff3fe608060405260043610610165575f3560e01c806382fde093116100d0578063a39fac1211610089578063c8b342ab11610063578063c8b342ab146104f2578063d57bde791461052e578063d7bb99ba14610558578063edf26d9b1461056257610165565b8063a39fac1214610476578063c45a0155146104a0578063c6f56901146104ca57610165565b806382fde0931461037a57806383920e90146103a457806391f90157146103ce578063937e09b1146103f8578063976af615146104225780639ace38c21461043857610165565b8063481c6a7511610122578063481c6a751461026c5780634e69d5601461029657806358d65629146102c0578063597e1fb5146102ea5780635dc1d641146103145780637b87d8561461035057610165565b8063074d55c4146101695780630a14439114610193578063110f8874146101cf5780633197cbb6146101e55780633bc5de301461020f5780634051ddac14610239575b5f5ffd5b348015610174575f5ffd5b5061017d61059e565b60405161018a9190611dcc565b60405180910390f35b34801561019e575f5ffd5b506101b960048036038101906101b49190611e43565b6105a4565b6040516101c69190611e88565b60405180910390f35b3480156101da575f5ffd5b506101e36105c1565b005b3480156101f0575f5ffd5b506101f961085d565b6040516102069190611dcc565b60405180910390f35b34801561021a575f5ffd5b50610223610863565b6040516102309190611f11565b60405180910390f35b348015610244575f5ffd5b5061024d6109d0565b6040516102639a99989796959493929190611ff7565b60405180910390f35b348015610277575f5ffd5b50610280610bec565b60405161028d91906120a6565b60405180910390f35b3480156102a1575f5ffd5b506102aa610c11565b6040516102b79190611e88565b60405180910390f35b3480156102cb575f5ffd5b506102d4610c26565b6040516102e19190611f11565b60405180910390f35b3480156102f5575f5ffd5b506102fe610cb2565b60405161030b9190611e88565b60405180910390f35b34801561031f575f5ffd5b5061033a60048036038101906103359190611e43565b610cc4565b6040516103479190611dcc565b60405180910390f35b34801561035b575f5ffd5b50610364610cd9565b6040516103719190611f11565b60405180910390f35b348015610385575f5ffd5b5061038e610d65565b60405161039b9190611dcc565b60405180910390f35b3480156103af575f5ffd5b506103b8610d6b565b6040516103c591906121b6565b60405180910390f35b3480156103d9575f5ffd5b506103e2610e2f565b6040516103ef91906120a6565b60405180910390f35b348015610403575f5ffd5b5061040c610e54565b6040516104199190611dcc565b60405180910390f35b34801561042d575f5ffd5b50610436610e5a565b005b348015610443575f5ffd5b5061045e60048036038101906104599190612200565b6111a8565b60405161046d9392919061222b565b60405180910390f35b348015610481575f5ffd5b5061048a6111fc565b6040516104979190612260565b60405180910390f35b3480156104ab575f5ffd5b506104b4611287565b6040516104c191906122db565b60405180910390f35b3480156104d5575f5ffd5b506104f060048036038101906104eb9190612200565b6112ab565b005b3480156104fd575f5ffd5b5061051860048036038101906105139190611e43565b6115ad565b6040516105259190611dcc565b60405180910390f35b348015610539575f5ffd5b506105426115f3565b60405161054f9190611dcc565b60405180910390f35b6105606115f9565b005b34801561056d575f5ffd5b5061058860048036038101906105839190612200565b611d79565b60405161059591906120a6565b60405180910390f35b600e5481565b6005602052805f5260405f205f915054906101000a900460ff1681565b600d5f9054906101000a900460ff1661060f576040517f08c379a00000000000000000000000000000000000000000000000000000000081526004016106069061233e565b60405180910390fd5b600a5f9054906101000a900473ffffffffffffffffffffffffffffffffffffffff1673ffffffffffffffffffffffffffffffffffffffff163373ffffffffffffffffffffffffffffffffffffffff160361069e576040517f08c379a0000000000000000000000000000000000000000000000000000000008152600401610695906123a6565b60405180910390fd5b5f60065f3373ffffffffffffffffffffffffffffffffffffffff1673ffffffffffffffffffffffffffffffffffffffff1681526020019081526020015f205490505f8111610721576040517f08c379a00000000000000000000000000000000000000000000000000000000081526004016107189061240e565b60405180910390fd5b5f60065f3373ffffffffffffffffffffffffffffffffffffffff1673ffffffffffffffffffffffffffffffffffffffff1681526020019081526020015f20819055505f3373ffffffffffffffffffffffffffffffffffffffff168260405161078890612459565b5f6040518083038185875af1925050503d805f81146107c2576040519150601f19603f3d011682016040523d82523d5f602084013e6107c7565b606091505b505090508061080b576040517f08c379a0000000000000000000000000000000000000000000000000000000008152600401610802906124b7565b60405180910390fd5b3373ffffffffffffffffffffffffffffffffffffffff167f3367befd2b2f39615cd79917c2153263c4af1d3945ec003e5d5bfc13a8d85833836040516108519190611dcc565b60405180910390a25050565b600c5481565b6060600d5f9054906101000a900460ff166108b3576040517f08c379a00000000000000000000000000000000000000000000000000000000081526004016108aa9061233e565b60405180910390fd5b600a5f9054906101000a900473ffffffffffffffffffffffffffffffffffffffff1673ffffffffffffffffffffffffffffffffffffffff163373ffffffffffffffffffffffffffffffffffffffff1614610942576040517f08c379a00000000000000000000000000000000000000000000000000000000081526004016109399061251f565b60405180910390fd5b6003805461094f9061256a565b80601f016020809104026020016040519081016040528092919081815260200182805461097b9061256a565b80156109c65780601f1061099d576101008083540402835291602001916109c6565b820191905f5260205f20905b8154815290600101906020018083116109a957829003601f168201915b5050505050905090565b5f5f5f5f5f6060805f60605f6002544760075460015f9054906101000a900473ffffffffffffffffffffffffffffffffffffffff16600b5460036004600a5f9054906101000a900473ffffffffffffffffffffffffffffffffffffffff166008600c54848054610a3f9061256a565b80601f0160208091040260200160405190810160405280929190818152602001828054610a6b9061256a565b8015610ab65780601f10610a8d57610100808354040283529160200191610ab6565b820191905f5260205f20905b815481529060010190602001808311610a9957829003601f168201915b50505050509450838054610ac99061256a565b80601f0160208091040260200160405190810160405280929190818152602001828054610af59061256a565b8015610b405780601f10610b1757610100808354040283529160200191610b40565b820191905f5260205f20905b815481529060010190602001808311610b2357829003601f168201915b5050505050935081805480602002602001604051908101604052809291908181526020018280548015610bc557602002820191905f5260205f20905b815f9054906101000a900473ffffffffffffffffffffffffffffffffffffffff1673ffffffffffffffffffffffffffffffffffffffff1681526020019060010190808311610b7c575b50505050509150995099509950995099509950995099509950995090919293949596979899565b60015f9054906101000a900473ffffffffffffffffffffffffffffffffffffffff1681565b5f600d5f9054906101000a900460ff16905090565b60048054610c339061256a565b80601f0160208091040260200160405190810160405280929190818152602001828054610c5f9061256a565b8015610caa5780601f10610c8157610100808354040283529160200191610caa565b820191905f5260205f20905b815481529060010190602001808311610c8d57829003601f168201915b505050505081565b600d5f9054906101000a900460ff1681565b6006602052805f5260405f205f915090505481565b60038054610ce69061256a565b80601f0160208091040260200160405190810160405280929190818152602001828054610d129061256a565b8015610d5d5780601f10610d3457610100808354040283529160200191610d5d565b820191905f5260205f20905b815481529060010190602001808311610d4057829003601f168201915b505050505081565b60075481565b60606009805480602002602001604051908101604052809291908181526020015f905b82821015610e26578382905f5260205f2090600302016040518060600160405290815f820154815260200160018201548152602001600282015f9054906101000a900473ffffffffffffffffffffffffffffffffffffffff1673ffffffffffffffffffffffffffffffffffffffff1673ffffffffffffffffffffffffffffffffffffffff168152505081526020019060010190610d8e565b50505050905090565b600a5f9054906101000a900473ffffffffffffffffffffffffffffffffffffffff1681565b60025481565b600c54421015610e9f576040517f08c379a0000000000000000000000000000000000000000000000000000000008152600401610e96906125e4565b60405180910390fd5b600d5f9054906101000a900460ff1615610eee576040517f08c379a0000000000000000000000000000000000000000000000000000000008152600401610ee59061264c565b60405180910390fd5b6001600d5f6101000a81548160ff0219169083151502179055505f600b5411156111a657600b54471015610f57576040517f08c379a0000000000000000000000000000000000000000000000000000000008152600401610f4e906126b4565b60405180910390fd5b5f60065f600a5f9054906101000a900473ffffffffffffffffffffffffffffffffffffffff1673ffffffffffffffffffffffffffffffffffffffff1673ffffffffffffffffffffffffffffffffffffffff1681526020019081526020015f20819055505f60015f9054906101000a900473ffffffffffffffffffffffffffffffffffffffff1673ffffffffffffffffffffffffffffffffffffffff16600b5460405161100290612459565b5f6040518083038185875af1925050503d805f811461103c576040519150601f19603f3d011682016040523d82523d5f602084013e611041565b606091505b5050905080611085576040517f08c379a000000000000000000000000000000000000000000000000000000000815260040161107c9061271c565b60405180910390fd5b5f5f9054906101000a900473ffffffffffffffffffffffffffffffffffffffff1673ffffffffffffffffffffffffffffffffffffffff16638dfac90c60015f9054906101000a900473ffffffffffffffffffffffffffffffffffffffff16600b5460016040518463ffffffff1660e01b81526004016111069392919061273a565b5f604051808303815f87803b15801561111d575f5ffd5b505af115801561112f573d5f5f3e3d5ffd5b5050505060015f9054906101000a900473ffffffffffffffffffffffffffffffffffffffff1673ffffffffffffffffffffffffffffffffffffffff167fcb4a9094da4df77fb2c0dbaa5047660b1237e61d82a02176c1be74ca757f2531600b5460405161119c9190611dcc565b60405180910390a2505b565b600981815481106111b7575f80fd5b905f5260205f2090600302015f91509050805f015490806001015490806002015f9054906101000a900473ffffffffffffffffffffffffffffffffffffffff16905083565b6060600880548060200260200160405190810160405280929190818152602001828054801561127d57602002820191905f5260205f20905b815f9054906101000a900473ffffffffffffffffffffffffffffffffffffffff1673ffffffffffffffffffffffffffffffffffffffff1681526020019060010190808311611234575b5050505050905090565b5f5f9054906101000a900473ffffffffffffffffffffffffffffffffffffffff1681565b600d5f9054906101000a900460ff166112f9576040517f08c379a00000000000000000000000000000000000000000000000000000000081526004016112f09061233e565b60405180910390fd5b5f811161133b576040517f08c379a0000000000000000000000000000000000000000000000000000000008152600401611332906127b9565b60405180910390fd5b5f5f90505b600880549050600e5410801561135557508181105b156115a9575f6008600e5481548110611371576113706127d7565b5b905f5260205f20015f9054906101000a900473ffffffffffffffffffffffffffffffffffffffff169050600e5f8154809291906113ad90612831565b9190505550600a5f9054906101000a900473ffffffffffffffffffffffffffffffffffffffff1673ffffffffffffffffffffffffffffffffffffffff168173ffffffffffffffffffffffffffffffffffffffff160361140c5750611340565b5f60065f8373ffffffffffffffffffffffffffffffffffffffff1673ffffffffffffffffffffffffffffffffffffffff1681526020019081526020015f205490505f810361145b575050611340565b5f60065f8473ffffffffffffffffffffffffffffffffffffffff1673ffffffffffffffffffffffffffffffffffffffff1681526020019081526020015f20819055505f8273ffffffffffffffffffffffffffffffffffffffff16826040516114c290612459565b5f6040518083038185875af1925050503d805f81146114fc576040519150601f19603f3d011682016040523d82523d5f602084013e611501565b606091505b5050905080611545576040517f08c379a000000000000000000000000000000000000000000000000000000000815260040161153c906124b7565b60405180910390fd5b8273ffffffffffffffffffffffffffffffffffffffff167f3367befd2b2f39615cd79917c2153263c4af1d3945ec003e5d5bfc13a8d858338360405161158b9190611dcc565b60405180910390a2838061159e90612831565b945050505050611340565b5050565b5f60065f8373ffffffffffffffffffffffffffffffffffffffff1673ffffffffffffffffffffffffffffffffffffffff1681526020019081526020015f20549050919050565b600b5481565b600c54421061163d576040517f08c379a0000000000000000000000000000000000000000000000000000000008152600401611634906128c2565b60405180910390fd5b60015f9054906101000a900473ffffffffffffffffffffffffffffffffffffffff1673ffffffffffffffffffffffffffffffffffffffff163373ffffffffffffffffffffffffffffffffffffffff16036116cc576040517f08c379a00000000000000000000000000000000000000000000000000000000081526004016116c390612950565b60405180910390fd5b5f341161170e576040517f08c379a0000000000000000000000000000000000000000000000000000000008152600401611705906129b8565b60405180910390fd5b5f60065f3373ffffffffffffffffffffffffffffffffffffffff1673ffffffffffffffffffffffffffffffffffffffff1681526020019081526020015f205490505f348261175c91906129d6565b90505f73ffffffffffffffffffffffffffffffffffffffff16600a5f9054906101000a900473ffffffffffffffffffffffffffffffffffffffff1673ffffffffffffffffffffffffffffffffffffffff1603611886576002548110156117f7576040517f08c379a00000000000000000000000000000000000000000000000000000000081526004016117ee90612a53565b60405180910390fd5b5f5f9054906101000a900473ffffffffffffffffffffffffffffffffffffffff1673ffffffffffffffffffffffffffffffffffffffff16638dfac90c33345f6040518463ffffffff1660e01b81526004016118549392919061273a565b5f604051808303815f87803b15801561186b575f5ffd5b505af115801561187d573d5f5f3e3d5ffd5b50505050611ae7565b600b5481116118ca576040517f08c379a00000000000000000000000000000000000000000000000000000000081526004016118c190612abb565b60405180910390fd5b600a5f9054906101000a900473ffffffffffffffffffffffffffffffffffffffff1673ffffffffffffffffffffffffffffffffffffffff163373ffffffffffffffffffffffffffffffffffffffff1614611a5b575f5f9054906101000a900473ffffffffffffffffffffffffffffffffffffffff1673ffffffffffffffffffffffffffffffffffffffff16638dfac90c600a5f9054906101000a900473ffffffffffffffffffffffffffffffffffffffff16600b5460016040518463ffffffff1660e01b815260040161199f9392919061273a565b5f604051808303815f87803b1580156119b6575f5ffd5b505af11580156119c8573d5f5f3e3d5ffd5b505050505f5f9054906101000a900473ffffffffffffffffffffffffffffffffffffffff1673ffffffffffffffffffffffffffffffffffffffff16638dfac90c33835f6040518463ffffffff1660e01b8152600401611a299392919061273a565b5f604051808303815f87803b158015611a40575f5ffd5b505af1158015611a52573d5f5f3e3d5ffd5b50505050611ae6565b5f5f9054906101000a900473ffffffffffffffffffffffffffffffffffffffff1673ffffffffffffffffffffffffffffffffffffffff16638dfac90c33345f6040518463ffffffff1660e01b8152600401611ab89392919061273a565b5f604051808303815f87803b158015611acf575f5ffd5b505af1158015611ae1573d5f5f3e3d5ffd5b505050505b5b8060065f3373ffffffffffffffffffffffffffffffffffffffff1673ffffffffffffffffffffffffffffffffffffffff1681526020019081526020015f208190555080600b8190555033600a5f6101000a81548173ffffffffffffffffffffffffffffffffffffffff021916908373ffffffffffffffffffffffffffffffffffffffff160217905550600960405180606001604052803481526020014281526020013373ffffffffffffffffffffffffffffffffffffffff16815250908060018154018082558091505060019003905f5260205f2090600302015f909190919091505f820151815f0155602082015181600101556040820151816002015f6101000a81548173ffffffffffffffffffffffffffffffffffffffff021916908373ffffffffffffffffffffffffffffffffffffffff160217905550505060055f3373ffffffffffffffffffffffffffffffffffffffff1673ffffffffffffffffffffffffffffffffffffffff1681526020019081526020015f205f9054906101000a900460ff16611d3e57600160055f3373ffffffffffffffffffffffffffffffffffffffff1673ffffffffffffffffffffffffffffffffffffffff1681526020019081526020015f205f6101000a81548160ff02191690831515021790555060075f815480929190611cd890612831565b9190505550600833908060018154018082558091505060019003905f5260205f20015f9091909190916101000a81548173ffffffffffffffffffffffffffffffffffffffff021916908373ffffffffffffffffffffffffffffffffffffffff1602179055505b7f6cd3b8608d4368d7a92cfda5a745dfb2993256da9506cd888f31ff9aa48e2bd933604051611d6d91906120a6565b60405180910390a15050565b60088181548110611d88575f80fd5b905f5260205f20015f915054906101000a900473ffffffffffffffffffffffffffffffffffffffff1681565b5f819050919050565b611dc681611db4565b82525050565b5f602082019050611ddf5f830184611dbd565b92915050565b5f5ffd5b5f73ffffffffffffffffffffffffffffffffffffffff82169050919050565b5f611e1282611de9565b9050919050565b611e2281611e08565b8114611e2c575f5ffd5b50565b5f81359050611e3d81611e19565b92915050565b5f60208284031215611e5857611e57611de5565b5b5f611e6584828501611e2f565b91505092915050565b5f8115159050919050565b611e8281611e6e565b82525050565b5f602082019050611e9b5f830184611e79565b92915050565b5f81519050919050565b5f82825260208201905092915050565b8281835e5f83830152505050565b5f601f19601f8301169050919050565b5f611ee382611ea1565b611eed8185611eab565b9350611efd818560208601611ebb565b611f0681611ec9565b840191505092915050565b5f6020820190508181035f830152611f298184611ed9565b905092915050565b611f3a81611e08565b82525050565b5f81519050919050565b5f82825260208201905092915050565b5f819050602082019050919050565b611f7281611e08565b82525050565b5f611f838383611f69565b60208301905092915050565b5f602082019050919050565b5f611fa582611f40565b611faf8185611f4a565b9350611fba83611f5a565b805f5b83811015611fea578151611fd18882611f78565b9750611fdc83611f8f565b925050600181019050611fbd565b5085935050505092915050565b5f6101408201905061200b5f83018d611dbd565b612018602083018c611dbd565b612025604083018b611dbd565b612032606083018a611f31565b61203f6080830189611dbd565b81810360a08301526120518188611ed9565b905081810360c08301526120658187611ed9565b905061207460e0830186611f31565b8181036101008301526120878185611f9b565b9050612097610120830184611dbd565b9b9a5050505050505050505050565b5f6020820190506120b95f830184611f31565b92915050565b5f81519050919050565b5f82825260208201905092915050565b5f819050602082019050919050565b6120f181611db4565b82525050565b606082015f82015161210b5f8501826120e8565b50602082015161211e60208501826120e8565b5060408201516121316040850182611f69565b50505050565b5f61214283836120f7565b60608301905092915050565b5f602082019050919050565b5f612164826120bf565b61216e81856120c9565b9350612179836120d9565b805f5b838110156121a95781516121908882612137565b975061219b8361214e565b92505060018101905061217c565b5085935050505092915050565b5f6020820190508181035f8301526121ce818461215a565b905092915050565b6121df81611db4565b81146121e9575f5ffd5b50565b5f813590506121fa816121d6565b92915050565b5f6020828403121561221557612214611de5565b5b5f612222848285016121ec565b91505092915050565b5f60608201905061223e5f830186611dbd565b61224b6020830185611dbd565b6122586040830184611f31565b949350505050565b5f6020820190508181035f8301526122788184611f9b565b905092915050565b5f819050919050565b5f6122a361229e61229984611de9565b612280565b611de9565b9050919050565b5f6122b482612289565b9050919050565b5f6122c5826122aa565b9050919050565b6122d5816122bb565b82525050565b5f6020820190506122ee5f8301846122cc565b92915050565b7f41756374696f6e206e6f742066696e616c697a656400000000000000000000005f82015250565b5f612328601583611eab565b9150612333826122f4565b602082019050919050565b5f6020820190508181035f8301526123558161231c565b9050919050565b7f57696e6e657220686173206e6f20726566756e640000000000000000000000005f82015250565b5f612390601483611eab565b915061239b8261235c565b602082019050919050565b5f6020820190508181035f8301526123bd81612384565b9050919050565b7f4e6f20726566756e6420617661696c61626c65000000000000000000000000005f82015250565b5f6123f8601383611eab565b9150612403826123c4565b602082019050919050565b5f6020820190508181035f830152612425816123ec565b9050919050565b5f81905092915050565b50565b5f6124445f8361242c565b915061244f82612436565b5f82019050919050565b5f61246382612439565b9150819050919050565b7f526566756e64206661696c6564000000000000000000000000000000000000005f82015250565b5f6124a1600d83611eab565b91506124ac8261246d565b602082019050919050565b5f6020820190508181035f8301526124ce81612495565b9050919050565b7f4f6e6c792077696e6e65722063616e20616363657373207468652064617461005f82015250565b5f612509601f83611eab565b9150612514826124d5565b602082019050919050565b5f6020820190508181035f830152612536816124fd565b9050919050565b7f4e487b71000000000000000000000000000000000000000000000000000000005f52602260045260245ffd5b5f600282049050600182168061258157607f821691505b6020821081036125945761259361253d565b5b50919050565b7f41756374696f6e206e6f7420656e6465642079657400000000000000000000005f82015250565b5f6125ce601583611eab565b91506125d98261259a565b602082019050919050565b5f6020820190508181035f8301526125fb816125c2565b9050919050565b7f41756374696f6e20616c72656164792066696e616c697a6564000000000000005f82015250565b5f612636601983611eab565b915061264182612602565b602082019050919050565b5f6020820190508181035f8301526126638161262a565b9050919050565b7f496e73756666696369656e742062616c616e63650000000000000000000000005f82015250565b5f61269e601483611eab565b91506126a98261266a565b602082019050919050565b5f6020820190508181035f8301526126cb81612692565b9050919050565b7f53656c6c6572207061796d656e74206661696c656400000000000000000000005f82015250565b5f612706601583611eab565b9150612711826126d2565b602082019050919050565b5f6020820190508181035f830152612733816126fa565b9050919050565b5f60608201905061274d5f830186611f31565b61275a6020830185611dbd565b6127676040830184611e79565b949350505050565b7f42617463682073697a65207265717569726564000000000000000000000000005f82015250565b5f6127a3601383611eab565b91506127ae8261276f565b602082019050919050565b5f6020820190508181035f8301526127d081612797565b9050919050565b7f4e487b71000000000000000000000000000000000000000000000000000000005f52603260045260245ffd5b7f4e487b71000000000000000000000000000000000000000000000000000000005f52601160045260245ffd5b5f61283b82611db4565b91507fffffffffffffffffffffffffffffffffffffffffffffffffffffffffffffffff820361286d5761286c612804565b5b600182019050919050565b7f41756374696f6e20656e646564000000000000000000000000000000000000005f82015250565b5f6128ac600d83611eab565b91506128b782612878565b602082019050919050565b5f6020820190508181035f8301526128d9816128a0565b9050919050565b7f596f752063616e277420626964206f6e20796f7572206f776e2061756374696f5f8201527f6e00000000000000000000000000000000000000000000000000000000000000602082015250565b5f61293a602183611eab565b9150612945826128e0565b604082019050919050565b5f6020820190508181035f8301526129678161292e565b9050919050565b7f4d7573742073656e6420736f6d652065746865720000000000000000000000005f82015250565b5f6129a2601483611eab565b91506129ad8261296e565b602082019050919050565b5f6020820190508181035f8301526129cf81612996565b9050919050565b5f6129e082611db4565b91506129eb83611db4565b9250828201905080821115612a0357612a02612804565b5b92915050565b7f42656c6f77206d696e696d756d206269640000000000000000000000000000005f82015250565b5f612a3d601183611eab565b9150612a4882612a09565b602082019050919050565b5f6020820190508181035f830152612a6a81612a31565b9050919050565b7f426964206d757374206578636565642063757272656e742068696768657374005f82015250565b5f612aa5601f83611eab565b9150612ab082612a71565b602082019050919050565b5f6020820190508181035f830152612ad281612a99565b905091905056fea264697066735822122046a8243e46f5b1fa54b93085a651fab7b9f195be1f7bc87edde3f2055dd65e0864736f6c63430008230033","opcodes":"PUSH1 0x80 PUSH1 0x40 MSTORE CALLVALUE DUP1 ISZERO PUSH2 0xF JUMPI PUSH0 PUSH0 REVERT JUMPDEST POP PUSH1 0x40 MLOAD PUSH2 0x31A0 CODESIZE SUB DUP1 PUSH2 0x31A0 DUP4 CODECOPY DUP2 DUP2 ADD PUSH1 0x40 MSTORE DUP2 ADD SWAP1 PUSH2 0x31 SWAP2 SWAP1 PUSH2 0x2DC JUMP JUMPDEST DUP3 PUSH1 0x1 PUSH0 PUSH2 0x100 EXP DUP2 SLOAD DUP2 PUSH20 0xFFFFFFFFFFFFFFFFFFFFFFFFFFFFFFFFFFFFFFFF MUL NOT AND SWAP1 DUP4 PUSH20 0xFFFFFFFFFFFFFFFFFFFFFFFFFFFFFFFFFFFFFFFF AND MUL OR SWAP1 SSTORE POP DUP6 PUSH1 0x2 DUP2 SWAP1 SSTORE POP DUP5 PUSH1 0x3 SWAP1 DUP2 PUSH2 0x87 SWAP2 SWAP1 PUSH2 0x5B5 JUMP JUMPDEST POP DUP4 PUSH1 0x4 SWAP1 DUP2 PUSH2 0x97 SWAP2 SWAP1 PUSH2 0x5B5 JUMP JUMPDEST POP DUP2 PUSH1 0xC DUP2 SWAP1 SSTORE POP PUSH0 PUSH1 0xD PUSH0 PUSH2 0x100 EXP DUP2 SLOAD DUP2 PUSH1 0xFF MUL NOT AND SWAP1 DUP4 ISZERO ISZERO MUL OR SWAP1 SSTORE POP DUP1 PUSH0 PUSH0 PUSH2 0x100 EXP DUP2 SLOAD DUP2 PUSH20 0xFFFFFFFFFFFFFFFFFFFFFFFFFFFFFFFFFFFFFFFF MUL NOT AND SWAP1 DUP4 PUSH20 0xFFFFFFFFFFFFFFFFFFFFFFFFFFFFFFFFFFFFFFFF AND MUL OR SWAP1 SSTORE POP POP POP POP POP POP POP PUSH2 0x684 JUMP JUMPDEST PUSH0 PUSH1 0x40 MLOAD SWAP1 POP SWAP1 JUMP JUMPDEST PUSH0 PUSH0 REVERT JUMPDEST PUSH0 PUSH0 REVERT JUMPDEST PUSH0 DUP2 SWAP1 POP SWAP2 SWAP1 POP JUMP JUMPDEST PUSH2 0x125 DUP2 PUSH2 0x113 JUMP JUMPDEST DUP2 EQ PUSH2 0x12F JUMPI PUSH0 PUSH0 REVERT JUMPDEST POP JUMP JUMPDEST PUSH0 DUP2 MLOAD SWAP1 POP PUSH2 0x140 DUP2 PUSH2 0x11C JUMP JUMPDEST SWAP3 SWAP2 POP POP JUMP JUMPDEST PUSH0 PUSH0 REVERT JUMPDEST PUSH0 PUSH0 REVERT JUMPDEST PUSH0 PUSH1 0x1F NOT PUSH1 0x1F DUP4 ADD AND SWAP1 POP SWAP2 SWAP1 POP JUMP JUMPDEST PUSH32 0x4E487B7100000000000000000000000000000000000000000000000000000000 PUSH0 MSTORE PUSH1 0x41 PUSH1 0x4 MSTORE PUSH1 0x24 PUSH0 REVERT JUMPDEST PUSH2 0x194 DUP3 PUSH2 0x14E JUMP JUMPDEST DUP2 ADD DUP2 DUP2 LT PUSH8 0xFFFFFFFFFFFFFFFF DUP3 GT OR ISZERO PUSH2 0x1B3 JUMPI PUSH2 0x1B2 PUSH2 0x15E JUMP JUMPDEST JUMPDEST DUP1 PUSH1 0x40 MSTORE POP POP POP JUMP JUMPDEST PUSH0 PUSH2 0x1C5 PUSH2 0x102 JUMP JUMPDEST SWAP1 POP PUSH2 0x1D1 DUP3 DUP3 PUSH2 0x18B JUMP JUMPDEST SWAP2 SWAP1 POP JUMP JUMPDEST PUSH0 PUSH8 0xFFFFFFFFFFFFFFFF DUP3 GT ISZERO PUSH2 0x1F0 JUMPI PUSH2 0x1EF PUSH2 0x15E JUMP JUMPDEST JUMPDEST PUSH2 0x1F9 DUP3 PUSH2 0x14E JUMP JUMPDEST SWAP1 POP PUSH1 0x20 DUP2 ADD SWAP1 POP SWAP2 SWAP1 POP JUMP JUMPDEST DUP3 DUP2 DUP4 MCOPY PUSH0 DUP4 DUP4 ADD MSTORE POP POP POP JUMP JUMPDEST PUSH0 PUSH2 0x226 PUSH2 0x221 DUP5 PUSH2 0x1D6 JUMP JUMPDEST PUSH2 0x1BC JUMP JUMPDEST SWAP1 POP DUP3 DUP2 MSTORE PUSH1 0x20 DUP2 ADD DUP5 DUP5 DUP5 ADD GT ISZERO PUSH2 0x242 JUMPI PUSH2 0x241 PUSH2 0x14A JUMP JUMPDEST JUMPDEST PUSH2 0x24D DUP5 DUP3 DUP6 PUSH2 0x206 JUMP JUMPDEST POP SWAP4 SWAP3 POP POP POP JUMP JUMPDEST PUSH0 DUP3 PUSH1 0x1F DUP4 ADD SLT PUSH2 0x269 JUMPI PUSH2 0x268 PUSH2 0x146 JUMP JUMPDEST JUMPDEST DUP2 MLOAD PUSH2 0x279 DUP5 DUP3 PUSH1 0x20 DUP7 ADD PUSH2 0x214 JUMP JUMPDEST SWAP2 POP POP SWAP3 SWAP2 POP POP JUMP JUMPDEST PUSH0 PUSH20 0xFFFFFFFFFFFFFFFFFFFFFFFFFFFFFFFFFFFFFFFF DUP3 AND SWAP1 POP SWAP2 SWAP1 POP JUMP JUMPDEST PUSH0 PUSH2 0x2AB DUP3 PUSH2 0x282 JUMP JUMPDEST SWAP1 POP SWAP2 SWAP1 POP JUMP JUMPDEST PUSH2 0x2BB DUP2 PUSH2 0x2A1 JUMP JUMPDEST DUP2 EQ PUSH2 0x2C5 JUMPI PUSH0 PUSH0 REVERT JUMPDEST POP JUMP JUMPDEST PUSH0 DUP2 MLOAD SWAP1 POP PUSH2 0x2D6 DUP2 PUSH2 0x2B2 JUMP JUMPDEST SWAP3 SWAP2 POP POP JUMP JUMPDEST PUSH0 PUSH0 PUSH0 PUSH0 PUSH0 PUSH0 PUSH1 0xC0 DUP8 DUP10 SUB SLT ISZERO PUSH2 0x2F6 JUMPI PUSH2 0x2F5 PUSH2 0x10B JUMP JUMPDEST JUMPDEST PUSH0 PUSH2 0x303 DUP10 DUP3 DUP11 ADD PUSH2 0x132 JUMP JUMPDEST SWAP7 POP POP PUSH1 0x20 DUP8 ADD MLOAD PUSH8 0xFFFFFFFFFFFFFFFF DUP2 GT ISZERO PUSH2 0x324 JUMPI PUSH2 0x323 PUSH2 0x10F JUMP JUMPDEST JUMPDEST PUSH2 0x330 DUP10 DUP3 DUP11 ADD PUSH2 0x255 JUMP JUMPDEST SWAP6 POP POP PUSH1 0x40 DUP8 ADD MLOAD PUSH8 0xFFFFFFFFFFFFFFFF DUP2 GT ISZERO PUSH2 0x351 JUMPI PUSH2 0x350 PUSH2 0x10F JUMP JUMPDEST JUMPDEST PUSH2 0x35D DUP10 DUP3 DUP11 ADD PUSH2 0x255 JUMP JUMPDEST SWAP5 POP POP PUSH1 0x60 PUSH2 0x36E DUP10 DUP3 DUP11 ADD PUSH2 0x2C8 JUMP JUMPDEST SWAP4 POP POP PUSH1 0x80 PUSH2 0x37F DUP10 DUP3 DUP11 ADD PUSH2 0x132 JUMP JUMPDEST SWAP3 POP POP PUSH1 0xA0 PUSH2 0x390 DUP10 DUP3 DUP11 ADD PUSH2 0x2C8 JUMP JUMPDEST SWAP2 POP POP SWAP3 SWAP6 POP SWAP3 SWAP6 POP SWAP3 SWAP6 JUMP JUMPDEST PUSH0 DUP2 MLOAD SWAP1 POP SWAP2 SWAP1 POP JUMP JUMPDEST PUSH32 0x4E487B7100000000000000000000000000000000000000000000000000000000 PUSH0 MSTORE PUSH1 0x22 PUSH1 0x4 MSTORE PUSH1 0x24 PUSH0 REVERT JUMPDEST PUSH0 PUSH1 0x2 DUP3 DIV SWAP1 POP PUSH1 0x1 DUP3 AND DUP1 PUSH2 0x3EB JUMPI PUSH1 0x7F DUP3 AND SWAP2 POP JUMPDEST PUSH1 0x20 DUP3 LT DUP2 SUB PUSH2 0x3FE JUMPI PUSH2 0x3FD PUSH2 0x3A7 JUMP JUMPDEST JUMPDEST POP SWAP2 SWAP1 POP JUMP JUMPDEST PUSH0 DUP2 SWAP1 POP DUP2 PUSH0 MSTORE PUSH1 0x20 PUSH0 KECCAK256 SWAP1 POP SWAP2 SWAP1 POP JUMP JUMPDEST PUSH0 PUSH1 0x20 PUSH1 0x1F DUP4 ADD DIV SWAP1 POP SWAP2 SWAP1 POP JUMP JUMPDEST PUSH0 DUP3 DUP3 SHL SWAP1 POP SWAP3 SWAP2 POP POP JUMP JUMPDEST PUSH0 PUSH1 0x8 DUP4 MUL PUSH2 0x460 PUSH32 0xFFFFFFFFFFFFFFFFFFFFFFFFFFFFFFFFFFFFFFFFFFFFFFFFFFFFFFFFFFFFFFFF DUP3 PUSH2 0x425 JUMP JUMPDEST PUSH2 0x46A DUP7 DUP4 PUSH2 0x425 JUMP JUMPDEST SWAP6 POP DUP1 NOT DUP5 AND SWAP4 POP DUP1 DUP7 AND DUP5 OR SWAP3 POP POP POP SWAP4 SWAP3 POP POP POP JUMP JUMPDEST PUSH0 DUP2 SWAP1 POP SWAP2 SWAP1 POP JUMP JUMPDEST PUSH0 PUSH2 0x4A5 PUSH2 0x4A0 PUSH2 0x49B DUP5 PUSH2 0x113 JUMP JUMPDEST PUSH2 0x482 JUMP JUMPDEST PUSH2 0x113 JUMP JUMPDEST SWAP1 POP SWAP2 SWAP1 POP JUMP JUMPDEST PUSH0 DUP2 SWAP1 POP SWAP2 SWAP1 POP JUMP JUMPDEST PUSH2 0x4BE DUP4 PUSH2 0x48B JUMP JUMPDEST PUSH2 0x4D2 PUSH2 0x4CA DUP3 PUSH2 0x4AC JUMP JUMPDEST DUP5 DUP5 SLOAD PUSH2 0x431 JUMP JUMPDEST DUP3 SSTORE POP POP POP POP JUMP JUMPDEST PUSH0 PUSH0 SWAP1 POP SWAP1 JUMP JUMPDEST PUSH2 0x4E9 PUSH2 0x4DA JUMP JUMPDEST PUSH2 0x4F4 DUP2 DUP5 DUP5 PUSH2 0x4B5 JUMP JUMPDEST POP POP POP JUMP JUMPDEST PUSH0 JUMPDEST DUP3 DUP2 LT ISZERO PUSH2 0x51A JUMPI PUSH2 0x50F PUSH0 DUP3 DUP5 ADD PUSH2 0x4E1 JUMP JUMPDEST PUSH1 0x1 DUP2 ADD SWAP1 POP PUSH2 0x4FB JUMP JUMPDEST POP POP POP JUMP JUMPDEST PUSH1 0x1F DUP3 GT ISZERO PUSH2 0x56D JUMPI DUP3 DUP3 GT ISZERO PUSH2 0x56C JUMPI PUSH2 0x539 DUP2 PUSH2 0x404 JUMP JUMPDEST PUSH2 0x542 DUP4 PUSH2 0x416 JUMP JUMPDEST PUSH2 0x54B DUP6 PUSH2 0x416 JUMP JUMPDEST PUSH1 0x20 DUP7 LT ISZERO PUSH2 0x558 JUMPI PUSH0 SWAP1 POP JUMPDEST DUP1 DUP4 ADD PUSH2 0x567 DUP3 DUP5 SUB DUP3 PUSH2 0x4F9 JUMP JUMPDEST POP POP POP POP JUMPDEST JUMPDEST POP POP POP JUMP JUMPDEST PUSH0 DUP3 DUP3 SHR SWAP1 POP SWAP3 SWAP2 POP POP JUMP JUMPDEST PUSH0 PUSH2 0x58D PUSH0 NOT DUP5 PUSH1 0x8 MUL PUSH2 0x572 JUMP JUMPDEST NOT DUP1 DUP4 AND SWAP2 POP POP SWAP3 SWAP2 POP POP JUMP JUMPDEST PUSH0 PUSH2 0x5A5 DUP4 DUP4 PUSH2 0x57E JUMP JUMPDEST SWAP2 POP DUP3 PUSH1 0x2 MUL DUP3 OR SWAP1 POP SWAP3 SWAP2 POP POP JUMP JUMPDEST PUSH2 0x5BE DUP3 PUSH2 0x39D JUMP JUMPDEST PUSH8 0xFFFFFFFFFFFFFFFF DUP2 GT ISZERO PUSH2 0x5D7 JUMPI PUSH2 0x5D6 PUSH2 0x15E JUMP JUMPDEST JUMPDEST PUSH2 0x5E1 DUP3 SLOAD PUSH2 0x3D4 JUMP JUMPDEST PUSH2 0x5EC DUP3 DUP3 DUP6 PUSH2 0x51F JUMP JUMPDEST PUSH0 PUSH1 0x20 SWAP1 POP PUSH1 0x1F DUP4 GT PUSH1 0x1 DUP2 EQ PUSH2 0x61D JUMPI PUSH0 DUP5 ISZERO PUSH2 0x60B JUMPI DUP3 DUP8 ADD MLOAD SWAP1 POP JUMPDEST PUSH2 0x615 DUP6 DUP3 PUSH2 0x59A JUMP JUMPDEST DUP7 SSTORE POP PUSH2 0x67C JUMP JUMPDEST PUSH1 0x1F NOT DUP5 AND PUSH2 0x62B DUP7 PUSH2 0x404 JUMP JUMPDEST PUSH0 JUMPDEST DUP3 DUP2 LT ISZERO PUSH2 0x652 JUMPI DUP5 DUP10 ADD MLOAD DUP3 SSTORE PUSH1 0x1 DUP3 ADD SWAP2 POP PUSH1 0x20 DUP6 ADD SWAP5 POP PUSH1 0x20 DUP2 ADD SWAP1 POP PUSH2 0x62D JUMP JUMPDEST DUP7 DUP4 LT ISZERO PUSH2 0x66F JUMPI DUP5 DUP10 ADD MLOAD PUSH2 0x66B PUSH1 0x1F DUP10 AND DUP3 PUSH2 0x57E JUMP JUMPDEST DUP4 SSTORE POP JUMPDEST PUSH1 0x1 PUSH1 0x2 DUP9 MUL ADD DUP9 SSTORE POP POP POP JUMPDEST POP POP POP POP POP POP JUMP JUMPDEST PUSH2 0x2B0F DUP1 PUSH2 0x691 PUSH0 CODECOPY PUSH0 RETURN INVALID PUSH1 0x80 PUSH1 0x40 MSTORE PUSH1 0x4 CALLDATASIZE LT PUSH2 0x165 JUMPI PUSH0 CALLDATALOAD PUSH1 0xE0 SHR DUP1 PUSH4 0x82FDE093 GT PUSH2 0xD0 JUMPI DUP1 PUSH4 0xA39FAC12 GT PUSH2 0x89 JUMPI DUP1 PUSH4 0xC8B342AB GT PUSH2 0x63 JUMPI DUP1 PUSH4 0xC8B342AB EQ PUSH2 0x4F2 JUMPI DUP1 PUSH4 0xD57BDE79 EQ PUSH2 0x52E JUMPI DUP1 PUSH4 0xD7BB99BA EQ PUSH2 0x558 JUMPI DUP1 PUSH4 0xEDF26D9B EQ PUSH2 0x562 JUMPI PUSH2 0x165 JUMP JUMPDEST DUP1 PUSH4 0xA39FAC12 EQ PUSH2 0x476 JUMPI DUP1 PUSH4 0xC45A0155 EQ PUSH2 0x4A0 JUMPI DUP1 PUSH4 0xC6F56901 EQ PUSH2 0x4CA JUMPI PUSH2 0x165 JUMP JUMPDEST DUP1 PUSH4 0x82FDE093 EQ PUSH2 0x37A JUMPI DUP1 PUSH4 0x83920E90 EQ PUSH2 0x3A4 JUMPI DUP1 PUSH4 0x91F90157 EQ PUSH2 0x3CE JUMPI DUP1 PUSH4 0x937E09B1 EQ PUSH2 0x3F8 JUMPI DUP1 PUSH4 0x976AF615 EQ PUSH2 0x422 JUMPI DUP1 PUSH4 0x9ACE38C2 EQ PUSH2 0x438 JUMPI PUSH2 0x165 JUMP JUMPDEST DUP1 PUSH4 0x481C6A75 GT PUSH2 0x122 JUMPI DUP1 PUSH4 0x481C6A75 EQ PUSH2 0x26C JUMPI DUP1 PUSH4 0x4E69D560 EQ PUSH2 0x296 JUMPI DUP1 PUSH4 0x58D65629 EQ PUSH2 0x2C0 JUMPI DUP1 PUSH4 0x597E1FB5 EQ PUSH2 0x2EA JUMPI DUP1 PUSH4 0x5DC1D641 EQ PUSH2 0x314 JUMPI DUP1 PUSH4 0x7B87D856 EQ PUSH2 0x350 JUMPI PUSH2 0x165 JUMP JUMPDEST DUP1 PUSH4 0x74D55C4 EQ PUSH2 0x169 JUMPI DUP1 PUSH4 0xA144391 EQ PUSH2 0x193 JUMPI DUP1 PUSH4 0x110F8874 EQ PUSH2 0x1CF JUMPI DUP1 PUSH4 0x3197CBB6 EQ PUSH2 0x1E5 JUMPI DUP1 PUSH4 0x3BC5DE30 EQ PUSH2 0x20F JUMPI DUP1 PUSH4 0x4051DDAC EQ PUSH2 0x239 JUMPI JUMPDEST PUSH0 PUSH0 REVERT JUMPDEST CALLVALUE DUP1 ISZERO PUSH2 0x174 JUMPI PUSH0 PUSH0 REVERT JUMPDEST POP PUSH2 0x17D PUSH2 0x59E JUMP JUMPDEST PUSH1 0x40 MLOAD PUSH2 0x18A SWAP2 SWAP1 PUSH2 0x1DCC JUMP JUMPDEST PUSH1 0x40 MLOAD DUP1 SWAP2 SUB SWAP1 RETURN JUMPDEST CALLVALUE DUP1 ISZERO PUSH2 0x19E JUMPI PUSH0 PUSH0 REVERT JUMPDEST POP PUSH2 0x1B9 PUSH1 0x4 DUP1 CALLDATASIZE SUB DUP2 ADD SWAP1 PUSH2 0x1B4 SWAP2 SWAP1 PUSH2 0x1E43 JUMP JUMPDEST PUSH2 0x5A4 JUMP JUMPDEST PUSH1 0x40 MLOAD PUSH2 0x1C6 SWAP2 SWAP1 PUSH2 0x1E88 JUMP JUMPDEST PUSH1 0x40 MLOAD DUP1 SWAP2 SUB SWAP1 RETURN JUMPDEST CALLVALUE DUP1 ISZERO PUSH2 0x1DA JUMPI PUSH0 PUSH0 REVERT JUMPDEST POP PUSH2 0x1E3 PUSH2 0x5C1 JUMP JUMPDEST STOP JUMPDEST CALLVALUE DUP1 ISZERO PUSH2 0x1F0 JUMPI PUSH0 PUSH0 REVERT JUMPDEST POP PUSH2 0x1F9 PUSH2 0x85D JUMP JUMPDEST PUSH1 0x40 MLOAD PUSH2 0x206 SWAP2 SWAP1 PUSH2 0x1DCC JUMP JUMPDEST PUSH1 0x40 MLOAD DUP1 SWAP2 SUB SWAP1 RETURN JUMPDEST CALLVALUE DUP1 ISZERO PUSH2 0x21A JUMPI PUSH0 PUSH0 REVERT JUMPDEST POP PUSH2 0x223 PUSH2 0x863 JUMP JUMPDEST PUSH1 0x40 MLOAD PUSH2 0x230 SWAP2 SWAP1 PUSH2 0x1F11 JUMP JUMPDEST PUSH1 0x40 MLOAD DUP1 SWAP2 SUB SWAP1 RETURN JUMPDEST CALLVALUE DUP1 ISZERO PUSH2 0x244 JUMPI PUSH0 PUSH0 REVERT JUMPDEST POP PUSH2 0x24D PUSH2 0x9D0 JUMP JUMPDEST PUSH1 0x40 MLOAD PUSH2 0x263 SWAP11 SWAP10 SWAP9 SWAP8 SWAP7 SWAP6 SWAP5 SWAP4 SWAP3 SWAP2 SWAP1 PUSH2 0x1FF7 JUMP JUMPDEST PUSH1 0x40 MLOAD DUP1 SWAP2 SUB SWAP1 RETURN JUMPDEST CALLVALUE DUP1 ISZERO PUSH2 0x277 JUMPI PUSH0 PUSH0 REVERT JUMPDEST POP PUSH2 0x280 PUSH2 0xBEC JUMP JUMPDEST PUSH1 0x40 MLOAD PUSH2 0x28D SWAP2 SWAP1 PUSH2 0x20A6 JUMP JUMPDEST PUSH1 0x40 MLOAD DUP1 SWAP2 SUB SWAP1 RETURN JUMPDEST CALLVALUE DUP1 ISZERO PUSH2 0x2A1 JUMPI PUSH0 PUSH0 REVERT JUMPDEST POP PUSH2 0x2AA PUSH2 0xC11 JUMP JUMPDEST PUSH1 0x40 MLOAD PUSH2 0x2B7 SWAP2 SWAP1 PUSH2 0x1E88 JUMP JUMPDEST PUSH1 0x40 MLOAD DUP1 SWAP2 SUB SWAP1 RETURN JUMPDEST CALLVALUE DUP1 ISZERO PUSH2 0x2CB JUMPI PUSH0 PUSH0 REVERT JUMPDEST POP PUSH2 0x2D4 PUSH2 0xC26 JUMP JUMPDEST PUSH1 0x40 MLOAD PUSH2 0x2E1 SWAP2 SWAP1 PUSH2 0x1F11 JUMP JUMPDEST PUSH1 0x40 MLOAD DUP1 SWAP2 SUB SWAP1 RETURN JUMPDEST CALLVALUE DUP1 ISZERO PUSH2 0x2F5 JUMPI PUSH0 PUSH0 REVERT JUMPDEST POP PUSH2 0x2FE PUSH2 0xCB2 JUMP JUMPDEST PUSH1 0x40 MLOAD PUSH2 0x30B SWAP2 SWAP1 PUSH2 0x1E88 JUMP JUMPDEST PUSH1 0x40 MLOAD DUP1 SWAP2 SUB SWAP1 RETURN JUMPDEST CALLVALUE DUP1 ISZERO PUSH2 0x31F JUMPI PUSH0 PUSH0 REVERT JUMPDEST POP PUSH2 0x33A PUSH1 0x4 DUP1 CALLDATASIZE SUB DUP2 ADD SWAP1 PUSH2 0x335 SWAP2 SWAP1 PUSH2 0x1E43 JUMP JUMPDEST PUSH2 0xCC4 JUMP JUMPDEST PUSH1 0x40 MLOAD PUSH2 0x347 SWAP2 SWAP1 PUSH2 0x1DCC JUMP JUMPDEST PUSH1 0x40 MLOAD DUP1 SWAP2 SUB SWAP1 RETURN JUMPDEST CALLVALUE DUP1 ISZERO PUSH2 0x35B JUMPI PUSH0 PUSH0 REVERT JUMPDEST POP PUSH2 0x364 PUSH2 0xCD9 JUMP JUMPDEST PUSH1 0x40 MLOAD PUSH2 0x371 SWAP2 SWAP1 PUSH2 0x1F11 JUMP JUMPDEST PUSH1 0x40 MLOAD DUP1 SWAP2 SUB SWAP1 RETURN JUMPDEST CALLVALUE DUP1 ISZERO PUSH2 0x385 JUMPI PUSH0 PUSH0 REVERT JUMPDEST POP PUSH2 0x38E PUSH2 0xD65 JUMP JUMPDEST PUSH1 0x40 MLOAD PUSH2 0x39B SWAP2 SWAP1 PUSH2 0x1DCC JUMP JUMPDEST PUSH1 0x40 MLOAD DUP1 SWAP2 SUB SWAP1 RETURN JUMPDEST CALLVALUE DUP1 ISZERO PUSH2 0x3AF JUMPI PUSH0 PUSH0 REVERT JUMPDEST POP PUSH2 0x3B8 PUSH2 0xD6B JUMP JUMPDEST PUSH1 0x40 MLOAD PUSH2 0x3C5 SWAP2 SWAP1 PUSH2 0x21B6 JUMP JUMPDEST PUSH1 0x40 MLOAD DUP1 SWAP2 SUB SWAP1 RETURN JUMPDEST CALLVALUE DUP1 ISZERO PUSH2 0x3D9 JUMPI PUSH0 PUSH0 REVERT JUMPDEST POP PUSH2 0x3E2 PUSH2 0xE2F JUMP JUMPDEST PUSH1 0x40 MLOAD PUSH2 0x3EF SWAP2 SWAP1 PUSH2 0x20A6 JUMP JUMPDEST PUSH1 0x40 MLOAD DUP1 SWAP2 SUB SWAP1 RETURN JUMPDEST CALLVALUE DUP1 ISZERO PUSH2 0x403 JUMPI PUSH0 PUSH0 REVERT JUMPDEST POP PUSH2 0x40C PUSH2 0xE54 JUMP JUMPDEST PUSH1 0x40 MLOAD PUSH2 0x419 SWAP2 SWAP1 PUSH2 0x1DCC JUMP JUMPDEST PUSH1 0x40 MLOAD DUP1 SWAP2 SUB SWAP1 RETURN JUMPDEST CALLVALUE DUP1 ISZERO PUSH2 0x42D JUMPI PUSH0 PUSH0 REVERT JUMPDEST POP PUSH2 0x436 PUSH2 0xE5A JUMP JUMPDEST STOP JUMPDEST CALLVALUE DUP1 ISZERO PUSH2 0x443 JUMPI PUSH0 PUSH0 REVERT JUMPDEST POP PUSH2 0x45E PUSH1 0x4 DUP1 CALLDATASIZE SUB DUP2 ADD SWAP1 PUSH2 0x459 SWAP2 SWAP1 PUSH2 0x2200 JUMP JUMPDEST PUSH2 0x11A8 JUMP JUMPDEST PUSH1 0x40 MLOAD PUSH2 0x46D SWAP4 SWAP3 SWAP2 SWAP1 PUSH2 0x222B JUMP JUMPDEST PUSH1 0x40 MLOAD DUP1 SWAP2 SUB SWAP1 RETURN JUMPDEST CALLVALUE DUP1 ISZERO PUSH2 0x481 JUMPI PUSH0 PUSH0 REVERT JUMPDEST POP PUSH2 0x48A PUSH2 0x11FC JUMP JUMPDEST PUSH1 0x40 MLOAD PUSH2 0x497 SWAP2 SWAP1 PUSH2 0x2260 JUMP JUMPDEST PUSH1 0x40 MLOAD DUP1 SWAP2 SUB SWAP1 RETURN JUMPDEST CALLVALUE DUP1 ISZERO PUSH2 0x4AB JUMPI PUSH0 PUSH0 REVERT JUMPDEST POP PUSH2 0x4B4 PUSH2 0x1287 JUMP JUMPDEST PUSH1 0x40 MLOAD PUSH2 0x4C1 SWAP2 SWAP1 PUSH2 0x22DB JUMP JUMPDEST PUSH1 0x40 MLOAD DUP1 SWAP2 SUB SWAP1 RETURN JUMPDEST CALLVALUE DUP1 ISZERO PUSH2 0x4D5 JUMPI PUSH0 PUSH0 REVERT JUMPDEST POP PUSH2 0x4F0 PUSH1 0x4 DUP1 CALLDATASIZE SUB DUP2 ADD SWAP1 PUSH2 0x4EB SWAP2 SWAP1 PUSH2 0x2200 JUMP JUMPDEST PUSH2 0x12AB JUMP JUMPDEST STOP JUMPDEST CALLVALUE DUP1 ISZERO PUSH2 0x4FD JUMPI PUSH0 PUSH0 REVERT JUMPDEST POP PUSH2 0x518 PUSH1 0x4 DUP1 CALLDATASIZE SUB DUP2 ADD SWAP1 PUSH2 0x513 SWAP2 SWAP1 PUSH2 0x1E43 JUMP JUMPDEST PUSH2 0x15AD JUMP JUMPDEST PUSH1 0x40 MLOAD PUSH2 0x525 SWAP2 SWAP1 PUSH2 0x1DCC JUMP JUMPDEST PUSH1 0x40 MLOAD DUP1 SWAP2 SUB SWAP1 RETURN JUMPDEST CALLVALUE DUP1 ISZERO PUSH2 0x539 JUMPI PUSH0 PUSH0 REVERT JUMPDEST POP PUSH2 0x542 PUSH2 0x15F3 JUMP JUMPDEST PUSH1 0x40 MLOAD PUSH2 0x54F SWAP2 SWAP1 PUSH2 0x1DCC JUMP JUMPDEST PUSH1 0x40 MLOAD DUP1 SWAP2 SUB SWAP1 RETURN JUMPDEST PUSH2 0x560 PUSH2 0x15F9 JUMP JUMPDEST STOP JUMPDEST CALLVALUE DUP1 ISZERO PUSH2 0x56D JUMPI PUSH0 PUSH0 REVERT JUMPDEST POP PUSH2 0x588 PUSH1 0x4 DUP1 CALLDATASIZE SUB DUP2 ADD SWAP1 PUSH2 0x583 SWAP2 SWAP1 PUSH2 0x2200 JUMP JUMPDEST PUSH2 0x1D79 JUMP JUMPDEST PUSH1 0x40 MLOAD PUSH2 0x595 SWAP2 SWAP1 PUSH2 0x20A6 JUMP JUMPDEST PUSH1 0x40 MLOAD DUP1 SWAP2 SUB SWAP1 RETURN JUMPDEST PUSH1 0xE SLOAD DUP2 JUMP JUMPDEST PUSH1 0x5 PUSH1 0x20 MSTORE DUP1 PUSH0 MSTORE PUSH1 0x40 PUSH0 KECCAK256 PUSH0 SWAP2 POP SLOAD SWAP1 PUSH2 0x100 EXP SWAP1 DIV PUSH1 0xFF AND DUP2 JUMP JUMPDEST PUSH1 0xD PUSH0 SWAP1 SLOAD SWAP1 PUSH2 0x100 EXP SWAP1 DIV PUSH1 0xFF AND PUSH2 0x60F JUMPI PUSH1 0x40 MLOAD PUSH32 0x8C379A000000000000000000000000000000000000000000000000000000000 DUP2 MSTORE PUSH1 0x4 ADD PUSH2 0x606 SWAP1 PUSH2 0x233E JUMP JUMPDEST PUSH1 0x40 MLOAD DUP1 SWAP2 SUB SWAP1 REVERT JUMPDEST PUSH1 0xA PUSH0 SWAP1 SLOAD SWAP1 PUSH2 0x100 EXP SWAP1 DIV PUSH20 0xFFFFFFFFFFFFFFFFFFFFFFFFFFFFFFFFFFFFFFFF AND PUSH20 0xFFFFFFFFFFFFFFFFFFFFFFFFFFFFFFFFFFFFFFFF AND CALLER PUSH20 0xFFFFFFFFFFFFFFFFFFFFFFFFFFFFFFFFFFFFFFFF AND SUB PUSH2 0x69E JUMPI PUSH1 0x40 MLOAD PUSH32 0x8C379A000000000000000000000000000000000000000000000000000000000 DUP2 MSTORE PUSH1 0x4 ADD PUSH2 0x695 SWAP1 PUSH2 0x23A6 JUMP JUMPDEST PUSH1 0x40 MLOAD DUP1 SWAP2 SUB SWAP1 REVERT JUMPDEST PUSH0 PUSH1 0x6 PUSH0 CALLER PUSH20 0xFFFFFFFFFFFFFFFFFFFFFFFFFFFFFFFFFFFFFFFF AND PUSH20 0xFFFFFFFFFFFFFFFFFFFFFFFFFFFFFFFFFFFFFFFF AND DUP2 MSTORE PUSH1 0x20 ADD SWAP1 DUP2 MSTORE PUSH1 0x20 ADD PUSH0 KECCAK256 SLOAD SWAP1 POP PUSH0 DUP2 GT PUSH2 0x721 JUMPI PUSH1 0x40 MLOAD PUSH32 0x8C379A000000000000000000000000000000000000000000000000000000000 DUP2 MSTORE PUSH1 0x4 ADD PUSH2 0x718 SWAP1 PUSH2 0x240E JUMP JUMPDEST PUSH1 0x40 MLOAD DUP1 SWAP2 SUB SWAP1 REVERT JUMPDEST PUSH0 PUSH1 0x6 PUSH0 CALLER PUSH20 0xFFFFFFFFFFFFFFFFFFFFFFFFFFFFFFFFFFFFFFFF AND PUSH20 0xFFFFFFFFFFFFFFFFFFFFFFFFFFFFFFFFFFFFFFFF AND DUP2 MSTORE PUSH1 0x20 ADD SWAP1 DUP2 MSTORE PUSH1 0x20 ADD PUSH0 KECCAK256 DUP2 SWAP1 SSTORE POP PUSH0 CALLER PUSH20 0xFFFFFFFFFFFFFFFFFFFFFFFFFFFFFFFFFFFFFFFF AND DUP3 PUSH1 0x40 MLOAD PUSH2 0x788 SWAP1 PUSH2 0x2459 JUMP JUMPDEST PUSH0 PUSH1 0x40 MLOAD DUP1 DUP4 SUB DUP2 DUP6 DUP8 GAS CALL SWAP3 POP POP POP RETURNDATASIZE DUP1 PUSH0 DUP2 EQ PUSH2 0x7C2 JUMPI PUSH1 0x40 MLOAD SWAP2 POP PUSH1 0x1F NOT PUSH1 0x3F RETURNDATASIZE ADD AND DUP3 ADD PUSH1 0x40 MSTORE RETURNDATASIZE DUP3 MSTORE RETURNDATASIZE PUSH0 PUSH1 0x20 DUP5 ADD RETURNDATACOPY PUSH2 0x7C7 JUMP JUMPDEST PUSH1 0x60 SWAP2 POP JUMPDEST POP POP SWAP1 POP DUP1 PUSH2 0x80B JUMPI PUSH1 0x40 MLOAD PUSH32 0x8C379A000000000000000000000000000000000000000000000000000000000 DUP2 MSTORE PUSH1 0x4 ADD PUSH2 0x802 SWAP1 PUSH2 0x24B7 JUMP JUMPDEST PUSH1 0x40 MLOAD DUP1 SWAP2 SUB SWAP1 REVERT JUMPDEST CALLER PUSH20 0xFFFFFFFFFFFFFFFFFFFFFFFFFFFFFFFFFFFFFFFF AND PUSH32 0x3367BEFD2B2F39615CD79917C2153263C4AF1D3945EC003E5D5BFC13A8D85833 DUP4 PUSH1 0x40 MLOAD PUSH2 0x851 SWAP2 SWAP1 PUSH2 0x1DCC JUMP JUMPDEST PUSH1 0x40 MLOAD DUP1 SWAP2 SUB SWAP1 LOG2 POP POP JUMP JUMPDEST PUSH1 0xC SLOAD DUP2 JUMP JUMPDEST PUSH1 0x60 PUSH1 0xD PUSH0 SWAP1 SLOAD SWAP1 PUSH2 0x100 EXP SWAP1 DIV PUSH1 0xFF AND PUSH2 0x8B3 JUMPI PUSH1 0x40 MLOAD PUSH32 0x8C379A000000000000000000000000000000000000000000000000000000000 DUP2 MSTORE PUSH1 0x4 ADD PUSH2 0x8AA SWAP1 PUSH2 0x233E JUMP JUMPDEST PUSH1 0x40 MLOAD DUP1 SWAP2 SUB SWAP1 REVERT JUMPDEST PUSH1 0xA PUSH0 SWAP1 SLOAD SWAP1 PUSH2 0x100 EXP SWAP1 DIV PUSH20 0xFFFFFFFFFFFFFFFFFFFFFFFFFFFFFFFFFFFFFFFF AND PUSH20 0xFFFFFFFFFFFFFFFFFFFFFFFFFFFFFFFFFFFFFFFF AND CALLER PUSH20 0xFFFFFFFFFFFFFFFFFFFFFFFFFFFFFFFFFFFFFFFF AND EQ PUSH2 0x942 JUMPI PUSH1 0x40 MLOAD PUSH32 0x8C379A000000000000000000000000000000000000000000000000000000000 DUP2 MSTORE PUSH1 0x4 ADD PUSH2 0x939 SWAP1 PUSH2 0x251F JUMP JUMPDEST PUSH1 0x40 MLOAD DUP1 SWAP2 SUB SWAP1 REVERT JUMPDEST PUSH1 0x3 DUP1 SLOAD PUSH2 0x94F SWAP1 PUSH2 0x256A JUMP JUMPDEST DUP1 PUSH1 0x1F ADD PUSH1 0x20 DUP1 SWAP2 DIV MUL PUSH1 0x20 ADD PUSH1 0x40 MLOAD SWAP1 DUP2 ADD PUSH1 0x40 MSTORE DUP1 SWAP3 SWAP2 SWAP1 DUP2 DUP2 MSTORE PUSH1 0x20 ADD DUP3 DUP1 SLOAD PUSH2 0x97B SWAP1 PUSH2 0x256A JUMP JUMPDEST DUP1 ISZERO PUSH2 0x9C6 JUMPI DUP1 PUSH1 0x1F LT PUSH2 0x99D JUMPI PUSH2 0x100 DUP1 DUP4 SLOAD DIV MUL DUP4 MSTORE SWAP2 PUSH1 0x20 ADD SWAP2 PUSH2 0x9C6 JUMP JUMPDEST DUP3 ADD SWAP2 SWAP1 PUSH0 MSTORE PUSH1 0x20 PUSH0 KECCAK256 SWAP1 JUMPDEST DUP2 SLOAD DUP2 MSTORE SWAP1 PUSH1 0x1 ADD SWAP1 PUSH1 0x20 ADD DUP1 DUP4 GT PUSH2 0x9A9 JUMPI DUP3 SWAP1 SUB PUSH1 0x1F AND DUP3 ADD SWAP2 JUMPDEST POP POP POP POP POP SWAP1 POP SWAP1 JUMP JUMPDEST PUSH0 PUSH0 PUSH0 PUSH0 PUSH0 PUSH1 0x60 DUP1 PUSH0 PUSH1 0x60 PUSH0 PUSH1 0x2 SLOAD SELFBALANCE PUSH1 0x7 SLOAD PUSH1 0x1 PUSH0 SWAP1 SLOAD SWAP1 PUSH2 0x100 EXP SWAP1 DIV PUSH20 0xFFFFFFFFFFFFFFFFFFFFFFFFFFFFFFFFFFFFFFFF AND PUSH1 0xB SLOAD PUSH1 0x3 PUSH1 0x4 PUSH1 0xA PUSH0 SWAP1 SLOAD SWAP1 PUSH2 0x100 EXP SWAP1 DIV PUSH20 0xFFFFFFFFFFFFFFFFFFFFFFFFFFFFFFFFFFFFFFFF AND PUSH1 0x8 PUSH1 0xC SLOAD DUP5 DUP1 SLOAD PUSH2 0xA3F SWAP1 PUSH2 0x256A JUMP JUMPDEST DUP1 PUSH1 0x1F ADD PUSH1 0x20 DUP1 SWAP2 DIV MUL PUSH1 0x20 ADD PUSH1 0x40 MLOAD SWAP1 DUP2 ADD PUSH1 0x40 MSTORE DUP1 SWAP3 SWAP2 SWAP1 DUP2 DUP2 MSTORE PUSH1 0x20 ADD DUP3 DUP1 SLOAD PUSH2 0xA6B SWAP1 PUSH2 0x256A JUMP JUMPDEST DUP1 ISZERO PUSH2 0xAB6 JUMPI DUP1 PUSH1 0x1F LT PUSH2 0xA8D JUMPI PUSH2 0x100 DUP1 DUP4 SLOAD DIV MUL DUP4 MSTORE SWAP2 PUSH1 0x20 ADD SWAP2 PUSH2 0xAB6 JUMP JUMPDEST DUP3 ADD SWAP2 SWAP1 PUSH0 MSTORE PUSH1 0x20 PUSH0 KECCAK256 SWAP1 JUMPDEST DUP2 SLOAD DUP2 MSTORE SWAP1 PUSH1 0x1 ADD SWAP1 PUSH1 0x20 ADD DUP1 DUP4 GT PUSH2 0xA99 JUMPI DUP3 SWAP1 SUB PUSH1 0x1F AND DUP3 ADD SWAP2 JUMPDEST POP POP POP POP POP SWAP5 POP DUP4 DUP1 SLOAD PUSH2 0xAC9 SWAP1 PUSH2 0x256A JUMP JUMPDEST DUP1 PUSH1 0x1F ADD PUSH1 0x20 DUP1 SWAP2 DIV MUL PUSH1 0x20 ADD PUSH1 0x40 MLOAD SWAP1 DUP2 ADD PUSH1 0x40 MSTORE DUP1 SWAP3 SWAP2 SWAP1 DUP2 DUP2 MSTORE PUSH1 0x20 ADD DUP3 DUP1 SLOAD PUSH2 0xAF5 SWAP1 PUSH2 0x256A JUMP JUMPDEST DUP1 ISZERO PUSH2 0xB40 JUMPI DUP1 PUSH1 0x1F LT PUSH2 0xB17 JUMPI PUSH2 0x100 DUP1 DUP4 SLOAD DIV MUL DUP4 MSTORE SWAP2 PUSH1 0x20 ADD SWAP2 PUSH2 0xB40 JUMP JUMPDEST DUP3 ADD SWAP2 SWAP1 PUSH0 MSTORE PUSH1 0x20 PUSH0 KECCAK256 SWAP1 JUMPDEST DUP2 SLOAD DUP2 MSTORE SWAP1 PUSH1 0x1 ADD SWAP1 PUSH1 0x20 ADD DUP1 DUP4 GT PUSH2 0xB23 JUMPI DUP3 SWAP1 SUB PUSH1 0x1F AND DUP3 ADD SWAP2 JUMPDEST POP POP POP POP POP SWAP4 POP DUP2 DUP1 SLOAD DUP1 PUSH1 0x20 MUL PUSH1 0x20 ADD PUSH1 0x40 MLOAD SWAP1 DUP2 ADD PUSH1 0x40 MSTORE DUP1 SWAP3 SWAP2 SWAP1 DUP2 DUP2 MSTORE PUSH1 0x20 ADD DUP3 DUP1 SLOAD DUP1 ISZERO PUSH2 0xBC5 JUMPI PUSH1 0x20 MUL DUP3 ADD SWAP2 SWAP1 PUSH0 MSTORE PUSH1 0x20 PUSH0 KECCAK256 SWAP1 JUMPDEST DUP2 PUSH0 SWAP1 SLOAD SWAP1 PUSH2 0x100 EXP SWAP1 DIV PUSH20 0xFFFFFFFFFFFFFFFFFFFFFFFFFFFFFFFFFFFFFFFF AND PUSH20 0xFFFFFFFFFFFFFFFFFFFFFFFFFFFFFFFFFFFFFFFF AND DUP2 MSTORE PUSH1 0x20 ADD SWAP1 PUSH1 0x1 ADD SWAP1 DUP1 DUP4 GT PUSH2 0xB7C JUMPI JUMPDEST POP POP POP POP POP SWAP2 POP SWAP10 POP SWAP10 POP SWAP10 POP SWAP10 POP SWAP10 POP SWAP10 POP SWAP10 POP SWAP10 POP SWAP10 POP SWAP10 POP SWAP1 SWAP2 SWAP3 SWAP4 SWAP5 SWAP6 SWAP7 SWAP8 SWAP9 SWAP10 JUMP JUMPDEST PUSH1 0x1 PUSH0 SWAP1 SLOAD SWAP1 PUSH2 0x100 EXP SWAP1 DIV PUSH20 0xFFFFFFFFFFFFFFFFFFFFFFFFFFFFFFFFFFFFFFFF AND DUP2 JUMP JUMPDEST PUSH0 PUSH1 0xD PUSH0 SWAP1 SLOAD SWAP1 PUSH2 0x100 EXP SWAP1 DIV PUSH1 0xFF AND SWAP1 POP SWAP1 JUMP JUMPDEST PUSH1 0x4 DUP1 SLOAD PUSH2 0xC33 SWAP1 PUSH2 0x256A JUMP JUMPDEST DUP1 PUSH1 0x1F ADD PUSH1 0x20 DUP1 SWAP2 DIV MUL PUSH1 0x20 ADD PUSH1 0x40 MLOAD SWAP1 DUP2 ADD PUSH1 0x40 MSTORE DUP1 SWAP3 SWAP2 SWAP1 DUP2 DUP2 MSTORE PUSH1 0x20 ADD DUP3 DUP1 SLOAD PUSH2 0xC5F SWAP1 PUSH2 0x256A JUMP JUMPDEST DUP1 ISZERO PUSH2 0xCAA JUMPI DUP1 PUSH1 0x1F LT PUSH2 0xC81 JUMPI PUSH2 0x100 DUP1 DUP4 SLOAD DIV MUL DUP4 MSTORE SWAP2 PUSH1 0x20 ADD SWAP2 PUSH2 0xCAA JUMP JUMPDEST DUP3 ADD SWAP2 SWAP1 PUSH0 MSTORE PUSH1 0x20 PUSH0 KECCAK256 SWAP1 JUMPDEST DUP2 SLOAD DUP2 MSTORE SWAP1 PUSH1 0x1 ADD SWAP1 PUSH1 0x20 ADD DUP1 DUP4 GT PUSH2 0xC8D JUMPI DUP3 SWAP1 SUB PUSH1 0x1F AND DUP3 ADD SWAP2 JUMPDEST POP POP POP POP POP DUP2 JUMP JUMPDEST PUSH1 0xD PUSH0 SWAP1 SLOAD SWAP1 PUSH2 0x100 EXP SWAP1 DIV PUSH1 0xFF AND DUP2 JUMP JUMPDEST PUSH1 0x6 PUSH1 0x20 MSTORE DUP1 PUSH0 MSTORE PUSH1 0x40 PUSH0 KECCAK256 PUSH0 SWAP2 POP SWAP1 POP SLOAD DUP2 JUMP JUMPDEST PUSH1 0x3 DUP1 SLOAD PUSH2 0xCE6 SWAP1 PUSH2 0x256A JUMP JUMPDEST DUP1 PUSH1 0x1F ADD PUSH1 0x20 DUP1 SWAP2 DIV MUL PUSH1 0x20 ADD PUSH1 0x40 MLOAD SWAP1 DUP2 ADD PUSH1 0x40 MSTORE DUP1 SWAP3 SWAP2 SWAP1 DUP2 DUP2 MSTORE PUSH1 0x20 ADD DUP3 DUP1 SLOAD PUSH2 0xD12 SWAP1 PUSH2 0x256A JUMP JUMPDEST DUP1 ISZERO PUSH2 0xD5D JUMPI DUP1 PUSH1 0x1F LT PUSH2 0xD34 JUMPI PUSH2 0x100 DUP1 DUP4 SLOAD DIV MUL DUP4 MSTORE SWAP2 PUSH1 0x20 ADD SWAP2 PUSH2 0xD5D JUMP JUMPDEST DUP3 ADD SWAP2 SWAP1 PUSH0 MSTORE PUSH1 0x20 PUSH0 KECCAK256 SWAP1 JUMPDEST DUP2 SLOAD DUP2 MSTORE SWAP1 PUSH1 0x1 ADD SWAP1 PUSH1 0x20 ADD DUP1 DUP4 GT PUSH2 0xD40 JUMPI DUP3 SWAP1 SUB PUSH1 0x1F AND DUP3 ADD SWAP2 JUMPDEST POP POP POP POP POP DUP2 JUMP JUMPDEST PUSH1 0x7 SLOAD DUP2 JUMP JUMPDEST PUSH1 0x60 PUSH1 0x9 DUP1 SLOAD DUP1 PUSH1 0x20 MUL PUSH1 0x20 ADD PUSH1 0x40 MLOAD SWAP1 DUP2 ADD PUSH1 0x40 MSTORE DUP1 SWAP3 SWAP2 SWAP1 DUP2 DUP2 MSTORE PUSH1 0x20 ADD PUSH0 SWAP1 JUMPDEST DUP3 DUP3 LT ISZERO PUSH2 0xE26 JUMPI DUP4 DUP3 SWAP1 PUSH0 MSTORE PUSH1 0x20 PUSH0 KECCAK256 SWAP1 PUSH1 0x3 MUL ADD PUSH1 0x40 MLOAD DUP1 PUSH1 0x60 ADD PUSH1 0x40 MSTORE SWAP1 DUP2 PUSH0 DUP3 ADD SLOAD DUP2 MSTORE PUSH1 0x20 ADD PUSH1 0x1 DUP3 ADD SLOAD DUP2 MSTORE PUSH1 0x20 ADD PUSH1 0x2 DUP3 ADD PUSH0 SWAP1 SLOAD SWAP1 PUSH2 0x100 EXP SWAP1 DIV PUSH20 0xFFFFFFFFFFFFFFFFFFFFFFFFFFFFFFFFFFFFFFFF AND PUSH20 0xFFFFFFFFFFFFFFFFFFFFFFFFFFFFFFFFFFFFFFFF AND PUSH20 0xFFFFFFFFFFFFFFFFFFFFFFFFFFFFFFFFFFFFFFFF AND DUP2 MSTORE POP POP DUP2 MSTORE PUSH1 0x20 ADD SWAP1 PUSH1 0x1 ADD SWAP1 PUSH2 0xD8E JUMP JUMPDEST POP POP POP POP SWAP1 POP SWAP1 JUMP JUMPDEST PUSH1 0xA PUSH0 SWAP1 SLOAD SWAP1 PUSH2 0x100 EXP SWAP1 DIV PUSH20 0xFFFFFFFFFFFFFFFFFFFFFFFFFFFFFFFFFFFFFFFF AND DUP2 JUMP JUMPDEST PUSH1 0x2 SLOAD DUP2 JUMP JUMPDEST PUSH1 0xC SLOAD TIMESTAMP LT ISZERO PUSH2 0xE9F JUMPI PUSH1 0x40 MLOAD PUSH32 0x8C379A000000000000000000000000000000000000000000000000000000000 DUP2 MSTORE PUSH1 0x4 ADD PUSH2 0xE96 SWAP1 PUSH2 0x25E4 JUMP JUMPDEST PUSH1 0x40 MLOAD DUP1 SWAP2 SUB SWAP1 REVERT JUMPDEST PUSH1 0xD PUSH0 SWAP1 SLOAD SWAP1 PUSH2 0x100 EXP SWAP1 DIV PUSH1 0xFF AND ISZERO PUSH2 0xEEE JUMPI PUSH1 0x40 MLOAD PUSH32 0x8C379A000000000000000000000000000000000000000000000000000000000 DUP2 MSTORE PUSH1 0x4 ADD PUSH2 0xEE5 SWAP1 PUSH2 0x264C JUMP JUMPDEST PUSH1 0x40 MLOAD DUP1 SWAP2 SUB SWAP1 REVERT JUMPDEST PUSH1 0x1 PUSH1 0xD PUSH0 PUSH2 0x100 EXP DUP2 SLOAD DUP2 PUSH1 0xFF MUL NOT AND SWAP1 DUP4 ISZERO ISZERO MUL OR SWAP1 SSTORE POP PUSH0 PUSH1 0xB SLOAD GT ISZERO PUSH2 0x11A6 JUMPI PUSH1 0xB SLOAD SELFBALANCE LT ISZERO PUSH2 0xF57 JUMPI PUSH1 0x40 MLOAD PUSH32 0x8C379A000000000000000000000000000000000000000000000000000000000 DUP2 MSTORE PUSH1 0x4 ADD PUSH2 0xF4E SWAP1 PUSH2 0x26B4 JUMP JUMPDEST PUSH1 0x40 MLOAD DUP1 SWAP2 SUB SWAP1 REVERT JUMPDEST PUSH0 PUSH1 0x6 PUSH0 PUSH1 0xA PUSH0 SWAP1 SLOAD SWAP1 PUSH2 0x100 EXP SWAP1 DIV PUSH20 0xFFFFFFFFFFFFFFFFFFFFFFFFFFFFFFFFFFFFFFFF AND PUSH20 0xFFFFFFFFFFFFFFFFFFFFFFFFFFFFFFFFFFFFFFFF AND PUSH20 0xFFFFFFFFFFFFFFFFFFFFFFFFFFFFFFFFFFFFFFFF AND DUP2 MSTORE PUSH1 0x20 ADD SWAP1 DUP2 MSTORE PUSH1 0x20 ADD PUSH0 KECCAK256 DUP2 SWAP1 SSTORE POP PUSH0 PUSH1 0x1 PUSH0 SWAP1 SLOAD SWAP1 PUSH2 0x100 EXP SWAP1 DIV PUSH20 0xFFFFFFFFFFFFFFFFFFFFFFFFFFFFFFFFFFFFFFFF AND PUSH20 0xFFFFFFFFFFFFFFFFFFFFFFFFFFFFFFFFFFFFFFFF AND PUSH1 0xB SLOAD PUSH1 0x40 MLOAD PUSH2 0x1002 SWAP1 PUSH2 0x2459 JUMP JUMPDEST PUSH0 PUSH1 0x40 MLOAD DUP1 DUP4 SUB DUP2 DUP6 DUP8 GAS CALL SWAP3 POP POP POP RETURNDATASIZE DUP1 PUSH0 DUP2 EQ PUSH2 0x103C JUMPI PUSH1 0x40 MLOAD SWAP2 POP PUSH1 0x1F NOT PUSH1 0x3F RETURNDATASIZE ADD AND DUP3 ADD PUSH1 0x40 MSTORE RETURNDATASIZE DUP3 MSTORE RETURNDATASIZE PUSH0 PUSH1 0x20 DUP5 ADD RETURNDATACOPY PUSH2 0x1041 JUMP JUMPDEST PUSH1 0x60 SWAP2 POP JUMPDEST POP POP SWAP1 POP DUP1 PUSH2 0x1085 JUMPI PUSH1 0x40 MLOAD PUSH32 0x8C379A000000000000000000000000000000000000000000000000000000000 DUP2 MSTORE PUSH1 0x4 ADD PUSH2 0x107C SWAP1 PUSH2 0x271C JUMP JUMPDEST PUSH1 0x40 MLOAD DUP1 SWAP2 SUB SWAP1 REVERT JUMPDEST PUSH0 PUSH0 SWAP1 SLOAD SWAP1 PUSH2 0x100 EXP SWAP1 DIV PUSH20 0xFFFFFFFFFFFFFFFFFFFFFFFFFFFFFFFFFFFFFFFF AND PUSH20 0xFFFFFFFFFFFFFFFFFFFFFFFFFFFFFFFFFFFFFFFF AND PUSH4 0x8DFAC90C PUSH1 0x1 PUSH0 SWAP1 SLOAD SWAP1 PUSH2 0x100 EXP SWAP1 DIV PUSH20 0xFFFFFFFFFFFFFFFFFFFFFFFFFFFFFFFFFFFFFFFF AND PUSH1 0xB SLOAD PUSH1 0x1 PUSH1 0x40 MLOAD DUP5 PUSH4 0xFFFFFFFF AND PUSH1 0xE0 SHL DUP2 MSTORE PUSH1 0x4 ADD PUSH2 0x1106 SWAP4 SWAP3 SWAP2 SWAP1 PUSH2 0x273A JUMP JUMPDEST PUSH0 PUSH1 0x40 MLOAD DUP1 DUP4 SUB DUP2 PUSH0 DUP8 DUP1 EXTCODESIZE ISZERO DUP1 ISZERO PUSH2 0x111D JUMPI PUSH0 PUSH0 REVERT JUMPDEST POP GAS CALL ISZERO DUP1 ISZERO PUSH2 0x112F JUMPI RETURNDATASIZE PUSH0 PUSH0 RETURNDATACOPY RETURNDATASIZE PUSH0 REVERT JUMPDEST POP POP POP POP PUSH1 0x1 PUSH0 SWAP1 SLOAD SWAP1 PUSH2 0x100 EXP SWAP1 DIV PUSH20 0xFFFFFFFFFFFFFFFFFFFFFFFFFFFFFFFFFFFFFFFF AND PUSH20 0xFFFFFFFFFFFFFFFFFFFFFFFFFFFFFFFFFFFFFFFF AND PUSH32 0xCB4A9094DA4DF77FB2C0DBAA5047660B1237E61D82A02176C1BE74CA757F2531 PUSH1 0xB SLOAD PUSH1 0x40 MLOAD PUSH2 0x119C SWAP2 SWAP1 PUSH2 0x1DCC JUMP JUMPDEST PUSH1 0x40 MLOAD DUP1 SWAP2 SUB SWAP1 LOG2 POP JUMPDEST JUMP JUMPDEST PUSH1 0x9 DUP2 DUP2 SLOAD DUP2 LT PUSH2 0x11B7 JUMPI PUSH0 DUP1 REVERT JUMPDEST SWAP1 PUSH0 MSTORE PUSH1 0x20 PUSH0 KECCAK256 SWAP1 PUSH1 0x3 MUL ADD PUSH0 SWAP2 POP SWAP1 POP DUP1 PUSH0 ADD SLOAD SWAP1 DUP1 PUSH1 0x1 ADD SLOAD SWAP1 DUP1 PUSH1 0x2 ADD PUSH0 SWAP1 SLOAD SWAP1 PUSH2 0x100 EXP SWAP1 DIV PUSH20 0xFFFFFFFFFFFFFFFFFFFFFFFFFFFFFFFFFFFFFFFF AND SWAP1 POP DUP4 JUMP JUMPDEST PUSH1 0x60 PUSH1 0x8 DUP1 SLOAD DUP1 PUSH1 0x20 MUL PUSH1 0x20 ADD PUSH1 0x40 MLOAD SWAP1 DUP2 ADD PUSH1 0x40 MSTORE DUP1 SWAP3 SWAP2 SWAP1 DUP2 DUP2 MSTORE PUSH1 0x20 ADD DUP3 DUP1 SLOAD DUP1 ISZERO PUSH2 0x127D JUMPI PUSH1 0x20 MUL DUP3 ADD SWAP2 SWAP1 PUSH0 MSTORE PUSH1 0x20 PUSH0 KECCAK256 SWAP1 JUMPDEST DUP2 PUSH0 SWAP1 SLOAD SWAP1 PUSH2 0x100 EXP SWAP1 DIV PUSH20 0xFFFFFFFFFFFFFFFFFFFFFFFFFFFFFFFFFFFFFFFF AND PUSH20 0xFFFFFFFFFFFFFFFFFFFFFFFFFFFFFFFFFFFFFFFF AND DUP2 MSTORE PUSH1 0x20 ADD SWAP1 PUSH1 0x1 ADD SWAP1 DUP1 DUP4 GT PUSH2 0x1234 JUMPI JUMPDEST POP POP POP POP POP SWAP1 POP SWAP1 JUMP JUMPDEST PUSH0 PUSH0 SWAP1 SLOAD SWAP1 PUSH2 0x100 EXP SWAP1 DIV PUSH20 0xFFFFFFFFFFFFFFFFFFFFFFFFFFFFFFFFFFFFFFFF AND DUP2 JUMP JUMPDEST PUSH1 0xD PUSH0 SWAP1 SLOAD SWAP1 PUSH2 0x100 EXP SWAP1 DIV PUSH1 0xFF AND PUSH2 0x12F9 JUMPI PUSH1 0x40 MLOAD PUSH32 0x8C379A000000000000000000000000000000000000000000000000000000000 DUP2 MSTORE PUSH1 0x4 ADD PUSH2 0x12F0 SWAP1 PUSH2 0x233E JUMP JUMPDEST PUSH1 0x40 MLOAD DUP1 SWAP2 SUB SWAP1 REVERT JUMPDEST PUSH0 DUP2 GT PUSH2 0x133B JUMPI PUSH1 0x40 MLOAD PUSH32 0x8C379A000000000000000000000000000000000000000000000000000000000 DUP2 MSTORE PUSH1 0x4 ADD PUSH2 0x1332 SWAP1 PUSH2 0x27B9 JUMP JUMPDEST PUSH1 0x40 MLOAD DUP1 SWAP2 SUB SWAP1 REVERT JUMPDEST PUSH0 PUSH0 SWAP1 POP JUMPDEST PUSH1 0x8 DUP1 SLOAD SWAP1 POP PUSH1 0xE SLOAD LT DUP1 ISZERO PUSH2 0x1355 JUMPI POP DUP2 DUP2 LT JUMPDEST ISZERO PUSH2 0x15A9 JUMPI PUSH0 PUSH1 0x8 PUSH1 0xE SLOAD DUP2 SLOAD DUP2 LT PUSH2 0x1371 JUMPI PUSH2 0x1370 PUSH2 0x27D7 JUMP JUMPDEST JUMPDEST SWAP1 PUSH0 MSTORE PUSH1 0x20 PUSH0 KECCAK256 ADD PUSH0 SWAP1 SLOAD SWAP1 PUSH2 0x100 EXP SWAP1 DIV PUSH20 0xFFFFFFFFFFFFFFFFFFFFFFFFFFFFFFFFFFFFFFFF AND SWAP1 POP PUSH1 0xE PUSH0 DUP2 SLOAD DUP1 SWAP3 SWAP2 SWAP1 PUSH2 0x13AD SWAP1 PUSH2 0x2831 JUMP JUMPDEST SWAP2 SWAP1 POP SSTORE POP PUSH1 0xA PUSH0 SWAP1 SLOAD SWAP1 PUSH2 0x100 EXP SWAP1 DIV PUSH20 0xFFFFFFFFFFFFFFFFFFFFFFFFFFFFFFFFFFFFFFFF AND PUSH20 0xFFFFFFFFFFFFFFFFFFFFFFFFFFFFFFFFFFFFFFFF AND DUP2 PUSH20 0xFFFFFFFFFFFFFFFFFFFFFFFFFFFFFFFFFFFFFFFF AND SUB PUSH2 0x140C JUMPI POP PUSH2 0x1340 JUMP JUMPDEST PUSH0 PUSH1 0x6 PUSH0 DUP4 PUSH20 0xFFFFFFFFFFFFFFFFFFFFFFFFFFFFFFFFFFFFFFFF AND PUSH20 0xFFFFFFFFFFFFFFFFFFFFFFFFFFFFFFFFFFFFFFFF AND DUP2 MSTORE PUSH1 0x20 ADD SWAP1 DUP2 MSTORE PUSH1 0x20 ADD PUSH0 KECCAK256 SLOAD SWAP1 POP PUSH0 DUP2 SUB PUSH2 0x145B JUMPI POP POP PUSH2 0x1340 JUMP JUMPDEST PUSH0 PUSH1 0x6 PUSH0 DUP5 PUSH20 0xFFFFFFFFFFFFFFFFFFFFFFFFFFFFFFFFFFFFFFFF AND PUSH20 0xFFFFFFFFFFFFFFFFFFFFFFFFFFFFFFFFFFFFFFFF AND DUP2 MSTORE PUSH1 0x20 ADD SWAP1 DUP2 MSTORE PUSH1 0x20 ADD PUSH0 KECCAK256 DUP2 SWAP1 SSTORE POP PUSH0 DUP3 PUSH20 0xFFFFFFFFFFFFFFFFFFFFFFFFFFFFFFFFFFFFFFFF AND DUP3 PUSH1 0x40 MLOAD PUSH2 0x14C2 SWAP1 PUSH2 0x2459 JUMP JUMPDEST PUSH0 PUSH1 0x40 MLOAD DUP1 DUP4 SUB DUP2 DUP6 DUP8 GAS CALL SWAP3 POP POP POP RETURNDATASIZE DUP1 PUSH0 DUP2 EQ PUSH2 0x14FC JUMPI PUSH1 0x40 MLOAD SWAP2 POP PUSH1 0x1F NOT PUSH1 0x3F RETURNDATASIZE ADD AND DUP3 ADD PUSH1 0x40 MSTORE RETURNDATASIZE DUP3 MSTORE RETURNDATASIZE PUSH0 PUSH1 0x20 DUP5 ADD RETURNDATACOPY PUSH2 0x1501 JUMP JUMPDEST PUSH1 0x60 SWAP2 POP JUMPDEST POP POP SWAP1 POP DUP1 PUSH2 0x1545 JUMPI PUSH1 0x40 MLOAD PUSH32 0x8C379A000000000000000000000000000000000000000000000000000000000 DUP2 MSTORE PUSH1 0x4 ADD PUSH2 0x153C SWAP1 PUSH2 0x24B7 JUMP JUMPDEST PUSH1 0x40 MLOAD DUP1 SWAP2 SUB SWAP1 REVERT JUMPDEST DUP3 PUSH20 0xFFFFFFFFFFFFFFFFFFFFFFFFFFFFFFFFFFFFFFFF AND PUSH32 0x3367BEFD2B2F39615CD79917C2153263C4AF1D3945EC003E5D5BFC13A8D85833 DUP4 PUSH1 0x40 MLOAD PUSH2 0x158B SWAP2 SWAP1 PUSH2 0x1DCC JUMP JUMPDEST PUSH1 0x40 MLOAD DUP1 SWAP2 SUB SWAP1 LOG2 DUP4 DUP1 PUSH2 0x159E SWAP1 PUSH2 0x2831 JUMP JUMPDEST SWAP5 POP POP POP POP POP PUSH2 0x1340 JUMP JUMPDEST POP POP JUMP JUMPDEST PUSH0 PUSH1 0x6 PUSH0 DUP4 PUSH20 0xFFFFFFFFFFFFFFFFFFFFFFFFFFFFFFFFFFFFFFFF AND PUSH20 0xFFFFFFFFFFFFFFFFFFFFFFFFFFFFFFFFFFFFFFFF AND DUP2 MSTORE PUSH1 0x20 ADD SWAP1 DUP2 MSTORE PUSH1 0x20 ADD PUSH0 KECCAK256 SLOAD SWAP1 POP SWAP2 SWAP1 POP JUMP JUMPDEST PUSH1 0xB SLOAD DUP2 JUMP JUMPDEST PUSH1 0xC SLOAD TIMESTAMP LT PUSH2 0x163D JUMPI PUSH1 0x40 MLOAD PUSH32 0x8C379A000000000000000000000000000000000000000000000000000000000 DUP2 MSTORE PUSH1 0x4 ADD PUSH2 0x1634 SWAP1 PUSH2 0x28C2 JUMP JUMPDEST PUSH1 0x40 MLOAD DUP1 SWAP2 SUB SWAP1 REVERT JUMPDEST PUSH1 0x1 PUSH0 SWAP1 SLOAD SWAP1 PUSH2 0x100 EXP SWAP1 DIV PUSH20 0xFFFFFFFFFFFFFFFFFFFFFFFFFFFFFFFFFFFFFFFF AND PUSH20 0xFFFFFFFFFFFFFFFFFFFFFFFFFFFFFFFFFFFFFFFF AND CALLER PUSH20 0xFFFFFFFFFFFFFFFFFFFFFFFFFFFFFFFFFFFFFFFF AND SUB PUSH2 0x16CC JUMPI PUSH1 0x40 MLOAD PUSH32 0x8C379A000000000000000000000000000000000000000000000000000000000 DUP2 MSTORE PUSH1 0x4 ADD PUSH2 0x16C3 SWAP1 PUSH2 0x2950 JUMP JUMPDEST PUSH1 0x40 MLOAD DUP1 SWAP2 SUB SWAP1 REVERT JUMPDEST PUSH0 CALLVALUE GT PUSH2 0x170E JUMPI PUSH1 0x40 MLOAD PUSH32 0x8C379A000000000000000000000000000000000000000000000000000000000 DUP2 MSTORE PUSH1 0x4 ADD PUSH2 0x1705 SWAP1 PUSH2 0x29B8 JUMP JUMPDEST PUSH1 0x40 MLOAD DUP1 SWAP2 SUB SWAP1 REVERT JUMPDEST PUSH0 PUSH1 0x6 PUSH0 CALLER PUSH20 0xFFFFFFFFFFFFFFFFFFFFFFFFFFFFFFFFFFFFFFFF AND PUSH20 0xFFFFFFFFFFFFFFFFFFFFFFFFFFFFFFFFFFFFFFFF AND DUP2 MSTORE PUSH1 0x20 ADD SWAP1 DUP2 MSTORE PUSH1 0x20 ADD PUSH0 KECCAK256 SLOAD SWAP1 POP PUSH0 CALLVALUE DUP3 PUSH2 0x175C SWAP2 SWAP1 PUSH2 0x29D6 JUMP JUMPDEST SWAP1 POP PUSH0 PUSH20 0xFFFFFFFFFFFFFFFFFFFFFFFFFFFFFFFFFFFFFFFF AND PUSH1 0xA PUSH0 SWAP1 SLOAD SWAP1 PUSH2 0x100 EXP SWAP1 DIV PUSH20 0xFFFFFFFFFFFFFFFFFFFFFFFFFFFFFFFFFFFFFFFF AND PUSH20 0xFFFFFFFFFFFFFFFFFFFFFFFFFFFFFFFFFFFFFFFF AND SUB PUSH2 0x1886 JUMPI PUSH1 0x2 SLOAD DUP2 LT ISZERO PUSH2 0x17F7 JUMPI PUSH1 0x40 MLOAD PUSH32 0x8C379A000000000000000000000000000000000000000000000000000000000 DUP2 MSTORE PUSH1 0x4 ADD PUSH2 0x17EE SWAP1 PUSH2 0x2A53 JUMP JUMPDEST PUSH1 0x40 MLOAD DUP1 SWAP2 SUB SWAP1 REVERT JUMPDEST PUSH0 PUSH0 SWAP1 SLOAD SWAP1 PUSH2 0x100 EXP SWAP1 DIV PUSH20 0xFFFFFFFFFFFFFFFFFFFFFFFFFFFFFFFFFFFFFFFF AND PUSH20 0xFFFFFFFFFFFFFFFFFFFFFFFFFFFFFFFFFFFFFFFF AND PUSH4 0x8DFAC90C CALLER CALLVALUE PUSH0 PUSH1 0x40 MLOAD DUP5 PUSH4 0xFFFFFFFF AND PUSH1 0xE0 SHL DUP2 MSTORE PUSH1 0x4 ADD PUSH2 0x1854 SWAP4 SWAP3 SWAP2 SWAP1 PUSH2 0x273A JUMP JUMPDEST PUSH0 PUSH1 0x40 MLOAD DUP1 DUP4 SUB DUP2 PUSH0 DUP8 DUP1 EXTCODESIZE ISZERO DUP1 ISZERO PUSH2 0x186B JUMPI PUSH0 PUSH0 REVERT JUMPDEST POP GAS CALL ISZERO DUP1 ISZERO PUSH2 0x187D JUMPI RETURNDATASIZE PUSH0 PUSH0 RETURNDATACOPY RETURNDATASIZE PUSH0 REVERT JUMPDEST POP POP POP POP PUSH2 0x1AE7 JUMP JUMPDEST PUSH1 0xB SLOAD DUP2 GT PUSH2 0x18CA JUMPI PUSH1 0x40 MLOAD PUSH32 0x8C379A000000000000000000000000000000000000000000000000000000000 DUP2 MSTORE PUSH1 0x4 ADD PUSH2 0x18C1 SWAP1 PUSH2 0x2ABB JUMP JUMPDEST PUSH1 0x40 MLOAD DUP1 SWAP2 SUB SWAP1 REVERT JUMPDEST PUSH1 0xA PUSH0 SWAP1 SLOAD SWAP1 PUSH2 0x100 EXP SWAP1 DIV PUSH20 0xFFFFFFFFFFFFFFFFFFFFFFFFFFFFFFFFFFFFFFFF AND PUSH20 0xFFFFFFFFFFFFFFFFFFFFFFFFFFFFFFFFFFFFFFFF AND CALLER PUSH20 0xFFFFFFFFFFFFFFFFFFFFFFFFFFFFFFFFFFFFFFFF AND EQ PUSH2 0x1A5B JUMPI PUSH0 PUSH0 SWAP1 SLOAD SWAP1 PUSH2 0x100 EXP SWAP1 DIV PUSH20 0xFFFFFFFFFFFFFFFFFFFFFFFFFFFFFFFFFFFFFFFF AND PUSH20 0xFFFFFFFFFFFFFFFFFFFFFFFFFFFFFFFFFFFFFFFF AND PUSH4 0x8DFAC90C PUSH1 0xA PUSH0 SWAP1 SLOAD SWAP1 PUSH2 0x100 EXP SWAP1 DIV PUSH20 0xFFFFFFFFFFFFFFFFFFFFFFFFFFFFFFFFFFFFFFFF AND PUSH1 0xB SLOAD PUSH1 0x1 PUSH1 0x40 MLOAD DUP5 PUSH4 0xFFFFFFFF AND PUSH1 0xE0 SHL DUP2 MSTORE PUSH1 0x4 ADD PUSH2 0x199F SWAP4 SWAP3 SWAP2 SWAP1 PUSH2 0x273A JUMP JUMPDEST PUSH0 PUSH1 0x40 MLOAD DUP1 DUP4 SUB DUP2 PUSH0 DUP8 DUP1 EXTCODESIZE ISZERO DUP1 ISZERO PUSH2 0x19B6 JUMPI PUSH0 PUSH0 REVERT JUMPDEST POP GAS CALL ISZERO DUP1 ISZERO PUSH2 0x19C8 JUMPI RETURNDATASIZE PUSH0 PUSH0 RETURNDATACOPY RETURNDATASIZE PUSH0 REVERT JUMPDEST POP POP POP POP PUSH0 PUSH0 SWAP1 SLOAD SWAP1 PUSH2 0x100 EXP SWAP1 DIV PUSH20 0xFFFFFFFFFFFFFFFFFFFFFFFFFFFFFFFFFFFFFFFF AND PUSH20 0xFFFFFFFFFFFFFFFFFFFFFFFFFFFFFFFFFFFFFFFF AND PUSH4 0x8DFAC90C CALLER DUP4 PUSH0 PUSH1 0x40 MLOAD DUP5 PUSH4 0xFFFFFFFF AND PUSH1 0xE0 SHL DUP2 MSTORE PUSH1 0x4 ADD PUSH2 0x1A29 SWAP4 SWAP3 SWAP2 SWAP1 PUSH2 0x273A JUMP JUMPDEST PUSH0 PUSH1 0x40 MLOAD DUP1 DUP4 SUB DUP2 PUSH0 DUP8 DUP1 EXTCODESIZE ISZERO DUP1 ISZERO PUSH2 0x1A40 JUMPI PUSH0 PUSH0 REVERT JUMPDEST POP GAS CALL ISZERO DUP1 ISZERO PUSH2 0x1A52 JUMPI RETURNDATASIZE PUSH0 PUSH0 RETURNDATACOPY RETURNDATASIZE PUSH0 REVERT JUMPDEST POP POP POP POP PUSH2 0x1AE6 JUMP JUMPDEST PUSH0 PUSH0 SWAP1 SLOAD SWAP1 PUSH2 0x100 EXP SWAP1 DIV PUSH20 0xFFFFFFFFFFFFFFFFFFFFFFFFFFFFFFFFFFFFFFFF AND PUSH20 0xFFFFFFFFFFFFFFFFFFFFFFFFFFFFFFFFFFFFFFFF AND PUSH4 0x8DFAC90C CALLER CALLVALUE PUSH0 PUSH1 0x40 MLOAD DUP5 PUSH4 0xFFFFFFFF AND PUSH1 0xE0 SHL DUP2 MSTORE PUSH1 0x4 ADD PUSH2 0x1AB8 SWAP4 SWAP3 SWAP2 SWAP1 PUSH2 0x273A JUMP JUMPDEST PUSH0 PUSH1 0x40 MLOAD DUP1 DUP4 SUB DUP2 PUSH0 DUP8 DUP1 EXTCODESIZE ISZERO DUP1 ISZERO PUSH2 0x1ACF JUMPI PUSH0 PUSH0 REVERT JUMPDEST POP GAS CALL ISZERO DUP1 ISZERO PUSH2 0x1AE1 JUMPI RETURNDATASIZE PUSH0 PUSH0 RETURNDATACOPY RETURNDATASIZE PUSH0 REVERT JUMPDEST POP POP POP POP JUMPDEST JUMPDEST DUP1 PUSH1 0x6 PUSH0 CALLER PUSH20 0xFFFFFFFFFFFFFFFFFFFFFFFFFFFFFFFFFFFFFFFF AND PUSH20 0xFFFFFFFFFFFFFFFFFFFFFFFFFFFFFFFFFFFFFFFF AND DUP2 MSTORE PUSH1 0x20 ADD SWAP1 DUP2 MSTORE PUSH1 0x20 ADD PUSH0 KECCAK256 DUP2 SWAP1 SSTORE POP DUP1 PUSH1 0xB DUP2 SWAP1 SSTORE POP CALLER PUSH1 0xA PUSH0 PUSH2 0x100 EXP DUP2 SLOAD DUP2 PUSH20 0xFFFFFFFFFFFFFFFFFFFFFFFFFFFFFFFFFFFFFFFF MUL NOT AND SWAP1 DUP4 PUSH20 0xFFFFFFFFFFFFFFFFFFFFFFFFFFFFFFFFFFFFFFFF AND MUL OR SWAP1 SSTORE POP PUSH1 0x9 PUSH1 0x40 MLOAD DUP1 PUSH1 0x60 ADD PUSH1 0x40 MSTORE DUP1 CALLVALUE DUP2 MSTORE PUSH1 0x20 ADD TIMESTAMP DUP2 MSTORE PUSH1 0x20 ADD CALLER PUSH20 0xFFFFFFFFFFFFFFFFFFFFFFFFFFFFFFFFFFFFFFFF AND DUP2 MSTORE POP SWAP1 DUP1 PUSH1 0x1 DUP2 SLOAD ADD DUP1 DUP3 SSTORE DUP1 SWAP2 POP POP PUSH1 0x1 SWAP1 SUB SWAP1 PUSH0 MSTORE PUSH1 0x20 PUSH0 KECCAK256 SWAP1 PUSH1 0x3 MUL ADD PUSH0 SWAP1 SWAP2 SWAP1 SWAP2 SWAP1 SWAP2 POP PUSH0 DUP3 ADD MLOAD DUP2 PUSH0 ADD SSTORE PUSH1 0x20 DUP3 ADD MLOAD DUP2 PUSH1 0x1 ADD SSTORE PUSH1 0x40 DUP3 ADD MLOAD DUP2 PUSH1 0x2 ADD PUSH0 PUSH2 0x100 EXP DUP2 SLOAD DUP2 PUSH20 0xFFFFFFFFFFFFFFFFFFFFFFFFFFFFFFFFFFFFFFFF MUL NOT AND SWAP1 DUP4 PUSH20 0xFFFFFFFFFFFFFFFFFFFFFFFFFFFFFFFFFFFFFFFF AND MUL OR SWAP1 SSTORE POP POP POP PUSH1 0x5 PUSH0 CALLER PUSH20 0xFFFFFFFFFFFFFFFFFFFFFFFFFFFFFFFFFFFFFFFF AND PUSH20 0xFFFFFFFFFFFFFFFFFFFFFFFFFFFFFFFFFFFFFFFF AND DUP2 MSTORE PUSH1 0x20 ADD SWAP1 DUP2 MSTORE PUSH1 0x20 ADD PUSH0 KECCAK256 PUSH0 SWAP1 SLOAD SWAP1 PUSH2 0x100 EXP SWAP1 DIV PUSH1 0xFF AND PUSH2 0x1D3E JUMPI PUSH1 0x1 PUSH1 0x5 PUSH0 CALLER PUSH20 0xFFFFFFFFFFFFFFFFFFFFFFFFFFFFFFFFFFFFFFFF AND PUSH20 0xFFFFFFFFFFFFFFFFFFFFFFFFFFFFFFFFFFFFFFFF AND DUP2 MSTORE PUSH1 0x20 ADD SWAP1 DUP2 MSTORE PUSH1 0x20 ADD PUSH0 KECCAK256 PUSH0 PUSH2 0x100 EXP DUP2 SLOAD DUP2 PUSH1 0xFF MUL NOT AND SWAP1 DUP4 ISZERO ISZERO MUL OR SWAP1 SSTORE POP PUSH1 0x7 PUSH0 DUP2 SLOAD DUP1 SWAP3 SWAP2 SWAP1 PUSH2 0x1CD8 SWAP1 PUSH2 0x2831 JUMP JUMPDEST SWAP2 SWAP1 POP SSTORE POP PUSH1 0x8 CALLER SWAP1 DUP1 PUSH1 0x1 DUP2 SLOAD ADD DUP1 DUP3 SSTORE DUP1 SWAP2 POP POP PUSH1 0x1 SWAP1 SUB SWAP1 PUSH0 MSTORE PUSH1 0x20 PUSH0 KECCAK256 ADD PUSH0 SWAP1 SWAP2 SWAP1 SWAP2 SWAP1 SWAP2 PUSH2 0x100 EXP DUP2 SLOAD DUP2 PUSH20 0xFFFFFFFFFFFFFFFFFFFFFFFFFFFFFFFFFFFFFFFF MUL NOT AND SWAP1 DUP4 PUSH20 0xFFFFFFFFFFFFFFFFFFFFFFFFFFFFFFFFFFFFFFFF AND MUL OR SWAP1 SSTORE POP JUMPDEST PUSH32 0x6CD3B8608D4368D7A92CFDA5A745DFB2993256DA9506CD888F31FF9AA48E2BD9 CALLER PUSH1 0x40 MLOAD PUSH2 0x1D6D SWAP2 SWAP1 PUSH2 0x20A6 JUMP JUMPDEST PUSH1 0x40 MLOAD DUP1 SWAP2 SUB SWAP1 LOG1 POP POP JUMP JUMPDEST PUSH1 0x8 DUP2 DUP2 SLOAD DUP2 LT PUSH2 0x1D88 JUMPI PUSH0 DUP1 REVERT JUMPDEST SWAP1 PUSH0 MSTORE PUSH1 0x20 PUSH0 KECCAK256 ADD PUSH0 SWAP2 POP SLOAD SWAP1 PUSH2 0x100 EXP SWAP1 DIV PUSH20 0xFFFFFFFFFFFFFFFFFFFFFFFFFFFFFFFFFFFFFFFF AND DUP2 JUMP JUMPDEST PUSH0 DUP2 SWAP1 POP SWAP2 SWAP1 POP JUMP JUMPDEST PUSH2 0x1DC6 DUP2 PUSH2 0x1DB4 JUMP JUMPDEST DUP3 MSTORE POP POP JUMP JUMPDEST PUSH0 PUSH1 0x20 DUP3 ADD SWAP1 POP PUSH2 0x1DDF PUSH0 DUP4 ADD DUP5 PUSH2 0x1DBD JUMP JUMPDEST SWAP3 SWAP2 POP POP JUMP JUMPDEST PUSH0 PUSH0 REVERT JUMPDEST PUSH0 PUSH20 0xFFFFFFFFFFFFFFFFFFFFFFFFFFFFFFFFFFFFFFFF DUP3 AND SWAP1 POP SWAP2 SWAP1 POP JUMP JUMPDEST PUSH0 PUSH2 0x1E12 DUP3 PUSH2 0x1DE9 JUMP JUMPDEST SWAP1 POP SWAP2 SWAP1 POP JUMP JUMPDEST PUSH2 0x1E22 DUP2 PUSH2 0x1E08 JUMP JUMPDEST DUP2 EQ PUSH2 0x1E2C JUMPI PUSH0 PUSH0 REVERT JUMPDEST POP JUMP JUMPDEST PUSH0 DUP2 CALLDATALOAD SWAP1 POP PUSH2 0x1E3D DUP2 PUSH2 0x1E19 JUMP JUMPDEST SWAP3 SWAP2 POP POP JUMP JUMPDEST PUSH0 PUSH1 0x20 DUP3 DUP5 SUB SLT ISZERO PUSH2 0x1E58 JUMPI PUSH2 0x1E57 PUSH2 0x1DE5 JUMP JUMPDEST JUMPDEST PUSH0 PUSH2 0x1E65 DUP5 DUP3 DUP6 ADD PUSH2 0x1E2F JUMP JUMPDEST SWAP2 POP POP SWAP3 SWAP2 POP POP JUMP JUMPDEST PUSH0 DUP2 ISZERO ISZERO SWAP1 POP SWAP2 SWAP1 POP JUMP JUMPDEST PUSH2 0x1E82 DUP2 PUSH2 0x1E6E JUMP JUMPDEST DUP3 MSTORE POP POP JUMP JUMPDEST PUSH0 PUSH1 0x20 DUP3 ADD SWAP1 POP PUSH2 0x1E9B PUSH0 DUP4 ADD DUP5 PUSH2 0x1E79 JUMP JUMPDEST SWAP3 SWAP2 POP POP JUMP JUMPDEST PUSH0 DUP2 MLOAD SWAP1 POP SWAP2 SWAP1 POP JUMP JUMPDEST PUSH0 DUP3 DUP3 MSTORE PUSH1 0x20 DUP3 ADD SWAP1 POP SWAP3 SWAP2 POP POP JUMP JUMPDEST DUP3 DUP2 DUP4 MCOPY PUSH0 DUP4 DUP4 ADD MSTORE POP POP POP JUMP JUMPDEST PUSH0 PUSH1 0x1F NOT PUSH1 0x1F DUP4 ADD AND SWAP1 POP SWAP2 SWAP1 POP JUMP JUMPDEST PUSH0 PUSH2 0x1EE3 DUP3 PUSH2 0x1EA1 JUMP JUMPDEST PUSH2 0x1EED DUP2 DUP6 PUSH2 0x1EAB JUMP JUMPDEST SWAP4 POP PUSH2 0x1EFD DUP2 DUP6 PUSH1 0x20 DUP7 ADD PUSH2 0x1EBB JUMP JUMPDEST PUSH2 0x1F06 DUP2 PUSH2 0x1EC9 JUMP JUMPDEST DUP5 ADD SWAP2 POP POP SWAP3 SWAP2 POP POP JUMP JUMPDEST PUSH0 PUSH1 0x20 DUP3 ADD SWAP1 POP DUP2 DUP2 SUB PUSH0 DUP4 ADD MSTORE PUSH2 0x1F29 DUP2 DUP5 PUSH2 0x1ED9 JUMP JUMPDEST SWAP1 POP SWAP3 SWAP2 POP POP JUMP JUMPDEST PUSH2 0x1F3A DUP2 PUSH2 0x1E08 JUMP JUMPDEST DUP3 MSTORE POP POP JUMP JUMPDEST PUSH0 DUP2 MLOAD SWAP1 POP SWAP2 SWAP1 POP JUMP JUMPDEST PUSH0 DUP3 DUP3 MSTORE PUSH1 0x20 DUP3 ADD SWAP1 POP SWAP3 SWAP2 POP POP JUMP JUMPDEST PUSH0 DUP2 SWAP1 POP PUSH1 0x20 DUP3 ADD SWAP1 POP SWAP2 SWAP1 POP JUMP JUMPDEST PUSH2 0x1F72 DUP2 PUSH2 0x1E08 JUMP JUMPDEST DUP3 MSTORE POP POP JUMP JUMPDEST PUSH0 PUSH2 0x1F83 DUP4 DUP4 PUSH2 0x1F69 JUMP JUMPDEST PUSH1 0x20 DUP4 ADD SWAP1 POP SWAP3 SWAP2 POP POP JUMP JUMPDEST PUSH0 PUSH1 0x20 DUP3 ADD SWAP1 POP SWAP2 SWAP1 POP JUMP JUMPDEST PUSH0 PUSH2 0x1FA5 DUP3 PUSH2 0x1F40 JUMP JUMPDEST PUSH2 0x1FAF DUP2 DUP6 PUSH2 0x1F4A JUMP JUMPDEST SWAP4 POP PUSH2 0x1FBA DUP4 PUSH2 0x1F5A JUMP JUMPDEST DUP1 PUSH0 JUMPDEST DUP4 DUP2 LT ISZERO PUSH2 0x1FEA JUMPI DUP2 MLOAD PUSH2 0x1FD1 DUP9 DUP3 PUSH2 0x1F78 JUMP JUMPDEST SWAP8 POP PUSH2 0x1FDC DUP4 PUSH2 0x1F8F JUMP JUMPDEST SWAP3 POP POP PUSH1 0x1 DUP2 ADD SWAP1 POP PUSH2 0x1FBD JUMP JUMPDEST POP DUP6 SWAP4 POP POP POP POP SWAP3 SWAP2 POP POP JUMP JUMPDEST PUSH0 PUSH2 0x140 DUP3 ADD SWAP1 POP PUSH2 0x200B PUSH0 DUP4 ADD DUP14 PUSH2 0x1DBD JUMP JUMPDEST PUSH2 0x2018 PUSH1 0x20 DUP4 ADD DUP13 PUSH2 0x1DBD JUMP JUMPDEST PUSH2 0x2025 PUSH1 0x40 DUP4 ADD DUP12 PUSH2 0x1DBD JUMP JUMPDEST PUSH2 0x2032 PUSH1 0x60 DUP4 ADD DUP11 PUSH2 0x1F31 JUMP JUMPDEST PUSH2 0x203F PUSH1 0x80 DUP4 ADD DUP10 PUSH2 0x1DBD JUMP JUMPDEST DUP2 DUP2 SUB PUSH1 0xA0 DUP4 ADD MSTORE PUSH2 0x2051 DUP2 DUP9 PUSH2 0x1ED9 JUMP JUMPDEST SWAP1 POP DUP2 DUP2 SUB PUSH1 0xC0 DUP4 ADD MSTORE PUSH2 0x2065 DUP2 DUP8 PUSH2 0x1ED9 JUMP JUMPDEST SWAP1 POP PUSH2 0x2074 PUSH1 0xE0 DUP4 ADD DUP7 PUSH2 0x1F31 JUMP JUMPDEST DUP2 DUP2 SUB PUSH2 0x100 DUP4 ADD MSTORE PUSH2 0x2087 DUP2 DUP6 PUSH2 0x1F9B JUMP JUMPDEST SWAP1 POP PUSH2 0x2097 PUSH2 0x120 DUP4 ADD DUP5 PUSH2 0x1DBD JUMP JUMPDEST SWAP12 SWAP11 POP POP POP POP POP POP POP POP POP POP POP JUMP JUMPDEST PUSH0 PUSH1 0x20 DUP3 ADD SWAP1 POP PUSH2 0x20B9 PUSH0 DUP4 ADD DUP5 PUSH2 0x1F31 JUMP JUMPDEST SWAP3 SWAP2 POP POP JUMP JUMPDEST PUSH0 DUP2 MLOAD SWAP1 POP SWAP2 SWAP1 POP JUMP JUMPDEST PUSH0 DUP3 DUP3 MSTORE PUSH1 0x20 DUP3 ADD SWAP1 POP SWAP3 SWAP2 POP POP JUMP JUMPDEST PUSH0 DUP2 SWAP1 POP PUSH1 0x20 DUP3 ADD SWAP1 POP SWAP2 SWAP1 POP JUMP JUMPDEST PUSH2 0x20F1 DUP2 PUSH2 0x1DB4 JUMP JUMPDEST DUP3 MSTORE POP POP JUMP JUMPDEST PUSH1 0x60 DUP3 ADD PUSH0 DUP3 ADD MLOAD PUSH2 0x210B PUSH0 DUP6 ADD DUP3 PUSH2 0x20E8 JUMP JUMPDEST POP PUSH1 0x20 DUP3 ADD MLOAD PUSH2 0x211E PUSH1 0x20 DUP6 ADD DUP3 PUSH2 0x20E8 JUMP JUMPDEST POP PUSH1 0x40 DUP3 ADD MLOAD PUSH2 0x2131 PUSH1 0x40 DUP6 ADD DUP3 PUSH2 0x1F69 JUMP JUMPDEST POP POP POP POP JUMP JUMPDEST PUSH0 PUSH2 0x2142 DUP4 DUP4 PUSH2 0x20F7 JUMP JUMPDEST PUSH1 0x60 DUP4 ADD SWAP1 POP SWAP3 SWAP2 POP POP JUMP JUMPDEST PUSH0 PUSH1 0x20 DUP3 ADD SWAP1 POP SWAP2 SWAP1 POP JUMP JUMPDEST PUSH0 PUSH2 0x2164 DUP3 PUSH2 0x20BF JUMP JUMPDEST PUSH2 0x216E DUP2 DUP6 PUSH2 0x20C9 JUMP JUMPDEST SWAP4 POP PUSH2 0x2179 DUP4 PUSH2 0x20D9 JUMP JUMPDEST DUP1 PUSH0 JUMPDEST DUP4 DUP2 LT ISZERO PUSH2 0x21A9 JUMPI DUP2 MLOAD PUSH2 0x2190 DUP9 DUP3 PUSH2 0x2137 JUMP JUMPDEST SWAP8 POP PUSH2 0x219B DUP4 PUSH2 0x214E JUMP JUMPDEST SWAP3 POP POP PUSH1 0x1 DUP2 ADD SWAP1 POP PUSH2 0x217C JUMP JUMPDEST POP DUP6 SWAP4 POP POP POP POP SWAP3 SWAP2 POP POP JUMP JUMPDEST PUSH0 PUSH1 0x20 DUP3 ADD SWAP1 POP DUP2 DUP2 SUB PUSH0 DUP4 ADD MSTORE PUSH2 0x21CE DUP2 DUP5 PUSH2 0x215A JUMP JUMPDEST SWAP1 POP SWAP3 SWAP2 POP POP JUMP JUMPDEST PUSH2 0x21DF DUP2 PUSH2 0x1DB4 JUMP JUMPDEST DUP2 EQ PUSH2 0x21E9 JUMPI PUSH0 PUSH0 REVERT JUMPDEST POP JUMP JUMPDEST PUSH0 DUP2 CALLDATALOAD SWAP1 POP PUSH2 0x21FA DUP2 PUSH2 0x21D6 JUMP JUMPDEST SWAP3 SWAP2 POP POP JUMP JUMPDEST PUSH0 PUSH1 0x20 DUP3 DUP5 SUB SLT ISZERO PUSH2 0x2215 JUMPI PUSH2 0x2214 PUSH2 0x1DE5 JUMP JUMPDEST JUMPDEST PUSH0 PUSH2 0x2222 DUP5 DUP3 DUP6 ADD PUSH2 0x21EC JUMP JUMPDEST SWAP2 POP POP SWAP3 SWAP2 POP POP JUMP JUMPDEST PUSH0 PUSH1 0x60 DUP3 ADD SWAP1 POP PUSH2 0x223E PUSH0 DUP4 ADD DUP7 PUSH2 0x1DBD JUMP JUMPDEST PUSH2 0x224B PUSH1 0x20 DUP4 ADD DUP6 PUSH2 0x1DBD JUMP JUMPDEST PUSH2 0x2258 PUSH1 0x40 DUP4 ADD DUP5 PUSH2 0x1F31 JUMP JUMPDEST SWAP5 SWAP4 POP POP POP POP JUMP JUMPDEST PUSH0 PUSH1 0x20 DUP3 ADD SWAP1 POP DUP2 DUP2 SUB PUSH0 DUP4 ADD MSTORE PUSH2 0x2278 DUP2 DUP5 PUSH2 0x1F9B JUMP JUMPDEST SWAP1 POP SWAP3 SWAP2 POP POP JUMP JUMPDEST PUSH0 DUP2 SWAP1 POP SWAP2 SWAP1 POP JUMP JUMPDEST PUSH0 PUSH2 0x22A3 PUSH2 0x229E PUSH2 0x2299 DUP5 PUSH2 0x1DE9 JUMP JUMPDEST PUSH2 0x2280 JUMP JUMPDEST PUSH2 0x1DE9 JUMP JUMPDEST SWAP1 POP SWAP2 SWAP1 POP JUMP JUMPDEST PUSH0 PUSH2 0x22B4 DUP3 PUSH2 0x2289 JUMP JUMPDEST SWAP1 POP SWAP2 SWAP1 POP JUMP JUMPDEST PUSH0 PUSH2 0x22C5 DUP3 PUSH2 0x22AA JUMP JUMPDEST SWAP1 POP SWAP2 SWAP1 POP JUMP JUMPDEST PUSH2 0x22D5 DUP2 PUSH2 0x22BB JUMP JUMPDEST DUP3 MSTORE POP POP JUMP JUMPDEST PUSH0 PUSH1 0x20 DUP3 ADD SWAP1 POP PUSH2 0x22EE PUSH0 DUP4 ADD DUP5 PUSH2 0x22CC JUMP JUMPDEST SWAP3 SWAP2 POP POP JUMP JUMPDEST PUSH32 0x41756374696F6E206E6F742066696E616C697A65640000000000000000000000 PUSH0 DUP3 ADD MSTORE POP JUMP JUMPDEST PUSH0 PUSH2 0x2328 PUSH1 0x15 DUP4 PUSH2 0x1EAB JUMP JUMPDEST SWAP2 POP PUSH2 0x2333 DUP3 PUSH2 0x22F4 JUMP JUMPDEST PUSH1 0x20 DUP3 ADD SWAP1 POP SWAP2 SWAP1 POP JUMP JUMPDEST PUSH0 PUSH1 0x20 DUP3 ADD SWAP1 POP DUP2 DUP2 SUB PUSH0 DUP4 ADD MSTORE PUSH2 0x2355 DUP2 PUSH2 0x231C JUMP JUMPDEST SWAP1 POP SWAP2 SWAP1 POP JUMP JUMPDEST PUSH32 0x57696E6E657220686173206E6F20726566756E64000000000000000000000000 PUSH0 DUP3 ADD MSTORE POP JUMP JUMPDEST PUSH0 PUSH2 0x2390 PUSH1 0x14 DUP4 PUSH2 0x1EAB JUMP JUMPDEST SWAP2 POP PUSH2 0x239B DUP3 PUSH2 0x235C JUMP JUMPDEST PUSH1 0x20 DUP3 ADD SWAP1 POP SWAP2 SWAP1 POP JUMP JUMPDEST PUSH0 PUSH1 0x20 DUP3 ADD SWAP1 POP DUP2 DUP2 SUB PUSH0 DUP4 ADD MSTORE PUSH2 0x23BD DUP2 PUSH2 0x2384 JUMP JUMPDEST SWAP1 POP SWAP2 SWAP1 POP JUMP JUMPDEST PUSH32 0x4E6F20726566756E6420617661696C61626C6500000000000000000000000000 PUSH0 DUP3 ADD MSTORE POP JUMP JUMPDEST PUSH0 PUSH2 0x23F8 PUSH1 0x13 DUP4 PUSH2 0x1EAB JUMP JUMPDEST SWAP2 POP PUSH2 0x2403 DUP3 PUSH2 0x23C4 JUMP JUMPDEST PUSH1 0x20 DUP3 ADD SWAP1 POP SWAP2 SWAP1 POP JUMP JUMPDEST PUSH0 PUSH1 0x20 DUP3 ADD SWAP1 POP DUP2 DUP2 SUB PUSH0 DUP4 ADD MSTORE PUSH2 0x2425 DUP2 PUSH2 0x23EC JUMP JUMPDEST SWAP1 POP SWAP2 SWAP1 POP JUMP JUMPDEST PUSH0 DUP2 SWAP1 POP SWAP3 SWAP2 POP POP JUMP JUMPDEST POP JUMP JUMPDEST PUSH0 PUSH2 0x2444 PUSH0 DUP4 PUSH2 0x242C JUMP JUMPDEST SWAP2 POP PUSH2 0x244F DUP3 PUSH2 0x2436 JUMP JUMPDEST PUSH0 DUP3 ADD SWAP1 POP SWAP2 SWAP1 POP JUMP JUMPDEST PUSH0 PUSH2 0x2463 DUP3 PUSH2 0x2439 JUMP JUMPDEST SWAP2 POP DUP2 SWAP1 POP SWAP2 SWAP1 POP JUMP JUMPDEST PUSH32 0x526566756E64206661696C656400000000000000000000000000000000000000 PUSH0 DUP3 ADD MSTORE POP JUMP JUMPDEST PUSH0 PUSH2 0x24A1 PUSH1 0xD DUP4 PUSH2 0x1EAB JUMP JUMPDEST SWAP2 POP PUSH2 0x24AC DUP3 PUSH2 0x246D JUMP JUMPDEST PUSH1 0x20 DUP3 ADD SWAP1 POP SWAP2 SWAP1 POP JUMP JUMPDEST PUSH0 PUSH1 0x20 DUP3 ADD SWAP1 POP DUP2 DUP2 SUB PUSH0 DUP4 ADD MSTORE PUSH2 0x24CE DUP2 PUSH2 0x2495 JUMP JUMPDEST SWAP1 POP SWAP2 SWAP1 POP JUMP JUMPDEST PUSH32 0x4F6E6C792077696E6E65722063616E2061636365737320746865206461746100 PUSH0 DUP3 ADD MSTORE POP JUMP JUMPDEST PUSH0 PUSH2 0x2509 PUSH1 0x1F DUP4 PUSH2 0x1EAB JUMP JUMPDEST SWAP2 POP PUSH2 0x2514 DUP3 PUSH2 0x24D5 JUMP JUMPDEST PUSH1 0x20 DUP3 ADD SWAP1 POP SWAP2 SWAP1 POP JUMP JUMPDEST PUSH0 PUSH1 0x20 DUP3 ADD SWAP1 POP DUP2 DUP2 SUB PUSH0 DUP4 ADD MSTORE PUSH2 0x2536 DUP2 PUSH2 0x24FD JUMP JUMPDEST SWAP1 POP SWAP2 SWAP1 POP JUMP JUMPDEST PUSH32 0x4E487B7100000000000000000000000000000000000000000000000000000000 PUSH0 MSTORE PUSH1 0x22 PUSH1 0x4 MSTORE PUSH1 0x24 PUSH0 REVERT JUMPDEST PUSH0 PUSH1 0x2 DUP3 DIV SWAP1 POP PUSH1 0x1 DUP3 AND DUP1 PUSH2 0x2581 JUMPI PUSH1 0x7F DUP3 AND SWAP2 POP JUMPDEST PUSH1 0x20 DUP3 LT DUP2 SUB PUSH2 0x2594 JUMPI PUSH2 0x2593 PUSH2 0x253D JUMP JUMPDEST JUMPDEST POP SWAP2 SWAP1 POP JUMP JUMPDEST PUSH32 0x41756374696F6E206E6F7420656E646564207965740000000000000000000000 PUSH0 DUP3 ADD MSTORE POP JUMP JUMPDEST PUSH0 PUSH2 0x25CE PUSH1 0x15 DUP4 PUSH2 0x1EAB JUMP JUMPDEST SWAP2 POP PUSH2 0x25D9 DUP3 PUSH2 0x259A JUMP JUMPDEST PUSH1 0x20 DUP3 ADD SWAP1 POP SWAP2 SWAP1 POP JUMP JUMPDEST PUSH0 PUSH1 0x20 DUP3 ADD SWAP1 POP DUP2 DUP2 SUB PUSH0 DUP4 ADD MSTORE PUSH2 0x25FB DUP2 PUSH2 0x25C2 JUMP JUMPDEST SWAP1 POP SWAP2 SWAP1 POP JUMP JUMPDEST PUSH32 0x41756374696F6E20616C72656164792066696E616C697A656400000000000000 PUSH0 DUP3 ADD MSTORE POP JUMP JUMPDEST PUSH0 PUSH2 0x2636 PUSH1 0x19 DUP4 PUSH2 0x1EAB JUMP JUMPDEST SWAP2 POP PUSH2 0x2641 DUP3 PUSH2 0x2602 JUMP JUMPDEST PUSH1 0x20 DUP3 ADD SWAP1 POP SWAP2 SWAP1 POP JUMP JUMPDEST PUSH0 PUSH1 0x20 DUP3 ADD SWAP1 POP DUP2 DUP2 SUB PUSH0 DUP4 ADD MSTORE PUSH2 0x2663 DUP2 PUSH2 0x262A JUMP JUMPDEST SWAP1 POP SWAP2 SWAP1 POP JUMP JUMPDEST PUSH32 0x496E73756666696369656E742062616C616E6365000000000000000000000000 PUSH0 DUP3 ADD MSTORE POP JUMP JUMPDEST PUSH0 PUSH2 0x269E PUSH1 0x14 DUP4 PUSH2 0x1EAB JUMP JUMPDEST SWAP2 POP PUSH2 0x26A9 DUP3 PUSH2 0x266A JUMP JUMPDEST PUSH1 0x20 DUP3 ADD SWAP1 POP SWAP2 SWAP1 POP JUMP JUMPDEST PUSH0 PUSH1 0x20 DUP3 ADD SWAP1 POP DUP2 DUP2 SUB PUSH0 DUP4 ADD MSTORE PUSH2 0x26CB DUP2 PUSH2 0x2692 JUMP JUMPDEST SWAP1 POP SWAP2 SWAP1 POP JUMP JUMPDEST PUSH32 0x53656C6C6572207061796D656E74206661696C65640000000000000000000000 PUSH0 DUP3 ADD MSTORE POP JUMP JUMPDEST PUSH0 PUSH2 0x2706 PUSH1 0x15 DUP4 PUSH2 0x1EAB JUMP JUMPDEST SWAP2 POP PUSH2 0x2711 DUP3 PUSH2 0x26D2 JUMP JUMPDEST PUSH1 0x20 DUP3 ADD SWAP1 POP SWAP2 SWAP1 POP JUMP JUMPDEST PUSH0 PUSH1 0x20 DUP3 ADD SWAP1 POP DUP2 DUP2 SUB PUSH0 DUP4 ADD MSTORE PUSH2 0x2733 DUP2 PUSH2 0x26FA JUMP JUMPDEST SWAP1 POP SWAP2 SWAP1 POP JUMP JUMPDEST PUSH0 PUSH1 0x60 DUP3 ADD SWAP1 POP PUSH2 0x274D PUSH0 DUP4 ADD DUP7 PUSH2 0x1F31 JUMP JUMPDEST PUSH2 0x275A PUSH1 0x20 DUP4 ADD DUP6 PUSH2 0x1DBD JUMP JUMPDEST PUSH2 0x2767 PUSH1 0x40 DUP4 ADD DUP5 PUSH2 0x1E79 JUMP JUMPDEST SWAP5 SWAP4 POP POP POP POP JUMP JUMPDEST PUSH32 0x42617463682073697A6520726571756972656400000000000000000000000000 PUSH0 DUP3 ADD MSTORE POP JUMP JUMPDEST PUSH0 PUSH2 0x27A3 PUSH1 0x13 DUP4 PUSH2 0x1EAB JUMP JUMPDEST SWAP2 POP PUSH2 0x27AE DUP3 PUSH2 0x276F JUMP JUMPDEST PUSH1 0x20 DUP3 ADD SWAP1 POP SWAP2 SWAP1 POP JUMP JUMPDEST PUSH0 PUSH1 0x20 DUP3 ADD SWAP1 POP DUP2 DUP2 SUB PUSH0 DUP4 ADD MSTORE PUSH2 0x27D0 DUP2 PUSH2 0x2797 JUMP JUMPDEST SWAP1 POP SWAP2 SWAP1 POP JUMP JUMPDEST PUSH32 0x4E487B7100000000000000000000000000000000000000000000000000000000 PUSH0 MSTORE PUSH1 0x32 PUSH1 0x4 MSTORE PUSH1 0x24 PUSH0 REVERT JUMPDEST PUSH32 0x4E487B7100000000000000000000000000000000000000000000000000000000 PUSH0 MSTORE PUSH1 0x11 PUSH1 0x4 MSTORE PUSH1 0x24 PUSH0 REVERT JUMPDEST PUSH0 PUSH2 0x283B DUP3 PUSH2 0x1DB4 JUMP JUMPDEST SWAP2 POP PUSH32 0xFFFFFFFFFFFFFFFFFFFFFFFFFFFFFFFFFFFFFFFFFFFFFFFFFFFFFFFFFFFFFFFF DUP3 SUB PUSH2 0x286D JUMPI PUSH2 0x286C PUSH2 0x2804 JUMP JUMPDEST JUMPDEST PUSH1 0x1 DUP3 ADD SWAP1 POP SWAP2 SWAP1 POP JUMP JUMPDEST PUSH32 0x41756374696F6E20656E64656400000000000000000000000000000000000000 PUSH0 DUP3 ADD MSTORE POP JUMP JUMPDEST PUSH0 PUSH2 0x28AC PUSH1 0xD DUP4 PUSH2 0x1EAB JUMP JUMPDEST SWAP2 POP PUSH2 0x28B7 DUP3 PUSH2 0x2878 JUMP JUMPDEST PUSH1 0x20 DUP3 ADD SWAP1 POP SWAP2 SWAP1 POP JUMP JUMPDEST PUSH0 PUSH1 0x20 DUP3 ADD SWAP1 POP DUP2 DUP2 SUB PUSH0 DUP4 ADD MSTORE PUSH2 0x28D9 DUP2 PUSH2 0x28A0 JUMP JUMPDEST SWAP1 POP SWAP2 SWAP1 POP JUMP JUMPDEST PUSH32 0x596F752063616E277420626964206F6E20796F7572206F776E2061756374696F PUSH0 DUP3 ADD MSTORE PUSH32 0x6E00000000000000000000000000000000000000000000000000000000000000 PUSH1 0x20 DUP3 ADD MSTORE POP JUMP JUMPDEST PUSH0 PUSH2 0x293A PUSH1 0x21 DUP4 PUSH2 0x1EAB JUMP JUMPDEST SWAP2 POP PUSH2 0x2945 DUP3 PUSH2 0x28E0 JUMP JUMPDEST PUSH1 0x40 DUP3 ADD SWAP1 POP SWAP2 SWAP1 POP JUMP JUMPDEST PUSH0 PUSH1 0x20 DUP3 ADD SWAP1 POP DUP2 DUP2 SUB PUSH0 DUP4 ADD MSTORE PUSH2 0x2967 DUP2 PUSH2 0x292E JUMP JUMPDEST SWAP1 POP SWAP2 SWAP1 POP JUMP JUMPDEST PUSH32 0x4D7573742073656E6420736F6D65206574686572000000000000000000000000 PUSH0 DUP3 ADD MSTORE POP JUMP JUMPDEST PUSH0 PUSH2 0x29A2 PUSH1 0x14 DUP4 PUSH2 0x1EAB JUMP JUMPDEST SWAP2 POP PUSH2 0x29AD DUP3 PUSH2 0x296E JUMP JUMPDEST PUSH1 0x20 DUP3 ADD SWAP1 POP SWAP2 SWAP1 POP JUMP JUMPDEST PUSH0 PUSH1 0x20 DUP3 ADD SWAP1 POP DUP2 DUP2 SUB PUSH0 DUP4 ADD MSTORE PUSH2 0x29CF DUP2 PUSH2 0x2996 JUMP JUMPDEST SWAP1 POP SWAP2 SWAP1 POP JUMP JUMPDEST PUSH0 PUSH2 0x29E0 DUP3 PUSH2 0x1DB4 JUMP JUMPDEST SWAP2 POP PUSH2 0x29EB DUP4 PUSH2 0x1DB4 JUMP JUMPDEST SWAP3 POP DUP3 DUP3 ADD SWAP1 POP DUP1 DUP3 GT ISZERO PUSH2 0x2A03 JUMPI PUSH2 0x2A02 PUSH2 0x2804 JUMP JUMPDEST JUMPDEST SWAP3 SWAP2 POP POP JUMP JUMPDEST PUSH32 0x42656C6F77206D696E696D756D20626964000000000000000000000000000000 PUSH0 DUP3 ADD MSTORE POP JUMP JUMPDEST PUSH0 PUSH2 0x2A3D PUSH1 0x11 DUP4 PUSH2 0x1EAB JUMP JUMPDEST SWAP2 POP PUSH2 0x2A48 DUP3 PUSH2 0x2A09 JUMP JUMPDEST PUSH1 0x20 DUP3 ADD SWAP1 POP SWAP2 SWAP1 POP JUMP JUMPDEST PUSH0 PUSH1 0x20 DUP3 ADD SWAP1 POP DUP2 DUP2 SUB PUSH0 DUP4 ADD MSTORE PUSH2 0x2A6A DUP2 PUSH2 0x2A31 JUMP JUMPDEST SWAP1 POP SWAP2 SWAP1 POP JUMP JUMPDEST PUSH32 0x426964206D757374206578636565642063757272656E74206869676865737400 PUSH0 DUP3 ADD MSTORE POP JUMP JUMPDEST PUSH0 PUSH2 0x2AA5 PUSH1 0x1F DUP4 PUSH2 0x1EAB JUMP JUMPDEST SWAP2 POP PUSH2 0x2AB0 DUP3 PUSH2 0x2A71 JUMP JUMPDEST PUSH1 0x20 DUP3 ADD SWAP1 POP SWAP2 SWAP1 POP JUMP JUMPDEST PUSH0 PUSH1 0x20 DUP3 ADD SWAP1 POP DUP2 DUP2 SUB PUSH0 DUP4 ADD MSTORE PUSH2 0x2AD2 DUP2 PUSH2 0x2A99 JUMP JUMPDEST SWAP1 POP SWAP2 SWAP1 POP JUMP INVALID LOG2 PUSH5 0x6970667358 0x22 SLT KECCAK256 CHAINID 0xA8 0x24 RETURNDATACOPY CHAINID CREATE2 0xB1 STATICCALL SLOAD 0xB9 ADDRESS DUP6 0xA6 MLOAD STATICCALL 0xB7 0xB9 CALL SWAP6 0xBE 0x1F PUSH28 0xC87EDDE3F2055DD65E0864736F6C6343000823003300000000000000 "},"gasEstimates":{"creation":{"codeDepositCost":"2204600","executionCost":"infinite","totalCost":"infinite"},"external":{"addresses(uint256)":"5054","approvers(address)":"2879","approversCount()":"2448","approversMoney(address)":"2913","closed()":"2555","contribute()":"infinite","dataDescription()":"infinite","dataForSell()":"infinite","endTime()":"2515","factory()":"infinite","finalizeAuctionIfNeeded()":"infinite","getAddresses()":"infinite","getBid(address)":"2873","getData()":"infinite","getStatus()":"2518","getSummary()":"infinite","getTransactions()":"infinite","highestBid()":"2491","highestBidder()":"2575","manager()":"2531","minimumContribution()":"2514","nextRefundIndex()":"2449","processRefunds(uint256)":"infinite","transactions(uint256)":"infinite","withdrawRefund()":"infinite"}},"methodIdentifiers":{"addresses(uint256)":"edf26d9b","approvers(address)":"0a144391","approversCount()":"82fde093","approversMoney(address)":"5dc1d641","closed()":"597e1fb5","contribute()":"d7bb99ba","dataDescription()":"58d65629","dataForSell()":"7b87d856","endTime()":"3197cbb6","factory()":"c45a0155","finalizeAuctionIfNeeded()":"976af615","getAddresses()":"a39fac12","getBid(address)":"c8b342ab","getData()":"3bc5de30","getStatus()":"4e69d560","getSummary()":"4051ddac","getTransactions()":"83920e90","highestBid()":"d57bde79","highestBidder()":"91f90157","manager()":"481c6a75","minimumContribution()":"937e09b1","nextRefundIndex()":"074d55c4","processRefunds(uint256)":"c6f56901","transactions(uint256)":"9ace38c2","withdrawRefund()":"110f8874"}},"storageLayout":{"storage":[{"astId":4,"contract":"Campaign.sol:Campaign","label":"factory","offset":0,"slot":"0","type":"t_contract(CampaignFactory)902"},{"astId":29,"contract":"Campaign.sol:Campaign","label":"manager","offset":0,"slot":"1","type":"t_address"},{"astId":31,"contract":"Campaign.sol:Campaign","label":"minimumContribution","offset":0,"slot":"2","type":"t_uint256"},{"astId":33,"contract":"Campaign.sol:Campaign","label":"dataForSell","offset":0,"slot":"3","type":"t_string_storage"},{"astId":35,"contract":"Campaign.sol:Campaign","label":"dataDescription","offset":0,"slot":"4","type":"t_string_storage"},{"astId":39,"contract":"Campaign.sol:Campaign","label":"approvers","offset":0,"slot":"5","type":"t_mapping(t_address,t_bool)"},{"astId":43,"contract":"Campaign.sol:Campaign","label":"approversMoney","offset":0,"slot":"6","type":"t_mapping(t_address,t_uint256)"},{"astId":45,"contract":"Campaign.sol:Campaign","label":"approversCount","offset":0,"slot":"7","type":"t_uint256"},{"astId":48,"contract":"Campaign.sol:Campaign","label":"addresses","offset":0,"slot":"8","type":"t_array(t_address)dyn_storage"},{"astId":52,"contract":"Campaign.sol:Campaign","label":"transactions","offset":0,"slot":"9","type":"t_array(t_struct(Bid)27_storage)dyn_storage"},{"astId":54,"contract":"Campaign.sol:Campaign","label":"highestBidder","offset":0,"slot":"10","type":"t_address"},{"astId":56,"contract":"Campaign.sol:Campaign","label":"highestBid","offset":0,"slot":"11","type":"t_uint256"},{"astId":58,"contract":"Campaign.sol:Campaign","label":"endTime","offset":0,"slot":"12","type":"t_uint256"},{"astId":60,"contract":"Campaign.sol:Campaign","label":"closed","offset":0,"slot":"13","type":"t_bool"},{"astId":62,"contract":"Campaign.sol:Campaign","label":"nextRefundIndex","offset":0,"slot":"14","type":"t_uint256"}],"types":{"t_address":{"encoding":"inplace","label":"address","numberOfBytes":"20"},"t_array(t_address)dyn_storage":{"base":"t_address","encoding":"dynamic_array","label":"address[]","numberOfBytes":"32"},"t_array(t_struct(Bid)27_storage)dyn_storage":{"base":"t_struct(Bid)27_storage","encoding":"dynamic_array","label":"struct Campaign.Bid[]","numberOfBytes":"32"},"t_bool":{"encoding":"inplace","label":"bool","numberOfBytes":"1"},"t_contract(CampaignFactory)902":{"encoding":"inplace","label":"contract CampaignFactory","numberOfBytes":"20"},"t_mapping(t_address,t_bool)":{"encoding":"mapping","key":"t_address","label":"mapping(address => bool)","numberOfBytes":"32","value":"t_bool"},"t_mapping(t_address,t_uint256)":{"encoding":"mapping","key":"t_address","label":"mapping(address => uint256)","numberOfBytes":"32","value":"t_uint256"},"t_string_storage":{"encoding":"bytes","label":"string","numberOfBytes":"32"},"t_struct(Bid)27_storage":{"encoding":"inplace","label":"struct Campaign.Bid","members":[{"astId":22,"contract":"Campaign.sol:Campaign","label":"value","offset":0,"slot":"0","type":"t_uint256"},{"astId":24,"contract":"Campaign.sol:Campaign","label":"time","offset":0,"slot":"1","type":"t_uint256"},{"astId":26,"contract":"Campaign.sol:Campaign","label":"bidderAddress","offset":0,"slot":"2","type":"t_address"}],"numberOfBytes":"96"},"t_uint256":{"encoding":"inplace","label":"uint256","numberOfBytes":"32"}}},"transientStorageLayout":{"storage":[],"types":null},"userdoc":{"kind":"user","methods":{},"version":1}}