{"abi":[{"inputs":[],"name":"checkEndedAuctions","outputs":[],"stateMutability":"nonpayable","type":"function"},{"inputs":[{"internalType":"uint256","name":"minimum","type":"uint256"},{"internalType":"string","name":"dataSell","type":"string"},{"internalType":"string","name":"dataDesc","type":"string"},{"internalType":"uint256","name":"duration","type":"uint256"},{"internalType":"address","name":"tokenAddress","type":"address"}],"name":"createCampaign","outputs":[],"stateMutability":"nonpayable","type":"function"},{"inputs":[{"internalType":"uint256","name":"","type":"uint256"}],"name":"deployedCampaigns","outputs":[{"internalType":"address payable","name":"","type":"address"}],"stateMutability":"view","type":"function"},{"inputs":[],"name":"getDeployedCampaigns","outputs":[{"internalType":"address payable[]","name":"","type":"address[]"}],"stateMutability":"view","type":"function"}],"devdoc":{"kind":"dev","methods":{},"version":1},"evm":{"assembly":"    /* \"Campaign.sol\":5293:6332  contract CampaignFactory {... */\n  mstore(0x40, 0x80)\n  callvalue\n  dup1\n  iszero\n  tag_1\n  jumpi\n  revert(0x00, 0x00)\ntag_1:\n  pop\n  dataSize(sub_0)\n  dup1\n  dataOffset(sub_0)\n  0x00\n  codecopy\n  0x00\n  return\nstop\n\nsub_0: assembly {\n        /* \"Campaign.sol\":5293:6332  contract CampaignFactory {... */\n      mstore(0x40, 0x80)\n      callvalue\n      dup1\n      iszero\n      tag_1\n      jumpi\n      revert(0x00, 0x00)\n    tag_1:\n      pop\n      jumpi(tag_2, lt(calldatasize, 0x04))\n      shr(0xe0, calldataload(0x00))\n      dup1\n      0x339d50a5\n      eq\n      tag_3\n      jumpi\n      dup1\n      0x4acb9d4f\n      eq\n      tag_4\n      jumpi\n      dup1\n      0x75da6ba0\n      eq\n      tag_5\n      jumpi\n      dup1\n      0xf9f01f88\n      eq\n      tag_6\n      jumpi\n    tag_2:\n      revert(0x00, 0x00)\n        /* \"Campaign.sol\":5325:5367  address payable[] public deployedCampaigns */\n    tag_3:\n      tag_7\n      0x04\n      dup1\n      calldatasize\n      sub\n      dup2\n      add\n      swap1\n      tag_8\n      swap2\n      swap1\n      tag_9\n      jump\t// in\n    tag_8:\n      tag_10\n      jump\t// in\n    tag_7:\n      mload(0x40)\n      tag_11\n      swap2\n      swap1\n      tag_12\n      jump\t// in\n    tag_11:\n      mload(0x40)\n      dup1\n      swap2\n      sub\n      swap1\n      return\n        /* \"Campaign.sol\":5829:5983  function getDeployedCampaigns()... */\n    tag_4:\n      tag_13\n      tag_14\n      jump\t// in\n    tag_13:\n      mload(0x40)\n      tag_15\n      swap2\n      swap1\n      tag_16\n      jump\t// in\n    tag_15:\n      mload(0x40)\n      dup1\n      swap2\n      sub\n      swap1\n      return\n        /* \"Campaign.sol\":5991:6329  function checkEndedAuctions() public {... */\n    tag_5:\n      tag_17\n      tag_18\n      jump\t// in\n    tag_17:\n      stop\n        /* \"Campaign.sol\":5376:5821  function createCampaign(... */\n    tag_6:\n      tag_19\n      0x04\n      dup1\n      calldatasize\n      sub\n      dup2\n      add\n      swap1\n      tag_20\n      swap2\n      swap1\n      tag_21\n      jump\t// in\n    tag_20:\n      tag_22\n      jump\t// in\n    tag_19:\n      stop\n        /* \"Campaign.sol\":5325:5367  address payable[] public deployedCampaigns */\n    tag_10:\n      0x00\n      dup2\n      dup2\n      sload\n      dup2\n      lt\n      tag_23\n      jumpi\n      0x00\n      dup1\n      revert\n    tag_23:\n      swap1\n      0x00\n      mstore\n      keccak256(0x00, 0x20)\n      add\n      0x00\n      swap2\n      pop\n      sload\n      swap1\n      0x0100\n      exp\n      swap1\n      div\n      0xffffffffffffffffffffffffffffffffffffffff\n      and\n      dup2\n      jump\t// out\n        /* \"Campaign.sol\":5829:5983  function getDeployedCampaigns()... */\n    tag_14:\n        /* \"Campaign.sol\":5909:5933  address payable[] memory */\n      0x60\n        /* \"Campaign.sol\":5958:5975  deployedCampaigns */\n      0x00\n        /* \"Campaign.sol\":5951:5975  return deployedCampaigns */\n      dup1\n      sload\n      dup1\n      0x20\n      mul\n      0x20\n      add\n      mload(0x40)\n      swap1\n      dup2\n      add\n      0x40\n      mstore\n      dup1\n      swap3\n      swap2\n      swap1\n      dup2\n      dup2\n      mstore\n      0x20\n      add\n      dup3\n      dup1\n      sload\n      dup1\n      iszero\n      tag_26\n      jumpi\n      0x20\n      mul\n      dup3\n      add\n      swap2\n      swap1\n      0x00\n      mstore\n      keccak256(0x00, 0x20)\n      swap1\n    tag_27:\n      dup2\n      0x00\n      swap1\n      sload\n      swap1\n      0x0100\n      exp\n      swap1\n      div\n      0xffffffffffffffffffffffffffffffffffffffff\n      and\n      0xffffffffffffffffffffffffffffffffffffffff\n      and\n      dup2\n      mstore\n      0x20\n      add\n      swap1\n      0x01\n      add\n      swap1\n      dup1\n      dup4\n      gt\n      tag_27\n      jumpi\n    tag_26:\n      pop\n      pop\n      pop\n      pop\n      pop\n      swap1\n      pop\n        /* \"Campaign.sol\":5829:5983  function getDeployedCampaigns()... */\n      swap1\n      jump\t// out\n        /* \"Campaign.sol\":5991:6329  function checkEndedAuctions() public {... */\n    tag_18:\n        /* \"Campaign.sol\":6044:6053  uint256 i */\n      0x00\n        /* \"Campaign.sol\":6056:6057  0 */\n      0x00\n        /* \"Campaign.sol\":6044:6057  uint256 i = 0 */\n      swap1\n      pop\n        /* \"Campaign.sol\":6039:6322  for (uint256 i = 0; i < deployedCampaigns.length; i++) {... */\n    tag_29:\n        /* \"Campaign.sol\":6063:6080  deployedCampaigns */\n      0x00\n        /* \"Campaign.sol\":6063:6087  deployedCampaigns.length */\n      dup1\n      sload\n      swap1\n      pop\n        /* \"Campaign.sol\":6059:6060  i */\n      dup2\n        /* \"Campaign.sol\":6059:6087  i < deployedCampaigns.length */\n      lt\n        /* \"Campaign.sol\":6039:6322  for (uint256 i = 0; i < deployedCampaigns.length; i++) {... */\n      iszero\n      tag_30\n      jumpi\n        /* \"Campaign.sol\":6109:6126  Campaign campaign */\n      0x00\n        /* \"Campaign.sol\":6138:6155  deployedCampaigns */\n      0x00\n        /* \"Campaign.sol\":6156:6157  i */\n      dup3\n        /* \"Campaign.sol\":6138:6158  deployedCampaigns[i] */\n      dup2\n      sload\n      dup2\n      lt\n      tag_32\n      jumpi\n      tag_33\n      tag_34\n      jump\t// in\n    tag_33:\n    tag_32:\n      swap1\n      0x00\n      mstore\n      keccak256(0x00, 0x20)\n      add\n      0x00\n      swap1\n      sload\n      swap1\n      0x0100\n      exp\n      swap1\n      div\n      0xffffffffffffffffffffffffffffffffffffffff\n      and\n        /* \"Campaign.sol\":6109:6159  Campaign campaign = Campaign(deployedCampaigns[i]) */\n      swap1\n      pop\n        /* \"Campaign.sol\":6179:6187  campaign */\n      dup1\n        /* \"Campaign.sol\":6179:6197  campaign.getStatus */\n      0xffffffffffffffffffffffffffffffffffffffff\n      and\n      0x4e69d560\n        /* \"Campaign.sol\":6179:6199  campaign.getStatus() */\n      mload(0x40)\n      dup2\n      0xffffffff\n      and\n      0xe0\n      shl\n      dup2\n      mstore\n      0x04\n      add\n      0x20\n      mload(0x40)\n      dup1\n      dup4\n      sub\n      dup2\n      dup7\n      gas\n      staticcall\n      iszero\n      dup1\n      iszero\n      tag_37\n      jumpi\n      returndatacopy(0x00, 0x00, returndatasize)\n      revert(0x00, returndatasize)\n    tag_37:\n      pop\n      pop\n      pop\n      pop\n      mload(0x40)\n      returndatasize\n      not(0x1f)\n      0x1f\n      dup3\n      add\n      and\n      dup3\n      add\n      dup1\n      0x40\n      mstore\n      pop\n      dup2\n      add\n      swap1\n      tag_38\n      swap2\n      swap1\n      tag_39\n      jump\t// in\n    tag_38:\n        /* \"Campaign.sol\":6178:6199  !campaign.getStatus() */\n      iszero\n        /* \"Campaign.sol\":6178:6240  !campaign.getStatus() && block.timestamp >= campaign.endTime() */\n      dup1\n      iszero\n      tag_40\n      jumpi\n      pop\n        /* \"Campaign.sol\":6222:6230  campaign */\n      dup1\n        /* \"Campaign.sol\":6222:6238  campaign.endTime */\n      0xffffffffffffffffffffffffffffffffffffffff\n      and\n      0x3197cbb6\n        /* \"Campaign.sol\":6222:6240  campaign.endTime() */\n      mload(0x40)\n      dup2\n      0xffffffff\n      and\n      0xe0\n      shl\n      dup2\n      mstore\n      0x04\n      add\n      0x20\n      mload(0x40)\n      dup1\n      dup4\n      sub\n      dup2\n      dup7\n      gas\n      staticcall\n      iszero\n      dup1\n      iszero\n      tag_42\n      jumpi\n      returndatacopy(0x00, 0x00, returndatasize)\n      revert(0x00, returndatasize)\n    tag_42:\n      pop\n      pop\n      pop\n      pop\n      mload(0x40)\n      returndatasize\n      not(0x1f)\n      0x1f\n      dup3\n      add\n      and\n      dup3\n      add\n      dup1\n      0x40\n      mstore\n      pop\n      dup2\n      add\n      swap1\n      tag_43\n      swap2\n      swap1\n      tag_44\n      jump\t// in\n    tag_43:\n        /* \"Campaign.sol\":6203:6218  block.timestamp */\n      timestamp\n        /* \"Campaign.sol\":6203:6240  block.timestamp >= campaign.endTime() */\n      lt\n      iszero\n        /* \"Campaign.sol\":6178:6240  !campaign.getStatus() && block.timestamp >= campaign.endTime() */\n    tag_40:\n        /* \"Campaign.sol\":6174:6311  if (!campaign.getStatus() && block.timestamp >= campaign.endTime()) {... */\n      iszero\n      tag_45\n      jumpi\n        /* \"Campaign.sol\":6261:6269  campaign */\n      dup1\n        /* \"Campaign.sol\":6261:6293  campaign.finalizeAuctionIfNeeded */\n      0xffffffffffffffffffffffffffffffffffffffff\n      and\n      0x976af615\n        /* \"Campaign.sol\":6261:6295  campaign.finalizeAuctionIfNeeded() */\n      mload(0x40)\n      dup2\n      0xffffffff\n      and\n      0xe0\n      shl\n      dup2\n      mstore\n      0x04\n      add\n      0x00\n      mload(0x40)\n      dup1\n      dup4\n      sub\n      dup2\n      0x00\n      dup8\n      dup1\n      extcodesize\n      iszero\n      dup1\n      iszero\n      tag_46\n      jumpi\n      revert(0x00, 0x00)\n    tag_46:\n      pop\n      gas\n      call\n      iszero\n      dup1\n      iszero\n      tag_48\n      jumpi\n      returndatacopy(0x00, 0x00, returndatasize)\n      revert(0x00, returndatasize)\n    tag_48:\n      pop\n      pop\n      pop\n      pop\n        /* \"Campaign.sol\":6174:6311  if (!campaign.getStatus() && block.timestamp >= campaign.endTime()) {... */\n    tag_45:\n        /* \"Campaign.sol\":6094:6322  {... */\n      pop\n        /* \"Campaign.sol\":6089:6092  i++ */\n      dup1\n      dup1\n      0x01\n      add\n      swap2\n      pop\n      pop\n        /* \"Campaign.sol\":6039:6322  for (uint256 i = 0; i < deployedCampaigns.length; i++) {... */\n      jump(tag_29)\n    tag_30:\n      pop\n        /* \"Campaign.sol\":5991:6329  function checkEndedAuctions() public {... */\n      jump\t// out\n        /* \"Campaign.sol\":5376:5821  function createCampaign(... */\n    tag_22:\n        /* \"Campaign.sol\":5575:5586  uint256 end */\n      0x00\n        /* \"Campaign.sol\":5605:5620  block.timestamp */\n      timestamp\n        /* \"Campaign.sol\":5594:5602  duration */\n      dup4\n        /* \"Campaign.sol\":5589:5591  60 */\n      0x3c\n        /* \"Campaign.sol\":5589:5602  60 * duration */\n      tag_50\n      swap2\n      swap1\n      tag_51\n      jump\t// in\n    tag_50:\n        /* \"Campaign.sol\":5589:5620  60 * duration + block.timestamp */\n      tag_52\n      swap2\n      swap1\n      tag_53\n      jump\t// in\n    tag_52:\n        /* \"Campaign.sol\":5575:5620  uint256 end = 60 * duration + block.timestamp */\n      swap1\n      pop\n        /* \"Campaign.sol\":5631:5650  address newCampaign */\n      0x00\n        /* \"Campaign.sol\":5688:5695  minimum */\n      dup7\n        /* \"Campaign.sol\":5697:5705  dataSell */\n      dup7\n        /* \"Campaign.sol\":5707:5715  dataDesc */\n      dup7\n        /* \"Campaign.sol\":5717:5727  msg.sender */\n      caller\n        /* \"Campaign.sol\":5729:5732  end */\n      dup6\n        /* \"Campaign.sol\":5734:5746  tokenAddress */\n      dup8\n        /* \"Campaign.sol\":5675:5747  new Campaign(minimum, dataSell, dataDesc, msg.sender, end, tokenAddress) */\n      mload(0x40)\n      tag_54\n      swap1\n      tag_55\n      jump\t// in\n    tag_54:\n      tag_56\n      swap7\n      swap6\n      swap5\n      swap4\n      swap3\n      swap2\n      swap1\n      tag_57\n      jump\t// in\n    tag_56:\n      mload(0x40)\n      dup1\n      swap2\n      sub\n      swap1\n      0x00\n      create\n      dup1\n      iszero\n      dup1\n      iszero\n      tag_58\n      jumpi\n      returndatacopy(0x00, 0x00, returndatasize)\n      revert(0x00, returndatasize)\n    tag_58:\n      pop\n        /* \"Campaign.sol\":5631:5758  address newCampaign = address(... */\n      swap1\n      pop\n        /* \"Campaign.sol\":5769:5786  deployedCampaigns */\n      0x00\n        /* \"Campaign.sol\":5800:5811  newCampaign */\n      dup2\n        /* \"Campaign.sol\":5769:5813  deployedCampaigns.push(payable(newCampaign)) */\n      swap1\n      dup1\n      0x01\n      dup2\n      sload\n      add\n      dup1\n      dup3\n      sstore\n      dup1\n      swap2\n      pop\n      pop\n      0x01\n      swap1\n      sub\n      swap1\n      0x00\n      mstore\n      keccak256(0x00, 0x20)\n      add\n      0x00\n      swap1\n      swap2\n      swap1\n      swap2\n      swap1\n      swap2\n      0x0100\n      exp\n      dup2\n      sload\n      dup2\n      0xffffffffffffffffffffffffffffffffffffffff\n      mul\n      not\n      and\n      swap1\n      dup4\n      0xffffffffffffffffffffffffffffffffffffffff\n      and\n      mul\n      or\n      swap1\n      sstore\n      pop\n        /* \"Campaign.sol\":5564:5821  {... */\n      pop\n      pop\n        /* \"Campaign.sol\":5376:5821  function createCampaign(... */\n      pop\n      pop\n      pop\n      pop\n      pop\n      jump\t// out\n    tag_55:\n      dataSize(sub_0)\n      dup1\n      dataOffset(sub_0)\n      dup4\n      codecopy\n      add\n      swap1\n      jump\t// out\n        /* \"#utility.yul\":7:82   */\n    tag_60:\n        /* \"#utility.yul\":40:46   */\n      0x00\n        /* \"#utility.yul\":73:75   */\n      0x40\n        /* \"#utility.yul\":67:76   */\n      mload\n        /* \"#utility.yul\":57:76   */\n      swap1\n      pop\n        /* \"#utility.yul\":7:82   */\n      swap1\n      jump\t// out\n        /* \"#utility.yul\":88:205   */\n    tag_61:\n        /* \"#utility.yul\":197:198   */\n      0x00\n        /* \"#utility.yul\":194:195   */\n      0x00\n        /* \"#utility.yul\":187:199   */\n      revert\n        /* \"#utility.yul\":211:328   */\n    tag_62:\n        /* \"#utility.yul\":320:321   */\n      0x00\n        /* \"#utility.yul\":317:318   */\n      0x00\n        /* \"#utility.yul\":310:322   */\n      revert\n        /* \"#utility.yul\":334:411   */\n    tag_63:\n        /* \"#utility.yul\":371:378   */\n      0x00\n        /* \"#utility.yul\":400:405   */\n      dup2\n        /* \"#utility.yul\":389:405   */\n      swap1\n      pop\n        /* \"#utility.yul\":334:411   */\n      swap2\n      swap1\n      pop\n      jump\t// out\n        /* \"#utility.yul\":417:539   */\n    tag_64:\n        /* \"#utility.yul\":490:514   */\n      tag_106\n        /* \"#utility.yul\":508:513   */\n      dup2\n        /* \"#utility.yul\":490:514   */\n      tag_63\n      jump\t// in\n    tag_106:\n        /* \"#utility.yul\":483:488   */\n      dup2\n        /* \"#utility.yul\":480:515   */\n      eq\n        /* \"#utility.yul\":470:533   */\n      tag_107\n      jumpi\n        /* \"#utility.yul\":529:530   */\n      0x00\n        /* \"#utility.yul\":526:527   */\n      0x00\n        /* \"#utility.yul\":519:531   */\n      revert\n        /* \"#utility.yul\":470:533   */\n    tag_107:\n        /* \"#utility.yul\":417:539   */\n      pop\n      jump\t// out\n        /* \"#utility.yul\":545:684   */\n    tag_65:\n        /* \"#utility.yul\":591:596   */\n      0x00\n        /* \"#utility.yul\":629:635   */\n      dup2\n        /* \"#utility.yul\":616:636   */\n      calldataload\n        /* \"#utility.yul\":607:636   */\n      swap1\n      pop\n        /* \"#utility.yul\":645:678   */\n      tag_109\n        /* \"#utility.yul\":672:677   */\n      dup2\n        /* \"#utility.yul\":645:678   */\n      tag_64\n      jump\t// in\n    tag_109:\n        /* \"#utility.yul\":545:684   */\n      swap3\n      swap2\n      pop\n      pop\n      jump\t// out\n        /* \"#utility.yul\":690:1019   */\n    tag_9:\n        /* \"#utility.yul\":749:755   */\n      0x00\n        /* \"#utility.yul\":798:800   */\n      0x20\n        /* \"#utility.yul\":786:795   */\n      dup3\n        /* \"#utility.yul\":777:784   */\n      dup5\n        /* \"#utility.yul\":773:796   */\n      sub\n        /* \"#utility.yul\":769:801   */\n      slt\n        /* \"#utility.yul\":766:885   */\n      iszero\n      tag_111\n      jumpi\n        /* \"#utility.yul\":804:883   */\n      tag_112\n      tag_61\n      jump\t// in\n    tag_112:\n        /* \"#utility.yul\":766:885   */\n    tag_111:\n        /* \"#utility.yul\":924:925   */\n      0x00\n        /* \"#utility.yul\":949:1002   */\n      tag_113\n        /* \"#utility.yul\":994:1001   */\n      dup5\n        /* \"#utility.yul\":985:991   */\n      dup3\n        /* \"#utility.yul\":974:983   */\n      dup6\n        /* \"#utility.yul\":970:992   */\n      add\n        /* \"#utility.yul\":949:1002   */\n      tag_65\n      jump\t// in\n    tag_113:\n        /* \"#utility.yul\":939:1002   */\n      swap2\n      pop\n        /* \"#utility.yul\":895:1012   */\n      pop\n        /* \"#utility.yul\":690:1019   */\n      swap3\n      swap2\n      pop\n      pop\n      jump\t// out\n        /* \"#utility.yul\":1025:1151   */\n    tag_66:\n        /* \"#utility.yul\":1062:1069   */\n      0x00\n        /* \"#utility.yul\":1102:1144   */\n      0xffffffffffffffffffffffffffffffffffffffff\n        /* \"#utility.yul\":1095:1100   */\n      dup3\n        /* \"#utility.yul\":1091:1145   */\n      and\n        /* \"#utility.yul\":1080:1145   */\n      swap1\n      pop\n        /* \"#utility.yul\":1025:1151   */\n      swap2\n      swap1\n      pop\n      jump\t// out\n        /* \"#utility.yul\":1157:1261   */\n    tag_67:\n        /* \"#utility.yul\":1202:1209   */\n      0x00\n        /* \"#utility.yul\":1231:1255   */\n      tag_116\n        /* \"#utility.yul\":1249:1254   */\n      dup3\n        /* \"#utility.yul\":1231:1255   */\n      tag_66\n      jump\t// in\n    tag_116:\n        /* \"#utility.yul\":1220:1255   */\n      swap1\n      pop\n        /* \"#utility.yul\":1157:1261   */\n      swap2\n      swap1\n      pop\n      jump\t// out\n        /* \"#utility.yul\":1267:1409   */\n    tag_68:\n        /* \"#utility.yul\":1370:1402   */\n      tag_118\n        /* \"#utility.yul\":1396:1401   */\n      dup2\n        /* \"#utility.yul\":1370:1402   */\n      tag_67\n      jump\t// in\n    tag_118:\n        /* \"#utility.yul\":1365:1368   */\n      dup3\n        /* \"#utility.yul\":1358:1403   */\n      mstore\n        /* \"#utility.yul\":1267:1409   */\n      pop\n      pop\n      jump\t// out\n        /* \"#utility.yul\":1415:1669   */\n    tag_12:\n        /* \"#utility.yul\":1524:1528   */\n      0x00\n        /* \"#utility.yul\":1562:1564   */\n      0x20\n        /* \"#utility.yul\":1551:1560   */\n      dup3\n        /* \"#utility.yul\":1547:1565   */\n      add\n        /* \"#utility.yul\":1539:1565   */\n      swap1\n      pop\n        /* \"#utility.yul\":1575:1662   */\n      tag_120\n        /* \"#utility.yul\":1659:1660   */\n      0x00\n        /* \"#utility.yul\":1648:1657   */\n      dup4\n        /* \"#utility.yul\":1644:1661   */\n      add\n        /* \"#utility.yul\":1635:1641   */\n      dup5\n        /* \"#utility.yul\":1575:1662   */\n      tag_68\n      jump\t// in\n    tag_120:\n        /* \"#utility.yul\":1415:1669   */\n      swap3\n      swap2\n      pop\n      pop\n      jump\t// out\n        /* \"#utility.yul\":1675:1797   */\n    tag_69:\n        /* \"#utility.yul\":1750:1756   */\n      0x00\n        /* \"#utility.yul\":1784:1789   */\n      dup2\n        /* \"#utility.yul\":1778:1790   */\n      mload\n        /* \"#utility.yul\":1768:1790   */\n      swap1\n      pop\n        /* \"#utility.yul\":1675:1797   */\n      swap2\n      swap1\n      pop\n      jump\t// out\n        /* \"#utility.yul\":1803:1995   */\n    tag_70:\n        /* \"#utility.yul\":1910:1921   */\n      0x00\n        /* \"#utility.yul\":1944:1950   */\n      dup3\n        /* \"#utility.yul\":1939:1942   */\n      dup3\n        /* \"#utility.yul\":1932:1951   */\n      mstore\n        /* \"#utility.yul\":1984:1988   */\n      0x20\n        /* \"#utility.yul\":1979:1982   */\n      dup3\n        /* \"#utility.yul\":1975:1989   */\n      add\n        /* \"#utility.yul\":1960:1989   */\n      swap1\n      pop\n        /* \"#utility.yul\":1803:1995   */\n      swap3\n      swap2\n      pop\n      pop\n      jump\t// out\n        /* \"#utility.yul\":2001:2141   */\n    tag_71:\n        /* \"#utility.yul\":2076:2080   */\n      0x00\n        /* \"#utility.yul\":2099:2102   */\n      dup2\n        /* \"#utility.yul\":2091:2102   */\n      swap1\n      pop\n        /* \"#utility.yul\":2129:2133   */\n      0x20\n        /* \"#utility.yul\":2124:2127   */\n      dup3\n        /* \"#utility.yul\":2120:2134   */\n      add\n        /* \"#utility.yul\":2112:2134   */\n      swap1\n      pop\n        /* \"#utility.yul\":2001:2141   */\n      swap2\n      swap1\n      pop\n      jump\t// out\n        /* \"#utility.yul\":2147:2279   */\n    tag_72:\n        /* \"#utility.yul\":2240:2272   */\n      tag_125\n        /* \"#utility.yul\":2266:2271   */\n      dup2\n        /* \"#utility.yul\":2240:2272   */\n      tag_67\n      jump\t// in\n    tag_125:\n        /* \"#utility.yul\":2235:2238   */\n      dup3\n        /* \"#utility.yul\":2228:2273   */\n      mstore\n        /* \"#utility.yul\":2147:2279   */\n      pop\n      pop\n      jump\t// out\n        /* \"#utility.yul\":2285:2496   */\n    tag_73:\n        /* \"#utility.yul\":2370:2380   */\n      0x00\n        /* \"#utility.yul\":2391:2453   */\n      tag_127\n        /* \"#utility.yul\":2449:2452   */\n      dup4\n        /* \"#utility.yul\":2441:2447   */\n      dup4\n        /* \"#utility.yul\":2391:2453   */\n      tag_72\n      jump\t// in\n    tag_127:\n        /* \"#utility.yul\":2485:2489   */\n      0x20\n        /* \"#utility.yul\":2480:2483   */\n      dup4\n        /* \"#utility.yul\":2476:2490   */\n      add\n        /* \"#utility.yul\":2462:2490   */\n      swap1\n      pop\n        /* \"#utility.yul\":2285:2496   */\n      swap3\n      swap2\n      pop\n      pop\n      jump\t// out\n        /* \"#utility.yul\":2502:2623   */\n    tag_74:\n        /* \"#utility.yul\":2580:2584   */\n      0x00\n        /* \"#utility.yul\":2612:2616   */\n      0x20\n        /* \"#utility.yul\":2607:2610   */\n      dup3\n        /* \"#utility.yul\":2603:2617   */\n      add\n        /* \"#utility.yul\":2595:2617   */\n      swap1\n      pop\n        /* \"#utility.yul\":2502:2623   */\n      swap2\n      swap1\n      pop\n      jump\t// out\n        /* \"#utility.yul\":2675:3471   */\n    tag_75:\n        /* \"#utility.yul\":2810:2813   */\n      0x00\n        /* \"#utility.yul\":2839:2901   */\n      tag_130\n        /* \"#utility.yul\":2895:2900   */\n      dup3\n        /* \"#utility.yul\":2839:2901   */\n      tag_69\n      jump\t// in\n    tag_130:\n        /* \"#utility.yul\":2917:3011   */\n      tag_131\n        /* \"#utility.yul\":3004:3010   */\n      dup2\n        /* \"#utility.yul\":2999:3002   */\n      dup6\n        /* \"#utility.yul\":2917:3011   */\n      tag_70\n      jump\t// in\n    tag_131:\n        /* \"#utility.yul\":2910:3011   */\n      swap4\n      pop\n        /* \"#utility.yul\":3035:3099   */\n      tag_132\n        /* \"#utility.yul\":3093:3098   */\n      dup4\n        /* \"#utility.yul\":3035:3099   */\n      tag_71\n      jump\t// in\n    tag_132:\n        /* \"#utility.yul\":3122:3129   */\n      dup1\n        /* \"#utility.yul\":3153:3154   */\n      0x00\n        /* \"#utility.yul\":3138:3446   */\n    tag_133:\n        /* \"#utility.yul\":3163:3169   */\n      dup4\n        /* \"#utility.yul\":3160:3161   */\n      dup2\n        /* \"#utility.yul\":3157:3170   */\n      lt\n        /* \"#utility.yul\":3138:3446   */\n      iszero\n      tag_135\n      jumpi\n        /* \"#utility.yul\":3239:3245   */\n      dup2\n        /* \"#utility.yul\":3233:3246   */\n      mload\n        /* \"#utility.yul\":3266:3345   */\n      tag_136\n        /* \"#utility.yul\":3341:3344   */\n      dup9\n        /* \"#utility.yul\":3326:3339   */\n      dup3\n        /* \"#utility.yul\":3266:3345   */\n      tag_73\n      jump\t// in\n    tag_136:\n        /* \"#utility.yul\":3259:3345   */\n      swap8\n      pop\n        /* \"#utility.yul\":3368:3436   */\n      tag_137\n        /* \"#utility.yul\":3429:3435   */\n      dup4\n        /* \"#utility.yul\":3368:3436   */\n      tag_74\n      jump\t// in\n    tag_137:\n        /* \"#utility.yul\":3358:3436   */\n      swap3\n      pop\n        /* \"#utility.yul\":3198:3446   */\n      pop\n        /* \"#utility.yul\":3185:3186   */\n      0x01\n        /* \"#utility.yul\":3182:3183   */\n      dup2\n        /* \"#utility.yul\":3178:3187   */\n      add\n        /* \"#utility.yul\":3173:3187   */\n      swap1\n      pop\n        /* \"#utility.yul\":3138:3446   */\n      jump(tag_133)\n    tag_135:\n        /* \"#utility.yul\":3142:3156   */\n      pop\n        /* \"#utility.yul\":3462:3465   */\n      dup6\n        /* \"#utility.yul\":3455:3465   */\n      swap4\n      pop\n        /* \"#utility.yul\":2815:3471   */\n      pop\n      pop\n      pop\n        /* \"#utility.yul\":2675:3471   */\n      swap3\n      swap2\n      pop\n      pop\n      jump\t// out\n        /* \"#utility.yul\":3477:3882   */\n    tag_16:\n        /* \"#utility.yul\":3636:3640   */\n      0x00\n        /* \"#utility.yul\":3674:3676   */\n      0x20\n        /* \"#utility.yul\":3663:3672   */\n      dup3\n        /* \"#utility.yul\":3659:3677   */\n      add\n        /* \"#utility.yul\":3651:3677   */\n      swap1\n      pop\n        /* \"#utility.yul\":3723:3732   */\n      dup2\n        /* \"#utility.yul\":3717:3721   */\n      dup2\n        /* \"#utility.yul\":3713:3733   */\n      sub\n        /* \"#utility.yul\":3709:3710   */\n      0x00\n        /* \"#utility.yul\":3698:3707   */\n      dup4\n        /* \"#utility.yul\":3694:3711   */\n      add\n        /* \"#utility.yul\":3687:3734   */\n      mstore\n        /* \"#utility.yul\":3751:3875   */\n      tag_139\n        /* \"#utility.yul\":3870:3874   */\n      dup2\n        /* \"#utility.yul\":3861:3867   */\n      dup5\n        /* \"#utility.yul\":3751:3875   */\n      tag_75\n      jump\t// in\n    tag_139:\n        /* \"#utility.yul\":3743:3875   */\n      swap1\n      pop\n        /* \"#utility.yul\":3477:3882   */\n      swap3\n      swap2\n      pop\n      pop\n      jump\t// out\n        /* \"#utility.yul\":3888:4005   */\n    tag_76:\n        /* \"#utility.yul\":3997:3998   */\n      0x00\n        /* \"#utility.yul\":3994:3995   */\n      0x00\n        /* \"#utility.yul\":3987:3999   */\n      revert\n        /* \"#utility.yul\":4011:4128   */\n    tag_77:\n        /* \"#utility.yul\":4120:4121   */\n      0x00\n        /* \"#utility.yul\":4117:4118   */\n      0x00\n        /* \"#utility.yul\":4110:4122   */\n      revert\n        /* \"#utility.yul\":4134:4236   */\n    tag_78:\n        /* \"#utility.yul\":4175:4181   */\n      0x00\n        /* \"#utility.yul\":4226:4228   */\n      0x1f\n        /* \"#utility.yul\":4222:4229   */\n      not\n        /* \"#utility.yul\":4217:4219   */\n      0x1f\n        /* \"#utility.yul\":4210:4215   */\n      dup4\n        /* \"#utility.yul\":4206:4220   */\n      add\n        /* \"#utility.yul\":4202:4230   */\n      and\n        /* \"#utility.yul\":4192:4230   */\n      swap1\n      pop\n        /* \"#utility.yul\":4134:4236   */\n      swap2\n      swap1\n      pop\n      jump\t// out\n        /* \"#utility.yul\":4242:4422   */\n    tag_79:\n        /* \"#utility.yul\":4290:4367   */\n      0x4e487b7100000000000000000000000000000000000000000000000000000000\n        /* \"#utility.yul\":4287:4288   */\n      0x00\n        /* \"#utility.yul\":4280:4368   */\n      mstore\n        /* \"#utility.yul\":4387:4391   */\n      0x41\n        /* \"#utility.yul\":4384:4385   */\n      0x04\n        /* \"#utility.yul\":4377:4392   */\n      mstore\n        /* \"#utility.yul\":4411:4415   */\n      0x24\n        /* \"#utility.yul\":4408:4409   */\n      0x00\n        /* \"#utility.yul\":4401:4416   */\n      revert\n        /* \"#utility.yul\":4428:4709   */\n    tag_80:\n        /* \"#utility.yul\":4511:4538   */\n      tag_145\n        /* \"#utility.yul\":4533:4537   */\n      dup3\n        /* \"#utility.yul\":4511:4538   */\n      tag_78\n      jump\t// in\n    tag_145:\n        /* \"#utility.yul\":4503:4509   */\n      dup2\n        /* \"#utility.yul\":4499:4539   */\n      add\n        /* \"#utility.yul\":4641:4647   */\n      dup2\n        /* \"#utility.yul\":4629:4639   */\n      dup2\n        /* \"#utility.yul\":4626:4648   */\n      lt\n        /* \"#utility.yul\":4605:4623   */\n      0xffffffffffffffff\n        /* \"#utility.yul\":4593:4603   */\n      dup3\n        /* \"#utility.yul\":4590:4624   */\n      gt\n        /* \"#utility.yul\":4587:4649   */\n      or\n        /* \"#utility.yul\":4584:4672   */\n      iszero\n      tag_146\n      jumpi\n        /* \"#utility.yul\":4652:4670   */\n      tag_147\n      tag_79\n      jump\t// in\n    tag_147:\n        /* \"#utility.yul\":4584:4672   */\n    tag_146:\n        /* \"#utility.yul\":4692:4702   */\n      dup1\n        /* \"#utility.yul\":4688:4690   */\n      0x40\n        /* \"#utility.yul\":4681:4703   */\n      mstore\n        /* \"#utility.yul\":4471:4709   */\n      pop\n        /* \"#utility.yul\":4428:4709   */\n      pop\n      pop\n      jump\t// out\n        /* \"#utility.yul\":4715:4844   */\n    tag_81:\n        /* \"#utility.yul\":4749:4755   */\n      0x00\n        /* \"#utility.yul\":4776:4796   */\n      tag_149\n      tag_60\n      jump\t// in\n    tag_149:\n        /* \"#utility.yul\":4766:4796   */\n      swap1\n      pop\n        /* \"#utility.yul\":4805:4838   */\n      tag_150\n        /* \"#utility.yul\":4833:4837   */\n      dup3\n        /* \"#utility.yul\":4825:4831   */\n      dup3\n        /* \"#utility.yul\":4805:4838   */\n      tag_80\n      jump\t// in\n    tag_150:\n        /* \"#utility.yul\":4715:4844   */\n      swap2\n      swap1\n      pop\n      jump\t// out\n        /* \"#utility.yul\":4850:5158   */\n    tag_82:\n        /* \"#utility.yul\":4912:4916   */\n      0x00\n        /* \"#utility.yul\":5002:5020   */\n      0xffffffffffffffff\n        /* \"#utility.yul\":4994:5000   */\n      dup3\n        /* \"#utility.yul\":4991:5021   */\n      gt\n        /* \"#utility.yul\":4988:5044   */\n      iszero\n      tag_152\n      jumpi\n        /* \"#utility.yul\":5024:5042   */\n      tag_153\n      tag_79\n      jump\t// in\n    tag_153:\n        /* \"#utility.yul\":4988:5044   */\n    tag_152:\n        /* \"#utility.yul\":5062:5091   */\n      tag_154\n        /* \"#utility.yul\":5084:5090   */\n      dup3\n        /* \"#utility.yul\":5062:5091   */\n      tag_78\n      jump\t// in\n    tag_154:\n        /* \"#utility.yul\":5054:5091   */\n      swap1\n      pop\n        /* \"#utility.yul\":5146:5150   */\n      0x20\n        /* \"#utility.yul\":5140:5144   */\n      dup2\n        /* \"#utility.yul\":5136:5151   */\n      add\n        /* \"#utility.yul\":5128:5151   */\n      swap1\n      pop\n        /* \"#utility.yul\":4850:5158   */\n      swap2\n      swap1\n      pop\n      jump\t// out\n        /* \"#utility.yul\":5164:5312   */\n    tag_83:\n        /* \"#utility.yul\":5262:5268   */\n      dup3\n        /* \"#utility.yul\":5257:5260   */\n      dup2\n        /* \"#utility.yul\":5252:5255   */\n      dup4\n        /* \"#utility.yul\":5239:5269   */\n      calldatacopy\n        /* \"#utility.yul\":5303:5304   */\n      0x00\n        /* \"#utility.yul\":5294:5300   */\n      dup4\n        /* \"#utility.yul\":5289:5292   */\n      dup4\n        /* \"#utility.yul\":5285:5301   */\n      add\n        /* \"#utility.yul\":5278:5305   */\n      mstore\n        /* \"#utility.yul\":5164:5312   */\n      pop\n      pop\n      pop\n      jump\t// out\n        /* \"#utility.yul\":5318:5743   */\n    tag_84:\n        /* \"#utility.yul\":5396:5401   */\n      0x00\n        /* \"#utility.yul\":5421:5487   */\n      tag_157\n        /* \"#utility.yul\":5437:5486   */\n      tag_158\n        /* \"#utility.yul\":5479:5485   */\n      dup5\n        /* \"#utility.yul\":5437:5486   */\n      tag_82\n      jump\t// in\n    tag_158:\n        /* \"#utility.yul\":5421:5487   */\n      tag_81\n      jump\t// in\n    tag_157:\n        /* \"#utility.yul\":5412:5487   */\n      swap1\n      pop\n        /* \"#utility.yul\":5510:5516   */\n      dup3\n        /* \"#utility.yul\":5503:5508   */\n      dup2\n        /* \"#utility.yul\":5496:5517   */\n      mstore\n        /* \"#utility.yul\":5548:5552   */\n      0x20\n        /* \"#utility.yul\":5541:5546   */\n      dup2\n        /* \"#utility.yul\":5537:5553   */\n      add\n        /* \"#utility.yul\":5586:5589   */\n      dup5\n        /* \"#utility.yul\":5577:5583   */\n      dup5\n        /* \"#utility.yul\":5572:5575   */\n      dup5\n        /* \"#utility.yul\":5568:5584   */\n      add\n        /* \"#utility.yul\":5565:5590   */\n      gt\n        /* \"#utility.yul\":5562:5674   */\n      iszero\n      tag_159\n      jumpi\n        /* \"#utility.yul\":5593:5672   */\n      tag_160\n      tag_77\n      jump\t// in\n    tag_160:\n        /* \"#utility.yul\":5562:5674   */\n    tag_159:\n        /* \"#utility.yul\":5683:5737   */\n      tag_161\n        /* \"#utility.yul\":5730:5736   */\n      dup5\n        /* \"#utility.yul\":5725:5728   */\n      dup3\n        /* \"#utility.yul\":5720:5723   */\n      dup6\n        /* \"#utility.yul\":5683:5737   */\n      tag_83\n      jump\t// in\n    tag_161:\n        /* \"#utility.yul\":5402:5743   */\n      pop\n        /* \"#utility.yul\":5318:5743   */\n      swap4\n      swap3\n      pop\n      pop\n      pop\n      jump\t// out\n        /* \"#utility.yul\":5763:6103   */\n    tag_85:\n        /* \"#utility.yul\":5819:5824   */\n      0x00\n        /* \"#utility.yul\":5868:5871   */\n      dup3\n        /* \"#utility.yul\":5861:5865   */\n      0x1f\n        /* \"#utility.yul\":5853:5859   */\n      dup4\n        /* \"#utility.yul\":5849:5866   */\n      add\n        /* \"#utility.yul\":5845:5872   */\n      slt\n        /* \"#utility.yul\":5835:5957   */\n      tag_163\n      jumpi\n        /* \"#utility.yul\":5876:5955   */\n      tag_164\n      tag_76\n      jump\t// in\n    tag_164:\n        /* \"#utility.yul\":5835:5957   */\n    tag_163:\n        /* \"#utility.yul\":5993:5999   */\n      dup2\n        /* \"#utility.yul\":5980:6000   */\n      calldataload\n        /* \"#utility.yul\":6018:6097   */\n      tag_165\n        /* \"#utility.yul\":6093:6096   */\n      dup5\n        /* \"#utility.yul\":6085:6091   */\n      dup3\n        /* \"#utility.yul\":6078:6082   */\n      0x20\n        /* \"#utility.yul\":6070:6076   */\n      dup7\n        /* \"#utility.yul\":6066:6083   */\n      add\n        /* \"#utility.yul\":6018:6097   */\n      tag_84\n      jump\t// in\n    tag_165:\n        /* \"#utility.yul\":6009:6097   */\n      swap2\n      pop\n        /* \"#utility.yul\":5825:6103   */\n      pop\n        /* \"#utility.yul\":5763:6103   */\n      swap3\n      swap2\n      pop\n      pop\n      jump\t// out\n        /* \"#utility.yul\":6109:6205   */\n    tag_86:\n        /* \"#utility.yul\":6146:6153   */\n      0x00\n        /* \"#utility.yul\":6175:6199   */\n      tag_167\n        /* \"#utility.yul\":6193:6198   */\n      dup3\n        /* \"#utility.yul\":6175:6199   */\n      tag_66\n      jump\t// in\n    tag_167:\n        /* \"#utility.yul\":6164:6199   */\n      swap1\n      pop\n        /* \"#utility.yul\":6109:6205   */\n      swap2\n      swap1\n      pop\n      jump\t// out\n        /* \"#utility.yul\":6211:6333   */\n    tag_87:\n        /* \"#utility.yul\":6284:6308   */\n      tag_169\n        /* \"#utility.yul\":6302:6307   */\n      dup2\n        /* \"#utility.yul\":6284:6308   */\n      tag_86\n      jump\t// in\n    tag_169:\n        /* \"#utility.yul\":6277:6282   */\n      dup2\n        /* \"#utility.yul\":6274:6309   */\n      eq\n        /* \"#utility.yul\":6264:6327   */\n      tag_170\n      jumpi\n        /* \"#utility.yul\":6323:6324   */\n      0x00\n        /* \"#utility.yul\":6320:6321   */\n      0x00\n        /* \"#utility.yul\":6313:6325   */\n      revert\n        /* \"#utility.yul\":6264:6327   */\n    tag_170:\n        /* \"#utility.yul\":6211:6333   */\n      pop\n      jump\t// out\n        /* \"#utility.yul\":6339:6478   */\n    tag_88:\n        /* \"#utility.yul\":6385:6390   */\n      0x00\n        /* \"#utility.yul\":6423:6429   */\n      dup2\n        /* \"#utility.yul\":6410:6430   */\n      calldataload\n        /* \"#utility.yul\":6401:6430   */\n      swap1\n      pop\n        /* \"#utility.yul\":6439:6472   */\n      tag_172\n        /* \"#utility.yul\":6466:6471   */\n      dup2\n        /* \"#utility.yul\":6439:6472   */\n      tag_87\n      jump\t// in\n    tag_172:\n        /* \"#utility.yul\":6339:6478   */\n      swap3\n      swap2\n      pop\n      pop\n      jump\t// out\n        /* \"#utility.yul\":6484:7755   */\n    tag_21:\n        /* \"#utility.yul\":6599:6605   */\n      0x00\n        /* \"#utility.yul\":6607:6613   */\n      0x00\n        /* \"#utility.yul\":6615:6621   */\n      0x00\n        /* \"#utility.yul\":6623:6629   */\n      0x00\n        /* \"#utility.yul\":6631:6637   */\n      0x00\n        /* \"#utility.yul\":6680:6683   */\n      0xa0\n        /* \"#utility.yul\":6668:6677   */\n      dup7\n        /* \"#utility.yul\":6659:6666   */\n      dup9\n        /* \"#utility.yul\":6655:6678   */\n      sub\n        /* \"#utility.yul\":6651:6684   */\n      slt\n        /* \"#utility.yul\":6648:6768   */\n      iszero\n      tag_174\n      jumpi\n        /* \"#utility.yul\":6687:6766   */\n      tag_175\n      tag_61\n      jump\t// in\n    tag_175:\n        /* \"#utility.yul\":6648:6768   */\n    tag_174:\n        /* \"#utility.yul\":6807:6808   */\n      0x00\n        /* \"#utility.yul\":6832:6885   */\n      tag_176\n        /* \"#utility.yul\":6877:6884   */\n      dup9\n        /* \"#utility.yul\":6868:6874   */\n      dup3\n        /* \"#utility.yul\":6857:6866   */\n      dup10\n        /* \"#utility.yul\":6853:6875   */\n      add\n        /* \"#utility.yul\":6832:6885   */\n      tag_65\n      jump\t// in\n    tag_176:\n        /* \"#utility.yul\":6822:6885   */\n      swap6\n      pop\n        /* \"#utility.yul\":6778:6895   */\n      pop\n        /* \"#utility.yul\":6962:6964   */\n      0x20\n        /* \"#utility.yul\":6951:6960   */\n      dup7\n        /* \"#utility.yul\":6947:6965   */\n      add\n        /* \"#utility.yul\":6934:6966   */\n      calldataload\n        /* \"#utility.yul\":6993:7011   */\n      0xffffffffffffffff\n        /* \"#utility.yul\":6985:6991   */\n      dup2\n        /* \"#utility.yul\":6982:7012   */\n      gt\n        /* \"#utility.yul\":6979:7096   */\n      iszero\n      tag_177\n      jumpi\n        /* \"#utility.yul\":7015:7094   */\n      tag_178\n      tag_62\n      jump\t// in\n    tag_178:\n        /* \"#utility.yul\":6979:7096   */\n    tag_177:\n        /* \"#utility.yul\":7120:7183   */\n      tag_179\n        /* \"#utility.yul\":7175:7182   */\n      dup9\n        /* \"#utility.yul\":7166:7172   */\n      dup3\n        /* \"#utility.yul\":7155:7164   */\n      dup10\n        /* \"#utility.yul\":7151:7173   */\n      add\n        /* \"#utility.yul\":7120:7183   */\n      tag_85\n      jump\t// in\n    tag_179:\n        /* \"#utility.yul\":7110:7183   */\n      swap5\n      pop\n        /* \"#utility.yul\":6905:7193   */\n      pop\n        /* \"#utility.yul\":7260:7262   */\n      0x40\n        /* \"#utility.yul\":7249:7258   */\n      dup7\n        /* \"#utility.yul\":7245:7263   */\n      add\n        /* \"#utility.yul\":7232:7264   */\n      calldataload\n        /* \"#utility.yul\":7291:7309   */\n      0xffffffffffffffff\n        /* \"#utility.yul\":7283:7289   */\n      dup2\n        /* \"#utility.yul\":7280:7310   */\n      gt\n        /* \"#utility.yul\":7277:7394   */\n      iszero\n      tag_180\n      jumpi\n        /* \"#utility.yul\":7313:7392   */\n      tag_181\n      tag_62\n      jump\t// in\n    tag_181:\n        /* \"#utility.yul\":7277:7394   */\n    tag_180:\n        /* \"#utility.yul\":7418:7481   */\n      tag_182\n        /* \"#utility.yul\":7473:7480   */\n      dup9\n        /* \"#utility.yul\":7464:7470   */\n      dup3\n        /* \"#utility.yul\":7453:7462   */\n      dup10\n        /* \"#utility.yul\":7449:7471   */\n      add\n        /* \"#utility.yul\":7418:7481   */\n      tag_85\n      jump\t// in\n    tag_182:\n        /* \"#utility.yul\":7408:7481   */\n      swap4\n      pop\n        /* \"#utility.yul\":7203:7491   */\n      pop\n        /* \"#utility.yul\":7530:7532   */\n      0x60\n        /* \"#utility.yul\":7556:7609   */\n      tag_183\n        /* \"#utility.yul\":7601:7608   */\n      dup9\n        /* \"#utility.yul\":7592:7598   */\n      dup3\n        /* \"#utility.yul\":7581:7590   */\n      dup10\n        /* \"#utility.yul\":7577:7599   */\n      add\n        /* \"#utility.yul\":7556:7609   */\n      tag_65\n      jump\t// in\n    tag_183:\n        /* \"#utility.yul\":7546:7609   */\n      swap3\n      pop\n        /* \"#utility.yul\":7501:7619   */\n      pop\n        /* \"#utility.yul\":7658:7661   */\n      0x80\n        /* \"#utility.yul\":7685:7738   */\n      tag_184\n        /* \"#utility.yul\":7730:7737   */\n      dup9\n        /* \"#utility.yul\":7721:7727   */\n      dup3\n        /* \"#utility.yul\":7710:7719   */\n      dup10\n        /* \"#utility.yul\":7706:7728   */\n      add\n        /* \"#utility.yul\":7685:7738   */\n      tag_88\n      jump\t// in\n    tag_184:\n        /* \"#utility.yul\":7675:7738   */\n      swap2\n      pop\n        /* \"#utility.yul\":7629:7748   */\n      pop\n        /* \"#utility.yul\":6484:7755   */\n      swap3\n      swap6\n      pop\n      swap3\n      swap6\n      swap1\n      swap4\n      pop\n      jump\t// out\n        /* \"#utility.yul\":7761:7941   */\n    tag_34:\n        /* \"#utility.yul\":7809:7886   */\n      0x4e487b7100000000000000000000000000000000000000000000000000000000\n        /* \"#utility.yul\":7806:7807   */\n      0x00\n        /* \"#utility.yul\":7799:7887   */\n      mstore\n        /* \"#utility.yul\":7906:7910   */\n      0x32\n        /* \"#utility.yul\":7903:7904   */\n      0x04\n        /* \"#utility.yul\":7896:7911   */\n      mstore\n        /* \"#utility.yul\":7930:7934   */\n      0x24\n        /* \"#utility.yul\":7927:7928   */\n      0x00\n        /* \"#utility.yul\":7920:7935   */\n      revert\n        /* \"#utility.yul\":7947:8037   */\n    tag_89:\n        /* \"#utility.yul\":7981:7988   */\n      0x00\n        /* \"#utility.yul\":8024:8029   */\n      dup2\n        /* \"#utility.yul\":8017:8030   */\n      iszero\n        /* \"#utility.yul\":8010:8031   */\n      iszero\n        /* \"#utility.yul\":7999:8031   */\n      swap1\n      pop\n        /* \"#utility.yul\":7947:8037   */\n      swap2\n      swap1\n      pop\n      jump\t// out\n        /* \"#utility.yul\":8043:8159   */\n    tag_90:\n        /* \"#utility.yul\":8113:8134   */\n      tag_188\n        /* \"#utility.yul\":8128:8133   */\n      dup2\n        /* \"#utility.yul\":8113:8134   */\n      tag_89\n      jump\t// in\n    tag_188:\n        /* \"#utility.yul\":8106:8111   */\n      dup2\n        /* \"#utility.yul\":8103:8135   */\n      eq\n        /* \"#utility.yul\":8093:8153   */\n      tag_189\n      jumpi\n        /* \"#utility.yul\":8149:8150   */\n      0x00\n        /* \"#utility.yul\":8146:8147   */\n      0x00\n        /* \"#utility.yul\":8139:8151   */\n      revert\n        /* \"#utility.yul\":8093:8153   */\n    tag_189:\n        /* \"#utility.yul\":8043:8159   */\n      pop\n      jump\t// out\n        /* \"#utility.yul\":8165:8302   */\n    tag_91:\n        /* \"#utility.yul\":8219:8224   */\n      0x00\n        /* \"#utility.yul\":8250:8256   */\n      dup2\n        /* \"#utility.yul\":8244:8257   */\n      mload\n        /* \"#utility.yul\":8235:8257   */\n      swap1\n      pop\n        /* \"#utility.yul\":8266:8296   */\n      tag_191\n        /* \"#utility.yul\":8290:8295   */\n      dup2\n        /* \"#utility.yul\":8266:8296   */\n      tag_90\n      jump\t// in\n    tag_191:\n        /* \"#utility.yul\":8165:8302   */\n      swap3\n      swap2\n      pop\n      pop\n      jump\t// out\n        /* \"#utility.yul\":8308:8653   */\n    tag_39:\n        /* \"#utility.yul\":8375:8381   */\n      0x00\n        /* \"#utility.yul\":8424:8426   */\n      0x20\n        /* \"#utility.yul\":8412:8421   */\n      dup3\n        /* \"#utility.yul\":8403:8410   */\n      dup5\n        /* \"#utility.yul\":8399:8422   */\n      sub\n        /* \"#utility.yul\":8395:8427   */\n      slt\n        /* \"#utility.yul\":8392:8511   */\n      iszero\n      tag_193\n      jumpi\n        /* \"#utility.yul\":8430:8509   */\n      tag_194\n      tag_61\n      jump\t// in\n    tag_194:\n        /* \"#utility.yul\":8392:8511   */\n    tag_193:\n        /* \"#utility.yul\":8550:8551   */\n      0x00\n        /* \"#utility.yul\":8575:8636   */\n      tag_195\n        /* \"#utility.yul\":8628:8635   */\n      dup5\n        /* \"#utility.yul\":8619:8625   */\n      dup3\n        /* \"#utility.yul\":8608:8617   */\n      dup6\n        /* \"#utility.yul\":8604:8626   */\n      add\n        /* \"#utility.yul\":8575:8636   */\n      tag_91\n      jump\t// in\n    tag_195:\n        /* \"#utility.yul\":8565:8636   */\n      swap2\n      pop\n        /* \"#utility.yul\":8521:8646   */\n      pop\n        /* \"#utility.yul\":8308:8653   */\n      swap3\n      swap2\n      pop\n      pop\n      jump\t// out\n        /* \"#utility.yul\":8659:8802   */\n    tag_92:\n        /* \"#utility.yul\":8716:8721   */\n      0x00\n        /* \"#utility.yul\":8747:8753   */\n      dup2\n        /* \"#utility.yul\":8741:8754   */\n      mload\n        /* \"#utility.yul\":8732:8754   */\n      swap1\n      pop\n        /* \"#utility.yul\":8763:8796   */\n      tag_197\n        /* \"#utility.yul\":8790:8795   */\n      dup2\n        /* \"#utility.yul\":8763:8796   */\n      tag_64\n      jump\t// in\n    tag_197:\n        /* \"#utility.yul\":8659:8802   */\n      swap3\n      swap2\n      pop\n      pop\n      jump\t// out\n        /* \"#utility.yul\":8808:9159   */\n    tag_44:\n        /* \"#utility.yul\":8878:8884   */\n      0x00\n        /* \"#utility.yul\":8927:8929   */\n      0x20\n        /* \"#utility.yul\":8915:8924   */\n      dup3\n        /* \"#utility.yul\":8906:8913   */\n      dup5\n        /* \"#utility.yul\":8902:8925   */\n      sub\n        /* \"#utility.yul\":8898:8930   */\n      slt\n        /* \"#utility.yul\":8895:9014   */\n      iszero\n      tag_199\n      jumpi\n        /* \"#utility.yul\":8933:9012   */\n      tag_200\n      tag_61\n      jump\t// in\n    tag_200:\n        /* \"#utility.yul\":8895:9014   */\n    tag_199:\n        /* \"#utility.yul\":9053:9054   */\n      0x00\n        /* \"#utility.yul\":9078:9142   */\n      tag_201\n        /* \"#utility.yul\":9134:9141   */\n      dup5\n        /* \"#utility.yul\":9125:9131   */\n      dup3\n        /* \"#utility.yul\":9114:9123   */\n      dup6\n        /* \"#utility.yul\":9110:9132   */\n      add\n        /* \"#utility.yul\":9078:9142   */\n      tag_92\n      jump\t// in\n    tag_201:\n        /* \"#utility.yul\":9068:9142   */\n      swap2\n      pop\n        /* \"#utility.yul\":9024:9152   */\n      pop\n        /* \"#utility.yul\":8808:9159   */\n      swap3\n      swap2\n      pop\n      pop\n      jump\t// out\n        /* \"#utility.yul\":9165:9345   */\n    tag_93:\n        /* \"#utility.yul\":9213:9290   */\n      0x4e487b7100000000000000000000000000000000000000000000000000000000\n        /* \"#utility.yul\":9210:9211   */\n      0x00\n        /* \"#utility.yul\":9203:9291   */\n      mstore\n        /* \"#utility.yul\":9310:9314   */\n      0x11\n        /* \"#utility.yul\":9307:9308   */\n      0x04\n        /* \"#utility.yul\":9300:9315   */\n      mstore\n        /* \"#utility.yul\":9334:9338   */\n      0x24\n        /* \"#utility.yul\":9331:9332   */\n      0x00\n        /* \"#utility.yul\":9324:9339   */\n      revert\n        /* \"#utility.yul\":9351:9761   */\n    tag_51:\n        /* \"#utility.yul\":9391:9398   */\n      0x00\n        /* \"#utility.yul\":9414:9434   */\n      tag_204\n        /* \"#utility.yul\":9432:9433   */\n      dup3\n        /* \"#utility.yul\":9414:9434   */\n      tag_63\n      jump\t// in\n    tag_204:\n        /* \"#utility.yul\":9409:9434   */\n      swap2\n      pop\n        /* \"#utility.yul\":9448:9468   */\n      tag_205\n        /* \"#utility.yul\":9466:9467   */\n      dup4\n        /* \"#utility.yul\":9448:9468   */\n      tag_63\n      jump\t// in\n    tag_205:\n        /* \"#utility.yul\":9443:9468   */\n      swap3\n      pop\n        /* \"#utility.yul\":9503:9504   */\n      dup3\n        /* \"#utility.yul\":9500:9501   */\n      dup3\n        /* \"#utility.yul\":9496:9505   */\n      mul\n        /* \"#utility.yul\":9525:9555   */\n      tag_206\n        /* \"#utility.yul\":9543:9554   */\n      dup2\n        /* \"#utility.yul\":9525:9555   */\n      tag_63\n      jump\t// in\n    tag_206:\n        /* \"#utility.yul\":9514:9555   */\n      swap2\n      pop\n        /* \"#utility.yul\":9704:9705   */\n      dup3\n        /* \"#utility.yul\":9695:9702   */\n      dup3\n        /* \"#utility.yul\":9691:9706   */\n      div\n        /* \"#utility.yul\":9688:9689   */\n      dup5\n        /* \"#utility.yul\":9685:9707   */\n      eq\n        /* \"#utility.yul\":9665:9666   */\n      dup4\n        /* \"#utility.yul\":9658:9667   */\n      iszero\n        /* \"#utility.yul\":9638:9721   */\n      or\n        /* \"#utility.yul\":9615:9754   */\n      tag_207\n      jumpi\n        /* \"#utility.yul\":9734:9752   */\n      tag_208\n      tag_93\n      jump\t// in\n    tag_208:\n        /* \"#utility.yul\":9615:9754   */\n    tag_207:\n        /* \"#utility.yul\":9399:9761   */\n      pop\n        /* \"#utility.yul\":9351:9761   */\n      swap3\n      swap2\n      pop\n      pop\n      jump\t// out\n        /* \"#utility.yul\":9767:9958   */\n    tag_53:\n        /* \"#utility.yul\":9807:9810   */\n      0x00\n        /* \"#utility.yul\":9826:9846   */\n      tag_210\n        /* \"#utility.yul\":9844:9845   */\n      dup3\n        /* \"#utility.yul\":9826:9846   */\n      tag_63\n      jump\t// in\n    tag_210:\n        /* \"#utility.yul\":9821:9846   */\n      swap2\n      pop\n        /* \"#utility.yul\":9860:9880   */\n      tag_211\n        /* \"#utility.yul\":9878:9879   */\n      dup4\n        /* \"#utility.yul\":9860:9880   */\n      tag_63\n      jump\t// in\n    tag_211:\n        /* \"#utility.yul\":9855:9880   */\n      swap3\n      pop\n        /* \"#utility.yul\":9903:9904   */\n      dup3\n        /* \"#utility.yul\":9900:9901   */\n      dup3\n        /* \"#utility.yul\":9896:9905   */\n      add\n        /* \"#utility.yul\":9889:9905   */\n      swap1\n      pop\n        /* \"#utility.yul\":9924:9927   */\n      dup1\n        /* \"#utility.yul\":9921:9922   */\n      dup3\n        /* \"#utility.yul\":9918:9928   */\n      gt\n        /* \"#utility.yul\":9915:9951   */\n      iszero\n      tag_212\n      jumpi\n        /* \"#utility.yul\":9931:9949   */\n      tag_213\n      tag_93\n      jump\t// in\n    tag_213:\n        /* \"#utility.yul\":9915:9951   */\n    tag_212:\n        /* \"#utility.yul\":9767:9958   */\n      swap3\n      swap2\n      pop\n      pop\n      jump\t// out\n        /* \"#utility.yul\":9964:10082   */\n    tag_94:\n        /* \"#utility.yul\":10051:10075   */\n      tag_215\n        /* \"#utility.yul\":10069:10074   */\n      dup2\n        /* \"#utility.yul\":10051:10075   */\n      tag_63\n      jump\t// in\n    tag_215:\n        /* \"#utility.yul\":10046:10049   */\n      dup3\n        /* \"#utility.yul\":10039:10076   */\n      mstore\n        /* \"#utility.yul\":9964:10082   */\n      pop\n      pop\n      jump\t// out\n        /* \"#utility.yul\":10088:10187   */\n    tag_95:\n        /* \"#utility.yul\":10140:10146   */\n      0x00\n        /* \"#utility.yul\":10174:10179   */\n      dup2\n        /* \"#utility.yul\":10168:10180   */\n      mload\n        /* \"#utility.yul\":10158:10180   */\n      swap1\n      pop\n        /* \"#utility.yul\":10088:10187   */\n      swap2\n      swap1\n      pop\n      jump\t// out\n        /* \"#utility.yul\":10193:10362   */\n    tag_96:\n        /* \"#utility.yul\":10277:10288   */\n      0x00\n        /* \"#utility.yul\":10311:10317   */\n      dup3\n        /* \"#utility.yul\":10306:10309   */\n      dup3\n        /* \"#utility.yul\":10299:10318   */\n      mstore\n        /* \"#utility.yul\":10351:10355   */\n      0x20\n        /* \"#utility.yul\":10346:10349   */\n      dup3\n        /* \"#utility.yul\":10342:10356   */\n      add\n        /* \"#utility.yul\":10327:10356   */\n      swap1\n      pop\n        /* \"#utility.yul\":10193:10362   */\n      swap3\n      swap2\n      pop\n      pop\n      jump\t// out\n        /* \"#utility.yul\":10368:10507   */\n    tag_97:\n        /* \"#utility.yul\":10457:10463   */\n      dup3\n        /* \"#utility.yul\":10452:10455   */\n      dup2\n        /* \"#utility.yul\":10447:10450   */\n      dup4\n        /* \"#utility.yul\":10441:10464   */\n      mcopy\n        /* \"#utility.yul\":10498:10499   */\n      0x00\n        /* \"#utility.yul\":10489:10495   */\n      dup4\n        /* \"#utility.yul\":10484:10487   */\n      dup4\n        /* \"#utility.yul\":10480:10496   */\n      add\n        /* \"#utility.yul\":10473:10500   */\n      mstore\n        /* \"#utility.yul\":10368:10507   */\n      pop\n      pop\n      pop\n      jump\t// out\n        /* \"#utility.yul\":10513:10890   */\n    tag_98:\n        /* \"#utility.yul\":10601:10604   */\n      0x00\n        /* \"#utility.yul\":10629:10668   */\n      tag_220\n        /* \"#utility.yul\":10662:10667   */\n      dup3\n        /* \"#utility.yul\":10629:10668   */\n      tag_95\n      jump\t// in\n    tag_220:\n        /* \"#utility.yul\":10684:10755   */\n      tag_221\n        /* \"#utility.yul\":10748:10754   */\n      dup2\n        /* \"#utility.yul\":10743:10746   */\n      dup6\n        /* \"#utility.yul\":10684:10755   */\n      tag_96\n      jump\t// in\n    tag_221:\n        /* \"#utility.yul\":10677:10755   */\n      swap4\n      pop\n        /* \"#utility.yul\":10764:10829   */\n      tag_222\n        /* \"#utility.yul\":10822:10828   */\n      dup2\n        /* \"#utility.yul\":10817:10820   */\n      dup6\n        /* \"#utility.yul\":10810:10814   */\n      0x20\n        /* \"#utility.yul\":10803:10808   */\n      dup7\n        /* \"#utility.yul\":10799:10815   */\n      add\n        /* \"#utility.yul\":10764:10829   */\n      tag_97\n      jump\t// in\n    tag_222:\n        /* \"#utility.yul\":10854:10883   */\n      tag_223\n        /* \"#utility.yul\":10876:10882   */\n      dup2\n        /* \"#utility.yul\":10854:10883   */\n      tag_78\n      jump\t// in\n    tag_223:\n        /* \"#utility.yul\":10849:10852   */\n      dup5\n        /* \"#utility.yul\":10845:10884   */\n      add\n        /* \"#utility.yul\":10838:10884   */\n      swap2\n      pop\n        /* \"#utility.yul\":10605:10890   */\n      pop\n        /* \"#utility.yul\":10513:10890   */\n      swap3\n      swap2\n      pop\n      pop\n      jump\t// out\n        /* \"#utility.yul\":10896:11014   */\n    tag_99:\n        /* \"#utility.yul\":10983:11007   */\n      tag_225\n        /* \"#utility.yul\":11001:11006   */\n      dup2\n        /* \"#utility.yul\":10983:11007   */\n      tag_86\n      jump\t// in\n    tag_225:\n        /* \"#utility.yul\":10978:10981   */\n      dup3\n        /* \"#utility.yul\":10971:11008   */\n      mstore\n        /* \"#utility.yul\":10896:11014   */\n      pop\n      pop\n      jump\t// out\n        /* \"#utility.yul\":11020:11977   */\n    tag_57:\n        /* \"#utility.yul\":11293:11297   */\n      0x00\n        /* \"#utility.yul\":11331:11334   */\n      0xc0\n        /* \"#utility.yul\":11320:11329   */\n      dup3\n        /* \"#utility.yul\":11316:11335   */\n      add\n        /* \"#utility.yul\":11308:11335   */\n      swap1\n      pop\n        /* \"#utility.yul\":11345:11416   */\n      tag_227\n        /* \"#utility.yul\":11413:11414   */\n      0x00\n        /* \"#utility.yul\":11402:11411   */\n      dup4\n        /* \"#utility.yul\":11398:11415   */\n      add\n        /* \"#utility.yul\":11389:11395   */\n      dup10\n        /* \"#utility.yul\":11345:11416   */\n      tag_94\n      jump\t// in\n    tag_227:\n        /* \"#utility.yul\":11463:11472   */\n      dup2\n        /* \"#utility.yul\":11457:11461   */\n      dup2\n        /* \"#utility.yul\":11453:11473   */\n      sub\n        /* \"#utility.yul\":11448:11450   */\n      0x20\n        /* \"#utility.yul\":11437:11446   */\n      dup4\n        /* \"#utility.yul\":11433:11451   */\n      add\n        /* \"#utility.yul\":11426:11474   */\n      mstore\n        /* \"#utility.yul\":11491:11569   */\n      tag_228\n        /* \"#utility.yul\":11564:11568   */\n      dup2\n        /* \"#utility.yul\":11555:11561   */\n      dup9\n        /* \"#utility.yul\":11491:11569   */\n      tag_98\n      jump\t// in\n    tag_228:\n        /* \"#utility.yul\":11483:11569   */\n      swap1\n      pop\n        /* \"#utility.yul\":11616:11625   */\n      dup2\n        /* \"#utility.yul\":11610:11614   */\n      dup2\n        /* \"#utility.yul\":11606:11626   */\n      sub\n        /* \"#utility.yul\":11601:11603   */\n      0x40\n        /* \"#utility.yul\":11590:11599   */\n      dup4\n        /* \"#utility.yul\":11586:11604   */\n      add\n        /* \"#utility.yul\":11579:11627   */\n      mstore\n        /* \"#utility.yul\":11644:11722   */\n      tag_229\n        /* \"#utility.yul\":11717:11721   */\n      dup2\n        /* \"#utility.yul\":11708:11714   */\n      dup8\n        /* \"#utility.yul\":11644:11722   */\n      tag_98\n      jump\t// in\n    tag_229:\n        /* \"#utility.yul\":11636:11722   */\n      swap1\n      pop\n        /* \"#utility.yul\":11732:11804   */\n      tag_230\n        /* \"#utility.yul\":11800:11802   */\n      0x60\n        /* \"#utility.yul\":11789:11798   */\n      dup4\n        /* \"#utility.yul\":11785:11803   */\n      add\n        /* \"#utility.yul\":11776:11782   */\n      dup7\n        /* \"#utility.yul\":11732:11804   */\n      tag_99\n      jump\t// in\n    tag_230:\n        /* \"#utility.yul\":11814:11887   */\n      tag_231\n        /* \"#utility.yul\":11882:11885   */\n      0x80\n        /* \"#utility.yul\":11871:11880   */\n      dup4\n        /* \"#utility.yul\":11867:11886   */\n      add\n        /* \"#utility.yul\":11858:11864   */\n      dup6\n        /* \"#utility.yul\":11814:11887   */\n      tag_94\n      jump\t// in\n    tag_231:\n        /* \"#utility.yul\":11897:11970   */\n      tag_232\n        /* \"#utility.yul\":11965:11968   */\n      0xa0\n        /* \"#utility.yul\":11954:11963   */\n      dup4\n        /* \"#utility.yul\":11950:11969   */\n      add\n        /* \"#utility.yul\":11941:11947   */\n      dup5\n        /* \"#utility.yul\":11897:11970   */\n      tag_99\n      jump\t// in\n    tag_232:\n        /* \"#utility.yul\":11020:11977   */\n      swap8\n      swap7\n      pop\n      pop\n      pop\n      pop\n      pop\n      pop\n      pop\n      jump\t// out\n    stop\n\n    sub_0: assembly {\n            /* \"Campaign.sol\":625:5289  contract Campaign {... */\n          mstore(0x40, 0x80)\n            /* \"Campaign.sol\":1636:2072  constructor(... */\n          callvalue\n          dup1\n          iszero\n          tag_1\n          jumpi\n          revert(0x00, 0x00)\n        tag_1:\n          pop\n          mload(0x40)\n          sub(codesize, bytecodeSize)\n          dup1\n          bytecodeSize\n          dup4\n          codecopy\n          dup2\n          dup2\n          add\n          0x40\n          mstore\n          dup2\n          add\n          swap1\n          tag_2\n          swap2\n          swap1\n          tag_3\n          jump\t// in\n        tag_2:\n            /* \"Campaign.sol\":1854:1861  creator */\n          dup3\n            /* \"Campaign.sol\":1844:1851  manager */\n          0x00\n          0x00\n            /* \"Campaign.sol\":1844:1861  manager = creator */\n          0x0100\n          exp\n          dup2\n          sload\n          dup2\n          0xffffffffffffffffffffffffffffffffffffffff\n          mul\n          not\n          and\n          swap1\n          dup4\n          0xffffffffffffffffffffffffffffffffffffffff\n          and\n          mul\n          or\n          swap1\n          sstore\n          pop\n            /* \"Campaign.sol\":1894:1901  minimum */\n          dup6\n            /* \"Campaign.sol\":1872:1891  minimumContribution */\n          0x01\n            /* \"Campaign.sol\":1872:1901  minimumContribution = minimum */\n          dup2\n          swap1\n          sstore\n          pop\n            /* \"Campaign.sol\":1926:1934  dataSell */\n          dup5\n            /* \"Campaign.sol\":1912:1923  dataForSell */\n          0x02\n            /* \"Campaign.sol\":1912:1934  dataForSell = dataSell */\n          swap1\n          dup2\n          tag_6\n          swap2\n          swap1\n          tag_7\n          jump\t// in\n        tag_6:\n          pop\n            /* \"Campaign.sol\":1963:1971  dataDesc */\n          dup4\n            /* \"Campaign.sol\":1945:1960  dataDescription */\n          0x03\n            /* \"Campaign.sol\":1945:1971  dataDescription = dataDesc */\n          swap1\n          dup2\n          tag_8\n          swap2\n          swap1\n          tag_7\n          jump\t// in\n        tag_8:\n          pop\n            /* \"Campaign.sol\":1992:2000  duration */\n          dup2\n            /* \"Campaign.sol\":1982:1989  endTime */\n          0x0b\n            /* \"Campaign.sol\":1982:2000  endTime = duration */\n          dup2\n          swap1\n          sstore\n          pop\n            /* \"Campaign.sol\":2020:2025  false */\n          0x00\n            /* \"Campaign.sol\":2011:2017  closed */\n          0x0c\n          0x00\n            /* \"Campaign.sol\":2011:2025  closed = false */\n          0x0100\n          exp\n          dup2\n          sload\n          dup2\n          0xff\n          mul\n          not\n          and\n          swap1\n          dup4\n          iszero\n          iszero\n          mul\n          or\n          swap1\n          sstore\n          pop\n            /* \"Campaign.sol\":2051:2063  tokenAddress */\n          dup1\n            /* \"Campaign.sol\":2036:2041  token */\n          0x0c\n          0x01\n            /* \"Campaign.sol\":2036:2064  token = IERC20(tokenAddress) */\n          0x0100\n          exp\n          dup2\n          sload\n          dup2\n          0xffffffffffffffffffffffffffffffffffffffff\n          mul\n          not\n          and\n          swap1\n          dup4\n          0xffffffffffffffffffffffffffffffffffffffff\n          and\n          mul\n          or\n          swap1\n          sstore\n          pop\n            /* \"Campaign.sol\":1636:2072  constructor(... */\n          pop\n          pop\n          pop\n          pop\n          pop\n          pop\n            /* \"Campaign.sol\":625:5289  contract Campaign {... */\n          jump(tag_9)\n            /* \"#utility.yul\":7:82   */\n        tag_10:\n            /* \"#utility.yul\":40:46   */\n          0x00\n            /* \"#utility.yul\":73:75   */\n          0x40\n            /* \"#utility.yul\":67:76   */\n          mload\n            /* \"#utility.yul\":57:76   */\n          swap1\n          pop\n            /* \"#utility.yul\":7:82   */\n          swap1\n          jump\t// out\n            /* \"#utility.yul\":88:205   */\n        tag_11:\n            /* \"#utility.yul\":197:198   */\n          0x00\n            /* \"#utility.yul\":194:195   */\n          0x00\n            /* \"#utility.yul\":187:199   */\n          revert\n            /* \"#utility.yul\":211:328   */\n        tag_12:\n            /* \"#utility.yul\":320:321   */\n          0x00\n            /* \"#utility.yul\":317:318   */\n          0x00\n            /* \"#utility.yul\":310:322   */\n          revert\n            /* \"#utility.yul\":334:411   */\n        tag_13:\n            /* \"#utility.yul\":371:378   */\n          0x00\n            /* \"#utility.yul\":400:405   */\n          dup2\n            /* \"#utility.yul\":389:405   */\n          swap1\n          pop\n            /* \"#utility.yul\":334:411   */\n          swap2\n          swap1\n          pop\n          jump\t// out\n            /* \"#utility.yul\":417:539   */\n        tag_14:\n            /* \"#utility.yul\":490:514   */\n          tag_54\n            /* \"#utility.yul\":508:513   */\n          dup2\n            /* \"#utility.yul\":490:514   */\n          tag_13\n          jump\t// in\n        tag_54:\n            /* \"#utility.yul\":483:488   */\n          dup2\n            /* \"#utility.yul\":480:515   */\n          eq\n            /* \"#utility.yul\":470:533   */\n          tag_55\n          jumpi\n            /* \"#utility.yul\":529:530   */\n          0x00\n            /* \"#utility.yul\":526:527   */\n          0x00\n            /* \"#utility.yul\":519:531   */\n          revert\n            /* \"#utility.yul\":470:533   */\n        tag_55:\n            /* \"#utility.yul\":417:539   */\n          pop\n          jump\t// out\n            /* \"#utility.yul\":545:688   */\n        tag_15:\n            /* \"#utility.yul\":602:607   */\n          0x00\n            /* \"#utility.yul\":633:639   */\n          dup2\n            /* \"#utility.yul\":627:640   */\n          mload\n            /* \"#utility.yul\":618:640   */\n          swap1\n          pop\n            /* \"#utility.yul\":649:682   */\n          tag_57\n            /* \"#utility.yul\":676:681   */\n          dup2\n            /* \"#utility.yul\":649:682   */\n          tag_14\n          jump\t// in\n        tag_57:\n            /* \"#utility.yul\":545:688   */\n          swap3\n          swap2\n          pop\n          pop\n          jump\t// out\n            /* \"#utility.yul\":694:811   */\n        tag_16:\n            /* \"#utility.yul\":803:804   */\n          0x00\n            /* \"#utility.yul\":800:801   */\n          0x00\n            /* \"#utility.yul\":793:805   */\n          revert\n            /* \"#utility.yul\":817:934   */\n        tag_17:\n            /* \"#utility.yul\":926:927   */\n          0x00\n            /* \"#utility.yul\":923:924   */\n          0x00\n            /* \"#utility.yul\":916:928   */\n          revert\n            /* \"#utility.yul\":940:1042   */\n        tag_18:\n            /* \"#utility.yul\":981:987   */\n          0x00\n            /* \"#utility.yul\":1032:1034   */\n          0x1f\n            /* \"#utility.yul\":1028:1035   */\n          not\n            /* \"#utility.yul\":1023:1025   */\n          0x1f\n            /* \"#utility.yul\":1016:1021   */\n          dup4\n            /* \"#utility.yul\":1012:1026   */\n          add\n            /* \"#utility.yul\":1008:1036   */\n          and\n            /* \"#utility.yul\":998:1036   */\n          swap1\n          pop\n            /* \"#utility.yul\":940:1042   */\n          swap2\n          swap1\n          pop\n          jump\t// out\n            /* \"#utility.yul\":1048:1228   */\n        tag_19:\n            /* \"#utility.yul\":1096:1173   */\n          0x4e487b7100000000000000000000000000000000000000000000000000000000\n            /* \"#utility.yul\":1093:1094   */\n          0x00\n            /* \"#utility.yul\":1086:1174   */\n          mstore\n            /* \"#utility.yul\":1193:1197   */\n          0x41\n            /* \"#utility.yul\":1190:1191   */\n          0x04\n            /* \"#utility.yul\":1183:1198   */\n          mstore\n            /* \"#utility.yul\":1217:1221   */\n          0x24\n            /* \"#utility.yul\":1214:1215   */\n          0x00\n            /* \"#utility.yul\":1207:1222   */\n          revert\n            /* \"#utility.yul\":1234:1515   */\n        tag_20:\n            /* \"#utility.yul\":1317:1344   */\n          tag_63\n            /* \"#utility.yul\":1339:1343   */\n          dup3\n            /* \"#utility.yul\":1317:1344   */\n          tag_18\n          jump\t// in\n        tag_63:\n            /* \"#utility.yul\":1309:1315   */\n          dup2\n            /* \"#utility.yul\":1305:1345   */\n          add\n            /* \"#utility.yul\":1447:1453   */\n          dup2\n            /* \"#utility.yul\":1435:1445   */\n          dup2\n            /* \"#utility.yul\":1432:1454   */\n          lt\n            /* \"#utility.yul\":1411:1429   */\n          0xffffffffffffffff\n            /* \"#utility.yul\":1399:1409   */\n          dup3\n            /* \"#utility.yul\":1396:1430   */\n          gt\n            /* \"#utility.yul\":1393:1455   */\n          or\n            /* \"#utility.yul\":1390:1478   */\n          iszero\n          tag_64\n          jumpi\n            /* \"#utility.yul\":1458:1476   */\n          tag_65\n          tag_19\n          jump\t// in\n        tag_65:\n            /* \"#utility.yul\":1390:1478   */\n        tag_64:\n            /* \"#utility.yul\":1498:1508   */\n          dup1\n            /* \"#utility.yul\":1494:1496   */\n          0x40\n            /* \"#utility.yul\":1487:1509   */\n          mstore\n            /* \"#utility.yul\":1277:1515   */\n          pop\n            /* \"#utility.yul\":1234:1515   */\n          pop\n          pop\n          jump\t// out\n            /* \"#utility.yul\":1521:1650   */\n        tag_21:\n            /* \"#utility.yul\":1555:1561   */\n          0x00\n            /* \"#utility.yul\":1582:1602   */\n          tag_67\n          tag_10\n          jump\t// in\n        tag_67:\n            /* \"#utility.yul\":1572:1602   */\n          swap1\n          pop\n            /* \"#utility.yul\":1611:1644   */\n          tag_68\n            /* \"#utility.yul\":1639:1643   */\n          dup3\n            /* \"#utility.yul\":1631:1637   */\n          dup3\n            /* \"#utility.yul\":1611:1644   */\n          tag_20\n          jump\t// in\n        tag_68:\n            /* \"#utility.yul\":1521:1650   */\n          swap2\n          swap1\n          pop\n          jump\t// out\n            /* \"#utility.yul\":1656:1964   */\n        tag_22:\n            /* \"#utility.yul\":1718:1722   */\n          0x00\n            /* \"#utility.yul\":1808:1826   */\n          0xffffffffffffffff\n            /* \"#utility.yul\":1800:1806   */\n          dup3\n            /* \"#utility.yul\":1797:1827   */\n          gt\n            /* \"#utility.yul\":1794:1850   */\n          iszero\n          tag_70\n          jumpi\n            /* \"#utility.yul\":1830:1848   */\n          tag_71\n          tag_19\n          jump\t// in\n        tag_71:\n            /* \"#utility.yul\":1794:1850   */\n        tag_70:\n            /* \"#utility.yul\":1868:1897   */\n          tag_72\n            /* \"#utility.yul\":1890:1896   */\n          dup3\n            /* \"#utility.yul\":1868:1897   */\n          tag_18\n          jump\t// in\n        tag_72:\n            /* \"#utility.yul\":1860:1897   */\n          swap1\n          pop\n            /* \"#utility.yul\":1952:1956   */\n          0x20\n            /* \"#utility.yul\":1946:1950   */\n          dup2\n            /* \"#utility.yul\":1942:1957   */\n          add\n            /* \"#utility.yul\":1934:1957   */\n          swap1\n          pop\n            /* \"#utility.yul\":1656:1964   */\n          swap2\n          swap1\n          pop\n          jump\t// out\n            /* \"#utility.yul\":1970:2109   */\n        tag_23:\n            /* \"#utility.yul\":2059:2065   */\n          dup3\n            /* \"#utility.yul\":2054:2057   */\n          dup2\n            /* \"#utility.yul\":2049:2052   */\n          dup4\n            /* \"#utility.yul\":2043:2066   */\n          mcopy\n            /* \"#utility.yul\":2100:2101   */\n          0x00\n            /* \"#utility.yul\":2091:2097   */\n          dup4\n            /* \"#utility.yul\":2086:2089   */\n          dup4\n            /* \"#utility.yul\":2082:2098   */\n          add\n            /* \"#utility.yul\":2075:2102   */\n          mstore\n            /* \"#utility.yul\":1970:2109   */\n          pop\n          pop\n          pop\n          jump\t// out\n            /* \"#utility.yul\":2115:2549   */\n        tag_24:\n            /* \"#utility.yul\":2204:2209   */\n          0x00\n            /* \"#utility.yul\":2229:2295   */\n          tag_75\n            /* \"#utility.yul\":2245:2294   */\n          tag_76\n            /* \"#utility.yul\":2287:2293   */\n          dup5\n            /* \"#utility.yul\":2245:2294   */\n          tag_22\n          jump\t// in\n        tag_76:\n            /* \"#utility.yul\":2229:2295   */\n          tag_21\n          jump\t// in\n        tag_75:\n            /* \"#utility.yul\":2220:2295   */\n          swap1\n          pop\n            /* \"#utility.yul\":2318:2324   */\n          dup3\n            /* \"#utility.yul\":2311:2316   */\n          dup2\n            /* \"#utility.yul\":2304:2325   */\n          mstore\n            /* \"#utility.yul\":2356:2360   */\n          0x20\n            /* \"#utility.yul\":2349:2354   */\n          dup2\n            /* \"#utility.yul\":2345:2361   */\n          add\n            /* \"#utility.yul\":2394:2397   */\n          dup5\n            /* \"#utility.yul\":2385:2391   */\n          dup5\n            /* \"#utility.yul\":2380:2383   */\n          dup5\n            /* \"#utility.yul\":2376:2392   */\n          add\n            /* \"#utility.yul\":2373:2398   */\n          gt\n            /* \"#utility.yul\":2370:2482   */\n          iszero\n          tag_77\n          jumpi\n            /* \"#utility.yul\":2401:2480   */\n          tag_78\n          tag_17\n          jump\t// in\n        tag_78:\n            /* \"#utility.yul\":2370:2482   */\n        tag_77:\n            /* \"#utility.yul\":2491:2543   */\n          tag_79\n            /* \"#utility.yul\":2536:2542   */\n          dup5\n            /* \"#utility.yul\":2531:2534   */\n          dup3\n            /* \"#utility.yul\":2526:2529   */\n          dup6\n            /* \"#utility.yul\":2491:2543   */\n          tag_23\n          jump\t// in\n        tag_79:\n            /* \"#utility.yul\":2210:2549   */\n          pop\n            /* \"#utility.yul\":2115:2549   */\n          swap4\n          swap3\n          pop\n          pop\n          pop\n          jump\t// out\n            /* \"#utility.yul\":2569:2924   */\n        tag_25:\n            /* \"#utility.yul\":2636:2641   */\n          0x00\n            /* \"#utility.yul\":2685:2688   */\n          dup3\n            /* \"#utility.yul\":2678:2682   */\n          0x1f\n            /* \"#utility.yul\":2670:2676   */\n          dup4\n            /* \"#utility.yul\":2666:2683   */\n          add\n            /* \"#utility.yul\":2662:2689   */\n          slt\n            /* \"#utility.yul\":2652:2774   */\n          tag_81\n          jumpi\n            /* \"#utility.yul\":2693:2772   */\n          tag_82\n          tag_16\n          jump\t// in\n        tag_82:\n            /* \"#utility.yul\":2652:2774   */\n        tag_81:\n            /* \"#utility.yul\":2803:2809   */\n          dup2\n            /* \"#utility.yul\":2797:2810   */\n          mload\n            /* \"#utility.yul\":2828:2918   */\n          tag_83\n            /* \"#utility.yul\":2914:2917   */\n          dup5\n            /* \"#utility.yul\":2906:2912   */\n          dup3\n            /* \"#utility.yul\":2899:2903   */\n          0x20\n            /* \"#utility.yul\":2891:2897   */\n          dup7\n            /* \"#utility.yul\":2887:2904   */\n          add\n            /* \"#utility.yul\":2828:2918   */\n          tag_24\n          jump\t// in\n        tag_83:\n            /* \"#utility.yul\":2819:2918   */\n          swap2\n          pop\n            /* \"#utility.yul\":2642:2924   */\n          pop\n            /* \"#utility.yul\":2569:2924   */\n          swap3\n          swap2\n          pop\n          pop\n          jump\t// out\n            /* \"#utility.yul\":2930:3056   */\n        tag_26:\n            /* \"#utility.yul\":2967:2974   */\n          0x00\n            /* \"#utility.yul\":3007:3049   */\n          0xffffffffffffffffffffffffffffffffffffffff\n            /* \"#utility.yul\":3000:3005   */\n          dup3\n            /* \"#utility.yul\":2996:3050   */\n          and\n            /* \"#utility.yul\":2985:3050   */\n          swap1\n          pop\n            /* \"#utility.yul\":2930:3056   */\n          swap2\n          swap1\n          pop\n          jump\t// out\n            /* \"#utility.yul\":3062:3158   */\n        tag_27:\n            /* \"#utility.yul\":3099:3106   */\n          0x00\n            /* \"#utility.yul\":3128:3152   */\n          tag_86\n            /* \"#utility.yul\":3146:3151   */\n          dup3\n            /* \"#utility.yul\":3128:3152   */\n          tag_26\n          jump\t// in\n        tag_86:\n            /* \"#utility.yul\":3117:3152   */\n          swap1\n          pop\n            /* \"#utility.yul\":3062:3158   */\n          swap2\n          swap1\n          pop\n          jump\t// out\n            /* \"#utility.yul\":3164:3286   */\n        tag_28:\n            /* \"#utility.yul\":3237:3261   */\n          tag_88\n            /* \"#utility.yul\":3255:3260   */\n          dup2\n            /* \"#utility.yul\":3237:3261   */\n          tag_27\n          jump\t// in\n        tag_88:\n            /* \"#utility.yul\":3230:3235   */\n          dup2\n            /* \"#utility.yul\":3227:3262   */\n          eq\n            /* \"#utility.yul\":3217:3280   */\n          tag_89\n          jumpi\n            /* \"#utility.yul\":3276:3277   */\n          0x00\n            /* \"#utility.yul\":3273:3274   */\n          0x00\n            /* \"#utility.yul\":3266:3278   */\n          revert\n            /* \"#utility.yul\":3217:3280   */\n        tag_89:\n            /* \"#utility.yul\":3164:3286   */\n          pop\n          jump\t// out\n            /* \"#utility.yul\":3292:3435   */\n        tag_29:\n            /* \"#utility.yul\":3349:3354   */\n          0x00\n            /* \"#utility.yul\":3380:3386   */\n          dup2\n            /* \"#utility.yul\":3374:3387   */\n          mload\n            /* \"#utility.yul\":3365:3387   */\n          swap1\n          pop\n            /* \"#utility.yul\":3396:3429   */\n          tag_91\n            /* \"#utility.yul\":3423:3428   */\n          dup2\n            /* \"#utility.yul\":3396:3429   */\n          tag_28\n          jump\t// in\n        tag_91:\n            /* \"#utility.yul\":3292:3435   */\n          swap3\n          swap2\n          pop\n          pop\n          jump\t// out\n            /* \"#utility.yul\":3441:4921   */\n        tag_3:\n            /* \"#utility.yul\":3576:3582   */\n          0x00\n            /* \"#utility.yul\":3584:3590   */\n          0x00\n            /* \"#utility.yul\":3592:3598   */\n          0x00\n            /* \"#utility.yul\":3600:3606   */\n          0x00\n            /* \"#utility.yul\":3608:3614   */\n          0x00\n            /* \"#utility.yul\":3616:3622   */\n          0x00\n            /* \"#utility.yul\":3665:3668   */\n          0xc0\n            /* \"#utility.yul\":3653:3662   */\n          dup8\n            /* \"#utility.yul\":3644:3651   */\n          dup10\n            /* \"#utility.yul\":3640:3663   */\n          sub\n            /* \"#utility.yul\":3636:3669   */\n          slt\n            /* \"#utility.yul\":3633:3753   */\n          iszero\n          tag_93\n          jumpi\n            /* \"#utility.yul\":3672:3751   */\n          tag_94\n          tag_11\n          jump\t// in\n        tag_94:\n            /* \"#utility.yul\":3633:3753   */\n        tag_93:\n            /* \"#utility.yul\":3792:3793   */\n          0x00\n            /* \"#utility.yul\":3817:3881   */\n          tag_95\n            /* \"#utility.yul\":3873:3880   */\n          dup10\n            /* \"#utility.yul\":3864:3870   */\n          dup3\n            /* \"#utility.yul\":3853:3862   */\n          dup11\n            /* \"#utility.yul\":3849:3871   */\n          add\n            /* \"#utility.yul\":3817:3881   */\n          tag_15\n          jump\t// in\n        tag_95:\n            /* \"#utility.yul\":3807:3881   */\n          swap7\n          pop\n            /* \"#utility.yul\":3763:3891   */\n          pop\n            /* \"#utility.yul\":3951:3953   */\n          0x20\n            /* \"#utility.yul\":3940:3949   */\n          dup8\n            /* \"#utility.yul\":3936:3954   */\n          add\n            /* \"#utility.yul\":3930:3955   */\n          mload\n            /* \"#utility.yul\":3982:4000   */\n          0xffffffffffffffff\n            /* \"#utility.yul\":3974:3980   */\n          dup2\n            /* \"#utility.yul\":3971:4001   */\n          gt\n            /* \"#utility.yul\":3968:4085   */\n          iszero\n          tag_96\n          jumpi\n            /* \"#utility.yul\":4004:4083   */\n          tag_97\n          tag_12\n          jump\t// in\n        tag_97:\n            /* \"#utility.yul\":3968:4085   */\n        tag_96:\n            /* \"#utility.yul\":4109:4183   */\n          tag_98\n            /* \"#utility.yul\":4175:4182   */\n          dup10\n            /* \"#utility.yul\":4166:4172   */\n          dup3\n            /* \"#utility.yul\":4155:4164   */\n          dup11\n            /* \"#utility.yul\":4151:4173   */\n          add\n            /* \"#utility.yul\":4109:4183   */\n          tag_25\n          jump\t// in\n        tag_98:\n            /* \"#utility.yul\":4099:4183   */\n          swap6\n          pop\n            /* \"#utility.yul\":3901:4193   */\n          pop\n            /* \"#utility.yul\":4253:4255   */\n          0x40\n            /* \"#utility.yul\":4242:4251   */\n          dup8\n            /* \"#utility.yul\":4238:4256   */\n          add\n            /* \"#utility.yul\":4232:4257   */\n          mload\n            /* \"#utility.yul\":4284:4302   */\n          0xffffffffffffffff\n            /* \"#utility.yul\":4276:4282   */\n          dup2\n            /* \"#utility.yul\":4273:4303   */\n          gt\n            /* \"#utility.yul\":4270:4387   */\n          iszero\n          tag_99\n          jumpi\n            /* \"#utility.yul\":4306:4385   */\n          tag_100\n          tag_12\n          jump\t// in\n        tag_100:\n            /* \"#utility.yul\":4270:4387   */\n        tag_99:\n            /* \"#utility.yul\":4411:4485   */\n          tag_101\n            /* \"#utility.yul\":4477:4484   */\n          dup10\n            /* \"#utility.yul\":4468:4474   */\n          dup3\n            /* \"#utility.yul\":4457:4466   */\n          dup11\n            /* \"#utility.yul\":4453:4475   */\n          add\n            /* \"#utility.yul\":4411:4485   */\n          tag_25\n          jump\t// in\n        tag_101:\n            /* \"#utility.yul\":4401:4485   */\n          swap5\n          pop\n            /* \"#utility.yul\":4203:4495   */\n          pop\n            /* \"#utility.yul\":4534:4536   */\n          0x60\n            /* \"#utility.yul\":4560:4624   */\n          tag_102\n            /* \"#utility.yul\":4616:4623   */\n          dup10\n            /* \"#utility.yul\":4607:4613   */\n          dup3\n            /* \"#utility.yul\":4596:4605   */\n          dup11\n            /* \"#utility.yul\":4592:4614   */\n          add\n            /* \"#utility.yul\":4560:4624   */\n          tag_29\n          jump\t// in\n        tag_102:\n            /* \"#utility.yul\":4550:4624   */\n          swap4\n          pop\n            /* \"#utility.yul\":4505:4634   */\n          pop\n            /* \"#utility.yul\":4673:4676   */\n          0x80\n            /* \"#utility.yul\":4700:4764   */\n          tag_103\n            /* \"#utility.yul\":4756:4763   */\n          dup10\n            /* \"#utility.yul\":4747:4753   */\n          dup3\n            /* \"#utility.yul\":4736:4745   */\n          dup11\n            /* \"#utility.yul\":4732:4754   */\n          add\n            /* \"#utility.yul\":4700:4764   */\n          tag_15\n          jump\t// in\n        tag_103:\n            /* \"#utility.yul\":4690:4764   */\n          swap3\n          pop\n            /* \"#utility.yul\":4644:4774   */\n          pop\n            /* \"#utility.yul\":4813:4816   */\n          0xa0\n            /* \"#utility.yul\":4840:4904   */\n          tag_104\n            /* \"#utility.yul\":4896:4903   */\n          dup10\n            /* \"#utility.yul\":4887:4893   */\n          dup3\n            /* \"#utility.yul\":4876:4885   */\n          dup11\n            /* \"#utility.yul\":4872:4894   */\n          add\n            /* \"#utility.yul\":4840:4904   */\n          tag_29\n          jump\t// in\n        tag_104:\n            /* \"#utility.yul\":4830:4904   */\n          swap2\n          pop\n            /* \"#utility.yul\":4784:4914   */\n          pop\n            /* \"#utility.yul\":3441:4921   */\n          swap3\n          swap6\n          pop\n          swap3\n          swap6\n          pop\n          swap3\n          swap6\n          jump\t// out\n            /* \"#utility.yul\":4927:5026   */\n        tag_30:\n            /* \"#utility.yul\":4979:4985   */\n          0x00\n            /* \"#utility.yul\":5013:5018   */\n          dup2\n            /* \"#utility.yul\":5007:5019   */\n          mload\n            /* \"#utility.yul\":4997:5019   */\n          swap1\n          pop\n            /* \"#utility.yul\":4927:5026   */\n          swap2\n          swap1\n          pop\n          jump\t// out\n            /* \"#utility.yul\":5032:5212   */\n        tag_31:\n            /* \"#utility.yul\":5080:5157   */\n          0x4e487b7100000000000000000000000000000000000000000000000000000000\n            /* \"#utility.yul\":5077:5078   */\n          0x00\n            /* \"#utility.yul\":5070:5158   */\n          mstore\n            /* \"#utility.yul\":5177:5181   */\n          0x22\n            /* \"#utility.yul\":5174:5175   */\n          0x04\n            /* \"#utility.yul\":5167:5182   */\n          mstore\n            /* \"#utility.yul\":5201:5205   */\n          0x24\n            /* \"#utility.yul\":5198:5199   */\n          0x00\n            /* \"#utility.yul\":5191:5206   */\n          revert\n            /* \"#utility.yul\":5218:5538   */\n        tag_32:\n            /* \"#utility.yul\":5262:5268   */\n          0x00\n            /* \"#utility.yul\":5299:5300   */\n          0x02\n            /* \"#utility.yul\":5293:5297   */\n          dup3\n            /* \"#utility.yul\":5289:5301   */\n          div\n            /* \"#utility.yul\":5279:5301   */\n          swap1\n          pop\n            /* \"#utility.yul\":5346:5347   */\n          0x01\n            /* \"#utility.yul\":5340:5344   */\n          dup3\n            /* \"#utility.yul\":5336:5348   */\n          and\n            /* \"#utility.yul\":5367:5385   */\n          dup1\n            /* \"#utility.yul\":5357:5438   */\n          tag_108\n          jumpi\n            /* \"#utility.yul\":5423:5427   */\n          0x7f\n            /* \"#utility.yul\":5415:5421   */\n          dup3\n            /* \"#utility.yul\":5411:5428   */\n          and\n            /* \"#utility.yul\":5401:5428   */\n          swap2\n          pop\n            /* \"#utility.yul\":5357:5438   */\n        tag_108:\n            /* \"#utility.yul\":5485:5487   */\n          0x20\n            /* \"#utility.yul\":5477:5483   */\n          dup3\n            /* \"#utility.yul\":5474:5488   */\n          lt\n            /* \"#utility.yul\":5454:5472   */\n          dup2\n            /* \"#utility.yul\":5451:5489   */\n          sub\n            /* \"#utility.yul\":5448:5532   */\n          tag_109\n          jumpi\n            /* \"#utility.yul\":5504:5522   */\n          tag_110\n          tag_31\n          jump\t// in\n        tag_110:\n            /* \"#utility.yul\":5448:5532   */\n        tag_109:\n            /* \"#utility.yul\":5269:5538   */\n          pop\n            /* \"#utility.yul\":5218:5538   */\n          swap2\n          swap1\n          pop\n          jump\t// out\n            /* \"#utility.yul\":5544:5685   */\n        tag_33:\n            /* \"#utility.yul\":5593:5597   */\n          0x00\n            /* \"#utility.yul\":5616:5619   */\n          dup2\n            /* \"#utility.yul\":5608:5619   */\n          swap1\n          pop\n            /* \"#utility.yul\":5639:5642   */\n          dup2\n            /* \"#utility.yul\":5636:5637   */\n          0x00\n            /* \"#utility.yul\":5629:5643   */\n          mstore\n            /* \"#utility.yul\":5673:5677   */\n          0x20\n            /* \"#utility.yul\":5670:5671   */\n          0x00\n            /* \"#utility.yul\":5660:5678   */\n          keccak256\n            /* \"#utility.yul\":5652:5678   */\n          swap1\n          pop\n            /* \"#utility.yul\":5544:5685   */\n          swap2\n          swap1\n          pop\n          jump\t// out\n            /* \"#utility.yul\":5691:5784   */\n        tag_34:\n            /* \"#utility.yul\":5728:5734   */\n          0x00\n            /* \"#utility.yul\":5775:5777   */\n          0x20\n            /* \"#utility.yul\":5770:5772   */\n          0x1f\n            /* \"#utility.yul\":5763:5768   */\n          dup4\n            /* \"#utility.yul\":5759:5773   */\n          add\n            /* \"#utility.yul\":5755:5778   */\n          div\n            /* \"#utility.yul\":5745:5778   */\n          swap1\n          pop\n            /* \"#utility.yul\":5691:5784   */\n          swap2\n          swap1\n          pop\n          jump\t// out\n            /* \"#utility.yul\":5790:5897   */\n        tag_35:\n            /* \"#utility.yul\":5834:5842   */\n          0x00\n            /* \"#utility.yul\":5884:5889   */\n          dup3\n            /* \"#utility.yul\":5878:5882   */\n          dup3\n            /* \"#utility.yul\":5874:5890   */\n          shl\n            /* \"#utility.yul\":5853:5890   */\n          swap1\n          pop\n            /* \"#utility.yul\":5790:5897   */\n          swap3\n          swap2\n          pop\n          pop\n          jump\t// out\n            /* \"#utility.yul\":5903:6296   */\n        tag_36:\n            /* \"#utility.yul\":5972:5978   */\n          0x00\n            /* \"#utility.yul\":6022:6023   */\n          0x08\n            /* \"#utility.yul\":6010:6020   */\n          dup4\n            /* \"#utility.yul\":6006:6024   */\n          mul\n            /* \"#utility.yul\":6045:6142   */\n          tag_115\n            /* \"#utility.yul\":6075:6141   */\n          0xffffffffffffffffffffffffffffffffffffffffffffffffffffffffffffffff\n            /* \"#utility.yul\":6064:6073   */\n          dup3\n            /* \"#utility.yul\":6045:6142   */\n          tag_35\n          jump\t// in\n        tag_115:\n            /* \"#utility.yul\":6163:6202   */\n          tag_116\n            /* \"#utility.yul\":6193:6201   */\n          dup7\n            /* \"#utility.yul\":6182:6191   */\n          dup4\n            /* \"#utility.yul\":6163:6202   */\n          tag_35\n          jump\t// in\n        tag_116:\n            /* \"#utility.yul\":6151:6202   */\n          swap6\n          pop\n            /* \"#utility.yul\":6235:6239   */\n          dup1\n            /* \"#utility.yul\":6231:6240   */\n          not\n            /* \"#utility.yul\":6224:6229   */\n          dup5\n            /* \"#utility.yul\":6220:6241   */\n          and\n            /* \"#utility.yul\":6211:6241   */\n          swap4\n          pop\n            /* \"#utility.yul\":6284:6288   */\n          dup1\n            /* \"#utility.yul\":6274:6282   */\n          dup7\n            /* \"#utility.yul\":6270:6289   */\n          and\n            /* \"#utility.yul\":6263:6268   */\n          dup5\n            /* \"#utility.yul\":6260:6290   */\n          or\n            /* \"#utility.yul\":6250:6290   */\n          swap3\n          pop\n            /* \"#utility.yul\":5979:6296   */\n          pop\n          pop\n            /* \"#utility.yul\":5903:6296   */\n          swap4\n          swap3\n          pop\n          pop\n          pop\n          jump\t// out\n            /* \"#utility.yul\":6302:6362   */\n        tag_37:\n            /* \"#utility.yul\":6330:6333   */\n          0x00\n            /* \"#utility.yul\":6351:6356   */\n          dup2\n            /* \"#utility.yul\":6344:6356   */\n          swap1\n          pop\n            /* \"#utility.yul\":6302:6362   */\n          swap2\n          swap1\n          pop\n          jump\t// out\n            /* \"#utility.yul\":6368:6510   */\n        tag_38:\n            /* \"#utility.yul\":6418:6427   */\n          0x00\n            /* \"#utility.yul\":6451:6504   */\n          tag_119\n            /* \"#utility.yul\":6469:6503   */\n          tag_120\n            /* \"#utility.yul\":6478:6502   */\n          tag_121\n            /* \"#utility.yul\":6496:6501   */\n          dup5\n            /* \"#utility.yul\":6478:6502   */\n          tag_13\n          jump\t// in\n        tag_121:\n            /* \"#utility.yul\":6469:6503   */\n          tag_37\n          jump\t// in\n        tag_120:\n            /* \"#utility.yul\":6451:6504   */\n          tag_13\n          jump\t// in\n        tag_119:\n            /* \"#utility.yul\":6438:6504   */\n          swap1\n          pop\n            /* \"#utility.yul\":6368:6510   */\n          swap2\n          swap1\n          pop\n          jump\t// out\n            /* \"#utility.yul\":6516:6591   */\n        tag_39:\n            /* \"#utility.yul\":6559:6562   */\n          0x00\n            /* \"#utility.yul\":6580:6585   */\n          dup2\n            /* \"#utility.yul\":6573:6585   */\n          swap1\n          pop\n            /* \"#utility.yul\":6516:6591   */\n          swap2\n          swap1\n          pop\n          jump\t// out\n            /* \"#utility.yul\":6597:6866   */\n        tag_40:\n            /* \"#utility.yul\":6707:6746   */\n          tag_124\n            /* \"#utility.yul\":6738:6745   */\n          dup4\n            /* \"#utility.yul\":6707:6746   */\n          tag_38\n          jump\t// in\n        tag_124:\n            /* \"#utility.yul\":6768:6859   */\n          tag_125\n            /* \"#utility.yul\":6817:6858   */\n          tag_126\n            /* \"#utility.yul\":6841:6857   */\n          dup3\n            /* \"#utility.yul\":6817:6858   */\n          tag_39\n          jump\t// in\n        tag_126:\n            /* \"#utility.yul\":6809:6815   */\n          dup5\n            /* \"#utility.yul\":6802:6806   */\n          dup5\n            /* \"#utility.yul\":6796:6807   */\n          sload\n            /* \"#utility.yul\":6768:6859   */\n          tag_36\n          jump\t// in\n        tag_125:\n            /* \"#utility.yul\":6762:6766   */\n          dup3\n            /* \"#utility.yul\":6755:6860   */\n          sstore\n            /* \"#utility.yul\":6673:6866   */\n          pop\n            /* \"#utility.yul\":6597:6866   */\n          pop\n          pop\n          pop\n          jump\t// out\n            /* \"#utility.yul\":6872:6945   */\n        tag_41:\n            /* \"#utility.yul\":6917:6920   */\n          0x00\n            /* \"#utility.yul\":6938:6939   */\n          0x00\n            /* \"#utility.yul\":6931:6939   */\n          swap1\n          pop\n            /* \"#utility.yul\":6872:6945   */\n          swap1\n          jump\t// out\n            /* \"#utility.yul\":6951:7140   */\n        tag_42:\n            /* \"#utility.yul\":7028:7060   */\n          tag_129\n          tag_41\n          jump\t// in\n        tag_129:\n            /* \"#utility.yul\":7069:7134   */\n          tag_130\n            /* \"#utility.yul\":7127:7133   */\n          dup2\n            /* \"#utility.yul\":7119:7125   */\n          dup5\n            /* \"#utility.yul\":7113:7117   */\n          dup5\n            /* \"#utility.yul\":7069:7134   */\n          tag_40\n          jump\t// in\n        tag_130:\n            /* \"#utility.yul\":7004:7140   */\n          pop\n            /* \"#utility.yul\":6951:7140   */\n          pop\n          pop\n          jump\t// out\n            /* \"#utility.yul\":7146:7332   */\n        tag_43:\n            /* \"#utility.yul\":7206:7326   */\n        tag_132:\n            /* \"#utility.yul\":7223:7226   */\n          dup2\n            /* \"#utility.yul\":7216:7221   */\n          dup2\n            /* \"#utility.yul\":7213:7227   */\n          lt\n            /* \"#utility.yul\":7206:7326   */\n          iszero\n          tag_134\n          jumpi\n            /* \"#utility.yul\":7277:7316   */\n          tag_135\n            /* \"#utility.yul\":7314:7315   */\n          0x00\n            /* \"#utility.yul\":7307:7312   */\n          dup3\n            /* \"#utility.yul\":7277:7316   */\n          tag_42\n          jump\t// in\n        tag_135:\n            /* \"#utility.yul\":7250:7251   */\n          0x01\n            /* \"#utility.yul\":7243:7248   */\n          dup2\n            /* \"#utility.yul\":7239:7252   */\n          add\n            /* \"#utility.yul\":7230:7252   */\n          swap1\n          pop\n            /* \"#utility.yul\":7206:7326   */\n          jump(tag_132)\n        tag_134:\n            /* \"#utility.yul\":7146:7332   */\n          pop\n          pop\n          jump\t// out\n            /* \"#utility.yul\":7338:7881   */\n        tag_44:\n            /* \"#utility.yul\":7439:7441   */\n          0x1f\n            /* \"#utility.yul\":7434:7437   */\n          dup3\n            /* \"#utility.yul\":7431:7442   */\n          gt\n            /* \"#utility.yul\":7428:7874   */\n          iszero\n          tag_137\n          jumpi\n            /* \"#utility.yul\":7473:7511   */\n          tag_138\n            /* \"#utility.yul\":7505:7510   */\n          dup2\n            /* \"#utility.yul\":7473:7511   */\n          tag_33\n          jump\t// in\n        tag_138:\n            /* \"#utility.yul\":7557:7586   */\n          tag_139\n            /* \"#utility.yul\":7575:7585   */\n          dup5\n            /* \"#utility.yul\":7557:7586   */\n          tag_34\n          jump\t// in\n        tag_139:\n            /* \"#utility.yul\":7547:7555   */\n          dup2\n            /* \"#utility.yul\":7543:7587   */\n          add\n            /* \"#utility.yul\":7740:7742   */\n          0x20\n            /* \"#utility.yul\":7728:7738   */\n          dup6\n            /* \"#utility.yul\":7725:7743   */\n          lt\n            /* \"#utility.yul\":7722:7771   */\n          iszero\n          tag_140\n          jumpi\n            /* \"#utility.yul\":7761:7769   */\n          dup2\n            /* \"#utility.yul\":7746:7769   */\n          swap1\n          pop\n            /* \"#utility.yul\":7722:7771   */\n        tag_140:\n            /* \"#utility.yul\":7784:7864   */\n          tag_141\n            /* \"#utility.yul\":7840:7862   */\n          tag_142\n            /* \"#utility.yul\":7858:7861   */\n          dup6\n            /* \"#utility.yul\":7840:7862   */\n          tag_34\n          jump\t// in\n        tag_142:\n            /* \"#utility.yul\":7830:7838   */\n          dup4\n            /* \"#utility.yul\":7826:7863   */\n          add\n            /* \"#utility.yul\":7813:7824   */\n          dup3\n            /* \"#utility.yul\":7784:7864   */\n          tag_43\n          jump\t// in\n        tag_141:\n            /* \"#utility.yul\":7443:7874   */\n          pop\n          pop\n            /* \"#utility.yul\":7428:7874   */\n        tag_137:\n            /* \"#utility.yul\":7338:7881   */\n          pop\n          pop\n          pop\n          jump\t// out\n            /* \"#utility.yul\":7887:8004   */\n        tag_45:\n            /* \"#utility.yul\":7941:7949   */\n          0x00\n            /* \"#utility.yul\":7991:7996   */\n          dup3\n            /* \"#utility.yul\":7985:7989   */\n          dup3\n            /* \"#utility.yul\":7981:7997   */\n          shr\n            /* \"#utility.yul\":7960:7997   */\n          swap1\n          pop\n            /* \"#utility.yul\":7887:8004   */\n          swap3\n          swap2\n          pop\n          pop\n          jump\t// out\n            /* \"#utility.yul\":8010:8179   */\n        tag_46:\n            /* \"#utility.yul\":8054:8060   */\n          0x00\n            /* \"#utility.yul\":8087:8138   */\n          tag_145\n            /* \"#utility.yul\":8135:8136   */\n          0x00\n            /* \"#utility.yul\":8131:8137   */\n          not\n            /* \"#utility.yul\":8123:8128   */\n          dup5\n            /* \"#utility.yul\":8120:8121   */\n          0x08\n            /* \"#utility.yul\":8116:8129   */\n          mul\n            /* \"#utility.yul\":8087:8138   */\n          tag_45\n          jump\t// in\n        tag_145:\n            /* \"#utility.yul\":8083:8139   */\n          not\n            /* \"#utility.yul\":8168:8172   */\n          dup1\n            /* \"#utility.yul\":8162:8166   */\n          dup4\n            /* \"#utility.yul\":8158:8173   */\n          and\n            /* \"#utility.yul\":8148:8173   */\n          swap2\n          pop\n            /* \"#utility.yul\":8061:8179   */\n          pop\n            /* \"#utility.yul\":8010:8179   */\n          swap3\n          swap2\n          pop\n          pop\n          jump\t// out\n            /* \"#utility.yul\":8184:8479   */\n        tag_47:\n            /* \"#utility.yul\":8260:8264   */\n          0x00\n            /* \"#utility.yul\":8406:8435   */\n          tag_147\n            /* \"#utility.yul\":8431:8434   */\n          dup4\n            /* \"#utility.yul\":8425:8429   */\n          dup4\n            /* \"#utility.yul\":8406:8435   */\n          tag_46\n          jump\t// in\n        tag_147:\n            /* \"#utility.yul\":8398:8435   */\n          swap2\n          pop\n            /* \"#utility.yul\":8468:8471   */\n          dup3\n            /* \"#utility.yul\":8465:8466   */\n          0x02\n            /* \"#utility.yul\":8461:8472   */\n          mul\n            /* \"#utility.yul\":8455:8459   */\n          dup3\n            /* \"#utility.yul\":8452:8473   */\n          or\n            /* \"#utility.yul\":8444:8473   */\n          swap1\n          pop\n            /* \"#utility.yul\":8184:8479   */\n          swap3\n          swap2\n          pop\n          pop\n          jump\t// out\n            /* \"#utility.yul\":8484:9879   */\n        tag_7:\n            /* \"#utility.yul\":8601:8638   */\n          tag_149\n            /* \"#utility.yul\":8634:8637   */\n          dup3\n            /* \"#utility.yul\":8601:8638   */\n          tag_30\n          jump\t// in\n        tag_149:\n            /* \"#utility.yul\":8703:8721   */\n          0xffffffffffffffff\n            /* \"#utility.yul\":8695:8701   */\n          dup2\n            /* \"#utility.yul\":8692:8722   */\n          gt\n            /* \"#utility.yul\":8689:8745   */\n          iszero\n          tag_150\n          jumpi\n            /* \"#utility.yul\":8725:8743   */\n          tag_151\n          tag_19\n          jump\t// in\n        tag_151:\n            /* \"#utility.yul\":8689:8745   */\n        tag_150:\n            /* \"#utility.yul\":8769:8807   */\n          tag_152\n            /* \"#utility.yul\":8801:8805   */\n          dup3\n            /* \"#utility.yul\":8795:8806   */\n          sload\n            /* \"#utility.yul\":8769:8807   */\n          tag_32\n          jump\t// in\n        tag_152:\n            /* \"#utility.yul\":8854:8921   */\n          tag_153\n            /* \"#utility.yul\":8914:8920   */\n          dup3\n            /* \"#utility.yul\":8906:8912   */\n          dup3\n            /* \"#utility.yul\":8900:8904   */\n          dup6\n            /* \"#utility.yul\":8854:8921   */\n          tag_44\n          jump\t// in\n        tag_153:\n            /* \"#utility.yul\":8948:8949   */\n          0x00\n            /* \"#utility.yul\":8972:8976   */\n          0x20\n            /* \"#utility.yul\":8959:8976   */\n          swap1\n          pop\n            /* \"#utility.yul\":9004:9006   */\n          0x1f\n            /* \"#utility.yul\":8996:9002   */\n          dup4\n            /* \"#utility.yul\":8993:9007   */\n          gt\n            /* \"#utility.yul\":9021:9022   */\n          0x01\n            /* \"#utility.yul\":9016:9634   */\n          dup2\n          eq\n          tag_155\n          jumpi\n            /* \"#utility.yul\":9678:9679   */\n          0x00\n            /* \"#utility.yul\":9695:9701   */\n          dup5\n            /* \"#utility.yul\":9692:9769   */\n          iszero\n          tag_156\n          jumpi\n            /* \"#utility.yul\":9744:9753   */\n          dup3\n            /* \"#utility.yul\":9739:9742   */\n          dup8\n            /* \"#utility.yul\":9735:9754   */\n          add\n            /* \"#utility.yul\":9729:9755   */\n          mload\n            /* \"#utility.yul\":9720:9755   */\n          swap1\n          pop\n            /* \"#utility.yul\":9692:9769   */\n        tag_156:\n            /* \"#utility.yul\":9795:9862   */\n          tag_157\n            /* \"#utility.yul\":9855:9861   */\n          dup6\n            /* \"#utility.yul\":9848:9853   */\n          dup3\n            /* \"#utility.yul\":9795:9862   */\n          tag_47\n          jump\t// in\n        tag_157:\n            /* \"#utility.yul\":9789:9793   */\n          dup7\n            /* \"#utility.yul\":9782:9863   */\n          sstore\n            /* \"#utility.yul\":9651:9873   */\n          pop\n            /* \"#utility.yul\":8986:9873   */\n          jump(tag_154)\n            /* \"#utility.yul\":9016:9634   */\n        tag_155:\n            /* \"#utility.yul\":9068:9072   */\n          0x1f\n            /* \"#utility.yul\":9064:9073   */\n          not\n            /* \"#utility.yul\":9056:9062   */\n          dup5\n            /* \"#utility.yul\":9052:9074   */\n          and\n            /* \"#utility.yul\":9102:9139   */\n          tag_158\n            /* \"#utility.yul\":9134:9138   */\n          dup7\n            /* \"#utility.yul\":9102:9139   */\n          tag_33\n          jump\t// in\n        tag_158:\n            /* \"#utility.yul\":9161:9162   */\n          0x00\n            /* \"#utility.yul\":9175:9383   */\n        tag_159:\n            /* \"#utility.yul\":9189:9196   */\n          dup3\n            /* \"#utility.yul\":9186:9187   */\n          dup2\n            /* \"#utility.yul\":9183:9197   */\n          lt\n            /* \"#utility.yul\":9175:9383   */\n          iszero\n          tag_161\n          jumpi\n            /* \"#utility.yul\":9268:9277   */\n          dup5\n            /* \"#utility.yul\":9263:9266   */\n          dup10\n            /* \"#utility.yul\":9259:9278   */\n          add\n            /* \"#utility.yul\":9253:9279   */\n          mload\n            /* \"#utility.yul\":9245:9251   */\n          dup3\n            /* \"#utility.yul\":9238:9280   */\n          sstore\n            /* \"#utility.yul\":9319:9320   */\n          0x01\n            /* \"#utility.yul\":9311:9317   */\n          dup3\n            /* \"#utility.yul\":9307:9321   */\n          add\n            /* \"#utility.yul\":9297:9321   */\n          swap2\n          pop\n            /* \"#utility.yul\":9366:9368   */\n          0x20\n            /* \"#utility.yul\":9355:9364   */\n          dup6\n            /* \"#utility.yul\":9351:9369   */\n          add\n            /* \"#utility.yul\":9338:9369   */\n          swap5\n          pop\n            /* \"#utility.yul\":9212:9216   */\n          0x20\n            /* \"#utility.yul\":9209:9210   */\n          dup2\n            /* \"#utility.yul\":9205:9217   */\n          add\n            /* \"#utility.yul\":9200:9217   */\n          swap1\n          pop\n            /* \"#utility.yul\":9175:9383   */\n          jump(tag_159)\n        tag_161:\n            /* \"#utility.yul\":9411:9417   */\n          dup7\n            /* \"#utility.yul\":9402:9409   */\n          dup4\n            /* \"#utility.yul\":9399:9418   */\n          lt\n            /* \"#utility.yul\":9396:9575   */\n          iszero\n          tag_162\n          jumpi\n            /* \"#utility.yul\":9469:9478   */\n          dup5\n            /* \"#utility.yul\":9464:9467   */\n          dup10\n            /* \"#utility.yul\":9460:9479   */\n          add\n            /* \"#utility.yul\":9454:9480   */\n          mload\n            /* \"#utility.yul\":9512:9560   */\n          tag_163\n            /* \"#utility.yul\":9554:9558   */\n          0x1f\n            /* \"#utility.yul\":9546:9552   */\n          dup10\n            /* \"#utility.yul\":9542:9559   */\n          and\n            /* \"#utility.yul\":9531:9540   */\n          dup3\n            /* \"#utility.yul\":9512:9560   */\n          tag_46\n          jump\t// in\n        tag_163:\n            /* \"#utility.yul\":9504:9510   */\n          dup4\n            /* \"#utility.yul\":9497:9561   */\n          sstore\n            /* \"#utility.yul\":9419:9575   */\n          pop\n            /* \"#utility.yul\":9396:9575   */\n        tag_162:\n            /* \"#utility.yul\":9621:9622   */\n          0x01\n            /* \"#utility.yul\":9617:9618   */\n          0x02\n            /* \"#utility.yul\":9609:9615   */\n          dup9\n            /* \"#utility.yul\":9605:9619   */\n          mul\n            /* \"#utility.yul\":9601:9623   */\n          add\n            /* \"#utility.yul\":9595:9599   */\n          dup9\n            /* \"#utility.yul\":9588:9624   */\n          sstore\n            /* \"#utility.yul\":9023:9634   */\n          pop\n          pop\n          pop\n            /* \"#utility.yul\":8986:9873   */\n        tag_154:\n          pop\n            /* \"#utility.yul\":8576:9879   */\n          pop\n          pop\n          pop\n            /* \"#utility.yul\":8484:9879   */\n          pop\n          pop\n          jump\t// out\n            /* \"Campaign.sol\":625:5289  contract Campaign {... */\n        tag_9:\n          dataSize(sub_0)\n          dup1\n          dataOffset(sub_0)\n          0x00\n          codecopy\n          0x00\n          return\n        stop\n\n        sub_0: assembly {\n                /* \"Campaign.sol\":625:5289  contract Campaign {... */\n              mstore(0x40, 0x80)\n              callvalue\n              dup1\n              iszero\n              tag_1\n              jumpi\n              revert(0x00, 0x00)\n            tag_1:\n              pop\n              jumpi(tag_2, lt(calldatasize, 0x04))\n              shr(0xe0, calldataload(0x00))\n              dup1\n              0x83920e90\n              gt\n              tag_25\n              jumpi\n              dup1\n              0xa39fac12\n              gt\n              tag_26\n              jumpi\n              dup1\n              0xa39fac12\n              eq\n              tag_19\n              jumpi\n              dup1\n              0xc1cbbca7\n              eq\n              tag_20\n              jumpi\n              dup1\n              0xc8b342ab\n              eq\n              tag_21\n              jumpi\n              dup1\n              0xd57bde79\n              eq\n              tag_22\n              jumpi\n              dup1\n              0xedf26d9b\n              eq\n              tag_23\n              jumpi\n              dup1\n              0xfc0c546a\n              eq\n              tag_24\n              jumpi\n              jump(tag_2)\n            tag_26:\n              dup1\n              0x83920e90\n              eq\n              tag_14\n              jumpi\n              dup1\n              0x91f90157\n              eq\n              tag_15\n              jumpi\n              dup1\n              0x937e09b1\n              eq\n              tag_16\n              jumpi\n              dup1\n              0x976af615\n              eq\n              tag_17\n              jumpi\n              dup1\n              0x9ace38c2\n              eq\n              tag_18\n              jumpi\n              jump(tag_2)\n            tag_25:\n              dup1\n              0x4e69d560\n              gt\n              tag_27\n              jumpi\n              dup1\n              0x4e69d560\n              eq\n              tag_8\n              jumpi\n              dup1\n              0x58d65629\n              eq\n              tag_9\n              jumpi\n              dup1\n              0x597e1fb5\n              eq\n              tag_10\n              jumpi\n              dup1\n              0x5dc1d641\n              eq\n              tag_11\n              jumpi\n              dup1\n              0x7b87d856\n              eq\n              tag_12\n              jumpi\n              dup1\n              0x82fde093\n              eq\n              tag_13\n              jumpi\n              jump(tag_2)\n            tag_27:\n              dup1\n              0x0a144391\n              eq\n              tag_3\n              jumpi\n              dup1\n              0x3197cbb6\n              eq\n              tag_4\n              jumpi\n              dup1\n              0x3bc5de30\n              eq\n              tag_5\n              jumpi\n              dup1\n              0x4051ddac\n              eq\n              tag_6\n              jumpi\n              dup1\n              0x481c6a75\n              eq\n              tag_7\n              jumpi\n            tag_2:\n              revert(0x00, 0x00)\n                /* \"Campaign.sol\":1034:1075  mapping(address => bool) public approvers */\n            tag_3:\n              tag_28\n              0x04\n              dup1\n              calldatasize\n              sub\n              dup2\n              add\n              swap1\n              tag_29\n              swap2\n              swap1\n              tag_30\n              jump\t// in\n            tag_29:\n              tag_31\n              jump\t// in\n            tag_28:\n              mload(0x40)\n              tag_32\n              swap2\n              swap1\n              tag_33\n              jump\t// in\n            tag_32:\n              mload(0x40)\n              dup1\n              swap2\n              sub\n              swap1\n              return\n                /* \"Campaign.sol\":1310:1332  uint256 public endTime */\n            tag_4:\n              tag_34\n              tag_35\n              jump\t// in\n            tag_34:\n              mload(0x40)\n              tag_36\n              swap2\n              swap1\n              tag_37\n              jump\t// in\n            tag_36:\n              mload(0x40)\n              dup1\n              swap2\n              sub\n              swap1\n              return\n                /* \"Campaign.sol\":4348:4573  function getData() public view returns (string memory) {... */\n            tag_5:\n              tag_38\n              tag_39\n              jump\t// in\n            tag_38:\n              mload(0x40)\n              tag_40\n              swap2\n              swap1\n              tag_41\n              jump\t// in\n            tag_40:\n              mload(0x40)\n              dup1\n              swap2\n              sub\n              swap1\n              return\n                /* \"Campaign.sol\":4687:5286  function getSummary()... */\n            tag_6:\n              tag_42\n              tag_43\n              jump\t// in\n            tag_42:\n              mload(0x40)\n              tag_44\n              swap11\n              swap10\n              swap9\n              swap8\n              swap7\n              swap6\n              swap5\n              swap4\n              swap3\n              swap2\n              swap1\n              tag_45\n              jump\t// in\n            tag_44:\n              mload(0x40)\n              dup1\n              swap2\n              sub\n              swap1\n              return\n                /* \"Campaign.sol\":894:916  address public manager */\n            tag_7:\n              tag_46\n              tag_47\n              jump\t// in\n            tag_46:\n              mload(0x40)\n              tag_48\n              swap2\n              swap1\n              tag_49\n              jump\t// in\n            tag_48:\n              mload(0x40)\n              dup1\n              swap2\n              sub\n              swap1\n              return\n                /* \"Campaign.sol\":4034:4114  function getStatus() public view returns (bool) {... */\n            tag_8:\n              tag_50\n              tag_51\n              jump\t// in\n            tag_50:\n              mload(0x40)\n              tag_52\n              swap2\n              swap1\n              tag_33\n              jump\t// in\n            tag_52:\n              mload(0x40)\n              dup1\n              swap2\n              sub\n              swap1\n              return\n                /* \"Campaign.sol\":996:1025  string public dataDescription */\n            tag_9:\n              tag_53\n              tag_54\n              jump\t// in\n            tag_53:\n              mload(0x40)\n              tag_55\n              swap2\n              swap1\n              tag_41\n              jump\t// in\n            tag_55:\n              mload(0x40)\n              dup1\n              swap2\n              sub\n              swap1\n              return\n                /* \"Campaign.sol\":1339:1357  bool public closed */\n            tag_10:\n              tag_56\n              tag_57\n              jump\t// in\n            tag_56:\n              mload(0x40)\n              tag_58\n              swap2\n              swap1\n              tag_33\n              jump\t// in\n            tag_58:\n              mload(0x40)\n              dup1\n              swap2\n              sub\n              swap1\n              return\n                /* \"Campaign.sol\":1082:1131  mapping(address => uint256) public approversMoney */\n            tag_11:\n              tag_59\n              0x04\n              dup1\n              calldatasize\n              sub\n              dup2\n              add\n              swap1\n              tag_60\n              swap2\n              swap1\n              tag_30\n              jump\t// in\n            tag_60:\n              tag_61\n              jump\t// in\n            tag_59:\n              mload(0x40)\n              tag_62\n              swap2\n              swap1\n              tag_37\n              jump\t// in\n            tag_62:\n              mload(0x40)\n              dup1\n              swap2\n              sub\n              swap1\n              return\n                /* \"Campaign.sol\":964:989  string public dataForSell */\n            tag_12:\n              tag_63\n              tag_64\n              jump\t// in\n            tag_63:\n              mload(0x40)\n              tag_65\n              swap2\n              swap1\n              tag_41\n              jump\t// in\n            tag_65:\n              mload(0x40)\n              dup1\n              swap2\n              sub\n              swap1\n              return\n                /* \"Campaign.sol\":1138:1167  uint256 public approversCount */\n            tag_13:\n              tag_66\n              tag_67\n              jump\t// in\n            tag_66:\n              mload(0x40)\n              tag_68\n              swap2\n              swap1\n              tag_37\n              jump\t// in\n            tag_68:\n              mload(0x40)\n              dup1\n              swap2\n              sub\n              swap1\n              return\n                /* \"Campaign.sol\":4240:4340  function getTransactions() public view returns (Bid[] memory) {... */\n            tag_14:\n              tag_69\n              tag_70\n              jump\t// in\n            tag_69:\n              mload(0x40)\n              tag_71\n              swap2\n              swap1\n              tag_72\n              jump\t// in\n            tag_71:\n              mload(0x40)\n              dup1\n              swap2\n              sub\n              swap1\n              return\n                /* \"Campaign.sol\":1243:1271  address public highestBidder */\n            tag_15:\n              tag_73\n              tag_74\n              jump\t// in\n            tag_73:\n              mload(0x40)\n              tag_75\n              swap2\n              swap1\n              tag_49\n              jump\t// in\n            tag_75:\n              mload(0x40)\n              dup1\n              swap2\n              sub\n              swap1\n              return\n                /* \"Campaign.sol\":923:957  uint256 public minimumContribution */\n            tag_16:\n              tag_76\n              tag_77\n              jump\t// in\n            tag_76:\n              mload(0x40)\n              tag_78\n              swap2\n              swap1\n              tag_37\n              jump\t// in\n            tag_78:\n              mload(0x40)\n              dup1\n              swap2\n              sub\n              swap1\n              return\n                /* \"Campaign.sol\":3172:4026  function finalizeAuctionIfNeeded() public onlyAfterEnd {... */\n            tag_17:\n              tag_79\n              tag_80\n              jump\t// in\n            tag_79:\n              stop\n                /* \"Campaign.sol\":1209:1234  Bid[] public transactions */\n            tag_18:\n              tag_81\n              0x04\n              dup1\n              calldatasize\n              sub\n              dup2\n              add\n              swap1\n              tag_82\n              swap2\n              swap1\n              tag_83\n              jump\t// in\n            tag_82:\n              tag_84\n              jump\t// in\n            tag_81:\n              mload(0x40)\n              tag_85\n              swap4\n              swap3\n              swap2\n              swap1\n              tag_86\n              jump\t// in\n            tag_85:\n              mload(0x40)\n              dup1\n              swap2\n              sub\n              swap1\n              return\n                /* \"Campaign.sol\":4581:4679  function getAddresses() public view returns (address[] memory) {... */\n            tag_19:\n              tag_87\n              tag_88\n              jump\t// in\n            tag_87:\n              mload(0x40)\n              tag_89\n              swap2\n              swap1\n              tag_90\n              jump\t// in\n            tag_89:\n              mload(0x40)\n              dup1\n              swap2\n              sub\n              swap1\n              return\n                /* \"Campaign.sol\":2076:3164  function contribute(uint256 amount) public onlyBeforeEnd {... */\n            tag_20:\n              tag_91\n              0x04\n              dup1\n              calldatasize\n              sub\n              dup2\n              add\n              swap1\n              tag_92\n              swap2\n              swap1\n              tag_83\n              jump\t// in\n            tag_92:\n              tag_93\n              jump\t// in\n            tag_91:\n              stop\n                /* \"Campaign.sol\":4122:4232  function getBid(address bidder) public view returns (uint256) {... */\n            tag_21:\n              tag_94\n              0x04\n              dup1\n              calldatasize\n              sub\n              dup2\n              add\n              swap1\n              tag_95\n              swap2\n              swap1\n              tag_30\n              jump\t// in\n            tag_95:\n              tag_96\n              jump\t// in\n            tag_94:\n              mload(0x40)\n              tag_97\n              swap2\n              swap1\n              tag_37\n              jump\t// in\n            tag_97:\n              mload(0x40)\n              dup1\n              swap2\n              sub\n              swap1\n              return\n                /* \"Campaign.sol\":1278:1303  uint256 public highestBid */\n            tag_22:\n              tag_98\n              tag_99\n              jump\t// in\n            tag_98:\n              mload(0x40)\n              tag_100\n              swap2\n              swap1\n              tag_37\n              jump\t// in\n            tag_100:\n              mload(0x40)\n              dup1\n              swap2\n              sub\n              swap1\n              return\n                /* \"Campaign.sol\":1176:1202  address[] public addresses */\n            tag_23:\n              tag_101\n              0x04\n              dup1\n              calldatasize\n              sub\n              dup2\n              add\n              swap1\n              tag_102\n              swap2\n              swap1\n              tag_83\n              jump\t// in\n            tag_102:\n              tag_103\n              jump\t// in\n            tag_101:\n              mload(0x40)\n              tag_104\n              swap2\n              swap1\n              tag_49\n              jump\t// in\n            tag_104:\n              mload(0x40)\n              dup1\n              swap2\n              sub\n              swap1\n              return\n                /* \"Campaign.sol\":1368:1387  IERC20 public token */\n            tag_24:\n              tag_105\n              tag_106\n              jump\t// in\n            tag_105:\n              mload(0x40)\n              tag_107\n              swap2\n              swap1\n              tag_108\n              jump\t// in\n            tag_107:\n              mload(0x40)\n              dup1\n              swap2\n              sub\n              swap1\n              return\n                /* \"Campaign.sol\":1034:1075  mapping(address => bool) public approvers */\n            tag_31:\n              mstore(0x20, 0x04)\n              dup1\n              0x00\n              mstore\n              keccak256(0x00, 0x40)\n              0x00\n              swap2\n              pop\n              sload\n              swap1\n              0x0100\n              exp\n              swap1\n              div\n              0xff\n              and\n              dup2\n              jump\t// out\n                /* \"Campaign.sol\":1310:1332  uint256 public endTime */\n            tag_35:\n              sload(0x0b)\n              dup2\n              jump\t// out\n                /* \"Campaign.sol\":4348:4573  function getData() public view returns (string memory) {... */\n            tag_39:\n                /* \"Campaign.sol\":4388:4401  string memory */\n              0x60\n                /* \"Campaign.sol\":4422:4428  closed */\n              0x0c\n              0x00\n              swap1\n              sload\n              swap1\n              0x0100\n              exp\n              swap1\n              div\n              0xff\n              and\n                /* \"Campaign.sol\":4414:4454  require(closed, \"Auction not finalized\") */\n              tag_110\n              jumpi\n              mload(0x40)\n              0x08c379a000000000000000000000000000000000000000000000000000000000\n              dup2\n              mstore\n              0x04\n              add\n              tag_111\n              swap1\n              tag_112\n              jump\t// in\n            tag_111:\n              mload(0x40)\n              dup1\n              swap2\n              sub\n              swap1\n              revert\n            tag_110:\n                /* \"Campaign.sol\":4487:4500  highestBidder */\n              0x09\n              0x00\n              swap1\n              sload\n              swap1\n              0x0100\n              exp\n              swap1\n              div\n              0xffffffffffffffffffffffffffffffffffffffff\n              and\n                /* \"Campaign.sol\":4473:4500  msg.sender == highestBidder */\n              0xffffffffffffffffffffffffffffffffffffffff\n              and\n                /* \"Campaign.sol\":4473:4483  msg.sender */\n              caller\n                /* \"Campaign.sol\":4473:4500  msg.sender == highestBidder */\n              0xffffffffffffffffffffffffffffffffffffffff\n              and\n              eq\n                /* \"Campaign.sol\":4465:4536  require(msg.sender == highestBidder, \"Only winner can access the data\") */\n              tag_113\n              jumpi\n              mload(0x40)\n              0x08c379a000000000000000000000000000000000000000000000000000000000\n              dup2\n              mstore\n              0x04\n              add\n              tag_114\n              swap1\n              tag_115\n              jump\t// in\n            tag_114:\n              mload(0x40)\n              dup1\n              swap2\n              sub\n              swap1\n              revert\n            tag_113:\n                /* \"Campaign.sol\":4554:4565  dataForSell */\n              0x02\n                /* \"Campaign.sol\":4547:4565  return dataForSell */\n              dup1\n              sload\n              tag_116\n              swap1\n              tag_117\n              jump\t// in\n            tag_116:\n              dup1\n              0x1f\n              add\n              0x20\n              dup1\n              swap2\n              div\n              mul\n              0x20\n              add\n              mload(0x40)\n              swap1\n              dup2\n              add\n              0x40\n              mstore\n              dup1\n              swap3\n              swap2\n              swap1\n              dup2\n              dup2\n              mstore\n              0x20\n              add\n              dup3\n              dup1\n              sload\n              tag_118\n              swap1\n              tag_117\n              jump\t// in\n            tag_118:\n              dup1\n              iszero\n              tag_119\n              jumpi\n              dup1\n              0x1f\n              lt\n              tag_120\n              jumpi\n              0x0100\n              dup1\n              dup4\n              sload\n              div\n              mul\n              dup4\n              mstore\n              swap2\n              0x20\n              add\n              swap2\n              jump(tag_119)\n            tag_120:\n              dup3\n              add\n              swap2\n              swap1\n              0x00\n              mstore\n              keccak256(0x00, 0x20)\n              swap1\n            tag_121:\n              dup2\n              sload\n              dup2\n              mstore\n              swap1\n              0x01\n              add\n              swap1\n              0x20\n              add\n              dup1\n              dup4\n              gt\n              tag_121\n              jumpi\n              dup3\n              swap1\n              sub\n              0x1f\n              and\n              dup3\n              add\n              swap2\n            tag_119:\n              pop\n              pop\n              pop\n              pop\n              pop\n              swap1\n              pop\n                /* \"Campaign.sol\":4348:4573  function getData() public view returns (string memory) {... */\n              swap1\n              jump\t// out\n                /* \"Campaign.sol\":4687:5286  function getSummary()... */\n            tag_43:\n                /* \"Campaign.sol\":4771:4778  uint256 */\n              0x00\n                /* \"Campaign.sol\":4780:4787  uint256 */\n              0x00\n                /* \"Campaign.sol\":4789:4796  uint256 */\n              0x00\n                /* \"Campaign.sol\":4798:4805  address */\n              0x00\n                /* \"Campaign.sol\":4820:4827  uint256 */\n              0x00\n                /* \"Campaign.sol\":4829:4842  string memory */\n              0x60\n                /* \"Campaign.sol\":4844:4857  string memory */\n              dup1\n                /* \"Campaign.sol\":4872:4879  address */\n              0x00\n                /* \"Campaign.sol\":4881:4897  address[] memory */\n              0x60\n                /* \"Campaign.sol\":4899:4906  uint256 */\n              0x00\n                /* \"Campaign.sol\":4956:4975  minimumContribution */\n              sload(0x01)\n                /* \"Campaign.sol\":4990:4995  token */\n              0x0c\n              0x01\n              swap1\n              sload\n              swap1\n              0x0100\n              exp\n              swap1\n              div\n              0xffffffffffffffffffffffffffffffffffffffff\n              and\n                /* \"Campaign.sol\":4990:5005  token.balanceOf */\n              0xffffffffffffffffffffffffffffffffffffffff\n              and\n              0x70a08231\n                /* \"Campaign.sol\":5014:5018  this */\n              address\n                /* \"Campaign.sol\":4990:5020  token.balanceOf(address(this)) */\n              mload(0x40)\n              dup3\n              0xffffffff\n              and\n              0xe0\n              shl\n              dup2\n              mstore\n              0x04\n              add\n              tag_123\n              swap2\n              swap1\n              tag_49\n              jump\t// in\n            tag_123:\n              0x20\n              mload(0x40)\n              dup1\n              dup4\n              sub\n              dup2\n              dup7\n              gas\n              staticcall\n              iszero\n              dup1\n              iszero\n              tag_125\n              jumpi\n              returndatacopy(0x00, 0x00, returndatasize)\n              revert(0x00, returndatasize)\n            tag_125:\n              pop\n              pop\n              pop\n              pop\n              mload(0x40)\n              returndatasize\n              not(0x1f)\n              0x1f\n              dup3\n              add\n              and\n              dup3\n              add\n              dup1\n              0x40\n              mstore\n              pop\n              dup2\n              add\n              swap1\n              tag_126\n              swap2\n              swap1\n              tag_127\n              jump\t// in\n            tag_126:\n                /* \"Campaign.sol\":5076:5090  approversCount */\n              sload(0x06)\n                /* \"Campaign.sol\":5105:5112  manager */\n              0x00\n              0x00\n              swap1\n              sload\n              swap1\n              0x0100\n              exp\n              swap1\n              div\n              0xffffffffffffffffffffffffffffffffffffffff\n              and\n                /* \"Campaign.sol\":5127:5137  highestBid */\n              sload(0x0a)\n                /* \"Campaign.sol\":5152:5163  dataForSell */\n              0x02\n                /* \"Campaign.sol\":5178:5193  dataDescription */\n              0x03\n                /* \"Campaign.sol\":5208:5221  highestBidder */\n              0x09\n              0x00\n              swap1\n              sload\n              swap1\n              0x0100\n              exp\n              swap1\n              div\n              0xffffffffffffffffffffffffffffffffffffffff\n              and\n                /* \"Campaign.sol\":5236:5245  addresses */\n              0x07\n                /* \"Campaign.sol\":5260:5267  endTime */\n              sload(0x0b)\n                /* \"Campaign.sol\":4934:5278  return (... */\n              dup5\n              dup1\n              sload\n              tag_128\n              swap1\n              tag_117\n              jump\t// in\n            tag_128:\n              dup1\n              0x1f\n              add\n              0x20\n              dup1\n              swap2\n              div\n              mul\n              0x20\n              add\n              mload(0x40)\n              swap1\n              dup2\n              add\n              0x40\n              mstore\n              dup1\n              swap3\n              swap2\n              swap1\n              dup2\n              dup2\n              mstore\n              0x20\n              add\n              dup3\n              dup1\n              sload\n              tag_129\n              swap1\n              tag_117\n              jump\t// in\n            tag_129:\n              dup1\n              iszero\n              tag_130\n              jumpi\n              dup1\n              0x1f\n              lt\n              tag_131\n              jumpi\n              0x0100\n              dup1\n              dup4\n              sload\n              div\n              mul\n              dup4\n              mstore\n              swap2\n              0x20\n              add\n              swap2\n              jump(tag_130)\n            tag_131:\n              dup3\n              add\n              swap2\n              swap1\n              0x00\n              mstore\n              keccak256(0x00, 0x20)\n              swap1\n            tag_132:\n              dup2\n              sload\n              dup2\n              mstore\n              swap1\n              0x01\n              add\n              swap1\n              0x20\n              add\n              dup1\n              dup4\n              gt\n              tag_132\n              jumpi\n              dup3\n              swap1\n              sub\n              0x1f\n              and\n              dup3\n              add\n              swap2\n            tag_130:\n              pop\n              pop\n              pop\n              pop\n              pop\n              swap5\n              pop\n              dup4\n              dup1\n              sload\n              tag_133\n              swap1\n              tag_117\n              jump\t// in\n            tag_133:\n              dup1\n              0x1f\n              add\n              0x20\n              dup1\n              swap2\n              div\n              mul\n              0x20\n              add\n              mload(0x40)\n              swap1\n              dup2\n              add\n              0x40\n              mstore\n              dup1\n              swap3\n              swap2\n              swap1\n              dup2\n              dup2\n              mstore\n              0x20\n              add\n              dup3\n              dup1\n              sload\n              tag_134\n              swap1\n              tag_117\n              jump\t// in\n            tag_134:\n              dup1\n              iszero\n              tag_135\n              jumpi\n              dup1\n              0x1f\n              lt\n              tag_136\n              jumpi\n              0x0100\n              dup1\n              dup4\n              sload\n              div\n              mul\n              dup4\n              mstore\n              swap2\n              0x20\n              add\n              swap2\n              jump(tag_135)\n            tag_136:\n              dup3\n              add\n              swap2\n              swap1\n              0x00\n              mstore\n              keccak256(0x00, 0x20)\n              swap1\n            tag_137:\n              dup2\n              sload\n              dup2\n              mstore\n              swap1\n              0x01\n              add\n              swap1\n              0x20\n              add\n              dup1\n              dup4\n              gt\n              tag_137\n              jumpi\n              dup3\n              swap1\n              sub\n              0x1f\n              and\n              dup3\n              add\n              swap2\n            tag_135:\n              pop\n              pop\n              pop\n              pop\n              pop\n              swap4\n              pop\n              dup2\n              dup1\n              sload\n              dup1\n              0x20\n              mul\n              0x20\n              add\n              mload(0x40)\n              swap1\n              dup2\n              add\n              0x40\n              mstore\n              dup1\n              swap3\n              swap2\n              swap1\n              dup2\n              dup2\n              mstore\n              0x20\n              add\n              dup3\n              dup1\n              sload\n              dup1\n              iszero\n              tag_138\n              jumpi\n              0x20\n              mul\n              dup3\n              add\n              swap2\n              swap1\n              0x00\n              mstore\n              keccak256(0x00, 0x20)\n              swap1\n            tag_139:\n              dup2\n              0x00\n              swap1\n              sload\n              swap1\n              0x0100\n              exp\n              swap1\n              div\n              0xffffffffffffffffffffffffffffffffffffffff\n              and\n              0xffffffffffffffffffffffffffffffffffffffff\n              and\n              dup2\n              mstore\n              0x20\n              add\n              swap1\n              0x01\n              add\n              swap1\n              dup1\n              dup4\n              gt\n              tag_139\n              jumpi\n            tag_138:\n              pop\n              pop\n              pop\n              pop\n              pop\n              swap2\n              pop\n              swap10\n              pop\n              swap10\n              pop\n              swap10\n              pop\n              swap10\n              pop\n              swap10\n              pop\n              swap10\n              pop\n              swap10\n              pop\n              swap10\n              pop\n              swap10\n              pop\n              swap10\n              pop\n                /* \"Campaign.sol\":4687:5286  function getSummary()... */\n              swap1\n              swap2\n              swap3\n              swap4\n              swap5\n              swap6\n              swap7\n              swap8\n              swap9\n              swap10\n              jump\t// out\n                /* \"Campaign.sol\":894:916  address public manager */\n            tag_47:\n              0x00\n              0x00\n              swap1\n              sload\n              swap1\n              0x0100\n              exp\n              swap1\n              div\n              0xffffffffffffffffffffffffffffffffffffffff\n              and\n              dup2\n              jump\t// out\n                /* \"Campaign.sol\":4034:4114  function getStatus() public view returns (bool) {... */\n            tag_51:\n                /* \"Campaign.sol\":4076:4080  bool */\n              0x00\n                /* \"Campaign.sol\":4100:4106  closed */\n              0x0c\n              0x00\n              swap1\n              sload\n              swap1\n              0x0100\n              exp\n              swap1\n              div\n              0xff\n              and\n                /* \"Campaign.sol\":4093:4106  return closed */\n              swap1\n              pop\n                /* \"Campaign.sol\":4034:4114  function getStatus() public view returns (bool) {... */\n              swap1\n              jump\t// out\n                /* \"Campaign.sol\":996:1025  string public dataDescription */\n            tag_54:\n              0x03\n              dup1\n              sload\n              tag_141\n              swap1\n              tag_117\n              jump\t// in\n            tag_141:\n              dup1\n              0x1f\n              add\n              0x20\n              dup1\n              swap2\n              div\n              mul\n              0x20\n              add\n              mload(0x40)\n              swap1\n              dup2\n              add\n              0x40\n              mstore\n              dup1\n              swap3\n              swap2\n              swap1\n              dup2\n              dup2\n              mstore\n              0x20\n              add\n              dup3\n              dup1\n              sload\n              tag_142\n              swap1\n              tag_117\n              jump\t// in\n            tag_142:\n              dup1\n              iszero\n              tag_143\n              jumpi\n              dup1\n              0x1f\n              lt\n              tag_144\n              jumpi\n              0x0100\n              dup1\n              dup4\n              sload\n              div\n              mul\n              dup4\n              mstore\n              swap2\n              0x20\n              add\n              swap2\n              jump(tag_143)\n            tag_144:\n              dup3\n              add\n              swap2\n              swap1\n              0x00\n              mstore\n              keccak256(0x00, 0x20)\n              swap1\n            tag_145:\n              dup2\n              sload\n              dup2\n              mstore\n              swap1\n              0x01\n              add\n              swap1\n              0x20\n              add\n              dup1\n              dup4\n              gt\n              tag_145\n              jumpi\n              dup3\n              swap1\n              sub\n              0x1f\n              and\n              dup3\n              add\n              swap2\n            tag_143:\n              pop\n              pop\n              pop\n              pop\n              pop\n              dup2\n              jump\t// out\n                /* \"Campaign.sol\":1339:1357  bool public closed */\n            tag_57:\n              0x0c\n              0x00\n              swap1\n              sload\n              swap1\n              0x0100\n              exp\n              swap1\n              div\n              0xff\n              and\n              dup2\n              jump\t// out\n                /* \"Campaign.sol\":1082:1131  mapping(address => uint256) public approversMoney */\n            tag_61:\n              mstore(0x20, 0x05)\n              dup1\n              0x00\n              mstore\n              keccak256(0x00, 0x40)\n              0x00\n              swap2\n              pop\n              swap1\n              pop\n              sload\n              dup2\n              jump\t// out\n                /* \"Campaign.sol\":964:989  string public dataForSell */\n            tag_64:\n              0x02\n              dup1\n              sload\n              tag_146\n              swap1\n              tag_117\n              jump\t// in\n            tag_146:\n              dup1\n              0x1f\n              add\n              0x20\n              dup1\n              swap2\n              div\n              mul\n              0x20\n              add\n              mload(0x40)\n              swap1\n              dup2\n              add\n              0x40\n              mstore\n              dup1\n              swap3\n              swap2\n              swap1\n              dup2\n              dup2\n              mstore\n              0x20\n              add\n              dup3\n              dup1\n              sload\n              tag_147\n              swap1\n              tag_117\n              jump\t// in\n            tag_147:\n              dup1\n              iszero\n              tag_148\n              jumpi\n              dup1\n              0x1f\n              lt\n              tag_149\n              jumpi\n              0x0100\n              dup1\n              dup4\n              sload\n              div\n              mul\n              dup4\n              mstore\n              swap2\n              0x20\n              add\n              swap2\n              jump(tag_148)\n            tag_149:\n              dup3\n              add\n              swap2\n              swap1\n              0x00\n              mstore\n              keccak256(0x00, 0x20)\n              swap1\n            tag_150:\n              dup2\n              sload\n              dup2\n              mstore\n              swap1\n              0x01\n              add\n              swap1\n              0x20\n              add\n              dup1\n              dup4\n              gt\n              tag_150\n              jumpi\n              dup3\n              swap1\n              sub\n              0x1f\n              and\n              dup3\n              add\n              swap2\n            tag_148:\n              pop\n              pop\n              pop\n              pop\n              pop\n              dup2\n              jump\t// out\n                /* \"Campaign.sol\":1138:1167  uint256 public approversCount */\n            tag_67:\n              sload(0x06)\n              dup2\n              jump\t// out\n                /* \"Campaign.sol\":4240:4340  function getTransactions() public view returns (Bid[] memory) {... */\n            tag_70:\n                /* \"Campaign.sol\":4288:4300  Bid[] memory */\n              0x60\n                /* \"Campaign.sol\":4320:4332  transactions */\n              0x08\n                /* \"Campaign.sol\":4313:4332  return transactions */\n              dup1\n              sload\n              dup1\n              0x20\n              mul\n              0x20\n              add\n              mload(0x40)\n              swap1\n              dup2\n              add\n              0x40\n              mstore\n              dup1\n              swap3\n              swap2\n              swap1\n              dup2\n              dup2\n              mstore\n              0x20\n              add\n              0x00\n              swap1\n            tag_152:\n              dup3\n              dup3\n              lt\n              iszero\n              tag_153\n              jumpi\n              dup4\n              dup3\n              swap1\n              0x00\n              mstore\n              keccak256(0x00, 0x20)\n              swap1\n              0x03\n              mul\n              add\n              mload(0x40)\n              dup1\n              0x60\n              add\n              0x40\n              mstore\n              swap1\n              dup2\n              0x00\n              dup3\n              add\n              sload\n              dup2\n              mstore\n              0x20\n              add\n              0x01\n              dup3\n              add\n              sload\n              dup2\n              mstore\n              0x20\n              add\n              0x02\n              dup3\n              add\n              0x00\n              swap1\n              sload\n              swap1\n              0x0100\n              exp\n              swap1\n              div\n              0xffffffffffffffffffffffffffffffffffffffff\n              and\n              0xffffffffffffffffffffffffffffffffffffffff\n              and\n              0xffffffffffffffffffffffffffffffffffffffff\n              and\n              dup2\n              mstore\n              pop\n              pop\n              dup2\n              mstore\n              0x20\n              add\n              swap1\n              0x01\n              add\n              swap1\n              jump(tag_152)\n            tag_153:\n              pop\n              pop\n              pop\n              pop\n              swap1\n              pop\n                /* \"Campaign.sol\":4240:4340  function getTransactions() public view returns (Bid[] memory) {... */\n              swap1\n              jump\t// out\n                /* \"Campaign.sol\":1243:1271  address public highestBidder */\n            tag_74:\n              0x09\n              0x00\n              swap1\n              sload\n              swap1\n              0x0100\n              exp\n              swap1\n              div\n              0xffffffffffffffffffffffffffffffffffffffff\n              and\n              dup2\n              jump\t// out\n                /* \"Campaign.sol\":923:957  uint256 public minimumContribution */\n            tag_77:\n              sload(0x01)\n              dup2\n              jump\t// out\n                /* \"Campaign.sol\":3172:4026  function finalizeAuctionIfNeeded() public onlyAfterEnd {... */\n            tag_80:\n                /* \"Campaign.sol\":1575:1582  endTime */\n              sload(0x0b)\n                /* \"Campaign.sol\":1556:1571  block.timestamp */\n              timestamp\n                /* \"Campaign.sol\":1556:1582  block.timestamp >= endTime */\n              lt\n              iszero\n                /* \"Campaign.sol\":1548:1608  require(block.timestamp >= endTime, \"Auction not ended yet\") */\n              tag_156\n              jumpi\n              mload(0x40)\n              0x08c379a000000000000000000000000000000000000000000000000000000000\n              dup2\n              mstore\n              0x04\n              add\n              tag_157\n              swap1\n              tag_158\n              jump\t// in\n            tag_157:\n              mload(0x40)\n              dup1\n              swap2\n              sub\n              swap1\n              revert\n            tag_156:\n                /* \"Campaign.sol\":3247:3253  closed */\n              0x0c\n              0x00\n              swap1\n              sload\n              swap1\n              0x0100\n              exp\n              swap1\n              div\n              0xff\n              and\n                /* \"Campaign.sol\":3246:3253  !closed */\n              iszero\n                /* \"Campaign.sol\":3238:3283  require(!closed, \"Auction already finalized\") */\n              tag_160\n              jumpi\n              mload(0x40)\n              0x08c379a000000000000000000000000000000000000000000000000000000000\n              dup2\n              mstore\n              0x04\n              add\n              tag_161\n              swap1\n              tag_162\n              jump\t// in\n            tag_161:\n              mload(0x40)\n              dup1\n              swap2\n              sub\n              swap1\n              revert\n            tag_160:\n                /* \"Campaign.sol\":3301:3310  uint256 i */\n              0x00\n                /* \"Campaign.sol\":3313:3314  0 */\n              0x00\n                /* \"Campaign.sol\":3301:3314  uint256 i = 0 */\n              swap1\n              pop\n                /* \"Campaign.sol\":3296:3811  for (uint256 i = 0; i < addresses.length; i++) {... */\n            tag_163:\n                /* \"Campaign.sol\":3320:3329  addresses */\n              0x07\n                /* \"Campaign.sol\":3320:3336  addresses.length */\n              dup1\n              sload\n              swap1\n              pop\n                /* \"Campaign.sol\":3316:3317  i */\n              dup2\n                /* \"Campaign.sol\":3316:3336  i < addresses.length */\n              lt\n                /* \"Campaign.sol\":3296:3811  for (uint256 i = 0; i < addresses.length; i++) {... */\n              iszero\n              tag_164\n              jumpi\n                /* \"Campaign.sol\":3358:3377  address contributor */\n              0x00\n                /* \"Campaign.sol\":3380:3389  addresses */\n              0x07\n                /* \"Campaign.sol\":3390:3391  i */\n              dup3\n                /* \"Campaign.sol\":3380:3392  addresses[i] */\n              dup2\n              sload\n              dup2\n              lt\n              tag_166\n              jumpi\n              tag_167\n              tag_168\n              jump\t// in\n            tag_167:\n            tag_166:\n              swap1\n              0x00\n              mstore\n              keccak256(0x00, 0x20)\n              add\n              0x00\n              swap1\n              sload\n              swap1\n              0x0100\n              exp\n              swap1\n              div\n              0xffffffffffffffffffffffffffffffffffffffff\n              and\n                /* \"Campaign.sol\":3358:3392  address contributor = addresses[i] */\n              swap1\n              pop\n                /* \"Campaign.sol\":3426:3439  highestBidder */\n              0x09\n              0x00\n              swap1\n              sload\n              swap1\n              0x0100\n              exp\n              swap1\n              div\n              0xffffffffffffffffffffffffffffffffffffffff\n              and\n                /* \"Campaign.sol\":3411:3439  contributor != highestBidder */\n              0xffffffffffffffffffffffffffffffffffffffff\n              and\n                /* \"Campaign.sol\":3411:3422  contributor */\n              dup2\n                /* \"Campaign.sol\":3411:3439  contributor != highestBidder */\n              0xffffffffffffffffffffffffffffffffffffffff\n              and\n              eq\n                /* \"Campaign.sol\":3407:3800  if (contributor != highestBidder) {... */\n              tag_170\n              jumpi\n                /* \"Campaign.sol\":3460:3480  uint256 refundAmount */\n              0x00\n                /* \"Campaign.sol\":3483:3497  approversMoney */\n              0x05\n                /* \"Campaign.sol\":3483:3510  approversMoney[contributor] */\n              0x00\n                /* \"Campaign.sol\":3498:3509  contributor */\n              dup4\n                /* \"Campaign.sol\":3483:3510  approversMoney[contributor] */\n              0xffffffffffffffffffffffffffffffffffffffff\n              and\n              0xffffffffffffffffffffffffffffffffffffffff\n              and\n              dup2\n              mstore\n              0x20\n              add\n              swap1\n              dup2\n              mstore\n              0x20\n              add\n              0x00\n              keccak256\n              sload\n                /* \"Campaign.sol\":3460:3510  uint256 refundAmount = approversMoney[contributor] */\n              swap1\n              pop\n                /* \"Campaign.sol\":3548:3549  0 */\n              0x00\n                /* \"Campaign.sol\":3533:3545  refundAmount */\n              dup2\n                /* \"Campaign.sol\":3533:3549  refundAmount > 0 */\n              gt\n                /* \"Campaign.sol\":3529:3785  if (refundAmount > 0) {... */\n              iszero\n              tag_171\n              jumpi\n                /* \"Campaign.sol\":3604:3605  0 */\n              0x00\n                /* \"Campaign.sol\":3574:3588  approversMoney */\n              0x05\n                /* \"Campaign.sol\":3574:3601  approversMoney[contributor] */\n              0x00\n                /* \"Campaign.sol\":3589:3600  contributor */\n              dup5\n                /* \"Campaign.sol\":3574:3601  approversMoney[contributor] */\n              0xffffffffffffffffffffffffffffffffffffffff\n              and\n              0xffffffffffffffffffffffffffffffffffffffff\n              and\n              dup2\n              mstore\n              0x20\n              add\n              swap1\n              dup2\n              mstore\n              0x20\n              add\n              0x00\n              keccak256\n                /* \"Campaign.sol\":3574:3605  approversMoney[contributor] = 0 */\n              dup2\n              swap1\n              sstore\n              pop\n                /* \"Campaign.sol\":3636:3641  token */\n              0x0c\n              0x01\n              swap1\n              sload\n              swap1\n              0x0100\n              exp\n              swap1\n              div\n              0xffffffffffffffffffffffffffffffffffffffff\n              and\n                /* \"Campaign.sol\":3636:3650  token.transfer */\n              0xffffffffffffffffffffffffffffffffffffffff\n              and\n              0xa9059cbb\n                /* \"Campaign.sol\":3651:3662  contributor */\n              dup4\n                /* \"Campaign.sol\":3664:3676  refundAmount */\n              dup4\n                /* \"Campaign.sol\":3636:3677  token.transfer(contributor, refundAmount) */\n              mload(0x40)\n              dup4\n              0xffffffff\n              and\n              0xe0\n              shl\n              dup2\n              mstore\n              0x04\n              add\n              tag_172\n              swap3\n              swap2\n              swap1\n              tag_173\n              jump\t// in\n            tag_172:\n              0x20\n              mload(0x40)\n              dup1\n              dup4\n              sub\n              dup2\n              0x00\n              dup8\n              gas\n              call\n              iszero\n              dup1\n              iszero\n              tag_175\n              jumpi\n              returndatacopy(0x00, 0x00, returndatasize)\n              revert(0x00, returndatasize)\n            tag_175:\n              pop\n              pop\n              pop\n              pop\n              mload(0x40)\n              returndatasize\n              not(0x1f)\n              0x1f\n              dup3\n              add\n              and\n              dup3\n              add\n              dup1\n              0x40\n              mstore\n              pop\n              dup2\n              add\n              swap1\n              tag_176\n              swap2\n              swap1\n              tag_177\n              jump\t// in\n            tag_176:\n                /* \"Campaign.sol\":3628:3695  require(token.transfer(contributor, refundAmount), \"Refund failed\") */\n              tag_178\n              jumpi\n              mload(0x40)\n              0x08c379a000000000000000000000000000000000000000000000000000000000\n              dup2\n              mstore\n              0x04\n              add\n              tag_179\n              swap1\n              tag_180\n              jump\t// in\n            tag_179:\n              mload(0x40)\n              dup1\n              swap2\n              sub\n              swap1\n              revert\n            tag_178:\n                /* \"Campaign.sol\":3739:3750  contributor */\n              dup2\n                /* \"Campaign.sol\":3723:3765  RefundProcessed(contributor, refundAmount) */\n              0xffffffffffffffffffffffffffffffffffffffff\n              and\n              0x3367befd2b2f39615cd79917c2153263c4af1d3945ec003e5d5bfc13a8d85833\n                /* \"Campaign.sol\":3752:3764  refundAmount */\n              dup3\n                /* \"Campaign.sol\":3723:3765  RefundProcessed(contributor, refundAmount) */\n              mload(0x40)\n              tag_181\n              swap2\n              swap1\n              tag_37\n              jump\t// in\n            tag_181:\n              mload(0x40)\n              dup1\n              swap2\n              sub\n              swap1\n              log2\n                /* \"Campaign.sol\":3529:3785  if (refundAmount > 0) {... */\n            tag_171:\n                /* \"Campaign.sol\":3441:3800  {... */\n              pop\n                /* \"Campaign.sol\":3407:3800  if (contributor != highestBidder) {... */\n            tag_170:\n                /* \"Campaign.sol\":3343:3811  {... */\n              pop\n                /* \"Campaign.sol\":3338:3341  i++ */\n              dup1\n              dup1\n              0x01\n              add\n              swap2\n              pop\n              pop\n                /* \"Campaign.sol\":3296:3811  for (uint256 i = 0; i < addresses.length; i++) {... */\n              jump(tag_163)\n            tag_164:\n              pop\n                /* \"Campaign.sol\":3840:3841  0 */\n              0x00\n                /* \"Campaign.sol\":3827:3837  highestBid */\n              sload(0x0a)\n                /* \"Campaign.sol\":3827:3841  highestBid > 0 */\n              gt\n                /* \"Campaign.sol\":3823:3993  if (highestBid > 0) {... */\n              iszero\n              tag_182\n              jumpi\n                /* \"Campaign.sol\":3866:3871  token */\n              0x0c\n              0x01\n              swap1\n              sload\n              swap1\n              0x0100\n              exp\n              swap1\n              div\n              0xffffffffffffffffffffffffffffffffffffffff\n              and\n                /* \"Campaign.sol\":3866:3880  token.transfer */\n              0xffffffffffffffffffffffffffffffffffffffff\n              and\n              0xa9059cbb\n                /* \"Campaign.sol\":3881:3888  manager */\n              0x00\n              0x00\n              swap1\n              sload\n              swap1\n              0x0100\n              exp\n              swap1\n              div\n              0xffffffffffffffffffffffffffffffffffffffff\n              and\n                /* \"Campaign.sol\":3890:3900  highestBid */\n              sload(0x0a)\n                /* \"Campaign.sol\":3866:3901  token.transfer(manager, highestBid) */\n              mload(0x40)\n              dup4\n              0xffffffff\n              and\n              0xe0\n              shl\n              dup2\n              mstore\n              0x04\n              add\n              tag_183\n              swap3\n              swap2\n              swap1\n              tag_173\n              jump\t// in\n            tag_183:\n              0x20\n              mload(0x40)\n              dup1\n              dup4\n              sub\n              dup2\n              0x00\n              dup8\n              gas\n              call\n              iszero\n              dup1\n              iszero\n              tag_185\n              jumpi\n              returndatacopy(0x00, 0x00, returndatasize)\n              revert(0x00, returndatasize)\n            tag_185:\n              pop\n              pop\n              pop\n              pop\n              mload(0x40)\n              returndatasize\n              not(0x1f)\n              0x1f\n              dup3\n              add\n              and\n              dup3\n              add\n              dup1\n              0x40\n              mstore\n              pop\n              dup2\n              add\n              swap1\n              tag_186\n              swap2\n              swap1\n              tag_177\n              jump\t// in\n            tag_186:\n                /* \"Campaign.sol\":3858:3930  require(token.transfer(manager, highestBid), \"Payment to seller failed\") */\n              tag_187\n              jumpi\n              mload(0x40)\n              0x08c379a000000000000000000000000000000000000000000000000000000000\n              dup2\n              mstore\n              0x04\n              add\n              tag_188\n              swap1\n              tag_189\n              jump\t// in\n            tag_188:\n              mload(0x40)\n              dup1\n              swap2\n              sub\n              swap1\n              revert\n            tag_187:\n                /* \"Campaign.sol\":3961:3968  manager */\n              0x00\n              0x00\n              swap1\n              sload\n              swap1\n              0x0100\n              exp\n              swap1\n              div\n              0xffffffffffffffffffffffffffffffffffffffff\n              and\n                /* \"Campaign.sol\":3950:3981  SellerPaid(manager, highestBid) */\n              0xffffffffffffffffffffffffffffffffffffffff\n              and\n              0xcb4a9094da4df77fb2c0dbaa5047660b1237e61d82a02176c1be74ca757f2531\n                /* \"Campaign.sol\":3970:3980  highestBid */\n              sload(0x0a)\n                /* \"Campaign.sol\":3950:3981  SellerPaid(manager, highestBid) */\n              mload(0x40)\n              tag_190\n              swap2\n              swap1\n              tag_37\n              jump\t// in\n            tag_190:\n              mload(0x40)\n              dup1\n              swap2\n              sub\n              swap1\n              log2\n                /* \"Campaign.sol\":3823:3993  if (highestBid > 0) {... */\n            tag_182:\n                /* \"Campaign.sol\":4014:4018  true */\n              0x01\n                /* \"Campaign.sol\":4005:4011  closed */\n              0x0c\n              0x00\n                /* \"Campaign.sol\":4005:4018  closed = true */\n              0x0100\n              exp\n              dup2\n              sload\n              dup2\n              0xff\n              mul\n              not\n              and\n              swap1\n              dup4\n              iszero\n              iszero\n              mul\n              or\n              swap1\n              sstore\n              pop\n                /* \"Campaign.sol\":3172:4026  function finalizeAuctionIfNeeded() public onlyAfterEnd {... */\n              jump\t// out\n                /* \"Campaign.sol\":1209:1234  Bid[] public transactions */\n            tag_84:\n              0x08\n              dup2\n              dup2\n              sload\n              dup2\n              lt\n              tag_191\n              jumpi\n              0x00\n              dup1\n              revert\n            tag_191:\n              swap1\n              0x00\n              mstore\n              keccak256(0x00, 0x20)\n              swap1\n              0x03\n              mul\n              add\n              0x00\n              swap2\n              pop\n              swap1\n              pop\n              dup1\n              0x00\n              add\n              sload\n              swap1\n              dup1\n              0x01\n              add\n              sload\n              swap1\n              dup1\n              0x02\n              add\n              0x00\n              swap1\n              sload\n              swap1\n              0x0100\n              exp\n              swap1\n              div\n              0xffffffffffffffffffffffffffffffffffffffff\n              and\n              swap1\n              pop\n              dup4\n              jump\t// out\n                /* \"Campaign.sol\":4581:4679  function getAddresses() public view returns (address[] memory) {... */\n            tag_88:\n                /* \"Campaign.sol\":4626:4642  address[] memory */\n              0x60\n                /* \"Campaign.sol\":4662:4671  addresses */\n              0x07\n                /* \"Campaign.sol\":4655:4671  return addresses */\n              dup1\n              sload\n              dup1\n              0x20\n              mul\n              0x20\n              add\n              mload(0x40)\n              swap1\n              dup2\n              add\n              0x40\n              mstore\n              dup1\n              swap3\n              swap2\n              swap1\n              dup2\n              dup2\n              mstore\n              0x20\n              add\n              dup3\n              dup1\n              sload\n              dup1\n              iszero\n              tag_194\n              jumpi\n              0x20\n              mul\n              dup3\n              add\n              swap2\n              swap1\n              0x00\n              mstore\n              keccak256(0x00, 0x20)\n              swap1\n            tag_195:\n              dup2\n              0x00\n              swap1\n              sload\n              swap1\n              0x0100\n              exp\n              swap1\n              div\n              0xffffffffffffffffffffffffffffffffffffffff\n              and\n              0xffffffffffffffffffffffffffffffffffffffff\n              and\n              dup2\n              mstore\n              0x20\n              add\n              swap1\n              0x01\n              add\n              swap1\n              dup1\n              dup4\n              gt\n              tag_195\n              jumpi\n            tag_194:\n              pop\n              pop\n              pop\n              pop\n              pop\n              swap1\n              pop\n                /* \"Campaign.sol\":4581:4679  function getAddresses() public view returns (address[] memory) {... */\n              swap1\n              jump\t// out\n                /* \"Campaign.sol\":2076:3164  function contribute(uint256 amount) public onlyBeforeEnd {... */\n            tag_93:\n                /* \"Campaign.sol\":1460:1467  endTime */\n              sload(0x0b)\n                /* \"Campaign.sol\":1442:1457  block.timestamp */\n              timestamp\n                /* \"Campaign.sol\":1442:1467  block.timestamp < endTime */\n              lt\n                /* \"Campaign.sol\":1434:1485  require(block.timestamp < endTime, \"Auction ended\") */\n              tag_197\n              jumpi\n              mload(0x40)\n              0x08c379a000000000000000000000000000000000000000000000000000000000\n              dup2\n              mstore\n              0x04\n              add\n              tag_198\n              swap1\n              tag_199\n              jump\t// in\n            tag_198:\n              mload(0x40)\n              dup1\n              swap2\n              sub\n              swap1\n              revert\n            tag_197:\n                /* \"Campaign.sol\":2162:2169  manager */\n              0x00\n              0x00\n              swap1\n              sload\n              swap1\n              0x0100\n              exp\n              swap1\n              div\n              0xffffffffffffffffffffffffffffffffffffffff\n              and\n                /* \"Campaign.sol\":2148:2169  msg.sender != manager */\n              0xffffffffffffffffffffffffffffffffffffffff\n              and\n                /* \"Campaign.sol\":2148:2158  msg.sender */\n              caller\n                /* \"Campaign.sol\":2148:2169  msg.sender != manager */\n              0xffffffffffffffffffffffffffffffffffffffff\n              and\n              sub\n                /* \"Campaign.sol\":2140:2207  require(msg.sender != manager, \"You can't bid on your own auction\") */\n              tag_201\n              jumpi\n              mload(0x40)\n              0x08c379a000000000000000000000000000000000000000000000000000000000\n              dup2\n              mstore\n              0x04\n              add\n              tag_202\n              swap1\n              tag_203\n              jump\t// in\n            tag_202:\n              mload(0x40)\n              dup1\n              swap2\n              sub\n              swap1\n              revert\n            tag_201:\n                /* \"Campaign.sol\":2216:2232  uint256 previous */\n              0x00\n                /* \"Campaign.sol\":2235:2249  approversMoney */\n              0x05\n                /* \"Campaign.sol\":2235:2261  approversMoney[msg.sender] */\n              0x00\n                /* \"Campaign.sol\":2250:2260  msg.sender */\n              caller\n                /* \"Campaign.sol\":2235:2261  approversMoney[msg.sender] */\n              0xffffffffffffffffffffffffffffffffffffffff\n              and\n              0xffffffffffffffffffffffffffffffffffffffff\n              and\n              dup2\n              mstore\n              0x20\n              add\n              swap1\n              dup2\n              mstore\n              0x20\n              add\n              0x00\n              keccak256\n              sload\n                /* \"Campaign.sol\":2216:2261  uint256 previous = approversMoney[msg.sender] */\n              swap1\n              pop\n                /* \"Campaign.sol\":2268:2284  uint256 newTotal */\n              0x00\n                /* \"Campaign.sol\":2298:2304  amount */\n              dup3\n                /* \"Campaign.sol\":2287:2295  previous */\n              dup3\n                /* \"Campaign.sol\":2287:2304  previous + amount */\n              tag_204\n              swap2\n              swap1\n              tag_205\n              jump\t// in\n            tag_204:\n                /* \"Campaign.sol\":2268:2304  uint256 newTotal = previous + amount */\n              swap1\n              pop\n                /* \"Campaign.sol\":2426:2427  0 */\n              0x00\n                /* \"Campaign.sol\":2414:2422  previous */\n              dup3\n                /* \"Campaign.sol\":2414:2427  previous == 0 */\n              sub\n                /* \"Campaign.sol\":2410:2509  if (previous == 0) {... */\n              tag_206\n              jumpi\n                /* \"Campaign.sol\":2460:2479  minimumContribution */\n              sload(0x01)\n                /* \"Campaign.sol\":2448:2456  newTotal */\n              dup2\n                /* \"Campaign.sol\":2448:2479  newTotal >= minimumContribution */\n              lt\n              iszero\n                /* \"Campaign.sol\":2440:2501  require(newTotal >= minimumContribution, \"Below minimum bid\") */\n              tag_207\n              jumpi\n              mload(0x40)\n              0x08c379a000000000000000000000000000000000000000000000000000000000\n              dup2\n              mstore\n              0x04\n              add\n              tag_208\n              swap1\n              tag_209\n              jump\t// in\n            tag_208:\n              mload(0x40)\n              dup1\n              swap2\n              sub\n              swap1\n              revert\n            tag_207:\n                /* \"Campaign.sol\":2410:2509  if (previous == 0) {... */\n            tag_206:\n                /* \"Campaign.sol\":2536:2546  highestBid */\n              sload(0x0a)\n                /* \"Campaign.sol\":2525:2533  newTotal */\n              dup2\n                /* \"Campaign.sol\":2525:2546  newTotal > highestBid */\n              gt\n                /* \"Campaign.sol\":2517:2582  require(newTotal > highestBid, \"Bid must exceed current highest\") */\n              tag_210\n              jumpi\n              mload(0x40)\n              0x08c379a000000000000000000000000000000000000000000000000000000000\n              dup2\n              mstore\n              0x04\n              add\n              tag_211\n              swap1\n              tag_212\n              jump\t// in\n            tag_211:\n              mload(0x40)\n              dup1\n              swap2\n              sub\n              swap1\n              revert\n            tag_210:\n                /* \"Campaign.sol\":2593:2598  token */\n              0x0c\n              0x01\n              swap1\n              sload\n              swap1\n              0x0100\n              exp\n              swap1\n              div\n              0xffffffffffffffffffffffffffffffffffffffff\n              and\n                /* \"Campaign.sol\":2593:2611  token.transferFrom */\n              0xffffffffffffffffffffffffffffffffffffffff\n              and\n              0x23b872dd\n                /* \"Campaign.sol\":2612:2622  msg.sender */\n              caller\n                /* \"Campaign.sol\":2632:2636  this */\n              address\n                /* \"Campaign.sol\":2639:2645  amount */\n              dup7\n                /* \"Campaign.sol\":2593:2646  token.transferFrom(msg.sender, address(this), amount) */\n              mload(0x40)\n              dup5\n              0xffffffff\n              and\n              0xe0\n              shl\n              dup2\n              mstore\n              0x04\n              add\n              tag_213\n              swap4\n              swap3\n              swap2\n              swap1\n              tag_214\n              jump\t// in\n            tag_213:\n              0x20\n              mload(0x40)\n              dup1\n              dup4\n              sub\n              dup2\n              0x00\n              dup8\n              gas\n              call\n              iszero\n              dup1\n              iszero\n              tag_216\n              jumpi\n              returndatacopy(0x00, 0x00, returndatasize)\n              revert(0x00, returndatasize)\n            tag_216:\n              pop\n              pop\n              pop\n              pop\n              mload(0x40)\n              returndatasize\n              not(0x1f)\n              0x1f\n              dup3\n              add\n              and\n              dup3\n              add\n              dup1\n              0x40\n              mstore\n              pop\n              dup2\n              add\n              swap1\n              tag_217\n              swap2\n              swap1\n              tag_177\n              jump\t// in\n            tag_217:\n              pop\n                /* \"Campaign.sol\":2738:2746  newTotal */\n              dup1\n                /* \"Campaign.sol\":2709:2723  approversMoney */\n              0x05\n                /* \"Campaign.sol\":2709:2735  approversMoney[msg.sender] */\n              0x00\n                /* \"Campaign.sol\":2724:2734  msg.sender */\n              caller\n                /* \"Campaign.sol\":2709:2735  approversMoney[msg.sender] */\n              0xffffffffffffffffffffffffffffffffffffffff\n              and\n              0xffffffffffffffffffffffffffffffffffffffff\n              and\n              dup2\n              mstore\n              0x20\n              add\n              swap1\n              dup2\n              mstore\n              0x20\n              add\n              0x00\n              keccak256\n                /* \"Campaign.sol\":2709:2746  approversMoney[msg.sender] = newTotal */\n              dup2\n              swap1\n              sstore\n              pop\n                /* \"Campaign.sol\":2766:2774  newTotal */\n              dup1\n                /* \"Campaign.sol\":2753:2763  highestBid */\n              0x0a\n                /* \"Campaign.sol\":2753:2774  highestBid = newTotal */\n              dup2\n              swap1\n              sstore\n              pop\n                /* \"Campaign.sol\":2797:2807  msg.sender */\n              caller\n                /* \"Campaign.sol\":2781:2794  highestBidder */\n              0x09\n              0x00\n                /* \"Campaign.sol\":2781:2807  highestBidder = msg.sender */\n              0x0100\n              exp\n              dup2\n              sload\n              dup2\n              0xffffffffffffffffffffffffffffffffffffffff\n              mul\n              not\n              and\n              swap1\n              dup4\n              0xffffffffffffffffffffffffffffffffffffffff\n              and\n              mul\n              or\n              swap1\n              sstore\n              pop\n                /* \"Campaign.sol\":2890:2902  transactions */\n              0x08\n                /* \"Campaign.sol\":2908:2948  Bid(amount, block.timestamp, msg.sender) */\n              mload(0x40)\n              dup1\n              0x60\n              add\n              0x40\n              mstore\n              dup1\n                /* \"Campaign.sol\":2912:2918  amount */\n              dup6\n                /* \"Campaign.sol\":2908:2948  Bid(amount, block.timestamp, msg.sender) */\n              dup2\n              mstore\n              0x20\n              add\n                /* \"Campaign.sol\":2920:2935  block.timestamp */\n              timestamp\n                /* \"Campaign.sol\":2908:2948  Bid(amount, block.timestamp, msg.sender) */\n              dup2\n              mstore\n              0x20\n              add\n                /* \"Campaign.sol\":2937:2947  msg.sender */\n              caller\n                /* \"Campaign.sol\":2908:2948  Bid(amount, block.timestamp, msg.sender) */\n              0xffffffffffffffffffffffffffffffffffffffff\n              and\n              dup2\n              mstore\n              pop\n                /* \"Campaign.sol\":2890:2949  transactions.push(Bid(amount, block.timestamp, msg.sender)) */\n              swap1\n              dup1\n              0x01\n              dup2\n              sload\n              add\n              dup1\n              dup3\n              sstore\n              dup1\n              swap2\n              pop\n              pop\n              0x01\n              swap1\n              sub\n              swap1\n              0x00\n              mstore\n              keccak256(0x00, 0x20)\n              swap1\n              0x03\n              mul\n              add\n              0x00\n              swap1\n              swap2\n              swap1\n              swap2\n              swap1\n              swap2\n              pop\n              0x00\n              dup3\n              add\n              mload\n              dup2\n              0x00\n              add\n              sstore\n              0x20\n              dup3\n              add\n              mload\n              dup2\n              0x01\n              add\n              sstore\n              0x40\n              dup3\n              add\n              mload\n              dup2\n              0x02\n              add\n              exp(0x0100, 0x00)\n              dup2\n              sload\n              dup2\n              0xffffffffffffffffffffffffffffffffffffffff\n              mul\n              not\n              and\n              swap1\n              dup4\n              0xffffffffffffffffffffffffffffffffffffffff\n              and\n              mul\n              or\n              swap1\n              sstore\n              pop\n              pop\n              pop\n                /* \"Campaign.sol\":3027:3036  approvers */\n              0x04\n                /* \"Campaign.sol\":3027:3048  approvers[msg.sender] */\n              0x00\n                /* \"Campaign.sol\":3037:3047  msg.sender */\n              caller\n                /* \"Campaign.sol\":3027:3048  approvers[msg.sender] */\n              0xffffffffffffffffffffffffffffffffffffffff\n              and\n              0xffffffffffffffffffffffffffffffffffffffff\n              and\n              dup2\n              mstore\n              0x20\n              add\n              swap1\n              dup2\n              mstore\n              0x20\n              add\n              0x00\n              keccak256\n              0x00\n              swap1\n              sload\n              swap1\n              0x0100\n              exp\n              swap1\n              div\n              0xff\n              and\n                /* \"Campaign.sol\":3022:3161  if (!approvers[msg.sender]) {... */\n              tag_219\n              jumpi\n                /* \"Campaign.sol\":3085:3089  true */\n              0x01\n                /* \"Campaign.sol\":3061:3070  approvers */\n              0x04\n                /* \"Campaign.sol\":3061:3082  approvers[msg.sender] */\n              0x00\n                /* \"Campaign.sol\":3071:3081  msg.sender */\n              caller\n                /* \"Campaign.sol\":3061:3082  approvers[msg.sender] */\n              0xffffffffffffffffffffffffffffffffffffffff\n              and\n              0xffffffffffffffffffffffffffffffffffffffff\n              and\n              dup2\n              mstore\n              0x20\n              add\n              swap1\n              dup2\n              mstore\n              0x20\n              add\n              0x00\n              keccak256\n              0x00\n                /* \"Campaign.sol\":3061:3089  approvers[msg.sender] = true */\n              0x0100\n              exp\n              dup2\n              sload\n              dup2\n              0xff\n              mul\n              not\n              and\n              swap1\n              dup4\n              iszero\n              iszero\n              mul\n              or\n              swap1\n              sstore\n              pop\n                /* \"Campaign.sol\":3100:3114  approversCount */\n              0x06\n              0x00\n                /* \"Campaign.sol\":3100:3116  approversCount++ */\n              dup2\n              sload\n              dup1\n              swap3\n              swap2\n              swap1\n              tag_220\n              swap1\n              tag_221\n              jump\t// in\n            tag_220:\n              swap2\n              swap1\n              pop\n              sstore\n              pop\n                /* \"Campaign.sol\":3127:3136  addresses */\n              0x07\n                /* \"Campaign.sol\":3142:3152  msg.sender */\n              caller\n                /* \"Campaign.sol\":3127:3153  addresses.push(msg.sender) */\n              swap1\n              dup1\n              0x01\n              dup2\n              sload\n              add\n              dup1\n              dup3\n              sstore\n              dup1\n              swap2\n              pop\n              pop\n              0x01\n              swap1\n              sub\n              swap1\n              0x00\n              mstore\n              keccak256(0x00, 0x20)\n              add\n              0x00\n              swap1\n              swap2\n              swap1\n              swap2\n              swap1\n              swap2\n              0x0100\n              exp\n              dup2\n              sload\n              dup2\n              0xffffffffffffffffffffffffffffffffffffffff\n              mul\n              not\n              and\n              swap1\n              dup4\n              0xffffffffffffffffffffffffffffffffffffffff\n              and\n              mul\n              or\n              swap1\n              sstore\n              pop\n                /* \"Campaign.sol\":3022:3161  if (!approvers[msg.sender]) {... */\n            tag_219:\n                /* \"Campaign.sol\":2133:3164  {... */\n              pop\n              pop\n                /* \"Campaign.sol\":2076:3164  function contribute(uint256 amount) public onlyBeforeEnd {... */\n              pop\n              jump\t// out\n                /* \"Campaign.sol\":4122:4232  function getBid(address bidder) public view returns (uint256) {... */\n            tag_96:\n                /* \"Campaign.sol\":4175:4182  uint256 */\n              0x00\n                /* \"Campaign.sol\":4202:4216  approversMoney */\n              0x05\n                /* \"Campaign.sol\":4202:4224  approversMoney[bidder] */\n              0x00\n                /* \"Campaign.sol\":4217:4223  bidder */\n              dup4\n                /* \"Campaign.sol\":4202:4224  approversMoney[bidder] */\n              0xffffffffffffffffffffffffffffffffffffffff\n              and\n              0xffffffffffffffffffffffffffffffffffffffff\n              and\n              dup2\n              mstore\n              0x20\n              add\n              swap1\n              dup2\n              mstore\n              0x20\n              add\n              0x00\n              keccak256\n              sload\n                /* \"Campaign.sol\":4195:4224  return approversMoney[bidder] */\n              swap1\n              pop\n                /* \"Campaign.sol\":4122:4232  function getBid(address bidder) public view returns (uint256) {... */\n              swap2\n              swap1\n              pop\n              jump\t// out\n                /* \"Campaign.sol\":1278:1303  uint256 public highestBid */\n            tag_99:\n              sload(0x0a)\n              dup2\n              jump\t// out\n                /* \"Campaign.sol\":1176:1202  address[] public addresses */\n            tag_103:\n              0x07\n              dup2\n              dup2\n              sload\n              dup2\n              lt\n              tag_224\n              jumpi\n              0x00\n              dup1\n              revert\n            tag_224:\n              swap1\n              0x00\n              mstore\n              keccak256(0x00, 0x20)\n              add\n              0x00\n              swap2\n              pop\n              sload\n              swap1\n              0x0100\n              exp\n              swap1\n              div\n              0xffffffffffffffffffffffffffffffffffffffff\n              and\n              dup2\n              jump\t// out\n                /* \"Campaign.sol\":1368:1387  IERC20 public token */\n            tag_106:\n              0x0c\n              0x01\n              swap1\n              sload\n              swap1\n              0x0100\n              exp\n              swap1\n              div\n              0xffffffffffffffffffffffffffffffffffffffff\n              and\n              dup2\n              jump\t// out\n                /* \"#utility.yul\":88:205   */\n            tag_227:\n                /* \"#utility.yul\":197:198   */\n              0x00\n                /* \"#utility.yul\":194:195   */\n              0x00\n                /* \"#utility.yul\":187:199   */\n              revert\n                /* \"#utility.yul\":334:460   */\n            tag_229:\n                /* \"#utility.yul\":371:378   */\n              0x00\n                /* \"#utility.yul\":411:453   */\n              0xffffffffffffffffffffffffffffffffffffffff\n                /* \"#utility.yul\":404:409   */\n              dup3\n                /* \"#utility.yul\":400:454   */\n              and\n                /* \"#utility.yul\":389:454   */\n              swap1\n              pop\n                /* \"#utility.yul\":334:460   */\n              swap2\n              swap1\n              pop\n              jump\t// out\n                /* \"#utility.yul\":466:562   */\n            tag_230:\n                /* \"#utility.yul\":503:510   */\n              0x00\n                /* \"#utility.yul\":532:556   */\n              tag_296\n                /* \"#utility.yul\":550:555   */\n              dup3\n                /* \"#utility.yul\":532:556   */\n              tag_229\n              jump\t// in\n            tag_296:\n                /* \"#utility.yul\":521:556   */\n              swap1\n              pop\n                /* \"#utility.yul\":466:562   */\n              swap2\n              swap1\n              pop\n              jump\t// out\n                /* \"#utility.yul\":568:690   */\n            tag_231:\n                /* \"#utility.yul\":641:665   */\n              tag_298\n                /* \"#utility.yul\":659:664   */\n              dup2\n                /* \"#utility.yul\":641:665   */\n              tag_230\n              jump\t// in\n            tag_298:\n                /* \"#utility.yul\":634:639   */\n              dup2\n                /* \"#utility.yul\":631:666   */\n              eq\n                /* \"#utility.yul\":621:684   */\n              tag_299\n              jumpi\n                /* \"#utility.yul\":680:681   */\n              0x00\n                /* \"#utility.yul\":677:678   */\n              0x00\n                /* \"#utility.yul\":670:682   */\n              revert\n                /* \"#utility.yul\":621:684   */\n            tag_299:\n                /* \"#utility.yul\":568:690   */\n              pop\n              jump\t// out\n                /* \"#utility.yul\":696:835   */\n            tag_232:\n                /* \"#utility.yul\":742:747   */\n              0x00\n                /* \"#utility.yul\":780:786   */\n              dup2\n                /* \"#utility.yul\":767:787   */\n              calldataload\n                /* \"#utility.yul\":758:787   */\n              swap1\n              pop\n                /* \"#utility.yul\":796:829   */\n              tag_301\n                /* \"#utility.yul\":823:828   */\n              dup2\n                /* \"#utility.yul\":796:829   */\n              tag_231\n              jump\t// in\n            tag_301:\n                /* \"#utility.yul\":696:835   */\n              swap3\n              swap2\n              pop\n              pop\n              jump\t// out\n                /* \"#utility.yul\":841:1170   */\n            tag_30:\n                /* \"#utility.yul\":900:906   */\n              0x00\n                /* \"#utility.yul\":949:951   */\n              0x20\n                /* \"#utility.yul\":937:946   */\n              dup3\n                /* \"#utility.yul\":928:935   */\n              dup5\n                /* \"#utility.yul\":924:947   */\n              sub\n                /* \"#utility.yul\":920:952   */\n              slt\n                /* \"#utility.yul\":917:1036   */\n              iszero\n              tag_303\n              jumpi\n                /* \"#utility.yul\":955:1034   */\n              tag_304\n              tag_227\n              jump\t// in\n            tag_304:\n                /* \"#utility.yul\":917:1036   */\n            tag_303:\n                /* \"#utility.yul\":1075:1076   */\n              0x00\n                /* \"#utility.yul\":1100:1153   */\n              tag_305\n                /* \"#utility.yul\":1145:1152   */\n              dup5\n                /* \"#utility.yul\":1136:1142   */\n              dup3\n                /* \"#utility.yul\":1125:1134   */\n              dup6\n                /* \"#utility.yul\":1121:1143   */\n              add\n                /* \"#utility.yul\":1100:1153   */\n              tag_232\n              jump\t// in\n            tag_305:\n                /* \"#utility.yul\":1090:1153   */\n              swap2\n              pop\n                /* \"#utility.yul\":1046:1163   */\n              pop\n                /* \"#utility.yul\":841:1170   */\n              swap3\n              swap2\n              pop\n              pop\n              jump\t// out\n                /* \"#utility.yul\":1176:1266   */\n            tag_233:\n                /* \"#utility.yul\":1210:1217   */\n              0x00\n                /* \"#utility.yul\":1253:1258   */\n              dup2\n                /* \"#utility.yul\":1246:1259   */\n              iszero\n                /* \"#utility.yul\":1239:1260   */\n              iszero\n                /* \"#utility.yul\":1228:1260   */\n              swap1\n              pop\n                /* \"#utility.yul\":1176:1266   */\n              swap2\n              swap1\n              pop\n              jump\t// out\n                /* \"#utility.yul\":1272:1381   */\n            tag_234:\n                /* \"#utility.yul\":1353:1374   */\n              tag_308\n                /* \"#utility.yul\":1368:1373   */\n              dup2\n                /* \"#utility.yul\":1353:1374   */\n              tag_233\n              jump\t// in\n            tag_308:\n                /* \"#utility.yul\":1348:1351   */\n              dup3\n                /* \"#utility.yul\":1341:1375   */\n              mstore\n                /* \"#utility.yul\":1272:1381   */\n              pop\n              pop\n              jump\t// out\n                /* \"#utility.yul\":1387:1597   */\n            tag_33:\n                /* \"#utility.yul\":1474:1478   */\n              0x00\n                /* \"#utility.yul\":1512:1514   */\n              0x20\n                /* \"#utility.yul\":1501:1510   */\n              dup3\n                /* \"#utility.yul\":1497:1515   */\n              add\n                /* \"#utility.yul\":1489:1515   */\n              swap1\n              pop\n                /* \"#utility.yul\":1525:1590   */\n              tag_310\n                /* \"#utility.yul\":1587:1588   */\n              0x00\n                /* \"#utility.yul\":1576:1585   */\n              dup4\n                /* \"#utility.yul\":1572:1589   */\n              add\n                /* \"#utility.yul\":1563:1569   */\n              dup5\n                /* \"#utility.yul\":1525:1590   */\n              tag_234\n              jump\t// in\n            tag_310:\n                /* \"#utility.yul\":1387:1597   */\n              swap3\n              swap2\n              pop\n              pop\n              jump\t// out\n                /* \"#utility.yul\":1603:1680   */\n            tag_235:\n                /* \"#utility.yul\":1640:1647   */\n              0x00\n                /* \"#utility.yul\":1669:1674   */\n              dup2\n                /* \"#utility.yul\":1658:1674   */\n              swap1\n              pop\n                /* \"#utility.yul\":1603:1680   */\n              swap2\n              swap1\n              pop\n              jump\t// out\n                /* \"#utility.yul\":1686:1804   */\n            tag_236:\n                /* \"#utility.yul\":1773:1797   */\n              tag_313\n                /* \"#utility.yul\":1791:1796   */\n              dup2\n                /* \"#utility.yul\":1773:1797   */\n              tag_235\n              jump\t// in\n            tag_313:\n                /* \"#utility.yul\":1768:1771   */\n              dup3\n                /* \"#utility.yul\":1761:1798   */\n              mstore\n                /* \"#utility.yul\":1686:1804   */\n              pop\n              pop\n              jump\t// out\n                /* \"#utility.yul\":1810:2032   */\n            tag_37:\n                /* \"#utility.yul\":1903:1907   */\n              0x00\n                /* \"#utility.yul\":1941:1943   */\n              0x20\n                /* \"#utility.yul\":1930:1939   */\n              dup3\n                /* \"#utility.yul\":1926:1944   */\n              add\n                /* \"#utility.yul\":1918:1944   */\n              swap1\n              pop\n                /* \"#utility.yul\":1954:2025   */\n              tag_315\n                /* \"#utility.yul\":2022:2023   */\n              0x00\n                /* \"#utility.yul\":2011:2020   */\n              dup4\n                /* \"#utility.yul\":2007:2024   */\n              add\n                /* \"#utility.yul\":1998:2004   */\n              dup5\n                /* \"#utility.yul\":1954:2025   */\n              tag_236\n              jump\t// in\n            tag_315:\n                /* \"#utility.yul\":1810:2032   */\n              swap3\n              swap2\n              pop\n              pop\n              jump\t// out\n                /* \"#utility.yul\":2038:2137   */\n            tag_237:\n                /* \"#utility.yul\":2090:2096   */\n              0x00\n                /* \"#utility.yul\":2124:2129   */\n              dup2\n                /* \"#utility.yul\":2118:2130   */\n              mload\n                /* \"#utility.yul\":2108:2130   */\n              swap1\n              pop\n                /* \"#utility.yul\":2038:2137   */\n              swap2\n              swap1\n              pop\n              jump\t// out\n                /* \"#utility.yul\":2143:2312   */\n            tag_238:\n                /* \"#utility.yul\":2227:2238   */\n              0x00\n                /* \"#utility.yul\":2261:2267   */\n              dup3\n                /* \"#utility.yul\":2256:2259   */\n              dup3\n                /* \"#utility.yul\":2249:2268   */\n              mstore\n                /* \"#utility.yul\":2301:2305   */\n              0x20\n                /* \"#utility.yul\":2296:2299   */\n              dup3\n                /* \"#utility.yul\":2292:2306   */\n              add\n                /* \"#utility.yul\":2277:2306   */\n              swap1\n              pop\n                /* \"#utility.yul\":2143:2312   */\n              swap3\n              swap2\n              pop\n              pop\n              jump\t// out\n                /* \"#utility.yul\":2318:2457   */\n            tag_239:\n                /* \"#utility.yul\":2407:2413   */\n              dup3\n                /* \"#utility.yul\":2402:2405   */\n              dup2\n                /* \"#utility.yul\":2397:2400   */\n              dup4\n                /* \"#utility.yul\":2391:2414   */\n              mcopy\n                /* \"#utility.yul\":2448:2449   */\n              0x00\n                /* \"#utility.yul\":2439:2445   */\n              dup4\n                /* \"#utility.yul\":2434:2437   */\n              dup4\n                /* \"#utility.yul\":2430:2446   */\n              add\n                /* \"#utility.yul\":2423:2450   */\n              mstore\n                /* \"#utility.yul\":2318:2457   */\n              pop\n              pop\n              pop\n              jump\t// out\n                /* \"#utility.yul\":2463:2565   */\n            tag_240:\n                /* \"#utility.yul\":2504:2510   */\n              0x00\n                /* \"#utility.yul\":2555:2557   */\n              0x1f\n                /* \"#utility.yul\":2551:2558   */\n              not\n                /* \"#utility.yul\":2546:2548   */\n              0x1f\n                /* \"#utility.yul\":2539:2544   */\n              dup4\n                /* \"#utility.yul\":2535:2549   */\n              add\n                /* \"#utility.yul\":2531:2559   */\n              and\n                /* \"#utility.yul\":2521:2559   */\n              swap1\n              pop\n                /* \"#utility.yul\":2463:2565   */\n              swap2\n              swap1\n              pop\n              jump\t// out\n                /* \"#utility.yul\":2571:2948   */\n            tag_241:\n                /* \"#utility.yul\":2659:2662   */\n              0x00\n                /* \"#utility.yul\":2687:2726   */\n              tag_321\n                /* \"#utility.yul\":2720:2725   */\n              dup3\n                /* \"#utility.yul\":2687:2726   */\n              tag_237\n              jump\t// in\n            tag_321:\n                /* \"#utility.yul\":2742:2813   */\n              tag_322\n                /* \"#utility.yul\":2806:2812   */\n              dup2\n                /* \"#utility.yul\":2801:2804   */\n              dup6\n                /* \"#utility.yul\":2742:2813   */\n              tag_238\n              jump\t// in\n            tag_322:\n                /* \"#utility.yul\":2735:2813   */\n              swap4\n              pop\n                /* \"#utility.yul\":2822:2887   */\n              tag_323\n                /* \"#utility.yul\":2880:2886   */\n              dup2\n                /* \"#utility.yul\":2875:2878   */\n              dup6\n                /* \"#utility.yul\":2868:2872   */\n              0x20\n                /* \"#utility.yul\":2861:2866   */\n              dup7\n                /* \"#utility.yul\":2857:2873   */\n              add\n                /* \"#utility.yul\":2822:2887   */\n              tag_239\n              jump\t// in\n            tag_323:\n                /* \"#utility.yul\":2912:2941   */\n              tag_324\n                /* \"#utility.yul\":2934:2940   */\n              dup2\n                /* \"#utility.yul\":2912:2941   */\n              tag_240\n              jump\t// in\n            tag_324:\n                /* \"#utility.yul\":2907:2910   */\n              dup5\n                /* \"#utility.yul\":2903:2942   */\n              add\n                /* \"#utility.yul\":2896:2942   */\n              swap2\n              pop\n                /* \"#utility.yul\":2663:2948   */\n              pop\n                /* \"#utility.yul\":2571:2948   */\n              swap3\n              swap2\n              pop\n              pop\n              jump\t// out\n                /* \"#utility.yul\":2954:3267   */\n            tag_41:\n                /* \"#utility.yul\":3067:3071   */\n              0x00\n                /* \"#utility.yul\":3105:3107   */\n              0x20\n                /* \"#utility.yul\":3094:3103   */\n              dup3\n                /* \"#utility.yul\":3090:3108   */\n              add\n                /* \"#utility.yul\":3082:3108   */\n              swap1\n              pop\n                /* \"#utility.yul\":3154:3163   */\n              dup2\n                /* \"#utility.yul\":3148:3152   */\n              dup2\n                /* \"#utility.yul\":3144:3164   */\n              sub\n                /* \"#utility.yul\":3140:3141   */\n              0x00\n                /* \"#utility.yul\":3129:3138   */\n              dup4\n                /* \"#utility.yul\":3125:3142   */\n              add\n                /* \"#utility.yul\":3118:3165   */\n              mstore\n                /* \"#utility.yul\":3182:3260   */\n              tag_326\n                /* \"#utility.yul\":3255:3259   */\n              dup2\n                /* \"#utility.yul\":3246:3252   */\n              dup5\n                /* \"#utility.yul\":3182:3260   */\n              tag_241\n              jump\t// in\n            tag_326:\n                /* \"#utility.yul\":3174:3260   */\n              swap1\n              pop\n                /* \"#utility.yul\":2954:3267   */\n              swap3\n              swap2\n              pop\n              pop\n              jump\t// out\n                /* \"#utility.yul\":3273:3391   */\n            tag_242:\n                /* \"#utility.yul\":3360:3384   */\n              tag_328\n                /* \"#utility.yul\":3378:3383   */\n              dup2\n                /* \"#utility.yul\":3360:3384   */\n              tag_230\n              jump\t// in\n            tag_328:\n                /* \"#utility.yul\":3355:3358   */\n              dup3\n                /* \"#utility.yul\":3348:3385   */\n              mstore\n                /* \"#utility.yul\":3273:3391   */\n              pop\n              pop\n              jump\t// out\n                /* \"#utility.yul\":3397:3511   */\n            tag_243:\n                /* \"#utility.yul\":3464:3470   */\n              0x00\n                /* \"#utility.yul\":3498:3503   */\n              dup2\n                /* \"#utility.yul\":3492:3504   */\n              mload\n                /* \"#utility.yul\":3482:3504   */\n              swap1\n              pop\n                /* \"#utility.yul\":3397:3511   */\n              swap2\n              swap1\n              pop\n              jump\t// out\n                /* \"#utility.yul\":3517:3701   */\n            tag_244:\n                /* \"#utility.yul\":3616:3627   */\n              0x00\n                /* \"#utility.yul\":3650:3656   */\n              dup3\n                /* \"#utility.yul\":3645:3648   */\n              dup3\n                /* \"#utility.yul\":3638:3657   */\n              mstore\n                /* \"#utility.yul\":3690:3694   */\n              0x20\n                /* \"#utility.yul\":3685:3688   */\n              dup3\n                /* \"#utility.yul\":3681:3695   */\n              add\n                /* \"#utility.yul\":3666:3695   */\n              swap1\n              pop\n                /* \"#utility.yul\":3517:3701   */\n              swap3\n              swap2\n              pop\n              pop\n              jump\t// out\n                /* \"#utility.yul\":3707:3839   */\n            tag_245:\n                /* \"#utility.yul\":3774:3778   */\n              0x00\n                /* \"#utility.yul\":3797:3800   */\n              dup2\n                /* \"#utility.yul\":3789:3800   */\n              swap1\n              pop\n                /* \"#utility.yul\":3827:3831   */\n              0x20\n                /* \"#utility.yul\":3822:3825   */\n              dup3\n                /* \"#utility.yul\":3818:3832   */\n              add\n                /* \"#utility.yul\":3810:3832   */\n              swap1\n              pop\n                /* \"#utility.yul\":3707:3839   */\n              swap2\n              swap1\n              pop\n              jump\t// out\n                /* \"#utility.yul\":3845:3953   */\n            tag_246:\n                /* \"#utility.yul\":3922:3946   */\n              tag_333\n                /* \"#utility.yul\":3940:3945   */\n              dup2\n                /* \"#utility.yul\":3922:3946   */\n              tag_230\n              jump\t// in\n            tag_333:\n                /* \"#utility.yul\":3917:3920   */\n              dup3\n                /* \"#utility.yul\":3910:3947   */\n              mstore\n                /* \"#utility.yul\":3845:3953   */\n              pop\n              pop\n              jump\t// out\n                /* \"#utility.yul\":3959:4138   */\n            tag_247:\n                /* \"#utility.yul\":4028:4038   */\n              0x00\n                /* \"#utility.yul\":4049:4095   */\n              tag_335\n                /* \"#utility.yul\":4091:4094   */\n              dup4\n                /* \"#utility.yul\":4083:4089   */\n              dup4\n                /* \"#utility.yul\":4049:4095   */\n              tag_246\n              jump\t// in\n            tag_335:\n                /* \"#utility.yul\":4127:4131   */\n              0x20\n                /* \"#utility.yul\":4122:4125   */\n              dup4\n                /* \"#utility.yul\":4118:4132   */\n              add\n                /* \"#utility.yul\":4104:4132   */\n              swap1\n              pop\n                /* \"#utility.yul\":3959:4138   */\n              swap3\n              swap2\n              pop\n              pop\n              jump\t// out\n                /* \"#utility.yul\":4144:4257   */\n            tag_248:\n                /* \"#utility.yul\":4214:4218   */\n              0x00\n                /* \"#utility.yul\":4246:4250   */\n              0x20\n                /* \"#utility.yul\":4241:4244   */\n              dup3\n                /* \"#utility.yul\":4237:4251   */\n              add\n                /* \"#utility.yul\":4229:4251   */\n              swap1\n              pop\n                /* \"#utility.yul\":4144:4257   */\n              swap2\n              swap1\n              pop\n              jump\t// out\n                /* \"#utility.yul\":4293:5025   */\n            tag_249:\n                /* \"#utility.yul\":4412:4415   */\n              0x00\n                /* \"#utility.yul\":4441:4495   */\n              tag_338\n                /* \"#utility.yul\":4489:4494   */\n              dup3\n                /* \"#utility.yul\":4441:4495   */\n              tag_243\n              jump\t// in\n            tag_338:\n                /* \"#utility.yul\":4511:4597   */\n              tag_339\n                /* \"#utility.yul\":4590:4596   */\n              dup2\n                /* \"#utility.yul\":4585:4588   */\n              dup6\n                /* \"#utility.yul\":4511:4597   */\n              tag_244\n              jump\t// in\n            tag_339:\n                /* \"#utility.yul\":4504:4597   */\n              swap4\n              pop\n                /* \"#utility.yul\":4621:4677   */\n              tag_340\n                /* \"#utility.yul\":4671:4676   */\n              dup4\n                /* \"#utility.yul\":4621:4677   */\n              tag_245\n              jump\t// in\n            tag_340:\n                /* \"#utility.yul\":4700:4707   */\n              dup1\n                /* \"#utility.yul\":4731:4732   */\n              0x00\n                /* \"#utility.yul\":4716:5000   */\n            tag_341:\n                /* \"#utility.yul\":4741:4747   */\n              dup4\n                /* \"#utility.yul\":4738:4739   */\n              dup2\n                /* \"#utility.yul\":4735:4748   */\n              lt\n                /* \"#utility.yul\":4716:5000   */\n              iszero\n              tag_343\n              jumpi\n                /* \"#utility.yul\":4817:4823   */\n              dup2\n                /* \"#utility.yul\":4811:4824   */\n              mload\n                /* \"#utility.yul\":4844:4907   */\n              tag_344\n                /* \"#utility.yul\":4903:4906   */\n              dup9\n                /* \"#utility.yul\":4888:4901   */\n              dup3\n                /* \"#utility.yul\":4844:4907   */\n              tag_247\n              jump\t// in\n            tag_344:\n                /* \"#utility.yul\":4837:4907   */\n              swap8\n              pop\n                /* \"#utility.yul\":4930:4990   */\n              tag_345\n                /* \"#utility.yul\":4983:4989   */\n              dup4\n                /* \"#utility.yul\":4930:4990   */\n              tag_248\n              jump\t// in\n            tag_345:\n                /* \"#utility.yul\":4920:4990   */\n              swap3\n              pop\n                /* \"#utility.yul\":4776:5000   */\n              pop\n                /* \"#utility.yul\":4763:4764   */\n              0x01\n                /* \"#utility.yul\":4760:4761   */\n              dup2\n                /* \"#utility.yul\":4756:4765   */\n              add\n                /* \"#utility.yul\":4751:4765   */\n              swap1\n              pop\n                /* \"#utility.yul\":4716:5000   */\n              jump(tag_341)\n            tag_343:\n                /* \"#utility.yul\":4720:4734   */\n              pop\n                /* \"#utility.yul\":5016:5019   */\n              dup6\n                /* \"#utility.yul\":5009:5019   */\n              swap4\n              pop\n                /* \"#utility.yul\":4417:5025   */\n              pop\n              pop\n              pop\n                /* \"#utility.yul\":4293:5025   */\n              swap3\n              swap2\n              pop\n              pop\n              jump\t// out\n                /* \"#utility.yul\":5031:6583   */\n            tag_45:\n                /* \"#utility.yul\":5466:5470   */\n              0x00\n                /* \"#utility.yul\":5504:5507   */\n              0x0140\n                /* \"#utility.yul\":5493:5502   */\n              dup3\n                /* \"#utility.yul\":5489:5508   */\n              add\n                /* \"#utility.yul\":5481:5508   */\n              swap1\n              pop\n                /* \"#utility.yul\":5518:5589   */\n              tag_347\n                /* \"#utility.yul\":5586:5587   */\n              0x00\n                /* \"#utility.yul\":5575:5584   */\n              dup4\n                /* \"#utility.yul\":5571:5588   */\n              add\n                /* \"#utility.yul\":5562:5568   */\n              dup14\n                /* \"#utility.yul\":5518:5589   */\n              tag_236\n              jump\t// in\n            tag_347:\n                /* \"#utility.yul\":5599:5671   */\n              tag_348\n                /* \"#utility.yul\":5667:5669   */\n              0x20\n                /* \"#utility.yul\":5656:5665   */\n              dup4\n                /* \"#utility.yul\":5652:5670   */\n              add\n                /* \"#utility.yul\":5643:5649   */\n              dup13\n                /* \"#utility.yul\":5599:5671   */\n              tag_236\n              jump\t// in\n            tag_348:\n                /* \"#utility.yul\":5681:5753   */\n              tag_349\n                /* \"#utility.yul\":5749:5751   */\n              0x40\n                /* \"#utility.yul\":5738:5747   */\n              dup4\n                /* \"#utility.yul\":5734:5752   */\n              add\n                /* \"#utility.yul\":5725:5731   */\n              dup12\n                /* \"#utility.yul\":5681:5753   */\n              tag_236\n              jump\t// in\n            tag_349:\n                /* \"#utility.yul\":5763:5835   */\n              tag_350\n                /* \"#utility.yul\":5831:5833   */\n              0x60\n                /* \"#utility.yul\":5820:5829   */\n              dup4\n                /* \"#utility.yul\":5816:5834   */\n              add\n                /* \"#utility.yul\":5807:5813   */\n              dup11\n                /* \"#utility.yul\":5763:5835   */\n              tag_242\n              jump\t// in\n            tag_350:\n                /* \"#utility.yul\":5845:5918   */\n              tag_351\n                /* \"#utility.yul\":5913:5916   */\n              0x80\n                /* \"#utility.yul\":5902:5911   */\n              dup4\n                /* \"#utility.yul\":5898:5917   */\n              add\n                /* \"#utility.yul\":5889:5895   */\n              dup10\n                /* \"#utility.yul\":5845:5918   */\n              tag_236\n              jump\t// in\n            tag_351:\n                /* \"#utility.yul\":5966:5975   */\n              dup2\n                /* \"#utility.yul\":5960:5964   */\n              dup2\n                /* \"#utility.yul\":5956:5976   */\n              sub\n                /* \"#utility.yul\":5950:5953   */\n              0xa0\n                /* \"#utility.yul\":5939:5948   */\n              dup4\n                /* \"#utility.yul\":5935:5954   */\n              add\n                /* \"#utility.yul\":5928:5977   */\n              mstore\n                /* \"#utility.yul\":5994:6072   */\n              tag_352\n                /* \"#utility.yul\":6067:6071   */\n              dup2\n                /* \"#utility.yul\":6058:6064   */\n              dup9\n                /* \"#utility.yul\":5994:6072   */\n              tag_241\n              jump\t// in\n            tag_352:\n                /* \"#utility.yul\":5986:6072   */\n              swap1\n              pop\n                /* \"#utility.yul\":6120:6129   */\n              dup2\n                /* \"#utility.yul\":6114:6118   */\n              dup2\n                /* \"#utility.yul\":6110:6130   */\n              sub\n                /* \"#utility.yul\":6104:6107   */\n              0xc0\n                /* \"#utility.yul\":6093:6102   */\n              dup4\n                /* \"#utility.yul\":6089:6108   */\n              add\n                /* \"#utility.yul\":6082:6131   */\n              mstore\n                /* \"#utility.yul\":6148:6226   */\n              tag_353\n                /* \"#utility.yul\":6221:6225   */\n              dup2\n                /* \"#utility.yul\":6212:6218   */\n              dup8\n                /* \"#utility.yul\":6148:6226   */\n              tag_241\n              jump\t// in\n            tag_353:\n                /* \"#utility.yul\":6140:6226   */\n              swap1\n              pop\n                /* \"#utility.yul\":6236:6309   */\n              tag_354\n                /* \"#utility.yul\":6304:6307   */\n              0xe0\n                /* \"#utility.yul\":6293:6302   */\n              dup4\n                /* \"#utility.yul\":6289:6308   */\n              add\n                /* \"#utility.yul\":6280:6286   */\n              dup7\n                /* \"#utility.yul\":6236:6309   */\n              tag_242\n              jump\t// in\n            tag_354:\n                /* \"#utility.yul\":6357:6366   */\n              dup2\n                /* \"#utility.yul\":6351:6355   */\n              dup2\n                /* \"#utility.yul\":6347:6367   */\n              sub\n                /* \"#utility.yul\":6341:6344   */\n              0x0100\n                /* \"#utility.yul\":6330:6339   */\n              dup4\n                /* \"#utility.yul\":6326:6345   */\n              add\n                /* \"#utility.yul\":6319:6368   */\n              mstore\n                /* \"#utility.yul\":6385:6493   */\n              tag_355\n                /* \"#utility.yul\":6488:6492   */\n              dup2\n                /* \"#utility.yul\":6479:6485   */\n              dup6\n                /* \"#utility.yul\":6385:6493   */\n              tag_249\n              jump\t// in\n            tag_355:\n                /* \"#utility.yul\":6377:6493   */\n              swap1\n              pop\n                /* \"#utility.yul\":6503:6576   */\n              tag_356\n                /* \"#utility.yul\":6571:6574   */\n              0x0120\n                /* \"#utility.yul\":6560:6569   */\n              dup4\n                /* \"#utility.yul\":6556:6575   */\n              add\n                /* \"#utility.yul\":6547:6553   */\n              dup5\n                /* \"#utility.yul\":6503:6576   */\n              tag_236\n              jump\t// in\n            tag_356:\n                /* \"#utility.yul\":5031:6583   */\n              swap12\n              swap11\n              pop\n              pop\n              pop\n              pop\n              pop\n              pop\n              pop\n              pop\n              pop\n              pop\n              pop\n              jump\t// out\n                /* \"#utility.yul\":6589:6811   */\n            tag_49:\n                /* \"#utility.yul\":6682:6686   */\n              0x00\n                /* \"#utility.yul\":6720:6722   */\n              0x20\n                /* \"#utility.yul\":6709:6718   */\n              dup3\n                /* \"#utility.yul\":6705:6723   */\n              add\n                /* \"#utility.yul\":6697:6723   */\n              swap1\n              pop\n                /* \"#utility.yul\":6733:6804   */\n              tag_358\n                /* \"#utility.yul\":6801:6802   */\n              0x00\n                /* \"#utility.yul\":6790:6799   */\n              dup4\n                /* \"#utility.yul\":6786:6803   */\n              add\n                /* \"#utility.yul\":6777:6783   */\n              dup5\n                /* \"#utility.yul\":6733:6804   */\n              tag_242\n              jump\t// in\n            tag_358:\n                /* \"#utility.yul\":6589:6811   */\n              swap3\n              swap2\n              pop\n              pop\n              jump\t// out\n                /* \"#utility.yul\":6817:6950   */\n            tag_250:\n                /* \"#utility.yul\":6903:6909   */\n              0x00\n                /* \"#utility.yul\":6937:6942   */\n              dup2\n                /* \"#utility.yul\":6931:6943   */\n              mload\n                /* \"#utility.yul\":6921:6943   */\n              swap1\n              pop\n                /* \"#utility.yul\":6817:6950   */\n              swap2\n              swap1\n              pop\n              jump\t// out\n                /* \"#utility.yul\":6956:7159   */\n            tag_251:\n                /* \"#utility.yul\":7074:7085   */\n              0x00\n                /* \"#utility.yul\":7108:7114   */\n              dup3\n                /* \"#utility.yul\":7103:7106   */\n              dup3\n                /* \"#utility.yul\":7096:7115   */\n              mstore\n                /* \"#utility.yul\":7148:7152   */\n              0x20\n                /* \"#utility.yul\":7143:7146   */\n              dup3\n                /* \"#utility.yul\":7139:7153   */\n              add\n                /* \"#utility.yul\":7124:7153   */\n              swap1\n              pop\n                /* \"#utility.yul\":6956:7159   */\n              swap3\n              swap2\n              pop\n              pop\n              jump\t// out\n                /* \"#utility.yul\":7165:7316   */\n            tag_252:\n                /* \"#utility.yul\":7251:7255   */\n              0x00\n                /* \"#utility.yul\":7274:7277   */\n              dup2\n                /* \"#utility.yul\":7266:7277   */\n              swap1\n              pop\n                /* \"#utility.yul\":7304:7308   */\n              0x20\n                /* \"#utility.yul\":7299:7302   */\n              dup3\n                /* \"#utility.yul\":7295:7309   */\n              add\n                /* \"#utility.yul\":7287:7309   */\n              swap1\n              pop\n                /* \"#utility.yul\":7165:7316   */\n              swap2\n              swap1\n              pop\n              jump\t// out\n                /* \"#utility.yul\":7322:7430   */\n            tag_253:\n                /* \"#utility.yul\":7399:7423   */\n              tag_363\n                /* \"#utility.yul\":7417:7422   */\n              dup2\n                /* \"#utility.yul\":7399:7423   */\n              tag_235\n              jump\t// in\n            tag_363:\n                /* \"#utility.yul\":7394:7397   */\n              dup3\n                /* \"#utility.yul\":7387:7424   */\n              mstore\n                /* \"#utility.yul\":7322:7430   */\n              pop\n              pop\n              jump\t// out\n                /* \"#utility.yul\":7486:8155   */\n            tag_254:\n                /* \"#utility.yul\":7611:7615   */\n              0x60\n                /* \"#utility.yul\":7606:7609   */\n              dup3\n                /* \"#utility.yul\":7602:7616   */\n              add\n                /* \"#utility.yul\":7699:7703   */\n              0x00\n                /* \"#utility.yul\":7692:7697   */\n              dup3\n                /* \"#utility.yul\":7688:7704   */\n              add\n                /* \"#utility.yul\":7682:7705   */\n              mload\n                /* \"#utility.yul\":7718:7781   */\n              tag_365\n                /* \"#utility.yul\":7775:7779   */\n              0x00\n                /* \"#utility.yul\":7770:7773   */\n              dup6\n                /* \"#utility.yul\":7766:7780   */\n              add\n                /* \"#utility.yul\":7752:7764   */\n              dup3\n                /* \"#utility.yul\":7718:7781   */\n              tag_253\n              jump\t// in\n            tag_365:\n                /* \"#utility.yul\":7626:7791   */\n              pop\n                /* \"#utility.yul\":7873:7877   */\n              0x20\n                /* \"#utility.yul\":7866:7871   */\n              dup3\n                /* \"#utility.yul\":7862:7878   */\n              add\n                /* \"#utility.yul\":7856:7879   */\n              mload\n                /* \"#utility.yul\":7892:7955   */\n              tag_366\n                /* \"#utility.yul\":7949:7953   */\n              0x20\n                /* \"#utility.yul\":7944:7947   */\n              dup6\n                /* \"#utility.yul\":7940:7954   */\n              add\n                /* \"#utility.yul\":7926:7938   */\n              dup3\n                /* \"#utility.yul\":7892:7955   */\n              tag_253\n              jump\t// in\n            tag_366:\n                /* \"#utility.yul\":7801:7965   */\n              pop\n                /* \"#utility.yul\":8056:8060   */\n              0x40\n                /* \"#utility.yul\":8049:8054   */\n              dup3\n                /* \"#utility.yul\":8045:8061   */\n              add\n                /* \"#utility.yul\":8039:8062   */\n              mload\n                /* \"#utility.yul\":8075:8138   */\n              tag_367\n                /* \"#utility.yul\":8132:8136   */\n              0x40\n                /* \"#utility.yul\":8127:8130   */\n              dup6\n                /* \"#utility.yul\":8123:8137   */\n              add\n                /* \"#utility.yul\":8109:8121   */\n              dup3\n                /* \"#utility.yul\":8075:8138   */\n              tag_246\n              jump\t// in\n            tag_367:\n                /* \"#utility.yul\":7975:8148   */\n              pop\n                /* \"#utility.yul\":7580:8155   */\n              pop\n                /* \"#utility.yul\":7486:8155   */\n              pop\n              pop\n              jump\t// out\n                /* \"#utility.yul\":8161:8416   */\n            tag_255:\n                /* \"#utility.yul\":8268:8278   */\n              0x00\n                /* \"#utility.yul\":8289:8373   */\n              tag_369\n                /* \"#utility.yul\":8369:8372   */\n              dup4\n                /* \"#utility.yul\":8361:8367   */\n              dup4\n                /* \"#utility.yul\":8289:8373   */\n              tag_254\n              jump\t// in\n            tag_369:\n                /* \"#utility.yul\":8405:8409   */\n              0x60\n                /* \"#utility.yul\":8400:8403   */\n              dup4\n                /* \"#utility.yul\":8396:8410   */\n              add\n                /* \"#utility.yul\":8382:8410   */\n              swap1\n              pop\n                /* \"#utility.yul\":8161:8416   */\n              swap3\n              swap2\n              pop\n              pop\n              jump\t// out\n                /* \"#utility.yul\":8422:8554   */\n            tag_256:\n                /* \"#utility.yul\":8511:8515   */\n              0x00\n                /* \"#utility.yul\":8543:8547   */\n              0x20\n                /* \"#utility.yul\":8538:8541   */\n              dup3\n                /* \"#utility.yul\":8534:8548   */\n              add\n                /* \"#utility.yul\":8526:8548   */\n              swap1\n              pop\n                /* \"#utility.yul\":8422:8554   */\n              swap2\n              swap1\n              pop\n              jump\t// out\n                /* \"#utility.yul\":8614:9498   */\n            tag_257:\n                /* \"#utility.yul\":8771:8774   */\n              0x00\n                /* \"#utility.yul\":8800:8873   */\n              tag_372\n                /* \"#utility.yul\":8867:8872   */\n              dup3\n                /* \"#utility.yul\":8800:8873   */\n              tag_250\n              jump\t// in\n            tag_372:\n                /* \"#utility.yul\":8889:8994   */\n              tag_373\n                /* \"#utility.yul\":8987:8993   */\n              dup2\n                /* \"#utility.yul\":8982:8985   */\n              dup6\n                /* \"#utility.yul\":8889:8994   */\n              tag_251\n              jump\t// in\n            tag_373:\n                /* \"#utility.yul\":8882:8994   */\n              swap4\n              pop\n                /* \"#utility.yul\":9018:9093   */\n              tag_374\n                /* \"#utility.yul\":9087:9092   */\n              dup4\n                /* \"#utility.yul\":9018:9093   */\n              tag_252\n              jump\t// in\n            tag_374:\n                /* \"#utility.yul\":9116:9123   */\n              dup1\n                /* \"#utility.yul\":9147:9148   */\n              0x00\n                /* \"#utility.yul\":9132:9473   */\n            tag_375:\n                /* \"#utility.yul\":9157:9163   */\n              dup4\n                /* \"#utility.yul\":9154:9155   */\n              dup2\n                /* \"#utility.yul\":9151:9164   */\n              lt\n                /* \"#utility.yul\":9132:9473   */\n              iszero\n              tag_377\n              jumpi\n                /* \"#utility.yul\":9233:9239   */\n              dup2\n                /* \"#utility.yul\":9227:9240   */\n              mload\n                /* \"#utility.yul\":9260:9361   */\n              tag_378\n                /* \"#utility.yul\":9357:9360   */\n              dup9\n                /* \"#utility.yul\":9342:9355   */\n              dup3\n                /* \"#utility.yul\":9260:9361   */\n              tag_255\n              jump\t// in\n            tag_378:\n                /* \"#utility.yul\":9253:9361   */\n              swap8\n              pop\n                /* \"#utility.yul\":9384:9463   */\n              tag_379\n                /* \"#utility.yul\":9456:9462   */\n              dup4\n                /* \"#utility.yul\":9384:9463   */\n              tag_256\n              jump\t// in\n            tag_379:\n                /* \"#utility.yul\":9374:9463   */\n              swap3\n              pop\n                /* \"#utility.yul\":9192:9473   */\n              pop\n                /* \"#utility.yul\":9179:9180   */\n              0x01\n                /* \"#utility.yul\":9176:9177   */\n              dup2\n                /* \"#utility.yul\":9172:9181   */\n              add\n                /* \"#utility.yul\":9167:9181   */\n              swap1\n              pop\n                /* \"#utility.yul\":9132:9473   */\n              jump(tag_375)\n            tag_377:\n                /* \"#utility.yul\":9136:9150   */\n              pop\n                /* \"#utility.yul\":9489:9492   */\n              dup6\n                /* \"#utility.yul\":9482:9492   */\n              swap4\n              pop\n                /* \"#utility.yul\":8776:9498   */\n              pop\n              pop\n              pop\n                /* \"#utility.yul\":8614:9498   */\n              swap3\n              swap2\n              pop\n              pop\n              jump\t// out\n                /* \"#utility.yul\":9504:9953   */\n            tag_72:\n                /* \"#utility.yul\":9685:9689   */\n              0x00\n                /* \"#utility.yul\":9723:9725   */\n              0x20\n                /* \"#utility.yul\":9712:9721   */\n              dup3\n                /* \"#utility.yul\":9708:9726   */\n              add\n                /* \"#utility.yul\":9700:9726   */\n              swap1\n              pop\n                /* \"#utility.yul\":9772:9781   */\n              dup2\n                /* \"#utility.yul\":9766:9770   */\n              dup2\n                /* \"#utility.yul\":9762:9782   */\n              sub\n                /* \"#utility.yul\":9758:9759   */\n              0x00\n                /* \"#utility.yul\":9747:9756   */\n              dup4\n                /* \"#utility.yul\":9743:9760   */\n              add\n                /* \"#utility.yul\":9736:9783   */\n              mstore\n                /* \"#utility.yul\":9800:9946   */\n              tag_381\n                /* \"#utility.yul\":9941:9945   */\n              dup2\n                /* \"#utility.yul\":9932:9938   */\n              dup5\n                /* \"#utility.yul\":9800:9946   */\n              tag_257\n              jump\t// in\n            tag_381:\n                /* \"#utility.yul\":9792:9946   */\n              swap1\n              pop\n                /* \"#utility.yul\":9504:9953   */\n              swap3\n              swap2\n              pop\n              pop\n              jump\t// out\n                /* \"#utility.yul\":9959:10081   */\n            tag_258:\n                /* \"#utility.yul\":10032:10056   */\n              tag_383\n                /* \"#utility.yul\":10050:10055   */\n              dup2\n                /* \"#utility.yul\":10032:10056   */\n              tag_235\n              jump\t// in\n            tag_383:\n                /* \"#utility.yul\":10025:10030   */\n              dup2\n                /* \"#utility.yul\":10022:10057   */\n              eq\n                /* \"#utility.yul\":10012:10075   */\n              tag_384\n              jumpi\n                /* \"#utility.yul\":10071:10072   */\n              0x00\n                /* \"#utility.yul\":10068:10069   */\n              0x00\n                /* \"#utility.yul\":10061:10073   */\n              revert\n                /* \"#utility.yul\":10012:10075   */\n            tag_384:\n                /* \"#utility.yul\":9959:10081   */\n              pop\n              jump\t// out\n                /* \"#utility.yul\":10087:10226   */\n            tag_259:\n                /* \"#utility.yul\":10133:10138   */\n              0x00\n                /* \"#utility.yul\":10171:10177   */\n              dup2\n                /* \"#utility.yul\":10158:10178   */\n              calldataload\n                /* \"#utility.yul\":10149:10178   */\n              swap1\n              pop\n                /* \"#utility.yul\":10187:10220   */\n              tag_386\n                /* \"#utility.yul\":10214:10219   */\n              dup2\n                /* \"#utility.yul\":10187:10220   */\n              tag_258\n              jump\t// in\n            tag_386:\n                /* \"#utility.yul\":10087:10226   */\n              swap3\n              swap2\n              pop\n              pop\n              jump\t// out\n                /* \"#utility.yul\":10232:10561   */\n            tag_83:\n                /* \"#utility.yul\":10291:10297   */\n              0x00\n                /* \"#utility.yul\":10340:10342   */\n              0x20\n                /* \"#utility.yul\":10328:10337   */\n              dup3\n                /* \"#utility.yul\":10319:10326   */\n              dup5\n                /* \"#utility.yul\":10315:10338   */\n              sub\n                /* \"#utility.yul\":10311:10343   */\n              slt\n                /* \"#utility.yul\":10308:10427   */\n              iszero\n              tag_388\n              jumpi\n                /* \"#utility.yul\":10346:10425   */\n              tag_389\n              tag_227\n              jump\t// in\n            tag_389:\n                /* \"#utility.yul\":10308:10427   */\n            tag_388:\n                /* \"#utility.yul\":10466:10467   */\n              0x00\n                /* \"#utility.yul\":10491:10544   */\n              tag_390\n                /* \"#utility.yul\":10536:10543   */\n              dup5\n                /* \"#utility.yul\":10527:10533   */\n              dup3\n                /* \"#utility.yul\":10516:10525   */\n              dup6\n                /* \"#utility.yul\":10512:10534   */\n              add\n                /* \"#utility.yul\":10491:10544   */\n              tag_259\n              jump\t// in\n            tag_390:\n                /* \"#utility.yul\":10481:10544   */\n              swap2\n              pop\n                /* \"#utility.yul\":10437:10554   */\n              pop\n                /* \"#utility.yul\":10232:10561   */\n              swap3\n              swap2\n              pop\n              pop\n              jump\t// out\n                /* \"#utility.yul\":10567:11009   */\n            tag_86:\n                /* \"#utility.yul\":10716:10720   */\n              0x00\n                /* \"#utility.yul\":10754:10756   */\n              0x60\n                /* \"#utility.yul\":10743:10752   */\n              dup3\n                /* \"#utility.yul\":10739:10757   */\n              add\n                /* \"#utility.yul\":10731:10757   */\n              swap1\n              pop\n                /* \"#utility.yul\":10767:10838   */\n              tag_392\n                /* \"#utility.yul\":10835:10836   */\n              0x00\n                /* \"#utility.yul\":10824:10833   */\n              dup4\n                /* \"#utility.yul\":10820:10837   */\n              add\n                /* \"#utility.yul\":10811:10817   */\n              dup7\n                /* \"#utility.yul\":10767:10838   */\n              tag_236\n              jump\t// in\n            tag_392:\n                /* \"#utility.yul\":10848:10920   */\n              tag_393\n                /* \"#utility.yul\":10916:10918   */\n              0x20\n                /* \"#utility.yul\":10905:10914   */\n              dup4\n                /* \"#utility.yul\":10901:10919   */\n              add\n                /* \"#utility.yul\":10892:10898   */\n              dup6\n                /* \"#utility.yul\":10848:10920   */\n              tag_236\n              jump\t// in\n            tag_393:\n                /* \"#utility.yul\":10930:11002   */\n              tag_394\n                /* \"#utility.yul\":10998:11000   */\n              0x40\n                /* \"#utility.yul\":10987:10996   */\n              dup4\n                /* \"#utility.yul\":10983:11001   */\n              add\n                /* \"#utility.yul\":10974:10980   */\n              dup5\n                /* \"#utility.yul\":10930:11002   */\n              tag_242\n              jump\t// in\n            tag_394:\n                /* \"#utility.yul\":10567:11009   */\n              swap5\n              swap4\n              pop\n              pop\n              pop\n              pop\n              jump\t// out\n                /* \"#utility.yul\":11015:11388   */\n            tag_90:\n                /* \"#utility.yul\":11158:11162   */\n              0x00\n                /* \"#utility.yul\":11196:11198   */\n              0x20\n                /* \"#utility.yul\":11185:11194   */\n              dup3\n                /* \"#utility.yul\":11181:11199   */\n              add\n                /* \"#utility.yul\":11173:11199   */\n              swap1\n              pop\n                /* \"#utility.yul\":11245:11254   */\n              dup2\n                /* \"#utility.yul\":11239:11243   */\n              dup2\n                /* \"#utility.yul\":11235:11255   */\n              sub\n                /* \"#utility.yul\":11231:11232   */\n              0x00\n                /* \"#utility.yul\":11220:11229   */\n              dup4\n                /* \"#utility.yul\":11216:11233   */\n              add\n                /* \"#utility.yul\":11209:11256   */\n              mstore\n                /* \"#utility.yul\":11273:11381   */\n              tag_396\n                /* \"#utility.yul\":11376:11380   */\n              dup2\n                /* \"#utility.yul\":11367:11373   */\n              dup5\n                /* \"#utility.yul\":11273:11381   */\n              tag_249\n              jump\t// in\n            tag_396:\n                /* \"#utility.yul\":11265:11381   */\n              swap1\n              pop\n                /* \"#utility.yul\":11015:11388   */\n              swap3\n              swap2\n              pop\n              pop\n              jump\t// out\n                /* \"#utility.yul\":11394:11454   */\n            tag_260:\n                /* \"#utility.yul\":11422:11425   */\n              0x00\n                /* \"#utility.yul\":11443:11448   */\n              dup2\n                /* \"#utility.yul\":11436:11448   */\n              swap1\n              pop\n                /* \"#utility.yul\":11394:11454   */\n              swap2\n              swap1\n              pop\n              jump\t// out\n                /* \"#utility.yul\":11460:11602   */\n            tag_261:\n                /* \"#utility.yul\":11510:11519   */\n              0x00\n                /* \"#utility.yul\":11543:11596   */\n              tag_399\n                /* \"#utility.yul\":11561:11595   */\n              tag_400\n                /* \"#utility.yul\":11570:11594   */\n              tag_401\n                /* \"#utility.yul\":11588:11593   */\n              dup5\n                /* \"#utility.yul\":11570:11594   */\n              tag_229\n              jump\t// in\n            tag_401:\n                /* \"#utility.yul\":11561:11595   */\n              tag_260\n              jump\t// in\n            tag_400:\n                /* \"#utility.yul\":11543:11596   */\n              tag_229\n              jump\t// in\n            tag_399:\n                /* \"#utility.yul\":11530:11596   */\n              swap1\n              pop\n                /* \"#utility.yul\":11460:11602   */\n              swap2\n              swap1\n              pop\n              jump\t// out\n                /* \"#utility.yul\":11608:11734   */\n            tag_262:\n                /* \"#utility.yul\":11658:11667   */\n              0x00\n                /* \"#utility.yul\":11691:11728   */\n              tag_403\n                /* \"#utility.yul\":11722:11727   */\n              dup3\n                /* \"#utility.yul\":11691:11728   */\n              tag_261\n              jump\t// in\n            tag_403:\n                /* \"#utility.yul\":11678:11728   */\n              swap1\n              pop\n                /* \"#utility.yul\":11608:11734   */\n              swap2\n              swap1\n              pop\n              jump\t// out\n                /* \"#utility.yul\":11740:11880   */\n            tag_263:\n                /* \"#utility.yul\":11804:11813   */\n              0x00\n                /* \"#utility.yul\":11837:11874   */\n              tag_405\n                /* \"#utility.yul\":11868:11873   */\n              dup3\n                /* \"#utility.yul\":11837:11874   */\n              tag_262\n              jump\t// in\n            tag_405:\n                /* \"#utility.yul\":11824:11874   */\n              swap1\n              pop\n                /* \"#utility.yul\":11740:11880   */\n              swap2\n              swap1\n              pop\n              jump\t// out\n                /* \"#utility.yul\":11886:12045   */\n            tag_264:\n                /* \"#utility.yul\":11987:12038   */\n              tag_407\n                /* \"#utility.yul\":12032:12037   */\n              dup2\n                /* \"#utility.yul\":11987:12038   */\n              tag_263\n              jump\t// in\n            tag_407:\n                /* \"#utility.yul\":11982:11985   */\n              dup3\n                /* \"#utility.yul\":11975:12039   */\n              mstore\n                /* \"#utility.yul\":11886:12045   */\n              pop\n              pop\n              jump\t// out\n                /* \"#utility.yul\":12051:12301   */\n            tag_108:\n                /* \"#utility.yul\":12158:12162   */\n              0x00\n                /* \"#utility.yul\":12196:12198   */\n              0x20\n                /* \"#utility.yul\":12185:12194   */\n              dup3\n                /* \"#utility.yul\":12181:12199   */\n              add\n                /* \"#utility.yul\":12173:12199   */\n              swap1\n              pop\n                /* \"#utility.yul\":12209:12294   */\n              tag_409\n                /* \"#utility.yul\":12291:12292   */\n              0x00\n                /* \"#utility.yul\":12280:12289   */\n              dup4\n                /* \"#utility.yul\":12276:12293   */\n              add\n                /* \"#utility.yul\":12267:12273   */\n              dup5\n                /* \"#utility.yul\":12209:12294   */\n              tag_264\n              jump\t// in\n            tag_409:\n                /* \"#utility.yul\":12051:12301   */\n              swap3\n              swap2\n              pop\n              pop\n              jump\t// out\n                /* \"#utility.yul\":12307:12478   */\n            tag_265:\n                /* \"#utility.yul\":12447:12470   */\n              0x41756374696f6e206e6f742066696e616c697a65640000000000000000000000\n                /* \"#utility.yul\":12443:12444   */\n              0x00\n                /* \"#utility.yul\":12435:12441   */\n              dup3\n                /* \"#utility.yul\":12431:12445   */\n              add\n                /* \"#utility.yul\":12424:12471   */\n              mstore\n                /* \"#utility.yul\":12307:12478   */\n              pop\n              jump\t// out\n                /* \"#utility.yul\":12484:12850   */\n            tag_266:\n                /* \"#utility.yul\":12626:12629   */\n              0x00\n                /* \"#utility.yul\":12647:12714   */\n              tag_412\n                /* \"#utility.yul\":12711:12713   */\n              0x15\n                /* \"#utility.yul\":12706:12709   */\n              dup4\n                /* \"#utility.yul\":12647:12714   */\n              tag_238\n              jump\t// in\n            tag_412:\n                /* \"#utility.yul\":12640:12714   */\n              swap2\n              pop\n                /* \"#utility.yul\":12723:12816   */\n              tag_413\n                /* \"#utility.yul\":12812:12815   */\n              dup3\n                /* \"#utility.yul\":12723:12816   */\n              tag_265\n              jump\t// in\n            tag_413:\n                /* \"#utility.yul\":12841:12843   */\n              0x20\n                /* \"#utility.yul\":12836:12839   */\n              dup3\n                /* \"#utility.yul\":12832:12844   */\n              add\n                /* \"#utility.yul\":12825:12844   */\n              swap1\n              pop\n                /* \"#utility.yul\":12484:12850   */\n              swap2\n              swap1\n              pop\n              jump\t// out\n                /* \"#utility.yul\":12856:13275   */\n            tag_112:\n                /* \"#utility.yul\":13022:13026   */\n              0x00\n                /* \"#utility.yul\":13060:13062   */\n              0x20\n                /* \"#utility.yul\":13049:13058   */\n              dup3\n                /* \"#utility.yul\":13045:13063   */\n              add\n                /* \"#utility.yul\":13037:13063   */\n              swap1\n              pop\n                /* \"#utility.yul\":13109:13118   */\n              dup2\n                /* \"#utility.yul\":13103:13107   */\n              dup2\n                /* \"#utility.yul\":13099:13119   */\n              sub\n                /* \"#utility.yul\":13095:13096   */\n              0x00\n                /* \"#utility.yul\":13084:13093   */\n              dup4\n                /* \"#utility.yul\":13080:13097   */\n              add\n                /* \"#utility.yul\":13073:13120   */\n              mstore\n                /* \"#utility.yul\":13137:13268   */\n              tag_415\n                /* \"#utility.yul\":13263:13267   */\n              dup2\n                /* \"#utility.yul\":13137:13268   */\n              tag_266\n              jump\t// in\n            tag_415:\n                /* \"#utility.yul\":13129:13268   */\n              swap1\n              pop\n                /* \"#utility.yul\":12856:13275   */\n              swap2\n              swap1\n              pop\n              jump\t// out\n                /* \"#utility.yul\":13281:13462   */\n            tag_267:\n                /* \"#utility.yul\":13421:13454   */\n              0x4f6e6c792077696e6e65722063616e2061636365737320746865206461746100\n                /* \"#utility.yul\":13417:13418   */\n              0x00\n                /* \"#utility.yul\":13409:13415   */\n              dup3\n                /* \"#utility.yul\":13405:13419   */\n              add\n                /* \"#utility.yul\":13398:13455   */\n              mstore\n                /* \"#utility.yul\":13281:13462   */\n              pop\n              jump\t// out\n                /* \"#utility.yul\":13468:13834   */\n            tag_268:\n                /* \"#utility.yul\":13610:13613   */\n              0x00\n                /* \"#utility.yul\":13631:13698   */\n              tag_418\n                /* \"#utility.yul\":13695:13697   */\n              0x1f\n                /* \"#utility.yul\":13690:13693   */\n              dup4\n                /* \"#utility.yul\":13631:13698   */\n              tag_238\n              jump\t// in\n            tag_418:\n                /* \"#utility.yul\":13624:13698   */\n              swap2\n              pop\n                /* \"#utility.yul\":13707:13800   */\n              tag_419\n                /* \"#utility.yul\":13796:13799   */\n              dup3\n                /* \"#utility.yul\":13707:13800   */\n              tag_267\n              jump\t// in\n            tag_419:\n                /* \"#utility.yul\":13825:13827   */\n              0x20\n                /* \"#utility.yul\":13820:13823   */\n              dup3\n                /* \"#utility.yul\":13816:13828   */\n              add\n                /* \"#utility.yul\":13809:13828   */\n              swap1\n              pop\n                /* \"#utility.yul\":13468:13834   */\n              swap2\n              swap1\n              pop\n              jump\t// out\n                /* \"#utility.yul\":13840:14259   */\n            tag_115:\n                /* \"#utility.yul\":14006:14010   */\n              0x00\n                /* \"#utility.yul\":14044:14046   */\n              0x20\n                /* \"#utility.yul\":14033:14042   */\n              dup3\n                /* \"#utility.yul\":14029:14047   */\n              add\n                /* \"#utility.yul\":14021:14047   */\n              swap1\n              pop\n                /* \"#utility.yul\":14093:14102   */\n              dup2\n                /* \"#utility.yul\":14087:14091   */\n              dup2\n                /* \"#utility.yul\":14083:14103   */\n              sub\n                /* \"#utility.yul\":14079:14080   */\n              0x00\n                /* \"#utility.yul\":14068:14077   */\n              dup4\n                /* \"#utility.yul\":14064:14081   */\n              add\n                /* \"#utility.yul\":14057:14104   */\n              mstore\n                /* \"#utility.yul\":14121:14252   */\n              tag_421\n                /* \"#utility.yul\":14247:14251   */\n              dup2\n                /* \"#utility.yul\":14121:14252   */\n              tag_268\n              jump\t// in\n            tag_421:\n                /* \"#utility.yul\":14113:14252   */\n              swap1\n              pop\n                /* \"#utility.yul\":13840:14259   */\n              swap2\n              swap1\n              pop\n              jump\t// out\n                /* \"#utility.yul\":14265:14445   */\n            tag_269:\n                /* \"#utility.yul\":14313:14390   */\n              0x4e487b7100000000000000000000000000000000000000000000000000000000\n                /* \"#utility.yul\":14310:14311   */\n              0x00\n                /* \"#utility.yul\":14303:14391   */\n              mstore\n                /* \"#utility.yul\":14410:14414   */\n              0x22\n                /* \"#utility.yul\":14407:14408   */\n              0x04\n                /* \"#utility.yul\":14400:14415   */\n              mstore\n                /* \"#utility.yul\":14434:14438   */\n              0x24\n                /* \"#utility.yul\":14431:14432   */\n              0x00\n                /* \"#utility.yul\":14424:14439   */\n              revert\n                /* \"#utility.yul\":14451:14771   */\n            tag_117:\n                /* \"#utility.yul\":14495:14501   */\n              0x00\n                /* \"#utility.yul\":14532:14533   */\n              0x02\n                /* \"#utility.yul\":14526:14530   */\n              dup3\n                /* \"#utility.yul\":14522:14534   */\n              div\n                /* \"#utility.yul\":14512:14534   */\n              swap1\n              pop\n                /* \"#utility.yul\":14579:14580   */\n              0x01\n                /* \"#utility.yul\":14573:14577   */\n              dup3\n                /* \"#utility.yul\":14569:14581   */\n              and\n                /* \"#utility.yul\":14600:14618   */\n              dup1\n                /* \"#utility.yul\":14590:14671   */\n              tag_424\n              jumpi\n                /* \"#utility.yul\":14656:14660   */\n              0x7f\n                /* \"#utility.yul\":14648:14654   */\n              dup3\n                /* \"#utility.yul\":14644:14661   */\n              and\n                /* \"#utility.yul\":14634:14661   */\n              swap2\n              pop\n                /* \"#utility.yul\":14590:14671   */\n            tag_424:\n                /* \"#utility.yul\":14718:14720   */\n              0x20\n                /* \"#utility.yul\":14710:14716   */\n              dup3\n                /* \"#utility.yul\":14707:14721   */\n              lt\n                /* \"#utility.yul\":14687:14705   */\n              dup2\n                /* \"#utility.yul\":14684:14722   */\n              sub\n                /* \"#utility.yul\":14681:14765   */\n              tag_425\n              jumpi\n                /* \"#utility.yul\":14737:14755   */\n              tag_426\n              tag_269\n              jump\t// in\n            tag_426:\n                /* \"#utility.yul\":14681:14765   */\n            tag_425:\n                /* \"#utility.yul\":14502:14771   */\n              pop\n                /* \"#utility.yul\":14451:14771   */\n              swap2\n              swap1\n              pop\n              jump\t// out\n                /* \"#utility.yul\":14777:14920   */\n            tag_270:\n                /* \"#utility.yul\":14834:14839   */\n              0x00\n                /* \"#utility.yul\":14865:14871   */\n              dup2\n                /* \"#utility.yul\":14859:14872   */\n              mload\n                /* \"#utility.yul\":14850:14872   */\n              swap1\n              pop\n                /* \"#utility.yul\":14881:14914   */\n              tag_428\n                /* \"#utility.yul\":14908:14913   */\n              dup2\n                /* \"#utility.yul\":14881:14914   */\n              tag_258\n              jump\t// in\n            tag_428:\n                /* \"#utility.yul\":14777:14920   */\n              swap3\n              swap2\n              pop\n              pop\n              jump\t// out\n                /* \"#utility.yul\":14926:15277   */\n            tag_127:\n                /* \"#utility.yul\":14996:15002   */\n              0x00\n                /* \"#utility.yul\":15045:15047   */\n              0x20\n                /* \"#utility.yul\":15033:15042   */\n              dup3\n                /* \"#utility.yul\":15024:15031   */\n              dup5\n                /* \"#utility.yul\":15020:15043   */\n              sub\n                /* \"#utility.yul\":15016:15048   */\n              slt\n                /* \"#utility.yul\":15013:15132   */\n              iszero\n              tag_430\n              jumpi\n                /* \"#utility.yul\":15051:15130   */\n              tag_431\n              tag_227\n              jump\t// in\n            tag_431:\n                /* \"#utility.yul\":15013:15132   */\n            tag_430:\n                /* \"#utility.yul\":15171:15172   */\n              0x00\n                /* \"#utility.yul\":15196:15260   */\n              tag_432\n                /* \"#utility.yul\":15252:15259   */\n              dup5\n                /* \"#utility.yul\":15243:15249   */\n              dup3\n                /* \"#utility.yul\":15232:15241   */\n              dup6\n                /* \"#utility.yul\":15228:15250   */\n              add\n                /* \"#utility.yul\":15196:15260   */\n              tag_270\n              jump\t// in\n            tag_432:\n                /* \"#utility.yul\":15186:15260   */\n              swap2\n              pop\n                /* \"#utility.yul\":15142:15270   */\n              pop\n                /* \"#utility.yul\":14926:15277   */\n              swap3\n              swap2\n              pop\n              pop\n              jump\t// out\n                /* \"#utility.yul\":15283:15454   */\n            tag_271:\n                /* \"#utility.yul\":15423:15446   */\n              0x41756374696f6e206e6f7420656e646564207965740000000000000000000000\n                /* \"#utility.yul\":15419:15420   */\n              0x00\n                /* \"#utility.yul\":15411:15417   */\n              dup3\n                /* \"#utility.yul\":15407:15421   */\n              add\n                /* \"#utility.yul\":15400:15447   */\n              mstore\n                /* \"#utility.yul\":15283:15454   */\n              pop\n              jump\t// out\n                /* \"#utility.yul\":15460:15826   */\n            tag_272:\n                /* \"#utility.yul\":15602:15605   */\n              0x00\n                /* \"#utility.yul\":15623:15690   */\n              tag_435\n                /* \"#utility.yul\":15687:15689   */\n              0x15\n                /* \"#utility.yul\":15682:15685   */\n              dup4\n                /* \"#utility.yul\":15623:15690   */\n              tag_238\n              jump\t// in\n            tag_435:\n                /* \"#utility.yul\":15616:15690   */\n              swap2\n              pop\n                /* \"#utility.yul\":15699:15792   */\n              tag_436\n                /* \"#utility.yul\":15788:15791   */\n              dup3\n                /* \"#utility.yul\":15699:15792   */\n              tag_271\n              jump\t// in\n            tag_436:\n                /* \"#utility.yul\":15817:15819   */\n              0x20\n                /* \"#utility.yul\":15812:15815   */\n              dup3\n                /* \"#utility.yul\":15808:15820   */\n              add\n                /* \"#utility.yul\":15801:15820   */\n              swap1\n              pop\n                /* \"#utility.yul\":15460:15826   */\n              swap2\n              swap1\n              pop\n              jump\t// out\n                /* \"#utility.yul\":15832:16251   */\n            tag_158:\n                /* \"#utility.yul\":15998:16002   */\n              0x00\n                /* \"#utility.yul\":16036:16038   */\n              0x20\n                /* \"#utility.yul\":16025:16034   */\n              dup3\n                /* \"#utility.yul\":16021:16039   */\n              add\n                /* \"#utility.yul\":16013:16039   */\n              swap1\n              pop\n                /* \"#utility.yul\":16085:16094   */\n              dup2\n                /* \"#utility.yul\":16079:16083   */\n              dup2\n                /* \"#utility.yul\":16075:16095   */\n              sub\n                /* \"#utility.yul\":16071:16072   */\n              0x00\n                /* \"#utility.yul\":16060:16069   */\n              dup4\n                /* \"#utility.yul\":16056:16073   */\n              add\n                /* \"#utility.yul\":16049:16096   */\n              mstore\n                /* \"#utility.yul\":16113:16244   */\n              tag_438\n                /* \"#utility.yul\":16239:16243   */\n              dup2\n                /* \"#utility.yul\":16113:16244   */\n              tag_272\n              jump\t// in\n            tag_438:\n                /* \"#utility.yul\":16105:16244   */\n              swap1\n              pop\n                /* \"#utility.yul\":15832:16251   */\n              swap2\n              swap1\n              pop\n              jump\t// out\n                /* \"#utility.yul\":16257:16432   */\n            tag_273:\n                /* \"#utility.yul\":16397:16424   */\n              0x41756374696f6e20616c72656164792066696e616c697a656400000000000000\n                /* \"#utility.yul\":16393:16394   */\n              0x00\n                /* \"#utility.yul\":16385:16391   */\n              dup3\n                /* \"#utility.yul\":16381:16395   */\n              add\n                /* \"#utility.yul\":16374:16425   */\n              mstore\n                /* \"#utility.yul\":16257:16432   */\n              pop\n              jump\t// out\n                /* \"#utility.yul\":16438:16804   */\n            tag_274:\n                /* \"#utility.yul\":16580:16583   */\n              0x00\n                /* \"#utility.yul\":16601:16668   */\n              tag_441\n                /* \"#utility.yul\":16665:16667   */\n              0x19\n                /* \"#utility.yul\":16660:16663   */\n              dup4\n                /* \"#utility.yul\":16601:16668   */\n              tag_238\n              jump\t// in\n            tag_441:\n                /* \"#utility.yul\":16594:16668   */\n              swap2\n              pop\n                /* \"#utility.yul\":16677:16770   */\n              tag_442\n                /* \"#utility.yul\":16766:16769   */\n              dup3\n                /* \"#utility.yul\":16677:16770   */\n              tag_273\n              jump\t// in\n            tag_442:\n                /* \"#utility.yul\":16795:16797   */\n              0x20\n                /* \"#utility.yul\":16790:16793   */\n              dup3\n                /* \"#utility.yul\":16786:16798   */\n              add\n                /* \"#utility.yul\":16779:16798   */\n              swap1\n              pop\n                /* \"#utility.yul\":16438:16804   */\n              swap2\n              swap1\n              pop\n              jump\t// out\n                /* \"#utility.yul\":16810:17229   */\n            tag_162:\n                /* \"#utility.yul\":16976:16980   */\n              0x00\n                /* \"#utility.yul\":17014:17016   */\n              0x20\n                /* \"#utility.yul\":17003:17012   */\n              dup3\n                /* \"#utility.yul\":16999:17017   */\n              add\n                /* \"#utility.yul\":16991:17017   */\n              swap1\n              pop\n                /* \"#utility.yul\":17063:17072   */\n              dup2\n                /* \"#utility.yul\":17057:17061   */\n              dup2\n                /* \"#utility.yul\":17053:17073   */\n              sub\n                /* \"#utility.yul\":17049:17050   */\n              0x00\n                /* \"#utility.yul\":17038:17047   */\n              dup4\n                /* \"#utility.yul\":17034:17051   */\n              add\n                /* \"#utility.yul\":17027:17074   */\n              mstore\n                /* \"#utility.yul\":17091:17222   */\n              tag_444\n                /* \"#utility.yul\":17217:17221   */\n              dup2\n                /* \"#utility.yul\":17091:17222   */\n              tag_274\n              jump\t// in\n            tag_444:\n                /* \"#utility.yul\":17083:17222   */\n              swap1\n              pop\n                /* \"#utility.yul\":16810:17229   */\n              swap2\n              swap1\n              pop\n              jump\t// out\n                /* \"#utility.yul\":17235:17415   */\n            tag_168:\n                /* \"#utility.yul\":17283:17360   */\n              0x4e487b7100000000000000000000000000000000000000000000000000000000\n                /* \"#utility.yul\":17280:17281   */\n              0x00\n                /* \"#utility.yul\":17273:17361   */\n              mstore\n                /* \"#utility.yul\":17380:17384   */\n              0x32\n                /* \"#utility.yul\":17377:17378   */\n              0x04\n                /* \"#utility.yul\":17370:17385   */\n              mstore\n                /* \"#utility.yul\":17404:17408   */\n              0x24\n                /* \"#utility.yul\":17401:17402   */\n              0x00\n                /* \"#utility.yul\":17394:17409   */\n              revert\n                /* \"#utility.yul\":17421:17753   */\n            tag_173:\n                /* \"#utility.yul\":17542:17546   */\n              0x00\n                /* \"#utility.yul\":17580:17582   */\n              0x40\n                /* \"#utility.yul\":17569:17578   */\n              dup3\n                /* \"#utility.yul\":17565:17583   */\n              add\n                /* \"#utility.yul\":17557:17583   */\n              swap1\n              pop\n                /* \"#utility.yul\":17593:17664   */\n              tag_447\n                /* \"#utility.yul\":17661:17662   */\n              0x00\n                /* \"#utility.yul\":17650:17659   */\n              dup4\n                /* \"#utility.yul\":17646:17663   */\n              add\n                /* \"#utility.yul\":17637:17643   */\n              dup6\n                /* \"#utility.yul\":17593:17664   */\n              tag_242\n              jump\t// in\n            tag_447:\n                /* \"#utility.yul\":17674:17746   */\n              tag_448\n                /* \"#utility.yul\":17742:17744   */\n              0x20\n                /* \"#utility.yul\":17731:17740   */\n              dup4\n                /* \"#utility.yul\":17727:17745   */\n              add\n                /* \"#utility.yul\":17718:17724   */\n              dup5\n                /* \"#utility.yul\":17674:17746   */\n              tag_236\n              jump\t// in\n            tag_448:\n                /* \"#utility.yul\":17421:17753   */\n              swap4\n              swap3\n              pop\n              pop\n              pop\n              jump\t// out\n                /* \"#utility.yul\":17759:17875   */\n            tag_275:\n                /* \"#utility.yul\":17829:17850   */\n              tag_450\n                /* \"#utility.yul\":17844:17849   */\n              dup2\n                /* \"#utility.yul\":17829:17850   */\n              tag_233\n              jump\t// in\n            tag_450:\n                /* \"#utility.yul\":17822:17827   */\n              dup2\n                /* \"#utility.yul\":17819:17851   */\n              eq\n                /* \"#utility.yul\":17809:17869   */\n              tag_451\n              jumpi\n                /* \"#utility.yul\":17865:17866   */\n              0x00\n                /* \"#utility.yul\":17862:17863   */\n              0x00\n                /* \"#utility.yul\":17855:17867   */\n              revert\n                /* \"#utility.yul\":17809:17869   */\n            tag_451:\n                /* \"#utility.yul\":17759:17875   */\n              pop\n              jump\t// out\n                /* \"#utility.yul\":17881:18018   */\n            tag_276:\n                /* \"#utility.yul\":17935:17940   */\n              0x00\n                /* \"#utility.yul\":17966:17972   */\n              dup2\n                /* \"#utility.yul\":17960:17973   */\n              mload\n                /* \"#utility.yul\":17951:17973   */\n              swap1\n              pop\n                /* \"#utility.yul\":17982:18012   */\n              tag_453\n                /* \"#utility.yul\":18006:18011   */\n              dup2\n                /* \"#utility.yul\":17982:18012   */\n              tag_275\n              jump\t// in\n            tag_453:\n                /* \"#utility.yul\":17881:18018   */\n              swap3\n              swap2\n              pop\n              pop\n              jump\t// out\n                /* \"#utility.yul\":18024:18369   */\n            tag_177:\n                /* \"#utility.yul\":18091:18097   */\n              0x00\n                /* \"#utility.yul\":18140:18142   */\n              0x20\n                /* \"#utility.yul\":18128:18137   */\n              dup3\n                /* \"#utility.yul\":18119:18126   */\n              dup5\n                /* \"#utility.yul\":18115:18138   */\n              sub\n                /* \"#utility.yul\":18111:18143   */\n              slt\n                /* \"#utility.yul\":18108:18227   */\n              iszero\n              tag_455\n              jumpi\n                /* \"#utility.yul\":18146:18225   */\n              tag_456\n              tag_227\n              jump\t// in\n            tag_456:\n                /* \"#utility.yul\":18108:18227   */\n            tag_455:\n                /* \"#utility.yul\":18266:18267   */\n              0x00\n                /* \"#utility.yul\":18291:18352   */\n              tag_457\n                /* \"#utility.yul\":18344:18351   */\n              dup5\n                /* \"#utility.yul\":18335:18341   */\n              dup3\n                /* \"#utility.yul\":18324:18333   */\n              dup6\n                /* \"#utility.yul\":18320:18342   */\n              add\n                /* \"#utility.yul\":18291:18352   */\n              tag_276\n              jump\t// in\n            tag_457:\n                /* \"#utility.yul\":18281:18352   */\n              swap2\n              pop\n                /* \"#utility.yul\":18237:18362   */\n              pop\n                /* \"#utility.yul\":18024:18369   */\n              swap3\n              swap2\n              pop\n              pop\n              jump\t// out\n                /* \"#utility.yul\":18375:18538   */\n            tag_277:\n                /* \"#utility.yul\":18515:18530   */\n              0x526566756e64206661696c656400000000000000000000000000000000000000\n                /* \"#utility.yul\":18511:18512   */\n              0x00\n                /* \"#utility.yul\":18503:18509   */\n              dup3\n                /* \"#utility.yul\":18499:18513   */\n              add\n                /* \"#utility.yul\":18492:18531   */\n              mstore\n                /* \"#utility.yul\":18375:18538   */\n              pop\n              jump\t// out\n                /* \"#utility.yul\":18544:18910   */\n            tag_278:\n                /* \"#utility.yul\":18686:18689   */\n              0x00\n                /* \"#utility.yul\":18707:18774   */\n              tag_460\n                /* \"#utility.yul\":18771:18773   */\n              0x0d\n                /* \"#utility.yul\":18766:18769   */\n              dup4\n                /* \"#utility.yul\":18707:18774   */\n              tag_238\n              jump\t// in\n            tag_460:\n                /* \"#utility.yul\":18700:18774   */\n              swap2\n              pop\n                /* \"#utility.yul\":18783:18876   */\n              tag_461\n                /* \"#utility.yul\":18872:18875   */\n              dup3\n                /* \"#utility.yul\":18783:18876   */\n              tag_277\n              jump\t// in\n            tag_461:\n                /* \"#utility.yul\":18901:18903   */\n              0x20\n                /* \"#utility.yul\":18896:18899   */\n              dup3\n                /* \"#utility.yul\":18892:18904   */\n              add\n                /* \"#utility.yul\":18885:18904   */\n              swap1\n              pop\n                /* \"#utility.yul\":18544:18910   */\n              swap2\n              swap1\n              pop\n              jump\t// out\n                /* \"#utility.yul\":18916:19335   */\n            tag_180:\n                /* \"#utility.yul\":19082:19086   */\n              0x00\n                /* \"#utility.yul\":19120:19122   */\n              0x20\n                /* \"#utility.yul\":19109:19118   */\n              dup3\n                /* \"#utility.yul\":19105:19123   */\n              add\n                /* \"#utility.yul\":19097:19123   */\n              swap1\n              pop\n                /* \"#utility.yul\":19169:19178   */\n              dup2\n                /* \"#utility.yul\":19163:19167   */\n              dup2\n                /* \"#utility.yul\":19159:19179   */\n              sub\n                /* \"#utility.yul\":19155:19156   */\n              0x00\n                /* \"#utility.yul\":19144:19153   */\n              dup4\n                /* \"#utility.yul\":19140:19157   */\n              add\n                /* \"#utility.yul\":19133:19180   */\n              mstore\n                /* \"#utility.yul\":19197:19328   */\n              tag_463\n                /* \"#utility.yul\":19323:19327   */\n              dup2\n                /* \"#utility.yul\":19197:19328   */\n              tag_278\n              jump\t// in\n            tag_463:\n                /* \"#utility.yul\":19189:19328   */\n              swap1\n              pop\n                /* \"#utility.yul\":18916:19335   */\n              swap2\n              swap1\n              pop\n              jump\t// out\n                /* \"#utility.yul\":19341:19515   */\n            tag_279:\n                /* \"#utility.yul\":19481:19507   */\n              0x5061796d656e7420746f2073656c6c6572206661696c65640000000000000000\n                /* \"#utility.yul\":19477:19478   */\n              0x00\n                /* \"#utility.yul\":19469:19475   */\n              dup3\n                /* \"#utility.yul\":19465:19479   */\n              add\n                /* \"#utility.yul\":19458:19508   */\n              mstore\n                /* \"#utility.yul\":19341:19515   */\n              pop\n              jump\t// out\n                /* \"#utility.yul\":19521:19887   */\n            tag_280:\n                /* \"#utility.yul\":19663:19666   */\n              0x00\n                /* \"#utility.yul\":19684:19751   */\n              tag_466\n                /* \"#utility.yul\":19748:19750   */\n              0x18\n                /* \"#utility.yul\":19743:19746   */\n              dup4\n                /* \"#utility.yul\":19684:19751   */\n              tag_238\n              jump\t// in\n            tag_466:\n                /* \"#utility.yul\":19677:19751   */\n              swap2\n              pop\n                /* \"#utility.yul\":19760:19853   */\n              tag_467\n                /* \"#utility.yul\":19849:19852   */\n              dup3\n                /* \"#utility.yul\":19760:19853   */\n              tag_279\n              jump\t// in\n            tag_467:\n                /* \"#utility.yul\":19878:19880   */\n              0x20\n                /* \"#utility.yul\":19873:19876   */\n              dup3\n                /* \"#utility.yul\":19869:19881   */\n              add\n                /* \"#utility.yul\":19862:19881   */\n              swap1\n              pop\n                /* \"#utility.yul\":19521:19887   */\n              swap2\n              swap1\n              pop\n              jump\t// out\n                /* \"#utility.yul\":19893:20312   */\n            tag_189:\n                /* \"#utility.yul\":20059:20063   */\n              0x00\n                /* \"#utility.yul\":20097:20099   */\n              0x20\n                /* \"#utility.yul\":20086:20095   */\n              dup3\n                /* \"#utility.yul\":20082:20100   */\n              add\n                /* \"#utility.yul\":20074:20100   */\n              swap1\n              pop\n                /* \"#utility.yul\":20146:20155   */\n              dup2\n                /* \"#utility.yul\":20140:20144   */\n              dup2\n                /* \"#utility.yul\":20136:20156   */\n              sub\n                /* \"#utility.yul\":20132:20133   */\n              0x00\n                /* \"#utility.yul\":20121:20130   */\n              dup4\n                /* \"#utility.yul\":20117:20134   */\n              add\n                /* \"#utility.yul\":20110:20157   */\n              mstore\n                /* \"#utility.yul\":20174:20305   */\n              tag_469\n                /* \"#utility.yul\":20300:20304   */\n              dup2\n                /* \"#utility.yul\":20174:20305   */\n              tag_280\n              jump\t// in\n            tag_469:\n                /* \"#utility.yul\":20166:20305   */\n              swap1\n              pop\n                /* \"#utility.yul\":19893:20312   */\n              swap2\n              swap1\n              pop\n              jump\t// out\n                /* \"#utility.yul\":20318:20481   */\n            tag_281:\n                /* \"#utility.yul\":20458:20473   */\n              0x41756374696f6e20656e64656400000000000000000000000000000000000000\n                /* \"#utility.yul\":20454:20455   */\n              0x00\n                /* \"#utility.yul\":20446:20452   */\n              dup3\n                /* \"#utility.yul\":20442:20456   */\n              add\n                /* \"#utility.yul\":20435:20474   */\n              mstore\n                /* \"#utility.yul\":20318:20481   */\n              pop\n              jump\t// out\n                /* \"#utility.yul\":20487:20853   */\n            tag_282:\n                /* \"#utility.yul\":20629:20632   */\n              0x00\n                /* \"#utility.yul\":20650:20717   */\n              tag_472\n                /* \"#utility.yul\":20714:20716   */\n              0x0d\n                /* \"#utility.yul\":20709:20712   */\n              dup4\n                /* \"#utility.yul\":20650:20717   */\n              tag_238\n              jump\t// in\n            tag_472:\n                /* \"#utility.yul\":20643:20717   */\n              swap2\n              pop\n                /* \"#utility.yul\":20726:20819   */\n              tag_473\n                /* \"#utility.yul\":20815:20818   */\n              dup3\n                /* \"#utility.yul\":20726:20819   */\n              tag_281\n              jump\t// in\n            tag_473:\n                /* \"#utility.yul\":20844:20846   */\n              0x20\n                /* \"#utility.yul\":20839:20842   */\n              dup3\n                /* \"#utility.yul\":20835:20847   */\n              add\n                /* \"#utility.yul\":20828:20847   */\n              swap1\n              pop\n                /* \"#utility.yul\":20487:20853   */\n              swap2\n              swap1\n              pop\n              jump\t// out\n                /* \"#utility.yul\":20859:21278   */\n            tag_199:\n                /* \"#utility.yul\":21025:21029   */\n              0x00\n                /* \"#utility.yul\":21063:21065   */\n              0x20\n                /* \"#utility.yul\":21052:21061   */\n              dup3\n                /* \"#utility.yul\":21048:21066   */\n              add\n                /* \"#utility.yul\":21040:21066   */\n              swap1\n              pop\n                /* \"#utility.yul\":21112:21121   */\n              dup2\n                /* \"#utility.yul\":21106:21110   */\n              dup2\n                /* \"#utility.yul\":21102:21122   */\n              sub\n                /* \"#utility.yul\":21098:21099   */\n              0x00\n                /* \"#utility.yul\":21087:21096   */\n              dup4\n                /* \"#utility.yul\":21083:21100   */\n              add\n                /* \"#utility.yul\":21076:21123   */\n              mstore\n                /* \"#utility.yul\":21140:21271   */\n              tag_475\n                /* \"#utility.yul\":21266:21270   */\n              dup2\n                /* \"#utility.yul\":21140:21271   */\n              tag_282\n              jump\t// in\n            tag_475:\n                /* \"#utility.yul\":21132:21271   */\n              swap1\n              pop\n                /* \"#utility.yul\":20859:21278   */\n              swap2\n              swap1\n              pop\n              jump\t// out\n                /* \"#utility.yul\":21284:21504   */\n            tag_283:\n                /* \"#utility.yul\":21424:21458   */\n              0x596f752063616e277420626964206f6e20796f7572206f776e2061756374696f\n                /* \"#utility.yul\":21420:21421   */\n              0x00\n                /* \"#utility.yul\":21412:21418   */\n              dup3\n                /* \"#utility.yul\":21408:21422   */\n              add\n                /* \"#utility.yul\":21401:21459   */\n              mstore\n                /* \"#utility.yul\":21493:21496   */\n              0x6e00000000000000000000000000000000000000000000000000000000000000\n                /* \"#utility.yul\":21488:21490   */\n              0x20\n                /* \"#utility.yul\":21480:21486   */\n              dup3\n                /* \"#utility.yul\":21476:21491   */\n              add\n                /* \"#utility.yul\":21469:21497   */\n              mstore\n                /* \"#utility.yul\":21284:21504   */\n              pop\n              jump\t// out\n                /* \"#utility.yul\":21510:21876   */\n            tag_284:\n                /* \"#utility.yul\":21652:21655   */\n              0x00\n                /* \"#utility.yul\":21673:21740   */\n              tag_478\n                /* \"#utility.yul\":21737:21739   */\n              0x21\n                /* \"#utility.yul\":21732:21735   */\n              dup4\n                /* \"#utility.yul\":21673:21740   */\n              tag_238\n              jump\t// in\n            tag_478:\n                /* \"#utility.yul\":21666:21740   */\n              swap2\n              pop\n                /* \"#utility.yul\":21749:21842   */\n              tag_479\n                /* \"#utility.yul\":21838:21841   */\n              dup3\n                /* \"#utility.yul\":21749:21842   */\n              tag_283\n              jump\t// in\n            tag_479:\n                /* \"#utility.yul\":21867:21869   */\n              0x40\n                /* \"#utility.yul\":21862:21865   */\n              dup3\n                /* \"#utility.yul\":21858:21870   */\n              add\n                /* \"#utility.yul\":21851:21870   */\n              swap1\n              pop\n                /* \"#utility.yul\":21510:21876   */\n              swap2\n              swap1\n              pop\n              jump\t// out\n                /* \"#utility.yul\":21882:22301   */\n            tag_203:\n                /* \"#utility.yul\":22048:22052   */\n              0x00\n                /* \"#utility.yul\":22086:22088   */\n              0x20\n                /* \"#utility.yul\":22075:22084   */\n              dup3\n                /* \"#utility.yul\":22071:22089   */\n              add\n                /* \"#utility.yul\":22063:22089   */\n              swap1\n              pop\n                /* \"#utility.yul\":22135:22144   */\n              dup2\n                /* \"#utility.yul\":22129:22133   */\n              dup2\n                /* \"#utility.yul\":22125:22145   */\n              sub\n                /* \"#utility.yul\":22121:22122   */\n              0x00\n                /* \"#utility.yul\":22110:22119   */\n              dup4\n                /* \"#utility.yul\":22106:22123   */\n              add\n                /* \"#utility.yul\":22099:22146   */\n              mstore\n                /* \"#utility.yul\":22163:22294   */\n              tag_481\n                /* \"#utility.yul\":22289:22293   */\n              dup2\n                /* \"#utility.yul\":22163:22294   */\n              tag_284\n              jump\t// in\n            tag_481:\n                /* \"#utility.yul\":22155:22294   */\n              swap1\n              pop\n                /* \"#utility.yul\":21882:22301   */\n              swap2\n              swap1\n              pop\n              jump\t// out\n                /* \"#utility.yul\":22307:22487   */\n            tag_285:\n                /* \"#utility.yul\":22355:22432   */\n              0x4e487b7100000000000000000000000000000000000000000000000000000000\n                /* \"#utility.yul\":22352:22353   */\n              0x00\n                /* \"#utility.yul\":22345:22433   */\n              mstore\n                /* \"#utility.yul\":22452:22456   */\n              0x11\n                /* \"#utility.yul\":22449:22450   */\n              0x04\n                /* \"#utility.yul\":22442:22457   */\n              mstore\n                /* \"#utility.yul\":22476:22480   */\n              0x24\n                /* \"#utility.yul\":22473:22474   */\n              0x00\n                /* \"#utility.yul\":22466:22481   */\n              revert\n                /* \"#utility.yul\":22493:22684   */\n            tag_205:\n                /* \"#utility.yul\":22533:22536   */\n              0x00\n                /* \"#utility.yul\":22552:22572   */\n              tag_484\n                /* \"#utility.yul\":22570:22571   */\n              dup3\n                /* \"#utility.yul\":22552:22572   */\n              tag_235\n              jump\t// in\n            tag_484:\n                /* \"#utility.yul\":22547:22572   */\n              swap2\n              pop\n                /* \"#utility.yul\":22586:22606   */\n              tag_485\n                /* \"#utility.yul\":22604:22605   */\n              dup4\n                /* \"#utility.yul\":22586:22606   */\n              tag_235\n              jump\t// in\n            tag_485:\n                /* \"#utility.yul\":22581:22606   */\n              swap3\n              pop\n                /* \"#utility.yul\":22629:22630   */\n              dup3\n                /* \"#utility.yul\":22626:22627   */\n              dup3\n                /* \"#utility.yul\":22622:22631   */\n              add\n                /* \"#utility.yul\":22615:22631   */\n              swap1\n              pop\n                /* \"#utility.yul\":22650:22653   */\n              dup1\n                /* \"#utility.yul\":22647:22648   */\n              dup3\n                /* \"#utility.yul\":22644:22654   */\n              gt\n                /* \"#utility.yul\":22641:22677   */\n              iszero\n              tag_486\n              jumpi\n                /* \"#utility.yul\":22657:22675   */\n              tag_487\n              tag_285\n              jump\t// in\n            tag_487:\n                /* \"#utility.yul\":22641:22677   */\n            tag_486:\n                /* \"#utility.yul\":22493:22684   */\n              swap3\n              swap2\n              pop\n              pop\n              jump\t// out\n                /* \"#utility.yul\":22690:22857   */\n            tag_286:\n                /* \"#utility.yul\":22830:22849   */\n              0x42656c6f77206d696e696d756d20626964000000000000000000000000000000\n                /* \"#utility.yul\":22826:22827   */\n              0x00\n                /* \"#utility.yul\":22818:22824   */\n              dup3\n                /* \"#utility.yul\":22814:22828   */\n              add\n                /* \"#utility.yul\":22807:22850   */\n              mstore\n                /* \"#utility.yul\":22690:22857   */\n              pop\n              jump\t// out\n                /* \"#utility.yul\":22863:23229   */\n            tag_287:\n                /* \"#utility.yul\":23005:23008   */\n              0x00\n                /* \"#utility.yul\":23026:23093   */\n              tag_490\n                /* \"#utility.yul\":23090:23092   */\n              0x11\n                /* \"#utility.yul\":23085:23088   */\n              dup4\n                /* \"#utility.yul\":23026:23093   */\n              tag_238\n              jump\t// in\n            tag_490:\n                /* \"#utility.yul\":23019:23093   */\n              swap2\n              pop\n                /* \"#utility.yul\":23102:23195   */\n              tag_491\n                /* \"#utility.yul\":23191:23194   */\n              dup3\n                /* \"#utility.yul\":23102:23195   */\n              tag_286\n              jump\t// in\n            tag_491:\n                /* \"#utility.yul\":23220:23222   */\n              0x20\n                /* \"#utility.yul\":23215:23218   */\n              dup3\n                /* \"#utility.yul\":23211:23223   */\n              add\n                /* \"#utility.yul\":23204:23223   */\n              swap1\n              pop\n                /* \"#utility.yul\":22863:23229   */\n              swap2\n              swap1\n              pop\n              jump\t// out\n                /* \"#utility.yul\":23235:23654   */\n            tag_209:\n                /* \"#utility.yul\":23401:23405   */\n              0x00\n                /* \"#utility.yul\":23439:23441   */\n              0x20\n                /* \"#utility.yul\":23428:23437   */\n              dup3\n                /* \"#utility.yul\":23424:23442   */\n              add\n                /* \"#utility.yul\":23416:23442   */\n              swap1\n              pop\n                /* \"#utility.yul\":23488:23497   */\n              dup2\n                /* \"#utility.yul\":23482:23486   */\n              dup2\n                /* \"#utility.yul\":23478:23498   */\n              sub\n                /* \"#utility.yul\":23474:23475   */\n              0x00\n                /* \"#utility.yul\":23463:23472   */\n              dup4\n                /* \"#utility.yul\":23459:23476   */\n              add\n                /* \"#utility.yul\":23452:23499   */\n              mstore\n                /* \"#utility.yul\":23516:23647   */\n              tag_493\n                /* \"#utility.yul\":23642:23646   */\n              dup2\n                /* \"#utility.yul\":23516:23647   */\n              tag_287\n              jump\t// in\n            tag_493:\n                /* \"#utility.yul\":23508:23647   */\n              swap1\n              pop\n                /* \"#utility.yul\":23235:23654   */\n              swap2\n              swap1\n              pop\n              jump\t// out\n                /* \"#utility.yul\":23660:23841   */\n            tag_288:\n                /* \"#utility.yul\":23800:23833   */\n              0x426964206d757374206578636565642063757272656e74206869676865737400\n                /* \"#utility.yul\":23796:23797   */\n              0x00\n                /* \"#utility.yul\":23788:23794   */\n              dup3\n                /* \"#utility.yul\":23784:23798   */\n              add\n                /* \"#utility.yul\":23777:23834   */\n              mstore\n                /* \"#utility.yul\":23660:23841   */\n              pop\n              jump\t// out\n                /* \"#utility.yul\":23847:24213   */\n            tag_289:\n                /* \"#utility.yul\":23989:23992   */\n              0x00\n                /* \"#utility.yul\":24010:24077   */\n              tag_496\n                /* \"#utility.yul\":24074:24076   */\n              0x1f\n                /* \"#utility.yul\":24069:24072   */\n              dup4\n                /* \"#utility.yul\":24010:24077   */\n              tag_238\n              jump\t// in\n            tag_496:\n                /* \"#utility.yul\":24003:24077   */\n              swap2\n              pop\n                /* \"#utility.yul\":24086:24179   */\n              tag_497\n                /* \"#utility.yul\":24175:24178   */\n              dup3\n                /* \"#utility.yul\":24086:24179   */\n              tag_288\n              jump\t// in\n            tag_497:\n                /* \"#utility.yul\":24204:24206   */\n              0x20\n                /* \"#utility.yul\":24199:24202   */\n              dup3\n                /* \"#utility.yul\":24195:24207   */\n              add\n                /* \"#utility.yul\":24188:24207   */\n              swap1\n              pop\n                /* \"#utility.yul\":23847:24213   */\n              swap2\n              swap1\n              pop\n              jump\t// out\n                /* \"#utility.yul\":24219:24638   */\n            tag_212:\n                /* \"#utility.yul\":24385:24389   */\n              0x00\n                /* \"#utility.yul\":24423:24425   */\n              0x20\n                /* \"#utility.yul\":24412:24421   */\n              dup3\n                /* \"#utility.yul\":24408:24426   */\n              add\n                /* \"#utility.yul\":24400:24426   */\n              swap1\n              pop\n                /* \"#utility.yul\":24472:24481   */\n              dup2\n                /* \"#utility.yul\":24466:24470   */\n              dup2\n                /* \"#utility.yul\":24462:24482   */\n              sub\n                /* \"#utility.yul\":24458:24459   */\n              0x00\n                /* \"#utility.yul\":24447:24456   */\n              dup4\n                /* \"#utility.yul\":24443:24460   */\n              add\n                /* \"#utility.yul\":24436:24483   */\n              mstore\n                /* \"#utility.yul\":24500:24631   */\n              tag_499\n                /* \"#utility.yul\":24626:24630   */\n              dup2\n                /* \"#utility.yul\":24500:24631   */\n              tag_289\n              jump\t// in\n            tag_499:\n                /* \"#utility.yul\":24492:24631   */\n              swap1\n              pop\n                /* \"#utility.yul\":24219:24638   */\n              swap2\n              swap1\n              pop\n              jump\t// out\n                /* \"#utility.yul\":24644:25086   */\n            tag_214:\n                /* \"#utility.yul\":24793:24797   */\n              0x00\n                /* \"#utility.yul\":24831:24833   */\n              0x60\n                /* \"#utility.yul\":24820:24829   */\n              dup3\n                /* \"#utility.yul\":24816:24834   */\n              add\n                /* \"#utility.yul\":24808:24834   */\n              swap1\n              pop\n                /* \"#utility.yul\":24844:24915   */\n              tag_501\n                /* \"#utility.yul\":24912:24913   */\n              0x00\n                /* \"#utility.yul\":24901:24910   */\n              dup4\n                /* \"#utility.yul\":24897:24914   */\n              add\n                /* \"#utility.yul\":24888:24894   */\n              dup7\n                /* \"#utility.yul\":24844:24915   */\n              tag_242\n              jump\t// in\n            tag_501:\n                /* \"#utility.yul\":24925:24997   */\n              tag_502\n                /* \"#utility.yul\":24993:24995   */\n              0x20\n                /* \"#utility.yul\":24982:24991   */\n              dup4\n                /* \"#utility.yul\":24978:24996   */\n              add\n                /* \"#utility.yul\":24969:24975   */\n              dup6\n                /* \"#utility.yul\":24925:24997   */\n              tag_242\n              jump\t// in\n            tag_502:\n                /* \"#utility.yul\":25007:25079   */\n              tag_503\n                /* \"#utility.yul\":25075:25077   */\n              0x40\n                /* \"#utility.yul\":25064:25073   */\n              dup4\n                /* \"#utility.yul\":25060:25078   */\n              add\n                /* \"#utility.yul\":25051:25057   */\n              dup5\n                /* \"#utility.yul\":25007:25079   */\n              tag_236\n              jump\t// in\n            tag_503:\n                /* \"#utility.yul\":24644:25086   */\n              swap5\n              swap4\n              pop\n              pop\n              pop\n              pop\n              jump\t// out\n                /* \"#utility.yul\":25092:25325   */\n            tag_221:\n                /* \"#utility.yul\":25131:25134   */\n              0x00\n                /* \"#utility.yul\":25154:25178   */\n              tag_505\n                /* \"#utility.yul\":25172:25177   */\n              dup3\n                /* \"#utility.yul\":25154:25178   */\n              tag_235\n              jump\t// in\n            tag_505:\n                /* \"#utility.yul\":25145:25178   */\n              swap2\n              pop\n                /* \"#utility.yul\":25200:25266   */\n              0xffffffffffffffffffffffffffffffffffffffffffffffffffffffffffffffff\n                /* \"#utility.yul\":25193:25198   */\n              dup3\n                /* \"#utility.yul\":25190:25267   */\n              sub\n                /* \"#utility.yul\":25187:25290   */\n              tag_506\n              jumpi\n                /* \"#utility.yul\":25270:25288   */\n              tag_507\n              tag_285\n              jump\t// in\n            tag_507:\n                /* \"#utility.yul\":25187:25290   */\n            tag_506:\n                /* \"#utility.yul\":25317:25318   */\n              0x01\n                /* \"#utility.yul\":25310:25315   */\n              dup3\n                /* \"#utility.yul\":25306:25319   */\n              add\n                /* \"#utility.yul\":25299:25319   */\n              swap1\n              pop\n                /* \"#utility.yul\":25092:25325   */\n              swap2\n              swap1\n              pop\n              jump\t// out\n\n            auxdata: 0xa26469706673582212209c65986a45bd82321c51cd3e6c417526724900f5a5967af82aeac6366a37837e64736f6c634300081e0033\n        }\n    }\n\n    auxdata: 0xa264697066735822122062f4ae327912cfd35a08dda9fc0fa420fe5aed0eb92888d8dce8a5f86274516264736f6c634300081e0033\n}\n","bytecode":{"linkReferences":{},"object":"6080604052348015600e575f5ffd5b506132438061001c5f395ff3fe608060405234801561000f575f5ffd5b506004361061004a575f3560e01c8063339d50a51461004e5780634acb9d4f1461007e57806375da6ba01461009c578063f9f01f88146100a6575b5f5ffd5b6100686004803603810190610063919061043f565b6100c2565b60405161007591906104a9565b60405180910390f35b6100866100fc565b6040516100939190610579565b60405180910390f35b6100a4610186565b005b6100c060048036038101906100bb9190610710565b61032d565b005b5f81815481106100d0575f80fd5b905f5260205f20015f915054906101000a900473ffffffffffffffffffffffffffffffffffffffff1681565b60605f80548060200260200160405190810160405280929190818152602001828054801561017c57602002820191905f5260205f20905b815f9054906101000a900473ffffffffffffffffffffffffffffffffffffffff1673ffffffffffffffffffffffffffffffffffffffff1681526020019060010190808311610133575b5050505050905090565b5f5f90505b5f8054905081101561032a575f5f82815481106101ab576101aa6107bf565b5b905f5260205f20015f9054906101000a900473ffffffffffffffffffffffffffffffffffffffff1690508073ffffffffffffffffffffffffffffffffffffffff16634e69d5606040518163ffffffff1660e01b8152600401602060405180830381865afa15801561021e573d5f5f3e3d5ffd5b505050506040513d601f19601f820116820180604052508101906102429190610821565b1580156102bb57508073ffffffffffffffffffffffffffffffffffffffff16633197cbb66040518163ffffffff1660e01b8152600401602060405180830381865afa158015610293573d5f5f3e3d5ffd5b505050506040513d601f19601f820116820180604052508101906102b79190610860565b4210155b1561031c578073ffffffffffffffffffffffffffffffffffffffff1663976af6156040518163ffffffff1660e01b81526004015f604051808303815f87803b158015610305575f5ffd5b505af1158015610317573d5f5f3e3d5ffd5b505050505b50808060010191505061018b565b50565b5f4283603c61033c91906108b8565b61034691906108f9565b90505f86868633858760405161035b906103ee565b61036a969594939291906109aa565b604051809103905ff080158015610383573d5f5f3e3d5ffd5b5090505f81908060018154018082558091505060019003905f5260205f20015f9091909190916101000a81548173ffffffffffffffffffffffffffffffffffffffff021916908373ffffffffffffffffffffffffffffffffffffffff16021790555050505050505050565b6127f680610a1883390190565b5f604051905090565b5f5ffd5b5f5ffd5b5f819050919050565b61041e8161040c565b8114610428575f5ffd5b50565b5f8135905061043981610415565b92915050565b5f6020828403121561045457610453610404565b5b5f6104618482850161042b565b91505092915050565b5f73ffffffffffffffffffffffffffffffffffffffff82169050919050565b5f6104938261046a565b9050919050565b6104a381610489565b82525050565b5f6020820190506104bc5f83018461049a565b92915050565b5f81519050919050565b5f82825260208201905092915050565b5f819050602082019050919050565b6104f481610489565b82525050565b5f61050583836104eb565b60208301905092915050565b5f602082019050919050565b5f610527826104c2565b61053181856104cc565b935061053c836104dc565b805f5b8381101561056c57815161055388826104fa565b975061055e83610511565b92505060018101905061053f565b5085935050505092915050565b5f6020820190508181035f830152610591818461051d565b905092915050565b5f5ffd5b5f5ffd5b5f601f19601f8301169050919050565b7f4e487b71000000000000000000000000000000000000000000000000000000005f52604160045260245ffd5b6105e7826105a1565b810181811067ffffffffffffffff82111715610606576106056105b1565b5b80604052505050565b5f6106186103fb565b905061062482826105de565b919050565b5f67ffffffffffffffff821115610643576106426105b1565b5b61064c826105a1565b9050602081019050919050565b828183375f83830152505050565b5f61067961067484610629565b61060f565b9050828152602081018484840111156106955761069461059d565b5b6106a0848285610659565b509392505050565b5f82601f8301126106bc576106bb610599565b5b81356106cc848260208601610667565b91505092915050565b5f6106df8261046a565b9050919050565b6106ef816106d5565b81146106f9575f5ffd5b50565b5f8135905061070a816106e6565b92915050565b5f5f5f5f5f60a0868803121561072957610728610404565b5b5f6107368882890161042b565b955050602086013567ffffffffffffffff81111561075757610756610408565b5b610763888289016106a8565b945050604086013567ffffffffffffffff81111561078457610783610408565b5b610790888289016106a8565b93505060606107a18882890161042b565b92505060806107b2888289016106fc565b9150509295509295909350565b7f4e487b71000000000000000000000000000000000000000000000000000000005f52603260045260245ffd5b5f8115159050919050565b610800816107ec565b811461080a575f5ffd5b50565b5f8151905061081b816107f7565b92915050565b5f6020828403121561083657610835610404565b5b5f6108438482850161080d565b91505092915050565b5f8151905061085a81610415565b92915050565b5f6020828403121561087557610874610404565b5b5f6108828482850161084c565b91505092915050565b7f4e487b71000000000000000000000000000000000000000000000000000000005f52601160045260245ffd5b5f6108c28261040c565b91506108cd8361040c565b92508282026108db8161040c565b915082820484148315176108f2576108f161088b565b5b5092915050565b5f6109038261040c565b915061090e8361040c565b92508282019050808211156109265761092561088b565b5b92915050565b6109358161040c565b82525050565b5f81519050919050565b5f82825260208201905092915050565b8281835e5f83830152505050565b5f61096d8261093b565b6109778185610945565b9350610987818560208601610955565b610990816105a1565b840191505092915050565b6109a4816106d5565b82525050565b5f60c0820190506109bd5f83018961092c565b81810360208301526109cf8188610963565b905081810360408301526109e38187610963565b90506109f2606083018661099b565b6109ff608083018561092c565b610a0c60a083018461099b565b97965050505050505056fe608060405234801561000f575f5ffd5b506040516127f63803806127f6833981810160405281019061003191906102dd565b825f5f6101000a81548173ffffffffffffffffffffffffffffffffffffffff021916908373ffffffffffffffffffffffffffffffffffffffff16021790555085600181905550846002908161008691906105a5565b50836003908161009691906105a5565b5081600b819055505f600c5f6101000a81548160ff02191690831515021790555080600c60016101000a81548173ffffffffffffffffffffffffffffffffffffffff021916908373ffffffffffffffffffffffffffffffffffffffff160217905550505050505050610674565b5f604051905090565b5f5ffd5b5f5ffd5b5f819050919050565b61012681610114565b8114610130575f5ffd5b50565b5f815190506101418161011d565b92915050565b5f5ffd5b5f5ffd5b5f601f19601f8301169050919050565b7f4e487b71000000000000000000000000000000000000000000000000000000005f52604160045260245ffd5b6101958261014f565b810181811067ffffffffffffffff821117156101b4576101b361015f565b5b80604052505050565b5f6101c6610103565b90506101d2828261018c565b919050565b5f67ffffffffffffffff8211156101f1576101f061015f565b5b6101fa8261014f565b9050602081019050919050565b8281835e5f83830152505050565b5f610227610222846101d7565b6101bd565b9050828152602081018484840111156102435761024261014b565b5b61024e848285610207565b509392505050565b5f82601f83011261026a57610269610147565b5b815161027a848260208601610215565b91505092915050565b5f73ffffffffffffffffffffffffffffffffffffffff82169050919050565b5f6102ac82610283565b9050919050565b6102bc816102a2565b81146102c6575f5ffd5b50565b5f815190506102d7816102b3565b92915050565b5f5f5f5f5f5f60c087890312156102f7576102f661010c565b5b5f61030489828a01610133565b965050602087015167ffffffffffffffff81111561032557610324610110565b5b61033189828a01610256565b955050604087015167ffffffffffffffff81111561035257610351610110565b5b61035e89828a01610256565b945050606061036f89828a016102c9565b935050608061038089828a01610133565b92505060a061039189828a016102c9565b9150509295509295509295565b5f81519050919050565b7f4e487b71000000000000000000000000000000000000000000000000000000005f52602260045260245ffd5b5f60028204905060018216806103ec57607f821691505b6020821081036103ff576103fe6103a8565b5b50919050565b5f819050815f5260205f209050919050565b5f6020601f8301049050919050565b5f82821b905092915050565b5f600883026104617fffffffffffffffffffffffffffffffffffffffffffffffffffffffffffffffff82610426565b61046b8683610426565b95508019841693508086168417925050509392505050565b5f819050919050565b5f6104a66104a161049c84610114565b610483565b610114565b9050919050565b5f819050919050565b6104bf8361048c565b6104d36104cb826104ad565b848454610432565b825550505050565b5f5f905090565b6104ea6104db565b6104f58184846104b6565b505050565b5b818110156105185761050d5f826104e2565b6001810190506104fb565b5050565b601f82111561055d5761052e81610405565b61053784610417565b81016020851015610546578190505b61055a61055285610417565b8301826104fa565b50505b505050565b5f82821c905092915050565b5f61057d5f1984600802610562565b1980831691505092915050565b5f610595838361056e565b9150826002028217905092915050565b6105ae8261039e565b67ffffffffffffffff8111156105c7576105c661015f565b5b6105d182546103d5565b6105dc82828561051c565b5f60209050601f83116001811461060d575f84156105fb578287015190505b610605858261058a565b86555061066c565b601f19841661061b86610405565b5f5b828110156106425784890151825560018201915060208501945060208101905061061d565b8683101561065f578489015161065b601f89168261056e565b8355505b6001600288020188555050505b505050505050565b612175806106815f395ff3fe608060405234801561000f575f5ffd5b5060043610610140575f3560e01c806383920e90116100b6578063a39fac121161007a578063a39fac1214610351578063c1cbbca71461036f578063c8b342ab1461038b578063d57bde79146103bb578063edf26d9b146103d9578063fc0c546a1461040957610140565b806383920e90146102bb57806391f90157146102d9578063937e09b1146102f7578063976af615146103155780639ace38c21461031f57610140565b80634e69d560116101085780634e69d560146101f557806358d6562914610213578063597e1fb5146102315780635dc1d6411461024f5780637b87d8561461027f57806382fde0931461029d57610140565b80630a144391146101445780633197cbb6146101745780633bc5de30146101925780634051ddac146101b0578063481c6a75146101d7575b5f5ffd5b61015e60048036038101906101599190611606565b610427565b60405161016b919061164b565b60405180910390f35b61017c610444565b604051610189919061167c565b60405180910390f35b61019a61044a565b6040516101a79190611705565b60405180910390f35b6101b86105b7565b6040516101ce9a999897969594939291906117eb565b60405180910390f35b6101df61086b565b6040516101ec919061189a565b60405180910390f35b6101fd61088f565b60405161020a919061164b565b60405180910390f35b61021b6108a4565b6040516102289190611705565b60405180910390f35b610239610930565b604051610246919061164b565b60405180910390f35b61026960048036038101906102649190611606565b610942565b604051610276919061167c565b60405180910390f35b610287610957565b6040516102949190611705565b60405180910390f35b6102a56109e3565b6040516102b2919061167c565b60405180910390f35b6102c36109e9565b6040516102d091906119aa565b60405180910390f35b6102e1610aad565b6040516102ee919061189a565b60405180910390f35b6102ff610ad2565b60405161030c919061167c565b60405180910390f35b61031d610ad8565b005b610339600480360381019061033491906119f4565b610f6d565b60405161034893929190611a1f565b60405180910390f35b610359610fc1565b6040516103669190611a54565b60405180910390f35b610389600480360381019061038491906119f4565b61104c565b005b6103a560048036038101906103a09190611606565b6114fb565b6040516103b2919061167c565b60405180910390f35b6103c3611541565b6040516103d0919061167c565b60405180910390f35b6103f360048036038101906103ee91906119f4565b611547565b604051610400919061189a565b60405180910390f35b610411611582565b60405161041e9190611acf565b60405180910390f35b6004602052805f5260405f205f915054906101000a900460ff1681565b600b5481565b6060600c5f9054906101000a900460ff1661049a576040517f08c379a000000000000000000000000000000000000000000000000000000000815260040161049190611b32565b60405180910390fd5b60095f9054906101000a900473ffffffffffffffffffffffffffffffffffffffff1673ffffffffffffffffffffffffffffffffffffffff163373ffffffffffffffffffffffffffffffffffffffff1614610529576040517f08c379a000000000000000000000000000000000000000000000000000000000815260040161052090611b9a565b60405180910390fd5b6002805461053690611be5565b80601f016020809104026020016040519081016040528092919081815260200182805461056290611be5565b80156105ad5780601f10610584576101008083540402835291602001916105ad565b820191905f5260205f20905b81548152906001019060200180831161059057829003601f168201915b5050505050905090565b5f5f5f5f5f6060805f60605f600154600c60019054906101000a900473ffffffffffffffffffffffffffffffffffffffff1673ffffffffffffffffffffffffffffffffffffffff166370a08231306040518263ffffffff1660e01b8152600401610621919061189a565b602060405180830381865afa15801561063c573d5f5f3e3d5ffd5b505050506040513d601f19601f820116820180604052508101906106609190611c29565b6006545f5f9054906101000a900473ffffffffffffffffffffffffffffffffffffffff16600a546002600360095f9054906101000a900473ffffffffffffffffffffffffffffffffffffffff166007600b548480546106be90611be5565b80601f01602080910402602001604051908101604052809291908181526020018280546106ea90611be5565b80156107355780601f1061070c57610100808354040283529160200191610735565b820191905f5260205f20905b81548152906001019060200180831161071857829003601f168201915b5050505050945083805461074890611be5565b80601f016020809104026020016040519081016040528092919081815260200182805461077490611be5565b80156107bf5780601f10610796576101008083540402835291602001916107bf565b820191905f5260205f20905b8154815290600101906020018083116107a257829003601f168201915b505050505093508180548060200260200160405190810160405280929190818152602001828054801561084457602002820191905f5260205f20905b815f9054906101000a900473ffffffffffffffffffffffffffffffffffffffff1673ffffffffffffffffffffffffffffffffffffffff16815260200190600101908083116107fb575b50505050509150995099509950995099509950995099509950995090919293949596979899565b5f5f9054906101000a900473ffffffffffffffffffffffffffffffffffffffff1681565b5f600c5f9054906101000a900460ff16905090565b600380546108b190611be5565b80601f01602080910402602001604051908101604052809291908181526020018280546108dd90611be5565b80156109285780601f106108ff57610100808354040283529160200191610928565b820191905f5260205f20905b81548152906001019060200180831161090b57829003601f168201915b505050505081565b600c5f9054906101000a900460ff1681565b6005602052805f5260405f205f915090505481565b6002805461096490611be5565b80601f016020809104026020016040519081016040528092919081815260200182805461099090611be5565b80156109db5780601f106109b2576101008083540402835291602001916109db565b820191905f5260205f20905b8154815290600101906020018083116109be57829003601f168201915b505050505081565b60065481565b60606008805480602002602001604051908101604052809291908181526020015f905b82821015610aa4578382905f5260205f2090600302016040518060600160405290815f820154815260200160018201548152602001600282015f9054906101000a900473ffffffffffffffffffffffffffffffffffffffff1673ffffffffffffffffffffffffffffffffffffffff1673ffffffffffffffffffffffffffffffffffffffff168152505081526020019060010190610a0c565b50505050905090565b60095f9054906101000a900473ffffffffffffffffffffffffffffffffffffffff1681565b60015481565b600b54421015610b1d576040517f08c379a0000000000000000000000000000000000000000000000000000000008152600401610b1490611c9e565b60405180910390fd5b600c5f9054906101000a900460ff1615610b6c576040517f08c379a0000000000000000000000000000000000000000000000000000000008152600401610b6390611d06565b60405180910390fd5b5f5f90505b600780549050811015610dd7575f60078281548110610b9357610b92611d24565b5b905f5260205f20015f9054906101000a900473ffffffffffffffffffffffffffffffffffffffff16905060095f9054906101000a900473ffffffffffffffffffffffffffffffffffffffff1673ffffffffffffffffffffffffffffffffffffffff168173ffffffffffffffffffffffffffffffffffffffff1614610dc9575f60055f8373ffffffffffffffffffffffffffffffffffffffff1673ffffffffffffffffffffffffffffffffffffffff1681526020019081526020015f205490505f811115610dc7575f60055f8473ffffffffffffffffffffffffffffffffffffffff1673ffffffffffffffffffffffffffffffffffffffff1681526020019081526020015f2081905550600c60019054906101000a900473ffffffffffffffffffffffffffffffffffffffff1673ffffffffffffffffffffffffffffffffffffffff1663a9059cbb83836040518363ffffffff1660e01b8152600401610cf9929190611d51565b6020604051808303815f875af1158015610d15573d5f5f3e3d5ffd5b505050506040513d601f19601f82011682018060405250810190610d399190611da2565b610d78576040517f08c379a0000000000000000000000000000000000000000000000000000000008152600401610d6f90611e17565b60405180910390fd5b8173ffffffffffffffffffffffffffffffffffffffff167f3367befd2b2f39615cd79917c2153263c4af1d3945ec003e5d5bfc13a8d8583382604051610dbe919061167c565b60405180910390a25b505b508080600101915050610b71565b505f600a541115610f5157600c60019054906101000a900473ffffffffffffffffffffffffffffffffffffffff1673ffffffffffffffffffffffffffffffffffffffff1663a9059cbb5f5f9054906101000a900473ffffffffffffffffffffffffffffffffffffffff16600a546040518363ffffffff1660e01b8152600401610e61929190611d51565b6020604051808303815f875af1158015610e7d573d5f5f3e3d5ffd5b505050506040513d601f19601f82011682018060405250810190610ea19190611da2565b610ee0576040517f08c379a0000000000000000000000000000000000000000000000000000000008152600401610ed790611e7f565b60405180910390fd5b5f5f9054906101000a900473ffffffffffffffffffffffffffffffffffffffff1673ffffffffffffffffffffffffffffffffffffffff167fcb4a9094da4df77fb2c0dbaa5047660b1237e61d82a02176c1be74ca757f2531600a54604051610f48919061167c565b60405180910390a25b6001600c5f6101000a81548160ff021916908315150217905550565b60088181548110610f7c575f80fd5b905f5260205f2090600302015f91509050805f015490806001015490806002015f9054906101000a900473ffffffffffffffffffffffffffffffffffffffff16905083565b6060600780548060200260200160405190810160405280929190818152602001828054801561104257602002820191905f5260205f20905b815f9054906101000a900473ffffffffffffffffffffffffffffffffffffffff1673ffffffffffffffffffffffffffffffffffffffff1681526020019060010190808311610ff9575b5050505050905090565b600b544210611090576040517f08c379a000000000000000000000000000000000000000000000000000000000815260040161108790611ee7565b60405180910390fd5b5f5f9054906101000a900473ffffffffffffffffffffffffffffffffffffffff1673ffffffffffffffffffffffffffffffffffffffff163373ffffffffffffffffffffffffffffffffffffffff160361111e576040517f08c379a000000000000000000000000000000000000000000000000000000000815260040161111590611f75565b60405180910390fd5b5f60055f3373ffffffffffffffffffffffffffffffffffffffff1673ffffffffffffffffffffffffffffffffffffffff1681526020019081526020015f205490505f828261116c9190611fc0565b90505f82036111bb576001548110156111ba576040517f08c379a00000000000000000000000000000000000000000000000000000000081526004016111b19061203d565b60405180910390fd5b5b600a5481116111ff576040517f08c379a00000000000000000000000000000000000000000000000000000000081526004016111f6906120a5565b60405180910390fd5b600c60019054906101000a900473ffffffffffffffffffffffffffffffffffffffff1673ffffffffffffffffffffffffffffffffffffffff166323b872dd3330866040518463ffffffff1660e01b815260040161125e939291906120c3565b6020604051808303815f875af115801561127a573d5f5f3e3d5ffd5b505050506040513d601f19601f8201168201806040525081019061129e9190611da2565b508060055f3373ffffffffffffffffffffffffffffffffffffffff1673ffffffffffffffffffffffffffffffffffffffff1681526020019081526020015f208190555080600a819055503360095f6101000a81548173ffffffffffffffffffffffffffffffffffffffff021916908373ffffffffffffffffffffffffffffffffffffffff160217905550600860405180606001604052808581526020014281526020013373ffffffffffffffffffffffffffffffffffffffff16815250908060018154018082558091505060019003905f5260205f2090600302015f909190919091505f820151815f0155602082015181600101556040820151816002015f6101000a81548173ffffffffffffffffffffffffffffffffffffffff021916908373ffffffffffffffffffffffffffffffffffffffff160217905550505060045f3373ffffffffffffffffffffffffffffffffffffffff1673ffffffffffffffffffffffffffffffffffffffff1681526020019081526020015f205f9054906101000a900460ff166114f657600160045f3373ffffffffffffffffffffffffffffffffffffffff1673ffffffffffffffffffffffffffffffffffffffff1681526020019081526020015f205f6101000a81548160ff02191690831515021790555060065f815480929190611490906120f8565b9190505550600733908060018154018082558091505060019003905f5260205f20015f9091909190916101000a81548173ffffffffffffffffffffffffffffffffffffffff021916908373ffffffffffffffffffffffffffffffffffffffff1602179055505b505050565b5f60055f8373ffffffffffffffffffffffffffffffffffffffff1673ffffffffffffffffffffffffffffffffffffffff1681526020019081526020015f20549050919050565b600a5481565b60078181548110611556575f80fd5b905f5260205f20015f915054906101000a900473ffffffffffffffffffffffffffffffffffffffff1681565b600c60019054906101000a900473ffffffffffffffffffffffffffffffffffffffff1681565b5f5ffd5b5f73ffffffffffffffffffffffffffffffffffffffff82169050919050565b5f6115d5826115ac565b9050919050565b6115e5816115cb565b81146115ef575f5ffd5b50565b5f81359050611600816115dc565b92915050565b5f6020828403121561161b5761161a6115a8565b5b5f611628848285016115f2565b91505092915050565b5f8115159050919050565b61164581611631565b82525050565b5f60208201905061165e5f83018461163c565b92915050565b5f819050919050565b61167681611664565b82525050565b5f60208201905061168f5f83018461166d565b92915050565b5f81519050919050565b5f82825260208201905092915050565b8281835e5f83830152505050565b5f601f19601f8301169050919050565b5f6116d782611695565b6116e1818561169f565b93506116f18185602086016116af565b6116fa816116bd565b840191505092915050565b5f6020820190508181035f83015261171d81846116cd565b905092915050565b61172e816115cb565b82525050565b5f81519050919050565b5f82825260208201905092915050565b5f819050602082019050919050565b611766816115cb565b82525050565b5f611777838361175d565b60208301905092915050565b5f602082019050919050565b5f61179982611734565b6117a3818561173e565b93506117ae8361174e565b805f5b838110156117de5781516117c5888261176c565b97506117d083611783565b9250506001810190506117b1565b5085935050505092915050565b5f610140820190506117ff5f83018d61166d565b61180c602083018c61166d565b611819604083018b61166d565b611826606083018a611725565b611833608083018961166d565b81810360a083015261184581886116cd565b905081810360c083015261185981876116cd565b905061186860e0830186611725565b81810361010083015261187b818561178f565b905061188b61012083018461166d565b9b9a5050505050505050505050565b5f6020820190506118ad5f830184611725565b92915050565b5f81519050919050565b5f82825260208201905092915050565b5f819050602082019050919050565b6118e581611664565b82525050565b606082015f8201516118ff5f8501826118dc565b50602082015161191260208501826118dc565b506040820151611925604085018261175d565b50505050565b5f61193683836118eb565b60608301905092915050565b5f602082019050919050565b5f611958826118b3565b61196281856118bd565b935061196d836118cd565b805f5b8381101561199d578151611984888261192b565b975061198f83611942565b925050600181019050611970565b5085935050505092915050565b5f6020820190508181035f8301526119c2818461194e565b905092915050565b6119d381611664565b81146119dd575f5ffd5b50565b5f813590506119ee816119ca565b92915050565b5f60208284031215611a0957611a086115a8565b5b5f611a16848285016119e0565b91505092915050565b5f606082019050611a325f83018661166d565b611a3f602083018561166d565b611a4c6040830184611725565b949350505050565b5f6020820190508181035f830152611a6c818461178f565b905092915050565b5f819050919050565b5f611a97611a92611a8d846115ac565b611a74565b6115ac565b9050919050565b5f611aa882611a7d565b9050919050565b5f611ab982611a9e565b9050919050565b611ac981611aaf565b82525050565b5f602082019050611ae25f830184611ac0565b92915050565b7f41756374696f6e206e6f742066696e616c697a656400000000000000000000005f82015250565b5f611b1c60158361169f565b9150611b2782611ae8565b602082019050919050565b5f6020820190508181035f830152611b4981611b10565b9050919050565b7f4f6e6c792077696e6e65722063616e20616363657373207468652064617461005f82015250565b5f611b84601f8361169f565b9150611b8f82611b50565b602082019050919050565b5f6020820190508181035f830152611bb181611b78565b9050919050565b7f4e487b71000000000000000000000000000000000000000000000000000000005f52602260045260245ffd5b5f6002820490506001821680611bfc57607f821691505b602082108103611c0f57611c0e611bb8565b5b50919050565b5f81519050611c23816119ca565b92915050565b5f60208284031215611c3e57611c3d6115a8565b5b5f611c4b84828501611c15565b91505092915050565b7f41756374696f6e206e6f7420656e6465642079657400000000000000000000005f82015250565b5f611c8860158361169f565b9150611c9382611c54565b602082019050919050565b5f6020820190508181035f830152611cb581611c7c565b9050919050565b7f41756374696f6e20616c72656164792066696e616c697a6564000000000000005f82015250565b5f611cf060198361169f565b9150611cfb82611cbc565b602082019050919050565b5f6020820190508181035f830152611d1d81611ce4565b9050919050565b7f4e487b71000000000000000000000000000000000000000000000000000000005f52603260045260245ffd5b5f604082019050611d645f830185611725565b611d71602083018461166d565b9392505050565b611d8181611631565b8114611d8b575f5ffd5b50565b5f81519050611d9c81611d78565b92915050565b5f60208284031215611db757611db66115a8565b5b5f611dc484828501611d8e565b91505092915050565b7f526566756e64206661696c6564000000000000000000000000000000000000005f82015250565b5f611e01600d8361169f565b9150611e0c82611dcd565b602082019050919050565b5f6020820190508181035f830152611e2e81611df5565b9050919050565b7f5061796d656e7420746f2073656c6c6572206661696c656400000000000000005f82015250565b5f611e6960188361169f565b9150611e7482611e35565b602082019050919050565b5f6020820190508181035f830152611e9681611e5d565b9050919050565b7f41756374696f6e20656e646564000000000000000000000000000000000000005f82015250565b5f611ed1600d8361169f565b9150611edc82611e9d565b602082019050919050565b5f6020820190508181035f830152611efe81611ec5565b9050919050565b7f596f752063616e277420626964206f6e20796f7572206f776e2061756374696f5f8201527f6e00000000000000000000000000000000000000000000000000000000000000602082015250565b5f611f5f60218361169f565b9150611f6a82611f05565b604082019050919050565b5f6020820190508181035f830152611f8c81611f53565b9050919050565b7f4e487b71000000000000000000000000000000000000000000000000000000005f52601160045260245ffd5b5f611fca82611664565b9150611fd583611664565b9250828201905080821115611fed57611fec611f93565b5b92915050565b7f42656c6f77206d696e696d756d206269640000000000000000000000000000005f82015250565b5f61202760118361169f565b915061203282611ff3565b602082019050919050565b5f6020820190508181035f8301526120548161201b565b9050919050565b7f426964206d757374206578636565642063757272656e742068696768657374005f82015250565b5f61208f601f8361169f565b915061209a8261205b565b602082019050919050565b5f6020820190508181035f8301526120bc81612083565b9050919050565b5f6060820190506120d65f830186611725565b6120e36020830185611725565b6120f0604083018461166d565b949350505050565b5f61210282611664565b91507fffffffffffffffffffffffffffffffffffffffffffffffffffffffffffffffff820361213457612133611f93565b5b60018201905091905056fea26469706673582212209c65986a45bd82321c51cd3e6c417526724900f5a5967af82aeac6366a37837e64736f6c634300081e0033a264697066735822122062f4ae327912cfd35a08dda9fc0fa420fe5aed0eb92888d8dce8a5f86274516264736f6c634300081e0033","opcodes":"PUSH1 0x80 PUSH1 0x40 MSTORE CALLVALUE DUP1 ISZERO PUSH1 0xE JUMPI PUSH0 PUSH0 REVERT JUMPDEST POP PUSH2 0x3243 DUP1 PUSH2 0x1C PUSH0 CODECOPY PUSH0 RETURN INVALID PUSH1 0x80 PUSH1 0x40 MSTORE CALLVALUE DUP1 ISZERO PUSH2 0xF JUMPI PUSH0 PUSH0 REVERT JUMPDEST POP PUSH1 0x4 CALLDATASIZE LT PUSH2 0x4A JUMPI PUSH0 CALLDATALOAD PUSH1 0xE0 SHR DUP1 PUSH4 0x339D50A5 EQ PUSH2 0x4E JUMPI DUP1 PUSH4 0x4ACB9D4F EQ PUSH2 0x7E JUMPI DUP1 PUSH4 0x75DA6BA0 EQ PUSH2 0x9C JUMPI DUP1 PUSH4 0xF9F01F88 EQ PUSH2 0xA6 JUMPI JUMPDEST PUSH0 PUSH0 REVERT JUMPDEST PUSH2 0x68 PUSH1 0x4 DUP1 CALLDATASIZE SUB DUP2 ADD SWAP1 PUSH2 0x63 SWAP2 SWAP1 PUSH2 0x43F JUMP JUMPDEST PUSH2 0xC2 JUMP JUMPDEST PUSH1 0x40 MLOAD PUSH2 0x75 SWAP2 SWAP1 PUSH2 0x4A9 JUMP JUMPDEST PUSH1 0x40 MLOAD DUP1 SWAP2 SUB SWAP1 RETURN JUMPDEST PUSH2 0x86 PUSH2 0xFC JUMP JUMPDEST PUSH1 0x40 MLOAD PUSH2 0x93 SWAP2 SWAP1 PUSH2 0x579 JUMP JUMPDEST PUSH1 0x40 MLOAD DUP1 SWAP2 SUB SWAP1 RETURN JUMPDEST PUSH2 0xA4 PUSH2 0x186 JUMP JUMPDEST STOP JUMPDEST PUSH2 0xC0 PUSH1 0x4 DUP1 CALLDATASIZE SUB DUP2 ADD SWAP1 PUSH2 0xBB SWAP2 SWAP1 PUSH2 0x710 JUMP JUMPDEST PUSH2 0x32D JUMP JUMPDEST STOP JUMPDEST PUSH0 DUP2 DUP2 SLOAD DUP2 LT PUSH2 0xD0 JUMPI PUSH0 DUP1 REVERT JUMPDEST SWAP1 PUSH0 MSTORE PUSH1 0x20 PUSH0 KECCAK256 ADD PUSH0 SWAP2 POP SLOAD SWAP1 PUSH2 0x100 EXP SWAP1 DIV PUSH20 0xFFFFFFFFFFFFFFFFFFFFFFFFFFFFFFFFFFFFFFFF AND DUP2 JUMP JUMPDEST PUSH1 0x60 PUSH0 DUP1 SLOAD DUP1 PUSH1 0x20 MUL PUSH1 0x20 ADD PUSH1 0x40 MLOAD SWAP1 DUP2 ADD PUSH1 0x40 MSTORE DUP1 SWAP3 SWAP2 SWAP1 DUP2 DUP2 MSTORE PUSH1 0x20 ADD DUP3 DUP1 SLOAD DUP1 ISZERO PUSH2 0x17C JUMPI PUSH1 0x20 MUL DUP3 ADD SWAP2 SWAP1 PUSH0 MSTORE PUSH1 0x20 PUSH0 KECCAK256 SWAP1 JUMPDEST DUP2 PUSH0 SWAP1 SLOAD SWAP1 PUSH2 0x100 EXP SWAP1 DIV PUSH20 0xFFFFFFFFFFFFFFFFFFFFFFFFFFFFFFFFFFFFFFFF AND PUSH20 0xFFFFFFFFFFFFFFFFFFFFFFFFFFFFFFFFFFFFFFFF AND DUP2 MSTORE PUSH1 0x20 ADD SWAP1 PUSH1 0x1 ADD SWAP1 DUP1 DUP4 GT PUSH2 0x133 JUMPI JUMPDEST POP POP POP POP POP SWAP1 POP SWAP1 JUMP JUMPDEST PUSH0 PUSH0 SWAP1 POP JUMPDEST PUSH0 DUP1 SLOAD SWAP1 POP DUP2 LT ISZERO PUSH2 0x32A JUMPI PUSH0 PUSH0 DUP3 DUP2 SLOAD DUP2 LT PUSH2 0x1AB JUMPI PUSH2 0x1AA PUSH2 0x7BF JUMP JUMPDEST JUMPDEST SWAP1 PUSH0 MSTORE PUSH1 0x20 PUSH0 KECCAK256 ADD PUSH0 SWAP1 SLOAD SWAP1 PUSH2 0x100 EXP SWAP1 DIV PUSH20 0xFFFFFFFFFFFFFFFFFFFFFFFFFFFFFFFFFFFFFFFF AND SWAP1 POP DUP1 PUSH20 0xFFFFFFFFFFFFFFFFFFFFFFFFFFFFFFFFFFFFFFFF AND PUSH4 0x4E69D560 PUSH1 0x40 MLOAD DUP2 PUSH4 0xFFFFFFFF AND PUSH1 0xE0 SHL DUP2 MSTORE PUSH1 0x4 ADD PUSH1 0x20 PUSH1 0x40 MLOAD DUP1 DUP4 SUB DUP2 DUP7 GAS STATICCALL ISZERO DUP1 ISZERO PUSH2 0x21E JUMPI RETURNDATASIZE PUSH0 PUSH0 RETURNDATACOPY RETURNDATASIZE PUSH0 REVERT JUMPDEST POP POP POP POP PUSH1 0x40 MLOAD RETURNDATASIZE PUSH1 0x1F NOT PUSH1 0x1F DUP3 ADD AND DUP3 ADD DUP1 PUSH1 0x40 MSTORE POP DUP2 ADD SWAP1 PUSH2 0x242 SWAP2 SWAP1 PUSH2 0x821 JUMP JUMPDEST ISZERO DUP1 ISZERO PUSH2 0x2BB JUMPI POP DUP1 PUSH20 0xFFFFFFFFFFFFFFFFFFFFFFFFFFFFFFFFFFFFFFFF AND PUSH4 0x3197CBB6 PUSH1 0x40 MLOAD DUP2 PUSH4 0xFFFFFFFF AND PUSH1 0xE0 SHL DUP2 MSTORE PUSH1 0x4 ADD PUSH1 0x20 PUSH1 0x40 MLOAD DUP1 DUP4 SUB DUP2 DUP7 GAS STATICCALL ISZERO DUP1 ISZERO PUSH2 0x293 JUMPI RETURNDATASIZE PUSH0 PUSH0 RETURNDATACOPY RETURNDATASIZE PUSH0 REVERT JUMPDEST POP POP POP POP PUSH1 0x40 MLOAD RETURNDATASIZE PUSH1 0x1F NOT PUSH1 0x1F DUP3 ADD AND DUP3 ADD DUP1 PUSH1 0x40 MSTORE POP DUP2 ADD SWAP1 PUSH2 0x2B7 SWAP2 SWAP1 PUSH2 0x860 JUMP JUMPDEST TIMESTAMP LT ISZERO JUMPDEST ISZERO PUSH2 0x31C JUMPI DUP1 PUSH20 0xFFFFFFFFFFFFFFFFFFFFFFFFFFFFFFFFFFFFFFFF AND PUSH4 0x976AF615 PUSH1 0x40 MLOAD DUP2 PUSH4 0xFFFFFFFF AND PUSH1 0xE0 SHL DUP2 MSTORE PUSH1 0x4 ADD PUSH0 PUSH1 0x40 MLOAD DUP1 DUP4 SUB DUP2 PUSH0 DUP8 DUP1 EXTCODESIZE ISZERO DUP1 ISZERO PUSH2 0x305 JUMPI PUSH0 PUSH0 REVERT JUMPDEST POP GAS CALL ISZERO DUP1 ISZERO PUSH2 0x317 JUMPI RETURNDATASIZE PUSH0 PUSH0 RETURNDATACOPY RETURNDATASIZE PUSH0 REVERT JUMPDEST POP POP POP POP JUMPDEST POP DUP1 DUP1 PUSH1 0x1 ADD SWAP2 POP POP PUSH2 0x18B JUMP JUMPDEST POP JUMP JUMPDEST PUSH0 TIMESTAMP DUP4 PUSH1 0x3C PUSH2 0x33C SWAP2 SWAP1 PUSH2 0x8B8 JUMP JUMPDEST PUSH2 0x346 SWAP2 SWAP1 PUSH2 0x8F9 JUMP JUMPDEST SWAP1 POP PUSH0 DUP7 DUP7 DUP7 CALLER DUP6 DUP8 PUSH1 0x40 MLOAD PUSH2 0x35B SWAP1 PUSH2 0x3EE JUMP JUMPDEST PUSH2 0x36A SWAP7 SWAP6 SWAP5 SWAP4 SWAP3 SWAP2 SWAP1 PUSH2 0x9AA JUMP JUMPDEST PUSH1 0x40 MLOAD DUP1 SWAP2 SUB SWAP1 PUSH0 CREATE DUP1 ISZERO DUP1 ISZERO PUSH2 0x383 JUMPI RETURNDATASIZE PUSH0 PUSH0 RETURNDATACOPY RETURNDATASIZE PUSH0 REVERT JUMPDEST POP SWAP1 POP PUSH0 DUP2 SWAP1 DUP1 PUSH1 0x1 DUP2 SLOAD ADD DUP1 DUP3 SSTORE DUP1 SWAP2 POP POP PUSH1 0x1 SWAP1 SUB SWAP1 PUSH0 MSTORE PUSH1 0x20 PUSH0 KECCAK256 ADD PUSH0 SWAP1 SWAP2 SWAP1 SWAP2 SWAP1 SWAP2 PUSH2 0x100 EXP DUP2 SLOAD DUP2 PUSH20 0xFFFFFFFFFFFFFFFFFFFFFFFFFFFFFFFFFFFFFFFF MUL NOT AND SWAP1 DUP4 PUSH20 0xFFFFFFFFFFFFFFFFFFFFFFFFFFFFFFFFFFFFFFFF AND MUL OR SWAP1 SSTORE POP POP POP POP POP POP POP POP JUMP JUMPDEST PUSH2 0x27F6 DUP1 PUSH2 0xA18 DUP4 CODECOPY ADD SWAP1 JUMP JUMPDEST PUSH0 PUSH1 0x40 MLOAD SWAP1 POP SWAP1 JUMP JUMPDEST PUSH0 PUSH0 REVERT JUMPDEST PUSH0 PUSH0 REVERT JUMPDEST PUSH0 DUP2 SWAP1 POP SWAP2 SWAP1 POP JUMP JUMPDEST PUSH2 0x41E DUP2 PUSH2 0x40C JUMP JUMPDEST DUP2 EQ PUSH2 0x428 JUMPI PUSH0 PUSH0 REVERT JUMPDEST POP JUMP JUMPDEST PUSH0 DUP2 CALLDATALOAD SWAP1 POP PUSH2 0x439 DUP2 PUSH2 0x415 JUMP JUMPDEST SWAP3 SWAP2 POP POP JUMP JUMPDEST PUSH0 PUSH1 0x20 DUP3 DUP5 SUB SLT ISZERO PUSH2 0x454 JUMPI PUSH2 0x453 PUSH2 0x404 JUMP JUMPDEST JUMPDEST PUSH0 PUSH2 0x461 DUP5 DUP3 DUP6 ADD PUSH2 0x42B JUMP JUMPDEST SWAP2 POP POP SWAP3 SWAP2 POP POP JUMP JUMPDEST PUSH0 PUSH20 0xFFFFFFFFFFFFFFFFFFFFFFFFFFFFFFFFFFFFFFFF DUP3 AND SWAP1 POP SWAP2 SWAP1 POP JUMP JUMPDEST PUSH0 PUSH2 0x493 DUP3 PUSH2 0x46A JUMP JUMPDEST SWAP1 POP SWAP2 SWAP1 POP JUMP JUMPDEST PUSH2 0x4A3 DUP2 PUSH2 0x489 JUMP JUMPDEST DUP3 MSTORE POP POP JUMP JUMPDEST PUSH0 PUSH1 0x20 DUP3 ADD SWAP1 POP PUSH2 0x4BC PUSH0 DUP4 ADD DUP5 PUSH2 0x49A JUMP JUMPDEST SWAP3 SWAP2 POP POP JUMP JUMPDEST PUSH0 DUP2 MLOAD SWAP1 POP SWAP2 SWAP1 POP JUMP JUMPDEST PUSH0 DUP3 DUP3 MSTORE PUSH1 0x20 DUP3 ADD SWAP1 POP SWAP3 SWAP2 POP POP JUMP JUMPDEST PUSH0 DUP2 SWAP1 POP PUSH1 0x20 DUP3 ADD SWAP1 POP SWAP2 SWAP1 POP JUMP JUMPDEST PUSH2 0x4F4 DUP2 PUSH2 0x489 JUMP JUMPDEST DUP3 MSTORE POP POP JUMP JUMPDEST PUSH0 PUSH2 0x505 DUP4 DUP4 PUSH2 0x4EB JUMP JUMPDEST PUSH1 0x20 DUP4 ADD SWAP1 POP SWAP3 SWAP2 POP POP JUMP JUMPDEST PUSH0 PUSH1 0x20 DUP3 ADD SWAP1 POP SWAP2 SWAP1 POP JUMP JUMPDEST PUSH0 PUSH2 0x527 DUP3 PUSH2 0x4C2 JUMP JUMPDEST PUSH2 0x531 DUP2 DUP6 PUSH2 0x4CC JUMP JUMPDEST SWAP4 POP PUSH2 0x53C DUP4 PUSH2 0x4DC JUMP JUMPDEST DUP1 PUSH0 JUMPDEST DUP4 DUP2 LT ISZERO PUSH2 0x56C JUMPI DUP2 MLOAD PUSH2 0x553 DUP9 DUP3 PUSH2 0x4FA JUMP JUMPDEST SWAP8 POP PUSH2 0x55E DUP4 PUSH2 0x511 JUMP JUMPDEST SWAP3 POP POP PUSH1 0x1 DUP2 ADD SWAP1 POP PUSH2 0x53F JUMP JUMPDEST POP DUP6 SWAP4 POP POP POP POP SWAP3 SWAP2 POP POP JUMP JUMPDEST PUSH0 PUSH1 0x20 DUP3 ADD SWAP1 POP DUP2 DUP2 SUB PUSH0 DUP4 ADD MSTORE PUSH2 0x591 DUP2 DUP5 PUSH2 0x51D JUMP JUMPDEST SWAP1 POP SWAP3 SWAP2 POP POP JUMP JUMPDEST PUSH0 PUSH0 REVERT JUMPDEST PUSH0 PUSH0 REVERT JUMPDEST PUSH0 PUSH1 0x1F NOT PUSH1 0x1F DUP4 ADD AND SWAP1 POP SWAP2 SWAP1 POP JUMP JUMPDEST PUSH32 0x4E487B7100000000000000000000000000000000000000000000000000000000 PUSH0 MSTORE PUSH1 0x41 PUSH1 0x4 MSTORE PUSH1 0x24 PUSH0 REVERT JUMPDEST PUSH2 0x5E7 DUP3 PUSH2 0x5A1 JUMP JUMPDEST DUP2 ADD DUP2 DUP2 LT PUSH8 0xFFFFFFFFFFFFFFFF DUP3 GT OR ISZERO PUSH2 0x606 JUMPI PUSH2 0x605 PUSH2 0x5B1 JUMP JUMPDEST JUMPDEST DUP1 PUSH1 0x40 MSTORE POP POP POP JUMP JUMPDEST PUSH0 PUSH2 0x618 PUSH2 0x3FB JUMP JUMPDEST SWAP1 POP PUSH2 0x624 DUP3 DUP3 PUSH2 0x5DE JUMP JUMPDEST SWAP2 SWAP1 POP JUMP JUMPDEST PUSH0 PUSH8 0xFFFFFFFFFFFFFFFF DUP3 GT ISZERO PUSH2 0x643 JUMPI PUSH2 0x642 PUSH2 0x5B1 JUMP JUMPDEST JUMPDEST PUSH2 0x64C DUP3 PUSH2 0x5A1 JUMP JUMPDEST SWAP1 POP PUSH1 0x20 DUP2 ADD SWAP1 POP SWAP2 SWAP1 POP JUMP JUMPDEST DUP3 DUP2 DUP4 CALLDATACOPY PUSH0 DUP4 DUP4 ADD MSTORE POP POP POP JUMP JUMPDEST PUSH0 PUSH2 0x679 PUSH2 0x674 DUP5 PUSH2 0x629 JUMP JUMPDEST PUSH2 0x60F JUMP JUMPDEST SWAP1 POP DUP3 DUP2 MSTORE PUSH1 0x20 DUP2 ADD DUP5 DUP5 DUP5 ADD GT ISZERO PUSH2 0x695 JUMPI PUSH2 0x694 PUSH2 0x59D JUMP JUMPDEST JUMPDEST PUSH2 0x6A0 DUP5 DUP3 DUP6 PUSH2 0x659 JUMP JUMPDEST POP SWAP4 SWAP3 POP POP POP JUMP JUMPDEST PUSH0 DUP3 PUSH1 0x1F DUP4 ADD SLT PUSH2 0x6BC JUMPI PUSH2 0x6BB PUSH2 0x599 JUMP JUMPDEST JUMPDEST DUP2 CALLDATALOAD PUSH2 0x6CC DUP5 DUP3 PUSH1 0x20 DUP7 ADD PUSH2 0x667 JUMP JUMPDEST SWAP2 POP POP SWAP3 SWAP2 POP POP JUMP JUMPDEST PUSH0 PUSH2 0x6DF DUP3 PUSH2 0x46A JUMP JUMPDEST SWAP1 POP SWAP2 SWAP1 POP JUMP JUMPDEST PUSH2 0x6EF DUP2 PUSH2 0x6D5 JUMP JUMPDEST DUP2 EQ PUSH2 0x6F9 JUMPI PUSH0 PUSH0 REVERT JUMPDEST POP JUMP JUMPDEST PUSH0 DUP2 CALLDATALOAD SWAP1 POP PUSH2 0x70A DUP2 PUSH2 0x6E6 JUMP JUMPDEST SWAP3 SWAP2 POP POP JUMP JUMPDEST PUSH0 PUSH0 PUSH0 PUSH0 PUSH0 PUSH1 0xA0 DUP7 DUP9 SUB SLT ISZERO PUSH2 0x729 JUMPI PUSH2 0x728 PUSH2 0x404 JUMP JUMPDEST JUMPDEST PUSH0 PUSH2 0x736 DUP9 DUP3 DUP10 ADD PUSH2 0x42B JUMP JUMPDEST SWAP6 POP POP PUSH1 0x20 DUP7 ADD CALLDATALOAD PUSH8 0xFFFFFFFFFFFFFFFF DUP2 GT ISZERO PUSH2 0x757 JUMPI PUSH2 0x756 PUSH2 0x408 JUMP JUMPDEST JUMPDEST PUSH2 0x763 DUP9 DUP3 DUP10 ADD PUSH2 0x6A8 JUMP JUMPDEST SWAP5 POP POP PUSH1 0x40 DUP7 ADD CALLDATALOAD PUSH8 0xFFFFFFFFFFFFFFFF DUP2 GT ISZERO PUSH2 0x784 JUMPI PUSH2 0x783 PUSH2 0x408 JUMP JUMPDEST JUMPDEST PUSH2 0x790 DUP9 DUP3 DUP10 ADD PUSH2 0x6A8 JUMP JUMPDEST SWAP4 POP POP PUSH1 0x60 PUSH2 0x7A1 DUP9 DUP3 DUP10 ADD PUSH2 0x42B JUMP JUMPDEST SWAP3 POP POP PUSH1 0x80 PUSH2 0x7B2 DUP9 DUP3 DUP10 ADD PUSH2 0x6FC JUMP JUMPDEST SWAP2 POP POP SWAP3 SWAP6 POP SWAP3 SWAP6 SWAP1 SWAP4 POP JUMP JUMPDEST PUSH32 0x4E487B7100000000000000000000000000000000000000000000000000000000 PUSH0 MSTORE PUSH1 0x32 PUSH1 0x4 MSTORE PUSH1 0x24 PUSH0 REVERT JUMPDEST PUSH0 DUP2 ISZERO ISZERO SWAP1 POP SWAP2 SWAP1 POP JUMP JUMPDEST PUSH2 0x800 DUP2 PUSH2 0x7EC JUMP JUMPDEST DUP2 EQ PUSH2 0x80A JUMPI PUSH0 PUSH0 REVERT JUMPDEST POP JUMP JUMPDEST PUSH0 DUP2 MLOAD SWAP1 POP PUSH2 0x81B DUP2 PUSH2 0x7F7 JUMP JUMPDEST SWAP3 SWAP2 POP POP JUMP JUMPDEST PUSH0 PUSH1 0x20 DUP3 DUP5 SUB SLT ISZERO PUSH2 0x836 JUMPI PUSH2 0x835 PUSH2 0x404 JUMP JUMPDEST JUMPDEST PUSH0 PUSH2 0x843 DUP5 DUP3 DUP6 ADD PUSH2 0x80D JUMP JUMPDEST SWAP2 POP POP SWAP3 SWAP2 POP POP JUMP JUMPDEST PUSH0 DUP2 MLOAD SWAP1 POP PUSH2 0x85A DUP2 PUSH2 0x415 JUMP JUMPDEST SWAP3 SWAP2 POP POP JUMP JUMPDEST PUSH0 PUSH1 0x20 DUP3 DUP5 SUB SLT ISZERO PUSH2 0x875 JUMPI PUSH2 0x874 PUSH2 0x404 JUMP JUMPDEST JUMPDEST PUSH0 PUSH2 0x882 DUP5 DUP3 DUP6 ADD PUSH2 0x84C JUMP JUMPDEST SWAP2 POP POP SWAP3 SWAP2 POP POP JUMP JUMPDEST PUSH32 0x4E487B7100000000000000000000000000000000000000000000000000000000 PUSH0 MSTORE PUSH1 0x11 PUSH1 0x4 MSTORE PUSH1 0x24 PUSH0 REVERT JUMPDEST PUSH0 PUSH2 0x8C2 DUP3 PUSH2 0x40C JUMP JUMPDEST SWAP2 POP PUSH2 0x8CD DUP4 PUSH2 0x40C JUMP JUMPDEST SWAP3 POP DUP3 DUP3 MUL PUSH2 0x8DB DUP2 PUSH2 0x40C JUMP JUMPDEST SWAP2 POP DUP3 DUP3 DIV DUP5 EQ DUP4 ISZERO OR PUSH2 0x8F2 JUMPI PUSH2 0x8F1 PUSH2 0x88B JUMP JUMPDEST JUMPDEST POP SWAP3 SWAP2 POP POP JUMP JUMPDEST PUSH0 PUSH2 0x903 DUP3 PUSH2 0x40C JUMP JUMPDEST SWAP2 POP PUSH2 0x90E DUP4 PUSH2 0x40C JUMP JUMPDEST SWAP3 POP DUP3 DUP3 ADD SWAP1 POP DUP1 DUP3 GT ISZERO PUSH2 0x926 JUMPI PUSH2 0x925 PUSH2 0x88B JUMP JUMPDEST JUMPDEST SWAP3 SWAP2 POP POP JUMP JUMPDEST PUSH2 0x935 DUP2 PUSH2 0x40C JUMP JUMPDEST DUP3 MSTORE POP POP JUMP JUMPDEST PUSH0 DUP2 MLOAD SWAP1 POP SWAP2 SWAP1 POP JUMP JUMPDEST PUSH0 DUP3 DUP3 MSTORE PUSH1 0x20 DUP3 ADD SWAP1 POP SWAP3 SWAP2 POP POP JUMP JUMPDEST DUP3 DUP2 DUP4 MCOPY PUSH0 DUP4 DUP4 ADD MSTORE POP POP POP JUMP JUMPDEST PUSH0 PUSH2 0x96D DUP3 PUSH2 0x93B JUMP JUMPDEST PUSH2 0x977 DUP2 DUP6 PUSH2 0x945 JUMP JUMPDEST SWAP4 POP PUSH2 0x987 DUP2 DUP6 PUSH1 0x20 DUP7 ADD PUSH2 0x955 JUMP JUMPDEST PUSH2 0x990 DUP2 PUSH2 0x5A1 JUMP JUMPDEST DUP5 ADD SWAP2 POP POP SWAP3 SWAP2 POP POP JUMP JUMPDEST PUSH2 0x9A4 DUP2 PUSH2 0x6D5 JUMP JUMPDEST DUP3 MSTORE POP POP JUMP JUMPDEST PUSH0 PUSH1 0xC0 DUP3 ADD SWAP1 POP PUSH2 0x9BD PUSH0 DUP4 ADD DUP10 PUSH2 0x92C JUMP JUMPDEST DUP2 DUP2 SUB PUSH1 0x20 DUP4 ADD MSTORE PUSH2 0x9CF DUP2 DUP9 PUSH2 0x963 JUMP JUMPDEST SWAP1 POP DUP2 DUP2 SUB PUSH1 0x40 DUP4 ADD MSTORE PUSH2 0x9E3 DUP2 DUP8 PUSH2 0x963 JUMP JUMPDEST SWAP1 POP PUSH2 0x9F2 PUSH1 0x60 DUP4 ADD DUP7 PUSH2 0x99B JUMP JUMPDEST PUSH2 0x9FF PUSH1 0x80 DUP4 ADD DUP6 PUSH2 0x92C JUMP JUMPDEST PUSH2 0xA0C PUSH1 0xA0 DUP4 ADD DUP5 PUSH2 0x99B JUMP JUMPDEST SWAP8 SWAP7 POP POP POP POP POP POP POP JUMP INVALID PUSH1 0x80 PUSH1 0x40 MSTORE CALLVALUE DUP1 ISZERO PUSH2 0xF JUMPI PUSH0 PUSH0 REVERT JUMPDEST POP PUSH1 0x40 MLOAD PUSH2 0x27F6 CODESIZE SUB DUP1 PUSH2 0x27F6 DUP4 CODECOPY DUP2 DUP2 ADD PUSH1 0x40 MSTORE DUP2 ADD SWAP1 PUSH2 0x31 SWAP2 SWAP1 PUSH2 0x2DD JUMP JUMPDEST DUP3 PUSH0 PUSH0 PUSH2 0x100 EXP DUP2 SLOAD DUP2 PUSH20 0xFFFFFFFFFFFFFFFFFFFFFFFFFFFFFFFFFFFFFFFF MUL NOT AND SWAP1 DUP4 PUSH20 0xFFFFFFFFFFFFFFFFFFFFFFFFFFFFFFFFFFFFFFFF AND MUL OR SWAP1 SSTORE POP DUP6 PUSH1 0x1 DUP2 SWAP1 SSTORE POP DUP5 PUSH1 0x2 SWAP1 DUP2 PUSH2 0x86 SWAP2 SWAP1 PUSH2 0x5A5 JUMP JUMPDEST POP DUP4 PUSH1 0x3 SWAP1 DUP2 PUSH2 0x96 SWAP2 SWAP1 PUSH2 0x5A5 JUMP JUMPDEST POP DUP2 PUSH1 0xB DUP2 SWAP1 SSTORE POP PUSH0 PUSH1 0xC PUSH0 PUSH2 0x100 EXP DUP2 SLOAD DUP2 PUSH1 0xFF MUL NOT AND SWAP1 DUP4 ISZERO ISZERO MUL OR SWAP1 SSTORE POP DUP1 PUSH1 0xC PUSH1 0x1 PUSH2 0x100 EXP DUP2 SLOAD DUP2 PUSH20 0xFFFFFFFFFFFFFFFFFFFFFFFFFFFFFFFFFFFFFFFF MUL NOT AND SWAP1 DUP4 PUSH20 0xFFFFFFFFFFFFFFFFFFFFFFFFFFFFFFFFFFFFFFFF AND MUL OR SWAP1 SSTORE POP POP POP POP POP POP POP PUSH2 0x674 JUMP JUMPDEST PUSH0 PUSH1 0x40 MLOAD SWAP1 POP SWAP1 JUMP JUMPDEST PUSH0 PUSH0 REVERT JUMPDEST PUSH0 PUSH0 REVERT JUMPDEST PUSH0 DUP2 SWAP1 POP SWAP2 SWAP1 POP JUMP JUMPDEST PUSH2 0x126 DUP2 PUSH2 0x114 JUMP JUMPDEST DUP2 EQ PUSH2 0x130 JUMPI PUSH0 PUSH0 REVERT JUMPDEST POP JUMP JUMPDEST PUSH0 DUP2 MLOAD SWAP1 POP PUSH2 0x141 DUP2 PUSH2 0x11D JUMP JUMPDEST SWAP3 SWAP2 POP POP JUMP JUMPDEST PUSH0 PUSH0 REVERT JUMPDEST PUSH0 PUSH0 REVERT JUMPDEST PUSH0 PUSH1 0x1F NOT PUSH1 0x1F DUP4 ADD AND SWAP1 POP SWAP2 SWAP1 POP JUMP JUMPDEST PUSH32 0x4E487B7100000000000000000000000000000000000000000000000000000000 PUSH0 MSTORE PUSH1 0x41 PUSH1 0x4 MSTORE PUSH1 0x24 PUSH0 REVERT JUMPDEST PUSH2 0x195 DUP3 PUSH2 0x14F JUMP JUMPDEST DUP2 ADD DUP2 DUP2 LT PUSH8 0xFFFFFFFFFFFFFFFF DUP3 GT OR ISZERO PUSH2 0x1B4 JUMPI PUSH2 0x1B3 PUSH2 0x15F JUMP JUMPDEST JUMPDEST DUP1 PUSH1 0x40 MSTORE POP POP POP JUMP JUMPDEST PUSH0 PUSH2 0x1C6 PUSH2 0x103 JUMP JUMPDEST SWAP1 POP PUSH2 0x1D2 DUP3 DUP3 PUSH2 0x18C JUMP JUMPDEST SWAP2 SWAP1 POP JUMP JUMPDEST PUSH0 PUSH8 0xFFFFFFFFFFFFFFFF DUP3 GT ISZERO PUSH2 0x1F1 JUMPI PUSH2 0x1F0 PUSH2 0x15F JUMP JUMPDEST JUMPDEST PUSH2 0x1FA DUP3 PUSH2 0x14F JUMP JUMPDEST SWAP1 POP PUSH1 0x20 DUP2 ADD SWAP1 POP SWAP2 SWAP1 POP JUMP JUMPDEST DUP3 DUP2 DUP4 MCOPY PUSH0 DUP4 DUP4 ADD MSTORE POP POP POP JUMP JUMPDEST PUSH0 PUSH2 0x227 PUSH2 0x222 DUP5 PUSH2 0x1D7 JUMP JUMPDEST PUSH2 0x1BD JUMP JUMPDEST SWAP1 POP DUP3 DUP2 MSTORE PUSH1 0x20 DUP2 ADD DUP5 DUP5 DUP5 ADD GT ISZERO PUSH2 0x243 JUMPI PUSH2 0x242 PUSH2 0x14B JUMP JUMPDEST JUMPDEST PUSH2 0x24E DUP5 DUP3 DUP6 PUSH2 0x207 JUMP JUMPDEST POP SWAP4 SWAP3 POP POP POP JUMP JUMPDEST PUSH0 DUP3 PUSH1 0x1F DUP4 ADD SLT PUSH2 0x26A JUMPI PUSH2 0x269 PUSH2 0x147 JUMP JUMPDEST JUMPDEST DUP2 MLOAD PUSH2 0x27A DUP5 DUP3 PUSH1 0x20 DUP7 ADD PUSH2 0x215 JUMP JUMPDEST SWAP2 POP POP SWAP3 SWAP2 POP POP JUMP JUMPDEST PUSH0 PUSH20 0xFFFFFFFFFFFFFFFFFFFFFFFFFFFFFFFFFFFFFFFF DUP3 AND SWAP1 POP SWAP2 SWAP1 POP JUMP JUMPDEST PUSH0 PUSH2 0x2AC DUP3 PUSH2 0x283 JUMP JUMPDEST SWAP1 POP SWAP2 SWAP1 POP JUMP JUMPDEST PUSH2 0x2BC DUP2 PUSH2 0x2A2 JUMP JUMPDEST DUP2 EQ PUSH2 0x2C6 JUMPI PUSH0 PUSH0 REVERT JUMPDEST POP JUMP JUMPDEST PUSH0 DUP2 MLOAD SWAP1 POP PUSH2 0x2D7 DUP2 PUSH2 0x2B3 JUMP JUMPDEST SWAP3 SWAP2 POP POP JUMP JUMPDEST PUSH0 PUSH0 PUSH0 PUSH0 PUSH0 PUSH0 PUSH1 0xC0 DUP8 DUP10 SUB SLT ISZERO PUSH2 0x2F7 JUMPI PUSH2 0x2F6 PUSH2 0x10C JUMP JUMPDEST JUMPDEST PUSH0 PUSH2 0x304 DUP10 DUP3 DUP11 ADD PUSH2 0x133 JUMP JUMPDEST SWAP7 POP POP PUSH1 0x20 DUP8 ADD MLOAD PUSH8 0xFFFFFFFFFFFFFFFF DUP2 GT ISZERO PUSH2 0x325 JUMPI PUSH2 0x324 PUSH2 0x110 JUMP JUMPDEST JUMPDEST PUSH2 0x331 DUP10 DUP3 DUP11 ADD PUSH2 0x256 JUMP JUMPDEST SWAP6 POP POP PUSH1 0x40 DUP8 ADD MLOAD PUSH8 0xFFFFFFFFFFFFFFFF DUP2 GT ISZERO PUSH2 0x352 JUMPI PUSH2 0x351 PUSH2 0x110 JUMP JUMPDEST JUMPDEST PUSH2 0x35E DUP10 DUP3 DUP11 ADD PUSH2 0x256 JUMP JUMPDEST SWAP5 POP POP PUSH1 0x60 PUSH2 0x36F DUP10 DUP3 DUP11 ADD PUSH2 0x2C9 JUMP JUMPDEST SWAP4 POP POP PUSH1 0x80 PUSH2 0x380 DUP10 DUP3 DUP11 ADD PUSH2 0x133 JUMP JUMPDEST SWAP3 POP POP PUSH1 0xA0 PUSH2 0x391 DUP10 DUP3 DUP11 ADD PUSH2 0x2C9 JUMP JUMPDEST SWAP2 POP POP SWAP3 SWAP6 POP SWAP3 SWAP6 POP SWAP3 SWAP6 JUMP JUMPDEST PUSH0 DUP2 MLOAD SWAP1 POP SWAP2 SWAP1 POP JUMP JUMPDEST PUSH32 0x4E487B7100000000000000000000000000000000000000000000000000000000 PUSH0 MSTORE PUSH1 0x22 PUSH1 0x4 MSTORE PUSH1 0x24 PUSH0 REVERT JUMPDEST PUSH0 PUSH1 0x2 DUP3 DIV SWAP1 POP PUSH1 0x1 DUP3 AND DUP1 PUSH2 0x3EC JUMPI PUSH1 0x7F DUP3 AND SWAP2 POP JUMPDEST PUSH1 0x20 DUP3 LT DUP2 SUB PUSH2 0x3FF JUMPI PUSH2 0x3FE PUSH2 0x3A8 JUMP JUMPDEST JUMPDEST POP SWAP2 SWAP1 POP JUMP JUMPDEST PUSH0 DUP2 SWAP1 POP DUP2 PUSH0 MSTORE PUSH1 0x20 PUSH0 KECCAK256 SWAP1 POP SWAP2 SWAP1 POP JUMP JUMPDEST PUSH0 PUSH1 0x20 PUSH1 0x1F DUP4 ADD DIV SWAP1 POP SWAP2 SWAP1 POP JUMP JUMPDEST PUSH0 DUP3 DUP3 SHL SWAP1 POP SWAP3 SWAP2 POP POP JUMP JUMPDEST PUSH0 PUSH1 0x8 DUP4 MUL PUSH2 0x461 PUSH32 0xFFFFFFFFFFFFFFFFFFFFFFFFFFFFFFFFFFFFFFFFFFFFFFFFFFFFFFFFFFFFFFFF DUP3 PUSH2 0x426 JUMP JUMPDEST PUSH2 0x46B DUP7 DUP4 PUSH2 0x426 JUMP JUMPDEST SWAP6 POP DUP1 NOT DUP5 AND SWAP4 POP DUP1 DUP7 AND DUP5 OR SWAP3 POP POP POP SWAP4 SWAP3 POP POP POP JUMP JUMPDEST PUSH0 DUP2 SWAP1 POP SWAP2 SWAP1 POP JUMP JUMPDEST PUSH0 PUSH2 0x4A6 PUSH2 0x4A1 PUSH2 0x49C DUP5 PUSH2 0x114 JUMP JUMPDEST PUSH2 0x483 JUMP JUMPDEST PUSH2 0x114 JUMP JUMPDEST SWAP1 POP SWAP2 SWAP1 POP JUMP JUMPDEST PUSH0 DUP2 SWAP1 POP SWAP2 SWAP1 POP JUMP JUMPDEST PUSH2 0x4BF DUP4 PUSH2 0x48C JUMP JUMPDEST PUSH2 0x4D3 PUSH2 0x4CB DUP3 PUSH2 0x4AD JUMP JUMPDEST DUP5 DUP5 SLOAD PUSH2 0x432 JUMP JUMPDEST DUP3 SSTORE POP POP POP POP JUMP JUMPDEST PUSH0 PUSH0 SWAP1 POP SWAP1 JUMP JUMPDEST PUSH2 0x4EA PUSH2 0x4DB JUMP JUMPDEST PUSH2 0x4F5 DUP2 DUP5 DUP5 PUSH2 0x4B6 JUMP JUMPDEST POP POP POP JUMP JUMPDEST JUMPDEST DUP2 DUP2 LT ISZERO PUSH2 0x518 JUMPI PUSH2 0x50D PUSH0 DUP3 PUSH2 0x4E2 JUMP JUMPDEST PUSH1 0x1 DUP2 ADD SWAP1 POP PUSH2 0x4FB JUMP JUMPDEST POP POP JUMP JUMPDEST PUSH1 0x1F DUP3 GT ISZERO PUSH2 0x55D JUMPI PUSH2 0x52E DUP2 PUSH2 0x405 JUMP JUMPDEST PUSH2 0x537 DUP5 PUSH2 0x417 JUMP JUMPDEST DUP2 ADD PUSH1 0x20 DUP6 LT ISZERO PUSH2 0x546 JUMPI DUP2 SWAP1 POP JUMPDEST PUSH2 0x55A PUSH2 0x552 DUP6 PUSH2 0x417 JUMP JUMPDEST DUP4 ADD DUP3 PUSH2 0x4FA JUMP JUMPDEST POP POP JUMPDEST POP POP POP JUMP JUMPDEST PUSH0 DUP3 DUP3 SHR SWAP1 POP SWAP3 SWAP2 POP POP JUMP JUMPDEST PUSH0 PUSH2 0x57D PUSH0 NOT DUP5 PUSH1 0x8 MUL PUSH2 0x562 JUMP JUMPDEST NOT DUP1 DUP4 AND SWAP2 POP POP SWAP3 SWAP2 POP POP JUMP JUMPDEST PUSH0 PUSH2 0x595 DUP4 DUP4 PUSH2 0x56E JUMP JUMPDEST SWAP2 POP DUP3 PUSH1 0x2 MUL DUP3 OR SWAP1 POP SWAP3 SWAP2 POP POP JUMP JUMPDEST PUSH2 0x5AE DUP3 PUSH2 0x39E JUMP JUMPDEST PUSH8 0xFFFFFFFFFFFFFFFF DUP2 GT ISZERO PUSH2 0x5C7 JUMPI PUSH2 0x5C6 PUSH2 0x15F JUMP JUMPDEST JUMPDEST PUSH2 0x5D1 DUP3 SLOAD PUSH2 0x3D5 JUMP JUMPDEST PUSH2 0x5DC DUP3 DUP3 DUP6 PUSH2 0x51C JUMP JUMPDEST PUSH0 PUSH1 0x20 SWAP1 POP PUSH1 0x1F DUP4 GT PUSH1 0x1 DUP2 EQ PUSH2 0x60D JUMPI PUSH0 DUP5 ISZERO PUSH2 0x5FB JUMPI DUP3 DUP8 ADD MLOAD SWAP1 POP JUMPDEST PUSH2 0x605 DUP6 DUP3 PUSH2 0x58A JUMP JUMPDEST DUP7 SSTORE POP PUSH2 0x66C JUMP JUMPDEST PUSH1 0x1F NOT DUP5 AND PUSH2 0x61B DUP7 PUSH2 0x405 JUMP JUMPDEST PUSH0 JUMPDEST DUP3 DUP2 LT ISZERO PUSH2 0x642 JUMPI DUP5 DUP10 ADD MLOAD DUP3 SSTORE PUSH1 0x1 DUP3 ADD SWAP2 POP PUSH1 0x20 DUP6 ADD SWAP5 POP PUSH1 0x20 DUP2 ADD SWAP1 POP PUSH2 0x61D JUMP JUMPDEST DUP7 DUP4 LT ISZERO PUSH2 0x65F JUMPI DUP5 DUP10 ADD MLOAD PUSH2 0x65B PUSH1 0x1F DUP10 AND DUP3 PUSH2 0x56E JUMP JUMPDEST DUP4 SSTORE POP JUMPDEST PUSH1 0x1 PUSH1 0x2 DUP9 MUL ADD DUP9 SSTORE POP POP POP JUMPDEST POP POP POP POP POP POP JUMP JUMPDEST PUSH2 0x2175 DUP1 PUSH2 0x681 PUSH0 CODECOPY PUSH0 RETURN INVALID PUSH1 0x80 PUSH1 0x40 MSTORE CALLVALUE DUP1 ISZERO PUSH2 0xF JUMPI PUSH0 PUSH0 REVERT JUMPDEST POP PUSH1 0x4 CALLDATASIZE LT PUSH2 0x140 JUMPI PUSH0 CALLDATALOAD PUSH1 0xE0 SHR DUP1 PUSH4 0x83920E90 GT PUSH2 0xB6 JUMPI DUP1 PUSH4 0xA39FAC12 GT PUSH2 0x7A JUMPI DUP1 PUSH4 0xA39FAC12 EQ PUSH2 0x351 JUMPI DUP1 PUSH4 0xC1CBBCA7 EQ PUSH2 0x36F JUMPI DUP1 PUSH4 0xC8B342AB EQ PUSH2 0x38B JUMPI DUP1 PUSH4 0xD57BDE79 EQ PUSH2 0x3BB JUMPI DUP1 PUSH4 0xEDF26D9B EQ PUSH2 0x3D9 JUMPI DUP1 PUSH4 0xFC0C546A EQ PUSH2 0x409 JUMPI PUSH2 0x140 JUMP JUMPDEST DUP1 PUSH4 0x83920E90 EQ PUSH2 0x2BB JUMPI DUP1 PUSH4 0x91F90157 EQ PUSH2 0x2D9 JUMPI DUP1 PUSH4 0x937E09B1 EQ PUSH2 0x2F7 JUMPI DUP1 PUSH4 0x976AF615 EQ PUSH2 0x315 JUMPI DUP1 PUSH4 0x9ACE38C2 EQ PUSH2 0x31F JUMPI PUSH2 0x140 JUMP JUMPDEST DUP1 PUSH4 0x4E69D560 GT PUSH2 0x108 JUMPI DUP1 PUSH4 0x4E69D560 EQ PUSH2 0x1F5 JUMPI DUP1 PUSH4 0x58D65629 EQ PUSH2 0x213 JUMPI DUP1 PUSH4 0x597E1FB5 EQ PUSH2 0x231 JUMPI DUP1 PUSH4 0x5DC1D641 EQ PUSH2 0x24F JUMPI DUP1 PUSH4 0x7B87D856 EQ PUSH2 0x27F JUMPI DUP1 PUSH4 0x82FDE093 EQ PUSH2 0x29D JUMPI PUSH2 0x140 JUMP JUMPDEST DUP1 PUSH4 0xA144391 EQ PUSH2 0x144 JUMPI DUP1 PUSH4 0x3197CBB6 EQ PUSH2 0x174 JUMPI DUP1 PUSH4 0x3BC5DE30 EQ PUSH2 0x192 JUMPI DUP1 PUSH4 0x4051DDAC EQ PUSH2 0x1B0 JUMPI DUP1 PUSH4 0x481C6A75 EQ PUSH2 0x1D7 JUMPI JUMPDEST PUSH0 PUSH0 REVERT JUMPDEST PUSH2 0x15E PUSH1 0x4 DUP1 CALLDATASIZE SUB DUP2 ADD SWAP1 PUSH2 0x159 SWAP2 SWAP1 PUSH2 0x1606 JUMP JUMPDEST PUSH2 0x427 JUMP JUMPDEST PUSH1 0x40 MLOAD PUSH2 0x16B SWAP2 SWAP1 PUSH2 0x164B JUMP JUMPDEST PUSH1 0x40 MLOAD DUP1 SWAP2 SUB SWAP1 RETURN JUMPDEST PUSH2 0x17C PUSH2 0x444 JUMP JUMPDEST PUSH1 0x40 MLOAD PUSH2 0x189 SWAP2 SWAP1 PUSH2 0x167C JUMP JUMPDEST PUSH1 0x40 MLOAD DUP1 SWAP2 SUB SWAP1 RETURN JUMPDEST PUSH2 0x19A PUSH2 0x44A JUMP JUMPDEST PUSH1 0x40 MLOAD PUSH2 0x1A7 SWAP2 SWAP1 PUSH2 0x1705 JUMP JUMPDEST PUSH1 0x40 MLOAD DUP1 SWAP2 SUB SWAP1 RETURN JUMPDEST PUSH2 0x1B8 PUSH2 0x5B7 JUMP JUMPDEST PUSH1 0x40 MLOAD PUSH2 0x1CE SWAP11 SWAP10 SWAP9 SWAP8 SWAP7 SWAP6 SWAP5 SWAP4 SWAP3 SWAP2 SWAP1 PUSH2 0x17EB JUMP JUMPDEST PUSH1 0x40 MLOAD DUP1 SWAP2 SUB SWAP1 RETURN JUMPDEST PUSH2 0x1DF PUSH2 0x86B JUMP JUMPDEST PUSH1 0x40 MLOAD PUSH2 0x1EC SWAP2 SWAP1 PUSH2 0x189A JUMP JUMPDEST PUSH1 0x40 MLOAD DUP1 SWAP2 SUB SWAP1 RETURN JUMPDEST PUSH2 0x1FD PUSH2 0x88F JUMP JUMPDEST PUSH1 0x40 MLOAD PUSH2 0x20A SWAP2 SWAP1 PUSH2 0x164B JUMP JUMPDEST PUSH1 0x40 MLOAD DUP1 SWAP2 SUB SWAP1 RETURN JUMPDEST PUSH2 0x21B PUSH2 0x8A4 JUMP JUMPDEST PUSH1 0x40 MLOAD PUSH2 0x228 SWAP2 SWAP1 PUSH2 0x1705 JUMP JUMPDEST PUSH1 0x40 MLOAD DUP1 SWAP2 SUB SWAP1 RETURN JUMPDEST PUSH2 0x239 PUSH2 0x930 JUMP JUMPDEST PUSH1 0x40 MLOAD PUSH2 0x246 SWAP2 SWAP1 PUSH2 0x164B JUMP JUMPDEST PUSH1 0x40 MLOAD DUP1 SWAP2 SUB SWAP1 RETURN JUMPDEST PUSH2 0x269 PUSH1 0x4 DUP1 CALLDATASIZE SUB DUP2 ADD SWAP1 PUSH2 0x264 SWAP2 SWAP1 PUSH2 0x1606 JUMP JUMPDEST PUSH2 0x942 JUMP JUMPDEST PUSH1 0x40 MLOAD PUSH2 0x276 SWAP2 SWAP1 PUSH2 0x167C JUMP JUMPDEST PUSH1 0x40 MLOAD DUP1 SWAP2 SUB SWAP1 RETURN JUMPDEST PUSH2 0x287 PUSH2 0x957 JUMP JUMPDEST PUSH1 0x40 MLOAD PUSH2 0x294 SWAP2 SWAP1 PUSH2 0x1705 JUMP JUMPDEST PUSH1 0x40 MLOAD DUP1 SWAP2 SUB SWAP1 RETURN JUMPDEST PUSH2 0x2A5 PUSH2 0x9E3 JUMP JUMPDEST PUSH1 0x40 MLOAD PUSH2 0x2B2 SWAP2 SWAP1 PUSH2 0x167C JUMP JUMPDEST PUSH1 0x40 MLOAD DUP1 SWAP2 SUB SWAP1 RETURN JUMPDEST PUSH2 0x2C3 PUSH2 0x9E9 JUMP JUMPDEST PUSH1 0x40 MLOAD PUSH2 0x2D0 SWAP2 SWAP1 PUSH2 0x19AA JUMP JUMPDEST PUSH1 0x40 MLOAD DUP1 SWAP2 SUB SWAP1 RETURN JUMPDEST PUSH2 0x2E1 PUSH2 0xAAD JUMP JUMPDEST PUSH1 0x40 MLOAD PUSH2 0x2EE SWAP2 SWAP1 PUSH2 0x189A JUMP JUMPDEST PUSH1 0x40 MLOAD DUP1 SWAP2 SUB SWAP1 RETURN JUMPDEST PUSH2 0x2FF PUSH2 0xAD2 JUMP JUMPDEST PUSH1 0x40 MLOAD PUSH2 0x30C SWAP2 SWAP1 PUSH2 0x167C JUMP JUMPDEST PUSH1 0x40 MLOAD DUP1 SWAP2 SUB SWAP1 RETURN JUMPDEST PUSH2 0x31D PUSH2 0xAD8 JUMP JUMPDEST STOP JUMPDEST PUSH2 0x339 PUSH1 0x4 DUP1 CALLDATASIZE SUB DUP2 ADD SWAP1 PUSH2 0x334 SWAP2 SWAP1 PUSH2 0x19F4 JUMP JUMPDEST PUSH2 0xF6D JUMP JUMPDEST PUSH1 0x40 MLOAD PUSH2 0x348 SWAP4 SWAP3 SWAP2 SWAP1 PUSH2 0x1A1F JUMP JUMPDEST PUSH1 0x40 MLOAD DUP1 SWAP2 SUB SWAP1 RETURN JUMPDEST PUSH2 0x359 PUSH2 0xFC1 JUMP JUMPDEST PUSH1 0x40 MLOAD PUSH2 0x366 SWAP2 SWAP1 PUSH2 0x1A54 JUMP JUMPDEST PUSH1 0x40 MLOAD DUP1 SWAP2 SUB SWAP1 RETURN JUMPDEST PUSH2 0x389 PUSH1 0x4 DUP1 CALLDATASIZE SUB DUP2 ADD SWAP1 PUSH2 0x384 SWAP2 SWAP1 PUSH2 0x19F4 JUMP JUMPDEST PUSH2 0x104C JUMP JUMPDEST STOP JUMPDEST PUSH2 0x3A5 PUSH1 0x4 DUP1 CALLDATASIZE SUB DUP2 ADD SWAP1 PUSH2 0x3A0 SWAP2 SWAP1 PUSH2 0x1606 JUMP JUMPDEST PUSH2 0x14FB JUMP JUMPDEST PUSH1 0x40 MLOAD PUSH2 0x3B2 SWAP2 SWAP1 PUSH2 0x167C JUMP JUMPDEST PUSH1 0x40 MLOAD DUP1 SWAP2 SUB SWAP1 RETURN JUMPDEST PUSH2 0x3C3 PUSH2 0x1541 JUMP JUMPDEST PUSH1 0x40 MLOAD PUSH2 0x3D0 SWAP2 SWAP1 PUSH2 0x167C JUMP JUMPDEST PUSH1 0x40 MLOAD DUP1 SWAP2 SUB SWAP1 RETURN JUMPDEST PUSH2 0x3F3 PUSH1 0x4 DUP1 CALLDATASIZE SUB DUP2 ADD SWAP1 PUSH2 0x3EE SWAP2 SWAP1 PUSH2 0x19F4 JUMP JUMPDEST PUSH2 0x1547 JUMP JUMPDEST PUSH1 0x40 MLOAD PUSH2 0x400 SWAP2 SWAP1 PUSH2 0x189A JUMP JUMPDEST PUSH1 0x40 MLOAD DUP1 SWAP2 SUB SWAP1 RETURN JUMPDEST PUSH2 0x411 PUSH2 0x1582 JUMP JUMPDEST PUSH1 0x40 MLOAD PUSH2 0x41E SWAP2 SWAP1 PUSH2 0x1ACF JUMP JUMPDEST PUSH1 0x40 MLOAD DUP1 SWAP2 SUB SWAP1 RETURN JUMPDEST PUSH1 0x4 PUSH1 0x20 MSTORE DUP1 PUSH0 MSTORE PUSH1 0x40 PUSH0 KECCAK256 PUSH0 SWAP2 POP SLOAD SWAP1 PUSH2 0x100 EXP SWAP1 DIV PUSH1 0xFF AND DUP2 JUMP JUMPDEST PUSH1 0xB SLOAD DUP2 JUMP JUMPDEST PUSH1 0x60 PUSH1 0xC PUSH0 SWAP1 SLOAD SWAP1 PUSH2 0x100 EXP SWAP1 DIV PUSH1 0xFF AND PUSH2 0x49A JUMPI PUSH1 0x40 MLOAD PUSH32 0x8C379A000000000000000000000000000000000000000000000000000000000 DUP2 MSTORE PUSH1 0x4 ADD PUSH2 0x491 SWAP1 PUSH2 0x1B32 JUMP JUMPDEST PUSH1 0x40 MLOAD DUP1 SWAP2 SUB SWAP1 REVERT JUMPDEST PUSH1 0x9 PUSH0 SWAP1 SLOAD SWAP1 PUSH2 0x100 EXP SWAP1 DIV PUSH20 0xFFFFFFFFFFFFFFFFFFFFFFFFFFFFFFFFFFFFFFFF AND PUSH20 0xFFFFFFFFFFFFFFFFFFFFFFFFFFFFFFFFFFFFFFFF AND CALLER PUSH20 0xFFFFFFFFFFFFFFFFFFFFFFFFFFFFFFFFFFFFFFFF AND EQ PUSH2 0x529 JUMPI PUSH1 0x40 MLOAD PUSH32 0x8C379A000000000000000000000000000000000000000000000000000000000 DUP2 MSTORE PUSH1 0x4 ADD PUSH2 0x520 SWAP1 PUSH2 0x1B9A JUMP JUMPDEST PUSH1 0x40 MLOAD DUP1 SWAP2 SUB SWAP1 REVERT JUMPDEST PUSH1 0x2 DUP1 SLOAD PUSH2 0x536 SWAP1 PUSH2 0x1BE5 JUMP JUMPDEST DUP1 PUSH1 0x1F ADD PUSH1 0x20 DUP1 SWAP2 DIV MUL PUSH1 0x20 ADD PUSH1 0x40 MLOAD SWAP1 DUP2 ADD PUSH1 0x40 MSTORE DUP1 SWAP3 SWAP2 SWAP1 DUP2 DUP2 MSTORE PUSH1 0x20 ADD DUP3 DUP1 SLOAD PUSH2 0x562 SWAP1 PUSH2 0x1BE5 JUMP JUMPDEST DUP1 ISZERO PUSH2 0x5AD JUMPI DUP1 PUSH1 0x1F LT PUSH2 0x584 JUMPI PUSH2 0x100 DUP1 DUP4 SLOAD DIV MUL DUP4 MSTORE SWAP2 PUSH1 0x20 ADD SWAP2 PUSH2 0x5AD JUMP JUMPDEST DUP3 ADD SWAP2 SWAP1 PUSH0 MSTORE PUSH1 0x20 PUSH0 KECCAK256 SWAP1 JUMPDEST DUP2 SLOAD DUP2 MSTORE SWAP1 PUSH1 0x1 ADD SWAP1 PUSH1 0x20 ADD DUP1 DUP4 GT PUSH2 0x590 JUMPI DUP3 SWAP1 SUB PUSH1 0x1F AND DUP3 ADD SWAP2 JUMPDEST POP POP POP POP POP SWAP1 POP SWAP1 JUMP JUMPDEST PUSH0 PUSH0 PUSH0 PUSH0 PUSH0 PUSH1 0x60 DUP1 PUSH0 PUSH1 0x60 PUSH0 PUSH1 0x1 SLOAD PUSH1 0xC PUSH1 0x1 SWAP1 SLOAD SWAP1 PUSH2 0x100 EXP SWAP1 DIV PUSH20 0xFFFFFFFFFFFFFFFFFFFFFFFFFFFFFFFFFFFFFFFF AND PUSH20 0xFFFFFFFFFFFFFFFFFFFFFFFFFFFFFFFFFFFFFFFF AND PUSH4 0x70A08231 ADDRESS PUSH1 0x40 MLOAD DUP3 PUSH4 0xFFFFFFFF AND PUSH1 0xE0 SHL DUP2 MSTORE PUSH1 0x4 ADD PUSH2 0x621 SWAP2 SWAP1 PUSH2 0x189A JUMP JUMPDEST PUSH1 0x20 PUSH1 0x40 MLOAD DUP1 DUP4 SUB DUP2 DUP7 GAS STATICCALL ISZERO DUP1 ISZERO PUSH2 0x63C JUMPI RETURNDATASIZE PUSH0 PUSH0 RETURNDATACOPY RETURNDATASIZE PUSH0 REVERT JUMPDEST POP POP POP POP PUSH1 0x40 MLOAD RETURNDATASIZE PUSH1 0x1F NOT PUSH1 0x1F DUP3 ADD AND DUP3 ADD DUP1 PUSH1 0x40 MSTORE POP DUP2 ADD SWAP1 PUSH2 0x660 SWAP2 SWAP1 PUSH2 0x1C29 JUMP JUMPDEST PUSH1 0x6 SLOAD PUSH0 PUSH0 SWAP1 SLOAD SWAP1 PUSH2 0x100 EXP SWAP1 DIV PUSH20 0xFFFFFFFFFFFFFFFFFFFFFFFFFFFFFFFFFFFFFFFF AND PUSH1 0xA SLOAD PUSH1 0x2 PUSH1 0x3 PUSH1 0x9 PUSH0 SWAP1 SLOAD SWAP1 PUSH2 0x100 EXP SWAP1 DIV PUSH20 0xFFFFFFFFFFFFFFFFFFFFFFFFFFFFFFFFFFFFFFFF AND PUSH1 0x7 PUSH1 0xB SLOAD DUP5 DUP1 SLOAD PUSH2 0x6BE SWAP1 PUSH2 0x1BE5 JUMP JUMPDEST DUP1 PUSH1 0x1F ADD PUSH1 0x20 DUP1 SWAP2 DIV MUL PUSH1 0x20 ADD PUSH1 0x40 MLOAD SWAP1 DUP2 ADD PUSH1 0x40 MSTORE DUP1 SWAP3 SWAP2 SWAP1 DUP2 DUP2 MSTORE PUSH1 0x20 ADD DUP3 DUP1 SLOAD PUSH2 0x6EA SWAP1 PUSH2 0x1BE5 JUMP JUMPDEST DUP1 ISZERO PUSH2 0x735 JUMPI DUP1 PUSH1 0x1F LT PUSH2 0x70C JUMPI PUSH2 0x100 DUP1 DUP4 SLOAD DIV MUL DUP4 MSTORE SWAP2 PUSH1 0x20 ADD SWAP2 PUSH2 0x735 JUMP JUMPDEST DUP3 ADD SWAP2 SWAP1 PUSH0 MSTORE PUSH1 0x20 PUSH0 KECCAK256 SWAP1 JUMPDEST DUP2 SLOAD DUP2 MSTORE SWAP1 PUSH1 0x1 ADD SWAP1 PUSH1 0x20 ADD DUP1 DUP4 GT PUSH2 0x718 JUMPI DUP3 SWAP1 SUB PUSH1 0x1F AND DUP3 ADD SWAP2 JUMPDEST POP POP POP POP POP SWAP5 POP DUP4 DUP1 SLOAD PUSH2 0x748 SWAP1 PUSH2 0x1BE5 JUMP JUMPDEST DUP1 PUSH1 0x1F ADD PUSH1 0x20 DUP1 SWAP2 DIV MUL PUSH1 0x20 ADD PUSH1 0x40 MLOAD SWAP1 DUP2 ADD PUSH1 0x40 MSTORE DUP1 SWAP3 SWAP2 SWAP1 DUP2 DUP2 MSTORE PUSH1 0x20 ADD DUP3 DUP1 SLOAD PUSH2 0x774 SWAP1 PUSH2 0x1BE5 JUMP JUMPDEST DUP1 ISZERO PUSH2 0x7BF JUMPI DUP1 PUSH1 0x1F LT PUSH2 0x796 JUMPI PUSH2 0x100 DUP1 DUP4 SLOAD DIV MUL DUP4 MSTORE SWAP2 PUSH1 0x20 ADD SWAP2 PUSH2 0x7BF JUMP JUMPDEST DUP3 ADD SWAP2 SWAP1 PUSH0 MSTORE PUSH1 0x20 PUSH0 KECCAK256 SWAP1 JUMPDEST DUP2 SLOAD DUP2 MSTORE SWAP1 PUSH1 0x1 ADD SWAP1 PUSH1 0x20 ADD DUP1 DUP4 GT PUSH2 0x7A2 JUMPI DUP3 SWAP1 SUB PUSH1 0x1F AND DUP3 ADD SWAP2 JUMPDEST POP POP POP POP POP SWAP4 POP DUP2 DUP1 SLOAD DUP1 PUSH1 0x20 MUL PUSH1 0x20 ADD PUSH1 0x40 MLOAD SWAP1 DUP2 ADD PUSH1 0x40 MSTORE DUP1 SWAP3 SWAP2 SWAP1 DUP2 DUP2 MSTORE PUSH1 0x20 ADD DUP3 DUP1 SLOAD DUP1 ISZERO PUSH2 0x844 JUMPI PUSH1 0x20 MUL DUP3 ADD SWAP2 SWAP1 PUSH0 MSTORE PUSH1 0x20 PUSH0 KECCAK256 SWAP1 JUMPDEST DUP2 PUSH0 SWAP1 SLOAD SWAP1 PUSH2 0x100 EXP SWAP1 DIV PUSH20 0xFFFFFFFFFFFFFFFFFFFFFFFFFFFFFFFFFFFFFFFF AND PUSH20 0xFFFFFFFFFFFFFFFFFFFFFFFFFFFFFFFFFFFFFFFF AND DUP2 MSTORE PUSH1 0x20 ADD SWAP1 PUSH1 0x1 ADD SWAP1 DUP1 DUP4 GT PUSH2 0x7FB JUMPI JUMPDEST POP POP POP POP POP SWAP2 POP SWAP10 POP SWAP10 POP SWAP10 POP SWAP10 POP SWAP10 POP SWAP10 POP SWAP10 POP SWAP10 POP SWAP10 POP SWAP10 POP SWAP1 SWAP2 SWAP3 SWAP4 SWAP5 SWAP6 SWAP7 SWAP8 SWAP9 SWAP10 JUMP JUMPDEST PUSH0 PUSH0 SWAP1 SLOAD SWAP1 PUSH2 0x100 EXP SWAP1 DIV PUSH20 0xFFFFFFFFFFFFFFFFFFFFFFFFFFFFFFFFFFFFFFFF AND DUP2 JUMP JUMPDEST PUSH0 PUSH1 0xC PUSH0 SWAP1 SLOAD SWAP1 PUSH2 0x100 EXP SWAP1 DIV PUSH1 0xFF AND SWAP1 POP SWAP1 JUMP JUMPDEST PUSH1 0x3 DUP1 SLOAD PUSH2 0x8B1 SWAP1 PUSH2 0x1BE5 JUMP JUMPDEST DUP1 PUSH1 0x1F ADD PUSH1 0x20 DUP1 SWAP2 DIV MUL PUSH1 0x20 ADD PUSH1 0x40 MLOAD SWAP1 DUP2 ADD PUSH1 0x40 MSTORE DUP1 SWAP3 SWAP2 SWAP1 DUP2 DUP2 MSTORE PUSH1 0x20 ADD DUP3 DUP1 SLOAD PUSH2 0x8DD SWAP1 PUSH2 0x1BE5 JUMP JUMPDEST DUP1 ISZERO PUSH2 0x928 JUMPI DUP1 PUSH1 0x1F LT PUSH2 0x8FF JUMPI PUSH2 0x100 DUP1 DUP4 SLOAD DIV MUL DUP4 MSTORE SWAP2 PUSH1 0x20 ADD SWAP2 PUSH2 0x928 JUMP JUMPDEST DUP3 ADD SWAP2 SWAP1 PUSH0 MSTORE PUSH1 0x20 PUSH0 KECCAK256 SWAP1 JUMPDEST DUP2 SLOAD DUP2 MSTORE SWAP1 PUSH1 0x1 ADD SWAP1 PUSH1 0x20 ADD DUP1 DUP4 GT PUSH2 0x90B JUMPI DUP3 SWAP1 SUB PUSH1 0x1F AND DUP3 ADD SWAP2 JUMPDEST POP POP POP POP POP DUP2 JUMP JUMPDEST PUSH1 0xC PUSH0 SWAP1 SLOAD SWAP1 PUSH2 0x100 EXP SWAP1 DIV PUSH1 0xFF AND DUP2 JUMP JUMPDEST PUSH1 0x5 PUSH1 0x20 MSTORE DUP1 PUSH0 MSTORE PUSH1 0x40 PUSH0 KECCAK256 PUSH0 SWAP2 POP SWAP1 POP SLOAD DUP2 JUMP JUMPDEST PUSH1 0x2 DUP1 SLOAD PUSH2 0x964 SWAP1 PUSH2 0x1BE5 JUMP JUMPDEST DUP1 PUSH1 0x1F ADD PUSH1 0x20 DUP1 SWAP2 DIV MUL PUSH1 0x20 ADD PUSH1 0x40 MLOAD SWAP1 DUP2 ADD PUSH1 0x40 MSTORE DUP1 SWAP3 SWAP2 SWAP1 DUP2 DUP2 MSTORE PUSH1 0x20 ADD DUP3 DUP1 SLOAD PUSH2 0x990 SWAP1 PUSH2 0x1BE5 JUMP JUMPDEST DUP1 ISZERO PUSH2 0x9DB JUMPI DUP1 PUSH1 0x1F LT PUSH2 0x9B2 JUMPI PUSH2 0x100 DUP1 DUP4 SLOAD DIV MUL DUP4 MSTORE SWAP2 PUSH1 0x20 ADD SWAP2 PUSH2 0x9DB JUMP JUMPDEST DUP3 ADD SWAP2 SWAP1 PUSH0 MSTORE PUSH1 0x20 PUSH0 KECCAK256 SWAP1 JUMPDEST DUP2 SLOAD DUP2 MSTORE SWAP1 PUSH1 0x1 ADD SWAP1 PUSH1 0x20 ADD DUP1 DUP4 GT PUSH2 0x9BE JUMPI DUP3 SWAP1 SUB PUSH1 0x1F AND DUP3 ADD SWAP2 JUMPDEST POP POP POP POP POP DUP2 JUMP JUMPDEST PUSH1 0x6 SLOAD DUP2 JUMP JUMPDEST PUSH1 0x60 PUSH1 0x8 DUP1 SLOAD DUP1 PUSH1 0x20 MUL PUSH1 0x20 ADD PUSH1 0x40 MLOAD SWAP1 DUP2 ADD PUSH1 0x40 MSTORE DUP1 SWAP3 SWAP2 SWAP1 DUP2 DUP2 MSTORE PUSH1 0x20 ADD PUSH0 SWAP1 JUMPDEST DUP3 DUP3 LT ISZERO PUSH2 0xAA4 JUMPI DUP4 DUP3 SWAP1 PUSH0 MSTORE PUSH1 0x20 PUSH0 KECCAK256 SWAP1 PUSH1 0x3 MUL ADD PUSH1 0x40 MLOAD DUP1 PUSH1 0x60 ADD PUSH1 0x40 MSTORE SWAP1 DUP2 PUSH0 DUP3 ADD SLOAD DUP2 MSTORE PUSH1 0x20 ADD PUSH1 0x1 DUP3 ADD SLOAD DUP2 MSTORE PUSH1 0x20 ADD PUSH1 0x2 DUP3 ADD PUSH0 SWAP1 SLOAD SWAP1 PUSH2 0x100 EXP SWAP1 DIV PUSH20 0xFFFFFFFFFFFFFFFFFFFFFFFFFFFFFFFFFFFFFFFF AND PUSH20 0xFFFFFFFFFFFFFFFFFFFFFFFFFFFFFFFFFFFFFFFF AND PUSH20 0xFFFFFFFFFFFFFFFFFFFFFFFFFFFFFFFFFFFFFFFF AND DUP2 MSTORE POP POP DUP2 MSTORE PUSH1 0x20 ADD SWAP1 PUSH1 0x1 ADD SWAP1 PUSH2 0xA0C JUMP JUMPDEST POP POP POP POP SWAP1 POP SWAP1 JUMP JUMPDEST PUSH1 0x9 PUSH0 SWAP1 SLOAD SWAP1 PUSH2 0x100 EXP SWAP1 DIV PUSH20 0xFFFFFFFFFFFFFFFFFFFFFFFFFFFFFFFFFFFFFFFF AND DUP2 JUMP JUMPDEST PUSH1 0x1 SLOAD DUP2 JUMP JUMPDEST PUSH1 0xB SLOAD TIMESTAMP LT ISZERO PUSH2 0xB1D JUMPI PUSH1 0x40 MLOAD PUSH32 0x8C379A000000000000000000000000000000000000000000000000000000000 DUP2 MSTORE PUSH1 0x4 ADD PUSH2 0xB14 SWAP1 PUSH2 0x1C9E JUMP JUMPDEST PUSH1 0x40 MLOAD DUP1 SWAP2 SUB SWAP1 REVERT JUMPDEST PUSH1 0xC PUSH0 SWAP1 SLOAD SWAP1 PUSH2 0x100 EXP SWAP1 DIV PUSH1 0xFF AND ISZERO PUSH2 0xB6C JUMPI PUSH1 0x40 MLOAD PUSH32 0x8C379A000000000000000000000000000000000000000000000000000000000 DUP2 MSTORE PUSH1 0x4 ADD PUSH2 0xB63 SWAP1 PUSH2 0x1D06 JUMP JUMPDEST PUSH1 0x40 MLOAD DUP1 SWAP2 SUB SWAP1 REVERT JUMPDEST PUSH0 PUSH0 SWAP1 POP JUMPDEST PUSH1 0x7 DUP1 SLOAD SWAP1 POP DUP2 LT ISZERO PUSH2 0xDD7 JUMPI PUSH0 PUSH1 0x7 DUP3 DUP2 SLOAD DUP2 LT PUSH2 0xB93 JUMPI PUSH2 0xB92 PUSH2 0x1D24 JUMP JUMPDEST JUMPDEST SWAP1 PUSH0 MSTORE PUSH1 0x20 PUSH0 KECCAK256 ADD PUSH0 SWAP1 SLOAD SWAP1 PUSH2 0x100 EXP SWAP1 DIV PUSH20 0xFFFFFFFFFFFFFFFFFFFFFFFFFFFFFFFFFFFFFFFF AND SWAP1 POP PUSH1 0x9 PUSH0 SWAP1 SLOAD SWAP1 PUSH2 0x100 EXP SWAP1 DIV PUSH20 0xFFFFFFFFFFFFFFFFFFFFFFFFFFFFFFFFFFFFFFFF AND PUSH20 0xFFFFFFFFFFFFFFFFFFFFFFFFFFFFFFFFFFFFFFFF AND DUP2 PUSH20 0xFFFFFFFFFFFFFFFFFFFFFFFFFFFFFFFFFFFFFFFF AND EQ PUSH2 0xDC9 JUMPI PUSH0 PUSH1 0x5 PUSH0 DUP4 PUSH20 0xFFFFFFFFFFFFFFFFFFFFFFFFFFFFFFFFFFFFFFFF AND PUSH20 0xFFFFFFFFFFFFFFFFFFFFFFFFFFFFFFFFFFFFFFFF AND DUP2 MSTORE PUSH1 0x20 ADD SWAP1 DUP2 MSTORE PUSH1 0x20 ADD PUSH0 KECCAK256 SLOAD SWAP1 POP PUSH0 DUP2 GT ISZERO PUSH2 0xDC7 JUMPI PUSH0 PUSH1 0x5 PUSH0 DUP5 PUSH20 0xFFFFFFFFFFFFFFFFFFFFFFFFFFFFFFFFFFFFFFFF AND PUSH20 0xFFFFFFFFFFFFFFFFFFFFFFFFFFFFFFFFFFFFFFFF AND DUP2 MSTORE PUSH1 0x20 ADD SWAP1 DUP2 MSTORE PUSH1 0x20 ADD PUSH0 KECCAK256 DUP2 SWAP1 SSTORE POP PUSH1 0xC PUSH1 0x1 SWAP1 SLOAD SWAP1 PUSH2 0x100 EXP SWAP1 DIV PUSH20 0xFFFFFFFFFFFFFFFFFFFFFFFFFFFFFFFFFFFFFFFF AND PUSH20 0xFFFFFFFFFFFFFFFFFFFFFFFFFFFFFFFFFFFFFFFF AND PUSH4 0xA9059CBB DUP4 DUP4 PUSH1 0x40 MLOAD DUP4 PUSH4 0xFFFFFFFF AND PUSH1 0xE0 SHL DUP2 MSTORE PUSH1 0x4 ADD PUSH2 0xCF9 SWAP3 SWAP2 SWAP1 PUSH2 0x1D51 JUMP JUMPDEST PUSH1 0x20 PUSH1 0x40 MLOAD DUP1 DUP4 SUB DUP2 PUSH0 DUP8 GAS CALL ISZERO DUP1 ISZERO PUSH2 0xD15 JUMPI RETURNDATASIZE PUSH0 PUSH0 RETURNDATACOPY RETURNDATASIZE PUSH0 REVERT JUMPDEST POP POP POP POP PUSH1 0x40 MLOAD RETURNDATASIZE PUSH1 0x1F NOT PUSH1 0x1F DUP3 ADD AND DUP3 ADD DUP1 PUSH1 0x40 MSTORE POP DUP2 ADD SWAP1 PUSH2 0xD39 SWAP2 SWAP1 PUSH2 0x1DA2 JUMP JUMPDEST PUSH2 0xD78 JUMPI PUSH1 0x40 MLOAD PUSH32 0x8C379A000000000000000000000000000000000000000000000000000000000 DUP2 MSTORE PUSH1 0x4 ADD PUSH2 0xD6F SWAP1 PUSH2 0x1E17 JUMP JUMPDEST PUSH1 0x40 MLOAD DUP1 SWAP2 SUB SWAP1 REVERT JUMPDEST DUP2 PUSH20 0xFFFFFFFFFFFFFFFFFFFFFFFFFFFFFFFFFFFFFFFF AND PUSH32 0x3367BEFD2B2F39615CD79917C2153263C4AF1D3945EC003E5D5BFC13A8D85833 DUP3 PUSH1 0x40 MLOAD PUSH2 0xDBE SWAP2 SWAP1 PUSH2 0x167C JUMP JUMPDEST PUSH1 0x40 MLOAD DUP1 SWAP2 SUB SWAP1 LOG2 JUMPDEST POP JUMPDEST POP DUP1 DUP1 PUSH1 0x1 ADD SWAP2 POP POP PUSH2 0xB71 JUMP JUMPDEST POP PUSH0 PUSH1 0xA SLOAD GT ISZERO PUSH2 0xF51 JUMPI PUSH1 0xC PUSH1 0x1 SWAP1 SLOAD SWAP1 PUSH2 0x100 EXP SWAP1 DIV PUSH20 0xFFFFFFFFFFFFFFFFFFFFFFFFFFFFFFFFFFFFFFFF AND PUSH20 0xFFFFFFFFFFFFFFFFFFFFFFFFFFFFFFFFFFFFFFFF AND PUSH4 0xA9059CBB PUSH0 PUSH0 SWAP1 SLOAD SWAP1 PUSH2 0x100 EXP SWAP1 DIV PUSH20 0xFFFFFFFFFFFFFFFFFFFFFFFFFFFFFFFFFFFFFFFF AND PUSH1 0xA SLOAD PUSH1 0x40 MLOAD DUP4 PUSH4 0xFFFFFFFF AND PUSH1 0xE0 SHL DUP2 MSTORE PUSH1 0x4 ADD PUSH2 0xE61 SWAP3 SWAP2 SWAP1 PUSH2 0x1D51 JUMP JUMPDEST PUSH1 0x20 PUSH1 0x40 MLOAD DUP1 DUP4 SUB DUP2 PUSH0 DUP8 GAS CALL ISZERO DUP1 ISZERO PUSH2 0xE7D JUMPI RETURNDATASIZE PUSH0 PUSH0 RETURNDATACOPY RETURNDATASIZE PUSH0 REVERT JUMPDEST POP POP POP POP PUSH1 0x40 MLOAD RETURNDATASIZE PUSH1 0x1F NOT PUSH1 0x1F DUP3 ADD AND DUP3 ADD DUP1 PUSH1 0x40 MSTORE POP DUP2 ADD SWAP1 PUSH2 0xEA1 SWAP2 SWAP1 PUSH2 0x1DA2 JUMP JUMPDEST PUSH2 0xEE0 JUMPI PUSH1 0x40 MLOAD PUSH32 0x8C379A000000000000000000000000000000000000000000000000000000000 DUP2 MSTORE PUSH1 0x4 ADD PUSH2 0xED7 SWAP1 PUSH2 0x1E7F JUMP JUMPDEST PUSH1 0x40 MLOAD DUP1 SWAP2 SUB SWAP1 REVERT JUMPDEST PUSH0 PUSH0 SWAP1 SLOAD SWAP1 PUSH2 0x100 EXP SWAP1 DIV PUSH20 0xFFFFFFFFFFFFFFFFFFFFFFFFFFFFFFFFFFFFFFFF AND PUSH20 0xFFFFFFFFFFFFFFFFFFFFFFFFFFFFFFFFFFFFFFFF AND PUSH32 0xCB4A9094DA4DF77FB2C0DBAA5047660B1237E61D82A02176C1BE74CA757F2531 PUSH1 0xA SLOAD PUSH1 0x40 MLOAD PUSH2 0xF48 SWAP2 SWAP1 PUSH2 0x167C JUMP JUMPDEST PUSH1 0x40 MLOAD DUP1 SWAP2 SUB SWAP1 LOG2 JUMPDEST PUSH1 0x1 PUSH1 0xC PUSH0 PUSH2 0x100 EXP DUP2 SLOAD DUP2 PUSH1 0xFF MUL NOT AND SWAP1 DUP4 ISZERO ISZERO MUL OR SWAP1 SSTORE POP JUMP JUMPDEST PUSH1 0x8 DUP2 DUP2 SLOAD DUP2 LT PUSH2 0xF7C JUMPI PUSH0 DUP1 REVERT JUMPDEST SWAP1 PUSH0 MSTORE PUSH1 0x20 PUSH0 KECCAK256 SWAP1 PUSH1 0x3 MUL ADD PUSH0 SWAP2 POP SWAP1 POP DUP1 PUSH0 ADD SLOAD SWAP1 DUP1 PUSH1 0x1 ADD SLOAD SWAP1 DUP1 PUSH1 0x2 ADD PUSH0 SWAP1 SLOAD SWAP1 PUSH2 0x100 EXP SWAP1 DIV PUSH20 0xFFFFFFFFFFFFFFFFFFFFFFFFFFFFFFFFFFFFFFFF AND SWAP1 POP DUP4 JUMP JUMPDEST PUSH1 0x60 PUSH1 0x7 DUP1 SLOAD DUP1 PUSH1 0x20 MUL PUSH1 0x20 ADD PUSH1 0x40 MLOAD SWAP1 DUP2 ADD PUSH1 0x40 MSTORE DUP1 SWAP3 SWAP2 SWAP1 DUP2 DUP2 MSTORE PUSH1 0x20 ADD DUP3 DUP1 SLOAD DUP1 ISZERO PUSH2 0x1042 JUMPI PUSH1 0x20 MUL DUP3 ADD SWAP2 SWAP1 PUSH0 MSTORE PUSH1 0x20 PUSH0 KECCAK256 SWAP1 JUMPDEST DUP2 PUSH0 SWAP1 SLOAD SWAP1 PUSH2 0x100 EXP SWAP1 DIV PUSH20 0xFFFFFFFFFFFFFFFFFFFFFFFFFFFFFFFFFFFFFFFF AND PUSH20 0xFFFFFFFFFFFFFFFFFFFFFFFFFFFFFFFFFFFFFFFF AND DUP2 MSTORE PUSH1 0x20 ADD SWAP1 PUSH1 0x1 ADD SWAP1 DUP1 DUP4 GT PUSH2 0xFF9 JUMPI JUMPDEST POP POP POP POP POP SWAP1 POP SWAP1 JUMP JUMPDEST PUSH1 0xB SLOAD TIMESTAMP LT PUSH2 0x1090 JUMPI PUSH1 0x40 MLOAD PUSH32 0x8C379A000000000000000000000000000000000000000000000000000000000 DUP2 MSTORE PUSH1 0x4 ADD PUSH2 0x1087 SWAP1 PUSH2 0x1EE7 JUMP JUMPDEST PUSH1 0x40 MLOAD DUP1 SWAP2 SUB SWAP1 REVERT JUMPDEST PUSH0 PUSH0 SWAP1 SLOAD SWAP1 PUSH2 0x100 EXP SWAP1 DIV PUSH20 0xFFFFFFFFFFFFFFFFFFFFFFFFFFFFFFFFFFFFFFFF AND PUSH20 0xFFFFFFFFFFFFFFFFFFFFFFFFFFFFFFFFFFFFFFFF AND CALLER PUSH20 0xFFFFFFFFFFFFFFFFFFFFFFFFFFFFFFFFFFFFFFFF AND SUB PUSH2 0x111E JUMPI PUSH1 0x40 MLOAD PUSH32 0x8C379A000000000000000000000000000000000000000000000000000000000 DUP2 MSTORE PUSH1 0x4 ADD PUSH2 0x1115 SWAP1 PUSH2 0x1F75 JUMP JUMPDEST PUSH1 0x40 MLOAD DUP1 SWAP2 SUB SWAP1 REVERT JUMPDEST PUSH0 PUSH1 0x5 PUSH0 CALLER PUSH20 0xFFFFFFFFFFFFFFFFFFFFFFFFFFFFFFFFFFFFFFFF AND PUSH20 0xFFFFFFFFFFFFFFFFFFFFFFFFFFFFFFFFFFFFFFFF AND DUP2 MSTORE PUSH1 0x20 ADD SWAP1 DUP2 MSTORE PUSH1 0x20 ADD PUSH0 KECCAK256 SLOAD SWAP1 POP PUSH0 DUP3 DUP3 PUSH2 0x116C SWAP2 SWAP1 PUSH2 0x1FC0 JUMP JUMPDEST SWAP1 POP PUSH0 DUP3 SUB PUSH2 0x11BB JUMPI PUSH1 0x1 SLOAD DUP2 LT ISZERO PUSH2 0x11BA JUMPI PUSH1 0x40 MLOAD PUSH32 0x8C379A000000000000000000000000000000000000000000000000000000000 DUP2 MSTORE PUSH1 0x4 ADD PUSH2 0x11B1 SWAP1 PUSH2 0x203D JUMP JUMPDEST PUSH1 0x40 MLOAD DUP1 SWAP2 SUB SWAP1 REVERT JUMPDEST JUMPDEST PUSH1 0xA SLOAD DUP2 GT PUSH2 0x11FF JUMPI PUSH1 0x40 MLOAD PUSH32 0x8C379A000000000000000000000000000000000000000000000000000000000 DUP2 MSTORE PUSH1 0x4 ADD PUSH2 0x11F6 SWAP1 PUSH2 0x20A5 JUMP JUMPDEST PUSH1 0x40 MLOAD DUP1 SWAP2 SUB SWAP1 REVERT JUMPDEST PUSH1 0xC PUSH1 0x1 SWAP1 SLOAD SWAP1 PUSH2 0x100 EXP SWAP1 DIV PUSH20 0xFFFFFFFFFFFFFFFFFFFFFFFFFFFFFFFFFFFFFFFF AND PUSH20 0xFFFFFFFFFFFFFFFFFFFFFFFFFFFFFFFFFFFFFFFF AND PUSH4 0x23B872DD CALLER ADDRESS DUP7 PUSH1 0x40 MLOAD DUP5 PUSH4 0xFFFFFFFF AND PUSH1 0xE0 SHL DUP2 MSTORE PUSH1 0x4 ADD PUSH2 0x125E SWAP4 SWAP3 SWAP2 SWAP1 PUSH2 0x20C3 JUMP JUMPDEST PUSH1 0x20 PUSH1 0x40 MLOAD DUP1 DUP4 SUB DUP2 PUSH0 DUP8 GAS CALL ISZERO DUP1 ISZERO PUSH2 0x127A JUMPI RETURNDATASIZE PUSH0 PUSH0 RETURNDATACOPY RETURNDATASIZE PUSH0 REVERT JUMPDEST POP POP POP POP PUSH1 0x40 MLOAD RETURNDATASIZE PUSH1 0x1F NOT PUSH1 0x1F DUP3 ADD AND DUP3 ADD DUP1 PUSH1 0x40 MSTORE POP DUP2 ADD SWAP1 PUSH2 0x129E SWAP2 SWAP1 PUSH2 0x1DA2 JUMP JUMPDEST POP DUP1 PUSH1 0x5 PUSH0 CALLER PUSH20 0xFFFFFFFFFFFFFFFFFFFFFFFFFFFFFFFFFFFFFFFF AND PUSH20 0xFFFFFFFFFFFFFFFFFFFFFFFFFFFFFFFFFFFFFFFF AND DUP2 MSTORE PUSH1 0x20 ADD SWAP1 DUP2 MSTORE PUSH1 0x20 ADD PUSH0 KECCAK256 DUP2 SWAP1 SSTORE POP DUP1 PUSH1 0xA DUP2 SWAP1 SSTORE POP CALLER PUSH1 0x9 PUSH0 PUSH2 0x100 EXP DUP2 SLOAD DUP2 PUSH20 0xFFFFFFFFFFFFFFFFFFFFFFFFFFFFFFFFFFFFFFFF MUL NOT AND SWAP1 DUP4 PUSH20 0xFFFFFFFFFFFFFFFFFFFFFFFFFFFFFFFFFFFFFFFF AND MUL OR SWAP1 SSTORE POP PUSH1 0x8 PUSH1 0x40 MLOAD DUP1 PUSH1 0x60 ADD PUSH1 0x40 MSTORE DUP1 DUP6 DUP2 MSTORE PUSH1 0x20 ADD TIMESTAMP DUP2 MSTORE PUSH1 0x20 ADD CALLER PUSH20 0xFFFFFFFFFFFFFFFFFFFFFFFFFFFFFFFFFFFFFFFF AND DUP2 MSTORE POP SWAP1 DUP1 PUSH1 0x1 DUP2 SLOAD ADD DUP1 DUP3 SSTORE DUP1 SWAP2 POP POP PUSH1 0x1 SWAP1 SUB SWAP1 PUSH0 MSTORE PUSH1 0x20 PUSH0 KECCAK256 SWAP1 PUSH1 0x3 MUL ADD PUSH0 SWAP1 SWAP2 SWAP1 SWAP2 SWAP1 SWAP2 POP PUSH0 DUP3 ADD MLOAD DUP2 PUSH0 ADD SSTORE PUSH1 0x20 DUP3 ADD MLOAD DUP2 PUSH1 0x1 ADD SSTORE PUSH1 0x40 DUP3 ADD MLOAD DUP2 PUSH1 0x2 ADD PUSH0 PUSH2 0x100 EXP DUP2 SLOAD DUP2 PUSH20 0xFFFFFFFFFFFFFFFFFFFFFFFFFFFFFFFFFFFFFFFF MUL NOT AND SWAP1 DUP4 PUSH20 0xFFFFFFFFFFFFFFFFFFFFFFFFFFFFFFFFFFFFFFFF AND MUL OR SWAP1 SSTORE POP POP POP PUSH1 0x4 PUSH0 CALLER PUSH20 0xFFFFFFFFFFFFFFFFFFFFFFFFFFFFFFFFFFFFFFFF AND PUSH20 0xFFFFFFFFFFFFFFFFFFFFFFFFFFFFFFFFFFFFFFFF AND DUP2 MSTORE PUSH1 0x20 ADD SWAP1 DUP2 MSTORE PUSH1 0x20 ADD PUSH0 KECCAK256 PUSH0 SWAP1 SLOAD SWAP1 PUSH2 0x100 EXP SWAP1 DIV PUSH1 0xFF AND PUSH2 0x14F6 JUMPI PUSH1 0x1 PUSH1 0x4 PUSH0 CALLER PUSH20 0xFFFFFFFFFFFFFFFFFFFFFFFFFFFFFFFFFFFFFFFF AND PUSH20 0xFFFFFFFFFFFFFFFFFFFFFFFFFFFFFFFFFFFFFFFF AND DUP2 MSTORE PUSH1 0x20 ADD SWAP1 DUP2 MSTORE PUSH1 0x20 ADD PUSH0 KECCAK256 PUSH0 PUSH2 0x100 EXP DUP2 SLOAD DUP2 PUSH1 0xFF MUL NOT AND SWAP1 DUP4 ISZERO ISZERO MUL OR SWAP1 SSTORE POP PUSH1 0x6 PUSH0 DUP2 SLOAD DUP1 SWAP3 SWAP2 SWAP1 PUSH2 0x1490 SWAP1 PUSH2 0x20F8 JUMP JUMPDEST SWAP2 SWAP1 POP SSTORE POP PUSH1 0x7 CALLER SWAP1 DUP1 PUSH1 0x1 DUP2 SLOAD ADD DUP1 DUP3 SSTORE DUP1 SWAP2 POP POP PUSH1 0x1 SWAP1 SUB SWAP1 PUSH0 MSTORE PUSH1 0x20 PUSH0 KECCAK256 ADD PUSH0 SWAP1 SWAP2 SWAP1 SWAP2 SWAP1 SWAP2 PUSH2 0x100 EXP DUP2 SLOAD DUP2 PUSH20 0xFFFFFFFFFFFFFFFFFFFFFFFFFFFFFFFFFFFFFFFF MUL NOT AND SWAP1 DUP4 PUSH20 0xFFFFFFFFFFFFFFFFFFFFFFFFFFFFFFFFFFFFFFFF AND MUL OR SWAP1 SSTORE POP JUMPDEST POP POP POP JUMP JUMPDEST PUSH0 PUSH1 0x5 PUSH0 DUP4 PUSH20 0xFFFFFFFFFFFFFFFFFFFFFFFFFFFFFFFFFFFFFFFF AND PUSH20 0xFFFFFFFFFFFFFFFFFFFFFFFFFFFFFFFFFFFFFFFF AND DUP2 MSTORE PUSH1 0x20 ADD SWAP1 DUP2 MSTORE PUSH1 0x20 ADD PUSH0 KECCAK256 SLOAD SWAP1 POP SWAP2 SWAP1 POP JUMP JUMPDEST PUSH1 0xA SLOAD DUP2 JUMP JUMPDEST PUSH1 0x7 DUP2 DUP2 SLOAD DUP2 LT PUSH2 0x1556 JUMPI PUSH0 DUP1 REVERT JUMPDEST SWAP1 PUSH0 MSTORE PUSH1 0x20 PUSH0 KECCAK256 ADD PUSH0 SWAP2 POP SLOAD SWAP1 PUSH2 0x100 EXP SWAP1 DIV PUSH20 0xFFFFFFFFFFFFFFFFFFFFFFFFFFFFFFFFFFFFFFFF AND DUP2 JUMP JUMPDEST PUSH1 0xC PUSH1 0x1 SWAP1 SLOAD SWAP1 PUSH2 0x100 EXP SWAP1 DIV PUSH20 0xFFFFFFFFFFFFFFFFFFFFFFFFFFFFFFFFFFFFFFFF AND DUP2 JUMP JUMPDEST PUSH0 PUSH0 REVERT JUMPDEST PUSH0 PUSH20 0xFFFFFFFFFFFFFFFFFFFFFFFFFFFFFFFFFFFFFFFF DUP3 AND SWAP1 POP SWAP2 SWAP1 POP JUMP JUMPDEST PUSH0 PUSH2 0x15D5 DUP3 PUSH2 0x15AC JUMP JUMPDEST SWAP1 POP SWAP2 SWAP1 POP JUMP JUMPDEST PUSH2 0x15E5 DUP2 PUSH2 0x15CB JUMP JUMPDEST DUP2 EQ PUSH2 0x15EF JUMPI PUSH0 PUSH0 REVERT JUMPDEST POP JUMP JUMPDEST PUSH0 DUP2 CALLDATALOAD SWAP1 POP PUSH2 0x1600 DUP2 PUSH2 0x15DC JUMP JUMPDEST SWAP3 SWAP2 POP POP JUMP JUMPDEST PUSH0 PUSH1 0x20 DUP3 DUP5 SUB SLT ISZERO PUSH2 0x161B JUMPI PUSH2 0x161A PUSH2 0x15A8 JUMP JUMPDEST JUMPDEST PUSH0 PUSH2 0x1628 DUP5 DUP3 DUP6 ADD PUSH2 0x15F2 JUMP JUMPDEST SWAP2 POP POP SWAP3 SWAP2 POP POP JUMP JUMPDEST PUSH0 DUP2 ISZERO ISZERO SWAP1 POP SWAP2 SWAP1 POP JUMP JUMPDEST PUSH2 0x1645 DUP2 PUSH2 0x1631 JUMP JUMPDEST DUP3 MSTORE POP POP JUMP JUMPDEST PUSH0 PUSH1 0x20 DUP3 ADD SWAP1 POP PUSH2 0x165E PUSH0 DUP4 ADD DUP5 PUSH2 0x163C JUMP JUMPDEST SWAP3 SWAP2 POP POP JUMP JUMPDEST PUSH0 DUP2 SWAP1 POP SWAP2 SWAP1 POP JUMP JUMPDEST PUSH2 0x1676 DUP2 PUSH2 0x1664 JUMP JUMPDEST DUP3 MSTORE POP POP JUMP JUMPDEST PUSH0 PUSH1 0x20 DUP3 ADD SWAP1 POP PUSH2 0x168F PUSH0 DUP4 ADD DUP5 PUSH2 0x166D JUMP JUMPDEST SWAP3 SWAP2 POP POP JUMP JUMPDEST PUSH0 DUP2 MLOAD SWAP1 POP SWAP2 SWAP1 POP JUMP JUMPDEST PUSH0 DUP3 DUP3 MSTORE PUSH1 0x20 DUP3 ADD SWAP1 POP SWAP3 SWAP2 POP POP JUMP JUMPDEST DUP3 DUP2 DUP4 MCOPY PUSH0 DUP4 DUP4 ADD MSTORE POP POP POP JUMP JUMPDEST PUSH0 PUSH1 0x1F NOT PUSH1 0x1F DUP4 ADD AND SWAP1 POP SWAP2 SWAP1 POP JUMP JUMPDEST PUSH0 PUSH2 0x16D7 DUP3 PUSH2 0x1695 JUMP JUMPDEST PUSH2 0x16E1 DUP2 DUP6 PUSH2 0x169F JUMP JUMPDEST SWAP4 POP PUSH2 0x16F1 DUP2 DUP6 PUSH1 0x20 DUP7 ADD PUSH2 0x16AF JUMP JUMPDEST PUSH2 0x16FA DUP2 PUSH2 0x16BD JUMP JUMPDEST DUP5 ADD SWAP2 POP POP SWAP3 SWAP2 POP POP JUMP JUMPDEST PUSH0 PUSH1 0x20 DUP3 ADD SWAP1 POP DUP2 DUP2 SUB PUSH0 DUP4 ADD MSTORE PUSH2 0x171D DUP2 DUP5 PUSH2 0x16CD JUMP JUMPDEST SWAP1 POP SWAP3 SWAP2 POP POP JUMP JUMPDEST PUSH2 0x172E DUP2 PUSH2 0x15CB JUMP JUMPDEST DUP3 MSTORE POP POP JUMP JUMPDEST PUSH0 DUP2 MLOAD SWAP1 POP SWAP2 SWAP1 POP JUMP JUMPDEST PUSH0 DUP3 DUP3 MSTORE PUSH1 0x20 DUP3 ADD SWAP1 POP SWAP3 SWAP2 POP POP JUMP JUMPDEST PUSH0 DUP2 SWAP1 POP PUSH1 0x20 DUP3 ADD SWAP1 POP SWAP2 SWAP1 POP JUMP JUMPDEST PUSH2 0x1766 DUP2 PUSH2 0x15CB JUMP JUMPDEST DUP3 MSTORE POP POP JUMP JUMPDEST PUSH0 PUSH2 0x1777 DUP4 DUP4 PUSH2 0x175D JUMP JUMPDEST PUSH1 0x20 DUP4 ADD SWAP1 POP SWAP3 SWAP2 POP POP JUMP JUMPDEST PUSH0 PUSH1 0x20 DUP3 ADD SWAP1 POP SWAP2 SWAP1 POP JUMP JUMPDEST PUSH0 PUSH2 0x1799 DUP3 PUSH2 0x1734 JUMP JUMPDEST PUSH2 0x17A3 DUP2 DUP6 PUSH2 0x173E JUMP JUMPDEST SWAP4 POP PUSH2 0x17AE DUP4 PUSH2 0x174E JUMP JUMPDEST DUP1 PUSH0 JUMPDEST DUP4 DUP2 LT ISZERO PUSH2 0x17DE JUMPI DUP2 MLOAD PUSH2 0x17C5 DUP9 DUP3 PUSH2 0x176C JUMP JUMPDEST SWAP8 POP PUSH2 0x17D0 DUP4 PUSH2 0x1783 JUMP JUMPDEST SWAP3 POP POP PUSH1 0x1 DUP2 ADD SWAP1 POP PUSH2 0x17B1 JUMP JUMPDEST POP DUP6 SWAP4 POP POP POP POP SWAP3 SWAP2 POP POP JUMP JUMPDEST PUSH0 PUSH2 0x140 DUP3 ADD SWAP1 POP PUSH2 0x17FF PUSH0 DUP4 ADD DUP14 PUSH2 0x166D JUMP JUMPDEST PUSH2 0x180C PUSH1 0x20 DUP4 ADD DUP13 PUSH2 0x166D JUMP JUMPDEST PUSH2 0x1819 PUSH1 0x40 DUP4 ADD DUP12 PUSH2 0x166D JUMP JUMPDEST PUSH2 0x1826 PUSH1 0x60 DUP4 ADD DUP11 PUSH2 0x1725 JUMP JUMPDEST PUSH2 0x1833 PUSH1 0x80 DUP4 ADD DUP10 PUSH2 0x166D JUMP JUMPDEST DUP2 DUP2 SUB PUSH1 0xA0 DUP4 ADD MSTORE PUSH2 0x1845 DUP2 DUP9 PUSH2 0x16CD JUMP JUMPDEST SWAP1 POP DUP2 DUP2 SUB PUSH1 0xC0 DUP4 ADD MSTORE PUSH2 0x1859 DUP2 DUP8 PUSH2 0x16CD JUMP JUMPDEST SWAP1 POP PUSH2 0x1868 PUSH1 0xE0 DUP4 ADD DUP7 PUSH2 0x1725 JUMP JUMPDEST DUP2 DUP2 SUB PUSH2 0x100 DUP4 ADD MSTORE PUSH2 0x187B DUP2 DUP6 PUSH2 0x178F JUMP JUMPDEST SWAP1 POP PUSH2 0x188B PUSH2 0x120 DUP4 ADD DUP5 PUSH2 0x166D JUMP JUMPDEST SWAP12 SWAP11 POP POP POP POP POP POP POP POP POP POP POP JUMP JUMPDEST PUSH0 PUSH1 0x20 DUP3 ADD SWAP1 POP PUSH2 0x18AD PUSH0 DUP4 ADD DUP5 PUSH2 0x1725 JUMP JUMPDEST SWAP3 SWAP2 POP POP JUMP JUMPDEST PUSH0 DUP2 MLOAD SWAP1 POP SWAP2 SWAP1 POP JUMP JUMPDEST PUSH0 DUP3 DUP3 MSTORE PUSH1 0x20 DUP3 ADD SWAP1 POP SWAP3 SWAP2 POP POP JUMP JUMPDEST PUSH0 DUP2 SWAP1 POP PUSH1 0x20 DUP3 ADD SWAP1 POP SWAP2 SWAP1 POP JUMP JUMPDEST PUSH2 0x18E5 DUP2 PUSH2 0x1664 JUMP JUMPDEST DUP3 MSTORE POP POP JUMP JUMPDEST PUSH1 0x60 DUP3 ADD PUSH0 DUP3 ADD MLOAD PUSH2 0x18FF PUSH0 DUP6 ADD DUP3 PUSH2 0x18DC JUMP JUMPDEST POP PUSH1 0x20 DUP3 ADD MLOAD PUSH2 0x1912 PUSH1 0x20 DUP6 ADD DUP3 PUSH2 0x18DC JUMP JUMPDEST POP PUSH1 0x40 DUP3 ADD MLOAD PUSH2 0x1925 PUSH1 0x40 DUP6 ADD DUP3 PUSH2 0x175D JUMP JUMPDEST POP POP POP POP JUMP JUMPDEST PUSH0 PUSH2 0x1936 DUP4 DUP4 PUSH2 0x18EB JUMP JUMPDEST PUSH1 0x60 DUP4 ADD SWAP1 POP SWAP3 SWAP2 POP POP JUMP JUMPDEST PUSH0 PUSH1 0x20 DUP3 ADD SWAP1 POP SWAP2 SWAP1 POP JUMP JUMPDEST PUSH0 PUSH2 0x1958 DUP3 PUSH2 0x18B3 JUMP JUMPDEST PUSH2 0x1962 DUP2 DUP6 PUSH2 0x18BD JUMP JUMPDEST SWAP4 POP PUSH2 0x196D DUP4 PUSH2 0x18CD JUMP JUMPDEST DUP1 PUSH0 JUMPDEST DUP4 DUP2 LT ISZERO PUSH2 0x199D JUMPI DUP2 MLOAD PUSH2 0x1984 DUP9 DUP3 PUSH2 0x192B JUMP JUMPDEST SWAP8 POP PUSH2 0x198F DUP4 PUSH2 0x1942 JUMP JUMPDEST SWAP3 POP POP PUSH1 0x1 DUP2 ADD SWAP1 POP PUSH2 0x1970 JUMP JUMPDEST POP DUP6 SWAP4 POP POP POP POP SWAP3 SWAP2 POP POP JUMP JUMPDEST PUSH0 PUSH1 0x20 DUP3 ADD SWAP1 POP DUP2 DUP2 SUB PUSH0 DUP4 ADD MSTORE PUSH2 0x19C2 DUP2 DUP5 PUSH2 0x194E JUMP JUMPDEST SWAP1 POP SWAP3 SWAP2 POP POP JUMP JUMPDEST PUSH2 0x19D3 DUP2 PUSH2 0x1664 JUMP JUMPDEST DUP2 EQ PUSH2 0x19DD JUMPI PUSH0 PUSH0 REVERT JUMPDEST POP JUMP JUMPDEST PUSH0 DUP2 CALLDATALOAD SWAP1 POP PUSH2 0x19EE DUP2 PUSH2 0x19CA JUMP JUMPDEST SWAP3 SWAP2 POP POP JUMP JUMPDEST PUSH0 PUSH1 0x20 DUP3 DUP5 SUB SLT ISZERO PUSH2 0x1A09 JUMPI PUSH2 0x1A08 PUSH2 0x15A8 JUMP JUMPDEST JUMPDEST PUSH0 PUSH2 0x1A16 DUP5 DUP3 DUP6 ADD PUSH2 0x19E0 JUMP JUMPDEST SWAP2 POP POP SWAP3 SWAP2 POP POP JUMP JUMPDEST PUSH0 PUSH1 0x60 DUP3 ADD SWAP1 POP PUSH2 0x1A32 PUSH0 DUP4 ADD DUP7 PUSH2 0x166D JUMP JUMPDEST PUSH2 0x1A3F PUSH1 0x20 DUP4 ADD DUP6 PUSH2 0x166D JUMP JUMPDEST PUSH2 0x1A4C PUSH1 0x40 DUP4 ADD DUP5 PUSH2 0x1725 JUMP JUMPDEST SWAP5 SWAP4 POP POP POP POP JUMP JUMPDEST PUSH0 PUSH1 0x20 DUP3 ADD SWAP1 POP DUP2 DUP2 SUB PUSH0 DUP4 ADD MSTORE PUSH2 0x1A6C DUP2 DUP5 PUSH2 0x178F JUMP JUMPDEST SWAP1 POP SWAP3 SWAP2 POP POP JUMP JUMPDEST PUSH0 DUP2 SWAP1 POP SWAP2 SWAP1 POP JUMP JUMPDEST PUSH0 PUSH2 0x1A97 PUSH2 0x1A92 PUSH2 0x1A8D DUP5 PUSH2 0x15AC JUMP JUMPDEST PUSH2 0x1A74 JUMP JUMPDEST PUSH2 0x15AC JUMP JUMPDEST SWAP1 POP SWAP2 SWAP1 POP JUMP JUMPDEST PUSH0 PUSH2 0x1AA8 DUP3 PUSH2 0x1A7D JUMP JUMPDEST SWAP1 POP SWAP2 SWAP1 POP JUMP JUMPDEST PUSH0 PUSH2 0x1AB9 DUP3 PUSH2 0x1A9E JUMP JUMPDEST SWAP1 POP SWAP2 SWAP1 POP JUMP JUMPDEST PUSH2 0x1AC9 DUP2 PUSH2 0x1AAF JUMP JUMPDEST DUP3 MSTORE POP POP JUMP JUMPDEST PUSH0 PUSH1 0x20 DUP3 ADD SWAP1 POP PUSH2 0x1AE2 PUSH0 DUP4 ADD DUP5 PUSH2 0x1AC0 JUMP JUMPDEST SWAP3 SWAP2 POP POP JUMP JUMPDEST PUSH32 0x41756374696F6E206E6F742066696E616C697A65640000000000000000000000 PUSH0 DUP3 ADD MSTORE POP JUMP JUMPDEST PUSH0 PUSH2 0x1B1C PUSH1 0x15 DUP4 PUSH2 0x169F JUMP JUMPDEST SWAP2 POP PUSH2 0x1B27 DUP3 PUSH2 0x1AE8 JUMP JUMPDEST PUSH1 0x20 DUP3 ADD SWAP1 POP SWAP2 SWAP1 POP JUMP JUMPDEST PUSH0 PUSH1 0x20 DUP3 ADD SWAP1 POP DUP2 DUP2 SUB PUSH0 DUP4 ADD MSTORE PUSH2 0x1B49 DUP2 PUSH2 0x1B10 JUMP JUMPDEST SWAP1 POP SWAP2 SWAP1 POP JUMP JUMPDEST PUSH32 0x4F6E6C792077696E6E65722063616E2061636365737320746865206461746100 PUSH0 DUP3 ADD MSTORE POP JUMP JUMPDEST PUSH0 PUSH2 0x1B84 PUSH1 0x1F DUP4 PUSH2 0x169F JUMP JUMPDEST SWAP2 POP PUSH2 0x1B8F DUP3 PUSH2 0x1B50 JUMP JUMPDEST PUSH1 0x20 DUP3 ADD SWAP1 POP SWAP2 SWAP1 POP JUMP JUMPDEST PUSH0 PUSH1 0x20 DUP3 ADD SWAP1 POP DUP2 DUP2 SUB PUSH0 DUP4 ADD MSTORE PUSH2 0x1BB1 DUP2 PUSH2 0x1B78 JUMP JUMPDEST SWAP1 POP SWAP2 SWAP1 POP JUMP JUMPDEST PUSH32 0x4E487B7100000000000000000000000000000000000000000000000000000000 PUSH0 MSTORE PUSH1 0x22 PUSH1 0x4 MSTORE PUSH1 0x24 PUSH0 REVERT JUMPDEST PUSH0 PUSH1 0x2 DUP3 DIV SWAP1 POP PUSH1 0x1 DUP3 AND DUP1 PUSH2 0x1BFC JUMPI PUSH1 0x7F DUP3 AND SWAP2 POP JUMPDEST PUSH1 0x20 DUP3 LT DUP2 SUB PUSH2 0x1C0F JUMPI PUSH2 0x1C0E PUSH2 0x1BB8 JUMP JUMPDEST JUMPDEST POP SWAP2 SWAP1 POP JUMP JUMPDEST PUSH0 DUP2 MLOAD SWAP1 POP PUSH2 0x1C23 DUP2 PUSH2 0x19CA JUMP JUMPDEST SWAP3 SWAP2 POP POP JUMP JUMPDEST PUSH0 PUSH1 0x20 DUP3 DUP5 SUB SLT ISZERO PUSH2 0x1C3E JUMPI PUSH2 0x1C3D PUSH2 0x15A8 JUMP JUMPDEST JUMPDEST PUSH0 PUSH2 0x1C4B DUP5 DUP3 DUP6 ADD PUSH2 0x1C15 JUMP JUMPDEST SWAP2 POP POP SWAP3 SWAP2 POP POP JUMP JUMPDEST PUSH32 0x41756374696F6E206E6F7420656E646564207965740000000000000000000000 PUSH0 DUP3 ADD MSTORE POP JUMP JUMPDEST PUSH0 PUSH2 0x1C88 PUSH1 0x15 DUP4 PUSH2 0x169F JUMP JUMPDEST SWAP2 POP PUSH2 0x1C93 DUP3 PUSH2 0x1C54 JUMP JUMPDEST PUSH1 0x20 DUP3 ADD SWAP1 POP SWAP2 SWAP1 POP JUMP JUMPDEST PUSH0 PUSH1 0x20 DUP3 ADD SWAP1 POP DUP2 DUP2 SUB PUSH0 DUP4 ADD MSTORE PUSH2 0x1CB5 DUP2 PUSH2 0x1C7C JUMP JUMPDEST SWAP1 POP SWAP2 SWAP1 POP JUMP JUMPDEST PUSH32 0x41756374696F6E20616C72656164792066696E616C697A656400000000000000 PUSH0 DUP3 ADD MSTORE POP JUMP JUMPDEST PUSH0 PUSH2 0x1CF0 PUSH1 0x19 DUP4 PUSH2 0x169F JUMP JUMPDEST SWAP2 POP PUSH2 0x1CFB DUP3 PUSH2 0x1CBC JUMP JUMPDEST PUSH1 0x20 DUP3 ADD SWAP1 POP SWAP2 SWAP1 POP JUMP JUMPDEST PUSH0 PUSH1 0x20 DUP3 ADD SWAP1 POP DUP2 DUP2 SUB PUSH0 DUP4 ADD MSTORE PUSH2 0x1D1D DUP2 PUSH2 0x1CE4 JUMP JUMPDEST SWAP1 POP SWAP2 SWAP1 POP JUMP JUMPDEST PUSH32 0x4E487B7100000000000000000000000000000000000000000000000000000000 PUSH0 MSTORE PUSH1 0x32 PUSH1 0x4 MSTORE PUSH1 0x24 PUSH0 REVERT JUMPDEST PUSH0 PUSH1 0x40 DUP3 ADD SWAP1 POP PUSH2 0x1D64 PUSH0 DUP4 ADD DUP6 PUSH2 0x1725 JUMP JUMPDEST PUSH2 0x1D71 PUSH1 0x20 DUP4 ADD DUP5 PUSH2 0x166D JUMP JUMPDEST SWAP4 SWAP3 POP POP POP JUMP JUMPDEST PUSH2 0x1D81 DUP2 PUSH2 0x1631 JUMP JUMPDEST DUP2 EQ PUSH2 0x1D8B JUMPI PUSH0 PUSH0 REVERT JUMPDEST POP JUMP JUMPDEST PUSH0 DUP2 MLOAD SWAP1 POP PUSH2 0x1D9C DUP2 PUSH2 0x1D78 JUMP JUMPDEST SWAP3 SWAP2 POP POP JUMP JUMPDEST PUSH0 PUSH1 0x20 DUP3 DUP5 SUB SLT ISZERO PUSH2 0x1DB7 JUMPI PUSH2 0x1DB6 PUSH2 0x15A8 JUMP JUMPDEST JUMPDEST PUSH0 PUSH2 0x1DC4 DUP5 DUP3 DUP6 ADD PUSH2 0x1D8E JUMP JUMPDEST SWAP2 POP POP SWAP3 SWAP2 POP POP JUMP JUMPDEST PUSH32 0x526566756E64206661696C656400000000000000000000000000000000000000 PUSH0 DUP3 ADD MSTORE POP JUMP JUMPDEST PUSH0 PUSH2 0x1E01 PUSH1 0xD DUP4 PUSH2 0x169F JUMP JUMPDEST SWAP2 POP PUSH2 0x1E0C DUP3 PUSH2 0x1DCD JUMP JUMPDEST PUSH1 0x20 DUP3 ADD SWAP1 POP SWAP2 SWAP1 POP JUMP JUMPDEST PUSH0 PUSH1 0x20 DUP3 ADD SWAP1 POP DUP2 DUP2 SUB PUSH0 DUP4 ADD MSTORE PUSH2 0x1E2E DUP2 PUSH2 0x1DF5 JUMP JUMPDEST SWAP1 POP SWAP2 SWAP1 POP JUMP JUMPDEST PUSH32 0x5061796D656E7420746F2073656C6C6572206661696C65640000000000000000 PUSH0 DUP3 ADD MSTORE POP JUMP JUMPDEST PUSH0 PUSH2 0x1E69 PUSH1 0x18 DUP4 PUSH2 0x169F JUMP JUMPDEST SWAP2 POP PUSH2 0x1E74 DUP3 PUSH2 0x1E35 JUMP JUMPDEST PUSH1 0x20 DUP3 ADD SWAP1 POP SWAP2 SWAP1 POP JUMP JUMPDEST PUSH0 PUSH1 0x20 DUP3 ADD SWAP1 POP DUP2 DUP2 SUB PUSH0 DUP4 ADD MSTORE PUSH2 0x1E96 DUP2 PUSH2 0x1E5D JUMP JUMPDEST SWAP1 POP SWAP2 SWAP1 POP JUMP JUMPDEST PUSH32 0x41756374696F6E20656E64656400000000000000000000000000000000000000 PUSH0 DUP3 ADD MSTORE POP JUMP JUMPDEST PUSH0 PUSH2 0x1ED1 PUSH1 0xD DUP4 PUSH2 0x169F JUMP JUMPDEST SWAP2 POP PUSH2 0x1EDC DUP3 PUSH2 0x1E9D JUMP JUMPDEST PUSH1 0x20 DUP3 ADD SWAP1 POP SWAP2 SWAP1 POP JUMP JUMPDEST PUSH0 PUSH1 0x20 DUP3 ADD SWAP1 POP DUP2 DUP2 SUB PUSH0 DUP4 ADD MSTORE PUSH2 0x1EFE DUP2 PUSH2 0x1EC5 JUMP JUMPDEST SWAP1 POP SWAP2 SWAP1 POP JUMP JUMPDEST PUSH32 0x596F752063616E277420626964206F6E20796F7572206F776E2061756374696F PUSH0 DUP3 ADD MSTORE PUSH32 0x6E00000000000000000000000000000000000000000000000000000000000000 PUSH1 0x20 DUP3 ADD MSTORE POP JUMP JUMPDEST PUSH0 PUSH2 0x1F5F PUSH1 0x21 DUP4 PUSH2 0x169F JUMP JUMPDEST SWAP2 POP PUSH2 0x1F6A DUP3 PUSH2 0x1F05 JUMP JUMPDEST PUSH1 0x40 DUP3 ADD SWAP1 POP SWAP2 SWAP1 POP JUMP JUMPDEST PUSH0 PUSH1 0x20 DUP3 ADD SWAP1 POP DUP2 DUP2 SUB PUSH0 DUP4 ADD MSTORE PUSH2 0x1F8C DUP2 PUSH2 0x1F53 JUMP JUMPDEST SWAP1 POP SWAP2 SWAP1 POP JUMP JUMPDEST PUSH32 0x4E487B7100000000000000000000000000000000000000000000000000000000 PUSH0 MSTORE PUSH1 0x11 PUSH1 0x4 MSTORE PUSH1 0x24 PUSH0 REVERT JUMPDEST PUSH0 PUSH2 0x1FCA DUP3 PUSH2 0x1664 JUMP JUMPDEST SWAP2 POP PUSH2 0x1FD5 DUP4 PUSH2 0x1664 JUMP JUMPDEST SWAP3 POP DUP3 DUP3 ADD SWAP1 POP DUP1 DUP3 GT ISZERO PUSH2 0x1FED JUMPI PUSH2 0x1FEC PUSH2 0x1F93 JUMP JUMPDEST JUMPDEST SWAP3 SWAP2 POP POP JUMP JUMPDEST PUSH32 0x42656C6F77206D696E696D756D20626964000000000000000000000000000000 PUSH0 DUP3 ADD MSTORE POP JUMP JUMPDEST PUSH0 PUSH2 0x2027 PUSH1 0x11 DUP4 PUSH2 0x169F JUMP JUMPDEST SWAP2 POP PUSH2 0x2032 DUP3 PUSH2 0x1FF3 JUMP JUMPDEST PUSH1 0x20 DUP3 ADD SWAP1 POP SWAP2 SWAP1 POP JUMP JUMPDEST PUSH0 PUSH1 0x20 DUP3 ADD SWAP1 POP DUP2 DUP2 SUB PUSH0 DUP4 ADD MSTORE PUSH2 0x2054 DUP2 PUSH2 0x201B JUMP JUMPDEST SWAP1 POP SWAP2 SWAP1 POP JUMP JUMPDEST PUSH32 0x426964206D757374206578636565642063757272656E74206869676865737400 PUSH0 DUP3 ADD MSTORE POP JUMP JUMPDEST PUSH0 PUSH2 0x208F PUSH1 0x1F DUP4 PUSH2 0x169F JUMP JUMPDEST SWAP2 POP PUSH2 0x209A DUP3 PUSH2 0x205B JUMP JUMPDEST PUSH1 0x20 DUP3 ADD SWAP1 POP SWAP2 SWAP1 POP JUMP JUMPDEST PUSH0 PUSH1 0x20 DUP3 ADD SWAP1 POP DUP2 DUP2 SUB PUSH0 DUP4 ADD MSTORE PUSH2 0x20BC DUP2 PUSH2 0x2083 JUMP JUMPDEST SWAP1 POP SWAP2 SWAP1 POP JUMP JUMPDEST PUSH0 PUSH1 0x60 DUP3 ADD SWAP1 POP PUSH2 0x20D6 PUSH0 DUP4 ADD DUP7 PUSH2 0x1725 JUMP JUMPDEST PUSH2 0x20E3 PUSH1 0x20 DUP4 ADD DUP6 PUSH2 0x1725 JUMP JUMPDEST PUSH2 0x20F0 PUSH1 0x40 DUP4 ADD DUP5 PUSH2 0x166D JUMP JUMPDEST SWAP5 SWAP4 POP POP POP POP JUMP JUMPDEST PUSH0 PUSH2 0x2102 DUP3 PUSH2 0x1664 JUMP JUMPDEST SWAP2 POP PUSH32 0xFFFFFFFFFFFFFFFFFFFFFFFFFFFFFFFFFFFFFFFFFFFFFFFFFFFFFFFFFFFFFFFF DUP3 SUB PUSH2 0x2134 JUMPI PUSH2 0x2133 PUSH2 0x1F93 JUMP JUMPDEST JUMPDEST PUSH1 0x1 DUP3 ADD SWAP1 POP SWAP2 SWAP1 POP JUMP INVALID LOG2 PUSH5 0x6970667358 0x22 SLT KECCAK256 SWAP13 PUSH6 0x986A45BD8232 SHR MLOAD 0xCD RETURNDATACOPY PUSH13 0x417526724900F5A5967AF82AEA 0xC6 CALLDATASIZE PUSH11 0x37837E64736F6C63430008 0x1E STOP CALLER LOG2 PUSH5 0x6970667358 0x22 SLT KECCAK256 PUSH3 0xF4AE32 PUSH26 0x12CFD35A08DDA9FC0FA420FE5AED0EB92888D8DCE8A5F8627451 PUSH3 0x64736F PUSH13 0x634300081E0033000000000000 "},"gasEstimates":{"creation":{"codeDepositCost":"2573400","executionCost":"2784","totalCost":"2576184"},"external":{"checkEndedAuctions()":"infinite","createCampaign(uint256,string,string,uint256,address)":"infinite","deployedCampaigns(uint256)":"4921","getDeployedCampaigns()":"infinite"}},"methodIdentifiers":{"checkEndedAuctions()":"75da6ba0","createCampaign(uint256,string,string,uint256,address)":"f9f01f88","deployedCampaigns(uint256)":"339d50a5","getDeployedCampaigns()":"4acb9d4f"}},"storageLayout":{"storage":[{"astId":436,"contract":"Campaign.sol:CampaignFactory","label":"deployedCampaigns","offset":0,"slot":"0","type":"t_array(t_address_payable)dyn_storage"}],"types":{"t_address_payable":{"encoding":"inplace","label":"address payable","numberOfBytes":"20"},"t_array(t_address_payable)dyn_storage":{"base":"t_address_payable","encoding":"dynamic_array","label":"address payable[]","numberOfBytes":"32"}}},"transientStorageLayout":{"storage":[],"types":null},"userdoc":{"kind":"user","methods":{},"version":1}}