{"abi":[{"inputs":[{"internalType":"uint256","name":"minimum","type":"uint256"},{"internalType":"string","name":"dataSell","type":"string"},{"internalType":"string","name":"dataDesc","type":"string"},{"internalType":"address","name":"creator","type":"address"},{"internalType":"uint256","name":"duration","type":"uint256"},{"internalType":"address","name":"tokenAddress","type":"address"}],"stateMutability":"nonpayable","type":"constructor"},{"anonymous":false,"inputs":[{"indexed":false,"internalType":"uint256","name":"allowance","type":"uint256"},{"indexed":false,"internalType":"uint256","name":"required","type":"uint256"}],"name":"AllowanceCheck","type":"event"},{"anonymous":false,"inputs":[{"indexed":false,"internalType":"address","name":"contributor","type":"address"},{"indexed":false,"internalType":"uint256","name":"amount","type":"uint256"}],"name":"ContributeCalled","type":"event"},{"anonymous":false,"inputs":[{"indexed":false,"internalType":"uint256","name":"onChainNonce","type":"uint256"}],"name":"NonceCheck","type":"event"},{"anonymous":false,"inputs":[{"indexed":true,"internalType":"address","name":"owner","type":"address"},{"indexed":true,"internalType":"address","name":"spender","type":"address"},{"indexed":false,"internalType":"uint256","name":"value","type":"uint256"},{"indexed":false,"internalType":"uint256","name":"nonce","type":"uint256"},{"indexed":false,"internalType":"uint256","name":"deadline","type":"uint256"}],"name":"PermitAttempt","type":"event"},{"anonymous":false,"inputs":[{"indexed":false,"internalType":"string","name":"reason","type":"string"}],"name":"PermitFailed","type":"event"},{"anonymous":false,"inputs":[{"indexed":true,"internalType":"address","name":"owner","type":"address"},{"indexed":false,"internalType":"uint256","name":"allowanceAfter","type":"uint256"}],"name":"PermitSuccess","type":"event"},{"anonymous":false,"inputs":[{"indexed":true,"internalType":"address","name":"contributor","type":"address"},{"indexed":false,"internalType":"uint256","name":"amount","type":"uint256"}],"name":"RefundProcessed","type":"event"},{"anonymous":false,"inputs":[{"indexed":true,"internalType":"address","name":"seller","type":"address"},{"indexed":false,"internalType":"uint256","name":"amount","type":"uint256"}],"name":"SellerPaid","type":"event"},{"inputs":[{"internalType":"uint256","name":"","type":"uint256"}],"name":"addresses","outputs":[{"internalType":"address","name":"","type":"address"}],"stateMutability":"view","type":"function"},{"inputs":[{"internalType":"address","name":"","type":"address"}],"name":"approvers","outputs":[{"internalType":"bool","name":"","type":"bool"}],"stateMutability":"view","type":"function"},{"inputs":[],"name":"approversCount","outputs":[{"internalType":"uint256","name":"","type":"uint256"}],"stateMutability":"view","type":"function"},{"inputs":[{"internalType":"address","name":"","type":"address"}],"name":"approversMoney","outputs":[{"internalType":"uint256","name":"","type":"uint256"}],"stateMutability":"view","type":"function"},{"inputs":[],"name":"closed","outputs":[{"internalType":"bool","name":"","type":"bool"}],"stateMutability":"view","type":"function"},{"inputs":[{"internalType":"uint256","name":"amount","type":"uint256"}],"name":"contribute","outputs":[],"stateMutability":"nonpayable","type":"function"},{"inputs":[],"name":"dataDescription","outputs":[{"internalType":"string","name":"","type":"string"}],"stateMutability":"view","type":"function"},{"inputs":[],"name":"dataForSell","outputs":[{"internalType":"string","name":"","type":"string"}],"stateMutability":"view","type":"function"},{"inputs":[],"name":"endTime","outputs":[{"internalType":"uint256","name":"","type":"uint256"}],"stateMutability":"view","type":"function"},{"inputs":[],"name":"finalizeAuctionIfNeeded","outputs":[],"stateMutability":"nonpayable","type":"function"},{"inputs":[],"name":"getAddresses","outputs":[{"internalType":"address[]","name":"","type":"address[]"}],"stateMutability":"view","type":"function"},{"inputs":[{"internalType":"address","name":"bidder","type":"address"}],"name":"getBid","outputs":[{"internalType":"uint256","name":"","type":"uint256"}],"stateMutability":"view","type":"function"},{"inputs":[],"name":"getData","outputs":[{"internalType":"string","name":"","type":"string"}],"stateMutability":"view","type":"function"},{"inputs":[],"name":"getStatus","outputs":[{"internalType":"bool","name":"","type":"bool"}],"stateMutability":"view","type":"function"},{"inputs":[],"name":"getSummary","outputs":[{"internalType":"uint256","name":"","type":"uint256"},{"internalType":"uint256","name":"","type":"uint256"},{"internalType":"uint256","name":"","type":"uint256"},{"internalType":"address","name":"","type":"address"},{"internalType":"uint256","name":"","type":"uint256"},{"internalType":"string","name":"","type":"string"},{"internalType":"string","name":"","type":"string"},{"internalType":"address","name":"","type":"address"},{"internalType":"address[]","name":"","type":"address[]"},{"internalType":"uint256","name":"","type":"uint256"}],"stateMutability":"view","type":"function"},{"inputs":[],"name":"getTransactions","outputs":[{"components":[{"internalType":"uint256","name":"value","type":"uint256"},{"internalType":"uint256","name":"time","type":"uint256"},{"internalType":"address","name":"bidderAddress","type":"address"}],"internalType":"struct Campaign.Bid[]","name":"","type":"tuple[]"}],"stateMutability":"view","type":"function"},{"inputs":[],"name":"highestBid","outputs":[{"internalType":"uint256","name":"","type":"uint256"}],"stateMutability":"view","type":"function"},{"inputs":[],"name":"highestBidder","outputs":[{"internalType":"address","name":"","type":"address"}],"stateMutability":"view","type":"function"},{"inputs":[],"name":"manager","outputs":[{"internalType":"address","name":"","type":"address"}],"stateMutability":"view","type":"function"},{"inputs":[],"name":"minimumContribution","outputs":[{"internalType":"uint256","name":"","type":"uint256"}],"stateMutability":"view","type":"function"},{"inputs":[{"internalType":"uint256","name":"amount","type":"uint256"},{"internalType":"uint256","name":"deadline","type":"uint256"},{"internalType":"uint8","name":"v","type":"uint8"},{"internalType":"bytes32","name":"r","type":"bytes32"},{"internalType":"bytes32","name":"s","type":"bytes32"}],"name":"permitAndContribute","outputs":[],"stateMutability":"nonpayable","type":"function"},{"inputs":[],"name":"token","outputs":[{"internalType":"contract IERC20Permit","name":"","type":"address"}],"stateMutability":"view","type":"function"},{"inputs":[{"internalType":"uint256","name":"","type":"uint256"}],"name":"transactions","outputs":[{"internalType":"uint256","name":"value","type":"uint256"},{"internalType":"uint256","name":"time","type":"uint256"},{"internalType":"address","name":"bidderAddress","type":"address"}],"stateMutability":"view","type":"function"}],"devdoc":{"kind":"dev","methods":{},"version":1},"evm":{"assembly":"    /* \"Campaign.sol\":698:8397  contract Campaign {... */\n  mstore(0x40, 0x80)\n    /* \"Campaign.sol\":1715:2157  constructor(... */\n  callvalue\n  dup1\n  iszero\n  tag_1\n  jumpi\n  revert(0x00, 0x00)\ntag_1:\n  pop\n  mload(0x40)\n  sub(codesize, bytecodeSize)\n  dup1\n  bytecodeSize\n  dup4\n  codecopy\n  dup2\n  dup2\n  add\n  0x40\n  mstore\n  dup2\n  add\n  swap1\n  tag_2\n  swap2\n  swap1\n  tag_3\n  jump\t// in\ntag_2:\n    /* \"Campaign.sol\":1933:1940  creator */\n  dup3\n    /* \"Campaign.sol\":1923:1930  manager */\n  0x00\n  0x00\n    /* \"Campaign.sol\":1923:1940  manager = creator */\n  0x0100\n  exp\n  dup2\n  sload\n  dup2\n  0xffffffffffffffffffffffffffffffffffffffff\n  mul\n  not\n  and\n  swap1\n  dup4\n  0xffffffffffffffffffffffffffffffffffffffff\n  and\n  mul\n  or\n  swap1\n  sstore\n  pop\n    /* \"Campaign.sol\":1973:1980  minimum */\n  dup6\n    /* \"Campaign.sol\":1951:1970  minimumContribution */\n  0x01\n    /* \"Campaign.sol\":1951:1980  minimumContribution = minimum */\n  dup2\n  swap1\n  sstore\n  pop\n    /* \"Campaign.sol\":2005:2013  dataSell */\n  dup5\n    /* \"Campaign.sol\":1991:2002  dataForSell */\n  0x02\n    /* \"Campaign.sol\":1991:2013  dataForSell = dataSell */\n  swap1\n  dup2\n  tag_6\n  swap2\n  swap1\n  tag_7\n  jump\t// in\ntag_6:\n  pop\n    /* \"Campaign.sol\":2042:2050  dataDesc */\n  dup4\n    /* \"Campaign.sol\":2024:2039  dataDescription */\n  0x03\n    /* \"Campaign.sol\":2024:2050  dataDescription = dataDesc */\n  swap1\n  dup2\n  tag_8\n  swap2\n  swap1\n  tag_7\n  jump\t// in\ntag_8:\n  pop\n    /* \"Campaign.sol\":2071:2079  duration */\n  dup2\n    /* \"Campaign.sol\":2061:2068  endTime */\n  0x0b\n    /* \"Campaign.sol\":2061:2079  endTime = duration */\n  dup2\n  swap1\n  sstore\n  pop\n    /* \"Campaign.sol\":2099:2104  false */\n  0x00\n    /* \"Campaign.sol\":2090:2096  closed */\n  0x0c\n  0x00\n    /* \"Campaign.sol\":2090:2104  closed = false */\n  0x0100\n  exp\n  dup2\n  sload\n  dup2\n  0xff\n  mul\n  not\n  and\n  swap1\n  dup4\n  iszero\n  iszero\n  mul\n  or\n  swap1\n  sstore\n  pop\n    /* \"Campaign.sol\":2136:2148  tokenAddress */\n  dup1\n    /* \"Campaign.sol\":2115:2120  token */\n  0x0c\n  0x01\n    /* \"Campaign.sol\":2115:2149  token = IERC20Permit(tokenAddress) */\n  0x0100\n  exp\n  dup2\n  sload\n  dup2\n  0xffffffffffffffffffffffffffffffffffffffff\n  mul\n  not\n  and\n  swap1\n  dup4\n  0xffffffffffffffffffffffffffffffffffffffff\n  and\n  mul\n  or\n  swap1\n  sstore\n  pop\n    /* \"Campaign.sol\":1715:2157  constructor(... */\n  pop\n  pop\n  pop\n  pop\n  pop\n  pop\n    /* \"Campaign.sol\":698:8397  contract Campaign {... */\n  jump(tag_9)\n    /* \"#utility.yul\":7:82   */\ntag_10:\n    /* \"#utility.yul\":40:46   */\n  0x00\n    /* \"#utility.yul\":73:75   */\n  0x40\n    /* \"#utility.yul\":67:76   */\n  mload\n    /* \"#utility.yul\":57:76   */\n  swap1\n  pop\n    /* \"#utility.yul\":7:82   */\n  swap1\n  jump\t// out\n    /* \"#utility.yul\":88:205   */\ntag_11:\n    /* \"#utility.yul\":197:198   */\n  0x00\n    /* \"#utility.yul\":194:195   */\n  0x00\n    /* \"#utility.yul\":187:199   */\n  revert\n    /* \"#utility.yul\":211:328   */\ntag_12:\n    /* \"#utility.yul\":320:321   */\n  0x00\n    /* \"#utility.yul\":317:318   */\n  0x00\n    /* \"#utility.yul\":310:322   */\n  revert\n    /* \"#utility.yul\":334:411   */\ntag_13:\n    /* \"#utility.yul\":371:378   */\n  0x00\n    /* \"#utility.yul\":400:405   */\n  dup2\n    /* \"#utility.yul\":389:405   */\n  swap1\n  pop\n    /* \"#utility.yul\":334:411   */\n  swap2\n  swap1\n  pop\n  jump\t// out\n    /* \"#utility.yul\":417:539   */\ntag_14:\n    /* \"#utility.yul\":490:514   */\n  tag_54\n    /* \"#utility.yul\":508:513   */\n  dup2\n    /* \"#utility.yul\":490:514   */\n  tag_13\n  jump\t// in\ntag_54:\n    /* \"#utility.yul\":483:488   */\n  dup2\n    /* \"#utility.yul\":480:515   */\n  eq\n    /* \"#utility.yul\":470:533   */\n  tag_55\n  jumpi\n    /* \"#utility.yul\":529:530   */\n  0x00\n    /* \"#utility.yul\":526:527   */\n  0x00\n    /* \"#utility.yul\":519:531   */\n  revert\n    /* \"#utility.yul\":470:533   */\ntag_55:\n    /* \"#utility.yul\":417:539   */\n  pop\n  jump\t// out\n    /* \"#utility.yul\":545:688   */\ntag_15:\n    /* \"#utility.yul\":602:607   */\n  0x00\n    /* \"#utility.yul\":633:639   */\n  dup2\n    /* \"#utility.yul\":627:640   */\n  mload\n    /* \"#utility.yul\":618:640   */\n  swap1\n  pop\n    /* \"#utility.yul\":649:682   */\n  tag_57\n    /* \"#utility.yul\":676:681   */\n  dup2\n    /* \"#utility.yul\":649:682   */\n  tag_14\n  jump\t// in\ntag_57:\n    /* \"#utility.yul\":545:688   */\n  swap3\n  swap2\n  pop\n  pop\n  jump\t// out\n    /* \"#utility.yul\":694:811   */\ntag_16:\n    /* \"#utility.yul\":803:804   */\n  0x00\n    /* \"#utility.yul\":800:801   */\n  0x00\n    /* \"#utility.yul\":793:805   */\n  revert\n    /* \"#utility.yul\":817:934   */\ntag_17:\n    /* \"#utility.yul\":926:927   */\n  0x00\n    /* \"#utility.yul\":923:924   */\n  0x00\n    /* \"#utility.yul\":916:928   */\n  revert\n    /* \"#utility.yul\":940:1042   */\ntag_18:\n    /* \"#utility.yul\":981:987   */\n  0x00\n    /* \"#utility.yul\":1032:1034   */\n  0x1f\n    /* \"#utility.yul\":1028:1035   */\n  not\n    /* \"#utility.yul\":1023:1025   */\n  0x1f\n    /* \"#utility.yul\":1016:1021   */\n  dup4\n    /* \"#utility.yul\":1012:1026   */\n  add\n    /* \"#utility.yul\":1008:1036   */\n  and\n    /* \"#utility.yul\":998:1036   */\n  swap1\n  pop\n    /* \"#utility.yul\":940:1042   */\n  swap2\n  swap1\n  pop\n  jump\t// out\n    /* \"#utility.yul\":1048:1228   */\ntag_19:\n    /* \"#utility.yul\":1096:1173   */\n  0x4e487b7100000000000000000000000000000000000000000000000000000000\n    /* \"#utility.yul\":1093:1094   */\n  0x00\n    /* \"#utility.yul\":1086:1174   */\n  mstore\n    /* \"#utility.yul\":1193:1197   */\n  0x41\n    /* \"#utility.yul\":1190:1191   */\n  0x04\n    /* \"#utility.yul\":1183:1198   */\n  mstore\n    /* \"#utility.yul\":1217:1221   */\n  0x24\n    /* \"#utility.yul\":1214:1215   */\n  0x00\n    /* \"#utility.yul\":1207:1222   */\n  revert\n    /* \"#utility.yul\":1234:1515   */\ntag_20:\n    /* \"#utility.yul\":1317:1344   */\n  tag_63\n    /* \"#utility.yul\":1339:1343   */\n  dup3\n    /* \"#utility.yul\":1317:1344   */\n  tag_18\n  jump\t// in\ntag_63:\n    /* \"#utility.yul\":1309:1315   */\n  dup2\n    /* \"#utility.yul\":1305:1345   */\n  add\n    /* \"#utility.yul\":1447:1453   */\n  dup2\n    /* \"#utility.yul\":1435:1445   */\n  dup2\n    /* \"#utility.yul\":1432:1454   */\n  lt\n    /* \"#utility.yul\":1411:1429   */\n  0xffffffffffffffff\n    /* \"#utility.yul\":1399:1409   */\n  dup3\n    /* \"#utility.yul\":1396:1430   */\n  gt\n    /* \"#utility.yul\":1393:1455   */\n  or\n    /* \"#utility.yul\":1390:1478   */\n  iszero\n  tag_64\n  jumpi\n    /* \"#utility.yul\":1458:1476   */\n  tag_65\n  tag_19\n  jump\t// in\ntag_65:\n    /* \"#utility.yul\":1390:1478   */\ntag_64:\n    /* \"#utility.yul\":1498:1508   */\n  dup1\n    /* \"#utility.yul\":1494:1496   */\n  0x40\n    /* \"#utility.yul\":1487:1509   */\n  mstore\n    /* \"#utility.yul\":1277:1515   */\n  pop\n    /* \"#utility.yul\":1234:1515   */\n  pop\n  pop\n  jump\t// out\n    /* \"#utility.yul\":1521:1650   */\ntag_21:\n    /* \"#utility.yul\":1555:1561   */\n  0x00\n    /* \"#utility.yul\":1582:1602   */\n  tag_67\n  tag_10\n  jump\t// in\ntag_67:\n    /* \"#utility.yul\":1572:1602   */\n  swap1\n  pop\n    /* \"#utility.yul\":1611:1644   */\n  tag_68\n    /* \"#utility.yul\":1639:1643   */\n  dup3\n    /* \"#utility.yul\":1631:1637   */\n  dup3\n    /* \"#utility.yul\":1611:1644   */\n  tag_20\n  jump\t// in\ntag_68:\n    /* \"#utility.yul\":1521:1650   */\n  swap2\n  swap1\n  pop\n  jump\t// out\n    /* \"#utility.yul\":1656:1964   */\ntag_22:\n    /* \"#utility.yul\":1718:1722   */\n  0x00\n    /* \"#utility.yul\":1808:1826   */\n  0xffffffffffffffff\n    /* \"#utility.yul\":1800:1806   */\n  dup3\n    /* \"#utility.yul\":1797:1827   */\n  gt\n    /* \"#utility.yul\":1794:1850   */\n  iszero\n  tag_70\n  jumpi\n    /* \"#utility.yul\":1830:1848   */\n  tag_71\n  tag_19\n  jump\t// in\ntag_71:\n    /* \"#utility.yul\":1794:1850   */\ntag_70:\n    /* \"#utility.yul\":1868:1897   */\n  tag_72\n    /* \"#utility.yul\":1890:1896   */\n  dup3\n    /* \"#utility.yul\":1868:1897   */\n  tag_18\n  jump\t// in\ntag_72:\n    /* \"#utility.yul\":1860:1897   */\n  swap1\n  pop\n    /* \"#utility.yul\":1952:1956   */\n  0x20\n    /* \"#utility.yul\":1946:1950   */\n  dup2\n    /* \"#utility.yul\":1942:1957   */\n  add\n    /* \"#utility.yul\":1934:1957   */\n  swap1\n  pop\n    /* \"#utility.yul\":1656:1964   */\n  swap2\n  swap1\n  pop\n  jump\t// out\n    /* \"#utility.yul\":1970:2109   */\ntag_23:\n    /* \"#utility.yul\":2059:2065   */\n  dup3\n    /* \"#utility.yul\":2054:2057   */\n  dup2\n    /* \"#utility.yul\":2049:2052   */\n  dup4\n    /* \"#utility.yul\":2043:2066   */\n  mcopy\n    /* \"#utility.yul\":2100:2101   */\n  0x00\n    /* \"#utility.yul\":2091:2097   */\n  dup4\n    /* \"#utility.yul\":2086:2089   */\n  dup4\n    /* \"#utility.yul\":2082:2098   */\n  add\n    /* \"#utility.yul\":2075:2102   */\n  mstore\n    /* \"#utility.yul\":1970:2109   */\n  pop\n  pop\n  pop\n  jump\t// out\n    /* \"#utility.yul\":2115:2549   */\ntag_24:\n    /* \"#utility.yul\":2204:2209   */\n  0x00\n    /* \"#utility.yul\":2229:2295   */\n  tag_75\n    /* \"#utility.yul\":2245:2294   */\n  tag_76\n    /* \"#utility.yul\":2287:2293   */\n  dup5\n    /* \"#utility.yul\":2245:2294   */\n  tag_22\n  jump\t// in\ntag_76:\n    /* \"#utility.yul\":2229:2295   */\n  tag_21\n  jump\t// in\ntag_75:\n    /* \"#utility.yul\":2220:2295   */\n  swap1\n  pop\n    /* \"#utility.yul\":2318:2324   */\n  dup3\n    /* \"#utility.yul\":2311:2316   */\n  dup2\n    /* \"#utility.yul\":2304:2325   */\n  mstore\n    /* \"#utility.yul\":2356:2360   */\n  0x20\n    /* \"#utility.yul\":2349:2354   */\n  dup2\n    /* \"#utility.yul\":2345:2361   */\n  add\n    /* \"#utility.yul\":2394:2397   */\n  dup5\n    /* \"#utility.yul\":2385:2391   */\n  dup5\n    /* \"#utility.yul\":2380:2383   */\n  dup5\n    /* \"#utility.yul\":2376:2392   */\n  add\n    /* \"#utility.yul\":2373:2398   */\n  gt\n    /* \"#utility.yul\":2370:2482   */\n  iszero\n  tag_77\n  jumpi\n    /* \"#utility.yul\":2401:2480   */\n  tag_78\n  tag_17\n  jump\t// in\ntag_78:\n    /* \"#utility.yul\":2370:2482   */\ntag_77:\n    /* \"#utility.yul\":2491:2543   */\n  tag_79\n    /* \"#utility.yul\":2536:2542   */\n  dup5\n    /* \"#utility.yul\":2531:2534   */\n  dup3\n    /* \"#utility.yul\":2526:2529   */\n  dup6\n    /* \"#utility.yul\":2491:2543   */\n  tag_23\n  jump\t// in\ntag_79:\n    /* \"#utility.yul\":2210:2549   */\n  pop\n    /* \"#utility.yul\":2115:2549   */\n  swap4\n  swap3\n  pop\n  pop\n  pop\n  jump\t// out\n    /* \"#utility.yul\":2569:2924   */\ntag_25:\n    /* \"#utility.yul\":2636:2641   */\n  0x00\n    /* \"#utility.yul\":2685:2688   */\n  dup3\n    /* \"#utility.yul\":2678:2682   */\n  0x1f\n    /* \"#utility.yul\":2670:2676   */\n  dup4\n    /* \"#utility.yul\":2666:2683   */\n  add\n    /* \"#utility.yul\":2662:2689   */\n  slt\n    /* \"#utility.yul\":2652:2774   */\n  tag_81\n  jumpi\n    /* \"#utility.yul\":2693:2772   */\n  tag_82\n  tag_16\n  jump\t// in\ntag_82:\n    /* \"#utility.yul\":2652:2774   */\ntag_81:\n    /* \"#utility.yul\":2803:2809   */\n  dup2\n    /* \"#utility.yul\":2797:2810   */\n  mload\n    /* \"#utility.yul\":2828:2918   */\n  tag_83\n    /* \"#utility.yul\":2914:2917   */\n  dup5\n    /* \"#utility.yul\":2906:2912   */\n  dup3\n    /* \"#utility.yul\":2899:2903   */\n  0x20\n    /* \"#utility.yul\":2891:2897   */\n  dup7\n    /* \"#utility.yul\":2887:2904   */\n  add\n    /* \"#utility.yul\":2828:2918   */\n  tag_24\n  jump\t// in\ntag_83:\n    /* \"#utility.yul\":2819:2918   */\n  swap2\n  pop\n    /* \"#utility.yul\":2642:2924   */\n  pop\n    /* \"#utility.yul\":2569:2924   */\n  swap3\n  swap2\n  pop\n  pop\n  jump\t// out\n    /* \"#utility.yul\":2930:3056   */\ntag_26:\n    /* \"#utility.yul\":2967:2974   */\n  0x00\n    /* \"#utility.yul\":3007:3049   */\n  0xffffffffffffffffffffffffffffffffffffffff\n    /* \"#utility.yul\":3000:3005   */\n  dup3\n    /* \"#utility.yul\":2996:3050   */\n  and\n    /* \"#utility.yul\":2985:3050   */\n  swap1\n  pop\n    /* \"#utility.yul\":2930:3056   */\n  swap2\n  swap1\n  pop\n  jump\t// out\n    /* \"#utility.yul\":3062:3158   */\ntag_27:\n    /* \"#utility.yul\":3099:3106   */\n  0x00\n    /* \"#utility.yul\":3128:3152   */\n  tag_86\n    /* \"#utility.yul\":3146:3151   */\n  dup3\n    /* \"#utility.yul\":3128:3152   */\n  tag_26\n  jump\t// in\ntag_86:\n    /* \"#utility.yul\":3117:3152   */\n  swap1\n  pop\n    /* \"#utility.yul\":3062:3158   */\n  swap2\n  swap1\n  pop\n  jump\t// out\n    /* \"#utility.yul\":3164:3286   */\ntag_28:\n    /* \"#utility.yul\":3237:3261   */\n  tag_88\n    /* \"#utility.yul\":3255:3260   */\n  dup2\n    /* \"#utility.yul\":3237:3261   */\n  tag_27\n  jump\t// in\ntag_88:\n    /* \"#utility.yul\":3230:3235   */\n  dup2\n    /* \"#utility.yul\":3227:3262   */\n  eq\n    /* \"#utility.yul\":3217:3280   */\n  tag_89\n  jumpi\n    /* \"#utility.yul\":3276:3277   */\n  0x00\n    /* \"#utility.yul\":3273:3274   */\n  0x00\n    /* \"#utility.yul\":3266:3278   */\n  revert\n    /* \"#utility.yul\":3217:3280   */\ntag_89:\n    /* \"#utility.yul\":3164:3286   */\n  pop\n  jump\t// out\n    /* \"#utility.yul\":3292:3435   */\ntag_29:\n    /* \"#utility.yul\":3349:3354   */\n  0x00\n    /* \"#utility.yul\":3380:3386   */\n  dup2\n    /* \"#utility.yul\":3374:3387   */\n  mload\n    /* \"#utility.yul\":3365:3387   */\n  swap1\n  pop\n    /* \"#utility.yul\":3396:3429   */\n  tag_91\n    /* \"#utility.yul\":3423:3428   */\n  dup2\n    /* \"#utility.yul\":3396:3429   */\n  tag_28\n  jump\t// in\ntag_91:\n    /* \"#utility.yul\":3292:3435   */\n  swap3\n  swap2\n  pop\n  pop\n  jump\t// out\n    /* \"#utility.yul\":3441:4921   */\ntag_3:\n    /* \"#utility.yul\":3576:3582   */\n  0x00\n    /* \"#utility.yul\":3584:3590   */\n  0x00\n    /* \"#utility.yul\":3592:3598   */\n  0x00\n    /* \"#utility.yul\":3600:3606   */\n  0x00\n    /* \"#utility.yul\":3608:3614   */\n  0x00\n    /* \"#utility.yul\":3616:3622   */\n  0x00\n    /* \"#utility.yul\":3665:3668   */\n  0xc0\n    /* \"#utility.yul\":3653:3662   */\n  dup8\n    /* \"#utility.yul\":3644:3651   */\n  dup10\n    /* \"#utility.yul\":3640:3663   */\n  sub\n    /* \"#utility.yul\":3636:3669   */\n  slt\n    /* \"#utility.yul\":3633:3753   */\n  iszero\n  tag_93\n  jumpi\n    /* \"#utility.yul\":3672:3751   */\n  tag_94\n  tag_11\n  jump\t// in\ntag_94:\n    /* \"#utility.yul\":3633:3753   */\ntag_93:\n    /* \"#utility.yul\":3792:3793   */\n  0x00\n    /* \"#utility.yul\":3817:3881   */\n  tag_95\n    /* \"#utility.yul\":3873:3880   */\n  dup10\n    /* \"#utility.yul\":3864:3870   */\n  dup3\n    /* \"#utility.yul\":3853:3862   */\n  dup11\n    /* \"#utility.yul\":3849:3871   */\n  add\n    /* \"#utility.yul\":3817:3881   */\n  tag_15\n  jump\t// in\ntag_95:\n    /* \"#utility.yul\":3807:3881   */\n  swap7\n  pop\n    /* \"#utility.yul\":3763:3891   */\n  pop\n    /* \"#utility.yul\":3951:3953   */\n  0x20\n    /* \"#utility.yul\":3940:3949   */\n  dup8\n    /* \"#utility.yul\":3936:3954   */\n  add\n    /* \"#utility.yul\":3930:3955   */\n  mload\n    /* \"#utility.yul\":3982:4000   */\n  0xffffffffffffffff\n    /* \"#utility.yul\":3974:3980   */\n  dup2\n    /* \"#utility.yul\":3971:4001   */\n  gt\n    /* \"#utility.yul\":3968:4085   */\n  iszero\n  tag_96\n  jumpi\n    /* \"#utility.yul\":4004:4083   */\n  tag_97\n  tag_12\n  jump\t// in\ntag_97:\n    /* \"#utility.yul\":3968:4085   */\ntag_96:\n    /* \"#utility.yul\":4109:4183   */\n  tag_98\n    /* \"#utility.yul\":4175:4182   */\n  dup10\n    /* \"#utility.yul\":4166:4172   */\n  dup3\n    /* \"#utility.yul\":4155:4164   */\n  dup11\n    /* \"#utility.yul\":4151:4173   */\n  add\n    /* \"#utility.yul\":4109:4183   */\n  tag_25\n  jump\t// in\ntag_98:\n    /* \"#utility.yul\":4099:4183   */\n  swap6\n  pop\n    /* \"#utility.yul\":3901:4193   */\n  pop\n    /* \"#utility.yul\":4253:4255   */\n  0x40\n    /* \"#utility.yul\":4242:4251   */\n  dup8\n    /* \"#utility.yul\":4238:4256   */\n  add\n    /* \"#utility.yul\":4232:4257   */\n  mload\n    /* \"#utility.yul\":4284:4302   */\n  0xffffffffffffffff\n    /* \"#utility.yul\":4276:4282   */\n  dup2\n    /* \"#utility.yul\":4273:4303   */\n  gt\n    /* \"#utility.yul\":4270:4387   */\n  iszero\n  tag_99\n  jumpi\n    /* \"#utility.yul\":4306:4385   */\n  tag_100\n  tag_12\n  jump\t// in\ntag_100:\n    /* \"#utility.yul\":4270:4387   */\ntag_99:\n    /* \"#utility.yul\":4411:4485   */\n  tag_101\n    /* \"#utility.yul\":4477:4484   */\n  dup10\n    /* \"#utility.yul\":4468:4474   */\n  dup3\n    /* \"#utility.yul\":4457:4466   */\n  dup11\n    /* \"#utility.yul\":4453:4475   */\n  add\n    /* \"#utility.yul\":4411:4485   */\n  tag_25\n  jump\t// in\ntag_101:\n    /* \"#utility.yul\":4401:4485   */\n  swap5\n  pop\n    /* \"#utility.yul\":4203:4495   */\n  pop\n    /* \"#utility.yul\":4534:4536   */\n  0x60\n    /* \"#utility.yul\":4560:4624   */\n  tag_102\n    /* \"#utility.yul\":4616:4623   */\n  dup10\n    /* \"#utility.yul\":4607:4613   */\n  dup3\n    /* \"#utility.yul\":4596:4605   */\n  dup11\n    /* \"#utility.yul\":4592:4614   */\n  add\n    /* \"#utility.yul\":4560:4624   */\n  tag_29\n  jump\t// in\ntag_102:\n    /* \"#utility.yul\":4550:4624   */\n  swap4\n  pop\n    /* \"#utility.yul\":4505:4634   */\n  pop\n    /* \"#utility.yul\":4673:4676   */\n  0x80\n    /* \"#utility.yul\":4700:4764   */\n  tag_103\n    /* \"#utility.yul\":4756:4763   */\n  dup10\n    /* \"#utility.yul\":4747:4753   */\n  dup3\n    /* \"#utility.yul\":4736:4745   */\n  dup11\n    /* \"#utility.yul\":4732:4754   */\n  add\n    /* \"#utility.yul\":4700:4764   */\n  tag_15\n  jump\t// in\ntag_103:\n    /* \"#utility.yul\":4690:4764   */\n  swap3\n  pop\n    /* \"#utility.yul\":4644:4774   */\n  pop\n    /* \"#utility.yul\":4813:4816   */\n  0xa0\n    /* \"#utility.yul\":4840:4904   */\n  tag_104\n    /* \"#utility.yul\":4896:4903   */\n  dup10\n    /* \"#utility.yul\":4887:4893   */\n  dup3\n    /* \"#utility.yul\":4876:4885   */\n  dup11\n    /* \"#utility.yul\":4872:4894   */\n  add\n    /* \"#utility.yul\":4840:4904   */\n  tag_29\n  jump\t// in\ntag_104:\n    /* \"#utility.yul\":4830:4904   */\n  swap2\n  pop\n    /* \"#utility.yul\":4784:4914   */\n  pop\n    /* \"#utility.yul\":3441:4921   */\n  swap3\n  swap6\n  pop\n  swap3\n  swap6\n  pop\n  swap3\n  swap6\n  jump\t// out\n    /* \"#utility.yul\":4927:5026   */\ntag_30:\n    /* \"#utility.yul\":4979:4985   */\n  0x00\n    /* \"#utility.yul\":5013:5018   */\n  dup2\n    /* \"#utility.yul\":5007:5019   */\n  mload\n    /* \"#utility.yul\":4997:5019   */\n  swap1\n  pop\n    /* \"#utility.yul\":4927:5026   */\n  swap2\n  swap1\n  pop\n  jump\t// out\n    /* \"#utility.yul\":5032:5212   */\ntag_31:\n    /* \"#utility.yul\":5080:5157   */\n  0x4e487b7100000000000000000000000000000000000000000000000000000000\n    /* \"#utility.yul\":5077:5078   */\n  0x00\n    /* \"#utility.yul\":5070:5158   */\n  mstore\n    /* \"#utility.yul\":5177:5181   */\n  0x22\n    /* \"#utility.yul\":5174:5175   */\n  0x04\n    /* \"#utility.yul\":5167:5182   */\n  mstore\n    /* \"#utility.yul\":5201:5205   */\n  0x24\n    /* \"#utility.yul\":5198:5199   */\n  0x00\n    /* \"#utility.yul\":5191:5206   */\n  revert\n    /* \"#utility.yul\":5218:5538   */\ntag_32:\n    /* \"#utility.yul\":5262:5268   */\n  0x00\n    /* \"#utility.yul\":5299:5300   */\n  0x02\n    /* \"#utility.yul\":5293:5297   */\n  dup3\n    /* \"#utility.yul\":5289:5301   */\n  div\n    /* \"#utility.yul\":5279:5301   */\n  swap1\n  pop\n    /* \"#utility.yul\":5346:5347   */\n  0x01\n    /* \"#utility.yul\":5340:5344   */\n  dup3\n    /* \"#utility.yul\":5336:5348   */\n  and\n    /* \"#utility.yul\":5367:5385   */\n  dup1\n    /* \"#utility.yul\":5357:5438   */\n  tag_108\n  jumpi\n    /* \"#utility.yul\":5423:5427   */\n  0x7f\n    /* \"#utility.yul\":5415:5421   */\n  dup3\n    /* \"#utility.yul\":5411:5428   */\n  and\n    /* \"#utility.yul\":5401:5428   */\n  swap2\n  pop\n    /* \"#utility.yul\":5357:5438   */\ntag_108:\n    /* \"#utility.yul\":5485:5487   */\n  0x20\n    /* \"#utility.yul\":5477:5483   */\n  dup3\n    /* \"#utility.yul\":5474:5488   */\n  lt\n    /* \"#utility.yul\":5454:5472   */\n  dup2\n    /* \"#utility.yul\":5451:5489   */\n  sub\n    /* \"#utility.yul\":5448:5532   */\n  tag_109\n  jumpi\n    /* \"#utility.yul\":5504:5522   */\n  tag_110\n  tag_31\n  jump\t// in\ntag_110:\n    /* \"#utility.yul\":5448:5532   */\ntag_109:\n    /* \"#utility.yul\":5269:5538   */\n  pop\n    /* \"#utility.yul\":5218:5538   */\n  swap2\n  swap1\n  pop\n  jump\t// out\n    /* \"#utility.yul\":5544:5685   */\ntag_33:\n    /* \"#utility.yul\":5593:5597   */\n  0x00\n    /* \"#utility.yul\":5616:5619   */\n  dup2\n    /* \"#utility.yul\":5608:5619   */\n  swap1\n  pop\n    /* \"#utility.yul\":5639:5642   */\n  dup2\n    /* \"#utility.yul\":5636:5637   */\n  0x00\n    /* \"#utility.yul\":5629:5643   */\n  mstore\n    /* \"#utility.yul\":5673:5677   */\n  0x20\n    /* \"#utility.yul\":5670:5671   */\n  0x00\n    /* \"#utility.yul\":5660:5678   */\n  keccak256\n    /* \"#utility.yul\":5652:5678   */\n  swap1\n  pop\n    /* \"#utility.yul\":5544:5685   */\n  swap2\n  swap1\n  pop\n  jump\t// out\n    /* \"#utility.yul\":5691:5784   */\ntag_34:\n    /* \"#utility.yul\":5728:5734   */\n  0x00\n    /* \"#utility.yul\":5775:5777   */\n  0x20\n    /* \"#utility.yul\":5770:5772   */\n  0x1f\n    /* \"#utility.yul\":5763:5768   */\n  dup4\n    /* \"#utility.yul\":5759:5773   */\n  add\n    /* \"#utility.yul\":5755:5778   */\n  div\n    /* \"#utility.yul\":5745:5778   */\n  swap1\n  pop\n    /* \"#utility.yul\":5691:5784   */\n  swap2\n  swap1\n  pop\n  jump\t// out\n    /* \"#utility.yul\":5790:5897   */\ntag_35:\n    /* \"#utility.yul\":5834:5842   */\n  0x00\n    /* \"#utility.yul\":5884:5889   */\n  dup3\n    /* \"#utility.yul\":5878:5882   */\n  dup3\n    /* \"#utility.yul\":5874:5890   */\n  shl\n    /* \"#utility.yul\":5853:5890   */\n  swap1\n  pop\n    /* \"#utility.yul\":5790:5897   */\n  swap3\n  swap2\n  pop\n  pop\n  jump\t// out\n    /* \"#utility.yul\":5903:6296   */\ntag_36:\n    /* \"#utility.yul\":5972:5978   */\n  0x00\n    /* \"#utility.yul\":6022:6023   */\n  0x08\n    /* \"#utility.yul\":6010:6020   */\n  dup4\n    /* \"#utility.yul\":6006:6024   */\n  mul\n    /* \"#utility.yul\":6045:6142   */\n  tag_115\n    /* \"#utility.yul\":6075:6141   */\n  0xffffffffffffffffffffffffffffffffffffffffffffffffffffffffffffffff\n    /* \"#utility.yul\":6064:6073   */\n  dup3\n    /* \"#utility.yul\":6045:6142   */\n  tag_35\n  jump\t// in\ntag_115:\n    /* \"#utility.yul\":6163:6202   */\n  tag_116\n    /* \"#utility.yul\":6193:6201   */\n  dup7\n    /* \"#utility.yul\":6182:6191   */\n  dup4\n    /* \"#utility.yul\":6163:6202   */\n  tag_35\n  jump\t// in\ntag_116:\n    /* \"#utility.yul\":6151:6202   */\n  swap6\n  pop\n    /* \"#utility.yul\":6235:6239   */\n  dup1\n    /* \"#utility.yul\":6231:6240   */\n  not\n    /* \"#utility.yul\":6224:6229   */\n  dup5\n    /* \"#utility.yul\":6220:6241   */\n  and\n    /* \"#utility.yul\":6211:6241   */\n  swap4\n  pop\n    /* \"#utility.yul\":6284:6288   */\n  dup1\n    /* \"#utility.yul\":6274:6282   */\n  dup7\n    /* \"#utility.yul\":6270:6289   */\n  and\n    /* \"#utility.yul\":6263:6268   */\n  dup5\n    /* \"#utility.yul\":6260:6290   */\n  or\n    /* \"#utility.yul\":6250:6290   */\n  swap3\n  pop\n    /* \"#utility.yul\":5979:6296   */\n  pop\n  pop\n    /* \"#utility.yul\":5903:6296   */\n  swap4\n  swap3\n  pop\n  pop\n  pop\n  jump\t// out\n    /* \"#utility.yul\":6302:6362   */\ntag_37:\n    /* \"#utility.yul\":6330:6333   */\n  0x00\n    /* \"#utility.yul\":6351:6356   */\n  dup2\n    /* \"#utility.yul\":6344:6356   */\n  swap1\n  pop\n    /* \"#utility.yul\":6302:6362   */\n  swap2\n  swap1\n  pop\n  jump\t// out\n    /* \"#utility.yul\":6368:6510   */\ntag_38:\n    /* \"#utility.yul\":6418:6427   */\n  0x00\n    /* \"#utility.yul\":6451:6504   */\n  tag_119\n    /* \"#utility.yul\":6469:6503   */\n  tag_120\n    /* \"#utility.yul\":6478:6502   */\n  tag_121\n    /* \"#utility.yul\":6496:6501   */\n  dup5\n    /* \"#utility.yul\":6478:6502   */\n  tag_13\n  jump\t// in\ntag_121:\n    /* \"#utility.yul\":6469:6503   */\n  tag_37\n  jump\t// in\ntag_120:\n    /* \"#utility.yul\":6451:6504   */\n  tag_13\n  jump\t// in\ntag_119:\n    /* \"#utility.yul\":6438:6504   */\n  swap1\n  pop\n    /* \"#utility.yul\":6368:6510   */\n  swap2\n  swap1\n  pop\n  jump\t// out\n    /* \"#utility.yul\":6516:6591   */\ntag_39:\n    /* \"#utility.yul\":6559:6562   */\n  0x00\n    /* \"#utility.yul\":6580:6585   */\n  dup2\n    /* \"#utility.yul\":6573:6585   */\n  swap1\n  pop\n    /* \"#utility.yul\":6516:6591   */\n  swap2\n  swap1\n  pop\n  jump\t// out\n    /* \"#utility.yul\":6597:6866   */\ntag_40:\n    /* \"#utility.yul\":6707:6746   */\n  tag_124\n    /* \"#utility.yul\":6738:6745   */\n  dup4\n    /* \"#utility.yul\":6707:6746   */\n  tag_38\n  jump\t// in\ntag_124:\n    /* \"#utility.yul\":6768:6859   */\n  tag_125\n    /* \"#utility.yul\":6817:6858   */\n  tag_126\n    /* \"#utility.yul\":6841:6857   */\n  dup3\n    /* \"#utility.yul\":6817:6858   */\n  tag_39\n  jump\t// in\ntag_126:\n    /* \"#utility.yul\":6809:6815   */\n  dup5\n    /* \"#utility.yul\":6802:6806   */\n  dup5\n    /* \"#utility.yul\":6796:6807   */\n  sload\n    /* \"#utility.yul\":6768:6859   */\n  tag_36\n  jump\t// in\ntag_125:\n    /* \"#utility.yul\":6762:6766   */\n  dup3\n    /* \"#utility.yul\":6755:6860   */\n  sstore\n    /* \"#utility.yul\":6673:6866   */\n  pop\n    /* \"#utility.yul\":6597:6866   */\n  pop\n  pop\n  pop\n  jump\t// out\n    /* \"#utility.yul\":6872:6945   */\ntag_41:\n    /* \"#utility.yul\":6917:6920   */\n  0x00\n    /* \"#utility.yul\":6938:6939   */\n  0x00\n    /* \"#utility.yul\":6931:6939   */\n  swap1\n  pop\n    /* \"#utility.yul\":6872:6945   */\n  swap1\n  jump\t// out\n    /* \"#utility.yul\":6951:7140   */\ntag_42:\n    /* \"#utility.yul\":7028:7060   */\n  tag_129\n  tag_41\n  jump\t// in\ntag_129:\n    /* \"#utility.yul\":7069:7134   */\n  tag_130\n    /* \"#utility.yul\":7127:7133   */\n  dup2\n    /* \"#utility.yul\":7119:7125   */\n  dup5\n    /* \"#utility.yul\":7113:7117   */\n  dup5\n    /* \"#utility.yul\":7069:7134   */\n  tag_40\n  jump\t// in\ntag_130:\n    /* \"#utility.yul\":7004:7140   */\n  pop\n    /* \"#utility.yul\":6951:7140   */\n  pop\n  pop\n  jump\t// out\n    /* \"#utility.yul\":7146:7332   */\ntag_43:\n    /* \"#utility.yul\":7206:7326   */\ntag_132:\n    /* \"#utility.yul\":7223:7226   */\n  dup2\n    /* \"#utility.yul\":7216:7221   */\n  dup2\n    /* \"#utility.yul\":7213:7227   */\n  lt\n    /* \"#utility.yul\":7206:7326   */\n  iszero\n  tag_134\n  jumpi\n    /* \"#utility.yul\":7277:7316   */\n  tag_135\n    /* \"#utility.yul\":7314:7315   */\n  0x00\n    /* \"#utility.yul\":7307:7312   */\n  dup3\n    /* \"#utility.yul\":7277:7316   */\n  tag_42\n  jump\t// in\ntag_135:\n    /* \"#utility.yul\":7250:7251   */\n  0x01\n    /* \"#utility.yul\":7243:7248   */\n  dup2\n    /* \"#utility.yul\":7239:7252   */\n  add\n    /* \"#utility.yul\":7230:7252   */\n  swap1\n  pop\n    /* \"#utility.yul\":7206:7326   */\n  jump(tag_132)\ntag_134:\n    /* \"#utility.yul\":7146:7332   */\n  pop\n  pop\n  jump\t// out\n    /* \"#utility.yul\":7338:7881   */\ntag_44:\n    /* \"#utility.yul\":7439:7441   */\n  0x1f\n    /* \"#utility.yul\":7434:7437   */\n  dup3\n    /* \"#utility.yul\":7431:7442   */\n  gt\n    /* \"#utility.yul\":7428:7874   */\n  iszero\n  tag_137\n  jumpi\n    /* \"#utility.yul\":7473:7511   */\n  tag_138\n    /* \"#utility.yul\":7505:7510   */\n  dup2\n    /* \"#utility.yul\":7473:7511   */\n  tag_33\n  jump\t// in\ntag_138:\n    /* \"#utility.yul\":7557:7586   */\n  tag_139\n    /* \"#utility.yul\":7575:7585   */\n  dup5\n    /* \"#utility.yul\":7557:7586   */\n  tag_34\n  jump\t// in\ntag_139:\n    /* \"#utility.yul\":7547:7555   */\n  dup2\n    /* \"#utility.yul\":7543:7587   */\n  add\n    /* \"#utility.yul\":7740:7742   */\n  0x20\n    /* \"#utility.yul\":7728:7738   */\n  dup6\n    /* \"#utility.yul\":7725:7743   */\n  lt\n    /* \"#utility.yul\":7722:7771   */\n  iszero\n  tag_140\n  jumpi\n    /* \"#utility.yul\":7761:7769   */\n  dup2\n    /* \"#utility.yul\":7746:7769   */\n  swap1\n  pop\n    /* \"#utility.yul\":7722:7771   */\ntag_140:\n    /* \"#utility.yul\":7784:7864   */\n  tag_141\n    /* \"#utility.yul\":7840:7862   */\n  tag_142\n    /* \"#utility.yul\":7858:7861   */\n  dup6\n    /* \"#utility.yul\":7840:7862   */\n  tag_34\n  jump\t// in\ntag_142:\n    /* \"#utility.yul\":7830:7838   */\n  dup4\n    /* \"#utility.yul\":7826:7863   */\n  add\n    /* \"#utility.yul\":7813:7824   */\n  dup3\n    /* \"#utility.yul\":7784:7864   */\n  tag_43\n  jump\t// in\ntag_141:\n    /* \"#utility.yul\":7443:7874   */\n  pop\n  pop\n    /* \"#utility.yul\":7428:7874   */\ntag_137:\n    /* \"#utility.yul\":7338:7881   */\n  pop\n  pop\n  pop\n  jump\t// out\n    /* \"#utility.yul\":7887:8004   */\ntag_45:\n    /* \"#utility.yul\":7941:7949   */\n  0x00\n    /* \"#utility.yul\":7991:7996   */\n  dup3\n    /* \"#utility.yul\":7985:7989   */\n  dup3\n    /* \"#utility.yul\":7981:7997   */\n  shr\n    /* \"#utility.yul\":7960:7997   */\n  swap1\n  pop\n    /* \"#utility.yul\":7887:8004   */\n  swap3\n  swap2\n  pop\n  pop\n  jump\t// out\n    /* \"#utility.yul\":8010:8179   */\ntag_46:\n    /* \"#utility.yul\":8054:8060   */\n  0x00\n    /* \"#utility.yul\":8087:8138   */\n  tag_145\n    /* \"#utility.yul\":8135:8136   */\n  0x00\n    /* \"#utility.yul\":8131:8137   */\n  not\n    /* \"#utility.yul\":8123:8128   */\n  dup5\n    /* \"#utility.yul\":8120:8121   */\n  0x08\n    /* \"#utility.yul\":8116:8129   */\n  mul\n    /* \"#utility.yul\":8087:8138   */\n  tag_45\n  jump\t// in\ntag_145:\n    /* \"#utility.yul\":8083:8139   */\n  not\n    /* \"#utility.yul\":8168:8172   */\n  dup1\n    /* \"#utility.yul\":8162:8166   */\n  dup4\n    /* \"#utility.yul\":8158:8173   */\n  and\n    /* \"#utility.yul\":8148:8173   */\n  swap2\n  pop\n    /* \"#utility.yul\":8061:8179   */\n  pop\n    /* \"#utility.yul\":8010:8179   */\n  swap3\n  swap2\n  pop\n  pop\n  jump\t// out\n    /* \"#utility.yul\":8184:8479   */\ntag_47:\n    /* \"#utility.yul\":8260:8264   */\n  0x00\n    /* \"#utility.yul\":8406:8435   */\n  tag_147\n    /* \"#utility.yul\":8431:8434   */\n  dup4\n    /* \"#utility.yul\":8425:8429   */\n  dup4\n    /* \"#utility.yul\":8406:8435   */\n  tag_46\n  jump\t// in\ntag_147:\n    /* \"#utility.yul\":8398:8435   */\n  swap2\n  pop\n    /* \"#utility.yul\":8468:8471   */\n  dup3\n    /* \"#utility.yul\":8465:8466   */\n  0x02\n    /* \"#utility.yul\":8461:8472   */\n  mul\n    /* \"#utility.yul\":8455:8459   */\n  dup3\n    /* \"#utility.yul\":8452:8473   */\n  or\n    /* \"#utility.yul\":8444:8473   */\n  swap1\n  pop\n    /* \"#utility.yul\":8184:8479   */\n  swap3\n  swap2\n  pop\n  pop\n  jump\t// out\n    /* \"#utility.yul\":8484:9879   */\ntag_7:\n    /* \"#utility.yul\":8601:8638   */\n  tag_149\n    /* \"#utility.yul\":8634:8637   */\n  dup3\n    /* \"#utility.yul\":8601:8638   */\n  tag_30\n  jump\t// in\ntag_149:\n    /* \"#utility.yul\":8703:8721   */\n  0xffffffffffffffff\n    /* \"#utility.yul\":8695:8701   */\n  dup2\n    /* \"#utility.yul\":8692:8722   */\n  gt\n    /* \"#utility.yul\":8689:8745   */\n  iszero\n  tag_150\n  jumpi\n    /* \"#utility.yul\":8725:8743   */\n  tag_151\n  tag_19\n  jump\t// in\ntag_151:\n    /* \"#utility.yul\":8689:8745   */\ntag_150:\n    /* \"#utility.yul\":8769:8807   */\n  tag_152\n    /* \"#utility.yul\":8801:8805   */\n  dup3\n    /* \"#utility.yul\":8795:8806   */\n  sload\n    /* \"#utility.yul\":8769:8807   */\n  tag_32\n  jump\t// in\ntag_152:\n    /* \"#utility.yul\":8854:8921   */\n  tag_153\n    /* \"#utility.yul\":8914:8920   */\n  dup3\n    /* \"#utility.yul\":8906:8912   */\n  dup3\n    /* \"#utility.yul\":8900:8904   */\n  dup6\n    /* \"#utility.yul\":8854:8921   */\n  tag_44\n  jump\t// in\ntag_153:\n    /* \"#utility.yul\":8948:8949   */\n  0x00\n    /* \"#utility.yul\":8972:8976   */\n  0x20\n    /* \"#utility.yul\":8959:8976   */\n  swap1\n  pop\n    /* \"#utility.yul\":9004:9006   */\n  0x1f\n    /* \"#utility.yul\":8996:9002   */\n  dup4\n    /* \"#utility.yul\":8993:9007   */\n  gt\n    /* \"#utility.yul\":9021:9022   */\n  0x01\n    /* \"#utility.yul\":9016:9634   */\n  dup2\n  eq\n  tag_155\n  jumpi\n    /* \"#utility.yul\":9678:9679   */\n  0x00\n    /* \"#utility.yul\":9695:9701   */\n  dup5\n    /* \"#utility.yul\":9692:9769   */\n  iszero\n  tag_156\n  jumpi\n    /* \"#utility.yul\":9744:9753   */\n  dup3\n    /* \"#utility.yul\":9739:9742   */\n  dup8\n    /* \"#utility.yul\":9735:9754   */\n  add\n    /* \"#utility.yul\":9729:9755   */\n  mload\n    /* \"#utility.yul\":9720:9755   */\n  swap1\n  pop\n    /* \"#utility.yul\":9692:9769   */\ntag_156:\n    /* \"#utility.yul\":9795:9862   */\n  tag_157\n    /* \"#utility.yul\":9855:9861   */\n  dup6\n    /* \"#utility.yul\":9848:9853   */\n  dup3\n    /* \"#utility.yul\":9795:9862   */\n  tag_47\n  jump\t// in\ntag_157:\n    /* \"#utility.yul\":9789:9793   */\n  dup7\n    /* \"#utility.yul\":9782:9863   */\n  sstore\n    /* \"#utility.yul\":9651:9873   */\n  pop\n    /* \"#utility.yul\":8986:9873   */\n  jump(tag_154)\n    /* \"#utility.yul\":9016:9634   */\ntag_155:\n    /* \"#utility.yul\":9068:9072   */\n  0x1f\n    /* \"#utility.yul\":9064:9073   */\n  not\n    /* \"#utility.yul\":9056:9062   */\n  dup5\n    /* \"#utility.yul\":9052:9074   */\n  and\n    /* \"#utility.yul\":9102:9139   */\n  tag_158\n    /* \"#utility.yul\":9134:9138   */\n  dup7\n    /* \"#utility.yul\":9102:9139   */\n  tag_33\n  jump\t// in\ntag_158:\n    /* \"#utility.yul\":9161:9162   */\n  0x00\n    /* \"#utility.yul\":9175:9383   */\ntag_159:\n    /* \"#utility.yul\":9189:9196   */\n  dup3\n    /* \"#utility.yul\":9186:9187   */\n  dup2\n    /* \"#utility.yul\":9183:9197   */\n  lt\n    /* \"#utility.yul\":9175:9383   */\n  iszero\n  tag_161\n  jumpi\n    /* \"#utility.yul\":9268:9277   */\n  dup5\n    /* \"#utility.yul\":9263:9266   */\n  dup10\n    /* \"#utility.yul\":9259:9278   */\n  add\n    /* \"#utility.yul\":9253:9279   */\n  mload\n    /* \"#utility.yul\":9245:9251   */\n  dup3\n    /* \"#utility.yul\":9238:9280   */\n  sstore\n    /* \"#utility.yul\":9319:9320   */\n  0x01\n    /* \"#utility.yul\":9311:9317   */\n  dup3\n    /* \"#utility.yul\":9307:9321   */\n  add\n    /* \"#utility.yul\":9297:9321   */\n  swap2\n  pop\n    /* \"#utility.yul\":9366:9368   */\n  0x20\n    /* \"#utility.yul\":9355:9364   */\n  dup6\n    /* \"#utility.yul\":9351:9369   */\n  add\n    /* \"#utility.yul\":9338:9369   */\n  swap5\n  pop\n    /* \"#utility.yul\":9212:9216   */\n  0x20\n    /* \"#utility.yul\":9209:9210   */\n  dup2\n    /* \"#utility.yul\":9205:9217   */\n  add\n    /* \"#utility.yul\":9200:9217   */\n  swap1\n  pop\n    /* \"#utility.yul\":9175:9383   */\n  jump(tag_159)\ntag_161:\n    /* \"#utility.yul\":9411:9417   */\n  dup7\n    /* \"#utility.yul\":9402:9409   */\n  dup4\n    /* \"#utility.yul\":9399:9418   */\n  lt\n    /* \"#utility.yul\":9396:9575   */\n  iszero\n  tag_162\n  jumpi\n    /* \"#utility.yul\":9469:9478   */\n  dup5\n    /* \"#utility.yul\":9464:9467   */\n  dup10\n    /* \"#utility.yul\":9460:9479   */\n  add\n    /* \"#utility.yul\":9454:9480   */\n  mload\n    /* \"#utility.yul\":9512:9560   */\n  tag_163\n    /* \"#utility.yul\":9554:9558   */\n  0x1f\n    /* \"#utility.yul\":9546:9552   */\n  dup10\n    /* \"#utility.yul\":9542:9559   */\n  and\n    /* \"#utility.yul\":9531:9540   */\n  dup3\n    /* \"#utility.yul\":9512:9560   */\n  tag_46\n  jump\t// in\ntag_163:\n    /* \"#utility.yul\":9504:9510   */\n  dup4\n    /* \"#utility.yul\":9497:9561   */\n  sstore\n    /* \"#utility.yul\":9419:9575   */\n  pop\n    /* \"#utility.yul\":9396:9575   */\ntag_162:\n    /* \"#utility.yul\":9621:9622   */\n  0x01\n    /* \"#utility.yul\":9617:9618   */\n  0x02\n    /* \"#utility.yul\":9609:9615   */\n  dup9\n    /* \"#utility.yul\":9605:9619   */\n  mul\n    /* \"#utility.yul\":9601:9623   */\n  add\n    /* \"#utility.yul\":9595:9599   */\n  dup9\n    /* \"#utility.yul\":9588:9624   */\n  sstore\n    /* \"#utility.yul\":9023:9634   */\n  pop\n  pop\n  pop\n    /* \"#utility.yul\":8986:9873   */\ntag_154:\n  pop\n    /* \"#utility.yul\":8576:9879   */\n  pop\n  pop\n  pop\n    /* \"#utility.yul\":8484:9879   */\n  pop\n  pop\n  jump\t// out\n    /* \"Campaign.sol\":698:8397  contract Campaign {... */\ntag_9:\n  dataSize(sub_0)\n  dup1\n  dataOffset(sub_0)\n  0x00\n  codecopy\n  0x00\n  return\nstop\n\nsub_0: assembly {\n        /* \"Campaign.sol\":698:8397  contract Campaign {... */\n      mstore(0x40, 0x80)\n      callvalue\n      dup1\n      iszero\n      tag_1\n      jumpi\n      revert(0x00, 0x00)\n    tag_1:\n      pop\n      jumpi(tag_2, lt(calldatasize, 0x04))\n      shr(0xe0, calldataload(0x00))\n      dup1\n      0x82fde093\n      gt\n      tag_26\n      jumpi\n      dup1\n      0xa39fac12\n      gt\n      tag_27\n      jumpi\n      dup1\n      0xa39fac12\n      eq\n      tag_20\n      jumpi\n      dup1\n      0xc1cbbca7\n      eq\n      tag_21\n      jumpi\n      dup1\n      0xc8b342ab\n      eq\n      tag_22\n      jumpi\n      dup1\n      0xd57bde79\n      eq\n      tag_23\n      jumpi\n      dup1\n      0xedf26d9b\n      eq\n      tag_24\n      jumpi\n      dup1\n      0xfc0c546a\n      eq\n      tag_25\n      jumpi\n      jump(tag_2)\n    tag_27:\n      dup1\n      0x82fde093\n      eq\n      tag_14\n      jumpi\n      dup1\n      0x83920e90\n      eq\n      tag_15\n      jumpi\n      dup1\n      0x91f90157\n      eq\n      tag_16\n      jumpi\n      dup1\n      0x937e09b1\n      eq\n      tag_17\n      jumpi\n      dup1\n      0x976af615\n      eq\n      tag_18\n      jumpi\n      dup1\n      0x9ace38c2\n      eq\n      tag_19\n      jumpi\n      jump(tag_2)\n    tag_26:\n      dup1\n      0x4e69d560\n      gt\n      tag_28\n      jumpi\n      dup1\n      0x4e69d560\n      eq\n      tag_8\n      jumpi\n      dup1\n      0x58d65629\n      eq\n      tag_9\n      jumpi\n      dup1\n      0x597e1fb5\n      eq\n      tag_10\n      jumpi\n      dup1\n      0x5dc1d641\n      eq\n      tag_11\n      jumpi\n      dup1\n      0x7aed167c\n      eq\n      tag_12\n      jumpi\n      dup1\n      0x7b87d856\n      eq\n      tag_13\n      jumpi\n      jump(tag_2)\n    tag_28:\n      dup1\n      0x0a144391\n      eq\n      tag_3\n      jumpi\n      dup1\n      0x3197cbb6\n      eq\n      tag_4\n      jumpi\n      dup1\n      0x3bc5de30\n      eq\n      tag_5\n      jumpi\n      dup1\n      0x4051ddac\n      eq\n      tag_6\n      jumpi\n      dup1\n      0x481c6a75\n      eq\n      tag_7\n      jumpi\n    tag_2:\n      revert(0x00, 0x00)\n        /* \"Campaign.sol\":1107:1148  mapping(address => bool) public approvers */\n    tag_3:\n      tag_29\n      0x04\n      dup1\n      calldatasize\n      sub\n      dup2\n      add\n      swap1\n      tag_30\n      swap2\n      swap1\n      tag_31\n      jump\t// in\n    tag_30:\n      tag_32\n      jump\t// in\n    tag_29:\n      mload(0x40)\n      tag_33\n      swap2\n      swap1\n      tag_34\n      jump\t// in\n    tag_33:\n      mload(0x40)\n      dup1\n      swap2\n      sub\n      swap1\n      return\n        /* \"Campaign.sol\":1383:1405  uint256 public endTime */\n    tag_4:\n      tag_35\n      tag_36\n      jump\t// in\n    tag_35:\n      mload(0x40)\n      tag_37\n      swap2\n      swap1\n      tag_38\n      jump\t// in\n    tag_37:\n      mload(0x40)\n      dup1\n      swap2\n      sub\n      swap1\n      return\n        /* \"Campaign.sol\":7480:7705  function getData() public view returns (string memory) {... */\n    tag_5:\n      tag_39\n      tag_40\n      jump\t// in\n    tag_39:\n      mload(0x40)\n      tag_41\n      swap2\n      swap1\n      tag_42\n      jump\t// in\n    tag_41:\n      mload(0x40)\n      dup1\n      swap2\n      sub\n      swap1\n      return\n        /* \"Campaign.sol\":7819:8394  function getSummary()... */\n    tag_6:\n      tag_43\n      tag_44\n      jump\t// in\n    tag_43:\n      mload(0x40)\n      tag_45\n      swap11\n      swap10\n      swap9\n      swap8\n      swap7\n      swap6\n      swap5\n      swap4\n      swap3\n      swap2\n      swap1\n      tag_46\n      jump\t// in\n    tag_45:\n      mload(0x40)\n      dup1\n      swap2\n      sub\n      swap1\n      return\n        /* \"Campaign.sol\":967:989  address public manager */\n    tag_7:\n      tag_47\n      tag_48\n      jump\t// in\n    tag_47:\n      mload(0x40)\n      tag_49\n      swap2\n      swap1\n      tag_50\n      jump\t// in\n    tag_49:\n      mload(0x40)\n      dup1\n      swap2\n      sub\n      swap1\n      return\n        /* \"Campaign.sol\":7166:7246  function getStatus() public view returns (bool) {... */\n    tag_8:\n      tag_51\n      tag_52\n      jump\t// in\n    tag_51:\n      mload(0x40)\n      tag_53\n      swap2\n      swap1\n      tag_34\n      jump\t// in\n    tag_53:\n      mload(0x40)\n      dup1\n      swap2\n      sub\n      swap1\n      return\n        /* \"Campaign.sol\":1069:1098  string public dataDescription */\n    tag_9:\n      tag_54\n      tag_55\n      jump\t// in\n    tag_54:\n      mload(0x40)\n      tag_56\n      swap2\n      swap1\n      tag_42\n      jump\t// in\n    tag_56:\n      mload(0x40)\n      dup1\n      swap2\n      sub\n      swap1\n      return\n        /* \"Campaign.sol\":1412:1430  bool public closed */\n    tag_10:\n      tag_57\n      tag_58\n      jump\t// in\n    tag_57:\n      mload(0x40)\n      tag_59\n      swap2\n      swap1\n      tag_34\n      jump\t// in\n    tag_59:\n      mload(0x40)\n      dup1\n      swap2\n      sub\n      swap1\n      return\n        /* \"Campaign.sol\":1155:1204  mapping(address => uint256) public approversMoney */\n    tag_11:\n      tag_60\n      0x04\n      dup1\n      calldatasize\n      sub\n      dup2\n      add\n      swap1\n      tag_61\n      swap2\n      swap1\n      tag_31\n      jump\t// in\n    tag_61:\n      tag_62\n      jump\t// in\n    tag_60:\n      mload(0x40)\n      tag_63\n      swap2\n      swap1\n      tag_38\n      jump\t// in\n    tag_63:\n      mload(0x40)\n      dup1\n      swap2\n      sub\n      swap1\n      return\n        /* \"Campaign.sol\":3860:6258  function permitAndContribute(... */\n    tag_12:\n      tag_64\n      0x04\n      dup1\n      calldatasize\n      sub\n      dup2\n      add\n      swap1\n      tag_65\n      swap2\n      swap1\n      tag_66\n      jump\t// in\n    tag_65:\n      tag_67\n      jump\t// in\n    tag_64:\n      stop\n        /* \"Campaign.sol\":1037:1062  string public dataForSell */\n    tag_13:\n      tag_68\n      tag_69\n      jump\t// in\n    tag_68:\n      mload(0x40)\n      tag_70\n      swap2\n      swap1\n      tag_42\n      jump\t// in\n    tag_70:\n      mload(0x40)\n      dup1\n      swap2\n      sub\n      swap1\n      return\n        /* \"Campaign.sol\":1211:1240  uint256 public approversCount */\n    tag_14:\n      tag_71\n      tag_72\n      jump\t// in\n    tag_71:\n      mload(0x40)\n      tag_73\n      swap2\n      swap1\n      tag_38\n      jump\t// in\n    tag_73:\n      mload(0x40)\n      dup1\n      swap2\n      sub\n      swap1\n      return\n        /* \"Campaign.sol\":7372:7472  function getTransactions() public view returns (Bid[] memory) {... */\n    tag_15:\n      tag_74\n      tag_75\n      jump\t// in\n    tag_74:\n      mload(0x40)\n      tag_76\n      swap2\n      swap1\n      tag_77\n      jump\t// in\n    tag_76:\n      mload(0x40)\n      dup1\n      swap2\n      sub\n      swap1\n      return\n        /* \"Campaign.sol\":1316:1344  address public highestBidder */\n    tag_16:\n      tag_78\n      tag_79\n      jump\t// in\n    tag_78:\n      mload(0x40)\n      tag_80\n      swap2\n      swap1\n      tag_50\n      jump\t// in\n    tag_80:\n      mload(0x40)\n      dup1\n      swap2\n      sub\n      swap1\n      return\n        /* \"Campaign.sol\":996:1030  uint256 public minimumContribution */\n    tag_17:\n      tag_81\n      tag_82\n      jump\t// in\n    tag_81:\n      mload(0x40)\n      tag_83\n      swap2\n      swap1\n      tag_38\n      jump\t// in\n    tag_83:\n      mload(0x40)\n      dup1\n      swap2\n      sub\n      swap1\n      return\n        /* \"Campaign.sol\":6270:7158  function finalizeAuctionIfNeeded() public onlyAfterEnd {... */\n    tag_18:\n      tag_84\n      tag_85\n      jump\t// in\n    tag_84:\n      stop\n        /* \"Campaign.sol\":1282:1307  Bid[] public transactions */\n    tag_19:\n      tag_86\n      0x04\n      dup1\n      calldatasize\n      sub\n      dup2\n      add\n      swap1\n      tag_87\n      swap2\n      swap1\n      tag_88\n      jump\t// in\n    tag_87:\n      tag_89\n      jump\t// in\n    tag_86:\n      mload(0x40)\n      tag_90\n      swap4\n      swap3\n      swap2\n      swap1\n      tag_91\n      jump\t// in\n    tag_90:\n      mload(0x40)\n      dup1\n      swap2\n      sub\n      swap1\n      return\n        /* \"Campaign.sol\":7713:7811  function getAddresses() public view returns (address[] memory) {... */\n    tag_20:\n      tag_92\n      tag_93\n      jump\t// in\n    tag_92:\n      mload(0x40)\n      tag_94\n      swap2\n      swap1\n      tag_95\n      jump\t// in\n    tag_94:\n      mload(0x40)\n      dup1\n      swap2\n      sub\n      swap1\n      return\n        /* \"Campaign.sol\":2165:3386  function contribute(uint256 amount) public onlyBeforeEnd {... */\n    tag_21:\n      tag_96\n      0x04\n      dup1\n      calldatasize\n      sub\n      dup2\n      add\n      swap1\n      tag_97\n      swap2\n      swap1\n      tag_88\n      jump\t// in\n    tag_97:\n      tag_98\n      jump\t// in\n    tag_96:\n      stop\n        /* \"Campaign.sol\":7254:7364  function getBid(address bidder) public view returns (uint256) {... */\n    tag_22:\n      tag_99\n      0x04\n      dup1\n      calldatasize\n      sub\n      dup2\n      add\n      swap1\n      tag_100\n      swap2\n      swap1\n      tag_31\n      jump\t// in\n    tag_100:\n      tag_101\n      jump\t// in\n    tag_99:\n      mload(0x40)\n      tag_102\n      swap2\n      swap1\n      tag_38\n      jump\t// in\n    tag_102:\n      mload(0x40)\n      dup1\n      swap2\n      sub\n      swap1\n      return\n        /* \"Campaign.sol\":1351:1376  uint256 public highestBid */\n    tag_23:\n      tag_103\n      tag_104\n      jump\t// in\n    tag_103:\n      mload(0x40)\n      tag_105\n      swap2\n      swap1\n      tag_38\n      jump\t// in\n    tag_105:\n      mload(0x40)\n      dup1\n      swap2\n      sub\n      swap1\n      return\n        /* \"Campaign.sol\":1249:1275  address[] public addresses */\n    tag_24:\n      tag_106\n      0x04\n      dup1\n      calldatasize\n      sub\n      dup2\n      add\n      swap1\n      tag_107\n      swap2\n      swap1\n      tag_88\n      jump\t// in\n    tag_107:\n      tag_108\n      jump\t// in\n    tag_106:\n      mload(0x40)\n      tag_109\n      swap2\n      swap1\n      tag_50\n      jump\t// in\n    tag_109:\n      mload(0x40)\n      dup1\n      swap2\n      sub\n      swap1\n      return\n        /* \"Campaign.sol\":1441:1466  IERC20Permit public token */\n    tag_25:\n      tag_110\n      tag_111\n      jump\t// in\n    tag_110:\n      mload(0x40)\n      tag_112\n      swap2\n      swap1\n      tag_113\n      jump\t// in\n    tag_112:\n      mload(0x40)\n      dup1\n      swap2\n      sub\n      swap1\n      return\n        /* \"Campaign.sol\":1107:1148  mapping(address => bool) public approvers */\n    tag_32:\n      mstore(0x20, 0x04)\n      dup1\n      0x00\n      mstore\n      keccak256(0x00, 0x40)\n      0x00\n      swap2\n      pop\n      sload\n      swap1\n      0x0100\n      exp\n      swap1\n      div\n      0xff\n      and\n      dup2\n      jump\t// out\n        /* \"Campaign.sol\":1383:1405  uint256 public endTime */\n    tag_36:\n      sload(0x0b)\n      dup2\n      jump\t// out\n        /* \"Campaign.sol\":7480:7705  function getData() public view returns (string memory) {... */\n    tag_40:\n        /* \"Campaign.sol\":7520:7533  string memory */\n      0x60\n        /* \"Campaign.sol\":7554:7560  closed */\n      0x0c\n      0x00\n      swap1\n      sload\n      swap1\n      0x0100\n      exp\n      swap1\n      div\n      0xff\n      and\n        /* \"Campaign.sol\":7546:7586  require(closed, \"Auction not finalized\") */\n      tag_115\n      jumpi\n      mload(0x40)\n      0x08c379a000000000000000000000000000000000000000000000000000000000\n      dup2\n      mstore\n      0x04\n      add\n      tag_116\n      swap1\n      tag_117\n      jump\t// in\n    tag_116:\n      mload(0x40)\n      dup1\n      swap2\n      sub\n      swap1\n      revert\n    tag_115:\n        /* \"Campaign.sol\":7619:7632  highestBidder */\n      0x09\n      0x00\n      swap1\n      sload\n      swap1\n      0x0100\n      exp\n      swap1\n      div\n      0xffffffffffffffffffffffffffffffffffffffff\n      and\n        /* \"Campaign.sol\":7605:7632  msg.sender == highestBidder */\n      0xffffffffffffffffffffffffffffffffffffffff\n      and\n        /* \"Campaign.sol\":7605:7615  msg.sender */\n      caller\n        /* \"Campaign.sol\":7605:7632  msg.sender == highestBidder */\n      0xffffffffffffffffffffffffffffffffffffffff\n      and\n      eq\n        /* \"Campaign.sol\":7597:7668  require(msg.sender == highestBidder, \"Only winner can access the data\") */\n      tag_118\n      jumpi\n      mload(0x40)\n      0x08c379a000000000000000000000000000000000000000000000000000000000\n      dup2\n      mstore\n      0x04\n      add\n      tag_119\n      swap1\n      tag_120\n      jump\t// in\n    tag_119:\n      mload(0x40)\n      dup1\n      swap2\n      sub\n      swap1\n      revert\n    tag_118:\n        /* \"Campaign.sol\":7686:7697  dataForSell */\n      0x02\n        /* \"Campaign.sol\":7679:7697  return dataForSell */\n      dup1\n      sload\n      tag_121\n      swap1\n      tag_122\n      jump\t// in\n    tag_121:\n      dup1\n      0x1f\n      add\n      0x20\n      dup1\n      swap2\n      div\n      mul\n      0x20\n      add\n      mload(0x40)\n      swap1\n      dup2\n      add\n      0x40\n      mstore\n      dup1\n      swap3\n      swap2\n      swap1\n      dup2\n      dup2\n      mstore\n      0x20\n      add\n      dup3\n      dup1\n      sload\n      tag_123\n      swap1\n      tag_122\n      jump\t// in\n    tag_123:\n      dup1\n      iszero\n      tag_124\n      jumpi\n      dup1\n      0x1f\n      lt\n      tag_125\n      jumpi\n      0x0100\n      dup1\n      dup4\n      sload\n      div\n      mul\n      dup4\n      mstore\n      swap2\n      0x20\n      add\n      swap2\n      jump(tag_124)\n    tag_125:\n      dup3\n      add\n      swap2\n      swap1\n      0x00\n      mstore\n      keccak256(0x00, 0x20)\n      swap1\n    tag_126:\n      dup2\n      sload\n      dup2\n      mstore\n      swap1\n      0x01\n      add\n      swap1\n      0x20\n      add\n      dup1\n      dup4\n      gt\n      tag_126\n      jumpi\n      dup3\n      swap1\n      sub\n      0x1f\n      and\n      dup3\n      add\n      swap2\n    tag_124:\n      pop\n      pop\n      pop\n      pop\n      pop\n      swap1\n      pop\n        /* \"Campaign.sol\":7480:7705  function getData() public view returns (string memory) {... */\n      swap1\n      jump\t// out\n        /* \"Campaign.sol\":7819:8394  function getSummary()... */\n    tag_44:\n        /* \"Campaign.sol\":7903:7910  uint256 */\n      0x00\n        /* \"Campaign.sol\":7912:7919  uint256 */\n      0x00\n        /* \"Campaign.sol\":7921:7928  uint256 */\n      0x00\n        /* \"Campaign.sol\":7930:7937  address */\n      0x00\n        /* \"Campaign.sol\":7952:7959  uint256 */\n      0x00\n        /* \"Campaign.sol\":7961:7974  string memory */\n      0x60\n        /* \"Campaign.sol\":7976:7989  string memory */\n      dup1\n        /* \"Campaign.sol\":8004:8011  address */\n      0x00\n        /* \"Campaign.sol\":8013:8029  address[] memory */\n      0x60\n        /* \"Campaign.sol\":8031:8038  uint256 */\n      0x00\n        /* \"Campaign.sol\":8088:8107  minimumContribution */\n      sload(0x01)\n        /* \"Campaign.sol\":8137:8142  token */\n      0x0c\n      0x01\n      swap1\n      sload\n      swap1\n      0x0100\n      exp\n      swap1\n      div\n      0xffffffffffffffffffffffffffffffffffffffff\n      and\n        /* \"Campaign.sol\":8122:8154  IERC20(address(token)).balanceOf */\n      0xffffffffffffffffffffffffffffffffffffffff\n      and\n      0x70a08231\n        /* \"Campaign.sol\":8163:8167  this */\n      address\n        /* \"Campaign.sol\":8122:8169  IERC20(address(token)).balanceOf(address(this)) */\n      mload(0x40)\n      dup3\n      0xffffffff\n      and\n      0xe0\n      shl\n      dup2\n      mstore\n      0x04\n      add\n      tag_128\n      swap2\n      swap1\n      tag_50\n      jump\t// in\n    tag_128:\n      0x20\n      mload(0x40)\n      dup1\n      dup4\n      sub\n      dup2\n      dup7\n      gas\n      staticcall\n      iszero\n      dup1\n      iszero\n      tag_130\n      jumpi\n      returndatacopy(0x00, 0x00, returndatasize)\n      revert(0x00, returndatasize)\n    tag_130:\n      pop\n      pop\n      pop\n      pop\n      mload(0x40)\n      returndatasize\n      not(0x1f)\n      0x1f\n      dup3\n      add\n      and\n      dup3\n      add\n      dup1\n      0x40\n      mstore\n      pop\n      dup2\n      add\n      swap1\n      tag_131\n      swap2\n      swap1\n      tag_132\n      jump\t// in\n    tag_131:\n        /* \"Campaign.sol\":8184:8198  approversCount */\n      sload(0x06)\n        /* \"Campaign.sol\":8213:8220  manager */\n      0x00\n      0x00\n      swap1\n      sload\n      swap1\n      0x0100\n      exp\n      swap1\n      div\n      0xffffffffffffffffffffffffffffffffffffffff\n      and\n        /* \"Campaign.sol\":8235:8245  highestBid */\n      sload(0x0a)\n        /* \"Campaign.sol\":8260:8271  dataForSell */\n      0x02\n        /* \"Campaign.sol\":8286:8301  dataDescription */\n      0x03\n        /* \"Campaign.sol\":8316:8329  highestBidder */\n      0x09\n      0x00\n      swap1\n      sload\n      swap1\n      0x0100\n      exp\n      swap1\n      div\n      0xffffffffffffffffffffffffffffffffffffffff\n      and\n        /* \"Campaign.sol\":8344:8353  addresses */\n      0x07\n        /* \"Campaign.sol\":8368:8375  endTime */\n      sload(0x0b)\n        /* \"Campaign.sol\":8066:8386  return (... */\n      dup5\n      dup1\n      sload\n      tag_133\n      swap1\n      tag_122\n      jump\t// in\n    tag_133:\n      dup1\n      0x1f\n      add\n      0x20\n      dup1\n      swap2\n      div\n      mul\n      0x20\n      add\n      mload(0x40)\n      swap1\n      dup2\n      add\n      0x40\n      mstore\n      dup1\n      swap3\n      swap2\n      swap1\n      dup2\n      dup2\n      mstore\n      0x20\n      add\n      dup3\n      dup1\n      sload\n      tag_134\n      swap1\n      tag_122\n      jump\t// in\n    tag_134:\n      dup1\n      iszero\n      tag_135\n      jumpi\n      dup1\n      0x1f\n      lt\n      tag_136\n      jumpi\n      0x0100\n      dup1\n      dup4\n      sload\n      div\n      mul\n      dup4\n      mstore\n      swap2\n      0x20\n      add\n      swap2\n      jump(tag_135)\n    tag_136:\n      dup3\n      add\n      swap2\n      swap1\n      0x00\n      mstore\n      keccak256(0x00, 0x20)\n      swap1\n    tag_137:\n      dup2\n      sload\n      dup2\n      mstore\n      swap1\n      0x01\n      add\n      swap1\n      0x20\n      add\n      dup1\n      dup4\n      gt\n      tag_137\n      jumpi\n      dup3\n      swap1\n      sub\n      0x1f\n      and\n      dup3\n      add\n      swap2\n    tag_135:\n      pop\n      pop\n      pop\n      pop\n      pop\n      swap5\n      pop\n      dup4\n      dup1\n      sload\n      tag_138\n      swap1\n      tag_122\n      jump\t// in\n    tag_138:\n      dup1\n      0x1f\n      add\n      0x20\n      dup1\n      swap2\n      div\n      mul\n      0x20\n      add\n      mload(0x40)\n      swap1\n      dup2\n      add\n      0x40\n      mstore\n      dup1\n      swap3\n      swap2\n      swap1\n      dup2\n      dup2\n      mstore\n      0x20\n      add\n      dup3\n      dup1\n      sload\n      tag_139\n      swap1\n      tag_122\n      jump\t// in\n    tag_139:\n      dup1\n      iszero\n      tag_140\n      jumpi\n      dup1\n      0x1f\n      lt\n      tag_141\n      jumpi\n      0x0100\n      dup1\n      dup4\n      sload\n      div\n      mul\n      dup4\n      mstore\n      swap2\n      0x20\n      add\n      swap2\n      jump(tag_140)\n    tag_141:\n      dup3\n      add\n      swap2\n      swap1\n      0x00\n      mstore\n      keccak256(0x00, 0x20)\n      swap1\n    tag_142:\n      dup2\n      sload\n      dup2\n      mstore\n      swap1\n      0x01\n      add\n      swap1\n      0x20\n      add\n      dup1\n      dup4\n      gt\n      tag_142\n      jumpi\n      dup3\n      swap1\n      sub\n      0x1f\n      and\n      dup3\n      add\n      swap2\n    tag_140:\n      pop\n      pop\n      pop\n      pop\n      pop\n      swap4\n      pop\n      dup2\n      dup1\n      sload\n      dup1\n      0x20\n      mul\n      0x20\n      add\n      mload(0x40)\n      swap1\n      dup2\n      add\n      0x40\n      mstore\n      dup1\n      swap3\n      swap2\n      swap1\n      dup2\n      dup2\n      mstore\n      0x20\n      add\n      dup3\n      dup1\n      sload\n      dup1\n      iszero\n      tag_143\n      jumpi\n      0x20\n      mul\n      dup3\n      add\n      swap2\n      swap1\n      0x00\n      mstore\n      keccak256(0x00, 0x20)\n      swap1\n    tag_144:\n      dup2\n      0x00\n      swap1\n      sload\n      swap1\n      0x0100\n      exp\n      swap1\n      div\n      0xffffffffffffffffffffffffffffffffffffffff\n      and\n      0xffffffffffffffffffffffffffffffffffffffff\n      and\n      dup2\n      mstore\n      0x20\n      add\n      swap1\n      0x01\n      add\n      swap1\n      dup1\n      dup4\n      gt\n      tag_144\n      jumpi\n    tag_143:\n      pop\n      pop\n      pop\n      pop\n      pop\n      swap2\n      pop\n      swap10\n      pop\n      swap10\n      pop\n      swap10\n      pop\n      swap10\n      pop\n      swap10\n      pop\n      swap10\n      pop\n      swap10\n      pop\n      swap10\n      pop\n      swap10\n      pop\n      swap10\n      pop\n        /* \"Campaign.sol\":7819:8394  function getSummary()... */\n      swap1\n      swap2\n      swap3\n      swap4\n      swap5\n      swap6\n      swap7\n      swap8\n      swap9\n      swap10\n      jump\t// out\n        /* \"Campaign.sol\":967:989  address public manager */\n    tag_48:\n      0x00\n      0x00\n      swap1\n      sload\n      swap1\n      0x0100\n      exp\n      swap1\n      div\n      0xffffffffffffffffffffffffffffffffffffffff\n      and\n      dup2\n      jump\t// out\n        /* \"Campaign.sol\":7166:7246  function getStatus() public view returns (bool) {... */\n    tag_52:\n        /* \"Campaign.sol\":7208:7212  bool */\n      0x00\n        /* \"Campaign.sol\":7232:7238  closed */\n      0x0c\n      0x00\n      swap1\n      sload\n      swap1\n      0x0100\n      exp\n      swap1\n      div\n      0xff\n      and\n        /* \"Campaign.sol\":7225:7238  return closed */\n      swap1\n      pop\n        /* \"Campaign.sol\":7166:7246  function getStatus() public view returns (bool) {... */\n      swap1\n      jump\t// out\n        /* \"Campaign.sol\":1069:1098  string public dataDescription */\n    tag_55:\n      0x03\n      dup1\n      sload\n      tag_146\n      swap1\n      tag_122\n      jump\t// in\n    tag_146:\n      dup1\n      0x1f\n      add\n      0x20\n      dup1\n      swap2\n      div\n      mul\n      0x20\n      add\n      mload(0x40)\n      swap1\n      dup2\n      add\n      0x40\n      mstore\n      dup1\n      swap3\n      swap2\n      swap1\n      dup2\n      dup2\n      mstore\n      0x20\n      add\n      dup3\n      dup1\n      sload\n      tag_147\n      swap1\n      tag_122\n      jump\t// in\n    tag_147:\n      dup1\n      iszero\n      tag_148\n      jumpi\n      dup1\n      0x1f\n      lt\n      tag_149\n      jumpi\n      0x0100\n      dup1\n      dup4\n      sload\n      div\n      mul\n      dup4\n      mstore\n      swap2\n      0x20\n      add\n      swap2\n      jump(tag_148)\n    tag_149:\n      dup3\n      add\n      swap2\n      swap1\n      0x00\n      mstore\n      keccak256(0x00, 0x20)\n      swap1\n    tag_150:\n      dup2\n      sload\n      dup2\n      mstore\n      swap1\n      0x01\n      add\n      swap1\n      0x20\n      add\n      dup1\n      dup4\n      gt\n      tag_150\n      jumpi\n      dup3\n      swap1\n      sub\n      0x1f\n      and\n      dup3\n      add\n      swap2\n    tag_148:\n      pop\n      pop\n      pop\n      pop\n      pop\n      dup2\n      jump\t// out\n        /* \"Campaign.sol\":1412:1430  bool public closed */\n    tag_58:\n      0x0c\n      0x00\n      swap1\n      sload\n      swap1\n      0x0100\n      exp\n      swap1\n      div\n      0xff\n      and\n      dup2\n      jump\t// out\n        /* \"Campaign.sol\":1155:1204  mapping(address => uint256) public approversMoney */\n    tag_62:\n      mstore(0x20, 0x05)\n      dup1\n      0x00\n      mstore\n      keccak256(0x00, 0x40)\n      0x00\n      swap2\n      pop\n      swap1\n      pop\n      sload\n      dup2\n      jump\t// out\n        /* \"Campaign.sol\":3860:6258  function permitAndContribute(... */\n    tag_67:\n        /* \"Campaign.sol\":4026:4039  address owner */\n      0x00\n        /* \"Campaign.sol\":4042:4052  msg.sender */\n      caller\n        /* \"Campaign.sol\":4026:4052  address owner = msg.sender */\n      swap1\n      pop\n        /* \"Campaign.sol\":4063:4078  address spender */\n      0x00\n        /* \"Campaign.sol\":4089:4093  this */\n      address\n        /* \"Campaign.sol\":4063:4094  address spender = address(this) */\n      swap1\n      pop\n        /* \"Campaign.sol\":4154:4167  uint256 nonce */\n      0x00\n        /* \"Campaign.sol\":4170:4175  token */\n      0x0c\n      0x01\n      swap1\n      sload\n      swap1\n      0x0100\n      exp\n      swap1\n      div\n      0xffffffffffffffffffffffffffffffffffffffff\n      and\n        /* \"Campaign.sol\":4170:4182  token.nonces */\n      0xffffffffffffffffffffffffffffffffffffffff\n      and\n      0x7ecebe00\n        /* \"Campaign.sol\":4183:4188  owner */\n      dup5\n        /* \"Campaign.sol\":4170:4189  token.nonces(owner) */\n      mload(0x40)\n      dup3\n      0xffffffff\n      and\n      0xe0\n      shl\n      dup2\n      mstore\n      0x04\n      add\n      tag_152\n      swap2\n      swap1\n      tag_50\n      jump\t// in\n    tag_152:\n      0x20\n      mload(0x40)\n      dup1\n      dup4\n      sub\n      dup2\n      dup7\n      gas\n      staticcall\n      iszero\n      dup1\n      iszero\n      tag_154\n      jumpi\n      returndatacopy(0x00, 0x00, returndatasize)\n      revert(0x00, returndatasize)\n    tag_154:\n      pop\n      pop\n      pop\n      pop\n      mload(0x40)\n      returndatasize\n      not(0x1f)\n      0x1f\n      dup3\n      add\n      and\n      dup3\n      add\n      dup1\n      0x40\n      mstore\n      pop\n      dup2\n      add\n      swap1\n      tag_155\n      swap2\n      swap1\n      tag_132\n      jump\t// in\n    tag_155:\n        /* \"Campaign.sol\":4154:4189  uint256 nonce = token.nonces(owner) */\n      swap1\n      pop\n        /* \"Campaign.sol\":4205:4222  NonceCheck(nonce) */\n      0xf29b58c6301ab4d806bf8454e3565b31382f5ad5f02fd45fb42e18523cb860e4\n        /* \"Campaign.sol\":4216:4221  nonce */\n      dup2\n        /* \"Campaign.sol\":4205:4222  NonceCheck(nonce) */\n      mload(0x40)\n      tag_156\n      swap2\n      swap1\n      tag_38\n      jump\t// in\n    tag_156:\n      mload(0x40)\n      dup1\n      swap2\n      sub\n      swap1\n      log1\n        /* \"Campaign.sol\":4261:4268  spender */\n      dup2\n        /* \"Campaign.sol\":4240:4294  PermitAttempt(owner, spender, amount, nonce, deadline) */\n      0xffffffffffffffffffffffffffffffffffffffff\n      and\n        /* \"Campaign.sol\":4254:4259  owner */\n      dup4\n        /* \"Campaign.sol\":4240:4294  PermitAttempt(owner, spender, amount, nonce, deadline) */\n      0xffffffffffffffffffffffffffffffffffffffff\n      and\n      0xe73d3e7f4544b3502481a4298011ede4f74f12e7c94c6998bc96c6db67502c3c\n        /* \"Campaign.sol\":4270:4276  amount */\n      dup11\n        /* \"Campaign.sol\":4278:4283  nonce */\n      dup5\n        /* \"Campaign.sol\":4285:4293  deadline */\n      dup12\n        /* \"Campaign.sol\":4240:4294  PermitAttempt(owner, spender, amount, nonce, deadline) */\n      mload(0x40)\n      tag_157\n      swap4\n      swap3\n      swap2\n      swap1\n      tag_158\n      jump\t// in\n    tag_157:\n      mload(0x40)\n      dup1\n      swap2\n      sub\n      swap1\n      log3\n        /* \"Campaign.sol\":4342:4347  token */\n      0x0c\n      0x01\n      swap1\n      sload\n      swap1\n      0x0100\n      exp\n      swap1\n      div\n      0xffffffffffffffffffffffffffffffffffffffff\n      and\n        /* \"Campaign.sol\":4342:4354  token.permit */\n      0xffffffffffffffffffffffffffffffffffffffff\n      and\n      0xd505accf\n        /* \"Campaign.sol\":4355:4360  owner */\n      dup5\n        /* \"Campaign.sol\":4362:4369  spender */\n      dup5\n        /* \"Campaign.sol\":4371:4377  amount */\n      dup12\n        /* \"Campaign.sol\":4379:4387  deadline */\n      dup12\n        /* \"Campaign.sol\":4389:4390  v */\n      dup12\n        /* \"Campaign.sol\":4392:4393  r */\n      dup12\n        /* \"Campaign.sol\":4395:4396  s */\n      dup12\n        /* \"Campaign.sol\":4342:4397  token.permit(owner, spender, amount, deadline, v, r, s) */\n      mload(0x40)\n      dup9\n      0xffffffff\n      and\n      0xe0\n      shl\n      dup2\n      mstore\n      0x04\n      add\n      tag_159\n      swap8\n      swap7\n      swap6\n      swap5\n      swap4\n      swap3\n      swap2\n      swap1\n      tag_160\n      jump\t// in\n    tag_159:\n      0x00\n      mload(0x40)\n      dup1\n      dup4\n      sub\n      dup2\n      0x00\n      dup8\n      dup1\n      extcodesize\n      iszero\n      dup1\n      iszero\n      tag_161\n      jumpi\n      revert(0x00, 0x00)\n    tag_161:\n      pop\n      gas\n      call\n      swap3\n      pop\n      pop\n      pop\n      dup1\n      iszero\n      tag_162\n      jumpi\n      pop\n      0x01\n    tag_162:\n        /* \"Campaign.sol\":4338:4717  try token.permit(owner, spender, amount, deadline, v, r, s) {... */\n      tag_163\n      jumpi\n      tag_167\n      tag_168\n      jump\t// in\n    tag_167:\n      dup1\n      0x08c379a0\n      sub\n      tag_166\n      jumpi\n      pop\n      tag_169\n      tag_170\n      jump\t// in\n    tag_169:\n      dup1\n      tag_171\n      jumpi\n      pop\n      jump(tag_165)\n    tag_171:\n        /* \"Campaign.sol\":4490:4510  PermitFailed(reason) */\n      0xe19fbc5ff4f9e3df659f19fd3f2f1bd7a51b5e2994e3a55670578bb0f9d1d556\n        /* \"Campaign.sol\":4503:4509  reason */\n      dup2\n        /* \"Campaign.sol\":4490:4510  PermitFailed(reason) */\n      mload(0x40)\n      tag_172\n      swap2\n      swap1\n      tag_42\n      jump\t// in\n    tag_172:\n      mload(0x40)\n      dup1\n      swap2\n      sub\n      swap1\n      log1\n        /* \"Campaign.sol\":4575:4581  reason */\n      dup1\n        /* \"Campaign.sol\":4539:4582  abi.encodePacked(\"Permit failed: \", reason) */\n      add(0x20, mload(0x40))\n      tag_173\n      swap2\n      swap1\n      tag_174\n      jump\t// in\n    tag_173:\n      mload(0x40)\n      0x20\n      dup2\n      dup4\n      sub\n      sub\n      dup2\n      mstore\n      swap1\n      0x40\n      mstore\n        /* \"Campaign.sol\":4525:4584  revert(string(abi.encodePacked(\"Permit failed: \", reason))) */\n      mload(0x40)\n      0x08c379a000000000000000000000000000000000000000000000000000000000\n      dup2\n      mstore\n      0x04\n      add\n      tag_175\n      swap2\n      swap1\n      tag_42\n      jump\t// in\n    tag_175:\n      mload(0x40)\n      dup1\n      swap2\n      sub\n      swap1\n      revert\n        /* \"Campaign.sol\":4338:4717  try token.permit(owner, spender, amount, deadline, v, r, s) {... */\n    tag_166:\n      pop\n    tag_165:\n        /* \"Campaign.sol\":4623:4652  PermitFailed(\"Unknown error\") */\n      0xe19fbc5ff4f9e3df659f19fd3f2f1bd7a51b5e2994e3a55670578bb0f9d1d556\n      mload(0x40)\n      tag_176\n      swap1\n      tag_177\n      jump\t// in\n    tag_176:\n      mload(0x40)\n      dup1\n      swap2\n      sub\n      swap1\n      log1\n        /* \"Campaign.sol\":4667:4705  revert(\"Permit failed: unknown error\") */\n      mload(0x40)\n      0x08c379a000000000000000000000000000000000000000000000000000000000\n      dup2\n      mstore\n      0x04\n      add\n      tag_178\n      swap1\n      tag_179\n      jump\t// in\n    tag_178:\n      mload(0x40)\n      dup1\n      swap2\n      sub\n      swap1\n      revert\n        /* \"Campaign.sol\":4338:4717  try token.permit(owner, spender, amount, deadline, v, r, s) {... */\n    tag_163:\n        /* \"Campaign.sol\":4770:4787  uint256 allowance */\n      0x00\n        /* \"Campaign.sol\":4805:4810  token */\n      0x0c\n      0x01\n      swap1\n      sload\n      swap1\n      0x0100\n      exp\n      swap1\n      div\n      0xffffffffffffffffffffffffffffffffffffffff\n      and\n        /* \"Campaign.sol\":4790:4822  IERC20(address(token)).allowance */\n      0xffffffffffffffffffffffffffffffffffffffff\n      and\n      0xdd62ed3e\n        /* \"Campaign.sol\":4823:4828  owner */\n      dup6\n        /* \"Campaign.sol\":4830:4837  spender */\n      dup6\n        /* \"Campaign.sol\":4790:4838  IERC20(address(token)).allowance(owner, spender) */\n      mload(0x40)\n      dup4\n      0xffffffff\n      and\n      0xe0\n      shl\n      dup2\n      mstore\n      0x04\n      add\n      tag_181\n      swap3\n      swap2\n      swap1\n      tag_182\n      jump\t// in\n    tag_181:\n      0x20\n      mload(0x40)\n      dup1\n      dup4\n      sub\n      dup2\n      dup7\n      gas\n      staticcall\n      iszero\n      dup1\n      iszero\n      tag_184\n      jumpi\n      returndatacopy(0x00, 0x00, returndatasize)\n      revert(0x00, returndatasize)\n    tag_184:\n      pop\n      pop\n      pop\n      pop\n      mload(0x40)\n      returndatasize\n      not(0x1f)\n      0x1f\n      dup3\n      add\n      and\n      dup3\n      add\n      dup1\n      0x40\n      mstore\n      pop\n      dup2\n      add\n      swap1\n      tag_185\n      swap2\n      swap1\n      tag_132\n      jump\t// in\n    tag_185:\n        /* \"Campaign.sol\":4770:4838  uint256 allowance = IERC20(address(token)).allowance(owner, spender) */\n      swap1\n      pop\n        /* \"Campaign.sol\":4854:4887  AllowanceCheck(allowance, amount) */\n      0xfb7db43709e58b37855e273302377128c7eff642d99999cb530a6cd6a287e9fa\n        /* \"Campaign.sol\":4869:4878  allowance */\n      dup2\n        /* \"Campaign.sol\":4880:4886  amount */\n      dup11\n        /* \"Campaign.sol\":4854:4887  AllowanceCheck(allowance, amount) */\n      mload(0x40)\n      tag_186\n      swap3\n      swap2\n      swap1\n      tag_187\n      jump\t// in\n    tag_186:\n      mload(0x40)\n      dup1\n      swap2\n      sub\n      swap1\n      log1\n        /* \"Campaign.sol\":4921:4927  amount */\n      dup9\n        /* \"Campaign.sol\":4908:4917  allowance */\n      dup2\n        /* \"Campaign.sol\":4908:4927  allowance >= amount */\n      lt\n      iszero\n        /* \"Campaign.sol\":4900:4967  require(allowance >= amount, \"Allowance was not updated by permit\") */\n      tag_188\n      jumpi\n      mload(0x40)\n      0x08c379a000000000000000000000000000000000000000000000000000000000\n      dup2\n      mstore\n      0x04\n      add\n      tag_189\n      swap1\n      tag_190\n      jump\t// in\n    tag_189:\n      mload(0x40)\n      dup1\n      swap2\n      sub\n      swap1\n      revert\n    tag_188:\n        /* \"Campaign.sol\":4999:5004  owner */\n      dup4\n        /* \"Campaign.sol\":4985:5016  PermitSuccess(owner, allowance) */\n      0xffffffffffffffffffffffffffffffffffffffff\n      and\n      0x7653ba64263e4c00c4274956a77bb1ce892c55a528cfbf7873a825ea64cf981c\n        /* \"Campaign.sol\":5006:5015  allowance */\n      dup3\n        /* \"Campaign.sol\":4985:5016  PermitSuccess(owner, allowance) */\n      mload(0x40)\n      tag_191\n      swap2\n      swap1\n      tag_38\n      jump\t// in\n    tag_191:\n      mload(0x40)\n      dup1\n      swap2\n      sub\n      swap1\n      log2\n        /* \"Campaign.sol\":5068:5099  ContributeCalled(owner, amount) */\n      0x38ad295bd970e48fbc3d2741a85bca4baf27a2884ec78bc81a5eee942060d5fc\n        /* \"Campaign.sol\":5085:5090  owner */\n      dup5\n        /* \"Campaign.sol\":5092:5098  amount */\n      dup11\n        /* \"Campaign.sol\":5068:5099  ContributeCalled(owner, amount) */\n      mload(0x40)\n      tag_192\n      swap3\n      swap2\n      swap1\n      tag_193\n      jump\t// in\n    tag_192:\n      mload(0x40)\n      dup1\n      swap2\n      sub\n      swap1\n      log1\n        /* \"Campaign.sol\":5167:5174  manager */\n      0x00\n      0x00\n      swap1\n      sload\n      swap1\n      0x0100\n      exp\n      swap1\n      div\n      0xffffffffffffffffffffffffffffffffffffffff\n      and\n        /* \"Campaign.sol\":5158:5174  owner != manager */\n      0xffffffffffffffffffffffffffffffffffffffff\n      and\n        /* \"Campaign.sol\":5158:5163  owner */\n      dup5\n        /* \"Campaign.sol\":5158:5174  owner != manager */\n      0xffffffffffffffffffffffffffffffffffffffff\n      and\n      sub\n        /* \"Campaign.sol\":5150:5212  require(owner != manager, \"You can't bid on your own auction\") */\n      tag_194\n      jumpi\n      mload(0x40)\n      0x08c379a000000000000000000000000000000000000000000000000000000000\n      dup2\n      mstore\n      0x04\n      add\n      tag_195\n      swap1\n      tag_196\n      jump\t// in\n    tag_195:\n      mload(0x40)\n      dup1\n      swap2\n      sub\n      swap1\n      revert\n    tag_194:\n        /* \"Campaign.sol\":5225:5241  uint256 previous */\n      0x00\n        /* \"Campaign.sol\":5244:5258  approversMoney */\n      0x05\n        /* \"Campaign.sol\":5244:5265  approversMoney[owner] */\n      0x00\n        /* \"Campaign.sol\":5259:5264  owner */\n      dup7\n        /* \"Campaign.sol\":5244:5265  approversMoney[owner] */\n      0xffffffffffffffffffffffffffffffffffffffff\n      and\n      0xffffffffffffffffffffffffffffffffffffffff\n      and\n      dup2\n      mstore\n      0x20\n      add\n      swap1\n      dup2\n      mstore\n      0x20\n      add\n      0x00\n      keccak256\n      sload\n        /* \"Campaign.sol\":5225:5265  uint256 previous = approversMoney[owner] */\n      swap1\n      pop\n        /* \"Campaign.sol\":5276:5292  uint256 newTotal */\n      0x00\n        /* \"Campaign.sol\":5306:5312  amount */\n      dup11\n        /* \"Campaign.sol\":5295:5303  previous */\n      dup3\n        /* \"Campaign.sol\":5295:5312  previous + amount */\n      tag_197\n      swap2\n      swap1\n      tag_198\n      jump\t// in\n    tag_197:\n        /* \"Campaign.sol\":5276:5312  uint256 newTotal = previous + amount */\n      swap1\n      pop\n        /* \"Campaign.sol\":5442:5443  0 */\n      0x00\n        /* \"Campaign.sol\":5430:5438  previous */\n      dup3\n        /* \"Campaign.sol\":5430:5443  previous == 0 */\n      sub\n        /* \"Campaign.sol\":5426:5533  if (previous == 0) {... */\n      tag_199\n      jumpi\n        /* \"Campaign.sol\":5480:5499  minimumContribution */\n      sload(0x01)\n        /* \"Campaign.sol\":5468:5476  newTotal */\n      dup2\n        /* \"Campaign.sol\":5468:5499  newTotal >= minimumContribution */\n      lt\n      iszero\n        /* \"Campaign.sol\":5460:5521  require(newTotal >= minimumContribution, \"Below minimum bid\") */\n      tag_200\n      jumpi\n      mload(0x40)\n      0x08c379a000000000000000000000000000000000000000000000000000000000\n      dup2\n      mstore\n      0x04\n      add\n      tag_201\n      swap1\n      tag_202\n      jump\t// in\n    tag_201:\n      mload(0x40)\n      dup1\n      swap2\n      sub\n      swap1\n      revert\n    tag_200:\n        /* \"Campaign.sol\":5426:5533  if (previous == 0) {... */\n    tag_199:\n        /* \"Campaign.sol\":5564:5574  highestBid */\n      sload(0x0a)\n        /* \"Campaign.sol\":5553:5561  newTotal */\n      dup2\n        /* \"Campaign.sol\":5553:5574  newTotal > highestBid */\n      gt\n        /* \"Campaign.sol\":5545:5610  require(newTotal > highestBid, \"Bid must exceed current highest\") */\n      tag_203\n      jumpi\n      mload(0x40)\n      0x08c379a000000000000000000000000000000000000000000000000000000000\n      dup2\n      mstore\n      0x04\n      add\n      tag_204\n      swap1\n      tag_205\n      jump\t// in\n    tag_204:\n      mload(0x40)\n      dup1\n      swap2\n      sub\n      swap1\n      revert\n    tag_203:\n        /* \"Campaign.sol\":5648:5653  token */\n      0x0c\n      0x01\n      swap1\n      sload\n      swap1\n      0x0100\n      exp\n      swap1\n      div\n      0xffffffffffffffffffffffffffffffffffffffff\n      and\n        /* \"Campaign.sol\":5633:5668  IERC20(address(token)).transferFrom */\n      0xffffffffffffffffffffffffffffffffffffffff\n      and\n      0x23b872dd\n        /* \"Campaign.sol\":5669:5674  owner */\n      dup8\n        /* \"Campaign.sol\":5684:5688  this */\n      address\n        /* \"Campaign.sol\":5691:5697  amount */\n      dup15\n        /* \"Campaign.sol\":5633:5698  IERC20(address(token)).transferFrom(owner, address(this), amount) */\n      mload(0x40)\n      dup5\n      0xffffffff\n      and\n      0xe0\n      shl\n      dup2\n      mstore\n      0x04\n      add\n      tag_206\n      swap4\n      swap3\n      swap2\n      swap1\n      tag_207\n      jump\t// in\n    tag_206:\n      0x20\n      mload(0x40)\n      dup1\n      dup4\n      sub\n      dup2\n      0x00\n      dup8\n      gas\n      call\n      iszero\n      dup1\n      iszero\n      tag_209\n      jumpi\n      returndatacopy(0x00, 0x00, returndatasize)\n      revert(0x00, returndatasize)\n    tag_209:\n      pop\n      pop\n      pop\n      pop\n      mload(0x40)\n      returndatasize\n      not(0x1f)\n      0x1f\n      dup3\n      add\n      and\n      dup3\n      add\n      dup1\n      0x40\n      mstore\n      pop\n      dup2\n      add\n      swap1\n      tag_210\n      swap2\n      swap1\n      tag_211\n      jump\t// in\n    tag_210:\n        /* \"Campaign.sol\":5625:5718  require(IERC20(address(token)).transferFrom(owner, address(this), amount), \"Transfer failed\") */\n      tag_212\n      jumpi\n      mload(0x40)\n      0x08c379a000000000000000000000000000000000000000000000000000000000\n      dup2\n      mstore\n      0x04\n      add\n      tag_213\n      swap1\n      tag_214\n      jump\t// in\n    tag_213:\n      mload(0x40)\n      dup1\n      swap2\n      sub\n      swap1\n      revert\n    tag_212:\n        /* \"Campaign.sol\":5813:5821  newTotal */\n      dup1\n        /* \"Campaign.sol\":5789:5803  approversMoney */\n      0x05\n        /* \"Campaign.sol\":5789:5810  approversMoney[owner] */\n      0x00\n        /* \"Campaign.sol\":5804:5809  owner */\n      dup9\n        /* \"Campaign.sol\":5789:5810  approversMoney[owner] */\n      0xffffffffffffffffffffffffffffffffffffffff\n      and\n      0xffffffffffffffffffffffffffffffffffffffff\n      and\n      dup2\n      mstore\n      0x20\n      add\n      swap1\n      dup2\n      mstore\n      0x20\n      add\n      0x00\n      keccak256\n        /* \"Campaign.sol\":5789:5821  approversMoney[owner] = newTotal */\n      dup2\n      swap1\n      sstore\n      pop\n        /* \"Campaign.sol\":5845:5853  newTotal */\n      dup1\n        /* \"Campaign.sol\":5832:5842  highestBid */\n      0x0a\n        /* \"Campaign.sol\":5832:5853  highestBid = newTotal */\n      dup2\n      swap1\n      sstore\n      pop\n        /* \"Campaign.sol\":5880:5885  owner */\n      dup6\n        /* \"Campaign.sol\":5864:5877  highestBidder */\n      0x09\n      0x00\n        /* \"Campaign.sol\":5864:5885  highestBidder = owner */\n      0x0100\n      exp\n      dup2\n      sload\n      dup2\n      0xffffffffffffffffffffffffffffffffffffffff\n      mul\n      not\n      and\n      swap1\n      dup4\n      0xffffffffffffffffffffffffffffffffffffffff\n      and\n      mul\n      or\n      swap1\n      sstore\n      pop\n        /* \"Campaign.sol\":5976:5988  transactions */\n      0x08\n        /* \"Campaign.sol\":5994:6029  Bid(amount, block.timestamp, owner) */\n      mload(0x40)\n      dup1\n      0x60\n      add\n      0x40\n      mstore\n      dup1\n        /* \"Campaign.sol\":5998:6004  amount */\n      dup14\n        /* \"Campaign.sol\":5994:6029  Bid(amount, block.timestamp, owner) */\n      dup2\n      mstore\n      0x20\n      add\n        /* \"Campaign.sol\":6006:6021  block.timestamp */\n      timestamp\n        /* \"Campaign.sol\":5994:6029  Bid(amount, block.timestamp, owner) */\n      dup2\n      mstore\n      0x20\n      add\n        /* \"Campaign.sol\":6023:6028  owner */\n      dup9\n        /* \"Campaign.sol\":5994:6029  Bid(amount, block.timestamp, owner) */\n      0xffffffffffffffffffffffffffffffffffffffff\n      and\n      dup2\n      mstore\n      pop\n        /* \"Campaign.sol\":5976:6030  transactions.push(Bid(amount, block.timestamp, owner)) */\n      swap1\n      dup1\n      0x01\n      dup2\n      sload\n      add\n      dup1\n      dup3\n      sstore\n      dup1\n      swap2\n      pop\n      pop\n      0x01\n      swap1\n      sub\n      swap1\n      0x00\n      mstore\n      keccak256(0x00, 0x20)\n      swap1\n      0x03\n      mul\n      add\n      0x00\n      swap1\n      swap2\n      swap1\n      swap2\n      swap1\n      swap2\n      pop\n      0x00\n      dup3\n      add\n      mload\n      dup2\n      0x00\n      add\n      sstore\n      0x20\n      dup3\n      add\n      mload\n      dup2\n      0x01\n      add\n      sstore\n      0x40\n      dup3\n      add\n      mload\n      dup2\n      0x02\n      add\n      exp(0x0100, 0x00)\n      dup2\n      sload\n      dup2\n      0xffffffffffffffffffffffffffffffffffffffff\n      mul\n      not\n      and\n      swap1\n      dup4\n      0xffffffffffffffffffffffffffffffffffffffff\n      and\n      mul\n      or\n      swap1\n      sstore\n      pop\n      pop\n      pop\n        /* \"Campaign.sol\":6116:6125  approvers */\n      0x04\n        /* \"Campaign.sol\":6116:6132  approvers[owner] */\n      0x00\n        /* \"Campaign.sol\":6126:6131  owner */\n      dup8\n        /* \"Campaign.sol\":6116:6132  approvers[owner] */\n      0xffffffffffffffffffffffffffffffffffffffff\n      and\n      0xffffffffffffffffffffffffffffffffffffffff\n      and\n      dup2\n      mstore\n      0x20\n      add\n      swap1\n      dup2\n      mstore\n      0x20\n      add\n      0x00\n      keccak256\n      0x00\n      swap1\n      sload\n      swap1\n      0x0100\n      exp\n      swap1\n      div\n      0xff\n      and\n        /* \"Campaign.sol\":6111:6251  if (!approvers[owner]) {... */\n      tag_216\n      jumpi\n        /* \"Campaign.sol\":6168:6172  true */\n      0x01\n        /* \"Campaign.sol\":6149:6158  approvers */\n      0x04\n        /* \"Campaign.sol\":6149:6165  approvers[owner] */\n      0x00\n        /* \"Campaign.sol\":6159:6164  owner */\n      dup9\n        /* \"Campaign.sol\":6149:6165  approvers[owner] */\n      0xffffffffffffffffffffffffffffffffffffffff\n      and\n      0xffffffffffffffffffffffffffffffffffffffff\n      and\n      dup2\n      mstore\n      0x20\n      add\n      swap1\n      dup2\n      mstore\n      0x20\n      add\n      0x00\n      keccak256\n      0x00\n        /* \"Campaign.sol\":6149:6172  approvers[owner] = true */\n      0x0100\n      exp\n      dup2\n      sload\n      dup2\n      0xff\n      mul\n      not\n      and\n      swap1\n      dup4\n      iszero\n      iszero\n      mul\n      or\n      swap1\n      sstore\n      pop\n        /* \"Campaign.sol\":6187:6201  approversCount */\n      0x06\n      0x00\n        /* \"Campaign.sol\":6187:6203  approversCount++ */\n      dup2\n      sload\n      dup1\n      swap3\n      swap2\n      swap1\n      tag_217\n      swap1\n      tag_218\n      jump\t// in\n    tag_217:\n      swap2\n      swap1\n      pop\n      sstore\n      pop\n        /* \"Campaign.sol\":6218:6227  addresses */\n      0x07\n        /* \"Campaign.sol\":6233:6238  owner */\n      dup7\n        /* \"Campaign.sol\":6218:6239  addresses.push(owner) */\n      swap1\n      dup1\n      0x01\n      dup2\n      sload\n      add\n      dup1\n      dup3\n      sstore\n      dup1\n      swap2\n      pop\n      pop\n      0x01\n      swap1\n      sub\n      swap1\n      0x00\n      mstore\n      keccak256(0x00, 0x20)\n      add\n      0x00\n      swap1\n      swap2\n      swap1\n      swap2\n      swap1\n      swap2\n      0x0100\n      exp\n      dup2\n      sload\n      dup2\n      0xffffffffffffffffffffffffffffffffffffffff\n      mul\n      not\n      and\n      swap1\n      dup4\n      0xffffffffffffffffffffffffffffffffffffffff\n      and\n      mul\n      or\n      swap1\n      sstore\n      pop\n        /* \"Campaign.sol\":6111:6251  if (!approvers[owner]) {... */\n    tag_216:\n        /* \"Campaign.sol\":4015:6258  {... */\n      pop\n      pop\n      pop\n      pop\n      pop\n      pop\n        /* \"Campaign.sol\":3860:6258  function permitAndContribute(... */\n      pop\n      pop\n      pop\n      pop\n      pop\n      jump\t// out\n        /* \"Campaign.sol\":1037:1062  string public dataForSell */\n    tag_69:\n      0x02\n      dup1\n      sload\n      tag_220\n      swap1\n      tag_122\n      jump\t// in\n    tag_220:\n      dup1\n      0x1f\n      add\n      0x20\n      dup1\n      swap2\n      div\n      mul\n      0x20\n      add\n      mload(0x40)\n      swap1\n      dup2\n      add\n      0x40\n      mstore\n      dup1\n      swap3\n      swap2\n      swap1\n      dup2\n      dup2\n      mstore\n      0x20\n      add\n      dup3\n      dup1\n      sload\n      tag_221\n      swap1\n      tag_122\n      jump\t// in\n    tag_221:\n      dup1\n      iszero\n      tag_222\n      jumpi\n      dup1\n      0x1f\n      lt\n      tag_223\n      jumpi\n      0x0100\n      dup1\n      dup4\n      sload\n      div\n      mul\n      dup4\n      mstore\n      swap2\n      0x20\n      add\n      swap2\n      jump(tag_222)\n    tag_223:\n      dup3\n      add\n      swap2\n      swap1\n      0x00\n      mstore\n      keccak256(0x00, 0x20)\n      swap1\n    tag_224:\n      dup2\n      sload\n      dup2\n      mstore\n      swap1\n      0x01\n      add\n      swap1\n      0x20\n      add\n      dup1\n      dup4\n      gt\n      tag_224\n      jumpi\n      dup3\n      swap1\n      sub\n      0x1f\n      and\n      dup3\n      add\n      swap2\n    tag_222:\n      pop\n      pop\n      pop\n      pop\n      pop\n      dup2\n      jump\t// out\n        /* \"Campaign.sol\":1211:1240  uint256 public approversCount */\n    tag_72:\n      sload(0x06)\n      dup2\n      jump\t// out\n        /* \"Campaign.sol\":7372:7472  function getTransactions() public view returns (Bid[] memory) {... */\n    tag_75:\n        /* \"Campaign.sol\":7420:7432  Bid[] memory */\n      0x60\n        /* \"Campaign.sol\":7452:7464  transactions */\n      0x08\n        /* \"Campaign.sol\":7445:7464  return transactions */\n      dup1\n      sload\n      dup1\n      0x20\n      mul\n      0x20\n      add\n      mload(0x40)\n      swap1\n      dup2\n      add\n      0x40\n      mstore\n      dup1\n      swap3\n      swap2\n      swap1\n      dup2\n      dup2\n      mstore\n      0x20\n      add\n      0x00\n      swap1\n    tag_226:\n      dup3\n      dup3\n      lt\n      iszero\n      tag_227\n      jumpi\n      dup4\n      dup3\n      swap1\n      0x00\n      mstore\n      keccak256(0x00, 0x20)\n      swap1\n      0x03\n      mul\n      add\n      mload(0x40)\n      dup1\n      0x60\n      add\n      0x40\n      mstore\n      swap1\n      dup2\n      0x00\n      dup3\n      add\n      sload\n      dup2\n      mstore\n      0x20\n      add\n      0x01\n      dup3\n      add\n      sload\n      dup2\n      mstore\n      0x20\n      add\n      0x02\n      dup3\n      add\n      0x00\n      swap1\n      sload\n      swap1\n      0x0100\n      exp\n      swap1\n      div\n      0xffffffffffffffffffffffffffffffffffffffff\n      and\n      0xffffffffffffffffffffffffffffffffffffffff\n      and\n      0xffffffffffffffffffffffffffffffffffffffff\n      and\n      dup2\n      mstore\n      pop\n      pop\n      dup2\n      mstore\n      0x20\n      add\n      swap1\n      0x01\n      add\n      swap1\n      jump(tag_226)\n    tag_227:\n      pop\n      pop\n      pop\n      pop\n      swap1\n      pop\n        /* \"Campaign.sol\":7372:7472  function getTransactions() public view returns (Bid[] memory) {... */\n      swap1\n      jump\t// out\n        /* \"Campaign.sol\":1316:1344  address public highestBidder */\n    tag_79:\n      0x09\n      0x00\n      swap1\n      sload\n      swap1\n      0x0100\n      exp\n      swap1\n      div\n      0xffffffffffffffffffffffffffffffffffffffff\n      and\n      dup2\n      jump\t// out\n        /* \"Campaign.sol\":996:1030  uint256 public minimumContribution */\n    tag_82:\n      sload(0x01)\n      dup2\n      jump\t// out\n        /* \"Campaign.sol\":6270:7158  function finalizeAuctionIfNeeded() public onlyAfterEnd {... */\n    tag_85:\n        /* \"Campaign.sol\":1654:1661  endTime */\n      sload(0x0b)\n        /* \"Campaign.sol\":1635:1650  block.timestamp */\n      timestamp\n        /* \"Campaign.sol\":1635:1661  block.timestamp >= endTime */\n      lt\n      iszero\n        /* \"Campaign.sol\":1627:1687  require(block.timestamp >= endTime, \"Auction not ended yet\") */\n      tag_230\n      jumpi\n      mload(0x40)\n      0x08c379a000000000000000000000000000000000000000000000000000000000\n      dup2\n      mstore\n      0x04\n      add\n      tag_231\n      swap1\n      tag_232\n      jump\t// in\n    tag_231:\n      mload(0x40)\n      dup1\n      swap2\n      sub\n      swap1\n      revert\n    tag_230:\n        /* \"Campaign.sol\":6345:6351  closed */\n      0x0c\n      0x00\n      swap1\n      sload\n      swap1\n      0x0100\n      exp\n      swap1\n      div\n      0xff\n      and\n        /* \"Campaign.sol\":6344:6351  !closed */\n      iszero\n        /* \"Campaign.sol\":6336:6381  require(!closed, \"Auction already finalized\") */\n      tag_234\n      jumpi\n      mload(0x40)\n      0x08c379a000000000000000000000000000000000000000000000000000000000\n      dup2\n      mstore\n      0x04\n      add\n      tag_235\n      swap1\n      tag_236\n      jump\t// in\n    tag_235:\n      mload(0x40)\n      dup1\n      swap2\n      sub\n      swap1\n      revert\n    tag_234:\n        /* \"Campaign.sol\":6399:6408  uint256 i */\n      0x00\n        /* \"Campaign.sol\":6411:6412  0 */\n      0x00\n        /* \"Campaign.sol\":6399:6412  uint256 i = 0 */\n      swap1\n      pop\n        /* \"Campaign.sol\":6394:6926  for (uint256 i = 0; i < addresses.length; i++) {... */\n    tag_237:\n        /* \"Campaign.sol\":6418:6427  addresses */\n      0x07\n        /* \"Campaign.sol\":6418:6434  addresses.length */\n      dup1\n      sload\n      swap1\n      pop\n        /* \"Campaign.sol\":6414:6415  i */\n      dup2\n        /* \"Campaign.sol\":6414:6434  i < addresses.length */\n      lt\n        /* \"Campaign.sol\":6394:6926  for (uint256 i = 0; i < addresses.length; i++) {... */\n      iszero\n      tag_238\n      jumpi\n        /* \"Campaign.sol\":6456:6475  address contributor */\n      0x00\n        /* \"Campaign.sol\":6478:6487  addresses */\n      0x07\n        /* \"Campaign.sol\":6488:6489  i */\n      dup3\n        /* \"Campaign.sol\":6478:6490  addresses[i] */\n      dup2\n      sload\n      dup2\n      lt\n      tag_240\n      jumpi\n      tag_241\n      tag_242\n      jump\t// in\n    tag_241:\n    tag_240:\n      swap1\n      0x00\n      mstore\n      keccak256(0x00, 0x20)\n      add\n      0x00\n      swap1\n      sload\n      swap1\n      0x0100\n      exp\n      swap1\n      div\n      0xffffffffffffffffffffffffffffffffffffffff\n      and\n        /* \"Campaign.sol\":6456:6490  address contributor = addresses[i] */\n      swap1\n      pop\n        /* \"Campaign.sol\":6524:6537  highestBidder */\n      0x09\n      0x00\n      swap1\n      sload\n      swap1\n      0x0100\n      exp\n      swap1\n      div\n      0xffffffffffffffffffffffffffffffffffffffff\n      and\n        /* \"Campaign.sol\":6509:6537  contributor != highestBidder */\n      0xffffffffffffffffffffffffffffffffffffffff\n      and\n        /* \"Campaign.sol\":6509:6520  contributor */\n      dup2\n        /* \"Campaign.sol\":6509:6537  contributor != highestBidder */\n      0xffffffffffffffffffffffffffffffffffffffff\n      and\n      eq\n        /* \"Campaign.sol\":6505:6915  if (contributor != highestBidder) {... */\n      tag_244\n      jumpi\n        /* \"Campaign.sol\":6558:6578  uint256 refundAmount */\n      0x00\n        /* \"Campaign.sol\":6581:6595  approversMoney */\n      0x05\n        /* \"Campaign.sol\":6581:6608  approversMoney[contributor] */\n      0x00\n        /* \"Campaign.sol\":6596:6607  contributor */\n      dup4\n        /* \"Campaign.sol\":6581:6608  approversMoney[contributor] */\n      0xffffffffffffffffffffffffffffffffffffffff\n      and\n      0xffffffffffffffffffffffffffffffffffffffff\n      and\n      dup2\n      mstore\n      0x20\n      add\n      swap1\n      dup2\n      mstore\n      0x20\n      add\n      0x00\n      keccak256\n      sload\n        /* \"Campaign.sol\":6558:6608  uint256 refundAmount = approversMoney[contributor] */\n      swap1\n      pop\n        /* \"Campaign.sol\":6646:6647  0 */\n      0x00\n        /* \"Campaign.sol\":6631:6643  refundAmount */\n      dup2\n        /* \"Campaign.sol\":6631:6647  refundAmount > 0 */\n      gt\n        /* \"Campaign.sol\":6627:6900  if (refundAmount > 0) {... */\n      iszero\n      tag_245\n      jumpi\n        /* \"Campaign.sol\":6702:6703  0 */\n      0x00\n        /* \"Campaign.sol\":6672:6686  approversMoney */\n      0x05\n        /* \"Campaign.sol\":6672:6699  approversMoney[contributor] */\n      0x00\n        /* \"Campaign.sol\":6687:6698  contributor */\n      dup5\n        /* \"Campaign.sol\":6672:6699  approversMoney[contributor] */\n      0xffffffffffffffffffffffffffffffffffffffff\n      and\n      0xffffffffffffffffffffffffffffffffffffffff\n      and\n      dup2\n      mstore\n      0x20\n      add\n      swap1\n      dup2\n      mstore\n      0x20\n      add\n      0x00\n      keccak256\n        /* \"Campaign.sol\":6672:6703  approversMoney[contributor] = 0 */\n      dup2\n      swap1\n      sstore\n      pop\n        /* \"Campaign.sol\":6749:6754  token */\n      0x0c\n      0x01\n      swap1\n      sload\n      swap1\n      0x0100\n      exp\n      swap1\n      div\n      0xffffffffffffffffffffffffffffffffffffffff\n      and\n        /* \"Campaign.sol\":6734:6765  IERC20(address(token)).transfer */\n      0xffffffffffffffffffffffffffffffffffffffff\n      and\n      0xa9059cbb\n        /* \"Campaign.sol\":6766:6777  contributor */\n      dup4\n        /* \"Campaign.sol\":6779:6791  refundAmount */\n      dup4\n        /* \"Campaign.sol\":6734:6792  IERC20(address(token)).transfer(contributor, refundAmount) */\n      mload(0x40)\n      dup4\n      0xffffffff\n      and\n      0xe0\n      shl\n      dup2\n      mstore\n      0x04\n      add\n      tag_246\n      swap3\n      swap2\n      swap1\n      tag_193\n      jump\t// in\n    tag_246:\n      0x20\n      mload(0x40)\n      dup1\n      dup4\n      sub\n      dup2\n      0x00\n      dup8\n      gas\n      call\n      iszero\n      dup1\n      iszero\n      tag_248\n      jumpi\n      returndatacopy(0x00, 0x00, returndatasize)\n      revert(0x00, returndatasize)\n    tag_248:\n      pop\n      pop\n      pop\n      pop\n      mload(0x40)\n      returndatasize\n      not(0x1f)\n      0x1f\n      dup3\n      add\n      and\n      dup3\n      add\n      dup1\n      0x40\n      mstore\n      pop\n      dup2\n      add\n      swap1\n      tag_249\n      swap2\n      swap1\n      tag_211\n      jump\t// in\n    tag_249:\n        /* \"Campaign.sol\":6726:6810  require(IERC20(address(token)).transfer(contributor, refundAmount), \"Refund failed\") */\n      tag_250\n      jumpi\n      mload(0x40)\n      0x08c379a000000000000000000000000000000000000000000000000000000000\n      dup2\n      mstore\n      0x04\n      add\n      tag_251\n      swap1\n      tag_252\n      jump\t// in\n    tag_251:\n      mload(0x40)\n      dup1\n      swap2\n      sub\n      swap1\n      revert\n    tag_250:\n        /* \"Campaign.sol\":6854:6865  contributor */\n      dup2\n        /* \"Campaign.sol\":6838:6880  RefundProcessed(contributor, refundAmount) */\n      0xffffffffffffffffffffffffffffffffffffffff\n      and\n      0x3367befd2b2f39615cd79917c2153263c4af1d3945ec003e5d5bfc13a8d85833\n        /* \"Campaign.sol\":6867:6879  refundAmount */\n      dup3\n        /* \"Campaign.sol\":6838:6880  RefundProcessed(contributor, refundAmount) */\n      mload(0x40)\n      tag_253\n      swap2\n      swap1\n      tag_38\n      jump\t// in\n    tag_253:\n      mload(0x40)\n      dup1\n      swap2\n      sub\n      swap1\n      log2\n        /* \"Campaign.sol\":6627:6900  if (refundAmount > 0) {... */\n    tag_245:\n        /* \"Campaign.sol\":6539:6915  {... */\n      pop\n        /* \"Campaign.sol\":6505:6915  if (contributor != highestBidder) {... */\n    tag_244:\n        /* \"Campaign.sol\":6441:6926  {... */\n      pop\n        /* \"Campaign.sol\":6436:6439  i++ */\n      dup1\n      dup1\n      0x01\n      add\n      swap2\n      pop\n      pop\n        /* \"Campaign.sol\":6394:6926  for (uint256 i = 0; i < addresses.length; i++) {... */\n      jump(tag_237)\n    tag_238:\n      pop\n        /* \"Campaign.sol\":6955:6956  0 */\n      0x00\n        /* \"Campaign.sol\":6942:6952  highestBid */\n      sload(0x0a)\n        /* \"Campaign.sol\":6942:6956  highestBid > 0 */\n      gt\n        /* \"Campaign.sol\":6938:7125  if (highestBid > 0) {... */\n      iszero\n      tag_254\n      jumpi\n        /* \"Campaign.sol\":6996:7001  token */\n      0x0c\n      0x01\n      swap1\n      sload\n      swap1\n      0x0100\n      exp\n      swap1\n      div\n      0xffffffffffffffffffffffffffffffffffffffff\n      and\n        /* \"Campaign.sol\":6981:7012  IERC20(address(token)).transfer */\n      0xffffffffffffffffffffffffffffffffffffffff\n      and\n      0xa9059cbb\n        /* \"Campaign.sol\":7013:7020  manager */\n      0x00\n      0x00\n      swap1\n      sload\n      swap1\n      0x0100\n      exp\n      swap1\n      div\n      0xffffffffffffffffffffffffffffffffffffffff\n      and\n        /* \"Campaign.sol\":7022:7032  highestBid */\n      sload(0x0a)\n        /* \"Campaign.sol\":6981:7033  IERC20(address(token)).transfer(manager, highestBid) */\n      mload(0x40)\n      dup4\n      0xffffffff\n      and\n      0xe0\n      shl\n      dup2\n      mstore\n      0x04\n      add\n      tag_255\n      swap3\n      swap2\n      swap1\n      tag_193\n      jump\t// in\n    tag_255:\n      0x20\n      mload(0x40)\n      dup1\n      dup4\n      sub\n      dup2\n      0x00\n      dup8\n      gas\n      call\n      iszero\n      dup1\n      iszero\n      tag_257\n      jumpi\n      returndatacopy(0x00, 0x00, returndatasize)\n      revert(0x00, returndatasize)\n    tag_257:\n      pop\n      pop\n      pop\n      pop\n      mload(0x40)\n      returndatasize\n      not(0x1f)\n      0x1f\n      dup3\n      add\n      and\n      dup3\n      add\n      dup1\n      0x40\n      mstore\n      pop\n      dup2\n      add\n      swap1\n      tag_258\n      swap2\n      swap1\n      tag_211\n      jump\t// in\n    tag_258:\n        /* \"Campaign.sol\":6973:7062  require(IERC20(address(token)).transfer(manager, highestBid), \"Payment to seller failed\") */\n      tag_259\n      jumpi\n      mload(0x40)\n      0x08c379a000000000000000000000000000000000000000000000000000000000\n      dup2\n      mstore\n      0x04\n      add\n      tag_260\n      swap1\n      tag_261\n      jump\t// in\n    tag_260:\n      mload(0x40)\n      dup1\n      swap2\n      sub\n      swap1\n      revert\n    tag_259:\n        /* \"Campaign.sol\":7093:7100  manager */\n      0x00\n      0x00\n      swap1\n      sload\n      swap1\n      0x0100\n      exp\n      swap1\n      div\n      0xffffffffffffffffffffffffffffffffffffffff\n      and\n        /* \"Campaign.sol\":7082:7113  SellerPaid(manager, highestBid) */\n      0xffffffffffffffffffffffffffffffffffffffff\n      and\n      0xcb4a9094da4df77fb2c0dbaa5047660b1237e61d82a02176c1be74ca757f2531\n        /* \"Campaign.sol\":7102:7112  highestBid */\n      sload(0x0a)\n        /* \"Campaign.sol\":7082:7113  SellerPaid(manager, highestBid) */\n      mload(0x40)\n      tag_262\n      swap2\n      swap1\n      tag_38\n      jump\t// in\n    tag_262:\n      mload(0x40)\n      dup1\n      swap2\n      sub\n      swap1\n      log2\n        /* \"Campaign.sol\":6938:7125  if (highestBid > 0) {... */\n    tag_254:\n        /* \"Campaign.sol\":7146:7150  true */\n      0x01\n        /* \"Campaign.sol\":7137:7143  closed */\n      0x0c\n      0x00\n        /* \"Campaign.sol\":7137:7150  closed = true */\n      0x0100\n      exp\n      dup2\n      sload\n      dup2\n      0xff\n      mul\n      not\n      and\n      swap1\n      dup4\n      iszero\n      iszero\n      mul\n      or\n      swap1\n      sstore\n      pop\n        /* \"Campaign.sol\":6270:7158  function finalizeAuctionIfNeeded() public onlyAfterEnd {... */\n      jump\t// out\n        /* \"Campaign.sol\":1282:1307  Bid[] public transactions */\n    tag_89:\n      0x08\n      dup2\n      dup2\n      sload\n      dup2\n      lt\n      tag_263\n      jumpi\n      0x00\n      dup1\n      revert\n    tag_263:\n      swap1\n      0x00\n      mstore\n      keccak256(0x00, 0x20)\n      swap1\n      0x03\n      mul\n      add\n      0x00\n      swap2\n      pop\n      swap1\n      pop\n      dup1\n      0x00\n      add\n      sload\n      swap1\n      dup1\n      0x01\n      add\n      sload\n      swap1\n      dup1\n      0x02\n      add\n      0x00\n      swap1\n      sload\n      swap1\n      0x0100\n      exp\n      swap1\n      div\n      0xffffffffffffffffffffffffffffffffffffffff\n      and\n      swap1\n      pop\n      dup4\n      jump\t// out\n        /* \"Campaign.sol\":7713:7811  function getAddresses() public view returns (address[] memory) {... */\n    tag_93:\n        /* \"Campaign.sol\":7758:7774  address[] memory */\n      0x60\n        /* \"Campaign.sol\":7794:7803  addresses */\n      0x07\n        /* \"Campaign.sol\":7787:7803  return addresses */\n      dup1\n      sload\n      dup1\n      0x20\n      mul\n      0x20\n      add\n      mload(0x40)\n      swap1\n      dup2\n      add\n      0x40\n      mstore\n      dup1\n      swap3\n      swap2\n      swap1\n      dup2\n      dup2\n      mstore\n      0x20\n      add\n      dup3\n      dup1\n      sload\n      dup1\n      iszero\n      tag_266\n      jumpi\n      0x20\n      mul\n      dup3\n      add\n      swap2\n      swap1\n      0x00\n      mstore\n      keccak256(0x00, 0x20)\n      swap1\n    tag_267:\n      dup2\n      0x00\n      swap1\n      sload\n      swap1\n      0x0100\n      exp\n      swap1\n      div\n      0xffffffffffffffffffffffffffffffffffffffff\n      and\n      0xffffffffffffffffffffffffffffffffffffffff\n      and\n      dup2\n      mstore\n      0x20\n      add\n      swap1\n      0x01\n      add\n      swap1\n      dup1\n      dup4\n      gt\n      tag_267\n      jumpi\n    tag_266:\n      pop\n      pop\n      pop\n      pop\n      pop\n      swap1\n      pop\n        /* \"Campaign.sol\":7713:7811  function getAddresses() public view returns (address[] memory) {... */\n      swap1\n      jump\t// out\n        /* \"Campaign.sol\":2165:3386  function contribute(uint256 amount) public onlyBeforeEnd {... */\n    tag_98:\n        /* \"Campaign.sol\":1539:1546  endTime */\n      sload(0x0b)\n        /* \"Campaign.sol\":1521:1536  block.timestamp */\n      timestamp\n        /* \"Campaign.sol\":1521:1546  block.timestamp < endTime */\n      lt\n        /* \"Campaign.sol\":1513:1564  require(block.timestamp < endTime, \"Auction ended\") */\n      tag_269\n      jumpi\n      mload(0x40)\n      0x08c379a000000000000000000000000000000000000000000000000000000000\n      dup2\n      mstore\n      0x04\n      add\n      tag_270\n      swap1\n      tag_271\n      jump\t// in\n    tag_270:\n      mload(0x40)\n      dup1\n      swap2\n      sub\n      swap1\n      revert\n    tag_269:\n        /* \"Campaign.sol\":2255:2262  manager */\n      0x00\n      0x00\n      swap1\n      sload\n      swap1\n      0x0100\n      exp\n      swap1\n      div\n      0xffffffffffffffffffffffffffffffffffffffff\n      and\n        /* \"Campaign.sol\":2241:2262  msg.sender != manager */\n      0xffffffffffffffffffffffffffffffffffffffff\n      and\n        /* \"Campaign.sol\":2241:2251  msg.sender */\n      caller\n        /* \"Campaign.sol\":2241:2262  msg.sender != manager */\n      0xffffffffffffffffffffffffffffffffffffffff\n      and\n      sub\n        /* \"Campaign.sol\":2233:2300  require(msg.sender != manager, \"You can't bid on your own auction\") */\n      tag_273\n      jumpi\n      mload(0x40)\n      0x08c379a000000000000000000000000000000000000000000000000000000000\n      dup2\n      mstore\n      0x04\n      add\n      tag_274\n      swap1\n      tag_196\n      jump\t// in\n    tag_274:\n      mload(0x40)\n      dup1\n      swap2\n      sub\n      swap1\n      revert\n    tag_273:\n        /* \"Campaign.sol\":2313:2329  uint256 previous */\n      0x00\n        /* \"Campaign.sol\":2332:2346  approversMoney */\n      0x05\n        /* \"Campaign.sol\":2332:2358  approversMoney[msg.sender] */\n      0x00\n        /* \"Campaign.sol\":2347:2357  msg.sender */\n      caller\n        /* \"Campaign.sol\":2332:2358  approversMoney[msg.sender] */\n      0xffffffffffffffffffffffffffffffffffffffff\n      and\n      0xffffffffffffffffffffffffffffffffffffffff\n      and\n      dup2\n      mstore\n      0x20\n      add\n      swap1\n      dup2\n      mstore\n      0x20\n      add\n      0x00\n      keccak256\n      sload\n        /* \"Campaign.sol\":2313:2358  uint256 previous = approversMoney[msg.sender] */\n      swap1\n      pop\n        /* \"Campaign.sol\":2369:2385  uint256 newTotal */\n      0x00\n        /* \"Campaign.sol\":2399:2405  amount */\n      dup3\n        /* \"Campaign.sol\":2388:2396  previous */\n      dup3\n        /* \"Campaign.sol\":2388:2405  previous + amount */\n      tag_275\n      swap2\n      swap1\n      tag_198\n      jump\t// in\n    tag_275:\n        /* \"Campaign.sol\":2369:2405  uint256 newTotal = previous + amount */\n      swap1\n      pop\n        /* \"Campaign.sol\":2535:2536  0 */\n      0x00\n        /* \"Campaign.sol\":2523:2531  previous */\n      dup3\n        /* \"Campaign.sol\":2523:2536  previous == 0 */\n      sub\n        /* \"Campaign.sol\":2519:2626  if (previous == 0) {... */\n      tag_276\n      jumpi\n        /* \"Campaign.sol\":2573:2592  minimumContribution */\n      sload(0x01)\n        /* \"Campaign.sol\":2561:2569  newTotal */\n      dup2\n        /* \"Campaign.sol\":2561:2592  newTotal >= minimumContribution */\n      lt\n      iszero\n        /* \"Campaign.sol\":2553:2614  require(newTotal >= minimumContribution, \"Below minimum bid\") */\n      tag_277\n      jumpi\n      mload(0x40)\n      0x08c379a000000000000000000000000000000000000000000000000000000000\n      dup2\n      mstore\n      0x04\n      add\n      tag_278\n      swap1\n      tag_202\n      jump\t// in\n    tag_278:\n      mload(0x40)\n      dup1\n      swap2\n      sub\n      swap1\n      revert\n    tag_277:\n        /* \"Campaign.sol\":2519:2626  if (previous == 0) {... */\n    tag_276:\n        /* \"Campaign.sol\":2657:2667  highestBid */\n      sload(0x0a)\n        /* \"Campaign.sol\":2646:2654  newTotal */\n      dup2\n        /* \"Campaign.sol\":2646:2667  newTotal > highestBid */\n      gt\n        /* \"Campaign.sol\":2638:2703  require(newTotal > highestBid, \"Bid must exceed current highest\") */\n      tag_279\n      jumpi\n      mload(0x40)\n      0x08c379a000000000000000000000000000000000000000000000000000000000\n      dup2\n      mstore\n      0x04\n      add\n      tag_280\n      swap1\n      tag_205\n      jump\t// in\n    tag_280:\n      mload(0x40)\n      dup1\n      swap2\n      sub\n      swap1\n      revert\n    tag_279:\n        /* \"Campaign.sol\":2741:2746  token */\n      0x0c\n      0x01\n      swap1\n      sload\n      swap1\n      0x0100\n      exp\n      swap1\n      div\n      0xffffffffffffffffffffffffffffffffffffffff\n      and\n        /* \"Campaign.sol\":2726:2761  IERC20(address(token)).transferFrom */\n      0xffffffffffffffffffffffffffffffffffffffff\n      and\n      0x23b872dd\n        /* \"Campaign.sol\":2762:2772  msg.sender */\n      caller\n        /* \"Campaign.sol\":2782:2786  this */\n      address\n        /* \"Campaign.sol\":2789:2795  amount */\n      dup7\n        /* \"Campaign.sol\":2726:2796  IERC20(address(token)).transferFrom(msg.sender, address(this), amount) */\n      mload(0x40)\n      dup5\n      0xffffffff\n      and\n      0xe0\n      shl\n      dup2\n      mstore\n      0x04\n      add\n      tag_281\n      swap4\n      swap3\n      swap2\n      swap1\n      tag_207\n      jump\t// in\n    tag_281:\n      0x20\n      mload(0x40)\n      dup1\n      dup4\n      sub\n      dup2\n      0x00\n      dup8\n      gas\n      call\n      iszero\n      dup1\n      iszero\n      tag_283\n      jumpi\n      returndatacopy(0x00, 0x00, returndatasize)\n      revert(0x00, returndatasize)\n    tag_283:\n      pop\n      pop\n      pop\n      pop\n      mload(0x40)\n      returndatasize\n      not(0x1f)\n      0x1f\n      dup3\n      add\n      and\n      dup3\n      add\n      dup1\n      0x40\n      mstore\n      pop\n      dup2\n      add\n      swap1\n      tag_284\n      swap2\n      swap1\n      tag_211\n      jump\t// in\n    tag_284:\n        /* \"Campaign.sol\":2718:2816  require(IERC20(address(token)).transferFrom(msg.sender, address(this), amount), \"Transfer failed\") */\n      tag_285\n      jumpi\n      mload(0x40)\n      0x08c379a000000000000000000000000000000000000000000000000000000000\n      dup2\n      mstore\n      0x04\n      add\n      tag_286\n      swap1\n      tag_214\n      jump\t// in\n    tag_286:\n      mload(0x40)\n      dup1\n      swap2\n      sub\n      swap1\n      revert\n    tag_285:\n        /* \"Campaign.sol\":2916:2924  newTotal */\n      dup1\n        /* \"Campaign.sol\":2887:2901  approversMoney */\n      0x05\n        /* \"Campaign.sol\":2887:2913  approversMoney[msg.sender] */\n      0x00\n        /* \"Campaign.sol\":2902:2912  msg.sender */\n      caller\n        /* \"Campaign.sol\":2887:2913  approversMoney[msg.sender] */\n      0xffffffffffffffffffffffffffffffffffffffff\n      and\n      0xffffffffffffffffffffffffffffffffffffffff\n      and\n      dup2\n      mstore\n      0x20\n      add\n      swap1\n      dup2\n      mstore\n      0x20\n      add\n      0x00\n      keccak256\n        /* \"Campaign.sol\":2887:2924  approversMoney[msg.sender] = newTotal */\n      dup2\n      swap1\n      sstore\n      pop\n        /* \"Campaign.sol\":2948:2956  newTotal */\n      dup1\n        /* \"Campaign.sol\":2935:2945  highestBid */\n      0x0a\n        /* \"Campaign.sol\":2935:2956  highestBid = newTotal */\n      dup2\n      swap1\n      sstore\n      pop\n        /* \"Campaign.sol\":2983:2993  msg.sender */\n      caller\n        /* \"Campaign.sol\":2967:2980  highestBidder */\n      0x09\n      0x00\n        /* \"Campaign.sol\":2967:2993  highestBidder = msg.sender */\n      0x0100\n      exp\n      dup2\n      sload\n      dup2\n      0xffffffffffffffffffffffffffffffffffffffff\n      mul\n      not\n      and\n      swap1\n      dup4\n      0xffffffffffffffffffffffffffffffffffffffff\n      and\n      mul\n      or\n      swap1\n      sstore\n      pop\n        /* \"Campaign.sol\":3084:3096  transactions */\n      0x08\n        /* \"Campaign.sol\":3102:3142  Bid(amount, block.timestamp, msg.sender) */\n      mload(0x40)\n      dup1\n      0x60\n      add\n      0x40\n      mstore\n      dup1\n        /* \"Campaign.sol\":3106:3112  amount */\n      dup6\n        /* \"Campaign.sol\":3102:3142  Bid(amount, block.timestamp, msg.sender) */\n      dup2\n      mstore\n      0x20\n      add\n        /* \"Campaign.sol\":3114:3129  block.timestamp */\n      timestamp\n        /* \"Campaign.sol\":3102:3142  Bid(amount, block.timestamp, msg.sender) */\n      dup2\n      mstore\n      0x20\n      add\n        /* \"Campaign.sol\":3131:3141  msg.sender */\n      caller\n        /* \"Campaign.sol\":3102:3142  Bid(amount, block.timestamp, msg.sender) */\n      0xffffffffffffffffffffffffffffffffffffffff\n      and\n      dup2\n      mstore\n      pop\n        /* \"Campaign.sol\":3084:3143  transactions.push(Bid(amount, block.timestamp, msg.sender)) */\n      swap1\n      dup1\n      0x01\n      dup2\n      sload\n      add\n      dup1\n      dup3\n      sstore\n      dup1\n      swap2\n      pop\n      pop\n      0x01\n      swap1\n      sub\n      swap1\n      0x00\n      mstore\n      keccak256(0x00, 0x20)\n      swap1\n      0x03\n      mul\n      add\n      0x00\n      swap1\n      swap2\n      swap1\n      swap2\n      swap1\n      swap2\n      pop\n      0x00\n      dup3\n      add\n      mload\n      dup2\n      0x00\n      add\n      sstore\n      0x20\n      dup3\n      add\n      mload\n      dup2\n      0x01\n      add\n      sstore\n      0x40\n      dup3\n      add\n      mload\n      dup2\n      0x02\n      add\n      exp(0x0100, 0x00)\n      dup2\n      sload\n      dup2\n      0xffffffffffffffffffffffffffffffffffffffff\n      mul\n      not\n      and\n      swap1\n      dup4\n      0xffffffffffffffffffffffffffffffffffffffff\n      and\n      mul\n      or\n      swap1\n      sstore\n      pop\n      pop\n      pop\n        /* \"Campaign.sol\":3229:3238  approvers */\n      0x04\n        /* \"Campaign.sol\":3229:3250  approvers[msg.sender] */\n      0x00\n        /* \"Campaign.sol\":3239:3249  msg.sender */\n      caller\n        /* \"Campaign.sol\":3229:3250  approvers[msg.sender] */\n      0xffffffffffffffffffffffffffffffffffffffff\n      and\n      0xffffffffffffffffffffffffffffffffffffffff\n      and\n      dup2\n      mstore\n      0x20\n      add\n      swap1\n      dup2\n      mstore\n      0x20\n      add\n      0x00\n      keccak256\n      0x00\n      swap1\n      sload\n      swap1\n      0x0100\n      exp\n      swap1\n      div\n      0xff\n      and\n        /* \"Campaign.sol\":3224:3379  if (!approvers[msg.sender]) {... */\n      tag_288\n      jumpi\n        /* \"Campaign.sol\":3291:3295  true */\n      0x01\n        /* \"Campaign.sol\":3267:3276  approvers */\n      0x04\n        /* \"Campaign.sol\":3267:3288  approvers[msg.sender] */\n      0x00\n        /* \"Campaign.sol\":3277:3287  msg.sender */\n      caller\n        /* \"Campaign.sol\":3267:3288  approvers[msg.sender] */\n      0xffffffffffffffffffffffffffffffffffffffff\n      and\n      0xffffffffffffffffffffffffffffffffffffffff\n      and\n      dup2\n      mstore\n      0x20\n      add\n      swap1\n      dup2\n      mstore\n      0x20\n      add\n      0x00\n      keccak256\n      0x00\n        /* \"Campaign.sol\":3267:3295  approvers[msg.sender] = true */\n      0x0100\n      exp\n      dup2\n      sload\n      dup2\n      0xff\n      mul\n      not\n      and\n      swap1\n      dup4\n      iszero\n      iszero\n      mul\n      or\n      swap1\n      sstore\n      pop\n        /* \"Campaign.sol\":3310:3324  approversCount */\n      0x06\n      0x00\n        /* \"Campaign.sol\":3310:3326  approversCount++ */\n      dup2\n      sload\n      dup1\n      swap3\n      swap2\n      swap1\n      tag_289\n      swap1\n      tag_218\n      jump\t// in\n    tag_289:\n      swap2\n      swap1\n      pop\n      sstore\n      pop\n        /* \"Campaign.sol\":3341:3350  addresses */\n      0x07\n        /* \"Campaign.sol\":3356:3366  msg.sender */\n      caller\n        /* \"Campaign.sol\":3341:3367  addresses.push(msg.sender) */\n      swap1\n      dup1\n      0x01\n      dup2\n      sload\n      add\n      dup1\n      dup3\n      sstore\n      dup1\n      swap2\n      pop\n      pop\n      0x01\n      swap1\n      sub\n      swap1\n      0x00\n      mstore\n      keccak256(0x00, 0x20)\n      add\n      0x00\n      swap1\n      swap2\n      swap1\n      swap2\n      swap1\n      swap2\n      0x0100\n      exp\n      dup2\n      sload\n      dup2\n      0xffffffffffffffffffffffffffffffffffffffff\n      mul\n      not\n      and\n      swap1\n      dup4\n      0xffffffffffffffffffffffffffffffffffffffff\n      and\n      mul\n      or\n      swap1\n      sstore\n      pop\n        /* \"Campaign.sol\":3224:3379  if (!approvers[msg.sender]) {... */\n    tag_288:\n        /* \"Campaign.sol\":2222:3386  {... */\n      pop\n      pop\n        /* \"Campaign.sol\":2165:3386  function contribute(uint256 amount) public onlyBeforeEnd {... */\n      pop\n      jump\t// out\n        /* \"Campaign.sol\":7254:7364  function getBid(address bidder) public view returns (uint256) {... */\n    tag_101:\n        /* \"Campaign.sol\":7307:7314  uint256 */\n      0x00\n        /* \"Campaign.sol\":7334:7348  approversMoney */\n      0x05\n        /* \"Campaign.sol\":7334:7356  approversMoney[bidder] */\n      0x00\n        /* \"Campaign.sol\":7349:7355  bidder */\n      dup4\n        /* \"Campaign.sol\":7334:7356  approversMoney[bidder] */\n      0xffffffffffffffffffffffffffffffffffffffff\n      and\n      0xffffffffffffffffffffffffffffffffffffffff\n      and\n      dup2\n      mstore\n      0x20\n      add\n      swap1\n      dup2\n      mstore\n      0x20\n      add\n      0x00\n      keccak256\n      sload\n        /* \"Campaign.sol\":7327:7356  return approversMoney[bidder] */\n      swap1\n      pop\n        /* \"Campaign.sol\":7254:7364  function getBid(address bidder) public view returns (uint256) {... */\n      swap2\n      swap1\n      pop\n      jump\t// out\n        /* \"Campaign.sol\":1351:1376  uint256 public highestBid */\n    tag_104:\n      sload(0x0a)\n      dup2\n      jump\t// out\n        /* \"Campaign.sol\":1249:1275  address[] public addresses */\n    tag_108:\n      0x07\n      dup2\n      dup2\n      sload\n      dup2\n      lt\n      tag_292\n      jumpi\n      0x00\n      dup1\n      revert\n    tag_292:\n      swap1\n      0x00\n      mstore\n      keccak256(0x00, 0x20)\n      add\n      0x00\n      swap2\n      pop\n      sload\n      swap1\n      0x0100\n      exp\n      swap1\n      div\n      0xffffffffffffffffffffffffffffffffffffffff\n      and\n      dup2\n      jump\t// out\n        /* \"Campaign.sol\":1441:1466  IERC20Permit public token */\n    tag_111:\n      0x0c\n      0x01\n      swap1\n      sload\n      swap1\n      0x0100\n      exp\n      swap1\n      div\n      0xffffffffffffffffffffffffffffffffffffffff\n      and\n      dup2\n      jump\t// out\n        /* \"#utility.yul\":7:82   */\n    tag_294:\n        /* \"#utility.yul\":40:46   */\n      0x00\n        /* \"#utility.yul\":73:75   */\n      0x40\n        /* \"#utility.yul\":67:76   */\n      mload\n        /* \"#utility.yul\":57:76   */\n      swap1\n      pop\n        /* \"#utility.yul\":7:82   */\n      swap1\n      jump\t// out\n        /* \"#utility.yul\":88:205   */\n    tag_295:\n        /* \"#utility.yul\":197:198   */\n      0x00\n        /* \"#utility.yul\":194:195   */\n      0x00\n        /* \"#utility.yul\":187:199   */\n      revert\n        /* \"#utility.yul\":334:460   */\n    tag_297:\n        /* \"#utility.yul\":371:378   */\n      0x00\n        /* \"#utility.yul\":411:453   */\n      0xffffffffffffffffffffffffffffffffffffffff\n        /* \"#utility.yul\":404:409   */\n      dup3\n        /* \"#utility.yul\":400:454   */\n      and\n        /* \"#utility.yul\":389:454   */\n      swap1\n      pop\n        /* \"#utility.yul\":334:460   */\n      swap2\n      swap1\n      pop\n      jump\t// out\n        /* \"#utility.yul\":466:562   */\n    tag_298:\n        /* \"#utility.yul\":503:510   */\n      0x00\n        /* \"#utility.yul\":532:556   */\n      tag_387\n        /* \"#utility.yul\":550:555   */\n      dup3\n        /* \"#utility.yul\":532:556   */\n      tag_297\n      jump\t// in\n    tag_387:\n        /* \"#utility.yul\":521:556   */\n      swap1\n      pop\n        /* \"#utility.yul\":466:562   */\n      swap2\n      swap1\n      pop\n      jump\t// out\n        /* \"#utility.yul\":568:690   */\n    tag_299:\n        /* \"#utility.yul\":641:665   */\n      tag_389\n        /* \"#utility.yul\":659:664   */\n      dup2\n        /* \"#utility.yul\":641:665   */\n      tag_298\n      jump\t// in\n    tag_389:\n        /* \"#utility.yul\":634:639   */\n      dup2\n        /* \"#utility.yul\":631:666   */\n      eq\n        /* \"#utility.yul\":621:684   */\n      tag_390\n      jumpi\n        /* \"#utility.yul\":680:681   */\n      0x00\n        /* \"#utility.yul\":677:678   */\n      0x00\n        /* \"#utility.yul\":670:682   */\n      revert\n        /* \"#utility.yul\":621:684   */\n    tag_390:\n        /* \"#utility.yul\":568:690   */\n      pop\n      jump\t// out\n        /* \"#utility.yul\":696:835   */\n    tag_300:\n        /* \"#utility.yul\":742:747   */\n      0x00\n        /* \"#utility.yul\":780:786   */\n      dup2\n        /* \"#utility.yul\":767:787   */\n      calldataload\n        /* \"#utility.yul\":758:787   */\n      swap1\n      pop\n        /* \"#utility.yul\":796:829   */\n      tag_392\n        /* \"#utility.yul\":823:828   */\n      dup2\n        /* \"#utility.yul\":796:829   */\n      tag_299\n      jump\t// in\n    tag_392:\n        /* \"#utility.yul\":696:835   */\n      swap3\n      swap2\n      pop\n      pop\n      jump\t// out\n        /* \"#utility.yul\":841:1170   */\n    tag_31:\n        /* \"#utility.yul\":900:906   */\n      0x00\n        /* \"#utility.yul\":949:951   */\n      0x20\n        /* \"#utility.yul\":937:946   */\n      dup3\n        /* \"#utility.yul\":928:935   */\n      dup5\n        /* \"#utility.yul\":924:947   */\n      sub\n        /* \"#utility.yul\":920:952   */\n      slt\n        /* \"#utility.yul\":917:1036   */\n      iszero\n      tag_394\n      jumpi\n        /* \"#utility.yul\":955:1034   */\n      tag_395\n      tag_295\n      jump\t// in\n    tag_395:\n        /* \"#utility.yul\":917:1036   */\n    tag_394:\n        /* \"#utility.yul\":1075:1076   */\n      0x00\n        /* \"#utility.yul\":1100:1153   */\n      tag_396\n        /* \"#utility.yul\":1145:1152   */\n      dup5\n        /* \"#utility.yul\":1136:1142   */\n      dup3\n        /* \"#utility.yul\":1125:1134   */\n      dup6\n        /* \"#utility.yul\":1121:1143   */\n      add\n        /* \"#utility.yul\":1100:1153   */\n      tag_300\n      jump\t// in\n    tag_396:\n        /* \"#utility.yul\":1090:1153   */\n      swap2\n      pop\n        /* \"#utility.yul\":1046:1163   */\n      pop\n        /* \"#utility.yul\":841:1170   */\n      swap3\n      swap2\n      pop\n      pop\n      jump\t// out\n        /* \"#utility.yul\":1176:1266   */\n    tag_301:\n        /* \"#utility.yul\":1210:1217   */\n      0x00\n        /* \"#utility.yul\":1253:1258   */\n      dup2\n        /* \"#utility.yul\":1246:1259   */\n      iszero\n        /* \"#utility.yul\":1239:1260   */\n      iszero\n        /* \"#utility.yul\":1228:1260   */\n      swap1\n      pop\n        /* \"#utility.yul\":1176:1266   */\n      swap2\n      swap1\n      pop\n      jump\t// out\n        /* \"#utility.yul\":1272:1381   */\n    tag_302:\n        /* \"#utility.yul\":1353:1374   */\n      tag_399\n        /* \"#utility.yul\":1368:1373   */\n      dup2\n        /* \"#utility.yul\":1353:1374   */\n      tag_301\n      jump\t// in\n    tag_399:\n        /* \"#utility.yul\":1348:1351   */\n      dup3\n        /* \"#utility.yul\":1341:1375   */\n      mstore\n        /* \"#utility.yul\":1272:1381   */\n      pop\n      pop\n      jump\t// out\n        /* \"#utility.yul\":1387:1597   */\n    tag_34:\n        /* \"#utility.yul\":1474:1478   */\n      0x00\n        /* \"#utility.yul\":1512:1514   */\n      0x20\n        /* \"#utility.yul\":1501:1510   */\n      dup3\n        /* \"#utility.yul\":1497:1515   */\n      add\n        /* \"#utility.yul\":1489:1515   */\n      swap1\n      pop\n        /* \"#utility.yul\":1525:1590   */\n      tag_401\n        /* \"#utility.yul\":1587:1588   */\n      0x00\n        /* \"#utility.yul\":1576:1585   */\n      dup4\n        /* \"#utility.yul\":1572:1589   */\n      add\n        /* \"#utility.yul\":1563:1569   */\n      dup5\n        /* \"#utility.yul\":1525:1590   */\n      tag_302\n      jump\t// in\n    tag_401:\n        /* \"#utility.yul\":1387:1597   */\n      swap3\n      swap2\n      pop\n      pop\n      jump\t// out\n        /* \"#utility.yul\":1603:1680   */\n    tag_303:\n        /* \"#utility.yul\":1640:1647   */\n      0x00\n        /* \"#utility.yul\":1669:1674   */\n      dup2\n        /* \"#utility.yul\":1658:1674   */\n      swap1\n      pop\n        /* \"#utility.yul\":1603:1680   */\n      swap2\n      swap1\n      pop\n      jump\t// out\n        /* \"#utility.yul\":1686:1804   */\n    tag_304:\n        /* \"#utility.yul\":1773:1797   */\n      tag_404\n        /* \"#utility.yul\":1791:1796   */\n      dup2\n        /* \"#utility.yul\":1773:1797   */\n      tag_303\n      jump\t// in\n    tag_404:\n        /* \"#utility.yul\":1768:1771   */\n      dup3\n        /* \"#utility.yul\":1761:1798   */\n      mstore\n        /* \"#utility.yul\":1686:1804   */\n      pop\n      pop\n      jump\t// out\n        /* \"#utility.yul\":1810:2032   */\n    tag_38:\n        /* \"#utility.yul\":1903:1907   */\n      0x00\n        /* \"#utility.yul\":1941:1943   */\n      0x20\n        /* \"#utility.yul\":1930:1939   */\n      dup3\n        /* \"#utility.yul\":1926:1944   */\n      add\n        /* \"#utility.yul\":1918:1944   */\n      swap1\n      pop\n        /* \"#utility.yul\":1954:2025   */\n      tag_406\n        /* \"#utility.yul\":2022:2023   */\n      0x00\n        /* \"#utility.yul\":2011:2020   */\n      dup4\n        /* \"#utility.yul\":2007:2024   */\n      add\n        /* \"#utility.yul\":1998:2004   */\n      dup5\n        /* \"#utility.yul\":1954:2025   */\n      tag_304\n      jump\t// in\n    tag_406:\n        /* \"#utility.yul\":1810:2032   */\n      swap3\n      swap2\n      pop\n      pop\n      jump\t// out\n        /* \"#utility.yul\":2038:2137   */\n    tag_305:\n        /* \"#utility.yul\":2090:2096   */\n      0x00\n        /* \"#utility.yul\":2124:2129   */\n      dup2\n        /* \"#utility.yul\":2118:2130   */\n      mload\n        /* \"#utility.yul\":2108:2130   */\n      swap1\n      pop\n        /* \"#utility.yul\":2038:2137   */\n      swap2\n      swap1\n      pop\n      jump\t// out\n        /* \"#utility.yul\":2143:2312   */\n    tag_306:\n        /* \"#utility.yul\":2227:2238   */\n      0x00\n        /* \"#utility.yul\":2261:2267   */\n      dup3\n        /* \"#utility.yul\":2256:2259   */\n      dup3\n        /* \"#utility.yul\":2249:2268   */\n      mstore\n        /* \"#utility.yul\":2301:2305   */\n      0x20\n        /* \"#utility.yul\":2296:2299   */\n      dup3\n        /* \"#utility.yul\":2292:2306   */\n      add\n        /* \"#utility.yul\":2277:2306   */\n      swap1\n      pop\n        /* \"#utility.yul\":2143:2312   */\n      swap3\n      swap2\n      pop\n      pop\n      jump\t// out\n        /* \"#utility.yul\":2318:2457   */\n    tag_307:\n        /* \"#utility.yul\":2407:2413   */\n      dup3\n        /* \"#utility.yul\":2402:2405   */\n      dup2\n        /* \"#utility.yul\":2397:2400   */\n      dup4\n        /* \"#utility.yul\":2391:2414   */\n      mcopy\n        /* \"#utility.yul\":2448:2449   */\n      0x00\n        /* \"#utility.yul\":2439:2445   */\n      dup4\n        /* \"#utility.yul\":2434:2437   */\n      dup4\n        /* \"#utility.yul\":2430:2446   */\n      add\n        /* \"#utility.yul\":2423:2450   */\n      mstore\n        /* \"#utility.yul\":2318:2457   */\n      pop\n      pop\n      pop\n      jump\t// out\n        /* \"#utility.yul\":2463:2565   */\n    tag_308:\n        /* \"#utility.yul\":2504:2510   */\n      0x00\n        /* \"#utility.yul\":2555:2557   */\n      0x1f\n        /* \"#utility.yul\":2551:2558   */\n      not\n        /* \"#utility.yul\":2546:2548   */\n      0x1f\n        /* \"#utility.yul\":2539:2544   */\n      dup4\n        /* \"#utility.yul\":2535:2549   */\n      add\n        /* \"#utility.yul\":2531:2559   */\n      and\n        /* \"#utility.yul\":2521:2559   */\n      swap1\n      pop\n        /* \"#utility.yul\":2463:2565   */\n      swap2\n      swap1\n      pop\n      jump\t// out\n        /* \"#utility.yul\":2571:2948   */\n    tag_309:\n        /* \"#utility.yul\":2659:2662   */\n      0x00\n        /* \"#utility.yul\":2687:2726   */\n      tag_412\n        /* \"#utility.yul\":2720:2725   */\n      dup3\n        /* \"#utility.yul\":2687:2726   */\n      tag_305\n      jump\t// in\n    tag_412:\n        /* \"#utility.yul\":2742:2813   */\n      tag_413\n        /* \"#utility.yul\":2806:2812   */\n      dup2\n        /* \"#utility.yul\":2801:2804   */\n      dup6\n        /* \"#utility.yul\":2742:2813   */\n      tag_306\n      jump\t// in\n    tag_413:\n        /* \"#utility.yul\":2735:2813   */\n      swap4\n      pop\n        /* \"#utility.yul\":2822:2887   */\n      tag_414\n        /* \"#utility.yul\":2880:2886   */\n      dup2\n        /* \"#utility.yul\":2875:2878   */\n      dup6\n        /* \"#utility.yul\":2868:2872   */\n      0x20\n        /* \"#utility.yul\":2861:2866   */\n      dup7\n        /* \"#utility.yul\":2857:2873   */\n      add\n        /* \"#utility.yul\":2822:2887   */\n      tag_307\n      jump\t// in\n    tag_414:\n        /* \"#utility.yul\":2912:2941   */\n      tag_415\n        /* \"#utility.yul\":2934:2940   */\n      dup2\n        /* \"#utility.yul\":2912:2941   */\n      tag_308\n      jump\t// in\n    tag_415:\n        /* \"#utility.yul\":2907:2910   */\n      dup5\n        /* \"#utility.yul\":2903:2942   */\n      add\n        /* \"#utility.yul\":2896:2942   */\n      swap2\n      pop\n        /* \"#utility.yul\":2663:2948   */\n      pop\n        /* \"#utility.yul\":2571:2948   */\n      swap3\n      swap2\n      pop\n      pop\n      jump\t// out\n        /* \"#utility.yul\":2954:3267   */\n    tag_42:\n        /* \"#utility.yul\":3067:3071   */\n      0x00\n        /* \"#utility.yul\":3105:3107   */\n      0x20\n        /* \"#utility.yul\":3094:3103   */\n      dup3\n        /* \"#utility.yul\":3090:3108   */\n      add\n        /* \"#utility.yul\":3082:3108   */\n      swap1\n      pop\n        /* \"#utility.yul\":3154:3163   */\n      dup2\n        /* \"#utility.yul\":3148:3152   */\n      dup2\n        /* \"#utility.yul\":3144:3164   */\n      sub\n        /* \"#utility.yul\":3140:3141   */\n      0x00\n        /* \"#utility.yul\":3129:3138   */\n      dup4\n        /* \"#utility.yul\":3125:3142   */\n      add\n        /* \"#utility.yul\":3118:3165   */\n      mstore\n        /* \"#utility.yul\":3182:3260   */\n      tag_417\n        /* \"#utility.yul\":3255:3259   */\n      dup2\n        /* \"#utility.yul\":3246:3252   */\n      dup5\n        /* \"#utility.yul\":3182:3260   */\n      tag_309\n      jump\t// in\n    tag_417:\n        /* \"#utility.yul\":3174:3260   */\n      swap1\n      pop\n        /* \"#utility.yul\":2954:3267   */\n      swap3\n      swap2\n      pop\n      pop\n      jump\t// out\n        /* \"#utility.yul\":3273:3391   */\n    tag_310:\n        /* \"#utility.yul\":3360:3384   */\n      tag_419\n        /* \"#utility.yul\":3378:3383   */\n      dup2\n        /* \"#utility.yul\":3360:3384   */\n      tag_298\n      jump\t// in\n    tag_419:\n        /* \"#utility.yul\":3355:3358   */\n      dup3\n        /* \"#utility.yul\":3348:3385   */\n      mstore\n        /* \"#utility.yul\":3273:3391   */\n      pop\n      pop\n      jump\t// out\n        /* \"#utility.yul\":3397:3511   */\n    tag_311:\n        /* \"#utility.yul\":3464:3470   */\n      0x00\n        /* \"#utility.yul\":3498:3503   */\n      dup2\n        /* \"#utility.yul\":3492:3504   */\n      mload\n        /* \"#utility.yul\":3482:3504   */\n      swap1\n      pop\n        /* \"#utility.yul\":3397:3511   */\n      swap2\n      swap1\n      pop\n      jump\t// out\n        /* \"#utility.yul\":3517:3701   */\n    tag_312:\n        /* \"#utility.yul\":3616:3627   */\n      0x00\n        /* \"#utility.yul\":3650:3656   */\n      dup3\n        /* \"#utility.yul\":3645:3648   */\n      dup3\n        /* \"#utility.yul\":3638:3657   */\n      mstore\n        /* \"#utility.yul\":3690:3694   */\n      0x20\n        /* \"#utility.yul\":3685:3688   */\n      dup3\n        /* \"#utility.yul\":3681:3695   */\n      add\n        /* \"#utility.yul\":3666:3695   */\n      swap1\n      pop\n        /* \"#utility.yul\":3517:3701   */\n      swap3\n      swap2\n      pop\n      pop\n      jump\t// out\n        /* \"#utility.yul\":3707:3839   */\n    tag_313:\n        /* \"#utility.yul\":3774:3778   */\n      0x00\n        /* \"#utility.yul\":3797:3800   */\n      dup2\n        /* \"#utility.yul\":3789:3800   */\n      swap1\n      pop\n        /* \"#utility.yul\":3827:3831   */\n      0x20\n        /* \"#utility.yul\":3822:3825   */\n      dup3\n        /* \"#utility.yul\":3818:3832   */\n      add\n        /* \"#utility.yul\":3810:3832   */\n      swap1\n      pop\n        /* \"#utility.yul\":3707:3839   */\n      swap2\n      swap1\n      pop\n      jump\t// out\n        /* \"#utility.yul\":3845:3953   */\n    tag_314:\n        /* \"#utility.yul\":3922:3946   */\n      tag_424\n        /* \"#utility.yul\":3940:3945   */\n      dup2\n        /* \"#utility.yul\":3922:3946   */\n      tag_298\n      jump\t// in\n    tag_424:\n        /* \"#utility.yul\":3917:3920   */\n      dup3\n        /* \"#utility.yul\":3910:3947   */\n      mstore\n        /* \"#utility.yul\":3845:3953   */\n      pop\n      pop\n      jump\t// out\n        /* \"#utility.yul\":3959:4138   */\n    tag_315:\n        /* \"#utility.yul\":4028:4038   */\n      0x00\n        /* \"#utility.yul\":4049:4095   */\n      tag_426\n        /* \"#utility.yul\":4091:4094   */\n      dup4\n        /* \"#utility.yul\":4083:4089   */\n      dup4\n        /* \"#utility.yul\":4049:4095   */\n      tag_314\n      jump\t// in\n    tag_426:\n        /* \"#utility.yul\":4127:4131   */\n      0x20\n        /* \"#utility.yul\":4122:4125   */\n      dup4\n        /* \"#utility.yul\":4118:4132   */\n      add\n        /* \"#utility.yul\":4104:4132   */\n      swap1\n      pop\n        /* \"#utility.yul\":3959:4138   */\n      swap3\n      swap2\n      pop\n      pop\n      jump\t// out\n        /* \"#utility.yul\":4144:4257   */\n    tag_316:\n        /* \"#utility.yul\":4214:4218   */\n      0x00\n        /* \"#utility.yul\":4246:4250   */\n      0x20\n        /* \"#utility.yul\":4241:4244   */\n      dup3\n        /* \"#utility.yul\":4237:4251   */\n      add\n        /* \"#utility.yul\":4229:4251   */\n      swap1\n      pop\n        /* \"#utility.yul\":4144:4257   */\n      swap2\n      swap1\n      pop\n      jump\t// out\n        /* \"#utility.yul\":4293:5025   */\n    tag_317:\n        /* \"#utility.yul\":4412:4415   */\n      0x00\n        /* \"#utility.yul\":4441:4495   */\n      tag_429\n        /* \"#utility.yul\":4489:4494   */\n      dup3\n        /* \"#utility.yul\":4441:4495   */\n      tag_311\n      jump\t// in\n    tag_429:\n        /* \"#utility.yul\":4511:4597   */\n      tag_430\n        /* \"#utility.yul\":4590:4596   */\n      dup2\n        /* \"#utility.yul\":4585:4588   */\n      dup6\n        /* \"#utility.yul\":4511:4597   */\n      tag_312\n      jump\t// in\n    tag_430:\n        /* \"#utility.yul\":4504:4597   */\n      swap4\n      pop\n        /* \"#utility.yul\":4621:4677   */\n      tag_431\n        /* \"#utility.yul\":4671:4676   */\n      dup4\n        /* \"#utility.yul\":4621:4677   */\n      tag_313\n      jump\t// in\n    tag_431:\n        /* \"#utility.yul\":4700:4707   */\n      dup1\n        /* \"#utility.yul\":4731:4732   */\n      0x00\n        /* \"#utility.yul\":4716:5000   */\n    tag_432:\n        /* \"#utility.yul\":4741:4747   */\n      dup4\n        /* \"#utility.yul\":4738:4739   */\n      dup2\n        /* \"#utility.yul\":4735:4748   */\n      lt\n        /* \"#utility.yul\":4716:5000   */\n      iszero\n      tag_434\n      jumpi\n        /* \"#utility.yul\":4817:4823   */\n      dup2\n        /* \"#utility.yul\":4811:4824   */\n      mload\n        /* \"#utility.yul\":4844:4907   */\n      tag_435\n        /* \"#utility.yul\":4903:4906   */\n      dup9\n        /* \"#utility.yul\":4888:4901   */\n      dup3\n        /* \"#utility.yul\":4844:4907   */\n      tag_315\n      jump\t// in\n    tag_435:\n        /* \"#utility.yul\":4837:4907   */\n      swap8\n      pop\n        /* \"#utility.yul\":4930:4990   */\n      tag_436\n        /* \"#utility.yul\":4983:4989   */\n      dup4\n        /* \"#utility.yul\":4930:4990   */\n      tag_316\n      jump\t// in\n    tag_436:\n        /* \"#utility.yul\":4920:4990   */\n      swap3\n      pop\n        /* \"#utility.yul\":4776:5000   */\n      pop\n        /* \"#utility.yul\":4763:4764   */\n      0x01\n        /* \"#utility.yul\":4760:4761   */\n      dup2\n        /* \"#utility.yul\":4756:4765   */\n      add\n        /* \"#utility.yul\":4751:4765   */\n      swap1\n      pop\n        /* \"#utility.yul\":4716:5000   */\n      jump(tag_432)\n    tag_434:\n        /* \"#utility.yul\":4720:4734   */\n      pop\n        /* \"#utility.yul\":5016:5019   */\n      dup6\n        /* \"#utility.yul\":5009:5019   */\n      swap4\n      pop\n        /* \"#utility.yul\":4417:5025   */\n      pop\n      pop\n      pop\n        /* \"#utility.yul\":4293:5025   */\n      swap3\n      swap2\n      pop\n      pop\n      jump\t// out\n        /* \"#utility.yul\":5031:6583   */\n    tag_46:\n        /* \"#utility.yul\":5466:5470   */\n      0x00\n        /* \"#utility.yul\":5504:5507   */\n      0x0140\n        /* \"#utility.yul\":5493:5502   */\n      dup3\n        /* \"#utility.yul\":5489:5508   */\n      add\n        /* \"#utility.yul\":5481:5508   */\n      swap1\n      pop\n        /* \"#utility.yul\":5518:5589   */\n      tag_438\n        /* \"#utility.yul\":5586:5587   */\n      0x00\n        /* \"#utility.yul\":5575:5584   */\n      dup4\n        /* \"#utility.yul\":5571:5588   */\n      add\n        /* \"#utility.yul\":5562:5568   */\n      dup14\n        /* \"#utility.yul\":5518:5589   */\n      tag_304\n      jump\t// in\n    tag_438:\n        /* \"#utility.yul\":5599:5671   */\n      tag_439\n        /* \"#utility.yul\":5667:5669   */\n      0x20\n        /* \"#utility.yul\":5656:5665   */\n      dup4\n        /* \"#utility.yul\":5652:5670   */\n      add\n        /* \"#utility.yul\":5643:5649   */\n      dup13\n        /* \"#utility.yul\":5599:5671   */\n      tag_304\n      jump\t// in\n    tag_439:\n        /* \"#utility.yul\":5681:5753   */\n      tag_440\n        /* \"#utility.yul\":5749:5751   */\n      0x40\n        /* \"#utility.yul\":5738:5747   */\n      dup4\n        /* \"#utility.yul\":5734:5752   */\n      add\n        /* \"#utility.yul\":5725:5731   */\n      dup12\n        /* \"#utility.yul\":5681:5753   */\n      tag_304\n      jump\t// in\n    tag_440:\n        /* \"#utility.yul\":5763:5835   */\n      tag_441\n        /* \"#utility.yul\":5831:5833   */\n      0x60\n        /* \"#utility.yul\":5820:5829   */\n      dup4\n        /* \"#utility.yul\":5816:5834   */\n      add\n        /* \"#utility.yul\":5807:5813   */\n      dup11\n        /* \"#utility.yul\":5763:5835   */\n      tag_310\n      jump\t// in\n    tag_441:\n        /* \"#utility.yul\":5845:5918   */\n      tag_442\n        /* \"#utility.yul\":5913:5916   */\n      0x80\n        /* \"#utility.yul\":5902:5911   */\n      dup4\n        /* \"#utility.yul\":5898:5917   */\n      add\n        /* \"#utility.yul\":5889:5895   */\n      dup10\n        /* \"#utility.yul\":5845:5918   */\n      tag_304\n      jump\t// in\n    tag_442:\n        /* \"#utility.yul\":5966:5975   */\n      dup2\n        /* \"#utility.yul\":5960:5964   */\n      dup2\n        /* \"#utility.yul\":5956:5976   */\n      sub\n        /* \"#utility.yul\":5950:5953   */\n      0xa0\n        /* \"#utility.yul\":5939:5948   */\n      dup4\n        /* \"#utility.yul\":5935:5954   */\n      add\n        /* \"#utility.yul\":5928:5977   */\n      mstore\n        /* \"#utility.yul\":5994:6072   */\n      tag_443\n        /* \"#utility.yul\":6067:6071   */\n      dup2\n        /* \"#utility.yul\":6058:6064   */\n      dup9\n        /* \"#utility.yul\":5994:6072   */\n      tag_309\n      jump\t// in\n    tag_443:\n        /* \"#utility.yul\":5986:6072   */\n      swap1\n      pop\n        /* \"#utility.yul\":6120:6129   */\n      dup2\n        /* \"#utility.yul\":6114:6118   */\n      dup2\n        /* \"#utility.yul\":6110:6130   */\n      sub\n        /* \"#utility.yul\":6104:6107   */\n      0xc0\n        /* \"#utility.yul\":6093:6102   */\n      dup4\n        /* \"#utility.yul\":6089:6108   */\n      add\n        /* \"#utility.yul\":6082:6131   */\n      mstore\n        /* \"#utility.yul\":6148:6226   */\n      tag_444\n        /* \"#utility.yul\":6221:6225   */\n      dup2\n        /* \"#utility.yul\":6212:6218   */\n      dup8\n        /* \"#utility.yul\":6148:6226   */\n      tag_309\n      jump\t// in\n    tag_444:\n        /* \"#utility.yul\":6140:6226   */\n      swap1\n      pop\n        /* \"#utility.yul\":6236:6309   */\n      tag_445\n        /* \"#utility.yul\":6304:6307   */\n      0xe0\n        /* \"#utility.yul\":6293:6302   */\n      dup4\n        /* \"#utility.yul\":6289:6308   */\n      add\n        /* \"#utility.yul\":6280:6286   */\n      dup7\n        /* \"#utility.yul\":6236:6309   */\n      tag_310\n      jump\t// in\n    tag_445:\n        /* \"#utility.yul\":6357:6366   */\n      dup2\n        /* \"#utility.yul\":6351:6355   */\n      dup2\n        /* \"#utility.yul\":6347:6367   */\n      sub\n        /* \"#utility.yul\":6341:6344   */\n      0x0100\n        /* \"#utility.yul\":6330:6339   */\n      dup4\n        /* \"#utility.yul\":6326:6345   */\n      add\n        /* \"#utility.yul\":6319:6368   */\n      mstore\n        /* \"#utility.yul\":6385:6493   */\n      tag_446\n        /* \"#utility.yul\":6488:6492   */\n      dup2\n        /* \"#utility.yul\":6479:6485   */\n      dup6\n        /* \"#utility.yul\":6385:6493   */\n      tag_317\n      jump\t// in\n    tag_446:\n        /* \"#utility.yul\":6377:6493   */\n      swap1\n      pop\n        /* \"#utility.yul\":6503:6576   */\n      tag_447\n        /* \"#utility.yul\":6571:6574   */\n      0x0120\n        /* \"#utility.yul\":6560:6569   */\n      dup4\n        /* \"#utility.yul\":6556:6575   */\n      add\n        /* \"#utility.yul\":6547:6553   */\n      dup5\n        /* \"#utility.yul\":6503:6576   */\n      tag_304\n      jump\t// in\n    tag_447:\n        /* \"#utility.yul\":5031:6583   */\n      swap12\n      swap11\n      pop\n      pop\n      pop\n      pop\n      pop\n      pop\n      pop\n      pop\n      pop\n      pop\n      pop\n      jump\t// out\n        /* \"#utility.yul\":6589:6811   */\n    tag_50:\n        /* \"#utility.yul\":6682:6686   */\n      0x00\n        /* \"#utility.yul\":6720:6722   */\n      0x20\n        /* \"#utility.yul\":6709:6718   */\n      dup3\n        /* \"#utility.yul\":6705:6723   */\n      add\n        /* \"#utility.yul\":6697:6723   */\n      swap1\n      pop\n        /* \"#utility.yul\":6733:6804   */\n      tag_449\n        /* \"#utility.yul\":6801:6802   */\n      0x00\n        /* \"#utility.yul\":6790:6799   */\n      dup4\n        /* \"#utility.yul\":6786:6803   */\n      add\n        /* \"#utility.yul\":6777:6783   */\n      dup5\n        /* \"#utility.yul\":6733:6804   */\n      tag_310\n      jump\t// in\n    tag_449:\n        /* \"#utility.yul\":6589:6811   */\n      swap3\n      swap2\n      pop\n      pop\n      jump\t// out\n        /* \"#utility.yul\":6817:6939   */\n    tag_318:\n        /* \"#utility.yul\":6890:6914   */\n      tag_451\n        /* \"#utility.yul\":6908:6913   */\n      dup2\n        /* \"#utility.yul\":6890:6914   */\n      tag_303\n      jump\t// in\n    tag_451:\n        /* \"#utility.yul\":6883:6888   */\n      dup2\n        /* \"#utility.yul\":6880:6915   */\n      eq\n        /* \"#utility.yul\":6870:6933   */\n      tag_452\n      jumpi\n        /* \"#utility.yul\":6929:6930   */\n      0x00\n        /* \"#utility.yul\":6926:6927   */\n      0x00\n        /* \"#utility.yul\":6919:6931   */\n      revert\n        /* \"#utility.yul\":6870:6933   */\n    tag_452:\n        /* \"#utility.yul\":6817:6939   */\n      pop\n      jump\t// out\n        /* \"#utility.yul\":6945:7084   */\n    tag_319:\n        /* \"#utility.yul\":6991:6996   */\n      0x00\n        /* \"#utility.yul\":7029:7035   */\n      dup2\n        /* \"#utility.yul\":7016:7036   */\n      calldataload\n        /* \"#utility.yul\":7007:7036   */\n      swap1\n      pop\n        /* \"#utility.yul\":7045:7078   */\n      tag_454\n        /* \"#utility.yul\":7072:7077   */\n      dup2\n        /* \"#utility.yul\":7045:7078   */\n      tag_318\n      jump\t// in\n    tag_454:\n        /* \"#utility.yul\":6945:7084   */\n      swap3\n      swap2\n      pop\n      pop\n      jump\t// out\n        /* \"#utility.yul\":7090:7176   */\n    tag_320:\n        /* \"#utility.yul\":7125:7132   */\n      0x00\n        /* \"#utility.yul\":7165:7169   */\n      0xff\n        /* \"#utility.yul\":7158:7163   */\n      dup3\n        /* \"#utility.yul\":7154:7170   */\n      and\n        /* \"#utility.yul\":7143:7170   */\n      swap1\n      pop\n        /* \"#utility.yul\":7090:7176   */\n      swap2\n      swap1\n      pop\n      jump\t// out\n        /* \"#utility.yul\":7182:7300   */\n    tag_321:\n        /* \"#utility.yul\":7253:7275   */\n      tag_457\n        /* \"#utility.yul\":7269:7274   */\n      dup2\n        /* \"#utility.yul\":7253:7275   */\n      tag_320\n      jump\t// in\n    tag_457:\n        /* \"#utility.yul\":7246:7251   */\n      dup2\n        /* \"#utility.yul\":7243:7276   */\n      eq\n        /* \"#utility.yul\":7233:7294   */\n      tag_458\n      jumpi\n        /* \"#utility.yul\":7290:7291   */\n      0x00\n        /* \"#utility.yul\":7287:7288   */\n      0x00\n        /* \"#utility.yul\":7280:7292   */\n      revert\n        /* \"#utility.yul\":7233:7294   */\n    tag_458:\n        /* \"#utility.yul\":7182:7300   */\n      pop\n      jump\t// out\n        /* \"#utility.yul\":7306:7441   */\n    tag_322:\n        /* \"#utility.yul\":7350:7355   */\n      0x00\n        /* \"#utility.yul\":7388:7394   */\n      dup2\n        /* \"#utility.yul\":7375:7395   */\n      calldataload\n        /* \"#utility.yul\":7366:7395   */\n      swap1\n      pop\n        /* \"#utility.yul\":7404:7435   */\n      tag_460\n        /* \"#utility.yul\":7429:7434   */\n      dup2\n        /* \"#utility.yul\":7404:7435   */\n      tag_321\n      jump\t// in\n    tag_460:\n        /* \"#utility.yul\":7306:7441   */\n      swap3\n      swap2\n      pop\n      pop\n      jump\t// out\n        /* \"#utility.yul\":7447:7524   */\n    tag_323:\n        /* \"#utility.yul\":7484:7491   */\n      0x00\n        /* \"#utility.yul\":7513:7518   */\n      dup2\n        /* \"#utility.yul\":7502:7518   */\n      swap1\n      pop\n        /* \"#utility.yul\":7447:7524   */\n      swap2\n      swap1\n      pop\n      jump\t// out\n        /* \"#utility.yul\":7530:7652   */\n    tag_324:\n        /* \"#utility.yul\":7603:7627   */\n      tag_463\n        /* \"#utility.yul\":7621:7626   */\n      dup2\n        /* \"#utility.yul\":7603:7627   */\n      tag_323\n      jump\t// in\n    tag_463:\n        /* \"#utility.yul\":7596:7601   */\n      dup2\n        /* \"#utility.yul\":7593:7628   */\n      eq\n        /* \"#utility.yul\":7583:7646   */\n      tag_464\n      jumpi\n        /* \"#utility.yul\":7642:7643   */\n      0x00\n        /* \"#utility.yul\":7639:7640   */\n      0x00\n        /* \"#utility.yul\":7632:7644   */\n      revert\n        /* \"#utility.yul\":7583:7646   */\n    tag_464:\n        /* \"#utility.yul\":7530:7652   */\n      pop\n      jump\t// out\n        /* \"#utility.yul\":7658:7797   */\n    tag_325:\n        /* \"#utility.yul\":7704:7709   */\n      0x00\n        /* \"#utility.yul\":7742:7748   */\n      dup2\n        /* \"#utility.yul\":7729:7749   */\n      calldataload\n        /* \"#utility.yul\":7720:7749   */\n      swap1\n      pop\n        /* \"#utility.yul\":7758:7791   */\n      tag_466\n        /* \"#utility.yul\":7785:7790   */\n      dup2\n        /* \"#utility.yul\":7758:7791   */\n      tag_324\n      jump\t// in\n    tag_466:\n        /* \"#utility.yul\":7658:7797   */\n      swap3\n      swap2\n      pop\n      pop\n      jump\t// out\n        /* \"#utility.yul\":7803:8710   */\n    tag_66:\n        /* \"#utility.yul\":7896:7902   */\n      0x00\n        /* \"#utility.yul\":7904:7910   */\n      0x00\n        /* \"#utility.yul\":7912:7918   */\n      0x00\n        /* \"#utility.yul\":7920:7926   */\n      0x00\n        /* \"#utility.yul\":7928:7934   */\n      0x00\n        /* \"#utility.yul\":7977:7980   */\n      0xa0\n        /* \"#utility.yul\":7965:7974   */\n      dup7\n        /* \"#utility.yul\":7956:7963   */\n      dup9\n        /* \"#utility.yul\":7952:7975   */\n      sub\n        /* \"#utility.yul\":7948:7981   */\n      slt\n        /* \"#utility.yul\":7945:8065   */\n      iszero\n      tag_468\n      jumpi\n        /* \"#utility.yul\":7984:8063   */\n      tag_469\n      tag_295\n      jump\t// in\n    tag_469:\n        /* \"#utility.yul\":7945:8065   */\n    tag_468:\n        /* \"#utility.yul\":8104:8105   */\n      0x00\n        /* \"#utility.yul\":8129:8182   */\n      tag_470\n        /* \"#utility.yul\":8174:8181   */\n      dup9\n        /* \"#utility.yul\":8165:8171   */\n      dup3\n        /* \"#utility.yul\":8154:8163   */\n      dup10\n        /* \"#utility.yul\":8150:8172   */\n      add\n        /* \"#utility.yul\":8129:8182   */\n      tag_319\n      jump\t// in\n    tag_470:\n        /* \"#utility.yul\":8119:8182   */\n      swap6\n      pop\n        /* \"#utility.yul\":8075:8192   */\n      pop\n        /* \"#utility.yul\":8231:8233   */\n      0x20\n        /* \"#utility.yul\":8257:8310   */\n      tag_471\n        /* \"#utility.yul\":8302:8309   */\n      dup9\n        /* \"#utility.yul\":8293:8299   */\n      dup3\n        /* \"#utility.yul\":8282:8291   */\n      dup10\n        /* \"#utility.yul\":8278:8300   */\n      add\n        /* \"#utility.yul\":8257:8310   */\n      tag_319\n      jump\t// in\n    tag_471:\n        /* \"#utility.yul\":8247:8310   */\n      swap5\n      pop\n        /* \"#utility.yul\":8202:8320   */\n      pop\n        /* \"#utility.yul\":8359:8361   */\n      0x40\n        /* \"#utility.yul\":8385:8436   */\n      tag_472\n        /* \"#utility.yul\":8428:8435   */\n      dup9\n        /* \"#utility.yul\":8419:8425   */\n      dup3\n        /* \"#utility.yul\":8408:8417   */\n      dup10\n        /* \"#utility.yul\":8404:8426   */\n      add\n        /* \"#utility.yul\":8385:8436   */\n      tag_322\n      jump\t// in\n    tag_472:\n        /* \"#utility.yul\":8375:8436   */\n      swap4\n      pop\n        /* \"#utility.yul\":8330:8446   */\n      pop\n        /* \"#utility.yul\":8485:8487   */\n      0x60\n        /* \"#utility.yul\":8511:8564   */\n      tag_473\n        /* \"#utility.yul\":8556:8563   */\n      dup9\n        /* \"#utility.yul\":8547:8553   */\n      dup3\n        /* \"#utility.yul\":8536:8545   */\n      dup10\n        /* \"#utility.yul\":8532:8554   */\n      add\n        /* \"#utility.yul\":8511:8564   */\n      tag_325\n      jump\t// in\n    tag_473:\n        /* \"#utility.yul\":8501:8564   */\n      swap3\n      pop\n        /* \"#utility.yul\":8456:8574   */\n      pop\n        /* \"#utility.yul\":8613:8616   */\n      0x80\n        /* \"#utility.yul\":8640:8693   */\n      tag_474\n        /* \"#utility.yul\":8685:8692   */\n      dup9\n        /* \"#utility.yul\":8676:8682   */\n      dup3\n        /* \"#utility.yul\":8665:8674   */\n      dup10\n        /* \"#utility.yul\":8661:8683   */\n      add\n        /* \"#utility.yul\":8640:8693   */\n      tag_325\n      jump\t// in\n    tag_474:\n        /* \"#utility.yul\":8630:8693   */\n      swap2\n      pop\n        /* \"#utility.yul\":8584:8703   */\n      pop\n        /* \"#utility.yul\":7803:8710   */\n      swap3\n      swap6\n      pop\n      swap3\n      swap6\n      swap1\n      swap4\n      pop\n      jump\t// out\n        /* \"#utility.yul\":8716:8849   */\n    tag_326:\n        /* \"#utility.yul\":8802:8808   */\n      0x00\n        /* \"#utility.yul\":8836:8841   */\n      dup2\n        /* \"#utility.yul\":8830:8842   */\n      mload\n        /* \"#utility.yul\":8820:8842   */\n      swap1\n      pop\n        /* \"#utility.yul\":8716:8849   */\n      swap2\n      swap1\n      pop\n      jump\t// out\n        /* \"#utility.yul\":8855:9058   */\n    tag_327:\n        /* \"#utility.yul\":8973:8984   */\n      0x00\n        /* \"#utility.yul\":9007:9013   */\n      dup3\n        /* \"#utility.yul\":9002:9005   */\n      dup3\n        /* \"#utility.yul\":8995:9014   */\n      mstore\n        /* \"#utility.yul\":9047:9051   */\n      0x20\n        /* \"#utility.yul\":9042:9045   */\n      dup3\n        /* \"#utility.yul\":9038:9052   */\n      add\n        /* \"#utility.yul\":9023:9052   */\n      swap1\n      pop\n        /* \"#utility.yul\":8855:9058   */\n      swap3\n      swap2\n      pop\n      pop\n      jump\t// out\n        /* \"#utility.yul\":9064:9215   */\n    tag_328:\n        /* \"#utility.yul\":9150:9154   */\n      0x00\n        /* \"#utility.yul\":9173:9176   */\n      dup2\n        /* \"#utility.yul\":9165:9176   */\n      swap1\n      pop\n        /* \"#utility.yul\":9203:9207   */\n      0x20\n        /* \"#utility.yul\":9198:9201   */\n      dup3\n        /* \"#utility.yul\":9194:9208   */\n      add\n        /* \"#utility.yul\":9186:9208   */\n      swap1\n      pop\n        /* \"#utility.yul\":9064:9215   */\n      swap2\n      swap1\n      pop\n      jump\t// out\n        /* \"#utility.yul\":9221:9329   */\n    tag_329:\n        /* \"#utility.yul\":9298:9322   */\n      tag_479\n        /* \"#utility.yul\":9316:9321   */\n      dup2\n        /* \"#utility.yul\":9298:9322   */\n      tag_303\n      jump\t// in\n    tag_479:\n        /* \"#utility.yul\":9293:9296   */\n      dup3\n        /* \"#utility.yul\":9286:9323   */\n      mstore\n        /* \"#utility.yul\":9221:9329   */\n      pop\n      pop\n      jump\t// out\n        /* \"#utility.yul\":9385:10054   */\n    tag_330:\n        /* \"#utility.yul\":9510:9514   */\n      0x60\n        /* \"#utility.yul\":9505:9508   */\n      dup3\n        /* \"#utility.yul\":9501:9515   */\n      add\n        /* \"#utility.yul\":9598:9602   */\n      0x00\n        /* \"#utility.yul\":9591:9596   */\n      dup3\n        /* \"#utility.yul\":9587:9603   */\n      add\n        /* \"#utility.yul\":9581:9604   */\n      mload\n        /* \"#utility.yul\":9617:9680   */\n      tag_481\n        /* \"#utility.yul\":9674:9678   */\n      0x00\n        /* \"#utility.yul\":9669:9672   */\n      dup6\n        /* \"#utility.yul\":9665:9679   */\n      add\n        /* \"#utility.yul\":9651:9663   */\n      dup3\n        /* \"#utility.yul\":9617:9680   */\n      tag_329\n      jump\t// in\n    tag_481:\n        /* \"#utility.yul\":9525:9690   */\n      pop\n        /* \"#utility.yul\":9772:9776   */\n      0x20\n        /* \"#utility.yul\":9765:9770   */\n      dup3\n        /* \"#utility.yul\":9761:9777   */\n      add\n        /* \"#utility.yul\":9755:9778   */\n      mload\n        /* \"#utility.yul\":9791:9854   */\n      tag_482\n        /* \"#utility.yul\":9848:9852   */\n      0x20\n        /* \"#utility.yul\":9843:9846   */\n      dup6\n        /* \"#utility.yul\":9839:9853   */\n      add\n        /* \"#utility.yul\":9825:9837   */\n      dup3\n        /* \"#utility.yul\":9791:9854   */\n      tag_329\n      jump\t// in\n    tag_482:\n        /* \"#utility.yul\":9700:9864   */\n      pop\n        /* \"#utility.yul\":9955:9959   */\n      0x40\n        /* \"#utility.yul\":9948:9953   */\n      dup3\n        /* \"#utility.yul\":9944:9960   */\n      add\n        /* \"#utility.yul\":9938:9961   */\n      mload\n        /* \"#utility.yul\":9974:10037   */\n      tag_483\n        /* \"#utility.yul\":10031:10035   */\n      0x40\n        /* \"#utility.yul\":10026:10029   */\n      dup6\n        /* \"#utility.yul\":10022:10036   */\n      add\n        /* \"#utility.yul\":10008:10020   */\n      dup3\n        /* \"#utility.yul\":9974:10037   */\n      tag_314\n      jump\t// in\n    tag_483:\n        /* \"#utility.yul\":9874:10047   */\n      pop\n        /* \"#utility.yul\":9479:10054   */\n      pop\n        /* \"#utility.yul\":9385:10054   */\n      pop\n      pop\n      jump\t// out\n        /* \"#utility.yul\":10060:10315   */\n    tag_331:\n        /* \"#utility.yul\":10167:10177   */\n      0x00\n        /* \"#utility.yul\":10188:10272   */\n      tag_485\n        /* \"#utility.yul\":10268:10271   */\n      dup4\n        /* \"#utility.yul\":10260:10266   */\n      dup4\n        /* \"#utility.yul\":10188:10272   */\n      tag_330\n      jump\t// in\n    tag_485:\n        /* \"#utility.yul\":10304:10308   */\n      0x60\n        /* \"#utility.yul\":10299:10302   */\n      dup4\n        /* \"#utility.yul\":10295:10309   */\n      add\n        /* \"#utility.yul\":10281:10309   */\n      swap1\n      pop\n        /* \"#utility.yul\":10060:10315   */\n      swap3\n      swap2\n      pop\n      pop\n      jump\t// out\n        /* \"#utility.yul\":10321:10453   */\n    tag_332:\n        /* \"#utility.yul\":10410:10414   */\n      0x00\n        /* \"#utility.yul\":10442:10446   */\n      0x20\n        /* \"#utility.yul\":10437:10440   */\n      dup3\n        /* \"#utility.yul\":10433:10447   */\n      add\n        /* \"#utility.yul\":10425:10447   */\n      swap1\n      pop\n        /* \"#utility.yul\":10321:10453   */\n      swap2\n      swap1\n      pop\n      jump\t// out\n        /* \"#utility.yul\":10513:11397   */\n    tag_333:\n        /* \"#utility.yul\":10670:10673   */\n      0x00\n        /* \"#utility.yul\":10699:10772   */\n      tag_488\n        /* \"#utility.yul\":10766:10771   */\n      dup3\n        /* \"#utility.yul\":10699:10772   */\n      tag_326\n      jump\t// in\n    tag_488:\n        /* \"#utility.yul\":10788:10893   */\n      tag_489\n        /* \"#utility.yul\":10886:10892   */\n      dup2\n        /* \"#utility.yul\":10881:10884   */\n      dup6\n        /* \"#utility.yul\":10788:10893   */\n      tag_327\n      jump\t// in\n    tag_489:\n        /* \"#utility.yul\":10781:10893   */\n      swap4\n      pop\n        /* \"#utility.yul\":10917:10992   */\n      tag_490\n        /* \"#utility.yul\":10986:10991   */\n      dup4\n        /* \"#utility.yul\":10917:10992   */\n      tag_328\n      jump\t// in\n    tag_490:\n        /* \"#utility.yul\":11015:11022   */\n      dup1\n        /* \"#utility.yul\":11046:11047   */\n      0x00\n        /* \"#utility.yul\":11031:11372   */\n    tag_491:\n        /* \"#utility.yul\":11056:11062   */\n      dup4\n        /* \"#utility.yul\":11053:11054   */\n      dup2\n        /* \"#utility.yul\":11050:11063   */\n      lt\n        /* \"#utility.yul\":11031:11372   */\n      iszero\n      tag_493\n      jumpi\n        /* \"#utility.yul\":11132:11138   */\n      dup2\n        /* \"#utility.yul\":11126:11139   */\n      mload\n        /* \"#utility.yul\":11159:11260   */\n      tag_494\n        /* \"#utility.yul\":11256:11259   */\n      dup9\n        /* \"#utility.yul\":11241:11254   */\n      dup3\n        /* \"#utility.yul\":11159:11260   */\n      tag_331\n      jump\t// in\n    tag_494:\n        /* \"#utility.yul\":11152:11260   */\n      swap8\n      pop\n        /* \"#utility.yul\":11283:11362   */\n      tag_495\n        /* \"#utility.yul\":11355:11361   */\n      dup4\n        /* \"#utility.yul\":11283:11362   */\n      tag_332\n      jump\t// in\n    tag_495:\n        /* \"#utility.yul\":11273:11362   */\n      swap3\n      pop\n        /* \"#utility.yul\":11091:11372   */\n      pop\n        /* \"#utility.yul\":11078:11079   */\n      0x01\n        /* \"#utility.yul\":11075:11076   */\n      dup2\n        /* \"#utility.yul\":11071:11080   */\n      add\n        /* \"#utility.yul\":11066:11080   */\n      swap1\n      pop\n        /* \"#utility.yul\":11031:11372   */\n      jump(tag_491)\n    tag_493:\n        /* \"#utility.yul\":11035:11049   */\n      pop\n        /* \"#utility.yul\":11388:11391   */\n      dup6\n        /* \"#utility.yul\":11381:11391   */\n      swap4\n      pop\n        /* \"#utility.yul\":10675:11397   */\n      pop\n      pop\n      pop\n        /* \"#utility.yul\":10513:11397   */\n      swap3\n      swap2\n      pop\n      pop\n      jump\t// out\n        /* \"#utility.yul\":11403:11852   */\n    tag_77:\n        /* \"#utility.yul\":11584:11588   */\n      0x00\n        /* \"#utility.yul\":11622:11624   */\n      0x20\n        /* \"#utility.yul\":11611:11620   */\n      dup3\n        /* \"#utility.yul\":11607:11625   */\n      add\n        /* \"#utility.yul\":11599:11625   */\n      swap1\n      pop\n        /* \"#utility.yul\":11671:11680   */\n      dup2\n        /* \"#utility.yul\":11665:11669   */\n      dup2\n        /* \"#utility.yul\":11661:11681   */\n      sub\n        /* \"#utility.yul\":11657:11658   */\n      0x00\n        /* \"#utility.yul\":11646:11655   */\n      dup4\n        /* \"#utility.yul\":11642:11659   */\n      add\n        /* \"#utility.yul\":11635:11682   */\n      mstore\n        /* \"#utility.yul\":11699:11845   */\n      tag_497\n        /* \"#utility.yul\":11840:11844   */\n      dup2\n        /* \"#utility.yul\":11831:11837   */\n      dup5\n        /* \"#utility.yul\":11699:11845   */\n      tag_333\n      jump\t// in\n    tag_497:\n        /* \"#utility.yul\":11691:11845   */\n      swap1\n      pop\n        /* \"#utility.yul\":11403:11852   */\n      swap3\n      swap2\n      pop\n      pop\n      jump\t// out\n        /* \"#utility.yul\":11858:12187   */\n    tag_88:\n        /* \"#utility.yul\":11917:11923   */\n      0x00\n        /* \"#utility.yul\":11966:11968   */\n      0x20\n        /* \"#utility.yul\":11954:11963   */\n      dup3\n        /* \"#utility.yul\":11945:11952   */\n      dup5\n        /* \"#utility.yul\":11941:11964   */\n      sub\n        /* \"#utility.yul\":11937:11969   */\n      slt\n        /* \"#utility.yul\":11934:12053   */\n      iszero\n      tag_499\n      jumpi\n        /* \"#utility.yul\":11972:12051   */\n      tag_500\n      tag_295\n      jump\t// in\n    tag_500:\n        /* \"#utility.yul\":11934:12053   */\n    tag_499:\n        /* \"#utility.yul\":12092:12093   */\n      0x00\n        /* \"#utility.yul\":12117:12170   */\n      tag_501\n        /* \"#utility.yul\":12162:12169   */\n      dup5\n        /* \"#utility.yul\":12153:12159   */\n      dup3\n        /* \"#utility.yul\":12142:12151   */\n      dup6\n        /* \"#utility.yul\":12138:12160   */\n      add\n        /* \"#utility.yul\":12117:12170   */\n      tag_319\n      jump\t// in\n    tag_501:\n        /* \"#utility.yul\":12107:12170   */\n      swap2\n      pop\n        /* \"#utility.yul\":12063:12180   */\n      pop\n        /* \"#utility.yul\":11858:12187   */\n      swap3\n      swap2\n      pop\n      pop\n      jump\t// out\n        /* \"#utility.yul\":12193:12635   */\n    tag_91:\n        /* \"#utility.yul\":12342:12346   */\n      0x00\n        /* \"#utility.yul\":12380:12382   */\n      0x60\n        /* \"#utility.yul\":12369:12378   */\n      dup3\n        /* \"#utility.yul\":12365:12383   */\n      add\n        /* \"#utility.yul\":12357:12383   */\n      swap1\n      pop\n        /* \"#utility.yul\":12393:12464   */\n      tag_503\n        /* \"#utility.yul\":12461:12462   */\n      0x00\n        /* \"#utility.yul\":12450:12459   */\n      dup4\n        /* \"#utility.yul\":12446:12463   */\n      add\n        /* \"#utility.yul\":12437:12443   */\n      dup7\n        /* \"#utility.yul\":12393:12464   */\n      tag_304\n      jump\t// in\n    tag_503:\n        /* \"#utility.yul\":12474:12546   */\n      tag_504\n        /* \"#utility.yul\":12542:12544   */\n      0x20\n        /* \"#utility.yul\":12531:12540   */\n      dup4\n        /* \"#utility.yul\":12527:12545   */\n      add\n        /* \"#utility.yul\":12518:12524   */\n      dup6\n        /* \"#utility.yul\":12474:12546   */\n      tag_304\n      jump\t// in\n    tag_504:\n        /* \"#utility.yul\":12556:12628   */\n      tag_505\n        /* \"#utility.yul\":12624:12626   */\n      0x40\n        /* \"#utility.yul\":12613:12622   */\n      dup4\n        /* \"#utility.yul\":12609:12627   */\n      add\n        /* \"#utility.yul\":12600:12606   */\n      dup5\n        /* \"#utility.yul\":12556:12628   */\n      tag_310\n      jump\t// in\n    tag_505:\n        /* \"#utility.yul\":12193:12635   */\n      swap5\n      swap4\n      pop\n      pop\n      pop\n      pop\n      jump\t// out\n        /* \"#utility.yul\":12641:13014   */\n    tag_95:\n        /* \"#utility.yul\":12784:12788   */\n      0x00\n        /* \"#utility.yul\":12822:12824   */\n      0x20\n        /* \"#utility.yul\":12811:12820   */\n      dup3\n        /* \"#utility.yul\":12807:12825   */\n      add\n        /* \"#utility.yul\":12799:12825   */\n      swap1\n      pop\n        /* \"#utility.yul\":12871:12880   */\n      dup2\n        /* \"#utility.yul\":12865:12869   */\n      dup2\n        /* \"#utility.yul\":12861:12881   */\n      sub\n        /* \"#utility.yul\":12857:12858   */\n      0x00\n        /* \"#utility.yul\":12846:12855   */\n      dup4\n        /* \"#utility.yul\":12842:12859   */\n      add\n        /* \"#utility.yul\":12835:12882   */\n      mstore\n        /* \"#utility.yul\":12899:13007   */\n      tag_507\n        /* \"#utility.yul\":13002:13006   */\n      dup2\n        /* \"#utility.yul\":12993:12999   */\n      dup5\n        /* \"#utility.yul\":12899:13007   */\n      tag_317\n      jump\t// in\n    tag_507:\n        /* \"#utility.yul\":12891:13007   */\n      swap1\n      pop\n        /* \"#utility.yul\":12641:13014   */\n      swap3\n      swap2\n      pop\n      pop\n      jump\t// out\n        /* \"#utility.yul\":13020:13080   */\n    tag_334:\n        /* \"#utility.yul\":13048:13051   */\n      0x00\n        /* \"#utility.yul\":13069:13074   */\n      dup2\n        /* \"#utility.yul\":13062:13074   */\n      swap1\n      pop\n        /* \"#utility.yul\":13020:13080   */\n      swap2\n      swap1\n      pop\n      jump\t// out\n        /* \"#utility.yul\":13086:13228   */\n    tag_335:\n        /* \"#utility.yul\":13136:13145   */\n      0x00\n        /* \"#utility.yul\":13169:13222   */\n      tag_510\n        /* \"#utility.yul\":13187:13221   */\n      tag_511\n        /* \"#utility.yul\":13196:13220   */\n      tag_512\n        /* \"#utility.yul\":13214:13219   */\n      dup5\n        /* \"#utility.yul\":13196:13220   */\n      tag_297\n      jump\t// in\n    tag_512:\n        /* \"#utility.yul\":13187:13221   */\n      tag_334\n      jump\t// in\n    tag_511:\n        /* \"#utility.yul\":13169:13222   */\n      tag_297\n      jump\t// in\n    tag_510:\n        /* \"#utility.yul\":13156:13222   */\n      swap1\n      pop\n        /* \"#utility.yul\":13086:13228   */\n      swap2\n      swap1\n      pop\n      jump\t// out\n        /* \"#utility.yul\":13234:13360   */\n    tag_336:\n        /* \"#utility.yul\":13284:13293   */\n      0x00\n        /* \"#utility.yul\":13317:13354   */\n      tag_514\n        /* \"#utility.yul\":13348:13353   */\n      dup3\n        /* \"#utility.yul\":13317:13354   */\n      tag_335\n      jump\t// in\n    tag_514:\n        /* \"#utility.yul\":13304:13354   */\n      swap1\n      pop\n        /* \"#utility.yul\":13234:13360   */\n      swap2\n      swap1\n      pop\n      jump\t// out\n        /* \"#utility.yul\":13366:13512   */\n    tag_337:\n        /* \"#utility.yul\":13436:13445   */\n      0x00\n        /* \"#utility.yul\":13469:13506   */\n      tag_516\n        /* \"#utility.yul\":13500:13505   */\n      dup3\n        /* \"#utility.yul\":13469:13506   */\n      tag_336\n      jump\t// in\n    tag_516:\n        /* \"#utility.yul\":13456:13506   */\n      swap1\n      pop\n        /* \"#utility.yul\":13366:13512   */\n      swap2\n      swap1\n      pop\n      jump\t// out\n        /* \"#utility.yul\":13518:13689   */\n    tag_338:\n        /* \"#utility.yul\":13625:13682   */\n      tag_518\n        /* \"#utility.yul\":13676:13681   */\n      dup2\n        /* \"#utility.yul\":13625:13682   */\n      tag_337\n      jump\t// in\n    tag_518:\n        /* \"#utility.yul\":13620:13623   */\n      dup3\n        /* \"#utility.yul\":13613:13683   */\n      mstore\n        /* \"#utility.yul\":13518:13689   */\n      pop\n      pop\n      jump\t// out\n        /* \"#utility.yul\":13695:13957   */\n    tag_113:\n        /* \"#utility.yul\":13808:13812   */\n      0x00\n        /* \"#utility.yul\":13846:13848   */\n      0x20\n        /* \"#utility.yul\":13835:13844   */\n      dup3\n        /* \"#utility.yul\":13831:13849   */\n      add\n        /* \"#utility.yul\":13823:13849   */\n      swap1\n      pop\n        /* \"#utility.yul\":13859:13950   */\n      tag_520\n        /* \"#utility.yul\":13947:13948   */\n      0x00\n        /* \"#utility.yul\":13936:13945   */\n      dup4\n        /* \"#utility.yul\":13932:13949   */\n      add\n        /* \"#utility.yul\":13923:13929   */\n      dup5\n        /* \"#utility.yul\":13859:13950   */\n      tag_338\n      jump\t// in\n    tag_520:\n        /* \"#utility.yul\":13695:13957   */\n      swap3\n      swap2\n      pop\n      pop\n      jump\t// out\n        /* \"#utility.yul\":13963:14134   */\n    tag_339:\n        /* \"#utility.yul\":14103:14126   */\n      0x41756374696f6e206e6f742066696e616c697a65640000000000000000000000\n        /* \"#utility.yul\":14099:14100   */\n      0x00\n        /* \"#utility.yul\":14091:14097   */\n      dup3\n        /* \"#utility.yul\":14087:14101   */\n      add\n        /* \"#utility.yul\":14080:14127   */\n      mstore\n        /* \"#utility.yul\":13963:14134   */\n      pop\n      jump\t// out\n        /* \"#utility.yul\":14140:14506   */\n    tag_340:\n        /* \"#utility.yul\":14282:14285   */\n      0x00\n        /* \"#utility.yul\":14303:14370   */\n      tag_523\n        /* \"#utility.yul\":14367:14369   */\n      0x15\n        /* \"#utility.yul\":14362:14365   */\n      dup4\n        /* \"#utility.yul\":14303:14370   */\n      tag_306\n      jump\t// in\n    tag_523:\n        /* \"#utility.yul\":14296:14370   */\n      swap2\n      pop\n        /* \"#utility.yul\":14379:14472   */\n      tag_524\n        /* \"#utility.yul\":14468:14471   */\n      dup3\n        /* \"#utility.yul\":14379:14472   */\n      tag_339\n      jump\t// in\n    tag_524:\n        /* \"#utility.yul\":14497:14499   */\n      0x20\n        /* \"#utility.yul\":14492:14495   */\n      dup3\n        /* \"#utility.yul\":14488:14500   */\n      add\n        /* \"#utility.yul\":14481:14500   */\n      swap1\n      pop\n        /* \"#utility.yul\":14140:14506   */\n      swap2\n      swap1\n      pop\n      jump\t// out\n        /* \"#utility.yul\":14512:14931   */\n    tag_117:\n        /* \"#utility.yul\":14678:14682   */\n      0x00\n        /* \"#utility.yul\":14716:14718   */\n      0x20\n        /* \"#utility.yul\":14705:14714   */\n      dup3\n        /* \"#utility.yul\":14701:14719   */\n      add\n        /* \"#utility.yul\":14693:14719   */\n      swap1\n      pop\n        /* \"#utility.yul\":14765:14774   */\n      dup2\n        /* \"#utility.yul\":14759:14763   */\n      dup2\n        /* \"#utility.yul\":14755:14775   */\n      sub\n        /* \"#utility.yul\":14751:14752   */\n      0x00\n        /* \"#utility.yul\":14740:14749   */\n      dup4\n        /* \"#utility.yul\":14736:14753   */\n      add\n        /* \"#utility.yul\":14729:14776   */\n      mstore\n        /* \"#utility.yul\":14793:14924   */\n      tag_526\n        /* \"#utility.yul\":14919:14923   */\n      dup2\n        /* \"#utility.yul\":14793:14924   */\n      tag_340\n      jump\t// in\n    tag_526:\n        /* \"#utility.yul\":14785:14924   */\n      swap1\n      pop\n        /* \"#utility.yul\":14512:14931   */\n      swap2\n      swap1\n      pop\n      jump\t// out\n        /* \"#utility.yul\":14937:15118   */\n    tag_341:\n        /* \"#utility.yul\":15077:15110   */\n      0x4f6e6c792077696e6e65722063616e2061636365737320746865206461746100\n        /* \"#utility.yul\":15073:15074   */\n      0x00\n        /* \"#utility.yul\":15065:15071   */\n      dup3\n        /* \"#utility.yul\":15061:15075   */\n      add\n        /* \"#utility.yul\":15054:15111   */\n      mstore\n        /* \"#utility.yul\":14937:15118   */\n      pop\n      jump\t// out\n        /* \"#utility.yul\":15124:15490   */\n    tag_342:\n        /* \"#utility.yul\":15266:15269   */\n      0x00\n        /* \"#utility.yul\":15287:15354   */\n      tag_529\n        /* \"#utility.yul\":15351:15353   */\n      0x1f\n        /* \"#utility.yul\":15346:15349   */\n      dup4\n        /* \"#utility.yul\":15287:15354   */\n      tag_306\n      jump\t// in\n    tag_529:\n        /* \"#utility.yul\":15280:15354   */\n      swap2\n      pop\n        /* \"#utility.yul\":15363:15456   */\n      tag_530\n        /* \"#utility.yul\":15452:15455   */\n      dup3\n        /* \"#utility.yul\":15363:15456   */\n      tag_341\n      jump\t// in\n    tag_530:\n        /* \"#utility.yul\":15481:15483   */\n      0x20\n        /* \"#utility.yul\":15476:15479   */\n      dup3\n        /* \"#utility.yul\":15472:15484   */\n      add\n        /* \"#utility.yul\":15465:15484   */\n      swap1\n      pop\n        /* \"#utility.yul\":15124:15490   */\n      swap2\n      swap1\n      pop\n      jump\t// out\n        /* \"#utility.yul\":15496:15915   */\n    tag_120:\n        /* \"#utility.yul\":15662:15666   */\n      0x00\n        /* \"#utility.yul\":15700:15702   */\n      0x20\n        /* \"#utility.yul\":15689:15698   */\n      dup3\n        /* \"#utility.yul\":15685:15703   */\n      add\n        /* \"#utility.yul\":15677:15703   */\n      swap1\n      pop\n        /* \"#utility.yul\":15749:15758   */\n      dup2\n        /* \"#utility.yul\":15743:15747   */\n      dup2\n        /* \"#utility.yul\":15739:15759   */\n      sub\n        /* \"#utility.yul\":15735:15736   */\n      0x00\n        /* \"#utility.yul\":15724:15733   */\n      dup4\n        /* \"#utility.yul\":15720:15737   */\n      add\n        /* \"#utility.yul\":15713:15760   */\n      mstore\n        /* \"#utility.yul\":15777:15908   */\n      tag_532\n        /* \"#utility.yul\":15903:15907   */\n      dup2\n        /* \"#utility.yul\":15777:15908   */\n      tag_342\n      jump\t// in\n    tag_532:\n        /* \"#utility.yul\":15769:15908   */\n      swap1\n      pop\n        /* \"#utility.yul\":15496:15915   */\n      swap2\n      swap1\n      pop\n      jump\t// out\n        /* \"#utility.yul\":15921:16101   */\n    tag_343:\n        /* \"#utility.yul\":15969:16046   */\n      0x4e487b7100000000000000000000000000000000000000000000000000000000\n        /* \"#utility.yul\":15966:15967   */\n      0x00\n        /* \"#utility.yul\":15959:16047   */\n      mstore\n        /* \"#utility.yul\":16066:16070   */\n      0x22\n        /* \"#utility.yul\":16063:16064   */\n      0x04\n        /* \"#utility.yul\":16056:16071   */\n      mstore\n        /* \"#utility.yul\":16090:16094   */\n      0x24\n        /* \"#utility.yul\":16087:16088   */\n      0x00\n        /* \"#utility.yul\":16080:16095   */\n      revert\n        /* \"#utility.yul\":16107:16427   */\n    tag_122:\n        /* \"#utility.yul\":16151:16157   */\n      0x00\n        /* \"#utility.yul\":16188:16189   */\n      0x02\n        /* \"#utility.yul\":16182:16186   */\n      dup3\n        /* \"#utility.yul\":16178:16190   */\n      div\n        /* \"#utility.yul\":16168:16190   */\n      swap1\n      pop\n        /* \"#utility.yul\":16235:16236   */\n      0x01\n        /* \"#utility.yul\":16229:16233   */\n      dup3\n        /* \"#utility.yul\":16225:16237   */\n      and\n        /* \"#utility.yul\":16256:16274   */\n      dup1\n        /* \"#utility.yul\":16246:16327   */\n      tag_535\n      jumpi\n        /* \"#utility.yul\":16312:16316   */\n      0x7f\n        /* \"#utility.yul\":16304:16310   */\n      dup3\n        /* \"#utility.yul\":16300:16317   */\n      and\n        /* \"#utility.yul\":16290:16317   */\n      swap2\n      pop\n        /* \"#utility.yul\":16246:16327   */\n    tag_535:\n        /* \"#utility.yul\":16374:16376   */\n      0x20\n        /* \"#utility.yul\":16366:16372   */\n      dup3\n        /* \"#utility.yul\":16363:16377   */\n      lt\n        /* \"#utility.yul\":16343:16361   */\n      dup2\n        /* \"#utility.yul\":16340:16378   */\n      sub\n        /* \"#utility.yul\":16337:16421   */\n      tag_536\n      jumpi\n        /* \"#utility.yul\":16393:16411   */\n      tag_537\n      tag_343\n      jump\t// in\n    tag_537:\n        /* \"#utility.yul\":16337:16421   */\n    tag_536:\n        /* \"#utility.yul\":16158:16427   */\n      pop\n        /* \"#utility.yul\":16107:16427   */\n      swap2\n      swap1\n      pop\n      jump\t// out\n        /* \"#utility.yul\":16433:16576   */\n    tag_344:\n        /* \"#utility.yul\":16490:16495   */\n      0x00\n        /* \"#utility.yul\":16521:16527   */\n      dup2\n        /* \"#utility.yul\":16515:16528   */\n      mload\n        /* \"#utility.yul\":16506:16528   */\n      swap1\n      pop\n        /* \"#utility.yul\":16537:16570   */\n      tag_539\n        /* \"#utility.yul\":16564:16569   */\n      dup2\n        /* \"#utility.yul\":16537:16570   */\n      tag_318\n      jump\t// in\n    tag_539:\n        /* \"#utility.yul\":16433:16576   */\n      swap3\n      swap2\n      pop\n      pop\n      jump\t// out\n        /* \"#utility.yul\":16582:16933   */\n    tag_132:\n        /* \"#utility.yul\":16652:16658   */\n      0x00\n        /* \"#utility.yul\":16701:16703   */\n      0x20\n        /* \"#utility.yul\":16689:16698   */\n      dup3\n        /* \"#utility.yul\":16680:16687   */\n      dup5\n        /* \"#utility.yul\":16676:16699   */\n      sub\n        /* \"#utility.yul\":16672:16704   */\n      slt\n        /* \"#utility.yul\":16669:16788   */\n      iszero\n      tag_541\n      jumpi\n        /* \"#utility.yul\":16707:16786   */\n      tag_542\n      tag_295\n      jump\t// in\n    tag_542:\n        /* \"#utility.yul\":16669:16788   */\n    tag_541:\n        /* \"#utility.yul\":16827:16828   */\n      0x00\n        /* \"#utility.yul\":16852:16916   */\n      tag_543\n        /* \"#utility.yul\":16908:16915   */\n      dup5\n        /* \"#utility.yul\":16899:16905   */\n      dup3\n        /* \"#utility.yul\":16888:16897   */\n      dup6\n        /* \"#utility.yul\":16884:16906   */\n      add\n        /* \"#utility.yul\":16852:16916   */\n      tag_344\n      jump\t// in\n    tag_543:\n        /* \"#utility.yul\":16842:16916   */\n      swap2\n      pop\n        /* \"#utility.yul\":16798:16926   */\n      pop\n        /* \"#utility.yul\":16582:16933   */\n      swap3\n      swap2\n      pop\n      pop\n      jump\t// out\n        /* \"#utility.yul\":16939:17381   */\n    tag_158:\n        /* \"#utility.yul\":17088:17092   */\n      0x00\n        /* \"#utility.yul\":17126:17128   */\n      0x60\n        /* \"#utility.yul\":17115:17124   */\n      dup3\n        /* \"#utility.yul\":17111:17129   */\n      add\n        /* \"#utility.yul\":17103:17129   */\n      swap1\n      pop\n        /* \"#utility.yul\":17139:17210   */\n      tag_545\n        /* \"#utility.yul\":17207:17208   */\n      0x00\n        /* \"#utility.yul\":17196:17205   */\n      dup4\n        /* \"#utility.yul\":17192:17209   */\n      add\n        /* \"#utility.yul\":17183:17189   */\n      dup7\n        /* \"#utility.yul\":17139:17210   */\n      tag_304\n      jump\t// in\n    tag_545:\n        /* \"#utility.yul\":17220:17292   */\n      tag_546\n        /* \"#utility.yul\":17288:17290   */\n      0x20\n        /* \"#utility.yul\":17277:17286   */\n      dup4\n        /* \"#utility.yul\":17273:17291   */\n      add\n        /* \"#utility.yul\":17264:17270   */\n      dup6\n        /* \"#utility.yul\":17220:17292   */\n      tag_304\n      jump\t// in\n    tag_546:\n        /* \"#utility.yul\":17302:17374   */\n      tag_547\n        /* \"#utility.yul\":17370:17372   */\n      0x40\n        /* \"#utility.yul\":17359:17368   */\n      dup4\n        /* \"#utility.yul\":17355:17373   */\n      add\n        /* \"#utility.yul\":17346:17352   */\n      dup5\n        /* \"#utility.yul\":17302:17374   */\n      tag_304\n      jump\t// in\n    tag_547:\n        /* \"#utility.yul\":16939:17381   */\n      swap5\n      swap4\n      pop\n      pop\n      pop\n      pop\n      jump\t// out\n        /* \"#utility.yul\":17387:17499   */\n    tag_345:\n        /* \"#utility.yul\":17470:17492   */\n      tag_549\n        /* \"#utility.yul\":17486:17491   */\n      dup2\n        /* \"#utility.yul\":17470:17492   */\n      tag_320\n      jump\t// in\n    tag_549:\n        /* \"#utility.yul\":17465:17468   */\n      dup3\n        /* \"#utility.yul\":17458:17493   */\n      mstore\n        /* \"#utility.yul\":17387:17499   */\n      pop\n      pop\n      jump\t// out\n        /* \"#utility.yul\":17505:17623   */\n    tag_346:\n        /* \"#utility.yul\":17592:17616   */\n      tag_551\n        /* \"#utility.yul\":17610:17615   */\n      dup2\n        /* \"#utility.yul\":17592:17616   */\n      tag_323\n      jump\t// in\n    tag_551:\n        /* \"#utility.yul\":17587:17590   */\n      dup3\n        /* \"#utility.yul\":17580:17617   */\n      mstore\n        /* \"#utility.yul\":17505:17623   */\n      pop\n      pop\n      jump\t// out\n        /* \"#utility.yul\":17629:18507   */\n    tag_160:\n        /* \"#utility.yul\":17886:17890   */\n      0x00\n        /* \"#utility.yul\":17924:17927   */\n      0xe0\n        /* \"#utility.yul\":17913:17922   */\n      dup3\n        /* \"#utility.yul\":17909:17928   */\n      add\n        /* \"#utility.yul\":17901:17928   */\n      swap1\n      pop\n        /* \"#utility.yul\":17938:18009   */\n      tag_553\n        /* \"#utility.yul\":18006:18007   */\n      0x00\n        /* \"#utility.yul\":17995:18004   */\n      dup4\n        /* \"#utility.yul\":17991:18008   */\n      add\n        /* \"#utility.yul\":17982:17988   */\n      dup11\n        /* \"#utility.yul\":17938:18009   */\n      tag_310\n      jump\t// in\n    tag_553:\n        /* \"#utility.yul\":18019:18091   */\n      tag_554\n        /* \"#utility.yul\":18087:18089   */\n      0x20\n        /* \"#utility.yul\":18076:18085   */\n      dup4\n        /* \"#utility.yul\":18072:18090   */\n      add\n        /* \"#utility.yul\":18063:18069   */\n      dup10\n        /* \"#utility.yul\":18019:18091   */\n      tag_310\n      jump\t// in\n    tag_554:\n        /* \"#utility.yul\":18101:18173   */\n      tag_555\n        /* \"#utility.yul\":18169:18171   */\n      0x40\n        /* \"#utility.yul\":18158:18167   */\n      dup4\n        /* \"#utility.yul\":18154:18172   */\n      add\n        /* \"#utility.yul\":18145:18151   */\n      dup9\n        /* \"#utility.yul\":18101:18173   */\n      tag_304\n      jump\t// in\n    tag_555:\n        /* \"#utility.yul\":18183:18255   */\n      tag_556\n        /* \"#utility.yul\":18251:18253   */\n      0x60\n        /* \"#utility.yul\":18240:18249   */\n      dup4\n        /* \"#utility.yul\":18236:18254   */\n      add\n        /* \"#utility.yul\":18227:18233   */\n      dup8\n        /* \"#utility.yul\":18183:18255   */\n      tag_304\n      jump\t// in\n    tag_556:\n        /* \"#utility.yul\":18265:18334   */\n      tag_557\n        /* \"#utility.yul\":18329:18332   */\n      0x80\n        /* \"#utility.yul\":18318:18327   */\n      dup4\n        /* \"#utility.yul\":18314:18333   */\n      add\n        /* \"#utility.yul\":18305:18311   */\n      dup7\n        /* \"#utility.yul\":18265:18334   */\n      tag_345\n      jump\t// in\n    tag_557:\n        /* \"#utility.yul\":18344:18417   */\n      tag_558\n        /* \"#utility.yul\":18412:18415   */\n      0xa0\n        /* \"#utility.yul\":18401:18410   */\n      dup4\n        /* \"#utility.yul\":18397:18416   */\n      add\n        /* \"#utility.yul\":18388:18394   */\n      dup6\n        /* \"#utility.yul\":18344:18417   */\n      tag_346\n      jump\t// in\n    tag_558:\n        /* \"#utility.yul\":18427:18500   */\n      tag_559\n        /* \"#utility.yul\":18495:18498   */\n      0xc0\n        /* \"#utility.yul\":18484:18493   */\n      dup4\n        /* \"#utility.yul\":18480:18499   */\n      add\n        /* \"#utility.yul\":18471:18477   */\n      dup5\n        /* \"#utility.yul\":18427:18500   */\n      tag_346\n      jump\t// in\n    tag_559:\n        /* \"#utility.yul\":17629:18507   */\n      swap9\n      swap8\n      pop\n      pop\n      pop\n      pop\n      pop\n      pop\n      pop\n      pop\n      jump\t// out\n        /* \"#utility.yul\":18513:18619   */\n    tag_347:\n        /* \"#utility.yul\":18557:18565   */\n      0x00\n        /* \"#utility.yul\":18606:18611   */\n      dup2\n        /* \"#utility.yul\":18601:18604   */\n      0xe0\n        /* \"#utility.yul\":18597:18612   */\n      shr\n        /* \"#utility.yul\":18576:18612   */\n      swap1\n      pop\n        /* \"#utility.yul\":18513:18619   */\n      swap2\n      swap1\n      pop\n      jump\t// out\n        /* \"#utility.yul\":18625:18808   */\n    tag_168:\n        /* \"#utility.yul\":18660:18663   */\n      0x00\n        /* \"#utility.yul\":18698:18699   */\n      0x03\n        /* \"#utility.yul\":18680:18696   */\n      returndatasize\n        /* \"#utility.yul\":18677:18700   */\n      gt\n        /* \"#utility.yul\":18674:18802   */\n      iszero\n      tag_562\n      jumpi\n        /* \"#utility.yul\":18736:18737   */\n      0x04\n        /* \"#utility.yul\":18733:18734   */\n      0x00\n        /* \"#utility.yul\":18730:18731   */\n      0x00\n        /* \"#utility.yul\":18715:18738   */\n      returndatacopy\n        /* \"#utility.yul\":18758:18792   */\n      tag_563\n        /* \"#utility.yul\":18789:18790   */\n      0x00\n        /* \"#utility.yul\":18783:18791   */\n      mload\n        /* \"#utility.yul\":18758:18792   */\n      tag_347\n      jump\t// in\n    tag_563:\n        /* \"#utility.yul\":18751:18792   */\n      swap1\n      pop\n        /* \"#utility.yul\":18674:18802   */\n    tag_562:\n        /* \"#utility.yul\":18625:18808   */\n      swap1\n      jump\t// out\n        /* \"#utility.yul\":18814:18994   */\n    tag_348:\n        /* \"#utility.yul\":18862:18939   */\n      0x4e487b7100000000000000000000000000000000000000000000000000000000\n        /* \"#utility.yul\":18859:18860   */\n      0x00\n        /* \"#utility.yul\":18852:18940   */\n      mstore\n        /* \"#utility.yul\":18959:18963   */\n      0x41\n        /* \"#utility.yul\":18956:18957   */\n      0x04\n        /* \"#utility.yul\":18949:18964   */\n      mstore\n        /* \"#utility.yul\":18983:18987   */\n      0x24\n        /* \"#utility.yul\":18980:18981   */\n      0x00\n        /* \"#utility.yul\":18973:18988   */\n      revert\n        /* \"#utility.yul\":19000:19281   */\n    tag_349:\n        /* \"#utility.yul\":19083:19110   */\n      tag_566\n        /* \"#utility.yul\":19105:19109   */\n      dup3\n        /* \"#utility.yul\":19083:19110   */\n      tag_308\n      jump\t// in\n    tag_566:\n        /* \"#utility.yul\":19075:19081   */\n      dup2\n        /* \"#utility.yul\":19071:19111   */\n      add\n        /* \"#utility.yul\":19213:19219   */\n      dup2\n        /* \"#utility.yul\":19201:19211   */\n      dup2\n        /* \"#utility.yul\":19198:19220   */\n      lt\n        /* \"#utility.yul\":19177:19195   */\n      0xffffffffffffffff\n        /* \"#utility.yul\":19165:19175   */\n      dup3\n        /* \"#utility.yul\":19162:19196   */\n      gt\n        /* \"#utility.yul\":19159:19221   */\n      or\n        /* \"#utility.yul\":19156:19244   */\n      iszero\n      tag_567\n      jumpi\n        /* \"#utility.yul\":19224:19242   */\n      tag_568\n      tag_348\n      jump\t// in\n    tag_568:\n        /* \"#utility.yul\":19156:19244   */\n    tag_567:\n        /* \"#utility.yul\":19264:19274   */\n      dup1\n        /* \"#utility.yul\":19260:19262   */\n      0x40\n        /* \"#utility.yul\":19253:19275   */\n      mstore\n        /* \"#utility.yul\":19043:19281   */\n      pop\n        /* \"#utility.yul\":19000:19281   */\n      pop\n      pop\n      jump\t// out\n        /* \"#utility.yul\":19287:19998   */\n    tag_170:\n        /* \"#utility.yul\":19326:19329   */\n      0x00\n        /* \"#utility.yul\":19364:19368   */\n      0x44\n        /* \"#utility.yul\":19346:19362   */\n      returndatasize\n        /* \"#utility.yul\":19343:19369   */\n      lt\n        /* \"#utility.yul\":19372:19377   */\n      tag_569\n        /* \"#utility.yul\":19340:19379   */\n      jumpi\n        /* \"#utility.yul\":19401:19421   */\n      tag_571\n      tag_294\n      jump\t// in\n    tag_571:\n        /* \"#utility.yul\":19476:19477   */\n      0x04\n        /* \"#utility.yul\":19458:19474   */\n      returndatasize\n        /* \"#utility.yul\":19454:19478   */\n      sub\n        /* \"#utility.yul\":19451:19452   */\n      0x04\n        /* \"#utility.yul\":19445:19449   */\n      dup3\n        /* \"#utility.yul\":19430:19479   */\n      returndatacopy\n        /* \"#utility.yul\":19509:19513   */\n      dup1\n        /* \"#utility.yul\":19503:19514   */\n      mload\n        /* \"#utility.yul\":19608:19624   */\n      returndatasize\n        /* \"#utility.yul\":19601:19605   */\n      0x24\n        /* \"#utility.yul\":19593:19599   */\n      dup3\n        /* \"#utility.yul\":19589:19606   */\n      add\n        /* \"#utility.yul\":19586:19625   */\n      gt\n        /* \"#utility.yul\":19553:19571   */\n      0xffffffffffffffff\n        /* \"#utility.yul\":19545:19551   */\n      dup3\n        /* \"#utility.yul\":19542:19572   */\n      gt\n        /* \"#utility.yul\":19526:19639   */\n      or\n        /* \"#utility.yul\":19523:19669   */\n      iszero\n      tag_572\n      jumpi\n        /* \"#utility.yul\":19654:19659   */\n      pop\n      pop\n      jump(tag_569)\n        /* \"#utility.yul\":19523:19669   */\n    tag_572:\n        /* \"#utility.yul\":19700:19706   */\n      dup1\n        /* \"#utility.yul\":19694:19698   */\n      dup3\n        /* \"#utility.yul\":19690:19707   */\n      add\n        /* \"#utility.yul\":19736:19739   */\n      dup1\n        /* \"#utility.yul\":19730:19740   */\n      mload\n        /* \"#utility.yul\":19763:19781   */\n      0xffffffffffffffff\n        /* \"#utility.yul\":19755:19761   */\n      dup2\n        /* \"#utility.yul\":19752:19782   */\n      gt\n        /* \"#utility.yul\":19749:19792   */\n      iszero\n      tag_573\n      jumpi\n        /* \"#utility.yul\":19785:19790   */\n      pop\n      pop\n      pop\n      pop\n      jump(tag_569)\n        /* \"#utility.yul\":19749:19792   */\n    tag_573:\n        /* \"#utility.yul\":19833:19839   */\n      dup1\n        /* \"#utility.yul\":19826:19830   */\n      0x20\n        /* \"#utility.yul\":19821:19824   */\n      dup4\n        /* \"#utility.yul\":19817:19831   */\n      add\n        /* \"#utility.yul\":19813:19840   */\n      add\n        /* \"#utility.yul\":19892:19893   */\n      0x04\n        /* \"#utility.yul\":19874:19890   */\n      returndatasize\n        /* \"#utility.yul\":19870:19894   */\n      sub\n        /* \"#utility.yul\":19864:19868   */\n      dup6\n        /* \"#utility.yul\":19860:19895   */\n      add\n        /* \"#utility.yul\":19855:19858   */\n      dup2\n        /* \"#utility.yul\":19852:19896   */\n      gt\n        /* \"#utility.yul\":19849:19906   */\n      iszero\n      tag_574\n      jumpi\n        /* \"#utility.yul\":19899:19904   */\n      pop\n      pop\n      pop\n      pop\n      pop\n      jump(tag_569)\n        /* \"#utility.yul\":19849:19906   */\n    tag_574:\n        /* \"#utility.yul\":19916:19973   */\n      tag_575\n        /* \"#utility.yul\":19964:19970   */\n      dup3\n        /* \"#utility.yul\":19958:19962   */\n      0x20\n        /* \"#utility.yul\":19954:19971   */\n      add\n        /* \"#utility.yul\":19946:19952   */\n      dup6\n        /* \"#utility.yul\":19942:19972   */\n      add\n        /* \"#utility.yul\":19936:19940   */\n      dup7\n        /* \"#utility.yul\":19916:19973   */\n      tag_349\n      jump\t// in\n    tag_575:\n        /* \"#utility.yul\":19989:19992   */\n      dup3\n        /* \"#utility.yul\":19982:19992   */\n      swap6\n      pop\n        /* \"#utility.yul\":19330:19998   */\n      pop\n      pop\n      pop\n      pop\n      pop\n        /* \"#utility.yul\":19287:19998   */\n    tag_569:\n      swap1\n      jump\t// out\n        /* \"#utility.yul\":20004:20152   */\n    tag_350:\n        /* \"#utility.yul\":20106:20117   */\n      0x00\n        /* \"#utility.yul\":20143:20146   */\n      dup2\n        /* \"#utility.yul\":20128:20146   */\n      swap1\n      pop\n        /* \"#utility.yul\":20004:20152   */\n      swap3\n      swap2\n      pop\n      pop\n      jump\t// out\n        /* \"#utility.yul\":20158:20323   */\n    tag_351:\n        /* \"#utility.yul\":20298:20315   */\n      0x5065726d6974206661696c65643a200000000000000000000000000000000000\n        /* \"#utility.yul\":20294:20295   */\n      0x00\n        /* \"#utility.yul\":20286:20292   */\n      dup3\n        /* \"#utility.yul\":20282:20296   */\n      add\n        /* \"#utility.yul\":20275:20316   */\n      mstore\n        /* \"#utility.yul\":20158:20323   */\n      pop\n      jump\t// out\n        /* \"#utility.yul\":20329:20731   */\n    tag_352:\n        /* \"#utility.yul\":20489:20492   */\n      0x00\n        /* \"#utility.yul\":20510:20595   */\n      tag_579\n        /* \"#utility.yul\":20592:20594   */\n      0x0f\n        /* \"#utility.yul\":20587:20590   */\n      dup4\n        /* \"#utility.yul\":20510:20595   */\n      tag_350\n      jump\t// in\n    tag_579:\n        /* \"#utility.yul\":20503:20595   */\n      swap2\n      pop\n        /* \"#utility.yul\":20604:20697   */\n      tag_580\n        /* \"#utility.yul\":20693:20696   */\n      dup3\n        /* \"#utility.yul\":20604:20697   */\n      tag_351\n      jump\t// in\n    tag_580:\n        /* \"#utility.yul\":20722:20724   */\n      0x0f\n        /* \"#utility.yul\":20717:20720   */\n      dup3\n        /* \"#utility.yul\":20713:20725   */\n      add\n        /* \"#utility.yul\":20706:20725   */\n      swap1\n      pop\n        /* \"#utility.yul\":20329:20731   */\n      swap2\n      swap1\n      pop\n      jump\t// out\n        /* \"#utility.yul\":20737:21127   */\n    tag_353:\n        /* \"#utility.yul\":20843:20846   */\n      0x00\n        /* \"#utility.yul\":20871:20910   */\n      tag_582\n        /* \"#utility.yul\":20904:20909   */\n      dup3\n        /* \"#utility.yul\":20871:20910   */\n      tag_305\n      jump\t// in\n    tag_582:\n        /* \"#utility.yul\":20926:21015   */\n      tag_583\n        /* \"#utility.yul\":21008:21014   */\n      dup2\n        /* \"#utility.yul\":21003:21006   */\n      dup6\n        /* \"#utility.yul\":20926:21015   */\n      tag_350\n      jump\t// in\n    tag_583:\n        /* \"#utility.yul\":20919:21015   */\n      swap4\n      pop\n        /* \"#utility.yul\":21024:21089   */\n      tag_584\n        /* \"#utility.yul\":21082:21088   */\n      dup2\n        /* \"#utility.yul\":21077:21080   */\n      dup6\n        /* \"#utility.yul\":21070:21074   */\n      0x20\n        /* \"#utility.yul\":21063:21068   */\n      dup7\n        /* \"#utility.yul\":21059:21075   */\n      add\n        /* \"#utility.yul\":21024:21089   */\n      tag_307\n      jump\t// in\n    tag_584:\n        /* \"#utility.yul\":21114:21120   */\n      dup1\n        /* \"#utility.yul\":21109:21112   */\n      dup5\n        /* \"#utility.yul\":21105:21121   */\n      add\n        /* \"#utility.yul\":21098:21121   */\n      swap2\n      pop\n        /* \"#utility.yul\":20847:21127   */\n      pop\n        /* \"#utility.yul\":20737:21127   */\n      swap3\n      swap2\n      pop\n      pop\n      jump\t// out\n        /* \"#utility.yul\":21133:21674   */\n    tag_174:\n        /* \"#utility.yul\":21366:21369   */\n      0x00\n        /* \"#utility.yul\":21388:21536   */\n      tag_586\n        /* \"#utility.yul\":21532:21535   */\n      dup3\n        /* \"#utility.yul\":21388:21536   */\n      tag_352\n      jump\t// in\n    tag_586:\n        /* \"#utility.yul\":21381:21536   */\n      swap2\n      pop\n        /* \"#utility.yul\":21553:21648   */\n      tag_587\n        /* \"#utility.yul\":21644:21647   */\n      dup3\n        /* \"#utility.yul\":21635:21641   */\n      dup5\n        /* \"#utility.yul\":21553:21648   */\n      tag_353\n      jump\t// in\n    tag_587:\n        /* \"#utility.yul\":21546:21648   */\n      swap2\n      pop\n        /* \"#utility.yul\":21665:21668   */\n      dup2\n        /* \"#utility.yul\":21658:21668   */\n      swap1\n      pop\n        /* \"#utility.yul\":21133:21674   */\n      swap3\n      swap2\n      pop\n      pop\n      jump\t// out\n        /* \"#utility.yul\":21680:21843   */\n    tag_354:\n        /* \"#utility.yul\":21820:21835   */\n      0x556e6b6e6f776e206572726f7200000000000000000000000000000000000000\n        /* \"#utility.yul\":21816:21817   */\n      0x00\n        /* \"#utility.yul\":21808:21814   */\n      dup3\n        /* \"#utility.yul\":21804:21818   */\n      add\n        /* \"#utility.yul\":21797:21836   */\n      mstore\n        /* \"#utility.yul\":21680:21843   */\n      pop\n      jump\t// out\n        /* \"#utility.yul\":21849:22215   */\n    tag_355:\n        /* \"#utility.yul\":21991:21994   */\n      0x00\n        /* \"#utility.yul\":22012:22079   */\n      tag_590\n        /* \"#utility.yul\":22076:22078   */\n      0x0d\n        /* \"#utility.yul\":22071:22074   */\n      dup4\n        /* \"#utility.yul\":22012:22079   */\n      tag_306\n      jump\t// in\n    tag_590:\n        /* \"#utility.yul\":22005:22079   */\n      swap2\n      pop\n        /* \"#utility.yul\":22088:22181   */\n      tag_591\n        /* \"#utility.yul\":22177:22180   */\n      dup3\n        /* \"#utility.yul\":22088:22181   */\n      tag_354\n      jump\t// in\n    tag_591:\n        /* \"#utility.yul\":22206:22208   */\n      0x20\n        /* \"#utility.yul\":22201:22204   */\n      dup3\n        /* \"#utility.yul\":22197:22209   */\n      add\n        /* \"#utility.yul\":22190:22209   */\n      swap1\n      pop\n        /* \"#utility.yul\":21849:22215   */\n      swap2\n      swap1\n      pop\n      jump\t// out\n        /* \"#utility.yul\":22221:22640   */\n    tag_177:\n        /* \"#utility.yul\":22387:22391   */\n      0x00\n        /* \"#utility.yul\":22425:22427   */\n      0x20\n        /* \"#utility.yul\":22414:22423   */\n      dup3\n        /* \"#utility.yul\":22410:22428   */\n      add\n        /* \"#utility.yul\":22402:22428   */\n      swap1\n      pop\n        /* \"#utility.yul\":22474:22483   */\n      dup2\n        /* \"#utility.yul\":22468:22472   */\n      dup2\n        /* \"#utility.yul\":22464:22484   */\n      sub\n        /* \"#utility.yul\":22460:22461   */\n      0x00\n        /* \"#utility.yul\":22449:22458   */\n      dup4\n        /* \"#utility.yul\":22445:22462   */\n      add\n        /* \"#utility.yul\":22438:22485   */\n      mstore\n        /* \"#utility.yul\":22502:22633   */\n      tag_593\n        /* \"#utility.yul\":22628:22632   */\n      dup2\n        /* \"#utility.yul\":22502:22633   */\n      tag_355\n      jump\t// in\n    tag_593:\n        /* \"#utility.yul\":22494:22633   */\n      swap1\n      pop\n        /* \"#utility.yul\":22221:22640   */\n      swap2\n      swap1\n      pop\n      jump\t// out\n        /* \"#utility.yul\":22646:22824   */\n    tag_356:\n        /* \"#utility.yul\":22786:22816   */\n      0x5065726d6974206661696c65643a20756e6b6e6f776e206572726f7200000000\n        /* \"#utility.yul\":22782:22783   */\n      0x00\n        /* \"#utility.yul\":22774:22780   */\n      dup3\n        /* \"#utility.yul\":22770:22784   */\n      add\n        /* \"#utility.yul\":22763:22817   */\n      mstore\n        /* \"#utility.yul\":22646:22824   */\n      pop\n      jump\t// out\n        /* \"#utility.yul\":22830:23196   */\n    tag_357:\n        /* \"#utility.yul\":22972:22975   */\n      0x00\n        /* \"#utility.yul\":22993:23060   */\n      tag_596\n        /* \"#utility.yul\":23057:23059   */\n      0x1c\n        /* \"#utility.yul\":23052:23055   */\n      dup4\n        /* \"#utility.yul\":22993:23060   */\n      tag_306\n      jump\t// in\n    tag_596:\n        /* \"#utility.yul\":22986:23060   */\n      swap2\n      pop\n        /* \"#utility.yul\":23069:23162   */\n      tag_597\n        /* \"#utility.yul\":23158:23161   */\n      dup3\n        /* \"#utility.yul\":23069:23162   */\n      tag_356\n      jump\t// in\n    tag_597:\n        /* \"#utility.yul\":23187:23189   */\n      0x20\n        /* \"#utility.yul\":23182:23185   */\n      dup3\n        /* \"#utility.yul\":23178:23190   */\n      add\n        /* \"#utility.yul\":23171:23190   */\n      swap1\n      pop\n        /* \"#utility.yul\":22830:23196   */\n      swap2\n      swap1\n      pop\n      jump\t// out\n        /* \"#utility.yul\":23202:23621   */\n    tag_179:\n        /* \"#utility.yul\":23368:23372   */\n      0x00\n        /* \"#utility.yul\":23406:23408   */\n      0x20\n        /* \"#utility.yul\":23395:23404   */\n      dup3\n        /* \"#utility.yul\":23391:23409   */\n      add\n        /* \"#utility.yul\":23383:23409   */\n      swap1\n      pop\n        /* \"#utility.yul\":23455:23464   */\n      dup2\n        /* \"#utility.yul\":23449:23453   */\n      dup2\n        /* \"#utility.yul\":23445:23465   */\n      sub\n        /* \"#utility.yul\":23441:23442   */\n      0x00\n        /* \"#utility.yul\":23430:23439   */\n      dup4\n        /* \"#utility.yul\":23426:23443   */\n      add\n        /* \"#utility.yul\":23419:23466   */\n      mstore\n        /* \"#utility.yul\":23483:23614   */\n      tag_599\n        /* \"#utility.yul\":23609:23613   */\n      dup2\n        /* \"#utility.yul\":23483:23614   */\n      tag_357\n      jump\t// in\n    tag_599:\n        /* \"#utility.yul\":23475:23614   */\n      swap1\n      pop\n        /* \"#utility.yul\":23202:23621   */\n      swap2\n      swap1\n      pop\n      jump\t// out\n        /* \"#utility.yul\":23627:23959   */\n    tag_182:\n        /* \"#utility.yul\":23748:23752   */\n      0x00\n        /* \"#utility.yul\":23786:23788   */\n      0x40\n        /* \"#utility.yul\":23775:23784   */\n      dup3\n        /* \"#utility.yul\":23771:23789   */\n      add\n        /* \"#utility.yul\":23763:23789   */\n      swap1\n      pop\n        /* \"#utility.yul\":23799:23870   */\n      tag_601\n        /* \"#utility.yul\":23867:23868   */\n      0x00\n        /* \"#utility.yul\":23856:23865   */\n      dup4\n        /* \"#utility.yul\":23852:23869   */\n      add\n        /* \"#utility.yul\":23843:23849   */\n      dup6\n        /* \"#utility.yul\":23799:23870   */\n      tag_310\n      jump\t// in\n    tag_601:\n        /* \"#utility.yul\":23880:23952   */\n      tag_602\n        /* \"#utility.yul\":23948:23950   */\n      0x20\n        /* \"#utility.yul\":23937:23946   */\n      dup4\n        /* \"#utility.yul\":23933:23951   */\n      add\n        /* \"#utility.yul\":23924:23930   */\n      dup5\n        /* \"#utility.yul\":23880:23952   */\n      tag_310\n      jump\t// in\n    tag_602:\n        /* \"#utility.yul\":23627:23959   */\n      swap4\n      swap3\n      pop\n      pop\n      pop\n      jump\t// out\n        /* \"#utility.yul\":23965:24297   */\n    tag_187:\n        /* \"#utility.yul\":24086:24090   */\n      0x00\n        /* \"#utility.yul\":24124:24126   */\n      0x40\n        /* \"#utility.yul\":24113:24122   */\n      dup3\n        /* \"#utility.yul\":24109:24127   */\n      add\n        /* \"#utility.yul\":24101:24127   */\n      swap1\n      pop\n        /* \"#utility.yul\":24137:24208   */\n      tag_604\n        /* \"#utility.yul\":24205:24206   */\n      0x00\n        /* \"#utility.yul\":24194:24203   */\n      dup4\n        /* \"#utility.yul\":24190:24207   */\n      add\n        /* \"#utility.yul\":24181:24187   */\n      dup6\n        /* \"#utility.yul\":24137:24208   */\n      tag_304\n      jump\t// in\n    tag_604:\n        /* \"#utility.yul\":24218:24290   */\n      tag_605\n        /* \"#utility.yul\":24286:24288   */\n      0x20\n        /* \"#utility.yul\":24275:24284   */\n      dup4\n        /* \"#utility.yul\":24271:24289   */\n      add\n        /* \"#utility.yul\":24262:24268   */\n      dup5\n        /* \"#utility.yul\":24218:24290   */\n      tag_304\n      jump\t// in\n    tag_605:\n        /* \"#utility.yul\":23965:24297   */\n      swap4\n      swap3\n      pop\n      pop\n      pop\n      jump\t// out\n        /* \"#utility.yul\":24303:24525   */\n    tag_358:\n        /* \"#utility.yul\":24443:24477   */\n      0x416c6c6f77616e636520776173206e6f74207570646174656420627920706572\n        /* \"#utility.yul\":24439:24440   */\n      0x00\n        /* \"#utility.yul\":24431:24437   */\n      dup3\n        /* \"#utility.yul\":24427:24441   */\n      add\n        /* \"#utility.yul\":24420:24478   */\n      mstore\n        /* \"#utility.yul\":24512:24517   */\n      0x6d69740000000000000000000000000000000000000000000000000000000000\n        /* \"#utility.yul\":24507:24509   */\n      0x20\n        /* \"#utility.yul\":24499:24505   */\n      dup3\n        /* \"#utility.yul\":24495:24510   */\n      add\n        /* \"#utility.yul\":24488:24518   */\n      mstore\n        /* \"#utility.yul\":24303:24525   */\n      pop\n      jump\t// out\n        /* \"#utility.yul\":24531:24897   */\n    tag_359:\n        /* \"#utility.yul\":24673:24676   */\n      0x00\n        /* \"#utility.yul\":24694:24761   */\n      tag_608\n        /* \"#utility.yul\":24758:24760   */\n      0x23\n        /* \"#utility.yul\":24753:24756   */\n      dup4\n        /* \"#utility.yul\":24694:24761   */\n      tag_306\n      jump\t// in\n    tag_608:\n        /* \"#utility.yul\":24687:24761   */\n      swap2\n      pop\n        /* \"#utility.yul\":24770:24863   */\n      tag_609\n        /* \"#utility.yul\":24859:24862   */\n      dup3\n        /* \"#utility.yul\":24770:24863   */\n      tag_358\n      jump\t// in\n    tag_609:\n        /* \"#utility.yul\":24888:24890   */\n      0x40\n        /* \"#utility.yul\":24883:24886   */\n      dup3\n        /* \"#utility.yul\":24879:24891   */\n      add\n        /* \"#utility.yul\":24872:24891   */\n      swap1\n      pop\n        /* \"#utility.yul\":24531:24897   */\n      swap2\n      swap1\n      pop\n      jump\t// out\n        /* \"#utility.yul\":24903:25322   */\n    tag_190:\n        /* \"#utility.yul\":25069:25073   */\n      0x00\n        /* \"#utility.yul\":25107:25109   */\n      0x20\n        /* \"#utility.yul\":25096:25105   */\n      dup3\n        /* \"#utility.yul\":25092:25110   */\n      add\n        /* \"#utility.yul\":25084:25110   */\n      swap1\n      pop\n        /* \"#utility.yul\":25156:25165   */\n      dup2\n        /* \"#utility.yul\":25150:25154   */\n      dup2\n        /* \"#utility.yul\":25146:25166   */\n      sub\n        /* \"#utility.yul\":25142:25143   */\n      0x00\n        /* \"#utility.yul\":25131:25140   */\n      dup4\n        /* \"#utility.yul\":25127:25144   */\n      add\n        /* \"#utility.yul\":25120:25167   */\n      mstore\n        /* \"#utility.yul\":25184:25315   */\n      tag_611\n        /* \"#utility.yul\":25310:25314   */\n      dup2\n        /* \"#utility.yul\":25184:25315   */\n      tag_359\n      jump\t// in\n    tag_611:\n        /* \"#utility.yul\":25176:25315   */\n      swap1\n      pop\n        /* \"#utility.yul\":24903:25322   */\n      swap2\n      swap1\n      pop\n      jump\t// out\n        /* \"#utility.yul\":25328:25660   */\n    tag_193:\n        /* \"#utility.yul\":25449:25453   */\n      0x00\n        /* \"#utility.yul\":25487:25489   */\n      0x40\n        /* \"#utility.yul\":25476:25485   */\n      dup3\n        /* \"#utility.yul\":25472:25490   */\n      add\n        /* \"#utility.yul\":25464:25490   */\n      swap1\n      pop\n        /* \"#utility.yul\":25500:25571   */\n      tag_613\n        /* \"#utility.yul\":25568:25569   */\n      0x00\n        /* \"#utility.yul\":25557:25566   */\n      dup4\n        /* \"#utility.yul\":25553:25570   */\n      add\n        /* \"#utility.yul\":25544:25550   */\n      dup6\n        /* \"#utility.yul\":25500:25571   */\n      tag_310\n      jump\t// in\n    tag_613:\n        /* \"#utility.yul\":25581:25653   */\n      tag_614\n        /* \"#utility.yul\":25649:25651   */\n      0x20\n        /* \"#utility.yul\":25638:25647   */\n      dup4\n        /* \"#utility.yul\":25634:25652   */\n      add\n        /* \"#utility.yul\":25625:25631   */\n      dup5\n        /* \"#utility.yul\":25581:25653   */\n      tag_304\n      jump\t// in\n    tag_614:\n        /* \"#utility.yul\":25328:25660   */\n      swap4\n      swap3\n      pop\n      pop\n      pop\n      jump\t// out\n        /* \"#utility.yul\":25666:25886   */\n    tag_360:\n        /* \"#utility.yul\":25806:25840   */\n      0x596f752063616e277420626964206f6e20796f7572206f776e2061756374696f\n        /* \"#utility.yul\":25802:25803   */\n      0x00\n        /* \"#utility.yul\":25794:25800   */\n      dup3\n        /* \"#utility.yul\":25790:25804   */\n      add\n        /* \"#utility.yul\":25783:25841   */\n      mstore\n        /* \"#utility.yul\":25875:25878   */\n      0x6e00000000000000000000000000000000000000000000000000000000000000\n        /* \"#utility.yul\":25870:25872   */\n      0x20\n        /* \"#utility.yul\":25862:25868   */\n      dup3\n        /* \"#utility.yul\":25858:25873   */\n      add\n        /* \"#utility.yul\":25851:25879   */\n      mstore\n        /* \"#utility.yul\":25666:25886   */\n      pop\n      jump\t// out\n        /* \"#utility.yul\":25892:26258   */\n    tag_361:\n        /* \"#utility.yul\":26034:26037   */\n      0x00\n        /* \"#utility.yul\":26055:26122   */\n      tag_617\n        /* \"#utility.yul\":26119:26121   */\n      0x21\n        /* \"#utility.yul\":26114:26117   */\n      dup4\n        /* \"#utility.yul\":26055:26122   */\n      tag_306\n      jump\t// in\n    tag_617:\n        /* \"#utility.yul\":26048:26122   */\n      swap2\n      pop\n        /* \"#utility.yul\":26131:26224   */\n      tag_618\n        /* \"#utility.yul\":26220:26223   */\n      dup3\n        /* \"#utility.yul\":26131:26224   */\n      tag_360\n      jump\t// in\n    tag_618:\n        /* \"#utility.yul\":26249:26251   */\n      0x40\n        /* \"#utility.yul\":26244:26247   */\n      dup3\n        /* \"#utility.yul\":26240:26252   */\n      add\n        /* \"#utility.yul\":26233:26252   */\n      swap1\n      pop\n        /* \"#utility.yul\":25892:26258   */\n      swap2\n      swap1\n      pop\n      jump\t// out\n        /* \"#utility.yul\":26264:26683   */\n    tag_196:\n        /* \"#utility.yul\":26430:26434   */\n      0x00\n        /* \"#utility.yul\":26468:26470   */\n      0x20\n        /* \"#utility.yul\":26457:26466   */\n      dup3\n        /* \"#utility.yul\":26453:26471   */\n      add\n        /* \"#utility.yul\":26445:26471   */\n      swap1\n      pop\n        /* \"#utility.yul\":26517:26526   */\n      dup2\n        /* \"#utility.yul\":26511:26515   */\n      dup2\n        /* \"#utility.yul\":26507:26527   */\n      sub\n        /* \"#utility.yul\":26503:26504   */\n      0x00\n        /* \"#utility.yul\":26492:26501   */\n      dup4\n        /* \"#utility.yul\":26488:26505   */\n      add\n        /* \"#utility.yul\":26481:26528   */\n      mstore\n        /* \"#utility.yul\":26545:26676   */\n      tag_620\n        /* \"#utility.yul\":26671:26675   */\n      dup2\n        /* \"#utility.yul\":26545:26676   */\n      tag_361\n      jump\t// in\n    tag_620:\n        /* \"#utility.yul\":26537:26676   */\n      swap1\n      pop\n        /* \"#utility.yul\":26264:26683   */\n      swap2\n      swap1\n      pop\n      jump\t// out\n        /* \"#utility.yul\":26689:26869   */\n    tag_362:\n        /* \"#utility.yul\":26737:26814   */\n      0x4e487b7100000000000000000000000000000000000000000000000000000000\n        /* \"#utility.yul\":26734:26735   */\n      0x00\n        /* \"#utility.yul\":26727:26815   */\n      mstore\n        /* \"#utility.yul\":26834:26838   */\n      0x11\n        /* \"#utility.yul\":26831:26832   */\n      0x04\n        /* \"#utility.yul\":26824:26839   */\n      mstore\n        /* \"#utility.yul\":26858:26862   */\n      0x24\n        /* \"#utility.yul\":26855:26856   */\n      0x00\n        /* \"#utility.yul\":26848:26863   */\n      revert\n        /* \"#utility.yul\":26875:27066   */\n    tag_198:\n        /* \"#utility.yul\":26915:26918   */\n      0x00\n        /* \"#utility.yul\":26934:26954   */\n      tag_623\n        /* \"#utility.yul\":26952:26953   */\n      dup3\n        /* \"#utility.yul\":26934:26954   */\n      tag_303\n      jump\t// in\n    tag_623:\n        /* \"#utility.yul\":26929:26954   */\n      swap2\n      pop\n        /* \"#utility.yul\":26968:26988   */\n      tag_624\n        /* \"#utility.yul\":26986:26987   */\n      dup4\n        /* \"#utility.yul\":26968:26988   */\n      tag_303\n      jump\t// in\n    tag_624:\n        /* \"#utility.yul\":26963:26988   */\n      swap3\n      pop\n        /* \"#utility.yul\":27011:27012   */\n      dup3\n        /* \"#utility.yul\":27008:27009   */\n      dup3\n        /* \"#utility.yul\":27004:27013   */\n      add\n        /* \"#utility.yul\":26997:27013   */\n      swap1\n      pop\n        /* \"#utility.yul\":27032:27035   */\n      dup1\n        /* \"#utility.yul\":27029:27030   */\n      dup3\n        /* \"#utility.yul\":27026:27036   */\n      gt\n        /* \"#utility.yul\":27023:27059   */\n      iszero\n      tag_625\n      jumpi\n        /* \"#utility.yul\":27039:27057   */\n      tag_626\n      tag_362\n      jump\t// in\n    tag_626:\n        /* \"#utility.yul\":27023:27059   */\n    tag_625:\n        /* \"#utility.yul\":26875:27066   */\n      swap3\n      swap2\n      pop\n      pop\n      jump\t// out\n        /* \"#utility.yul\":27072:27239   */\n    tag_363:\n        /* \"#utility.yul\":27212:27231   */\n      0x42656c6f77206d696e696d756d20626964000000000000000000000000000000\n        /* \"#utility.yul\":27208:27209   */\n      0x00\n        /* \"#utility.yul\":27200:27206   */\n      dup3\n        /* \"#utility.yul\":27196:27210   */\n      add\n        /* \"#utility.yul\":27189:27232   */\n      mstore\n        /* \"#utility.yul\":27072:27239   */\n      pop\n      jump\t// out\n        /* \"#utility.yul\":27245:27611   */\n    tag_364:\n        /* \"#utility.yul\":27387:27390   */\n      0x00\n        /* \"#utility.yul\":27408:27475   */\n      tag_629\n        /* \"#utility.yul\":27472:27474   */\n      0x11\n        /* \"#utility.yul\":27467:27470   */\n      dup4\n        /* \"#utility.yul\":27408:27475   */\n      tag_306\n      jump\t// in\n    tag_629:\n        /* \"#utility.yul\":27401:27475   */\n      swap2\n      pop\n        /* \"#utility.yul\":27484:27577   */\n      tag_630\n        /* \"#utility.yul\":27573:27576   */\n      dup3\n        /* \"#utility.yul\":27484:27577   */\n      tag_363\n      jump\t// in\n    tag_630:\n        /* \"#utility.yul\":27602:27604   */\n      0x20\n        /* \"#utility.yul\":27597:27600   */\n      dup3\n        /* \"#utility.yul\":27593:27605   */\n      add\n        /* \"#utility.yul\":27586:27605   */\n      swap1\n      pop\n        /* \"#utility.yul\":27245:27611   */\n      swap2\n      swap1\n      pop\n      jump\t// out\n        /* \"#utility.yul\":27617:28036   */\n    tag_202:\n        /* \"#utility.yul\":27783:27787   */\n      0x00\n        /* \"#utility.yul\":27821:27823   */\n      0x20\n        /* \"#utility.yul\":27810:27819   */\n      dup3\n        /* \"#utility.yul\":27806:27824   */\n      add\n        /* \"#utility.yul\":27798:27824   */\n      swap1\n      pop\n        /* \"#utility.yul\":27870:27879   */\n      dup2\n        /* \"#utility.yul\":27864:27868   */\n      dup2\n        /* \"#utility.yul\":27860:27880   */\n      sub\n        /* \"#utility.yul\":27856:27857   */\n      0x00\n        /* \"#utility.yul\":27845:27854   */\n      dup4\n        /* \"#utility.yul\":27841:27858   */\n      add\n        /* \"#utility.yul\":27834:27881   */\n      mstore\n        /* \"#utility.yul\":27898:28029   */\n      tag_632\n        /* \"#utility.yul\":28024:28028   */\n      dup2\n        /* \"#utility.yul\":27898:28029   */\n      tag_364\n      jump\t// in\n    tag_632:\n        /* \"#utility.yul\":27890:28029   */\n      swap1\n      pop\n        /* \"#utility.yul\":27617:28036   */\n      swap2\n      swap1\n      pop\n      jump\t// out\n        /* \"#utility.yul\":28042:28223   */\n    tag_365:\n        /* \"#utility.yul\":28182:28215   */\n      0x426964206d757374206578636565642063757272656e74206869676865737400\n        /* \"#utility.yul\":28178:28179   */\n      0x00\n        /* \"#utility.yul\":28170:28176   */\n      dup3\n        /* \"#utility.yul\":28166:28180   */\n      add\n        /* \"#utility.yul\":28159:28216   */\n      mstore\n        /* \"#utility.yul\":28042:28223   */\n      pop\n      jump\t// out\n        /* \"#utility.yul\":28229:28595   */\n    tag_366:\n        /* \"#utility.yul\":28371:28374   */\n      0x00\n        /* \"#utility.yul\":28392:28459   */\n      tag_635\n        /* \"#utility.yul\":28456:28458   */\n      0x1f\n        /* \"#utility.yul\":28451:28454   */\n      dup4\n        /* \"#utility.yul\":28392:28459   */\n      tag_306\n      jump\t// in\n    tag_635:\n        /* \"#utility.yul\":28385:28459   */\n      swap2\n      pop\n        /* \"#utility.yul\":28468:28561   */\n      tag_636\n        /* \"#utility.yul\":28557:28560   */\n      dup3\n        /* \"#utility.yul\":28468:28561   */\n      tag_365\n      jump\t// in\n    tag_636:\n        /* \"#utility.yul\":28586:28588   */\n      0x20\n        /* \"#utility.yul\":28581:28584   */\n      dup3\n        /* \"#utility.yul\":28577:28589   */\n      add\n        /* \"#utility.yul\":28570:28589   */\n      swap1\n      pop\n        /* \"#utility.yul\":28229:28595   */\n      swap2\n      swap1\n      pop\n      jump\t// out\n        /* \"#utility.yul\":28601:29020   */\n    tag_205:\n        /* \"#utility.yul\":28767:28771   */\n      0x00\n        /* \"#utility.yul\":28805:28807   */\n      0x20\n        /* \"#utility.yul\":28794:28803   */\n      dup3\n        /* \"#utility.yul\":28790:28808   */\n      add\n        /* \"#utility.yul\":28782:28808   */\n      swap1\n      pop\n        /* \"#utility.yul\":28854:28863   */\n      dup2\n        /* \"#utility.yul\":28848:28852   */\n      dup2\n        /* \"#utility.yul\":28844:28864   */\n      sub\n        /* \"#utility.yul\":28840:28841   */\n      0x00\n        /* \"#utility.yul\":28829:28838   */\n      dup4\n        /* \"#utility.yul\":28825:28842   */\n      add\n        /* \"#utility.yul\":28818:28865   */\n      mstore\n        /* \"#utility.yul\":28882:29013   */\n      tag_638\n        /* \"#utility.yul\":29008:29012   */\n      dup2\n        /* \"#utility.yul\":28882:29013   */\n      tag_366\n      jump\t// in\n    tag_638:\n        /* \"#utility.yul\":28874:29013   */\n      swap1\n      pop\n        /* \"#utility.yul\":28601:29020   */\n      swap2\n      swap1\n      pop\n      jump\t// out\n        /* \"#utility.yul\":29026:29468   */\n    tag_207:\n        /* \"#utility.yul\":29175:29179   */\n      0x00\n        /* \"#utility.yul\":29213:29215   */\n      0x60\n        /* \"#utility.yul\":29202:29211   */\n      dup3\n        /* \"#utility.yul\":29198:29216   */\n      add\n        /* \"#utility.yul\":29190:29216   */\n      swap1\n      pop\n        /* \"#utility.yul\":29226:29297   */\n      tag_640\n        /* \"#utility.yul\":29294:29295   */\n      0x00\n        /* \"#utility.yul\":29283:29292   */\n      dup4\n        /* \"#utility.yul\":29279:29296   */\n      add\n        /* \"#utility.yul\":29270:29276   */\n      dup7\n        /* \"#utility.yul\":29226:29297   */\n      tag_310\n      jump\t// in\n    tag_640:\n        /* \"#utility.yul\":29307:29379   */\n      tag_641\n        /* \"#utility.yul\":29375:29377   */\n      0x20\n        /* \"#utility.yul\":29364:29373   */\n      dup4\n        /* \"#utility.yul\":29360:29378   */\n      add\n        /* \"#utility.yul\":29351:29357   */\n      dup6\n        /* \"#utility.yul\":29307:29379   */\n      tag_310\n      jump\t// in\n    tag_641:\n        /* \"#utility.yul\":29389:29461   */\n      tag_642\n        /* \"#utility.yul\":29457:29459   */\n      0x40\n        /* \"#utility.yul\":29446:29455   */\n      dup4\n        /* \"#utility.yul\":29442:29460   */\n      add\n        /* \"#utility.yul\":29433:29439   */\n      dup5\n        /* \"#utility.yul\":29389:29461   */\n      tag_304\n      jump\t// in\n    tag_642:\n        /* \"#utility.yul\":29026:29468   */\n      swap5\n      swap4\n      pop\n      pop\n      pop\n      pop\n      jump\t// out\n        /* \"#utility.yul\":29474:29590   */\n    tag_367:\n        /* \"#utility.yul\":29544:29565   */\n      tag_644\n        /* \"#utility.yul\":29559:29564   */\n      dup2\n        /* \"#utility.yul\":29544:29565   */\n      tag_301\n      jump\t// in\n    tag_644:\n        /* \"#utility.yul\":29537:29542   */\n      dup2\n        /* \"#utility.yul\":29534:29566   */\n      eq\n        /* \"#utility.yul\":29524:29584   */\n      tag_645\n      jumpi\n        /* \"#utility.yul\":29580:29581   */\n      0x00\n        /* \"#utility.yul\":29577:29578   */\n      0x00\n        /* \"#utility.yul\":29570:29582   */\n      revert\n        /* \"#utility.yul\":29524:29584   */\n    tag_645:\n        /* \"#utility.yul\":29474:29590   */\n      pop\n      jump\t// out\n        /* \"#utility.yul\":29596:29733   */\n    tag_368:\n        /* \"#utility.yul\":29650:29655   */\n      0x00\n        /* \"#utility.yul\":29681:29687   */\n      dup2\n        /* \"#utility.yul\":29675:29688   */\n      mload\n        /* \"#utility.yul\":29666:29688   */\n      swap1\n      pop\n        /* \"#utility.yul\":29697:29727   */\n      tag_647\n        /* \"#utility.yul\":29721:29726   */\n      dup2\n        /* \"#utility.yul\":29697:29727   */\n      tag_367\n      jump\t// in\n    tag_647:\n        /* \"#utility.yul\":29596:29733   */\n      swap3\n      swap2\n      pop\n      pop\n      jump\t// out\n        /* \"#utility.yul\":29739:30084   */\n    tag_211:\n        /* \"#utility.yul\":29806:29812   */\n      0x00\n        /* \"#utility.yul\":29855:29857   */\n      0x20\n        /* \"#utility.yul\":29843:29852   */\n      dup3\n        /* \"#utility.yul\":29834:29841   */\n      dup5\n        /* \"#utility.yul\":29830:29853   */\n      sub\n        /* \"#utility.yul\":29826:29858   */\n      slt\n        /* \"#utility.yul\":29823:29942   */\n      iszero\n      tag_649\n      jumpi\n        /* \"#utility.yul\":29861:29940   */\n      tag_650\n      tag_295\n      jump\t// in\n    tag_650:\n        /* \"#utility.yul\":29823:29942   */\n    tag_649:\n        /* \"#utility.yul\":29981:29982   */\n      0x00\n        /* \"#utility.yul\":30006:30067   */\n      tag_651\n        /* \"#utility.yul\":30059:30066   */\n      dup5\n        /* \"#utility.yul\":30050:30056   */\n      dup3\n        /* \"#utility.yul\":30039:30048   */\n      dup6\n        /* \"#utility.yul\":30035:30057   */\n      add\n        /* \"#utility.yul\":30006:30067   */\n      tag_368\n      jump\t// in\n    tag_651:\n        /* \"#utility.yul\":29996:30067   */\n      swap2\n      pop\n        /* \"#utility.yul\":29952:30077   */\n      pop\n        /* \"#utility.yul\":29739:30084   */\n      swap3\n      swap2\n      pop\n      pop\n      jump\t// out\n        /* \"#utility.yul\":30090:30255   */\n    tag_369:\n        /* \"#utility.yul\":30230:30247   */\n      0x5472616e73666572206661696c65640000000000000000000000000000000000\n        /* \"#utility.yul\":30226:30227   */\n      0x00\n        /* \"#utility.yul\":30218:30224   */\n      dup3\n        /* \"#utility.yul\":30214:30228   */\n      add\n        /* \"#utility.yul\":30207:30248   */\n      mstore\n        /* \"#utility.yul\":30090:30255   */\n      pop\n      jump\t// out\n        /* \"#utility.yul\":30261:30627   */\n    tag_370:\n        /* \"#utility.yul\":30403:30406   */\n      0x00\n        /* \"#utility.yul\":30424:30491   */\n      tag_654\n        /* \"#utility.yul\":30488:30490   */\n      0x0f\n        /* \"#utility.yul\":30483:30486   */\n      dup4\n        /* \"#utility.yul\":30424:30491   */\n      tag_306\n      jump\t// in\n    tag_654:\n        /* \"#utility.yul\":30417:30491   */\n      swap2\n      pop\n        /* \"#utility.yul\":30500:30593   */\n      tag_655\n        /* \"#utility.yul\":30589:30592   */\n      dup3\n        /* \"#utility.yul\":30500:30593   */\n      tag_369\n      jump\t// in\n    tag_655:\n        /* \"#utility.yul\":30618:30620   */\n      0x20\n        /* \"#utility.yul\":30613:30616   */\n      dup3\n        /* \"#utility.yul\":30609:30621   */\n      add\n        /* \"#utility.yul\":30602:30621   */\n      swap1\n      pop\n        /* \"#utility.yul\":30261:30627   */\n      swap2\n      swap1\n      pop\n      jump\t// out\n        /* \"#utility.yul\":30633:31052   */\n    tag_214:\n        /* \"#utility.yul\":30799:30803   */\n      0x00\n        /* \"#utility.yul\":30837:30839   */\n      0x20\n        /* \"#utility.yul\":30826:30835   */\n      dup3\n        /* \"#utility.yul\":30822:30840   */\n      add\n        /* \"#utility.yul\":30814:30840   */\n      swap1\n      pop\n        /* \"#utility.yul\":30886:30895   */\n      dup2\n        /* \"#utility.yul\":30880:30884   */\n      dup2\n        /* \"#utility.yul\":30876:30896   */\n      sub\n        /* \"#utility.yul\":30872:30873   */\n      0x00\n        /* \"#utility.yul\":30861:30870   */\n      dup4\n        /* \"#utility.yul\":30857:30874   */\n      add\n        /* \"#utility.yul\":30850:30897   */\n      mstore\n        /* \"#utility.yul\":30914:31045   */\n      tag_657\n        /* \"#utility.yul\":31040:31044   */\n      dup2\n        /* \"#utility.yul\":30914:31045   */\n      tag_370\n      jump\t// in\n    tag_657:\n        /* \"#utility.yul\":30906:31045   */\n      swap1\n      pop\n        /* \"#utility.yul\":30633:31052   */\n      swap2\n      swap1\n      pop\n      jump\t// out\n        /* \"#utility.yul\":31058:31291   */\n    tag_218:\n        /* \"#utility.yul\":31097:31100   */\n      0x00\n        /* \"#utility.yul\":31120:31144   */\n      tag_659\n        /* \"#utility.yul\":31138:31143   */\n      dup3\n        /* \"#utility.yul\":31120:31144   */\n      tag_303\n      jump\t// in\n    tag_659:\n        /* \"#utility.yul\":31111:31144   */\n      swap2\n      pop\n        /* \"#utility.yul\":31166:31232   */\n      0xffffffffffffffffffffffffffffffffffffffffffffffffffffffffffffffff\n        /* \"#utility.yul\":31159:31164   */\n      dup3\n        /* \"#utility.yul\":31156:31233   */\n      sub\n        /* \"#utility.yul\":31153:31256   */\n      tag_660\n      jumpi\n        /* \"#utility.yul\":31236:31254   */\n      tag_661\n      tag_362\n      jump\t// in\n    tag_661:\n        /* \"#utility.yul\":31153:31256   */\n    tag_660:\n        /* \"#utility.yul\":31283:31284   */\n      0x01\n        /* \"#utility.yul\":31276:31281   */\n      dup3\n        /* \"#utility.yul\":31272:31285   */\n      add\n        /* \"#utility.yul\":31265:31285   */\n      swap1\n      pop\n        /* \"#utility.yul\":31058:31291   */\n      swap2\n      swap1\n      pop\n      jump\t// out\n        /* \"#utility.yul\":31297:31468   */\n    tag_371:\n        /* \"#utility.yul\":31437:31460   */\n      0x41756374696f6e206e6f7420656e646564207965740000000000000000000000\n        /* \"#utility.yul\":31433:31434   */\n      0x00\n        /* \"#utility.yul\":31425:31431   */\n      dup3\n        /* \"#utility.yul\":31421:31435   */\n      add\n        /* \"#utility.yul\":31414:31461   */\n      mstore\n        /* \"#utility.yul\":31297:31468   */\n      pop\n      jump\t// out\n        /* \"#utility.yul\":31474:31840   */\n    tag_372:\n        /* \"#utility.yul\":31616:31619   */\n      0x00\n        /* \"#utility.yul\":31637:31704   */\n      tag_664\n        /* \"#utility.yul\":31701:31703   */\n      0x15\n        /* \"#utility.yul\":31696:31699   */\n      dup4\n        /* \"#utility.yul\":31637:31704   */\n      tag_306\n      jump\t// in\n    tag_664:\n        /* \"#utility.yul\":31630:31704   */\n      swap2\n      pop\n        /* \"#utility.yul\":31713:31806   */\n      tag_665\n        /* \"#utility.yul\":31802:31805   */\n      dup3\n        /* \"#utility.yul\":31713:31806   */\n      tag_371\n      jump\t// in\n    tag_665:\n        /* \"#utility.yul\":31831:31833   */\n      0x20\n        /* \"#utility.yul\":31826:31829   */\n      dup3\n        /* \"#utility.yul\":31822:31834   */\n      add\n        /* \"#utility.yul\":31815:31834   */\n      swap1\n      pop\n        /* \"#utility.yul\":31474:31840   */\n      swap2\n      swap1\n      pop\n      jump\t// out\n        /* \"#utility.yul\":31846:32265   */\n    tag_232:\n        /* \"#utility.yul\":32012:32016   */\n      0x00\n        /* \"#utility.yul\":32050:32052   */\n      0x20\n        /* \"#utility.yul\":32039:32048   */\n      dup3\n        /* \"#utility.yul\":32035:32053   */\n      add\n        /* \"#utility.yul\":32027:32053   */\n      swap1\n      pop\n        /* \"#utility.yul\":32099:32108   */\n      dup2\n        /* \"#utility.yul\":32093:32097   */\n      dup2\n        /* \"#utility.yul\":32089:32109   */\n      sub\n        /* \"#utility.yul\":32085:32086   */\n      0x00\n        /* \"#utility.yul\":32074:32083   */\n      dup4\n        /* \"#utility.yul\":32070:32087   */\n      add\n        /* \"#utility.yul\":32063:32110   */\n      mstore\n        /* \"#utility.yul\":32127:32258   */\n      tag_667\n        /* \"#utility.yul\":32253:32257   */\n      dup2\n        /* \"#utility.yul\":32127:32258   */\n      tag_372\n      jump\t// in\n    tag_667:\n        /* \"#utility.yul\":32119:32258   */\n      swap1\n      pop\n        /* \"#utility.yul\":31846:32265   */\n      swap2\n      swap1\n      pop\n      jump\t// out\n        /* \"#utility.yul\":32271:32446   */\n    tag_373:\n        /* \"#utility.yul\":32411:32438   */\n      0x41756374696f6e20616c72656164792066696e616c697a656400000000000000\n        /* \"#utility.yul\":32407:32408   */\n      0x00\n        /* \"#utility.yul\":32399:32405   */\n      dup3\n        /* \"#utility.yul\":32395:32409   */\n      add\n        /* \"#utility.yul\":32388:32439   */\n      mstore\n        /* \"#utility.yul\":32271:32446   */\n      pop\n      jump\t// out\n        /* \"#utility.yul\":32452:32818   */\n    tag_374:\n        /* \"#utility.yul\":32594:32597   */\n      0x00\n        /* \"#utility.yul\":32615:32682   */\n      tag_670\n        /* \"#utility.yul\":32679:32681   */\n      0x19\n        /* \"#utility.yul\":32674:32677   */\n      dup4\n        /* \"#utility.yul\":32615:32682   */\n      tag_306\n      jump\t// in\n    tag_670:\n        /* \"#utility.yul\":32608:32682   */\n      swap2\n      pop\n        /* \"#utility.yul\":32691:32784   */\n      tag_671\n        /* \"#utility.yul\":32780:32783   */\n      dup3\n        /* \"#utility.yul\":32691:32784   */\n      tag_373\n      jump\t// in\n    tag_671:\n        /* \"#utility.yul\":32809:32811   */\n      0x20\n        /* \"#utility.yul\":32804:32807   */\n      dup3\n        /* \"#utility.yul\":32800:32812   */\n      add\n        /* \"#utility.yul\":32793:32812   */\n      swap1\n      pop\n        /* \"#utility.yul\":32452:32818   */\n      swap2\n      swap1\n      pop\n      jump\t// out\n        /* \"#utility.yul\":32824:33243   */\n    tag_236:\n        /* \"#utility.yul\":32990:32994   */\n      0x00\n        /* \"#utility.yul\":33028:33030   */\n      0x20\n        /* \"#utility.yul\":33017:33026   */\n      dup3\n        /* \"#utility.yul\":33013:33031   */\n      add\n        /* \"#utility.yul\":33005:33031   */\n      swap1\n      pop\n        /* \"#utility.yul\":33077:33086   */\n      dup2\n        /* \"#utility.yul\":33071:33075   */\n      dup2\n        /* \"#utility.yul\":33067:33087   */\n      sub\n        /* \"#utility.yul\":33063:33064   */\n      0x00\n        /* \"#utility.yul\":33052:33061   */\n      dup4\n        /* \"#utility.yul\":33048:33065   */\n      add\n        /* \"#utility.yul\":33041:33088   */\n      mstore\n        /* \"#utility.yul\":33105:33236   */\n      tag_673\n        /* \"#utility.yul\":33231:33235   */\n      dup2\n        /* \"#utility.yul\":33105:33236   */\n      tag_374\n      jump\t// in\n    tag_673:\n        /* \"#utility.yul\":33097:33236   */\n      swap1\n      pop\n        /* \"#utility.yul\":32824:33243   */\n      swap2\n      swap1\n      pop\n      jump\t// out\n        /* \"#utility.yul\":33249:33429   */\n    tag_242:\n        /* \"#utility.yul\":33297:33374   */\n      0x4e487b7100000000000000000000000000000000000000000000000000000000\n        /* \"#utility.yul\":33294:33295   */\n      0x00\n        /* \"#utility.yul\":33287:33375   */\n      mstore\n        /* \"#utility.yul\":33394:33398   */\n      0x32\n        /* \"#utility.yul\":33391:33392   */\n      0x04\n        /* \"#utility.yul\":33384:33399   */\n      mstore\n        /* \"#utility.yul\":33418:33422   */\n      0x24\n        /* \"#utility.yul\":33415:33416   */\n      0x00\n        /* \"#utility.yul\":33408:33423   */\n      revert\n        /* \"#utility.yul\":33435:33598   */\n    tag_375:\n        /* \"#utility.yul\":33575:33590   */\n      0x526566756e64206661696c656400000000000000000000000000000000000000\n        /* \"#utility.yul\":33571:33572   */\n      0x00\n        /* \"#utility.yul\":33563:33569   */\n      dup3\n        /* \"#utility.yul\":33559:33573   */\n      add\n        /* \"#utility.yul\":33552:33591   */\n      mstore\n        /* \"#utility.yul\":33435:33598   */\n      pop\n      jump\t// out\n        /* \"#utility.yul\":33604:33970   */\n    tag_376:\n        /* \"#utility.yul\":33746:33749   */\n      0x00\n        /* \"#utility.yul\":33767:33834   */\n      tag_677\n        /* \"#utility.yul\":33831:33833   */\n      0x0d\n        /* \"#utility.yul\":33826:33829   */\n      dup4\n        /* \"#utility.yul\":33767:33834   */\n      tag_306\n      jump\t// in\n    tag_677:\n        /* \"#utility.yul\":33760:33834   */\n      swap2\n      pop\n        /* \"#utility.yul\":33843:33936   */\n      tag_678\n        /* \"#utility.yul\":33932:33935   */\n      dup3\n        /* \"#utility.yul\":33843:33936   */\n      tag_375\n      jump\t// in\n    tag_678:\n        /* \"#utility.yul\":33961:33963   */\n      0x20\n        /* \"#utility.yul\":33956:33959   */\n      dup3\n        /* \"#utility.yul\":33952:33964   */\n      add\n        /* \"#utility.yul\":33945:33964   */\n      swap1\n      pop\n        /* \"#utility.yul\":33604:33970   */\n      swap2\n      swap1\n      pop\n      jump\t// out\n        /* \"#utility.yul\":33976:34395   */\n    tag_252:\n        /* \"#utility.yul\":34142:34146   */\n      0x00\n        /* \"#utility.yul\":34180:34182   */\n      0x20\n        /* \"#utility.yul\":34169:34178   */\n      dup3\n        /* \"#utility.yul\":34165:34183   */\n      add\n        /* \"#utility.yul\":34157:34183   */\n      swap1\n      pop\n        /* \"#utility.yul\":34229:34238   */\n      dup2\n        /* \"#utility.yul\":34223:34227   */\n      dup2\n        /* \"#utility.yul\":34219:34239   */\n      sub\n        /* \"#utility.yul\":34215:34216   */\n      0x00\n        /* \"#utility.yul\":34204:34213   */\n      dup4\n        /* \"#utility.yul\":34200:34217   */\n      add\n        /* \"#utility.yul\":34193:34240   */\n      mstore\n        /* \"#utility.yul\":34257:34388   */\n      tag_680\n        /* \"#utility.yul\":34383:34387   */\n      dup2\n        /* \"#utility.yul\":34257:34388   */\n      tag_376\n      jump\t// in\n    tag_680:\n        /* \"#utility.yul\":34249:34388   */\n      swap1\n      pop\n        /* \"#utility.yul\":33976:34395   */\n      swap2\n      swap1\n      pop\n      jump\t// out\n        /* \"#utility.yul\":34401:34575   */\n    tag_377:\n        /* \"#utility.yul\":34541:34567   */\n      0x5061796d656e7420746f2073656c6c6572206661696c65640000000000000000\n        /* \"#utility.yul\":34537:34538   */\n      0x00\n        /* \"#utility.yul\":34529:34535   */\n      dup3\n        /* \"#utility.yul\":34525:34539   */\n      add\n        /* \"#utility.yul\":34518:34568   */\n      mstore\n        /* \"#utility.yul\":34401:34575   */\n      pop\n      jump\t// out\n        /* \"#utility.yul\":34581:34947   */\n    tag_378:\n        /* \"#utility.yul\":34723:34726   */\n      0x00\n        /* \"#utility.yul\":34744:34811   */\n      tag_683\n        /* \"#utility.yul\":34808:34810   */\n      0x18\n        /* \"#utility.yul\":34803:34806   */\n      dup4\n        /* \"#utility.yul\":34744:34811   */\n      tag_306\n      jump\t// in\n    tag_683:\n        /* \"#utility.yul\":34737:34811   */\n      swap2\n      pop\n        /* \"#utility.yul\":34820:34913   */\n      tag_684\n        /* \"#utility.yul\":34909:34912   */\n      dup3\n        /* \"#utility.yul\":34820:34913   */\n      tag_377\n      jump\t// in\n    tag_684:\n        /* \"#utility.yul\":34938:34940   */\n      0x20\n        /* \"#utility.yul\":34933:34936   */\n      dup3\n        /* \"#utility.yul\":34929:34941   */\n      add\n        /* \"#utility.yul\":34922:34941   */\n      swap1\n      pop\n        /* \"#utility.yul\":34581:34947   */\n      swap2\n      swap1\n      pop\n      jump\t// out\n        /* \"#utility.yul\":34953:35372   */\n    tag_261:\n        /* \"#utility.yul\":35119:35123   */\n      0x00\n        /* \"#utility.yul\":35157:35159   */\n      0x20\n        /* \"#utility.yul\":35146:35155   */\n      dup3\n        /* \"#utility.yul\":35142:35160   */\n      add\n        /* \"#utility.yul\":35134:35160   */\n      swap1\n      pop\n        /* \"#utility.yul\":35206:35215   */\n      dup2\n        /* \"#utility.yul\":35200:35204   */\n      dup2\n        /* \"#utility.yul\":35196:35216   */\n      sub\n        /* \"#utility.yul\":35192:35193   */\n      0x00\n        /* \"#utility.yul\":35181:35190   */\n      dup4\n        /* \"#utility.yul\":35177:35194   */\n      add\n        /* \"#utility.yul\":35170:35217   */\n      mstore\n        /* \"#utility.yul\":35234:35365   */\n      tag_686\n        /* \"#utility.yul\":35360:35364   */\n      dup2\n        /* \"#utility.yul\":35234:35365   */\n      tag_378\n      jump\t// in\n    tag_686:\n        /* \"#utility.yul\":35226:35365   */\n      swap1\n      pop\n        /* \"#utility.yul\":34953:35372   */\n      swap2\n      swap1\n      pop\n      jump\t// out\n        /* \"#utility.yul\":35378:35541   */\n    tag_379:\n        /* \"#utility.yul\":35518:35533   */\n      0x41756374696f6e20656e64656400000000000000000000000000000000000000\n        /* \"#utility.yul\":35514:35515   */\n      0x00\n        /* \"#utility.yul\":35506:35512   */\n      dup3\n        /* \"#utility.yul\":35502:35516   */\n      add\n        /* \"#utility.yul\":35495:35534   */\n      mstore\n        /* \"#utility.yul\":35378:35541   */\n      pop\n      jump\t// out\n        /* \"#utility.yul\":35547:35913   */\n    tag_380:\n        /* \"#utility.yul\":35689:35692   */\n      0x00\n        /* \"#utility.yul\":35710:35777   */\n      tag_689\n        /* \"#utility.yul\":35774:35776   */\n      0x0d\n        /* \"#utility.yul\":35769:35772   */\n      dup4\n        /* \"#utility.yul\":35710:35777   */\n      tag_306\n      jump\t// in\n    tag_689:\n        /* \"#utility.yul\":35703:35777   */\n      swap2\n      pop\n        /* \"#utility.yul\":35786:35879   */\n      tag_690\n        /* \"#utility.yul\":35875:35878   */\n      dup3\n        /* \"#utility.yul\":35786:35879   */\n      tag_379\n      jump\t// in\n    tag_690:\n        /* \"#utility.yul\":35904:35906   */\n      0x20\n        /* \"#utility.yul\":35899:35902   */\n      dup3\n        /* \"#utility.yul\":35895:35907   */\n      add\n        /* \"#utility.yul\":35888:35907   */\n      swap1\n      pop\n        /* \"#utility.yul\":35547:35913   */\n      swap2\n      swap1\n      pop\n      jump\t// out\n        /* \"#utility.yul\":35919:36338   */\n    tag_271:\n        /* \"#utility.yul\":36085:36089   */\n      0x00\n        /* \"#utility.yul\":36123:36125   */\n      0x20\n        /* \"#utility.yul\":36112:36121   */\n      dup3\n        /* \"#utility.yul\":36108:36126   */\n      add\n        /* \"#utility.yul\":36100:36126   */\n      swap1\n      pop\n        /* \"#utility.yul\":36172:36181   */\n      dup2\n        /* \"#utility.yul\":36166:36170   */\n      dup2\n        /* \"#utility.yul\":36162:36182   */\n      sub\n        /* \"#utility.yul\":36158:36159   */\n      0x00\n        /* \"#utility.yul\":36147:36156   */\n      dup4\n        /* \"#utility.yul\":36143:36160   */\n      add\n        /* \"#utility.yul\":36136:36183   */\n      mstore\n        /* \"#utility.yul\":36200:36331   */\n      tag_692\n        /* \"#utility.yul\":36326:36330   */\n      dup2\n        /* \"#utility.yul\":36200:36331   */\n      tag_380\n      jump\t// in\n    tag_692:\n        /* \"#utility.yul\":36192:36331   */\n      swap1\n      pop\n        /* \"#utility.yul\":35919:36338   */\n      swap2\n      swap1\n      pop\n      jump\t// out\n\n    auxdata: 0xa2646970667358221220882519771f5b9aff79908d8195b2a3a113ad9aed1f93f6c125a977162c2802e864736f6c634300081e0033\n}\n","bytecode":{"linkReferences":{},"object":"608060405234801561000f575f5ffd5b5060405161372c38038061372c833981810160405281019061003191906102dd565b825f5f6101000a81548173ffffffffffffffffffffffffffffffffffffffff021916908373ffffffffffffffffffffffffffffffffffffffff16021790555085600181905550846002908161008691906105a5565b50836003908161009691906105a5565b5081600b819055505f600c5f6101000a81548160ff02191690831515021790555080600c60016101000a81548173ffffffffffffffffffffffffffffffffffffffff021916908373ffffffffffffffffffffffffffffffffffffffff160217905550505050505050610674565b5f604051905090565b5f5ffd5b5f5ffd5b5f819050919050565b61012681610114565b8114610130575f5ffd5b50565b5f815190506101418161011d565b92915050565b5f5ffd5b5f5ffd5b5f601f19601f8301169050919050565b7f4e487b71000000000000000000000000000000000000000000000000000000005f52604160045260245ffd5b6101958261014f565b810181811067ffffffffffffffff821117156101b4576101b361015f565b5b80604052505050565b5f6101c6610103565b90506101d2828261018c565b919050565b5f67ffffffffffffffff8211156101f1576101f061015f565b5b6101fa8261014f565b9050602081019050919050565b8281835e5f83830152505050565b5f610227610222846101d7565b6101bd565b9050828152602081018484840111156102435761024261014b565b5b61024e848285610207565b509392505050565b5f82601f83011261026a57610269610147565b5b815161027a848260208601610215565b91505092915050565b5f73ffffffffffffffffffffffffffffffffffffffff82169050919050565b5f6102ac82610283565b9050919050565b6102bc816102a2565b81146102c6575f5ffd5b50565b5f815190506102d7816102b3565b92915050565b5f5f5f5f5f5f60c087890312156102f7576102f661010c565b5b5f61030489828a01610133565b965050602087015167ffffffffffffffff81111561032557610324610110565b5b61033189828a01610256565b955050604087015167ffffffffffffffff81111561035257610351610110565b5b61035e89828a01610256565b945050606061036f89828a016102c9565b935050608061038089828a01610133565b92505060a061039189828a016102c9565b9150509295509295509295565b5f81519050919050565b7f4e487b71000000000000000000000000000000000000000000000000000000005f52602260045260245ffd5b5f60028204905060018216806103ec57607f821691505b6020821081036103ff576103fe6103a8565b5b50919050565b5f819050815f5260205f209050919050565b5f6020601f8301049050919050565b5f82821b905092915050565b5f600883026104617fffffffffffffffffffffffffffffffffffffffffffffffffffffffffffffffff82610426565b61046b8683610426565b95508019841693508086168417925050509392505050565b5f819050919050565b5f6104a66104a161049c84610114565b610483565b610114565b9050919050565b5f819050919050565b6104bf8361048c565b6104d36104cb826104ad565b848454610432565b825550505050565b5f5f905090565b6104ea6104db565b6104f58184846104b6565b505050565b5b818110156105185761050d5f826104e2565b6001810190506104fb565b5050565b601f82111561055d5761052e81610405565b61053784610417565b81016020851015610546578190505b61055a61055285610417565b8301826104fa565b50505b505050565b5f82821c905092915050565b5f61057d5f1984600802610562565b1980831691505092915050565b5f610595838361056e565b9150826002028217905092915050565b6105ae8261039e565b67ffffffffffffffff8111156105c7576105c661015f565b5b6105d182546103d5565b6105dc82828561051c565b5f60209050601f83116001811461060d575f84156105fb578287015190505b610605858261058a565b86555061066c565b601f19841661061b86610405565b5f5b828110156106425784890151825560018201915060208501945060208101905061061d565b8683101561065f578489015161065b601f89168261056e565b8355505b6001600288020188555050505b505050505050565b6130ab806106815f395ff3fe608060405234801561000f575f5ffd5b506004361061014b575f3560e01c806382fde093116100c1578063a39fac121161007a578063a39fac1214610378578063c1cbbca714610396578063c8b342ab146103b2578063d57bde79146103e2578063edf26d9b14610400578063fc0c546a146104305761014b565b806382fde093146102c457806383920e90146102e257806391f9015714610300578063937e09b11461031e578063976af6151461033c5780639ace38c2146103465761014b565b80634e69d560116101135780634e69d5601461020057806358d656291461021e578063597e1fb51461023c5780635dc1d6411461025a5780637aed167c1461028a5780637b87d856146102a65761014b565b80630a1443911461014f5780633197cbb61461017f5780633bc5de301461019d5780634051ddac146101bb578063481c6a75146101e2575b5f5ffd5b61016960048036038101906101649190611fcb565b61044e565b6040516101769190612010565b60405180910390f35b61018761046b565b6040516101949190612041565b60405180910390f35b6101a5610471565b6040516101b291906120ca565b60405180910390f35b6101c36105de565b6040516101d99a999897969594939291906121b0565b60405180910390f35b6101ea610892565b6040516101f7919061225f565b60405180910390f35b6102086108b6565b6040516102159190612010565b60405180910390f35b6102266108cb565b60405161023391906120ca565b60405180910390f35b610244610957565b6040516102519190612010565b60405180910390f35b610274600480360381019061026f9190611fcb565b610969565b6040516102819190612041565b60405180910390f35b6102a4600480360381019061029f919061230b565b61097e565b005b6102ae6112d5565b6040516102bb91906120ca565b60405180910390f35b6102cc611361565b6040516102d99190612041565b60405180910390f35b6102ea611367565b6040516102f79190612479565b60405180910390f35b61030861142b565b604051610315919061225f565b60405180910390f35b610326611450565b6040516103339190612041565b60405180910390f35b610344611456565b005b610360600480360381019061035b9190612499565b6118eb565b60405161036f939291906124c4565b60405180910390f35b61038061193f565b60405161038d91906124f9565b60405180910390f35b6103b060048036038101906103ab9190612499565b6119ca565b005b6103cc60048036038101906103c79190611fcb565b611eb7565b6040516103d99190612041565b60405180910390f35b6103ea611efd565b6040516103f79190612041565b60405180910390f35b61041a60048036038101906104159190612499565b611f03565b604051610427919061225f565b60405180910390f35b610438611f3e565b6040516104459190612574565b60405180910390f35b6004602052805f5260405f205f915054906101000a900460ff1681565b600b5481565b6060600c5f9054906101000a900460ff166104c1576040517f08c379a00000000000000000000000000000000000000000000000000000000081526004016104b8906125d7565b60405180910390fd5b60095f9054906101000a900473ffffffffffffffffffffffffffffffffffffffff1673ffffffffffffffffffffffffffffffffffffffff163373ffffffffffffffffffffffffffffffffffffffff1614610550576040517f08c379a00000000000000000000000000000000000000000000000000000000081526004016105479061263f565b60405180910390fd5b6002805461055d9061268a565b80601f01602080910402602001604051908101604052809291908181526020018280546105899061268a565b80156105d45780601f106105ab576101008083540402835291602001916105d4565b820191905f5260205f20905b8154815290600101906020018083116105b757829003601f168201915b5050505050905090565b5f5f5f5f5f6060805f60605f600154600c60019054906101000a900473ffffffffffffffffffffffffffffffffffffffff1673ffffffffffffffffffffffffffffffffffffffff166370a08231306040518263ffffffff1660e01b8152600401610648919061225f565b602060405180830381865afa158015610663573d5f5f3e3d5ffd5b505050506040513d601f19601f8201168201806040525081019061068791906126ce565b6006545f5f9054906101000a900473ffffffffffffffffffffffffffffffffffffffff16600a546002600360095f9054906101000a900473ffffffffffffffffffffffffffffffffffffffff166007600b548480546106e59061268a565b80601f01602080910402602001604051908101604052809291908181526020018280546107119061268a565b801561075c5780601f106107335761010080835404028352916020019161075c565b820191905f5260205f20905b81548152906001019060200180831161073f57829003601f168201915b5050505050945083805461076f9061268a565b80601f016020809104026020016040519081016040528092919081815260200182805461079b9061268a565b80156107e65780601f106107bd576101008083540402835291602001916107e6565b820191905f5260205f20905b8154815290600101906020018083116107c957829003601f168201915b505050505093508180548060200260200160405190810160405280929190818152602001828054801561086b57602002820191905f5260205f20905b815f9054906101000a900473ffffffffffffffffffffffffffffffffffffffff1673ffffffffffffffffffffffffffffffffffffffff1681526020019060010190808311610822575b50505050509150995099509950995099509950995099509950995090919293949596979899565b5f5f9054906101000a900473ffffffffffffffffffffffffffffffffffffffff1681565b5f600c5f9054906101000a900460ff16905090565b600380546108d89061268a565b80601f01602080910402602001604051908101604052809291908181526020018280546109049061268a565b801561094f5780601f106109265761010080835404028352916020019161094f565b820191905f5260205f20905b81548152906001019060200180831161093257829003601f168201915b505050505081565b600c5f9054906101000a900460ff1681565b6005602052805f5260405f205f915090505481565b5f3390505f3090505f600c60019054906101000a900473ffffffffffffffffffffffffffffffffffffffff1673ffffffffffffffffffffffffffffffffffffffff16637ecebe00846040518263ffffffff1660e01b81526004016109e2919061225f565b602060405180830381865afa1580156109fd573d5f5f3e3d5ffd5b505050506040513d601f19601f82011682018060405250810190610a2191906126ce565b90507ff29b58c6301ab4d806bf8454e3565b31382f5ad5f02fd45fb42e18523cb860e481604051610a529190612041565b60405180910390a18173ffffffffffffffffffffffffffffffffffffffff168373ffffffffffffffffffffffffffffffffffffffff167fe73d3e7f4544b3502481a4298011ede4f74f12e7c94c6998bc96c6db67502c3c8a848b604051610abb939291906126f9565b60405180910390a3600c60019054906101000a900473ffffffffffffffffffffffffffffffffffffffff1673ffffffffffffffffffffffffffffffffffffffff1663d505accf84848b8b8b8b8b6040518863ffffffff1660e01b8152600401610b2a979695949392919061274c565b5f604051808303815f87803b158015610b41575f5ffd5b505af1925050508015610b52575060015b610c8257610b5e6127c5565b806308c379a003610c105750610b72612842565b80610b7d5750610c12565b7fe19fbc5ff4f9e3df659f19fd3f2f1bd7a51b5e2994e3a55670578bb0f9d1d55681604051610bac91906120ca565b60405180910390a180604051602001610bc59190612955565b6040516020818303038152906040526040517f08c379a0000000000000000000000000000000000000000000000000000000008152600401610c0791906120ca565b60405180910390fd5b505b7fe19fbc5ff4f9e3df659f19fd3f2f1bd7a51b5e2994e3a55670578bb0f9d1d556604051610c3f906129c0565b60405180910390a16040517f08c379a0000000000000000000000000000000000000000000000000000000008152600401610c7990612a28565b60405180910390fd5b5f600c60019054906101000a900473ffffffffffffffffffffffffffffffffffffffff1673ffffffffffffffffffffffffffffffffffffffff1663dd62ed3e85856040518363ffffffff1660e01b8152600401610ce0929190612a46565b602060405180830381865afa158015610cfb573d5f5f3e3d5ffd5b505050506040513d601f19601f82011682018060405250810190610d1f91906126ce565b90507ffb7db43709e58b37855e273302377128c7eff642d99999cb530a6cd6a287e9fa818a604051610d52929190612a6d565b60405180910390a188811015610d9d576040517f08c379a0000000000000000000000000000000000000000000000000000000008152600401610d9490612b04565b60405180910390fd5b8373ffffffffffffffffffffffffffffffffffffffff167f7653ba64263e4c00c4274956a77bb1ce892c55a528cfbf7873a825ea64cf981c82604051610de39190612041565b60405180910390a27f38ad295bd970e48fbc3d2741a85bca4baf27a2884ec78bc81a5eee942060d5fc848a604051610e1c929190612b22565b60405180910390a15f5f9054906101000a900473ffffffffffffffffffffffffffffffffffffffff1673ffffffffffffffffffffffffffffffffffffffff168473ffffffffffffffffffffffffffffffffffffffff1603610eb2576040517f08c379a0000000000000000000000000000000000000000000000000000000008152600401610ea990612bb9565b60405180910390fd5b5f60055f8673ffffffffffffffffffffffffffffffffffffffff1673ffffffffffffffffffffffffffffffffffffffff1681526020019081526020015f205490505f8a82610f009190612c04565b90505f8203610f4f57600154811015610f4e576040517f08c379a0000000000000000000000000000000000000000000000000000000008152600401610f4590612c81565b60405180910390fd5b5b600a548111610f93576040517f08c379a0000000000000000000000000000000000000000000000000000000008152600401610f8a90612ce9565b60405180910390fd5b600c60019054906101000a900473ffffffffffffffffffffffffffffffffffffffff1673ffffffffffffffffffffffffffffffffffffffff166323b872dd87308e6040518463ffffffff1660e01b8152600401610ff293929190612d07565b6020604051808303815f875af115801561100e573d5f5f3e3d5ffd5b505050506040513d601f19601f820116820180604052508101906110329190612d66565b611071576040517f08c379a000000000000000000000000000000000000000000000000000000000815260040161106890612ddb565b60405180910390fd5b8060055f8873ffffffffffffffffffffffffffffffffffffffff1673ffffffffffffffffffffffffffffffffffffffff1681526020019081526020015f208190555080600a819055508560095f6101000a81548173ffffffffffffffffffffffffffffffffffffffff021916908373ffffffffffffffffffffffffffffffffffffffff160217905550600860405180606001604052808d81526020014281526020018873ffffffffffffffffffffffffffffffffffffffff16815250908060018154018082558091505060019003905f5260205f2090600302015f909190919091505f820151815f0155602082015181600101556040820151816002015f6101000a81548173ffffffffffffffffffffffffffffffffffffffff021916908373ffffffffffffffffffffffffffffffffffffffff160217905550505060045f8773ffffffffffffffffffffffffffffffffffffffff1673ffffffffffffffffffffffffffffffffffffffff1681526020019081526020015f205f9054906101000a900460ff166112c857600160045f8873ffffffffffffffffffffffffffffffffffffffff1673ffffffffffffffffffffffffffffffffffffffff1681526020019081526020015f205f6101000a81548160ff02191690831515021790555060065f81548092919061126290612df9565b9190505550600786908060018154018082558091505060019003905f5260205f20015f9091909190916101000a81548173ffffffffffffffffffffffffffffffffffffffff021916908373ffffffffffffffffffffffffffffffffffffffff1602179055505b5050505050505050505050565b600280546112e29061268a565b80601f016020809104026020016040519081016040528092919081815260200182805461130e9061268a565b80156113595780601f1061133057610100808354040283529160200191611359565b820191905f5260205f20905b81548152906001019060200180831161133c57829003601f168201915b505050505081565b60065481565b60606008805480602002602001604051908101604052809291908181526020015f905b82821015611422578382905f5260205f2090600302016040518060600160405290815f820154815260200160018201548152602001600282015f9054906101000a900473ffffffffffffffffffffffffffffffffffffffff1673ffffffffffffffffffffffffffffffffffffffff1673ffffffffffffffffffffffffffffffffffffffff16815250508152602001906001019061138a565b50505050905090565b60095f9054906101000a900473ffffffffffffffffffffffffffffffffffffffff1681565b60015481565b600b5442101561149b576040517f08c379a000000000000000000000000000000000000000000000000000000000815260040161149290612e8a565b60405180910390fd5b600c5f9054906101000a900460ff16156114ea576040517f08c379a00000000000000000000000000000000000000000000000000000000081526004016114e190612ef2565b60405180910390fd5b5f5f90505b600780549050811015611755575f6007828154811061151157611510612f10565b5b905f5260205f20015f9054906101000a900473ffffffffffffffffffffffffffffffffffffffff16905060095f9054906101000a900473ffffffffffffffffffffffffffffffffffffffff1673ffffffffffffffffffffffffffffffffffffffff168173ffffffffffffffffffffffffffffffffffffffff1614611747575f60055f8373ffffffffffffffffffffffffffffffffffffffff1673ffffffffffffffffffffffffffffffffffffffff1681526020019081526020015f205490505f811115611745575f60055f8473ffffffffffffffffffffffffffffffffffffffff1673ffffffffffffffffffffffffffffffffffffffff1681526020019081526020015f2081905550600c60019054906101000a900473ffffffffffffffffffffffffffffffffffffffff1673ffffffffffffffffffffffffffffffffffffffff1663a9059cbb83836040518363ffffffff1660e01b8152600401611677929190612b22565b6020604051808303815f875af1158015611693573d5f5f3e3d5ffd5b505050506040513d601f19601f820116820180604052508101906116b79190612d66565b6116f6576040517f08c379a00000000000000000000000000000000000000000000000000000000081526004016116ed90612f87565b60405180910390fd5b8173ffffffffffffffffffffffffffffffffffffffff167f3367befd2b2f39615cd79917c2153263c4af1d3945ec003e5d5bfc13a8d858338260405161173c9190612041565b60405180910390a25b505b5080806001019150506114ef565b505f600a5411156118cf57600c60019054906101000a900473ffffffffffffffffffffffffffffffffffffffff1673ffffffffffffffffffffffffffffffffffffffff1663a9059cbb5f5f9054906101000a900473ffffffffffffffffffffffffffffffffffffffff16600a546040518363ffffffff1660e01b81526004016117df929190612b22565b6020604051808303815f875af11580156117fb573d5f5f3e3d5ffd5b505050506040513d601f19601f8201168201806040525081019061181f9190612d66565b61185e576040517f08c379a000000000000000000000000000000000000000000000000000000000815260040161185590612fef565b60405180910390fd5b5f5f9054906101000a900473ffffffffffffffffffffffffffffffffffffffff1673ffffffffffffffffffffffffffffffffffffffff167fcb4a9094da4df77fb2c0dbaa5047660b1237e61d82a02176c1be74ca757f2531600a546040516118c69190612041565b60405180910390a25b6001600c5f6101000a81548160ff021916908315150217905550565b600881815481106118fa575f80fd5b905f5260205f2090600302015f91509050805f015490806001015490806002015f9054906101000a900473ffffffffffffffffffffffffffffffffffffffff16905083565b606060078054806020026020016040519081016040528092919081815260200182805480156119c057602002820191905f5260205f20905b815f9054906101000a900473ffffffffffffffffffffffffffffffffffffffff1673ffffffffffffffffffffffffffffffffffffffff1681526020019060010190808311611977575b5050505050905090565b600b544210611a0e576040517f08c379a0000000000000000000000000000000000000000000000000000000008152600401611a0590613057565b60405180910390fd5b5f5f9054906101000a900473ffffffffffffffffffffffffffffffffffffffff1673ffffffffffffffffffffffffffffffffffffffff163373ffffffffffffffffffffffffffffffffffffffff1603611a9c576040517f08c379a0000000000000000000000000000000000000000000000000000000008152600401611a9390612bb9565b60405180910390fd5b5f60055f3373ffffffffffffffffffffffffffffffffffffffff1673ffffffffffffffffffffffffffffffffffffffff1681526020019081526020015f205490505f8282611aea9190612c04565b90505f8203611b3957600154811015611b38576040517f08c379a0000000000000000000000000000000000000000000000000000000008152600401611b2f90612c81565b60405180910390fd5b5b600a548111611b7d576040517f08c379a0000000000000000000000000000000000000000000000000000000008152600401611b7490612ce9565b60405180910390fd5b600c60019054906101000a900473ffffffffffffffffffffffffffffffffffffffff1673ffffffffffffffffffffffffffffffffffffffff166323b872dd3330866040518463ffffffff1660e01b8152600401611bdc93929190612d07565b6020604051808303815f875af1158015611bf8573d5f5f3e3d5ffd5b505050506040513d601f19601f82011682018060405250810190611c1c9190612d66565b611c5b576040517f08c379a0000000000000000000000000000000000000000000000000000000008152600401611c5290612ddb565b60405180910390fd5b8060055f3373ffffffffffffffffffffffffffffffffffffffff1673ffffffffffffffffffffffffffffffffffffffff1681526020019081526020015f208190555080600a819055503360095f6101000a81548173ffffffffffffffffffffffffffffffffffffffff021916908373ffffffffffffffffffffffffffffffffffffffff160217905550600860405180606001604052808581526020014281526020013373ffffffffffffffffffffffffffffffffffffffff16815250908060018154018082558091505060019003905f5260205f2090600302015f909190919091505f820151815f0155602082015181600101556040820151816002015f6101000a81548173ffffffffffffffffffffffffffffffffffffffff021916908373ffffffffffffffffffffffffffffffffffffffff160217905550505060045f3373ffffffffffffffffffffffffffffffffffffffff1673ffffffffffffffffffffffffffffffffffffffff1681526020019081526020015f205f9054906101000a900460ff16611eb257600160045f3373ffffffffffffffffffffffffffffffffffffffff1673ffffffffffffffffffffffffffffffffffffffff1681526020019081526020015f205f6101000a81548160ff02191690831515021790555060065f815480929190611e4c90612df9565b9190505550600733908060018154018082558091505060019003905f5260205f20015f9091909190916101000a81548173ffffffffffffffffffffffffffffffffffffffff021916908373ffffffffffffffffffffffffffffffffffffffff1602179055505b505050565b5f60055f8373ffffffffffffffffffffffffffffffffffffffff1673ffffffffffffffffffffffffffffffffffffffff1681526020019081526020015f20549050919050565b600a5481565b60078181548110611f12575f80fd5b905f5260205f20015f915054906101000a900473ffffffffffffffffffffffffffffffffffffffff1681565b600c60019054906101000a900473ffffffffffffffffffffffffffffffffffffffff1681565b5f604051905090565b5f5ffd5b5f73ffffffffffffffffffffffffffffffffffffffff82169050919050565b5f611f9a82611f71565b9050919050565b611faa81611f90565b8114611fb4575f5ffd5b50565b5f81359050611fc581611fa1565b92915050565b5f60208284031215611fe057611fdf611f6d565b5b5f611fed84828501611fb7565b91505092915050565b5f8115159050919050565b61200a81611ff6565b82525050565b5f6020820190506120235f830184612001565b92915050565b5f819050919050565b61203b81612029565b82525050565b5f6020820190506120545f830184612032565b92915050565b5f81519050919050565b5f82825260208201905092915050565b8281835e5f83830152505050565b5f601f19601f8301169050919050565b5f61209c8261205a565b6120a68185612064565b93506120b6818560208601612074565b6120bf81612082565b840191505092915050565b5f6020820190508181035f8301526120e28184612092565b905092915050565b6120f381611f90565b82525050565b5f81519050919050565b5f82825260208201905092915050565b5f819050602082019050919050565b61212b81611f90565b82525050565b5f61213c8383612122565b60208301905092915050565b5f602082019050919050565b5f61215e826120f9565b6121688185612103565b935061217383612113565b805f5b838110156121a357815161218a8882612131565b975061219583612148565b925050600181019050612176565b5085935050505092915050565b5f610140820190506121c45f83018d612032565b6121d1602083018c612032565b6121de604083018b612032565b6121eb606083018a6120ea565b6121f86080830189612032565b81810360a083015261220a8188612092565b905081810360c083015261221e8187612092565b905061222d60e08301866120ea565b8181036101008301526122408185612154565b9050612250610120830184612032565b9b9a5050505050505050505050565b5f6020820190506122725f8301846120ea565b92915050565b61228181612029565b811461228b575f5ffd5b50565b5f8135905061229c81612278565b92915050565b5f60ff82169050919050565b6122b7816122a2565b81146122c1575f5ffd5b50565b5f813590506122d2816122ae565b92915050565b5f819050919050565b6122ea816122d8565b81146122f4575f5ffd5b50565b5f81359050612305816122e1565b92915050565b5f5f5f5f5f60a0868803121561232457612323611f6d565b5b5f6123318882890161228e565b95505060206123428882890161228e565b9450506040612353888289016122c4565b9350506060612364888289016122f7565b9250506080612375888289016122f7565b9150509295509295909350565b5f81519050919050565b5f82825260208201905092915050565b5f819050602082019050919050565b6123b481612029565b82525050565b606082015f8201516123ce5f8501826123ab565b5060208201516123e160208501826123ab565b5060408201516123f46040850182612122565b50505050565b5f61240583836123ba565b60608301905092915050565b5f602082019050919050565b5f61242782612382565b612431818561238c565b935061243c8361239c565b805f5b8381101561246c57815161245388826123fa565b975061245e83612411565b92505060018101905061243f565b5085935050505092915050565b5f6020820190508181035f830152612491818461241d565b905092915050565b5f602082840312156124ae576124ad611f6d565b5b5f6124bb8482850161228e565b91505092915050565b5f6060820190506124d75f830186612032565b6124e46020830185612032565b6124f160408301846120ea565b949350505050565b5f6020820190508181035f8301526125118184612154565b905092915050565b5f819050919050565b5f61253c61253761253284611f71565b612519565b611f71565b9050919050565b5f61254d82612522565b9050919050565b5f61255e82612543565b9050919050565b61256e81612554565b82525050565b5f6020820190506125875f830184612565565b92915050565b7f41756374696f6e206e6f742066696e616c697a656400000000000000000000005f82015250565b5f6125c1601583612064565b91506125cc8261258d565b602082019050919050565b5f6020820190508181035f8301526125ee816125b5565b9050919050565b7f4f6e6c792077696e6e65722063616e20616363657373207468652064617461005f82015250565b5f612629601f83612064565b9150612634826125f5565b602082019050919050565b5f6020820190508181035f8301526126568161261d565b9050919050565b7f4e487b71000000000000000000000000000000000000000000000000000000005f52602260045260245ffd5b5f60028204905060018216806126a157607f821691505b6020821081036126b4576126b361265d565b5b50919050565b5f815190506126c881612278565b92915050565b5f602082840312156126e3576126e2611f6d565b5b5f6126f0848285016126ba565b91505092915050565b5f60608201905061270c5f830186612032565b6127196020830185612032565b6127266040830184612032565b949350505050565b612737816122a2565b82525050565b612746816122d8565b82525050565b5f60e08201905061275f5f83018a6120ea565b61276c60208301896120ea565b6127796040830188612032565b6127866060830187612032565b612793608083018661272e565b6127a060a083018561273d565b6127ad60c083018461273d565b98975050505050505050565b5f8160e01c9050919050565b5f60033d11156127e15760045f5f3e6127de5f516127b9565b90505b90565b7f4e487b71000000000000000000000000000000000000000000000000000000005f52604160045260245ffd5b61281a82612082565b810181811067ffffffffffffffff82111715612839576128386127e4565b5b80604052505050565b5f60443d106128ce57612853611f64565b60043d036004823e80513d602482011167ffffffffffffffff8211171561287b5750506128ce565b808201805167ffffffffffffffff81111561289957505050506128ce565b80602083010160043d0385018111156128b65750505050506128ce565b6128c582602001850186612811565b82955050505050505b90565b5f81905092915050565b7f5065726d6974206661696c65643a2000000000000000000000000000000000005f82015250565b5f61290f600f836128d1565b915061291a826128db565b600f82019050919050565b5f61292f8261205a565b61293981856128d1565b9350612949818560208601612074565b80840191505092915050565b5f61295f82612903565b915061296b8284612925565b915081905092915050565b7f556e6b6e6f776e206572726f72000000000000000000000000000000000000005f82015250565b5f6129aa600d83612064565b91506129b582612976565b602082019050919050565b5f6020820190508181035f8301526129d78161299e565b9050919050565b7f5065726d6974206661696c65643a20756e6b6e6f776e206572726f72000000005f82015250565b5f612a12601c83612064565b9150612a1d826129de565b602082019050919050565b5f6020820190508181035f830152612a3f81612a06565b9050919050565b5f604082019050612a595f8301856120ea565b612a6660208301846120ea565b9392505050565b5f604082019050612a805f830185612032565b612a8d6020830184612032565b9392505050565b7f416c6c6f77616e636520776173206e6f742075706461746564206279207065725f8201527f6d69740000000000000000000000000000000000000000000000000000000000602082015250565b5f612aee602383612064565b9150612af982612a94565b604082019050919050565b5f6020820190508181035f830152612b1b81612ae2565b9050919050565b5f604082019050612b355f8301856120ea565b612b426020830184612032565b9392505050565b7f596f752063616e277420626964206f6e20796f7572206f776e2061756374696f5f8201527f6e00000000000000000000000000000000000000000000000000000000000000602082015250565b5f612ba3602183612064565b9150612bae82612b49565b604082019050919050565b5f6020820190508181035f830152612bd081612b97565b9050919050565b7f4e487b71000000000000000000000000000000000000000000000000000000005f52601160045260245ffd5b5f612c0e82612029565b9150612c1983612029565b9250828201905080821115612c3157612c30612bd7565b5b92915050565b7f42656c6f77206d696e696d756d206269640000000000000000000000000000005f82015250565b5f612c6b601183612064565b9150612c7682612c37565b602082019050919050565b5f6020820190508181035f830152612c9881612c5f565b9050919050565b7f426964206d757374206578636565642063757272656e742068696768657374005f82015250565b5f612cd3601f83612064565b9150612cde82612c9f565b602082019050919050565b5f6020820190508181035f830152612d0081612cc7565b9050919050565b5f606082019050612d1a5f8301866120ea565b612d2760208301856120ea565b612d346040830184612032565b949350505050565b612d4581611ff6565b8114612d4f575f5ffd5b50565b5f81519050612d6081612d3c565b92915050565b5f60208284031215612d7b57612d7a611f6d565b5b5f612d8884828501612d52565b91505092915050565b7f5472616e73666572206661696c656400000000000000000000000000000000005f82015250565b5f612dc5600f83612064565b9150612dd082612d91565b602082019050919050565b5f6020820190508181035f830152612df281612db9565b9050919050565b5f612e0382612029565b91507fffffffffffffffffffffffffffffffffffffffffffffffffffffffffffffffff8203612e3557612e34612bd7565b5b600182019050919050565b7f41756374696f6e206e6f7420656e6465642079657400000000000000000000005f82015250565b5f612e74601583612064565b9150612e7f82612e40565b602082019050919050565b5f6020820190508181035f830152612ea181612e68565b9050919050565b7f41756374696f6e20616c72656164792066696e616c697a6564000000000000005f82015250565b5f612edc601983612064565b9150612ee782612ea8565b602082019050919050565b5f6020820190508181035f830152612f0981612ed0565b9050919050565b7f4e487b71000000000000000000000000000000000000000000000000000000005f52603260045260245ffd5b7f526566756e64206661696c6564000000000000000000000000000000000000005f82015250565b5f612f71600d83612064565b9150612f7c82612f3d565b602082019050919050565b5f6020820190508181035f830152612f9e81612f65565b9050919050565b7f5061796d656e7420746f2073656c6c6572206661696c656400000000000000005f82015250565b5f612fd9601883612064565b9150612fe482612fa5565b602082019050919050565b5f6020820190508181035f83015261300681612fcd565b9050919050565b7f41756374696f6e20656e646564000000000000000000000000000000000000005f82015250565b5f613041600d83612064565b915061304c8261300d565b602082019050919050565b5f6020820190508181035f83015261306e81613035565b905091905056fea2646970667358221220882519771f5b9aff79908d8195b2a3a113ad9aed1f93f6c125a977162c2802e864736f6c634300081e0033","opcodes":"PUSH1 0x80 PUSH1 0x40 MSTORE CALLVALUE DUP1 ISZERO PUSH2 0xF JUMPI PUSH0 PUSH0 REVERT JUMPDEST POP PUSH1 0x40 MLOAD PUSH2 0x372C CODESIZE SUB DUP1 PUSH2 0x372C DUP4 CODECOPY DUP2 DUP2 ADD PUSH1 0x40 MSTORE DUP2 ADD SWAP1 PUSH2 0x31 SWAP2 SWAP1 PUSH2 0x2DD JUMP JUMPDEST DUP3 PUSH0 PUSH0 PUSH2 0x100 EXP DUP2 SLOAD DUP2 PUSH20 0xFFFFFFFFFFFFFFFFFFFFFFFFFFFFFFFFFFFFFFFF MUL NOT AND SWAP1 DUP4 PUSH20 0xFFFFFFFFFFFFFFFFFFFFFFFFFFFFFFFFFFFFFFFF AND MUL OR SWAP1 SSTORE POP DUP6 PUSH1 0x1 DUP2 SWAP1 SSTORE POP DUP5 PUSH1 0x2 SWAP1 DUP2 PUSH2 0x86 SWAP2 SWAP1 PUSH2 0x5A5 JUMP JUMPDEST POP DUP4 PUSH1 0x3 SWAP1 DUP2 PUSH2 0x96 SWAP2 SWAP1 PUSH2 0x5A5 JUMP JUMPDEST POP DUP2 PUSH1 0xB DUP2 SWAP1 SSTORE POP PUSH0 PUSH1 0xC PUSH0 PUSH2 0x100 EXP DUP2 SLOAD DUP2 PUSH1 0xFF MUL NOT AND SWAP1 DUP4 ISZERO ISZERO MUL OR SWAP1 SSTORE POP DUP1 PUSH1 0xC PUSH1 0x1 PUSH2 0x100 EXP DUP2 SLOAD DUP2 PUSH20 0xFFFFFFFFFFFFFFFFFFFFFFFFFFFFFFFFFFFFFFFF MUL NOT AND SWAP1 DUP4 PUSH20 0xFFFFFFFFFFFFFFFFFFFFFFFFFFFFFFFFFFFFFFFF AND MUL OR SWAP1 SSTORE POP POP POP POP POP POP POP PUSH2 0x674 JUMP JUMPDEST PUSH0 PUSH1 0x40 MLOAD SWAP1 POP SWAP1 JUMP JUMPDEST PUSH0 PUSH0 REVERT JUMPDEST PUSH0 PUSH0 REVERT JUMPDEST PUSH0 DUP2 SWAP1 POP SWAP2 SWAP1 POP JUMP JUMPDEST PUSH2 0x126 DUP2 PUSH2 0x114 JUMP JUMPDEST DUP2 EQ PUSH2 0x130 JUMPI PUSH0 PUSH0 REVERT JUMPDEST POP JUMP JUMPDEST PUSH0 DUP2 MLOAD SWAP1 POP PUSH2 0x141 DUP2 PUSH2 0x11D JUMP JUMPDEST SWAP3 SWAP2 POP POP JUMP JUMPDEST PUSH0 PUSH0 REVERT JUMPDEST PUSH0 PUSH0 REVERT JUMPDEST PUSH0 PUSH1 0x1F NOT PUSH1 0x1F DUP4 ADD AND SWAP1 POP SWAP2 SWAP1 POP JUMP JUMPDEST PUSH32 0x4E487B7100000000000000000000000000000000000000000000000000000000 PUSH0 MSTORE PUSH1 0x41 PUSH1 0x4 MSTORE PUSH1 0x24 PUSH0 REVERT JUMPDEST PUSH2 0x195 DUP3 PUSH2 0x14F JUMP JUMPDEST DUP2 ADD DUP2 DUP2 LT PUSH8 0xFFFFFFFFFFFFFFFF DUP3 GT OR ISZERO PUSH2 0x1B4 JUMPI PUSH2 0x1B3 PUSH2 0x15F JUMP JUMPDEST JUMPDEST DUP1 PUSH1 0x40 MSTORE POP POP POP JUMP JUMPDEST PUSH0 PUSH2 0x1C6 PUSH2 0x103 JUMP JUMPDEST SWAP1 POP PUSH2 0x1D2 DUP3 DUP3 PUSH2 0x18C JUMP JUMPDEST SWAP2 SWAP1 POP JUMP JUMPDEST PUSH0 PUSH8 0xFFFFFFFFFFFFFFFF DUP3 GT ISZERO PUSH2 0x1F1 JUMPI PUSH2 0x1F0 PUSH2 0x15F JUMP JUMPDEST JUMPDEST PUSH2 0x1FA DUP3 PUSH2 0x14F JUMP JUMPDEST SWAP1 POP PUSH1 0x20 DUP2 ADD SWAP1 POP SWAP2 SWAP1 POP JUMP JUMPDEST DUP3 DUP2 DUP4 MCOPY PUSH0 DUP4 DUP4 ADD MSTORE POP POP POP JUMP JUMPDEST PUSH0 PUSH2 0x227 PUSH2 0x222 DUP5 PUSH2 0x1D7 JUMP JUMPDEST PUSH2 0x1BD JUMP JUMPDEST SWAP1 POP DUP3 DUP2 MSTORE PUSH1 0x20 DUP2 ADD DUP5 DUP5 DUP5 ADD GT ISZERO PUSH2 0x243 JUMPI PUSH2 0x242 PUSH2 0x14B JUMP JUMPDEST JUMPDEST PUSH2 0x24E DUP5 DUP3 DUP6 PUSH2 0x207 JUMP JUMPDEST POP SWAP4 SWAP3 POP POP POP JUMP JUMPDEST PUSH0 DUP3 PUSH1 0x1F DUP4 ADD SLT PUSH2 0x26A JUMPI PUSH2 0x269 PUSH2 0x147 JUMP JUMPDEST JUMPDEST DUP2 MLOAD PUSH2 0x27A DUP5 DUP3 PUSH1 0x20 DUP7 ADD PUSH2 0x215 JUMP JUMPDEST SWAP2 POP POP SWAP3 SWAP2 POP POP JUMP JUMPDEST PUSH0 PUSH20 0xFFFFFFFFFFFFFFFFFFFFFFFFFFFFFFFFFFFFFFFF DUP3 AND SWAP1 POP SWAP2 SWAP1 POP JUMP JUMPDEST PUSH0 PUSH2 0x2AC DUP3 PUSH2 0x283 JUMP JUMPDEST SWAP1 POP SWAP2 SWAP1 POP JUMP JUMPDEST PUSH2 0x2BC DUP2 PUSH2 0x2A2 JUMP JUMPDEST DUP2 EQ PUSH2 0x2C6 JUMPI PUSH0 PUSH0 REVERT JUMPDEST POP JUMP JUMPDEST PUSH0 DUP2 MLOAD SWAP1 POP PUSH2 0x2D7 DUP2 PUSH2 0x2B3 JUMP JUMPDEST SWAP3 SWAP2 POP POP JUMP JUMPDEST PUSH0 PUSH0 PUSH0 PUSH0 PUSH0 PUSH0 PUSH1 0xC0 DUP8 DUP10 SUB SLT ISZERO PUSH2 0x2F7 JUMPI PUSH2 0x2F6 PUSH2 0x10C JUMP JUMPDEST JUMPDEST PUSH0 PUSH2 0x304 DUP10 DUP3 DUP11 ADD PUSH2 0x133 JUMP JUMPDEST SWAP7 POP POP PUSH1 0x20 DUP8 ADD MLOAD PUSH8 0xFFFFFFFFFFFFFFFF DUP2 GT ISZERO PUSH2 0x325 JUMPI PUSH2 0x324 PUSH2 0x110 JUMP JUMPDEST JUMPDEST PUSH2 0x331 DUP10 DUP3 DUP11 ADD PUSH2 0x256 JUMP JUMPDEST SWAP6 POP POP PUSH1 0x40 DUP8 ADD MLOAD PUSH8 0xFFFFFFFFFFFFFFFF DUP2 GT ISZERO PUSH2 0x352 JUMPI PUSH2 0x351 PUSH2 0x110 JUMP JUMPDEST JUMPDEST PUSH2 0x35E DUP10 DUP3 DUP11 ADD PUSH2 0x256 JUMP JUMPDEST SWAP5 POP POP PUSH1 0x60 PUSH2 0x36F DUP10 DUP3 DUP11 ADD PUSH2 0x2C9 JUMP JUMPDEST SWAP4 POP POP PUSH1 0x80 PUSH2 0x380 DUP10 DUP3 DUP11 ADD PUSH2 0x133 JUMP JUMPDEST SWAP3 POP POP PUSH1 0xA0 PUSH2 0x391 DUP10 DUP3 DUP11 ADD PUSH2 0x2C9 JUMP JUMPDEST SWAP2 POP POP SWAP3 SWAP6 POP SWAP3 SWAP6 POP SWAP3 SWAP6 JUMP JUMPDEST PUSH0 DUP2 MLOAD SWAP1 POP SWAP2 SWAP1 POP JUMP JUMPDEST PUSH32 0x4E487B7100000000000000000000000000000000000000000000000000000000 PUSH0 MSTORE PUSH1 0x22 PUSH1 0x4 MSTORE PUSH1 0x24 PUSH0 REVERT JUMPDEST PUSH0 PUSH1 0x2 DUP3 DIV SWAP1 POP PUSH1 0x1 DUP3 AND DUP1 PUSH2 0x3EC JUMPI PUSH1 0x7F DUP3 AND SWAP2 POP JUMPDEST PUSH1 0x20 DUP3 LT DUP2 SUB PUSH2 0x3FF JUMPI PUSH2 0x3FE PUSH2 0x3A8 JUMP JUMPDEST JUMPDEST POP SWAP2 SWAP1 POP JUMP JUMPDEST PUSH0 DUP2 SWAP1 POP DUP2 PUSH0 MSTORE PUSH1 0x20 PUSH0 KECCAK256 SWAP1 POP SWAP2 SWAP1 POP JUMP JUMPDEST PUSH0 PUSH1 0x20 PUSH1 0x1F DUP4 ADD DIV SWAP1 POP SWAP2 SWAP1 POP JUMP JUMPDEST PUSH0 DUP3 DUP3 SHL SWAP1 POP SWAP3 SWAP2 POP POP JUMP JUMPDEST PUSH0 PUSH1 0x8 DUP4 MUL PUSH2 0x461 PUSH32 0xFFFFFFFFFFFFFFFFFFFFFFFFFFFFFFFFFFFFFFFFFFFFFFFFFFFFFFFFFFFFFFFF DUP3 PUSH2 0x426 JUMP JUMPDEST PUSH2 0x46B DUP7 DUP4 PUSH2 0x426 JUMP JUMPDEST SWAP6 POP DUP1 NOT DUP5 AND SWAP4 POP DUP1 DUP7 AND DUP5 OR SWAP3 POP POP POP SWAP4 SWAP3 POP POP POP JUMP JUMPDEST PUSH0 DUP2 SWAP1 POP SWAP2 SWAP1 POP JUMP JUMPDEST PUSH0 PUSH2 0x4A6 PUSH2 0x4A1 PUSH2 0x49C DUP5 PUSH2 0x114 JUMP JUMPDEST PUSH2 0x483 JUMP JUMPDEST PUSH2 0x114 JUMP JUMPDEST SWAP1 POP SWAP2 SWAP1 POP JUMP JUMPDEST PUSH0 DUP2 SWAP1 POP SWAP2 SWAP1 POP JUMP JUMPDEST PUSH2 0x4BF DUP4 PUSH2 0x48C JUMP JUMPDEST PUSH2 0x4D3 PUSH2 0x4CB DUP3 PUSH2 0x4AD JUMP JUMPDEST DUP5 DUP5 SLOAD PUSH2 0x432 JUMP JUMPDEST DUP3 SSTORE POP POP POP POP JUMP JUMPDEST PUSH0 PUSH0 SWAP1 POP SWAP1 JUMP JUMPDEST PUSH2 0x4EA PUSH2 0x4DB JUMP JUMPDEST PUSH2 0x4F5 DUP2 DUP5 DUP5 PUSH2 0x4B6 JUMP JUMPDEST POP POP POP JUMP JUMPDEST JUMPDEST DUP2 DUP2 LT ISZERO PUSH2 0x518 JUMPI PUSH2 0x50D PUSH0 DUP3 PUSH2 0x4E2 JUMP JUMPDEST PUSH1 0x1 DUP2 ADD SWAP1 POP PUSH2 0x4FB JUMP JUMPDEST POP POP JUMP JUMPDEST PUSH1 0x1F DUP3 GT ISZERO PUSH2 0x55D JUMPI PUSH2 0x52E DUP2 PUSH2 0x405 JUMP JUMPDEST PUSH2 0x537 DUP5 PUSH2 0x417 JUMP JUMPDEST DUP2 ADD PUSH1 0x20 DUP6 LT ISZERO PUSH2 0x546 JUMPI DUP2 SWAP1 POP JUMPDEST PUSH2 0x55A PUSH2 0x552 DUP6 PUSH2 0x417 JUMP JUMPDEST DUP4 ADD DUP3 PUSH2 0x4FA JUMP JUMPDEST POP POP JUMPDEST POP POP POP JUMP JUMPDEST PUSH0 DUP3 DUP3 SHR SWAP1 POP SWAP3 SWAP2 POP POP JUMP JUMPDEST PUSH0 PUSH2 0x57D PUSH0 NOT DUP5 PUSH1 0x8 MUL PUSH2 0x562 JUMP JUMPDEST NOT DUP1 DUP4 AND SWAP2 POP POP SWAP3 SWAP2 POP POP JUMP JUMPDEST PUSH0 PUSH2 0x595 DUP4 DUP4 PUSH2 0x56E JUMP JUMPDEST SWAP2 POP DUP3 PUSH1 0x2 MUL DUP3 OR SWAP1 POP SWAP3 SWAP2 POP POP JUMP JUMPDEST PUSH2 0x5AE DUP3 PUSH2 0x39E JUMP JUMPDEST PUSH8 0xFFFFFFFFFFFFFFFF DUP2 GT ISZERO PUSH2 0x5C7 JUMPI PUSH2 0x5C6 PUSH2 0x15F JUMP JUMPDEST JUMPDEST PUSH2 0x5D1 DUP3 SLOAD PUSH2 0x3D5 JUMP JUMPDEST PUSH2 0x5DC DUP3 DUP3 DUP6 PUSH2 0x51C JUMP JUMPDEST PUSH0 PUSH1 0x20 SWAP1 POP PUSH1 0x1F DUP4 GT PUSH1 0x1 DUP2 EQ PUSH2 0x60D JUMPI PUSH0 DUP5 ISZERO PUSH2 0x5FB JUMPI DUP3 DUP8 ADD MLOAD SWAP1 POP JUMPDEST PUSH2 0x605 DUP6 DUP3 PUSH2 0x58A JUMP JUMPDEST DUP7 SSTORE POP PUSH2 0x66C JUMP JUMPDEST PUSH1 0x1F NOT DUP5 AND PUSH2 0x61B DUP7 PUSH2 0x405 JUMP JUMPDEST PUSH0 JUMPDEST DUP3 DUP2 LT ISZERO PUSH2 0x642 JUMPI DUP5 DUP10 ADD MLOAD DUP3 SSTORE PUSH1 0x1 DUP3 ADD SWAP2 POP PUSH1 0x20 DUP6 ADD SWAP5 POP PUSH1 0x20 DUP2 ADD SWAP1 POP PUSH2 0x61D JUMP JUMPDEST DUP7 DUP4 LT ISZERO PUSH2 0x65F JUMPI DUP5 DUP10 ADD MLOAD PUSH2 0x65B PUSH1 0x1F DUP10 AND DUP3 PUSH2 0x56E JUMP JUMPDEST DUP4 SSTORE POP JUMPDEST PUSH1 0x1 PUSH1 0x2 DUP9 MUL ADD DUP9 SSTORE POP POP POP JUMPDEST POP POP POP POP POP POP JUMP JUMPDEST PUSH2 0x30AB DUP1 PUSH2 0x681 PUSH0 CODECOPY PUSH0 RETURN INVALID PUSH1 0x80 PUSH1 0x40 MSTORE CALLVALUE DUP1 ISZERO PUSH2 0xF JUMPI PUSH0 PUSH0 REVERT JUMPDEST POP PUSH1 0x4 CALLDATASIZE LT PUSH2 0x14B JUMPI PUSH0 CALLDATALOAD PUSH1 0xE0 SHR DUP1 PUSH4 0x82FDE093 GT PUSH2 0xC1 JUMPI DUP1 PUSH4 0xA39FAC12 GT PUSH2 0x7A JUMPI DUP1 PUSH4 0xA39FAC12 EQ PUSH2 0x378 JUMPI DUP1 PUSH4 0xC1CBBCA7 EQ PUSH2 0x396 JUMPI DUP1 PUSH4 0xC8B342AB EQ PUSH2 0x3B2 JUMPI DUP1 PUSH4 0xD57BDE79 EQ PUSH2 0x3E2 JUMPI DUP1 PUSH4 0xEDF26D9B EQ PUSH2 0x400 JUMPI DUP1 PUSH4 0xFC0C546A EQ PUSH2 0x430 JUMPI PUSH2 0x14B JUMP JUMPDEST DUP1 PUSH4 0x82FDE093 EQ PUSH2 0x2C4 JUMPI DUP1 PUSH4 0x83920E90 EQ PUSH2 0x2E2 JUMPI DUP1 PUSH4 0x91F90157 EQ PUSH2 0x300 JUMPI DUP1 PUSH4 0x937E09B1 EQ PUSH2 0x31E JUMPI DUP1 PUSH4 0x976AF615 EQ PUSH2 0x33C JUMPI DUP1 PUSH4 0x9ACE38C2 EQ PUSH2 0x346 JUMPI PUSH2 0x14B JUMP JUMPDEST DUP1 PUSH4 0x4E69D560 GT PUSH2 0x113 JUMPI DUP1 PUSH4 0x4E69D560 EQ PUSH2 0x200 JUMPI DUP1 PUSH4 0x58D65629 EQ PUSH2 0x21E JUMPI DUP1 PUSH4 0x597E1FB5 EQ PUSH2 0x23C JUMPI DUP1 PUSH4 0x5DC1D641 EQ PUSH2 0x25A JUMPI DUP1 PUSH4 0x7AED167C EQ PUSH2 0x28A JUMPI DUP1 PUSH4 0x7B87D856 EQ PUSH2 0x2A6 JUMPI PUSH2 0x14B JUMP JUMPDEST DUP1 PUSH4 0xA144391 EQ PUSH2 0x14F JUMPI DUP1 PUSH4 0x3197CBB6 EQ PUSH2 0x17F JUMPI DUP1 PUSH4 0x3BC5DE30 EQ PUSH2 0x19D JUMPI DUP1 PUSH4 0x4051DDAC EQ PUSH2 0x1BB JUMPI DUP1 PUSH4 0x481C6A75 EQ PUSH2 0x1E2 JUMPI JUMPDEST PUSH0 PUSH0 REVERT JUMPDEST PUSH2 0x169 PUSH1 0x4 DUP1 CALLDATASIZE SUB DUP2 ADD SWAP1 PUSH2 0x164 SWAP2 SWAP1 PUSH2 0x1FCB JUMP JUMPDEST PUSH2 0x44E JUMP JUMPDEST PUSH1 0x40 MLOAD PUSH2 0x176 SWAP2 SWAP1 PUSH2 0x2010 JUMP JUMPDEST PUSH1 0x40 MLOAD DUP1 SWAP2 SUB SWAP1 RETURN JUMPDEST PUSH2 0x187 PUSH2 0x46B JUMP JUMPDEST PUSH1 0x40 MLOAD PUSH2 0x194 SWAP2 SWAP1 PUSH2 0x2041 JUMP JUMPDEST PUSH1 0x40 MLOAD DUP1 SWAP2 SUB SWAP1 RETURN JUMPDEST PUSH2 0x1A5 PUSH2 0x471 JUMP JUMPDEST PUSH1 0x40 MLOAD PUSH2 0x1B2 SWAP2 SWAP1 PUSH2 0x20CA JUMP JUMPDEST PUSH1 0x40 MLOAD DUP1 SWAP2 SUB SWAP1 RETURN JUMPDEST PUSH2 0x1C3 PUSH2 0x5DE JUMP JUMPDEST PUSH1 0x40 MLOAD PUSH2 0x1D9 SWAP11 SWAP10 SWAP9 SWAP8 SWAP7 SWAP6 SWAP5 SWAP4 SWAP3 SWAP2 SWAP1 PUSH2 0x21B0 JUMP JUMPDEST PUSH1 0x40 MLOAD DUP1 SWAP2 SUB SWAP1 RETURN JUMPDEST PUSH2 0x1EA PUSH2 0x892 JUMP JUMPDEST PUSH1 0x40 MLOAD PUSH2 0x1F7 SWAP2 SWAP1 PUSH2 0x225F JUMP JUMPDEST PUSH1 0x40 MLOAD DUP1 SWAP2 SUB SWAP1 RETURN JUMPDEST PUSH2 0x208 PUSH2 0x8B6 JUMP JUMPDEST PUSH1 0x40 MLOAD PUSH2 0x215 SWAP2 SWAP1 PUSH2 0x2010 JUMP JUMPDEST PUSH1 0x40 MLOAD DUP1 SWAP2 SUB SWAP1 RETURN JUMPDEST PUSH2 0x226 PUSH2 0x8CB JUMP JUMPDEST PUSH1 0x40 MLOAD PUSH2 0x233 SWAP2 SWAP1 PUSH2 0x20CA JUMP JUMPDEST PUSH1 0x40 MLOAD DUP1 SWAP2 SUB SWAP1 RETURN JUMPDEST PUSH2 0x244 PUSH2 0x957 JUMP JUMPDEST PUSH1 0x40 MLOAD PUSH2 0x251 SWAP2 SWAP1 PUSH2 0x2010 JUMP JUMPDEST PUSH1 0x40 MLOAD DUP1 SWAP2 SUB SWAP1 RETURN JUMPDEST PUSH2 0x274 PUSH1 0x4 DUP1 CALLDATASIZE SUB DUP2 ADD SWAP1 PUSH2 0x26F SWAP2 SWAP1 PUSH2 0x1FCB JUMP JUMPDEST PUSH2 0x969 JUMP JUMPDEST PUSH1 0x40 MLOAD PUSH2 0x281 SWAP2 SWAP1 PUSH2 0x2041 JUMP JUMPDEST PUSH1 0x40 MLOAD DUP1 SWAP2 SUB SWAP1 RETURN JUMPDEST PUSH2 0x2A4 PUSH1 0x4 DUP1 CALLDATASIZE SUB DUP2 ADD SWAP1 PUSH2 0x29F SWAP2 SWAP1 PUSH2 0x230B JUMP JUMPDEST PUSH2 0x97E JUMP JUMPDEST STOP JUMPDEST PUSH2 0x2AE PUSH2 0x12D5 JUMP JUMPDEST PUSH1 0x40 MLOAD PUSH2 0x2BB SWAP2 SWAP1 PUSH2 0x20CA JUMP JUMPDEST PUSH1 0x40 MLOAD DUP1 SWAP2 SUB SWAP1 RETURN JUMPDEST PUSH2 0x2CC PUSH2 0x1361 JUMP JUMPDEST PUSH1 0x40 MLOAD PUSH2 0x2D9 SWAP2 SWAP1 PUSH2 0x2041 JUMP JUMPDEST PUSH1 0x40 MLOAD DUP1 SWAP2 SUB SWAP1 RETURN JUMPDEST PUSH2 0x2EA PUSH2 0x1367 JUMP JUMPDEST PUSH1 0x40 MLOAD PUSH2 0x2F7 SWAP2 SWAP1 PUSH2 0x2479 JUMP JUMPDEST PUSH1 0x40 MLOAD DUP1 SWAP2 SUB SWAP1 RETURN JUMPDEST PUSH2 0x308 PUSH2 0x142B JUMP JUMPDEST PUSH1 0x40 MLOAD PUSH2 0x315 SWAP2 SWAP1 PUSH2 0x225F JUMP JUMPDEST PUSH1 0x40 MLOAD DUP1 SWAP2 SUB SWAP1 RETURN JUMPDEST PUSH2 0x326 PUSH2 0x1450 JUMP JUMPDEST PUSH1 0x40 MLOAD PUSH2 0x333 SWAP2 SWAP1 PUSH2 0x2041 JUMP JUMPDEST PUSH1 0x40 MLOAD DUP1 SWAP2 SUB SWAP1 RETURN JUMPDEST PUSH2 0x344 PUSH2 0x1456 JUMP JUMPDEST STOP JUMPDEST PUSH2 0x360 PUSH1 0x4 DUP1 CALLDATASIZE SUB DUP2 ADD SWAP1 PUSH2 0x35B SWAP2 SWAP1 PUSH2 0x2499 JUMP JUMPDEST PUSH2 0x18EB JUMP JUMPDEST PUSH1 0x40 MLOAD PUSH2 0x36F SWAP4 SWAP3 SWAP2 SWAP1 PUSH2 0x24C4 JUMP JUMPDEST PUSH1 0x40 MLOAD DUP1 SWAP2 SUB SWAP1 RETURN JUMPDEST PUSH2 0x380 PUSH2 0x193F JUMP JUMPDEST PUSH1 0x40 MLOAD PUSH2 0x38D SWAP2 SWAP1 PUSH2 0x24F9 JUMP JUMPDEST PUSH1 0x40 MLOAD DUP1 SWAP2 SUB SWAP1 RETURN JUMPDEST PUSH2 0x3B0 PUSH1 0x4 DUP1 CALLDATASIZE SUB DUP2 ADD SWAP1 PUSH2 0x3AB SWAP2 SWAP1 PUSH2 0x2499 JUMP JUMPDEST PUSH2 0x19CA JUMP JUMPDEST STOP JUMPDEST PUSH2 0x3CC PUSH1 0x4 DUP1 CALLDATASIZE SUB DUP2 ADD SWAP1 PUSH2 0x3C7 SWAP2 SWAP1 PUSH2 0x1FCB JUMP JUMPDEST PUSH2 0x1EB7 JUMP JUMPDEST PUSH1 0x40 MLOAD PUSH2 0x3D9 SWAP2 SWAP1 PUSH2 0x2041 JUMP JUMPDEST PUSH1 0x40 MLOAD DUP1 SWAP2 SUB SWAP1 RETURN JUMPDEST PUSH2 0x3EA PUSH2 0x1EFD JUMP JUMPDEST PUSH1 0x40 MLOAD PUSH2 0x3F7 SWAP2 SWAP1 PUSH2 0x2041 JUMP JUMPDEST PUSH1 0x40 MLOAD DUP1 SWAP2 SUB SWAP1 RETURN JUMPDEST PUSH2 0x41A PUSH1 0x4 DUP1 CALLDATASIZE SUB DUP2 ADD SWAP1 PUSH2 0x415 SWAP2 SWAP1 PUSH2 0x2499 JUMP JUMPDEST PUSH2 0x1F03 JUMP JUMPDEST PUSH1 0x40 MLOAD PUSH2 0x427 SWAP2 SWAP1 PUSH2 0x225F JUMP JUMPDEST PUSH1 0x40 MLOAD DUP1 SWAP2 SUB SWAP1 RETURN JUMPDEST PUSH2 0x438 PUSH2 0x1F3E JUMP JUMPDEST PUSH1 0x40 MLOAD PUSH2 0x445 SWAP2 SWAP1 PUSH2 0x2574 JUMP JUMPDEST PUSH1 0x40 MLOAD DUP1 SWAP2 SUB SWAP1 RETURN JUMPDEST PUSH1 0x4 PUSH1 0x20 MSTORE DUP1 PUSH0 MSTORE PUSH1 0x40 PUSH0 KECCAK256 PUSH0 SWAP2 POP SLOAD SWAP1 PUSH2 0x100 EXP SWAP1 DIV PUSH1 0xFF AND DUP2 JUMP JUMPDEST PUSH1 0xB SLOAD DUP2 JUMP JUMPDEST PUSH1 0x60 PUSH1 0xC PUSH0 SWAP1 SLOAD SWAP1 PUSH2 0x100 EXP SWAP1 DIV PUSH1 0xFF AND PUSH2 0x4C1 JUMPI PUSH1 0x40 MLOAD PUSH32 0x8C379A000000000000000000000000000000000000000000000000000000000 DUP2 MSTORE PUSH1 0x4 ADD PUSH2 0x4B8 SWAP1 PUSH2 0x25D7 JUMP JUMPDEST PUSH1 0x40 MLOAD DUP1 SWAP2 SUB SWAP1 REVERT JUMPDEST PUSH1 0x9 PUSH0 SWAP1 SLOAD SWAP1 PUSH2 0x100 EXP SWAP1 DIV PUSH20 0xFFFFFFFFFFFFFFFFFFFFFFFFFFFFFFFFFFFFFFFF AND PUSH20 0xFFFFFFFFFFFFFFFFFFFFFFFFFFFFFFFFFFFFFFFF AND CALLER PUSH20 0xFFFFFFFFFFFFFFFFFFFFFFFFFFFFFFFFFFFFFFFF AND EQ PUSH2 0x550 JUMPI PUSH1 0x40 MLOAD PUSH32 0x8C379A000000000000000000000000000000000000000000000000000000000 DUP2 MSTORE PUSH1 0x4 ADD PUSH2 0x547 SWAP1 PUSH2 0x263F JUMP JUMPDEST PUSH1 0x40 MLOAD DUP1 SWAP2 SUB SWAP1 REVERT JUMPDEST PUSH1 0x2 DUP1 SLOAD PUSH2 0x55D SWAP1 PUSH2 0x268A JUMP JUMPDEST DUP1 PUSH1 0x1F ADD PUSH1 0x20 DUP1 SWAP2 DIV MUL PUSH1 0x20 ADD PUSH1 0x40 MLOAD SWAP1 DUP2 ADD PUSH1 0x40 MSTORE DUP1 SWAP3 SWAP2 SWAP1 DUP2 DUP2 MSTORE PUSH1 0x20 ADD DUP3 DUP1 SLOAD PUSH2 0x589 SWAP1 PUSH2 0x268A JUMP JUMPDEST DUP1 ISZERO PUSH2 0x5D4 JUMPI DUP1 PUSH1 0x1F LT PUSH2 0x5AB JUMPI PUSH2 0x100 DUP1 DUP4 SLOAD DIV MUL DUP4 MSTORE SWAP2 PUSH1 0x20 ADD SWAP2 PUSH2 0x5D4 JUMP JUMPDEST DUP3 ADD SWAP2 SWAP1 PUSH0 MSTORE PUSH1 0x20 PUSH0 KECCAK256 SWAP1 JUMPDEST DUP2 SLOAD DUP2 MSTORE SWAP1 PUSH1 0x1 ADD SWAP1 PUSH1 0x20 ADD DUP1 DUP4 GT PUSH2 0x5B7 JUMPI DUP3 SWAP1 SUB PUSH1 0x1F AND DUP3 ADD SWAP2 JUMPDEST POP POP POP POP POP SWAP1 POP SWAP1 JUMP JUMPDEST PUSH0 PUSH0 PUSH0 PUSH0 PUSH0 PUSH1 0x60 DUP1 PUSH0 PUSH1 0x60 PUSH0 PUSH1 0x1 SLOAD PUSH1 0xC PUSH1 0x1 SWAP1 SLOAD SWAP1 PUSH2 0x100 EXP SWAP1 DIV PUSH20 0xFFFFFFFFFFFFFFFFFFFFFFFFFFFFFFFFFFFFFFFF AND PUSH20 0xFFFFFFFFFFFFFFFFFFFFFFFFFFFFFFFFFFFFFFFF AND PUSH4 0x70A08231 ADDRESS PUSH1 0x40 MLOAD DUP3 PUSH4 0xFFFFFFFF AND PUSH1 0xE0 SHL DUP2 MSTORE PUSH1 0x4 ADD PUSH2 0x648 SWAP2 SWAP1 PUSH2 0x225F JUMP JUMPDEST PUSH1 0x20 PUSH1 0x40 MLOAD DUP1 DUP4 SUB DUP2 DUP7 GAS STATICCALL ISZERO DUP1 ISZERO PUSH2 0x663 JUMPI RETURNDATASIZE PUSH0 PUSH0 RETURNDATACOPY RETURNDATASIZE PUSH0 REVERT JUMPDEST POP POP POP POP PUSH1 0x40 MLOAD RETURNDATASIZE PUSH1 0x1F NOT PUSH1 0x1F DUP3 ADD AND DUP3 ADD DUP1 PUSH1 0x40 MSTORE POP DUP2 ADD SWAP1 PUSH2 0x687 SWAP2 SWAP1 PUSH2 0x26CE JUMP JUMPDEST PUSH1 0x6 SLOAD PUSH0 PUSH0 SWAP1 SLOAD SWAP1 PUSH2 0x100 EXP SWAP1 DIV PUSH20 0xFFFFFFFFFFFFFFFFFFFFFFFFFFFFFFFFFFFFFFFF AND PUSH1 0xA SLOAD PUSH1 0x2 PUSH1 0x3 PUSH1 0x9 PUSH0 SWAP1 SLOAD SWAP1 PUSH2 0x100 EXP SWAP1 DIV PUSH20 0xFFFFFFFFFFFFFFFFFFFFFFFFFFFFFFFFFFFFFFFF AND PUSH1 0x7 PUSH1 0xB SLOAD DUP5 DUP1 SLOAD PUSH2 0x6E5 SWAP1 PUSH2 0x268A JUMP JUMPDEST DUP1 PUSH1 0x1F ADD PUSH1 0x20 DUP1 SWAP2 DIV MUL PUSH1 0x20 ADD PUSH1 0x40 MLOAD SWAP1 DUP2 ADD PUSH1 0x40 MSTORE DUP1 SWAP3 SWAP2 SWAP1 DUP2 DUP2 MSTORE PUSH1 0x20 ADD DUP3 DUP1 SLOAD PUSH2 0x711 SWAP1 PUSH2 0x268A JUMP JUMPDEST DUP1 ISZERO PUSH2 0x75C JUMPI DUP1 PUSH1 0x1F LT PUSH2 0x733 JUMPI PUSH2 0x100 DUP1 DUP4 SLOAD DIV MUL DUP4 MSTORE SWAP2 PUSH1 0x20 ADD SWAP2 PUSH2 0x75C JUMP JUMPDEST DUP3 ADD SWAP2 SWAP1 PUSH0 MSTORE PUSH1 0x20 PUSH0 KECCAK256 SWAP1 JUMPDEST DUP2 SLOAD DUP2 MSTORE SWAP1 PUSH1 0x1 ADD SWAP1 PUSH1 0x20 ADD DUP1 DUP4 GT PUSH2 0x73F JUMPI DUP3 SWAP1 SUB PUSH1 0x1F AND DUP3 ADD SWAP2 JUMPDEST POP POP POP POP POP SWAP5 POP DUP4 DUP1 SLOAD PUSH2 0x76F SWAP1 PUSH2 0x268A JUMP JUMPDEST DUP1 PUSH1 0x1F ADD PUSH1 0x20 DUP1 SWAP2 DIV MUL PUSH1 0x20 ADD PUSH1 0x40 MLOAD SWAP1 DUP2 ADD PUSH1 0x40 MSTORE DUP1 SWAP3 SWAP2 SWAP1 DUP2 DUP2 MSTORE PUSH1 0x20 ADD DUP3 DUP1 SLOAD PUSH2 0x79B SWAP1 PUSH2 0x268A JUMP JUMPDEST DUP1 ISZERO PUSH2 0x7E6 JUMPI DUP1 PUSH1 0x1F LT PUSH2 0x7BD JUMPI PUSH2 0x100 DUP1 DUP4 SLOAD DIV MUL DUP4 MSTORE SWAP2 PUSH1 0x20 ADD SWAP2 PUSH2 0x7E6 JUMP JUMPDEST DUP3 ADD SWAP2 SWAP1 PUSH0 MSTORE PUSH1 0x20 PUSH0 KECCAK256 SWAP1 JUMPDEST DUP2 SLOAD DUP2 MSTORE SWAP1 PUSH1 0x1 ADD SWAP1 PUSH1 0x20 ADD DUP1 DUP4 GT PUSH2 0x7C9 JUMPI DUP3 SWAP1 SUB PUSH1 0x1F AND DUP3 ADD SWAP2 JUMPDEST POP POP POP POP POP SWAP4 POP DUP2 DUP1 SLOAD DUP1 PUSH1 0x20 MUL PUSH1 0x20 ADD PUSH1 0x40 MLOAD SWAP1 DUP2 ADD PUSH1 0x40 MSTORE DUP1 SWAP3 SWAP2 SWAP1 DUP2 DUP2 MSTORE PUSH1 0x20 ADD DUP3 DUP1 SLOAD DUP1 ISZERO PUSH2 0x86B JUMPI PUSH1 0x20 MUL DUP3 ADD SWAP2 SWAP1 PUSH0 MSTORE PUSH1 0x20 PUSH0 KECCAK256 SWAP1 JUMPDEST DUP2 PUSH0 SWAP1 SLOAD SWAP1 PUSH2 0x100 EXP SWAP1 DIV PUSH20 0xFFFFFFFFFFFFFFFFFFFFFFFFFFFFFFFFFFFFFFFF AND PUSH20 0xFFFFFFFFFFFFFFFFFFFFFFFFFFFFFFFFFFFFFFFF AND DUP2 MSTORE PUSH1 0x20 ADD SWAP1 PUSH1 0x1 ADD SWAP1 DUP1 DUP4 GT PUSH2 0x822 JUMPI JUMPDEST POP POP POP POP POP SWAP2 POP SWAP10 POP SWAP10 POP SWAP10 POP SWAP10 POP SWAP10 POP SWAP10 POP SWAP10 POP SWAP10 POP SWAP10 POP SWAP10 POP SWAP1 SWAP2 SWAP3 SWAP4 SWAP5 SWAP6 SWAP7 SWAP8 SWAP9 SWAP10 JUMP JUMPDEST PUSH0 PUSH0 SWAP1 SLOAD SWAP1 PUSH2 0x100 EXP SWAP1 DIV PUSH20 0xFFFFFFFFFFFFFFFFFFFFFFFFFFFFFFFFFFFFFFFF AND DUP2 JUMP JUMPDEST PUSH0 PUSH1 0xC PUSH0 SWAP1 SLOAD SWAP1 PUSH2 0x100 EXP SWAP1 DIV PUSH1 0xFF AND SWAP1 POP SWAP1 JUMP JUMPDEST PUSH1 0x3 DUP1 SLOAD PUSH2 0x8D8 SWAP1 PUSH2 0x268A JUMP JUMPDEST DUP1 PUSH1 0x1F ADD PUSH1 0x20 DUP1 SWAP2 DIV MUL PUSH1 0x20 ADD PUSH1 0x40 MLOAD SWAP1 DUP2 ADD PUSH1 0x40 MSTORE DUP1 SWAP3 SWAP2 SWAP1 DUP2 DUP2 MSTORE PUSH1 0x20 ADD DUP3 DUP1 SLOAD PUSH2 0x904 SWAP1 PUSH2 0x268A JUMP JUMPDEST DUP1 ISZERO PUSH2 0x94F JUMPI DUP1 PUSH1 0x1F LT PUSH2 0x926 JUMPI PUSH2 0x100 DUP1 DUP4 SLOAD DIV MUL DUP4 MSTORE SWAP2 PUSH1 0x20 ADD SWAP2 PUSH2 0x94F JUMP JUMPDEST DUP3 ADD SWAP2 SWAP1 PUSH0 MSTORE PUSH1 0x20 PUSH0 KECCAK256 SWAP1 JUMPDEST DUP2 SLOAD DUP2 MSTORE SWAP1 PUSH1 0x1 ADD SWAP1 PUSH1 0x20 ADD DUP1 DUP4 GT PUSH2 0x932 JUMPI DUP3 SWAP1 SUB PUSH1 0x1F AND DUP3 ADD SWAP2 JUMPDEST POP POP POP POP POP DUP2 JUMP JUMPDEST PUSH1 0xC PUSH0 SWAP1 SLOAD SWAP1 PUSH2 0x100 EXP SWAP1 DIV PUSH1 0xFF AND DUP2 JUMP JUMPDEST PUSH1 0x5 PUSH1 0x20 MSTORE DUP1 PUSH0 MSTORE PUSH1 0x40 PUSH0 KECCAK256 PUSH0 SWAP2 POP SWAP1 POP SLOAD DUP2 JUMP JUMPDEST PUSH0 CALLER SWAP1 POP PUSH0 ADDRESS SWAP1 POP PUSH0 PUSH1 0xC PUSH1 0x1 SWAP1 SLOAD SWAP1 PUSH2 0x100 EXP SWAP1 DIV PUSH20 0xFFFFFFFFFFFFFFFFFFFFFFFFFFFFFFFFFFFFFFFF AND PUSH20 0xFFFFFFFFFFFFFFFFFFFFFFFFFFFFFFFFFFFFFFFF AND PUSH4 0x7ECEBE00 DUP5 PUSH1 0x40 MLOAD DUP3 PUSH4 0xFFFFFFFF AND PUSH1 0xE0 SHL DUP2 MSTORE PUSH1 0x4 ADD PUSH2 0x9E2 SWAP2 SWAP1 PUSH2 0x225F JUMP JUMPDEST PUSH1 0x20 PUSH1 0x40 MLOAD DUP1 DUP4 SUB DUP2 DUP7 GAS STATICCALL ISZERO DUP1 ISZERO PUSH2 0x9FD JUMPI RETURNDATASIZE PUSH0 PUSH0 RETURNDATACOPY RETURNDATASIZE PUSH0 REVERT JUMPDEST POP POP POP POP PUSH1 0x40 MLOAD RETURNDATASIZE PUSH1 0x1F NOT PUSH1 0x1F DUP3 ADD AND DUP3 ADD DUP1 PUSH1 0x40 MSTORE POP DUP2 ADD SWAP1 PUSH2 0xA21 SWAP2 SWAP1 PUSH2 0x26CE JUMP JUMPDEST SWAP1 POP PUSH32 0xF29B58C6301AB4D806BF8454E3565B31382F5AD5F02FD45FB42E18523CB860E4 DUP2 PUSH1 0x40 MLOAD PUSH2 0xA52 SWAP2 SWAP1 PUSH2 0x2041 JUMP JUMPDEST PUSH1 0x40 MLOAD DUP1 SWAP2 SUB SWAP1 LOG1 DUP2 PUSH20 0xFFFFFFFFFFFFFFFFFFFFFFFFFFFFFFFFFFFFFFFF AND DUP4 PUSH20 0xFFFFFFFFFFFFFFFFFFFFFFFFFFFFFFFFFFFFFFFF AND PUSH32 0xE73D3E7F4544B3502481A4298011EDE4F74F12E7C94C6998BC96C6DB67502C3C DUP11 DUP5 DUP12 PUSH1 0x40 MLOAD PUSH2 0xABB SWAP4 SWAP3 SWAP2 SWAP1 PUSH2 0x26F9 JUMP JUMPDEST PUSH1 0x40 MLOAD DUP1 SWAP2 SUB SWAP1 LOG3 PUSH1 0xC PUSH1 0x1 SWAP1 SLOAD SWAP1 PUSH2 0x100 EXP SWAP1 DIV PUSH20 0xFFFFFFFFFFFFFFFFFFFFFFFFFFFFFFFFFFFFFFFF AND PUSH20 0xFFFFFFFFFFFFFFFFFFFFFFFFFFFFFFFFFFFFFFFF AND PUSH4 0xD505ACCF DUP5 DUP5 DUP12 DUP12 DUP12 DUP12 DUP12 PUSH1 0x40 MLOAD DUP9 PUSH4 0xFFFFFFFF AND PUSH1 0xE0 SHL DUP2 MSTORE PUSH1 0x4 ADD PUSH2 0xB2A SWAP8 SWAP7 SWAP6 SWAP5 SWAP4 SWAP3 SWAP2 SWAP1 PUSH2 0x274C JUMP JUMPDEST PUSH0 PUSH1 0x40 MLOAD DUP1 DUP4 SUB DUP2 PUSH0 DUP8 DUP1 EXTCODESIZE ISZERO DUP1 ISZERO PUSH2 0xB41 JUMPI PUSH0 PUSH0 REVERT JUMPDEST POP GAS CALL SWAP3 POP POP POP DUP1 ISZERO PUSH2 0xB52 JUMPI POP PUSH1 0x1 JUMPDEST PUSH2 0xC82 JUMPI PUSH2 0xB5E PUSH2 0x27C5 JUMP JUMPDEST DUP1 PUSH4 0x8C379A0 SUB PUSH2 0xC10 JUMPI POP PUSH2 0xB72 PUSH2 0x2842 JUMP JUMPDEST DUP1 PUSH2 0xB7D JUMPI POP PUSH2 0xC12 JUMP JUMPDEST PUSH32 0xE19FBC5FF4F9E3DF659F19FD3F2F1BD7A51B5E2994E3A55670578BB0F9D1D556 DUP2 PUSH1 0x40 MLOAD PUSH2 0xBAC SWAP2 SWAP1 PUSH2 0x20CA JUMP JUMPDEST PUSH1 0x40 MLOAD DUP1 SWAP2 SUB SWAP1 LOG1 DUP1 PUSH1 0x40 MLOAD PUSH1 0x20 ADD PUSH2 0xBC5 SWAP2 SWAP1 PUSH2 0x2955 JUMP JUMPDEST PUSH1 0x40 MLOAD PUSH1 0x20 DUP2 DUP4 SUB SUB DUP2 MSTORE SWAP1 PUSH1 0x40 MSTORE PUSH1 0x40 MLOAD PUSH32 0x8C379A000000000000000000000000000000000000000000000000000000000 DUP2 MSTORE PUSH1 0x4 ADD PUSH2 0xC07 SWAP2 SWAP1 PUSH2 0x20CA JUMP JUMPDEST PUSH1 0x40 MLOAD DUP1 SWAP2 SUB SWAP1 REVERT JUMPDEST POP JUMPDEST PUSH32 0xE19FBC5FF4F9E3DF659F19FD3F2F1BD7A51B5E2994E3A55670578BB0F9D1D556 PUSH1 0x40 MLOAD PUSH2 0xC3F SWAP1 PUSH2 0x29C0 JUMP JUMPDEST PUSH1 0x40 MLOAD DUP1 SWAP2 SUB SWAP1 LOG1 PUSH1 0x40 MLOAD PUSH32 0x8C379A000000000000000000000000000000000000000000000000000000000 DUP2 MSTORE PUSH1 0x4 ADD PUSH2 0xC79 SWAP1 PUSH2 0x2A28 JUMP JUMPDEST PUSH1 0x40 MLOAD DUP1 SWAP2 SUB SWAP1 REVERT JUMPDEST PUSH0 PUSH1 0xC PUSH1 0x1 SWAP1 SLOAD SWAP1 PUSH2 0x100 EXP SWAP1 DIV PUSH20 0xFFFFFFFFFFFFFFFFFFFFFFFFFFFFFFFFFFFFFFFF AND PUSH20 0xFFFFFFFFFFFFFFFFFFFFFFFFFFFFFFFFFFFFFFFF AND PUSH4 0xDD62ED3E DUP6 DUP6 PUSH1 0x40 MLOAD DUP4 PUSH4 0xFFFFFFFF AND PUSH1 0xE0 SHL DUP2 MSTORE PUSH1 0x4 ADD PUSH2 0xCE0 SWAP3 SWAP2 SWAP1 PUSH2 0x2A46 JUMP JUMPDEST PUSH1 0x20 PUSH1 0x40 MLOAD DUP1 DUP4 SUB DUP2 DUP7 GAS STATICCALL ISZERO DUP1 ISZERO PUSH2 0xCFB JUMPI RETURNDATASIZE PUSH0 PUSH0 RETURNDATACOPY RETURNDATASIZE PUSH0 REVERT JUMPDEST POP POP POP POP PUSH1 0x40 MLOAD RETURNDATASIZE PUSH1 0x1F NOT PUSH1 0x1F DUP3 ADD AND DUP3 ADD DUP1 PUSH1 0x40 MSTORE POP DUP2 ADD SWAP1 PUSH2 0xD1F SWAP2 SWAP1 PUSH2 0x26CE JUMP JUMPDEST SWAP1 POP PUSH32 0xFB7DB43709E58B37855E273302377128C7EFF642D99999CB530A6CD6A287E9FA DUP2 DUP11 PUSH1 0x40 MLOAD PUSH2 0xD52 SWAP3 SWAP2 SWAP1 PUSH2 0x2A6D JUMP JUMPDEST PUSH1 0x40 MLOAD DUP1 SWAP2 SUB SWAP1 LOG1 DUP9 DUP2 LT ISZERO PUSH2 0xD9D JUMPI PUSH1 0x40 MLOAD PUSH32 0x8C379A000000000000000000000000000000000000000000000000000000000 DUP2 MSTORE PUSH1 0x4 ADD PUSH2 0xD94 SWAP1 PUSH2 0x2B04 JUMP JUMPDEST PUSH1 0x40 MLOAD DUP1 SWAP2 SUB SWAP1 REVERT JUMPDEST DUP4 PUSH20 0xFFFFFFFFFFFFFFFFFFFFFFFFFFFFFFFFFFFFFFFF AND PUSH32 0x7653BA64263E4C00C4274956A77BB1CE892C55A528CFBF7873A825EA64CF981C DUP3 PUSH1 0x40 MLOAD PUSH2 0xDE3 SWAP2 SWAP1 PUSH2 0x2041 JUMP JUMPDEST PUSH1 0x40 MLOAD DUP1 SWAP2 SUB SWAP1 LOG2 PUSH32 0x38AD295BD970E48FBC3D2741A85BCA4BAF27A2884EC78BC81A5EEE942060D5FC DUP5 DUP11 PUSH1 0x40 MLOAD PUSH2 0xE1C SWAP3 SWAP2 SWAP1 PUSH2 0x2B22 JUMP JUMPDEST PUSH1 0x40 MLOAD DUP1 SWAP2 SUB SWAP1 LOG1 PUSH0 PUSH0 SWAP1 SLOAD SWAP1 PUSH2 0x100 EXP SWAP1 DIV PUSH20 0xFFFFFFFFFFFFFFFFFFFFFFFFFFFFFFFFFFFFFFFF AND PUSH20 0xFFFFFFFFFFFFFFFFFFFFFFFFFFFFFFFFFFFFFFFF AND DUP5 PUSH20 0xFFFFFFFFFFFFFFFFFFFFFFFFFFFFFFFFFFFFFFFF AND SUB PUSH2 0xEB2 JUMPI PUSH1 0x40 MLOAD PUSH32 0x8C379A000000000000000000000000000000000000000000000000000000000 DUP2 MSTORE PUSH1 0x4 ADD PUSH2 0xEA9 SWAP1 PUSH2 0x2BB9 JUMP JUMPDEST PUSH1 0x40 MLOAD DUP1 SWAP2 SUB SWAP1 REVERT JUMPDEST PUSH0 PUSH1 0x5 PUSH0 DUP7 PUSH20 0xFFFFFFFFFFFFFFFFFFFFFFFFFFFFFFFFFFFFFFFF AND PUSH20 0xFFFFFFFFFFFFFFFFFFFFFFFFFFFFFFFFFFFFFFFF AND DUP2 MSTORE PUSH1 0x20 ADD SWAP1 DUP2 MSTORE PUSH1 0x20 ADD PUSH0 KECCAK256 SLOAD SWAP1 POP PUSH0 DUP11 DUP3 PUSH2 0xF00 SWAP2 SWAP1 PUSH2 0x2C04 JUMP JUMPDEST SWAP1 POP PUSH0 DUP3 SUB PUSH2 0xF4F JUMPI PUSH1 0x1 SLOAD DUP2 LT ISZERO PUSH2 0xF4E JUMPI PUSH1 0x40 MLOAD PUSH32 0x8C379A000000000000000000000000000000000000000000000000000000000 DUP2 MSTORE PUSH1 0x4 ADD PUSH2 0xF45 SWAP1 PUSH2 0x2C81 JUMP JUMPDEST PUSH1 0x40 MLOAD DUP1 SWAP2 SUB SWAP1 REVERT JUMPDEST JUMPDEST PUSH1 0xA SLOAD DUP2 GT PUSH2 0xF93 JUMPI PUSH1 0x40 MLOAD PUSH32 0x8C379A000000000000000000000000000000000000000000000000000000000 DUP2 MSTORE PUSH1 0x4 ADD PUSH2 0xF8A SWAP1 PUSH2 0x2CE9 JUMP JUMPDEST PUSH1 0x40 MLOAD DUP1 SWAP2 SUB SWAP1 REVERT JUMPDEST PUSH1 0xC PUSH1 0x1 SWAP1 SLOAD SWAP1 PUSH2 0x100 EXP SWAP1 DIV PUSH20 0xFFFFFFFFFFFFFFFFFFFFFFFFFFFFFFFFFFFFFFFF AND PUSH20 0xFFFFFFFFFFFFFFFFFFFFFFFFFFFFFFFFFFFFFFFF AND PUSH4 0x23B872DD DUP8 ADDRESS DUP15 PUSH1 0x40 MLOAD DUP5 PUSH4 0xFFFFFFFF AND PUSH1 0xE0 SHL DUP2 MSTORE PUSH1 0x4 ADD PUSH2 0xFF2 SWAP4 SWAP3 SWAP2 SWAP1 PUSH2 0x2D07 JUMP JUMPDEST PUSH1 0x20 PUSH1 0x40 MLOAD DUP1 DUP4 SUB DUP2 PUSH0 DUP8 GAS CALL ISZERO DUP1 ISZERO PUSH2 0x100E JUMPI RETURNDATASIZE PUSH0 PUSH0 RETURNDATACOPY RETURNDATASIZE PUSH0 REVERT JUMPDEST POP POP POP POP PUSH1 0x40 MLOAD RETURNDATASIZE PUSH1 0x1F NOT PUSH1 0x1F DUP3 ADD AND DUP3 ADD DUP1 PUSH1 0x40 MSTORE POP DUP2 ADD SWAP1 PUSH2 0x1032 SWAP2 SWAP1 PUSH2 0x2D66 JUMP JUMPDEST PUSH2 0x1071 JUMPI PUSH1 0x40 MLOAD PUSH32 0x8C379A000000000000000000000000000000000000000000000000000000000 DUP2 MSTORE PUSH1 0x4 ADD PUSH2 0x1068 SWAP1 PUSH2 0x2DDB JUMP JUMPDEST PUSH1 0x40 MLOAD DUP1 SWAP2 SUB SWAP1 REVERT JUMPDEST DUP1 PUSH1 0x5 PUSH0 DUP9 PUSH20 0xFFFFFFFFFFFFFFFFFFFFFFFFFFFFFFFFFFFFFFFF AND PUSH20 0xFFFFFFFFFFFFFFFFFFFFFFFFFFFFFFFFFFFFFFFF AND DUP2 MSTORE PUSH1 0x20 ADD SWAP1 DUP2 MSTORE PUSH1 0x20 ADD PUSH0 KECCAK256 DUP2 SWAP1 SSTORE POP DUP1 PUSH1 0xA DUP2 SWAP1 SSTORE POP DUP6 PUSH1 0x9 PUSH0 PUSH2 0x100 EXP DUP2 SLOAD DUP2 PUSH20 0xFFFFFFFFFFFFFFFFFFFFFFFFFFFFFFFFFFFFFFFF MUL NOT AND SWAP1 DUP4 PUSH20 0xFFFFFFFFFFFFFFFFFFFFFFFFFFFFFFFFFFFFFFFF AND MUL OR SWAP1 SSTORE POP PUSH1 0x8 PUSH1 0x40 MLOAD DUP1 PUSH1 0x60 ADD PUSH1 0x40 MSTORE DUP1 DUP14 DUP2 MSTORE PUSH1 0x20 ADD TIMESTAMP DUP2 MSTORE PUSH1 0x20 ADD DUP9 PUSH20 0xFFFFFFFFFFFFFFFFFFFFFFFFFFFFFFFFFFFFFFFF AND DUP2 MSTORE POP SWAP1 DUP1 PUSH1 0x1 DUP2 SLOAD ADD DUP1 DUP3 SSTORE DUP1 SWAP2 POP POP PUSH1 0x1 SWAP1 SUB SWAP1 PUSH0 MSTORE PUSH1 0x20 PUSH0 KECCAK256 SWAP1 PUSH1 0x3 MUL ADD PUSH0 SWAP1 SWAP2 SWAP1 SWAP2 SWAP1 SWAP2 POP PUSH0 DUP3 ADD MLOAD DUP2 PUSH0 ADD SSTORE PUSH1 0x20 DUP3 ADD MLOAD DUP2 PUSH1 0x1 ADD SSTORE PUSH1 0x40 DUP3 ADD MLOAD DUP2 PUSH1 0x2 ADD PUSH0 PUSH2 0x100 EXP DUP2 SLOAD DUP2 PUSH20 0xFFFFFFFFFFFFFFFFFFFFFFFFFFFFFFFFFFFFFFFF MUL NOT AND SWAP1 DUP4 PUSH20 0xFFFFFFFFFFFFFFFFFFFFFFFFFFFFFFFFFFFFFFFF AND MUL OR SWAP1 SSTORE POP POP POP PUSH1 0x4 PUSH0 DUP8 PUSH20 0xFFFFFFFFFFFFFFFFFFFFFFFFFFFFFFFFFFFFFFFF AND PUSH20 0xFFFFFFFFFFFFFFFFFFFFFFFFFFFFFFFFFFFFFFFF AND DUP2 MSTORE PUSH1 0x20 ADD SWAP1 DUP2 MSTORE PUSH1 0x20 ADD PUSH0 KECCAK256 PUSH0 SWAP1 SLOAD SWAP1 PUSH2 0x100 EXP SWAP1 DIV PUSH1 0xFF AND PUSH2 0x12C8 JUMPI PUSH1 0x1 PUSH1 0x4 PUSH0 DUP9 PUSH20 0xFFFFFFFFFFFFFFFFFFFFFFFFFFFFFFFFFFFFFFFF AND PUSH20 0xFFFFFFFFFFFFFFFFFFFFFFFFFFFFFFFFFFFFFFFF AND DUP2 MSTORE PUSH1 0x20 ADD SWAP1 DUP2 MSTORE PUSH1 0x20 ADD PUSH0 KECCAK256 PUSH0 PUSH2 0x100 EXP DUP2 SLOAD DUP2 PUSH1 0xFF MUL NOT AND SWAP1 DUP4 ISZERO ISZERO MUL OR SWAP1 SSTORE POP PUSH1 0x6 PUSH0 DUP2 SLOAD DUP1 SWAP3 SWAP2 SWAP1 PUSH2 0x1262 SWAP1 PUSH2 0x2DF9 JUMP JUMPDEST SWAP2 SWAP1 POP SSTORE POP PUSH1 0x7 DUP7 SWAP1 DUP1 PUSH1 0x1 DUP2 SLOAD ADD DUP1 DUP3 SSTORE DUP1 SWAP2 POP POP PUSH1 0x1 SWAP1 SUB SWAP1 PUSH0 MSTORE PUSH1 0x20 PUSH0 KECCAK256 ADD PUSH0 SWAP1 SWAP2 SWAP1 SWAP2 SWAP1 SWAP2 PUSH2 0x100 EXP DUP2 SLOAD DUP2 PUSH20 0xFFFFFFFFFFFFFFFFFFFFFFFFFFFFFFFFFFFFFFFF MUL NOT AND SWAP1 DUP4 PUSH20 0xFFFFFFFFFFFFFFFFFFFFFFFFFFFFFFFFFFFFFFFF AND MUL OR SWAP1 SSTORE POP JUMPDEST POP POP POP POP POP POP POP POP POP POP POP JUMP JUMPDEST PUSH1 0x2 DUP1 SLOAD PUSH2 0x12E2 SWAP1 PUSH2 0x268A JUMP JUMPDEST DUP1 PUSH1 0x1F ADD PUSH1 0x20 DUP1 SWAP2 DIV MUL PUSH1 0x20 ADD PUSH1 0x40 MLOAD SWAP1 DUP2 ADD PUSH1 0x40 MSTORE DUP1 SWAP3 SWAP2 SWAP1 DUP2 DUP2 MSTORE PUSH1 0x20 ADD DUP3 DUP1 SLOAD PUSH2 0x130E SWAP1 PUSH2 0x268A JUMP JUMPDEST DUP1 ISZERO PUSH2 0x1359 JUMPI DUP1 PUSH1 0x1F LT PUSH2 0x1330 JUMPI PUSH2 0x100 DUP1 DUP4 SLOAD DIV MUL DUP4 MSTORE SWAP2 PUSH1 0x20 ADD SWAP2 PUSH2 0x1359 JUMP JUMPDEST DUP3 ADD SWAP2 SWAP1 PUSH0 MSTORE PUSH1 0x20 PUSH0 KECCAK256 SWAP1 JUMPDEST DUP2 SLOAD DUP2 MSTORE SWAP1 PUSH1 0x1 ADD SWAP1 PUSH1 0x20 ADD DUP1 DUP4 GT PUSH2 0x133C JUMPI DUP3 SWAP1 SUB PUSH1 0x1F AND DUP3 ADD SWAP2 JUMPDEST POP POP POP POP POP DUP2 JUMP JUMPDEST PUSH1 0x6 SLOAD DUP2 JUMP JUMPDEST PUSH1 0x60 PUSH1 0x8 DUP1 SLOAD DUP1 PUSH1 0x20 MUL PUSH1 0x20 ADD PUSH1 0x40 MLOAD SWAP1 DUP2 ADD PUSH1 0x40 MSTORE DUP1 SWAP3 SWAP2 SWAP1 DUP2 DUP2 MSTORE PUSH1 0x20 ADD PUSH0 SWAP1 JUMPDEST DUP3 DUP3 LT ISZERO PUSH2 0x1422 JUMPI DUP4 DUP3 SWAP1 PUSH0 MSTORE PUSH1 0x20 PUSH0 KECCAK256 SWAP1 PUSH1 0x3 MUL ADD PUSH1 0x40 MLOAD DUP1 PUSH1 0x60 ADD PUSH1 0x40 MSTORE SWAP1 DUP2 PUSH0 DUP3 ADD SLOAD DUP2 MSTORE PUSH1 0x20 ADD PUSH1 0x1 DUP3 ADD SLOAD DUP2 MSTORE PUSH1 0x20 ADD PUSH1 0x2 DUP3 ADD PUSH0 SWAP1 SLOAD SWAP1 PUSH2 0x100 EXP SWAP1 DIV PUSH20 0xFFFFFFFFFFFFFFFFFFFFFFFFFFFFFFFFFFFFFFFF AND PUSH20 0xFFFFFFFFFFFFFFFFFFFFFFFFFFFFFFFFFFFFFFFF AND PUSH20 0xFFFFFFFFFFFFFFFFFFFFFFFFFFFFFFFFFFFFFFFF AND DUP2 MSTORE POP POP DUP2 MSTORE PUSH1 0x20 ADD SWAP1 PUSH1 0x1 ADD SWAP1 PUSH2 0x138A JUMP JUMPDEST POP POP POP POP SWAP1 POP SWAP1 JUMP JUMPDEST PUSH1 0x9 PUSH0 SWAP1 SLOAD SWAP1 PUSH2 0x100 EXP SWAP1 DIV PUSH20 0xFFFFFFFFFFFFFFFFFFFFFFFFFFFFFFFFFFFFFFFF AND DUP2 JUMP JUMPDEST PUSH1 0x1 SLOAD DUP2 JUMP JUMPDEST PUSH1 0xB SLOAD TIMESTAMP LT ISZERO PUSH2 0x149B JUMPI PUSH1 0x40 MLOAD PUSH32 0x8C379A000000000000000000000000000000000000000000000000000000000 DUP2 MSTORE PUSH1 0x4 ADD PUSH2 0x1492 SWAP1 PUSH2 0x2E8A JUMP JUMPDEST PUSH1 0x40 MLOAD DUP1 SWAP2 SUB SWAP1 REVERT JUMPDEST PUSH1 0xC PUSH0 SWAP1 SLOAD SWAP1 PUSH2 0x100 EXP SWAP1 DIV PUSH1 0xFF AND ISZERO PUSH2 0x14EA JUMPI PUSH1 0x40 MLOAD PUSH32 0x8C379A000000000000000000000000000000000000000000000000000000000 DUP2 MSTORE PUSH1 0x4 ADD PUSH2 0x14E1 SWAP1 PUSH2 0x2EF2 JUMP JUMPDEST PUSH1 0x40 MLOAD DUP1 SWAP2 SUB SWAP1 REVERT JUMPDEST PUSH0 PUSH0 SWAP1 POP JUMPDEST PUSH1 0x7 DUP1 SLOAD SWAP1 POP DUP2 LT ISZERO PUSH2 0x1755 JUMPI PUSH0 PUSH1 0x7 DUP3 DUP2 SLOAD DUP2 LT PUSH2 0x1511 JUMPI PUSH2 0x1510 PUSH2 0x2F10 JUMP JUMPDEST JUMPDEST SWAP1 PUSH0 MSTORE PUSH1 0x20 PUSH0 KECCAK256 ADD PUSH0 SWAP1 SLOAD SWAP1 PUSH2 0x100 EXP SWAP1 DIV PUSH20 0xFFFFFFFFFFFFFFFFFFFFFFFFFFFFFFFFFFFFFFFF AND SWAP1 POP PUSH1 0x9 PUSH0 SWAP1 SLOAD SWAP1 PUSH2 0x100 EXP SWAP1 DIV PUSH20 0xFFFFFFFFFFFFFFFFFFFFFFFFFFFFFFFFFFFFFFFF AND PUSH20 0xFFFFFFFFFFFFFFFFFFFFFFFFFFFFFFFFFFFFFFFF AND DUP2 PUSH20 0xFFFFFFFFFFFFFFFFFFFFFFFFFFFFFFFFFFFFFFFF AND EQ PUSH2 0x1747 JUMPI PUSH0 PUSH1 0x5 PUSH0 DUP4 PUSH20 0xFFFFFFFFFFFFFFFFFFFFFFFFFFFFFFFFFFFFFFFF AND PUSH20 0xFFFFFFFFFFFFFFFFFFFFFFFFFFFFFFFFFFFFFFFF AND DUP2 MSTORE PUSH1 0x20 ADD SWAP1 DUP2 MSTORE PUSH1 0x20 ADD PUSH0 KECCAK256 SLOAD SWAP1 POP PUSH0 DUP2 GT ISZERO PUSH2 0x1745 JUMPI PUSH0 PUSH1 0x5 PUSH0 DUP5 PUSH20 0xFFFFFFFFFFFFFFFFFFFFFFFFFFFFFFFFFFFFFFFF AND PUSH20 0xFFFFFFFFFFFFFFFFFFFFFFFFFFFFFFFFFFFFFFFF AND DUP2 MSTORE PUSH1 0x20 ADD SWAP1 DUP2 MSTORE PUSH1 0x20 ADD PUSH0 KECCAK256 DUP2 SWAP1 SSTORE POP PUSH1 0xC PUSH1 0x1 SWAP1 SLOAD SWAP1 PUSH2 0x100 EXP SWAP1 DIV PUSH20 0xFFFFFFFFFFFFFFFFFFFFFFFFFFFFFFFFFFFFFFFF AND PUSH20 0xFFFFFFFFFFFFFFFFFFFFFFFFFFFFFFFFFFFFFFFF AND PUSH4 0xA9059CBB DUP4 DUP4 PUSH1 0x40 MLOAD DUP4 PUSH4 0xFFFFFFFF AND PUSH1 0xE0 SHL DUP2 MSTORE PUSH1 0x4 ADD PUSH2 0x1677 SWAP3 SWAP2 SWAP1 PUSH2 0x2B22 JUMP JUMPDEST PUSH1 0x20 PUSH1 0x40 MLOAD DUP1 DUP4 SUB DUP2 PUSH0 DUP8 GAS CALL ISZERO DUP1 ISZERO PUSH2 0x1693 JUMPI RETURNDATASIZE PUSH0 PUSH0 RETURNDATACOPY RETURNDATASIZE PUSH0 REVERT JUMPDEST POP POP POP POP PUSH1 0x40 MLOAD RETURNDATASIZE PUSH1 0x1F NOT PUSH1 0x1F DUP3 ADD AND DUP3 ADD DUP1 PUSH1 0x40 MSTORE POP DUP2 ADD SWAP1 PUSH2 0x16B7 SWAP2 SWAP1 PUSH2 0x2D66 JUMP JUMPDEST PUSH2 0x16F6 JUMPI PUSH1 0x40 MLOAD PUSH32 0x8C379A000000000000000000000000000000000000000000000000000000000 DUP2 MSTORE PUSH1 0x4 ADD PUSH2 0x16ED SWAP1 PUSH2 0x2F87 JUMP JUMPDEST PUSH1 0x40 MLOAD DUP1 SWAP2 SUB SWAP1 REVERT JUMPDEST DUP2 PUSH20 0xFFFFFFFFFFFFFFFFFFFFFFFFFFFFFFFFFFFFFFFF AND PUSH32 0x3367BEFD2B2F39615CD79917C2153263C4AF1D3945EC003E5D5BFC13A8D85833 DUP3 PUSH1 0x40 MLOAD PUSH2 0x173C SWAP2 SWAP1 PUSH2 0x2041 JUMP JUMPDEST PUSH1 0x40 MLOAD DUP1 SWAP2 SUB SWAP1 LOG2 JUMPDEST POP JUMPDEST POP DUP1 DUP1 PUSH1 0x1 ADD SWAP2 POP POP PUSH2 0x14EF JUMP JUMPDEST POP PUSH0 PUSH1 0xA SLOAD GT ISZERO PUSH2 0x18CF JUMPI PUSH1 0xC PUSH1 0x1 SWAP1 SLOAD SWAP1 PUSH2 0x100 EXP SWAP1 DIV PUSH20 0xFFFFFFFFFFFFFFFFFFFFFFFFFFFFFFFFFFFFFFFF AND PUSH20 0xFFFFFFFFFFFFFFFFFFFFFFFFFFFFFFFFFFFFFFFF AND PUSH4 0xA9059CBB PUSH0 PUSH0 SWAP1 SLOAD SWAP1 PUSH2 0x100 EXP SWAP1 DIV PUSH20 0xFFFFFFFFFFFFFFFFFFFFFFFFFFFFFFFFFFFFFFFF AND PUSH1 0xA SLOAD PUSH1 0x40 MLOAD DUP4 PUSH4 0xFFFFFFFF AND PUSH1 0xE0 SHL DUP2 MSTORE PUSH1 0x4 ADD PUSH2 0x17DF SWAP3 SWAP2 SWAP1 PUSH2 0x2B22 JUMP JUMPDEST PUSH1 0x20 PUSH1 0x40 MLOAD DUP1 DUP4 SUB DUP2 PUSH0 DUP8 GAS CALL ISZERO DUP1 ISZERO PUSH2 0x17FB JUMPI RETURNDATASIZE PUSH0 PUSH0 RETURNDATACOPY RETURNDATASIZE PUSH0 REVERT JUMPDEST POP POP POP POP PUSH1 0x40 MLOAD RETURNDATASIZE PUSH1 0x1F NOT PUSH1 0x1F DUP3 ADD AND DUP3 ADD DUP1 PUSH1 0x40 MSTORE POP DUP2 ADD SWAP1 PUSH2 0x181F SWAP2 SWAP1 PUSH2 0x2D66 JUMP JUMPDEST PUSH2 0x185E JUMPI PUSH1 0x40 MLOAD PUSH32 0x8C379A000000000000000000000000000000000000000000000000000000000 DUP2 MSTORE PUSH1 0x4 ADD PUSH2 0x1855 SWAP1 PUSH2 0x2FEF JUMP JUMPDEST PUSH1 0x40 MLOAD DUP1 SWAP2 SUB SWAP1 REVERT JUMPDEST PUSH0 PUSH0 SWAP1 SLOAD SWAP1 PUSH2 0x100 EXP SWAP1 DIV PUSH20 0xFFFFFFFFFFFFFFFFFFFFFFFFFFFFFFFFFFFFFFFF AND PUSH20 0xFFFFFFFFFFFFFFFFFFFFFFFFFFFFFFFFFFFFFFFF AND PUSH32 0xCB4A9094DA4DF77FB2C0DBAA5047660B1237E61D82A02176C1BE74CA757F2531 PUSH1 0xA SLOAD PUSH1 0x40 MLOAD PUSH2 0x18C6 SWAP2 SWAP1 PUSH2 0x2041 JUMP JUMPDEST PUSH1 0x40 MLOAD DUP1 SWAP2 SUB SWAP1 LOG2 JUMPDEST PUSH1 0x1 PUSH1 0xC PUSH0 PUSH2 0x100 EXP DUP2 SLOAD DUP2 PUSH1 0xFF MUL NOT AND SWAP1 DUP4 ISZERO ISZERO MUL OR SWAP1 SSTORE POP JUMP JUMPDEST PUSH1 0x8 DUP2 DUP2 SLOAD DUP2 LT PUSH2 0x18FA JUMPI PUSH0 DUP1 REVERT JUMPDEST SWAP1 PUSH0 MSTORE PUSH1 0x20 PUSH0 KECCAK256 SWAP1 PUSH1 0x3 MUL ADD PUSH0 SWAP2 POP SWAP1 POP DUP1 PUSH0 ADD SLOAD SWAP1 DUP1 PUSH1 0x1 ADD SLOAD SWAP1 DUP1 PUSH1 0x2 ADD PUSH0 SWAP1 SLOAD SWAP1 PUSH2 0x100 EXP SWAP1 DIV PUSH20 0xFFFFFFFFFFFFFFFFFFFFFFFFFFFFFFFFFFFFFFFF AND SWAP1 POP DUP4 JUMP JUMPDEST PUSH1 0x60 PUSH1 0x7 DUP1 SLOAD DUP1 PUSH1 0x20 MUL PUSH1 0x20 ADD PUSH1 0x40 MLOAD SWAP1 DUP2 ADD PUSH1 0x40 MSTORE DUP1 SWAP3 SWAP2 SWAP1 DUP2 DUP2 MSTORE PUSH1 0x20 ADD DUP3 DUP1 SLOAD DUP1 ISZERO PUSH2 0x19C0 JUMPI PUSH1 0x20 MUL DUP3 ADD SWAP2 SWAP1 PUSH0 MSTORE PUSH1 0x20 PUSH0 KECCAK256 SWAP1 JUMPDEST DUP2 PUSH0 SWAP1 SLOAD SWAP1 PUSH2 0x100 EXP SWAP1 DIV PUSH20 0xFFFFFFFFFFFFFFFFFFFFFFFFFFFFFFFFFFFFFFFF AND PUSH20 0xFFFFFFFFFFFFFFFFFFFFFFFFFFFFFFFFFFFFFFFF AND DUP2 MSTORE PUSH1 0x20 ADD SWAP1 PUSH1 0x1 ADD SWAP1 DUP1 DUP4 GT PUSH2 0x1977 JUMPI JUMPDEST POP POP POP POP POP SWAP1 POP SWAP1 JUMP JUMPDEST PUSH1 0xB SLOAD TIMESTAMP LT PUSH2 0x1A0E JUMPI PUSH1 0x40 MLOAD PUSH32 0x8C379A000000000000000000000000000000000000000000000000000000000 DUP2 MSTORE PUSH1 0x4 ADD PUSH2 0x1A05 SWAP1 PUSH2 0x3057 JUMP JUMPDEST PUSH1 0x40 MLOAD DUP1 SWAP2 SUB SWAP1 REVERT JUMPDEST PUSH0 PUSH0 SWAP1 SLOAD SWAP1 PUSH2 0x100 EXP SWAP1 DIV PUSH20 0xFFFFFFFFFFFFFFFFFFFFFFFFFFFFFFFFFFFFFFFF AND PUSH20 0xFFFFFFFFFFFFFFFFFFFFFFFFFFFFFFFFFFFFFFFF AND CALLER PUSH20 0xFFFFFFFFFFFFFFFFFFFFFFFFFFFFFFFFFFFFFFFF AND SUB PUSH2 0x1A9C JUMPI PUSH1 0x40 MLOAD PUSH32 0x8C379A000000000000000000000000000000000000000000000000000000000 DUP2 MSTORE PUSH1 0x4 ADD PUSH2 0x1A93 SWAP1 PUSH2 0x2BB9 JUMP JUMPDEST PUSH1 0x40 MLOAD DUP1 SWAP2 SUB SWAP1 REVERT JUMPDEST PUSH0 PUSH1 0x5 PUSH0 CALLER PUSH20 0xFFFFFFFFFFFFFFFFFFFFFFFFFFFFFFFFFFFFFFFF AND PUSH20 0xFFFFFFFFFFFFFFFFFFFFFFFFFFFFFFFFFFFFFFFF AND DUP2 MSTORE PUSH1 0x20 ADD SWAP1 DUP2 MSTORE PUSH1 0x20 ADD PUSH0 KECCAK256 SLOAD SWAP1 POP PUSH0 DUP3 DUP3 PUSH2 0x1AEA SWAP2 SWAP1 PUSH2 0x2C04 JUMP JUMPDEST SWAP1 POP PUSH0 DUP3 SUB PUSH2 0x1B39 JUMPI PUSH1 0x1 SLOAD DUP2 LT ISZERO PUSH2 0x1B38 JUMPI PUSH1 0x40 MLOAD PUSH32 0x8C379A000000000000000000000000000000000000000000000000000000000 DUP2 MSTORE PUSH1 0x4 ADD PUSH2 0x1B2F SWAP1 PUSH2 0x2C81 JUMP JUMPDEST PUSH1 0x40 MLOAD DUP1 SWAP2 SUB SWAP1 REVERT JUMPDEST JUMPDEST PUSH1 0xA SLOAD DUP2 GT PUSH2 0x1B7D JUMPI PUSH1 0x40 MLOAD PUSH32 0x8C379A000000000000000000000000000000000000000000000000000000000 DUP2 MSTORE PUSH1 0x4 ADD PUSH2 0x1B74 SWAP1 PUSH2 0x2CE9 JUMP JUMPDEST PUSH1 0x40 MLOAD DUP1 SWAP2 SUB SWAP1 REVERT JUMPDEST PUSH1 0xC PUSH1 0x1 SWAP1 SLOAD SWAP1 PUSH2 0x100 EXP SWAP1 DIV PUSH20 0xFFFFFFFFFFFFFFFFFFFFFFFFFFFFFFFFFFFFFFFF AND PUSH20 0xFFFFFFFFFFFFFFFFFFFFFFFFFFFFFFFFFFFFFFFF AND PUSH4 0x23B872DD CALLER ADDRESS DUP7 PUSH1 0x40 MLOAD DUP5 PUSH4 0xFFFFFFFF AND PUSH1 0xE0 SHL DUP2 MSTORE PUSH1 0x4 ADD PUSH2 0x1BDC SWAP4 SWAP3 SWAP2 SWAP1 PUSH2 0x2D07 JUMP JUMPDEST PUSH1 0x20 PUSH1 0x40 MLOAD DUP1 DUP4 SUB DUP2 PUSH0 DUP8 GAS CALL ISZERO DUP1 ISZERO PUSH2 0x1BF8 JUMPI RETURNDATASIZE PUSH0 PUSH0 RETURNDATACOPY RETURNDATASIZE PUSH0 REVERT JUMPDEST POP POP POP POP PUSH1 0x40 MLOAD RETURNDATASIZE PUSH1 0x1F NOT PUSH1 0x1F DUP3 ADD AND DUP3 ADD DUP1 PUSH1 0x40 MSTORE POP DUP2 ADD SWAP1 PUSH2 0x1C1C SWAP2 SWAP1 PUSH2 0x2D66 JUMP JUMPDEST PUSH2 0x1C5B JUMPI PUSH1 0x40 MLOAD PUSH32 0x8C379A000000000000000000000000000000000000000000000000000000000 DUP2 MSTORE PUSH1 0x4 ADD PUSH2 0x1C52 SWAP1 PUSH2 0x2DDB JUMP JUMPDEST PUSH1 0x40 MLOAD DUP1 SWAP2 SUB SWAP1 REVERT JUMPDEST DUP1 PUSH1 0x5 PUSH0 CALLER PUSH20 0xFFFFFFFFFFFFFFFFFFFFFFFFFFFFFFFFFFFFFFFF AND PUSH20 0xFFFFFFFFFFFFFFFFFFFFFFFFFFFFFFFFFFFFFFFF AND DUP2 MSTORE PUSH1 0x20 ADD SWAP1 DUP2 MSTORE PUSH1 0x20 ADD PUSH0 KECCAK256 DUP2 SWAP1 SSTORE POP DUP1 PUSH1 0xA DUP2 SWAP1 SSTORE POP CALLER PUSH1 0x9 PUSH0 PUSH2 0x100 EXP DUP2 SLOAD DUP2 PUSH20 0xFFFFFFFFFFFFFFFFFFFFFFFFFFFFFFFFFFFFFFFF MUL NOT AND SWAP1 DUP4 PUSH20 0xFFFFFFFFFFFFFFFFFFFFFFFFFFFFFFFFFFFFFFFF AND MUL OR SWAP1 SSTORE POP PUSH1 0x8 PUSH1 0x40 MLOAD DUP1 PUSH1 0x60 ADD PUSH1 0x40 MSTORE DUP1 DUP6 DUP2 MSTORE PUSH1 0x20 ADD TIMESTAMP DUP2 MSTORE PUSH1 0x20 ADD CALLER PUSH20 0xFFFFFFFFFFFFFFFFFFFFFFFFFFFFFFFFFFFFFFFF AND DUP2 MSTORE POP SWAP1 DUP1 PUSH1 0x1 DUP2 SLOAD ADD DUP1 DUP3 SSTORE DUP1 SWAP2 POP POP PUSH1 0x1 SWAP1 SUB SWAP1 PUSH0 MSTORE PUSH1 0x20 PUSH0 KECCAK256 SWAP1 PUSH1 0x3 MUL ADD PUSH0 SWAP1 SWAP2 SWAP1 SWAP2 SWAP1 SWAP2 POP PUSH0 DUP3 ADD MLOAD DUP2 PUSH0 ADD SSTORE PUSH1 0x20 DUP3 ADD MLOAD DUP2 PUSH1 0x1 ADD SSTORE PUSH1 0x40 DUP3 ADD MLOAD DUP2 PUSH1 0x2 ADD PUSH0 PUSH2 0x100 EXP DUP2 SLOAD DUP2 PUSH20 0xFFFFFFFFFFFFFFFFFFFFFFFFFFFFFFFFFFFFFFFF MUL NOT AND SWAP1 DUP4 PUSH20 0xFFFFFFFFFFFFFFFFFFFFFFFFFFFFFFFFFFFFFFFF AND MUL OR SWAP1 SSTORE POP POP POP PUSH1 0x4 PUSH0 CALLER PUSH20 0xFFFFFFFFFFFFFFFFFFFFFFFFFFFFFFFFFFFFFFFF AND PUSH20 0xFFFFFFFFFFFFFFFFFFFFFFFFFFFFFFFFFFFFFFFF AND DUP2 MSTORE PUSH1 0x20 ADD SWAP1 DUP2 MSTORE PUSH1 0x20 ADD PUSH0 KECCAK256 PUSH0 SWAP1 SLOAD SWAP1 PUSH2 0x100 EXP SWAP1 DIV PUSH1 0xFF AND PUSH2 0x1EB2 JUMPI PUSH1 0x1 PUSH1 0x4 PUSH0 CALLER PUSH20 0xFFFFFFFFFFFFFFFFFFFFFFFFFFFFFFFFFFFFFFFF AND PUSH20 0xFFFFFFFFFFFFFFFFFFFFFFFFFFFFFFFFFFFFFFFF AND DUP2 MSTORE PUSH1 0x20 ADD SWAP1 DUP2 MSTORE PUSH1 0x20 ADD PUSH0 KECCAK256 PUSH0 PUSH2 0x100 EXP DUP2 SLOAD DUP2 PUSH1 0xFF MUL NOT AND SWAP1 DUP4 ISZERO ISZERO MUL OR SWAP1 SSTORE POP PUSH1 0x6 PUSH0 DUP2 SLOAD DUP1 SWAP3 SWAP2 SWAP1 PUSH2 0x1E4C SWAP1 PUSH2 0x2DF9 JUMP JUMPDEST SWAP2 SWAP1 POP SSTORE POP PUSH1 0x7 CALLER SWAP1 DUP1 PUSH1 0x1 DUP2 SLOAD ADD DUP1 DUP3 SSTORE DUP1 SWAP2 POP POP PUSH1 0x1 SWAP1 SUB SWAP1 PUSH0 MSTORE PUSH1 0x20 PUSH0 KECCAK256 ADD PUSH0 SWAP1 SWAP2 SWAP1 SWAP2 SWAP1 SWAP2 PUSH2 0x100 EXP DUP2 SLOAD DUP2 PUSH20 0xFFFFFFFFFFFFFFFFFFFFFFFFFFFFFFFFFFFFFFFF MUL NOT AND SWAP1 DUP4 PUSH20 0xFFFFFFFFFFFFFFFFFFFFFFFFFFFFFFFFFFFFFFFF AND MUL OR SWAP1 SSTORE POP JUMPDEST POP POP POP JUMP JUMPDEST PUSH0 PUSH1 0x5 PUSH0 DUP4 PUSH20 0xFFFFFFFFFFFFFFFFFFFFFFFFFFFFFFFFFFFFFFFF AND PUSH20 0xFFFFFFFFFFFFFFFFFFFFFFFFFFFFFFFFFFFFFFFF AND DUP2 MSTORE PUSH1 0x20 ADD SWAP1 DUP2 MSTORE PUSH1 0x20 ADD PUSH0 KECCAK256 SLOAD SWAP1 POP SWAP2 SWAP1 POP JUMP JUMPDEST PUSH1 0xA SLOAD DUP2 JUMP JUMPDEST PUSH1 0x7 DUP2 DUP2 SLOAD DUP2 LT PUSH2 0x1F12 JUMPI PUSH0 DUP1 REVERT JUMPDEST SWAP1 PUSH0 MSTORE PUSH1 0x20 PUSH0 KECCAK256 ADD PUSH0 SWAP2 POP SLOAD SWAP1 PUSH2 0x100 EXP SWAP1 DIV PUSH20 0xFFFFFFFFFFFFFFFFFFFFFFFFFFFFFFFFFFFFFFFF AND DUP2 JUMP JUMPDEST PUSH1 0xC PUSH1 0x1 SWAP1 SLOAD SWAP1 PUSH2 0x100 EXP SWAP1 DIV PUSH20 0xFFFFFFFFFFFFFFFFFFFFFFFFFFFFFFFFFFFFFFFF AND DUP2 JUMP JUMPDEST PUSH0 PUSH1 0x40 MLOAD SWAP1 POP SWAP1 JUMP JUMPDEST PUSH0 PUSH0 REVERT JUMPDEST PUSH0 PUSH20 0xFFFFFFFFFFFFFFFFFFFFFFFFFFFFFFFFFFFFFFFF DUP3 AND SWAP1 POP SWAP2 SWAP1 POP JUMP JUMPDEST PUSH0 PUSH2 0x1F9A DUP3 PUSH2 0x1F71 JUMP JUMPDEST SWAP1 POP SWAP2 SWAP1 POP JUMP JUMPDEST PUSH2 0x1FAA DUP2 PUSH2 0x1F90 JUMP JUMPDEST DUP2 EQ PUSH2 0x1FB4 JUMPI PUSH0 PUSH0 REVERT JUMPDEST POP JUMP JUMPDEST PUSH0 DUP2 CALLDATALOAD SWAP1 POP PUSH2 0x1FC5 DUP2 PUSH2 0x1FA1 JUMP JUMPDEST SWAP3 SWAP2 POP POP JUMP JUMPDEST PUSH0 PUSH1 0x20 DUP3 DUP5 SUB SLT ISZERO PUSH2 0x1FE0 JUMPI PUSH2 0x1FDF PUSH2 0x1F6D JUMP JUMPDEST JUMPDEST PUSH0 PUSH2 0x1FED DUP5 DUP3 DUP6 ADD PUSH2 0x1FB7 JUMP JUMPDEST SWAP2 POP POP SWAP3 SWAP2 POP POP JUMP JUMPDEST PUSH0 DUP2 ISZERO ISZERO SWAP1 POP SWAP2 SWAP1 POP JUMP JUMPDEST PUSH2 0x200A DUP2 PUSH2 0x1FF6 JUMP JUMPDEST DUP3 MSTORE POP POP JUMP JUMPDEST PUSH0 PUSH1 0x20 DUP3 ADD SWAP1 POP PUSH2 0x2023 PUSH0 DUP4 ADD DUP5 PUSH2 0x2001 JUMP JUMPDEST SWAP3 SWAP2 POP POP JUMP JUMPDEST PUSH0 DUP2 SWAP1 POP SWAP2 SWAP1 POP JUMP JUMPDEST PUSH2 0x203B DUP2 PUSH2 0x2029 JUMP JUMPDEST DUP3 MSTORE POP POP JUMP JUMPDEST PUSH0 PUSH1 0x20 DUP3 ADD SWAP1 POP PUSH2 0x2054 PUSH0 DUP4 ADD DUP5 PUSH2 0x2032 JUMP JUMPDEST SWAP3 SWAP2 POP POP JUMP JUMPDEST PUSH0 DUP2 MLOAD SWAP1 POP SWAP2 SWAP1 POP JUMP JUMPDEST PUSH0 DUP3 DUP3 MSTORE PUSH1 0x20 DUP3 ADD SWAP1 POP SWAP3 SWAP2 POP POP JUMP JUMPDEST DUP3 DUP2 DUP4 MCOPY PUSH0 DUP4 DUP4 ADD MSTORE POP POP POP JUMP JUMPDEST PUSH0 PUSH1 0x1F NOT PUSH1 0x1F DUP4 ADD AND SWAP1 POP SWAP2 SWAP1 POP JUMP JUMPDEST PUSH0 PUSH2 0x209C DUP3 PUSH2 0x205A JUMP JUMPDEST PUSH2 0x20A6 DUP2 DUP6 PUSH2 0x2064 JUMP JUMPDEST SWAP4 POP PUSH2 0x20B6 DUP2 DUP6 PUSH1 0x20 DUP7 ADD PUSH2 0x2074 JUMP JUMPDEST PUSH2 0x20BF DUP2 PUSH2 0x2082 JUMP JUMPDEST DUP5 ADD SWAP2 POP POP SWAP3 SWAP2 POP POP JUMP JUMPDEST PUSH0 PUSH1 0x20 DUP3 ADD SWAP1 POP DUP2 DUP2 SUB PUSH0 DUP4 ADD MSTORE PUSH2 0x20E2 DUP2 DUP5 PUSH2 0x2092 JUMP JUMPDEST SWAP1 POP SWAP3 SWAP2 POP POP JUMP JUMPDEST PUSH2 0x20F3 DUP2 PUSH2 0x1F90 JUMP JUMPDEST DUP3 MSTORE POP POP JUMP JUMPDEST PUSH0 DUP2 MLOAD SWAP1 POP SWAP2 SWAP1 POP JUMP JUMPDEST PUSH0 DUP3 DUP3 MSTORE PUSH1 0x20 DUP3 ADD SWAP1 POP SWAP3 SWAP2 POP POP JUMP JUMPDEST PUSH0 DUP2 SWAP1 POP PUSH1 0x20 DUP3 ADD SWAP1 POP SWAP2 SWAP1 POP JUMP JUMPDEST PUSH2 0x212B DUP2 PUSH2 0x1F90 JUMP JUMPDEST DUP3 MSTORE POP POP JUMP JUMPDEST PUSH0 PUSH2 0x213C DUP4 DUP4 PUSH2 0x2122 JUMP JUMPDEST PUSH1 0x20 DUP4 ADD SWAP1 POP SWAP3 SWAP2 POP POP JUMP JUMPDEST PUSH0 PUSH1 0x20 DUP3 ADD SWAP1 POP SWAP2 SWAP1 POP JUMP JUMPDEST PUSH0 PUSH2 0x215E DUP3 PUSH2 0x20F9 JUMP JUMPDEST PUSH2 0x2168 DUP2 DUP6 PUSH2 0x2103 JUMP JUMPDEST SWAP4 POP PUSH2 0x2173 DUP4 PUSH2 0x2113 JUMP JUMPDEST DUP1 PUSH0 JUMPDEST DUP4 DUP2 LT ISZERO PUSH2 0x21A3 JUMPI DUP2 MLOAD PUSH2 0x218A DUP9 DUP3 PUSH2 0x2131 JUMP JUMPDEST SWAP8 POP PUSH2 0x2195 DUP4 PUSH2 0x2148 JUMP JUMPDEST SWAP3 POP POP PUSH1 0x1 DUP2 ADD SWAP1 POP PUSH2 0x2176 JUMP JUMPDEST POP DUP6 SWAP4 POP POP POP POP SWAP3 SWAP2 POP POP JUMP JUMPDEST PUSH0 PUSH2 0x140 DUP3 ADD SWAP1 POP PUSH2 0x21C4 PUSH0 DUP4 ADD DUP14 PUSH2 0x2032 JUMP JUMPDEST PUSH2 0x21D1 PUSH1 0x20 DUP4 ADD DUP13 PUSH2 0x2032 JUMP JUMPDEST PUSH2 0x21DE PUSH1 0x40 DUP4 ADD DUP12 PUSH2 0x2032 JUMP JUMPDEST PUSH2 0x21EB PUSH1 0x60 DUP4 ADD DUP11 PUSH2 0x20EA JUMP JUMPDEST PUSH2 0x21F8 PUSH1 0x80 DUP4 ADD DUP10 PUSH2 0x2032 JUMP JUMPDEST DUP2 DUP2 SUB PUSH1 0xA0 DUP4 ADD MSTORE PUSH2 0x220A DUP2 DUP9 PUSH2 0x2092 JUMP JUMPDEST SWAP1 POP DUP2 DUP2 SUB PUSH1 0xC0 DUP4 ADD MSTORE PUSH2 0x221E DUP2 DUP8 PUSH2 0x2092 JUMP JUMPDEST SWAP1 POP PUSH2 0x222D PUSH1 0xE0 DUP4 ADD DUP7 PUSH2 0x20EA JUMP JUMPDEST DUP2 DUP2 SUB PUSH2 0x100 DUP4 ADD MSTORE PUSH2 0x2240 DUP2 DUP6 PUSH2 0x2154 JUMP JUMPDEST SWAP1 POP PUSH2 0x2250 PUSH2 0x120 DUP4 ADD DUP5 PUSH2 0x2032 JUMP JUMPDEST SWAP12 SWAP11 POP POP POP POP POP POP POP POP POP POP POP JUMP JUMPDEST PUSH0 PUSH1 0x20 DUP3 ADD SWAP1 POP PUSH2 0x2272 PUSH0 DUP4 ADD DUP5 PUSH2 0x20EA JUMP JUMPDEST SWAP3 SWAP2 POP POP JUMP JUMPDEST PUSH2 0x2281 DUP2 PUSH2 0x2029 JUMP JUMPDEST DUP2 EQ PUSH2 0x228B JUMPI PUSH0 PUSH0 REVERT JUMPDEST POP JUMP JUMPDEST PUSH0 DUP2 CALLDATALOAD SWAP1 POP PUSH2 0x229C DUP2 PUSH2 0x2278 JUMP JUMPDEST SWAP3 SWAP2 POP POP JUMP JUMPDEST PUSH0 PUSH1 0xFF DUP3 AND SWAP1 POP SWAP2 SWAP1 POP JUMP JUMPDEST PUSH2 0x22B7 DUP2 PUSH2 0x22A2 JUMP JUMPDEST DUP2 EQ PUSH2 0x22C1 JUMPI PUSH0 PUSH0 REVERT JUMPDEST POP JUMP JUMPDEST PUSH0 DUP2 CALLDATALOAD SWAP1 POP PUSH2 0x22D2 DUP2 PUSH2 0x22AE JUMP JUMPDEST SWAP3 SWAP2 POP POP JUMP JUMPDEST PUSH0 DUP2 SWAP1 POP SWAP2 SWAP1 POP JUMP JUMPDEST PUSH2 0x22EA DUP2 PUSH2 0x22D8 JUMP JUMPDEST DUP2 EQ PUSH2 0x22F4 JUMPI PUSH0 PUSH0 REVERT JUMPDEST POP JUMP JUMPDEST PUSH0 DUP2 CALLDATALOAD SWAP1 POP PUSH2 0x2305 DUP2 PUSH2 0x22E1 JUMP JUMPDEST SWAP3 SWAP2 POP POP JUMP JUMPDEST PUSH0 PUSH0 PUSH0 PUSH0 PUSH0 PUSH1 0xA0 DUP7 DUP9 SUB SLT ISZERO PUSH2 0x2324 JUMPI PUSH2 0x2323 PUSH2 0x1F6D JUMP JUMPDEST JUMPDEST PUSH0 PUSH2 0x2331 DUP9 DUP3 DUP10 ADD PUSH2 0x228E JUMP JUMPDEST SWAP6 POP POP PUSH1 0x20 PUSH2 0x2342 DUP9 DUP3 DUP10 ADD PUSH2 0x228E JUMP JUMPDEST SWAP5 POP POP PUSH1 0x40 PUSH2 0x2353 DUP9 DUP3 DUP10 ADD PUSH2 0x22C4 JUMP JUMPDEST SWAP4 POP POP PUSH1 0x60 PUSH2 0x2364 DUP9 DUP3 DUP10 ADD PUSH2 0x22F7 JUMP JUMPDEST SWAP3 POP POP PUSH1 0x80 PUSH2 0x2375 DUP9 DUP3 DUP10 ADD PUSH2 0x22F7 JUMP JUMPDEST SWAP2 POP POP SWAP3 SWAP6 POP SWAP3 SWAP6 SWAP1 SWAP4 POP JUMP JUMPDEST PUSH0 DUP2 MLOAD SWAP1 POP SWAP2 SWAP1 POP JUMP JUMPDEST PUSH0 DUP3 DUP3 MSTORE PUSH1 0x20 DUP3 ADD SWAP1 POP SWAP3 SWAP2 POP POP JUMP JUMPDEST PUSH0 DUP2 SWAP1 POP PUSH1 0x20 DUP3 ADD SWAP1 POP SWAP2 SWAP1 POP JUMP JUMPDEST PUSH2 0x23B4 DUP2 PUSH2 0x2029 JUMP JUMPDEST DUP3 MSTORE POP POP JUMP JUMPDEST PUSH1 0x60 DUP3 ADD PUSH0 DUP3 ADD MLOAD PUSH2 0x23CE PUSH0 DUP6 ADD DUP3 PUSH2 0x23AB JUMP JUMPDEST POP PUSH1 0x20 DUP3 ADD MLOAD PUSH2 0x23E1 PUSH1 0x20 DUP6 ADD DUP3 PUSH2 0x23AB JUMP JUMPDEST POP PUSH1 0x40 DUP3 ADD MLOAD PUSH2 0x23F4 PUSH1 0x40 DUP6 ADD DUP3 PUSH2 0x2122 JUMP JUMPDEST POP POP POP POP JUMP JUMPDEST PUSH0 PUSH2 0x2405 DUP4 DUP4 PUSH2 0x23BA JUMP JUMPDEST PUSH1 0x60 DUP4 ADD SWAP1 POP SWAP3 SWAP2 POP POP JUMP JUMPDEST PUSH0 PUSH1 0x20 DUP3 ADD SWAP1 POP SWAP2 SWAP1 POP JUMP JUMPDEST PUSH0 PUSH2 0x2427 DUP3 PUSH2 0x2382 JUMP JUMPDEST PUSH2 0x2431 DUP2 DUP6 PUSH2 0x238C JUMP JUMPDEST SWAP4 POP PUSH2 0x243C DUP4 PUSH2 0x239C JUMP JUMPDEST DUP1 PUSH0 JUMPDEST DUP4 DUP2 LT ISZERO PUSH2 0x246C JUMPI DUP2 MLOAD PUSH2 0x2453 DUP9 DUP3 PUSH2 0x23FA JUMP JUMPDEST SWAP8 POP PUSH2 0x245E DUP4 PUSH2 0x2411 JUMP JUMPDEST SWAP3 POP POP PUSH1 0x1 DUP2 ADD SWAP1 POP PUSH2 0x243F JUMP JUMPDEST POP DUP6 SWAP4 POP POP POP POP SWAP3 SWAP2 POP POP JUMP JUMPDEST PUSH0 PUSH1 0x20 DUP3 ADD SWAP1 POP DUP2 DUP2 SUB PUSH0 DUP4 ADD MSTORE PUSH2 0x2491 DUP2 DUP5 PUSH2 0x241D JUMP JUMPDEST SWAP1 POP SWAP3 SWAP2 POP POP JUMP JUMPDEST PUSH0 PUSH1 0x20 DUP3 DUP5 SUB SLT ISZERO PUSH2 0x24AE JUMPI PUSH2 0x24AD PUSH2 0x1F6D JUMP JUMPDEST JUMPDEST PUSH0 PUSH2 0x24BB DUP5 DUP3 DUP6 ADD PUSH2 0x228E JUMP JUMPDEST SWAP2 POP POP SWAP3 SWAP2 POP POP JUMP JUMPDEST PUSH0 PUSH1 0x60 DUP3 ADD SWAP1 POP PUSH2 0x24D7 PUSH0 DUP4 ADD DUP7 PUSH2 0x2032 JUMP JUMPDEST PUSH2 0x24E4 PUSH1 0x20 DUP4 ADD DUP6 PUSH2 0x2032 JUMP JUMPDEST PUSH2 0x24F1 PUSH1 0x40 DUP4 ADD DUP5 PUSH2 0x20EA JUMP JUMPDEST SWAP5 SWAP4 POP POP POP POP JUMP JUMPDEST PUSH0 PUSH1 0x20 DUP3 ADD SWAP1 POP DUP2 DUP2 SUB PUSH0 DUP4 ADD MSTORE PUSH2 0x2511 DUP2 DUP5 PUSH2 0x2154 JUMP JUMPDEST SWAP1 POP SWAP3 SWAP2 POP POP JUMP JUMPDEST PUSH0 DUP2 SWAP1 POP SWAP2 SWAP1 POP JUMP JUMPDEST PUSH0 PUSH2 0x253C PUSH2 0x2537 PUSH2 0x2532 DUP5 PUSH2 0x1F71 JUMP JUMPDEST PUSH2 0x2519 JUMP JUMPDEST PUSH2 0x1F71 JUMP JUMPDEST SWAP1 POP SWAP2 SWAP1 POP JUMP JUMPDEST PUSH0 PUSH2 0x254D DUP3 PUSH2 0x2522 JUMP JUMPDEST SWAP1 POP SWAP2 SWAP1 POP JUMP JUMPDEST PUSH0 PUSH2 0x255E DUP3 PUSH2 0x2543 JUMP JUMPDEST SWAP1 POP SWAP2 SWAP1 POP JUMP JUMPDEST PUSH2 0x256E DUP2 PUSH2 0x2554 JUMP JUMPDEST DUP3 MSTORE POP POP JUMP JUMPDEST PUSH0 PUSH1 0x20 DUP3 ADD SWAP1 POP PUSH2 0x2587 PUSH0 DUP4 ADD DUP5 PUSH2 0x2565 JUMP JUMPDEST SWAP3 SWAP2 POP POP JUMP JUMPDEST PUSH32 0x41756374696F6E206E6F742066696E616C697A65640000000000000000000000 PUSH0 DUP3 ADD MSTORE POP JUMP JUMPDEST PUSH0 PUSH2 0x25C1 PUSH1 0x15 DUP4 PUSH2 0x2064 JUMP JUMPDEST SWAP2 POP PUSH2 0x25CC DUP3 PUSH2 0x258D JUMP JUMPDEST PUSH1 0x20 DUP3 ADD SWAP1 POP SWAP2 SWAP1 POP JUMP JUMPDEST PUSH0 PUSH1 0x20 DUP3 ADD SWAP1 POP DUP2 DUP2 SUB PUSH0 DUP4 ADD MSTORE PUSH2 0x25EE DUP2 PUSH2 0x25B5 JUMP JUMPDEST SWAP1 POP SWAP2 SWAP1 POP JUMP JUMPDEST PUSH32 0x4F6E6C792077696E6E65722063616E2061636365737320746865206461746100 PUSH0 DUP3 ADD MSTORE POP JUMP JUMPDEST PUSH0 PUSH2 0x2629 PUSH1 0x1F DUP4 PUSH2 0x2064 JUMP JUMPDEST SWAP2 POP PUSH2 0x2634 DUP3 PUSH2 0x25F5 JUMP JUMPDEST PUSH1 0x20 DUP3 ADD SWAP1 POP SWAP2 SWAP1 POP JUMP JUMPDEST PUSH0 PUSH1 0x20 DUP3 ADD SWAP1 POP DUP2 DUP2 SUB PUSH0 DUP4 ADD MSTORE PUSH2 0x2656 DUP2 PUSH2 0x261D JUMP JUMPDEST SWAP1 POP SWAP2 SWAP1 POP JUMP JUMPDEST PUSH32 0x4E487B7100000000000000000000000000000000000000000000000000000000 PUSH0 MSTORE PUSH1 0x22 PUSH1 0x4 MSTORE PUSH1 0x24 PUSH0 REVERT JUMPDEST PUSH0 PUSH1 0x2 DUP3 DIV SWAP1 POP PUSH1 0x1 DUP3 AND DUP1 PUSH2 0x26A1 JUMPI PUSH1 0x7F DUP3 AND SWAP2 POP JUMPDEST PUSH1 0x20 DUP3 LT DUP2 SUB PUSH2 0x26B4 JUMPI PUSH2 0x26B3 PUSH2 0x265D JUMP JUMPDEST JUMPDEST POP SWAP2 SWAP1 POP JUMP JUMPDEST PUSH0 DUP2 MLOAD SWAP1 POP PUSH2 0x26C8 DUP2 PUSH2 0x2278 JUMP JUMPDEST SWAP3 SWAP2 POP POP JUMP JUMPDEST PUSH0 PUSH1 0x20 DUP3 DUP5 SUB SLT ISZERO PUSH2 0x26E3 JUMPI PUSH2 0x26E2 PUSH2 0x1F6D JUMP JUMPDEST JUMPDEST PUSH0 PUSH2 0x26F0 DUP5 DUP3 DUP6 ADD PUSH2 0x26BA JUMP JUMPDEST SWAP2 POP POP SWAP3 SWAP2 POP POP JUMP JUMPDEST PUSH0 PUSH1 0x60 DUP3 ADD SWAP1 POP PUSH2 0x270C PUSH0 DUP4 ADD DUP7 PUSH2 0x2032 JUMP JUMPDEST PUSH2 0x2719 PUSH1 0x20 DUP4 ADD DUP6 PUSH2 0x2032 JUMP JUMPDEST PUSH2 0x2726 PUSH1 0x40 DUP4 ADD DUP5 PUSH2 0x2032 JUMP JUMPDEST SWAP5 SWAP4 POP POP POP POP JUMP JUMPDEST PUSH2 0x2737 DUP2 PUSH2 0x22A2 JUMP JUMPDEST DUP3 MSTORE POP POP JUMP JUMPDEST PUSH2 0x2746 DUP2 PUSH2 0x22D8 JUMP JUMPDEST DUP3 MSTORE POP POP JUMP JUMPDEST PUSH0 PUSH1 0xE0 DUP3 ADD SWAP1 POP PUSH2 0x275F PUSH0 DUP4 ADD DUP11 PUSH2 0x20EA JUMP JUMPDEST PUSH2 0x276C PUSH1 0x20 DUP4 ADD DUP10 PUSH2 0x20EA JUMP JUMPDEST PUSH2 0x2779 PUSH1 0x40 DUP4 ADD DUP9 PUSH2 0x2032 JUMP JUMPDEST PUSH2 0x2786 PUSH1 0x60 DUP4 ADD DUP8 PUSH2 0x2032 JUMP JUMPDEST PUSH2 0x2793 PUSH1 0x80 DUP4 ADD DUP7 PUSH2 0x272E JUMP JUMPDEST PUSH2 0x27A0 PUSH1 0xA0 DUP4 ADD DUP6 PUSH2 0x273D JUMP JUMPDEST PUSH2 0x27AD PUSH1 0xC0 DUP4 ADD DUP5 PUSH2 0x273D JUMP JUMPDEST SWAP9 SWAP8 POP POP POP POP POP POP POP POP JUMP JUMPDEST PUSH0 DUP2 PUSH1 0xE0 SHR SWAP1 POP SWAP2 SWAP1 POP JUMP JUMPDEST PUSH0 PUSH1 0x3 RETURNDATASIZE GT ISZERO PUSH2 0x27E1 JUMPI PUSH1 0x4 PUSH0 PUSH0 RETURNDATACOPY PUSH2 0x27DE PUSH0 MLOAD PUSH2 0x27B9 JUMP JUMPDEST SWAP1 POP JUMPDEST SWAP1 JUMP JUMPDEST PUSH32 0x4E487B7100000000000000000000000000000000000000000000000000000000 PUSH0 MSTORE PUSH1 0x41 PUSH1 0x4 MSTORE PUSH1 0x24 PUSH0 REVERT JUMPDEST PUSH2 0x281A DUP3 PUSH2 0x2082 JUMP JUMPDEST DUP2 ADD DUP2 DUP2 LT PUSH8 0xFFFFFFFFFFFFFFFF DUP3 GT OR ISZERO PUSH2 0x2839 JUMPI PUSH2 0x2838 PUSH2 0x27E4 JUMP JUMPDEST JUMPDEST DUP1 PUSH1 0x40 MSTORE POP POP POP JUMP JUMPDEST PUSH0 PUSH1 0x44 RETURNDATASIZE LT PUSH2 0x28CE JUMPI PUSH2 0x2853 PUSH2 0x1F64 JUMP JUMPDEST PUSH1 0x4 RETURNDATASIZE SUB PUSH1 0x4 DUP3 RETURNDATACOPY DUP1 MLOAD RETURNDATASIZE PUSH1 0x24 DUP3 ADD GT PUSH8 0xFFFFFFFFFFFFFFFF DUP3 GT OR ISZERO PUSH2 0x287B JUMPI POP POP PUSH2 0x28CE JUMP JUMPDEST DUP1 DUP3 ADD DUP1 MLOAD PUSH8 0xFFFFFFFFFFFFFFFF DUP2 GT ISZERO PUSH2 0x2899 JUMPI POP POP POP POP PUSH2 0x28CE JUMP JUMPDEST DUP1 PUSH1 0x20 DUP4 ADD ADD PUSH1 0x4 RETURNDATASIZE SUB DUP6 ADD DUP2 GT ISZERO PUSH2 0x28B6 JUMPI POP POP POP POP POP PUSH2 0x28CE JUMP JUMPDEST PUSH2 0x28C5 DUP3 PUSH1 0x20 ADD DUP6 ADD DUP7 PUSH2 0x2811 JUMP JUMPDEST DUP3 SWAP6 POP POP POP POP POP POP JUMPDEST SWAP1 JUMP JUMPDEST PUSH0 DUP2 SWAP1 POP SWAP3 SWAP2 POP POP JUMP JUMPDEST PUSH32 0x5065726D6974206661696C65643A200000000000000000000000000000000000 PUSH0 DUP3 ADD MSTORE POP JUMP JUMPDEST PUSH0 PUSH2 0x290F PUSH1 0xF DUP4 PUSH2 0x28D1 JUMP JUMPDEST SWAP2 POP PUSH2 0x291A DUP3 PUSH2 0x28DB JUMP JUMPDEST PUSH1 0xF DUP3 ADD SWAP1 POP SWAP2 SWAP1 POP JUMP JUMPDEST PUSH0 PUSH2 0x292F DUP3 PUSH2 0x205A JUMP JUMPDEST PUSH2 0x2939 DUP2 DUP6 PUSH2 0x28D1 JUMP JUMPDEST SWAP4 POP PUSH2 0x2949 DUP2 DUP6 PUSH1 0x20 DUP7 ADD PUSH2 0x2074 JUMP JUMPDEST DUP1 DUP5 ADD SWAP2 POP POP SWAP3 SWAP2 POP POP JUMP JUMPDEST PUSH0 PUSH2 0x295F DUP3 PUSH2 0x2903 JUMP JUMPDEST SWAP2 POP PUSH2 0x296B DUP3 DUP5 PUSH2 0x2925 JUMP JUMPDEST SWAP2 POP DUP2 SWAP1 POP SWAP3 SWAP2 POP POP JUMP JUMPDEST PUSH32 0x556E6B6E6F776E206572726F7200000000000000000000000000000000000000 PUSH0 DUP3 ADD MSTORE POP JUMP JUMPDEST PUSH0 PUSH2 0x29AA PUSH1 0xD DUP4 PUSH2 0x2064 JUMP JUMPDEST SWAP2 POP PUSH2 0x29B5 DUP3 PUSH2 0x2976 JUMP JUMPDEST PUSH1 0x20 DUP3 ADD SWAP1 POP SWAP2 SWAP1 POP JUMP JUMPDEST PUSH0 PUSH1 0x20 DUP3 ADD SWAP1 POP DUP2 DUP2 SUB PUSH0 DUP4 ADD MSTORE PUSH2 0x29D7 DUP2 PUSH2 0x299E JUMP JUMPDEST SWAP1 POP SWAP2 SWAP1 POP JUMP JUMPDEST PUSH32 0x5065726D6974206661696C65643A20756E6B6E6F776E206572726F7200000000 PUSH0 DUP3 ADD MSTORE POP JUMP JUMPDEST PUSH0 PUSH2 0x2A12 PUSH1 0x1C DUP4 PUSH2 0x2064 JUMP JUMPDEST SWAP2 POP PUSH2 0x2A1D DUP3 PUSH2 0x29DE JUMP JUMPDEST PUSH1 0x20 DUP3 ADD SWAP1 POP SWAP2 SWAP1 POP JUMP JUMPDEST PUSH0 PUSH1 0x20 DUP3 ADD SWAP1 POP DUP2 DUP2 SUB PUSH0 DUP4 ADD MSTORE PUSH2 0x2A3F DUP2 PUSH2 0x2A06 JUMP JUMPDEST SWAP1 POP SWAP2 SWAP1 POP JUMP JUMPDEST PUSH0 PUSH1 0x40 DUP3 ADD SWAP1 POP PUSH2 0x2A59 PUSH0 DUP4 ADD DUP6 PUSH2 0x20EA JUMP JUMPDEST PUSH2 0x2A66 PUSH1 0x20 DUP4 ADD DUP5 PUSH2 0x20EA JUMP JUMPDEST SWAP4 SWAP3 POP POP POP JUMP JUMPDEST PUSH0 PUSH1 0x40 DUP3 ADD SWAP1 POP PUSH2 0x2A80 PUSH0 DUP4 ADD DUP6 PUSH2 0x2032 JUMP JUMPDEST PUSH2 0x2A8D PUSH1 0x20 DUP4 ADD DUP5 PUSH2 0x2032 JUMP JUMPDEST SWAP4 SWAP3 POP POP POP JUMP JUMPDEST PUSH32 0x416C6C6F77616E636520776173206E6F74207570646174656420627920706572 PUSH0 DUP3 ADD MSTORE PUSH32 0x6D69740000000000000000000000000000000000000000000000000000000000 PUSH1 0x20 DUP3 ADD MSTORE POP JUMP JUMPDEST PUSH0 PUSH2 0x2AEE PUSH1 0x23 DUP4 PUSH2 0x2064 JUMP JUMPDEST SWAP2 POP PUSH2 0x2AF9 DUP3 PUSH2 0x2A94 JUMP JUMPDEST PUSH1 0x40 DUP3 ADD SWAP1 POP SWAP2 SWAP1 POP JUMP JUMPDEST PUSH0 PUSH1 0x20 DUP3 ADD SWAP1 POP DUP2 DUP2 SUB PUSH0 DUP4 ADD MSTORE PUSH2 0x2B1B DUP2 PUSH2 0x2AE2 JUMP JUMPDEST SWAP1 POP SWAP2 SWAP1 POP JUMP JUMPDEST PUSH0 PUSH1 0x40 DUP3 ADD SWAP1 POP PUSH2 0x2B35 PUSH0 DUP4 ADD DUP6 PUSH2 0x20EA JUMP JUMPDEST PUSH2 0x2B42 PUSH1 0x20 DUP4 ADD DUP5 PUSH2 0x2032 JUMP JUMPDEST SWAP4 SWAP3 POP POP POP JUMP JUMPDEST PUSH32 0x596F752063616E277420626964206F6E20796F7572206F776E2061756374696F PUSH0 DUP3 ADD MSTORE PUSH32 0x6E00000000000000000000000000000000000000000000000000000000000000 PUSH1 0x20 DUP3 ADD MSTORE POP JUMP JUMPDEST PUSH0 PUSH2 0x2BA3 PUSH1 0x21 DUP4 PUSH2 0x2064 JUMP JUMPDEST SWAP2 POP PUSH2 0x2BAE DUP3 PUSH2 0x2B49 JUMP JUMPDEST PUSH1 0x40 DUP3 ADD SWAP1 POP SWAP2 SWAP1 POP JUMP JUMPDEST PUSH0 PUSH1 0x20 DUP3 ADD SWAP1 POP DUP2 DUP2 SUB PUSH0 DUP4 ADD MSTORE PUSH2 0x2BD0 DUP2 PUSH2 0x2B97 JUMP JUMPDEST SWAP1 POP SWAP2 SWAP1 POP JUMP JUMPDEST PUSH32 0x4E487B7100000000000000000000000000000000000000000000000000000000 PUSH0 MSTORE PUSH1 0x11 PUSH1 0x4 MSTORE PUSH1 0x24 PUSH0 REVERT JUMPDEST PUSH0 PUSH2 0x2C0E DUP3 PUSH2 0x2029 JUMP JUMPDEST SWAP2 POP PUSH2 0x2C19 DUP4 PUSH2 0x2029 JUMP JUMPDEST SWAP3 POP DUP3 DUP3 ADD SWAP1 POP DUP1 DUP3 GT ISZERO PUSH2 0x2C31 JUMPI PUSH2 0x2C30 PUSH2 0x2BD7 JUMP JUMPDEST JUMPDEST SWAP3 SWAP2 POP POP JUMP JUMPDEST PUSH32 0x42656C6F77206D696E696D756D20626964000000000000000000000000000000 PUSH0 DUP3 ADD MSTORE POP JUMP JUMPDEST PUSH0 PUSH2 0x2C6B PUSH1 0x11 DUP4 PUSH2 0x2064 JUMP JUMPDEST SWAP2 POP PUSH2 0x2C76 DUP3 PUSH2 0x2C37 JUMP JUMPDEST PUSH1 0x20 DUP3 ADD SWAP1 POP SWAP2 SWAP1 POP JUMP JUMPDEST PUSH0 PUSH1 0x20 DUP3 ADD SWAP1 POP DUP2 DUP2 SUB PUSH0 DUP4 ADD MSTORE PUSH2 0x2C98 DUP2 PUSH2 0x2C5F JUMP JUMPDEST SWAP1 POP SWAP2 SWAP1 POP JUMP JUMPDEST PUSH32 0x426964206D757374206578636565642063757272656E74206869676865737400 PUSH0 DUP3 ADD MSTORE POP JUMP JUMPDEST PUSH0 PUSH2 0x2CD3 PUSH1 0x1F DUP4 PUSH2 0x2064 JUMP JUMPDEST SWAP2 POP PUSH2 0x2CDE DUP3 PUSH2 0x2C9F JUMP JUMPDEST PUSH1 0x20 DUP3 ADD SWAP1 POP SWAP2 SWAP1 POP JUMP JUMPDEST PUSH0 PUSH1 0x20 DUP3 ADD SWAP1 POP DUP2 DUP2 SUB PUSH0 DUP4 ADD MSTORE PUSH2 0x2D00 DUP2 PUSH2 0x2CC7 JUMP JUMPDEST SWAP1 POP SWAP2 SWAP1 POP JUMP JUMPDEST PUSH0 PUSH1 0x60 DUP3 ADD SWAP1 POP PUSH2 0x2D1A PUSH0 DUP4 ADD DUP7 PUSH2 0x20EA JUMP JUMPDEST PUSH2 0x2D27 PUSH1 0x20 DUP4 ADD DUP6 PUSH2 0x20EA JUMP JUMPDEST PUSH2 0x2D34 PUSH1 0x40 DUP4 ADD DUP5 PUSH2 0x2032 JUMP JUMPDEST SWAP5 SWAP4 POP POP POP POP JUMP JUMPDEST PUSH2 0x2D45 DUP2 PUSH2 0x1FF6 JUMP JUMPDEST DUP2 EQ PUSH2 0x2D4F JUMPI PUSH0 PUSH0 REVERT JUMPDEST POP JUMP JUMPDEST PUSH0 DUP2 MLOAD SWAP1 POP PUSH2 0x2D60 DUP2 PUSH2 0x2D3C JUMP JUMPDEST SWAP3 SWAP2 POP POP JUMP JUMPDEST PUSH0 PUSH1 0x20 DUP3 DUP5 SUB SLT ISZERO PUSH2 0x2D7B JUMPI PUSH2 0x2D7A PUSH2 0x1F6D JUMP JUMPDEST JUMPDEST PUSH0 PUSH2 0x2D88 DUP5 DUP3 DUP6 ADD PUSH2 0x2D52 JUMP JUMPDEST SWAP2 POP POP SWAP3 SWAP2 POP POP JUMP JUMPDEST PUSH32 0x5472616E73666572206661696C65640000000000000000000000000000000000 PUSH0 DUP3 ADD MSTORE POP JUMP JUMPDEST PUSH0 PUSH2 0x2DC5 PUSH1 0xF DUP4 PUSH2 0x2064 JUMP JUMPDEST SWAP2 POP PUSH2 0x2DD0 DUP3 PUSH2 0x2D91 JUMP JUMPDEST PUSH1 0x20 DUP3 ADD SWAP1 POP SWAP2 SWAP1 POP JUMP JUMPDEST PUSH0 PUSH1 0x20 DUP3 ADD SWAP1 POP DUP2 DUP2 SUB PUSH0 DUP4 ADD MSTORE PUSH2 0x2DF2 DUP2 PUSH2 0x2DB9 JUMP JUMPDEST SWAP1 POP SWAP2 SWAP1 POP JUMP JUMPDEST PUSH0 PUSH2 0x2E03 DUP3 PUSH2 0x2029 JUMP JUMPDEST SWAP2 POP PUSH32 0xFFFFFFFFFFFFFFFFFFFFFFFFFFFFFFFFFFFFFFFFFFFFFFFFFFFFFFFFFFFFFFFF DUP3 SUB PUSH2 0x2E35 JUMPI PUSH2 0x2E34 PUSH2 0x2BD7 JUMP JUMPDEST JUMPDEST PUSH1 0x1 DUP3 ADD SWAP1 POP SWAP2 SWAP1 POP JUMP JUMPDEST PUSH32 0x41756374696F6E206E6F7420656E646564207965740000000000000000000000 PUSH0 DUP3 ADD MSTORE POP JUMP JUMPDEST PUSH0 PUSH2 0x2E74 PUSH1 0x15 DUP4 PUSH2 0x2064 JUMP JUMPDEST SWAP2 POP PUSH2 0x2E7F DUP3 PUSH2 0x2E40 JUMP JUMPDEST PUSH1 0x20 DUP3 ADD SWAP1 POP SWAP2 SWAP1 POP JUMP JUMPDEST PUSH0 PUSH1 0x20 DUP3 ADD SWAP1 POP DUP2 DUP2 SUB PUSH0 DUP4 ADD MSTORE PUSH2 0x2EA1 DUP2 PUSH2 0x2E68 JUMP JUMPDEST SWAP1 POP SWAP2 SWAP1 POP JUMP JUMPDEST PUSH32 0x41756374696F6E20616C72656164792066696E616C697A656400000000000000 PUSH0 DUP3 ADD MSTORE POP JUMP JUMPDEST PUSH0 PUSH2 0x2EDC PUSH1 0x19 DUP4 PUSH2 0x2064 JUMP JUMPDEST SWAP2 POP PUSH2 0x2EE7 DUP3 PUSH2 0x2EA8 JUMP JUMPDEST PUSH1 0x20 DUP3 ADD SWAP1 POP SWAP2 SWAP1 POP JUMP JUMPDEST PUSH0 PUSH1 0x20 DUP3 ADD SWAP1 POP DUP2 DUP2 SUB PUSH0 DUP4 ADD MSTORE PUSH2 0x2F09 DUP2 PUSH2 0x2ED0 JUMP JUMPDEST SWAP1 POP SWAP2 SWAP1 POP JUMP JUMPDEST PUSH32 0x4E487B7100000000000000000000000000000000000000000000000000000000 PUSH0 MSTORE PUSH1 0x32 PUSH1 0x4 MSTORE PUSH1 0x24 PUSH0 REVERT JUMPDEST PUSH32 0x526566756E64206661696C656400000000000000000000000000000000000000 PUSH0 DUP3 ADD MSTORE POP JUMP JUMPDEST PUSH0 PUSH2 0x2F71 PUSH1 0xD DUP4 PUSH2 0x2064 JUMP JUMPDEST SWAP2 POP PUSH2 0x2F7C DUP3 PUSH2 0x2F3D JUMP JUMPDEST PUSH1 0x20 DUP3 ADD SWAP1 POP SWAP2 SWAP1 POP JUMP JUMPDEST PUSH0 PUSH1 0x20 DUP3 ADD SWAP1 POP DUP2 DUP2 SUB PUSH0 DUP4 ADD MSTORE PUSH2 0x2F9E DUP2 PUSH2 0x2F65 JUMP JUMPDEST SWAP1 POP SWAP2 SWAP1 POP JUMP JUMPDEST PUSH32 0x5061796D656E7420746F2073656C6C6572206661696C65640000000000000000 PUSH0 DUP3 ADD MSTORE POP JUMP JUMPDEST PUSH0 PUSH2 0x2FD9 PUSH1 0x18 DUP4 PUSH2 0x2064 JUMP JUMPDEST SWAP2 POP PUSH2 0x2FE4 DUP3 PUSH2 0x2FA5 JUMP JUMPDEST PUSH1 0x20 DUP3 ADD SWAP1 POP SWAP2 SWAP1 POP JUMP JUMPDEST PUSH0 PUSH1 0x20 DUP3 ADD SWAP1 POP DUP2 DUP2 SUB PUSH0 DUP4 ADD MSTORE PUSH2 0x3006 DUP2 PUSH2 0x2FCD JUMP JUMPDEST SWAP1 POP SWAP2 SWAP1 POP JUMP JUMPDEST PUSH32 0x41756374696F6E20656E64656400000000000000000000000000000000000000 PUSH0 DUP3 ADD MSTORE POP JUMP JUMPDEST PUSH0 PUSH2 0x3041 PUSH1 0xD DUP4 PUSH2 0x2064 JUMP JUMPDEST SWAP2 POP PUSH2 0x304C DUP3 PUSH2 0x300D JUMP JUMPDEST PUSH1 0x20 DUP3 ADD SWAP1 POP SWAP2 SWAP1 POP JUMP JUMPDEST PUSH0 PUSH1 0x20 DUP3 ADD SWAP1 POP DUP2 DUP2 SUB PUSH0 DUP4 ADD MSTORE PUSH2 0x306E DUP2 PUSH2 0x3035 JUMP JUMPDEST SWAP1 POP SWAP2 SWAP1 POP JUMP INVALID LOG2 PUSH5 0x6970667358 0x22 SLT KECCAK256 DUP9 0x25 NOT PUSH24 0x1F5B9AFF79908D8195B2A3A113AD9AED1F93F6C125A97716 0x2C 0x28 MUL 0xE8 PUSH5 0x736F6C6343 STOP ADDMOD 0x1E STOP CALLER "},"gasEstimates":{"creation":{"codeDepositCost":"2491800","executionCost":"infinite","totalCost":"infinite"},"external":{"addresses(uint256)":"5054","approvers(address)":"2857","approversCount()":"2448","approversMoney(address)":"2891","closed()":"2533","contribute(uint256)":"infinite","dataDescription()":"infinite","dataForSell()":"infinite","endTime()":"2471","finalizeAuctionIfNeeded()":"infinite","getAddresses()":"infinite","getBid(address)":"2895","getData()":"infinite","getStatus()":"2496","getSummary()":"infinite","getTransactions()":"infinite","highestBid()":"2513","highestBidder()":"2575","manager()":"2619","minimumContribution()":"2514","permitAndContribute(uint256,uint256,uint8,bytes32,bytes32)":"infinite","token()":"infinite","transactions(uint256)":"infinite"}},"methodIdentifiers":{"addresses(uint256)":"edf26d9b","approvers(address)":"0a144391","approversCount()":"82fde093","approversMoney(address)":"5dc1d641","closed()":"597e1fb5","contribute(uint256)":"c1cbbca7","dataDescription()":"58d65629","dataForSell()":"7b87d856","endTime()":"3197cbb6","finalizeAuctionIfNeeded()":"976af615","getAddresses()":"a39fac12","getBid(address)":"c8b342ab","getData()":"3bc5de30","getStatus()":"4e69d560","getSummary()":"4051ddac","getTransactions()":"83920e90","highestBid()":"d57bde79","highestBidder()":"91f90157","manager()":"481c6a75","minimumContribution()":"937e09b1","permitAndContribute(uint256,uint256,uint8,bytes32,bytes32)":"7aed167c","token()":"fc0c546a","transactions(uint256)":"9ace38c2"}},"storageLayout":{"storage":[{"astId":24,"contract":"Campaign.sol:Campaign","label":"manager","offset":0,"slot":"0","type":"t_address"},{"astId":26,"contract":"Campaign.sol:Campaign","label":"minimumContribution","offset":0,"slot":"1","type":"t_uint256"},{"astId":28,"contract":"Campaign.sol:Campaign","label":"dataForSell","offset":0,"slot":"2","type":"t_string_storage"},{"astId":30,"contract":"Campaign.sol:Campaign","label":"dataDescription","offset":0,"slot":"3","type":"t_string_storage"},{"astId":34,"contract":"Campaign.sol:Campaign","label":"approvers","offset":0,"slot":"4","type":"t_mapping(t_address,t_bool)"},{"astId":38,"contract":"Campaign.sol:Campaign","label":"approversMoney","offset":0,"slot":"5","type":"t_mapping(t_address,t_uint256)"},{"astId":40,"contract":"Campaign.sol:Campaign","label":"approversCount","offset":0,"slot":"6","type":"t_uint256"},{"astId":43,"contract":"Campaign.sol:Campaign","label":"addresses","offset":0,"slot":"7","type":"t_array(t_address)dyn_storage"},{"astId":47,"contract":"Campaign.sol:Campaign","label":"transactions","offset":0,"slot":"8","type":"t_array(t_struct(Bid)22_storage)dyn_storage"},{"astId":49,"contract":"Campaign.sol:Campaign","label":"highestBidder","offset":0,"slot":"9","type":"t_address"},{"astId":51,"contract":"Campaign.sol:Campaign","label":"highestBid","offset":0,"slot":"10","type":"t_uint256"},{"astId":53,"contract":"Campaign.sol:Campaign","label":"endTime","offset":0,"slot":"11","type":"t_uint256"},{"astId":55,"contract":"Campaign.sol:Campaign","label":"closed","offset":0,"slot":"12","type":"t_bool"},{"astId":58,"contract":"Campaign.sol:Campaign","label":"token","offset":1,"slot":"12","type":"t_contract(IERC20Permit)939"}],"types":{"t_address":{"encoding":"inplace","label":"address","numberOfBytes":"20"},"t_array(t_address)dyn_storage":{"base":"t_address","encoding":"dynamic_array","label":"address[]","numberOfBytes":"32"},"t_array(t_struct(Bid)22_storage)dyn_storage":{"base":"t_struct(Bid)22_storage","encoding":"dynamic_array","label":"struct Campaign.Bid[]","numberOfBytes":"32"},"t_bool":{"encoding":"inplace","label":"bool","numberOfBytes":"1"},"t_contract(IERC20Permit)939":{"encoding":"inplace","label":"contract IERC20Permit","numberOfBytes":"20"},"t_mapping(t_address,t_bool)":{"encoding":"mapping","key":"t_address","label":"mapping(address => bool)","numberOfBytes":"32","value":"t_bool"},"t_mapping(t_address,t_uint256)":{"encoding":"mapping","key":"t_address","label":"mapping(address => uint256)","numberOfBytes":"32","value":"t_uint256"},"t_string_storage":{"encoding":"bytes","label":"string","numberOfBytes":"32"},"t_struct(Bid)22_storage":{"encoding":"inplace","label":"struct Campaign.Bid","members":[{"astId":17,"contract":"Campaign.sol:Campaign","label":"value","offset":0,"slot":"0","type":"t_uint256"},{"astId":19,"contract":"Campaign.sol:Campaign","label":"time","offset":0,"slot":"1","type":"t_uint256"},{"astId":21,"contract":"Campaign.sol:Campaign","label":"bidderAddress","offset":0,"slot":"2","type":"t_address"}],"numberOfBytes":"96"},"t_uint256":{"encoding":"inplace","label":"uint256","numberOfBytes":"32"}}},"transientStorageLayout":{"storage":[],"types":null},"userdoc":{"kind":"user","methods":{},"version":1}}