{"abi":[{"inputs":[{"internalType":"uint256","name":"minimum","type":"uint256"},{"internalType":"string","name":"dataSell","type":"string"},{"internalType":"string","name":"dataDesc","type":"string"},{"internalType":"address","name":"creator","type":"address"},{"internalType":"uint256","name":"duration","type":"uint256"},{"internalType":"address","name":"factoryAddress","type":"address"}],"stateMutability":"nonpayable","type":"constructor"},{"anonymous":false,"inputs":[{"indexed":true,"internalType":"address","name":"contributor","type":"address"},{"indexed":false,"internalType":"uint256","name":"amount","type":"uint256"}],"name":"RefundProcessed","type":"event"},{"anonymous":false,"inputs":[{"indexed":true,"internalType":"address","name":"seller","type":"address"},{"indexed":false,"internalType":"uint256","name":"amount","type":"uint256"}],"name":"SellerPaid","type":"event"},{"inputs":[{"internalType":"uint256","name":"","type":"uint256"}],"name":"addresses","outputs":[{"internalType":"address","name":"","type":"address"}],"stateMutability":"view","type":"function"},{"inputs":[{"internalType":"address","name":"","type":"address"}],"name":"approvers","outputs":[{"internalType":"bool","name":"","type":"bool"}],"stateMutability":"view","type":"function"},{"inputs":[],"name":"approversCount","outputs":[{"internalType":"uint256","name":"","type":"uint256"}],"stateMutability":"view","type":"function"},{"inputs":[{"internalType":"address","name":"","type":"address"}],"name":"approversMoney","outputs":[{"internalType":"uint256","name":"","type":"uint256"}],"stateMutability":"view","type":"function"},{"inputs":[],"name":"closed","outputs":[{"internalType":"bool","name":"","type":"bool"}],"stateMutability":"view","type":"function"},{"inputs":[],"name":"contribute","outputs":[],"stateMutability":"payable","type":"function"},{"inputs":[],"name":"dataDescription","outputs":[{"internalType":"string","name":"","type":"string"}],"stateMutability":"view","type":"function"},{"inputs":[],"name":"dataForSell","outputs":[{"internalType":"string","name":"","type":"string"}],"stateMutability":"view","type":"function"},{"inputs":[],"name":"endTime","outputs":[{"internalType":"uint256","name":"","type":"uint256"}],"stateMutability":"view","type":"function"},{"inputs":[],"name":"factory","outputs":[{"internalType":"contract CampaignFactory","name":"","type":"address"}],"stateMutability":"view","type":"function"},{"inputs":[],"name":"finalizeAuctionIfNeeded","outputs":[],"stateMutability":"nonpayable","type":"function"},{"inputs":[],"name":"getAddresses","outputs":[{"internalType":"address[]","name":"","type":"address[]"}],"stateMutability":"view","type":"function"},{"inputs":[{"internalType":"address","name":"bidder","type":"address"}],"name":"getBid","outputs":[{"internalType":"uint256","name":"","type":"uint256"}],"stateMutability":"view","type":"function"},{"inputs":[],"name":"getData","outputs":[{"internalType":"string","name":"","type":"string"}],"stateMutability":"view","type":"function"},{"inputs":[],"name":"getStatus","outputs":[{"internalType":"bool","name":"","type":"bool"}],"stateMutability":"view","type":"function"},{"inputs":[],"name":"getSummary","outputs":[{"internalType":"uint256","name":"","type":"uint256"},{"internalType":"uint256","name":"","type":"uint256"},{"internalType":"uint256","name":"","type":"uint256"},{"internalType":"address","name":"","type":"address"},{"internalType":"uint256","name":"","type":"uint256"},{"internalType":"string","name":"","type":"string"},{"internalType":"string","name":"","type":"string"},{"internalType":"address","name":"","type":"address"},{"internalType":"address[]","name":"","type":"address[]"},{"internalType":"uint256","name":"","type":"uint256"}],"stateMutability":"view","type":"function"},{"inputs":[],"name":"getTransactions","outputs":[{"components":[{"internalType":"uint256","name":"value","type":"uint256"},{"internalType":"uint256","name":"time","type":"uint256"},{"internalType":"address","name":"bidderAddress","type":"address"}],"internalType":"struct Campaign.Bid[]","name":"","type":"tuple[]"}],"stateMutability":"view","type":"function"},{"inputs":[],"name":"highestBid","outputs":[{"internalType":"uint256","name":"","type":"uint256"}],"stateMutability":"view","type":"function"},{"inputs":[],"name":"highestBidder","outputs":[{"internalType":"address","name":"","type":"address"}],"stateMutability":"view","type":"function"},{"inputs":[],"name":"manager","outputs":[{"internalType":"address","name":"","type":"address"}],"stateMutability":"view","type":"function"},{"inputs":[],"name":"minimumContribution","outputs":[{"internalType":"uint256","name":"","type":"uint256"}],"stateMutability":"view","type":"function"},{"inputs":[{"internalType":"uint256","name":"","type":"uint256"}],"name":"transactions","outputs":[{"internalType":"uint256","name":"value","type":"uint256"},{"internalType":"uint256","name":"time","type":"uint256"},{"internalType":"address","name":"bidderAddress","type":"address"}],"stateMutability":"view","type":"function"}],"devdoc":{"kind":"dev","methods":{},"version":1},"evm":{"assembly":"    /* \"Campaign.sol\":561:5686  contract Campaign {... */\n  mstore(0x40, 0x80)\n    /* \"Campaign.sol\":1577:2026  constructor(... */\n  callvalue\n  dup1\n  iszero\n  tag_1\n  jumpi\n  revert(0x00, 0x00)\ntag_1:\n  pop\n  mload(0x40)\n  sub(codesize, bytecodeSize)\n  dup1\n  bytecodeSize\n  dup4\n  codecopy\n  dup2\n  dup2\n  add\n  0x40\n  mstore\n  dup2\n  add\n  swap1\n  tag_2\n  swap2\n  swap1\n  tag_3\n  jump\t// in\ntag_2:\n    /* \"Campaign.sol\":1795:1802  creator */\n  dup3\n    /* \"Campaign.sol\":1785:1792  manager */\n  0x01\n  0x00\n    /* \"Campaign.sol\":1785:1802  manager = creator */\n  0x0100\n  exp\n  dup2\n  sload\n  dup2\n  0xffffffffffffffffffffffffffffffffffffffff\n  mul\n  not\n  and\n  swap1\n  dup4\n  0xffffffffffffffffffffffffffffffffffffffff\n  and\n  mul\n  or\n  swap1\n  sstore\n  pop\n    /* \"Campaign.sol\":1835:1842  minimum */\n  dup6\n    /* \"Campaign.sol\":1813:1832  minimumContribution */\n  0x02\n    /* \"Campaign.sol\":1813:1842  minimumContribution = minimum */\n  dup2\n  swap1\n  sstore\n  pop\n    /* \"Campaign.sol\":1867:1875  dataSell */\n  dup5\n    /* \"Campaign.sol\":1853:1864  dataForSell */\n  0x03\n    /* \"Campaign.sol\":1853:1875  dataForSell = dataSell */\n  swap1\n  dup2\n  tag_6\n  swap2\n  swap1\n  tag_7\n  jump\t// in\ntag_6:\n  pop\n    /* \"Campaign.sol\":1904:1912  dataDesc */\n  dup4\n    /* \"Campaign.sol\":1886:1901  dataDescription */\n  0x04\n    /* \"Campaign.sol\":1886:1912  dataDescription = dataDesc */\n  swap1\n  dup2\n  tag_8\n  swap2\n  swap1\n  tag_7\n  jump\t// in\ntag_8:\n  pop\n    /* \"Campaign.sol\":1933:1941  duration */\n  dup2\n    /* \"Campaign.sol\":1923:1930  endTime */\n  0x0c\n    /* \"Campaign.sol\":1923:1941  endTime = duration */\n  dup2\n  swap1\n  sstore\n  pop\n    /* \"Campaign.sol\":1961:1966  false */\n  0x00\n    /* \"Campaign.sol\":1952:1958  closed */\n  0x0d\n  0x00\n    /* \"Campaign.sol\":1952:1966  closed = false */\n  0x0100\n  exp\n  dup2\n  sload\n  dup2\n  0xff\n  mul\n  not\n  and\n  swap1\n  dup4\n  iszero\n  iszero\n  mul\n  or\n  swap1\n  sstore\n  pop\n    /* \"Campaign.sol\":2003:2017  factoryAddress */\n  dup1\n    /* \"Campaign.sol\":1977:1984  factory */\n  0x00\n  0x00\n    /* \"Campaign.sol\":1977:2018  factory = CampaignFactory(factoryAddress) */\n  0x0100\n  exp\n  dup2\n  sload\n  dup2\n  0xffffffffffffffffffffffffffffffffffffffff\n  mul\n  not\n  and\n  swap1\n  dup4\n  0xffffffffffffffffffffffffffffffffffffffff\n  and\n  mul\n  or\n  swap1\n  sstore\n  pop\n    /* \"Campaign.sol\":1577:2026  constructor(... */\n  pop\n  pop\n  pop\n  pop\n  pop\n  pop\n    /* \"Campaign.sol\":561:5686  contract Campaign {... */\n  jump(tag_9)\n    /* \"#utility.yul\":7:82   */\ntag_10:\n    /* \"#utility.yul\":40:46   */\n  0x00\n    /* \"#utility.yul\":73:75   */\n  0x40\n    /* \"#utility.yul\":67:76   */\n  mload\n    /* \"#utility.yul\":57:76   */\n  swap1\n  pop\n    /* \"#utility.yul\":7:82   */\n  swap1\n  jump\t// out\n    /* \"#utility.yul\":88:205   */\ntag_11:\n    /* \"#utility.yul\":197:198   */\n  0x00\n    /* \"#utility.yul\":194:195   */\n  0x00\n    /* \"#utility.yul\":187:199   */\n  revert\n    /* \"#utility.yul\":211:328   */\ntag_12:\n    /* \"#utility.yul\":320:321   */\n  0x00\n    /* \"#utility.yul\":317:318   */\n  0x00\n    /* \"#utility.yul\":310:322   */\n  revert\n    /* \"#utility.yul\":334:411   */\ntag_13:\n    /* \"#utility.yul\":371:378   */\n  0x00\n    /* \"#utility.yul\":400:405   */\n  dup2\n    /* \"#utility.yul\":389:405   */\n  swap1\n  pop\n    /* \"#utility.yul\":334:411   */\n  swap2\n  swap1\n  pop\n  jump\t// out\n    /* \"#utility.yul\":417:539   */\ntag_14:\n    /* \"#utility.yul\":490:514   */\n  tag_54\n    /* \"#utility.yul\":508:513   */\n  dup2\n    /* \"#utility.yul\":490:514   */\n  tag_13\n  jump\t// in\ntag_54:\n    /* \"#utility.yul\":483:488   */\n  dup2\n    /* \"#utility.yul\":480:515   */\n  eq\n    /* \"#utility.yul\":470:533   */\n  tag_55\n  jumpi\n    /* \"#utility.yul\":529:530   */\n  0x00\n    /* \"#utility.yul\":526:527   */\n  0x00\n    /* \"#utility.yul\":519:531   */\n  revert\n    /* \"#utility.yul\":470:533   */\ntag_55:\n    /* \"#utility.yul\":417:539   */\n  pop\n  jump\t// out\n    /* \"#utility.yul\":545:688   */\ntag_15:\n    /* \"#utility.yul\":602:607   */\n  0x00\n    /* \"#utility.yul\":633:639   */\n  dup2\n    /* \"#utility.yul\":627:640   */\n  mload\n    /* \"#utility.yul\":618:640   */\n  swap1\n  pop\n    /* \"#utility.yul\":649:682   */\n  tag_57\n    /* \"#utility.yul\":676:681   */\n  dup2\n    /* \"#utility.yul\":649:682   */\n  tag_14\n  jump\t// in\ntag_57:\n    /* \"#utility.yul\":545:688   */\n  swap3\n  swap2\n  pop\n  pop\n  jump\t// out\n    /* \"#utility.yul\":694:811   */\ntag_16:\n    /* \"#utility.yul\":803:804   */\n  0x00\n    /* \"#utility.yul\":800:801   */\n  0x00\n    /* \"#utility.yul\":793:805   */\n  revert\n    /* \"#utility.yul\":817:934   */\ntag_17:\n    /* \"#utility.yul\":926:927   */\n  0x00\n    /* \"#utility.yul\":923:924   */\n  0x00\n    /* \"#utility.yul\":916:928   */\n  revert\n    /* \"#utility.yul\":940:1042   */\ntag_18:\n    /* \"#utility.yul\":981:987   */\n  0x00\n    /* \"#utility.yul\":1032:1034   */\n  0x1f\n    /* \"#utility.yul\":1028:1035   */\n  not\n    /* \"#utility.yul\":1023:1025   */\n  0x1f\n    /* \"#utility.yul\":1016:1021   */\n  dup4\n    /* \"#utility.yul\":1012:1026   */\n  add\n    /* \"#utility.yul\":1008:1036   */\n  and\n    /* \"#utility.yul\":998:1036   */\n  swap1\n  pop\n    /* \"#utility.yul\":940:1042   */\n  swap2\n  swap1\n  pop\n  jump\t// out\n    /* \"#utility.yul\":1048:1228   */\ntag_19:\n    /* \"#utility.yul\":1096:1173   */\n  0x4e487b7100000000000000000000000000000000000000000000000000000000\n    /* \"#utility.yul\":1093:1094   */\n  0x00\n    /* \"#utility.yul\":1086:1174   */\n  mstore\n    /* \"#utility.yul\":1193:1197   */\n  0x41\n    /* \"#utility.yul\":1190:1191   */\n  0x04\n    /* \"#utility.yul\":1183:1198   */\n  mstore\n    /* \"#utility.yul\":1217:1221   */\n  0x24\n    /* \"#utility.yul\":1214:1215   */\n  0x00\n    /* \"#utility.yul\":1207:1222   */\n  revert\n    /* \"#utility.yul\":1234:1515   */\ntag_20:\n    /* \"#utility.yul\":1317:1344   */\n  tag_63\n    /* \"#utility.yul\":1339:1343   */\n  dup3\n    /* \"#utility.yul\":1317:1344   */\n  tag_18\n  jump\t// in\ntag_63:\n    /* \"#utility.yul\":1309:1315   */\n  dup2\n    /* \"#utility.yul\":1305:1345   */\n  add\n    /* \"#utility.yul\":1447:1453   */\n  dup2\n    /* \"#utility.yul\":1435:1445   */\n  dup2\n    /* \"#utility.yul\":1432:1454   */\n  lt\n    /* \"#utility.yul\":1411:1429   */\n  0xffffffffffffffff\n    /* \"#utility.yul\":1399:1409   */\n  dup3\n    /* \"#utility.yul\":1396:1430   */\n  gt\n    /* \"#utility.yul\":1393:1455   */\n  or\n    /* \"#utility.yul\":1390:1478   */\n  iszero\n  tag_64\n  jumpi\n    /* \"#utility.yul\":1458:1476   */\n  tag_65\n  tag_19\n  jump\t// in\ntag_65:\n    /* \"#utility.yul\":1390:1478   */\ntag_64:\n    /* \"#utility.yul\":1498:1508   */\n  dup1\n    /* \"#utility.yul\":1494:1496   */\n  0x40\n    /* \"#utility.yul\":1487:1509   */\n  mstore\n    /* \"#utility.yul\":1277:1515   */\n  pop\n    /* \"#utility.yul\":1234:1515   */\n  pop\n  pop\n  jump\t// out\n    /* \"#utility.yul\":1521:1650   */\ntag_21:\n    /* \"#utility.yul\":1555:1561   */\n  0x00\n    /* \"#utility.yul\":1582:1602   */\n  tag_67\n  tag_10\n  jump\t// in\ntag_67:\n    /* \"#utility.yul\":1572:1602   */\n  swap1\n  pop\n    /* \"#utility.yul\":1611:1644   */\n  tag_68\n    /* \"#utility.yul\":1639:1643   */\n  dup3\n    /* \"#utility.yul\":1631:1637   */\n  dup3\n    /* \"#utility.yul\":1611:1644   */\n  tag_20\n  jump\t// in\ntag_68:\n    /* \"#utility.yul\":1521:1650   */\n  swap2\n  swap1\n  pop\n  jump\t// out\n    /* \"#utility.yul\":1656:1964   */\ntag_22:\n    /* \"#utility.yul\":1718:1722   */\n  0x00\n    /* \"#utility.yul\":1808:1826   */\n  0xffffffffffffffff\n    /* \"#utility.yul\":1800:1806   */\n  dup3\n    /* \"#utility.yul\":1797:1827   */\n  gt\n    /* \"#utility.yul\":1794:1850   */\n  iszero\n  tag_70\n  jumpi\n    /* \"#utility.yul\":1830:1848   */\n  tag_71\n  tag_19\n  jump\t// in\ntag_71:\n    /* \"#utility.yul\":1794:1850   */\ntag_70:\n    /* \"#utility.yul\":1868:1897   */\n  tag_72\n    /* \"#utility.yul\":1890:1896   */\n  dup3\n    /* \"#utility.yul\":1868:1897   */\n  tag_18\n  jump\t// in\ntag_72:\n    /* \"#utility.yul\":1860:1897   */\n  swap1\n  pop\n    /* \"#utility.yul\":1952:1956   */\n  0x20\n    /* \"#utility.yul\":1946:1950   */\n  dup2\n    /* \"#utility.yul\":1942:1957   */\n  add\n    /* \"#utility.yul\":1934:1957   */\n  swap1\n  pop\n    /* \"#utility.yul\":1656:1964   */\n  swap2\n  swap1\n  pop\n  jump\t// out\n    /* \"#utility.yul\":1970:2109   */\ntag_23:\n    /* \"#utility.yul\":2059:2065   */\n  dup3\n    /* \"#utility.yul\":2054:2057   */\n  dup2\n    /* \"#utility.yul\":2049:2052   */\n  dup4\n    /* \"#utility.yul\":2043:2066   */\n  mcopy\n    /* \"#utility.yul\":2100:2101   */\n  0x00\n    /* \"#utility.yul\":2091:2097   */\n  dup4\n    /* \"#utility.yul\":2086:2089   */\n  dup4\n    /* \"#utility.yul\":2082:2098   */\n  add\n    /* \"#utility.yul\":2075:2102   */\n  mstore\n    /* \"#utility.yul\":1970:2109   */\n  pop\n  pop\n  pop\n  jump\t// out\n    /* \"#utility.yul\":2115:2549   */\ntag_24:\n    /* \"#utility.yul\":2204:2209   */\n  0x00\n    /* \"#utility.yul\":2229:2295   */\n  tag_75\n    /* \"#utility.yul\":2245:2294   */\n  tag_76\n    /* \"#utility.yul\":2287:2293   */\n  dup5\n    /* \"#utility.yul\":2245:2294   */\n  tag_22\n  jump\t// in\ntag_76:\n    /* \"#utility.yul\":2229:2295   */\n  tag_21\n  jump\t// in\ntag_75:\n    /* \"#utility.yul\":2220:2295   */\n  swap1\n  pop\n    /* \"#utility.yul\":2318:2324   */\n  dup3\n    /* \"#utility.yul\":2311:2316   */\n  dup2\n    /* \"#utility.yul\":2304:2325   */\n  mstore\n    /* \"#utility.yul\":2356:2360   */\n  0x20\n    /* \"#utility.yul\":2349:2354   */\n  dup2\n    /* \"#utility.yul\":2345:2361   */\n  add\n    /* \"#utility.yul\":2394:2397   */\n  dup5\n    /* \"#utility.yul\":2385:2391   */\n  dup5\n    /* \"#utility.yul\":2380:2383   */\n  dup5\n    /* \"#utility.yul\":2376:2392   */\n  add\n    /* \"#utility.yul\":2373:2398   */\n  gt\n    /* \"#utility.yul\":2370:2482   */\n  iszero\n  tag_77\n  jumpi\n    /* \"#utility.yul\":2401:2480   */\n  tag_78\n  tag_17\n  jump\t// in\ntag_78:\n    /* \"#utility.yul\":2370:2482   */\ntag_77:\n    /* \"#utility.yul\":2491:2543   */\n  tag_79\n    /* \"#utility.yul\":2536:2542   */\n  dup5\n    /* \"#utility.yul\":2531:2534   */\n  dup3\n    /* \"#utility.yul\":2526:2529   */\n  dup6\n    /* \"#utility.yul\":2491:2543   */\n  tag_23\n  jump\t// in\ntag_79:\n    /* \"#utility.yul\":2210:2549   */\n  pop\n    /* \"#utility.yul\":2115:2549   */\n  swap4\n  swap3\n  pop\n  pop\n  pop\n  jump\t// out\n    /* \"#utility.yul\":2569:2924   */\ntag_25:\n    /* \"#utility.yul\":2636:2641   */\n  0x00\n    /* \"#utility.yul\":2685:2688   */\n  dup3\n    /* \"#utility.yul\":2678:2682   */\n  0x1f\n    /* \"#utility.yul\":2670:2676   */\n  dup4\n    /* \"#utility.yul\":2666:2683   */\n  add\n    /* \"#utility.yul\":2662:2689   */\n  slt\n    /* \"#utility.yul\":2652:2774   */\n  tag_81\n  jumpi\n    /* \"#utility.yul\":2693:2772   */\n  tag_82\n  tag_16\n  jump\t// in\ntag_82:\n    /* \"#utility.yul\":2652:2774   */\ntag_81:\n    /* \"#utility.yul\":2803:2809   */\n  dup2\n    /* \"#utility.yul\":2797:2810   */\n  mload\n    /* \"#utility.yul\":2828:2918   */\n  tag_83\n    /* \"#utility.yul\":2914:2917   */\n  dup5\n    /* \"#utility.yul\":2906:2912   */\n  dup3\n    /* \"#utility.yul\":2899:2903   */\n  0x20\n    /* \"#utility.yul\":2891:2897   */\n  dup7\n    /* \"#utility.yul\":2887:2904   */\n  add\n    /* \"#utility.yul\":2828:2918   */\n  tag_24\n  jump\t// in\ntag_83:\n    /* \"#utility.yul\":2819:2918   */\n  swap2\n  pop\n    /* \"#utility.yul\":2642:2924   */\n  pop\n    /* \"#utility.yul\":2569:2924   */\n  swap3\n  swap2\n  pop\n  pop\n  jump\t// out\n    /* \"#utility.yul\":2930:3056   */\ntag_26:\n    /* \"#utility.yul\":2967:2974   */\n  0x00\n    /* \"#utility.yul\":3007:3049   */\n  0xffffffffffffffffffffffffffffffffffffffff\n    /* \"#utility.yul\":3000:3005   */\n  dup3\n    /* \"#utility.yul\":2996:3050   */\n  and\n    /* \"#utility.yul\":2985:3050   */\n  swap1\n  pop\n    /* \"#utility.yul\":2930:3056   */\n  swap2\n  swap1\n  pop\n  jump\t// out\n    /* \"#utility.yul\":3062:3158   */\ntag_27:\n    /* \"#utility.yul\":3099:3106   */\n  0x00\n    /* \"#utility.yul\":3128:3152   */\n  tag_86\n    /* \"#utility.yul\":3146:3151   */\n  dup3\n    /* \"#utility.yul\":3128:3152   */\n  tag_26\n  jump\t// in\ntag_86:\n    /* \"#utility.yul\":3117:3152   */\n  swap1\n  pop\n    /* \"#utility.yul\":3062:3158   */\n  swap2\n  swap1\n  pop\n  jump\t// out\n    /* \"#utility.yul\":3164:3286   */\ntag_28:\n    /* \"#utility.yul\":3237:3261   */\n  tag_88\n    /* \"#utility.yul\":3255:3260   */\n  dup2\n    /* \"#utility.yul\":3237:3261   */\n  tag_27\n  jump\t// in\ntag_88:\n    /* \"#utility.yul\":3230:3235   */\n  dup2\n    /* \"#utility.yul\":3227:3262   */\n  eq\n    /* \"#utility.yul\":3217:3280   */\n  tag_89\n  jumpi\n    /* \"#utility.yul\":3276:3277   */\n  0x00\n    /* \"#utility.yul\":3273:3274   */\n  0x00\n    /* \"#utility.yul\":3266:3278   */\n  revert\n    /* \"#utility.yul\":3217:3280   */\ntag_89:\n    /* \"#utility.yul\":3164:3286   */\n  pop\n  jump\t// out\n    /* \"#utility.yul\":3292:3435   */\ntag_29:\n    /* \"#utility.yul\":3349:3354   */\n  0x00\n    /* \"#utility.yul\":3380:3386   */\n  dup2\n    /* \"#utility.yul\":3374:3387   */\n  mload\n    /* \"#utility.yul\":3365:3387   */\n  swap1\n  pop\n    /* \"#utility.yul\":3396:3429   */\n  tag_91\n    /* \"#utility.yul\":3423:3428   */\n  dup2\n    /* \"#utility.yul\":3396:3429   */\n  tag_28\n  jump\t// in\ntag_91:\n    /* \"#utility.yul\":3292:3435   */\n  swap3\n  swap2\n  pop\n  pop\n  jump\t// out\n    /* \"#utility.yul\":3441:4921   */\ntag_3:\n    /* \"#utility.yul\":3576:3582   */\n  0x00\n    /* \"#utility.yul\":3584:3590   */\n  0x00\n    /* \"#utility.yul\":3592:3598   */\n  0x00\n    /* \"#utility.yul\":3600:3606   */\n  0x00\n    /* \"#utility.yul\":3608:3614   */\n  0x00\n    /* \"#utility.yul\":3616:3622   */\n  0x00\n    /* \"#utility.yul\":3665:3668   */\n  0xc0\n    /* \"#utility.yul\":3653:3662   */\n  dup8\n    /* \"#utility.yul\":3644:3651   */\n  dup10\n    /* \"#utility.yul\":3640:3663   */\n  sub\n    /* \"#utility.yul\":3636:3669   */\n  slt\n    /* \"#utility.yul\":3633:3753   */\n  iszero\n  tag_93\n  jumpi\n    /* \"#utility.yul\":3672:3751   */\n  tag_94\n  tag_11\n  jump\t// in\ntag_94:\n    /* \"#utility.yul\":3633:3753   */\ntag_93:\n    /* \"#utility.yul\":3792:3793   */\n  0x00\n    /* \"#utility.yul\":3817:3881   */\n  tag_95\n    /* \"#utility.yul\":3873:3880   */\n  dup10\n    /* \"#utility.yul\":3864:3870   */\n  dup3\n    /* \"#utility.yul\":3853:3862   */\n  dup11\n    /* \"#utility.yul\":3849:3871   */\n  add\n    /* \"#utility.yul\":3817:3881   */\n  tag_15\n  jump\t// in\ntag_95:\n    /* \"#utility.yul\":3807:3881   */\n  swap7\n  pop\n    /* \"#utility.yul\":3763:3891   */\n  pop\n    /* \"#utility.yul\":3951:3953   */\n  0x20\n    /* \"#utility.yul\":3940:3949   */\n  dup8\n    /* \"#utility.yul\":3936:3954   */\n  add\n    /* \"#utility.yul\":3930:3955   */\n  mload\n    /* \"#utility.yul\":3982:4000   */\n  0xffffffffffffffff\n    /* \"#utility.yul\":3974:3980   */\n  dup2\n    /* \"#utility.yul\":3971:4001   */\n  gt\n    /* \"#utility.yul\":3968:4085   */\n  iszero\n  tag_96\n  jumpi\n    /* \"#utility.yul\":4004:4083   */\n  tag_97\n  tag_12\n  jump\t// in\ntag_97:\n    /* \"#utility.yul\":3968:4085   */\ntag_96:\n    /* \"#utility.yul\":4109:4183   */\n  tag_98\n    /* \"#utility.yul\":4175:4182   */\n  dup10\n    /* \"#utility.yul\":4166:4172   */\n  dup3\n    /* \"#utility.yul\":4155:4164   */\n  dup11\n    /* \"#utility.yul\":4151:4173   */\n  add\n    /* \"#utility.yul\":4109:4183   */\n  tag_25\n  jump\t// in\ntag_98:\n    /* \"#utility.yul\":4099:4183   */\n  swap6\n  pop\n    /* \"#utility.yul\":3901:4193   */\n  pop\n    /* \"#utility.yul\":4253:4255   */\n  0x40\n    /* \"#utility.yul\":4242:4251   */\n  dup8\n    /* \"#utility.yul\":4238:4256   */\n  add\n    /* \"#utility.yul\":4232:4257   */\n  mload\n    /* \"#utility.yul\":4284:4302   */\n  0xffffffffffffffff\n    /* \"#utility.yul\":4276:4282   */\n  dup2\n    /* \"#utility.yul\":4273:4303   */\n  gt\n    /* \"#utility.yul\":4270:4387   */\n  iszero\n  tag_99\n  jumpi\n    /* \"#utility.yul\":4306:4385   */\n  tag_100\n  tag_12\n  jump\t// in\ntag_100:\n    /* \"#utility.yul\":4270:4387   */\ntag_99:\n    /* \"#utility.yul\":4411:4485   */\n  tag_101\n    /* \"#utility.yul\":4477:4484   */\n  dup10\n    /* \"#utility.yul\":4468:4474   */\n  dup3\n    /* \"#utility.yul\":4457:4466   */\n  dup11\n    /* \"#utility.yul\":4453:4475   */\n  add\n    /* \"#utility.yul\":4411:4485   */\n  tag_25\n  jump\t// in\ntag_101:\n    /* \"#utility.yul\":4401:4485   */\n  swap5\n  pop\n    /* \"#utility.yul\":4203:4495   */\n  pop\n    /* \"#utility.yul\":4534:4536   */\n  0x60\n    /* \"#utility.yul\":4560:4624   */\n  tag_102\n    /* \"#utility.yul\":4616:4623   */\n  dup10\n    /* \"#utility.yul\":4607:4613   */\n  dup3\n    /* \"#utility.yul\":4596:4605   */\n  dup11\n    /* \"#utility.yul\":4592:4614   */\n  add\n    /* \"#utility.yul\":4560:4624   */\n  tag_29\n  jump\t// in\ntag_102:\n    /* \"#utility.yul\":4550:4624   */\n  swap4\n  pop\n    /* \"#utility.yul\":4505:4634   */\n  pop\n    /* \"#utility.yul\":4673:4676   */\n  0x80\n    /* \"#utility.yul\":4700:4764   */\n  tag_103\n    /* \"#utility.yul\":4756:4763   */\n  dup10\n    /* \"#utility.yul\":4747:4753   */\n  dup3\n    /* \"#utility.yul\":4736:4745   */\n  dup11\n    /* \"#utility.yul\":4732:4754   */\n  add\n    /* \"#utility.yul\":4700:4764   */\n  tag_15\n  jump\t// in\ntag_103:\n    /* \"#utility.yul\":4690:4764   */\n  swap3\n  pop\n    /* \"#utility.yul\":4644:4774   */\n  pop\n    /* \"#utility.yul\":4813:4816   */\n  0xa0\n    /* \"#utility.yul\":4840:4904   */\n  tag_104\n    /* \"#utility.yul\":4896:4903   */\n  dup10\n    /* \"#utility.yul\":4887:4893   */\n  dup3\n    /* \"#utility.yul\":4876:4885   */\n  dup11\n    /* \"#utility.yul\":4872:4894   */\n  add\n    /* \"#utility.yul\":4840:4904   */\n  tag_29\n  jump\t// in\ntag_104:\n    /* \"#utility.yul\":4830:4904   */\n  swap2\n  pop\n    /* \"#utility.yul\":4784:4914   */\n  pop\n    /* \"#utility.yul\":3441:4921   */\n  swap3\n  swap6\n  pop\n  swap3\n  swap6\n  pop\n  swap3\n  swap6\n  jump\t// out\n    /* \"#utility.yul\":4927:5026   */\ntag_30:\n    /* \"#utility.yul\":4979:4985   */\n  0x00\n    /* \"#utility.yul\":5013:5018   */\n  dup2\n    /* \"#utility.yul\":5007:5019   */\n  mload\n    /* \"#utility.yul\":4997:5019   */\n  swap1\n  pop\n    /* \"#utility.yul\":4927:5026   */\n  swap2\n  swap1\n  pop\n  jump\t// out\n    /* \"#utility.yul\":5032:5212   */\ntag_31:\n    /* \"#utility.yul\":5080:5157   */\n  0x4e487b7100000000000000000000000000000000000000000000000000000000\n    /* \"#utility.yul\":5077:5078   */\n  0x00\n    /* \"#utility.yul\":5070:5158   */\n  mstore\n    /* \"#utility.yul\":5177:5181   */\n  0x22\n    /* \"#utility.yul\":5174:5175   */\n  0x04\n    /* \"#utility.yul\":5167:5182   */\n  mstore\n    /* \"#utility.yul\":5201:5205   */\n  0x24\n    /* \"#utility.yul\":5198:5199   */\n  0x00\n    /* \"#utility.yul\":5191:5206   */\n  revert\n    /* \"#utility.yul\":5218:5538   */\ntag_32:\n    /* \"#utility.yul\":5262:5268   */\n  0x00\n    /* \"#utility.yul\":5299:5300   */\n  0x02\n    /* \"#utility.yul\":5293:5297   */\n  dup3\n    /* \"#utility.yul\":5289:5301   */\n  div\n    /* \"#utility.yul\":5279:5301   */\n  swap1\n  pop\n    /* \"#utility.yul\":5346:5347   */\n  0x01\n    /* \"#utility.yul\":5340:5344   */\n  dup3\n    /* \"#utility.yul\":5336:5348   */\n  and\n    /* \"#utility.yul\":5367:5385   */\n  dup1\n    /* \"#utility.yul\":5357:5438   */\n  tag_108\n  jumpi\n    /* \"#utility.yul\":5423:5427   */\n  0x7f\n    /* \"#utility.yul\":5415:5421   */\n  dup3\n    /* \"#utility.yul\":5411:5428   */\n  and\n    /* \"#utility.yul\":5401:5428   */\n  swap2\n  pop\n    /* \"#utility.yul\":5357:5438   */\ntag_108:\n    /* \"#utility.yul\":5485:5487   */\n  0x20\n    /* \"#utility.yul\":5477:5483   */\n  dup3\n    /* \"#utility.yul\":5474:5488   */\n  lt\n    /* \"#utility.yul\":5454:5472   */\n  dup2\n    /* \"#utility.yul\":5451:5489   */\n  sub\n    /* \"#utility.yul\":5448:5532   */\n  tag_109\n  jumpi\n    /* \"#utility.yul\":5504:5522   */\n  tag_110\n  tag_31\n  jump\t// in\ntag_110:\n    /* \"#utility.yul\":5448:5532   */\ntag_109:\n    /* \"#utility.yul\":5269:5538   */\n  pop\n    /* \"#utility.yul\":5218:5538   */\n  swap2\n  swap1\n  pop\n  jump\t// out\n    /* \"#utility.yul\":5544:5685   */\ntag_33:\n    /* \"#utility.yul\":5593:5597   */\n  0x00\n    /* \"#utility.yul\":5616:5619   */\n  dup2\n    /* \"#utility.yul\":5608:5619   */\n  swap1\n  pop\n    /* \"#utility.yul\":5639:5642   */\n  dup2\n    /* \"#utility.yul\":5636:5637   */\n  0x00\n    /* \"#utility.yul\":5629:5643   */\n  mstore\n    /* \"#utility.yul\":5673:5677   */\n  0x20\n    /* \"#utility.yul\":5670:5671   */\n  0x00\n    /* \"#utility.yul\":5660:5678   */\n  keccak256\n    /* \"#utility.yul\":5652:5678   */\n  swap1\n  pop\n    /* \"#utility.yul\":5544:5685   */\n  swap2\n  swap1\n  pop\n  jump\t// out\n    /* \"#utility.yul\":5691:5784   */\ntag_34:\n    /* \"#utility.yul\":5728:5734   */\n  0x00\n    /* \"#utility.yul\":5775:5777   */\n  0x20\n    /* \"#utility.yul\":5770:5772   */\n  0x1f\n    /* \"#utility.yul\":5763:5768   */\n  dup4\n    /* \"#utility.yul\":5759:5773   */\n  add\n    /* \"#utility.yul\":5755:5778   */\n  div\n    /* \"#utility.yul\":5745:5778   */\n  swap1\n  pop\n    /* \"#utility.yul\":5691:5784   */\n  swap2\n  swap1\n  pop\n  jump\t// out\n    /* \"#utility.yul\":5790:5897   */\ntag_35:\n    /* \"#utility.yul\":5834:5842   */\n  0x00\n    /* \"#utility.yul\":5884:5889   */\n  dup3\n    /* \"#utility.yul\":5878:5882   */\n  dup3\n    /* \"#utility.yul\":5874:5890   */\n  shl\n    /* \"#utility.yul\":5853:5890   */\n  swap1\n  pop\n    /* \"#utility.yul\":5790:5897   */\n  swap3\n  swap2\n  pop\n  pop\n  jump\t// out\n    /* \"#utility.yul\":5903:6296   */\ntag_36:\n    /* \"#utility.yul\":5972:5978   */\n  0x00\n    /* \"#utility.yul\":6022:6023   */\n  0x08\n    /* \"#utility.yul\":6010:6020   */\n  dup4\n    /* \"#utility.yul\":6006:6024   */\n  mul\n    /* \"#utility.yul\":6045:6142   */\n  tag_115\n    /* \"#utility.yul\":6075:6141   */\n  0xffffffffffffffffffffffffffffffffffffffffffffffffffffffffffffffff\n    /* \"#utility.yul\":6064:6073   */\n  dup3\n    /* \"#utility.yul\":6045:6142   */\n  tag_35\n  jump\t// in\ntag_115:\n    /* \"#utility.yul\":6163:6202   */\n  tag_116\n    /* \"#utility.yul\":6193:6201   */\n  dup7\n    /* \"#utility.yul\":6182:6191   */\n  dup4\n    /* \"#utility.yul\":6163:6202   */\n  tag_35\n  jump\t// in\ntag_116:\n    /* \"#utility.yul\":6151:6202   */\n  swap6\n  pop\n    /* \"#utility.yul\":6235:6239   */\n  dup1\n    /* \"#utility.yul\":6231:6240   */\n  not\n    /* \"#utility.yul\":6224:6229   */\n  dup5\n    /* \"#utility.yul\":6220:6241   */\n  and\n    /* \"#utility.yul\":6211:6241   */\n  swap4\n  pop\n    /* \"#utility.yul\":6284:6288   */\n  dup1\n    /* \"#utility.yul\":6274:6282   */\n  dup7\n    /* \"#utility.yul\":6270:6289   */\n  and\n    /* \"#utility.yul\":6263:6268   */\n  dup5\n    /* \"#utility.yul\":6260:6290   */\n  or\n    /* \"#utility.yul\":6250:6290   */\n  swap3\n  pop\n    /* \"#utility.yul\":5979:6296   */\n  pop\n  pop\n    /* \"#utility.yul\":5903:6296   */\n  swap4\n  swap3\n  pop\n  pop\n  pop\n  jump\t// out\n    /* \"#utility.yul\":6302:6362   */\ntag_37:\n    /* \"#utility.yul\":6330:6333   */\n  0x00\n    /* \"#utility.yul\":6351:6356   */\n  dup2\n    /* \"#utility.yul\":6344:6356   */\n  swap1\n  pop\n    /* \"#utility.yul\":6302:6362   */\n  swap2\n  swap1\n  pop\n  jump\t// out\n    /* \"#utility.yul\":6368:6510   */\ntag_38:\n    /* \"#utility.yul\":6418:6427   */\n  0x00\n    /* \"#utility.yul\":6451:6504   */\n  tag_119\n    /* \"#utility.yul\":6469:6503   */\n  tag_120\n    /* \"#utility.yul\":6478:6502   */\n  tag_121\n    /* \"#utility.yul\":6496:6501   */\n  dup5\n    /* \"#utility.yul\":6478:6502   */\n  tag_13\n  jump\t// in\ntag_121:\n    /* \"#utility.yul\":6469:6503   */\n  tag_37\n  jump\t// in\ntag_120:\n    /* \"#utility.yul\":6451:6504   */\n  tag_13\n  jump\t// in\ntag_119:\n    /* \"#utility.yul\":6438:6504   */\n  swap1\n  pop\n    /* \"#utility.yul\":6368:6510   */\n  swap2\n  swap1\n  pop\n  jump\t// out\n    /* \"#utility.yul\":6516:6591   */\ntag_39:\n    /* \"#utility.yul\":6559:6562   */\n  0x00\n    /* \"#utility.yul\":6580:6585   */\n  dup2\n    /* \"#utility.yul\":6573:6585   */\n  swap1\n  pop\n    /* \"#utility.yul\":6516:6591   */\n  swap2\n  swap1\n  pop\n  jump\t// out\n    /* \"#utility.yul\":6597:6866   */\ntag_40:\n    /* \"#utility.yul\":6707:6746   */\n  tag_124\n    /* \"#utility.yul\":6738:6745   */\n  dup4\n    /* \"#utility.yul\":6707:6746   */\n  tag_38\n  jump\t// in\ntag_124:\n    /* \"#utility.yul\":6768:6859   */\n  tag_125\n    /* \"#utility.yul\":6817:6858   */\n  tag_126\n    /* \"#utility.yul\":6841:6857   */\n  dup3\n    /* \"#utility.yul\":6817:6858   */\n  tag_39\n  jump\t// in\ntag_126:\n    /* \"#utility.yul\":6809:6815   */\n  dup5\n    /* \"#utility.yul\":6802:6806   */\n  dup5\n    /* \"#utility.yul\":6796:6807   */\n  sload\n    /* \"#utility.yul\":6768:6859   */\n  tag_36\n  jump\t// in\ntag_125:\n    /* \"#utility.yul\":6762:6766   */\n  dup3\n    /* \"#utility.yul\":6755:6860   */\n  sstore\n    /* \"#utility.yul\":6673:6866   */\n  pop\n    /* \"#utility.yul\":6597:6866   */\n  pop\n  pop\n  pop\n  jump\t// out\n    /* \"#utility.yul\":6872:6945   */\ntag_41:\n    /* \"#utility.yul\":6917:6920   */\n  0x00\n    /* \"#utility.yul\":6938:6939   */\n  0x00\n    /* \"#utility.yul\":6931:6939   */\n  swap1\n  pop\n    /* \"#utility.yul\":6872:6945   */\n  swap1\n  jump\t// out\n    /* \"#utility.yul\":6951:7140   */\ntag_42:\n    /* \"#utility.yul\":7028:7060   */\n  tag_129\n  tag_41\n  jump\t// in\ntag_129:\n    /* \"#utility.yul\":7069:7134   */\n  tag_130\n    /* \"#utility.yul\":7127:7133   */\n  dup2\n    /* \"#utility.yul\":7119:7125   */\n  dup5\n    /* \"#utility.yul\":7113:7117   */\n  dup5\n    /* \"#utility.yul\":7069:7134   */\n  tag_40\n  jump\t// in\ntag_130:\n    /* \"#utility.yul\":7004:7140   */\n  pop\n    /* \"#utility.yul\":6951:7140   */\n  pop\n  pop\n  jump\t// out\n    /* \"#utility.yul\":7146:7332   */\ntag_43:\n    /* \"#utility.yul\":7206:7326   */\ntag_132:\n    /* \"#utility.yul\":7223:7226   */\n  dup2\n    /* \"#utility.yul\":7216:7221   */\n  dup2\n    /* \"#utility.yul\":7213:7227   */\n  lt\n    /* \"#utility.yul\":7206:7326   */\n  iszero\n  tag_134\n  jumpi\n    /* \"#utility.yul\":7277:7316   */\n  tag_135\n    /* \"#utility.yul\":7314:7315   */\n  0x00\n    /* \"#utility.yul\":7307:7312   */\n  dup3\n    /* \"#utility.yul\":7277:7316   */\n  tag_42\n  jump\t// in\ntag_135:\n    /* \"#utility.yul\":7250:7251   */\n  0x01\n    /* \"#utility.yul\":7243:7248   */\n  dup2\n    /* \"#utility.yul\":7239:7252   */\n  add\n    /* \"#utility.yul\":7230:7252   */\n  swap1\n  pop\n    /* \"#utility.yul\":7206:7326   */\n  jump(tag_132)\ntag_134:\n    /* \"#utility.yul\":7146:7332   */\n  pop\n  pop\n  jump\t// out\n    /* \"#utility.yul\":7338:7881   */\ntag_44:\n    /* \"#utility.yul\":7439:7441   */\n  0x1f\n    /* \"#utility.yul\":7434:7437   */\n  dup3\n    /* \"#utility.yul\":7431:7442   */\n  gt\n    /* \"#utility.yul\":7428:7874   */\n  iszero\n  tag_137\n  jumpi\n    /* \"#utility.yul\":7473:7511   */\n  tag_138\n    /* \"#utility.yul\":7505:7510   */\n  dup2\n    /* \"#utility.yul\":7473:7511   */\n  tag_33\n  jump\t// in\ntag_138:\n    /* \"#utility.yul\":7557:7586   */\n  tag_139\n    /* \"#utility.yul\":7575:7585   */\n  dup5\n    /* \"#utility.yul\":7557:7586   */\n  tag_34\n  jump\t// in\ntag_139:\n    /* \"#utility.yul\":7547:7555   */\n  dup2\n    /* \"#utility.yul\":7543:7587   */\n  add\n    /* \"#utility.yul\":7740:7742   */\n  0x20\n    /* \"#utility.yul\":7728:7738   */\n  dup6\n    /* \"#utility.yul\":7725:7743   */\n  lt\n    /* \"#utility.yul\":7722:7771   */\n  iszero\n  tag_140\n  jumpi\n    /* \"#utility.yul\":7761:7769   */\n  dup2\n    /* \"#utility.yul\":7746:7769   */\n  swap1\n  pop\n    /* \"#utility.yul\":7722:7771   */\ntag_140:\n    /* \"#utility.yul\":7784:7864   */\n  tag_141\n    /* \"#utility.yul\":7840:7862   */\n  tag_142\n    /* \"#utility.yul\":7858:7861   */\n  dup6\n    /* \"#utility.yul\":7840:7862   */\n  tag_34\n  jump\t// in\ntag_142:\n    /* \"#utility.yul\":7830:7838   */\n  dup4\n    /* \"#utility.yul\":7826:7863   */\n  add\n    /* \"#utility.yul\":7813:7824   */\n  dup3\n    /* \"#utility.yul\":7784:7864   */\n  tag_43\n  jump\t// in\ntag_141:\n    /* \"#utility.yul\":7443:7874   */\n  pop\n  pop\n    /* \"#utility.yul\":7428:7874   */\ntag_137:\n    /* \"#utility.yul\":7338:7881   */\n  pop\n  pop\n  pop\n  jump\t// out\n    /* \"#utility.yul\":7887:8004   */\ntag_45:\n    /* \"#utility.yul\":7941:7949   */\n  0x00\n    /* \"#utility.yul\":7991:7996   */\n  dup3\n    /* \"#utility.yul\":7985:7989   */\n  dup3\n    /* \"#utility.yul\":7981:7997   */\n  shr\n    /* \"#utility.yul\":7960:7997   */\n  swap1\n  pop\n    /* \"#utility.yul\":7887:8004   */\n  swap3\n  swap2\n  pop\n  pop\n  jump\t// out\n    /* \"#utility.yul\":8010:8179   */\ntag_46:\n    /* \"#utility.yul\":8054:8060   */\n  0x00\n    /* \"#utility.yul\":8087:8138   */\n  tag_145\n    /* \"#utility.yul\":8135:8136   */\n  0x00\n    /* \"#utility.yul\":8131:8137   */\n  not\n    /* \"#utility.yul\":8123:8128   */\n  dup5\n    /* \"#utility.yul\":8120:8121   */\n  0x08\n    /* \"#utility.yul\":8116:8129   */\n  mul\n    /* \"#utility.yul\":8087:8138   */\n  tag_45\n  jump\t// in\ntag_145:\n    /* \"#utility.yul\":8083:8139   */\n  not\n    /* \"#utility.yul\":8168:8172   */\n  dup1\n    /* \"#utility.yul\":8162:8166   */\n  dup4\n    /* \"#utility.yul\":8158:8173   */\n  and\n    /* \"#utility.yul\":8148:8173   */\n  swap2\n  pop\n    /* \"#utility.yul\":8061:8179   */\n  pop\n    /* \"#utility.yul\":8010:8179   */\n  swap3\n  swap2\n  pop\n  pop\n  jump\t// out\n    /* \"#utility.yul\":8184:8479   */\ntag_47:\n    /* \"#utility.yul\":8260:8264   */\n  0x00\n    /* \"#utility.yul\":8406:8435   */\n  tag_147\n    /* \"#utility.yul\":8431:8434   */\n  dup4\n    /* \"#utility.yul\":8425:8429   */\n  dup4\n    /* \"#utility.yul\":8406:8435   */\n  tag_46\n  jump\t// in\ntag_147:\n    /* \"#utility.yul\":8398:8435   */\n  swap2\n  pop\n    /* \"#utility.yul\":8468:8471   */\n  dup3\n    /* \"#utility.yul\":8465:8466   */\n  0x02\n    /* \"#utility.yul\":8461:8472   */\n  mul\n    /* \"#utility.yul\":8455:8459   */\n  dup3\n    /* \"#utility.yul\":8452:8473   */\n  or\n    /* \"#utility.yul\":8444:8473   */\n  swap1\n  pop\n    /* \"#utility.yul\":8184:8479   */\n  swap3\n  swap2\n  pop\n  pop\n  jump\t// out\n    /* \"#utility.yul\":8484:9879   */\ntag_7:\n    /* \"#utility.yul\":8601:8638   */\n  tag_149\n    /* \"#utility.yul\":8634:8637   */\n  dup3\n    /* \"#utility.yul\":8601:8638   */\n  tag_30\n  jump\t// in\ntag_149:\n    /* \"#utility.yul\":8703:8721   */\n  0xffffffffffffffff\n    /* \"#utility.yul\":8695:8701   */\n  dup2\n    /* \"#utility.yul\":8692:8722   */\n  gt\n    /* \"#utility.yul\":8689:8745   */\n  iszero\n  tag_150\n  jumpi\n    /* \"#utility.yul\":8725:8743   */\n  tag_151\n  tag_19\n  jump\t// in\ntag_151:\n    /* \"#utility.yul\":8689:8745   */\ntag_150:\n    /* \"#utility.yul\":8769:8807   */\n  tag_152\n    /* \"#utility.yul\":8801:8805   */\n  dup3\n    /* \"#utility.yul\":8795:8806   */\n  sload\n    /* \"#utility.yul\":8769:8807   */\n  tag_32\n  jump\t// in\ntag_152:\n    /* \"#utility.yul\":8854:8921   */\n  tag_153\n    /* \"#utility.yul\":8914:8920   */\n  dup3\n    /* \"#utility.yul\":8906:8912   */\n  dup3\n    /* \"#utility.yul\":8900:8904   */\n  dup6\n    /* \"#utility.yul\":8854:8921   */\n  tag_44\n  jump\t// in\ntag_153:\n    /* \"#utility.yul\":8948:8949   */\n  0x00\n    /* \"#utility.yul\":8972:8976   */\n  0x20\n    /* \"#utility.yul\":8959:8976   */\n  swap1\n  pop\n    /* \"#utility.yul\":9004:9006   */\n  0x1f\n    /* \"#utility.yul\":8996:9002   */\n  dup4\n    /* \"#utility.yul\":8993:9007   */\n  gt\n    /* \"#utility.yul\":9021:9022   */\n  0x01\n    /* \"#utility.yul\":9016:9634   */\n  dup2\n  eq\n  tag_155\n  jumpi\n    /* \"#utility.yul\":9678:9679   */\n  0x00\n    /* \"#utility.yul\":9695:9701   */\n  dup5\n    /* \"#utility.yul\":9692:9769   */\n  iszero\n  tag_156\n  jumpi\n    /* \"#utility.yul\":9744:9753   */\n  dup3\n    /* \"#utility.yul\":9739:9742   */\n  dup8\n    /* \"#utility.yul\":9735:9754   */\n  add\n    /* \"#utility.yul\":9729:9755   */\n  mload\n    /* \"#utility.yul\":9720:9755   */\n  swap1\n  pop\n    /* \"#utility.yul\":9692:9769   */\ntag_156:\n    /* \"#utility.yul\":9795:9862   */\n  tag_157\n    /* \"#utility.yul\":9855:9861   */\n  dup6\n    /* \"#utility.yul\":9848:9853   */\n  dup3\n    /* \"#utility.yul\":9795:9862   */\n  tag_47\n  jump\t// in\ntag_157:\n    /* \"#utility.yul\":9789:9793   */\n  dup7\n    /* \"#utility.yul\":9782:9863   */\n  sstore\n    /* \"#utility.yul\":9651:9873   */\n  pop\n    /* \"#utility.yul\":8986:9873   */\n  jump(tag_154)\n    /* \"#utility.yul\":9016:9634   */\ntag_155:\n    /* \"#utility.yul\":9068:9072   */\n  0x1f\n    /* \"#utility.yul\":9064:9073   */\n  not\n    /* \"#utility.yul\":9056:9062   */\n  dup5\n    /* \"#utility.yul\":9052:9074   */\n  and\n    /* \"#utility.yul\":9102:9139   */\n  tag_158\n    /* \"#utility.yul\":9134:9138   */\n  dup7\n    /* \"#utility.yul\":9102:9139   */\n  tag_33\n  jump\t// in\ntag_158:\n    /* \"#utility.yul\":9161:9162   */\n  0x00\n    /* \"#utility.yul\":9175:9383   */\ntag_159:\n    /* \"#utility.yul\":9189:9196   */\n  dup3\n    /* \"#utility.yul\":9186:9187   */\n  dup2\n    /* \"#utility.yul\":9183:9197   */\n  lt\n    /* \"#utility.yul\":9175:9383   */\n  iszero\n  tag_161\n  jumpi\n    /* \"#utility.yul\":9268:9277   */\n  dup5\n    /* \"#utility.yul\":9263:9266   */\n  dup10\n    /* \"#utility.yul\":9259:9278   */\n  add\n    /* \"#utility.yul\":9253:9279   */\n  mload\n    /* \"#utility.yul\":9245:9251   */\n  dup3\n    /* \"#utility.yul\":9238:9280   */\n  sstore\n    /* \"#utility.yul\":9319:9320   */\n  0x01\n    /* \"#utility.yul\":9311:9317   */\n  dup3\n    /* \"#utility.yul\":9307:9321   */\n  add\n    /* \"#utility.yul\":9297:9321   */\n  swap2\n  pop\n    /* \"#utility.yul\":9366:9368   */\n  0x20\n    /* \"#utility.yul\":9355:9364   */\n  dup6\n    /* \"#utility.yul\":9351:9369   */\n  add\n    /* \"#utility.yul\":9338:9369   */\n  swap5\n  pop\n    /* \"#utility.yul\":9212:9216   */\n  0x20\n    /* \"#utility.yul\":9209:9210   */\n  dup2\n    /* \"#utility.yul\":9205:9217   */\n  add\n    /* \"#utility.yul\":9200:9217   */\n  swap1\n  pop\n    /* \"#utility.yul\":9175:9383   */\n  jump(tag_159)\ntag_161:\n    /* \"#utility.yul\":9411:9417   */\n  dup7\n    /* \"#utility.yul\":9402:9409   */\n  dup4\n    /* \"#utility.yul\":9399:9418   */\n  lt\n    /* \"#utility.yul\":9396:9575   */\n  iszero\n  tag_162\n  jumpi\n    /* \"#utility.yul\":9469:9478   */\n  dup5\n    /* \"#utility.yul\":9464:9467   */\n  dup10\n    /* \"#utility.yul\":9460:9479   */\n  add\n    /* \"#utility.yul\":9454:9480   */\n  mload\n    /* \"#utility.yul\":9512:9560   */\n  tag_163\n    /* \"#utility.yul\":9554:9558   */\n  0x1f\n    /* \"#utility.yul\":9546:9552   */\n  dup10\n    /* \"#utility.yul\":9542:9559   */\n  and\n    /* \"#utility.yul\":9531:9540   */\n  dup3\n    /* \"#utility.yul\":9512:9560   */\n  tag_46\n  jump\t// in\ntag_163:\n    /* \"#utility.yul\":9504:9510   */\n  dup4\n    /* \"#utility.yul\":9497:9561   */\n  sstore\n    /* \"#utility.yul\":9419:9575   */\n  pop\n    /* \"#utility.yul\":9396:9575   */\ntag_162:\n    /* \"#utility.yul\":9621:9622   */\n  0x01\n    /* \"#utility.yul\":9617:9618   */\n  0x02\n    /* \"#utility.yul\":9609:9615   */\n  dup9\n    /* \"#utility.yul\":9605:9619   */\n  mul\n    /* \"#utility.yul\":9601:9623   */\n  add\n    /* \"#utility.yul\":9595:9599   */\n  dup9\n    /* \"#utility.yul\":9588:9624   */\n  sstore\n    /* \"#utility.yul\":9023:9634   */\n  pop\n  pop\n  pop\n    /* \"#utility.yul\":8986:9873   */\ntag_154:\n  pop\n    /* \"#utility.yul\":8576:9879   */\n  pop\n  pop\n  pop\n    /* \"#utility.yul\":8484:9879   */\n  pop\n  pop\n  jump\t// out\n    /* \"Campaign.sol\":561:5686  contract Campaign {... */\ntag_9:\n  dataSize(sub_0)\n  dup1\n  dataOffset(sub_0)\n  0x00\n  codecopy\n  0x00\n  return\nstop\n\nsub_0: assembly {\n        /* \"Campaign.sol\":561:5686  contract Campaign {... */\n      mstore(0x40, 0x80)\n      jumpi(tag_1, lt(calldatasize, 0x04))\n      shr(0xe0, calldataload(0x00))\n      dup1\n      0x83920e90\n      gt\n      tag_24\n      jumpi\n      dup1\n      0xa39fac12\n      gt\n      tag_25\n      jumpi\n      dup1\n      0xa39fac12\n      eq\n      tag_18\n      jumpi\n      dup1\n      0xc45a0155\n      eq\n      tag_19\n      jumpi\n      dup1\n      0xc8b342ab\n      eq\n      tag_20\n      jumpi\n      dup1\n      0xd57bde79\n      eq\n      tag_21\n      jumpi\n      dup1\n      0xd7bb99ba\n      eq\n      tag_22\n      jumpi\n      dup1\n      0xedf26d9b\n      eq\n      tag_23\n      jumpi\n      jump(tag_1)\n    tag_25:\n      dup1\n      0x83920e90\n      eq\n      tag_13\n      jumpi\n      dup1\n      0x91f90157\n      eq\n      tag_14\n      jumpi\n      dup1\n      0x937e09b1\n      eq\n      tag_15\n      jumpi\n      dup1\n      0x976af615\n      eq\n      tag_16\n      jumpi\n      dup1\n      0x9ace38c2\n      eq\n      tag_17\n      jumpi\n      jump(tag_1)\n    tag_24:\n      dup1\n      0x4e69d560\n      gt\n      tag_26\n      jumpi\n      dup1\n      0x4e69d560\n      eq\n      tag_7\n      jumpi\n      dup1\n      0x58d65629\n      eq\n      tag_8\n      jumpi\n      dup1\n      0x597e1fb5\n      eq\n      tag_9\n      jumpi\n      dup1\n      0x5dc1d641\n      eq\n      tag_10\n      jumpi\n      dup1\n      0x7b87d856\n      eq\n      tag_11\n      jumpi\n      dup1\n      0x82fde093\n      eq\n      tag_12\n      jumpi\n      jump(tag_1)\n    tag_26:\n      dup1\n      0x0a144391\n      eq\n      tag_2\n      jumpi\n      dup1\n      0x3197cbb6\n      eq\n      tag_3\n      jumpi\n      dup1\n      0x3bc5de30\n      eq\n      tag_4\n      jumpi\n      dup1\n      0x4051ddac\n      eq\n      tag_5\n      jumpi\n      dup1\n      0x481c6a75\n      eq\n      tag_6\n      jumpi\n    tag_1:\n      revert(0x00, 0x00)\n        /* \"Campaign.sol\":1007:1048  mapping(address => bool) public approvers */\n    tag_2:\n      callvalue\n      dup1\n      iszero\n      tag_27\n      jumpi\n      revert(0x00, 0x00)\n    tag_27:\n      pop\n      tag_28\n      0x04\n      dup1\n      calldatasize\n      sub\n      dup2\n      add\n      swap1\n      tag_29\n      swap2\n      swap1\n      tag_30\n      jump\t// in\n    tag_29:\n      tag_31\n      jump\t// in\n    tag_28:\n      mload(0x40)\n      tag_32\n      swap2\n      swap1\n      tag_33\n      jump\t// in\n    tag_32:\n      mload(0x40)\n      dup1\n      swap2\n      sub\n      swap1\n      return\n        /* \"Campaign.sol\":1283:1305  uint256 public endTime */\n    tag_3:\n      callvalue\n      dup1\n      iszero\n      tag_34\n      jumpi\n      revert(0x00, 0x00)\n    tag_34:\n      pop\n      tag_35\n      tag_36\n      jump\t// in\n    tag_35:\n      mload(0x40)\n      tag_37\n      swap2\n      swap1\n      tag_38\n      jump\t// in\n    tag_37:\n      mload(0x40)\n      dup1\n      swap2\n      sub\n      swap1\n      return\n        /* \"Campaign.sol\":4795:5020  function getData() public view returns (string memory) {... */\n    tag_4:\n      callvalue\n      dup1\n      iszero\n      tag_39\n      jumpi\n      revert(0x00, 0x00)\n    tag_39:\n      pop\n      tag_40\n      tag_41\n      jump\t// in\n    tag_40:\n      mload(0x40)\n      tag_42\n      swap2\n      swap1\n      tag_43\n      jump\t// in\n    tag_42:\n      mload(0x40)\n      dup1\n      swap2\n      sub\n      swap1\n      return\n        /* \"Campaign.sol\":5134:5683  function getSummary()... */\n    tag_5:\n      callvalue\n      dup1\n      iszero\n      tag_44\n      jumpi\n      revert(0x00, 0x00)\n    tag_44:\n      pop\n      tag_45\n      tag_46\n      jump\t// in\n    tag_45:\n      mload(0x40)\n      tag_47\n      swap11\n      swap10\n      swap9\n      swap8\n      swap7\n      swap6\n      swap5\n      swap4\n      swap3\n      swap2\n      swap1\n      tag_48\n      jump\t// in\n    tag_47:\n      mload(0x40)\n      dup1\n      swap2\n      sub\n      swap1\n      return\n        /* \"Campaign.sol\":867:889  address public manager */\n    tag_6:\n      callvalue\n      dup1\n      iszero\n      tag_49\n      jumpi\n      revert(0x00, 0x00)\n    tag_49:\n      pop\n      tag_50\n      tag_51\n      jump\t// in\n    tag_50:\n      mload(0x40)\n      tag_52\n      swap2\n      swap1\n      tag_53\n      jump\t// in\n    tag_52:\n      mload(0x40)\n      dup1\n      swap2\n      sub\n      swap1\n      return\n        /* \"Campaign.sol\":4481:4561  function getStatus() public view returns (bool) {... */\n    tag_7:\n      callvalue\n      dup1\n      iszero\n      tag_54\n      jumpi\n      revert(0x00, 0x00)\n    tag_54:\n      pop\n      tag_55\n      tag_56\n      jump\t// in\n    tag_55:\n      mload(0x40)\n      tag_57\n      swap2\n      swap1\n      tag_33\n      jump\t// in\n    tag_57:\n      mload(0x40)\n      dup1\n      swap2\n      sub\n      swap1\n      return\n        /* \"Campaign.sol\":969:998  string public dataDescription */\n    tag_8:\n      callvalue\n      dup1\n      iszero\n      tag_58\n      jumpi\n      revert(0x00, 0x00)\n    tag_58:\n      pop\n      tag_59\n      tag_60\n      jump\t// in\n    tag_59:\n      mload(0x40)\n      tag_61\n      swap2\n      swap1\n      tag_43\n      jump\t// in\n    tag_61:\n      mload(0x40)\n      dup1\n      swap2\n      sub\n      swap1\n      return\n        /* \"Campaign.sol\":1312:1330  bool public closed */\n    tag_9:\n      callvalue\n      dup1\n      iszero\n      tag_62\n      jumpi\n      revert(0x00, 0x00)\n    tag_62:\n      pop\n      tag_63\n      tag_64\n      jump\t// in\n    tag_63:\n      mload(0x40)\n      tag_65\n      swap2\n      swap1\n      tag_33\n      jump\t// in\n    tag_65:\n      mload(0x40)\n      dup1\n      swap2\n      sub\n      swap1\n      return\n        /* \"Campaign.sol\":1055:1104  mapping(address => uint256) public approversMoney */\n    tag_10:\n      callvalue\n      dup1\n      iszero\n      tag_66\n      jumpi\n      revert(0x00, 0x00)\n    tag_66:\n      pop\n      tag_67\n      0x04\n      dup1\n      calldatasize\n      sub\n      dup2\n      add\n      swap1\n      tag_68\n      swap2\n      swap1\n      tag_30\n      jump\t// in\n    tag_68:\n      tag_69\n      jump\t// in\n    tag_67:\n      mload(0x40)\n      tag_70\n      swap2\n      swap1\n      tag_38\n      jump\t// in\n    tag_70:\n      mload(0x40)\n      dup1\n      swap2\n      sub\n      swap1\n      return\n        /* \"Campaign.sol\":937:962  string public dataForSell */\n    tag_11:\n      callvalue\n      dup1\n      iszero\n      tag_71\n      jumpi\n      revert(0x00, 0x00)\n    tag_71:\n      pop\n      tag_72\n      tag_73\n      jump\t// in\n    tag_72:\n      mload(0x40)\n      tag_74\n      swap2\n      swap1\n      tag_43\n      jump\t// in\n    tag_74:\n      mload(0x40)\n      dup1\n      swap2\n      sub\n      swap1\n      return\n        /* \"Campaign.sol\":1111:1140  uint256 public approversCount */\n    tag_12:\n      callvalue\n      dup1\n      iszero\n      tag_75\n      jumpi\n      revert(0x00, 0x00)\n    tag_75:\n      pop\n      tag_76\n      tag_77\n      jump\t// in\n    tag_76:\n      mload(0x40)\n      tag_78\n      swap2\n      swap1\n      tag_38\n      jump\t// in\n    tag_78:\n      mload(0x40)\n      dup1\n      swap2\n      sub\n      swap1\n      return\n        /* \"Campaign.sol\":4687:4787  function getTransactions() public view returns (Bid[] memory) {... */\n    tag_13:\n      callvalue\n      dup1\n      iszero\n      tag_79\n      jumpi\n      revert(0x00, 0x00)\n    tag_79:\n      pop\n      tag_80\n      tag_81\n      jump\t// in\n    tag_80:\n      mload(0x40)\n      tag_82\n      swap2\n      swap1\n      tag_83\n      jump\t// in\n    tag_82:\n      mload(0x40)\n      dup1\n      swap2\n      sub\n      swap1\n      return\n        /* \"Campaign.sol\":1216:1244  address public highestBidder */\n    tag_14:\n      callvalue\n      dup1\n      iszero\n      tag_84\n      jumpi\n      revert(0x00, 0x00)\n    tag_84:\n      pop\n      tag_85\n      tag_86\n      jump\t// in\n    tag_85:\n      mload(0x40)\n      tag_87\n      swap2\n      swap1\n      tag_53\n      jump\t// in\n    tag_87:\n      mload(0x40)\n      dup1\n      swap2\n      sub\n      swap1\n      return\n        /* \"Campaign.sol\":896:930  uint256 public minimumContribution */\n    tag_15:\n      callvalue\n      dup1\n      iszero\n      tag_88\n      jumpi\n      revert(0x00, 0x00)\n    tag_88:\n      pop\n      tag_89\n      tag_90\n      jump\t// in\n    tag_89:\n      mload(0x40)\n      tag_91\n      swap2\n      swap1\n      tag_38\n      jump\t// in\n    tag_91:\n      mload(0x40)\n      dup1\n      swap2\n      sub\n      swap1\n      return\n        /* \"Campaign.sol\":3532:4473  function finalizeAuctionIfNeeded() public onlyAfterEnd {... */\n    tag_16:\n      callvalue\n      dup1\n      iszero\n      tag_92\n      jumpi\n      revert(0x00, 0x00)\n    tag_92:\n      pop\n      tag_93\n      tag_94\n      jump\t// in\n    tag_93:\n      stop\n        /* \"Campaign.sol\":1182:1207  Bid[] public transactions */\n    tag_17:\n      callvalue\n      dup1\n      iszero\n      tag_95\n      jumpi\n      revert(0x00, 0x00)\n    tag_95:\n      pop\n      tag_96\n      0x04\n      dup1\n      calldatasize\n      sub\n      dup2\n      add\n      swap1\n      tag_97\n      swap2\n      swap1\n      tag_98\n      jump\t// in\n    tag_97:\n      tag_99\n      jump\t// in\n    tag_96:\n      mload(0x40)\n      tag_100\n      swap4\n      swap3\n      swap2\n      swap1\n      tag_101\n      jump\t// in\n    tag_100:\n      mload(0x40)\n      dup1\n      swap2\n      sub\n      swap1\n      return\n        /* \"Campaign.sol\":5028:5126  function getAddresses() public view returns (address[] memory) {... */\n    tag_18:\n      callvalue\n      dup1\n      iszero\n      tag_102\n      jumpi\n      revert(0x00, 0x00)\n    tag_102:\n      pop\n      tag_103\n      tag_104\n      jump\t// in\n    tag_103:\n      mload(0x40)\n      tag_105\n      swap2\n      swap1\n      tag_106\n      jump\t// in\n    tag_105:\n      mload(0x40)\n      dup1\n      swap2\n      sub\n      swap1\n      return\n        /* \"Campaign.sol\":586:616  CampaignFactory public factory */\n    tag_19:\n      callvalue\n      dup1\n      iszero\n      tag_107\n      jumpi\n      revert(0x00, 0x00)\n    tag_107:\n      pop\n      tag_108\n      tag_109\n      jump\t// in\n    tag_108:\n      mload(0x40)\n      tag_110\n      swap2\n      swap1\n      tag_111\n      jump\t// in\n    tag_110:\n      mload(0x40)\n      dup1\n      swap2\n      sub\n      swap1\n      return\n        /* \"Campaign.sol\":4569:4679  function getBid(address bidder) public view returns (uint256) {... */\n    tag_20:\n      callvalue\n      dup1\n      iszero\n      tag_112\n      jumpi\n      revert(0x00, 0x00)\n    tag_112:\n      pop\n      tag_113\n      0x04\n      dup1\n      calldatasize\n      sub\n      dup2\n      add\n      swap1\n      tag_114\n      swap2\n      swap1\n      tag_30\n      jump\t// in\n    tag_114:\n      tag_115\n      jump\t// in\n    tag_113:\n      mload(0x40)\n      tag_116\n      swap2\n      swap1\n      tag_38\n      jump\t// in\n    tag_116:\n      mload(0x40)\n      dup1\n      swap2\n      sub\n      swap1\n      return\n        /* \"Campaign.sol\":1251:1276  uint256 public highestBid */\n    tag_21:\n      callvalue\n      dup1\n      iszero\n      tag_117\n      jumpi\n      revert(0x00, 0x00)\n    tag_117:\n      pop\n      tag_118\n      tag_119\n      jump\t// in\n    tag_118:\n      mload(0x40)\n      tag_120\n      swap2\n      swap1\n      tag_38\n      jump\t// in\n    tag_120:\n      mload(0x40)\n      dup1\n      swap2\n      sub\n      swap1\n      return\n        /* \"Campaign.sol\":2030:3524  function contribute() public payable onlyBeforeEnd {... */\n    tag_22:\n      tag_121\n      tag_122\n      jump\t// in\n    tag_121:\n      stop\n        /* \"Campaign.sol\":1149:1175  address[] public addresses */\n    tag_23:\n      callvalue\n      dup1\n      iszero\n      tag_123\n      jumpi\n      revert(0x00, 0x00)\n    tag_123:\n      pop\n      tag_124\n      0x04\n      dup1\n      calldatasize\n      sub\n      dup2\n      add\n      swap1\n      tag_125\n      swap2\n      swap1\n      tag_98\n      jump\t// in\n    tag_125:\n      tag_126\n      jump\t// in\n    tag_124:\n      mload(0x40)\n      tag_127\n      swap2\n      swap1\n      tag_53\n      jump\t// in\n    tag_127:\n      mload(0x40)\n      dup1\n      swap2\n      sub\n      swap1\n      return\n        /* \"Campaign.sol\":1007:1048  mapping(address => bool) public approvers */\n    tag_31:\n      mstore(0x20, 0x05)\n      dup1\n      0x00\n      mstore\n      keccak256(0x00, 0x40)\n      0x00\n      swap2\n      pop\n      sload\n      swap1\n      0x0100\n      exp\n      swap1\n      div\n      0xff\n      and\n      dup2\n      jump\t// out\n        /* \"Campaign.sol\":1283:1305  uint256 public endTime */\n    tag_36:\n      sload(0x0c)\n      dup2\n      jump\t// out\n        /* \"Campaign.sol\":4795:5020  function getData() public view returns (string memory) {... */\n    tag_41:\n        /* \"Campaign.sol\":4835:4848  string memory */\n      0x60\n        /* \"Campaign.sol\":4869:4875  closed */\n      0x0d\n      0x00\n      swap1\n      sload\n      swap1\n      0x0100\n      exp\n      swap1\n      div\n      0xff\n      and\n        /* \"Campaign.sol\":4861:4901  require(closed, \"Auction not finalized\") */\n      tag_129\n      jumpi\n      mload(0x40)\n      0x08c379a000000000000000000000000000000000000000000000000000000000\n      dup2\n      mstore\n      0x04\n      add\n      tag_130\n      swap1\n      tag_131\n      jump\t// in\n    tag_130:\n      mload(0x40)\n      dup1\n      swap2\n      sub\n      swap1\n      revert\n    tag_129:\n        /* \"Campaign.sol\":4934:4947  highestBidder */\n      0x0a\n      0x00\n      swap1\n      sload\n      swap1\n      0x0100\n      exp\n      swap1\n      div\n      0xffffffffffffffffffffffffffffffffffffffff\n      and\n        /* \"Campaign.sol\":4920:4947  msg.sender == highestBidder */\n      0xffffffffffffffffffffffffffffffffffffffff\n      and\n        /* \"Campaign.sol\":4920:4930  msg.sender */\n      caller\n        /* \"Campaign.sol\":4920:4947  msg.sender == highestBidder */\n      0xffffffffffffffffffffffffffffffffffffffff\n      and\n      eq\n        /* \"Campaign.sol\":4912:4983  require(msg.sender == highestBidder, \"Only winner can access the data\") */\n      tag_132\n      jumpi\n      mload(0x40)\n      0x08c379a000000000000000000000000000000000000000000000000000000000\n      dup2\n      mstore\n      0x04\n      add\n      tag_133\n      swap1\n      tag_134\n      jump\t// in\n    tag_133:\n      mload(0x40)\n      dup1\n      swap2\n      sub\n      swap1\n      revert\n    tag_132:\n        /* \"Campaign.sol\":5001:5012  dataForSell */\n      0x03\n        /* \"Campaign.sol\":4994:5012  return dataForSell */\n      dup1\n      sload\n      tag_135\n      swap1\n      tag_136\n      jump\t// in\n    tag_135:\n      dup1\n      0x1f\n      add\n      0x20\n      dup1\n      swap2\n      div\n      mul\n      0x20\n      add\n      mload(0x40)\n      swap1\n      dup2\n      add\n      0x40\n      mstore\n      dup1\n      swap3\n      swap2\n      swap1\n      dup2\n      dup2\n      mstore\n      0x20\n      add\n      dup3\n      dup1\n      sload\n      tag_137\n      swap1\n      tag_136\n      jump\t// in\n    tag_137:\n      dup1\n      iszero\n      tag_138\n      jumpi\n      dup1\n      0x1f\n      lt\n      tag_139\n      jumpi\n      0x0100\n      dup1\n      dup4\n      sload\n      div\n      mul\n      dup4\n      mstore\n      swap2\n      0x20\n      add\n      swap2\n      jump(tag_138)\n    tag_139:\n      dup3\n      add\n      swap2\n      swap1\n      0x00\n      mstore\n      keccak256(0x00, 0x20)\n      swap1\n    tag_140:\n      dup2\n      sload\n      dup2\n      mstore\n      swap1\n      0x01\n      add\n      swap1\n      0x20\n      add\n      dup1\n      dup4\n      gt\n      tag_140\n      jumpi\n      dup3\n      swap1\n      sub\n      0x1f\n      and\n      dup3\n      add\n      swap2\n    tag_138:\n      pop\n      pop\n      pop\n      pop\n      pop\n      swap1\n      pop\n        /* \"Campaign.sol\":4795:5020  function getData() public view returns (string memory) {... */\n      swap1\n      jump\t// out\n        /* \"Campaign.sol\":5134:5683  function getSummary()... */\n    tag_46:\n        /* \"Campaign.sol\":5218:5225  uint256 */\n      0x00\n        /* \"Campaign.sol\":5227:5234  uint256 */\n      0x00\n        /* \"Campaign.sol\":5236:5243  uint256 */\n      0x00\n        /* \"Campaign.sol\":5245:5252  address */\n      0x00\n        /* \"Campaign.sol\":5267:5274  uint256 */\n      0x00\n        /* \"Campaign.sol\":5276:5289  string memory */\n      0x60\n        /* \"Campaign.sol\":5291:5304  string memory */\n      dup1\n        /* \"Campaign.sol\":5319:5326  address */\n      0x00\n        /* \"Campaign.sol\":5328:5344  address[] memory */\n      0x60\n        /* \"Campaign.sol\":5346:5353  uint256 */\n      0x00\n        /* \"Campaign.sol\":5403:5422  minimumContribution */\n      sload(0x02)\n        /* \"Campaign.sol\":5437:5458  address(this).balance */\n      selfbalance\n        /* \"Campaign.sol\":5473:5487  approversCount */\n      sload(0x07)\n        /* \"Campaign.sol\":5502:5509  manager */\n      0x01\n      0x00\n      swap1\n      sload\n      swap1\n      0x0100\n      exp\n      swap1\n      div\n      0xffffffffffffffffffffffffffffffffffffffff\n      and\n        /* \"Campaign.sol\":5524:5534  highestBid */\n      sload(0x0b)\n        /* \"Campaign.sol\":5549:5560  dataForSell */\n      0x03\n        /* \"Campaign.sol\":5575:5590  dataDescription */\n      0x04\n        /* \"Campaign.sol\":5605:5618  highestBidder */\n      0x0a\n      0x00\n      swap1\n      sload\n      swap1\n      0x0100\n      exp\n      swap1\n      div\n      0xffffffffffffffffffffffffffffffffffffffff\n      and\n        /* \"Campaign.sol\":5633:5642  addresses */\n      0x08\n        /* \"Campaign.sol\":5657:5664  endTime */\n      sload(0x0c)\n        /* \"Campaign.sol\":5381:5675  return (... */\n      dup5\n      dup1\n      sload\n      tag_142\n      swap1\n      tag_136\n      jump\t// in\n    tag_142:\n      dup1\n      0x1f\n      add\n      0x20\n      dup1\n      swap2\n      div\n      mul\n      0x20\n      add\n      mload(0x40)\n      swap1\n      dup2\n      add\n      0x40\n      mstore\n      dup1\n      swap3\n      swap2\n      swap1\n      dup2\n      dup2\n      mstore\n      0x20\n      add\n      dup3\n      dup1\n      sload\n      tag_143\n      swap1\n      tag_136\n      jump\t// in\n    tag_143:\n      dup1\n      iszero\n      tag_144\n      jumpi\n      dup1\n      0x1f\n      lt\n      tag_145\n      jumpi\n      0x0100\n      dup1\n      dup4\n      sload\n      div\n      mul\n      dup4\n      mstore\n      swap2\n      0x20\n      add\n      swap2\n      jump(tag_144)\n    tag_145:\n      dup3\n      add\n      swap2\n      swap1\n      0x00\n      mstore\n      keccak256(0x00, 0x20)\n      swap1\n    tag_146:\n      dup2\n      sload\n      dup2\n      mstore\n      swap1\n      0x01\n      add\n      swap1\n      0x20\n      add\n      dup1\n      dup4\n      gt\n      tag_146\n      jumpi\n      dup3\n      swap1\n      sub\n      0x1f\n      and\n      dup3\n      add\n      swap2\n    tag_144:\n      pop\n      pop\n      pop\n      pop\n      pop\n      swap5\n      pop\n      dup4\n      dup1\n      sload\n      tag_147\n      swap1\n      tag_136\n      jump\t// in\n    tag_147:\n      dup1\n      0x1f\n      add\n      0x20\n      dup1\n      swap2\n      div\n      mul\n      0x20\n      add\n      mload(0x40)\n      swap1\n      dup2\n      add\n      0x40\n      mstore\n      dup1\n      swap3\n      swap2\n      swap1\n      dup2\n      dup2\n      mstore\n      0x20\n      add\n      dup3\n      dup1\n      sload\n      tag_148\n      swap1\n      tag_136\n      jump\t// in\n    tag_148:\n      dup1\n      iszero\n      tag_149\n      jumpi\n      dup1\n      0x1f\n      lt\n      tag_150\n      jumpi\n      0x0100\n      dup1\n      dup4\n      sload\n      div\n      mul\n      dup4\n      mstore\n      swap2\n      0x20\n      add\n      swap2\n      jump(tag_149)\n    tag_150:\n      dup3\n      add\n      swap2\n      swap1\n      0x00\n      mstore\n      keccak256(0x00, 0x20)\n      swap1\n    tag_151:\n      dup2\n      sload\n      dup2\n      mstore\n      swap1\n      0x01\n      add\n      swap1\n      0x20\n      add\n      dup1\n      dup4\n      gt\n      tag_151\n      jumpi\n      dup3\n      swap1\n      sub\n      0x1f\n      and\n      dup3\n      add\n      swap2\n    tag_149:\n      pop\n      pop\n      pop\n      pop\n      pop\n      swap4\n      pop\n      dup2\n      dup1\n      sload\n      dup1\n      0x20\n      mul\n      0x20\n      add\n      mload(0x40)\n      swap1\n      dup2\n      add\n      0x40\n      mstore\n      dup1\n      swap3\n      swap2\n      swap1\n      dup2\n      dup2\n      mstore\n      0x20\n      add\n      dup3\n      dup1\n      sload\n      dup1\n      iszero\n      tag_152\n      jumpi\n      0x20\n      mul\n      dup3\n      add\n      swap2\n      swap1\n      0x00\n      mstore\n      keccak256(0x00, 0x20)\n      swap1\n    tag_153:\n      dup2\n      0x00\n      swap1\n      sload\n      swap1\n      0x0100\n      exp\n      swap1\n      div\n      0xffffffffffffffffffffffffffffffffffffffff\n      and\n      0xffffffffffffffffffffffffffffffffffffffff\n      and\n      dup2\n      mstore\n      0x20\n      add\n      swap1\n      0x01\n      add\n      swap1\n      dup1\n      dup4\n      gt\n      tag_153\n      jumpi\n    tag_152:\n      pop\n      pop\n      pop\n      pop\n      pop\n      swap2\n      pop\n      swap10\n      pop\n      swap10\n      pop\n      swap10\n      pop\n      swap10\n      pop\n      swap10\n      pop\n      swap10\n      pop\n      swap10\n      pop\n      swap10\n      pop\n      swap10\n      pop\n      swap10\n      pop\n        /* \"Campaign.sol\":5134:5683  function getSummary()... */\n      swap1\n      swap2\n      swap3\n      swap4\n      swap5\n      swap6\n      swap7\n      swap8\n      swap9\n      swap10\n      jump\t// out\n        /* \"Campaign.sol\":867:889  address public manager */\n    tag_51:\n      0x01\n      0x00\n      swap1\n      sload\n      swap1\n      0x0100\n      exp\n      swap1\n      div\n      0xffffffffffffffffffffffffffffffffffffffff\n      and\n      dup2\n      jump\t// out\n        /* \"Campaign.sol\":4481:4561  function getStatus() public view returns (bool) {... */\n    tag_56:\n        /* \"Campaign.sol\":4523:4527  bool */\n      0x00\n        /* \"Campaign.sol\":4547:4553  closed */\n      0x0d\n      0x00\n      swap1\n      sload\n      swap1\n      0x0100\n      exp\n      swap1\n      div\n      0xff\n      and\n        /* \"Campaign.sol\":4540:4553  return closed */\n      swap1\n      pop\n        /* \"Campaign.sol\":4481:4561  function getStatus() public view returns (bool) {... */\n      swap1\n      jump\t// out\n        /* \"Campaign.sol\":969:998  string public dataDescription */\n    tag_60:\n      0x04\n      dup1\n      sload\n      tag_155\n      swap1\n      tag_136\n      jump\t// in\n    tag_155:\n      dup1\n      0x1f\n      add\n      0x20\n      dup1\n      swap2\n      div\n      mul\n      0x20\n      add\n      mload(0x40)\n      swap1\n      dup2\n      add\n      0x40\n      mstore\n      dup1\n      swap3\n      swap2\n      swap1\n      dup2\n      dup2\n      mstore\n      0x20\n      add\n      dup3\n      dup1\n      sload\n      tag_156\n      swap1\n      tag_136\n      jump\t// in\n    tag_156:\n      dup1\n      iszero\n      tag_157\n      jumpi\n      dup1\n      0x1f\n      lt\n      tag_158\n      jumpi\n      0x0100\n      dup1\n      dup4\n      sload\n      div\n      mul\n      dup4\n      mstore\n      swap2\n      0x20\n      add\n      swap2\n      jump(tag_157)\n    tag_158:\n      dup3\n      add\n      swap2\n      swap1\n      0x00\n      mstore\n      keccak256(0x00, 0x20)\n      swap1\n    tag_159:\n      dup2\n      sload\n      dup2\n      mstore\n      swap1\n      0x01\n      add\n      swap1\n      0x20\n      add\n      dup1\n      dup4\n      gt\n      tag_159\n      jumpi\n      dup3\n      swap1\n      sub\n      0x1f\n      and\n      dup3\n      add\n      swap2\n    tag_157:\n      pop\n      pop\n      pop\n      pop\n      pop\n      dup2\n      jump\t// out\n        /* \"Campaign.sol\":1312:1330  bool public closed */\n    tag_64:\n      0x0d\n      0x00\n      swap1\n      sload\n      swap1\n      0x0100\n      exp\n      swap1\n      div\n      0xff\n      and\n      dup2\n      jump\t// out\n        /* \"Campaign.sol\":1055:1104  mapping(address => uint256) public approversMoney */\n    tag_69:\n      mstore(0x20, 0x06)\n      dup1\n      0x00\n      mstore\n      keccak256(0x00, 0x40)\n      0x00\n      swap2\n      pop\n      swap1\n      pop\n      sload\n      dup2\n      jump\t// out\n        /* \"Campaign.sol\":937:962  string public dataForSell */\n    tag_73:\n      0x03\n      dup1\n      sload\n      tag_160\n      swap1\n      tag_136\n      jump\t// in\n    tag_160:\n      dup1\n      0x1f\n      add\n      0x20\n      dup1\n      swap2\n      div\n      mul\n      0x20\n      add\n      mload(0x40)\n      swap1\n      dup2\n      add\n      0x40\n      mstore\n      dup1\n      swap3\n      swap2\n      swap1\n      dup2\n      dup2\n      mstore\n      0x20\n      add\n      dup3\n      dup1\n      sload\n      tag_161\n      swap1\n      tag_136\n      jump\t// in\n    tag_161:\n      dup1\n      iszero\n      tag_162\n      jumpi\n      dup1\n      0x1f\n      lt\n      tag_163\n      jumpi\n      0x0100\n      dup1\n      dup4\n      sload\n      div\n      mul\n      dup4\n      mstore\n      swap2\n      0x20\n      add\n      swap2\n      jump(tag_162)\n    tag_163:\n      dup3\n      add\n      swap2\n      swap1\n      0x00\n      mstore\n      keccak256(0x00, 0x20)\n      swap1\n    tag_164:\n      dup2\n      sload\n      dup2\n      mstore\n      swap1\n      0x01\n      add\n      swap1\n      0x20\n      add\n      dup1\n      dup4\n      gt\n      tag_164\n      jumpi\n      dup3\n      swap1\n      sub\n      0x1f\n      and\n      dup3\n      add\n      swap2\n    tag_162:\n      pop\n      pop\n      pop\n      pop\n      pop\n      dup2\n      jump\t// out\n        /* \"Campaign.sol\":1111:1140  uint256 public approversCount */\n    tag_77:\n      sload(0x07)\n      dup2\n      jump\t// out\n        /* \"Campaign.sol\":4687:4787  function getTransactions() public view returns (Bid[] memory) {... */\n    tag_81:\n        /* \"Campaign.sol\":4735:4747  Bid[] memory */\n      0x60\n        /* \"Campaign.sol\":4767:4779  transactions */\n      0x09\n        /* \"Campaign.sol\":4760:4779  return transactions */\n      dup1\n      sload\n      dup1\n      0x20\n      mul\n      0x20\n      add\n      mload(0x40)\n      swap1\n      dup2\n      add\n      0x40\n      mstore\n      dup1\n      swap3\n      swap2\n      swap1\n      dup2\n      dup2\n      mstore\n      0x20\n      add\n      0x00\n      swap1\n    tag_166:\n      dup3\n      dup3\n      lt\n      iszero\n      tag_167\n      jumpi\n      dup4\n      dup3\n      swap1\n      0x00\n      mstore\n      keccak256(0x00, 0x20)\n      swap1\n      0x03\n      mul\n      add\n      mload(0x40)\n      dup1\n      0x60\n      add\n      0x40\n      mstore\n      swap1\n      dup2\n      0x00\n      dup3\n      add\n      sload\n      dup2\n      mstore\n      0x20\n      add\n      0x01\n      dup3\n      add\n      sload\n      dup2\n      mstore\n      0x20\n      add\n      0x02\n      dup3\n      add\n      0x00\n      swap1\n      sload\n      swap1\n      0x0100\n      exp\n      swap1\n      div\n      0xffffffffffffffffffffffffffffffffffffffff\n      and\n      0xffffffffffffffffffffffffffffffffffffffff\n      and\n      0xffffffffffffffffffffffffffffffffffffffff\n      and\n      dup2\n      mstore\n      pop\n      pop\n      dup2\n      mstore\n      0x20\n      add\n      swap1\n      0x01\n      add\n      swap1\n      jump(tag_166)\n    tag_167:\n      pop\n      pop\n      pop\n      pop\n      swap1\n      pop\n        /* \"Campaign.sol\":4687:4787  function getTransactions() public view returns (Bid[] memory) {... */\n      swap1\n      jump\t// out\n        /* \"Campaign.sol\":1216:1244  address public highestBidder */\n    tag_86:\n      0x0a\n      0x00\n      swap1\n      sload\n      swap1\n      0x0100\n      exp\n      swap1\n      div\n      0xffffffffffffffffffffffffffffffffffffffff\n      and\n      dup2\n      jump\t// out\n        /* \"Campaign.sol\":896:930  uint256 public minimumContribution */\n    tag_90:\n      sload(0x02)\n      dup2\n      jump\t// out\n        /* \"Campaign.sol\":3532:4473  function finalizeAuctionIfNeeded() public onlyAfterEnd {... */\n    tag_94:\n        /* \"Campaign.sol\":1516:1523  endTime */\n      sload(0x0c)\n        /* \"Campaign.sol\":1497:1512  block.timestamp */\n      timestamp\n        /* \"Campaign.sol\":1497:1523  block.timestamp >= endTime */\n      lt\n      iszero\n        /* \"Campaign.sol\":1489:1549  require(block.timestamp >= endTime, \"Auction not ended yet\") */\n      tag_170\n      jumpi\n      mload(0x40)\n      0x08c379a000000000000000000000000000000000000000000000000000000000\n      dup2\n      mstore\n      0x04\n      add\n      tag_171\n      swap1\n      tag_172\n      jump\t// in\n    tag_171:\n      mload(0x40)\n      dup1\n      swap2\n      sub\n      swap1\n      revert\n    tag_170:\n        /* \"Campaign.sol\":3607:3613  closed */\n      0x0d\n      0x00\n      swap1\n      sload\n      swap1\n      0x0100\n      exp\n      swap1\n      div\n      0xff\n      and\n        /* \"Campaign.sol\":3606:3613  !closed */\n      iszero\n        /* \"Campaign.sol\":3598:3643  require(!closed, \"Auction already finalized\") */\n      tag_174\n      jumpi\n      mload(0x40)\n      0x08c379a000000000000000000000000000000000000000000000000000000000\n      dup2\n      mstore\n      0x04\n      add\n      tag_175\n      swap1\n      tag_176\n      jump\t// in\n    tag_175:\n      mload(0x40)\n      dup1\n      swap2\n      sub\n      swap1\n      revert\n    tag_174:\n        /* \"Campaign.sol\":3661:3670  uint256 i */\n      0x00\n        /* \"Campaign.sol\":3673:3674  0 */\n      0x00\n        /* \"Campaign.sol\":3661:3674  uint256 i = 0 */\n      swap1\n      pop\n        /* \"Campaign.sol\":3656:4147  for (uint256 i = 0; i < addresses.length; i++) {... */\n    tag_177:\n        /* \"Campaign.sol\":3680:3689  addresses */\n      0x08\n        /* \"Campaign.sol\":3680:3696  addresses.length */\n      dup1\n      sload\n      swap1\n      pop\n        /* \"Campaign.sol\":3676:3677  i */\n      dup2\n        /* \"Campaign.sol\":3676:3696  i < addresses.length */\n      lt\n        /* \"Campaign.sol\":3656:4147  for (uint256 i = 0; i < addresses.length; i++) {... */\n      iszero\n      tag_178\n      jumpi\n        /* \"Campaign.sol\":3718:3737  address contributor */\n      0x00\n        /* \"Campaign.sol\":3740:3749  addresses */\n      0x08\n        /* \"Campaign.sol\":3750:3751  i */\n      dup3\n        /* \"Campaign.sol\":3740:3752  addresses[i] */\n      dup2\n      sload\n      dup2\n      lt\n      tag_180\n      jumpi\n      tag_181\n      tag_182\n      jump\t// in\n    tag_181:\n    tag_180:\n      swap1\n      0x00\n      mstore\n      keccak256(0x00, 0x20)\n      add\n      0x00\n      swap1\n      sload\n      swap1\n      0x0100\n      exp\n      swap1\n      div\n      0xffffffffffffffffffffffffffffffffffffffff\n      and\n        /* \"Campaign.sol\":3718:3752  address contributor = addresses[i] */\n      swap1\n      pop\n        /* \"Campaign.sol\":3786:3799  highestBidder */\n      0x0a\n      0x00\n      swap1\n      sload\n      swap1\n      0x0100\n      exp\n      swap1\n      div\n      0xffffffffffffffffffffffffffffffffffffffff\n      and\n        /* \"Campaign.sol\":3771:3799  contributor != highestBidder */\n      0xffffffffffffffffffffffffffffffffffffffff\n      and\n        /* \"Campaign.sol\":3771:3782  contributor */\n      dup2\n        /* \"Campaign.sol\":3771:3799  contributor != highestBidder */\n      0xffffffffffffffffffffffffffffffffffffffff\n      and\n      eq\n        /* \"Campaign.sol\":3767:4136  if (contributor != highestBidder) {... */\n      tag_184\n      jumpi\n        /* \"Campaign.sol\":3820:3840  uint256 refundAmount */\n      0x00\n        /* \"Campaign.sol\":3843:3857  approversMoney */\n      0x06\n        /* \"Campaign.sol\":3843:3870  approversMoney[contributor] */\n      0x00\n        /* \"Campaign.sol\":3858:3869  contributor */\n      dup4\n        /* \"Campaign.sol\":3843:3870  approversMoney[contributor] */\n      0xffffffffffffffffffffffffffffffffffffffff\n      and\n      0xffffffffffffffffffffffffffffffffffffffff\n      and\n      dup2\n      mstore\n      0x20\n      add\n      swap1\n      dup2\n      mstore\n      0x20\n      add\n      0x00\n      keccak256\n      sload\n        /* \"Campaign.sol\":3820:3870  uint256 refundAmount = approversMoney[contributor] */\n      swap1\n      pop\n        /* \"Campaign.sol\":3908:3909  0 */\n      0x00\n        /* \"Campaign.sol\":3893:3905  refundAmount */\n      dup2\n        /* \"Campaign.sol\":3893:3909  refundAmount > 0 */\n      gt\n        /* \"Campaign.sol\":3889:4121  if (refundAmount > 0) {... */\n      iszero\n      tag_185\n      jumpi\n        /* \"Campaign.sol\":3964:3965  0 */\n      0x00\n        /* \"Campaign.sol\":3934:3948  approversMoney */\n      0x06\n        /* \"Campaign.sol\":3934:3961  approversMoney[contributor] */\n      0x00\n        /* \"Campaign.sol\":3949:3960  contributor */\n      dup5\n        /* \"Campaign.sol\":3934:3961  approversMoney[contributor] */\n      0xffffffffffffffffffffffffffffffffffffffff\n      and\n      0xffffffffffffffffffffffffffffffffffffffff\n      and\n      dup2\n      mstore\n      0x20\n      add\n      swap1\n      dup2\n      mstore\n      0x20\n      add\n      0x00\n      keccak256\n        /* \"Campaign.sol\":3934:3965  approversMoney[contributor] = 0 */\n      dup2\n      swap1\n      sstore\n      pop\n        /* \"Campaign.sol\":3996:4007  contributor */\n      dup2\n        /* \"Campaign.sol\":3988:4017  payable(contributor).transfer */\n      0xffffffffffffffffffffffffffffffffffffffff\n      and\n        /* \"Campaign.sol\":3988:4031  payable(contributor).transfer(refundAmount) */\n      0x08fc\n        /* \"Campaign.sol\":4018:4030  refundAmount */\n      dup3\n        /* \"Campaign.sol\":3988:4031  payable(contributor).transfer(refundAmount) */\n      swap1\n      dup2\n      iszero\n      mul\n      swap1\n      mload(0x40)\n      0x00\n      mload(0x40)\n      dup1\n      dup4\n      sub\n      dup2\n      dup6\n      dup9\n      dup9\n      call\n      swap4\n      pop\n      pop\n      pop\n      pop\n      iszero\n      dup1\n      iszero\n      tag_187\n      jumpi\n      returndatacopy(0x00, 0x00, returndatasize)\n      revert(0x00, returndatasize)\n    tag_187:\n      pop\n        /* \"Campaign.sol\":4075:4086  contributor */\n      dup2\n        /* \"Campaign.sol\":4059:4101  RefundProcessed(contributor, refundAmount) */\n      0xffffffffffffffffffffffffffffffffffffffff\n      and\n      0x3367befd2b2f39615cd79917c2153263c4af1d3945ec003e5d5bfc13a8d85833\n        /* \"Campaign.sol\":4088:4100  refundAmount */\n      dup3\n        /* \"Campaign.sol\":4059:4101  RefundProcessed(contributor, refundAmount) */\n      mload(0x40)\n      tag_188\n      swap2\n      swap1\n      tag_38\n      jump\t// in\n    tag_188:\n      mload(0x40)\n      dup1\n      swap2\n      sub\n      swap1\n      log2\n        /* \"Campaign.sol\":3889:4121  if (refundAmount > 0) {... */\n    tag_185:\n        /* \"Campaign.sol\":3801:4136  {... */\n      pop\n        /* \"Campaign.sol\":3767:4136  if (contributor != highestBidder) {... */\n    tag_184:\n        /* \"Campaign.sol\":3703:4147  {... */\n      pop\n        /* \"Campaign.sol\":3698:3701  i++ */\n      dup1\n      dup1\n      0x01\n      add\n      swap2\n      pop\n      pop\n        /* \"Campaign.sol\":3656:4147  for (uint256 i = 0; i < addresses.length; i++) {... */\n      jump(tag_177)\n    tag_178:\n      pop\n        /* \"Campaign.sol\":4176:4177  0 */\n      0x00\n        /* \"Campaign.sol\":4163:4173  highestBid */\n      sload(0x0b)\n        /* \"Campaign.sol\":4163:4177  highestBid > 0 */\n      gt\n        /* \"Campaign.sol\":4159:4440  if (highestBid > 0) {... */\n      iszero\n      tag_189\n      jumpi\n        /* \"Campaign.sol\":4227:4237  highestBid */\n      sload(0x0b)\n        /* \"Campaign.sol\":4202:4223  address(this).balance */\n      selfbalance\n        /* \"Campaign.sol\":4202:4237  address(this).balance >= highestBid */\n      lt\n      iszero\n        /* \"Campaign.sol\":4194:4262  require(address(this).balance >= highestBid, \"Insufficient balance\") */\n      tag_190\n      jumpi\n      mload(0x40)\n      0x08c379a000000000000000000000000000000000000000000000000000000000\n      dup2\n      mstore\n      0x04\n      add\n      tag_191\n      swap1\n      tag_192\n      jump\t// in\n    tag_191:\n      mload(0x40)\n      dup1\n      swap2\n      sub\n      swap1\n      revert\n    tag_190:\n        /* \"Campaign.sol\":4285:4292  manager */\n      0x01\n      0x00\n      swap1\n      sload\n      swap1\n      0x0100\n      exp\n      swap1\n      div\n      0xffffffffffffffffffffffffffffffffffffffff\n      and\n        /* \"Campaign.sol\":4277:4302  payable(manager).transfer */\n      0xffffffffffffffffffffffffffffffffffffffff\n      and\n        /* \"Campaign.sol\":4277:4314  payable(manager).transfer(highestBid) */\n      0x08fc\n        /* \"Campaign.sol\":4303:4313  highestBid */\n      sload(0x0b)\n        /* \"Campaign.sol\":4277:4314  payable(manager).transfer(highestBid) */\n      swap1\n      dup2\n      iszero\n      mul\n      swap1\n      mload(0x40)\n      0x00\n      mload(0x40)\n      dup1\n      dup4\n      sub\n      dup2\n      dup6\n      dup9\n      dup9\n      call\n      swap4\n      pop\n      pop\n      pop\n      pop\n      iszero\n      dup1\n      iszero\n      tag_194\n      jumpi\n      returndatacopy(0x00, 0x00, returndatasize)\n      revert(0x00, returndatasize)\n    tag_194:\n      pop\n        /* \"Campaign.sol\":4330:4337  factory */\n      0x00\n      0x00\n      swap1\n      sload\n      swap1\n      0x0100\n      exp\n      swap1\n      div\n      0xffffffffffffffffffffffffffffffffffffffff\n      and\n        /* \"Campaign.sol\":4330:4350  factory.changeBudget */\n      0xffffffffffffffffffffffffffffffffffffffff\n      and\n      0x8dfac90c\n        /* \"Campaign.sol\":4351:4358  manager */\n      0x01\n      0x00\n      swap1\n      sload\n      swap1\n      0x0100\n      exp\n      swap1\n      div\n      0xffffffffffffffffffffffffffffffffffffffff\n      and\n        /* \"Campaign.sol\":4360:4370  highestBid */\n      sload(0x0b)\n        /* \"Campaign.sol\":4372:4376  true */\n      0x01\n        /* \"Campaign.sol\":4330:4377  factory.changeBudget(manager, highestBid, true) */\n      mload(0x40)\n      dup5\n      0xffffffff\n      and\n      0xe0\n      shl\n      dup2\n      mstore\n      0x04\n      add\n      tag_195\n      swap4\n      swap3\n      swap2\n      swap1\n      tag_196\n      jump\t// in\n    tag_195:\n      0x00\n      mload(0x40)\n      dup1\n      dup4\n      sub\n      dup2\n      0x00\n      dup8\n      dup1\n      extcodesize\n      iszero\n      dup1\n      iszero\n      tag_197\n      jumpi\n      revert(0x00, 0x00)\n    tag_197:\n      pop\n      gas\n      call\n      iszero\n      dup1\n      iszero\n      tag_199\n      jumpi\n      returndatacopy(0x00, 0x00, returndatasize)\n      revert(0x00, returndatasize)\n    tag_199:\n      pop\n      pop\n      pop\n      pop\n        /* \"Campaign.sol\":4408:4415  manager */\n      0x01\n      0x00\n      swap1\n      sload\n      swap1\n      0x0100\n      exp\n      swap1\n      div\n      0xffffffffffffffffffffffffffffffffffffffff\n      and\n        /* \"Campaign.sol\":4397:4428  SellerPaid(manager, highestBid) */\n      0xffffffffffffffffffffffffffffffffffffffff\n      and\n      0xcb4a9094da4df77fb2c0dbaa5047660b1237e61d82a02176c1be74ca757f2531\n        /* \"Campaign.sol\":4417:4427  highestBid */\n      sload(0x0b)\n        /* \"Campaign.sol\":4397:4428  SellerPaid(manager, highestBid) */\n      mload(0x40)\n      tag_200\n      swap2\n      swap1\n      tag_38\n      jump\t// in\n    tag_200:\n      mload(0x40)\n      dup1\n      swap2\n      sub\n      swap1\n      log2\n        /* \"Campaign.sol\":4159:4440  if (highestBid > 0) {... */\n    tag_189:\n        /* \"Campaign.sol\":4461:4465  true */\n      0x01\n        /* \"Campaign.sol\":4452:4458  closed */\n      0x0d\n      0x00\n        /* \"Campaign.sol\":4452:4465  closed = true */\n      0x0100\n      exp\n      dup2\n      sload\n      dup2\n      0xff\n      mul\n      not\n      and\n      swap1\n      dup4\n      iszero\n      iszero\n      mul\n      or\n      swap1\n      sstore\n      pop\n        /* \"Campaign.sol\":3532:4473  function finalizeAuctionIfNeeded() public onlyAfterEnd {... */\n      jump\t// out\n        /* \"Campaign.sol\":1182:1207  Bid[] public transactions */\n    tag_99:\n      0x09\n      dup2\n      dup2\n      sload\n      dup2\n      lt\n      tag_201\n      jumpi\n      0x00\n      dup1\n      revert\n    tag_201:\n      swap1\n      0x00\n      mstore\n      keccak256(0x00, 0x20)\n      swap1\n      0x03\n      mul\n      add\n      0x00\n      swap2\n      pop\n      swap1\n      pop\n      dup1\n      0x00\n      add\n      sload\n      swap1\n      dup1\n      0x01\n      add\n      sload\n      swap1\n      dup1\n      0x02\n      add\n      0x00\n      swap1\n      sload\n      swap1\n      0x0100\n      exp\n      swap1\n      div\n      0xffffffffffffffffffffffffffffffffffffffff\n      and\n      swap1\n      pop\n      dup4\n      jump\t// out\n        /* \"Campaign.sol\":5028:5126  function getAddresses() public view returns (address[] memory) {... */\n    tag_104:\n        /* \"Campaign.sol\":5073:5089  address[] memory */\n      0x60\n        /* \"Campaign.sol\":5109:5118  addresses */\n      0x08\n        /* \"Campaign.sol\":5102:5118  return addresses */\n      dup1\n      sload\n      dup1\n      0x20\n      mul\n      0x20\n      add\n      mload(0x40)\n      swap1\n      dup2\n      add\n      0x40\n      mstore\n      dup1\n      swap3\n      swap2\n      swap1\n      dup2\n      dup2\n      mstore\n      0x20\n      add\n      dup3\n      dup1\n      sload\n      dup1\n      iszero\n      tag_204\n      jumpi\n      0x20\n      mul\n      dup3\n      add\n      swap2\n      swap1\n      0x00\n      mstore\n      keccak256(0x00, 0x20)\n      swap1\n    tag_205:\n      dup2\n      0x00\n      swap1\n      sload\n      swap1\n      0x0100\n      exp\n      swap1\n      div\n      0xffffffffffffffffffffffffffffffffffffffff\n      and\n      0xffffffffffffffffffffffffffffffffffffffff\n      and\n      dup2\n      mstore\n      0x20\n      add\n      swap1\n      0x01\n      add\n      swap1\n      dup1\n      dup4\n      gt\n      tag_205\n      jumpi\n    tag_204:\n      pop\n      pop\n      pop\n      pop\n      pop\n      swap1\n      pop\n        /* \"Campaign.sol\":5028:5126  function getAddresses() public view returns (address[] memory) {... */\n      swap1\n      jump\t// out\n        /* \"Campaign.sol\":586:616  CampaignFactory public factory */\n    tag_109:\n      0x00\n      0x00\n      swap1\n      sload\n      swap1\n      0x0100\n      exp\n      swap1\n      div\n      0xffffffffffffffffffffffffffffffffffffffff\n      and\n      dup2\n      jump\t// out\n        /* \"Campaign.sol\":4569:4679  function getBid(address bidder) public view returns (uint256) {... */\n    tag_115:\n        /* \"Campaign.sol\":4622:4629  uint256 */\n      0x00\n        /* \"Campaign.sol\":4649:4663  approversMoney */\n      0x06\n        /* \"Campaign.sol\":4649:4671  approversMoney[bidder] */\n      0x00\n        /* \"Campaign.sol\":4664:4670  bidder */\n      dup4\n        /* \"Campaign.sol\":4649:4671  approversMoney[bidder] */\n      0xffffffffffffffffffffffffffffffffffffffff\n      and\n      0xffffffffffffffffffffffffffffffffffffffff\n      and\n      dup2\n      mstore\n      0x20\n      add\n      swap1\n      dup2\n      mstore\n      0x20\n      add\n      0x00\n      keccak256\n      sload\n        /* \"Campaign.sol\":4642:4671  return approversMoney[bidder] */\n      swap1\n      pop\n        /* \"Campaign.sol\":4569:4679  function getBid(address bidder) public view returns (uint256) {... */\n      swap2\n      swap1\n      pop\n      jump\t// out\n        /* \"Campaign.sol\":1251:1276  uint256 public highestBid */\n    tag_119:\n      sload(0x0b)\n      dup2\n      jump\t// out\n        /* \"Campaign.sol\":2030:3524  function contribute() public payable onlyBeforeEnd {... */\n    tag_122:\n        /* \"Campaign.sol\":1401:1408  endTime */\n      sload(0x0c)\n        /* \"Campaign.sol\":1383:1398  block.timestamp */\n      timestamp\n        /* \"Campaign.sol\":1383:1408  block.timestamp < endTime */\n      lt\n        /* \"Campaign.sol\":1375:1426  require(block.timestamp < endTime, \"Auction ended\") */\n      tag_208\n      jumpi\n      mload(0x40)\n      0x08c379a000000000000000000000000000000000000000000000000000000000\n      dup2\n      mstore\n      0x04\n      add\n      tag_209\n      swap1\n      tag_210\n      jump\t// in\n    tag_209:\n      mload(0x40)\n      dup1\n      swap2\n      sub\n      swap1\n      revert\n    tag_208:\n        /* \"Campaign.sol\":2110:2117  manager */\n      0x01\n      0x00\n      swap1\n      sload\n      swap1\n      0x0100\n      exp\n      swap1\n      div\n      0xffffffffffffffffffffffffffffffffffffffff\n      and\n        /* \"Campaign.sol\":2096:2117  msg.sender != manager */\n      0xffffffffffffffffffffffffffffffffffffffff\n      and\n        /* \"Campaign.sol\":2096:2106  msg.sender */\n      caller\n        /* \"Campaign.sol\":2096:2117  msg.sender != manager */\n      0xffffffffffffffffffffffffffffffffffffffff\n      and\n      sub\n        /* \"Campaign.sol\":2088:2155  require(msg.sender != manager, \"You can't bid on your own auction\") */\n      tag_212\n      jumpi\n      mload(0x40)\n      0x08c379a000000000000000000000000000000000000000000000000000000000\n      dup2\n      mstore\n      0x04\n      add\n      tag_213\n      swap1\n      tag_214\n      jump\t// in\n    tag_213:\n      mload(0x40)\n      dup1\n      swap2\n      sub\n      swap1\n      revert\n    tag_212:\n        /* \"Campaign.sol\":2182:2183  0 */\n      0x00\n        /* \"Campaign.sol\":2170:2179  msg.value */\n      callvalue\n        /* \"Campaign.sol\":2170:2183  msg.value > 0 */\n      gt\n        /* \"Campaign.sol\":2162:2208  require(msg.value > 0, \"Must send some ether\") */\n      tag_215\n      jumpi\n      mload(0x40)\n      0x08c379a000000000000000000000000000000000000000000000000000000000\n      dup2\n      mstore\n      0x04\n      add\n      tag_216\n      swap1\n      tag_217\n      jump\t// in\n    tag_216:\n      mload(0x40)\n      dup1\n      swap2\n      sub\n      swap1\n      revert\n    tag_215:\n        /* \"Campaign.sol\":2217:2233  uint256 previous */\n      0x00\n        /* \"Campaign.sol\":2236:2250  approversMoney */\n      0x06\n        /* \"Campaign.sol\":2236:2262  approversMoney[msg.sender] */\n      0x00\n        /* \"Campaign.sol\":2251:2261  msg.sender */\n      caller\n        /* \"Campaign.sol\":2236:2262  approversMoney[msg.sender] */\n      0xffffffffffffffffffffffffffffffffffffffff\n      and\n      0xffffffffffffffffffffffffffffffffffffffff\n      and\n      dup2\n      mstore\n      0x20\n      add\n      swap1\n      dup2\n      mstore\n      0x20\n      add\n      0x00\n      keccak256\n      sload\n        /* \"Campaign.sol\":2217:2262  uint256 previous = approversMoney[msg.sender] */\n      swap1\n      pop\n        /* \"Campaign.sol\":2269:2285  uint256 newTotal */\n      0x00\n        /* \"Campaign.sol\":2299:2308  msg.value */\n      callvalue\n        /* \"Campaign.sol\":2288:2296  previous */\n      dup3\n        /* \"Campaign.sol\":2288:2308  previous + msg.value */\n      tag_218\n      swap2\n      swap1\n      tag_219\n      jump\t// in\n    tag_218:\n        /* \"Campaign.sol\":2269:2308  uint256 newTotal = previous + msg.value */\n      swap1\n      pop\n        /* \"Campaign.sol\":2409:2410  0 */\n      0x00\n        /* \"Campaign.sol\":2384:2411  highestBidder == address(0) */\n      0xffffffffffffffffffffffffffffffffffffffff\n      and\n        /* \"Campaign.sol\":2384:2397  highestBidder */\n      0x0a\n      0x00\n      swap1\n      sload\n      swap1\n      0x0100\n      exp\n      swap1\n      div\n      0xffffffffffffffffffffffffffffffffffffffff\n      and\n        /* \"Campaign.sol\":2384:2411  highestBidder == address(0) */\n      0xffffffffffffffffffffffffffffffffffffffff\n      and\n      sub\n        /* \"Campaign.sol\":2380:3196  if (highestBidder == address(0)) {... */\n      tag_220\n      jumpi\n        /* \"Campaign.sol\":2444:2463  minimumContribution */\n      sload(0x02)\n        /* \"Campaign.sol\":2432:2440  newTotal */\n      dup2\n        /* \"Campaign.sol\":2432:2463  newTotal >= minimumContribution */\n      lt\n      iszero\n        /* \"Campaign.sol\":2424:2485  require(newTotal >= minimumContribution, \"Below minimum bid\") */\n      tag_221\n      jumpi\n      mload(0x40)\n      0x08c379a000000000000000000000000000000000000000000000000000000000\n      dup2\n      mstore\n      0x04\n      add\n      tag_222\n      swap1\n      tag_223\n      jump\t// in\n    tag_222:\n      mload(0x40)\n      dup1\n      swap2\n      sub\n      swap1\n      revert\n    tag_221:\n        /* \"Campaign.sol\":2496:2503  factory */\n      0x00\n      0x00\n      swap1\n      sload\n      swap1\n      0x0100\n      exp\n      swap1\n      div\n      0xffffffffffffffffffffffffffffffffffffffff\n      and\n        /* \"Campaign.sol\":2496:2516  factory.changeBudget */\n      0xffffffffffffffffffffffffffffffffffffffff\n      and\n      0x8dfac90c\n        /* \"Campaign.sol\":2517:2527  msg.sender */\n      caller\n        /* \"Campaign.sol\":2529:2538  msg.value */\n      callvalue\n        /* \"Campaign.sol\":2540:2545  false */\n      0x00\n        /* \"Campaign.sol\":2496:2546  factory.changeBudget(msg.sender, msg.value, false) */\n      mload(0x40)\n      dup5\n      0xffffffff\n      and\n      0xe0\n      shl\n      dup2\n      mstore\n      0x04\n      add\n      tag_224\n      swap4\n      swap3\n      swap2\n      swap1\n      tag_196\n      jump\t// in\n    tag_224:\n      0x00\n      mload(0x40)\n      dup1\n      dup4\n      sub\n      dup2\n      0x00\n      dup8\n      dup1\n      extcodesize\n      iszero\n      dup1\n      iszero\n      tag_225\n      jumpi\n      revert(0x00, 0x00)\n    tag_225:\n      pop\n      gas\n      call\n      iszero\n      dup1\n      iszero\n      tag_227\n      jumpi\n      returndatacopy(0x00, 0x00, returndatasize)\n      revert(0x00, returndatasize)\n    tag_227:\n      pop\n      pop\n      pop\n      pop\n        /* \"Campaign.sol\":2380:3196  if (highestBidder == address(0)) {... */\n      jump(tag_228)\n    tag_220:\n        /* \"Campaign.sol\":2629:2639  highestBid */\n      sload(0x0b)\n        /* \"Campaign.sol\":2618:2626  newTotal */\n      dup2\n        /* \"Campaign.sol\":2618:2639  newTotal > highestBid */\n      gt\n        /* \"Campaign.sol\":2610:2675  require(newTotal > highestBid, \"Bid must exceed current highest\") */\n      tag_229\n      jumpi\n      mload(0x40)\n      0x08c379a000000000000000000000000000000000000000000000000000000000\n      dup2\n      mstore\n      0x04\n      add\n      tag_230\n      swap1\n      tag_231\n      jump\t// in\n    tag_230:\n      mload(0x40)\n      dup1\n      swap2\n      sub\n      swap1\n      revert\n    tag_229:\n        /* \"Campaign.sol\":2791:2804  highestBidder */\n      0x0a\n      0x00\n      swap1\n      sload\n      swap1\n      0x0100\n      exp\n      swap1\n      div\n      0xffffffffffffffffffffffffffffffffffffffff\n      and\n        /* \"Campaign.sol\":2777:2804  msg.sender != highestBidder */\n      0xffffffffffffffffffffffffffffffffffffffff\n      and\n        /* \"Campaign.sol\":2777:2787  msg.sender */\n      caller\n        /* \"Campaign.sol\":2777:2804  msg.sender != highestBidder */\n      0xffffffffffffffffffffffffffffffffffffffff\n      and\n      eq\n        /* \"Campaign.sol\":2773:3189  if (msg.sender != highestBidder) {... */\n      tag_232\n      jumpi\n        /* \"Campaign.sol\":2821:2828  factory */\n      0x00\n      0x00\n      swap1\n      sload\n      swap1\n      0x0100\n      exp\n      swap1\n      div\n      0xffffffffffffffffffffffffffffffffffffffff\n      and\n        /* \"Campaign.sol\":2821:2841  factory.changeBudget */\n      0xffffffffffffffffffffffffffffffffffffffff\n      and\n      0x8dfac90c\n        /* \"Campaign.sol\":2842:2855  highestBidder */\n      0x0a\n      0x00\n      swap1\n      sload\n      swap1\n      0x0100\n      exp\n      swap1\n      div\n      0xffffffffffffffffffffffffffffffffffffffff\n      and\n        /* \"Campaign.sol\":2857:2867  highestBid */\n      sload(0x0b)\n        /* \"Campaign.sol\":2869:2873  true */\n      0x01\n        /* \"Campaign.sol\":2821:2874  factory.changeBudget(highestBidder, highestBid, true) */\n      mload(0x40)\n      dup5\n      0xffffffff\n      and\n      0xe0\n      shl\n      dup2\n      mstore\n      0x04\n      add\n      tag_233\n      swap4\n      swap3\n      swap2\n      swap1\n      tag_196\n      jump\t// in\n    tag_233:\n      0x00\n      mload(0x40)\n      dup1\n      dup4\n      sub\n      dup2\n      0x00\n      dup8\n      dup1\n      extcodesize\n      iszero\n      dup1\n      iszero\n      tag_234\n      jumpi\n      revert(0x00, 0x00)\n    tag_234:\n      pop\n      gas\n      call\n      iszero\n      dup1\n      iszero\n      tag_236\n      jumpi\n      returndatacopy(0x00, 0x00, returndatasize)\n      revert(0x00, returndatasize)\n    tag_236:\n      pop\n      pop\n      pop\n      pop\n        /* \"Campaign.sol\":2925:2932  factory */\n      0x00\n      0x00\n      swap1\n      sload\n      swap1\n      0x0100\n      exp\n      swap1\n      div\n      0xffffffffffffffffffffffffffffffffffffffff\n      and\n        /* \"Campaign.sol\":2925:2945  factory.changeBudget */\n      0xffffffffffffffffffffffffffffffffffffffff\n      and\n      0x8dfac90c\n        /* \"Campaign.sol\":2946:2956  msg.sender */\n      caller\n        /* \"Campaign.sol\":2958:2966  newTotal */\n      dup4\n        /* \"Campaign.sol\":2968:2973  false */\n      0x00\n        /* \"Campaign.sol\":2925:2974  factory.changeBudget(msg.sender, newTotal, false) */\n      mload(0x40)\n      dup5\n      0xffffffff\n      and\n      0xe0\n      shl\n      dup2\n      mstore\n      0x04\n      add\n      tag_237\n      swap4\n      swap3\n      swap2\n      swap1\n      tag_196\n      jump\t// in\n    tag_237:\n      0x00\n      mload(0x40)\n      dup1\n      dup4\n      sub\n      dup2\n      0x00\n      dup8\n      dup1\n      extcodesize\n      iszero\n      dup1\n      iszero\n      tag_238\n      jumpi\n      revert(0x00, 0x00)\n    tag_238:\n      pop\n      gas\n      call\n      iszero\n      dup1\n      iszero\n      tag_240\n      jumpi\n      returndatacopy(0x00, 0x00, returndatasize)\n      revert(0x00, returndatasize)\n    tag_240:\n      pop\n      pop\n      pop\n      pop\n        /* \"Campaign.sol\":2773:3189  if (msg.sender != highestBidder) {... */\n      jump(tag_241)\n    tag_232:\n        /* \"Campaign.sol\":3127:3134  factory */\n      0x00\n      0x00\n      swap1\n      sload\n      swap1\n      0x0100\n      exp\n      swap1\n      div\n      0xffffffffffffffffffffffffffffffffffffffff\n      and\n        /* \"Campaign.sol\":3127:3147  factory.changeBudget */\n      0xffffffffffffffffffffffffffffffffffffffff\n      and\n      0x8dfac90c\n        /* \"Campaign.sol\":3148:3158  msg.sender */\n      caller\n        /* \"Campaign.sol\":3160:3169  msg.value */\n      callvalue\n        /* \"Campaign.sol\":3171:3176  false */\n      0x00\n        /* \"Campaign.sol\":3127:3177  factory.changeBudget(msg.sender, msg.value, false) */\n      mload(0x40)\n      dup5\n      0xffffffff\n      and\n      0xe0\n      shl\n      dup2\n      mstore\n      0x04\n      add\n      tag_242\n      swap4\n      swap3\n      swap2\n      swap1\n      tag_196\n      jump\t// in\n    tag_242:\n      0x00\n      mload(0x40)\n      dup1\n      dup4\n      sub\n      dup2\n      0x00\n      dup8\n      dup1\n      extcodesize\n      iszero\n      dup1\n      iszero\n      tag_243\n      jumpi\n      revert(0x00, 0x00)\n    tag_243:\n      pop\n      gas\n      call\n      iszero\n      dup1\n      iszero\n      tag_245\n      jumpi\n      returndatacopy(0x00, 0x00, returndatasize)\n      revert(0x00, returndatasize)\n    tag_245:\n      pop\n      pop\n      pop\n      pop\n        /* \"Campaign.sol\":2773:3189  if (msg.sender != highestBidder) {... */\n    tag_241:\n        /* \"Campaign.sol\":2380:3196  if (highestBidder == address(0)) {... */\n    tag_228:\n        /* \"Campaign.sol\":3233:3241  newTotal */\n      dup1\n        /* \"Campaign.sol\":3204:3218  approversMoney */\n      0x06\n        /* \"Campaign.sol\":3204:3230  approversMoney[msg.sender] */\n      0x00\n        /* \"Campaign.sol\":3219:3229  msg.sender */\n      caller\n        /* \"Campaign.sol\":3204:3230  approversMoney[msg.sender] */\n      0xffffffffffffffffffffffffffffffffffffffff\n      and\n      0xffffffffffffffffffffffffffffffffffffffff\n      and\n      dup2\n      mstore\n      0x20\n      add\n      swap1\n      dup2\n      mstore\n      0x20\n      add\n      0x00\n      keccak256\n        /* \"Campaign.sol\":3204:3241  approversMoney[msg.sender] = newTotal */\n      dup2\n      swap1\n      sstore\n      pop\n        /* \"Campaign.sol\":3261:3269  newTotal */\n      dup1\n        /* \"Campaign.sol\":3248:3258  highestBid */\n      0x0b\n        /* \"Campaign.sol\":3248:3269  highestBid = newTotal */\n      dup2\n      swap1\n      sstore\n      pop\n        /* \"Campaign.sol\":3292:3302  msg.sender */\n      caller\n        /* \"Campaign.sol\":3276:3289  highestBidder */\n      0x0a\n      0x00\n        /* \"Campaign.sol\":3276:3302  highestBidder = msg.sender */\n      0x0100\n      exp\n      dup2\n      sload\n      dup2\n      0xffffffffffffffffffffffffffffffffffffffff\n      mul\n      not\n      and\n      swap1\n      dup4\n      0xffffffffffffffffffffffffffffffffffffffff\n      and\n      mul\n      or\n      swap1\n      sstore\n      pop\n        /* \"Campaign.sol\":3311:3323  transactions */\n      0x09\n        /* \"Campaign.sol\":3329:3372  Bid(msg.value, block.timestamp, msg.sender) */\n      mload(0x40)\n      dup1\n      0x60\n      add\n      0x40\n      mstore\n      dup1\n        /* \"Campaign.sol\":3333:3342  msg.value */\n      callvalue\n        /* \"Campaign.sol\":3329:3372  Bid(msg.value, block.timestamp, msg.sender) */\n      dup2\n      mstore\n      0x20\n      add\n        /* \"Campaign.sol\":3344:3359  block.timestamp */\n      timestamp\n        /* \"Campaign.sol\":3329:3372  Bid(msg.value, block.timestamp, msg.sender) */\n      dup2\n      mstore\n      0x20\n      add\n        /* \"Campaign.sol\":3361:3371  msg.sender */\n      caller\n        /* \"Campaign.sol\":3329:3372  Bid(msg.value, block.timestamp, msg.sender) */\n      0xffffffffffffffffffffffffffffffffffffffff\n      and\n      dup2\n      mstore\n      pop\n        /* \"Campaign.sol\":3311:3373  transactions.push(Bid(msg.value, block.timestamp, msg.sender)) */\n      swap1\n      dup1\n      0x01\n      dup2\n      sload\n      add\n      dup1\n      dup3\n      sstore\n      dup1\n      swap2\n      pop\n      pop\n      0x01\n      swap1\n      sub\n      swap1\n      0x00\n      mstore\n      keccak256(0x00, 0x20)\n      swap1\n      0x03\n      mul\n      add\n      0x00\n      swap1\n      swap2\n      swap1\n      swap2\n      swap1\n      swap2\n      pop\n      0x00\n      dup3\n      add\n      mload\n      dup2\n      0x00\n      add\n      sstore\n      0x20\n      dup3\n      add\n      mload\n      dup2\n      0x01\n      add\n      sstore\n      0x40\n      dup3\n      add\n      mload\n      dup2\n      0x02\n      add\n      exp(0x0100, 0x00)\n      dup2\n      sload\n      dup2\n      0xffffffffffffffffffffffffffffffffffffffff\n      mul\n      not\n      and\n      swap1\n      dup4\n      0xffffffffffffffffffffffffffffffffffffffff\n      and\n      mul\n      or\n      swap1\n      sstore\n      pop\n      pop\n      pop\n        /* \"Campaign.sol\":3387:3396  approvers */\n      0x05\n        /* \"Campaign.sol\":3387:3408  approvers[msg.sender] */\n      0x00\n        /* \"Campaign.sol\":3397:3407  msg.sender */\n      caller\n        /* \"Campaign.sol\":3387:3408  approvers[msg.sender] */\n      0xffffffffffffffffffffffffffffffffffffffff\n      and\n      0xffffffffffffffffffffffffffffffffffffffff\n      and\n      dup2\n      mstore\n      0x20\n      add\n      swap1\n      dup2\n      mstore\n      0x20\n      add\n      0x00\n      keccak256\n      0x00\n      swap1\n      sload\n      swap1\n      0x0100\n      exp\n      swap1\n      div\n      0xff\n      and\n        /* \"Campaign.sol\":3382:3521  if (!approvers[msg.sender]) {... */\n      tag_247\n      jumpi\n        /* \"Campaign.sol\":3445:3449  true */\n      0x01\n        /* \"Campaign.sol\":3421:3430  approvers */\n      0x05\n        /* \"Campaign.sol\":3421:3442  approvers[msg.sender] */\n      0x00\n        /* \"Campaign.sol\":3431:3441  msg.sender */\n      caller\n        /* \"Campaign.sol\":3421:3442  approvers[msg.sender] */\n      0xffffffffffffffffffffffffffffffffffffffff\n      and\n      0xffffffffffffffffffffffffffffffffffffffff\n      and\n      dup2\n      mstore\n      0x20\n      add\n      swap1\n      dup2\n      mstore\n      0x20\n      add\n      0x00\n      keccak256\n      0x00\n        /* \"Campaign.sol\":3421:3449  approvers[msg.sender] = true */\n      0x0100\n      exp\n      dup2\n      sload\n      dup2\n      0xff\n      mul\n      not\n      and\n      swap1\n      dup4\n      iszero\n      iszero\n      mul\n      or\n      swap1\n      sstore\n      pop\n        /* \"Campaign.sol\":3460:3474  approversCount */\n      0x07\n      0x00\n        /* \"Campaign.sol\":3460:3476  approversCount++ */\n      dup2\n      sload\n      dup1\n      swap3\n      swap2\n      swap1\n      tag_248\n      swap1\n      tag_249\n      jump\t// in\n    tag_248:\n      swap2\n      swap1\n      pop\n      sstore\n      pop\n        /* \"Campaign.sol\":3487:3496  addresses */\n      0x08\n        /* \"Campaign.sol\":3502:3512  msg.sender */\n      caller\n        /* \"Campaign.sol\":3487:3513  addresses.push(msg.sender) */\n      swap1\n      dup1\n      0x01\n      dup2\n      sload\n      add\n      dup1\n      dup3\n      sstore\n      dup1\n      swap2\n      pop\n      pop\n      0x01\n      swap1\n      sub\n      swap1\n      0x00\n      mstore\n      keccak256(0x00, 0x20)\n      add\n      0x00\n      swap1\n      swap2\n      swap1\n      swap2\n      swap1\n      swap2\n      0x0100\n      exp\n      dup2\n      sload\n      dup2\n      0xffffffffffffffffffffffffffffffffffffffff\n      mul\n      not\n      and\n      swap1\n      dup4\n      0xffffffffffffffffffffffffffffffffffffffff\n      and\n      mul\n      or\n      swap1\n      sstore\n      pop\n        /* \"Campaign.sol\":3382:3521  if (!approvers[msg.sender]) {... */\n    tag_247:\n        /* \"Campaign.sol\":2081:3524  {... */\n      pop\n      pop\n        /* \"Campaign.sol\":2030:3524  function contribute() public payable onlyBeforeEnd {... */\n      jump\t// out\n        /* \"Campaign.sol\":1149:1175  address[] public addresses */\n    tag_126:\n      0x08\n      dup2\n      dup2\n      sload\n      dup2\n      lt\n      tag_251\n      jumpi\n      0x00\n      dup1\n      revert\n    tag_251:\n      swap1\n      0x00\n      mstore\n      keccak256(0x00, 0x20)\n      add\n      0x00\n      swap2\n      pop\n      sload\n      swap1\n      0x0100\n      exp\n      swap1\n      div\n      0xffffffffffffffffffffffffffffffffffffffff\n      and\n      dup2\n      jump\t// out\n        /* \"#utility.yul\":88:205   */\n    tag_254:\n        /* \"#utility.yul\":197:198   */\n      0x00\n        /* \"#utility.yul\":194:195   */\n      0x00\n        /* \"#utility.yul\":187:199   */\n      revert\n        /* \"#utility.yul\":334:460   */\n    tag_256:\n        /* \"#utility.yul\":371:378   */\n      0x00\n        /* \"#utility.yul\":411:453   */\n      0xffffffffffffffffffffffffffffffffffffffff\n        /* \"#utility.yul\":404:409   */\n      dup3\n        /* \"#utility.yul\":400:454   */\n      and\n        /* \"#utility.yul\":389:454   */\n      swap1\n      pop\n        /* \"#utility.yul\":334:460   */\n      swap2\n      swap1\n      pop\n      jump\t// out\n        /* \"#utility.yul\":466:562   */\n    tag_257:\n        /* \"#utility.yul\":503:510   */\n      0x00\n        /* \"#utility.yul\":532:556   */\n      tag_320\n        /* \"#utility.yul\":550:555   */\n      dup3\n        /* \"#utility.yul\":532:556   */\n      tag_256\n      jump\t// in\n    tag_320:\n        /* \"#utility.yul\":521:556   */\n      swap1\n      pop\n        /* \"#utility.yul\":466:562   */\n      swap2\n      swap1\n      pop\n      jump\t// out\n        /* \"#utility.yul\":568:690   */\n    tag_258:\n        /* \"#utility.yul\":641:665   */\n      tag_322\n        /* \"#utility.yul\":659:664   */\n      dup2\n        /* \"#utility.yul\":641:665   */\n      tag_257\n      jump\t// in\n    tag_322:\n        /* \"#utility.yul\":634:639   */\n      dup2\n        /* \"#utility.yul\":631:666   */\n      eq\n        /* \"#utility.yul\":621:684   */\n      tag_323\n      jumpi\n        /* \"#utility.yul\":680:681   */\n      0x00\n        /* \"#utility.yul\":677:678   */\n      0x00\n        /* \"#utility.yul\":670:682   */\n      revert\n        /* \"#utility.yul\":621:684   */\n    tag_323:\n        /* \"#utility.yul\":568:690   */\n      pop\n      jump\t// out\n        /* \"#utility.yul\":696:835   */\n    tag_259:\n        /* \"#utility.yul\":742:747   */\n      0x00\n        /* \"#utility.yul\":780:786   */\n      dup2\n        /* \"#utility.yul\":767:787   */\n      calldataload\n        /* \"#utility.yul\":758:787   */\n      swap1\n      pop\n        /* \"#utility.yul\":796:829   */\n      tag_325\n        /* \"#utility.yul\":823:828   */\n      dup2\n        /* \"#utility.yul\":796:829   */\n      tag_258\n      jump\t// in\n    tag_325:\n        /* \"#utility.yul\":696:835   */\n      swap3\n      swap2\n      pop\n      pop\n      jump\t// out\n        /* \"#utility.yul\":841:1170   */\n    tag_30:\n        /* \"#utility.yul\":900:906   */\n      0x00\n        /* \"#utility.yul\":949:951   */\n      0x20\n        /* \"#utility.yul\":937:946   */\n      dup3\n        /* \"#utility.yul\":928:935   */\n      dup5\n        /* \"#utility.yul\":924:947   */\n      sub\n        /* \"#utility.yul\":920:952   */\n      slt\n        /* \"#utility.yul\":917:1036   */\n      iszero\n      tag_327\n      jumpi\n        /* \"#utility.yul\":955:1034   */\n      tag_328\n      tag_254\n      jump\t// in\n    tag_328:\n        /* \"#utility.yul\":917:1036   */\n    tag_327:\n        /* \"#utility.yul\":1075:1076   */\n      0x00\n        /* \"#utility.yul\":1100:1153   */\n      tag_329\n        /* \"#utility.yul\":1145:1152   */\n      dup5\n        /* \"#utility.yul\":1136:1142   */\n      dup3\n        /* \"#utility.yul\":1125:1134   */\n      dup6\n        /* \"#utility.yul\":1121:1143   */\n      add\n        /* \"#utility.yul\":1100:1153   */\n      tag_259\n      jump\t// in\n    tag_329:\n        /* \"#utility.yul\":1090:1153   */\n      swap2\n      pop\n        /* \"#utility.yul\":1046:1163   */\n      pop\n        /* \"#utility.yul\":841:1170   */\n      swap3\n      swap2\n      pop\n      pop\n      jump\t// out\n        /* \"#utility.yul\":1176:1266   */\n    tag_260:\n        /* \"#utility.yul\":1210:1217   */\n      0x00\n        /* \"#utility.yul\":1253:1258   */\n      dup2\n        /* \"#utility.yul\":1246:1259   */\n      iszero\n        /* \"#utility.yul\":1239:1260   */\n      iszero\n        /* \"#utility.yul\":1228:1260   */\n      swap1\n      pop\n        /* \"#utility.yul\":1176:1266   */\n      swap2\n      swap1\n      pop\n      jump\t// out\n        /* \"#utility.yul\":1272:1381   */\n    tag_261:\n        /* \"#utility.yul\":1353:1374   */\n      tag_332\n        /* \"#utility.yul\":1368:1373   */\n      dup2\n        /* \"#utility.yul\":1353:1374   */\n      tag_260\n      jump\t// in\n    tag_332:\n        /* \"#utility.yul\":1348:1351   */\n      dup3\n        /* \"#utility.yul\":1341:1375   */\n      mstore\n        /* \"#utility.yul\":1272:1381   */\n      pop\n      pop\n      jump\t// out\n        /* \"#utility.yul\":1387:1597   */\n    tag_33:\n        /* \"#utility.yul\":1474:1478   */\n      0x00\n        /* \"#utility.yul\":1512:1514   */\n      0x20\n        /* \"#utility.yul\":1501:1510   */\n      dup3\n        /* \"#utility.yul\":1497:1515   */\n      add\n        /* \"#utility.yul\":1489:1515   */\n      swap1\n      pop\n        /* \"#utility.yul\":1525:1590   */\n      tag_334\n        /* \"#utility.yul\":1587:1588   */\n      0x00\n        /* \"#utility.yul\":1576:1585   */\n      dup4\n        /* \"#utility.yul\":1572:1589   */\n      add\n        /* \"#utility.yul\":1563:1569   */\n      dup5\n        /* \"#utility.yul\":1525:1590   */\n      tag_261\n      jump\t// in\n    tag_334:\n        /* \"#utility.yul\":1387:1597   */\n      swap3\n      swap2\n      pop\n      pop\n      jump\t// out\n        /* \"#utility.yul\":1603:1680   */\n    tag_262:\n        /* \"#utility.yul\":1640:1647   */\n      0x00\n        /* \"#utility.yul\":1669:1674   */\n      dup2\n        /* \"#utility.yul\":1658:1674   */\n      swap1\n      pop\n        /* \"#utility.yul\":1603:1680   */\n      swap2\n      swap1\n      pop\n      jump\t// out\n        /* \"#utility.yul\":1686:1804   */\n    tag_263:\n        /* \"#utility.yul\":1773:1797   */\n      tag_337\n        /* \"#utility.yul\":1791:1796   */\n      dup2\n        /* \"#utility.yul\":1773:1797   */\n      tag_262\n      jump\t// in\n    tag_337:\n        /* \"#utility.yul\":1768:1771   */\n      dup3\n        /* \"#utility.yul\":1761:1798   */\n      mstore\n        /* \"#utility.yul\":1686:1804   */\n      pop\n      pop\n      jump\t// out\n        /* \"#utility.yul\":1810:2032   */\n    tag_38:\n        /* \"#utility.yul\":1903:1907   */\n      0x00\n        /* \"#utility.yul\":1941:1943   */\n      0x20\n        /* \"#utility.yul\":1930:1939   */\n      dup3\n        /* \"#utility.yul\":1926:1944   */\n      add\n        /* \"#utility.yul\":1918:1944   */\n      swap1\n      pop\n        /* \"#utility.yul\":1954:2025   */\n      tag_339\n        /* \"#utility.yul\":2022:2023   */\n      0x00\n        /* \"#utility.yul\":2011:2020   */\n      dup4\n        /* \"#utility.yul\":2007:2024   */\n      add\n        /* \"#utility.yul\":1998:2004   */\n      dup5\n        /* \"#utility.yul\":1954:2025   */\n      tag_263\n      jump\t// in\n    tag_339:\n        /* \"#utility.yul\":1810:2032   */\n      swap3\n      swap2\n      pop\n      pop\n      jump\t// out\n        /* \"#utility.yul\":2038:2137   */\n    tag_264:\n        /* \"#utility.yul\":2090:2096   */\n      0x00\n        /* \"#utility.yul\":2124:2129   */\n      dup2\n        /* \"#utility.yul\":2118:2130   */\n      mload\n        /* \"#utility.yul\":2108:2130   */\n      swap1\n      pop\n        /* \"#utility.yul\":2038:2137   */\n      swap2\n      swap1\n      pop\n      jump\t// out\n        /* \"#utility.yul\":2143:2312   */\n    tag_265:\n        /* \"#utility.yul\":2227:2238   */\n      0x00\n        /* \"#utility.yul\":2261:2267   */\n      dup3\n        /* \"#utility.yul\":2256:2259   */\n      dup3\n        /* \"#utility.yul\":2249:2268   */\n      mstore\n        /* \"#utility.yul\":2301:2305   */\n      0x20\n        /* \"#utility.yul\":2296:2299   */\n      dup3\n        /* \"#utility.yul\":2292:2306   */\n      add\n        /* \"#utility.yul\":2277:2306   */\n      swap1\n      pop\n        /* \"#utility.yul\":2143:2312   */\n      swap3\n      swap2\n      pop\n      pop\n      jump\t// out\n        /* \"#utility.yul\":2318:2457   */\n    tag_266:\n        /* \"#utility.yul\":2407:2413   */\n      dup3\n        /* \"#utility.yul\":2402:2405   */\n      dup2\n        /* \"#utility.yul\":2397:2400   */\n      dup4\n        /* \"#utility.yul\":2391:2414   */\n      mcopy\n        /* \"#utility.yul\":2448:2449   */\n      0x00\n        /* \"#utility.yul\":2439:2445   */\n      dup4\n        /* \"#utility.yul\":2434:2437   */\n      dup4\n        /* \"#utility.yul\":2430:2446   */\n      add\n        /* \"#utility.yul\":2423:2450   */\n      mstore\n        /* \"#utility.yul\":2318:2457   */\n      pop\n      pop\n      pop\n      jump\t// out\n        /* \"#utility.yul\":2463:2565   */\n    tag_267:\n        /* \"#utility.yul\":2504:2510   */\n      0x00\n        /* \"#utility.yul\":2555:2557   */\n      0x1f\n        /* \"#utility.yul\":2551:2558   */\n      not\n        /* \"#utility.yul\":2546:2548   */\n      0x1f\n        /* \"#utility.yul\":2539:2544   */\n      dup4\n        /* \"#utility.yul\":2535:2549   */\n      add\n        /* \"#utility.yul\":2531:2559   */\n      and\n        /* \"#utility.yul\":2521:2559   */\n      swap1\n      pop\n        /* \"#utility.yul\":2463:2565   */\n      swap2\n      swap1\n      pop\n      jump\t// out\n        /* \"#utility.yul\":2571:2948   */\n    tag_268:\n        /* \"#utility.yul\":2659:2662   */\n      0x00\n        /* \"#utility.yul\":2687:2726   */\n      tag_345\n        /* \"#utility.yul\":2720:2725   */\n      dup3\n        /* \"#utility.yul\":2687:2726   */\n      tag_264\n      jump\t// in\n    tag_345:\n        /* \"#utility.yul\":2742:2813   */\n      tag_346\n        /* \"#utility.yul\":2806:2812   */\n      dup2\n        /* \"#utility.yul\":2801:2804   */\n      dup6\n        /* \"#utility.yul\":2742:2813   */\n      tag_265\n      jump\t// in\n    tag_346:\n        /* \"#utility.yul\":2735:2813   */\n      swap4\n      pop\n        /* \"#utility.yul\":2822:2887   */\n      tag_347\n        /* \"#utility.yul\":2880:2886   */\n      dup2\n        /* \"#utility.yul\":2875:2878   */\n      dup6\n        /* \"#utility.yul\":2868:2872   */\n      0x20\n        /* \"#utility.yul\":2861:2866   */\n      dup7\n        /* \"#utility.yul\":2857:2873   */\n      add\n        /* \"#utility.yul\":2822:2887   */\n      tag_266\n      jump\t// in\n    tag_347:\n        /* \"#utility.yul\":2912:2941   */\n      tag_348\n        /* \"#utility.yul\":2934:2940   */\n      dup2\n        /* \"#utility.yul\":2912:2941   */\n      tag_267\n      jump\t// in\n    tag_348:\n        /* \"#utility.yul\":2907:2910   */\n      dup5\n        /* \"#utility.yul\":2903:2942   */\n      add\n        /* \"#utility.yul\":2896:2942   */\n      swap2\n      pop\n        /* \"#utility.yul\":2663:2948   */\n      pop\n        /* \"#utility.yul\":2571:2948   */\n      swap3\n      swap2\n      pop\n      pop\n      jump\t// out\n        /* \"#utility.yul\":2954:3267   */\n    tag_43:\n        /* \"#utility.yul\":3067:3071   */\n      0x00\n        /* \"#utility.yul\":3105:3107   */\n      0x20\n        /* \"#utility.yul\":3094:3103   */\n      dup3\n        /* \"#utility.yul\":3090:3108   */\n      add\n        /* \"#utility.yul\":3082:3108   */\n      swap1\n      pop\n        /* \"#utility.yul\":3154:3163   */\n      dup2\n        /* \"#utility.yul\":3148:3152   */\n      dup2\n        /* \"#utility.yul\":3144:3164   */\n      sub\n        /* \"#utility.yul\":3140:3141   */\n      0x00\n        /* \"#utility.yul\":3129:3138   */\n      dup4\n        /* \"#utility.yul\":3125:3142   */\n      add\n        /* \"#utility.yul\":3118:3165   */\n      mstore\n        /* \"#utility.yul\":3182:3260   */\n      tag_350\n        /* \"#utility.yul\":3255:3259   */\n      dup2\n        /* \"#utility.yul\":3246:3252   */\n      dup5\n        /* \"#utility.yul\":3182:3260   */\n      tag_268\n      jump\t// in\n    tag_350:\n        /* \"#utility.yul\":3174:3260   */\n      swap1\n      pop\n        /* \"#utility.yul\":2954:3267   */\n      swap3\n      swap2\n      pop\n      pop\n      jump\t// out\n        /* \"#utility.yul\":3273:3391   */\n    tag_269:\n        /* \"#utility.yul\":3360:3384   */\n      tag_352\n        /* \"#utility.yul\":3378:3383   */\n      dup2\n        /* \"#utility.yul\":3360:3384   */\n      tag_257\n      jump\t// in\n    tag_352:\n        /* \"#utility.yul\":3355:3358   */\n      dup3\n        /* \"#utility.yul\":3348:3385   */\n      mstore\n        /* \"#utility.yul\":3273:3391   */\n      pop\n      pop\n      jump\t// out\n        /* \"#utility.yul\":3397:3511   */\n    tag_270:\n        /* \"#utility.yul\":3464:3470   */\n      0x00\n        /* \"#utility.yul\":3498:3503   */\n      dup2\n        /* \"#utility.yul\":3492:3504   */\n      mload\n        /* \"#utility.yul\":3482:3504   */\n      swap1\n      pop\n        /* \"#utility.yul\":3397:3511   */\n      swap2\n      swap1\n      pop\n      jump\t// out\n        /* \"#utility.yul\":3517:3701   */\n    tag_271:\n        /* \"#utility.yul\":3616:3627   */\n      0x00\n        /* \"#utility.yul\":3650:3656   */\n      dup3\n        /* \"#utility.yul\":3645:3648   */\n      dup3\n        /* \"#utility.yul\":3638:3657   */\n      mstore\n        /* \"#utility.yul\":3690:3694   */\n      0x20\n        /* \"#utility.yul\":3685:3688   */\n      dup3\n        /* \"#utility.yul\":3681:3695   */\n      add\n        /* \"#utility.yul\":3666:3695   */\n      swap1\n      pop\n        /* \"#utility.yul\":3517:3701   */\n      swap3\n      swap2\n      pop\n      pop\n      jump\t// out\n        /* \"#utility.yul\":3707:3839   */\n    tag_272:\n        /* \"#utility.yul\":3774:3778   */\n      0x00\n        /* \"#utility.yul\":3797:3800   */\n      dup2\n        /* \"#utility.yul\":3789:3800   */\n      swap1\n      pop\n        /* \"#utility.yul\":3827:3831   */\n      0x20\n        /* \"#utility.yul\":3822:3825   */\n      dup3\n        /* \"#utility.yul\":3818:3832   */\n      add\n        /* \"#utility.yul\":3810:3832   */\n      swap1\n      pop\n        /* \"#utility.yul\":3707:3839   */\n      swap2\n      swap1\n      pop\n      jump\t// out\n        /* \"#utility.yul\":3845:3953   */\n    tag_273:\n        /* \"#utility.yul\":3922:3946   */\n      tag_357\n        /* \"#utility.yul\":3940:3945   */\n      dup2\n        /* \"#utility.yul\":3922:3946   */\n      tag_257\n      jump\t// in\n    tag_357:\n        /* \"#utility.yul\":3917:3920   */\n      dup3\n        /* \"#utility.yul\":3910:3947   */\n      mstore\n        /* \"#utility.yul\":3845:3953   */\n      pop\n      pop\n      jump\t// out\n        /* \"#utility.yul\":3959:4138   */\n    tag_274:\n        /* \"#utility.yul\":4028:4038   */\n      0x00\n        /* \"#utility.yul\":4049:4095   */\n      tag_359\n        /* \"#utility.yul\":4091:4094   */\n      dup4\n        /* \"#utility.yul\":4083:4089   */\n      dup4\n        /* \"#utility.yul\":4049:4095   */\n      tag_273\n      jump\t// in\n    tag_359:\n        /* \"#utility.yul\":4127:4131   */\n      0x20\n        /* \"#utility.yul\":4122:4125   */\n      dup4\n        /* \"#utility.yul\":4118:4132   */\n      add\n        /* \"#utility.yul\":4104:4132   */\n      swap1\n      pop\n        /* \"#utility.yul\":3959:4138   */\n      swap3\n      swap2\n      pop\n      pop\n      jump\t// out\n        /* \"#utility.yul\":4144:4257   */\n    tag_275:\n        /* \"#utility.yul\":4214:4218   */\n      0x00\n        /* \"#utility.yul\":4246:4250   */\n      0x20\n        /* \"#utility.yul\":4241:4244   */\n      dup3\n        /* \"#utility.yul\":4237:4251   */\n      add\n        /* \"#utility.yul\":4229:4251   */\n      swap1\n      pop\n        /* \"#utility.yul\":4144:4257   */\n      swap2\n      swap1\n      pop\n      jump\t// out\n        /* \"#utility.yul\":4293:5025   */\n    tag_276:\n        /* \"#utility.yul\":4412:4415   */\n      0x00\n        /* \"#utility.yul\":4441:4495   */\n      tag_362\n        /* \"#utility.yul\":4489:4494   */\n      dup3\n        /* \"#utility.yul\":4441:4495   */\n      tag_270\n      jump\t// in\n    tag_362:\n        /* \"#utility.yul\":4511:4597   */\n      tag_363\n        /* \"#utility.yul\":4590:4596   */\n      dup2\n        /* \"#utility.yul\":4585:4588   */\n      dup6\n        /* \"#utility.yul\":4511:4597   */\n      tag_271\n      jump\t// in\n    tag_363:\n        /* \"#utility.yul\":4504:4597   */\n      swap4\n      pop\n        /* \"#utility.yul\":4621:4677   */\n      tag_364\n        /* \"#utility.yul\":4671:4676   */\n      dup4\n        /* \"#utility.yul\":4621:4677   */\n      tag_272\n      jump\t// in\n    tag_364:\n        /* \"#utility.yul\":4700:4707   */\n      dup1\n        /* \"#utility.yul\":4731:4732   */\n      0x00\n        /* \"#utility.yul\":4716:5000   */\n    tag_365:\n        /* \"#utility.yul\":4741:4747   */\n      dup4\n        /* \"#utility.yul\":4738:4739   */\n      dup2\n        /* \"#utility.yul\":4735:4748   */\n      lt\n        /* \"#utility.yul\":4716:5000   */\n      iszero\n      tag_367\n      jumpi\n        /* \"#utility.yul\":4817:4823   */\n      dup2\n        /* \"#utility.yul\":4811:4824   */\n      mload\n        /* \"#utility.yul\":4844:4907   */\n      tag_368\n        /* \"#utility.yul\":4903:4906   */\n      dup9\n        /* \"#utility.yul\":4888:4901   */\n      dup3\n        /* \"#utility.yul\":4844:4907   */\n      tag_274\n      jump\t// in\n    tag_368:\n        /* \"#utility.yul\":4837:4907   */\n      swap8\n      pop\n        /* \"#utility.yul\":4930:4990   */\n      tag_369\n        /* \"#utility.yul\":4983:4989   */\n      dup4\n        /* \"#utility.yul\":4930:4990   */\n      tag_275\n      jump\t// in\n    tag_369:\n        /* \"#utility.yul\":4920:4990   */\n      swap3\n      pop\n        /* \"#utility.yul\":4776:5000   */\n      pop\n        /* \"#utility.yul\":4763:4764   */\n      0x01\n        /* \"#utility.yul\":4760:4761   */\n      dup2\n        /* \"#utility.yul\":4756:4765   */\n      add\n        /* \"#utility.yul\":4751:4765   */\n      swap1\n      pop\n        /* \"#utility.yul\":4716:5000   */\n      jump(tag_365)\n    tag_367:\n        /* \"#utility.yul\":4720:4734   */\n      pop\n        /* \"#utility.yul\":5016:5019   */\n      dup6\n        /* \"#utility.yul\":5009:5019   */\n      swap4\n      pop\n        /* \"#utility.yul\":4417:5025   */\n      pop\n      pop\n      pop\n        /* \"#utility.yul\":4293:5025   */\n      swap3\n      swap2\n      pop\n      pop\n      jump\t// out\n        /* \"#utility.yul\":5031:6583   */\n    tag_48:\n        /* \"#utility.yul\":5466:5470   */\n      0x00\n        /* \"#utility.yul\":5504:5507   */\n      0x0140\n        /* \"#utility.yul\":5493:5502   */\n      dup3\n        /* \"#utility.yul\":5489:5508   */\n      add\n        /* \"#utility.yul\":5481:5508   */\n      swap1\n      pop\n        /* \"#utility.yul\":5518:5589   */\n      tag_371\n        /* \"#utility.yul\":5586:5587   */\n      0x00\n        /* \"#utility.yul\":5575:5584   */\n      dup4\n        /* \"#utility.yul\":5571:5588   */\n      add\n        /* \"#utility.yul\":5562:5568   */\n      dup14\n        /* \"#utility.yul\":5518:5589   */\n      tag_263\n      jump\t// in\n    tag_371:\n        /* \"#utility.yul\":5599:5671   */\n      tag_372\n        /* \"#utility.yul\":5667:5669   */\n      0x20\n        /* \"#utility.yul\":5656:5665   */\n      dup4\n        /* \"#utility.yul\":5652:5670   */\n      add\n        /* \"#utility.yul\":5643:5649   */\n      dup13\n        /* \"#utility.yul\":5599:5671   */\n      tag_263\n      jump\t// in\n    tag_372:\n        /* \"#utility.yul\":5681:5753   */\n      tag_373\n        /* \"#utility.yul\":5749:5751   */\n      0x40\n        /* \"#utility.yul\":5738:5747   */\n      dup4\n        /* \"#utility.yul\":5734:5752   */\n      add\n        /* \"#utility.yul\":5725:5731   */\n      dup12\n        /* \"#utility.yul\":5681:5753   */\n      tag_263\n      jump\t// in\n    tag_373:\n        /* \"#utility.yul\":5763:5835   */\n      tag_374\n        /* \"#utility.yul\":5831:5833   */\n      0x60\n        /* \"#utility.yul\":5820:5829   */\n      dup4\n        /* \"#utility.yul\":5816:5834   */\n      add\n        /* \"#utility.yul\":5807:5813   */\n      dup11\n        /* \"#utility.yul\":5763:5835   */\n      tag_269\n      jump\t// in\n    tag_374:\n        /* \"#utility.yul\":5845:5918   */\n      tag_375\n        /* \"#utility.yul\":5913:5916   */\n      0x80\n        /* \"#utility.yul\":5902:5911   */\n      dup4\n        /* \"#utility.yul\":5898:5917   */\n      add\n        /* \"#utility.yul\":5889:5895   */\n      dup10\n        /* \"#utility.yul\":5845:5918   */\n      tag_263\n      jump\t// in\n    tag_375:\n        /* \"#utility.yul\":5966:5975   */\n      dup2\n        /* \"#utility.yul\":5960:5964   */\n      dup2\n        /* \"#utility.yul\":5956:5976   */\n      sub\n        /* \"#utility.yul\":5950:5953   */\n      0xa0\n        /* \"#utility.yul\":5939:5948   */\n      dup4\n        /* \"#utility.yul\":5935:5954   */\n      add\n        /* \"#utility.yul\":5928:5977   */\n      mstore\n        /* \"#utility.yul\":5994:6072   */\n      tag_376\n        /* \"#utility.yul\":6067:6071   */\n      dup2\n        /* \"#utility.yul\":6058:6064   */\n      dup9\n        /* \"#utility.yul\":5994:6072   */\n      tag_268\n      jump\t// in\n    tag_376:\n        /* \"#utility.yul\":5986:6072   */\n      swap1\n      pop\n        /* \"#utility.yul\":6120:6129   */\n      dup2\n        /* \"#utility.yul\":6114:6118   */\n      dup2\n        /* \"#utility.yul\":6110:6130   */\n      sub\n        /* \"#utility.yul\":6104:6107   */\n      0xc0\n        /* \"#utility.yul\":6093:6102   */\n      dup4\n        /* \"#utility.yul\":6089:6108   */\n      add\n        /* \"#utility.yul\":6082:6131   */\n      mstore\n        /* \"#utility.yul\":6148:6226   */\n      tag_377\n        /* \"#utility.yul\":6221:6225   */\n      dup2\n        /* \"#utility.yul\":6212:6218   */\n      dup8\n        /* \"#utility.yul\":6148:6226   */\n      tag_268\n      jump\t// in\n    tag_377:\n        /* \"#utility.yul\":6140:6226   */\n      swap1\n      pop\n        /* \"#utility.yul\":6236:6309   */\n      tag_378\n        /* \"#utility.yul\":6304:6307   */\n      0xe0\n        /* \"#utility.yul\":6293:6302   */\n      dup4\n        /* \"#utility.yul\":6289:6308   */\n      add\n        /* \"#utility.yul\":6280:6286   */\n      dup7\n        /* \"#utility.yul\":6236:6309   */\n      tag_269\n      jump\t// in\n    tag_378:\n        /* \"#utility.yul\":6357:6366   */\n      dup2\n        /* \"#utility.yul\":6351:6355   */\n      dup2\n        /* \"#utility.yul\":6347:6367   */\n      sub\n        /* \"#utility.yul\":6341:6344   */\n      0x0100\n        /* \"#utility.yul\":6330:6339   */\n      dup4\n        /* \"#utility.yul\":6326:6345   */\n      add\n        /* \"#utility.yul\":6319:6368   */\n      mstore\n        /* \"#utility.yul\":6385:6493   */\n      tag_379\n        /* \"#utility.yul\":6488:6492   */\n      dup2\n        /* \"#utility.yul\":6479:6485   */\n      dup6\n        /* \"#utility.yul\":6385:6493   */\n      tag_276\n      jump\t// in\n    tag_379:\n        /* \"#utility.yul\":6377:6493   */\n      swap1\n      pop\n        /* \"#utility.yul\":6503:6576   */\n      tag_380\n        /* \"#utility.yul\":6571:6574   */\n      0x0120\n        /* \"#utility.yul\":6560:6569   */\n      dup4\n        /* \"#utility.yul\":6556:6575   */\n      add\n        /* \"#utility.yul\":6547:6553   */\n      dup5\n        /* \"#utility.yul\":6503:6576   */\n      tag_263\n      jump\t// in\n    tag_380:\n        /* \"#utility.yul\":5031:6583   */\n      swap12\n      swap11\n      pop\n      pop\n      pop\n      pop\n      pop\n      pop\n      pop\n      pop\n      pop\n      pop\n      pop\n      jump\t// out\n        /* \"#utility.yul\":6589:6811   */\n    tag_53:\n        /* \"#utility.yul\":6682:6686   */\n      0x00\n        /* \"#utility.yul\":6720:6722   */\n      0x20\n        /* \"#utility.yul\":6709:6718   */\n      dup3\n        /* \"#utility.yul\":6705:6723   */\n      add\n        /* \"#utility.yul\":6697:6723   */\n      swap1\n      pop\n        /* \"#utility.yul\":6733:6804   */\n      tag_382\n        /* \"#utility.yul\":6801:6802   */\n      0x00\n        /* \"#utility.yul\":6790:6799   */\n      dup4\n        /* \"#utility.yul\":6786:6803   */\n      add\n        /* \"#utility.yul\":6777:6783   */\n      dup5\n        /* \"#utility.yul\":6733:6804   */\n      tag_269\n      jump\t// in\n    tag_382:\n        /* \"#utility.yul\":6589:6811   */\n      swap3\n      swap2\n      pop\n      pop\n      jump\t// out\n        /* \"#utility.yul\":6817:6950   */\n    tag_277:\n        /* \"#utility.yul\":6903:6909   */\n      0x00\n        /* \"#utility.yul\":6937:6942   */\n      dup2\n        /* \"#utility.yul\":6931:6943   */\n      mload\n        /* \"#utility.yul\":6921:6943   */\n      swap1\n      pop\n        /* \"#utility.yul\":6817:6950   */\n      swap2\n      swap1\n      pop\n      jump\t// out\n        /* \"#utility.yul\":6956:7159   */\n    tag_278:\n        /* \"#utility.yul\":7074:7085   */\n      0x00\n        /* \"#utility.yul\":7108:7114   */\n      dup3\n        /* \"#utility.yul\":7103:7106   */\n      dup3\n        /* \"#utility.yul\":7096:7115   */\n      mstore\n        /* \"#utility.yul\":7148:7152   */\n      0x20\n        /* \"#utility.yul\":7143:7146   */\n      dup3\n        /* \"#utility.yul\":7139:7153   */\n      add\n        /* \"#utility.yul\":7124:7153   */\n      swap1\n      pop\n        /* \"#utility.yul\":6956:7159   */\n      swap3\n      swap2\n      pop\n      pop\n      jump\t// out\n        /* \"#utility.yul\":7165:7316   */\n    tag_279:\n        /* \"#utility.yul\":7251:7255   */\n      0x00\n        /* \"#utility.yul\":7274:7277   */\n      dup2\n        /* \"#utility.yul\":7266:7277   */\n      swap1\n      pop\n        /* \"#utility.yul\":7304:7308   */\n      0x20\n        /* \"#utility.yul\":7299:7302   */\n      dup3\n        /* \"#utility.yul\":7295:7309   */\n      add\n        /* \"#utility.yul\":7287:7309   */\n      swap1\n      pop\n        /* \"#utility.yul\":7165:7316   */\n      swap2\n      swap1\n      pop\n      jump\t// out\n        /* \"#utility.yul\":7322:7430   */\n    tag_280:\n        /* \"#utility.yul\":7399:7423   */\n      tag_387\n        /* \"#utility.yul\":7417:7422   */\n      dup2\n        /* \"#utility.yul\":7399:7423   */\n      tag_262\n      jump\t// in\n    tag_387:\n        /* \"#utility.yul\":7394:7397   */\n      dup3\n        /* \"#utility.yul\":7387:7424   */\n      mstore\n        /* \"#utility.yul\":7322:7430   */\n      pop\n      pop\n      jump\t// out\n        /* \"#utility.yul\":7486:8155   */\n    tag_281:\n        /* \"#utility.yul\":7611:7615   */\n      0x60\n        /* \"#utility.yul\":7606:7609   */\n      dup3\n        /* \"#utility.yul\":7602:7616   */\n      add\n        /* \"#utility.yul\":7699:7703   */\n      0x00\n        /* \"#utility.yul\":7692:7697   */\n      dup3\n        /* \"#utility.yul\":7688:7704   */\n      add\n        /* \"#utility.yul\":7682:7705   */\n      mload\n        /* \"#utility.yul\":7718:7781   */\n      tag_389\n        /* \"#utility.yul\":7775:7779   */\n      0x00\n        /* \"#utility.yul\":7770:7773   */\n      dup6\n        /* \"#utility.yul\":7766:7780   */\n      add\n        /* \"#utility.yul\":7752:7764   */\n      dup3\n        /* \"#utility.yul\":7718:7781   */\n      tag_280\n      jump\t// in\n    tag_389:\n        /* \"#utility.yul\":7626:7791   */\n      pop\n        /* \"#utility.yul\":7873:7877   */\n      0x20\n        /* \"#utility.yul\":7866:7871   */\n      dup3\n        /* \"#utility.yul\":7862:7878   */\n      add\n        /* \"#utility.yul\":7856:7879   */\n      mload\n        /* \"#utility.yul\":7892:7955   */\n      tag_390\n        /* \"#utility.yul\":7949:7953   */\n      0x20\n        /* \"#utility.yul\":7944:7947   */\n      dup6\n        /* \"#utility.yul\":7940:7954   */\n      add\n        /* \"#utility.yul\":7926:7938   */\n      dup3\n        /* \"#utility.yul\":7892:7955   */\n      tag_280\n      jump\t// in\n    tag_390:\n        /* \"#utility.yul\":7801:7965   */\n      pop\n        /* \"#utility.yul\":8056:8060   */\n      0x40\n        /* \"#utility.yul\":8049:8054   */\n      dup3\n        /* \"#utility.yul\":8045:8061   */\n      add\n        /* \"#utility.yul\":8039:8062   */\n      mload\n        /* \"#utility.yul\":8075:8138   */\n      tag_391\n        /* \"#utility.yul\":8132:8136   */\n      0x40\n        /* \"#utility.yul\":8127:8130   */\n      dup6\n        /* \"#utility.yul\":8123:8137   */\n      add\n        /* \"#utility.yul\":8109:8121   */\n      dup3\n        /* \"#utility.yul\":8075:8138   */\n      tag_273\n      jump\t// in\n    tag_391:\n        /* \"#utility.yul\":7975:8148   */\n      pop\n        /* \"#utility.yul\":7580:8155   */\n      pop\n        /* \"#utility.yul\":7486:8155   */\n      pop\n      pop\n      jump\t// out\n        /* \"#utility.yul\":8161:8416   */\n    tag_282:\n        /* \"#utility.yul\":8268:8278   */\n      0x00\n        /* \"#utility.yul\":8289:8373   */\n      tag_393\n        /* \"#utility.yul\":8369:8372   */\n      dup4\n        /* \"#utility.yul\":8361:8367   */\n      dup4\n        /* \"#utility.yul\":8289:8373   */\n      tag_281\n      jump\t// in\n    tag_393:\n        /* \"#utility.yul\":8405:8409   */\n      0x60\n        /* \"#utility.yul\":8400:8403   */\n      dup4\n        /* \"#utility.yul\":8396:8410   */\n      add\n        /* \"#utility.yul\":8382:8410   */\n      swap1\n      pop\n        /* \"#utility.yul\":8161:8416   */\n      swap3\n      swap2\n      pop\n      pop\n      jump\t// out\n        /* \"#utility.yul\":8422:8554   */\n    tag_283:\n        /* \"#utility.yul\":8511:8515   */\n      0x00\n        /* \"#utility.yul\":8543:8547   */\n      0x20\n        /* \"#utility.yul\":8538:8541   */\n      dup3\n        /* \"#utility.yul\":8534:8548   */\n      add\n        /* \"#utility.yul\":8526:8548   */\n      swap1\n      pop\n        /* \"#utility.yul\":8422:8554   */\n      swap2\n      swap1\n      pop\n      jump\t// out\n        /* \"#utility.yul\":8614:9498   */\n    tag_284:\n        /* \"#utility.yul\":8771:8774   */\n      0x00\n        /* \"#utility.yul\":8800:8873   */\n      tag_396\n        /* \"#utility.yul\":8867:8872   */\n      dup3\n        /* \"#utility.yul\":8800:8873   */\n      tag_277\n      jump\t// in\n    tag_396:\n        /* \"#utility.yul\":8889:8994   */\n      tag_397\n        /* \"#utility.yul\":8987:8993   */\n      dup2\n        /* \"#utility.yul\":8982:8985   */\n      dup6\n        /* \"#utility.yul\":8889:8994   */\n      tag_278\n      jump\t// in\n    tag_397:\n        /* \"#utility.yul\":8882:8994   */\n      swap4\n      pop\n        /* \"#utility.yul\":9018:9093   */\n      tag_398\n        /* \"#utility.yul\":9087:9092   */\n      dup4\n        /* \"#utility.yul\":9018:9093   */\n      tag_279\n      jump\t// in\n    tag_398:\n        /* \"#utility.yul\":9116:9123   */\n      dup1\n        /* \"#utility.yul\":9147:9148   */\n      0x00\n        /* \"#utility.yul\":9132:9473   */\n    tag_399:\n        /* \"#utility.yul\":9157:9163   */\n      dup4\n        /* \"#utility.yul\":9154:9155   */\n      dup2\n        /* \"#utility.yul\":9151:9164   */\n      lt\n        /* \"#utility.yul\":9132:9473   */\n      iszero\n      tag_401\n      jumpi\n        /* \"#utility.yul\":9233:9239   */\n      dup2\n        /* \"#utility.yul\":9227:9240   */\n      mload\n        /* \"#utility.yul\":9260:9361   */\n      tag_402\n        /* \"#utility.yul\":9357:9360   */\n      dup9\n        /* \"#utility.yul\":9342:9355   */\n      dup3\n        /* \"#utility.yul\":9260:9361   */\n      tag_282\n      jump\t// in\n    tag_402:\n        /* \"#utility.yul\":9253:9361   */\n      swap8\n      pop\n        /* \"#utility.yul\":9384:9463   */\n      tag_403\n        /* \"#utility.yul\":9456:9462   */\n      dup4\n        /* \"#utility.yul\":9384:9463   */\n      tag_283\n      jump\t// in\n    tag_403:\n        /* \"#utility.yul\":9374:9463   */\n      swap3\n      pop\n        /* \"#utility.yul\":9192:9473   */\n      pop\n        /* \"#utility.yul\":9179:9180   */\n      0x01\n        /* \"#utility.yul\":9176:9177   */\n      dup2\n        /* \"#utility.yul\":9172:9181   */\n      add\n        /* \"#utility.yul\":9167:9181   */\n      swap1\n      pop\n        /* \"#utility.yul\":9132:9473   */\n      jump(tag_399)\n    tag_401:\n        /* \"#utility.yul\":9136:9150   */\n      pop\n        /* \"#utility.yul\":9489:9492   */\n      dup6\n        /* \"#utility.yul\":9482:9492   */\n      swap4\n      pop\n        /* \"#utility.yul\":8776:9498   */\n      pop\n      pop\n      pop\n        /* \"#utility.yul\":8614:9498   */\n      swap3\n      swap2\n      pop\n      pop\n      jump\t// out\n        /* \"#utility.yul\":9504:9953   */\n    tag_83:\n        /* \"#utility.yul\":9685:9689   */\n      0x00\n        /* \"#utility.yul\":9723:9725   */\n      0x20\n        /* \"#utility.yul\":9712:9721   */\n      dup3\n        /* \"#utility.yul\":9708:9726   */\n      add\n        /* \"#utility.yul\":9700:9726   */\n      swap1\n      pop\n        /* \"#utility.yul\":9772:9781   */\n      dup2\n        /* \"#utility.yul\":9766:9770   */\n      dup2\n        /* \"#utility.yul\":9762:9782   */\n      sub\n        /* \"#utility.yul\":9758:9759   */\n      0x00\n        /* \"#utility.yul\":9747:9756   */\n      dup4\n        /* \"#utility.yul\":9743:9760   */\n      add\n        /* \"#utility.yul\":9736:9783   */\n      mstore\n        /* \"#utility.yul\":9800:9946   */\n      tag_405\n        /* \"#utility.yul\":9941:9945   */\n      dup2\n        /* \"#utility.yul\":9932:9938   */\n      dup5\n        /* \"#utility.yul\":9800:9946   */\n      tag_284\n      jump\t// in\n    tag_405:\n        /* \"#utility.yul\":9792:9946   */\n      swap1\n      pop\n        /* \"#utility.yul\":9504:9953   */\n      swap3\n      swap2\n      pop\n      pop\n      jump\t// out\n        /* \"#utility.yul\":9959:10081   */\n    tag_285:\n        /* \"#utility.yul\":10032:10056   */\n      tag_407\n        /* \"#utility.yul\":10050:10055   */\n      dup2\n        /* \"#utility.yul\":10032:10056   */\n      tag_262\n      jump\t// in\n    tag_407:\n        /* \"#utility.yul\":10025:10030   */\n      dup2\n        /* \"#utility.yul\":10022:10057   */\n      eq\n        /* \"#utility.yul\":10012:10075   */\n      tag_408\n      jumpi\n        /* \"#utility.yul\":10071:10072   */\n      0x00\n        /* \"#utility.yul\":10068:10069   */\n      0x00\n        /* \"#utility.yul\":10061:10073   */\n      revert\n        /* \"#utility.yul\":10012:10075   */\n    tag_408:\n        /* \"#utility.yul\":9959:10081   */\n      pop\n      jump\t// out\n        /* \"#utility.yul\":10087:10226   */\n    tag_286:\n        /* \"#utility.yul\":10133:10138   */\n      0x00\n        /* \"#utility.yul\":10171:10177   */\n      dup2\n        /* \"#utility.yul\":10158:10178   */\n      calldataload\n        /* \"#utility.yul\":10149:10178   */\n      swap1\n      pop\n        /* \"#utility.yul\":10187:10220   */\n      tag_410\n        /* \"#utility.yul\":10214:10219   */\n      dup2\n        /* \"#utility.yul\":10187:10220   */\n      tag_285\n      jump\t// in\n    tag_410:\n        /* \"#utility.yul\":10087:10226   */\n      swap3\n      swap2\n      pop\n      pop\n      jump\t// out\n        /* \"#utility.yul\":10232:10561   */\n    tag_98:\n        /* \"#utility.yul\":10291:10297   */\n      0x00\n        /* \"#utility.yul\":10340:10342   */\n      0x20\n        /* \"#utility.yul\":10328:10337   */\n      dup3\n        /* \"#utility.yul\":10319:10326   */\n      dup5\n        /* \"#utility.yul\":10315:10338   */\n      sub\n        /* \"#utility.yul\":10311:10343   */\n      slt\n        /* \"#utility.yul\":10308:10427   */\n      iszero\n      tag_412\n      jumpi\n        /* \"#utility.yul\":10346:10425   */\n      tag_413\n      tag_254\n      jump\t// in\n    tag_413:\n        /* \"#utility.yul\":10308:10427   */\n    tag_412:\n        /* \"#utility.yul\":10466:10467   */\n      0x00\n        /* \"#utility.yul\":10491:10544   */\n      tag_414\n        /* \"#utility.yul\":10536:10543   */\n      dup5\n        /* \"#utility.yul\":10527:10533   */\n      dup3\n        /* \"#utility.yul\":10516:10525   */\n      dup6\n        /* \"#utility.yul\":10512:10534   */\n      add\n        /* \"#utility.yul\":10491:10544   */\n      tag_286\n      jump\t// in\n    tag_414:\n        /* \"#utility.yul\":10481:10544   */\n      swap2\n      pop\n        /* \"#utility.yul\":10437:10554   */\n      pop\n        /* \"#utility.yul\":10232:10561   */\n      swap3\n      swap2\n      pop\n      pop\n      jump\t// out\n        /* \"#utility.yul\":10567:11009   */\n    tag_101:\n        /* \"#utility.yul\":10716:10720   */\n      0x00\n        /* \"#utility.yul\":10754:10756   */\n      0x60\n        /* \"#utility.yul\":10743:10752   */\n      dup3\n        /* \"#utility.yul\":10739:10757   */\n      add\n        /* \"#utility.yul\":10731:10757   */\n      swap1\n      pop\n        /* \"#utility.yul\":10767:10838   */\n      tag_416\n        /* \"#utility.yul\":10835:10836   */\n      0x00\n        /* \"#utility.yul\":10824:10833   */\n      dup4\n        /* \"#utility.yul\":10820:10837   */\n      add\n        /* \"#utility.yul\":10811:10817   */\n      dup7\n        /* \"#utility.yul\":10767:10838   */\n      tag_263\n      jump\t// in\n    tag_416:\n        /* \"#utility.yul\":10848:10920   */\n      tag_417\n        /* \"#utility.yul\":10916:10918   */\n      0x20\n        /* \"#utility.yul\":10905:10914   */\n      dup4\n        /* \"#utility.yul\":10901:10919   */\n      add\n        /* \"#utility.yul\":10892:10898   */\n      dup6\n        /* \"#utility.yul\":10848:10920   */\n      tag_263\n      jump\t// in\n    tag_417:\n        /* \"#utility.yul\":10930:11002   */\n      tag_418\n        /* \"#utility.yul\":10998:11000   */\n      0x40\n        /* \"#utility.yul\":10987:10996   */\n      dup4\n        /* \"#utility.yul\":10983:11001   */\n      add\n        /* \"#utility.yul\":10974:10980   */\n      dup5\n        /* \"#utility.yul\":10930:11002   */\n      tag_269\n      jump\t// in\n    tag_418:\n        /* \"#utility.yul\":10567:11009   */\n      swap5\n      swap4\n      pop\n      pop\n      pop\n      pop\n      jump\t// out\n        /* \"#utility.yul\":11015:11388   */\n    tag_106:\n        /* \"#utility.yul\":11158:11162   */\n      0x00\n        /* \"#utility.yul\":11196:11198   */\n      0x20\n        /* \"#utility.yul\":11185:11194   */\n      dup3\n        /* \"#utility.yul\":11181:11199   */\n      add\n        /* \"#utility.yul\":11173:11199   */\n      swap1\n      pop\n        /* \"#utility.yul\":11245:11254   */\n      dup2\n        /* \"#utility.yul\":11239:11243   */\n      dup2\n        /* \"#utility.yul\":11235:11255   */\n      sub\n        /* \"#utility.yul\":11231:11232   */\n      0x00\n        /* \"#utility.yul\":11220:11229   */\n      dup4\n        /* \"#utility.yul\":11216:11233   */\n      add\n        /* \"#utility.yul\":11209:11256   */\n      mstore\n        /* \"#utility.yul\":11273:11381   */\n      tag_420\n        /* \"#utility.yul\":11376:11380   */\n      dup2\n        /* \"#utility.yul\":11367:11373   */\n      dup5\n        /* \"#utility.yul\":11273:11381   */\n      tag_276\n      jump\t// in\n    tag_420:\n        /* \"#utility.yul\":11265:11381   */\n      swap1\n      pop\n        /* \"#utility.yul\":11015:11388   */\n      swap3\n      swap2\n      pop\n      pop\n      jump\t// out\n        /* \"#utility.yul\":11394:11454   */\n    tag_287:\n        /* \"#utility.yul\":11422:11425   */\n      0x00\n        /* \"#utility.yul\":11443:11448   */\n      dup2\n        /* \"#utility.yul\":11436:11448   */\n      swap1\n      pop\n        /* \"#utility.yul\":11394:11454   */\n      swap2\n      swap1\n      pop\n      jump\t// out\n        /* \"#utility.yul\":11460:11602   */\n    tag_288:\n        /* \"#utility.yul\":11510:11519   */\n      0x00\n        /* \"#utility.yul\":11543:11596   */\n      tag_423\n        /* \"#utility.yul\":11561:11595   */\n      tag_424\n        /* \"#utility.yul\":11570:11594   */\n      tag_425\n        /* \"#utility.yul\":11588:11593   */\n      dup5\n        /* \"#utility.yul\":11570:11594   */\n      tag_256\n      jump\t// in\n    tag_425:\n        /* \"#utility.yul\":11561:11595   */\n      tag_287\n      jump\t// in\n    tag_424:\n        /* \"#utility.yul\":11543:11596   */\n      tag_256\n      jump\t// in\n    tag_423:\n        /* \"#utility.yul\":11530:11596   */\n      swap1\n      pop\n        /* \"#utility.yul\":11460:11602   */\n      swap2\n      swap1\n      pop\n      jump\t// out\n        /* \"#utility.yul\":11608:11734   */\n    tag_289:\n        /* \"#utility.yul\":11658:11667   */\n      0x00\n        /* \"#utility.yul\":11691:11728   */\n      tag_427\n        /* \"#utility.yul\":11722:11727   */\n      dup3\n        /* \"#utility.yul\":11691:11728   */\n      tag_288\n      jump\t// in\n    tag_427:\n        /* \"#utility.yul\":11678:11728   */\n      swap1\n      pop\n        /* \"#utility.yul\":11608:11734   */\n      swap2\n      swap1\n      pop\n      jump\t// out\n        /* \"#utility.yul\":11740:11889   */\n    tag_290:\n        /* \"#utility.yul\":11813:11822   */\n      0x00\n        /* \"#utility.yul\":11846:11883   */\n      tag_429\n        /* \"#utility.yul\":11877:11882   */\n      dup3\n        /* \"#utility.yul\":11846:11883   */\n      tag_289\n      jump\t// in\n    tag_429:\n        /* \"#utility.yul\":11833:11883   */\n      swap1\n      pop\n        /* \"#utility.yul\":11740:11889   */\n      swap2\n      swap1\n      pop\n      jump\t// out\n        /* \"#utility.yul\":11895:12072   */\n    tag_291:\n        /* \"#utility.yul\":12005:12065   */\n      tag_431\n        /* \"#utility.yul\":12059:12064   */\n      dup2\n        /* \"#utility.yul\":12005:12065   */\n      tag_290\n      jump\t// in\n    tag_431:\n        /* \"#utility.yul\":12000:12003   */\n      dup3\n        /* \"#utility.yul\":11993:12066   */\n      mstore\n        /* \"#utility.yul\":11895:12072   */\n      pop\n      pop\n      jump\t// out\n        /* \"#utility.yul\":12078:12346   */\n    tag_111:\n        /* \"#utility.yul\":12194:12198   */\n      0x00\n        /* \"#utility.yul\":12232:12234   */\n      0x20\n        /* \"#utility.yul\":12221:12230   */\n      dup3\n        /* \"#utility.yul\":12217:12235   */\n      add\n        /* \"#utility.yul\":12209:12235   */\n      swap1\n      pop\n        /* \"#utility.yul\":12245:12339   */\n      tag_433\n        /* \"#utility.yul\":12336:12337   */\n      0x00\n        /* \"#utility.yul\":12325:12334   */\n      dup4\n        /* \"#utility.yul\":12321:12338   */\n      add\n        /* \"#utility.yul\":12312:12318   */\n      dup5\n        /* \"#utility.yul\":12245:12339   */\n      tag_291\n      jump\t// in\n    tag_433:\n        /* \"#utility.yul\":12078:12346   */\n      swap3\n      swap2\n      pop\n      pop\n      jump\t// out\n        /* \"#utility.yul\":12352:12523   */\n    tag_292:\n        /* \"#utility.yul\":12492:12515   */\n      0x41756374696f6e206e6f742066696e616c697a65640000000000000000000000\n        /* \"#utility.yul\":12488:12489   */\n      0x00\n        /* \"#utility.yul\":12480:12486   */\n      dup3\n        /* \"#utility.yul\":12476:12490   */\n      add\n        /* \"#utility.yul\":12469:12516   */\n      mstore\n        /* \"#utility.yul\":12352:12523   */\n      pop\n      jump\t// out\n        /* \"#utility.yul\":12529:12895   */\n    tag_293:\n        /* \"#utility.yul\":12671:12674   */\n      0x00\n        /* \"#utility.yul\":12692:12759   */\n      tag_436\n        /* \"#utility.yul\":12756:12758   */\n      0x15\n        /* \"#utility.yul\":12751:12754   */\n      dup4\n        /* \"#utility.yul\":12692:12759   */\n      tag_265\n      jump\t// in\n    tag_436:\n        /* \"#utility.yul\":12685:12759   */\n      swap2\n      pop\n        /* \"#utility.yul\":12768:12861   */\n      tag_437\n        /* \"#utility.yul\":12857:12860   */\n      dup3\n        /* \"#utility.yul\":12768:12861   */\n      tag_292\n      jump\t// in\n    tag_437:\n        /* \"#utility.yul\":12886:12888   */\n      0x20\n        /* \"#utility.yul\":12881:12884   */\n      dup3\n        /* \"#utility.yul\":12877:12889   */\n      add\n        /* \"#utility.yul\":12870:12889   */\n      swap1\n      pop\n        /* \"#utility.yul\":12529:12895   */\n      swap2\n      swap1\n      pop\n      jump\t// out\n        /* \"#utility.yul\":12901:13320   */\n    tag_131:\n        /* \"#utility.yul\":13067:13071   */\n      0x00\n        /* \"#utility.yul\":13105:13107   */\n      0x20\n        /* \"#utility.yul\":13094:13103   */\n      dup3\n        /* \"#utility.yul\":13090:13108   */\n      add\n        /* \"#utility.yul\":13082:13108   */\n      swap1\n      pop\n        /* \"#utility.yul\":13154:13163   */\n      dup2\n        /* \"#utility.yul\":13148:13152   */\n      dup2\n        /* \"#utility.yul\":13144:13164   */\n      sub\n        /* \"#utility.yul\":13140:13141   */\n      0x00\n        /* \"#utility.yul\":13129:13138   */\n      dup4\n        /* \"#utility.yul\":13125:13142   */\n      add\n        /* \"#utility.yul\":13118:13165   */\n      mstore\n        /* \"#utility.yul\":13182:13313   */\n      tag_439\n        /* \"#utility.yul\":13308:13312   */\n      dup2\n        /* \"#utility.yul\":13182:13313   */\n      tag_293\n      jump\t// in\n    tag_439:\n        /* \"#utility.yul\":13174:13313   */\n      swap1\n      pop\n        /* \"#utility.yul\":12901:13320   */\n      swap2\n      swap1\n      pop\n      jump\t// out\n        /* \"#utility.yul\":13326:13507   */\n    tag_294:\n        /* \"#utility.yul\":13466:13499   */\n      0x4f6e6c792077696e6e65722063616e2061636365737320746865206461746100\n        /* \"#utility.yul\":13462:13463   */\n      0x00\n        /* \"#utility.yul\":13454:13460   */\n      dup3\n        /* \"#utility.yul\":13450:13464   */\n      add\n        /* \"#utility.yul\":13443:13500   */\n      mstore\n        /* \"#utility.yul\":13326:13507   */\n      pop\n      jump\t// out\n        /* \"#utility.yul\":13513:13879   */\n    tag_295:\n        /* \"#utility.yul\":13655:13658   */\n      0x00\n        /* \"#utility.yul\":13676:13743   */\n      tag_442\n        /* \"#utility.yul\":13740:13742   */\n      0x1f\n        /* \"#utility.yul\":13735:13738   */\n      dup4\n        /* \"#utility.yul\":13676:13743   */\n      tag_265\n      jump\t// in\n    tag_442:\n        /* \"#utility.yul\":13669:13743   */\n      swap2\n      pop\n        /* \"#utility.yul\":13752:13845   */\n      tag_443\n        /* \"#utility.yul\":13841:13844   */\n      dup3\n        /* \"#utility.yul\":13752:13845   */\n      tag_294\n      jump\t// in\n    tag_443:\n        /* \"#utility.yul\":13870:13872   */\n      0x20\n        /* \"#utility.yul\":13865:13868   */\n      dup3\n        /* \"#utility.yul\":13861:13873   */\n      add\n        /* \"#utility.yul\":13854:13873   */\n      swap1\n      pop\n        /* \"#utility.yul\":13513:13879   */\n      swap2\n      swap1\n      pop\n      jump\t// out\n        /* \"#utility.yul\":13885:14304   */\n    tag_134:\n        /* \"#utility.yul\":14051:14055   */\n      0x00\n        /* \"#utility.yul\":14089:14091   */\n      0x20\n        /* \"#utility.yul\":14078:14087   */\n      dup3\n        /* \"#utility.yul\":14074:14092   */\n      add\n        /* \"#utility.yul\":14066:14092   */\n      swap1\n      pop\n        /* \"#utility.yul\":14138:14147   */\n      dup2\n        /* \"#utility.yul\":14132:14136   */\n      dup2\n        /* \"#utility.yul\":14128:14148   */\n      sub\n        /* \"#utility.yul\":14124:14125   */\n      0x00\n        /* \"#utility.yul\":14113:14122   */\n      dup4\n        /* \"#utility.yul\":14109:14126   */\n      add\n        /* \"#utility.yul\":14102:14149   */\n      mstore\n        /* \"#utility.yul\":14166:14297   */\n      tag_445\n        /* \"#utility.yul\":14292:14296   */\n      dup2\n        /* \"#utility.yul\":14166:14297   */\n      tag_295\n      jump\t// in\n    tag_445:\n        /* \"#utility.yul\":14158:14297   */\n      swap1\n      pop\n        /* \"#utility.yul\":13885:14304   */\n      swap2\n      swap1\n      pop\n      jump\t// out\n        /* \"#utility.yul\":14310:14490   */\n    tag_296:\n        /* \"#utility.yul\":14358:14435   */\n      0x4e487b7100000000000000000000000000000000000000000000000000000000\n        /* \"#utility.yul\":14355:14356   */\n      0x00\n        /* \"#utility.yul\":14348:14436   */\n      mstore\n        /* \"#utility.yul\":14455:14459   */\n      0x22\n        /* \"#utility.yul\":14452:14453   */\n      0x04\n        /* \"#utility.yul\":14445:14460   */\n      mstore\n        /* \"#utility.yul\":14479:14483   */\n      0x24\n        /* \"#utility.yul\":14476:14477   */\n      0x00\n        /* \"#utility.yul\":14469:14484   */\n      revert\n        /* \"#utility.yul\":14496:14816   */\n    tag_136:\n        /* \"#utility.yul\":14540:14546   */\n      0x00\n        /* \"#utility.yul\":14577:14578   */\n      0x02\n        /* \"#utility.yul\":14571:14575   */\n      dup3\n        /* \"#utility.yul\":14567:14579   */\n      div\n        /* \"#utility.yul\":14557:14579   */\n      swap1\n      pop\n        /* \"#utility.yul\":14624:14625   */\n      0x01\n        /* \"#utility.yul\":14618:14622   */\n      dup3\n        /* \"#utility.yul\":14614:14626   */\n      and\n        /* \"#utility.yul\":14645:14663   */\n      dup1\n        /* \"#utility.yul\":14635:14716   */\n      tag_448\n      jumpi\n        /* \"#utility.yul\":14701:14705   */\n      0x7f\n        /* \"#utility.yul\":14693:14699   */\n      dup3\n        /* \"#utility.yul\":14689:14706   */\n      and\n        /* \"#utility.yul\":14679:14706   */\n      swap2\n      pop\n        /* \"#utility.yul\":14635:14716   */\n    tag_448:\n        /* \"#utility.yul\":14763:14765   */\n      0x20\n        /* \"#utility.yul\":14755:14761   */\n      dup3\n        /* \"#utility.yul\":14752:14766   */\n      lt\n        /* \"#utility.yul\":14732:14750   */\n      dup2\n        /* \"#utility.yul\":14729:14767   */\n      sub\n        /* \"#utility.yul\":14726:14810   */\n      tag_449\n      jumpi\n        /* \"#utility.yul\":14782:14800   */\n      tag_450\n      tag_296\n      jump\t// in\n    tag_450:\n        /* \"#utility.yul\":14726:14810   */\n    tag_449:\n        /* \"#utility.yul\":14547:14816   */\n      pop\n        /* \"#utility.yul\":14496:14816   */\n      swap2\n      swap1\n      pop\n      jump\t// out\n        /* \"#utility.yul\":14822:14993   */\n    tag_297:\n        /* \"#utility.yul\":14962:14985   */\n      0x41756374696f6e206e6f7420656e646564207965740000000000000000000000\n        /* \"#utility.yul\":14958:14959   */\n      0x00\n        /* \"#utility.yul\":14950:14956   */\n      dup3\n        /* \"#utility.yul\":14946:14960   */\n      add\n        /* \"#utility.yul\":14939:14986   */\n      mstore\n        /* \"#utility.yul\":14822:14993   */\n      pop\n      jump\t// out\n        /* \"#utility.yul\":14999:15365   */\n    tag_298:\n        /* \"#utility.yul\":15141:15144   */\n      0x00\n        /* \"#utility.yul\":15162:15229   */\n      tag_453\n        /* \"#utility.yul\":15226:15228   */\n      0x15\n        /* \"#utility.yul\":15221:15224   */\n      dup4\n        /* \"#utility.yul\":15162:15229   */\n      tag_265\n      jump\t// in\n    tag_453:\n        /* \"#utility.yul\":15155:15229   */\n      swap2\n      pop\n        /* \"#utility.yul\":15238:15331   */\n      tag_454\n        /* \"#utility.yul\":15327:15330   */\n      dup3\n        /* \"#utility.yul\":15238:15331   */\n      tag_297\n      jump\t// in\n    tag_454:\n        /* \"#utility.yul\":15356:15358   */\n      0x20\n        /* \"#utility.yul\":15351:15354   */\n      dup3\n        /* \"#utility.yul\":15347:15359   */\n      add\n        /* \"#utility.yul\":15340:15359   */\n      swap1\n      pop\n        /* \"#utility.yul\":14999:15365   */\n      swap2\n      swap1\n      pop\n      jump\t// out\n        /* \"#utility.yul\":15371:15790   */\n    tag_172:\n        /* \"#utility.yul\":15537:15541   */\n      0x00\n        /* \"#utility.yul\":15575:15577   */\n      0x20\n        /* \"#utility.yul\":15564:15573   */\n      dup3\n        /* \"#utility.yul\":15560:15578   */\n      add\n        /* \"#utility.yul\":15552:15578   */\n      swap1\n      pop\n        /* \"#utility.yul\":15624:15633   */\n      dup2\n        /* \"#utility.yul\":15618:15622   */\n      dup2\n        /* \"#utility.yul\":15614:15634   */\n      sub\n        /* \"#utility.yul\":15610:15611   */\n      0x00\n        /* \"#utility.yul\":15599:15608   */\n      dup4\n        /* \"#utility.yul\":15595:15612   */\n      add\n        /* \"#utility.yul\":15588:15635   */\n      mstore\n        /* \"#utility.yul\":15652:15783   */\n      tag_456\n        /* \"#utility.yul\":15778:15782   */\n      dup2\n        /* \"#utility.yul\":15652:15783   */\n      tag_298\n      jump\t// in\n    tag_456:\n        /* \"#utility.yul\":15644:15783   */\n      swap1\n      pop\n        /* \"#utility.yul\":15371:15790   */\n      swap2\n      swap1\n      pop\n      jump\t// out\n        /* \"#utility.yul\":15796:15971   */\n    tag_299:\n        /* \"#utility.yul\":15936:15963   */\n      0x41756374696f6e20616c72656164792066696e616c697a656400000000000000\n        /* \"#utility.yul\":15932:15933   */\n      0x00\n        /* \"#utility.yul\":15924:15930   */\n      dup3\n        /* \"#utility.yul\":15920:15934   */\n      add\n        /* \"#utility.yul\":15913:15964   */\n      mstore\n        /* \"#utility.yul\":15796:15971   */\n      pop\n      jump\t// out\n        /* \"#utility.yul\":15977:16343   */\n    tag_300:\n        /* \"#utility.yul\":16119:16122   */\n      0x00\n        /* \"#utility.yul\":16140:16207   */\n      tag_459\n        /* \"#utility.yul\":16204:16206   */\n      0x19\n        /* \"#utility.yul\":16199:16202   */\n      dup4\n        /* \"#utility.yul\":16140:16207   */\n      tag_265\n      jump\t// in\n    tag_459:\n        /* \"#utility.yul\":16133:16207   */\n      swap2\n      pop\n        /* \"#utility.yul\":16216:16309   */\n      tag_460\n        /* \"#utility.yul\":16305:16308   */\n      dup3\n        /* \"#utility.yul\":16216:16309   */\n      tag_299\n      jump\t// in\n    tag_460:\n        /* \"#utility.yul\":16334:16336   */\n      0x20\n        /* \"#utility.yul\":16329:16332   */\n      dup3\n        /* \"#utility.yul\":16325:16337   */\n      add\n        /* \"#utility.yul\":16318:16337   */\n      swap1\n      pop\n        /* \"#utility.yul\":15977:16343   */\n      swap2\n      swap1\n      pop\n      jump\t// out\n        /* \"#utility.yul\":16349:16768   */\n    tag_176:\n        /* \"#utility.yul\":16515:16519   */\n      0x00\n        /* \"#utility.yul\":16553:16555   */\n      0x20\n        /* \"#utility.yul\":16542:16551   */\n      dup3\n        /* \"#utility.yul\":16538:16556   */\n      add\n        /* \"#utility.yul\":16530:16556   */\n      swap1\n      pop\n        /* \"#utility.yul\":16602:16611   */\n      dup2\n        /* \"#utility.yul\":16596:16600   */\n      dup2\n        /* \"#utility.yul\":16592:16612   */\n      sub\n        /* \"#utility.yul\":16588:16589   */\n      0x00\n        /* \"#utility.yul\":16577:16586   */\n      dup4\n        /* \"#utility.yul\":16573:16590   */\n      add\n        /* \"#utility.yul\":16566:16613   */\n      mstore\n        /* \"#utility.yul\":16630:16761   */\n      tag_462\n        /* \"#utility.yul\":16756:16760   */\n      dup2\n        /* \"#utility.yul\":16630:16761   */\n      tag_300\n      jump\t// in\n    tag_462:\n        /* \"#utility.yul\":16622:16761   */\n      swap1\n      pop\n        /* \"#utility.yul\":16349:16768   */\n      swap2\n      swap1\n      pop\n      jump\t// out\n        /* \"#utility.yul\":16774:16954   */\n    tag_182:\n        /* \"#utility.yul\":16822:16899   */\n      0x4e487b7100000000000000000000000000000000000000000000000000000000\n        /* \"#utility.yul\":16819:16820   */\n      0x00\n        /* \"#utility.yul\":16812:16900   */\n      mstore\n        /* \"#utility.yul\":16919:16923   */\n      0x32\n        /* \"#utility.yul\":16916:16917   */\n      0x04\n        /* \"#utility.yul\":16909:16924   */\n      mstore\n        /* \"#utility.yul\":16943:16947   */\n      0x24\n        /* \"#utility.yul\":16940:16941   */\n      0x00\n        /* \"#utility.yul\":16933:16948   */\n      revert\n        /* \"#utility.yul\":16960:17130   */\n    tag_301:\n        /* \"#utility.yul\":17100:17122   */\n      0x496e73756666696369656e742062616c616e6365000000000000000000000000\n        /* \"#utility.yul\":17096:17097   */\n      0x00\n        /* \"#utility.yul\":17088:17094   */\n      dup3\n        /* \"#utility.yul\":17084:17098   */\n      add\n        /* \"#utility.yul\":17077:17123   */\n      mstore\n        /* \"#utility.yul\":16960:17130   */\n      pop\n      jump\t// out\n        /* \"#utility.yul\":17136:17502   */\n    tag_302:\n        /* \"#utility.yul\":17278:17281   */\n      0x00\n        /* \"#utility.yul\":17299:17366   */\n      tag_466\n        /* \"#utility.yul\":17363:17365   */\n      0x14\n        /* \"#utility.yul\":17358:17361   */\n      dup4\n        /* \"#utility.yul\":17299:17366   */\n      tag_265\n      jump\t// in\n    tag_466:\n        /* \"#utility.yul\":17292:17366   */\n      swap2\n      pop\n        /* \"#utility.yul\":17375:17468   */\n      tag_467\n        /* \"#utility.yul\":17464:17467   */\n      dup3\n        /* \"#utility.yul\":17375:17468   */\n      tag_301\n      jump\t// in\n    tag_467:\n        /* \"#utility.yul\":17493:17495   */\n      0x20\n        /* \"#utility.yul\":17488:17491   */\n      dup3\n        /* \"#utility.yul\":17484:17496   */\n      add\n        /* \"#utility.yul\":17477:17496   */\n      swap1\n      pop\n        /* \"#utility.yul\":17136:17502   */\n      swap2\n      swap1\n      pop\n      jump\t// out\n        /* \"#utility.yul\":17508:17927   */\n    tag_192:\n        /* \"#utility.yul\":17674:17678   */\n      0x00\n        /* \"#utility.yul\":17712:17714   */\n      0x20\n        /* \"#utility.yul\":17701:17710   */\n      dup3\n        /* \"#utility.yul\":17697:17715   */\n      add\n        /* \"#utility.yul\":17689:17715   */\n      swap1\n      pop\n        /* \"#utility.yul\":17761:17770   */\n      dup2\n        /* \"#utility.yul\":17755:17759   */\n      dup2\n        /* \"#utility.yul\":17751:17771   */\n      sub\n        /* \"#utility.yul\":17747:17748   */\n      0x00\n        /* \"#utility.yul\":17736:17745   */\n      dup4\n        /* \"#utility.yul\":17732:17749   */\n      add\n        /* \"#utility.yul\":17725:17772   */\n      mstore\n        /* \"#utility.yul\":17789:17920   */\n      tag_469\n        /* \"#utility.yul\":17915:17919   */\n      dup2\n        /* \"#utility.yul\":17789:17920   */\n      tag_302\n      jump\t// in\n    tag_469:\n        /* \"#utility.yul\":17781:17920   */\n      swap1\n      pop\n        /* \"#utility.yul\":17508:17927   */\n      swap2\n      swap1\n      pop\n      jump\t// out\n        /* \"#utility.yul\":17933:18363   */\n    tag_196:\n        /* \"#utility.yul\":18076:18080   */\n      0x00\n        /* \"#utility.yul\":18114:18116   */\n      0x60\n        /* \"#utility.yul\":18103:18112   */\n      dup3\n        /* \"#utility.yul\":18099:18117   */\n      add\n        /* \"#utility.yul\":18091:18117   */\n      swap1\n      pop\n        /* \"#utility.yul\":18127:18198   */\n      tag_471\n        /* \"#utility.yul\":18195:18196   */\n      0x00\n        /* \"#utility.yul\":18184:18193   */\n      dup4\n        /* \"#utility.yul\":18180:18197   */\n      add\n        /* \"#utility.yul\":18171:18177   */\n      dup7\n        /* \"#utility.yul\":18127:18198   */\n      tag_269\n      jump\t// in\n    tag_471:\n        /* \"#utility.yul\":18208:18280   */\n      tag_472\n        /* \"#utility.yul\":18276:18278   */\n      0x20\n        /* \"#utility.yul\":18265:18274   */\n      dup4\n        /* \"#utility.yul\":18261:18279   */\n      add\n        /* \"#utility.yul\":18252:18258   */\n      dup6\n        /* \"#utility.yul\":18208:18280   */\n      tag_263\n      jump\t// in\n    tag_472:\n        /* \"#utility.yul\":18290:18356   */\n      tag_473\n        /* \"#utility.yul\":18352:18354   */\n      0x40\n        /* \"#utility.yul\":18341:18350   */\n      dup4\n        /* \"#utility.yul\":18337:18355   */\n      add\n        /* \"#utility.yul\":18328:18334   */\n      dup5\n        /* \"#utility.yul\":18290:18356   */\n      tag_261\n      jump\t// in\n    tag_473:\n        /* \"#utility.yul\":17933:18363   */\n      swap5\n      swap4\n      pop\n      pop\n      pop\n      pop\n      jump\t// out\n        /* \"#utility.yul\":18369:18532   */\n    tag_303:\n        /* \"#utility.yul\":18509:18524   */\n      0x41756374696f6e20656e64656400000000000000000000000000000000000000\n        /* \"#utility.yul\":18505:18506   */\n      0x00\n        /* \"#utility.yul\":18497:18503   */\n      dup3\n        /* \"#utility.yul\":18493:18507   */\n      add\n        /* \"#utility.yul\":18486:18525   */\n      mstore\n        /* \"#utility.yul\":18369:18532   */\n      pop\n      jump\t// out\n        /* \"#utility.yul\":18538:18904   */\n    tag_304:\n        /* \"#utility.yul\":18680:18683   */\n      0x00\n        /* \"#utility.yul\":18701:18768   */\n      tag_476\n        /* \"#utility.yul\":18765:18767   */\n      0x0d\n        /* \"#utility.yul\":18760:18763   */\n      dup4\n        /* \"#utility.yul\":18701:18768   */\n      tag_265\n      jump\t// in\n    tag_476:\n        /* \"#utility.yul\":18694:18768   */\n      swap2\n      pop\n        /* \"#utility.yul\":18777:18870   */\n      tag_477\n        /* \"#utility.yul\":18866:18869   */\n      dup3\n        /* \"#utility.yul\":18777:18870   */\n      tag_303\n      jump\t// in\n    tag_477:\n        /* \"#utility.yul\":18895:18897   */\n      0x20\n        /* \"#utility.yul\":18890:18893   */\n      dup3\n        /* \"#utility.yul\":18886:18898   */\n      add\n        /* \"#utility.yul\":18879:18898   */\n      swap1\n      pop\n        /* \"#utility.yul\":18538:18904   */\n      swap2\n      swap1\n      pop\n      jump\t// out\n        /* \"#utility.yul\":18910:19329   */\n    tag_210:\n        /* \"#utility.yul\":19076:19080   */\n      0x00\n        /* \"#utility.yul\":19114:19116   */\n      0x20\n        /* \"#utility.yul\":19103:19112   */\n      dup3\n        /* \"#utility.yul\":19099:19117   */\n      add\n        /* \"#utility.yul\":19091:19117   */\n      swap1\n      pop\n        /* \"#utility.yul\":19163:19172   */\n      dup2\n        /* \"#utility.yul\":19157:19161   */\n      dup2\n        /* \"#utility.yul\":19153:19173   */\n      sub\n        /* \"#utility.yul\":19149:19150   */\n      0x00\n        /* \"#utility.yul\":19138:19147   */\n      dup4\n        /* \"#utility.yul\":19134:19151   */\n      add\n        /* \"#utility.yul\":19127:19174   */\n      mstore\n        /* \"#utility.yul\":19191:19322   */\n      tag_479\n        /* \"#utility.yul\":19317:19321   */\n      dup2\n        /* \"#utility.yul\":19191:19322   */\n      tag_304\n      jump\t// in\n    tag_479:\n        /* \"#utility.yul\":19183:19322   */\n      swap1\n      pop\n        /* \"#utility.yul\":18910:19329   */\n      swap2\n      swap1\n      pop\n      jump\t// out\n        /* \"#utility.yul\":19335:19555   */\n    tag_305:\n        /* \"#utility.yul\":19475:19509   */\n      0x596f752063616e277420626964206f6e20796f7572206f776e2061756374696f\n        /* \"#utility.yul\":19471:19472   */\n      0x00\n        /* \"#utility.yul\":19463:19469   */\n      dup3\n        /* \"#utility.yul\":19459:19473   */\n      add\n        /* \"#utility.yul\":19452:19510   */\n      mstore\n        /* \"#utility.yul\":19544:19547   */\n      0x6e00000000000000000000000000000000000000000000000000000000000000\n        /* \"#utility.yul\":19539:19541   */\n      0x20\n        /* \"#utility.yul\":19531:19537   */\n      dup3\n        /* \"#utility.yul\":19527:19542   */\n      add\n        /* \"#utility.yul\":19520:19548   */\n      mstore\n        /* \"#utility.yul\":19335:19555   */\n      pop\n      jump\t// out\n        /* \"#utility.yul\":19561:19927   */\n    tag_306:\n        /* \"#utility.yul\":19703:19706   */\n      0x00\n        /* \"#utility.yul\":19724:19791   */\n      tag_482\n        /* \"#utility.yul\":19788:19790   */\n      0x21\n        /* \"#utility.yul\":19783:19786   */\n      dup4\n        /* \"#utility.yul\":19724:19791   */\n      tag_265\n      jump\t// in\n    tag_482:\n        /* \"#utility.yul\":19717:19791   */\n      swap2\n      pop\n        /* \"#utility.yul\":19800:19893   */\n      tag_483\n        /* \"#utility.yul\":19889:19892   */\n      dup3\n        /* \"#utility.yul\":19800:19893   */\n      tag_305\n      jump\t// in\n    tag_483:\n        /* \"#utility.yul\":19918:19920   */\n      0x40\n        /* \"#utility.yul\":19913:19916   */\n      dup3\n        /* \"#utility.yul\":19909:19921   */\n      add\n        /* \"#utility.yul\":19902:19921   */\n      swap1\n      pop\n        /* \"#utility.yul\":19561:19927   */\n      swap2\n      swap1\n      pop\n      jump\t// out\n        /* \"#utility.yul\":19933:20352   */\n    tag_214:\n        /* \"#utility.yul\":20099:20103   */\n      0x00\n        /* \"#utility.yul\":20137:20139   */\n      0x20\n        /* \"#utility.yul\":20126:20135   */\n      dup3\n        /* \"#utility.yul\":20122:20140   */\n      add\n        /* \"#utility.yul\":20114:20140   */\n      swap1\n      pop\n        /* \"#utility.yul\":20186:20195   */\n      dup2\n        /* \"#utility.yul\":20180:20184   */\n      dup2\n        /* \"#utility.yul\":20176:20196   */\n      sub\n        /* \"#utility.yul\":20172:20173   */\n      0x00\n        /* \"#utility.yul\":20161:20170   */\n      dup4\n        /* \"#utility.yul\":20157:20174   */\n      add\n        /* \"#utility.yul\":20150:20197   */\n      mstore\n        /* \"#utility.yul\":20214:20345   */\n      tag_485\n        /* \"#utility.yul\":20340:20344   */\n      dup2\n        /* \"#utility.yul\":20214:20345   */\n      tag_306\n      jump\t// in\n    tag_485:\n        /* \"#utility.yul\":20206:20345   */\n      swap1\n      pop\n        /* \"#utility.yul\":19933:20352   */\n      swap2\n      swap1\n      pop\n      jump\t// out\n        /* \"#utility.yul\":20358:20528   */\n    tag_307:\n        /* \"#utility.yul\":20498:20520   */\n      0x4d7573742073656e6420736f6d65206574686572000000000000000000000000\n        /* \"#utility.yul\":20494:20495   */\n      0x00\n        /* \"#utility.yul\":20486:20492   */\n      dup3\n        /* \"#utility.yul\":20482:20496   */\n      add\n        /* \"#utility.yul\":20475:20521   */\n      mstore\n        /* \"#utility.yul\":20358:20528   */\n      pop\n      jump\t// out\n        /* \"#utility.yul\":20534:20900   */\n    tag_308:\n        /* \"#utility.yul\":20676:20679   */\n      0x00\n        /* \"#utility.yul\":20697:20764   */\n      tag_488\n        /* \"#utility.yul\":20761:20763   */\n      0x14\n        /* \"#utility.yul\":20756:20759   */\n      dup4\n        /* \"#utility.yul\":20697:20764   */\n      tag_265\n      jump\t// in\n    tag_488:\n        /* \"#utility.yul\":20690:20764   */\n      swap2\n      pop\n        /* \"#utility.yul\":20773:20866   */\n      tag_489\n        /* \"#utility.yul\":20862:20865   */\n      dup3\n        /* \"#utility.yul\":20773:20866   */\n      tag_307\n      jump\t// in\n    tag_489:\n        /* \"#utility.yul\":20891:20893   */\n      0x20\n        /* \"#utility.yul\":20886:20889   */\n      dup3\n        /* \"#utility.yul\":20882:20894   */\n      add\n        /* \"#utility.yul\":20875:20894   */\n      swap1\n      pop\n        /* \"#utility.yul\":20534:20900   */\n      swap2\n      swap1\n      pop\n      jump\t// out\n        /* \"#utility.yul\":20906:21325   */\n    tag_217:\n        /* \"#utility.yul\":21072:21076   */\n      0x00\n        /* \"#utility.yul\":21110:21112   */\n      0x20\n        /* \"#utility.yul\":21099:21108   */\n      dup3\n        /* \"#utility.yul\":21095:21113   */\n      add\n        /* \"#utility.yul\":21087:21113   */\n      swap1\n      pop\n        /* \"#utility.yul\":21159:21168   */\n      dup2\n        /* \"#utility.yul\":21153:21157   */\n      dup2\n        /* \"#utility.yul\":21149:21169   */\n      sub\n        /* \"#utility.yul\":21145:21146   */\n      0x00\n        /* \"#utility.yul\":21134:21143   */\n      dup4\n        /* \"#utility.yul\":21130:21147   */\n      add\n        /* \"#utility.yul\":21123:21170   */\n      mstore\n        /* \"#utility.yul\":21187:21318   */\n      tag_491\n        /* \"#utility.yul\":21313:21317   */\n      dup2\n        /* \"#utility.yul\":21187:21318   */\n      tag_308\n      jump\t// in\n    tag_491:\n        /* \"#utility.yul\":21179:21318   */\n      swap1\n      pop\n        /* \"#utility.yul\":20906:21325   */\n      swap2\n      swap1\n      pop\n      jump\t// out\n        /* \"#utility.yul\":21331:21511   */\n    tag_309:\n        /* \"#utility.yul\":21379:21456   */\n      0x4e487b7100000000000000000000000000000000000000000000000000000000\n        /* \"#utility.yul\":21376:21377   */\n      0x00\n        /* \"#utility.yul\":21369:21457   */\n      mstore\n        /* \"#utility.yul\":21476:21480   */\n      0x11\n        /* \"#utility.yul\":21473:21474   */\n      0x04\n        /* \"#utility.yul\":21466:21481   */\n      mstore\n        /* \"#utility.yul\":21500:21504   */\n      0x24\n        /* \"#utility.yul\":21497:21498   */\n      0x00\n        /* \"#utility.yul\":21490:21505   */\n      revert\n        /* \"#utility.yul\":21517:21708   */\n    tag_219:\n        /* \"#utility.yul\":21557:21560   */\n      0x00\n        /* \"#utility.yul\":21576:21596   */\n      tag_494\n        /* \"#utility.yul\":21594:21595   */\n      dup3\n        /* \"#utility.yul\":21576:21596   */\n      tag_262\n      jump\t// in\n    tag_494:\n        /* \"#utility.yul\":21571:21596   */\n      swap2\n      pop\n        /* \"#utility.yul\":21610:21630   */\n      tag_495\n        /* \"#utility.yul\":21628:21629   */\n      dup4\n        /* \"#utility.yul\":21610:21630   */\n      tag_262\n      jump\t// in\n    tag_495:\n        /* \"#utility.yul\":21605:21630   */\n      swap3\n      pop\n        /* \"#utility.yul\":21653:21654   */\n      dup3\n        /* \"#utility.yul\":21650:21651   */\n      dup3\n        /* \"#utility.yul\":21646:21655   */\n      add\n        /* \"#utility.yul\":21639:21655   */\n      swap1\n      pop\n        /* \"#utility.yul\":21674:21677   */\n      dup1\n        /* \"#utility.yul\":21671:21672   */\n      dup3\n        /* \"#utility.yul\":21668:21678   */\n      gt\n        /* \"#utility.yul\":21665:21701   */\n      iszero\n      tag_496\n      jumpi\n        /* \"#utility.yul\":21681:21699   */\n      tag_497\n      tag_309\n      jump\t// in\n    tag_497:\n        /* \"#utility.yul\":21665:21701   */\n    tag_496:\n        /* \"#utility.yul\":21517:21708   */\n      swap3\n      swap2\n      pop\n      pop\n      jump\t// out\n        /* \"#utility.yul\":21714:21881   */\n    tag_310:\n        /* \"#utility.yul\":21854:21873   */\n      0x42656c6f77206d696e696d756d20626964000000000000000000000000000000\n        /* \"#utility.yul\":21850:21851   */\n      0x00\n        /* \"#utility.yul\":21842:21848   */\n      dup3\n        /* \"#utility.yul\":21838:21852   */\n      add\n        /* \"#utility.yul\":21831:21874   */\n      mstore\n        /* \"#utility.yul\":21714:21881   */\n      pop\n      jump\t// out\n        /* \"#utility.yul\":21887:22253   */\n    tag_311:\n        /* \"#utility.yul\":22029:22032   */\n      0x00\n        /* \"#utility.yul\":22050:22117   */\n      tag_500\n        /* \"#utility.yul\":22114:22116   */\n      0x11\n        /* \"#utility.yul\":22109:22112   */\n      dup4\n        /* \"#utility.yul\":22050:22117   */\n      tag_265\n      jump\t// in\n    tag_500:\n        /* \"#utility.yul\":22043:22117   */\n      swap2\n      pop\n        /* \"#utility.yul\":22126:22219   */\n      tag_501\n        /* \"#utility.yul\":22215:22218   */\n      dup3\n        /* \"#utility.yul\":22126:22219   */\n      tag_310\n      jump\t// in\n    tag_501:\n        /* \"#utility.yul\":22244:22246   */\n      0x20\n        /* \"#utility.yul\":22239:22242   */\n      dup3\n        /* \"#utility.yul\":22235:22247   */\n      add\n        /* \"#utility.yul\":22228:22247   */\n      swap1\n      pop\n        /* \"#utility.yul\":21887:22253   */\n      swap2\n      swap1\n      pop\n      jump\t// out\n        /* \"#utility.yul\":22259:22678   */\n    tag_223:\n        /* \"#utility.yul\":22425:22429   */\n      0x00\n        /* \"#utility.yul\":22463:22465   */\n      0x20\n        /* \"#utility.yul\":22452:22461   */\n      dup3\n        /* \"#utility.yul\":22448:22466   */\n      add\n        /* \"#utility.yul\":22440:22466   */\n      swap1\n      pop\n        /* \"#utility.yul\":22512:22521   */\n      dup2\n        /* \"#utility.yul\":22506:22510   */\n      dup2\n        /* \"#utility.yul\":22502:22522   */\n      sub\n        /* \"#utility.yul\":22498:22499   */\n      0x00\n        /* \"#utility.yul\":22487:22496   */\n      dup4\n        /* \"#utility.yul\":22483:22500   */\n      add\n        /* \"#utility.yul\":22476:22523   */\n      mstore\n        /* \"#utility.yul\":22540:22671   */\n      tag_503\n        /* \"#utility.yul\":22666:22670   */\n      dup2\n        /* \"#utility.yul\":22540:22671   */\n      tag_311\n      jump\t// in\n    tag_503:\n        /* \"#utility.yul\":22532:22671   */\n      swap1\n      pop\n        /* \"#utility.yul\":22259:22678   */\n      swap2\n      swap1\n      pop\n      jump\t// out\n        /* \"#utility.yul\":22684:22865   */\n    tag_312:\n        /* \"#utility.yul\":22824:22857   */\n      0x426964206d757374206578636565642063757272656e74206869676865737400\n        /* \"#utility.yul\":22820:22821   */\n      0x00\n        /* \"#utility.yul\":22812:22818   */\n      dup3\n        /* \"#utility.yul\":22808:22822   */\n      add\n        /* \"#utility.yul\":22801:22858   */\n      mstore\n        /* \"#utility.yul\":22684:22865   */\n      pop\n      jump\t// out\n        /* \"#utility.yul\":22871:23237   */\n    tag_313:\n        /* \"#utility.yul\":23013:23016   */\n      0x00\n        /* \"#utility.yul\":23034:23101   */\n      tag_506\n        /* \"#utility.yul\":23098:23100   */\n      0x1f\n        /* \"#utility.yul\":23093:23096   */\n      dup4\n        /* \"#utility.yul\":23034:23101   */\n      tag_265\n      jump\t// in\n    tag_506:\n        /* \"#utility.yul\":23027:23101   */\n      swap2\n      pop\n        /* \"#utility.yul\":23110:23203   */\n      tag_507\n        /* \"#utility.yul\":23199:23202   */\n      dup3\n        /* \"#utility.yul\":23110:23203   */\n      tag_312\n      jump\t// in\n    tag_507:\n        /* \"#utility.yul\":23228:23230   */\n      0x20\n        /* \"#utility.yul\":23223:23226   */\n      dup3\n        /* \"#utility.yul\":23219:23231   */\n      add\n        /* \"#utility.yul\":23212:23231   */\n      swap1\n      pop\n        /* \"#utility.yul\":22871:23237   */\n      swap2\n      swap1\n      pop\n      jump\t// out\n        /* \"#utility.yul\":23243:23662   */\n    tag_231:\n        /* \"#utility.yul\":23409:23413   */\n      0x00\n        /* \"#utility.yul\":23447:23449   */\n      0x20\n        /* \"#utility.yul\":23436:23445   */\n      dup3\n        /* \"#utility.yul\":23432:23450   */\n      add\n        /* \"#utility.yul\":23424:23450   */\n      swap1\n      pop\n        /* \"#utility.yul\":23496:23505   */\n      dup2\n        /* \"#utility.yul\":23490:23494   */\n      dup2\n        /* \"#utility.yul\":23486:23506   */\n      sub\n        /* \"#utility.yul\":23482:23483   */\n      0x00\n        /* \"#utility.yul\":23471:23480   */\n      dup4\n        /* \"#utility.yul\":23467:23484   */\n      add\n        /* \"#utility.yul\":23460:23507   */\n      mstore\n        /* \"#utility.yul\":23524:23655   */\n      tag_509\n        /* \"#utility.yul\":23650:23654   */\n      dup2\n        /* \"#utility.yul\":23524:23655   */\n      tag_313\n      jump\t// in\n    tag_509:\n        /* \"#utility.yul\":23516:23655   */\n      swap1\n      pop\n        /* \"#utility.yul\":23243:23662   */\n      swap2\n      swap1\n      pop\n      jump\t// out\n        /* \"#utility.yul\":23668:23901   */\n    tag_249:\n        /* \"#utility.yul\":23707:23710   */\n      0x00\n        /* \"#utility.yul\":23730:23754   */\n      tag_511\n        /* \"#utility.yul\":23748:23753   */\n      dup3\n        /* \"#utility.yul\":23730:23754   */\n      tag_262\n      jump\t// in\n    tag_511:\n        /* \"#utility.yul\":23721:23754   */\n      swap2\n      pop\n        /* \"#utility.yul\":23776:23842   */\n      0xffffffffffffffffffffffffffffffffffffffffffffffffffffffffffffffff\n        /* \"#utility.yul\":23769:23774   */\n      dup3\n        /* \"#utility.yul\":23766:23843   */\n      sub\n        /* \"#utility.yul\":23763:23866   */\n      tag_512\n      jumpi\n        /* \"#utility.yul\":23846:23864   */\n      tag_513\n      tag_309\n      jump\t// in\n    tag_513:\n        /* \"#utility.yul\":23763:23866   */\n    tag_512:\n        /* \"#utility.yul\":23893:23894   */\n      0x01\n        /* \"#utility.yul\":23886:23891   */\n      dup3\n        /* \"#utility.yul\":23882:23895   */\n      add\n        /* \"#utility.yul\":23875:23895   */\n      swap1\n      pop\n        /* \"#utility.yul\":23668:23901   */\n      swap2\n      swap1\n      pop\n      jump\t// out\n\n    auxdata: 0xa264697066735822122093074120fd39af2cf53ec4c9a5af190b545c5a8e0224d3cb8bfe10497388cfcd64736f6c634300081e0033\n}\n","bytecode":{"linkReferences":{},"object":"608060405234801561000f575f5ffd5b506040516129de3803806129de833981810160405281019061003191906102dc565b8260015f6101000a81548173ffffffffffffffffffffffffffffffffffffffff021916908373ffffffffffffffffffffffffffffffffffffffff16021790555085600281905550846003908161008791906105a4565b50836004908161009791906105a4565b5081600c819055505f600d5f6101000a81548160ff021916908315150217905550805f5f6101000a81548173ffffffffffffffffffffffffffffffffffffffff021916908373ffffffffffffffffffffffffffffffffffffffff160217905550505050505050610673565b5f604051905090565b5f5ffd5b5f5ffd5b5f819050919050565b61012581610113565b811461012f575f5ffd5b50565b5f815190506101408161011c565b92915050565b5f5ffd5b5f5ffd5b5f601f19601f8301169050919050565b7f4e487b71000000000000000000000000000000000000000000000000000000005f52604160045260245ffd5b6101948261014e565b810181811067ffffffffffffffff821117156101b3576101b261015e565b5b80604052505050565b5f6101c5610102565b90506101d1828261018b565b919050565b5f67ffffffffffffffff8211156101f0576101ef61015e565b5b6101f98261014e565b9050602081019050919050565b8281835e5f83830152505050565b5f610226610221846101d6565b6101bc565b9050828152602081018484840111156102425761024161014a565b5b61024d848285610206565b509392505050565b5f82601f83011261026957610268610146565b5b8151610279848260208601610214565b91505092915050565b5f73ffffffffffffffffffffffffffffffffffffffff82169050919050565b5f6102ab82610282565b9050919050565b6102bb816102a1565b81146102c5575f5ffd5b50565b5f815190506102d6816102b2565b92915050565b5f5f5f5f5f5f60c087890312156102f6576102f561010b565b5b5f61030389828a01610132565b965050602087015167ffffffffffffffff8111156103245761032361010f565b5b61033089828a01610255565b955050604087015167ffffffffffffffff8111156103515761035061010f565b5b61035d89828a01610255565b945050606061036e89828a016102c8565b935050608061037f89828a01610132565b92505060a061039089828a016102c8565b9150509295509295509295565b5f81519050919050565b7f4e487b71000000000000000000000000000000000000000000000000000000005f52602260045260245ffd5b5f60028204905060018216806103eb57607f821691505b6020821081036103fe576103fd6103a7565b5b50919050565b5f819050815f5260205f209050919050565b5f6020601f8301049050919050565b5f82821b905092915050565b5f600883026104607fffffffffffffffffffffffffffffffffffffffffffffffffffffffffffffffff82610425565b61046a8683610425565b95508019841693508086168417925050509392505050565b5f819050919050565b5f6104a56104a061049b84610113565b610482565b610113565b9050919050565b5f819050919050565b6104be8361048b565b6104d26104ca826104ac565b848454610431565b825550505050565b5f5f905090565b6104e96104da565b6104f48184846104b5565b505050565b5b818110156105175761050c5f826104e1565b6001810190506104fa565b5050565b601f82111561055c5761052d81610404565b61053684610416565b81016020851015610545578190505b61055961055185610416565b8301826104f9565b50505b505050565b5f82821c905092915050565b5f61057c5f1984600802610561565b1980831691505092915050565b5f610594838361056d565b9150826002028217905092915050565b6105ad8261039d565b67ffffffffffffffff8111156105c6576105c561015e565b5b6105d082546103d4565b6105db82828561051b565b5f60209050601f83116001811461060c575f84156105fa578287015190505b6106048582610589565b86555061066b565b601f19841661061a86610404565b5f5b828110156106415784890151825560018201915060208501945060208101905061061c565b8683101561065e578489015161065a601f89168261056d565b8355505b6001600288020188555050505b505050505050565b61235e806106805f395ff3fe608060405260043610610134575f3560e01c806383920e90116100aa578063a39fac121161006e578063a39fac1214610405578063c45a01551461042f578063c8b342ab14610459578063d57bde7914610495578063d7bb99ba146104bf578063edf26d9b146104c957610134565b806383920e901461033357806391f901571461035d578063937e09b114610387578063976af615146103b15780639ace38c2146103c757610134565b80634e69d560116100fc5780634e69d5601461022557806358d656291461024f578063597e1fb5146102795780635dc1d641146102a35780637b87d856146102df57806382fde0931461030957610134565b80630a144391146101385780633197cbb6146101745780633bc5de301461019e5780634051ddac146101c8578063481c6a75146101fb575b5f5ffd5b348015610143575f5ffd5b5061015e600480360381019061015991906118aa565b610505565b60405161016b91906118ef565b60405180910390f35b34801561017f575f5ffd5b50610188610522565b6040516101959190611920565b60405180910390f35b3480156101a9575f5ffd5b506101b2610528565b6040516101bf91906119a9565b60405180910390f35b3480156101d3575f5ffd5b506101dc610695565b6040516101f29a99989796959493929190611a8f565b60405180910390f35b348015610206575f5ffd5b5061020f6108b1565b60405161021c9190611b3e565b60405180910390f35b348015610230575f5ffd5b506102396108d6565b60405161024691906118ef565b60405180910390f35b34801561025a575f5ffd5b506102636108eb565b60405161027091906119a9565b60405180910390f35b348015610284575f5ffd5b5061028d610977565b60405161029a91906118ef565b60405180910390f35b3480156102ae575f5ffd5b506102c960048036038101906102c491906118aa565b610989565b6040516102d69190611920565b60405180910390f35b3480156102ea575f5ffd5b506102f361099e565b60405161030091906119a9565b60405180910390f35b348015610314575f5ffd5b5061031d610a2a565b60405161032a9190611920565b60405180910390f35b34801561033e575f5ffd5b50610347610a30565b6040516103549190611c4e565b60405180910390f35b348015610368575f5ffd5b50610371610af4565b60405161037e9190611b3e565b60405180910390f35b348015610392575f5ffd5b5061039b610b19565b6040516103a89190611920565b60405180910390f35b3480156103bc575f5ffd5b506103c5610b1f565b005b3480156103d2575f5ffd5b506103ed60048036038101906103e89190611c98565b610f79565b6040516103fc93929190611cc3565b60405180910390f35b348015610410575f5ffd5b50610419610fcd565b6040516104269190611cf8565b60405180910390f35b34801561043a575f5ffd5b50610443611058565b6040516104509190611d73565b60405180910390f35b348015610464575f5ffd5b5061047f600480360381019061047a91906118aa565b61107c565b60405161048c9190611920565b60405180910390f35b3480156104a0575f5ffd5b506104a96110c2565b6040516104b69190611920565b60405180910390f35b6104c76110c8565b005b3480156104d4575f5ffd5b506104ef60048036038101906104ea9190611c98565b611811565b6040516104fc9190611b3e565b60405180910390f35b6005602052805f5260405f205f915054906101000a900460ff1681565b600c5481565b6060600d5f9054906101000a900460ff16610578576040517f08c379a000000000000000000000000000000000000000000000000000000000815260040161056f90611dd6565b60405180910390fd5b600a5f9054906101000a900473ffffffffffffffffffffffffffffffffffffffff1673ffffffffffffffffffffffffffffffffffffffff163373ffffffffffffffffffffffffffffffffffffffff1614610607576040517f08c379a00000000000000000000000000000000000000000000000000000000081526004016105fe90611e3e565b60405180910390fd5b6003805461061490611e89565b80601f016020809104026020016040519081016040528092919081815260200182805461064090611e89565b801561068b5780601f106106625761010080835404028352916020019161068b565b820191905f5260205f20905b81548152906001019060200180831161066e57829003601f168201915b5050505050905090565b5f5f5f5f5f6060805f60605f6002544760075460015f9054906101000a900473ffffffffffffffffffffffffffffffffffffffff16600b5460036004600a5f9054906101000a900473ffffffffffffffffffffffffffffffffffffffff166008600c5484805461070490611e89565b80601f016020809104026020016040519081016040528092919081815260200182805461073090611e89565b801561077b5780601f106107525761010080835404028352916020019161077b565b820191905f5260205f20905b81548152906001019060200180831161075e57829003601f168201915b5050505050945083805461078e90611e89565b80601f01602080910402602001604051908101604052809291908181526020018280546107ba90611e89565b80156108055780601f106107dc57610100808354040283529160200191610805565b820191905f5260205f20905b8154815290600101906020018083116107e857829003601f168201915b505050505093508180548060200260200160405190810160405280929190818152602001828054801561088a57602002820191905f5260205f20905b815f9054906101000a900473ffffffffffffffffffffffffffffffffffffffff1673ffffffffffffffffffffffffffffffffffffffff1681526020019060010190808311610841575b50505050509150995099509950995099509950995099509950995090919293949596979899565b60015f9054906101000a900473ffffffffffffffffffffffffffffffffffffffff1681565b5f600d5f9054906101000a900460ff16905090565b600480546108f890611e89565b80601f016020809104026020016040519081016040528092919081815260200182805461092490611e89565b801561096f5780601f106109465761010080835404028352916020019161096f565b820191905f5260205f20905b81548152906001019060200180831161095257829003601f168201915b505050505081565b600d5f9054906101000a900460ff1681565b6006602052805f5260405f205f915090505481565b600380546109ab90611e89565b80601f01602080910402602001604051908101604052809291908181526020018280546109d790611e89565b8015610a225780601f106109f957610100808354040283529160200191610a22565b820191905f5260205f20905b815481529060010190602001808311610a0557829003601f168201915b505050505081565b60075481565b60606009805480602002602001604051908101604052809291908181526020015f905b82821015610aeb578382905f5260205f2090600302016040518060600160405290815f820154815260200160018201548152602001600282015f9054906101000a900473ffffffffffffffffffffffffffffffffffffffff1673ffffffffffffffffffffffffffffffffffffffff1673ffffffffffffffffffffffffffffffffffffffff168152505081526020019060010190610a53565b50505050905090565b600a5f9054906101000a900473ffffffffffffffffffffffffffffffffffffffff1681565b60025481565b600c54421015610b64576040517f08c379a0000000000000000000000000000000000000000000000000000000008152600401610b5b90611f03565b60405180910390fd5b600d5f9054906101000a900460ff1615610bb3576040517f08c379a0000000000000000000000000000000000000000000000000000000008152600401610baa90611f6b565b60405180910390fd5b5f5f90505b600880549050811015610d86575f60088281548110610bda57610bd9611f89565b5b905f5260205f20015f9054906101000a900473ffffffffffffffffffffffffffffffffffffffff169050600a5f9054906101000a900473ffffffffffffffffffffffffffffffffffffffff1673ffffffffffffffffffffffffffffffffffffffff168173ffffffffffffffffffffffffffffffffffffffff1614610d78575f60065f8373ffffffffffffffffffffffffffffffffffffffff1673ffffffffffffffffffffffffffffffffffffffff1681526020019081526020015f205490505f811115610d76575f60065f8473ffffffffffffffffffffffffffffffffffffffff1673ffffffffffffffffffffffffffffffffffffffff1681526020019081526020015f20819055508173ffffffffffffffffffffffffffffffffffffffff166108fc8290811502906040515f60405180830381858888f19350505050158015610d26573d5f5f3e3d5ffd5b508173ffffffffffffffffffffffffffffffffffffffff167f3367befd2b2f39615cd79917c2153263c4af1d3945ec003e5d5bfc13a8d8583382604051610d6d9190611920565b60405180910390a25b505b508080600101915050610bb8565b505f600b541115610f5d57600b54471015610dd6576040517f08c379a0000000000000000000000000000000000000000000000000000000008152600401610dcd90612000565b60405180910390fd5b60015f9054906101000a900473ffffffffffffffffffffffffffffffffffffffff1673ffffffffffffffffffffffffffffffffffffffff166108fc600b5490811502906040515f60405180830381858888f19350505050158015610e3c573d5f5f3e3d5ffd5b505f5f9054906101000a900473ffffffffffffffffffffffffffffffffffffffff1673ffffffffffffffffffffffffffffffffffffffff16638dfac90c60015f9054906101000a900473ffffffffffffffffffffffffffffffffffffffff16600b5460016040518463ffffffff1660e01b8152600401610ebe9392919061201e565b5f604051808303815f87803b158015610ed5575f5ffd5b505af1158015610ee7573d5f5f3e3d5ffd5b5050505060015f9054906101000a900473ffffffffffffffffffffffffffffffffffffffff1673ffffffffffffffffffffffffffffffffffffffff167fcb4a9094da4df77fb2c0dbaa5047660b1237e61d82a02176c1be74ca757f2531600b54604051610f549190611920565b60405180910390a25b6001600d5f6101000a81548160ff021916908315150217905550565b60098181548110610f88575f80fd5b905f5260205f2090600302015f91509050805f015490806001015490806002015f9054906101000a900473ffffffffffffffffffffffffffffffffffffffff16905083565b6060600880548060200260200160405190810160405280929190818152602001828054801561104e57602002820191905f5260205f20905b815f9054906101000a900473ffffffffffffffffffffffffffffffffffffffff1673ffffffffffffffffffffffffffffffffffffffff1681526020019060010190808311611005575b5050505050905090565b5f5f9054906101000a900473ffffffffffffffffffffffffffffffffffffffff1681565b5f60065f8373ffffffffffffffffffffffffffffffffffffffff1673ffffffffffffffffffffffffffffffffffffffff1681526020019081526020015f20549050919050565b600b5481565b600c54421061110c576040517f08c379a00000000000000000000000000000000000000000000000000000000081526004016111039061209d565b60405180910390fd5b60015f9054906101000a900473ffffffffffffffffffffffffffffffffffffffff1673ffffffffffffffffffffffffffffffffffffffff163373ffffffffffffffffffffffffffffffffffffffff160361119b576040517f08c379a00000000000000000000000000000000000000000000000000000000081526004016111929061212b565b60405180910390fd5b5f34116111dd576040517f08c379a00000000000000000000000000000000000000000000000000000000081526004016111d490612193565b60405180910390fd5b5f60065f3373ffffffffffffffffffffffffffffffffffffffff1673ffffffffffffffffffffffffffffffffffffffff1681526020019081526020015f205490505f348261122b91906121de565b90505f73ffffffffffffffffffffffffffffffffffffffff16600a5f9054906101000a900473ffffffffffffffffffffffffffffffffffffffff1673ffffffffffffffffffffffffffffffffffffffff1603611355576002548110156112c6576040517f08c379a00000000000000000000000000000000000000000000000000000000081526004016112bd9061225b565b60405180910390fd5b5f5f9054906101000a900473ffffffffffffffffffffffffffffffffffffffff1673ffffffffffffffffffffffffffffffffffffffff16638dfac90c33345f6040518463ffffffff1660e01b81526004016113239392919061201e565b5f604051808303815f87803b15801561133a575f5ffd5b505af115801561134c573d5f5f3e3d5ffd5b505050506115b6565b600b548111611399576040517f08c379a0000000000000000000000000000000000000000000000000000000008152600401611390906122c3565b60405180910390fd5b600a5f9054906101000a900473ffffffffffffffffffffffffffffffffffffffff1673ffffffffffffffffffffffffffffffffffffffff163373ffffffffffffffffffffffffffffffffffffffff161461152a575f5f9054906101000a900473ffffffffffffffffffffffffffffffffffffffff1673ffffffffffffffffffffffffffffffffffffffff16638dfac90c600a5f9054906101000a900473ffffffffffffffffffffffffffffffffffffffff16600b5460016040518463ffffffff1660e01b815260040161146e9392919061201e565b5f604051808303815f87803b158015611485575f5ffd5b505af1158015611497573d5f5f3e3d5ffd5b505050505f5f9054906101000a900473ffffffffffffffffffffffffffffffffffffffff1673ffffffffffffffffffffffffffffffffffffffff16638dfac90c33835f6040518463ffffffff1660e01b81526004016114f89392919061201e565b5f604051808303815f87803b15801561150f575f5ffd5b505af1158015611521573d5f5f3e3d5ffd5b505050506115b5565b5f5f9054906101000a900473ffffffffffffffffffffffffffffffffffffffff1673ffffffffffffffffffffffffffffffffffffffff16638dfac90c33345f6040518463ffffffff1660e01b81526004016115879392919061201e565b5f604051808303815f87803b15801561159e575f5ffd5b505af11580156115b0573d5f5f3e3d5ffd5b505050505b5b8060065f3373ffffffffffffffffffffffffffffffffffffffff1673ffffffffffffffffffffffffffffffffffffffff1681526020019081526020015f208190555080600b8190555033600a5f6101000a81548173ffffffffffffffffffffffffffffffffffffffff021916908373ffffffffffffffffffffffffffffffffffffffff160217905550600960405180606001604052803481526020014281526020013373ffffffffffffffffffffffffffffffffffffffff16815250908060018154018082558091505060019003905f5260205f2090600302015f909190919091505f820151815f0155602082015181600101556040820151816002015f6101000a81548173ffffffffffffffffffffffffffffffffffffffff021916908373ffffffffffffffffffffffffffffffffffffffff160217905550505060055f3373ffffffffffffffffffffffffffffffffffffffff1673ffffffffffffffffffffffffffffffffffffffff1681526020019081526020015f205f9054906101000a900460ff1661180d57600160055f3373ffffffffffffffffffffffffffffffffffffffff1673ffffffffffffffffffffffffffffffffffffffff1681526020019081526020015f205f6101000a81548160ff02191690831515021790555060075f8154809291906117a7906122e1565b9190505550600833908060018154018082558091505060019003905f5260205f20015f9091909190916101000a81548173ffffffffffffffffffffffffffffffffffffffff021916908373ffffffffffffffffffffffffffffffffffffffff1602179055505b5050565b60088181548110611820575f80fd5b905f5260205f20015f915054906101000a900473ffffffffffffffffffffffffffffffffffffffff1681565b5f5ffd5b5f73ffffffffffffffffffffffffffffffffffffffff82169050919050565b5f61187982611850565b9050919050565b6118898161186f565b8114611893575f5ffd5b50565b5f813590506118a481611880565b92915050565b5f602082840312156118bf576118be61184c565b5b5f6118cc84828501611896565b91505092915050565b5f8115159050919050565b6118e9816118d5565b82525050565b5f6020820190506119025f8301846118e0565b92915050565b5f819050919050565b61191a81611908565b82525050565b5f6020820190506119335f830184611911565b92915050565b5f81519050919050565b5f82825260208201905092915050565b8281835e5f83830152505050565b5f601f19601f8301169050919050565b5f61197b82611939565b6119858185611943565b9350611995818560208601611953565b61199e81611961565b840191505092915050565b5f6020820190508181035f8301526119c18184611971565b905092915050565b6119d28161186f565b82525050565b5f81519050919050565b5f82825260208201905092915050565b5f819050602082019050919050565b611a0a8161186f565b82525050565b5f611a1b8383611a01565b60208301905092915050565b5f602082019050919050565b5f611a3d826119d8565b611a4781856119e2565b9350611a52836119f2565b805f5b83811015611a82578151611a698882611a10565b9750611a7483611a27565b925050600181019050611a55565b5085935050505092915050565b5f61014082019050611aa35f83018d611911565b611ab0602083018c611911565b611abd604083018b611911565b611aca606083018a6119c9565b611ad76080830189611911565b81810360a0830152611ae98188611971565b905081810360c0830152611afd8187611971565b9050611b0c60e08301866119c9565b818103610100830152611b1f8185611a33565b9050611b2f610120830184611911565b9b9a5050505050505050505050565b5f602082019050611b515f8301846119c9565b92915050565b5f81519050919050565b5f82825260208201905092915050565b5f819050602082019050919050565b611b8981611908565b82525050565b606082015f820151611ba35f850182611b80565b506020820151611bb66020850182611b80565b506040820151611bc96040850182611a01565b50505050565b5f611bda8383611b8f565b60608301905092915050565b5f602082019050919050565b5f611bfc82611b57565b611c068185611b61565b9350611c1183611b71565b805f5b83811015611c41578151611c288882611bcf565b9750611c3383611be6565b925050600181019050611c14565b5085935050505092915050565b5f6020820190508181035f830152611c668184611bf2565b905092915050565b611c7781611908565b8114611c81575f5ffd5b50565b5f81359050611c9281611c6e565b92915050565b5f60208284031215611cad57611cac61184c565b5b5f611cba84828501611c84565b91505092915050565b5f606082019050611cd65f830186611911565b611ce36020830185611911565b611cf060408301846119c9565b949350505050565b5f6020820190508181035f830152611d108184611a33565b905092915050565b5f819050919050565b5f611d3b611d36611d3184611850565b611d18565b611850565b9050919050565b5f611d4c82611d21565b9050919050565b5f611d5d82611d42565b9050919050565b611d6d81611d53565b82525050565b5f602082019050611d865f830184611d64565b92915050565b7f41756374696f6e206e6f742066696e616c697a656400000000000000000000005f82015250565b5f611dc0601583611943565b9150611dcb82611d8c565b602082019050919050565b5f6020820190508181035f830152611ded81611db4565b9050919050565b7f4f6e6c792077696e6e65722063616e20616363657373207468652064617461005f82015250565b5f611e28601f83611943565b9150611e3382611df4565b602082019050919050565b5f6020820190508181035f830152611e5581611e1c565b9050919050565b7f4e487b71000000000000000000000000000000000000000000000000000000005f52602260045260245ffd5b5f6002820490506001821680611ea057607f821691505b602082108103611eb357611eb2611e5c565b5b50919050565b7f41756374696f6e206e6f7420656e6465642079657400000000000000000000005f82015250565b5f611eed601583611943565b9150611ef882611eb9565b602082019050919050565b5f6020820190508181035f830152611f1a81611ee1565b9050919050565b7f41756374696f6e20616c72656164792066696e616c697a6564000000000000005f82015250565b5f611f55601983611943565b9150611f6082611f21565b602082019050919050565b5f6020820190508181035f830152611f8281611f49565b9050919050565b7f4e487b71000000000000000000000000000000000000000000000000000000005f52603260045260245ffd5b7f496e73756666696369656e742062616c616e63650000000000000000000000005f82015250565b5f611fea601483611943565b9150611ff582611fb6565b602082019050919050565b5f6020820190508181035f83015261201781611fde565b9050919050565b5f6060820190506120315f8301866119c9565b61203e6020830185611911565b61204b60408301846118e0565b949350505050565b7f41756374696f6e20656e646564000000000000000000000000000000000000005f82015250565b5f612087600d83611943565b915061209282612053565b602082019050919050565b5f6020820190508181035f8301526120b48161207b565b9050919050565b7f596f752063616e277420626964206f6e20796f7572206f776e2061756374696f5f8201527f6e00000000000000000000000000000000000000000000000000000000000000602082015250565b5f612115602183611943565b9150612120826120bb565b604082019050919050565b5f6020820190508181035f83015261214281612109565b9050919050565b7f4d7573742073656e6420736f6d652065746865720000000000000000000000005f82015250565b5f61217d601483611943565b915061218882612149565b602082019050919050565b5f6020820190508181035f8301526121aa81612171565b9050919050565b7f4e487b71000000000000000000000000000000000000000000000000000000005f52601160045260245ffd5b5f6121e882611908565b91506121f383611908565b925082820190508082111561220b5761220a6121b1565b5b92915050565b7f42656c6f77206d696e696d756d206269640000000000000000000000000000005f82015250565b5f612245601183611943565b915061225082612211565b602082019050919050565b5f6020820190508181035f83015261227281612239565b9050919050565b7f426964206d757374206578636565642063757272656e742068696768657374005f82015250565b5f6122ad601f83611943565b91506122b882612279565b602082019050919050565b5f6020820190508181035f8301526122da816122a1565b9050919050565b5f6122eb82611908565b91507fffffffffffffffffffffffffffffffffffffffffffffffffffffffffffffffff820361231d5761231c6121b1565b5b60018201905091905056fea264697066735822122093074120fd39af2cf53ec4c9a5af190b545c5a8e0224d3cb8bfe10497388cfcd64736f6c634300081e0033","opcodes":"PUSH1 0x80 PUSH1 0x40 MSTORE CALLVALUE DUP1 ISZERO PUSH2 0xF JUMPI PUSH0 PUSH0 REVERT JUMPDEST POP PUSH1 0x40 MLOAD PUSH2 0x29DE CODESIZE SUB DUP1 PUSH2 0x29DE DUP4 CODECOPY DUP2 DUP2 ADD PUSH1 0x40 MSTORE DUP2 ADD SWAP1 PUSH2 0x31 SWAP2 SWAP1 PUSH2 0x2DC JUMP JUMPDEST DUP3 PUSH1 0x1 PUSH0 PUSH2 0x100 EXP DUP2 SLOAD DUP2 PUSH20 0xFFFFFFFFFFFFFFFFFFFFFFFFFFFFFFFFFFFFFFFF MUL NOT AND SWAP1 DUP4 PUSH20 0xFFFFFFFFFFFFFFFFFFFFFFFFFFFFFFFFFFFFFFFF AND MUL OR SWAP1 SSTORE POP DUP6 PUSH1 0x2 DUP2 SWAP1 SSTORE POP DUP5 PUSH1 0x3 SWAP1 DUP2 PUSH2 0x87 SWAP2 SWAP1 PUSH2 0x5A4 JUMP JUMPDEST POP DUP4 PUSH1 0x4 SWAP1 DUP2 PUSH2 0x97 SWAP2 SWAP1 PUSH2 0x5A4 JUMP JUMPDEST POP DUP2 PUSH1 0xC DUP2 SWAP1 SSTORE POP PUSH0 PUSH1 0xD PUSH0 PUSH2 0x100 EXP DUP2 SLOAD DUP2 PUSH1 0xFF MUL NOT AND SWAP1 DUP4 ISZERO ISZERO MUL OR SWAP1 SSTORE POP DUP1 PUSH0 PUSH0 PUSH2 0x100 EXP DUP2 SLOAD DUP2 PUSH20 0xFFFFFFFFFFFFFFFFFFFFFFFFFFFFFFFFFFFFFFFF MUL NOT AND SWAP1 DUP4 PUSH20 0xFFFFFFFFFFFFFFFFFFFFFFFFFFFFFFFFFFFFFFFF AND MUL OR SWAP1 SSTORE POP POP POP POP POP POP POP PUSH2 0x673 JUMP JUMPDEST PUSH0 PUSH1 0x40 MLOAD SWAP1 POP SWAP1 JUMP JUMPDEST PUSH0 PUSH0 REVERT JUMPDEST PUSH0 PUSH0 REVERT JUMPDEST PUSH0 DUP2 SWAP1 POP SWAP2 SWAP1 POP JUMP JUMPDEST PUSH2 0x125 DUP2 PUSH2 0x113 JUMP JUMPDEST DUP2 EQ PUSH2 0x12F JUMPI PUSH0 PUSH0 REVERT JUMPDEST POP JUMP JUMPDEST PUSH0 DUP2 MLOAD SWAP1 POP PUSH2 0x140 DUP2 PUSH2 0x11C JUMP JUMPDEST SWAP3 SWAP2 POP POP JUMP JUMPDEST PUSH0 PUSH0 REVERT JUMPDEST PUSH0 PUSH0 REVERT JUMPDEST PUSH0 PUSH1 0x1F NOT PUSH1 0x1F DUP4 ADD AND SWAP1 POP SWAP2 SWAP1 POP JUMP JUMPDEST PUSH32 0x4E487B7100000000000000000000000000000000000000000000000000000000 PUSH0 MSTORE PUSH1 0x41 PUSH1 0x4 MSTORE PUSH1 0x24 PUSH0 REVERT JUMPDEST PUSH2 0x194 DUP3 PUSH2 0x14E JUMP JUMPDEST DUP2 ADD DUP2 DUP2 LT PUSH8 0xFFFFFFFFFFFFFFFF DUP3 GT OR ISZERO PUSH2 0x1B3 JUMPI PUSH2 0x1B2 PUSH2 0x15E JUMP JUMPDEST JUMPDEST DUP1 PUSH1 0x40 MSTORE POP POP POP JUMP JUMPDEST PUSH0 PUSH2 0x1C5 PUSH2 0x102 JUMP JUMPDEST SWAP1 POP PUSH2 0x1D1 DUP3 DUP3 PUSH2 0x18B JUMP JUMPDEST SWAP2 SWAP1 POP JUMP JUMPDEST PUSH0 PUSH8 0xFFFFFFFFFFFFFFFF DUP3 GT ISZERO PUSH2 0x1F0 JUMPI PUSH2 0x1EF PUSH2 0x15E JUMP JUMPDEST JUMPDEST PUSH2 0x1F9 DUP3 PUSH2 0x14E JUMP JUMPDEST SWAP1 POP PUSH1 0x20 DUP2 ADD SWAP1 POP SWAP2 SWAP1 POP JUMP JUMPDEST DUP3 DUP2 DUP4 MCOPY PUSH0 DUP4 DUP4 ADD MSTORE POP POP POP JUMP JUMPDEST PUSH0 PUSH2 0x226 PUSH2 0x221 DUP5 PUSH2 0x1D6 JUMP JUMPDEST PUSH2 0x1BC JUMP JUMPDEST SWAP1 POP DUP3 DUP2 MSTORE PUSH1 0x20 DUP2 ADD DUP5 DUP5 DUP5 ADD GT ISZERO PUSH2 0x242 JUMPI PUSH2 0x241 PUSH2 0x14A JUMP JUMPDEST JUMPDEST PUSH2 0x24D DUP5 DUP3 DUP6 PUSH2 0x206 JUMP JUMPDEST POP SWAP4 SWAP3 POP POP POP JUMP JUMPDEST PUSH0 DUP3 PUSH1 0x1F DUP4 ADD SLT PUSH2 0x269 JUMPI PUSH2 0x268 PUSH2 0x146 JUMP JUMPDEST JUMPDEST DUP2 MLOAD PUSH2 0x279 DUP5 DUP3 PUSH1 0x20 DUP7 ADD PUSH2 0x214 JUMP JUMPDEST SWAP2 POP POP SWAP3 SWAP2 POP POP JUMP JUMPDEST PUSH0 PUSH20 0xFFFFFFFFFFFFFFFFFFFFFFFFFFFFFFFFFFFFFFFF DUP3 AND SWAP1 POP SWAP2 SWAP1 POP JUMP JUMPDEST PUSH0 PUSH2 0x2AB DUP3 PUSH2 0x282 JUMP JUMPDEST SWAP1 POP SWAP2 SWAP1 POP JUMP JUMPDEST PUSH2 0x2BB DUP2 PUSH2 0x2A1 JUMP JUMPDEST DUP2 EQ PUSH2 0x2C5 JUMPI PUSH0 PUSH0 REVERT JUMPDEST POP JUMP JUMPDEST PUSH0 DUP2 MLOAD SWAP1 POP PUSH2 0x2D6 DUP2 PUSH2 0x2B2 JUMP JUMPDEST SWAP3 SWAP2 POP POP JUMP JUMPDEST PUSH0 PUSH0 PUSH0 PUSH0 PUSH0 PUSH0 PUSH1 0xC0 DUP8 DUP10 SUB SLT ISZERO PUSH2 0x2F6 JUMPI PUSH2 0x2F5 PUSH2 0x10B JUMP JUMPDEST JUMPDEST PUSH0 PUSH2 0x303 DUP10 DUP3 DUP11 ADD PUSH2 0x132 JUMP JUMPDEST SWAP7 POP POP PUSH1 0x20 DUP8 ADD MLOAD PUSH8 0xFFFFFFFFFFFFFFFF DUP2 GT ISZERO PUSH2 0x324 JUMPI PUSH2 0x323 PUSH2 0x10F JUMP JUMPDEST JUMPDEST PUSH2 0x330 DUP10 DUP3 DUP11 ADD PUSH2 0x255 JUMP JUMPDEST SWAP6 POP POP PUSH1 0x40 DUP8 ADD MLOAD PUSH8 0xFFFFFFFFFFFFFFFF DUP2 GT ISZERO PUSH2 0x351 JUMPI PUSH2 0x350 PUSH2 0x10F JUMP JUMPDEST JUMPDEST PUSH2 0x35D DUP10 DUP3 DUP11 ADD PUSH2 0x255 JUMP JUMPDEST SWAP5 POP POP PUSH1 0x60 PUSH2 0x36E DUP10 DUP3 DUP11 ADD PUSH2 0x2C8 JUMP JUMPDEST SWAP4 POP POP PUSH1 0x80 PUSH2 0x37F DUP10 DUP3 DUP11 ADD PUSH2 0x132 JUMP JUMPDEST SWAP3 POP POP PUSH1 0xA0 PUSH2 0x390 DUP10 DUP3 DUP11 ADD PUSH2 0x2C8 JUMP JUMPDEST SWAP2 POP POP SWAP3 SWAP6 POP SWAP3 SWAP6 POP SWAP3 SWAP6 JUMP JUMPDEST PUSH0 DUP2 MLOAD SWAP1 POP SWAP2 SWAP1 POP JUMP JUMPDEST PUSH32 0x4E487B7100000000000000000000000000000000000000000000000000000000 PUSH0 MSTORE PUSH1 0x22 PUSH1 0x4 MSTORE PUSH1 0x24 PUSH0 REVERT JUMPDEST PUSH0 PUSH1 0x2 DUP3 DIV SWAP1 POP PUSH1 0x1 DUP3 AND DUP1 PUSH2 0x3EB JUMPI PUSH1 0x7F DUP3 AND SWAP2 POP JUMPDEST PUSH1 0x20 DUP3 LT DUP2 SUB PUSH2 0x3FE JUMPI PUSH2 0x3FD PUSH2 0x3A7 JUMP JUMPDEST JUMPDEST POP SWAP2 SWAP1 POP JUMP JUMPDEST PUSH0 DUP2 SWAP1 POP DUP2 PUSH0 MSTORE PUSH1 0x20 PUSH0 KECCAK256 SWAP1 POP SWAP2 SWAP1 POP JUMP JUMPDEST PUSH0 PUSH1 0x20 PUSH1 0x1F DUP4 ADD DIV SWAP1 POP SWAP2 SWAP1 POP JUMP JUMPDEST PUSH0 DUP3 DUP3 SHL SWAP1 POP SWAP3 SWAP2 POP POP JUMP JUMPDEST PUSH0 PUSH1 0x8 DUP4 MUL PUSH2 0x460 PUSH32 0xFFFFFFFFFFFFFFFFFFFFFFFFFFFFFFFFFFFFFFFFFFFFFFFFFFFFFFFFFFFFFFFF DUP3 PUSH2 0x425 JUMP JUMPDEST PUSH2 0x46A DUP7 DUP4 PUSH2 0x425 JUMP JUMPDEST SWAP6 POP DUP1 NOT DUP5 AND SWAP4 POP DUP1 DUP7 AND DUP5 OR SWAP3 POP POP POP SWAP4 SWAP3 POP POP POP JUMP JUMPDEST PUSH0 DUP2 SWAP1 POP SWAP2 SWAP1 POP JUMP JUMPDEST PUSH0 PUSH2 0x4A5 PUSH2 0x4A0 PUSH2 0x49B DUP5 PUSH2 0x113 JUMP JUMPDEST PUSH2 0x482 JUMP JUMPDEST PUSH2 0x113 JUMP JUMPDEST SWAP1 POP SWAP2 SWAP1 POP JUMP JUMPDEST PUSH0 DUP2 SWAP1 POP SWAP2 SWAP1 POP JUMP JUMPDEST PUSH2 0x4BE DUP4 PUSH2 0x48B JUMP JUMPDEST PUSH2 0x4D2 PUSH2 0x4CA DUP3 PUSH2 0x4AC JUMP JUMPDEST DUP5 DUP5 SLOAD PUSH2 0x431 JUMP JUMPDEST DUP3 SSTORE POP POP POP POP JUMP JUMPDEST PUSH0 PUSH0 SWAP1 POP SWAP1 JUMP JUMPDEST PUSH2 0x4E9 PUSH2 0x4DA JUMP JUMPDEST PUSH2 0x4F4 DUP2 DUP5 DUP5 PUSH2 0x4B5 JUMP JUMPDEST POP POP POP JUMP JUMPDEST JUMPDEST DUP2 DUP2 LT ISZERO PUSH2 0x517 JUMPI PUSH2 0x50C PUSH0 DUP3 PUSH2 0x4E1 JUMP JUMPDEST PUSH1 0x1 DUP2 ADD SWAP1 POP PUSH2 0x4FA JUMP JUMPDEST POP POP JUMP JUMPDEST PUSH1 0x1F DUP3 GT ISZERO PUSH2 0x55C JUMPI PUSH2 0x52D DUP2 PUSH2 0x404 JUMP JUMPDEST PUSH2 0x536 DUP5 PUSH2 0x416 JUMP JUMPDEST DUP2 ADD PUSH1 0x20 DUP6 LT ISZERO PUSH2 0x545 JUMPI DUP2 SWAP1 POP JUMPDEST PUSH2 0x559 PUSH2 0x551 DUP6 PUSH2 0x416 JUMP JUMPDEST DUP4 ADD DUP3 PUSH2 0x4F9 JUMP JUMPDEST POP POP JUMPDEST POP POP POP JUMP JUMPDEST PUSH0 DUP3 DUP3 SHR SWAP1 POP SWAP3 SWAP2 POP POP JUMP JUMPDEST PUSH0 PUSH2 0x57C PUSH0 NOT DUP5 PUSH1 0x8 MUL PUSH2 0x561 JUMP JUMPDEST NOT DUP1 DUP4 AND SWAP2 POP POP SWAP3 SWAP2 POP POP JUMP JUMPDEST PUSH0 PUSH2 0x594 DUP4 DUP4 PUSH2 0x56D JUMP JUMPDEST SWAP2 POP DUP3 PUSH1 0x2 MUL DUP3 OR SWAP1 POP SWAP3 SWAP2 POP POP JUMP JUMPDEST PUSH2 0x5AD DUP3 PUSH2 0x39D JUMP JUMPDEST PUSH8 0xFFFFFFFFFFFFFFFF DUP2 GT ISZERO PUSH2 0x5C6 JUMPI PUSH2 0x5C5 PUSH2 0x15E JUMP JUMPDEST JUMPDEST PUSH2 0x5D0 DUP3 SLOAD PUSH2 0x3D4 JUMP JUMPDEST PUSH2 0x5DB DUP3 DUP3 DUP6 PUSH2 0x51B JUMP JUMPDEST PUSH0 PUSH1 0x20 SWAP1 POP PUSH1 0x1F DUP4 GT PUSH1 0x1 DUP2 EQ PUSH2 0x60C JUMPI PUSH0 DUP5 ISZERO PUSH2 0x5FA JUMPI DUP3 DUP8 ADD MLOAD SWAP1 POP JUMPDEST PUSH2 0x604 DUP6 DUP3 PUSH2 0x589 JUMP JUMPDEST DUP7 SSTORE POP PUSH2 0x66B JUMP JUMPDEST PUSH1 0x1F NOT DUP5 AND PUSH2 0x61A DUP7 PUSH2 0x404 JUMP JUMPDEST PUSH0 JUMPDEST DUP3 DUP2 LT ISZERO PUSH2 0x641 JUMPI DUP5 DUP10 ADD MLOAD DUP3 SSTORE PUSH1 0x1 DUP3 ADD SWAP2 POP PUSH1 0x20 DUP6 ADD SWAP5 POP PUSH1 0x20 DUP2 ADD SWAP1 POP PUSH2 0x61C JUMP JUMPDEST DUP7 DUP4 LT ISZERO PUSH2 0x65E JUMPI DUP5 DUP10 ADD MLOAD PUSH2 0x65A PUSH1 0x1F DUP10 AND DUP3 PUSH2 0x56D JUMP JUMPDEST DUP4 SSTORE POP JUMPDEST PUSH1 0x1 PUSH1 0x2 DUP9 MUL ADD DUP9 SSTORE POP POP POP JUMPDEST POP POP POP POP POP POP JUMP JUMPDEST PUSH2 0x235E DUP1 PUSH2 0x680 PUSH0 CODECOPY PUSH0 RETURN INVALID PUSH1 0x80 PUSH1 0x40 MSTORE PUSH1 0x4 CALLDATASIZE LT PUSH2 0x134 JUMPI PUSH0 CALLDATALOAD PUSH1 0xE0 SHR DUP1 PUSH4 0x83920E90 GT PUSH2 0xAA JUMPI DUP1 PUSH4 0xA39FAC12 GT PUSH2 0x6E JUMPI DUP1 PUSH4 0xA39FAC12 EQ PUSH2 0x405 JUMPI DUP1 PUSH4 0xC45A0155 EQ PUSH2 0x42F JUMPI DUP1 PUSH4 0xC8B342AB EQ PUSH2 0x459 JUMPI DUP1 PUSH4 0xD57BDE79 EQ PUSH2 0x495 JUMPI DUP1 PUSH4 0xD7BB99BA EQ PUSH2 0x4BF JUMPI DUP1 PUSH4 0xEDF26D9B EQ PUSH2 0x4C9 JUMPI PUSH2 0x134 JUMP JUMPDEST DUP1 PUSH4 0x83920E90 EQ PUSH2 0x333 JUMPI DUP1 PUSH4 0x91F90157 EQ PUSH2 0x35D JUMPI DUP1 PUSH4 0x937E09B1 EQ PUSH2 0x387 JUMPI DUP1 PUSH4 0x976AF615 EQ PUSH2 0x3B1 JUMPI DUP1 PUSH4 0x9ACE38C2 EQ PUSH2 0x3C7 JUMPI PUSH2 0x134 JUMP JUMPDEST DUP1 PUSH4 0x4E69D560 GT PUSH2 0xFC JUMPI DUP1 PUSH4 0x4E69D560 EQ PUSH2 0x225 JUMPI DUP1 PUSH4 0x58D65629 EQ PUSH2 0x24F JUMPI DUP1 PUSH4 0x597E1FB5 EQ PUSH2 0x279 JUMPI DUP1 PUSH4 0x5DC1D641 EQ PUSH2 0x2A3 JUMPI DUP1 PUSH4 0x7B87D856 EQ PUSH2 0x2DF JUMPI DUP1 PUSH4 0x82FDE093 EQ PUSH2 0x309 JUMPI PUSH2 0x134 JUMP JUMPDEST DUP1 PUSH4 0xA144391 EQ PUSH2 0x138 JUMPI DUP1 PUSH4 0x3197CBB6 EQ PUSH2 0x174 JUMPI DUP1 PUSH4 0x3BC5DE30 EQ PUSH2 0x19E JUMPI DUP1 PUSH4 0x4051DDAC EQ PUSH2 0x1C8 JUMPI DUP1 PUSH4 0x481C6A75 EQ PUSH2 0x1FB JUMPI JUMPDEST PUSH0 PUSH0 REVERT JUMPDEST CALLVALUE DUP1 ISZERO PUSH2 0x143 JUMPI PUSH0 PUSH0 REVERT JUMPDEST POP PUSH2 0x15E PUSH1 0x4 DUP1 CALLDATASIZE SUB DUP2 ADD SWAP1 PUSH2 0x159 SWAP2 SWAP1 PUSH2 0x18AA JUMP JUMPDEST PUSH2 0x505 JUMP JUMPDEST PUSH1 0x40 MLOAD PUSH2 0x16B SWAP2 SWAP1 PUSH2 0x18EF JUMP JUMPDEST PUSH1 0x40 MLOAD DUP1 SWAP2 SUB SWAP1 RETURN JUMPDEST CALLVALUE DUP1 ISZERO PUSH2 0x17F JUMPI PUSH0 PUSH0 REVERT JUMPDEST POP PUSH2 0x188 PUSH2 0x522 JUMP JUMPDEST PUSH1 0x40 MLOAD PUSH2 0x195 SWAP2 SWAP1 PUSH2 0x1920 JUMP JUMPDEST PUSH1 0x40 MLOAD DUP1 SWAP2 SUB SWAP1 RETURN JUMPDEST CALLVALUE DUP1 ISZERO PUSH2 0x1A9 JUMPI PUSH0 PUSH0 REVERT JUMPDEST POP PUSH2 0x1B2 PUSH2 0x528 JUMP JUMPDEST PUSH1 0x40 MLOAD PUSH2 0x1BF SWAP2 SWAP1 PUSH2 0x19A9 JUMP JUMPDEST PUSH1 0x40 MLOAD DUP1 SWAP2 SUB SWAP1 RETURN JUMPDEST CALLVALUE DUP1 ISZERO PUSH2 0x1D3 JUMPI PUSH0 PUSH0 REVERT JUMPDEST POP PUSH2 0x1DC PUSH2 0x695 JUMP JUMPDEST PUSH1 0x40 MLOAD PUSH2 0x1F2 SWAP11 SWAP10 SWAP9 SWAP8 SWAP7 SWAP6 SWAP5 SWAP4 SWAP3 SWAP2 SWAP1 PUSH2 0x1A8F JUMP JUMPDEST PUSH1 0x40 MLOAD DUP1 SWAP2 SUB SWAP1 RETURN JUMPDEST CALLVALUE DUP1 ISZERO PUSH2 0x206 JUMPI PUSH0 PUSH0 REVERT JUMPDEST POP PUSH2 0x20F PUSH2 0x8B1 JUMP JUMPDEST PUSH1 0x40 MLOAD PUSH2 0x21C SWAP2 SWAP1 PUSH2 0x1B3E JUMP JUMPDEST PUSH1 0x40 MLOAD DUP1 SWAP2 SUB SWAP1 RETURN JUMPDEST CALLVALUE DUP1 ISZERO PUSH2 0x230 JUMPI PUSH0 PUSH0 REVERT JUMPDEST POP PUSH2 0x239 PUSH2 0x8D6 JUMP JUMPDEST PUSH1 0x40 MLOAD PUSH2 0x246 SWAP2 SWAP1 PUSH2 0x18EF JUMP JUMPDEST PUSH1 0x40 MLOAD DUP1 SWAP2 SUB SWAP1 RETURN JUMPDEST CALLVALUE DUP1 ISZERO PUSH2 0x25A JUMPI PUSH0 PUSH0 REVERT JUMPDEST POP PUSH2 0x263 PUSH2 0x8EB JUMP JUMPDEST PUSH1 0x40 MLOAD PUSH2 0x270 SWAP2 SWAP1 PUSH2 0x19A9 JUMP JUMPDEST PUSH1 0x40 MLOAD DUP1 SWAP2 SUB SWAP1 RETURN JUMPDEST CALLVALUE DUP1 ISZERO PUSH2 0x284 JUMPI PUSH0 PUSH0 REVERT JUMPDEST POP PUSH2 0x28D PUSH2 0x977 JUMP JUMPDEST PUSH1 0x40 MLOAD PUSH2 0x29A SWAP2 SWAP1 PUSH2 0x18EF JUMP JUMPDEST PUSH1 0x40 MLOAD DUP1 SWAP2 SUB SWAP1 RETURN JUMPDEST CALLVALUE DUP1 ISZERO PUSH2 0x2AE JUMPI PUSH0 PUSH0 REVERT JUMPDEST POP PUSH2 0x2C9 PUSH1 0x4 DUP1 CALLDATASIZE SUB DUP2 ADD SWAP1 PUSH2 0x2C4 SWAP2 SWAP1 PUSH2 0x18AA JUMP JUMPDEST PUSH2 0x989 JUMP JUMPDEST PUSH1 0x40 MLOAD PUSH2 0x2D6 SWAP2 SWAP1 PUSH2 0x1920 JUMP JUMPDEST PUSH1 0x40 MLOAD DUP1 SWAP2 SUB SWAP1 RETURN JUMPDEST CALLVALUE DUP1 ISZERO PUSH2 0x2EA JUMPI PUSH0 PUSH0 REVERT JUMPDEST POP PUSH2 0x2F3 PUSH2 0x99E JUMP JUMPDEST PUSH1 0x40 MLOAD PUSH2 0x300 SWAP2 SWAP1 PUSH2 0x19A9 JUMP JUMPDEST PUSH1 0x40 MLOAD DUP1 SWAP2 SUB SWAP1 RETURN JUMPDEST CALLVALUE DUP1 ISZERO PUSH2 0x314 JUMPI PUSH0 PUSH0 REVERT JUMPDEST POP PUSH2 0x31D PUSH2 0xA2A JUMP JUMPDEST PUSH1 0x40 MLOAD PUSH2 0x32A SWAP2 SWAP1 PUSH2 0x1920 JUMP JUMPDEST PUSH1 0x40 MLOAD DUP1 SWAP2 SUB SWAP1 RETURN JUMPDEST CALLVALUE DUP1 ISZERO PUSH2 0x33E JUMPI PUSH0 PUSH0 REVERT JUMPDEST POP PUSH2 0x347 PUSH2 0xA30 JUMP JUMPDEST PUSH1 0x40 MLOAD PUSH2 0x354 SWAP2 SWAP1 PUSH2 0x1C4E JUMP JUMPDEST PUSH1 0x40 MLOAD DUP1 SWAP2 SUB SWAP1 RETURN JUMPDEST CALLVALUE DUP1 ISZERO PUSH2 0x368 JUMPI PUSH0 PUSH0 REVERT JUMPDEST POP PUSH2 0x371 PUSH2 0xAF4 JUMP JUMPDEST PUSH1 0x40 MLOAD PUSH2 0x37E SWAP2 SWAP1 PUSH2 0x1B3E JUMP JUMPDEST PUSH1 0x40 MLOAD DUP1 SWAP2 SUB SWAP1 RETURN JUMPDEST CALLVALUE DUP1 ISZERO PUSH2 0x392 JUMPI PUSH0 PUSH0 REVERT JUMPDEST POP PUSH2 0x39B PUSH2 0xB19 JUMP JUMPDEST PUSH1 0x40 MLOAD PUSH2 0x3A8 SWAP2 SWAP1 PUSH2 0x1920 JUMP JUMPDEST PUSH1 0x40 MLOAD DUP1 SWAP2 SUB SWAP1 RETURN JUMPDEST CALLVALUE DUP1 ISZERO PUSH2 0x3BC JUMPI PUSH0 PUSH0 REVERT JUMPDEST POP PUSH2 0x3C5 PUSH2 0xB1F JUMP JUMPDEST STOP JUMPDEST CALLVALUE DUP1 ISZERO PUSH2 0x3D2 JUMPI PUSH0 PUSH0 REVERT JUMPDEST POP PUSH2 0x3ED PUSH1 0x4 DUP1 CALLDATASIZE SUB DUP2 ADD SWAP1 PUSH2 0x3E8 SWAP2 SWAP1 PUSH2 0x1C98 JUMP JUMPDEST PUSH2 0xF79 JUMP JUMPDEST PUSH1 0x40 MLOAD PUSH2 0x3FC SWAP4 SWAP3 SWAP2 SWAP1 PUSH2 0x1CC3 JUMP JUMPDEST PUSH1 0x40 MLOAD DUP1 SWAP2 SUB SWAP1 RETURN JUMPDEST CALLVALUE DUP1 ISZERO PUSH2 0x410 JUMPI PUSH0 PUSH0 REVERT JUMPDEST POP PUSH2 0x419 PUSH2 0xFCD JUMP JUMPDEST PUSH1 0x40 MLOAD PUSH2 0x426 SWAP2 SWAP1 PUSH2 0x1CF8 JUMP JUMPDEST PUSH1 0x40 MLOAD DUP1 SWAP2 SUB SWAP1 RETURN JUMPDEST CALLVALUE DUP1 ISZERO PUSH2 0x43A JUMPI PUSH0 PUSH0 REVERT JUMPDEST POP PUSH2 0x443 PUSH2 0x1058 JUMP JUMPDEST PUSH1 0x40 MLOAD PUSH2 0x450 SWAP2 SWAP1 PUSH2 0x1D73 JUMP JUMPDEST PUSH1 0x40 MLOAD DUP1 SWAP2 SUB SWAP1 RETURN JUMPDEST CALLVALUE DUP1 ISZERO PUSH2 0x464 JUMPI PUSH0 PUSH0 REVERT JUMPDEST POP PUSH2 0x47F PUSH1 0x4 DUP1 CALLDATASIZE SUB DUP2 ADD SWAP1 PUSH2 0x47A SWAP2 SWAP1 PUSH2 0x18AA JUMP JUMPDEST PUSH2 0x107C JUMP JUMPDEST PUSH1 0x40 MLOAD PUSH2 0x48C SWAP2 SWAP1 PUSH2 0x1920 JUMP JUMPDEST PUSH1 0x40 MLOAD DUP1 SWAP2 SUB SWAP1 RETURN JUMPDEST CALLVALUE DUP1 ISZERO PUSH2 0x4A0 JUMPI PUSH0 PUSH0 REVERT JUMPDEST POP PUSH2 0x4A9 PUSH2 0x10C2 JUMP JUMPDEST PUSH1 0x40 MLOAD PUSH2 0x4B6 SWAP2 SWAP1 PUSH2 0x1920 JUMP JUMPDEST PUSH1 0x40 MLOAD DUP1 SWAP2 SUB SWAP1 RETURN JUMPDEST PUSH2 0x4C7 PUSH2 0x10C8 JUMP JUMPDEST STOP JUMPDEST CALLVALUE DUP1 ISZERO PUSH2 0x4D4 JUMPI PUSH0 PUSH0 REVERT JUMPDEST POP PUSH2 0x4EF PUSH1 0x4 DUP1 CALLDATASIZE SUB DUP2 ADD SWAP1 PUSH2 0x4EA SWAP2 SWAP1 PUSH2 0x1C98 JUMP JUMPDEST PUSH2 0x1811 JUMP JUMPDEST PUSH1 0x40 MLOAD PUSH2 0x4FC SWAP2 SWAP1 PUSH2 0x1B3E JUMP JUMPDEST PUSH1 0x40 MLOAD DUP1 SWAP2 SUB SWAP1 RETURN JUMPDEST PUSH1 0x5 PUSH1 0x20 MSTORE DUP1 PUSH0 MSTORE PUSH1 0x40 PUSH0 KECCAK256 PUSH0 SWAP2 POP SLOAD SWAP1 PUSH2 0x100 EXP SWAP1 DIV PUSH1 0xFF AND DUP2 JUMP JUMPDEST PUSH1 0xC SLOAD DUP2 JUMP JUMPDEST PUSH1 0x60 PUSH1 0xD PUSH0 SWAP1 SLOAD SWAP1 PUSH2 0x100 EXP SWAP1 DIV PUSH1 0xFF AND PUSH2 0x578 JUMPI PUSH1 0x40 MLOAD PUSH32 0x8C379A000000000000000000000000000000000000000000000000000000000 DUP2 MSTORE PUSH1 0x4 ADD PUSH2 0x56F SWAP1 PUSH2 0x1DD6 JUMP JUMPDEST PUSH1 0x40 MLOAD DUP1 SWAP2 SUB SWAP1 REVERT JUMPDEST PUSH1 0xA PUSH0 SWAP1 SLOAD SWAP1 PUSH2 0x100 EXP SWAP1 DIV PUSH20 0xFFFFFFFFFFFFFFFFFFFFFFFFFFFFFFFFFFFFFFFF AND PUSH20 0xFFFFFFFFFFFFFFFFFFFFFFFFFFFFFFFFFFFFFFFF AND CALLER PUSH20 0xFFFFFFFFFFFFFFFFFFFFFFFFFFFFFFFFFFFFFFFF AND EQ PUSH2 0x607 JUMPI PUSH1 0x40 MLOAD PUSH32 0x8C379A000000000000000000000000000000000000000000000000000000000 DUP2 MSTORE PUSH1 0x4 ADD PUSH2 0x5FE SWAP1 PUSH2 0x1E3E JUMP JUMPDEST PUSH1 0x40 MLOAD DUP1 SWAP2 SUB SWAP1 REVERT JUMPDEST PUSH1 0x3 DUP1 SLOAD PUSH2 0x614 SWAP1 PUSH2 0x1E89 JUMP JUMPDEST DUP1 PUSH1 0x1F ADD PUSH1 0x20 DUP1 SWAP2 DIV MUL PUSH1 0x20 ADD PUSH1 0x40 MLOAD SWAP1 DUP2 ADD PUSH1 0x40 MSTORE DUP1 SWAP3 SWAP2 SWAP1 DUP2 DUP2 MSTORE PUSH1 0x20 ADD DUP3 DUP1 SLOAD PUSH2 0x640 SWAP1 PUSH2 0x1E89 JUMP JUMPDEST DUP1 ISZERO PUSH2 0x68B JUMPI DUP1 PUSH1 0x1F LT PUSH2 0x662 JUMPI PUSH2 0x100 DUP1 DUP4 SLOAD DIV MUL DUP4 MSTORE SWAP2 PUSH1 0x20 ADD SWAP2 PUSH2 0x68B JUMP JUMPDEST DUP3 ADD SWAP2 SWAP1 PUSH0 MSTORE PUSH1 0x20 PUSH0 KECCAK256 SWAP1 JUMPDEST DUP2 SLOAD DUP2 MSTORE SWAP1 PUSH1 0x1 ADD SWAP1 PUSH1 0x20 ADD DUP1 DUP4 GT PUSH2 0x66E JUMPI DUP3 SWAP1 SUB PUSH1 0x1F AND DUP3 ADD SWAP2 JUMPDEST POP POP POP POP POP SWAP1 POP SWAP1 JUMP JUMPDEST PUSH0 PUSH0 PUSH0 PUSH0 PUSH0 PUSH1 0x60 DUP1 PUSH0 PUSH1 0x60 PUSH0 PUSH1 0x2 SLOAD SELFBALANCE PUSH1 0x7 SLOAD PUSH1 0x1 PUSH0 SWAP1 SLOAD SWAP1 PUSH2 0x100 EXP SWAP1 DIV PUSH20 0xFFFFFFFFFFFFFFFFFFFFFFFFFFFFFFFFFFFFFFFF AND PUSH1 0xB SLOAD PUSH1 0x3 PUSH1 0x4 PUSH1 0xA PUSH0 SWAP1 SLOAD SWAP1 PUSH2 0x100 EXP SWAP1 DIV PUSH20 0xFFFFFFFFFFFFFFFFFFFFFFFFFFFFFFFFFFFFFFFF AND PUSH1 0x8 PUSH1 0xC SLOAD DUP5 DUP1 SLOAD PUSH2 0x704 SWAP1 PUSH2 0x1E89 JUMP JUMPDEST DUP1 PUSH1 0x1F ADD PUSH1 0x20 DUP1 SWAP2 DIV MUL PUSH1 0x20 ADD PUSH1 0x40 MLOAD SWAP1 DUP2 ADD PUSH1 0x40 MSTORE DUP1 SWAP3 SWAP2 SWAP1 DUP2 DUP2 MSTORE PUSH1 0x20 ADD DUP3 DUP1 SLOAD PUSH2 0x730 SWAP1 PUSH2 0x1E89 JUMP JUMPDEST DUP1 ISZERO PUSH2 0x77B JUMPI DUP1 PUSH1 0x1F LT PUSH2 0x752 JUMPI PUSH2 0x100 DUP1 DUP4 SLOAD DIV MUL DUP4 MSTORE SWAP2 PUSH1 0x20 ADD SWAP2 PUSH2 0x77B JUMP JUMPDEST DUP3 ADD SWAP2 SWAP1 PUSH0 MSTORE PUSH1 0x20 PUSH0 KECCAK256 SWAP1 JUMPDEST DUP2 SLOAD DUP2 MSTORE SWAP1 PUSH1 0x1 ADD SWAP1 PUSH1 0x20 ADD DUP1 DUP4 GT PUSH2 0x75E JUMPI DUP3 SWAP1 SUB PUSH1 0x1F AND DUP3 ADD SWAP2 JUMPDEST POP POP POP POP POP SWAP5 POP DUP4 DUP1 SLOAD PUSH2 0x78E SWAP1 PUSH2 0x1E89 JUMP JUMPDEST DUP1 PUSH1 0x1F ADD PUSH1 0x20 DUP1 SWAP2 DIV MUL PUSH1 0x20 ADD PUSH1 0x40 MLOAD SWAP1 DUP2 ADD PUSH1 0x40 MSTORE DUP1 SWAP3 SWAP2 SWAP1 DUP2 DUP2 MSTORE PUSH1 0x20 ADD DUP3 DUP1 SLOAD PUSH2 0x7BA SWAP1 PUSH2 0x1E89 JUMP JUMPDEST DUP1 ISZERO PUSH2 0x805 JUMPI DUP1 PUSH1 0x1F LT PUSH2 0x7DC JUMPI PUSH2 0x100 DUP1 DUP4 SLOAD DIV MUL DUP4 MSTORE SWAP2 PUSH1 0x20 ADD SWAP2 PUSH2 0x805 JUMP JUMPDEST DUP3 ADD SWAP2 SWAP1 PUSH0 MSTORE PUSH1 0x20 PUSH0 KECCAK256 SWAP1 JUMPDEST DUP2 SLOAD DUP2 MSTORE SWAP1 PUSH1 0x1 ADD SWAP1 PUSH1 0x20 ADD DUP1 DUP4 GT PUSH2 0x7E8 JUMPI DUP3 SWAP1 SUB PUSH1 0x1F AND DUP3 ADD SWAP2 JUMPDEST POP POP POP POP POP SWAP4 POP DUP2 DUP1 SLOAD DUP1 PUSH1 0x20 MUL PUSH1 0x20 ADD PUSH1 0x40 MLOAD SWAP1 DUP2 ADD PUSH1 0x40 MSTORE DUP1 SWAP3 SWAP2 SWAP1 DUP2 DUP2 MSTORE PUSH1 0x20 ADD DUP3 DUP1 SLOAD DUP1 ISZERO PUSH2 0x88A JUMPI PUSH1 0x20 MUL DUP3 ADD SWAP2 SWAP1 PUSH0 MSTORE PUSH1 0x20 PUSH0 KECCAK256 SWAP1 JUMPDEST DUP2 PUSH0 SWAP1 SLOAD SWAP1 PUSH2 0x100 EXP SWAP1 DIV PUSH20 0xFFFFFFFFFFFFFFFFFFFFFFFFFFFFFFFFFFFFFFFF AND PUSH20 0xFFFFFFFFFFFFFFFFFFFFFFFFFFFFFFFFFFFFFFFF AND DUP2 MSTORE PUSH1 0x20 ADD SWAP1 PUSH1 0x1 ADD SWAP1 DUP1 DUP4 GT PUSH2 0x841 JUMPI JUMPDEST POP POP POP POP POP SWAP2 POP SWAP10 POP SWAP10 POP SWAP10 POP SWAP10 POP SWAP10 POP SWAP10 POP SWAP10 POP SWAP10 POP SWAP10 POP SWAP10 POP SWAP1 SWAP2 SWAP3 SWAP4 SWAP5 SWAP6 SWAP7 SWAP8 SWAP9 SWAP10 JUMP JUMPDEST PUSH1 0x1 PUSH0 SWAP1 SLOAD SWAP1 PUSH2 0x100 EXP SWAP1 DIV PUSH20 0xFFFFFFFFFFFFFFFFFFFFFFFFFFFFFFFFFFFFFFFF AND DUP2 JUMP JUMPDEST PUSH0 PUSH1 0xD PUSH0 SWAP1 SLOAD SWAP1 PUSH2 0x100 EXP SWAP1 DIV PUSH1 0xFF AND SWAP1 POP SWAP1 JUMP JUMPDEST PUSH1 0x4 DUP1 SLOAD PUSH2 0x8F8 SWAP1 PUSH2 0x1E89 JUMP JUMPDEST DUP1 PUSH1 0x1F ADD PUSH1 0x20 DUP1 SWAP2 DIV MUL PUSH1 0x20 ADD PUSH1 0x40 MLOAD SWAP1 DUP2 ADD PUSH1 0x40 MSTORE DUP1 SWAP3 SWAP2 SWAP1 DUP2 DUP2 MSTORE PUSH1 0x20 ADD DUP3 DUP1 SLOAD PUSH2 0x924 SWAP1 PUSH2 0x1E89 JUMP JUMPDEST DUP1 ISZERO PUSH2 0x96F JUMPI DUP1 PUSH1 0x1F LT PUSH2 0x946 JUMPI PUSH2 0x100 DUP1 DUP4 SLOAD DIV MUL DUP4 MSTORE SWAP2 PUSH1 0x20 ADD SWAP2 PUSH2 0x96F JUMP JUMPDEST DUP3 ADD SWAP2 SWAP1 PUSH0 MSTORE PUSH1 0x20 PUSH0 KECCAK256 SWAP1 JUMPDEST DUP2 SLOAD DUP2 MSTORE SWAP1 PUSH1 0x1 ADD SWAP1 PUSH1 0x20 ADD DUP1 DUP4 GT PUSH2 0x952 JUMPI DUP3 SWAP1 SUB PUSH1 0x1F AND DUP3 ADD SWAP2 JUMPDEST POP POP POP POP POP DUP2 JUMP JUMPDEST PUSH1 0xD PUSH0 SWAP1 SLOAD SWAP1 PUSH2 0x100 EXP SWAP1 DIV PUSH1 0xFF AND DUP2 JUMP JUMPDEST PUSH1 0x6 PUSH1 0x20 MSTORE DUP1 PUSH0 MSTORE PUSH1 0x40 PUSH0 KECCAK256 PUSH0 SWAP2 POP SWAP1 POP SLOAD DUP2 JUMP JUMPDEST PUSH1 0x3 DUP1 SLOAD PUSH2 0x9AB SWAP1 PUSH2 0x1E89 JUMP JUMPDEST DUP1 PUSH1 0x1F ADD PUSH1 0x20 DUP1 SWAP2 DIV MUL PUSH1 0x20 ADD PUSH1 0x40 MLOAD SWAP1 DUP2 ADD PUSH1 0x40 MSTORE DUP1 SWAP3 SWAP2 SWAP1 DUP2 DUP2 MSTORE PUSH1 0x20 ADD DUP3 DUP1 SLOAD PUSH2 0x9D7 SWAP1 PUSH2 0x1E89 JUMP JUMPDEST DUP1 ISZERO PUSH2 0xA22 JUMPI DUP1 PUSH1 0x1F LT PUSH2 0x9F9 JUMPI PUSH2 0x100 DUP1 DUP4 SLOAD DIV MUL DUP4 MSTORE SWAP2 PUSH1 0x20 ADD SWAP2 PUSH2 0xA22 JUMP JUMPDEST DUP3 ADD SWAP2 SWAP1 PUSH0 MSTORE PUSH1 0x20 PUSH0 KECCAK256 SWAP1 JUMPDEST DUP2 SLOAD DUP2 MSTORE SWAP1 PUSH1 0x1 ADD SWAP1 PUSH1 0x20 ADD DUP1 DUP4 GT PUSH2 0xA05 JUMPI DUP3 SWAP1 SUB PUSH1 0x1F AND DUP3 ADD SWAP2 JUMPDEST POP POP POP POP POP DUP2 JUMP JUMPDEST PUSH1 0x7 SLOAD DUP2 JUMP JUMPDEST PUSH1 0x60 PUSH1 0x9 DUP1 SLOAD DUP1 PUSH1 0x20 MUL PUSH1 0x20 ADD PUSH1 0x40 MLOAD SWAP1 DUP2 ADD PUSH1 0x40 MSTORE DUP1 SWAP3 SWAP2 SWAP1 DUP2 DUP2 MSTORE PUSH1 0x20 ADD PUSH0 SWAP1 JUMPDEST DUP3 DUP3 LT ISZERO PUSH2 0xAEB JUMPI DUP4 DUP3 SWAP1 PUSH0 MSTORE PUSH1 0x20 PUSH0 KECCAK256 SWAP1 PUSH1 0x3 MUL ADD PUSH1 0x40 MLOAD DUP1 PUSH1 0x60 ADD PUSH1 0x40 MSTORE SWAP1 DUP2 PUSH0 DUP3 ADD SLOAD DUP2 MSTORE PUSH1 0x20 ADD PUSH1 0x1 DUP3 ADD SLOAD DUP2 MSTORE PUSH1 0x20 ADD PUSH1 0x2 DUP3 ADD PUSH0 SWAP1 SLOAD SWAP1 PUSH2 0x100 EXP SWAP1 DIV PUSH20 0xFFFFFFFFFFFFFFFFFFFFFFFFFFFFFFFFFFFFFFFF AND PUSH20 0xFFFFFFFFFFFFFFFFFFFFFFFFFFFFFFFFFFFFFFFF AND PUSH20 0xFFFFFFFFFFFFFFFFFFFFFFFFFFFFFFFFFFFFFFFF AND DUP2 MSTORE POP POP DUP2 MSTORE PUSH1 0x20 ADD SWAP1 PUSH1 0x1 ADD SWAP1 PUSH2 0xA53 JUMP JUMPDEST POP POP POP POP SWAP1 POP SWAP1 JUMP JUMPDEST PUSH1 0xA PUSH0 SWAP1 SLOAD SWAP1 PUSH2 0x100 EXP SWAP1 DIV PUSH20 0xFFFFFFFFFFFFFFFFFFFFFFFFFFFFFFFFFFFFFFFF AND DUP2 JUMP JUMPDEST PUSH1 0x2 SLOAD DUP2 JUMP JUMPDEST PUSH1 0xC SLOAD TIMESTAMP LT ISZERO PUSH2 0xB64 JUMPI PUSH1 0x40 MLOAD PUSH32 0x8C379A000000000000000000000000000000000000000000000000000000000 DUP2 MSTORE PUSH1 0x4 ADD PUSH2 0xB5B SWAP1 PUSH2 0x1F03 JUMP JUMPDEST PUSH1 0x40 MLOAD DUP1 SWAP2 SUB SWAP1 REVERT JUMPDEST PUSH1 0xD PUSH0 SWAP1 SLOAD SWAP1 PUSH2 0x100 EXP SWAP1 DIV PUSH1 0xFF AND ISZERO PUSH2 0xBB3 JUMPI PUSH1 0x40 MLOAD PUSH32 0x8C379A000000000000000000000000000000000000000000000000000000000 DUP2 MSTORE PUSH1 0x4 ADD PUSH2 0xBAA SWAP1 PUSH2 0x1F6B JUMP JUMPDEST PUSH1 0x40 MLOAD DUP1 SWAP2 SUB SWAP1 REVERT JUMPDEST PUSH0 PUSH0 SWAP1 POP JUMPDEST PUSH1 0x8 DUP1 SLOAD SWAP1 POP DUP2 LT ISZERO PUSH2 0xD86 JUMPI PUSH0 PUSH1 0x8 DUP3 DUP2 SLOAD DUP2 LT PUSH2 0xBDA JUMPI PUSH2 0xBD9 PUSH2 0x1F89 JUMP JUMPDEST JUMPDEST SWAP1 PUSH0 MSTORE PUSH1 0x20 PUSH0 KECCAK256 ADD PUSH0 SWAP1 SLOAD SWAP1 PUSH2 0x100 EXP SWAP1 DIV PUSH20 0xFFFFFFFFFFFFFFFFFFFFFFFFFFFFFFFFFFFFFFFF AND SWAP1 POP PUSH1 0xA PUSH0 SWAP1 SLOAD SWAP1 PUSH2 0x100 EXP SWAP1 DIV PUSH20 0xFFFFFFFFFFFFFFFFFFFFFFFFFFFFFFFFFFFFFFFF AND PUSH20 0xFFFFFFFFFFFFFFFFFFFFFFFFFFFFFFFFFFFFFFFF AND DUP2 PUSH20 0xFFFFFFFFFFFFFFFFFFFFFFFFFFFFFFFFFFFFFFFF AND EQ PUSH2 0xD78 JUMPI PUSH0 PUSH1 0x6 PUSH0 DUP4 PUSH20 0xFFFFFFFFFFFFFFFFFFFFFFFFFFFFFFFFFFFFFFFF AND PUSH20 0xFFFFFFFFFFFFFFFFFFFFFFFFFFFFFFFFFFFFFFFF AND DUP2 MSTORE PUSH1 0x20 ADD SWAP1 DUP2 MSTORE PUSH1 0x20 ADD PUSH0 KECCAK256 SLOAD SWAP1 POP PUSH0 DUP2 GT ISZERO PUSH2 0xD76 JUMPI PUSH0 PUSH1 0x6 PUSH0 DUP5 PUSH20 0xFFFFFFFFFFFFFFFFFFFFFFFFFFFFFFFFFFFFFFFF AND PUSH20 0xFFFFFFFFFFFFFFFFFFFFFFFFFFFFFFFFFFFFFFFF AND DUP2 MSTORE PUSH1 0x20 ADD SWAP1 DUP2 MSTORE PUSH1 0x20 ADD PUSH0 KECCAK256 DUP2 SWAP1 SSTORE POP DUP2 PUSH20 0xFFFFFFFFFFFFFFFFFFFFFFFFFFFFFFFFFFFFFFFF AND PUSH2 0x8FC DUP3 SWAP1 DUP2 ISZERO MUL SWAP1 PUSH1 0x40 MLOAD PUSH0 PUSH1 0x40 MLOAD DUP1 DUP4 SUB DUP2 DUP6 DUP9 DUP9 CALL SWAP4 POP POP POP POP ISZERO DUP1 ISZERO PUSH2 0xD26 JUMPI RETURNDATASIZE PUSH0 PUSH0 RETURNDATACOPY RETURNDATASIZE PUSH0 REVERT JUMPDEST POP DUP2 PUSH20 0xFFFFFFFFFFFFFFFFFFFFFFFFFFFFFFFFFFFFFFFF AND PUSH32 0x3367BEFD2B2F39615CD79917C2153263C4AF1D3945EC003E5D5BFC13A8D85833 DUP3 PUSH1 0x40 MLOAD PUSH2 0xD6D SWAP2 SWAP1 PUSH2 0x1920 JUMP JUMPDEST PUSH1 0x40 MLOAD DUP1 SWAP2 SUB SWAP1 LOG2 JUMPDEST POP JUMPDEST POP DUP1 DUP1 PUSH1 0x1 ADD SWAP2 POP POP PUSH2 0xBB8 JUMP JUMPDEST POP PUSH0 PUSH1 0xB SLOAD GT ISZERO PUSH2 0xF5D JUMPI PUSH1 0xB SLOAD SELFBALANCE LT ISZERO PUSH2 0xDD6 JUMPI PUSH1 0x40 MLOAD PUSH32 0x8C379A000000000000000000000000000000000000000000000000000000000 DUP2 MSTORE PUSH1 0x4 ADD PUSH2 0xDCD SWAP1 PUSH2 0x2000 JUMP JUMPDEST PUSH1 0x40 MLOAD DUP1 SWAP2 SUB SWAP1 REVERT JUMPDEST PUSH1 0x1 PUSH0 SWAP1 SLOAD SWAP1 PUSH2 0x100 EXP SWAP1 DIV PUSH20 0xFFFFFFFFFFFFFFFFFFFFFFFFFFFFFFFFFFFFFFFF AND PUSH20 0xFFFFFFFFFFFFFFFFFFFFFFFFFFFFFFFFFFFFFFFF AND PUSH2 0x8FC PUSH1 0xB SLOAD SWAP1 DUP2 ISZERO MUL SWAP1 PUSH1 0x40 MLOAD PUSH0 PUSH1 0x40 MLOAD DUP1 DUP4 SUB DUP2 DUP6 DUP9 DUP9 CALL SWAP4 POP POP POP POP ISZERO DUP1 ISZERO PUSH2 0xE3C JUMPI RETURNDATASIZE PUSH0 PUSH0 RETURNDATACOPY RETURNDATASIZE PUSH0 REVERT JUMPDEST POP PUSH0 PUSH0 SWAP1 SLOAD SWAP1 PUSH2 0x100 EXP SWAP1 DIV PUSH20 0xFFFFFFFFFFFFFFFFFFFFFFFFFFFFFFFFFFFFFFFF AND PUSH20 0xFFFFFFFFFFFFFFFFFFFFFFFFFFFFFFFFFFFFFFFF AND PUSH4 0x8DFAC90C PUSH1 0x1 PUSH0 SWAP1 SLOAD SWAP1 PUSH2 0x100 EXP SWAP1 DIV PUSH20 0xFFFFFFFFFFFFFFFFFFFFFFFFFFFFFFFFFFFFFFFF AND PUSH1 0xB SLOAD PUSH1 0x1 PUSH1 0x40 MLOAD DUP5 PUSH4 0xFFFFFFFF AND PUSH1 0xE0 SHL DUP2 MSTORE PUSH1 0x4 ADD PUSH2 0xEBE SWAP4 SWAP3 SWAP2 SWAP1 PUSH2 0x201E JUMP JUMPDEST PUSH0 PUSH1 0x40 MLOAD DUP1 DUP4 SUB DUP2 PUSH0 DUP8 DUP1 EXTCODESIZE ISZERO DUP1 ISZERO PUSH2 0xED5 JUMPI PUSH0 PUSH0 REVERT JUMPDEST POP GAS CALL ISZERO DUP1 ISZERO PUSH2 0xEE7 JUMPI RETURNDATASIZE PUSH0 PUSH0 RETURNDATACOPY RETURNDATASIZE PUSH0 REVERT JUMPDEST POP POP POP POP PUSH1 0x1 PUSH0 SWAP1 SLOAD SWAP1 PUSH2 0x100 EXP SWAP1 DIV PUSH20 0xFFFFFFFFFFFFFFFFFFFFFFFFFFFFFFFFFFFFFFFF AND PUSH20 0xFFFFFFFFFFFFFFFFFFFFFFFFFFFFFFFFFFFFFFFF AND PUSH32 0xCB4A9094DA4DF77FB2C0DBAA5047660B1237E61D82A02176C1BE74CA757F2531 PUSH1 0xB SLOAD PUSH1 0x40 MLOAD PUSH2 0xF54 SWAP2 SWAP1 PUSH2 0x1920 JUMP JUMPDEST PUSH1 0x40 MLOAD DUP1 SWAP2 SUB SWAP1 LOG2 JUMPDEST PUSH1 0x1 PUSH1 0xD PUSH0 PUSH2 0x100 EXP DUP2 SLOAD DUP2 PUSH1 0xFF MUL NOT AND SWAP1 DUP4 ISZERO ISZERO MUL OR SWAP1 SSTORE POP JUMP JUMPDEST PUSH1 0x9 DUP2 DUP2 SLOAD DUP2 LT PUSH2 0xF88 JUMPI PUSH0 DUP1 REVERT JUMPDEST SWAP1 PUSH0 MSTORE PUSH1 0x20 PUSH0 KECCAK256 SWAP1 PUSH1 0x3 MUL ADD PUSH0 SWAP2 POP SWAP1 POP DUP1 PUSH0 ADD SLOAD SWAP1 DUP1 PUSH1 0x1 ADD SLOAD SWAP1 DUP1 PUSH1 0x2 ADD PUSH0 SWAP1 SLOAD SWAP1 PUSH2 0x100 EXP SWAP1 DIV PUSH20 0xFFFFFFFFFFFFFFFFFFFFFFFFFFFFFFFFFFFFFFFF AND SWAP1 POP DUP4 JUMP JUMPDEST PUSH1 0x60 PUSH1 0x8 DUP1 SLOAD DUP1 PUSH1 0x20 MUL PUSH1 0x20 ADD PUSH1 0x40 MLOAD SWAP1 DUP2 ADD PUSH1 0x40 MSTORE DUP1 SWAP3 SWAP2 SWAP1 DUP2 DUP2 MSTORE PUSH1 0x20 ADD DUP3 DUP1 SLOAD DUP1 ISZERO PUSH2 0x104E JUMPI PUSH1 0x20 MUL DUP3 ADD SWAP2 SWAP1 PUSH0 MSTORE PUSH1 0x20 PUSH0 KECCAK256 SWAP1 JUMPDEST DUP2 PUSH0 SWAP1 SLOAD SWAP1 PUSH2 0x100 EXP SWAP1 DIV PUSH20 0xFFFFFFFFFFFFFFFFFFFFFFFFFFFFFFFFFFFFFFFF AND PUSH20 0xFFFFFFFFFFFFFFFFFFFFFFFFFFFFFFFFFFFFFFFF AND DUP2 MSTORE PUSH1 0x20 ADD SWAP1 PUSH1 0x1 ADD SWAP1 DUP1 DUP4 GT PUSH2 0x1005 JUMPI JUMPDEST POP POP POP POP POP SWAP1 POP SWAP1 JUMP JUMPDEST PUSH0 PUSH0 SWAP1 SLOAD SWAP1 PUSH2 0x100 EXP SWAP1 DIV PUSH20 0xFFFFFFFFFFFFFFFFFFFFFFFFFFFFFFFFFFFFFFFF AND DUP2 JUMP JUMPDEST PUSH0 PUSH1 0x6 PUSH0 DUP4 PUSH20 0xFFFFFFFFFFFFFFFFFFFFFFFFFFFFFFFFFFFFFFFF AND PUSH20 0xFFFFFFFFFFFFFFFFFFFFFFFFFFFFFFFFFFFFFFFF AND DUP2 MSTORE PUSH1 0x20 ADD SWAP1 DUP2 MSTORE PUSH1 0x20 ADD PUSH0 KECCAK256 SLOAD SWAP1 POP SWAP2 SWAP1 POP JUMP JUMPDEST PUSH1 0xB SLOAD DUP2 JUMP JUMPDEST PUSH1 0xC SLOAD TIMESTAMP LT PUSH2 0x110C JUMPI PUSH1 0x40 MLOAD PUSH32 0x8C379A000000000000000000000000000000000000000000000000000000000 DUP2 MSTORE PUSH1 0x4 ADD PUSH2 0x1103 SWAP1 PUSH2 0x209D JUMP JUMPDEST PUSH1 0x40 MLOAD DUP1 SWAP2 SUB SWAP1 REVERT JUMPDEST PUSH1 0x1 PUSH0 SWAP1 SLOAD SWAP1 PUSH2 0x100 EXP SWAP1 DIV PUSH20 0xFFFFFFFFFFFFFFFFFFFFFFFFFFFFFFFFFFFFFFFF AND PUSH20 0xFFFFFFFFFFFFFFFFFFFFFFFFFFFFFFFFFFFFFFFF AND CALLER PUSH20 0xFFFFFFFFFFFFFFFFFFFFFFFFFFFFFFFFFFFFFFFF AND SUB PUSH2 0x119B JUMPI PUSH1 0x40 MLOAD PUSH32 0x8C379A000000000000000000000000000000000000000000000000000000000 DUP2 MSTORE PUSH1 0x4 ADD PUSH2 0x1192 SWAP1 PUSH2 0x212B JUMP JUMPDEST PUSH1 0x40 MLOAD DUP1 SWAP2 SUB SWAP1 REVERT JUMPDEST PUSH0 CALLVALUE GT PUSH2 0x11DD JUMPI PUSH1 0x40 MLOAD PUSH32 0x8C379A000000000000000000000000000000000000000000000000000000000 DUP2 MSTORE PUSH1 0x4 ADD PUSH2 0x11D4 SWAP1 PUSH2 0x2193 JUMP JUMPDEST PUSH1 0x40 MLOAD DUP1 SWAP2 SUB SWAP1 REVERT JUMPDEST PUSH0 PUSH1 0x6 PUSH0 CALLER PUSH20 0xFFFFFFFFFFFFFFFFFFFFFFFFFFFFFFFFFFFFFFFF AND PUSH20 0xFFFFFFFFFFFFFFFFFFFFFFFFFFFFFFFFFFFFFFFF AND DUP2 MSTORE PUSH1 0x20 ADD SWAP1 DUP2 MSTORE PUSH1 0x20 ADD PUSH0 KECCAK256 SLOAD SWAP1 POP PUSH0 CALLVALUE DUP3 PUSH2 0x122B SWAP2 SWAP1 PUSH2 0x21DE JUMP JUMPDEST SWAP1 POP PUSH0 PUSH20 0xFFFFFFFFFFFFFFFFFFFFFFFFFFFFFFFFFFFFFFFF AND PUSH1 0xA PUSH0 SWAP1 SLOAD SWAP1 PUSH2 0x100 EXP SWAP1 DIV PUSH20 0xFFFFFFFFFFFFFFFFFFFFFFFFFFFFFFFFFFFFFFFF AND PUSH20 0xFFFFFFFFFFFFFFFFFFFFFFFFFFFFFFFFFFFFFFFF AND SUB PUSH2 0x1355 JUMPI PUSH1 0x2 SLOAD DUP2 LT ISZERO PUSH2 0x12C6 JUMPI PUSH1 0x40 MLOAD PUSH32 0x8C379A000000000000000000000000000000000000000000000000000000000 DUP2 MSTORE PUSH1 0x4 ADD PUSH2 0x12BD SWAP1 PUSH2 0x225B JUMP JUMPDEST PUSH1 0x40 MLOAD DUP1 SWAP2 SUB SWAP1 REVERT JUMPDEST PUSH0 PUSH0 SWAP1 SLOAD SWAP1 PUSH2 0x100 EXP SWAP1 DIV PUSH20 0xFFFFFFFFFFFFFFFFFFFFFFFFFFFFFFFFFFFFFFFF AND PUSH20 0xFFFFFFFFFFFFFFFFFFFFFFFFFFFFFFFFFFFFFFFF AND PUSH4 0x8DFAC90C CALLER CALLVALUE PUSH0 PUSH1 0x40 MLOAD DUP5 PUSH4 0xFFFFFFFF AND PUSH1 0xE0 SHL DUP2 MSTORE PUSH1 0x4 ADD PUSH2 0x1323 SWAP4 SWAP3 SWAP2 SWAP1 PUSH2 0x201E JUMP JUMPDEST PUSH0 PUSH1 0x40 MLOAD DUP1 DUP4 SUB DUP2 PUSH0 DUP8 DUP1 EXTCODESIZE ISZERO DUP1 ISZERO PUSH2 0x133A JUMPI PUSH0 PUSH0 REVERT JUMPDEST POP GAS CALL ISZERO DUP1 ISZERO PUSH2 0x134C JUMPI RETURNDATASIZE PUSH0 PUSH0 RETURNDATACOPY RETURNDATASIZE PUSH0 REVERT JUMPDEST POP POP POP POP PUSH2 0x15B6 JUMP JUMPDEST PUSH1 0xB SLOAD DUP2 GT PUSH2 0x1399 JUMPI PUSH1 0x40 MLOAD PUSH32 0x8C379A000000000000000000000000000000000000000000000000000000000 DUP2 MSTORE PUSH1 0x4 ADD PUSH2 0x1390 SWAP1 PUSH2 0x22C3 JUMP JUMPDEST PUSH1 0x40 MLOAD DUP1 SWAP2 SUB SWAP1 REVERT JUMPDEST PUSH1 0xA PUSH0 SWAP1 SLOAD SWAP1 PUSH2 0x100 EXP SWAP1 DIV PUSH20 0xFFFFFFFFFFFFFFFFFFFFFFFFFFFFFFFFFFFFFFFF AND PUSH20 0xFFFFFFFFFFFFFFFFFFFFFFFFFFFFFFFFFFFFFFFF AND CALLER PUSH20 0xFFFFFFFFFFFFFFFFFFFFFFFFFFFFFFFFFFFFFFFF AND EQ PUSH2 0x152A JUMPI PUSH0 PUSH0 SWAP1 SLOAD SWAP1 PUSH2 0x100 EXP SWAP1 DIV PUSH20 0xFFFFFFFFFFFFFFFFFFFFFFFFFFFFFFFFFFFFFFFF AND PUSH20 0xFFFFFFFFFFFFFFFFFFFFFFFFFFFFFFFFFFFFFFFF AND PUSH4 0x8DFAC90C PUSH1 0xA PUSH0 SWAP1 SLOAD SWAP1 PUSH2 0x100 EXP SWAP1 DIV PUSH20 0xFFFFFFFFFFFFFFFFFFFFFFFFFFFFFFFFFFFFFFFF AND PUSH1 0xB SLOAD PUSH1 0x1 PUSH1 0x40 MLOAD DUP5 PUSH4 0xFFFFFFFF AND PUSH1 0xE0 SHL DUP2 MSTORE PUSH1 0x4 ADD PUSH2 0x146E SWAP4 SWAP3 SWAP2 SWAP1 PUSH2 0x201E JUMP JUMPDEST PUSH0 PUSH1 0x40 MLOAD DUP1 DUP4 SUB DUP2 PUSH0 DUP8 DUP1 EXTCODESIZE ISZERO DUP1 ISZERO PUSH2 0x1485 JUMPI PUSH0 PUSH0 REVERT JUMPDEST POP GAS CALL ISZERO DUP1 ISZERO PUSH2 0x1497 JUMPI RETURNDATASIZE PUSH0 PUSH0 RETURNDATACOPY RETURNDATASIZE PUSH0 REVERT JUMPDEST POP POP POP POP PUSH0 PUSH0 SWAP1 SLOAD SWAP1 PUSH2 0x100 EXP SWAP1 DIV PUSH20 0xFFFFFFFFFFFFFFFFFFFFFFFFFFFFFFFFFFFFFFFF AND PUSH20 0xFFFFFFFFFFFFFFFFFFFFFFFFFFFFFFFFFFFFFFFF AND PUSH4 0x8DFAC90C CALLER DUP4 PUSH0 PUSH1 0x40 MLOAD DUP5 PUSH4 0xFFFFFFFF AND PUSH1 0xE0 SHL DUP2 MSTORE PUSH1 0x4 ADD PUSH2 0x14F8 SWAP4 SWAP3 SWAP2 SWAP1 PUSH2 0x201E JUMP JUMPDEST PUSH0 PUSH1 0x40 MLOAD DUP1 DUP4 SUB DUP2 PUSH0 DUP8 DUP1 EXTCODESIZE ISZERO DUP1 ISZERO PUSH2 0x150F JUMPI PUSH0 PUSH0 REVERT JUMPDEST POP GAS CALL ISZERO DUP1 ISZERO PUSH2 0x1521 JUMPI RETURNDATASIZE PUSH0 PUSH0 RETURNDATACOPY RETURNDATASIZE PUSH0 REVERT JUMPDEST POP POP POP POP PUSH2 0x15B5 JUMP JUMPDEST PUSH0 PUSH0 SWAP1 SLOAD SWAP1 PUSH2 0x100 EXP SWAP1 DIV PUSH20 0xFFFFFFFFFFFFFFFFFFFFFFFFFFFFFFFFFFFFFFFF AND PUSH20 0xFFFFFFFFFFFFFFFFFFFFFFFFFFFFFFFFFFFFFFFF AND PUSH4 0x8DFAC90C CALLER CALLVALUE PUSH0 PUSH1 0x40 MLOAD DUP5 PUSH4 0xFFFFFFFF AND PUSH1 0xE0 SHL DUP2 MSTORE PUSH1 0x4 ADD PUSH2 0x1587 SWAP4 SWAP3 SWAP2 SWAP1 PUSH2 0x201E JUMP JUMPDEST PUSH0 PUSH1 0x40 MLOAD DUP1 DUP4 SUB DUP2 PUSH0 DUP8 DUP1 EXTCODESIZE ISZERO DUP1 ISZERO PUSH2 0x159E JUMPI PUSH0 PUSH0 REVERT JUMPDEST POP GAS CALL ISZERO DUP1 ISZERO PUSH2 0x15B0 JUMPI RETURNDATASIZE PUSH0 PUSH0 RETURNDATACOPY RETURNDATASIZE PUSH0 REVERT JUMPDEST POP POP POP POP JUMPDEST JUMPDEST DUP1 PUSH1 0x6 PUSH0 CALLER PUSH20 0xFFFFFFFFFFFFFFFFFFFFFFFFFFFFFFFFFFFFFFFF AND PUSH20 0xFFFFFFFFFFFFFFFFFFFFFFFFFFFFFFFFFFFFFFFF AND DUP2 MSTORE PUSH1 0x20 ADD SWAP1 DUP2 MSTORE PUSH1 0x20 ADD PUSH0 KECCAK256 DUP2 SWAP1 SSTORE POP DUP1 PUSH1 0xB DUP2 SWAP1 SSTORE POP CALLER PUSH1 0xA PUSH0 PUSH2 0x100 EXP DUP2 SLOAD DUP2 PUSH20 0xFFFFFFFFFFFFFFFFFFFFFFFFFFFFFFFFFFFFFFFF MUL NOT AND SWAP1 DUP4 PUSH20 0xFFFFFFFFFFFFFFFFFFFFFFFFFFFFFFFFFFFFFFFF AND MUL OR SWAP1 SSTORE POP PUSH1 0x9 PUSH1 0x40 MLOAD DUP1 PUSH1 0x60 ADD PUSH1 0x40 MSTORE DUP1 CALLVALUE DUP2 MSTORE PUSH1 0x20 ADD TIMESTAMP DUP2 MSTORE PUSH1 0x20 ADD CALLER PUSH20 0xFFFFFFFFFFFFFFFFFFFFFFFFFFFFFFFFFFFFFFFF AND DUP2 MSTORE POP SWAP1 DUP1 PUSH1 0x1 DUP2 SLOAD ADD DUP1 DUP3 SSTORE DUP1 SWAP2 POP POP PUSH1 0x1 SWAP1 SUB SWAP1 PUSH0 MSTORE PUSH1 0x20 PUSH0 KECCAK256 SWAP1 PUSH1 0x3 MUL ADD PUSH0 SWAP1 SWAP2 SWAP1 SWAP2 SWAP1 SWAP2 POP PUSH0 DUP3 ADD MLOAD DUP2 PUSH0 ADD SSTORE PUSH1 0x20 DUP3 ADD MLOAD DUP2 PUSH1 0x1 ADD SSTORE PUSH1 0x40 DUP3 ADD MLOAD DUP2 PUSH1 0x2 ADD PUSH0 PUSH2 0x100 EXP DUP2 SLOAD DUP2 PUSH20 0xFFFFFFFFFFFFFFFFFFFFFFFFFFFFFFFFFFFFFFFF MUL NOT AND SWAP1 DUP4 PUSH20 0xFFFFFFFFFFFFFFFFFFFFFFFFFFFFFFFFFFFFFFFF AND MUL OR SWAP1 SSTORE POP POP POP PUSH1 0x5 PUSH0 CALLER PUSH20 0xFFFFFFFFFFFFFFFFFFFFFFFFFFFFFFFFFFFFFFFF AND PUSH20 0xFFFFFFFFFFFFFFFFFFFFFFFFFFFFFFFFFFFFFFFF AND DUP2 MSTORE PUSH1 0x20 ADD SWAP1 DUP2 MSTORE PUSH1 0x20 ADD PUSH0 KECCAK256 PUSH0 SWAP1 SLOAD SWAP1 PUSH2 0x100 EXP SWAP1 DIV PUSH1 0xFF AND PUSH2 0x180D JUMPI PUSH1 0x1 PUSH1 0x5 PUSH0 CALLER PUSH20 0xFFFFFFFFFFFFFFFFFFFFFFFFFFFFFFFFFFFFFFFF AND PUSH20 0xFFFFFFFFFFFFFFFFFFFFFFFFFFFFFFFFFFFFFFFF AND DUP2 MSTORE PUSH1 0x20 ADD SWAP1 DUP2 MSTORE PUSH1 0x20 ADD PUSH0 KECCAK256 PUSH0 PUSH2 0x100 EXP DUP2 SLOAD DUP2 PUSH1 0xFF MUL NOT AND SWAP1 DUP4 ISZERO ISZERO MUL OR SWAP1 SSTORE POP PUSH1 0x7 PUSH0 DUP2 SLOAD DUP1 SWAP3 SWAP2 SWAP1 PUSH2 0x17A7 SWAP1 PUSH2 0x22E1 JUMP JUMPDEST SWAP2 SWAP1 POP SSTORE POP PUSH1 0x8 CALLER SWAP1 DUP1 PUSH1 0x1 DUP2 SLOAD ADD DUP1 DUP3 SSTORE DUP1 SWAP2 POP POP PUSH1 0x1 SWAP1 SUB SWAP1 PUSH0 MSTORE PUSH1 0x20 PUSH0 KECCAK256 ADD PUSH0 SWAP1 SWAP2 SWAP1 SWAP2 SWAP1 SWAP2 PUSH2 0x100 EXP DUP2 SLOAD DUP2 PUSH20 0xFFFFFFFFFFFFFFFFFFFFFFFFFFFFFFFFFFFFFFFF MUL NOT AND SWAP1 DUP4 PUSH20 0xFFFFFFFFFFFFFFFFFFFFFFFFFFFFFFFFFFFFFFFF AND MUL OR SWAP1 SSTORE POP JUMPDEST POP POP JUMP JUMPDEST PUSH1 0x8 DUP2 DUP2 SLOAD DUP2 LT PUSH2 0x1820 JUMPI PUSH0 DUP1 REVERT JUMPDEST SWAP1 PUSH0 MSTORE PUSH1 0x20 PUSH0 KECCAK256 ADD PUSH0 SWAP2 POP SLOAD SWAP1 PUSH2 0x100 EXP SWAP1 DIV PUSH20 0xFFFFFFFFFFFFFFFFFFFFFFFFFFFFFFFFFFFFFFFF AND DUP2 JUMP JUMPDEST PUSH0 PUSH0 REVERT JUMPDEST PUSH0 PUSH20 0xFFFFFFFFFFFFFFFFFFFFFFFFFFFFFFFFFFFFFFFF DUP3 AND SWAP1 POP SWAP2 SWAP1 POP JUMP JUMPDEST PUSH0 PUSH2 0x1879 DUP3 PUSH2 0x1850 JUMP JUMPDEST SWAP1 POP SWAP2 SWAP1 POP JUMP JUMPDEST PUSH2 0x1889 DUP2 PUSH2 0x186F JUMP JUMPDEST DUP2 EQ PUSH2 0x1893 JUMPI PUSH0 PUSH0 REVERT JUMPDEST POP JUMP JUMPDEST PUSH0 DUP2 CALLDATALOAD SWAP1 POP PUSH2 0x18A4 DUP2 PUSH2 0x1880 JUMP JUMPDEST SWAP3 SWAP2 POP POP JUMP JUMPDEST PUSH0 PUSH1 0x20 DUP3 DUP5 SUB SLT ISZERO PUSH2 0x18BF JUMPI PUSH2 0x18BE PUSH2 0x184C JUMP JUMPDEST JUMPDEST PUSH0 PUSH2 0x18CC DUP5 DUP3 DUP6 ADD PUSH2 0x1896 JUMP JUMPDEST SWAP2 POP POP SWAP3 SWAP2 POP POP JUMP JUMPDEST PUSH0 DUP2 ISZERO ISZERO SWAP1 POP SWAP2 SWAP1 POP JUMP JUMPDEST PUSH2 0x18E9 DUP2 PUSH2 0x18D5 JUMP JUMPDEST DUP3 MSTORE POP POP JUMP JUMPDEST PUSH0 PUSH1 0x20 DUP3 ADD SWAP1 POP PUSH2 0x1902 PUSH0 DUP4 ADD DUP5 PUSH2 0x18E0 JUMP JUMPDEST SWAP3 SWAP2 POP POP JUMP JUMPDEST PUSH0 DUP2 SWAP1 POP SWAP2 SWAP1 POP JUMP JUMPDEST PUSH2 0x191A DUP2 PUSH2 0x1908 JUMP JUMPDEST DUP3 MSTORE POP POP JUMP JUMPDEST PUSH0 PUSH1 0x20 DUP3 ADD SWAP1 POP PUSH2 0x1933 PUSH0 DUP4 ADD DUP5 PUSH2 0x1911 JUMP JUMPDEST SWAP3 SWAP2 POP POP JUMP JUMPDEST PUSH0 DUP2 MLOAD SWAP1 POP SWAP2 SWAP1 POP JUMP JUMPDEST PUSH0 DUP3 DUP3 MSTORE PUSH1 0x20 DUP3 ADD SWAP1 POP SWAP3 SWAP2 POP POP JUMP JUMPDEST DUP3 DUP2 DUP4 MCOPY PUSH0 DUP4 DUP4 ADD MSTORE POP POP POP JUMP JUMPDEST PUSH0 PUSH1 0x1F NOT PUSH1 0x1F DUP4 ADD AND SWAP1 POP SWAP2 SWAP1 POP JUMP JUMPDEST PUSH0 PUSH2 0x197B DUP3 PUSH2 0x1939 JUMP JUMPDEST PUSH2 0x1985 DUP2 DUP6 PUSH2 0x1943 JUMP JUMPDEST SWAP4 POP PUSH2 0x1995 DUP2 DUP6 PUSH1 0x20 DUP7 ADD PUSH2 0x1953 JUMP JUMPDEST PUSH2 0x199E DUP2 PUSH2 0x1961 JUMP JUMPDEST DUP5 ADD SWAP2 POP POP SWAP3 SWAP2 POP POP JUMP JUMPDEST PUSH0 PUSH1 0x20 DUP3 ADD SWAP1 POP DUP2 DUP2 SUB PUSH0 DUP4 ADD MSTORE PUSH2 0x19C1 DUP2 DUP5 PUSH2 0x1971 JUMP JUMPDEST SWAP1 POP SWAP3 SWAP2 POP POP JUMP JUMPDEST PUSH2 0x19D2 DUP2 PUSH2 0x186F JUMP JUMPDEST DUP3 MSTORE POP POP JUMP JUMPDEST PUSH0 DUP2 MLOAD SWAP1 POP SWAP2 SWAP1 POP JUMP JUMPDEST PUSH0 DUP3 DUP3 MSTORE PUSH1 0x20 DUP3 ADD SWAP1 POP SWAP3 SWAP2 POP POP JUMP JUMPDEST PUSH0 DUP2 SWAP1 POP PUSH1 0x20 DUP3 ADD SWAP1 POP SWAP2 SWAP1 POP JUMP JUMPDEST PUSH2 0x1A0A DUP2 PUSH2 0x186F JUMP JUMPDEST DUP3 MSTORE POP POP JUMP JUMPDEST PUSH0 PUSH2 0x1A1B DUP4 DUP4 PUSH2 0x1A01 JUMP JUMPDEST PUSH1 0x20 DUP4 ADD SWAP1 POP SWAP3 SWAP2 POP POP JUMP JUMPDEST PUSH0 PUSH1 0x20 DUP3 ADD SWAP1 POP SWAP2 SWAP1 POP JUMP JUMPDEST PUSH0 PUSH2 0x1A3D DUP3 PUSH2 0x19D8 JUMP JUMPDEST PUSH2 0x1A47 DUP2 DUP6 PUSH2 0x19E2 JUMP JUMPDEST SWAP4 POP PUSH2 0x1A52 DUP4 PUSH2 0x19F2 JUMP JUMPDEST DUP1 PUSH0 JUMPDEST DUP4 DUP2 LT ISZERO PUSH2 0x1A82 JUMPI DUP2 MLOAD PUSH2 0x1A69 DUP9 DUP3 PUSH2 0x1A10 JUMP JUMPDEST SWAP8 POP PUSH2 0x1A74 DUP4 PUSH2 0x1A27 JUMP JUMPDEST SWAP3 POP POP PUSH1 0x1 DUP2 ADD SWAP1 POP PUSH2 0x1A55 JUMP JUMPDEST POP DUP6 SWAP4 POP POP POP POP SWAP3 SWAP2 POP POP JUMP JUMPDEST PUSH0 PUSH2 0x140 DUP3 ADD SWAP1 POP PUSH2 0x1AA3 PUSH0 DUP4 ADD DUP14 PUSH2 0x1911 JUMP JUMPDEST PUSH2 0x1AB0 PUSH1 0x20 DUP4 ADD DUP13 PUSH2 0x1911 JUMP JUMPDEST PUSH2 0x1ABD PUSH1 0x40 DUP4 ADD DUP12 PUSH2 0x1911 JUMP JUMPDEST PUSH2 0x1ACA PUSH1 0x60 DUP4 ADD DUP11 PUSH2 0x19C9 JUMP JUMPDEST PUSH2 0x1AD7 PUSH1 0x80 DUP4 ADD DUP10 PUSH2 0x1911 JUMP JUMPDEST DUP2 DUP2 SUB PUSH1 0xA0 DUP4 ADD MSTORE PUSH2 0x1AE9 DUP2 DUP9 PUSH2 0x1971 JUMP JUMPDEST SWAP1 POP DUP2 DUP2 SUB PUSH1 0xC0 DUP4 ADD MSTORE PUSH2 0x1AFD DUP2 DUP8 PUSH2 0x1971 JUMP JUMPDEST SWAP1 POP PUSH2 0x1B0C PUSH1 0xE0 DUP4 ADD DUP7 PUSH2 0x19C9 JUMP JUMPDEST DUP2 DUP2 SUB PUSH2 0x100 DUP4 ADD MSTORE PUSH2 0x1B1F DUP2 DUP6 PUSH2 0x1A33 JUMP JUMPDEST SWAP1 POP PUSH2 0x1B2F PUSH2 0x120 DUP4 ADD DUP5 PUSH2 0x1911 JUMP JUMPDEST SWAP12 SWAP11 POP POP POP POP POP POP POP POP POP POP POP JUMP JUMPDEST PUSH0 PUSH1 0x20 DUP3 ADD SWAP1 POP PUSH2 0x1B51 PUSH0 DUP4 ADD DUP5 PUSH2 0x19C9 JUMP JUMPDEST SWAP3 SWAP2 POP POP JUMP JUMPDEST PUSH0 DUP2 MLOAD SWAP1 POP SWAP2 SWAP1 POP JUMP JUMPDEST PUSH0 DUP3 DUP3 MSTORE PUSH1 0x20 DUP3 ADD SWAP1 POP SWAP3 SWAP2 POP POP JUMP JUMPDEST PUSH0 DUP2 SWAP1 POP PUSH1 0x20 DUP3 ADD SWAP1 POP SWAP2 SWAP1 POP JUMP JUMPDEST PUSH2 0x1B89 DUP2 PUSH2 0x1908 JUMP JUMPDEST DUP3 MSTORE POP POP JUMP JUMPDEST PUSH1 0x60 DUP3 ADD PUSH0 DUP3 ADD MLOAD PUSH2 0x1BA3 PUSH0 DUP6 ADD DUP3 PUSH2 0x1B80 JUMP JUMPDEST POP PUSH1 0x20 DUP3 ADD MLOAD PUSH2 0x1BB6 PUSH1 0x20 DUP6 ADD DUP3 PUSH2 0x1B80 JUMP JUMPDEST POP PUSH1 0x40 DUP3 ADD MLOAD PUSH2 0x1BC9 PUSH1 0x40 DUP6 ADD DUP3 PUSH2 0x1A01 JUMP JUMPDEST POP POP POP POP JUMP JUMPDEST PUSH0 PUSH2 0x1BDA DUP4 DUP4 PUSH2 0x1B8F JUMP JUMPDEST PUSH1 0x60 DUP4 ADD SWAP1 POP SWAP3 SWAP2 POP POP JUMP JUMPDEST PUSH0 PUSH1 0x20 DUP3 ADD SWAP1 POP SWAP2 SWAP1 POP JUMP JUMPDEST PUSH0 PUSH2 0x1BFC DUP3 PUSH2 0x1B57 JUMP JUMPDEST PUSH2 0x1C06 DUP2 DUP6 PUSH2 0x1B61 JUMP JUMPDEST SWAP4 POP PUSH2 0x1C11 DUP4 PUSH2 0x1B71 JUMP JUMPDEST DUP1 PUSH0 JUMPDEST DUP4 DUP2 LT ISZERO PUSH2 0x1C41 JUMPI DUP2 MLOAD PUSH2 0x1C28 DUP9 DUP3 PUSH2 0x1BCF JUMP JUMPDEST SWAP8 POP PUSH2 0x1C33 DUP4 PUSH2 0x1BE6 JUMP JUMPDEST SWAP3 POP POP PUSH1 0x1 DUP2 ADD SWAP1 POP PUSH2 0x1C14 JUMP JUMPDEST POP DUP6 SWAP4 POP POP POP POP SWAP3 SWAP2 POP POP JUMP JUMPDEST PUSH0 PUSH1 0x20 DUP3 ADD SWAP1 POP DUP2 DUP2 SUB PUSH0 DUP4 ADD MSTORE PUSH2 0x1C66 DUP2 DUP5 PUSH2 0x1BF2 JUMP JUMPDEST SWAP1 POP SWAP3 SWAP2 POP POP JUMP JUMPDEST PUSH2 0x1C77 DUP2 PUSH2 0x1908 JUMP JUMPDEST DUP2 EQ PUSH2 0x1C81 JUMPI PUSH0 PUSH0 REVERT JUMPDEST POP JUMP JUMPDEST PUSH0 DUP2 CALLDATALOAD SWAP1 POP PUSH2 0x1C92 DUP2 PUSH2 0x1C6E JUMP JUMPDEST SWAP3 SWAP2 POP POP JUMP JUMPDEST PUSH0 PUSH1 0x20 DUP3 DUP5 SUB SLT ISZERO PUSH2 0x1CAD JUMPI PUSH2 0x1CAC PUSH2 0x184C JUMP JUMPDEST JUMPDEST PUSH0 PUSH2 0x1CBA DUP5 DUP3 DUP6 ADD PUSH2 0x1C84 JUMP JUMPDEST SWAP2 POP POP SWAP3 SWAP2 POP POP JUMP JUMPDEST PUSH0 PUSH1 0x60 DUP3 ADD SWAP1 POP PUSH2 0x1CD6 PUSH0 DUP4 ADD DUP7 PUSH2 0x1911 JUMP JUMPDEST PUSH2 0x1CE3 PUSH1 0x20 DUP4 ADD DUP6 PUSH2 0x1911 JUMP JUMPDEST PUSH2 0x1CF0 PUSH1 0x40 DUP4 ADD DUP5 PUSH2 0x19C9 JUMP JUMPDEST SWAP5 SWAP4 POP POP POP POP JUMP JUMPDEST PUSH0 PUSH1 0x20 DUP3 ADD SWAP1 POP DUP2 DUP2 SUB PUSH0 DUP4 ADD MSTORE PUSH2 0x1D10 DUP2 DUP5 PUSH2 0x1A33 JUMP JUMPDEST SWAP1 POP SWAP3 SWAP2 POP POP JUMP JUMPDEST PUSH0 DUP2 SWAP1 POP SWAP2 SWAP1 POP JUMP JUMPDEST PUSH0 PUSH2 0x1D3B PUSH2 0x1D36 PUSH2 0x1D31 DUP5 PUSH2 0x1850 JUMP JUMPDEST PUSH2 0x1D18 JUMP JUMPDEST PUSH2 0x1850 JUMP JUMPDEST SWAP1 POP SWAP2 SWAP1 POP JUMP JUMPDEST PUSH0 PUSH2 0x1D4C DUP3 PUSH2 0x1D21 JUMP JUMPDEST SWAP1 POP SWAP2 SWAP1 POP JUMP JUMPDEST PUSH0 PUSH2 0x1D5D DUP3 PUSH2 0x1D42 JUMP JUMPDEST SWAP1 POP SWAP2 SWAP1 POP JUMP JUMPDEST PUSH2 0x1D6D DUP2 PUSH2 0x1D53 JUMP JUMPDEST DUP3 MSTORE POP POP JUMP JUMPDEST PUSH0 PUSH1 0x20 DUP3 ADD SWAP1 POP PUSH2 0x1D86 PUSH0 DUP4 ADD DUP5 PUSH2 0x1D64 JUMP JUMPDEST SWAP3 SWAP2 POP POP JUMP JUMPDEST PUSH32 0x41756374696F6E206E6F742066696E616C697A65640000000000000000000000 PUSH0 DUP3 ADD MSTORE POP JUMP JUMPDEST PUSH0 PUSH2 0x1DC0 PUSH1 0x15 DUP4 PUSH2 0x1943 JUMP JUMPDEST SWAP2 POP PUSH2 0x1DCB DUP3 PUSH2 0x1D8C JUMP JUMPDEST PUSH1 0x20 DUP3 ADD SWAP1 POP SWAP2 SWAP1 POP JUMP JUMPDEST PUSH0 PUSH1 0x20 DUP3 ADD SWAP1 POP DUP2 DUP2 SUB PUSH0 DUP4 ADD MSTORE PUSH2 0x1DED DUP2 PUSH2 0x1DB4 JUMP JUMPDEST SWAP1 POP SWAP2 SWAP1 POP JUMP JUMPDEST PUSH32 0x4F6E6C792077696E6E65722063616E2061636365737320746865206461746100 PUSH0 DUP3 ADD MSTORE POP JUMP JUMPDEST PUSH0 PUSH2 0x1E28 PUSH1 0x1F DUP4 PUSH2 0x1943 JUMP JUMPDEST SWAP2 POP PUSH2 0x1E33 DUP3 PUSH2 0x1DF4 JUMP JUMPDEST PUSH1 0x20 DUP3 ADD SWAP1 POP SWAP2 SWAP1 POP JUMP JUMPDEST PUSH0 PUSH1 0x20 DUP3 ADD SWAP1 POP DUP2 DUP2 SUB PUSH0 DUP4 ADD MSTORE PUSH2 0x1E55 DUP2 PUSH2 0x1E1C JUMP JUMPDEST SWAP1 POP SWAP2 SWAP1 POP JUMP JUMPDEST PUSH32 0x4E487B7100000000000000000000000000000000000000000000000000000000 PUSH0 MSTORE PUSH1 0x22 PUSH1 0x4 MSTORE PUSH1 0x24 PUSH0 REVERT JUMPDEST PUSH0 PUSH1 0x2 DUP3 DIV SWAP1 POP PUSH1 0x1 DUP3 AND DUP1 PUSH2 0x1EA0 JUMPI PUSH1 0x7F DUP3 AND SWAP2 POP JUMPDEST PUSH1 0x20 DUP3 LT DUP2 SUB PUSH2 0x1EB3 JUMPI PUSH2 0x1EB2 PUSH2 0x1E5C JUMP JUMPDEST JUMPDEST POP SWAP2 SWAP1 POP JUMP JUMPDEST PUSH32 0x41756374696F6E206E6F7420656E646564207965740000000000000000000000 PUSH0 DUP3 ADD MSTORE POP JUMP JUMPDEST PUSH0 PUSH2 0x1EED PUSH1 0x15 DUP4 PUSH2 0x1943 JUMP JUMPDEST SWAP2 POP PUSH2 0x1EF8 DUP3 PUSH2 0x1EB9 JUMP JUMPDEST PUSH1 0x20 DUP3 ADD SWAP1 POP SWAP2 SWAP1 POP JUMP JUMPDEST PUSH0 PUSH1 0x20 DUP3 ADD SWAP1 POP DUP2 DUP2 SUB PUSH0 DUP4 ADD MSTORE PUSH2 0x1F1A DUP2 PUSH2 0x1EE1 JUMP JUMPDEST SWAP1 POP SWAP2 SWAP1 POP JUMP JUMPDEST PUSH32 0x41756374696F6E20616C72656164792066696E616C697A656400000000000000 PUSH0 DUP3 ADD MSTORE POP JUMP JUMPDEST PUSH0 PUSH2 0x1F55 PUSH1 0x19 DUP4 PUSH2 0x1943 JUMP JUMPDEST SWAP2 POP PUSH2 0x1F60 DUP3 PUSH2 0x1F21 JUMP JUMPDEST PUSH1 0x20 DUP3 ADD SWAP1 POP SWAP2 SWAP1 POP JUMP JUMPDEST PUSH0 PUSH1 0x20 DUP3 ADD SWAP1 POP DUP2 DUP2 SUB PUSH0 DUP4 ADD MSTORE PUSH2 0x1F82 DUP2 PUSH2 0x1F49 JUMP JUMPDEST SWAP1 POP SWAP2 SWAP1 POP JUMP JUMPDEST PUSH32 0x4E487B7100000000000000000000000000000000000000000000000000000000 PUSH0 MSTORE PUSH1 0x32 PUSH1 0x4 MSTORE PUSH1 0x24 PUSH0 REVERT JUMPDEST PUSH32 0x496E73756666696369656E742062616C616E6365000000000000000000000000 PUSH0 DUP3 ADD MSTORE POP JUMP JUMPDEST PUSH0 PUSH2 0x1FEA PUSH1 0x14 DUP4 PUSH2 0x1943 JUMP JUMPDEST SWAP2 POP PUSH2 0x1FF5 DUP3 PUSH2 0x1FB6 JUMP JUMPDEST PUSH1 0x20 DUP3 ADD SWAP1 POP SWAP2 SWAP1 POP JUMP JUMPDEST PUSH0 PUSH1 0x20 DUP3 ADD SWAP1 POP DUP2 DUP2 SUB PUSH0 DUP4 ADD MSTORE PUSH2 0x2017 DUP2 PUSH2 0x1FDE JUMP JUMPDEST SWAP1 POP SWAP2 SWAP1 POP JUMP JUMPDEST PUSH0 PUSH1 0x60 DUP3 ADD SWAP1 POP PUSH2 0x2031 PUSH0 DUP4 ADD DUP7 PUSH2 0x19C9 JUMP JUMPDEST PUSH2 0x203E PUSH1 0x20 DUP4 ADD DUP6 PUSH2 0x1911 JUMP JUMPDEST PUSH2 0x204B PUSH1 0x40 DUP4 ADD DUP5 PUSH2 0x18E0 JUMP JUMPDEST SWAP5 SWAP4 POP POP POP POP JUMP JUMPDEST PUSH32 0x41756374696F6E20656E64656400000000000000000000000000000000000000 PUSH0 DUP3 ADD MSTORE POP JUMP JUMPDEST PUSH0 PUSH2 0x2087 PUSH1 0xD DUP4 PUSH2 0x1943 JUMP JUMPDEST SWAP2 POP PUSH2 0x2092 DUP3 PUSH2 0x2053 JUMP JUMPDEST PUSH1 0x20 DUP3 ADD SWAP1 POP SWAP2 SWAP1 POP JUMP JUMPDEST PUSH0 PUSH1 0x20 DUP3 ADD SWAP1 POP DUP2 DUP2 SUB PUSH0 DUP4 ADD MSTORE PUSH2 0x20B4 DUP2 PUSH2 0x207B JUMP JUMPDEST SWAP1 POP SWAP2 SWAP1 POP JUMP JUMPDEST PUSH32 0x596F752063616E277420626964206F6E20796F7572206F776E2061756374696F PUSH0 DUP3 ADD MSTORE PUSH32 0x6E00000000000000000000000000000000000000000000000000000000000000 PUSH1 0x20 DUP3 ADD MSTORE POP JUMP JUMPDEST PUSH0 PUSH2 0x2115 PUSH1 0x21 DUP4 PUSH2 0x1943 JUMP JUMPDEST SWAP2 POP PUSH2 0x2120 DUP3 PUSH2 0x20BB JUMP JUMPDEST PUSH1 0x40 DUP3 ADD SWAP1 POP SWAP2 SWAP1 POP JUMP JUMPDEST PUSH0 PUSH1 0x20 DUP3 ADD SWAP1 POP DUP2 DUP2 SUB PUSH0 DUP4 ADD MSTORE PUSH2 0x2142 DUP2 PUSH2 0x2109 JUMP JUMPDEST SWAP1 POP SWAP2 SWAP1 POP JUMP JUMPDEST PUSH32 0x4D7573742073656E6420736F6D65206574686572000000000000000000000000 PUSH0 DUP3 ADD MSTORE POP JUMP JUMPDEST PUSH0 PUSH2 0x217D PUSH1 0x14 DUP4 PUSH2 0x1943 JUMP JUMPDEST SWAP2 POP PUSH2 0x2188 DUP3 PUSH2 0x2149 JUMP JUMPDEST PUSH1 0x20 DUP3 ADD SWAP1 POP SWAP2 SWAP1 POP JUMP JUMPDEST PUSH0 PUSH1 0x20 DUP3 ADD SWAP1 POP DUP2 DUP2 SUB PUSH0 DUP4 ADD MSTORE PUSH2 0x21AA DUP2 PUSH2 0x2171 JUMP JUMPDEST SWAP1 POP SWAP2 SWAP1 POP JUMP JUMPDEST PUSH32 0x4E487B7100000000000000000000000000000000000000000000000000000000 PUSH0 MSTORE PUSH1 0x11 PUSH1 0x4 MSTORE PUSH1 0x24 PUSH0 REVERT JUMPDEST PUSH0 PUSH2 0x21E8 DUP3 PUSH2 0x1908 JUMP JUMPDEST SWAP2 POP PUSH2 0x21F3 DUP4 PUSH2 0x1908 JUMP JUMPDEST SWAP3 POP DUP3 DUP3 ADD SWAP1 POP DUP1 DUP3 GT ISZERO PUSH2 0x220B JUMPI PUSH2 0x220A PUSH2 0x21B1 JUMP JUMPDEST JUMPDEST SWAP3 SWAP2 POP POP JUMP JUMPDEST PUSH32 0x42656C6F77206D696E696D756D20626964000000000000000000000000000000 PUSH0 DUP3 ADD MSTORE POP JUMP JUMPDEST PUSH0 PUSH2 0x2245 PUSH1 0x11 DUP4 PUSH2 0x1943 JUMP JUMPDEST SWAP2 POP PUSH2 0x2250 DUP3 PUSH2 0x2211 JUMP JUMPDEST PUSH1 0x20 DUP3 ADD SWAP1 POP SWAP2 SWAP1 POP JUMP JUMPDEST PUSH0 PUSH1 0x20 DUP3 ADD SWAP1 POP DUP2 DUP2 SUB PUSH0 DUP4 ADD MSTORE PUSH2 0x2272 DUP2 PUSH2 0x2239 JUMP JUMPDEST SWAP1 POP SWAP2 SWAP1 POP JUMP JUMPDEST PUSH32 0x426964206D757374206578636565642063757272656E74206869676865737400 PUSH0 DUP3 ADD MSTORE POP JUMP JUMPDEST PUSH0 PUSH2 0x22AD PUSH1 0x1F DUP4 PUSH2 0x1943 JUMP JUMPDEST SWAP2 POP PUSH2 0x22B8 DUP3 PUSH2 0x2279 JUMP JUMPDEST PUSH1 0x20 DUP3 ADD SWAP1 POP SWAP2 SWAP1 POP JUMP JUMPDEST PUSH0 PUSH1 0x20 DUP3 ADD SWAP1 POP DUP2 DUP2 SUB PUSH0 DUP4 ADD MSTORE PUSH2 0x22DA DUP2 PUSH2 0x22A1 JUMP JUMPDEST SWAP1 POP SWAP2 SWAP1 POP JUMP JUMPDEST PUSH0 PUSH2 0x22EB DUP3 PUSH2 0x1908 JUMP JUMPDEST SWAP2 POP PUSH32 0xFFFFFFFFFFFFFFFFFFFFFFFFFFFFFFFFFFFFFFFFFFFFFFFFFFFFFFFFFFFFFFFF DUP3 SUB PUSH2 0x231D JUMPI PUSH2 0x231C PUSH2 0x21B1 JUMP JUMPDEST JUMPDEST PUSH1 0x1 DUP3 ADD SWAP1 POP SWAP2 SWAP1 POP JUMP INVALID LOG2 PUSH5 0x6970667358 0x22 SLT KECCAK256 SWAP4 SMOD COINBASE KECCAK256 REVERT CODECOPY 0xAF 0x2C CREATE2 RETURNDATACOPY 0xC4 0xC9 0xA5 0xAF NOT SIGNEXTEND SLOAD TLOAD GAS DUP15 MUL 0x24 0xD3 0xCB DUP12 INVALID LT BLOBHASH PUSH20 0x88CFCD64736F6C634300081E0033000000000000 "},"gasEstimates":{"creation":{"codeDepositCost":"1810800","executionCost":"infinite","totalCost":"infinite"},"external":{"addresses(uint256)":"5076","approvers(address)":"2857","approversCount()":"2558","approversMoney(address)":"2891","closed()":"2533","contribute()":"infinite","dataDescription()":"infinite","dataForSell()":"infinite","endTime()":"2471","factory()":"infinite","finalizeAuctionIfNeeded()":"infinite","getAddresses()":"infinite","getBid(address)":"2895","getData()":"infinite","getStatus()":"2496","getSummary()":"infinite","getTransactions()":"infinite","highestBid()":"2513","highestBidder()":"2553","manager()":"2620","minimumContribution()":"2492","transactions(uint256)":"infinite"}},"methodIdentifiers":{"addresses(uint256)":"edf26d9b","approvers(address)":"0a144391","approversCount()":"82fde093","approversMoney(address)":"5dc1d641","closed()":"597e1fb5","contribute()":"d7bb99ba","dataDescription()":"58d65629","dataForSell()":"7b87d856","endTime()":"3197cbb6","factory()":"c45a0155","finalizeAuctionIfNeeded()":"976af615","getAddresses()":"a39fac12","getBid(address)":"c8b342ab","getData()":"3bc5de30","getStatus()":"4e69d560","getSummary()":"4051ddac","getTransactions()":"83920e90","highestBid()":"d57bde79","highestBidder()":"91f90157","manager()":"481c6a75","minimumContribution()":"937e09b1","transactions(uint256)":"9ace38c2"}},"storageLayout":{"storage":[{"astId":4,"contract":"Campaign.sol:Campaign","label":"factory","offset":0,"slot":"0","type":"t_contract(CampaignFactory)755"},{"astId":25,"contract":"Campaign.sol:Campaign","label":"manager","offset":0,"slot":"1","type":"t_address"},{"astId":27,"contract":"Campaign.sol:Campaign","label":"minimumContribution","offset":0,"slot":"2","type":"t_uint256"},{"astId":29,"contract":"Campaign.sol:Campaign","label":"dataForSell","offset":0,"slot":"3","type":"t_string_storage"},{"astId":31,"contract":"Campaign.sol:Campaign","label":"dataDescription","offset":0,"slot":"4","type":"t_string_storage"},{"astId":35,"contract":"Campaign.sol:Campaign","label":"approvers","offset":0,"slot":"5","type":"t_mapping(t_address,t_bool)"},{"astId":39,"contract":"Campaign.sol:Campaign","label":"approversMoney","offset":0,"slot":"6","type":"t_mapping(t_address,t_uint256)"},{"astId":41,"contract":"Campaign.sol:Campaign","label":"approversCount","offset":0,"slot":"7","type":"t_uint256"},{"astId":44,"contract":"Campaign.sol:Campaign","label":"addresses","offset":0,"slot":"8","type":"t_array(t_address)dyn_storage"},{"astId":48,"contract":"Campaign.sol:Campaign","label":"transactions","offset":0,"slot":"9","type":"t_array(t_struct(Bid)23_storage)dyn_storage"},{"astId":50,"contract":"Campaign.sol:Campaign","label":"highestBidder","offset":0,"slot":"10","type":"t_address"},{"astId":52,"contract":"Campaign.sol:Campaign","label":"highestBid","offset":0,"slot":"11","type":"t_uint256"},{"astId":54,"contract":"Campaign.sol:Campaign","label":"endTime","offset":0,"slot":"12","type":"t_uint256"},{"astId":56,"contract":"Campaign.sol:Campaign","label":"closed","offset":0,"slot":"13","type":"t_bool"}],"types":{"t_address":{"encoding":"inplace","label":"address","numberOfBytes":"20"},"t_array(t_address)dyn_storage":{"base":"t_address","encoding":"dynamic_array","label":"address[]","numberOfBytes":"32"},"t_array(t_struct(Bid)23_storage)dyn_storage":{"base":"t_struct(Bid)23_storage","encoding":"dynamic_array","label":"struct Campaign.Bid[]","numberOfBytes":"32"},"t_bool":{"encoding":"inplace","label":"bool","numberOfBytes":"1"},"t_contract(CampaignFactory)755":{"encoding":"inplace","label":"contract CampaignFactory","numberOfBytes":"20"},"t_mapping(t_address,t_bool)":{"encoding":"mapping","key":"t_address","label":"mapping(address => bool)","numberOfBytes":"32","value":"t_bool"},"t_mapping(t_address,t_uint256)":{"encoding":"mapping","key":"t_address","label":"mapping(address => uint256)","numberOfBytes":"32","value":"t_uint256"},"t_string_storage":{"encoding":"bytes","label":"string","numberOfBytes":"32"},"t_struct(Bid)23_storage":{"encoding":"inplace","label":"struct Campaign.Bid","members":[{"astId":18,"contract":"Campaign.sol:Campaign","label":"value","offset":0,"slot":"0","type":"t_uint256"},{"astId":20,"contract":"Campaign.sol:Campaign","label":"time","offset":0,"slot":"1","type":"t_uint256"},{"astId":22,"contract":"Campaign.sol:Campaign","label":"bidderAddress","offset":0,"slot":"2","type":"t_address"}],"numberOfBytes":"96"},"t_uint256":{"encoding":"inplace","label":"uint256","numberOfBytes":"32"}}},"transientStorageLayout":{"storage":[],"types":null},"userdoc":{"kind":"user","methods":{},"version":1}}