{"abi":[{"inputs":[{"internalType":"uint256","name":"minimum","type":"uint256"},{"internalType":"string","name":"dataSell","type":"string"},{"internalType":"string","name":"dataDesc","type":"string"},{"internalType":"address","name":"creator","type":"address"},{"internalType":"uint256","name":"duration","type":"uint256"}],"stateMutability":"nonpayable","type":"constructor"},{"anonymous":false,"inputs":[{"indexed":true,"internalType":"address","name":"contributor","type":"address"},{"indexed":false,"internalType":"uint256","name":"amount","type":"uint256"}],"name":"RefundProcessed","type":"event"},{"anonymous":false,"inputs":[{"indexed":true,"internalType":"address","name":"seller","type":"address"},{"indexed":false,"internalType":"uint256","name":"amount","type":"uint256"}],"name":"SellerPaid","type":"event"},{"inputs":[{"internalType":"uint256","name":"","type":"uint256"}],"name":"addresses","outputs":[{"internalType":"address","name":"","type":"address"}],"stateMutability":"view","type":"function"},{"inputs":[{"internalType":"address","name":"","type":"address"}],"name":"approvers","outputs":[{"internalType":"bool","name":"","type":"bool"}],"stateMutability":"view","type":"function"},{"inputs":[],"name":"approversCount","outputs":[{"internalType":"uint256","name":"","type":"uint256"}],"stateMutability":"view","type":"function"},{"inputs":[{"internalType":"address","name":"","type":"address"}],"name":"approversMoney","outputs":[{"internalType":"uint256","name":"","type":"uint256"}],"stateMutability":"view","type":"function"},{"inputs":[],"name":"closed","outputs":[{"internalType":"bool","name":"","type":"bool"}],"stateMutability":"view","type":"function"},{"inputs":[],"name":"contribute","outputs":[],"stateMutability":"payable","type":"function"},{"inputs":[],"name":"dataDescription","outputs":[{"internalType":"string","name":"","type":"string"}],"stateMutability":"view","type":"function"},{"inputs":[],"name":"dataForSell","outputs":[{"internalType":"string","name":"","type":"string"}],"stateMutability":"view","type":"function"},{"inputs":[],"name":"endTime","outputs":[{"internalType":"uint256","name":"","type":"uint256"}],"stateMutability":"view","type":"function"},{"inputs":[],"name":"finalizeAuctionIfNeeded","outputs":[],"stateMutability":"nonpayable","type":"function"},{"inputs":[],"name":"getAddresses","outputs":[{"internalType":"address[]","name":"","type":"address[]"}],"stateMutability":"view","type":"function"},{"inputs":[{"internalType":"address","name":"bidder","type":"address"}],"name":"getBid","outputs":[{"internalType":"uint256","name":"","type":"uint256"}],"stateMutability":"view","type":"function"},{"inputs":[],"name":"getData","outputs":[{"internalType":"string","name":"","type":"string"}],"stateMutability":"view","type":"function"},{"inputs":[],"name":"getStatus","outputs":[{"internalType":"bool","name":"","type":"bool"}],"stateMutability":"view","type":"function"},{"inputs":[],"name":"getSummary","outputs":[{"internalType":"uint256","name":"","type":"uint256"},{"internalType":"uint256","name":"","type":"uint256"},{"internalType":"uint256","name":"","type":"uint256"},{"internalType":"address","name":"","type":"address"},{"internalType":"uint256","name":"","type":"uint256"},{"internalType":"string","name":"","type":"string"},{"internalType":"string","name":"","type":"string"},{"internalType":"address","name":"","type":"address"},{"internalType":"address[]","name":"","type":"address[]"},{"internalType":"uint256","name":"","type":"uint256"}],"stateMutability":"view","type":"function"},{"inputs":[],"name":"getTransactions","outputs":[{"components":[{"internalType":"uint256","name":"value","type":"uint256"},{"internalType":"uint256","name":"time","type":"uint256"},{"internalType":"address","name":"bidderAddress","type":"address"}],"internalType":"struct Campaign.Bid[]","name":"","type":"tuple[]"}],"stateMutability":"view","type":"function"},{"inputs":[],"name":"highestBid","outputs":[{"internalType":"uint256","name":"","type":"uint256"}],"stateMutability":"view","type":"function"},{"inputs":[],"name":"highestBidder","outputs":[{"internalType":"address","name":"","type":"address"}],"stateMutability":"view","type":"function"},{"inputs":[],"name":"manager","outputs":[{"internalType":"address","name":"","type":"address"}],"stateMutability":"view","type":"function"},{"inputs":[],"name":"minimumContribution","outputs":[{"internalType":"uint256","name":"","type":"uint256"}],"stateMutability":"view","type":"function"},{"inputs":[{"internalType":"uint256","name":"","type":"uint256"}],"name":"transactions","outputs":[{"internalType":"uint256","name":"value","type":"uint256"},{"internalType":"uint256","name":"time","type":"uint256"},{"internalType":"address","name":"bidderAddress","type":"address"}],"stateMutability":"view","type":"function"}],"devdoc":{"kind":"dev","methods":{},"version":1},"evm":{"assembly":"    /* \"Campaign.sol\":557:5078  contract Campaign {... */\n  mstore(0x40, 0x80)\n    /* \"Campaign.sol\":1536:1900  constructor(... */\n  callvalue\n  dup1\n  iszero\n  tag_1\n  jumpi\n  revert(0x00, 0x00)\ntag_1:\n  pop\n  mload(0x40)\n  sub(codesize, bytecodeSize)\n  dup1\n  bytecodeSize\n  dup4\n  codecopy\n  dup2\n  dup2\n  add\n  0x40\n  mstore\n  dup2\n  add\n  swap1\n  tag_2\n  swap2\n  swap1\n  tag_3\n  jump\t// in\ntag_2:\n    /* \"Campaign.sol\":1721:1728  creator */\n  dup2\n    /* \"Campaign.sol\":1711:1718  manager */\n  0x00\n  0x00\n    /* \"Campaign.sol\":1711:1728  manager = creator */\n  0x0100\n  exp\n  dup2\n  sload\n  dup2\n  0xffffffffffffffffffffffffffffffffffffffff\n  mul\n  not\n  and\n  swap1\n  dup4\n  0xffffffffffffffffffffffffffffffffffffffff\n  and\n  mul\n  or\n  swap1\n  sstore\n  pop\n    /* \"Campaign.sol\":1761:1768  minimum */\n  dup5\n    /* \"Campaign.sol\":1739:1758  minimumContribution */\n  0x01\n    /* \"Campaign.sol\":1739:1768  minimumContribution = minimum */\n  dup2\n  swap1\n  sstore\n  pop\n    /* \"Campaign.sol\":1793:1801  dataSell */\n  dup4\n    /* \"Campaign.sol\":1779:1790  dataForSell */\n  0x02\n    /* \"Campaign.sol\":1779:1801  dataForSell = dataSell */\n  swap1\n  dup2\n  tag_6\n  swap2\n  swap1\n  tag_7\n  jump\t// in\ntag_6:\n  pop\n    /* \"Campaign.sol\":1830:1838  dataDesc */\n  dup3\n    /* \"Campaign.sol\":1812:1827  dataDescription */\n  0x03\n    /* \"Campaign.sol\":1812:1838  dataDescription = dataDesc */\n  swap1\n  dup2\n  tag_8\n  swap2\n  swap1\n  tag_7\n  jump\t// in\ntag_8:\n  pop\n    /* \"Campaign.sol\":1859:1867  duration */\n  dup1\n    /* \"Campaign.sol\":1849:1856  endTime */\n  0x0b\n    /* \"Campaign.sol\":1849:1867  endTime = duration */\n  dup2\n  swap1\n  sstore\n  pop\n    /* \"Campaign.sol\":1887:1892  false */\n  0x00\n    /* \"Campaign.sol\":1878:1884  closed */\n  0x0c\n  0x00\n    /* \"Campaign.sol\":1878:1892  closed = false */\n  0x0100\n  exp\n  dup2\n  sload\n  dup2\n  0xff\n  mul\n  not\n  and\n  swap1\n  dup4\n  iszero\n  iszero\n  mul\n  or\n  swap1\n  sstore\n  pop\n    /* \"Campaign.sol\":1536:1900  constructor(... */\n  pop\n  pop\n  pop\n  pop\n  pop\n    /* \"Campaign.sol\":557:5078  contract Campaign {... */\n  jump(tag_9)\n    /* \"#utility.yul\":7:82   */\ntag_10:\n    /* \"#utility.yul\":40:46   */\n  0x00\n    /* \"#utility.yul\":73:75   */\n  0x40\n    /* \"#utility.yul\":67:76   */\n  mload\n    /* \"#utility.yul\":57:76   */\n  swap1\n  pop\n    /* \"#utility.yul\":7:82   */\n  swap1\n  jump\t// out\n    /* \"#utility.yul\":88:205   */\ntag_11:\n    /* \"#utility.yul\":197:198   */\n  0x00\n    /* \"#utility.yul\":194:195   */\n  0x00\n    /* \"#utility.yul\":187:199   */\n  revert\n    /* \"#utility.yul\":211:328   */\ntag_12:\n    /* \"#utility.yul\":320:321   */\n  0x00\n    /* \"#utility.yul\":317:318   */\n  0x00\n    /* \"#utility.yul\":310:322   */\n  revert\n    /* \"#utility.yul\":334:411   */\ntag_13:\n    /* \"#utility.yul\":371:378   */\n  0x00\n    /* \"#utility.yul\":400:405   */\n  dup2\n    /* \"#utility.yul\":389:405   */\n  swap1\n  pop\n    /* \"#utility.yul\":334:411   */\n  swap2\n  swap1\n  pop\n  jump\t// out\n    /* \"#utility.yul\":417:539   */\ntag_14:\n    /* \"#utility.yul\":490:514   */\n  tag_54\n    /* \"#utility.yul\":508:513   */\n  dup2\n    /* \"#utility.yul\":490:514   */\n  tag_13\n  jump\t// in\ntag_54:\n    /* \"#utility.yul\":483:488   */\n  dup2\n    /* \"#utility.yul\":480:515   */\n  eq\n    /* \"#utility.yul\":470:533   */\n  tag_55\n  jumpi\n    /* \"#utility.yul\":529:530   */\n  0x00\n    /* \"#utility.yul\":526:527   */\n  0x00\n    /* \"#utility.yul\":519:531   */\n  revert\n    /* \"#utility.yul\":470:533   */\ntag_55:\n    /* \"#utility.yul\":417:539   */\n  pop\n  jump\t// out\n    /* \"#utility.yul\":545:688   */\ntag_15:\n    /* \"#utility.yul\":602:607   */\n  0x00\n    /* \"#utility.yul\":633:639   */\n  dup2\n    /* \"#utility.yul\":627:640   */\n  mload\n    /* \"#utility.yul\":618:640   */\n  swap1\n  pop\n    /* \"#utility.yul\":649:682   */\n  tag_57\n    /* \"#utility.yul\":676:681   */\n  dup2\n    /* \"#utility.yul\":649:682   */\n  tag_14\n  jump\t// in\ntag_57:\n    /* \"#utility.yul\":545:688   */\n  swap3\n  swap2\n  pop\n  pop\n  jump\t// out\n    /* \"#utility.yul\":694:811   */\ntag_16:\n    /* \"#utility.yul\":803:804   */\n  0x00\n    /* \"#utility.yul\":800:801   */\n  0x00\n    /* \"#utility.yul\":793:805   */\n  revert\n    /* \"#utility.yul\":817:934   */\ntag_17:\n    /* \"#utility.yul\":926:927   */\n  0x00\n    /* \"#utility.yul\":923:924   */\n  0x00\n    /* \"#utility.yul\":916:928   */\n  revert\n    /* \"#utility.yul\":940:1042   */\ntag_18:\n    /* \"#utility.yul\":981:987   */\n  0x00\n    /* \"#utility.yul\":1032:1034   */\n  0x1f\n    /* \"#utility.yul\":1028:1035   */\n  not\n    /* \"#utility.yul\":1023:1025   */\n  0x1f\n    /* \"#utility.yul\":1016:1021   */\n  dup4\n    /* \"#utility.yul\":1012:1026   */\n  add\n    /* \"#utility.yul\":1008:1036   */\n  and\n    /* \"#utility.yul\":998:1036   */\n  swap1\n  pop\n    /* \"#utility.yul\":940:1042   */\n  swap2\n  swap1\n  pop\n  jump\t// out\n    /* \"#utility.yul\":1048:1228   */\ntag_19:\n    /* \"#utility.yul\":1096:1173   */\n  0x4e487b7100000000000000000000000000000000000000000000000000000000\n    /* \"#utility.yul\":1093:1094   */\n  0x00\n    /* \"#utility.yul\":1086:1174   */\n  mstore\n    /* \"#utility.yul\":1193:1197   */\n  0x41\n    /* \"#utility.yul\":1190:1191   */\n  0x04\n    /* \"#utility.yul\":1183:1198   */\n  mstore\n    /* \"#utility.yul\":1217:1221   */\n  0x24\n    /* \"#utility.yul\":1214:1215   */\n  0x00\n    /* \"#utility.yul\":1207:1222   */\n  revert\n    /* \"#utility.yul\":1234:1515   */\ntag_20:\n    /* \"#utility.yul\":1317:1344   */\n  tag_63\n    /* \"#utility.yul\":1339:1343   */\n  dup3\n    /* \"#utility.yul\":1317:1344   */\n  tag_18\n  jump\t// in\ntag_63:\n    /* \"#utility.yul\":1309:1315   */\n  dup2\n    /* \"#utility.yul\":1305:1345   */\n  add\n    /* \"#utility.yul\":1447:1453   */\n  dup2\n    /* \"#utility.yul\":1435:1445   */\n  dup2\n    /* \"#utility.yul\":1432:1454   */\n  lt\n    /* \"#utility.yul\":1411:1429   */\n  0xffffffffffffffff\n    /* \"#utility.yul\":1399:1409   */\n  dup3\n    /* \"#utility.yul\":1396:1430   */\n  gt\n    /* \"#utility.yul\":1393:1455   */\n  or\n    /* \"#utility.yul\":1390:1478   */\n  iszero\n  tag_64\n  jumpi\n    /* \"#utility.yul\":1458:1476   */\n  tag_65\n  tag_19\n  jump\t// in\ntag_65:\n    /* \"#utility.yul\":1390:1478   */\ntag_64:\n    /* \"#utility.yul\":1498:1508   */\n  dup1\n    /* \"#utility.yul\":1494:1496   */\n  0x40\n    /* \"#utility.yul\":1487:1509   */\n  mstore\n    /* \"#utility.yul\":1277:1515   */\n  pop\n    /* \"#utility.yul\":1234:1515   */\n  pop\n  pop\n  jump\t// out\n    /* \"#utility.yul\":1521:1650   */\ntag_21:\n    /* \"#utility.yul\":1555:1561   */\n  0x00\n    /* \"#utility.yul\":1582:1602   */\n  tag_67\n  tag_10\n  jump\t// in\ntag_67:\n    /* \"#utility.yul\":1572:1602   */\n  swap1\n  pop\n    /* \"#utility.yul\":1611:1644   */\n  tag_68\n    /* \"#utility.yul\":1639:1643   */\n  dup3\n    /* \"#utility.yul\":1631:1637   */\n  dup3\n    /* \"#utility.yul\":1611:1644   */\n  tag_20\n  jump\t// in\ntag_68:\n    /* \"#utility.yul\":1521:1650   */\n  swap2\n  swap1\n  pop\n  jump\t// out\n    /* \"#utility.yul\":1656:1964   */\ntag_22:\n    /* \"#utility.yul\":1718:1722   */\n  0x00\n    /* \"#utility.yul\":1808:1826   */\n  0xffffffffffffffff\n    /* \"#utility.yul\":1800:1806   */\n  dup3\n    /* \"#utility.yul\":1797:1827   */\n  gt\n    /* \"#utility.yul\":1794:1850   */\n  iszero\n  tag_70\n  jumpi\n    /* \"#utility.yul\":1830:1848   */\n  tag_71\n  tag_19\n  jump\t// in\ntag_71:\n    /* \"#utility.yul\":1794:1850   */\ntag_70:\n    /* \"#utility.yul\":1868:1897   */\n  tag_72\n    /* \"#utility.yul\":1890:1896   */\n  dup3\n    /* \"#utility.yul\":1868:1897   */\n  tag_18\n  jump\t// in\ntag_72:\n    /* \"#utility.yul\":1860:1897   */\n  swap1\n  pop\n    /* \"#utility.yul\":1952:1956   */\n  0x20\n    /* \"#utility.yul\":1946:1950   */\n  dup2\n    /* \"#utility.yul\":1942:1957   */\n  add\n    /* \"#utility.yul\":1934:1957   */\n  swap1\n  pop\n    /* \"#utility.yul\":1656:1964   */\n  swap2\n  swap1\n  pop\n  jump\t// out\n    /* \"#utility.yul\":1970:2109   */\ntag_23:\n    /* \"#utility.yul\":2059:2065   */\n  dup3\n    /* \"#utility.yul\":2054:2057   */\n  dup2\n    /* \"#utility.yul\":2049:2052   */\n  dup4\n    /* \"#utility.yul\":2043:2066   */\n  mcopy\n    /* \"#utility.yul\":2100:2101   */\n  0x00\n    /* \"#utility.yul\":2091:2097   */\n  dup4\n    /* \"#utility.yul\":2086:2089   */\n  dup4\n    /* \"#utility.yul\":2082:2098   */\n  add\n    /* \"#utility.yul\":2075:2102   */\n  mstore\n    /* \"#utility.yul\":1970:2109   */\n  pop\n  pop\n  pop\n  jump\t// out\n    /* \"#utility.yul\":2115:2549   */\ntag_24:\n    /* \"#utility.yul\":2204:2209   */\n  0x00\n    /* \"#utility.yul\":2229:2295   */\n  tag_75\n    /* \"#utility.yul\":2245:2294   */\n  tag_76\n    /* \"#utility.yul\":2287:2293   */\n  dup5\n    /* \"#utility.yul\":2245:2294   */\n  tag_22\n  jump\t// in\ntag_76:\n    /* \"#utility.yul\":2229:2295   */\n  tag_21\n  jump\t// in\ntag_75:\n    /* \"#utility.yul\":2220:2295   */\n  swap1\n  pop\n    /* \"#utility.yul\":2318:2324   */\n  dup3\n    /* \"#utility.yul\":2311:2316   */\n  dup2\n    /* \"#utility.yul\":2304:2325   */\n  mstore\n    /* \"#utility.yul\":2356:2360   */\n  0x20\n    /* \"#utility.yul\":2349:2354   */\n  dup2\n    /* \"#utility.yul\":2345:2361   */\n  add\n    /* \"#utility.yul\":2394:2397   */\n  dup5\n    /* \"#utility.yul\":2385:2391   */\n  dup5\n    /* \"#utility.yul\":2380:2383   */\n  dup5\n    /* \"#utility.yul\":2376:2392   */\n  add\n    /* \"#utility.yul\":2373:2398   */\n  gt\n    /* \"#utility.yul\":2370:2482   */\n  iszero\n  tag_77\n  jumpi\n    /* \"#utility.yul\":2401:2480   */\n  tag_78\n  tag_17\n  jump\t// in\ntag_78:\n    /* \"#utility.yul\":2370:2482   */\ntag_77:\n    /* \"#utility.yul\":2491:2543   */\n  tag_79\n    /* \"#utility.yul\":2536:2542   */\n  dup5\n    /* \"#utility.yul\":2531:2534   */\n  dup3\n    /* \"#utility.yul\":2526:2529   */\n  dup6\n    /* \"#utility.yul\":2491:2543   */\n  tag_23\n  jump\t// in\ntag_79:\n    /* \"#utility.yul\":2210:2549   */\n  pop\n    /* \"#utility.yul\":2115:2549   */\n  swap4\n  swap3\n  pop\n  pop\n  pop\n  jump\t// out\n    /* \"#utility.yul\":2569:2924   */\ntag_25:\n    /* \"#utility.yul\":2636:2641   */\n  0x00\n    /* \"#utility.yul\":2685:2688   */\n  dup3\n    /* \"#utility.yul\":2678:2682   */\n  0x1f\n    /* \"#utility.yul\":2670:2676   */\n  dup4\n    /* \"#utility.yul\":2666:2683   */\n  add\n    /* \"#utility.yul\":2662:2689   */\n  slt\n    /* \"#utility.yul\":2652:2774   */\n  tag_81\n  jumpi\n    /* \"#utility.yul\":2693:2772   */\n  tag_82\n  tag_16\n  jump\t// in\ntag_82:\n    /* \"#utility.yul\":2652:2774   */\ntag_81:\n    /* \"#utility.yul\":2803:2809   */\n  dup2\n    /* \"#utility.yul\":2797:2810   */\n  mload\n    /* \"#utility.yul\":2828:2918   */\n  tag_83\n    /* \"#utility.yul\":2914:2917   */\n  dup5\n    /* \"#utility.yul\":2906:2912   */\n  dup3\n    /* \"#utility.yul\":2899:2903   */\n  0x20\n    /* \"#utility.yul\":2891:2897   */\n  dup7\n    /* \"#utility.yul\":2887:2904   */\n  add\n    /* \"#utility.yul\":2828:2918   */\n  tag_24\n  jump\t// in\ntag_83:\n    /* \"#utility.yul\":2819:2918   */\n  swap2\n  pop\n    /* \"#utility.yul\":2642:2924   */\n  pop\n    /* \"#utility.yul\":2569:2924   */\n  swap3\n  swap2\n  pop\n  pop\n  jump\t// out\n    /* \"#utility.yul\":2930:3056   */\ntag_26:\n    /* \"#utility.yul\":2967:2974   */\n  0x00\n    /* \"#utility.yul\":3007:3049   */\n  0xffffffffffffffffffffffffffffffffffffffff\n    /* \"#utility.yul\":3000:3005   */\n  dup3\n    /* \"#utility.yul\":2996:3050   */\n  and\n    /* \"#utility.yul\":2985:3050   */\n  swap1\n  pop\n    /* \"#utility.yul\":2930:3056   */\n  swap2\n  swap1\n  pop\n  jump\t// out\n    /* \"#utility.yul\":3062:3158   */\ntag_27:\n    /* \"#utility.yul\":3099:3106   */\n  0x00\n    /* \"#utility.yul\":3128:3152   */\n  tag_86\n    /* \"#utility.yul\":3146:3151   */\n  dup3\n    /* \"#utility.yul\":3128:3152   */\n  tag_26\n  jump\t// in\ntag_86:\n    /* \"#utility.yul\":3117:3152   */\n  swap1\n  pop\n    /* \"#utility.yul\":3062:3158   */\n  swap2\n  swap1\n  pop\n  jump\t// out\n    /* \"#utility.yul\":3164:3286   */\ntag_28:\n    /* \"#utility.yul\":3237:3261   */\n  tag_88\n    /* \"#utility.yul\":3255:3260   */\n  dup2\n    /* \"#utility.yul\":3237:3261   */\n  tag_27\n  jump\t// in\ntag_88:\n    /* \"#utility.yul\":3230:3235   */\n  dup2\n    /* \"#utility.yul\":3227:3262   */\n  eq\n    /* \"#utility.yul\":3217:3280   */\n  tag_89\n  jumpi\n    /* \"#utility.yul\":3276:3277   */\n  0x00\n    /* \"#utility.yul\":3273:3274   */\n  0x00\n    /* \"#utility.yul\":3266:3278   */\n  revert\n    /* \"#utility.yul\":3217:3280   */\ntag_89:\n    /* \"#utility.yul\":3164:3286   */\n  pop\n  jump\t// out\n    /* \"#utility.yul\":3292:3435   */\ntag_29:\n    /* \"#utility.yul\":3349:3354   */\n  0x00\n    /* \"#utility.yul\":3380:3386   */\n  dup2\n    /* \"#utility.yul\":3374:3387   */\n  mload\n    /* \"#utility.yul\":3365:3387   */\n  swap1\n  pop\n    /* \"#utility.yul\":3396:3429   */\n  tag_91\n    /* \"#utility.yul\":3423:3428   */\n  dup2\n    /* \"#utility.yul\":3396:3429   */\n  tag_28\n  jump\t// in\ntag_91:\n    /* \"#utility.yul\":3292:3435   */\n  swap3\n  swap2\n  pop\n  pop\n  jump\t// out\n    /* \"#utility.yul\":3441:4764   */\ntag_3:\n    /* \"#utility.yul\":3567:3573   */\n  0x00\n    /* \"#utility.yul\":3575:3581   */\n  0x00\n    /* \"#utility.yul\":3583:3589   */\n  0x00\n    /* \"#utility.yul\":3591:3597   */\n  0x00\n    /* \"#utility.yul\":3599:3605   */\n  0x00\n    /* \"#utility.yul\":3648:3651   */\n  0xa0\n    /* \"#utility.yul\":3636:3645   */\n  dup7\n    /* \"#utility.yul\":3627:3634   */\n  dup9\n    /* \"#utility.yul\":3623:3646   */\n  sub\n    /* \"#utility.yul\":3619:3652   */\n  slt\n    /* \"#utility.yul\":3616:3736   */\n  iszero\n  tag_93\n  jumpi\n    /* \"#utility.yul\":3655:3734   */\n  tag_94\n  tag_11\n  jump\t// in\ntag_94:\n    /* \"#utility.yul\":3616:3736   */\ntag_93:\n    /* \"#utility.yul\":3775:3776   */\n  0x00\n    /* \"#utility.yul\":3800:3864   */\n  tag_95\n    /* \"#utility.yul\":3856:3863   */\n  dup9\n    /* \"#utility.yul\":3847:3853   */\n  dup3\n    /* \"#utility.yul\":3836:3845   */\n  dup10\n    /* \"#utility.yul\":3832:3854   */\n  add\n    /* \"#utility.yul\":3800:3864   */\n  tag_15\n  jump\t// in\ntag_95:\n    /* \"#utility.yul\":3790:3864   */\n  swap6\n  pop\n    /* \"#utility.yul\":3746:3874   */\n  pop\n    /* \"#utility.yul\":3934:3936   */\n  0x20\n    /* \"#utility.yul\":3923:3932   */\n  dup7\n    /* \"#utility.yul\":3919:3937   */\n  add\n    /* \"#utility.yul\":3913:3938   */\n  mload\n    /* \"#utility.yul\":3965:3983   */\n  0xffffffffffffffff\n    /* \"#utility.yul\":3957:3963   */\n  dup2\n    /* \"#utility.yul\":3954:3984   */\n  gt\n    /* \"#utility.yul\":3951:4068   */\n  iszero\n  tag_96\n  jumpi\n    /* \"#utility.yul\":3987:4066   */\n  tag_97\n  tag_12\n  jump\t// in\ntag_97:\n    /* \"#utility.yul\":3951:4068   */\ntag_96:\n    /* \"#utility.yul\":4092:4166   */\n  tag_98\n    /* \"#utility.yul\":4158:4165   */\n  dup9\n    /* \"#utility.yul\":4149:4155   */\n  dup3\n    /* \"#utility.yul\":4138:4147   */\n  dup10\n    /* \"#utility.yul\":4134:4156   */\n  add\n    /* \"#utility.yul\":4092:4166   */\n  tag_25\n  jump\t// in\ntag_98:\n    /* \"#utility.yul\":4082:4166   */\n  swap5\n  pop\n    /* \"#utility.yul\":3884:4176   */\n  pop\n    /* \"#utility.yul\":4236:4238   */\n  0x40\n    /* \"#utility.yul\":4225:4234   */\n  dup7\n    /* \"#utility.yul\":4221:4239   */\n  add\n    /* \"#utility.yul\":4215:4240   */\n  mload\n    /* \"#utility.yul\":4267:4285   */\n  0xffffffffffffffff\n    /* \"#utility.yul\":4259:4265   */\n  dup2\n    /* \"#utility.yul\":4256:4286   */\n  gt\n    /* \"#utility.yul\":4253:4370   */\n  iszero\n  tag_99\n  jumpi\n    /* \"#utility.yul\":4289:4368   */\n  tag_100\n  tag_12\n  jump\t// in\ntag_100:\n    /* \"#utility.yul\":4253:4370   */\ntag_99:\n    /* \"#utility.yul\":4394:4468   */\n  tag_101\n    /* \"#utility.yul\":4460:4467   */\n  dup9\n    /* \"#utility.yul\":4451:4457   */\n  dup3\n    /* \"#utility.yul\":4440:4449   */\n  dup10\n    /* \"#utility.yul\":4436:4458   */\n  add\n    /* \"#utility.yul\":4394:4468   */\n  tag_25\n  jump\t// in\ntag_101:\n    /* \"#utility.yul\":4384:4468   */\n  swap4\n  pop\n    /* \"#utility.yul\":4186:4478   */\n  pop\n    /* \"#utility.yul\":4517:4519   */\n  0x60\n    /* \"#utility.yul\":4543:4607   */\n  tag_102\n    /* \"#utility.yul\":4599:4606   */\n  dup9\n    /* \"#utility.yul\":4590:4596   */\n  dup3\n    /* \"#utility.yul\":4579:4588   */\n  dup10\n    /* \"#utility.yul\":4575:4597   */\n  add\n    /* \"#utility.yul\":4543:4607   */\n  tag_29\n  jump\t// in\ntag_102:\n    /* \"#utility.yul\":4533:4607   */\n  swap3\n  pop\n    /* \"#utility.yul\":4488:4617   */\n  pop\n    /* \"#utility.yul\":4656:4659   */\n  0x80\n    /* \"#utility.yul\":4683:4747   */\n  tag_103\n    /* \"#utility.yul\":4739:4746   */\n  dup9\n    /* \"#utility.yul\":4730:4736   */\n  dup3\n    /* \"#utility.yul\":4719:4728   */\n  dup10\n    /* \"#utility.yul\":4715:4737   */\n  add\n    /* \"#utility.yul\":4683:4747   */\n  tag_15\n  jump\t// in\ntag_103:\n    /* \"#utility.yul\":4673:4747   */\n  swap2\n  pop\n    /* \"#utility.yul\":4627:4757   */\n  pop\n    /* \"#utility.yul\":3441:4764   */\n  swap3\n  swap6\n  pop\n  swap3\n  swap6\n  swap1\n  swap4\n  pop\n  jump\t// out\n    /* \"#utility.yul\":4770:4869   */\ntag_30:\n    /* \"#utility.yul\":4822:4828   */\n  0x00\n    /* \"#utility.yul\":4856:4861   */\n  dup2\n    /* \"#utility.yul\":4850:4862   */\n  mload\n    /* \"#utility.yul\":4840:4862   */\n  swap1\n  pop\n    /* \"#utility.yul\":4770:4869   */\n  swap2\n  swap1\n  pop\n  jump\t// out\n    /* \"#utility.yul\":4875:5055   */\ntag_31:\n    /* \"#utility.yul\":4923:5000   */\n  0x4e487b7100000000000000000000000000000000000000000000000000000000\n    /* \"#utility.yul\":4920:4921   */\n  0x00\n    /* \"#utility.yul\":4913:5001   */\n  mstore\n    /* \"#utility.yul\":5020:5024   */\n  0x22\n    /* \"#utility.yul\":5017:5018   */\n  0x04\n    /* \"#utility.yul\":5010:5025   */\n  mstore\n    /* \"#utility.yul\":5044:5048   */\n  0x24\n    /* \"#utility.yul\":5041:5042   */\n  0x00\n    /* \"#utility.yul\":5034:5049   */\n  revert\n    /* \"#utility.yul\":5061:5381   */\ntag_32:\n    /* \"#utility.yul\":5105:5111   */\n  0x00\n    /* \"#utility.yul\":5142:5143   */\n  0x02\n    /* \"#utility.yul\":5136:5140   */\n  dup3\n    /* \"#utility.yul\":5132:5144   */\n  div\n    /* \"#utility.yul\":5122:5144   */\n  swap1\n  pop\n    /* \"#utility.yul\":5189:5190   */\n  0x01\n    /* \"#utility.yul\":5183:5187   */\n  dup3\n    /* \"#utility.yul\":5179:5191   */\n  and\n    /* \"#utility.yul\":5210:5228   */\n  dup1\n    /* \"#utility.yul\":5200:5281   */\n  tag_107\n  jumpi\n    /* \"#utility.yul\":5266:5270   */\n  0x7f\n    /* \"#utility.yul\":5258:5264   */\n  dup3\n    /* \"#utility.yul\":5254:5271   */\n  and\n    /* \"#utility.yul\":5244:5271   */\n  swap2\n  pop\n    /* \"#utility.yul\":5200:5281   */\ntag_107:\n    /* \"#utility.yul\":5328:5330   */\n  0x20\n    /* \"#utility.yul\":5320:5326   */\n  dup3\n    /* \"#utility.yul\":5317:5331   */\n  lt\n    /* \"#utility.yul\":5297:5315   */\n  dup2\n    /* \"#utility.yul\":5294:5332   */\n  sub\n    /* \"#utility.yul\":5291:5375   */\n  tag_108\n  jumpi\n    /* \"#utility.yul\":5347:5365   */\n  tag_109\n  tag_31\n  jump\t// in\ntag_109:\n    /* \"#utility.yul\":5291:5375   */\ntag_108:\n    /* \"#utility.yul\":5112:5381   */\n  pop\n    /* \"#utility.yul\":5061:5381   */\n  swap2\n  swap1\n  pop\n  jump\t// out\n    /* \"#utility.yul\":5387:5528   */\ntag_33:\n    /* \"#utility.yul\":5436:5440   */\n  0x00\n    /* \"#utility.yul\":5459:5462   */\n  dup2\n    /* \"#utility.yul\":5451:5462   */\n  swap1\n  pop\n    /* \"#utility.yul\":5482:5485   */\n  dup2\n    /* \"#utility.yul\":5479:5480   */\n  0x00\n    /* \"#utility.yul\":5472:5486   */\n  mstore\n    /* \"#utility.yul\":5516:5520   */\n  0x20\n    /* \"#utility.yul\":5513:5514   */\n  0x00\n    /* \"#utility.yul\":5503:5521   */\n  keccak256\n    /* \"#utility.yul\":5495:5521   */\n  swap1\n  pop\n    /* \"#utility.yul\":5387:5528   */\n  swap2\n  swap1\n  pop\n  jump\t// out\n    /* \"#utility.yul\":5534:5627   */\ntag_34:\n    /* \"#utility.yul\":5571:5577   */\n  0x00\n    /* \"#utility.yul\":5618:5620   */\n  0x20\n    /* \"#utility.yul\":5613:5615   */\n  0x1f\n    /* \"#utility.yul\":5606:5611   */\n  dup4\n    /* \"#utility.yul\":5602:5616   */\n  add\n    /* \"#utility.yul\":5598:5621   */\n  div\n    /* \"#utility.yul\":5588:5621   */\n  swap1\n  pop\n    /* \"#utility.yul\":5534:5627   */\n  swap2\n  swap1\n  pop\n  jump\t// out\n    /* \"#utility.yul\":5633:5740   */\ntag_35:\n    /* \"#utility.yul\":5677:5685   */\n  0x00\n    /* \"#utility.yul\":5727:5732   */\n  dup3\n    /* \"#utility.yul\":5721:5725   */\n  dup3\n    /* \"#utility.yul\":5717:5733   */\n  shl\n    /* \"#utility.yul\":5696:5733   */\n  swap1\n  pop\n    /* \"#utility.yul\":5633:5740   */\n  swap3\n  swap2\n  pop\n  pop\n  jump\t// out\n    /* \"#utility.yul\":5746:6139   */\ntag_36:\n    /* \"#utility.yul\":5815:5821   */\n  0x00\n    /* \"#utility.yul\":5865:5866   */\n  0x08\n    /* \"#utility.yul\":5853:5863   */\n  dup4\n    /* \"#utility.yul\":5849:5867   */\n  mul\n    /* \"#utility.yul\":5888:5985   */\n  tag_114\n    /* \"#utility.yul\":5918:5984   */\n  0xffffffffffffffffffffffffffffffffffffffffffffffffffffffffffffffff\n    /* \"#utility.yul\":5907:5916   */\n  dup3\n    /* \"#utility.yul\":5888:5985   */\n  tag_35\n  jump\t// in\ntag_114:\n    /* \"#utility.yul\":6006:6045   */\n  tag_115\n    /* \"#utility.yul\":6036:6044   */\n  dup7\n    /* \"#utility.yul\":6025:6034   */\n  dup4\n    /* \"#utility.yul\":6006:6045   */\n  tag_35\n  jump\t// in\ntag_115:\n    /* \"#utility.yul\":5994:6045   */\n  swap6\n  pop\n    /* \"#utility.yul\":6078:6082   */\n  dup1\n    /* \"#utility.yul\":6074:6083   */\n  not\n    /* \"#utility.yul\":6067:6072   */\n  dup5\n    /* \"#utility.yul\":6063:6084   */\n  and\n    /* \"#utility.yul\":6054:6084   */\n  swap4\n  pop\n    /* \"#utility.yul\":6127:6131   */\n  dup1\n    /* \"#utility.yul\":6117:6125   */\n  dup7\n    /* \"#utility.yul\":6113:6132   */\n  and\n    /* \"#utility.yul\":6106:6111   */\n  dup5\n    /* \"#utility.yul\":6103:6133   */\n  or\n    /* \"#utility.yul\":6093:6133   */\n  swap3\n  pop\n    /* \"#utility.yul\":5822:6139   */\n  pop\n  pop\n    /* \"#utility.yul\":5746:6139   */\n  swap4\n  swap3\n  pop\n  pop\n  pop\n  jump\t// out\n    /* \"#utility.yul\":6145:6205   */\ntag_37:\n    /* \"#utility.yul\":6173:6176   */\n  0x00\n    /* \"#utility.yul\":6194:6199   */\n  dup2\n    /* \"#utility.yul\":6187:6199   */\n  swap1\n  pop\n    /* \"#utility.yul\":6145:6205   */\n  swap2\n  swap1\n  pop\n  jump\t// out\n    /* \"#utility.yul\":6211:6353   */\ntag_38:\n    /* \"#utility.yul\":6261:6270   */\n  0x00\n    /* \"#utility.yul\":6294:6347   */\n  tag_118\n    /* \"#utility.yul\":6312:6346   */\n  tag_119\n    /* \"#utility.yul\":6321:6345   */\n  tag_120\n    /* \"#utility.yul\":6339:6344   */\n  dup5\n    /* \"#utility.yul\":6321:6345   */\n  tag_13\n  jump\t// in\ntag_120:\n    /* \"#utility.yul\":6312:6346   */\n  tag_37\n  jump\t// in\ntag_119:\n    /* \"#utility.yul\":6294:6347   */\n  tag_13\n  jump\t// in\ntag_118:\n    /* \"#utility.yul\":6281:6347   */\n  swap1\n  pop\n    /* \"#utility.yul\":6211:6353   */\n  swap2\n  swap1\n  pop\n  jump\t// out\n    /* \"#utility.yul\":6359:6434   */\ntag_39:\n    /* \"#utility.yul\":6402:6405   */\n  0x00\n    /* \"#utility.yul\":6423:6428   */\n  dup2\n    /* \"#utility.yul\":6416:6428   */\n  swap1\n  pop\n    /* \"#utility.yul\":6359:6434   */\n  swap2\n  swap1\n  pop\n  jump\t// out\n    /* \"#utility.yul\":6440:6709   */\ntag_40:\n    /* \"#utility.yul\":6550:6589   */\n  tag_123\n    /* \"#utility.yul\":6581:6588   */\n  dup4\n    /* \"#utility.yul\":6550:6589   */\n  tag_38\n  jump\t// in\ntag_123:\n    /* \"#utility.yul\":6611:6702   */\n  tag_124\n    /* \"#utility.yul\":6660:6701   */\n  tag_125\n    /* \"#utility.yul\":6684:6700   */\n  dup3\n    /* \"#utility.yul\":6660:6701   */\n  tag_39\n  jump\t// in\ntag_125:\n    /* \"#utility.yul\":6652:6658   */\n  dup5\n    /* \"#utility.yul\":6645:6649   */\n  dup5\n    /* \"#utility.yul\":6639:6650   */\n  sload\n    /* \"#utility.yul\":6611:6702   */\n  tag_36\n  jump\t// in\ntag_124:\n    /* \"#utility.yul\":6605:6609   */\n  dup3\n    /* \"#utility.yul\":6598:6703   */\n  sstore\n    /* \"#utility.yul\":6516:6709   */\n  pop\n    /* \"#utility.yul\":6440:6709   */\n  pop\n  pop\n  pop\n  jump\t// out\n    /* \"#utility.yul\":6715:6788   */\ntag_41:\n    /* \"#utility.yul\":6760:6763   */\n  0x00\n    /* \"#utility.yul\":6781:6782   */\n  0x00\n    /* \"#utility.yul\":6774:6782   */\n  swap1\n  pop\n    /* \"#utility.yul\":6715:6788   */\n  swap1\n  jump\t// out\n    /* \"#utility.yul\":6794:6983   */\ntag_42:\n    /* \"#utility.yul\":6871:6903   */\n  tag_128\n  tag_41\n  jump\t// in\ntag_128:\n    /* \"#utility.yul\":6912:6977   */\n  tag_129\n    /* \"#utility.yul\":6970:6976   */\n  dup2\n    /* \"#utility.yul\":6962:6968   */\n  dup5\n    /* \"#utility.yul\":6956:6960   */\n  dup5\n    /* \"#utility.yul\":6912:6977   */\n  tag_40\n  jump\t// in\ntag_129:\n    /* \"#utility.yul\":6847:6983   */\n  pop\n    /* \"#utility.yul\":6794:6983   */\n  pop\n  pop\n  jump\t// out\n    /* \"#utility.yul\":6989:7175   */\ntag_43:\n    /* \"#utility.yul\":7049:7169   */\ntag_131:\n    /* \"#utility.yul\":7066:7069   */\n  dup2\n    /* \"#utility.yul\":7059:7064   */\n  dup2\n    /* \"#utility.yul\":7056:7070   */\n  lt\n    /* \"#utility.yul\":7049:7169   */\n  iszero\n  tag_133\n  jumpi\n    /* \"#utility.yul\":7120:7159   */\n  tag_134\n    /* \"#utility.yul\":7157:7158   */\n  0x00\n    /* \"#utility.yul\":7150:7155   */\n  dup3\n    /* \"#utility.yul\":7120:7159   */\n  tag_42\n  jump\t// in\ntag_134:\n    /* \"#utility.yul\":7093:7094   */\n  0x01\n    /* \"#utility.yul\":7086:7091   */\n  dup2\n    /* \"#utility.yul\":7082:7095   */\n  add\n    /* \"#utility.yul\":7073:7095   */\n  swap1\n  pop\n    /* \"#utility.yul\":7049:7169   */\n  jump(tag_131)\ntag_133:\n    /* \"#utility.yul\":6989:7175   */\n  pop\n  pop\n  jump\t// out\n    /* \"#utility.yul\":7181:7724   */\ntag_44:\n    /* \"#utility.yul\":7282:7284   */\n  0x1f\n    /* \"#utility.yul\":7277:7280   */\n  dup3\n    /* \"#utility.yul\":7274:7285   */\n  gt\n    /* \"#utility.yul\":7271:7717   */\n  iszero\n  tag_136\n  jumpi\n    /* \"#utility.yul\":7316:7354   */\n  tag_137\n    /* \"#utility.yul\":7348:7353   */\n  dup2\n    /* \"#utility.yul\":7316:7354   */\n  tag_33\n  jump\t// in\ntag_137:\n    /* \"#utility.yul\":7400:7429   */\n  tag_138\n    /* \"#utility.yul\":7418:7428   */\n  dup5\n    /* \"#utility.yul\":7400:7429   */\n  tag_34\n  jump\t// in\ntag_138:\n    /* \"#utility.yul\":7390:7398   */\n  dup2\n    /* \"#utility.yul\":7386:7430   */\n  add\n    /* \"#utility.yul\":7583:7585   */\n  0x20\n    /* \"#utility.yul\":7571:7581   */\n  dup6\n    /* \"#utility.yul\":7568:7586   */\n  lt\n    /* \"#utility.yul\":7565:7614   */\n  iszero\n  tag_139\n  jumpi\n    /* \"#utility.yul\":7604:7612   */\n  dup2\n    /* \"#utility.yul\":7589:7612   */\n  swap1\n  pop\n    /* \"#utility.yul\":7565:7614   */\ntag_139:\n    /* \"#utility.yul\":7627:7707   */\n  tag_140\n    /* \"#utility.yul\":7683:7705   */\n  tag_141\n    /* \"#utility.yul\":7701:7704   */\n  dup6\n    /* \"#utility.yul\":7683:7705   */\n  tag_34\n  jump\t// in\ntag_141:\n    /* \"#utility.yul\":7673:7681   */\n  dup4\n    /* \"#utility.yul\":7669:7706   */\n  add\n    /* \"#utility.yul\":7656:7667   */\n  dup3\n    /* \"#utility.yul\":7627:7707   */\n  tag_43\n  jump\t// in\ntag_140:\n    /* \"#utility.yul\":7286:7717   */\n  pop\n  pop\n    /* \"#utility.yul\":7271:7717   */\ntag_136:\n    /* \"#utility.yul\":7181:7724   */\n  pop\n  pop\n  pop\n  jump\t// out\n    /* \"#utility.yul\":7730:7847   */\ntag_45:\n    /* \"#utility.yul\":7784:7792   */\n  0x00\n    /* \"#utility.yul\":7834:7839   */\n  dup3\n    /* \"#utility.yul\":7828:7832   */\n  dup3\n    /* \"#utility.yul\":7824:7840   */\n  shr\n    /* \"#utility.yul\":7803:7840   */\n  swap1\n  pop\n    /* \"#utility.yul\":7730:7847   */\n  swap3\n  swap2\n  pop\n  pop\n  jump\t// out\n    /* \"#utility.yul\":7853:8022   */\ntag_46:\n    /* \"#utility.yul\":7897:7903   */\n  0x00\n    /* \"#utility.yul\":7930:7981   */\n  tag_144\n    /* \"#utility.yul\":7978:7979   */\n  0x00\n    /* \"#utility.yul\":7974:7980   */\n  not\n    /* \"#utility.yul\":7966:7971   */\n  dup5\n    /* \"#utility.yul\":7963:7964   */\n  0x08\n    /* \"#utility.yul\":7959:7972   */\n  mul\n    /* \"#utility.yul\":7930:7981   */\n  tag_45\n  jump\t// in\ntag_144:\n    /* \"#utility.yul\":7926:7982   */\n  not\n    /* \"#utility.yul\":8011:8015   */\n  dup1\n    /* \"#utility.yul\":8005:8009   */\n  dup4\n    /* \"#utility.yul\":8001:8016   */\n  and\n    /* \"#utility.yul\":7991:8016   */\n  swap2\n  pop\n    /* \"#utility.yul\":7904:8022   */\n  pop\n    /* \"#utility.yul\":7853:8022   */\n  swap3\n  swap2\n  pop\n  pop\n  jump\t// out\n    /* \"#utility.yul\":8027:8322   */\ntag_47:\n    /* \"#utility.yul\":8103:8107   */\n  0x00\n    /* \"#utility.yul\":8249:8278   */\n  tag_146\n    /* \"#utility.yul\":8274:8277   */\n  dup4\n    /* \"#utility.yul\":8268:8272   */\n  dup4\n    /* \"#utility.yul\":8249:8278   */\n  tag_46\n  jump\t// in\ntag_146:\n    /* \"#utility.yul\":8241:8278   */\n  swap2\n  pop\n    /* \"#utility.yul\":8311:8314   */\n  dup3\n    /* \"#utility.yul\":8308:8309   */\n  0x02\n    /* \"#utility.yul\":8304:8315   */\n  mul\n    /* \"#utility.yul\":8298:8302   */\n  dup3\n    /* \"#utility.yul\":8295:8316   */\n  or\n    /* \"#utility.yul\":8287:8316   */\n  swap1\n  pop\n    /* \"#utility.yul\":8027:8322   */\n  swap3\n  swap2\n  pop\n  pop\n  jump\t// out\n    /* \"#utility.yul\":8327:9722   */\ntag_7:\n    /* \"#utility.yul\":8444:8481   */\n  tag_148\n    /* \"#utility.yul\":8477:8480   */\n  dup3\n    /* \"#utility.yul\":8444:8481   */\n  tag_30\n  jump\t// in\ntag_148:\n    /* \"#utility.yul\":8546:8564   */\n  0xffffffffffffffff\n    /* \"#utility.yul\":8538:8544   */\n  dup2\n    /* \"#utility.yul\":8535:8565   */\n  gt\n    /* \"#utility.yul\":8532:8588   */\n  iszero\n  tag_149\n  jumpi\n    /* \"#utility.yul\":8568:8586   */\n  tag_150\n  tag_19\n  jump\t// in\ntag_150:\n    /* \"#utility.yul\":8532:8588   */\ntag_149:\n    /* \"#utility.yul\":8612:8650   */\n  tag_151\n    /* \"#utility.yul\":8644:8648   */\n  dup3\n    /* \"#utility.yul\":8638:8649   */\n  sload\n    /* \"#utility.yul\":8612:8650   */\n  tag_32\n  jump\t// in\ntag_151:\n    /* \"#utility.yul\":8697:8764   */\n  tag_152\n    /* \"#utility.yul\":8757:8763   */\n  dup3\n    /* \"#utility.yul\":8749:8755   */\n  dup3\n    /* \"#utility.yul\":8743:8747   */\n  dup6\n    /* \"#utility.yul\":8697:8764   */\n  tag_44\n  jump\t// in\ntag_152:\n    /* \"#utility.yul\":8791:8792   */\n  0x00\n    /* \"#utility.yul\":8815:8819   */\n  0x20\n    /* \"#utility.yul\":8802:8819   */\n  swap1\n  pop\n    /* \"#utility.yul\":8847:8849   */\n  0x1f\n    /* \"#utility.yul\":8839:8845   */\n  dup4\n    /* \"#utility.yul\":8836:8850   */\n  gt\n    /* \"#utility.yul\":8864:8865   */\n  0x01\n    /* \"#utility.yul\":8859:9477   */\n  dup2\n  eq\n  tag_154\n  jumpi\n    /* \"#utility.yul\":9521:9522   */\n  0x00\n    /* \"#utility.yul\":9538:9544   */\n  dup5\n    /* \"#utility.yul\":9535:9612   */\n  iszero\n  tag_155\n  jumpi\n    /* \"#utility.yul\":9587:9596   */\n  dup3\n    /* \"#utility.yul\":9582:9585   */\n  dup8\n    /* \"#utility.yul\":9578:9597   */\n  add\n    /* \"#utility.yul\":9572:9598   */\n  mload\n    /* \"#utility.yul\":9563:9598   */\n  swap1\n  pop\n    /* \"#utility.yul\":9535:9612   */\ntag_155:\n    /* \"#utility.yul\":9638:9705   */\n  tag_156\n    /* \"#utility.yul\":9698:9704   */\n  dup6\n    /* \"#utility.yul\":9691:9696   */\n  dup3\n    /* \"#utility.yul\":9638:9705   */\n  tag_47\n  jump\t// in\ntag_156:\n    /* \"#utility.yul\":9632:9636   */\n  dup7\n    /* \"#utility.yul\":9625:9706   */\n  sstore\n    /* \"#utility.yul\":9494:9716   */\n  pop\n    /* \"#utility.yul\":8829:9716   */\n  jump(tag_153)\n    /* \"#utility.yul\":8859:9477   */\ntag_154:\n    /* \"#utility.yul\":8911:8915   */\n  0x1f\n    /* \"#utility.yul\":8907:8916   */\n  not\n    /* \"#utility.yul\":8899:8905   */\n  dup5\n    /* \"#utility.yul\":8895:8917   */\n  and\n    /* \"#utility.yul\":8945:8982   */\n  tag_157\n    /* \"#utility.yul\":8977:8981   */\n  dup7\n    /* \"#utility.yul\":8945:8982   */\n  tag_33\n  jump\t// in\ntag_157:\n    /* \"#utility.yul\":9004:9005   */\n  0x00\n    /* \"#utility.yul\":9018:9226   */\ntag_158:\n    /* \"#utility.yul\":9032:9039   */\n  dup3\n    /* \"#utility.yul\":9029:9030   */\n  dup2\n    /* \"#utility.yul\":9026:9040   */\n  lt\n    /* \"#utility.yul\":9018:9226   */\n  iszero\n  tag_160\n  jumpi\n    /* \"#utility.yul\":9111:9120   */\n  dup5\n    /* \"#utility.yul\":9106:9109   */\n  dup10\n    /* \"#utility.yul\":9102:9121   */\n  add\n    /* \"#utility.yul\":9096:9122   */\n  mload\n    /* \"#utility.yul\":9088:9094   */\n  dup3\n    /* \"#utility.yul\":9081:9123   */\n  sstore\n    /* \"#utility.yul\":9162:9163   */\n  0x01\n    /* \"#utility.yul\":9154:9160   */\n  dup3\n    /* \"#utility.yul\":9150:9164   */\n  add\n    /* \"#utility.yul\":9140:9164   */\n  swap2\n  pop\n    /* \"#utility.yul\":9209:9211   */\n  0x20\n    /* \"#utility.yul\":9198:9207   */\n  dup6\n    /* \"#utility.yul\":9194:9212   */\n  add\n    /* \"#utility.yul\":9181:9212   */\n  swap5\n  pop\n    /* \"#utility.yul\":9055:9059   */\n  0x20\n    /* \"#utility.yul\":9052:9053   */\n  dup2\n    /* \"#utility.yul\":9048:9060   */\n  add\n    /* \"#utility.yul\":9043:9060   */\n  swap1\n  pop\n    /* \"#utility.yul\":9018:9226   */\n  jump(tag_158)\ntag_160:\n    /* \"#utility.yul\":9254:9260   */\n  dup7\n    /* \"#utility.yul\":9245:9252   */\n  dup4\n    /* \"#utility.yul\":9242:9261   */\n  lt\n    /* \"#utility.yul\":9239:9418   */\n  iszero\n  tag_161\n  jumpi\n    /* \"#utility.yul\":9312:9321   */\n  dup5\n    /* \"#utility.yul\":9307:9310   */\n  dup10\n    /* \"#utility.yul\":9303:9322   */\n  add\n    /* \"#utility.yul\":9297:9323   */\n  mload\n    /* \"#utility.yul\":9355:9403   */\n  tag_162\n    /* \"#utility.yul\":9397:9401   */\n  0x1f\n    /* \"#utility.yul\":9389:9395   */\n  dup10\n    /* \"#utility.yul\":9385:9402   */\n  and\n    /* \"#utility.yul\":9374:9383   */\n  dup3\n    /* \"#utility.yul\":9355:9403   */\n  tag_46\n  jump\t// in\ntag_162:\n    /* \"#utility.yul\":9347:9353   */\n  dup4\n    /* \"#utility.yul\":9340:9404   */\n  sstore\n    /* \"#utility.yul\":9262:9418   */\n  pop\n    /* \"#utility.yul\":9239:9418   */\ntag_161:\n    /* \"#utility.yul\":9464:9465   */\n  0x01\n    /* \"#utility.yul\":9460:9461   */\n  0x02\n    /* \"#utility.yul\":9452:9458   */\n  dup9\n    /* \"#utility.yul\":9448:9462   */\n  mul\n    /* \"#utility.yul\":9444:9466   */\n  add\n    /* \"#utility.yul\":9438:9442   */\n  dup9\n    /* \"#utility.yul\":9431:9467   */\n  sstore\n    /* \"#utility.yul\":8866:9477   */\n  pop\n  pop\n  pop\n    /* \"#utility.yul\":8829:9716   */\ntag_153:\n  pop\n    /* \"#utility.yul\":8419:9722   */\n  pop\n  pop\n  pop\n    /* \"#utility.yul\":8327:9722   */\n  pop\n  pop\n  jump\t// out\n    /* \"Campaign.sol\":557:5078  contract Campaign {... */\ntag_9:\n  dataSize(sub_0)\n  dup1\n  dataOffset(sub_0)\n  0x00\n  codecopy\n  0x00\n  return\nstop\n\nsub_0: assembly {\n        /* \"Campaign.sol\":557:5078  contract Campaign {... */\n      mstore(0x40, 0x80)\n      jumpi(tag_1, lt(calldatasize, 0x04))\n      shr(0xe0, calldataload(0x00))\n      dup1\n      0x82fde093\n      gt\n      tag_23\n      jumpi\n      dup1\n      0x9ace38c2\n      gt\n      tag_24\n      jumpi\n      dup1\n      0x9ace38c2\n      eq\n      tag_17\n      jumpi\n      dup1\n      0xa39fac12\n      eq\n      tag_18\n      jumpi\n      dup1\n      0xc8b342ab\n      eq\n      tag_19\n      jumpi\n      dup1\n      0xd57bde79\n      eq\n      tag_20\n      jumpi\n      dup1\n      0xd7bb99ba\n      eq\n      tag_21\n      jumpi\n      dup1\n      0xedf26d9b\n      eq\n      tag_22\n      jumpi\n      jump(tag_1)\n    tag_24:\n      dup1\n      0x82fde093\n      eq\n      tag_12\n      jumpi\n      dup1\n      0x83920e90\n      eq\n      tag_13\n      jumpi\n      dup1\n      0x91f90157\n      eq\n      tag_14\n      jumpi\n      dup1\n      0x937e09b1\n      eq\n      tag_15\n      jumpi\n      dup1\n      0x976af615\n      eq\n      tag_16\n      jumpi\n      jump(tag_1)\n    tag_23:\n      dup1\n      0x4e69d560\n      gt\n      tag_25\n      jumpi\n      dup1\n      0x4e69d560\n      eq\n      tag_7\n      jumpi\n      dup1\n      0x58d65629\n      eq\n      tag_8\n      jumpi\n      dup1\n      0x597e1fb5\n      eq\n      tag_9\n      jumpi\n      dup1\n      0x5dc1d641\n      eq\n      tag_10\n      jumpi\n      dup1\n      0x7b87d856\n      eq\n      tag_11\n      jumpi\n      jump(tag_1)\n    tag_25:\n      dup1\n      0x0a144391\n      eq\n      tag_2\n      jumpi\n      dup1\n      0x3197cbb6\n      eq\n      tag_3\n      jumpi\n      dup1\n      0x3bc5de30\n      eq\n      tag_4\n      jumpi\n      dup1\n      0x4051ddac\n      eq\n      tag_5\n      jumpi\n      dup1\n      0x481c6a75\n      eq\n      tag_6\n      jumpi\n    tag_1:\n      revert(0x00, 0x00)\n        /* \"Campaign.sol\":966:1007  mapping(address => bool) public approvers */\n    tag_2:\n      callvalue\n      dup1\n      iszero\n      tag_26\n      jumpi\n      revert(0x00, 0x00)\n    tag_26:\n      pop\n      tag_27\n      0x04\n      dup1\n      calldatasize\n      sub\n      dup2\n      add\n      swap1\n      tag_28\n      swap2\n      swap1\n      tag_29\n      jump\t// in\n    tag_28:\n      tag_30\n      jump\t// in\n    tag_27:\n      mload(0x40)\n      tag_31\n      swap2\n      swap1\n      tag_32\n      jump\t// in\n    tag_31:\n      mload(0x40)\n      dup1\n      swap2\n      sub\n      swap1\n      return\n        /* \"Campaign.sol\":1242:1264  uint256 public endTime */\n    tag_3:\n      callvalue\n      dup1\n      iszero\n      tag_33\n      jumpi\n      revert(0x00, 0x00)\n    tag_33:\n      pop\n      tag_34\n      tag_35\n      jump\t// in\n    tag_34:\n      mload(0x40)\n      tag_36\n      swap2\n      swap1\n      tag_37\n      jump\t// in\n    tag_36:\n      mload(0x40)\n      dup1\n      swap2\n      sub\n      swap1\n      return\n        /* \"Campaign.sol\":4187:4412  function getData() public view returns (string memory) {... */\n    tag_4:\n      callvalue\n      dup1\n      iszero\n      tag_38\n      jumpi\n      revert(0x00, 0x00)\n    tag_38:\n      pop\n      tag_39\n      tag_40\n      jump\t// in\n    tag_39:\n      mload(0x40)\n      tag_41\n      swap2\n      swap1\n      tag_42\n      jump\t// in\n    tag_41:\n      mload(0x40)\n      dup1\n      swap2\n      sub\n      swap1\n      return\n        /* \"Campaign.sol\":4526:5075  function getSummary()... */\n    tag_5:\n      callvalue\n      dup1\n      iszero\n      tag_43\n      jumpi\n      revert(0x00, 0x00)\n    tag_43:\n      pop\n      tag_44\n      tag_45\n      jump\t// in\n    tag_44:\n      mload(0x40)\n      tag_46\n      swap11\n      swap10\n      swap9\n      swap8\n      swap7\n      swap6\n      swap5\n      swap4\n      swap3\n      swap2\n      swap1\n      tag_47\n      jump\t// in\n    tag_46:\n      mload(0x40)\n      dup1\n      swap2\n      sub\n      swap1\n      return\n        /* \"Campaign.sol\":826:848  address public manager */\n    tag_6:\n      callvalue\n      dup1\n      iszero\n      tag_48\n      jumpi\n      revert(0x00, 0x00)\n    tag_48:\n      pop\n      tag_49\n      tag_50\n      jump\t// in\n    tag_49:\n      mload(0x40)\n      tag_51\n      swap2\n      swap1\n      tag_52\n      jump\t// in\n    tag_51:\n      mload(0x40)\n      dup1\n      swap2\n      sub\n      swap1\n      return\n        /* \"Campaign.sol\":3873:3953  function getStatus() public view returns (bool) {... */\n    tag_7:\n      callvalue\n      dup1\n      iszero\n      tag_53\n      jumpi\n      revert(0x00, 0x00)\n    tag_53:\n      pop\n      tag_54\n      tag_55\n      jump\t// in\n    tag_54:\n      mload(0x40)\n      tag_56\n      swap2\n      swap1\n      tag_32\n      jump\t// in\n    tag_56:\n      mload(0x40)\n      dup1\n      swap2\n      sub\n      swap1\n      return\n        /* \"Campaign.sol\":928:957  string public dataDescription */\n    tag_8:\n      callvalue\n      dup1\n      iszero\n      tag_57\n      jumpi\n      revert(0x00, 0x00)\n    tag_57:\n      pop\n      tag_58\n      tag_59\n      jump\t// in\n    tag_58:\n      mload(0x40)\n      tag_60\n      swap2\n      swap1\n      tag_42\n      jump\t// in\n    tag_60:\n      mload(0x40)\n      dup1\n      swap2\n      sub\n      swap1\n      return\n        /* \"Campaign.sol\":1271:1289  bool public closed */\n    tag_9:\n      callvalue\n      dup1\n      iszero\n      tag_61\n      jumpi\n      revert(0x00, 0x00)\n    tag_61:\n      pop\n      tag_62\n      tag_63\n      jump\t// in\n    tag_62:\n      mload(0x40)\n      tag_64\n      swap2\n      swap1\n      tag_32\n      jump\t// in\n    tag_64:\n      mload(0x40)\n      dup1\n      swap2\n      sub\n      swap1\n      return\n        /* \"Campaign.sol\":1014:1063  mapping(address => uint256) public approversMoney */\n    tag_10:\n      callvalue\n      dup1\n      iszero\n      tag_65\n      jumpi\n      revert(0x00, 0x00)\n    tag_65:\n      pop\n      tag_66\n      0x04\n      dup1\n      calldatasize\n      sub\n      dup2\n      add\n      swap1\n      tag_67\n      swap2\n      swap1\n      tag_29\n      jump\t// in\n    tag_67:\n      tag_68\n      jump\t// in\n    tag_66:\n      mload(0x40)\n      tag_69\n      swap2\n      swap1\n      tag_37\n      jump\t// in\n    tag_69:\n      mload(0x40)\n      dup1\n      swap2\n      sub\n      swap1\n      return\n        /* \"Campaign.sol\":896:921  string public dataForSell */\n    tag_11:\n      callvalue\n      dup1\n      iszero\n      tag_70\n      jumpi\n      revert(0x00, 0x00)\n    tag_70:\n      pop\n      tag_71\n      tag_72\n      jump\t// in\n    tag_71:\n      mload(0x40)\n      tag_73\n      swap2\n      swap1\n      tag_42\n      jump\t// in\n    tag_73:\n      mload(0x40)\n      dup1\n      swap2\n      sub\n      swap1\n      return\n        /* \"Campaign.sol\":1070:1099  uint256 public approversCount */\n    tag_12:\n      callvalue\n      dup1\n      iszero\n      tag_74\n      jumpi\n      revert(0x00, 0x00)\n    tag_74:\n      pop\n      tag_75\n      tag_76\n      jump\t// in\n    tag_75:\n      mload(0x40)\n      tag_77\n      swap2\n      swap1\n      tag_37\n      jump\t// in\n    tag_77:\n      mload(0x40)\n      dup1\n      swap2\n      sub\n      swap1\n      return\n        /* \"Campaign.sol\":4079:4179  function getTransactions() public view returns (Bid[] memory) {... */\n    tag_13:\n      callvalue\n      dup1\n      iszero\n      tag_78\n      jumpi\n      revert(0x00, 0x00)\n    tag_78:\n      pop\n      tag_79\n      tag_80\n      jump\t// in\n    tag_79:\n      mload(0x40)\n      tag_81\n      swap2\n      swap1\n      tag_82\n      jump\t// in\n    tag_81:\n      mload(0x40)\n      dup1\n      swap2\n      sub\n      swap1\n      return\n        /* \"Campaign.sol\":1175:1203  address public highestBidder */\n    tag_14:\n      callvalue\n      dup1\n      iszero\n      tag_83\n      jumpi\n      revert(0x00, 0x00)\n    tag_83:\n      pop\n      tag_84\n      tag_85\n      jump\t// in\n    tag_84:\n      mload(0x40)\n      tag_86\n      swap2\n      swap1\n      tag_52\n      jump\t// in\n    tag_86:\n      mload(0x40)\n      dup1\n      swap2\n      sub\n      swap1\n      return\n        /* \"Campaign.sol\":855:889  uint256 public minimumContribution */\n    tag_15:\n      callvalue\n      dup1\n      iszero\n      tag_87\n      jumpi\n      revert(0x00, 0x00)\n    tag_87:\n      pop\n      tag_88\n      tag_89\n      jump\t// in\n    tag_88:\n      mload(0x40)\n      tag_90\n      swap2\n      swap1\n      tag_37\n      jump\t// in\n    tag_90:\n      mload(0x40)\n      dup1\n      swap2\n      sub\n      swap1\n      return\n        /* \"Campaign.sol\":2987:3865  function finalizeAuctionIfNeeded() public onlyAfterEnd {... */\n    tag_16:\n      callvalue\n      dup1\n      iszero\n      tag_91\n      jumpi\n      revert(0x00, 0x00)\n    tag_91:\n      pop\n      tag_92\n      tag_93\n      jump\t// in\n    tag_92:\n      stop\n        /* \"Campaign.sol\":1141:1166  Bid[] public transactions */\n    tag_17:\n      callvalue\n      dup1\n      iszero\n      tag_94\n      jumpi\n      revert(0x00, 0x00)\n    tag_94:\n      pop\n      tag_95\n      0x04\n      dup1\n      calldatasize\n      sub\n      dup2\n      add\n      swap1\n      tag_96\n      swap2\n      swap1\n      tag_97\n      jump\t// in\n    tag_96:\n      tag_98\n      jump\t// in\n    tag_95:\n      mload(0x40)\n      tag_99\n      swap4\n      swap3\n      swap2\n      swap1\n      tag_100\n      jump\t// in\n    tag_99:\n      mload(0x40)\n      dup1\n      swap2\n      sub\n      swap1\n      return\n        /* \"Campaign.sol\":4420:4518  function getAddresses() public view returns (address[] memory) {... */\n    tag_18:\n      callvalue\n      dup1\n      iszero\n      tag_101\n      jumpi\n      revert(0x00, 0x00)\n    tag_101:\n      pop\n      tag_102\n      tag_103\n      jump\t// in\n    tag_102:\n      mload(0x40)\n      tag_104\n      swap2\n      swap1\n      tag_105\n      jump\t// in\n    tag_104:\n      mload(0x40)\n      dup1\n      swap2\n      sub\n      swap1\n      return\n        /* \"Campaign.sol\":3961:4071  function getBid(address bidder) public view returns (uint256) {... */\n    tag_19:\n      callvalue\n      dup1\n      iszero\n      tag_106\n      jumpi\n      revert(0x00, 0x00)\n    tag_106:\n      pop\n      tag_107\n      0x04\n      dup1\n      calldatasize\n      sub\n      dup2\n      add\n      swap1\n      tag_108\n      swap2\n      swap1\n      tag_29\n      jump\t// in\n    tag_108:\n      tag_109\n      jump\t// in\n    tag_107:\n      mload(0x40)\n      tag_110\n      swap2\n      swap1\n      tag_37\n      jump\t// in\n    tag_110:\n      mload(0x40)\n      dup1\n      swap2\n      sub\n      swap1\n      return\n        /* \"Campaign.sol\":1210:1235  uint256 public highestBid */\n    tag_20:\n      callvalue\n      dup1\n      iszero\n      tag_111\n      jumpi\n      revert(0x00, 0x00)\n    tag_111:\n      pop\n      tag_112\n      tag_113\n      jump\t// in\n    tag_112:\n      mload(0x40)\n      tag_114\n      swap2\n      swap1\n      tag_37\n      jump\t// in\n    tag_114:\n      mload(0x40)\n      dup1\n      swap2\n      sub\n      swap1\n      return\n        /* \"Campaign.sol\":1904:2979  function contribute() public payable onlyBeforeEnd {... */\n    tag_21:\n      tag_115\n      tag_116\n      jump\t// in\n    tag_115:\n      stop\n        /* \"Campaign.sol\":1108:1134  address[] public addresses */\n    tag_22:\n      callvalue\n      dup1\n      iszero\n      tag_117\n      jumpi\n      revert(0x00, 0x00)\n    tag_117:\n      pop\n      tag_118\n      0x04\n      dup1\n      calldatasize\n      sub\n      dup2\n      add\n      swap1\n      tag_119\n      swap2\n      swap1\n      tag_97\n      jump\t// in\n    tag_119:\n      tag_120\n      jump\t// in\n    tag_118:\n      mload(0x40)\n      tag_121\n      swap2\n      swap1\n      tag_52\n      jump\t// in\n    tag_121:\n      mload(0x40)\n      dup1\n      swap2\n      sub\n      swap1\n      return\n        /* \"Campaign.sol\":966:1007  mapping(address => bool) public approvers */\n    tag_30:\n      mstore(0x20, 0x04)\n      dup1\n      0x00\n      mstore\n      keccak256(0x00, 0x40)\n      0x00\n      swap2\n      pop\n      sload\n      swap1\n      0x0100\n      exp\n      swap1\n      div\n      0xff\n      and\n      dup2\n      jump\t// out\n        /* \"Campaign.sol\":1242:1264  uint256 public endTime */\n    tag_35:\n      sload(0x0b)\n      dup2\n      jump\t// out\n        /* \"Campaign.sol\":4187:4412  function getData() public view returns (string memory) {... */\n    tag_40:\n        /* \"Campaign.sol\":4227:4240  string memory */\n      0x60\n        /* \"Campaign.sol\":4261:4267  closed */\n      0x0c\n      0x00\n      swap1\n      sload\n      swap1\n      0x0100\n      exp\n      swap1\n      div\n      0xff\n      and\n        /* \"Campaign.sol\":4253:4293  require(closed, \"Auction not finalized\") */\n      tag_123\n      jumpi\n      mload(0x40)\n      0x08c379a000000000000000000000000000000000000000000000000000000000\n      dup2\n      mstore\n      0x04\n      add\n      tag_124\n      swap1\n      tag_125\n      jump\t// in\n    tag_124:\n      mload(0x40)\n      dup1\n      swap2\n      sub\n      swap1\n      revert\n    tag_123:\n        /* \"Campaign.sol\":4326:4339  highestBidder */\n      0x09\n      0x00\n      swap1\n      sload\n      swap1\n      0x0100\n      exp\n      swap1\n      div\n      0xffffffffffffffffffffffffffffffffffffffff\n      and\n        /* \"Campaign.sol\":4312:4339  msg.sender == highestBidder */\n      0xffffffffffffffffffffffffffffffffffffffff\n      and\n        /* \"Campaign.sol\":4312:4322  msg.sender */\n      caller\n        /* \"Campaign.sol\":4312:4339  msg.sender == highestBidder */\n      0xffffffffffffffffffffffffffffffffffffffff\n      and\n      eq\n        /* \"Campaign.sol\":4304:4375  require(msg.sender == highestBidder, \"Only winner can access the data\") */\n      tag_126\n      jumpi\n      mload(0x40)\n      0x08c379a000000000000000000000000000000000000000000000000000000000\n      dup2\n      mstore\n      0x04\n      add\n      tag_127\n      swap1\n      tag_128\n      jump\t// in\n    tag_127:\n      mload(0x40)\n      dup1\n      swap2\n      sub\n      swap1\n      revert\n    tag_126:\n        /* \"Campaign.sol\":4393:4404  dataForSell */\n      0x02\n        /* \"Campaign.sol\":4386:4404  return dataForSell */\n      dup1\n      sload\n      tag_129\n      swap1\n      tag_130\n      jump\t// in\n    tag_129:\n      dup1\n      0x1f\n      add\n      0x20\n      dup1\n      swap2\n      div\n      mul\n      0x20\n      add\n      mload(0x40)\n      swap1\n      dup2\n      add\n      0x40\n      mstore\n      dup1\n      swap3\n      swap2\n      swap1\n      dup2\n      dup2\n      mstore\n      0x20\n      add\n      dup3\n      dup1\n      sload\n      tag_131\n      swap1\n      tag_130\n      jump\t// in\n    tag_131:\n      dup1\n      iszero\n      tag_132\n      jumpi\n      dup1\n      0x1f\n      lt\n      tag_133\n      jumpi\n      0x0100\n      dup1\n      dup4\n      sload\n      div\n      mul\n      dup4\n      mstore\n      swap2\n      0x20\n      add\n      swap2\n      jump(tag_132)\n    tag_133:\n      dup3\n      add\n      swap2\n      swap1\n      0x00\n      mstore\n      keccak256(0x00, 0x20)\n      swap1\n    tag_134:\n      dup2\n      sload\n      dup2\n      mstore\n      swap1\n      0x01\n      add\n      swap1\n      0x20\n      add\n      dup1\n      dup4\n      gt\n      tag_134\n      jumpi\n      dup3\n      swap1\n      sub\n      0x1f\n      and\n      dup3\n      add\n      swap2\n    tag_132:\n      pop\n      pop\n      pop\n      pop\n      pop\n      swap1\n      pop\n        /* \"Campaign.sol\":4187:4412  function getData() public view returns (string memory) {... */\n      swap1\n      jump\t// out\n        /* \"Campaign.sol\":4526:5075  function getSummary()... */\n    tag_45:\n        /* \"Campaign.sol\":4610:4617  uint256 */\n      0x00\n        /* \"Campaign.sol\":4619:4626  uint256 */\n      0x00\n        /* \"Campaign.sol\":4628:4635  uint256 */\n      0x00\n        /* \"Campaign.sol\":4637:4644  address */\n      0x00\n        /* \"Campaign.sol\":4659:4666  uint256 */\n      0x00\n        /* \"Campaign.sol\":4668:4681  string memory */\n      0x60\n        /* \"Campaign.sol\":4683:4696  string memory */\n      dup1\n        /* \"Campaign.sol\":4711:4718  address */\n      0x00\n        /* \"Campaign.sol\":4720:4736  address[] memory */\n      0x60\n        /* \"Campaign.sol\":4738:4745  uint256 */\n      0x00\n        /* \"Campaign.sol\":4795:4814  minimumContribution */\n      sload(0x01)\n        /* \"Campaign.sol\":4829:4850  address(this).balance */\n      selfbalance\n        /* \"Campaign.sol\":4865:4879  approversCount */\n      sload(0x06)\n        /* \"Campaign.sol\":4894:4901  manager */\n      0x00\n      0x00\n      swap1\n      sload\n      swap1\n      0x0100\n      exp\n      swap1\n      div\n      0xffffffffffffffffffffffffffffffffffffffff\n      and\n        /* \"Campaign.sol\":4916:4926  highestBid */\n      sload(0x0a)\n        /* \"Campaign.sol\":4941:4952  dataForSell */\n      0x02\n        /* \"Campaign.sol\":4967:4982  dataDescription */\n      0x03\n        /* \"Campaign.sol\":4997:5010  highestBidder */\n      0x09\n      0x00\n      swap1\n      sload\n      swap1\n      0x0100\n      exp\n      swap1\n      div\n      0xffffffffffffffffffffffffffffffffffffffff\n      and\n        /* \"Campaign.sol\":5025:5034  addresses */\n      0x07\n        /* \"Campaign.sol\":5049:5056  endTime */\n      sload(0x0b)\n        /* \"Campaign.sol\":4773:5067  return (... */\n      dup5\n      dup1\n      sload\n      tag_136\n      swap1\n      tag_130\n      jump\t// in\n    tag_136:\n      dup1\n      0x1f\n      add\n      0x20\n      dup1\n      swap2\n      div\n      mul\n      0x20\n      add\n      mload(0x40)\n      swap1\n      dup2\n      add\n      0x40\n      mstore\n      dup1\n      swap3\n      swap2\n      swap1\n      dup2\n      dup2\n      mstore\n      0x20\n      add\n      dup3\n      dup1\n      sload\n      tag_137\n      swap1\n      tag_130\n      jump\t// in\n    tag_137:\n      dup1\n      iszero\n      tag_138\n      jumpi\n      dup1\n      0x1f\n      lt\n      tag_139\n      jumpi\n      0x0100\n      dup1\n      dup4\n      sload\n      div\n      mul\n      dup4\n      mstore\n      swap2\n      0x20\n      add\n      swap2\n      jump(tag_138)\n    tag_139:\n      dup3\n      add\n      swap2\n      swap1\n      0x00\n      mstore\n      keccak256(0x00, 0x20)\n      swap1\n    tag_140:\n      dup2\n      sload\n      dup2\n      mstore\n      swap1\n      0x01\n      add\n      swap1\n      0x20\n      add\n      dup1\n      dup4\n      gt\n      tag_140\n      jumpi\n      dup3\n      swap1\n      sub\n      0x1f\n      and\n      dup3\n      add\n      swap2\n    tag_138:\n      pop\n      pop\n      pop\n      pop\n      pop\n      swap5\n      pop\n      dup4\n      dup1\n      sload\n      tag_141\n      swap1\n      tag_130\n      jump\t// in\n    tag_141:\n      dup1\n      0x1f\n      add\n      0x20\n      dup1\n      swap2\n      div\n      mul\n      0x20\n      add\n      mload(0x40)\n      swap1\n      dup2\n      add\n      0x40\n      mstore\n      dup1\n      swap3\n      swap2\n      swap1\n      dup2\n      dup2\n      mstore\n      0x20\n      add\n      dup3\n      dup1\n      sload\n      tag_142\n      swap1\n      tag_130\n      jump\t// in\n    tag_142:\n      dup1\n      iszero\n      tag_143\n      jumpi\n      dup1\n      0x1f\n      lt\n      tag_144\n      jumpi\n      0x0100\n      dup1\n      dup4\n      sload\n      div\n      mul\n      dup4\n      mstore\n      swap2\n      0x20\n      add\n      swap2\n      jump(tag_143)\n    tag_144:\n      dup3\n      add\n      swap2\n      swap1\n      0x00\n      mstore\n      keccak256(0x00, 0x20)\n      swap1\n    tag_145:\n      dup2\n      sload\n      dup2\n      mstore\n      swap1\n      0x01\n      add\n      swap1\n      0x20\n      add\n      dup1\n      dup4\n      gt\n      tag_145\n      jumpi\n      dup3\n      swap1\n      sub\n      0x1f\n      and\n      dup3\n      add\n      swap2\n    tag_143:\n      pop\n      pop\n      pop\n      pop\n      pop\n      swap4\n      pop\n      dup2\n      dup1\n      sload\n      dup1\n      0x20\n      mul\n      0x20\n      add\n      mload(0x40)\n      swap1\n      dup2\n      add\n      0x40\n      mstore\n      dup1\n      swap3\n      swap2\n      swap1\n      dup2\n      dup2\n      mstore\n      0x20\n      add\n      dup3\n      dup1\n      sload\n      dup1\n      iszero\n      tag_146\n      jumpi\n      0x20\n      mul\n      dup3\n      add\n      swap2\n      swap1\n      0x00\n      mstore\n      keccak256(0x00, 0x20)\n      swap1\n    tag_147:\n      dup2\n      0x00\n      swap1\n      sload\n      swap1\n      0x0100\n      exp\n      swap1\n      div\n      0xffffffffffffffffffffffffffffffffffffffff\n      and\n      0xffffffffffffffffffffffffffffffffffffffff\n      and\n      dup2\n      mstore\n      0x20\n      add\n      swap1\n      0x01\n      add\n      swap1\n      dup1\n      dup4\n      gt\n      tag_147\n      jumpi\n    tag_146:\n      pop\n      pop\n      pop\n      pop\n      pop\n      swap2\n      pop\n      swap10\n      pop\n      swap10\n      pop\n      swap10\n      pop\n      swap10\n      pop\n      swap10\n      pop\n      swap10\n      pop\n      swap10\n      pop\n      swap10\n      pop\n      swap10\n      pop\n      swap10\n      pop\n        /* \"Campaign.sol\":4526:5075  function getSummary()... */\n      swap1\n      swap2\n      swap3\n      swap4\n      swap5\n      swap6\n      swap7\n      swap8\n      swap9\n      swap10\n      jump\t// out\n        /* \"Campaign.sol\":826:848  address public manager */\n    tag_50:\n      0x00\n      0x00\n      swap1\n      sload\n      swap1\n      0x0100\n      exp\n      swap1\n      div\n      0xffffffffffffffffffffffffffffffffffffffff\n      and\n      dup2\n      jump\t// out\n        /* \"Campaign.sol\":3873:3953  function getStatus() public view returns (bool) {... */\n    tag_55:\n        /* \"Campaign.sol\":3915:3919  bool */\n      0x00\n        /* \"Campaign.sol\":3939:3945  closed */\n      0x0c\n      0x00\n      swap1\n      sload\n      swap1\n      0x0100\n      exp\n      swap1\n      div\n      0xff\n      and\n        /* \"Campaign.sol\":3932:3945  return closed */\n      swap1\n      pop\n        /* \"Campaign.sol\":3873:3953  function getStatus() public view returns (bool) {... */\n      swap1\n      jump\t// out\n        /* \"Campaign.sol\":928:957  string public dataDescription */\n    tag_59:\n      0x03\n      dup1\n      sload\n      tag_149\n      swap1\n      tag_130\n      jump\t// in\n    tag_149:\n      dup1\n      0x1f\n      add\n      0x20\n      dup1\n      swap2\n      div\n      mul\n      0x20\n      add\n      mload(0x40)\n      swap1\n      dup2\n      add\n      0x40\n      mstore\n      dup1\n      swap3\n      swap2\n      swap1\n      dup2\n      dup2\n      mstore\n      0x20\n      add\n      dup3\n      dup1\n      sload\n      tag_150\n      swap1\n      tag_130\n      jump\t// in\n    tag_150:\n      dup1\n      iszero\n      tag_151\n      jumpi\n      dup1\n      0x1f\n      lt\n      tag_152\n      jumpi\n      0x0100\n      dup1\n      dup4\n      sload\n      div\n      mul\n      dup4\n      mstore\n      swap2\n      0x20\n      add\n      swap2\n      jump(tag_151)\n    tag_152:\n      dup3\n      add\n      swap2\n      swap1\n      0x00\n      mstore\n      keccak256(0x00, 0x20)\n      swap1\n    tag_153:\n      dup2\n      sload\n      dup2\n      mstore\n      swap1\n      0x01\n      add\n      swap1\n      0x20\n      add\n      dup1\n      dup4\n      gt\n      tag_153\n      jumpi\n      dup3\n      swap1\n      sub\n      0x1f\n      and\n      dup3\n      add\n      swap2\n    tag_151:\n      pop\n      pop\n      pop\n      pop\n      pop\n      dup2\n      jump\t// out\n        /* \"Campaign.sol\":1271:1289  bool public closed */\n    tag_63:\n      0x0c\n      0x00\n      swap1\n      sload\n      swap1\n      0x0100\n      exp\n      swap1\n      div\n      0xff\n      and\n      dup2\n      jump\t// out\n        /* \"Campaign.sol\":1014:1063  mapping(address => uint256) public approversMoney */\n    tag_68:\n      mstore(0x20, 0x05)\n      dup1\n      0x00\n      mstore\n      keccak256(0x00, 0x40)\n      0x00\n      swap2\n      pop\n      swap1\n      pop\n      sload\n      dup2\n      jump\t// out\n        /* \"Campaign.sol\":896:921  string public dataForSell */\n    tag_72:\n      0x02\n      dup1\n      sload\n      tag_154\n      swap1\n      tag_130\n      jump\t// in\n    tag_154:\n      dup1\n      0x1f\n      add\n      0x20\n      dup1\n      swap2\n      div\n      mul\n      0x20\n      add\n      mload(0x40)\n      swap1\n      dup2\n      add\n      0x40\n      mstore\n      dup1\n      swap3\n      swap2\n      swap1\n      dup2\n      dup2\n      mstore\n      0x20\n      add\n      dup3\n      dup1\n      sload\n      tag_155\n      swap1\n      tag_130\n      jump\t// in\n    tag_155:\n      dup1\n      iszero\n      tag_156\n      jumpi\n      dup1\n      0x1f\n      lt\n      tag_157\n      jumpi\n      0x0100\n      dup1\n      dup4\n      sload\n      div\n      mul\n      dup4\n      mstore\n      swap2\n      0x20\n      add\n      swap2\n      jump(tag_156)\n    tag_157:\n      dup3\n      add\n      swap2\n      swap1\n      0x00\n      mstore\n      keccak256(0x00, 0x20)\n      swap1\n    tag_158:\n      dup2\n      sload\n      dup2\n      mstore\n      swap1\n      0x01\n      add\n      swap1\n      0x20\n      add\n      dup1\n      dup4\n      gt\n      tag_158\n      jumpi\n      dup3\n      swap1\n      sub\n      0x1f\n      and\n      dup3\n      add\n      swap2\n    tag_156:\n      pop\n      pop\n      pop\n      pop\n      pop\n      dup2\n      jump\t// out\n        /* \"Campaign.sol\":1070:1099  uint256 public approversCount */\n    tag_76:\n      sload(0x06)\n      dup2\n      jump\t// out\n        /* \"Campaign.sol\":4079:4179  function getTransactions() public view returns (Bid[] memory) {... */\n    tag_80:\n        /* \"Campaign.sol\":4127:4139  Bid[] memory */\n      0x60\n        /* \"Campaign.sol\":4159:4171  transactions */\n      0x08\n        /* \"Campaign.sol\":4152:4171  return transactions */\n      dup1\n      sload\n      dup1\n      0x20\n      mul\n      0x20\n      add\n      mload(0x40)\n      swap1\n      dup2\n      add\n      0x40\n      mstore\n      dup1\n      swap3\n      swap2\n      swap1\n      dup2\n      dup2\n      mstore\n      0x20\n      add\n      0x00\n      swap1\n    tag_160:\n      dup3\n      dup3\n      lt\n      iszero\n      tag_161\n      jumpi\n      dup4\n      dup3\n      swap1\n      0x00\n      mstore\n      keccak256(0x00, 0x20)\n      swap1\n      0x03\n      mul\n      add\n      mload(0x40)\n      dup1\n      0x60\n      add\n      0x40\n      mstore\n      swap1\n      dup2\n      0x00\n      dup3\n      add\n      sload\n      dup2\n      mstore\n      0x20\n      add\n      0x01\n      dup3\n      add\n      sload\n      dup2\n      mstore\n      0x20\n      add\n      0x02\n      dup3\n      add\n      0x00\n      swap1\n      sload\n      swap1\n      0x0100\n      exp\n      swap1\n      div\n      0xffffffffffffffffffffffffffffffffffffffff\n      and\n      0xffffffffffffffffffffffffffffffffffffffff\n      and\n      0xffffffffffffffffffffffffffffffffffffffff\n      and\n      dup2\n      mstore\n      pop\n      pop\n      dup2\n      mstore\n      0x20\n      add\n      swap1\n      0x01\n      add\n      swap1\n      jump(tag_160)\n    tag_161:\n      pop\n      pop\n      pop\n      pop\n      swap1\n      pop\n        /* \"Campaign.sol\":4079:4179  function getTransactions() public view returns (Bid[] memory) {... */\n      swap1\n      jump\t// out\n        /* \"Campaign.sol\":1175:1203  address public highestBidder */\n    tag_85:\n      0x09\n      0x00\n      swap1\n      sload\n      swap1\n      0x0100\n      exp\n      swap1\n      div\n      0xffffffffffffffffffffffffffffffffffffffff\n      and\n      dup2\n      jump\t// out\n        /* \"Campaign.sol\":855:889  uint256 public minimumContribution */\n    tag_89:\n      sload(0x01)\n      dup2\n      jump\t// out\n        /* \"Campaign.sol\":2987:3865  function finalizeAuctionIfNeeded() public onlyAfterEnd {... */\n    tag_93:\n        /* \"Campaign.sol\":1475:1482  endTime */\n      sload(0x0b)\n        /* \"Campaign.sol\":1456:1471  block.timestamp */\n      timestamp\n        /* \"Campaign.sol\":1456:1482  block.timestamp >= endTime */\n      lt\n      iszero\n        /* \"Campaign.sol\":1448:1508  require(block.timestamp >= endTime, \"Auction not ended yet\") */\n      tag_164\n      jumpi\n      mload(0x40)\n      0x08c379a000000000000000000000000000000000000000000000000000000000\n      dup2\n      mstore\n      0x04\n      add\n      tag_165\n      swap1\n      tag_166\n      jump\t// in\n    tag_165:\n      mload(0x40)\n      dup1\n      swap2\n      sub\n      swap1\n      revert\n    tag_164:\n        /* \"Campaign.sol\":3062:3068  closed */\n      0x0c\n      0x00\n      swap1\n      sload\n      swap1\n      0x0100\n      exp\n      swap1\n      div\n      0xff\n      and\n        /* \"Campaign.sol\":3061:3068  !closed */\n      iszero\n        /* \"Campaign.sol\":3053:3098  require(!closed, \"Auction already finalized\") */\n      tag_168\n      jumpi\n      mload(0x40)\n      0x08c379a000000000000000000000000000000000000000000000000000000000\n      dup2\n      mstore\n      0x04\n      add\n      tag_169\n      swap1\n      tag_170\n      jump\t// in\n    tag_169:\n      mload(0x40)\n      dup1\n      swap2\n      sub\n      swap1\n      revert\n    tag_168:\n        /* \"Campaign.sol\":3116:3125  uint256 i */\n      0x00\n        /* \"Campaign.sol\":3128:3129  0 */\n      0x00\n        /* \"Campaign.sol\":3116:3129  uint256 i = 0 */\n      swap1\n      pop\n        /* \"Campaign.sol\":3111:3602  for (uint256 i = 0; i < addresses.length; i++) {... */\n    tag_171:\n        /* \"Campaign.sol\":3135:3144  addresses */\n      0x07\n        /* \"Campaign.sol\":3135:3151  addresses.length */\n      dup1\n      sload\n      swap1\n      pop\n        /* \"Campaign.sol\":3131:3132  i */\n      dup2\n        /* \"Campaign.sol\":3131:3151  i < addresses.length */\n      lt\n        /* \"Campaign.sol\":3111:3602  for (uint256 i = 0; i < addresses.length; i++) {... */\n      iszero\n      tag_172\n      jumpi\n        /* \"Campaign.sol\":3173:3192  address contributor */\n      0x00\n        /* \"Campaign.sol\":3195:3204  addresses */\n      0x07\n        /* \"Campaign.sol\":3205:3206  i */\n      dup3\n        /* \"Campaign.sol\":3195:3207  addresses[i] */\n      dup2\n      sload\n      dup2\n      lt\n      tag_174\n      jumpi\n      tag_175\n      tag_176\n      jump\t// in\n    tag_175:\n    tag_174:\n      swap1\n      0x00\n      mstore\n      keccak256(0x00, 0x20)\n      add\n      0x00\n      swap1\n      sload\n      swap1\n      0x0100\n      exp\n      swap1\n      div\n      0xffffffffffffffffffffffffffffffffffffffff\n      and\n        /* \"Campaign.sol\":3173:3207  address contributor = addresses[i] */\n      swap1\n      pop\n        /* \"Campaign.sol\":3241:3254  highestBidder */\n      0x09\n      0x00\n      swap1\n      sload\n      swap1\n      0x0100\n      exp\n      swap1\n      div\n      0xffffffffffffffffffffffffffffffffffffffff\n      and\n        /* \"Campaign.sol\":3226:3254  contributor != highestBidder */\n      0xffffffffffffffffffffffffffffffffffffffff\n      and\n        /* \"Campaign.sol\":3226:3237  contributor */\n      dup2\n        /* \"Campaign.sol\":3226:3254  contributor != highestBidder */\n      0xffffffffffffffffffffffffffffffffffffffff\n      and\n      eq\n        /* \"Campaign.sol\":3222:3591  if (contributor != highestBidder) {... */\n      tag_178\n      jumpi\n        /* \"Campaign.sol\":3275:3295  uint256 refundAmount */\n      0x00\n        /* \"Campaign.sol\":3298:3312  approversMoney */\n      0x05\n        /* \"Campaign.sol\":3298:3325  approversMoney[contributor] */\n      0x00\n        /* \"Campaign.sol\":3313:3324  contributor */\n      dup4\n        /* \"Campaign.sol\":3298:3325  approversMoney[contributor] */\n      0xffffffffffffffffffffffffffffffffffffffff\n      and\n      0xffffffffffffffffffffffffffffffffffffffff\n      and\n      dup2\n      mstore\n      0x20\n      add\n      swap1\n      dup2\n      mstore\n      0x20\n      add\n      0x00\n      keccak256\n      sload\n        /* \"Campaign.sol\":3275:3325  uint256 refundAmount = approversMoney[contributor] */\n      swap1\n      pop\n        /* \"Campaign.sol\":3363:3364  0 */\n      0x00\n        /* \"Campaign.sol\":3348:3360  refundAmount */\n      dup2\n        /* \"Campaign.sol\":3348:3364  refundAmount > 0 */\n      gt\n        /* \"Campaign.sol\":3344:3576  if (refundAmount > 0) {... */\n      iszero\n      tag_179\n      jumpi\n        /* \"Campaign.sol\":3419:3420  0 */\n      0x00\n        /* \"Campaign.sol\":3389:3403  approversMoney */\n      0x05\n        /* \"Campaign.sol\":3389:3416  approversMoney[contributor] */\n      0x00\n        /* \"Campaign.sol\":3404:3415  contributor */\n      dup5\n        /* \"Campaign.sol\":3389:3416  approversMoney[contributor] */\n      0xffffffffffffffffffffffffffffffffffffffff\n      and\n      0xffffffffffffffffffffffffffffffffffffffff\n      and\n      dup2\n      mstore\n      0x20\n      add\n      swap1\n      dup2\n      mstore\n      0x20\n      add\n      0x00\n      keccak256\n        /* \"Campaign.sol\":3389:3420  approversMoney[contributor] = 0 */\n      dup2\n      swap1\n      sstore\n      pop\n        /* \"Campaign.sol\":3451:3462  contributor */\n      dup2\n        /* \"Campaign.sol\":3443:3472  payable(contributor).transfer */\n      0xffffffffffffffffffffffffffffffffffffffff\n      and\n        /* \"Campaign.sol\":3443:3486  payable(contributor).transfer(refundAmount) */\n      0x08fc\n        /* \"Campaign.sol\":3473:3485  refundAmount */\n      dup3\n        /* \"Campaign.sol\":3443:3486  payable(contributor).transfer(refundAmount) */\n      swap1\n      dup2\n      iszero\n      mul\n      swap1\n      mload(0x40)\n      0x00\n      mload(0x40)\n      dup1\n      dup4\n      sub\n      dup2\n      dup6\n      dup9\n      dup9\n      call\n      swap4\n      pop\n      pop\n      pop\n      pop\n      iszero\n      dup1\n      iszero\n      tag_181\n      jumpi\n      returndatacopy(0x00, 0x00, returndatasize)\n      revert(0x00, returndatasize)\n    tag_181:\n      pop\n        /* \"Campaign.sol\":3530:3541  contributor */\n      dup2\n        /* \"Campaign.sol\":3514:3556  RefundProcessed(contributor, refundAmount) */\n      0xffffffffffffffffffffffffffffffffffffffff\n      and\n      0x3367befd2b2f39615cd79917c2153263c4af1d3945ec003e5d5bfc13a8d85833\n        /* \"Campaign.sol\":3543:3555  refundAmount */\n      dup3\n        /* \"Campaign.sol\":3514:3556  RefundProcessed(contributor, refundAmount) */\n      mload(0x40)\n      tag_182\n      swap2\n      swap1\n      tag_37\n      jump\t// in\n    tag_182:\n      mload(0x40)\n      dup1\n      swap2\n      sub\n      swap1\n      log2\n        /* \"Campaign.sol\":3344:3576  if (refundAmount > 0) {... */\n    tag_179:\n        /* \"Campaign.sol\":3256:3591  {... */\n      pop\n        /* \"Campaign.sol\":3222:3591  if (contributor != highestBidder) {... */\n    tag_178:\n        /* \"Campaign.sol\":3158:3602  {... */\n      pop\n        /* \"Campaign.sol\":3153:3156  i++ */\n      dup1\n      dup1\n      0x01\n      add\n      swap2\n      pop\n      pop\n        /* \"Campaign.sol\":3111:3602  for (uint256 i = 0; i < addresses.length; i++) {... */\n      jump(tag_171)\n    tag_172:\n      pop\n        /* \"Campaign.sol\":3631:3632  0 */\n      0x00\n        /* \"Campaign.sol\":3618:3628  highestBid */\n      sload(0x0a)\n        /* \"Campaign.sol\":3618:3632  highestBid > 0 */\n      gt\n        /* \"Campaign.sol\":3614:3832  if (highestBid > 0) {... */\n      iszero\n      tag_183\n      jumpi\n        /* \"Campaign.sol\":3682:3692  highestBid */\n      sload(0x0a)\n        /* \"Campaign.sol\":3657:3678  address(this).balance */\n      selfbalance\n        /* \"Campaign.sol\":3657:3692  address(this).balance >= highestBid */\n      lt\n      iszero\n        /* \"Campaign.sol\":3649:3717  require(address(this).balance >= highestBid, \"Insufficient balance\") */\n      tag_184\n      jumpi\n      mload(0x40)\n      0x08c379a000000000000000000000000000000000000000000000000000000000\n      dup2\n      mstore\n      0x04\n      add\n      tag_185\n      swap1\n      tag_186\n      jump\t// in\n    tag_185:\n      mload(0x40)\n      dup1\n      swap2\n      sub\n      swap1\n      revert\n    tag_184:\n        /* \"Campaign.sol\":3740:3747  manager */\n      0x00\n      0x00\n      swap1\n      sload\n      swap1\n      0x0100\n      exp\n      swap1\n      div\n      0xffffffffffffffffffffffffffffffffffffffff\n      and\n        /* \"Campaign.sol\":3732:3757  payable(manager).transfer */\n      0xffffffffffffffffffffffffffffffffffffffff\n      and\n        /* \"Campaign.sol\":3732:3769  payable(manager).transfer(highestBid) */\n      0x08fc\n        /* \"Campaign.sol\":3758:3768  highestBid */\n      sload(0x0a)\n        /* \"Campaign.sol\":3732:3769  payable(manager).transfer(highestBid) */\n      swap1\n      dup2\n      iszero\n      mul\n      swap1\n      mload(0x40)\n      0x00\n      mload(0x40)\n      dup1\n      dup4\n      sub\n      dup2\n      dup6\n      dup9\n      dup9\n      call\n      swap4\n      pop\n      pop\n      pop\n      pop\n      iszero\n      dup1\n      iszero\n      tag_188\n      jumpi\n      returndatacopy(0x00, 0x00, returndatasize)\n      revert(0x00, returndatasize)\n    tag_188:\n      pop\n        /* \"Campaign.sol\":3800:3807  manager */\n      0x00\n      0x00\n      swap1\n      sload\n      swap1\n      0x0100\n      exp\n      swap1\n      div\n      0xffffffffffffffffffffffffffffffffffffffff\n      and\n        /* \"Campaign.sol\":3789:3820  SellerPaid(manager, highestBid) */\n      0xffffffffffffffffffffffffffffffffffffffff\n      and\n      0xcb4a9094da4df77fb2c0dbaa5047660b1237e61d82a02176c1be74ca757f2531\n        /* \"Campaign.sol\":3809:3819  highestBid */\n      sload(0x0a)\n        /* \"Campaign.sol\":3789:3820  SellerPaid(manager, highestBid) */\n      mload(0x40)\n      tag_189\n      swap2\n      swap1\n      tag_37\n      jump\t// in\n    tag_189:\n      mload(0x40)\n      dup1\n      swap2\n      sub\n      swap1\n      log2\n        /* \"Campaign.sol\":3614:3832  if (highestBid > 0) {... */\n    tag_183:\n        /* \"Campaign.sol\":3853:3857  true */\n      0x01\n        /* \"Campaign.sol\":3844:3850  closed */\n      0x0c\n      0x00\n        /* \"Campaign.sol\":3844:3857  closed = true */\n      0x0100\n      exp\n      dup2\n      sload\n      dup2\n      0xff\n      mul\n      not\n      and\n      swap1\n      dup4\n      iszero\n      iszero\n      mul\n      or\n      swap1\n      sstore\n      pop\n        /* \"Campaign.sol\":2987:3865  function finalizeAuctionIfNeeded() public onlyAfterEnd {... */\n      jump\t// out\n        /* \"Campaign.sol\":1141:1166  Bid[] public transactions */\n    tag_98:\n      0x08\n      dup2\n      dup2\n      sload\n      dup2\n      lt\n      tag_190\n      jumpi\n      0x00\n      dup1\n      revert\n    tag_190:\n      swap1\n      0x00\n      mstore\n      keccak256(0x00, 0x20)\n      swap1\n      0x03\n      mul\n      add\n      0x00\n      swap2\n      pop\n      swap1\n      pop\n      dup1\n      0x00\n      add\n      sload\n      swap1\n      dup1\n      0x01\n      add\n      sload\n      swap1\n      dup1\n      0x02\n      add\n      0x00\n      swap1\n      sload\n      swap1\n      0x0100\n      exp\n      swap1\n      div\n      0xffffffffffffffffffffffffffffffffffffffff\n      and\n      swap1\n      pop\n      dup4\n      jump\t// out\n        /* \"Campaign.sol\":4420:4518  function getAddresses() public view returns (address[] memory) {... */\n    tag_103:\n        /* \"Campaign.sol\":4465:4481  address[] memory */\n      0x60\n        /* \"Campaign.sol\":4501:4510  addresses */\n      0x07\n        /* \"Campaign.sol\":4494:4510  return addresses */\n      dup1\n      sload\n      dup1\n      0x20\n      mul\n      0x20\n      add\n      mload(0x40)\n      swap1\n      dup2\n      add\n      0x40\n      mstore\n      dup1\n      swap3\n      swap2\n      swap1\n      dup2\n      dup2\n      mstore\n      0x20\n      add\n      dup3\n      dup1\n      sload\n      dup1\n      iszero\n      tag_193\n      jumpi\n      0x20\n      mul\n      dup3\n      add\n      swap2\n      swap1\n      0x00\n      mstore\n      keccak256(0x00, 0x20)\n      swap1\n    tag_194:\n      dup2\n      0x00\n      swap1\n      sload\n      swap1\n      0x0100\n      exp\n      swap1\n      div\n      0xffffffffffffffffffffffffffffffffffffffff\n      and\n      0xffffffffffffffffffffffffffffffffffffffff\n      and\n      dup2\n      mstore\n      0x20\n      add\n      swap1\n      0x01\n      add\n      swap1\n      dup1\n      dup4\n      gt\n      tag_194\n      jumpi\n    tag_193:\n      pop\n      pop\n      pop\n      pop\n      pop\n      swap1\n      pop\n        /* \"Campaign.sol\":4420:4518  function getAddresses() public view returns (address[] memory) {... */\n      swap1\n      jump\t// out\n        /* \"Campaign.sol\":3961:4071  function getBid(address bidder) public view returns (uint256) {... */\n    tag_109:\n        /* \"Campaign.sol\":4014:4021  uint256 */\n      0x00\n        /* \"Campaign.sol\":4041:4055  approversMoney */\n      0x05\n        /* \"Campaign.sol\":4041:4063  approversMoney[bidder] */\n      0x00\n        /* \"Campaign.sol\":4056:4062  bidder */\n      dup4\n        /* \"Campaign.sol\":4041:4063  approversMoney[bidder] */\n      0xffffffffffffffffffffffffffffffffffffffff\n      and\n      0xffffffffffffffffffffffffffffffffffffffff\n      and\n      dup2\n      mstore\n      0x20\n      add\n      swap1\n      dup2\n      mstore\n      0x20\n      add\n      0x00\n      keccak256\n      sload\n        /* \"Campaign.sol\":4034:4063  return approversMoney[bidder] */\n      swap1\n      pop\n        /* \"Campaign.sol\":3961:4071  function getBid(address bidder) public view returns (uint256) {... */\n      swap2\n      swap1\n      pop\n      jump\t// out\n        /* \"Campaign.sol\":1210:1235  uint256 public highestBid */\n    tag_113:\n      sload(0x0a)\n      dup2\n      jump\t// out\n        /* \"Campaign.sol\":1904:2979  function contribute() public payable onlyBeforeEnd {... */\n    tag_116:\n        /* \"Campaign.sol\":1360:1367  endTime */\n      sload(0x0b)\n        /* \"Campaign.sol\":1342:1357  block.timestamp */\n      timestamp\n        /* \"Campaign.sol\":1342:1367  block.timestamp < endTime */\n      lt\n        /* \"Campaign.sol\":1334:1385  require(block.timestamp < endTime, \"Auction ended\") */\n      tag_197\n      jumpi\n      mload(0x40)\n      0x08c379a000000000000000000000000000000000000000000000000000000000\n      dup2\n      mstore\n      0x04\n      add\n      tag_198\n      swap1\n      tag_199\n      jump\t// in\n    tag_198:\n      mload(0x40)\n      dup1\n      swap2\n      sub\n      swap1\n      revert\n    tag_197:\n        /* \"Campaign.sol\":1984:1991  manager */\n      0x00\n      0x00\n      swap1\n      sload\n      swap1\n      0x0100\n      exp\n      swap1\n      div\n      0xffffffffffffffffffffffffffffffffffffffff\n      and\n        /* \"Campaign.sol\":1970:1991  msg.sender != manager */\n      0xffffffffffffffffffffffffffffffffffffffff\n      and\n        /* \"Campaign.sol\":1970:1980  msg.sender */\n      caller\n        /* \"Campaign.sol\":1970:1991  msg.sender != manager */\n      0xffffffffffffffffffffffffffffffffffffffff\n      and\n      sub\n        /* \"Campaign.sol\":1962:2029  require(msg.sender != manager, \"You can't bid on your own auction\") */\n      tag_201\n      jumpi\n      mload(0x40)\n      0x08c379a000000000000000000000000000000000000000000000000000000000\n      dup2\n      mstore\n      0x04\n      add\n      tag_202\n      swap1\n      tag_203\n      jump\t// in\n    tag_202:\n      mload(0x40)\n      dup1\n      swap2\n      sub\n      swap1\n      revert\n    tag_201:\n        /* \"Campaign.sol\":2056:2057  0 */\n      0x00\n        /* \"Campaign.sol\":2044:2053  msg.value */\n      callvalue\n        /* \"Campaign.sol\":2044:2057  msg.value > 0 */\n      gt\n        /* \"Campaign.sol\":2036:2082  require(msg.value > 0, \"Must send some ether\") */\n      tag_204\n      jumpi\n      mload(0x40)\n      0x08c379a000000000000000000000000000000000000000000000000000000000\n      dup2\n      mstore\n      0x04\n      add\n      tag_205\n      swap1\n      tag_206\n      jump\t// in\n    tag_205:\n      mload(0x40)\n      dup1\n      swap2\n      sub\n      swap1\n      revert\n    tag_204:\n        /* \"Campaign.sol\":2091:2107  uint256 previous */\n      0x00\n        /* \"Campaign.sol\":2110:2124  approversMoney */\n      0x05\n        /* \"Campaign.sol\":2110:2136  approversMoney[msg.sender] */\n      0x00\n        /* \"Campaign.sol\":2125:2135  msg.sender */\n      caller\n        /* \"Campaign.sol\":2110:2136  approversMoney[msg.sender] */\n      0xffffffffffffffffffffffffffffffffffffffff\n      and\n      0xffffffffffffffffffffffffffffffffffffffff\n      and\n      dup2\n      mstore\n      0x20\n      add\n      swap1\n      dup2\n      mstore\n      0x20\n      add\n      0x00\n      keccak256\n      sload\n        /* \"Campaign.sol\":2091:2136  uint256 previous = approversMoney[msg.sender] */\n      swap1\n      pop\n        /* \"Campaign.sol\":2143:2159  uint256 newTotal */\n      0x00\n        /* \"Campaign.sol\":2173:2182  msg.value */\n      callvalue\n        /* \"Campaign.sol\":2162:2170  previous */\n      dup3\n        /* \"Campaign.sol\":2162:2182  previous + msg.value */\n      tag_207\n      swap2\n      swap1\n      tag_208\n      jump\t// in\n    tag_207:\n        /* \"Campaign.sol\":2143:2182  uint256 newTotal = previous + msg.value */\n      swap1\n      pop\n        /* \"Campaign.sol\":2304:2305  0 */\n      0x00\n        /* \"Campaign.sol\":2292:2300  previous */\n      dup3\n        /* \"Campaign.sol\":2292:2305  previous == 0 */\n      sub\n        /* \"Campaign.sol\":2288:2387  if (previous == 0) {... */\n      tag_209\n      jumpi\n        /* \"Campaign.sol\":2338:2357  minimumContribution */\n      sload(0x01)\n        /* \"Campaign.sol\":2326:2334  newTotal */\n      dup2\n        /* \"Campaign.sol\":2326:2357  newTotal >= minimumContribution */\n      lt\n      iszero\n        /* \"Campaign.sol\":2318:2379  require(newTotal >= minimumContribution, \"Below minimum bid\") */\n      tag_210\n      jumpi\n      mload(0x40)\n      0x08c379a000000000000000000000000000000000000000000000000000000000\n      dup2\n      mstore\n      0x04\n      add\n      tag_211\n      swap1\n      tag_212\n      jump\t// in\n    tag_211:\n      mload(0x40)\n      dup1\n      swap2\n      sub\n      swap1\n      revert\n    tag_210:\n        /* \"Campaign.sol\":2288:2387  if (previous == 0) {... */\n    tag_209:\n        /* \"Campaign.sol\":2414:2424  highestBid */\n      sload(0x0a)\n        /* \"Campaign.sol\":2403:2411  newTotal */\n      dup2\n        /* \"Campaign.sol\":2403:2424  newTotal > highestBid */\n      gt\n        /* \"Campaign.sol\":2395:2460  require(newTotal > highestBid, \"Bid must exceed current highest\") */\n      tag_213\n      jumpi\n      mload(0x40)\n      0x08c379a000000000000000000000000000000000000000000000000000000000\n      dup2\n      mstore\n      0x04\n      add\n      tag_214\n      swap1\n      tag_215\n      jump\t// in\n    tag_214:\n      mload(0x40)\n      dup1\n      swap2\n      sub\n      swap1\n      revert\n    tag_213:\n        /* \"Campaign.sol\":2550:2558  newTotal */\n      dup1\n        /* \"Campaign.sol\":2521:2535  approversMoney */\n      0x05\n        /* \"Campaign.sol\":2521:2547  approversMoney[msg.sender] */\n      0x00\n        /* \"Campaign.sol\":2536:2546  msg.sender */\n      caller\n        /* \"Campaign.sol\":2521:2547  approversMoney[msg.sender] */\n      0xffffffffffffffffffffffffffffffffffffffff\n      and\n      0xffffffffffffffffffffffffffffffffffffffff\n      and\n      dup2\n      mstore\n      0x20\n      add\n      swap1\n      dup2\n      mstore\n      0x20\n      add\n      0x00\n      keccak256\n        /* \"Campaign.sol\":2521:2558  approversMoney[msg.sender] = newTotal */\n      dup2\n      swap1\n      sstore\n      pop\n        /* \"Campaign.sol\":2578:2586  newTotal */\n      dup1\n        /* \"Campaign.sol\":2565:2575  highestBid */\n      0x0a\n        /* \"Campaign.sol\":2565:2586  highestBid = newTotal */\n      dup2\n      swap1\n      sstore\n      pop\n        /* \"Campaign.sol\":2609:2619  msg.sender */\n      caller\n        /* \"Campaign.sol\":2593:2606  highestBidder */\n      0x09\n      0x00\n        /* \"Campaign.sol\":2593:2619  highestBidder = msg.sender */\n      0x0100\n      exp\n      dup2\n      sload\n      dup2\n      0xffffffffffffffffffffffffffffffffffffffff\n      mul\n      not\n      and\n      swap1\n      dup4\n      0xffffffffffffffffffffffffffffffffffffffff\n      and\n      mul\n      or\n      swap1\n      sstore\n      pop\n        /* \"Campaign.sol\":2702:2714  transactions */\n      0x08\n        /* \"Campaign.sol\":2720:2763  Bid(msg.value, block.timestamp, msg.sender) */\n      mload(0x40)\n      dup1\n      0x60\n      add\n      0x40\n      mstore\n      dup1\n        /* \"Campaign.sol\":2724:2733  msg.value */\n      callvalue\n        /* \"Campaign.sol\":2720:2763  Bid(msg.value, block.timestamp, msg.sender) */\n      dup2\n      mstore\n      0x20\n      add\n        /* \"Campaign.sol\":2735:2750  block.timestamp */\n      timestamp\n        /* \"Campaign.sol\":2720:2763  Bid(msg.value, block.timestamp, msg.sender) */\n      dup2\n      mstore\n      0x20\n      add\n        /* \"Campaign.sol\":2752:2762  msg.sender */\n      caller\n        /* \"Campaign.sol\":2720:2763  Bid(msg.value, block.timestamp, msg.sender) */\n      0xffffffffffffffffffffffffffffffffffffffff\n      and\n      dup2\n      mstore\n      pop\n        /* \"Campaign.sol\":2702:2764  transactions.push(Bid(msg.value, block.timestamp, msg.sender)) */\n      swap1\n      dup1\n      0x01\n      dup2\n      sload\n      add\n      dup1\n      dup3\n      sstore\n      dup1\n      swap2\n      pop\n      pop\n      0x01\n      swap1\n      sub\n      swap1\n      0x00\n      mstore\n      keccak256(0x00, 0x20)\n      swap1\n      0x03\n      mul\n      add\n      0x00\n      swap1\n      swap2\n      swap1\n      swap2\n      swap1\n      swap2\n      pop\n      0x00\n      dup3\n      add\n      mload\n      dup2\n      0x00\n      add\n      sstore\n      0x20\n      dup3\n      add\n      mload\n      dup2\n      0x01\n      add\n      sstore\n      0x40\n      dup3\n      add\n      mload\n      dup2\n      0x02\n      add\n      exp(0x0100, 0x00)\n      dup2\n      sload\n      dup2\n      0xffffffffffffffffffffffffffffffffffffffff\n      mul\n      not\n      and\n      swap1\n      dup4\n      0xffffffffffffffffffffffffffffffffffffffff\n      and\n      mul\n      or\n      swap1\n      sstore\n      pop\n      pop\n      pop\n        /* \"Campaign.sol\":2842:2851  approvers */\n      0x04\n        /* \"Campaign.sol\":2842:2863  approvers[msg.sender] */\n      0x00\n        /* \"Campaign.sol\":2852:2862  msg.sender */\n      caller\n        /* \"Campaign.sol\":2842:2863  approvers[msg.sender] */\n      0xffffffffffffffffffffffffffffffffffffffff\n      and\n      0xffffffffffffffffffffffffffffffffffffffff\n      and\n      dup2\n      mstore\n      0x20\n      add\n      swap1\n      dup2\n      mstore\n      0x20\n      add\n      0x00\n      keccak256\n      0x00\n      swap1\n      sload\n      swap1\n      0x0100\n      exp\n      swap1\n      div\n      0xff\n      and\n        /* \"Campaign.sol\":2837:2976  if (!approvers[msg.sender]) {... */\n      tag_217\n      jumpi\n        /* \"Campaign.sol\":2900:2904  true */\n      0x01\n        /* \"Campaign.sol\":2876:2885  approvers */\n      0x04\n        /* \"Campaign.sol\":2876:2897  approvers[msg.sender] */\n      0x00\n        /* \"Campaign.sol\":2886:2896  msg.sender */\n      caller\n        /* \"Campaign.sol\":2876:2897  approvers[msg.sender] */\n      0xffffffffffffffffffffffffffffffffffffffff\n      and\n      0xffffffffffffffffffffffffffffffffffffffff\n      and\n      dup2\n      mstore\n      0x20\n      add\n      swap1\n      dup2\n      mstore\n      0x20\n      add\n      0x00\n      keccak256\n      0x00\n        /* \"Campaign.sol\":2876:2904  approvers[msg.sender] = true */\n      0x0100\n      exp\n      dup2\n      sload\n      dup2\n      0xff\n      mul\n      not\n      and\n      swap1\n      dup4\n      iszero\n      iszero\n      mul\n      or\n      swap1\n      sstore\n      pop\n        /* \"Campaign.sol\":2915:2929  approversCount */\n      0x06\n      0x00\n        /* \"Campaign.sol\":2915:2931  approversCount++ */\n      dup2\n      sload\n      dup1\n      swap3\n      swap2\n      swap1\n      tag_218\n      swap1\n      tag_219\n      jump\t// in\n    tag_218:\n      swap2\n      swap1\n      pop\n      sstore\n      pop\n        /* \"Campaign.sol\":2942:2951  addresses */\n      0x07\n        /* \"Campaign.sol\":2957:2967  msg.sender */\n      caller\n        /* \"Campaign.sol\":2942:2968  addresses.push(msg.sender) */\n      swap1\n      dup1\n      0x01\n      dup2\n      sload\n      add\n      dup1\n      dup3\n      sstore\n      dup1\n      swap2\n      pop\n      pop\n      0x01\n      swap1\n      sub\n      swap1\n      0x00\n      mstore\n      keccak256(0x00, 0x20)\n      add\n      0x00\n      swap1\n      swap2\n      swap1\n      swap2\n      swap1\n      swap2\n      0x0100\n      exp\n      dup2\n      sload\n      dup2\n      0xffffffffffffffffffffffffffffffffffffffff\n      mul\n      not\n      and\n      swap1\n      dup4\n      0xffffffffffffffffffffffffffffffffffffffff\n      and\n      mul\n      or\n      swap1\n      sstore\n      pop\n        /* \"Campaign.sol\":2837:2976  if (!approvers[msg.sender]) {... */\n    tag_217:\n        /* \"Campaign.sol\":1955:2979  {... */\n      pop\n      pop\n        /* \"Campaign.sol\":1904:2979  function contribute() public payable onlyBeforeEnd {... */\n      jump\t// out\n        /* \"Campaign.sol\":1108:1134  address[] public addresses */\n    tag_120:\n      0x07\n      dup2\n      dup2\n      sload\n      dup2\n      lt\n      tag_221\n      jumpi\n      0x00\n      dup1\n      revert\n    tag_221:\n      swap1\n      0x00\n      mstore\n      keccak256(0x00, 0x20)\n      add\n      0x00\n      swap2\n      pop\n      sload\n      swap1\n      0x0100\n      exp\n      swap1\n      div\n      0xffffffffffffffffffffffffffffffffffffffff\n      and\n      dup2\n      jump\t// out\n        /* \"#utility.yul\":88:205   */\n    tag_224:\n        /* \"#utility.yul\":197:198   */\n      0x00\n        /* \"#utility.yul\":194:195   */\n      0x00\n        /* \"#utility.yul\":187:199   */\n      revert\n        /* \"#utility.yul\":334:460   */\n    tag_226:\n        /* \"#utility.yul\":371:378   */\n      0x00\n        /* \"#utility.yul\":411:453   */\n      0xffffffffffffffffffffffffffffffffffffffff\n        /* \"#utility.yul\":404:409   */\n      dup3\n        /* \"#utility.yul\":400:454   */\n      and\n        /* \"#utility.yul\":389:454   */\n      swap1\n      pop\n        /* \"#utility.yul\":334:460   */\n      swap2\n      swap1\n      pop\n      jump\t// out\n        /* \"#utility.yul\":466:562   */\n    tag_227:\n        /* \"#utility.yul\":503:510   */\n      0x00\n        /* \"#utility.yul\":532:556   */\n      tag_285\n        /* \"#utility.yul\":550:555   */\n      dup3\n        /* \"#utility.yul\":532:556   */\n      tag_226\n      jump\t// in\n    tag_285:\n        /* \"#utility.yul\":521:556   */\n      swap1\n      pop\n        /* \"#utility.yul\":466:562   */\n      swap2\n      swap1\n      pop\n      jump\t// out\n        /* \"#utility.yul\":568:690   */\n    tag_228:\n        /* \"#utility.yul\":641:665   */\n      tag_287\n        /* \"#utility.yul\":659:664   */\n      dup2\n        /* \"#utility.yul\":641:665   */\n      tag_227\n      jump\t// in\n    tag_287:\n        /* \"#utility.yul\":634:639   */\n      dup2\n        /* \"#utility.yul\":631:666   */\n      eq\n        /* \"#utility.yul\":621:684   */\n      tag_288\n      jumpi\n        /* \"#utility.yul\":680:681   */\n      0x00\n        /* \"#utility.yul\":677:678   */\n      0x00\n        /* \"#utility.yul\":670:682   */\n      revert\n        /* \"#utility.yul\":621:684   */\n    tag_288:\n        /* \"#utility.yul\":568:690   */\n      pop\n      jump\t// out\n        /* \"#utility.yul\":696:835   */\n    tag_229:\n        /* \"#utility.yul\":742:747   */\n      0x00\n        /* \"#utility.yul\":780:786   */\n      dup2\n        /* \"#utility.yul\":767:787   */\n      calldataload\n        /* \"#utility.yul\":758:787   */\n      swap1\n      pop\n        /* \"#utility.yul\":796:829   */\n      tag_290\n        /* \"#utility.yul\":823:828   */\n      dup2\n        /* \"#utility.yul\":796:829   */\n      tag_228\n      jump\t// in\n    tag_290:\n        /* \"#utility.yul\":696:835   */\n      swap3\n      swap2\n      pop\n      pop\n      jump\t// out\n        /* \"#utility.yul\":841:1170   */\n    tag_29:\n        /* \"#utility.yul\":900:906   */\n      0x00\n        /* \"#utility.yul\":949:951   */\n      0x20\n        /* \"#utility.yul\":937:946   */\n      dup3\n        /* \"#utility.yul\":928:935   */\n      dup5\n        /* \"#utility.yul\":924:947   */\n      sub\n        /* \"#utility.yul\":920:952   */\n      slt\n        /* \"#utility.yul\":917:1036   */\n      iszero\n      tag_292\n      jumpi\n        /* \"#utility.yul\":955:1034   */\n      tag_293\n      tag_224\n      jump\t// in\n    tag_293:\n        /* \"#utility.yul\":917:1036   */\n    tag_292:\n        /* \"#utility.yul\":1075:1076   */\n      0x00\n        /* \"#utility.yul\":1100:1153   */\n      tag_294\n        /* \"#utility.yul\":1145:1152   */\n      dup5\n        /* \"#utility.yul\":1136:1142   */\n      dup3\n        /* \"#utility.yul\":1125:1134   */\n      dup6\n        /* \"#utility.yul\":1121:1143   */\n      add\n        /* \"#utility.yul\":1100:1153   */\n      tag_229\n      jump\t// in\n    tag_294:\n        /* \"#utility.yul\":1090:1153   */\n      swap2\n      pop\n        /* \"#utility.yul\":1046:1163   */\n      pop\n        /* \"#utility.yul\":841:1170   */\n      swap3\n      swap2\n      pop\n      pop\n      jump\t// out\n        /* \"#utility.yul\":1176:1266   */\n    tag_230:\n        /* \"#utility.yul\":1210:1217   */\n      0x00\n        /* \"#utility.yul\":1253:1258   */\n      dup2\n        /* \"#utility.yul\":1246:1259   */\n      iszero\n        /* \"#utility.yul\":1239:1260   */\n      iszero\n        /* \"#utility.yul\":1228:1260   */\n      swap1\n      pop\n        /* \"#utility.yul\":1176:1266   */\n      swap2\n      swap1\n      pop\n      jump\t// out\n        /* \"#utility.yul\":1272:1381   */\n    tag_231:\n        /* \"#utility.yul\":1353:1374   */\n      tag_297\n        /* \"#utility.yul\":1368:1373   */\n      dup2\n        /* \"#utility.yul\":1353:1374   */\n      tag_230\n      jump\t// in\n    tag_297:\n        /* \"#utility.yul\":1348:1351   */\n      dup3\n        /* \"#utility.yul\":1341:1375   */\n      mstore\n        /* \"#utility.yul\":1272:1381   */\n      pop\n      pop\n      jump\t// out\n        /* \"#utility.yul\":1387:1597   */\n    tag_32:\n        /* \"#utility.yul\":1474:1478   */\n      0x00\n        /* \"#utility.yul\":1512:1514   */\n      0x20\n        /* \"#utility.yul\":1501:1510   */\n      dup3\n        /* \"#utility.yul\":1497:1515   */\n      add\n        /* \"#utility.yul\":1489:1515   */\n      swap1\n      pop\n        /* \"#utility.yul\":1525:1590   */\n      tag_299\n        /* \"#utility.yul\":1587:1588   */\n      0x00\n        /* \"#utility.yul\":1576:1585   */\n      dup4\n        /* \"#utility.yul\":1572:1589   */\n      add\n        /* \"#utility.yul\":1563:1569   */\n      dup5\n        /* \"#utility.yul\":1525:1590   */\n      tag_231\n      jump\t// in\n    tag_299:\n        /* \"#utility.yul\":1387:1597   */\n      swap3\n      swap2\n      pop\n      pop\n      jump\t// out\n        /* \"#utility.yul\":1603:1680   */\n    tag_232:\n        /* \"#utility.yul\":1640:1647   */\n      0x00\n        /* \"#utility.yul\":1669:1674   */\n      dup2\n        /* \"#utility.yul\":1658:1674   */\n      swap1\n      pop\n        /* \"#utility.yul\":1603:1680   */\n      swap2\n      swap1\n      pop\n      jump\t// out\n        /* \"#utility.yul\":1686:1804   */\n    tag_233:\n        /* \"#utility.yul\":1773:1797   */\n      tag_302\n        /* \"#utility.yul\":1791:1796   */\n      dup2\n        /* \"#utility.yul\":1773:1797   */\n      tag_232\n      jump\t// in\n    tag_302:\n        /* \"#utility.yul\":1768:1771   */\n      dup3\n        /* \"#utility.yul\":1761:1798   */\n      mstore\n        /* \"#utility.yul\":1686:1804   */\n      pop\n      pop\n      jump\t// out\n        /* \"#utility.yul\":1810:2032   */\n    tag_37:\n        /* \"#utility.yul\":1903:1907   */\n      0x00\n        /* \"#utility.yul\":1941:1943   */\n      0x20\n        /* \"#utility.yul\":1930:1939   */\n      dup3\n        /* \"#utility.yul\":1926:1944   */\n      add\n        /* \"#utility.yul\":1918:1944   */\n      swap1\n      pop\n        /* \"#utility.yul\":1954:2025   */\n      tag_304\n        /* \"#utility.yul\":2022:2023   */\n      0x00\n        /* \"#utility.yul\":2011:2020   */\n      dup4\n        /* \"#utility.yul\":2007:2024   */\n      add\n        /* \"#utility.yul\":1998:2004   */\n      dup5\n        /* \"#utility.yul\":1954:2025   */\n      tag_233\n      jump\t// in\n    tag_304:\n        /* \"#utility.yul\":1810:2032   */\n      swap3\n      swap2\n      pop\n      pop\n      jump\t// out\n        /* \"#utility.yul\":2038:2137   */\n    tag_234:\n        /* \"#utility.yul\":2090:2096   */\n      0x00\n        /* \"#utility.yul\":2124:2129   */\n      dup2\n        /* \"#utility.yul\":2118:2130   */\n      mload\n        /* \"#utility.yul\":2108:2130   */\n      swap1\n      pop\n        /* \"#utility.yul\":2038:2137   */\n      swap2\n      swap1\n      pop\n      jump\t// out\n        /* \"#utility.yul\":2143:2312   */\n    tag_235:\n        /* \"#utility.yul\":2227:2238   */\n      0x00\n        /* \"#utility.yul\":2261:2267   */\n      dup3\n        /* \"#utility.yul\":2256:2259   */\n      dup3\n        /* \"#utility.yul\":2249:2268   */\n      mstore\n        /* \"#utility.yul\":2301:2305   */\n      0x20\n        /* \"#utility.yul\":2296:2299   */\n      dup3\n        /* \"#utility.yul\":2292:2306   */\n      add\n        /* \"#utility.yul\":2277:2306   */\n      swap1\n      pop\n        /* \"#utility.yul\":2143:2312   */\n      swap3\n      swap2\n      pop\n      pop\n      jump\t// out\n        /* \"#utility.yul\":2318:2457   */\n    tag_236:\n        /* \"#utility.yul\":2407:2413   */\n      dup3\n        /* \"#utility.yul\":2402:2405   */\n      dup2\n        /* \"#utility.yul\":2397:2400   */\n      dup4\n        /* \"#utility.yul\":2391:2414   */\n      mcopy\n        /* \"#utility.yul\":2448:2449   */\n      0x00\n        /* \"#utility.yul\":2439:2445   */\n      dup4\n        /* \"#utility.yul\":2434:2437   */\n      dup4\n        /* \"#utility.yul\":2430:2446   */\n      add\n        /* \"#utility.yul\":2423:2450   */\n      mstore\n        /* \"#utility.yul\":2318:2457   */\n      pop\n      pop\n      pop\n      jump\t// out\n        /* \"#utility.yul\":2463:2565   */\n    tag_237:\n        /* \"#utility.yul\":2504:2510   */\n      0x00\n        /* \"#utility.yul\":2555:2557   */\n      0x1f\n        /* \"#utility.yul\":2551:2558   */\n      not\n        /* \"#utility.yul\":2546:2548   */\n      0x1f\n        /* \"#utility.yul\":2539:2544   */\n      dup4\n        /* \"#utility.yul\":2535:2549   */\n      add\n        /* \"#utility.yul\":2531:2559   */\n      and\n        /* \"#utility.yul\":2521:2559   */\n      swap1\n      pop\n        /* \"#utility.yul\":2463:2565   */\n      swap2\n      swap1\n      pop\n      jump\t// out\n        /* \"#utility.yul\":2571:2948   */\n    tag_238:\n        /* \"#utility.yul\":2659:2662   */\n      0x00\n        /* \"#utility.yul\":2687:2726   */\n      tag_310\n        /* \"#utility.yul\":2720:2725   */\n      dup3\n        /* \"#utility.yul\":2687:2726   */\n      tag_234\n      jump\t// in\n    tag_310:\n        /* \"#utility.yul\":2742:2813   */\n      tag_311\n        /* \"#utility.yul\":2806:2812   */\n      dup2\n        /* \"#utility.yul\":2801:2804   */\n      dup6\n        /* \"#utility.yul\":2742:2813   */\n      tag_235\n      jump\t// in\n    tag_311:\n        /* \"#utility.yul\":2735:2813   */\n      swap4\n      pop\n        /* \"#utility.yul\":2822:2887   */\n      tag_312\n        /* \"#utility.yul\":2880:2886   */\n      dup2\n        /* \"#utility.yul\":2875:2878   */\n      dup6\n        /* \"#utility.yul\":2868:2872   */\n      0x20\n        /* \"#utility.yul\":2861:2866   */\n      dup7\n        /* \"#utility.yul\":2857:2873   */\n      add\n        /* \"#utility.yul\":2822:2887   */\n      tag_236\n      jump\t// in\n    tag_312:\n        /* \"#utility.yul\":2912:2941   */\n      tag_313\n        /* \"#utility.yul\":2934:2940   */\n      dup2\n        /* \"#utility.yul\":2912:2941   */\n      tag_237\n      jump\t// in\n    tag_313:\n        /* \"#utility.yul\":2907:2910   */\n      dup5\n        /* \"#utility.yul\":2903:2942   */\n      add\n        /* \"#utility.yul\":2896:2942   */\n      swap2\n      pop\n        /* \"#utility.yul\":2663:2948   */\n      pop\n        /* \"#utility.yul\":2571:2948   */\n      swap3\n      swap2\n      pop\n      pop\n      jump\t// out\n        /* \"#utility.yul\":2954:3267   */\n    tag_42:\n        /* \"#utility.yul\":3067:3071   */\n      0x00\n        /* \"#utility.yul\":3105:3107   */\n      0x20\n        /* \"#utility.yul\":3094:3103   */\n      dup3\n        /* \"#utility.yul\":3090:3108   */\n      add\n        /* \"#utility.yul\":3082:3108   */\n      swap1\n      pop\n        /* \"#utility.yul\":3154:3163   */\n      dup2\n        /* \"#utility.yul\":3148:3152   */\n      dup2\n        /* \"#utility.yul\":3144:3164   */\n      sub\n        /* \"#utility.yul\":3140:3141   */\n      0x00\n        /* \"#utility.yul\":3129:3138   */\n      dup4\n        /* \"#utility.yul\":3125:3142   */\n      add\n        /* \"#utility.yul\":3118:3165   */\n      mstore\n        /* \"#utility.yul\":3182:3260   */\n      tag_315\n        /* \"#utility.yul\":3255:3259   */\n      dup2\n        /* \"#utility.yul\":3246:3252   */\n      dup5\n        /* \"#utility.yul\":3182:3260   */\n      tag_238\n      jump\t// in\n    tag_315:\n        /* \"#utility.yul\":3174:3260   */\n      swap1\n      pop\n        /* \"#utility.yul\":2954:3267   */\n      swap3\n      swap2\n      pop\n      pop\n      jump\t// out\n        /* \"#utility.yul\":3273:3391   */\n    tag_239:\n        /* \"#utility.yul\":3360:3384   */\n      tag_317\n        /* \"#utility.yul\":3378:3383   */\n      dup2\n        /* \"#utility.yul\":3360:3384   */\n      tag_227\n      jump\t// in\n    tag_317:\n        /* \"#utility.yul\":3355:3358   */\n      dup3\n        /* \"#utility.yul\":3348:3385   */\n      mstore\n        /* \"#utility.yul\":3273:3391   */\n      pop\n      pop\n      jump\t// out\n        /* \"#utility.yul\":3397:3511   */\n    tag_240:\n        /* \"#utility.yul\":3464:3470   */\n      0x00\n        /* \"#utility.yul\":3498:3503   */\n      dup2\n        /* \"#utility.yul\":3492:3504   */\n      mload\n        /* \"#utility.yul\":3482:3504   */\n      swap1\n      pop\n        /* \"#utility.yul\":3397:3511   */\n      swap2\n      swap1\n      pop\n      jump\t// out\n        /* \"#utility.yul\":3517:3701   */\n    tag_241:\n        /* \"#utility.yul\":3616:3627   */\n      0x00\n        /* \"#utility.yul\":3650:3656   */\n      dup3\n        /* \"#utility.yul\":3645:3648   */\n      dup3\n        /* \"#utility.yul\":3638:3657   */\n      mstore\n        /* \"#utility.yul\":3690:3694   */\n      0x20\n        /* \"#utility.yul\":3685:3688   */\n      dup3\n        /* \"#utility.yul\":3681:3695   */\n      add\n        /* \"#utility.yul\":3666:3695   */\n      swap1\n      pop\n        /* \"#utility.yul\":3517:3701   */\n      swap3\n      swap2\n      pop\n      pop\n      jump\t// out\n        /* \"#utility.yul\":3707:3839   */\n    tag_242:\n        /* \"#utility.yul\":3774:3778   */\n      0x00\n        /* \"#utility.yul\":3797:3800   */\n      dup2\n        /* \"#utility.yul\":3789:3800   */\n      swap1\n      pop\n        /* \"#utility.yul\":3827:3831   */\n      0x20\n        /* \"#utility.yul\":3822:3825   */\n      dup3\n        /* \"#utility.yul\":3818:3832   */\n      add\n        /* \"#utility.yul\":3810:3832   */\n      swap1\n      pop\n        /* \"#utility.yul\":3707:3839   */\n      swap2\n      swap1\n      pop\n      jump\t// out\n        /* \"#utility.yul\":3845:3953   */\n    tag_243:\n        /* \"#utility.yul\":3922:3946   */\n      tag_322\n        /* \"#utility.yul\":3940:3945   */\n      dup2\n        /* \"#utility.yul\":3922:3946   */\n      tag_227\n      jump\t// in\n    tag_322:\n        /* \"#utility.yul\":3917:3920   */\n      dup3\n        /* \"#utility.yul\":3910:3947   */\n      mstore\n        /* \"#utility.yul\":3845:3953   */\n      pop\n      pop\n      jump\t// out\n        /* \"#utility.yul\":3959:4138   */\n    tag_244:\n        /* \"#utility.yul\":4028:4038   */\n      0x00\n        /* \"#utility.yul\":4049:4095   */\n      tag_324\n        /* \"#utility.yul\":4091:4094   */\n      dup4\n        /* \"#utility.yul\":4083:4089   */\n      dup4\n        /* \"#utility.yul\":4049:4095   */\n      tag_243\n      jump\t// in\n    tag_324:\n        /* \"#utility.yul\":4127:4131   */\n      0x20\n        /* \"#utility.yul\":4122:4125   */\n      dup4\n        /* \"#utility.yul\":4118:4132   */\n      add\n        /* \"#utility.yul\":4104:4132   */\n      swap1\n      pop\n        /* \"#utility.yul\":3959:4138   */\n      swap3\n      swap2\n      pop\n      pop\n      jump\t// out\n        /* \"#utility.yul\":4144:4257   */\n    tag_245:\n        /* \"#utility.yul\":4214:4218   */\n      0x00\n        /* \"#utility.yul\":4246:4250   */\n      0x20\n        /* \"#utility.yul\":4241:4244   */\n      dup3\n        /* \"#utility.yul\":4237:4251   */\n      add\n        /* \"#utility.yul\":4229:4251   */\n      swap1\n      pop\n        /* \"#utility.yul\":4144:4257   */\n      swap2\n      swap1\n      pop\n      jump\t// out\n        /* \"#utility.yul\":4293:5025   */\n    tag_246:\n        /* \"#utility.yul\":4412:4415   */\n      0x00\n        /* \"#utility.yul\":4441:4495   */\n      tag_327\n        /* \"#utility.yul\":4489:4494   */\n      dup3\n        /* \"#utility.yul\":4441:4495   */\n      tag_240\n      jump\t// in\n    tag_327:\n        /* \"#utility.yul\":4511:4597   */\n      tag_328\n        /* \"#utility.yul\":4590:4596   */\n      dup2\n        /* \"#utility.yul\":4585:4588   */\n      dup6\n        /* \"#utility.yul\":4511:4597   */\n      tag_241\n      jump\t// in\n    tag_328:\n        /* \"#utility.yul\":4504:4597   */\n      swap4\n      pop\n        /* \"#utility.yul\":4621:4677   */\n      tag_329\n        /* \"#utility.yul\":4671:4676   */\n      dup4\n        /* \"#utility.yul\":4621:4677   */\n      tag_242\n      jump\t// in\n    tag_329:\n        /* \"#utility.yul\":4700:4707   */\n      dup1\n        /* \"#utility.yul\":4731:4732   */\n      0x00\n        /* \"#utility.yul\":4716:5000   */\n    tag_330:\n        /* \"#utility.yul\":4741:4747   */\n      dup4\n        /* \"#utility.yul\":4738:4739   */\n      dup2\n        /* \"#utility.yul\":4735:4748   */\n      lt\n        /* \"#utility.yul\":4716:5000   */\n      iszero\n      tag_332\n      jumpi\n        /* \"#utility.yul\":4817:4823   */\n      dup2\n        /* \"#utility.yul\":4811:4824   */\n      mload\n        /* \"#utility.yul\":4844:4907   */\n      tag_333\n        /* \"#utility.yul\":4903:4906   */\n      dup9\n        /* \"#utility.yul\":4888:4901   */\n      dup3\n        /* \"#utility.yul\":4844:4907   */\n      tag_244\n      jump\t// in\n    tag_333:\n        /* \"#utility.yul\":4837:4907   */\n      swap8\n      pop\n        /* \"#utility.yul\":4930:4990   */\n      tag_334\n        /* \"#utility.yul\":4983:4989   */\n      dup4\n        /* \"#utility.yul\":4930:4990   */\n      tag_245\n      jump\t// in\n    tag_334:\n        /* \"#utility.yul\":4920:4990   */\n      swap3\n      pop\n        /* \"#utility.yul\":4776:5000   */\n      pop\n        /* \"#utility.yul\":4763:4764   */\n      0x01\n        /* \"#utility.yul\":4760:4761   */\n      dup2\n        /* \"#utility.yul\":4756:4765   */\n      add\n        /* \"#utility.yul\":4751:4765   */\n      swap1\n      pop\n        /* \"#utility.yul\":4716:5000   */\n      jump(tag_330)\n    tag_332:\n        /* \"#utility.yul\":4720:4734   */\n      pop\n        /* \"#utility.yul\":5016:5019   */\n      dup6\n        /* \"#utility.yul\":5009:5019   */\n      swap4\n      pop\n        /* \"#utility.yul\":4417:5025   */\n      pop\n      pop\n      pop\n        /* \"#utility.yul\":4293:5025   */\n      swap3\n      swap2\n      pop\n      pop\n      jump\t// out\n        /* \"#utility.yul\":5031:6583   */\n    tag_47:\n        /* \"#utility.yul\":5466:5470   */\n      0x00\n        /* \"#utility.yul\":5504:5507   */\n      0x0140\n        /* \"#utility.yul\":5493:5502   */\n      dup3\n        /* \"#utility.yul\":5489:5508   */\n      add\n        /* \"#utility.yul\":5481:5508   */\n      swap1\n      pop\n        /* \"#utility.yul\":5518:5589   */\n      tag_336\n        /* \"#utility.yul\":5586:5587   */\n      0x00\n        /* \"#utility.yul\":5575:5584   */\n      dup4\n        /* \"#utility.yul\":5571:5588   */\n      add\n        /* \"#utility.yul\":5562:5568   */\n      dup14\n        /* \"#utility.yul\":5518:5589   */\n      tag_233\n      jump\t// in\n    tag_336:\n        /* \"#utility.yul\":5599:5671   */\n      tag_337\n        /* \"#utility.yul\":5667:5669   */\n      0x20\n        /* \"#utility.yul\":5656:5665   */\n      dup4\n        /* \"#utility.yul\":5652:5670   */\n      add\n        /* \"#utility.yul\":5643:5649   */\n      dup13\n        /* \"#utility.yul\":5599:5671   */\n      tag_233\n      jump\t// in\n    tag_337:\n        /* \"#utility.yul\":5681:5753   */\n      tag_338\n        /* \"#utility.yul\":5749:5751   */\n      0x40\n        /* \"#utility.yul\":5738:5747   */\n      dup4\n        /* \"#utility.yul\":5734:5752   */\n      add\n        /* \"#utility.yul\":5725:5731   */\n      dup12\n        /* \"#utility.yul\":5681:5753   */\n      tag_233\n      jump\t// in\n    tag_338:\n        /* \"#utility.yul\":5763:5835   */\n      tag_339\n        /* \"#utility.yul\":5831:5833   */\n      0x60\n        /* \"#utility.yul\":5820:5829   */\n      dup4\n        /* \"#utility.yul\":5816:5834   */\n      add\n        /* \"#utility.yul\":5807:5813   */\n      dup11\n        /* \"#utility.yul\":5763:5835   */\n      tag_239\n      jump\t// in\n    tag_339:\n        /* \"#utility.yul\":5845:5918   */\n      tag_340\n        /* \"#utility.yul\":5913:5916   */\n      0x80\n        /* \"#utility.yul\":5902:5911   */\n      dup4\n        /* \"#utility.yul\":5898:5917   */\n      add\n        /* \"#utility.yul\":5889:5895   */\n      dup10\n        /* \"#utility.yul\":5845:5918   */\n      tag_233\n      jump\t// in\n    tag_340:\n        /* \"#utility.yul\":5966:5975   */\n      dup2\n        /* \"#utility.yul\":5960:5964   */\n      dup2\n        /* \"#utility.yul\":5956:5976   */\n      sub\n        /* \"#utility.yul\":5950:5953   */\n      0xa0\n        /* \"#utility.yul\":5939:5948   */\n      dup4\n        /* \"#utility.yul\":5935:5954   */\n      add\n        /* \"#utility.yul\":5928:5977   */\n      mstore\n        /* \"#utility.yul\":5994:6072   */\n      tag_341\n        /* \"#utility.yul\":6067:6071   */\n      dup2\n        /* \"#utility.yul\":6058:6064   */\n      dup9\n        /* \"#utility.yul\":5994:6072   */\n      tag_238\n      jump\t// in\n    tag_341:\n        /* \"#utility.yul\":5986:6072   */\n      swap1\n      pop\n        /* \"#utility.yul\":6120:6129   */\n      dup2\n        /* \"#utility.yul\":6114:6118   */\n      dup2\n        /* \"#utility.yul\":6110:6130   */\n      sub\n        /* \"#utility.yul\":6104:6107   */\n      0xc0\n        /* \"#utility.yul\":6093:6102   */\n      dup4\n        /* \"#utility.yul\":6089:6108   */\n      add\n        /* \"#utility.yul\":6082:6131   */\n      mstore\n        /* \"#utility.yul\":6148:6226   */\n      tag_342\n        /* \"#utility.yul\":6221:6225   */\n      dup2\n        /* \"#utility.yul\":6212:6218   */\n      dup8\n        /* \"#utility.yul\":6148:6226   */\n      tag_238\n      jump\t// in\n    tag_342:\n        /* \"#utility.yul\":6140:6226   */\n      swap1\n      pop\n        /* \"#utility.yul\":6236:6309   */\n      tag_343\n        /* \"#utility.yul\":6304:6307   */\n      0xe0\n        /* \"#utility.yul\":6293:6302   */\n      dup4\n        /* \"#utility.yul\":6289:6308   */\n      add\n        /* \"#utility.yul\":6280:6286   */\n      dup7\n        /* \"#utility.yul\":6236:6309   */\n      tag_239\n      jump\t// in\n    tag_343:\n        /* \"#utility.yul\":6357:6366   */\n      dup2\n        /* \"#utility.yul\":6351:6355   */\n      dup2\n        /* \"#utility.yul\":6347:6367   */\n      sub\n        /* \"#utility.yul\":6341:6344   */\n      0x0100\n        /* \"#utility.yul\":6330:6339   */\n      dup4\n        /* \"#utility.yul\":6326:6345   */\n      add\n        /* \"#utility.yul\":6319:6368   */\n      mstore\n        /* \"#utility.yul\":6385:6493   */\n      tag_344\n        /* \"#utility.yul\":6488:6492   */\n      dup2\n        /* \"#utility.yul\":6479:6485   */\n      dup6\n        /* \"#utility.yul\":6385:6493   */\n      tag_246\n      jump\t// in\n    tag_344:\n        /* \"#utility.yul\":6377:6493   */\n      swap1\n      pop\n        /* \"#utility.yul\":6503:6576   */\n      tag_345\n        /* \"#utility.yul\":6571:6574   */\n      0x0120\n        /* \"#utility.yul\":6560:6569   */\n      dup4\n        /* \"#utility.yul\":6556:6575   */\n      add\n        /* \"#utility.yul\":6547:6553   */\n      dup5\n        /* \"#utility.yul\":6503:6576   */\n      tag_233\n      jump\t// in\n    tag_345:\n        /* \"#utility.yul\":5031:6583   */\n      swap12\n      swap11\n      pop\n      pop\n      pop\n      pop\n      pop\n      pop\n      pop\n      pop\n      pop\n      pop\n      pop\n      jump\t// out\n        /* \"#utility.yul\":6589:6811   */\n    tag_52:\n        /* \"#utility.yul\":6682:6686   */\n      0x00\n        /* \"#utility.yul\":6720:6722   */\n      0x20\n        /* \"#utility.yul\":6709:6718   */\n      dup3\n        /* \"#utility.yul\":6705:6723   */\n      add\n        /* \"#utility.yul\":6697:6723   */\n      swap1\n      pop\n        /* \"#utility.yul\":6733:6804   */\n      tag_347\n        /* \"#utility.yul\":6801:6802   */\n      0x00\n        /* \"#utility.yul\":6790:6799   */\n      dup4\n        /* \"#utility.yul\":6786:6803   */\n      add\n        /* \"#utility.yul\":6777:6783   */\n      dup5\n        /* \"#utility.yul\":6733:6804   */\n      tag_239\n      jump\t// in\n    tag_347:\n        /* \"#utility.yul\":6589:6811   */\n      swap3\n      swap2\n      pop\n      pop\n      jump\t// out\n        /* \"#utility.yul\":6817:6950   */\n    tag_247:\n        /* \"#utility.yul\":6903:6909   */\n      0x00\n        /* \"#utility.yul\":6937:6942   */\n      dup2\n        /* \"#utility.yul\":6931:6943   */\n      mload\n        /* \"#utility.yul\":6921:6943   */\n      swap1\n      pop\n        /* \"#utility.yul\":6817:6950   */\n      swap2\n      swap1\n      pop\n      jump\t// out\n        /* \"#utility.yul\":6956:7159   */\n    tag_248:\n        /* \"#utility.yul\":7074:7085   */\n      0x00\n        /* \"#utility.yul\":7108:7114   */\n      dup3\n        /* \"#utility.yul\":7103:7106   */\n      dup3\n        /* \"#utility.yul\":7096:7115   */\n      mstore\n        /* \"#utility.yul\":7148:7152   */\n      0x20\n        /* \"#utility.yul\":7143:7146   */\n      dup3\n        /* \"#utility.yul\":7139:7153   */\n      add\n        /* \"#utility.yul\":7124:7153   */\n      swap1\n      pop\n        /* \"#utility.yul\":6956:7159   */\n      swap3\n      swap2\n      pop\n      pop\n      jump\t// out\n        /* \"#utility.yul\":7165:7316   */\n    tag_249:\n        /* \"#utility.yul\":7251:7255   */\n      0x00\n        /* \"#utility.yul\":7274:7277   */\n      dup2\n        /* \"#utility.yul\":7266:7277   */\n      swap1\n      pop\n        /* \"#utility.yul\":7304:7308   */\n      0x20\n        /* \"#utility.yul\":7299:7302   */\n      dup3\n        /* \"#utility.yul\":7295:7309   */\n      add\n        /* \"#utility.yul\":7287:7309   */\n      swap1\n      pop\n        /* \"#utility.yul\":7165:7316   */\n      swap2\n      swap1\n      pop\n      jump\t// out\n        /* \"#utility.yul\":7322:7430   */\n    tag_250:\n        /* \"#utility.yul\":7399:7423   */\n      tag_352\n        /* \"#utility.yul\":7417:7422   */\n      dup2\n        /* \"#utility.yul\":7399:7423   */\n      tag_232\n      jump\t// in\n    tag_352:\n        /* \"#utility.yul\":7394:7397   */\n      dup3\n        /* \"#utility.yul\":7387:7424   */\n      mstore\n        /* \"#utility.yul\":7322:7430   */\n      pop\n      pop\n      jump\t// out\n        /* \"#utility.yul\":7486:8155   */\n    tag_251:\n        /* \"#utility.yul\":7611:7615   */\n      0x60\n        /* \"#utility.yul\":7606:7609   */\n      dup3\n        /* \"#utility.yul\":7602:7616   */\n      add\n        /* \"#utility.yul\":7699:7703   */\n      0x00\n        /* \"#utility.yul\":7692:7697   */\n      dup3\n        /* \"#utility.yul\":7688:7704   */\n      add\n        /* \"#utility.yul\":7682:7705   */\n      mload\n        /* \"#utility.yul\":7718:7781   */\n      tag_354\n        /* \"#utility.yul\":7775:7779   */\n      0x00\n        /* \"#utility.yul\":7770:7773   */\n      dup6\n        /* \"#utility.yul\":7766:7780   */\n      add\n        /* \"#utility.yul\":7752:7764   */\n      dup3\n        /* \"#utility.yul\":7718:7781   */\n      tag_250\n      jump\t// in\n    tag_354:\n        /* \"#utility.yul\":7626:7791   */\n      pop\n        /* \"#utility.yul\":7873:7877   */\n      0x20\n        /* \"#utility.yul\":7866:7871   */\n      dup3\n        /* \"#utility.yul\":7862:7878   */\n      add\n        /* \"#utility.yul\":7856:7879   */\n      mload\n        /* \"#utility.yul\":7892:7955   */\n      tag_355\n        /* \"#utility.yul\":7949:7953   */\n      0x20\n        /* \"#utility.yul\":7944:7947   */\n      dup6\n        /* \"#utility.yul\":7940:7954   */\n      add\n        /* \"#utility.yul\":7926:7938   */\n      dup3\n        /* \"#utility.yul\":7892:7955   */\n      tag_250\n      jump\t// in\n    tag_355:\n        /* \"#utility.yul\":7801:7965   */\n      pop\n        /* \"#utility.yul\":8056:8060   */\n      0x40\n        /* \"#utility.yul\":8049:8054   */\n      dup3\n        /* \"#utility.yul\":8045:8061   */\n      add\n        /* \"#utility.yul\":8039:8062   */\n      mload\n        /* \"#utility.yul\":8075:8138   */\n      tag_356\n        /* \"#utility.yul\":8132:8136   */\n      0x40\n        /* \"#utility.yul\":8127:8130   */\n      dup6\n        /* \"#utility.yul\":8123:8137   */\n      add\n        /* \"#utility.yul\":8109:8121   */\n      dup3\n        /* \"#utility.yul\":8075:8138   */\n      tag_243\n      jump\t// in\n    tag_356:\n        /* \"#utility.yul\":7975:8148   */\n      pop\n        /* \"#utility.yul\":7580:8155   */\n      pop\n        /* \"#utility.yul\":7486:8155   */\n      pop\n      pop\n      jump\t// out\n        /* \"#utility.yul\":8161:8416   */\n    tag_252:\n        /* \"#utility.yul\":8268:8278   */\n      0x00\n        /* \"#utility.yul\":8289:8373   */\n      tag_358\n        /* \"#utility.yul\":8369:8372   */\n      dup4\n        /* \"#utility.yul\":8361:8367   */\n      dup4\n        /* \"#utility.yul\":8289:8373   */\n      tag_251\n      jump\t// in\n    tag_358:\n        /* \"#utility.yul\":8405:8409   */\n      0x60\n        /* \"#utility.yul\":8400:8403   */\n      dup4\n        /* \"#utility.yul\":8396:8410   */\n      add\n        /* \"#utility.yul\":8382:8410   */\n      swap1\n      pop\n        /* \"#utility.yul\":8161:8416   */\n      swap3\n      swap2\n      pop\n      pop\n      jump\t// out\n        /* \"#utility.yul\":8422:8554   */\n    tag_253:\n        /* \"#utility.yul\":8511:8515   */\n      0x00\n        /* \"#utility.yul\":8543:8547   */\n      0x20\n        /* \"#utility.yul\":8538:8541   */\n      dup3\n        /* \"#utility.yul\":8534:8548   */\n      add\n        /* \"#utility.yul\":8526:8548   */\n      swap1\n      pop\n        /* \"#utility.yul\":8422:8554   */\n      swap2\n      swap1\n      pop\n      jump\t// out\n        /* \"#utility.yul\":8614:9498   */\n    tag_254:\n        /* \"#utility.yul\":8771:8774   */\n      0x00\n        /* \"#utility.yul\":8800:8873   */\n      tag_361\n        /* \"#utility.yul\":8867:8872   */\n      dup3\n        /* \"#utility.yul\":8800:8873   */\n      tag_247\n      jump\t// in\n    tag_361:\n        /* \"#utility.yul\":8889:8994   */\n      tag_362\n        /* \"#utility.yul\":8987:8993   */\n      dup2\n        /* \"#utility.yul\":8982:8985   */\n      dup6\n        /* \"#utility.yul\":8889:8994   */\n      tag_248\n      jump\t// in\n    tag_362:\n        /* \"#utility.yul\":8882:8994   */\n      swap4\n      pop\n        /* \"#utility.yul\":9018:9093   */\n      tag_363\n        /* \"#utility.yul\":9087:9092   */\n      dup4\n        /* \"#utility.yul\":9018:9093   */\n      tag_249\n      jump\t// in\n    tag_363:\n        /* \"#utility.yul\":9116:9123   */\n      dup1\n        /* \"#utility.yul\":9147:9148   */\n      0x00\n        /* \"#utility.yul\":9132:9473   */\n    tag_364:\n        /* \"#utility.yul\":9157:9163   */\n      dup4\n        /* \"#utility.yul\":9154:9155   */\n      dup2\n        /* \"#utility.yul\":9151:9164   */\n      lt\n        /* \"#utility.yul\":9132:9473   */\n      iszero\n      tag_366\n      jumpi\n        /* \"#utility.yul\":9233:9239   */\n      dup2\n        /* \"#utility.yul\":9227:9240   */\n      mload\n        /* \"#utility.yul\":9260:9361   */\n      tag_367\n        /* \"#utility.yul\":9357:9360   */\n      dup9\n        /* \"#utility.yul\":9342:9355   */\n      dup3\n        /* \"#utility.yul\":9260:9361   */\n      tag_252\n      jump\t// in\n    tag_367:\n        /* \"#utility.yul\":9253:9361   */\n      swap8\n      pop\n        /* \"#utility.yul\":9384:9463   */\n      tag_368\n        /* \"#utility.yul\":9456:9462   */\n      dup4\n        /* \"#utility.yul\":9384:9463   */\n      tag_253\n      jump\t// in\n    tag_368:\n        /* \"#utility.yul\":9374:9463   */\n      swap3\n      pop\n        /* \"#utility.yul\":9192:9473   */\n      pop\n        /* \"#utility.yul\":9179:9180   */\n      0x01\n        /* \"#utility.yul\":9176:9177   */\n      dup2\n        /* \"#utility.yul\":9172:9181   */\n      add\n        /* \"#utility.yul\":9167:9181   */\n      swap1\n      pop\n        /* \"#utility.yul\":9132:9473   */\n      jump(tag_364)\n    tag_366:\n        /* \"#utility.yul\":9136:9150   */\n      pop\n        /* \"#utility.yul\":9489:9492   */\n      dup6\n        /* \"#utility.yul\":9482:9492   */\n      swap4\n      pop\n        /* \"#utility.yul\":8776:9498   */\n      pop\n      pop\n      pop\n        /* \"#utility.yul\":8614:9498   */\n      swap3\n      swap2\n      pop\n      pop\n      jump\t// out\n        /* \"#utility.yul\":9504:9953   */\n    tag_82:\n        /* \"#utility.yul\":9685:9689   */\n      0x00\n        /* \"#utility.yul\":9723:9725   */\n      0x20\n        /* \"#utility.yul\":9712:9721   */\n      dup3\n        /* \"#utility.yul\":9708:9726   */\n      add\n        /* \"#utility.yul\":9700:9726   */\n      swap1\n      pop\n        /* \"#utility.yul\":9772:9781   */\n      dup2\n        /* \"#utility.yul\":9766:9770   */\n      dup2\n        /* \"#utility.yul\":9762:9782   */\n      sub\n        /* \"#utility.yul\":9758:9759   */\n      0x00\n        /* \"#utility.yul\":9747:9756   */\n      dup4\n        /* \"#utility.yul\":9743:9760   */\n      add\n        /* \"#utility.yul\":9736:9783   */\n      mstore\n        /* \"#utility.yul\":9800:9946   */\n      tag_370\n        /* \"#utility.yul\":9941:9945   */\n      dup2\n        /* \"#utility.yul\":9932:9938   */\n      dup5\n        /* \"#utility.yul\":9800:9946   */\n      tag_254\n      jump\t// in\n    tag_370:\n        /* \"#utility.yul\":9792:9946   */\n      swap1\n      pop\n        /* \"#utility.yul\":9504:9953   */\n      swap3\n      swap2\n      pop\n      pop\n      jump\t// out\n        /* \"#utility.yul\":9959:10081   */\n    tag_255:\n        /* \"#utility.yul\":10032:10056   */\n      tag_372\n        /* \"#utility.yul\":10050:10055   */\n      dup2\n        /* \"#utility.yul\":10032:10056   */\n      tag_232\n      jump\t// in\n    tag_372:\n        /* \"#utility.yul\":10025:10030   */\n      dup2\n        /* \"#utility.yul\":10022:10057   */\n      eq\n        /* \"#utility.yul\":10012:10075   */\n      tag_373\n      jumpi\n        /* \"#utility.yul\":10071:10072   */\n      0x00\n        /* \"#utility.yul\":10068:10069   */\n      0x00\n        /* \"#utility.yul\":10061:10073   */\n      revert\n        /* \"#utility.yul\":10012:10075   */\n    tag_373:\n        /* \"#utility.yul\":9959:10081   */\n      pop\n      jump\t// out\n        /* \"#utility.yul\":10087:10226   */\n    tag_256:\n        /* \"#utility.yul\":10133:10138   */\n      0x00\n        /* \"#utility.yul\":10171:10177   */\n      dup2\n        /* \"#utility.yul\":10158:10178   */\n      calldataload\n        /* \"#utility.yul\":10149:10178   */\n      swap1\n      pop\n        /* \"#utility.yul\":10187:10220   */\n      tag_375\n        /* \"#utility.yul\":10214:10219   */\n      dup2\n        /* \"#utility.yul\":10187:10220   */\n      tag_255\n      jump\t// in\n    tag_375:\n        /* \"#utility.yul\":10087:10226   */\n      swap3\n      swap2\n      pop\n      pop\n      jump\t// out\n        /* \"#utility.yul\":10232:10561   */\n    tag_97:\n        /* \"#utility.yul\":10291:10297   */\n      0x00\n        /* \"#utility.yul\":10340:10342   */\n      0x20\n        /* \"#utility.yul\":10328:10337   */\n      dup3\n        /* \"#utility.yul\":10319:10326   */\n      dup5\n        /* \"#utility.yul\":10315:10338   */\n      sub\n        /* \"#utility.yul\":10311:10343   */\n      slt\n        /* \"#utility.yul\":10308:10427   */\n      iszero\n      tag_377\n      jumpi\n        /* \"#utility.yul\":10346:10425   */\n      tag_378\n      tag_224\n      jump\t// in\n    tag_378:\n        /* \"#utility.yul\":10308:10427   */\n    tag_377:\n        /* \"#utility.yul\":10466:10467   */\n      0x00\n        /* \"#utility.yul\":10491:10544   */\n      tag_379\n        /* \"#utility.yul\":10536:10543   */\n      dup5\n        /* \"#utility.yul\":10527:10533   */\n      dup3\n        /* \"#utility.yul\":10516:10525   */\n      dup6\n        /* \"#utility.yul\":10512:10534   */\n      add\n        /* \"#utility.yul\":10491:10544   */\n      tag_256\n      jump\t// in\n    tag_379:\n        /* \"#utility.yul\":10481:10544   */\n      swap2\n      pop\n        /* \"#utility.yul\":10437:10554   */\n      pop\n        /* \"#utility.yul\":10232:10561   */\n      swap3\n      swap2\n      pop\n      pop\n      jump\t// out\n        /* \"#utility.yul\":10567:11009   */\n    tag_100:\n        /* \"#utility.yul\":10716:10720   */\n      0x00\n        /* \"#utility.yul\":10754:10756   */\n      0x60\n        /* \"#utility.yul\":10743:10752   */\n      dup3\n        /* \"#utility.yul\":10739:10757   */\n      add\n        /* \"#utility.yul\":10731:10757   */\n      swap1\n      pop\n        /* \"#utility.yul\":10767:10838   */\n      tag_381\n        /* \"#utility.yul\":10835:10836   */\n      0x00\n        /* \"#utility.yul\":10824:10833   */\n      dup4\n        /* \"#utility.yul\":10820:10837   */\n      add\n        /* \"#utility.yul\":10811:10817   */\n      dup7\n        /* \"#utility.yul\":10767:10838   */\n      tag_233\n      jump\t// in\n    tag_381:\n        /* \"#utility.yul\":10848:10920   */\n      tag_382\n        /* \"#utility.yul\":10916:10918   */\n      0x20\n        /* \"#utility.yul\":10905:10914   */\n      dup4\n        /* \"#utility.yul\":10901:10919   */\n      add\n        /* \"#utility.yul\":10892:10898   */\n      dup6\n        /* \"#utility.yul\":10848:10920   */\n      tag_233\n      jump\t// in\n    tag_382:\n        /* \"#utility.yul\":10930:11002   */\n      tag_383\n        /* \"#utility.yul\":10998:11000   */\n      0x40\n        /* \"#utility.yul\":10987:10996   */\n      dup4\n        /* \"#utility.yul\":10983:11001   */\n      add\n        /* \"#utility.yul\":10974:10980   */\n      dup5\n        /* \"#utility.yul\":10930:11002   */\n      tag_239\n      jump\t// in\n    tag_383:\n        /* \"#utility.yul\":10567:11009   */\n      swap5\n      swap4\n      pop\n      pop\n      pop\n      pop\n      jump\t// out\n        /* \"#utility.yul\":11015:11388   */\n    tag_105:\n        /* \"#utility.yul\":11158:11162   */\n      0x00\n        /* \"#utility.yul\":11196:11198   */\n      0x20\n        /* \"#utility.yul\":11185:11194   */\n      dup3\n        /* \"#utility.yul\":11181:11199   */\n      add\n        /* \"#utility.yul\":11173:11199   */\n      swap1\n      pop\n        /* \"#utility.yul\":11245:11254   */\n      dup2\n        /* \"#utility.yul\":11239:11243   */\n      dup2\n        /* \"#utility.yul\":11235:11255   */\n      sub\n        /* \"#utility.yul\":11231:11232   */\n      0x00\n        /* \"#utility.yul\":11220:11229   */\n      dup4\n        /* \"#utility.yul\":11216:11233   */\n      add\n        /* \"#utility.yul\":11209:11256   */\n      mstore\n        /* \"#utility.yul\":11273:11381   */\n      tag_385\n        /* \"#utility.yul\":11376:11380   */\n      dup2\n        /* \"#utility.yul\":11367:11373   */\n      dup5\n        /* \"#utility.yul\":11273:11381   */\n      tag_246\n      jump\t// in\n    tag_385:\n        /* \"#utility.yul\":11265:11381   */\n      swap1\n      pop\n        /* \"#utility.yul\":11015:11388   */\n      swap3\n      swap2\n      pop\n      pop\n      jump\t// out\n        /* \"#utility.yul\":11394:11565   */\n    tag_257:\n        /* \"#utility.yul\":11534:11557   */\n      0x41756374696f6e206e6f742066696e616c697a65640000000000000000000000\n        /* \"#utility.yul\":11530:11531   */\n      0x00\n        /* \"#utility.yul\":11522:11528   */\n      dup3\n        /* \"#utility.yul\":11518:11532   */\n      add\n        /* \"#utility.yul\":11511:11558   */\n      mstore\n        /* \"#utility.yul\":11394:11565   */\n      pop\n      jump\t// out\n        /* \"#utility.yul\":11571:11937   */\n    tag_258:\n        /* \"#utility.yul\":11713:11716   */\n      0x00\n        /* \"#utility.yul\":11734:11801   */\n      tag_388\n        /* \"#utility.yul\":11798:11800   */\n      0x15\n        /* \"#utility.yul\":11793:11796   */\n      dup4\n        /* \"#utility.yul\":11734:11801   */\n      tag_235\n      jump\t// in\n    tag_388:\n        /* \"#utility.yul\":11727:11801   */\n      swap2\n      pop\n        /* \"#utility.yul\":11810:11903   */\n      tag_389\n        /* \"#utility.yul\":11899:11902   */\n      dup3\n        /* \"#utility.yul\":11810:11903   */\n      tag_257\n      jump\t// in\n    tag_389:\n        /* \"#utility.yul\":11928:11930   */\n      0x20\n        /* \"#utility.yul\":11923:11926   */\n      dup3\n        /* \"#utility.yul\":11919:11931   */\n      add\n        /* \"#utility.yul\":11912:11931   */\n      swap1\n      pop\n        /* \"#utility.yul\":11571:11937   */\n      swap2\n      swap1\n      pop\n      jump\t// out\n        /* \"#utility.yul\":11943:12362   */\n    tag_125:\n        /* \"#utility.yul\":12109:12113   */\n      0x00\n        /* \"#utility.yul\":12147:12149   */\n      0x20\n        /* \"#utility.yul\":12136:12145   */\n      dup3\n        /* \"#utility.yul\":12132:12150   */\n      add\n        /* \"#utility.yul\":12124:12150   */\n      swap1\n      pop\n        /* \"#utility.yul\":12196:12205   */\n      dup2\n        /* \"#utility.yul\":12190:12194   */\n      dup2\n        /* \"#utility.yul\":12186:12206   */\n      sub\n        /* \"#utility.yul\":12182:12183   */\n      0x00\n        /* \"#utility.yul\":12171:12180   */\n      dup4\n        /* \"#utility.yul\":12167:12184   */\n      add\n        /* \"#utility.yul\":12160:12207   */\n      mstore\n        /* \"#utility.yul\":12224:12355   */\n      tag_391\n        /* \"#utility.yul\":12350:12354   */\n      dup2\n        /* \"#utility.yul\":12224:12355   */\n      tag_258\n      jump\t// in\n    tag_391:\n        /* \"#utility.yul\":12216:12355   */\n      swap1\n      pop\n        /* \"#utility.yul\":11943:12362   */\n      swap2\n      swap1\n      pop\n      jump\t// out\n        /* \"#utility.yul\":12368:12549   */\n    tag_259:\n        /* \"#utility.yul\":12508:12541   */\n      0x4f6e6c792077696e6e65722063616e2061636365737320746865206461746100\n        /* \"#utility.yul\":12504:12505   */\n      0x00\n        /* \"#utility.yul\":12496:12502   */\n      dup3\n        /* \"#utility.yul\":12492:12506   */\n      add\n        /* \"#utility.yul\":12485:12542   */\n      mstore\n        /* \"#utility.yul\":12368:12549   */\n      pop\n      jump\t// out\n        /* \"#utility.yul\":12555:12921   */\n    tag_260:\n        /* \"#utility.yul\":12697:12700   */\n      0x00\n        /* \"#utility.yul\":12718:12785   */\n      tag_394\n        /* \"#utility.yul\":12782:12784   */\n      0x1f\n        /* \"#utility.yul\":12777:12780   */\n      dup4\n        /* \"#utility.yul\":12718:12785   */\n      tag_235\n      jump\t// in\n    tag_394:\n        /* \"#utility.yul\":12711:12785   */\n      swap2\n      pop\n        /* \"#utility.yul\":12794:12887   */\n      tag_395\n        /* \"#utility.yul\":12883:12886   */\n      dup3\n        /* \"#utility.yul\":12794:12887   */\n      tag_259\n      jump\t// in\n    tag_395:\n        /* \"#utility.yul\":12912:12914   */\n      0x20\n        /* \"#utility.yul\":12907:12910   */\n      dup3\n        /* \"#utility.yul\":12903:12915   */\n      add\n        /* \"#utility.yul\":12896:12915   */\n      swap1\n      pop\n        /* \"#utility.yul\":12555:12921   */\n      swap2\n      swap1\n      pop\n      jump\t// out\n        /* \"#utility.yul\":12927:13346   */\n    tag_128:\n        /* \"#utility.yul\":13093:13097   */\n      0x00\n        /* \"#utility.yul\":13131:13133   */\n      0x20\n        /* \"#utility.yul\":13120:13129   */\n      dup3\n        /* \"#utility.yul\":13116:13134   */\n      add\n        /* \"#utility.yul\":13108:13134   */\n      swap1\n      pop\n        /* \"#utility.yul\":13180:13189   */\n      dup2\n        /* \"#utility.yul\":13174:13178   */\n      dup2\n        /* \"#utility.yul\":13170:13190   */\n      sub\n        /* \"#utility.yul\":13166:13167   */\n      0x00\n        /* \"#utility.yul\":13155:13164   */\n      dup4\n        /* \"#utility.yul\":13151:13168   */\n      add\n        /* \"#utility.yul\":13144:13191   */\n      mstore\n        /* \"#utility.yul\":13208:13339   */\n      tag_397\n        /* \"#utility.yul\":13334:13338   */\n      dup2\n        /* \"#utility.yul\":13208:13339   */\n      tag_260\n      jump\t// in\n    tag_397:\n        /* \"#utility.yul\":13200:13339   */\n      swap1\n      pop\n        /* \"#utility.yul\":12927:13346   */\n      swap2\n      swap1\n      pop\n      jump\t// out\n        /* \"#utility.yul\":13352:13532   */\n    tag_261:\n        /* \"#utility.yul\":13400:13477   */\n      0x4e487b7100000000000000000000000000000000000000000000000000000000\n        /* \"#utility.yul\":13397:13398   */\n      0x00\n        /* \"#utility.yul\":13390:13478   */\n      mstore\n        /* \"#utility.yul\":13497:13501   */\n      0x22\n        /* \"#utility.yul\":13494:13495   */\n      0x04\n        /* \"#utility.yul\":13487:13502   */\n      mstore\n        /* \"#utility.yul\":13521:13525   */\n      0x24\n        /* \"#utility.yul\":13518:13519   */\n      0x00\n        /* \"#utility.yul\":13511:13526   */\n      revert\n        /* \"#utility.yul\":13538:13858   */\n    tag_130:\n        /* \"#utility.yul\":13582:13588   */\n      0x00\n        /* \"#utility.yul\":13619:13620   */\n      0x02\n        /* \"#utility.yul\":13613:13617   */\n      dup3\n        /* \"#utility.yul\":13609:13621   */\n      div\n        /* \"#utility.yul\":13599:13621   */\n      swap1\n      pop\n        /* \"#utility.yul\":13666:13667   */\n      0x01\n        /* \"#utility.yul\":13660:13664   */\n      dup3\n        /* \"#utility.yul\":13656:13668   */\n      and\n        /* \"#utility.yul\":13687:13705   */\n      dup1\n        /* \"#utility.yul\":13677:13758   */\n      tag_400\n      jumpi\n        /* \"#utility.yul\":13743:13747   */\n      0x7f\n        /* \"#utility.yul\":13735:13741   */\n      dup3\n        /* \"#utility.yul\":13731:13748   */\n      and\n        /* \"#utility.yul\":13721:13748   */\n      swap2\n      pop\n        /* \"#utility.yul\":13677:13758   */\n    tag_400:\n        /* \"#utility.yul\":13805:13807   */\n      0x20\n        /* \"#utility.yul\":13797:13803   */\n      dup3\n        /* \"#utility.yul\":13794:13808   */\n      lt\n        /* \"#utility.yul\":13774:13792   */\n      dup2\n        /* \"#utility.yul\":13771:13809   */\n      sub\n        /* \"#utility.yul\":13768:13852   */\n      tag_401\n      jumpi\n        /* \"#utility.yul\":13824:13842   */\n      tag_402\n      tag_261\n      jump\t// in\n    tag_402:\n        /* \"#utility.yul\":13768:13852   */\n    tag_401:\n        /* \"#utility.yul\":13589:13858   */\n      pop\n        /* \"#utility.yul\":13538:13858   */\n      swap2\n      swap1\n      pop\n      jump\t// out\n        /* \"#utility.yul\":13864:14035   */\n    tag_262:\n        /* \"#utility.yul\":14004:14027   */\n      0x41756374696f6e206e6f7420656e646564207965740000000000000000000000\n        /* \"#utility.yul\":14000:14001   */\n      0x00\n        /* \"#utility.yul\":13992:13998   */\n      dup3\n        /* \"#utility.yul\":13988:14002   */\n      add\n        /* \"#utility.yul\":13981:14028   */\n      mstore\n        /* \"#utility.yul\":13864:14035   */\n      pop\n      jump\t// out\n        /* \"#utility.yul\":14041:14407   */\n    tag_263:\n        /* \"#utility.yul\":14183:14186   */\n      0x00\n        /* \"#utility.yul\":14204:14271   */\n      tag_405\n        /* \"#utility.yul\":14268:14270   */\n      0x15\n        /* \"#utility.yul\":14263:14266   */\n      dup4\n        /* \"#utility.yul\":14204:14271   */\n      tag_235\n      jump\t// in\n    tag_405:\n        /* \"#utility.yul\":14197:14271   */\n      swap2\n      pop\n        /* \"#utility.yul\":14280:14373   */\n      tag_406\n        /* \"#utility.yul\":14369:14372   */\n      dup3\n        /* \"#utility.yul\":14280:14373   */\n      tag_262\n      jump\t// in\n    tag_406:\n        /* \"#utility.yul\":14398:14400   */\n      0x20\n        /* \"#utility.yul\":14393:14396   */\n      dup3\n        /* \"#utility.yul\":14389:14401   */\n      add\n        /* \"#utility.yul\":14382:14401   */\n      swap1\n      pop\n        /* \"#utility.yul\":14041:14407   */\n      swap2\n      swap1\n      pop\n      jump\t// out\n        /* \"#utility.yul\":14413:14832   */\n    tag_166:\n        /* \"#utility.yul\":14579:14583   */\n      0x00\n        /* \"#utility.yul\":14617:14619   */\n      0x20\n        /* \"#utility.yul\":14606:14615   */\n      dup3\n        /* \"#utility.yul\":14602:14620   */\n      add\n        /* \"#utility.yul\":14594:14620   */\n      swap1\n      pop\n        /* \"#utility.yul\":14666:14675   */\n      dup2\n        /* \"#utility.yul\":14660:14664   */\n      dup2\n        /* \"#utility.yul\":14656:14676   */\n      sub\n        /* \"#utility.yul\":14652:14653   */\n      0x00\n        /* \"#utility.yul\":14641:14650   */\n      dup4\n        /* \"#utility.yul\":14637:14654   */\n      add\n        /* \"#utility.yul\":14630:14677   */\n      mstore\n        /* \"#utility.yul\":14694:14825   */\n      tag_408\n        /* \"#utility.yul\":14820:14824   */\n      dup2\n        /* \"#utility.yul\":14694:14825   */\n      tag_263\n      jump\t// in\n    tag_408:\n        /* \"#utility.yul\":14686:14825   */\n      swap1\n      pop\n        /* \"#utility.yul\":14413:14832   */\n      swap2\n      swap1\n      pop\n      jump\t// out\n        /* \"#utility.yul\":14838:15013   */\n    tag_264:\n        /* \"#utility.yul\":14978:15005   */\n      0x41756374696f6e20616c72656164792066696e616c697a656400000000000000\n        /* \"#utility.yul\":14974:14975   */\n      0x00\n        /* \"#utility.yul\":14966:14972   */\n      dup3\n        /* \"#utility.yul\":14962:14976   */\n      add\n        /* \"#utility.yul\":14955:15006   */\n      mstore\n        /* \"#utility.yul\":14838:15013   */\n      pop\n      jump\t// out\n        /* \"#utility.yul\":15019:15385   */\n    tag_265:\n        /* \"#utility.yul\":15161:15164   */\n      0x00\n        /* \"#utility.yul\":15182:15249   */\n      tag_411\n        /* \"#utility.yul\":15246:15248   */\n      0x19\n        /* \"#utility.yul\":15241:15244   */\n      dup4\n        /* \"#utility.yul\":15182:15249   */\n      tag_235\n      jump\t// in\n    tag_411:\n        /* \"#utility.yul\":15175:15249   */\n      swap2\n      pop\n        /* \"#utility.yul\":15258:15351   */\n      tag_412\n        /* \"#utility.yul\":15347:15350   */\n      dup3\n        /* \"#utility.yul\":15258:15351   */\n      tag_264\n      jump\t// in\n    tag_412:\n        /* \"#utility.yul\":15376:15378   */\n      0x20\n        /* \"#utility.yul\":15371:15374   */\n      dup3\n        /* \"#utility.yul\":15367:15379   */\n      add\n        /* \"#utility.yul\":15360:15379   */\n      swap1\n      pop\n        /* \"#utility.yul\":15019:15385   */\n      swap2\n      swap1\n      pop\n      jump\t// out\n        /* \"#utility.yul\":15391:15810   */\n    tag_170:\n        /* \"#utility.yul\":15557:15561   */\n      0x00\n        /* \"#utility.yul\":15595:15597   */\n      0x20\n        /* \"#utility.yul\":15584:15593   */\n      dup3\n        /* \"#utility.yul\":15580:15598   */\n      add\n        /* \"#utility.yul\":15572:15598   */\n      swap1\n      pop\n        /* \"#utility.yul\":15644:15653   */\n      dup2\n        /* \"#utility.yul\":15638:15642   */\n      dup2\n        /* \"#utility.yul\":15634:15654   */\n      sub\n        /* \"#utility.yul\":15630:15631   */\n      0x00\n        /* \"#utility.yul\":15619:15628   */\n      dup4\n        /* \"#utility.yul\":15615:15632   */\n      add\n        /* \"#utility.yul\":15608:15655   */\n      mstore\n        /* \"#utility.yul\":15672:15803   */\n      tag_414\n        /* \"#utility.yul\":15798:15802   */\n      dup2\n        /* \"#utility.yul\":15672:15803   */\n      tag_265\n      jump\t// in\n    tag_414:\n        /* \"#utility.yul\":15664:15803   */\n      swap1\n      pop\n        /* \"#utility.yul\":15391:15810   */\n      swap2\n      swap1\n      pop\n      jump\t// out\n        /* \"#utility.yul\":15816:15996   */\n    tag_176:\n        /* \"#utility.yul\":15864:15941   */\n      0x4e487b7100000000000000000000000000000000000000000000000000000000\n        /* \"#utility.yul\":15861:15862   */\n      0x00\n        /* \"#utility.yul\":15854:15942   */\n      mstore\n        /* \"#utility.yul\":15961:15965   */\n      0x32\n        /* \"#utility.yul\":15958:15959   */\n      0x04\n        /* \"#utility.yul\":15951:15966   */\n      mstore\n        /* \"#utility.yul\":15985:15989   */\n      0x24\n        /* \"#utility.yul\":15982:15983   */\n      0x00\n        /* \"#utility.yul\":15975:15990   */\n      revert\n        /* \"#utility.yul\":16002:16172   */\n    tag_266:\n        /* \"#utility.yul\":16142:16164   */\n      0x496e73756666696369656e742062616c616e6365000000000000000000000000\n        /* \"#utility.yul\":16138:16139   */\n      0x00\n        /* \"#utility.yul\":16130:16136   */\n      dup3\n        /* \"#utility.yul\":16126:16140   */\n      add\n        /* \"#utility.yul\":16119:16165   */\n      mstore\n        /* \"#utility.yul\":16002:16172   */\n      pop\n      jump\t// out\n        /* \"#utility.yul\":16178:16544   */\n    tag_267:\n        /* \"#utility.yul\":16320:16323   */\n      0x00\n        /* \"#utility.yul\":16341:16408   */\n      tag_418\n        /* \"#utility.yul\":16405:16407   */\n      0x14\n        /* \"#utility.yul\":16400:16403   */\n      dup4\n        /* \"#utility.yul\":16341:16408   */\n      tag_235\n      jump\t// in\n    tag_418:\n        /* \"#utility.yul\":16334:16408   */\n      swap2\n      pop\n        /* \"#utility.yul\":16417:16510   */\n      tag_419\n        /* \"#utility.yul\":16506:16509   */\n      dup3\n        /* \"#utility.yul\":16417:16510   */\n      tag_266\n      jump\t// in\n    tag_419:\n        /* \"#utility.yul\":16535:16537   */\n      0x20\n        /* \"#utility.yul\":16530:16533   */\n      dup3\n        /* \"#utility.yul\":16526:16538   */\n      add\n        /* \"#utility.yul\":16519:16538   */\n      swap1\n      pop\n        /* \"#utility.yul\":16178:16544   */\n      swap2\n      swap1\n      pop\n      jump\t// out\n        /* \"#utility.yul\":16550:16969   */\n    tag_186:\n        /* \"#utility.yul\":16716:16720   */\n      0x00\n        /* \"#utility.yul\":16754:16756   */\n      0x20\n        /* \"#utility.yul\":16743:16752   */\n      dup3\n        /* \"#utility.yul\":16739:16757   */\n      add\n        /* \"#utility.yul\":16731:16757   */\n      swap1\n      pop\n        /* \"#utility.yul\":16803:16812   */\n      dup2\n        /* \"#utility.yul\":16797:16801   */\n      dup2\n        /* \"#utility.yul\":16793:16813   */\n      sub\n        /* \"#utility.yul\":16789:16790   */\n      0x00\n        /* \"#utility.yul\":16778:16787   */\n      dup4\n        /* \"#utility.yul\":16774:16791   */\n      add\n        /* \"#utility.yul\":16767:16814   */\n      mstore\n        /* \"#utility.yul\":16831:16962   */\n      tag_421\n        /* \"#utility.yul\":16957:16961   */\n      dup2\n        /* \"#utility.yul\":16831:16962   */\n      tag_267\n      jump\t// in\n    tag_421:\n        /* \"#utility.yul\":16823:16962   */\n      swap1\n      pop\n        /* \"#utility.yul\":16550:16969   */\n      swap2\n      swap1\n      pop\n      jump\t// out\n        /* \"#utility.yul\":16975:17138   */\n    tag_268:\n        /* \"#utility.yul\":17115:17130   */\n      0x41756374696f6e20656e64656400000000000000000000000000000000000000\n        /* \"#utility.yul\":17111:17112   */\n      0x00\n        /* \"#utility.yul\":17103:17109   */\n      dup3\n        /* \"#utility.yul\":17099:17113   */\n      add\n        /* \"#utility.yul\":17092:17131   */\n      mstore\n        /* \"#utility.yul\":16975:17138   */\n      pop\n      jump\t// out\n        /* \"#utility.yul\":17144:17510   */\n    tag_269:\n        /* \"#utility.yul\":17286:17289   */\n      0x00\n        /* \"#utility.yul\":17307:17374   */\n      tag_424\n        /* \"#utility.yul\":17371:17373   */\n      0x0d\n        /* \"#utility.yul\":17366:17369   */\n      dup4\n        /* \"#utility.yul\":17307:17374   */\n      tag_235\n      jump\t// in\n    tag_424:\n        /* \"#utility.yul\":17300:17374   */\n      swap2\n      pop\n        /* \"#utility.yul\":17383:17476   */\n      tag_425\n        /* \"#utility.yul\":17472:17475   */\n      dup3\n        /* \"#utility.yul\":17383:17476   */\n      tag_268\n      jump\t// in\n    tag_425:\n        /* \"#utility.yul\":17501:17503   */\n      0x20\n        /* \"#utility.yul\":17496:17499   */\n      dup3\n        /* \"#utility.yul\":17492:17504   */\n      add\n        /* \"#utility.yul\":17485:17504   */\n      swap1\n      pop\n        /* \"#utility.yul\":17144:17510   */\n      swap2\n      swap1\n      pop\n      jump\t// out\n        /* \"#utility.yul\":17516:17935   */\n    tag_199:\n        /* \"#utility.yul\":17682:17686   */\n      0x00\n        /* \"#utility.yul\":17720:17722   */\n      0x20\n        /* \"#utility.yul\":17709:17718   */\n      dup3\n        /* \"#utility.yul\":17705:17723   */\n      add\n        /* \"#utility.yul\":17697:17723   */\n      swap1\n      pop\n        /* \"#utility.yul\":17769:17778   */\n      dup2\n        /* \"#utility.yul\":17763:17767   */\n      dup2\n        /* \"#utility.yul\":17759:17779   */\n      sub\n        /* \"#utility.yul\":17755:17756   */\n      0x00\n        /* \"#utility.yul\":17744:17753   */\n      dup4\n        /* \"#utility.yul\":17740:17757   */\n      add\n        /* \"#utility.yul\":17733:17780   */\n      mstore\n        /* \"#utility.yul\":17797:17928   */\n      tag_427\n        /* \"#utility.yul\":17923:17927   */\n      dup2\n        /* \"#utility.yul\":17797:17928   */\n      tag_269\n      jump\t// in\n    tag_427:\n        /* \"#utility.yul\":17789:17928   */\n      swap1\n      pop\n        /* \"#utility.yul\":17516:17935   */\n      swap2\n      swap1\n      pop\n      jump\t// out\n        /* \"#utility.yul\":17941:18161   */\n    tag_270:\n        /* \"#utility.yul\":18081:18115   */\n      0x596f752063616e277420626964206f6e20796f7572206f776e2061756374696f\n        /* \"#utility.yul\":18077:18078   */\n      0x00\n        /* \"#utility.yul\":18069:18075   */\n      dup3\n        /* \"#utility.yul\":18065:18079   */\n      add\n        /* \"#utility.yul\":18058:18116   */\n      mstore\n        /* \"#utility.yul\":18150:18153   */\n      0x6e00000000000000000000000000000000000000000000000000000000000000\n        /* \"#utility.yul\":18145:18147   */\n      0x20\n        /* \"#utility.yul\":18137:18143   */\n      dup3\n        /* \"#utility.yul\":18133:18148   */\n      add\n        /* \"#utility.yul\":18126:18154   */\n      mstore\n        /* \"#utility.yul\":17941:18161   */\n      pop\n      jump\t// out\n        /* \"#utility.yul\":18167:18533   */\n    tag_271:\n        /* \"#utility.yul\":18309:18312   */\n      0x00\n        /* \"#utility.yul\":18330:18397   */\n      tag_430\n        /* \"#utility.yul\":18394:18396   */\n      0x21\n        /* \"#utility.yul\":18389:18392   */\n      dup4\n        /* \"#utility.yul\":18330:18397   */\n      tag_235\n      jump\t// in\n    tag_430:\n        /* \"#utility.yul\":18323:18397   */\n      swap2\n      pop\n        /* \"#utility.yul\":18406:18499   */\n      tag_431\n        /* \"#utility.yul\":18495:18498   */\n      dup3\n        /* \"#utility.yul\":18406:18499   */\n      tag_270\n      jump\t// in\n    tag_431:\n        /* \"#utility.yul\":18524:18526   */\n      0x40\n        /* \"#utility.yul\":18519:18522   */\n      dup3\n        /* \"#utility.yul\":18515:18527   */\n      add\n        /* \"#utility.yul\":18508:18527   */\n      swap1\n      pop\n        /* \"#utility.yul\":18167:18533   */\n      swap2\n      swap1\n      pop\n      jump\t// out\n        /* \"#utility.yul\":18539:18958   */\n    tag_203:\n        /* \"#utility.yul\":18705:18709   */\n      0x00\n        /* \"#utility.yul\":18743:18745   */\n      0x20\n        /* \"#utility.yul\":18732:18741   */\n      dup3\n        /* \"#utility.yul\":18728:18746   */\n      add\n        /* \"#utility.yul\":18720:18746   */\n      swap1\n      pop\n        /* \"#utility.yul\":18792:18801   */\n      dup2\n        /* \"#utility.yul\":18786:18790   */\n      dup2\n        /* \"#utility.yul\":18782:18802   */\n      sub\n        /* \"#utility.yul\":18778:18779   */\n      0x00\n        /* \"#utility.yul\":18767:18776   */\n      dup4\n        /* \"#utility.yul\":18763:18780   */\n      add\n        /* \"#utility.yul\":18756:18803   */\n      mstore\n        /* \"#utility.yul\":18820:18951   */\n      tag_433\n        /* \"#utility.yul\":18946:18950   */\n      dup2\n        /* \"#utility.yul\":18820:18951   */\n      tag_271\n      jump\t// in\n    tag_433:\n        /* \"#utility.yul\":18812:18951   */\n      swap1\n      pop\n        /* \"#utility.yul\":18539:18958   */\n      swap2\n      swap1\n      pop\n      jump\t// out\n        /* \"#utility.yul\":18964:19134   */\n    tag_272:\n        /* \"#utility.yul\":19104:19126   */\n      0x4d7573742073656e6420736f6d65206574686572000000000000000000000000\n        /* \"#utility.yul\":19100:19101   */\n      0x00\n        /* \"#utility.yul\":19092:19098   */\n      dup3\n        /* \"#utility.yul\":19088:19102   */\n      add\n        /* \"#utility.yul\":19081:19127   */\n      mstore\n        /* \"#utility.yul\":18964:19134   */\n      pop\n      jump\t// out\n        /* \"#utility.yul\":19140:19506   */\n    tag_273:\n        /* \"#utility.yul\":19282:19285   */\n      0x00\n        /* \"#utility.yul\":19303:19370   */\n      tag_436\n        /* \"#utility.yul\":19367:19369   */\n      0x14\n        /* \"#utility.yul\":19362:19365   */\n      dup4\n        /* \"#utility.yul\":19303:19370   */\n      tag_235\n      jump\t// in\n    tag_436:\n        /* \"#utility.yul\":19296:19370   */\n      swap2\n      pop\n        /* \"#utility.yul\":19379:19472   */\n      tag_437\n        /* \"#utility.yul\":19468:19471   */\n      dup3\n        /* \"#utility.yul\":19379:19472   */\n      tag_272\n      jump\t// in\n    tag_437:\n        /* \"#utility.yul\":19497:19499   */\n      0x20\n        /* \"#utility.yul\":19492:19495   */\n      dup3\n        /* \"#utility.yul\":19488:19500   */\n      add\n        /* \"#utility.yul\":19481:19500   */\n      swap1\n      pop\n        /* \"#utility.yul\":19140:19506   */\n      swap2\n      swap1\n      pop\n      jump\t// out\n        /* \"#utility.yul\":19512:19931   */\n    tag_206:\n        /* \"#utility.yul\":19678:19682   */\n      0x00\n        /* \"#utility.yul\":19716:19718   */\n      0x20\n        /* \"#utility.yul\":19705:19714   */\n      dup3\n        /* \"#utility.yul\":19701:19719   */\n      add\n        /* \"#utility.yul\":19693:19719   */\n      swap1\n      pop\n        /* \"#utility.yul\":19765:19774   */\n      dup2\n        /* \"#utility.yul\":19759:19763   */\n      dup2\n        /* \"#utility.yul\":19755:19775   */\n      sub\n        /* \"#utility.yul\":19751:19752   */\n      0x00\n        /* \"#utility.yul\":19740:19749   */\n      dup4\n        /* \"#utility.yul\":19736:19753   */\n      add\n        /* \"#utility.yul\":19729:19776   */\n      mstore\n        /* \"#utility.yul\":19793:19924   */\n      tag_439\n        /* \"#utility.yul\":19919:19923   */\n      dup2\n        /* \"#utility.yul\":19793:19924   */\n      tag_273\n      jump\t// in\n    tag_439:\n        /* \"#utility.yul\":19785:19924   */\n      swap1\n      pop\n        /* \"#utility.yul\":19512:19931   */\n      swap2\n      swap1\n      pop\n      jump\t// out\n        /* \"#utility.yul\":19937:20117   */\n    tag_274:\n        /* \"#utility.yul\":19985:20062   */\n      0x4e487b7100000000000000000000000000000000000000000000000000000000\n        /* \"#utility.yul\":19982:19983   */\n      0x00\n        /* \"#utility.yul\":19975:20063   */\n      mstore\n        /* \"#utility.yul\":20082:20086   */\n      0x11\n        /* \"#utility.yul\":20079:20080   */\n      0x04\n        /* \"#utility.yul\":20072:20087   */\n      mstore\n        /* \"#utility.yul\":20106:20110   */\n      0x24\n        /* \"#utility.yul\":20103:20104   */\n      0x00\n        /* \"#utility.yul\":20096:20111   */\n      revert\n        /* \"#utility.yul\":20123:20314   */\n    tag_208:\n        /* \"#utility.yul\":20163:20166   */\n      0x00\n        /* \"#utility.yul\":20182:20202   */\n      tag_442\n        /* \"#utility.yul\":20200:20201   */\n      dup3\n        /* \"#utility.yul\":20182:20202   */\n      tag_232\n      jump\t// in\n    tag_442:\n        /* \"#utility.yul\":20177:20202   */\n      swap2\n      pop\n        /* \"#utility.yul\":20216:20236   */\n      tag_443\n        /* \"#utility.yul\":20234:20235   */\n      dup4\n        /* \"#utility.yul\":20216:20236   */\n      tag_232\n      jump\t// in\n    tag_443:\n        /* \"#utility.yul\":20211:20236   */\n      swap3\n      pop\n        /* \"#utility.yul\":20259:20260   */\n      dup3\n        /* \"#utility.yul\":20256:20257   */\n      dup3\n        /* \"#utility.yul\":20252:20261   */\n      add\n        /* \"#utility.yul\":20245:20261   */\n      swap1\n      pop\n        /* \"#utility.yul\":20280:20283   */\n      dup1\n        /* \"#utility.yul\":20277:20278   */\n      dup3\n        /* \"#utility.yul\":20274:20284   */\n      gt\n        /* \"#utility.yul\":20271:20307   */\n      iszero\n      tag_444\n      jumpi\n        /* \"#utility.yul\":20287:20305   */\n      tag_445\n      tag_274\n      jump\t// in\n    tag_445:\n        /* \"#utility.yul\":20271:20307   */\n    tag_444:\n        /* \"#utility.yul\":20123:20314   */\n      swap3\n      swap2\n      pop\n      pop\n      jump\t// out\n        /* \"#utility.yul\":20320:20487   */\n    tag_275:\n        /* \"#utility.yul\":20460:20479   */\n      0x42656c6f77206d696e696d756d20626964000000000000000000000000000000\n        /* \"#utility.yul\":20456:20457   */\n      0x00\n        /* \"#utility.yul\":20448:20454   */\n      dup3\n        /* \"#utility.yul\":20444:20458   */\n      add\n        /* \"#utility.yul\":20437:20480   */\n      mstore\n        /* \"#utility.yul\":20320:20487   */\n      pop\n      jump\t// out\n        /* \"#utility.yul\":20493:20859   */\n    tag_276:\n        /* \"#utility.yul\":20635:20638   */\n      0x00\n        /* \"#utility.yul\":20656:20723   */\n      tag_448\n        /* \"#utility.yul\":20720:20722   */\n      0x11\n        /* \"#utility.yul\":20715:20718   */\n      dup4\n        /* \"#utility.yul\":20656:20723   */\n      tag_235\n      jump\t// in\n    tag_448:\n        /* \"#utility.yul\":20649:20723   */\n      swap2\n      pop\n        /* \"#utility.yul\":20732:20825   */\n      tag_449\n        /* \"#utility.yul\":20821:20824   */\n      dup3\n        /* \"#utility.yul\":20732:20825   */\n      tag_275\n      jump\t// in\n    tag_449:\n        /* \"#utility.yul\":20850:20852   */\n      0x20\n        /* \"#utility.yul\":20845:20848   */\n      dup3\n        /* \"#utility.yul\":20841:20853   */\n      add\n        /* \"#utility.yul\":20834:20853   */\n      swap1\n      pop\n        /* \"#utility.yul\":20493:20859   */\n      swap2\n      swap1\n      pop\n      jump\t// out\n        /* \"#utility.yul\":20865:21284   */\n    tag_212:\n        /* \"#utility.yul\":21031:21035   */\n      0x00\n        /* \"#utility.yul\":21069:21071   */\n      0x20\n        /* \"#utility.yul\":21058:21067   */\n      dup3\n        /* \"#utility.yul\":21054:21072   */\n      add\n        /* \"#utility.yul\":21046:21072   */\n      swap1\n      pop\n        /* \"#utility.yul\":21118:21127   */\n      dup2\n        /* \"#utility.yul\":21112:21116   */\n      dup2\n        /* \"#utility.yul\":21108:21128   */\n      sub\n        /* \"#utility.yul\":21104:21105   */\n      0x00\n        /* \"#utility.yul\":21093:21102   */\n      dup4\n        /* \"#utility.yul\":21089:21106   */\n      add\n        /* \"#utility.yul\":21082:21129   */\n      mstore\n        /* \"#utility.yul\":21146:21277   */\n      tag_451\n        /* \"#utility.yul\":21272:21276   */\n      dup2\n        /* \"#utility.yul\":21146:21277   */\n      tag_276\n      jump\t// in\n    tag_451:\n        /* \"#utility.yul\":21138:21277   */\n      swap1\n      pop\n        /* \"#utility.yul\":20865:21284   */\n      swap2\n      swap1\n      pop\n      jump\t// out\n        /* \"#utility.yul\":21290:21471   */\n    tag_277:\n        /* \"#utility.yul\":21430:21463   */\n      0x426964206d757374206578636565642063757272656e74206869676865737400\n        /* \"#utility.yul\":21426:21427   */\n      0x00\n        /* \"#utility.yul\":21418:21424   */\n      dup3\n        /* \"#utility.yul\":21414:21428   */\n      add\n        /* \"#utility.yul\":21407:21464   */\n      mstore\n        /* \"#utility.yul\":21290:21471   */\n      pop\n      jump\t// out\n        /* \"#utility.yul\":21477:21843   */\n    tag_278:\n        /* \"#utility.yul\":21619:21622   */\n      0x00\n        /* \"#utility.yul\":21640:21707   */\n      tag_454\n        /* \"#utility.yul\":21704:21706   */\n      0x1f\n        /* \"#utility.yul\":21699:21702   */\n      dup4\n        /* \"#utility.yul\":21640:21707   */\n      tag_235\n      jump\t// in\n    tag_454:\n        /* \"#utility.yul\":21633:21707   */\n      swap2\n      pop\n        /* \"#utility.yul\":21716:21809   */\n      tag_455\n        /* \"#utility.yul\":21805:21808   */\n      dup3\n        /* \"#utility.yul\":21716:21809   */\n      tag_277\n      jump\t// in\n    tag_455:\n        /* \"#utility.yul\":21834:21836   */\n      0x20\n        /* \"#utility.yul\":21829:21832   */\n      dup3\n        /* \"#utility.yul\":21825:21837   */\n      add\n        /* \"#utility.yul\":21818:21837   */\n      swap1\n      pop\n        /* \"#utility.yul\":21477:21843   */\n      swap2\n      swap1\n      pop\n      jump\t// out\n        /* \"#utility.yul\":21849:22268   */\n    tag_215:\n        /* \"#utility.yul\":22015:22019   */\n      0x00\n        /* \"#utility.yul\":22053:22055   */\n      0x20\n        /* \"#utility.yul\":22042:22051   */\n      dup3\n        /* \"#utility.yul\":22038:22056   */\n      add\n        /* \"#utility.yul\":22030:22056   */\n      swap1\n      pop\n        /* \"#utility.yul\":22102:22111   */\n      dup2\n        /* \"#utility.yul\":22096:22100   */\n      dup2\n        /* \"#utility.yul\":22092:22112   */\n      sub\n        /* \"#utility.yul\":22088:22089   */\n      0x00\n        /* \"#utility.yul\":22077:22086   */\n      dup4\n        /* \"#utility.yul\":22073:22090   */\n      add\n        /* \"#utility.yul\":22066:22113   */\n      mstore\n        /* \"#utility.yul\":22130:22261   */\n      tag_457\n        /* \"#utility.yul\":22256:22260   */\n      dup2\n        /* \"#utility.yul\":22130:22261   */\n      tag_278\n      jump\t// in\n    tag_457:\n        /* \"#utility.yul\":22122:22261   */\n      swap1\n      pop\n        /* \"#utility.yul\":21849:22268   */\n      swap2\n      swap1\n      pop\n      jump\t// out\n        /* \"#utility.yul\":22274:22507   */\n    tag_219:\n        /* \"#utility.yul\":22313:22316   */\n      0x00\n        /* \"#utility.yul\":22336:22360   */\n      tag_459\n        /* \"#utility.yul\":22354:22359   */\n      dup3\n        /* \"#utility.yul\":22336:22360   */\n      tag_232\n      jump\t// in\n    tag_459:\n        /* \"#utility.yul\":22327:22360   */\n      swap2\n      pop\n        /* \"#utility.yul\":22382:22448   */\n      0xffffffffffffffffffffffffffffffffffffffffffffffffffffffffffffffff\n        /* \"#utility.yul\":22375:22380   */\n      dup3\n        /* \"#utility.yul\":22372:22449   */\n      sub\n        /* \"#utility.yul\":22369:22472   */\n      tag_460\n      jumpi\n        /* \"#utility.yul\":22452:22470   */\n      tag_461\n      tag_274\n      jump\t// in\n    tag_461:\n        /* \"#utility.yul\":22369:22472   */\n    tag_460:\n        /* \"#utility.yul\":22499:22500   */\n      0x01\n        /* \"#utility.yul\":22492:22497   */\n      dup3\n        /* \"#utility.yul\":22488:22501   */\n      add\n        /* \"#utility.yul\":22481:22501   */\n      swap1\n      pop\n        /* \"#utility.yul\":22274:22507   */\n      swap2\n      swap1\n      pop\n      jump\t// out\n\n    auxdata: 0xa264697066735822122029032ca0de05dbce2e4e3aa1d272ea7060cd469d1c9375a7a2587aa855d9bc8d64736f6c634300081e0033\n}\n","bytecode":{"linkReferences":{},"object":"608060405234801561000f575f5ffd5b506040516124de3803806124de8339818101604052810190610031919061029b565b815f5f6101000a81548173ffffffffffffffffffffffffffffffffffffffff021916908373ffffffffffffffffffffffffffffffffffffffff1602179055508460018190555083600290816100869190610551565b5082600390816100969190610551565b5080600b819055505f600c5f6101000a81548160ff0219169083151502179055505050505050610620565b5f604051905090565b5f5ffd5b5f5ffd5b5f819050919050565b6100e4816100d2565b81146100ee575f5ffd5b50565b5f815190506100ff816100db565b92915050565b5f5ffd5b5f5ffd5b5f601f19601f8301169050919050565b7f4e487b71000000000000000000000000000000000000000000000000000000005f52604160045260245ffd5b6101538261010d565b810181811067ffffffffffffffff821117156101725761017161011d565b5b80604052505050565b5f6101846100c1565b9050610190828261014a565b919050565b5f67ffffffffffffffff8211156101af576101ae61011d565b5b6101b88261010d565b9050602081019050919050565b8281835e5f83830152505050565b5f6101e56101e084610195565b61017b565b90508281526020810184848401111561020157610200610109565b5b61020c8482856101c5565b509392505050565b5f82601f83011261022857610227610105565b5b81516102388482602086016101d3565b91505092915050565b5f73ffffffffffffffffffffffffffffffffffffffff82169050919050565b5f61026a82610241565b9050919050565b61027a81610260565b8114610284575f5ffd5b50565b5f8151905061029581610271565b92915050565b5f5f5f5f5f60a086880312156102b4576102b36100ca565b5b5f6102c1888289016100f1565b955050602086015167ffffffffffffffff8111156102e2576102e16100ce565b5b6102ee88828901610214565b945050604086015167ffffffffffffffff81111561030f5761030e6100ce565b5b61031b88828901610214565b935050606061032c88828901610287565b925050608061033d888289016100f1565b9150509295509295909350565b5f81519050919050565b7f4e487b71000000000000000000000000000000000000000000000000000000005f52602260045260245ffd5b5f600282049050600182168061039857607f821691505b6020821081036103ab576103aa610354565b5b50919050565b5f819050815f5260205f209050919050565b5f6020601f8301049050919050565b5f82821b905092915050565b5f6008830261040d7fffffffffffffffffffffffffffffffffffffffffffffffffffffffffffffffff826103d2565b61041786836103d2565b95508019841693508086168417925050509392505050565b5f819050919050565b5f61045261044d610448846100d2565b61042f565b6100d2565b9050919050565b5f819050919050565b61046b83610438565b61047f61047782610459565b8484546103de565b825550505050565b5f5f905090565b610496610487565b6104a1818484610462565b505050565b5b818110156104c4576104b95f8261048e565b6001810190506104a7565b5050565b601f821115610509576104da816103b1565b6104e3846103c3565b810160208510156104f2578190505b6105066104fe856103c3565b8301826104a6565b50505b505050565b5f82821c905092915050565b5f6105295f198460080261050e565b1980831691505092915050565b5f610541838361051a565b9150826002028217905092915050565b61055a8261034a565b67ffffffffffffffff8111156105735761057261011d565b5b61057d8254610381565b6105888282856104c8565b5f60209050601f8311600181146105b9575f84156105a7578287015190505b6105b18582610536565b865550610618565b601f1984166105c7866103b1565b5f5b828110156105ee578489015182556001820191506020850194506020810190506105c9565b8683101561060b5784890151610607601f89168261051a565b8355505b6001600288020188555050505b505050505050565b611eb18061062d5f395ff3fe608060405260043610610129575f3560e01c806382fde093116100aa5780639ace38c21161006e5780639ace38c2146103bc578063a39fac12146103fa578063c8b342ab14610424578063d57bde7914610460578063d7bb99ba1461048a578063edf26d9b1461049457610129565b806382fde093146102fe57806383920e901461032857806391f9015714610352578063937e09b11461037c578063976af615146103a657610129565b80634e69d560116100f15780634e69d5601461021a57806358d6562914610244578063597e1fb51461026e5780635dc1d641146102985780637b87d856146102d457610129565b80630a1443911461012d5780633197cbb6146101695780633bc5de30146101935780634051ddac146101bd578063481c6a75146101f0575b5f5ffd5b348015610138575f5ffd5b50610153600480360381019061014e91906114a6565b6104d0565b60405161016091906114eb565b60405180910390f35b348015610174575f5ffd5b5061017d6104ed565b60405161018a919061151c565b60405180910390f35b34801561019e575f5ffd5b506101a76104f3565b6040516101b491906115a5565b60405180910390f35b3480156101c8575f5ffd5b506101d1610660565b6040516101e79a9998979695949392919061168b565b60405180910390f35b3480156101fb575f5ffd5b5061020461087b565b604051610211919061173a565b60405180910390f35b348015610225575f5ffd5b5061022e61089f565b60405161023b91906114eb565b60405180910390f35b34801561024f575f5ffd5b506102586108b4565b60405161026591906115a5565b60405180910390f35b348015610279575f5ffd5b50610282610940565b60405161028f91906114eb565b60405180910390f35b3480156102a3575f5ffd5b506102be60048036038101906102b991906114a6565b610952565b6040516102cb919061151c565b60405180910390f35b3480156102df575f5ffd5b506102e8610967565b6040516102f591906115a5565b60405180910390f35b348015610309575f5ffd5b506103126109f3565b60405161031f919061151c565b60405180910390f35b348015610333575f5ffd5b5061033c6109f9565b604051610349919061184a565b60405180910390f35b34801561035d575f5ffd5b50610366610abd565b604051610373919061173a565b60405180910390f35b348015610387575f5ffd5b50610390610ae2565b60405161039d919061151c565b60405180910390f35b3480156103b1575f5ffd5b506103ba610ae8565b005b3480156103c7575f5ffd5b506103e260048036038101906103dd9190611894565b610e92565b6040516103f1939291906118bf565b60405180910390f35b348015610405575f5ffd5b5061040e610ee6565b60405161041b91906118f4565b60405180910390f35b34801561042f575f5ffd5b5061044a600480360381019061044591906114a6565b610f71565b604051610457919061151c565b60405180910390f35b34801561046b575f5ffd5b50610474610fb7565b604051610481919061151c565b60405180910390f35b610492610fbd565b005b34801561049f575f5ffd5b506104ba60048036038101906104b59190611894565b61140d565b6040516104c7919061173a565b60405180910390f35b6004602052805f5260405f205f915054906101000a900460ff1681565b600b5481565b6060600c5f9054906101000a900460ff16610543576040517f08c379a000000000000000000000000000000000000000000000000000000000815260040161053a9061195e565b60405180910390fd5b60095f9054906101000a900473ffffffffffffffffffffffffffffffffffffffff1673ffffffffffffffffffffffffffffffffffffffff163373ffffffffffffffffffffffffffffffffffffffff16146105d2576040517f08c379a00000000000000000000000000000000000000000000000000000000081526004016105c9906119c6565b60405180910390fd5b600280546105df90611a11565b80601f016020809104026020016040519081016040528092919081815260200182805461060b90611a11565b80156106565780601f1061062d57610100808354040283529160200191610656565b820191905f5260205f20905b81548152906001019060200180831161063957829003601f168201915b5050505050905090565b5f5f5f5f5f6060805f60605f600154476006545f5f9054906101000a900473ffffffffffffffffffffffffffffffffffffffff16600a546002600360095f9054906101000a900473ffffffffffffffffffffffffffffffffffffffff166007600b548480546106ce90611a11565b80601f01602080910402602001604051908101604052809291908181526020018280546106fa90611a11565b80156107455780601f1061071c57610100808354040283529160200191610745565b820191905f5260205f20905b81548152906001019060200180831161072857829003601f168201915b5050505050945083805461075890611a11565b80601f016020809104026020016040519081016040528092919081815260200182805461078490611a11565b80156107cf5780601f106107a6576101008083540402835291602001916107cf565b820191905f5260205f20905b8154815290600101906020018083116107b257829003601f168201915b505050505093508180548060200260200160405190810160405280929190818152602001828054801561085457602002820191905f5260205f20905b815f9054906101000a900473ffffffffffffffffffffffffffffffffffffffff1673ffffffffffffffffffffffffffffffffffffffff168152602001906001019080831161080b575b50505050509150995099509950995099509950995099509950995090919293949596979899565b5f5f9054906101000a900473ffffffffffffffffffffffffffffffffffffffff1681565b5f600c5f9054906101000a900460ff16905090565b600380546108c190611a11565b80601f01602080910402602001604051908101604052809291908181526020018280546108ed90611a11565b80156109385780601f1061090f57610100808354040283529160200191610938565b820191905f5260205f20905b81548152906001019060200180831161091b57829003601f168201915b505050505081565b600c5f9054906101000a900460ff1681565b6005602052805f5260405f205f915090505481565b6002805461097490611a11565b80601f01602080910402602001604051908101604052809291908181526020018280546109a090611a11565b80156109eb5780601f106109c2576101008083540402835291602001916109eb565b820191905f5260205f20905b8154815290600101906020018083116109ce57829003601f168201915b505050505081565b60065481565b60606008805480602002602001604051908101604052809291908181526020015f905b82821015610ab4578382905f5260205f2090600302016040518060600160405290815f820154815260200160018201548152602001600282015f9054906101000a900473ffffffffffffffffffffffffffffffffffffffff1673ffffffffffffffffffffffffffffffffffffffff1673ffffffffffffffffffffffffffffffffffffffff168152505081526020019060010190610a1c565b50505050905090565b60095f9054906101000a900473ffffffffffffffffffffffffffffffffffffffff1681565b60015481565b600b54421015610b2d576040517f08c379a0000000000000000000000000000000000000000000000000000000008152600401610b2490611a8b565b60405180910390fd5b600c5f9054906101000a900460ff1615610b7c576040517f08c379a0000000000000000000000000000000000000000000000000000000008152600401610b7390611af3565b60405180910390fd5b5f5f90505b600780549050811015610d4f575f60078281548110610ba357610ba2611b11565b5b905f5260205f20015f9054906101000a900473ffffffffffffffffffffffffffffffffffffffff16905060095f9054906101000a900473ffffffffffffffffffffffffffffffffffffffff1673ffffffffffffffffffffffffffffffffffffffff168173ffffffffffffffffffffffffffffffffffffffff1614610d41575f60055f8373ffffffffffffffffffffffffffffffffffffffff1673ffffffffffffffffffffffffffffffffffffffff1681526020019081526020015f205490505f811115610d3f575f60055f8473ffffffffffffffffffffffffffffffffffffffff1673ffffffffffffffffffffffffffffffffffffffff1681526020019081526020015f20819055508173ffffffffffffffffffffffffffffffffffffffff166108fc8290811502906040515f60405180830381858888f19350505050158015610cef573d5f5f3e3d5ffd5b508173ffffffffffffffffffffffffffffffffffffffff167f3367befd2b2f39615cd79917c2153263c4af1d3945ec003e5d5bfc13a8d8583382604051610d36919061151c565b60405180910390a25b505b508080600101915050610b81565b505f600a541115610e7657600a54471015610d9f576040517f08c379a0000000000000000000000000000000000000000000000000000000008152600401610d9690611b88565b60405180910390fd5b5f5f9054906101000a900473ffffffffffffffffffffffffffffffffffffffff1673ffffffffffffffffffffffffffffffffffffffff166108fc600a5490811502906040515f60405180830381858888f19350505050158015610e04573d5f5f3e3d5ffd5b505f5f9054906101000a900473ffffffffffffffffffffffffffffffffffffffff1673ffffffffffffffffffffffffffffffffffffffff167fcb4a9094da4df77fb2c0dbaa5047660b1237e61d82a02176c1be74ca757f2531600a54604051610e6d919061151c565b60405180910390a25b6001600c5f6101000a81548160ff021916908315150217905550565b60088181548110610ea1575f80fd5b905f5260205f2090600302015f91509050805f015490806001015490806002015f9054906101000a900473ffffffffffffffffffffffffffffffffffffffff16905083565b60606007805480602002602001604051908101604052809291908181526020018280548015610f6757602002820191905f5260205f20905b815f9054906101000a900473ffffffffffffffffffffffffffffffffffffffff1673ffffffffffffffffffffffffffffffffffffffff1681526020019060010190808311610f1e575b5050505050905090565b5f60055f8373ffffffffffffffffffffffffffffffffffffffff1673ffffffffffffffffffffffffffffffffffffffff1681526020019081526020015f20549050919050565b600a5481565b600b544210611001576040517f08c379a0000000000000000000000000000000000000000000000000000000008152600401610ff890611bf0565b60405180910390fd5b5f5f9054906101000a900473ffffffffffffffffffffffffffffffffffffffff1673ffffffffffffffffffffffffffffffffffffffff163373ffffffffffffffffffffffffffffffffffffffff160361108f576040517f08c379a000000000000000000000000000000000000000000000000000000000815260040161108690611c7e565b60405180910390fd5b5f34116110d1576040517f08c379a00000000000000000000000000000000000000000000000000000000081526004016110c890611ce6565b60405180910390fd5b5f60055f3373ffffffffffffffffffffffffffffffffffffffff1673ffffffffffffffffffffffffffffffffffffffff1681526020019081526020015f205490505f348261111f9190611d31565b90505f820361116e5760015481101561116d576040517f08c379a000000000000000000000000000000000000000000000000000000000815260040161116490611dae565b60405180910390fd5b5b600a5481116111b2576040517f08c379a00000000000000000000000000000000000000000000000000000000081526004016111a990611e16565b60405180910390fd5b8060055f3373ffffffffffffffffffffffffffffffffffffffff1673ffffffffffffffffffffffffffffffffffffffff1681526020019081526020015f208190555080600a819055503360095f6101000a81548173ffffffffffffffffffffffffffffffffffffffff021916908373ffffffffffffffffffffffffffffffffffffffff160217905550600860405180606001604052803481526020014281526020013373ffffffffffffffffffffffffffffffffffffffff16815250908060018154018082558091505060019003905f5260205f2090600302015f909190919091505f820151815f0155602082015181600101556040820151816002015f6101000a81548173ffffffffffffffffffffffffffffffffffffffff021916908373ffffffffffffffffffffffffffffffffffffffff160217905550505060045f3373ffffffffffffffffffffffffffffffffffffffff1673ffffffffffffffffffffffffffffffffffffffff1681526020019081526020015f205f9054906101000a900460ff1661140957600160045f3373ffffffffffffffffffffffffffffffffffffffff1673ffffffffffffffffffffffffffffffffffffffff1681526020019081526020015f205f6101000a81548160ff02191690831515021790555060065f8154809291906113a390611e34565b9190505550600733908060018154018082558091505060019003905f5260205f20015f9091909190916101000a81548173ffffffffffffffffffffffffffffffffffffffff021916908373ffffffffffffffffffffffffffffffffffffffff1602179055505b5050565b6007818154811061141c575f80fd5b905f5260205f20015f915054906101000a900473ffffffffffffffffffffffffffffffffffffffff1681565b5f5ffd5b5f73ffffffffffffffffffffffffffffffffffffffff82169050919050565b5f6114758261144c565b9050919050565b6114858161146b565b811461148f575f5ffd5b50565b5f813590506114a08161147c565b92915050565b5f602082840312156114bb576114ba611448565b5b5f6114c884828501611492565b91505092915050565b5f8115159050919050565b6114e5816114d1565b82525050565b5f6020820190506114fe5f8301846114dc565b92915050565b5f819050919050565b61151681611504565b82525050565b5f60208201905061152f5f83018461150d565b92915050565b5f81519050919050565b5f82825260208201905092915050565b8281835e5f83830152505050565b5f601f19601f8301169050919050565b5f61157782611535565b611581818561153f565b935061159181856020860161154f565b61159a8161155d565b840191505092915050565b5f6020820190508181035f8301526115bd818461156d565b905092915050565b6115ce8161146b565b82525050565b5f81519050919050565b5f82825260208201905092915050565b5f819050602082019050919050565b6116068161146b565b82525050565b5f61161783836115fd565b60208301905092915050565b5f602082019050919050565b5f611639826115d4565b61164381856115de565b935061164e836115ee565b805f5b8381101561167e578151611665888261160c565b975061167083611623565b925050600181019050611651565b5085935050505092915050565b5f6101408201905061169f5f83018d61150d565b6116ac602083018c61150d565b6116b9604083018b61150d565b6116c6606083018a6115c5565b6116d3608083018961150d565b81810360a08301526116e5818861156d565b905081810360c08301526116f9818761156d565b905061170860e08301866115c5565b81810361010083015261171b818561162f565b905061172b61012083018461150d565b9b9a5050505050505050505050565b5f60208201905061174d5f8301846115c5565b92915050565b5f81519050919050565b5f82825260208201905092915050565b5f819050602082019050919050565b61178581611504565b82525050565b606082015f82015161179f5f85018261177c565b5060208201516117b2602085018261177c565b5060408201516117c560408501826115fd565b50505050565b5f6117d6838361178b565b60608301905092915050565b5f602082019050919050565b5f6117f882611753565b611802818561175d565b935061180d8361176d565b805f5b8381101561183d57815161182488826117cb565b975061182f836117e2565b925050600181019050611810565b5085935050505092915050565b5f6020820190508181035f83015261186281846117ee565b905092915050565b61187381611504565b811461187d575f5ffd5b50565b5f8135905061188e8161186a565b92915050565b5f602082840312156118a9576118a8611448565b5b5f6118b684828501611880565b91505092915050565b5f6060820190506118d25f83018661150d565b6118df602083018561150d565b6118ec60408301846115c5565b949350505050565b5f6020820190508181035f83015261190c818461162f565b905092915050565b7f41756374696f6e206e6f742066696e616c697a656400000000000000000000005f82015250565b5f61194860158361153f565b915061195382611914565b602082019050919050565b5f6020820190508181035f8301526119758161193c565b9050919050565b7f4f6e6c792077696e6e65722063616e20616363657373207468652064617461005f82015250565b5f6119b0601f8361153f565b91506119bb8261197c565b602082019050919050565b5f6020820190508181035f8301526119dd816119a4565b9050919050565b7f4e487b71000000000000000000000000000000000000000000000000000000005f52602260045260245ffd5b5f6002820490506001821680611a2857607f821691505b602082108103611a3b57611a3a6119e4565b5b50919050565b7f41756374696f6e206e6f7420656e6465642079657400000000000000000000005f82015250565b5f611a7560158361153f565b9150611a8082611a41565b602082019050919050565b5f6020820190508181035f830152611aa281611a69565b9050919050565b7f41756374696f6e20616c72656164792066696e616c697a6564000000000000005f82015250565b5f611add60198361153f565b9150611ae882611aa9565b602082019050919050565b5f6020820190508181035f830152611b0a81611ad1565b9050919050565b7f4e487b71000000000000000000000000000000000000000000000000000000005f52603260045260245ffd5b7f496e73756666696369656e742062616c616e63650000000000000000000000005f82015250565b5f611b7260148361153f565b9150611b7d82611b3e565b602082019050919050565b5f6020820190508181035f830152611b9f81611b66565b9050919050565b7f41756374696f6e20656e646564000000000000000000000000000000000000005f82015250565b5f611bda600d8361153f565b9150611be582611ba6565b602082019050919050565b5f6020820190508181035f830152611c0781611bce565b9050919050565b7f596f752063616e277420626964206f6e20796f7572206f776e2061756374696f5f8201527f6e00000000000000000000000000000000000000000000000000000000000000602082015250565b5f611c6860218361153f565b9150611c7382611c0e565b604082019050919050565b5f6020820190508181035f830152611c9581611c5c565b9050919050565b7f4d7573742073656e6420736f6d652065746865720000000000000000000000005f82015250565b5f611cd060148361153f565b9150611cdb82611c9c565b602082019050919050565b5f6020820190508181035f830152611cfd81611cc4565b9050919050565b7f4e487b71000000000000000000000000000000000000000000000000000000005f52601160045260245ffd5b5f611d3b82611504565b9150611d4683611504565b9250828201905080821115611d5e57611d5d611d04565b5b92915050565b7f42656c6f77206d696e696d756d206269640000000000000000000000000000005f82015250565b5f611d9860118361153f565b9150611da382611d64565b602082019050919050565b5f6020820190508181035f830152611dc581611d8c565b9050919050565b7f426964206d757374206578636565642063757272656e742068696768657374005f82015250565b5f611e00601f8361153f565b9150611e0b82611dcc565b602082019050919050565b5f6020820190508181035f830152611e2d81611df4565b9050919050565b5f611e3e82611504565b91507fffffffffffffffffffffffffffffffffffffffffffffffffffffffffffffffff8203611e7057611e6f611d04565b5b60018201905091905056fea264697066735822122029032ca0de05dbce2e4e3aa1d272ea7060cd469d1c9375a7a2587aa855d9bc8d64736f6c634300081e0033","opcodes":"PUSH1 0x80 PUSH1 0x40 MSTORE CALLVALUE DUP1 ISZERO PUSH2 0xF JUMPI PUSH0 PUSH0 REVERT JUMPDEST POP PUSH1 0x40 MLOAD PUSH2 0x24DE CODESIZE SUB DUP1 PUSH2 0x24DE DUP4 CODECOPY DUP2 DUP2 ADD PUSH1 0x40 MSTORE DUP2 ADD SWAP1 PUSH2 0x31 SWAP2 SWAP1 PUSH2 0x29B JUMP JUMPDEST DUP2 PUSH0 PUSH0 PUSH2 0x100 EXP DUP2 SLOAD DUP2 PUSH20 0xFFFFFFFFFFFFFFFFFFFFFFFFFFFFFFFFFFFFFFFF MUL NOT AND SWAP1 DUP4 PUSH20 0xFFFFFFFFFFFFFFFFFFFFFFFFFFFFFFFFFFFFFFFF AND MUL OR SWAP1 SSTORE POP DUP5 PUSH1 0x1 DUP2 SWAP1 SSTORE POP DUP4 PUSH1 0x2 SWAP1 DUP2 PUSH2 0x86 SWAP2 SWAP1 PUSH2 0x551 JUMP JUMPDEST POP DUP3 PUSH1 0x3 SWAP1 DUP2 PUSH2 0x96 SWAP2 SWAP1 PUSH2 0x551 JUMP JUMPDEST POP DUP1 PUSH1 0xB DUP2 SWAP1 SSTORE POP PUSH0 PUSH1 0xC PUSH0 PUSH2 0x100 EXP DUP2 SLOAD DUP2 PUSH1 0xFF MUL NOT AND SWAP1 DUP4 ISZERO ISZERO MUL OR SWAP1 SSTORE POP POP POP POP POP POP PUSH2 0x620 JUMP JUMPDEST PUSH0 PUSH1 0x40 MLOAD SWAP1 POP SWAP1 JUMP JUMPDEST PUSH0 PUSH0 REVERT JUMPDEST PUSH0 PUSH0 REVERT JUMPDEST PUSH0 DUP2 SWAP1 POP SWAP2 SWAP1 POP JUMP JUMPDEST PUSH2 0xE4 DUP2 PUSH2 0xD2 JUMP JUMPDEST DUP2 EQ PUSH2 0xEE JUMPI PUSH0 PUSH0 REVERT JUMPDEST POP JUMP JUMPDEST PUSH0 DUP2 MLOAD SWAP1 POP PUSH2 0xFF DUP2 PUSH2 0xDB JUMP JUMPDEST SWAP3 SWAP2 POP POP JUMP JUMPDEST PUSH0 PUSH0 REVERT JUMPDEST PUSH0 PUSH0 REVERT JUMPDEST PUSH0 PUSH1 0x1F NOT PUSH1 0x1F DUP4 ADD AND SWAP1 POP SWAP2 SWAP1 POP JUMP JUMPDEST PUSH32 0x4E487B7100000000000000000000000000000000000000000000000000000000 PUSH0 MSTORE PUSH1 0x41 PUSH1 0x4 MSTORE PUSH1 0x24 PUSH0 REVERT JUMPDEST PUSH2 0x153 DUP3 PUSH2 0x10D JUMP JUMPDEST DUP2 ADD DUP2 DUP2 LT PUSH8 0xFFFFFFFFFFFFFFFF DUP3 GT OR ISZERO PUSH2 0x172 JUMPI PUSH2 0x171 PUSH2 0x11D JUMP JUMPDEST JUMPDEST DUP1 PUSH1 0x40 MSTORE POP POP POP JUMP JUMPDEST PUSH0 PUSH2 0x184 PUSH2 0xC1 JUMP JUMPDEST SWAP1 POP PUSH2 0x190 DUP3 DUP3 PUSH2 0x14A JUMP JUMPDEST SWAP2 SWAP1 POP JUMP JUMPDEST PUSH0 PUSH8 0xFFFFFFFFFFFFFFFF DUP3 GT ISZERO PUSH2 0x1AF JUMPI PUSH2 0x1AE PUSH2 0x11D JUMP JUMPDEST JUMPDEST PUSH2 0x1B8 DUP3 PUSH2 0x10D JUMP JUMPDEST SWAP1 POP PUSH1 0x20 DUP2 ADD SWAP1 POP SWAP2 SWAP1 POP JUMP JUMPDEST DUP3 DUP2 DUP4 MCOPY PUSH0 DUP4 DUP4 ADD MSTORE POP POP POP JUMP JUMPDEST PUSH0 PUSH2 0x1E5 PUSH2 0x1E0 DUP5 PUSH2 0x195 JUMP JUMPDEST PUSH2 0x17B JUMP JUMPDEST SWAP1 POP DUP3 DUP2 MSTORE PUSH1 0x20 DUP2 ADD DUP5 DUP5 DUP5 ADD GT ISZERO PUSH2 0x201 JUMPI PUSH2 0x200 PUSH2 0x109 JUMP JUMPDEST JUMPDEST PUSH2 0x20C DUP5 DUP3 DUP6 PUSH2 0x1C5 JUMP JUMPDEST POP SWAP4 SWAP3 POP POP POP JUMP JUMPDEST PUSH0 DUP3 PUSH1 0x1F DUP4 ADD SLT PUSH2 0x228 JUMPI PUSH2 0x227 PUSH2 0x105 JUMP JUMPDEST JUMPDEST DUP2 MLOAD PUSH2 0x238 DUP5 DUP3 PUSH1 0x20 DUP7 ADD PUSH2 0x1D3 JUMP JUMPDEST SWAP2 POP POP SWAP3 SWAP2 POP POP JUMP JUMPDEST PUSH0 PUSH20 0xFFFFFFFFFFFFFFFFFFFFFFFFFFFFFFFFFFFFFFFF DUP3 AND SWAP1 POP SWAP2 SWAP1 POP JUMP JUMPDEST PUSH0 PUSH2 0x26A DUP3 PUSH2 0x241 JUMP JUMPDEST SWAP1 POP SWAP2 SWAP1 POP JUMP JUMPDEST PUSH2 0x27A DUP2 PUSH2 0x260 JUMP JUMPDEST DUP2 EQ PUSH2 0x284 JUMPI PUSH0 PUSH0 REVERT JUMPDEST POP JUMP JUMPDEST PUSH0 DUP2 MLOAD SWAP1 POP PUSH2 0x295 DUP2 PUSH2 0x271 JUMP JUMPDEST SWAP3 SWAP2 POP POP JUMP JUMPDEST PUSH0 PUSH0 PUSH0 PUSH0 PUSH0 PUSH1 0xA0 DUP7 DUP9 SUB SLT ISZERO PUSH2 0x2B4 JUMPI PUSH2 0x2B3 PUSH2 0xCA JUMP JUMPDEST JUMPDEST PUSH0 PUSH2 0x2C1 DUP9 DUP3 DUP10 ADD PUSH2 0xF1 JUMP JUMPDEST SWAP6 POP POP PUSH1 0x20 DUP7 ADD MLOAD PUSH8 0xFFFFFFFFFFFFFFFF DUP2 GT ISZERO PUSH2 0x2E2 JUMPI PUSH2 0x2E1 PUSH2 0xCE JUMP JUMPDEST JUMPDEST PUSH2 0x2EE DUP9 DUP3 DUP10 ADD PUSH2 0x214 JUMP JUMPDEST SWAP5 POP POP PUSH1 0x40 DUP7 ADD MLOAD PUSH8 0xFFFFFFFFFFFFFFFF DUP2 GT ISZERO PUSH2 0x30F JUMPI PUSH2 0x30E PUSH2 0xCE JUMP JUMPDEST JUMPDEST PUSH2 0x31B DUP9 DUP3 DUP10 ADD PUSH2 0x214 JUMP JUMPDEST SWAP4 POP POP PUSH1 0x60 PUSH2 0x32C DUP9 DUP3 DUP10 ADD PUSH2 0x287 JUMP JUMPDEST SWAP3 POP POP PUSH1 0x80 PUSH2 0x33D DUP9 DUP3 DUP10 ADD PUSH2 0xF1 JUMP JUMPDEST SWAP2 POP POP SWAP3 SWAP6 POP SWAP3 SWAP6 SWAP1 SWAP4 POP JUMP JUMPDEST PUSH0 DUP2 MLOAD SWAP1 POP SWAP2 SWAP1 POP JUMP JUMPDEST PUSH32 0x4E487B7100000000000000000000000000000000000000000000000000000000 PUSH0 MSTORE PUSH1 0x22 PUSH1 0x4 MSTORE PUSH1 0x24 PUSH0 REVERT JUMPDEST PUSH0 PUSH1 0x2 DUP3 DIV SWAP1 POP PUSH1 0x1 DUP3 AND DUP1 PUSH2 0x398 JUMPI PUSH1 0x7F DUP3 AND SWAP2 POP JUMPDEST PUSH1 0x20 DUP3 LT DUP2 SUB PUSH2 0x3AB JUMPI PUSH2 0x3AA PUSH2 0x354 JUMP JUMPDEST JUMPDEST POP SWAP2 SWAP1 POP JUMP JUMPDEST PUSH0 DUP2 SWAP1 POP DUP2 PUSH0 MSTORE PUSH1 0x20 PUSH0 KECCAK256 SWAP1 POP SWAP2 SWAP1 POP JUMP JUMPDEST PUSH0 PUSH1 0x20 PUSH1 0x1F DUP4 ADD DIV SWAP1 POP SWAP2 SWAP1 POP JUMP JUMPDEST PUSH0 DUP3 DUP3 SHL SWAP1 POP SWAP3 SWAP2 POP POP JUMP JUMPDEST PUSH0 PUSH1 0x8 DUP4 MUL PUSH2 0x40D PUSH32 0xFFFFFFFFFFFFFFFFFFFFFFFFFFFFFFFFFFFFFFFFFFFFFFFFFFFFFFFFFFFFFFFF DUP3 PUSH2 0x3D2 JUMP JUMPDEST PUSH2 0x417 DUP7 DUP4 PUSH2 0x3D2 JUMP JUMPDEST SWAP6 POP DUP1 NOT DUP5 AND SWAP4 POP DUP1 DUP7 AND DUP5 OR SWAP3 POP POP POP SWAP4 SWAP3 POP POP POP JUMP JUMPDEST PUSH0 DUP2 SWAP1 POP SWAP2 SWAP1 POP JUMP JUMPDEST PUSH0 PUSH2 0x452 PUSH2 0x44D PUSH2 0x448 DUP5 PUSH2 0xD2 JUMP JUMPDEST PUSH2 0x42F JUMP JUMPDEST PUSH2 0xD2 JUMP JUMPDEST SWAP1 POP SWAP2 SWAP1 POP JUMP JUMPDEST PUSH0 DUP2 SWAP1 POP SWAP2 SWAP1 POP JUMP JUMPDEST PUSH2 0x46B DUP4 PUSH2 0x438 JUMP JUMPDEST PUSH2 0x47F PUSH2 0x477 DUP3 PUSH2 0x459 JUMP JUMPDEST DUP5 DUP5 SLOAD PUSH2 0x3DE JUMP JUMPDEST DUP3 SSTORE POP POP POP POP JUMP JUMPDEST PUSH0 PUSH0 SWAP1 POP SWAP1 JUMP JUMPDEST PUSH2 0x496 PUSH2 0x487 JUMP JUMPDEST PUSH2 0x4A1 DUP2 DUP5 DUP5 PUSH2 0x462 JUMP JUMPDEST POP POP POP JUMP JUMPDEST JUMPDEST DUP2 DUP2 LT ISZERO PUSH2 0x4C4 JUMPI PUSH2 0x4B9 PUSH0 DUP3 PUSH2 0x48E JUMP JUMPDEST PUSH1 0x1 DUP2 ADD SWAP1 POP PUSH2 0x4A7 JUMP JUMPDEST POP POP JUMP JUMPDEST PUSH1 0x1F DUP3 GT ISZERO PUSH2 0x509 JUMPI PUSH2 0x4DA DUP2 PUSH2 0x3B1 JUMP JUMPDEST PUSH2 0x4E3 DUP5 PUSH2 0x3C3 JUMP JUMPDEST DUP2 ADD PUSH1 0x20 DUP6 LT ISZERO PUSH2 0x4F2 JUMPI DUP2 SWAP1 POP JUMPDEST PUSH2 0x506 PUSH2 0x4FE DUP6 PUSH2 0x3C3 JUMP JUMPDEST DUP4 ADD DUP3 PUSH2 0x4A6 JUMP JUMPDEST POP POP JUMPDEST POP POP POP JUMP JUMPDEST PUSH0 DUP3 DUP3 SHR SWAP1 POP SWAP3 SWAP2 POP POP JUMP JUMPDEST PUSH0 PUSH2 0x529 PUSH0 NOT DUP5 PUSH1 0x8 MUL PUSH2 0x50E JUMP JUMPDEST NOT DUP1 DUP4 AND SWAP2 POP POP SWAP3 SWAP2 POP POP JUMP JUMPDEST PUSH0 PUSH2 0x541 DUP4 DUP4 PUSH2 0x51A JUMP JUMPDEST SWAP2 POP DUP3 PUSH1 0x2 MUL DUP3 OR SWAP1 POP SWAP3 SWAP2 POP POP JUMP JUMPDEST PUSH2 0x55A DUP3 PUSH2 0x34A JUMP JUMPDEST PUSH8 0xFFFFFFFFFFFFFFFF DUP2 GT ISZERO PUSH2 0x573 JUMPI PUSH2 0x572 PUSH2 0x11D JUMP JUMPDEST JUMPDEST PUSH2 0x57D DUP3 SLOAD PUSH2 0x381 JUMP JUMPDEST PUSH2 0x588 DUP3 DUP3 DUP6 PUSH2 0x4C8 JUMP JUMPDEST PUSH0 PUSH1 0x20 SWAP1 POP PUSH1 0x1F DUP4 GT PUSH1 0x1 DUP2 EQ PUSH2 0x5B9 JUMPI PUSH0 DUP5 ISZERO PUSH2 0x5A7 JUMPI DUP3 DUP8 ADD MLOAD SWAP1 POP JUMPDEST PUSH2 0x5B1 DUP6 DUP3 PUSH2 0x536 JUMP JUMPDEST DUP7 SSTORE POP PUSH2 0x618 JUMP JUMPDEST PUSH1 0x1F NOT DUP5 AND PUSH2 0x5C7 DUP7 PUSH2 0x3B1 JUMP JUMPDEST PUSH0 JUMPDEST DUP3 DUP2 LT ISZERO PUSH2 0x5EE JUMPI DUP5 DUP10 ADD MLOAD DUP3 SSTORE PUSH1 0x1 DUP3 ADD SWAP2 POP PUSH1 0x20 DUP6 ADD SWAP5 POP PUSH1 0x20 DUP2 ADD SWAP1 POP PUSH2 0x5C9 JUMP JUMPDEST DUP7 DUP4 LT ISZERO PUSH2 0x60B JUMPI DUP5 DUP10 ADD MLOAD PUSH2 0x607 PUSH1 0x1F DUP10 AND DUP3 PUSH2 0x51A JUMP JUMPDEST DUP4 SSTORE POP JUMPDEST PUSH1 0x1 PUSH1 0x2 DUP9 MUL ADD DUP9 SSTORE POP POP POP JUMPDEST POP POP POP POP POP POP JUMP JUMPDEST PUSH2 0x1EB1 DUP1 PUSH2 0x62D PUSH0 CODECOPY PUSH0 RETURN INVALID PUSH1 0x80 PUSH1 0x40 MSTORE PUSH1 0x4 CALLDATASIZE LT PUSH2 0x129 JUMPI PUSH0 CALLDATALOAD PUSH1 0xE0 SHR DUP1 PUSH4 0x82FDE093 GT PUSH2 0xAA JUMPI DUP1 PUSH4 0x9ACE38C2 GT PUSH2 0x6E JUMPI DUP1 PUSH4 0x9ACE38C2 EQ PUSH2 0x3BC JUMPI DUP1 PUSH4 0xA39FAC12 EQ PUSH2 0x3FA JUMPI DUP1 PUSH4 0xC8B342AB EQ PUSH2 0x424 JUMPI DUP1 PUSH4 0xD57BDE79 EQ PUSH2 0x460 JUMPI DUP1 PUSH4 0xD7BB99BA EQ PUSH2 0x48A JUMPI DUP1 PUSH4 0xEDF26D9B EQ PUSH2 0x494 JUMPI PUSH2 0x129 JUMP JUMPDEST DUP1 PUSH4 0x82FDE093 EQ PUSH2 0x2FE JUMPI DUP1 PUSH4 0x83920E90 EQ PUSH2 0x328 JUMPI DUP1 PUSH4 0x91F90157 EQ PUSH2 0x352 JUMPI DUP1 PUSH4 0x937E09B1 EQ PUSH2 0x37C JUMPI DUP1 PUSH4 0x976AF615 EQ PUSH2 0x3A6 JUMPI PUSH2 0x129 JUMP JUMPDEST DUP1 PUSH4 0x4E69D560 GT PUSH2 0xF1 JUMPI DUP1 PUSH4 0x4E69D560 EQ PUSH2 0x21A JUMPI DUP1 PUSH4 0x58D65629 EQ PUSH2 0x244 JUMPI DUP1 PUSH4 0x597E1FB5 EQ PUSH2 0x26E JUMPI DUP1 PUSH4 0x5DC1D641 EQ PUSH2 0x298 JUMPI DUP1 PUSH4 0x7B87D856 EQ PUSH2 0x2D4 JUMPI PUSH2 0x129 JUMP JUMPDEST DUP1 PUSH4 0xA144391 EQ PUSH2 0x12D JUMPI DUP1 PUSH4 0x3197CBB6 EQ PUSH2 0x169 JUMPI DUP1 PUSH4 0x3BC5DE30 EQ PUSH2 0x193 JUMPI DUP1 PUSH4 0x4051DDAC EQ PUSH2 0x1BD JUMPI DUP1 PUSH4 0x481C6A75 EQ PUSH2 0x1F0 JUMPI JUMPDEST PUSH0 PUSH0 REVERT JUMPDEST CALLVALUE DUP1 ISZERO PUSH2 0x138 JUMPI PUSH0 PUSH0 REVERT JUMPDEST POP PUSH2 0x153 PUSH1 0x4 DUP1 CALLDATASIZE SUB DUP2 ADD SWAP1 PUSH2 0x14E SWAP2 SWAP1 PUSH2 0x14A6 JUMP JUMPDEST PUSH2 0x4D0 JUMP JUMPDEST PUSH1 0x40 MLOAD PUSH2 0x160 SWAP2 SWAP1 PUSH2 0x14EB JUMP JUMPDEST PUSH1 0x40 MLOAD DUP1 SWAP2 SUB SWAP1 RETURN JUMPDEST CALLVALUE DUP1 ISZERO PUSH2 0x174 JUMPI PUSH0 PUSH0 REVERT JUMPDEST POP PUSH2 0x17D PUSH2 0x4ED JUMP JUMPDEST PUSH1 0x40 MLOAD PUSH2 0x18A SWAP2 SWAP1 PUSH2 0x151C JUMP JUMPDEST PUSH1 0x40 MLOAD DUP1 SWAP2 SUB SWAP1 RETURN JUMPDEST CALLVALUE DUP1 ISZERO PUSH2 0x19E JUMPI PUSH0 PUSH0 REVERT JUMPDEST POP PUSH2 0x1A7 PUSH2 0x4F3 JUMP JUMPDEST PUSH1 0x40 MLOAD PUSH2 0x1B4 SWAP2 SWAP1 PUSH2 0x15A5 JUMP JUMPDEST PUSH1 0x40 MLOAD DUP1 SWAP2 SUB SWAP1 RETURN JUMPDEST CALLVALUE DUP1 ISZERO PUSH2 0x1C8 JUMPI PUSH0 PUSH0 REVERT JUMPDEST POP PUSH2 0x1D1 PUSH2 0x660 JUMP JUMPDEST PUSH1 0x40 MLOAD PUSH2 0x1E7 SWAP11 SWAP10 SWAP9 SWAP8 SWAP7 SWAP6 SWAP5 SWAP4 SWAP3 SWAP2 SWAP1 PUSH2 0x168B JUMP JUMPDEST PUSH1 0x40 MLOAD DUP1 SWAP2 SUB SWAP1 RETURN JUMPDEST CALLVALUE DUP1 ISZERO PUSH2 0x1FB JUMPI PUSH0 PUSH0 REVERT JUMPDEST POP PUSH2 0x204 PUSH2 0x87B JUMP JUMPDEST PUSH1 0x40 MLOAD PUSH2 0x211 SWAP2 SWAP1 PUSH2 0x173A JUMP JUMPDEST PUSH1 0x40 MLOAD DUP1 SWAP2 SUB SWAP1 RETURN JUMPDEST CALLVALUE DUP1 ISZERO PUSH2 0x225 JUMPI PUSH0 PUSH0 REVERT JUMPDEST POP PUSH2 0x22E PUSH2 0x89F JUMP JUMPDEST PUSH1 0x40 MLOAD PUSH2 0x23B SWAP2 SWAP1 PUSH2 0x14EB JUMP JUMPDEST PUSH1 0x40 MLOAD DUP1 SWAP2 SUB SWAP1 RETURN JUMPDEST CALLVALUE DUP1 ISZERO PUSH2 0x24F JUMPI PUSH0 PUSH0 REVERT JUMPDEST POP PUSH2 0x258 PUSH2 0x8B4 JUMP JUMPDEST PUSH1 0x40 MLOAD PUSH2 0x265 SWAP2 SWAP1 PUSH2 0x15A5 JUMP JUMPDEST PUSH1 0x40 MLOAD DUP1 SWAP2 SUB SWAP1 RETURN JUMPDEST CALLVALUE DUP1 ISZERO PUSH2 0x279 JUMPI PUSH0 PUSH0 REVERT JUMPDEST POP PUSH2 0x282 PUSH2 0x940 JUMP JUMPDEST PUSH1 0x40 MLOAD PUSH2 0x28F SWAP2 SWAP1 PUSH2 0x14EB JUMP JUMPDEST PUSH1 0x40 MLOAD DUP1 SWAP2 SUB SWAP1 RETURN JUMPDEST CALLVALUE DUP1 ISZERO PUSH2 0x2A3 JUMPI PUSH0 PUSH0 REVERT JUMPDEST POP PUSH2 0x2BE PUSH1 0x4 DUP1 CALLDATASIZE SUB DUP2 ADD SWAP1 PUSH2 0x2B9 SWAP2 SWAP1 PUSH2 0x14A6 JUMP JUMPDEST PUSH2 0x952 JUMP JUMPDEST PUSH1 0x40 MLOAD PUSH2 0x2CB SWAP2 SWAP1 PUSH2 0x151C JUMP JUMPDEST PUSH1 0x40 MLOAD DUP1 SWAP2 SUB SWAP1 RETURN JUMPDEST CALLVALUE DUP1 ISZERO PUSH2 0x2DF JUMPI PUSH0 PUSH0 REVERT JUMPDEST POP PUSH2 0x2E8 PUSH2 0x967 JUMP JUMPDEST PUSH1 0x40 MLOAD PUSH2 0x2F5 SWAP2 SWAP1 PUSH2 0x15A5 JUMP JUMPDEST PUSH1 0x40 MLOAD DUP1 SWAP2 SUB SWAP1 RETURN JUMPDEST CALLVALUE DUP1 ISZERO PUSH2 0x309 JUMPI PUSH0 PUSH0 REVERT JUMPDEST POP PUSH2 0x312 PUSH2 0x9F3 JUMP JUMPDEST PUSH1 0x40 MLOAD PUSH2 0x31F SWAP2 SWAP1 PUSH2 0x151C JUMP JUMPDEST PUSH1 0x40 MLOAD DUP1 SWAP2 SUB SWAP1 RETURN JUMPDEST CALLVALUE DUP1 ISZERO PUSH2 0x333 JUMPI PUSH0 PUSH0 REVERT JUMPDEST POP PUSH2 0x33C PUSH2 0x9F9 JUMP JUMPDEST PUSH1 0x40 MLOAD PUSH2 0x349 SWAP2 SWAP1 PUSH2 0x184A JUMP JUMPDEST PUSH1 0x40 MLOAD DUP1 SWAP2 SUB SWAP1 RETURN JUMPDEST CALLVALUE DUP1 ISZERO PUSH2 0x35D JUMPI PUSH0 PUSH0 REVERT JUMPDEST POP PUSH2 0x366 PUSH2 0xABD JUMP JUMPDEST PUSH1 0x40 MLOAD PUSH2 0x373 SWAP2 SWAP1 PUSH2 0x173A JUMP JUMPDEST PUSH1 0x40 MLOAD DUP1 SWAP2 SUB SWAP1 RETURN JUMPDEST CALLVALUE DUP1 ISZERO PUSH2 0x387 JUMPI PUSH0 PUSH0 REVERT JUMPDEST POP PUSH2 0x390 PUSH2 0xAE2 JUMP JUMPDEST PUSH1 0x40 MLOAD PUSH2 0x39D SWAP2 SWAP1 PUSH2 0x151C JUMP JUMPDEST PUSH1 0x40 MLOAD DUP1 SWAP2 SUB SWAP1 RETURN JUMPDEST CALLVALUE DUP1 ISZERO PUSH2 0x3B1 JUMPI PUSH0 PUSH0 REVERT JUMPDEST POP PUSH2 0x3BA PUSH2 0xAE8 JUMP JUMPDEST STOP JUMPDEST CALLVALUE DUP1 ISZERO PUSH2 0x3C7 JUMPI PUSH0 PUSH0 REVERT JUMPDEST POP PUSH2 0x3E2 PUSH1 0x4 DUP1 CALLDATASIZE SUB DUP2 ADD SWAP1 PUSH2 0x3DD SWAP2 SWAP1 PUSH2 0x1894 JUMP JUMPDEST PUSH2 0xE92 JUMP JUMPDEST PUSH1 0x40 MLOAD PUSH2 0x3F1 SWAP4 SWAP3 SWAP2 SWAP1 PUSH2 0x18BF JUMP JUMPDEST PUSH1 0x40 MLOAD DUP1 SWAP2 SUB SWAP1 RETURN JUMPDEST CALLVALUE DUP1 ISZERO PUSH2 0x405 JUMPI PUSH0 PUSH0 REVERT JUMPDEST POP PUSH2 0x40E PUSH2 0xEE6 JUMP JUMPDEST PUSH1 0x40 MLOAD PUSH2 0x41B SWAP2 SWAP1 PUSH2 0x18F4 JUMP JUMPDEST PUSH1 0x40 MLOAD DUP1 SWAP2 SUB SWAP1 RETURN JUMPDEST CALLVALUE DUP1 ISZERO PUSH2 0x42F JUMPI PUSH0 PUSH0 REVERT JUMPDEST POP PUSH2 0x44A PUSH1 0x4 DUP1 CALLDATASIZE SUB DUP2 ADD SWAP1 PUSH2 0x445 SWAP2 SWAP1 PUSH2 0x14A6 JUMP JUMPDEST PUSH2 0xF71 JUMP JUMPDEST PUSH1 0x40 MLOAD PUSH2 0x457 SWAP2 SWAP1 PUSH2 0x151C JUMP JUMPDEST PUSH1 0x40 MLOAD DUP1 SWAP2 SUB SWAP1 RETURN JUMPDEST CALLVALUE DUP1 ISZERO PUSH2 0x46B JUMPI PUSH0 PUSH0 REVERT JUMPDEST POP PUSH2 0x474 PUSH2 0xFB7 JUMP JUMPDEST PUSH1 0x40 MLOAD PUSH2 0x481 SWAP2 SWAP1 PUSH2 0x151C JUMP JUMPDEST PUSH1 0x40 MLOAD DUP1 SWAP2 SUB SWAP1 RETURN JUMPDEST PUSH2 0x492 PUSH2 0xFBD JUMP JUMPDEST STOP JUMPDEST CALLVALUE DUP1 ISZERO PUSH2 0x49F JUMPI PUSH0 PUSH0 REVERT JUMPDEST POP PUSH2 0x4BA PUSH1 0x4 DUP1 CALLDATASIZE SUB DUP2 ADD SWAP1 PUSH2 0x4B5 SWAP2 SWAP1 PUSH2 0x1894 JUMP JUMPDEST PUSH2 0x140D JUMP JUMPDEST PUSH1 0x40 MLOAD PUSH2 0x4C7 SWAP2 SWAP1 PUSH2 0x173A JUMP JUMPDEST PUSH1 0x40 MLOAD DUP1 SWAP2 SUB SWAP1 RETURN JUMPDEST PUSH1 0x4 PUSH1 0x20 MSTORE DUP1 PUSH0 MSTORE PUSH1 0x40 PUSH0 KECCAK256 PUSH0 SWAP2 POP SLOAD SWAP1 PUSH2 0x100 EXP SWAP1 DIV PUSH1 0xFF AND DUP2 JUMP JUMPDEST PUSH1 0xB SLOAD DUP2 JUMP JUMPDEST PUSH1 0x60 PUSH1 0xC PUSH0 SWAP1 SLOAD SWAP1 PUSH2 0x100 EXP SWAP1 DIV PUSH1 0xFF AND PUSH2 0x543 JUMPI PUSH1 0x40 MLOAD PUSH32 0x8C379A000000000000000000000000000000000000000000000000000000000 DUP2 MSTORE PUSH1 0x4 ADD PUSH2 0x53A SWAP1 PUSH2 0x195E JUMP JUMPDEST PUSH1 0x40 MLOAD DUP1 SWAP2 SUB SWAP1 REVERT JUMPDEST PUSH1 0x9 PUSH0 SWAP1 SLOAD SWAP1 PUSH2 0x100 EXP SWAP1 DIV PUSH20 0xFFFFFFFFFFFFFFFFFFFFFFFFFFFFFFFFFFFFFFFF AND PUSH20 0xFFFFFFFFFFFFFFFFFFFFFFFFFFFFFFFFFFFFFFFF AND CALLER PUSH20 0xFFFFFFFFFFFFFFFFFFFFFFFFFFFFFFFFFFFFFFFF AND EQ PUSH2 0x5D2 JUMPI PUSH1 0x40 MLOAD PUSH32 0x8C379A000000000000000000000000000000000000000000000000000000000 DUP2 MSTORE PUSH1 0x4 ADD PUSH2 0x5C9 SWAP1 PUSH2 0x19C6 JUMP JUMPDEST PUSH1 0x40 MLOAD DUP1 SWAP2 SUB SWAP1 REVERT JUMPDEST PUSH1 0x2 DUP1 SLOAD PUSH2 0x5DF SWAP1 PUSH2 0x1A11 JUMP JUMPDEST DUP1 PUSH1 0x1F ADD PUSH1 0x20 DUP1 SWAP2 DIV MUL PUSH1 0x20 ADD PUSH1 0x40 MLOAD SWAP1 DUP2 ADD PUSH1 0x40 MSTORE DUP1 SWAP3 SWAP2 SWAP1 DUP2 DUP2 MSTORE PUSH1 0x20 ADD DUP3 DUP1 SLOAD PUSH2 0x60B SWAP1 PUSH2 0x1A11 JUMP JUMPDEST DUP1 ISZERO PUSH2 0x656 JUMPI DUP1 PUSH1 0x1F LT PUSH2 0x62D JUMPI PUSH2 0x100 DUP1 DUP4 SLOAD DIV MUL DUP4 MSTORE SWAP2 PUSH1 0x20 ADD SWAP2 PUSH2 0x656 JUMP JUMPDEST DUP3 ADD SWAP2 SWAP1 PUSH0 MSTORE PUSH1 0x20 PUSH0 KECCAK256 SWAP1 JUMPDEST DUP2 SLOAD DUP2 MSTORE SWAP1 PUSH1 0x1 ADD SWAP1 PUSH1 0x20 ADD DUP1 DUP4 GT PUSH2 0x639 JUMPI DUP3 SWAP1 SUB PUSH1 0x1F AND DUP3 ADD SWAP2 JUMPDEST POP POP POP POP POP SWAP1 POP SWAP1 JUMP JUMPDEST PUSH0 PUSH0 PUSH0 PUSH0 PUSH0 PUSH1 0x60 DUP1 PUSH0 PUSH1 0x60 PUSH0 PUSH1 0x1 SLOAD SELFBALANCE PUSH1 0x6 SLOAD PUSH0 PUSH0 SWAP1 SLOAD SWAP1 PUSH2 0x100 EXP SWAP1 DIV PUSH20 0xFFFFFFFFFFFFFFFFFFFFFFFFFFFFFFFFFFFFFFFF AND PUSH1 0xA SLOAD PUSH1 0x2 PUSH1 0x3 PUSH1 0x9 PUSH0 SWAP1 SLOAD SWAP1 PUSH2 0x100 EXP SWAP1 DIV PUSH20 0xFFFFFFFFFFFFFFFFFFFFFFFFFFFFFFFFFFFFFFFF AND PUSH1 0x7 PUSH1 0xB SLOAD DUP5 DUP1 SLOAD PUSH2 0x6CE SWAP1 PUSH2 0x1A11 JUMP JUMPDEST DUP1 PUSH1 0x1F ADD PUSH1 0x20 DUP1 SWAP2 DIV MUL PUSH1 0x20 ADD PUSH1 0x40 MLOAD SWAP1 DUP2 ADD PUSH1 0x40 MSTORE DUP1 SWAP3 SWAP2 SWAP1 DUP2 DUP2 MSTORE PUSH1 0x20 ADD DUP3 DUP1 SLOAD PUSH2 0x6FA SWAP1 PUSH2 0x1A11 JUMP JUMPDEST DUP1 ISZERO PUSH2 0x745 JUMPI DUP1 PUSH1 0x1F LT PUSH2 0x71C JUMPI PUSH2 0x100 DUP1 DUP4 SLOAD DIV MUL DUP4 MSTORE SWAP2 PUSH1 0x20 ADD SWAP2 PUSH2 0x745 JUMP JUMPDEST DUP3 ADD SWAP2 SWAP1 PUSH0 MSTORE PUSH1 0x20 PUSH0 KECCAK256 SWAP1 JUMPDEST DUP2 SLOAD DUP2 MSTORE SWAP1 PUSH1 0x1 ADD SWAP1 PUSH1 0x20 ADD DUP1 DUP4 GT PUSH2 0x728 JUMPI DUP3 SWAP1 SUB PUSH1 0x1F AND DUP3 ADD SWAP2 JUMPDEST POP POP POP POP POP SWAP5 POP DUP4 DUP1 SLOAD PUSH2 0x758 SWAP1 PUSH2 0x1A11 JUMP JUMPDEST DUP1 PUSH1 0x1F ADD PUSH1 0x20 DUP1 SWAP2 DIV MUL PUSH1 0x20 ADD PUSH1 0x40 MLOAD SWAP1 DUP2 ADD PUSH1 0x40 MSTORE DUP1 SWAP3 SWAP2 SWAP1 DUP2 DUP2 MSTORE PUSH1 0x20 ADD DUP3 DUP1 SLOAD PUSH2 0x784 SWAP1 PUSH2 0x1A11 JUMP JUMPDEST DUP1 ISZERO PUSH2 0x7CF JUMPI DUP1 PUSH1 0x1F LT PUSH2 0x7A6 JUMPI PUSH2 0x100 DUP1 DUP4 SLOAD DIV MUL DUP4 MSTORE SWAP2 PUSH1 0x20 ADD SWAP2 PUSH2 0x7CF JUMP JUMPDEST DUP3 ADD SWAP2 SWAP1 PUSH0 MSTORE PUSH1 0x20 PUSH0 KECCAK256 SWAP1 JUMPDEST DUP2 SLOAD DUP2 MSTORE SWAP1 PUSH1 0x1 ADD SWAP1 PUSH1 0x20 ADD DUP1 DUP4 GT PUSH2 0x7B2 JUMPI DUP3 SWAP1 SUB PUSH1 0x1F AND DUP3 ADD SWAP2 JUMPDEST POP POP POP POP POP SWAP4 POP DUP2 DUP1 SLOAD DUP1 PUSH1 0x20 MUL PUSH1 0x20 ADD PUSH1 0x40 MLOAD SWAP1 DUP2 ADD PUSH1 0x40 MSTORE DUP1 SWAP3 SWAP2 SWAP1 DUP2 DUP2 MSTORE PUSH1 0x20 ADD DUP3 DUP1 SLOAD DUP1 ISZERO PUSH2 0x854 JUMPI PUSH1 0x20 MUL DUP3 ADD SWAP2 SWAP1 PUSH0 MSTORE PUSH1 0x20 PUSH0 KECCAK256 SWAP1 JUMPDEST DUP2 PUSH0 SWAP1 SLOAD SWAP1 PUSH2 0x100 EXP SWAP1 DIV PUSH20 0xFFFFFFFFFFFFFFFFFFFFFFFFFFFFFFFFFFFFFFFF AND PUSH20 0xFFFFFFFFFFFFFFFFFFFFFFFFFFFFFFFFFFFFFFFF AND DUP2 MSTORE PUSH1 0x20 ADD SWAP1 PUSH1 0x1 ADD SWAP1 DUP1 DUP4 GT PUSH2 0x80B JUMPI JUMPDEST POP POP POP POP POP SWAP2 POP SWAP10 POP SWAP10 POP SWAP10 POP SWAP10 POP SWAP10 POP SWAP10 POP SWAP10 POP SWAP10 POP SWAP10 POP SWAP10 POP SWAP1 SWAP2 SWAP3 SWAP4 SWAP5 SWAP6 SWAP7 SWAP8 SWAP9 SWAP10 JUMP JUMPDEST PUSH0 PUSH0 SWAP1 SLOAD SWAP1 PUSH2 0x100 EXP SWAP1 DIV PUSH20 0xFFFFFFFFFFFFFFFFFFFFFFFFFFFFFFFFFFFFFFFF AND DUP2 JUMP JUMPDEST PUSH0 PUSH1 0xC PUSH0 SWAP1 SLOAD SWAP1 PUSH2 0x100 EXP SWAP1 DIV PUSH1 0xFF AND SWAP1 POP SWAP1 JUMP JUMPDEST PUSH1 0x3 DUP1 SLOAD PUSH2 0x8C1 SWAP1 PUSH2 0x1A11 JUMP JUMPDEST DUP1 PUSH1 0x1F ADD PUSH1 0x20 DUP1 SWAP2 DIV MUL PUSH1 0x20 ADD PUSH1 0x40 MLOAD SWAP1 DUP2 ADD PUSH1 0x40 MSTORE DUP1 SWAP3 SWAP2 SWAP1 DUP2 DUP2 MSTORE PUSH1 0x20 ADD DUP3 DUP1 SLOAD PUSH2 0x8ED SWAP1 PUSH2 0x1A11 JUMP JUMPDEST DUP1 ISZERO PUSH2 0x938 JUMPI DUP1 PUSH1 0x1F LT PUSH2 0x90F JUMPI PUSH2 0x100 DUP1 DUP4 SLOAD DIV MUL DUP4 MSTORE SWAP2 PUSH1 0x20 ADD SWAP2 PUSH2 0x938 JUMP JUMPDEST DUP3 ADD SWAP2 SWAP1 PUSH0 MSTORE PUSH1 0x20 PUSH0 KECCAK256 SWAP1 JUMPDEST DUP2 SLOAD DUP2 MSTORE SWAP1 PUSH1 0x1 ADD SWAP1 PUSH1 0x20 ADD DUP1 DUP4 GT PUSH2 0x91B JUMPI DUP3 SWAP1 SUB PUSH1 0x1F AND DUP3 ADD SWAP2 JUMPDEST POP POP POP POP POP DUP2 JUMP JUMPDEST PUSH1 0xC PUSH0 SWAP1 SLOAD SWAP1 PUSH2 0x100 EXP SWAP1 DIV PUSH1 0xFF AND DUP2 JUMP JUMPDEST PUSH1 0x5 PUSH1 0x20 MSTORE DUP1 PUSH0 MSTORE PUSH1 0x40 PUSH0 KECCAK256 PUSH0 SWAP2 POP SWAP1 POP SLOAD DUP2 JUMP JUMPDEST PUSH1 0x2 DUP1 SLOAD PUSH2 0x974 SWAP1 PUSH2 0x1A11 JUMP JUMPDEST DUP1 PUSH1 0x1F ADD PUSH1 0x20 DUP1 SWAP2 DIV MUL PUSH1 0x20 ADD PUSH1 0x40 MLOAD SWAP1 DUP2 ADD PUSH1 0x40 MSTORE DUP1 SWAP3 SWAP2 SWAP1 DUP2 DUP2 MSTORE PUSH1 0x20 ADD DUP3 DUP1 SLOAD PUSH2 0x9A0 SWAP1 PUSH2 0x1A11 JUMP JUMPDEST DUP1 ISZERO PUSH2 0x9EB JUMPI DUP1 PUSH1 0x1F LT PUSH2 0x9C2 JUMPI PUSH2 0x100 DUP1 DUP4 SLOAD DIV MUL DUP4 MSTORE SWAP2 PUSH1 0x20 ADD SWAP2 PUSH2 0x9EB JUMP JUMPDEST DUP3 ADD SWAP2 SWAP1 PUSH0 MSTORE PUSH1 0x20 PUSH0 KECCAK256 SWAP1 JUMPDEST DUP2 SLOAD DUP2 MSTORE SWAP1 PUSH1 0x1 ADD SWAP1 PUSH1 0x20 ADD DUP1 DUP4 GT PUSH2 0x9CE JUMPI DUP3 SWAP1 SUB PUSH1 0x1F AND DUP3 ADD SWAP2 JUMPDEST POP POP POP POP POP DUP2 JUMP JUMPDEST PUSH1 0x6 SLOAD DUP2 JUMP JUMPDEST PUSH1 0x60 PUSH1 0x8 DUP1 SLOAD DUP1 PUSH1 0x20 MUL PUSH1 0x20 ADD PUSH1 0x40 MLOAD SWAP1 DUP2 ADD PUSH1 0x40 MSTORE DUP1 SWAP3 SWAP2 SWAP1 DUP2 DUP2 MSTORE PUSH1 0x20 ADD PUSH0 SWAP1 JUMPDEST DUP3 DUP3 LT ISZERO PUSH2 0xAB4 JUMPI DUP4 DUP3 SWAP1 PUSH0 MSTORE PUSH1 0x20 PUSH0 KECCAK256 SWAP1 PUSH1 0x3 MUL ADD PUSH1 0x40 MLOAD DUP1 PUSH1 0x60 ADD PUSH1 0x40 MSTORE SWAP1 DUP2 PUSH0 DUP3 ADD SLOAD DUP2 MSTORE PUSH1 0x20 ADD PUSH1 0x1 DUP3 ADD SLOAD DUP2 MSTORE PUSH1 0x20 ADD PUSH1 0x2 DUP3 ADD PUSH0 SWAP1 SLOAD SWAP1 PUSH2 0x100 EXP SWAP1 DIV PUSH20 0xFFFFFFFFFFFFFFFFFFFFFFFFFFFFFFFFFFFFFFFF AND PUSH20 0xFFFFFFFFFFFFFFFFFFFFFFFFFFFFFFFFFFFFFFFF AND PUSH20 0xFFFFFFFFFFFFFFFFFFFFFFFFFFFFFFFFFFFFFFFF AND DUP2 MSTORE POP POP DUP2 MSTORE PUSH1 0x20 ADD SWAP1 PUSH1 0x1 ADD SWAP1 PUSH2 0xA1C JUMP JUMPDEST POP POP POP POP SWAP1 POP SWAP1 JUMP JUMPDEST PUSH1 0x9 PUSH0 SWAP1 SLOAD SWAP1 PUSH2 0x100 EXP SWAP1 DIV PUSH20 0xFFFFFFFFFFFFFFFFFFFFFFFFFFFFFFFFFFFFFFFF AND DUP2 JUMP JUMPDEST PUSH1 0x1 SLOAD DUP2 JUMP JUMPDEST PUSH1 0xB SLOAD TIMESTAMP LT ISZERO PUSH2 0xB2D JUMPI PUSH1 0x40 MLOAD PUSH32 0x8C379A000000000000000000000000000000000000000000000000000000000 DUP2 MSTORE PUSH1 0x4 ADD PUSH2 0xB24 SWAP1 PUSH2 0x1A8B JUMP JUMPDEST PUSH1 0x40 MLOAD DUP1 SWAP2 SUB SWAP1 REVERT JUMPDEST PUSH1 0xC PUSH0 SWAP1 SLOAD SWAP1 PUSH2 0x100 EXP SWAP1 DIV PUSH1 0xFF AND ISZERO PUSH2 0xB7C JUMPI PUSH1 0x40 MLOAD PUSH32 0x8C379A000000000000000000000000000000000000000000000000000000000 DUP2 MSTORE PUSH1 0x4 ADD PUSH2 0xB73 SWAP1 PUSH2 0x1AF3 JUMP JUMPDEST PUSH1 0x40 MLOAD DUP1 SWAP2 SUB SWAP1 REVERT JUMPDEST PUSH0 PUSH0 SWAP1 POP JUMPDEST PUSH1 0x7 DUP1 SLOAD SWAP1 POP DUP2 LT ISZERO PUSH2 0xD4F JUMPI PUSH0 PUSH1 0x7 DUP3 DUP2 SLOAD DUP2 LT PUSH2 0xBA3 JUMPI PUSH2 0xBA2 PUSH2 0x1B11 JUMP JUMPDEST JUMPDEST SWAP1 PUSH0 MSTORE PUSH1 0x20 PUSH0 KECCAK256 ADD PUSH0 SWAP1 SLOAD SWAP1 PUSH2 0x100 EXP SWAP1 DIV PUSH20 0xFFFFFFFFFFFFFFFFFFFFFFFFFFFFFFFFFFFFFFFF AND SWAP1 POP PUSH1 0x9 PUSH0 SWAP1 SLOAD SWAP1 PUSH2 0x100 EXP SWAP1 DIV PUSH20 0xFFFFFFFFFFFFFFFFFFFFFFFFFFFFFFFFFFFFFFFF AND PUSH20 0xFFFFFFFFFFFFFFFFFFFFFFFFFFFFFFFFFFFFFFFF AND DUP2 PUSH20 0xFFFFFFFFFFFFFFFFFFFFFFFFFFFFFFFFFFFFFFFF AND EQ PUSH2 0xD41 JUMPI PUSH0 PUSH1 0x5 PUSH0 DUP4 PUSH20 0xFFFFFFFFFFFFFFFFFFFFFFFFFFFFFFFFFFFFFFFF AND PUSH20 0xFFFFFFFFFFFFFFFFFFFFFFFFFFFFFFFFFFFFFFFF AND DUP2 MSTORE PUSH1 0x20 ADD SWAP1 DUP2 MSTORE PUSH1 0x20 ADD PUSH0 KECCAK256 SLOAD SWAP1 POP PUSH0 DUP2 GT ISZERO PUSH2 0xD3F JUMPI PUSH0 PUSH1 0x5 PUSH0 DUP5 PUSH20 0xFFFFFFFFFFFFFFFFFFFFFFFFFFFFFFFFFFFFFFFF AND PUSH20 0xFFFFFFFFFFFFFFFFFFFFFFFFFFFFFFFFFFFFFFFF AND DUP2 MSTORE PUSH1 0x20 ADD SWAP1 DUP2 MSTORE PUSH1 0x20 ADD PUSH0 KECCAK256 DUP2 SWAP1 SSTORE POP DUP2 PUSH20 0xFFFFFFFFFFFFFFFFFFFFFFFFFFFFFFFFFFFFFFFF AND PUSH2 0x8FC DUP3 SWAP1 DUP2 ISZERO MUL SWAP1 PUSH1 0x40 MLOAD PUSH0 PUSH1 0x40 MLOAD DUP1 DUP4 SUB DUP2 DUP6 DUP9 DUP9 CALL SWAP4 POP POP POP POP ISZERO DUP1 ISZERO PUSH2 0xCEF JUMPI RETURNDATASIZE PUSH0 PUSH0 RETURNDATACOPY RETURNDATASIZE PUSH0 REVERT JUMPDEST POP DUP2 PUSH20 0xFFFFFFFFFFFFFFFFFFFFFFFFFFFFFFFFFFFFFFFF AND PUSH32 0x3367BEFD2B2F39615CD79917C2153263C4AF1D3945EC003E5D5BFC13A8D85833 DUP3 PUSH1 0x40 MLOAD PUSH2 0xD36 SWAP2 SWAP1 PUSH2 0x151C JUMP JUMPDEST PUSH1 0x40 MLOAD DUP1 SWAP2 SUB SWAP1 LOG2 JUMPDEST POP JUMPDEST POP DUP1 DUP1 PUSH1 0x1 ADD SWAP2 POP POP PUSH2 0xB81 JUMP JUMPDEST POP PUSH0 PUSH1 0xA SLOAD GT ISZERO PUSH2 0xE76 JUMPI PUSH1 0xA SLOAD SELFBALANCE LT ISZERO PUSH2 0xD9F JUMPI PUSH1 0x40 MLOAD PUSH32 0x8C379A000000000000000000000000000000000000000000000000000000000 DUP2 MSTORE PUSH1 0x4 ADD PUSH2 0xD96 SWAP1 PUSH2 0x1B88 JUMP JUMPDEST PUSH1 0x40 MLOAD DUP1 SWAP2 SUB SWAP1 REVERT JUMPDEST PUSH0 PUSH0 SWAP1 SLOAD SWAP1 PUSH2 0x100 EXP SWAP1 DIV PUSH20 0xFFFFFFFFFFFFFFFFFFFFFFFFFFFFFFFFFFFFFFFF AND PUSH20 0xFFFFFFFFFFFFFFFFFFFFFFFFFFFFFFFFFFFFFFFF AND PUSH2 0x8FC PUSH1 0xA SLOAD SWAP1 DUP2 ISZERO MUL SWAP1 PUSH1 0x40 MLOAD PUSH0 PUSH1 0x40 MLOAD DUP1 DUP4 SUB DUP2 DUP6 DUP9 DUP9 CALL SWAP4 POP POP POP POP ISZERO DUP1 ISZERO PUSH2 0xE04 JUMPI RETURNDATASIZE PUSH0 PUSH0 RETURNDATACOPY RETURNDATASIZE PUSH0 REVERT JUMPDEST POP PUSH0 PUSH0 SWAP1 SLOAD SWAP1 PUSH2 0x100 EXP SWAP1 DIV PUSH20 0xFFFFFFFFFFFFFFFFFFFFFFFFFFFFFFFFFFFFFFFF AND PUSH20 0xFFFFFFFFFFFFFFFFFFFFFFFFFFFFFFFFFFFFFFFF AND PUSH32 0xCB4A9094DA4DF77FB2C0DBAA5047660B1237E61D82A02176C1BE74CA757F2531 PUSH1 0xA SLOAD PUSH1 0x40 MLOAD PUSH2 0xE6D SWAP2 SWAP1 PUSH2 0x151C JUMP JUMPDEST PUSH1 0x40 MLOAD DUP1 SWAP2 SUB SWAP1 LOG2 JUMPDEST PUSH1 0x1 PUSH1 0xC PUSH0 PUSH2 0x100 EXP DUP2 SLOAD DUP2 PUSH1 0xFF MUL NOT AND SWAP1 DUP4 ISZERO ISZERO MUL OR SWAP1 SSTORE POP JUMP JUMPDEST PUSH1 0x8 DUP2 DUP2 SLOAD DUP2 LT PUSH2 0xEA1 JUMPI PUSH0 DUP1 REVERT JUMPDEST SWAP1 PUSH0 MSTORE PUSH1 0x20 PUSH0 KECCAK256 SWAP1 PUSH1 0x3 MUL ADD PUSH0 SWAP2 POP SWAP1 POP DUP1 PUSH0 ADD SLOAD SWAP1 DUP1 PUSH1 0x1 ADD SLOAD SWAP1 DUP1 PUSH1 0x2 ADD PUSH0 SWAP1 SLOAD SWAP1 PUSH2 0x100 EXP SWAP1 DIV PUSH20 0xFFFFFFFFFFFFFFFFFFFFFFFFFFFFFFFFFFFFFFFF AND SWAP1 POP DUP4 JUMP JUMPDEST PUSH1 0x60 PUSH1 0x7 DUP1 SLOAD DUP1 PUSH1 0x20 MUL PUSH1 0x20 ADD PUSH1 0x40 MLOAD SWAP1 DUP2 ADD PUSH1 0x40 MSTORE DUP1 SWAP3 SWAP2 SWAP1 DUP2 DUP2 MSTORE PUSH1 0x20 ADD DUP3 DUP1 SLOAD DUP1 ISZERO PUSH2 0xF67 JUMPI PUSH1 0x20 MUL DUP3 ADD SWAP2 SWAP1 PUSH0 MSTORE PUSH1 0x20 PUSH0 KECCAK256 SWAP1 JUMPDEST DUP2 PUSH0 SWAP1 SLOAD SWAP1 PUSH2 0x100 EXP SWAP1 DIV PUSH20 0xFFFFFFFFFFFFFFFFFFFFFFFFFFFFFFFFFFFFFFFF AND PUSH20 0xFFFFFFFFFFFFFFFFFFFFFFFFFFFFFFFFFFFFFFFF AND DUP2 MSTORE PUSH1 0x20 ADD SWAP1 PUSH1 0x1 ADD SWAP1 DUP1 DUP4 GT PUSH2 0xF1E JUMPI JUMPDEST POP POP POP POP POP SWAP1 POP SWAP1 JUMP JUMPDEST PUSH0 PUSH1 0x5 PUSH0 DUP4 PUSH20 0xFFFFFFFFFFFFFFFFFFFFFFFFFFFFFFFFFFFFFFFF AND PUSH20 0xFFFFFFFFFFFFFFFFFFFFFFFFFFFFFFFFFFFFFFFF AND DUP2 MSTORE PUSH1 0x20 ADD SWAP1 DUP2 MSTORE PUSH1 0x20 ADD PUSH0 KECCAK256 SLOAD SWAP1 POP SWAP2 SWAP1 POP JUMP JUMPDEST PUSH1 0xA SLOAD DUP2 JUMP JUMPDEST PUSH1 0xB SLOAD TIMESTAMP LT PUSH2 0x1001 JUMPI PUSH1 0x40 MLOAD PUSH32 0x8C379A000000000000000000000000000000000000000000000000000000000 DUP2 MSTORE PUSH1 0x4 ADD PUSH2 0xFF8 SWAP1 PUSH2 0x1BF0 JUMP JUMPDEST PUSH1 0x40 MLOAD DUP1 SWAP2 SUB SWAP1 REVERT JUMPDEST PUSH0 PUSH0 SWAP1 SLOAD SWAP1 PUSH2 0x100 EXP SWAP1 DIV PUSH20 0xFFFFFFFFFFFFFFFFFFFFFFFFFFFFFFFFFFFFFFFF AND PUSH20 0xFFFFFFFFFFFFFFFFFFFFFFFFFFFFFFFFFFFFFFFF AND CALLER PUSH20 0xFFFFFFFFFFFFFFFFFFFFFFFFFFFFFFFFFFFFFFFF AND SUB PUSH2 0x108F JUMPI PUSH1 0x40 MLOAD PUSH32 0x8C379A000000000000000000000000000000000000000000000000000000000 DUP2 MSTORE PUSH1 0x4 ADD PUSH2 0x1086 SWAP1 PUSH2 0x1C7E JUMP JUMPDEST PUSH1 0x40 MLOAD DUP1 SWAP2 SUB SWAP1 REVERT JUMPDEST PUSH0 CALLVALUE GT PUSH2 0x10D1 JUMPI PUSH1 0x40 MLOAD PUSH32 0x8C379A000000000000000000000000000000000000000000000000000000000 DUP2 MSTORE PUSH1 0x4 ADD PUSH2 0x10C8 SWAP1 PUSH2 0x1CE6 JUMP JUMPDEST PUSH1 0x40 MLOAD DUP1 SWAP2 SUB SWAP1 REVERT JUMPDEST PUSH0 PUSH1 0x5 PUSH0 CALLER PUSH20 0xFFFFFFFFFFFFFFFFFFFFFFFFFFFFFFFFFFFFFFFF AND PUSH20 0xFFFFFFFFFFFFFFFFFFFFFFFFFFFFFFFFFFFFFFFF AND DUP2 MSTORE PUSH1 0x20 ADD SWAP1 DUP2 MSTORE PUSH1 0x20 ADD PUSH0 KECCAK256 SLOAD SWAP1 POP PUSH0 CALLVALUE DUP3 PUSH2 0x111F SWAP2 SWAP1 PUSH2 0x1D31 JUMP JUMPDEST SWAP1 POP PUSH0 DUP3 SUB PUSH2 0x116E JUMPI PUSH1 0x1 SLOAD DUP2 LT ISZERO PUSH2 0x116D JUMPI PUSH1 0x40 MLOAD PUSH32 0x8C379A000000000000000000000000000000000000000000000000000000000 DUP2 MSTORE PUSH1 0x4 ADD PUSH2 0x1164 SWAP1 PUSH2 0x1DAE JUMP JUMPDEST PUSH1 0x40 MLOAD DUP1 SWAP2 SUB SWAP1 REVERT JUMPDEST JUMPDEST PUSH1 0xA SLOAD DUP2 GT PUSH2 0x11B2 JUMPI PUSH1 0x40 MLOAD PUSH32 0x8C379A000000000000000000000000000000000000000000000000000000000 DUP2 MSTORE PUSH1 0x4 ADD PUSH2 0x11A9 SWAP1 PUSH2 0x1E16 JUMP JUMPDEST PUSH1 0x40 MLOAD DUP1 SWAP2 SUB SWAP1 REVERT JUMPDEST DUP1 PUSH1 0x5 PUSH0 CALLER PUSH20 0xFFFFFFFFFFFFFFFFFFFFFFFFFFFFFFFFFFFFFFFF AND PUSH20 0xFFFFFFFFFFFFFFFFFFFFFFFFFFFFFFFFFFFFFFFF AND DUP2 MSTORE PUSH1 0x20 ADD SWAP1 DUP2 MSTORE PUSH1 0x20 ADD PUSH0 KECCAK256 DUP2 SWAP1 SSTORE POP DUP1 PUSH1 0xA DUP2 SWAP1 SSTORE POP CALLER PUSH1 0x9 PUSH0 PUSH2 0x100 EXP DUP2 SLOAD DUP2 PUSH20 0xFFFFFFFFFFFFFFFFFFFFFFFFFFFFFFFFFFFFFFFF MUL NOT AND SWAP1 DUP4 PUSH20 0xFFFFFFFFFFFFFFFFFFFFFFFFFFFFFFFFFFFFFFFF AND MUL OR SWAP1 SSTORE POP PUSH1 0x8 PUSH1 0x40 MLOAD DUP1 PUSH1 0x60 ADD PUSH1 0x40 MSTORE DUP1 CALLVALUE DUP2 MSTORE PUSH1 0x20 ADD TIMESTAMP DUP2 MSTORE PUSH1 0x20 ADD CALLER PUSH20 0xFFFFFFFFFFFFFFFFFFFFFFFFFFFFFFFFFFFFFFFF AND DUP2 MSTORE POP SWAP1 DUP1 PUSH1 0x1 DUP2 SLOAD ADD DUP1 DUP3 SSTORE DUP1 SWAP2 POP POP PUSH1 0x1 SWAP1 SUB SWAP1 PUSH0 MSTORE PUSH1 0x20 PUSH0 KECCAK256 SWAP1 PUSH1 0x3 MUL ADD PUSH0 SWAP1 SWAP2 SWAP1 SWAP2 SWAP1 SWAP2 POP PUSH0 DUP3 ADD MLOAD DUP2 PUSH0 ADD SSTORE PUSH1 0x20 DUP3 ADD MLOAD DUP2 PUSH1 0x1 ADD SSTORE PUSH1 0x40 DUP3 ADD MLOAD DUP2 PUSH1 0x2 ADD PUSH0 PUSH2 0x100 EXP DUP2 SLOAD DUP2 PUSH20 0xFFFFFFFFFFFFFFFFFFFFFFFFFFFFFFFFFFFFFFFF MUL NOT AND SWAP1 DUP4 PUSH20 0xFFFFFFFFFFFFFFFFFFFFFFFFFFFFFFFFFFFFFFFF AND MUL OR SWAP1 SSTORE POP POP POP PUSH1 0x4 PUSH0 CALLER PUSH20 0xFFFFFFFFFFFFFFFFFFFFFFFFFFFFFFFFFFFFFFFF AND PUSH20 0xFFFFFFFFFFFFFFFFFFFFFFFFFFFFFFFFFFFFFFFF AND DUP2 MSTORE PUSH1 0x20 ADD SWAP1 DUP2 MSTORE PUSH1 0x20 ADD PUSH0 KECCAK256 PUSH0 SWAP1 SLOAD SWAP1 PUSH2 0x100 EXP SWAP1 DIV PUSH1 0xFF AND PUSH2 0x1409 JUMPI PUSH1 0x1 PUSH1 0x4 PUSH0 CALLER PUSH20 0xFFFFFFFFFFFFFFFFFFFFFFFFFFFFFFFFFFFFFFFF AND PUSH20 0xFFFFFFFFFFFFFFFFFFFFFFFFFFFFFFFFFFFFFFFF AND DUP2 MSTORE PUSH1 0x20 ADD SWAP1 DUP2 MSTORE PUSH1 0x20 ADD PUSH0 KECCAK256 PUSH0 PUSH2 0x100 EXP DUP2 SLOAD DUP2 PUSH1 0xFF MUL NOT AND SWAP1 DUP4 ISZERO ISZERO MUL OR SWAP1 SSTORE POP PUSH1 0x6 PUSH0 DUP2 SLOAD DUP1 SWAP3 SWAP2 SWAP1 PUSH2 0x13A3 SWAP1 PUSH2 0x1E34 JUMP JUMPDEST SWAP2 SWAP1 POP SSTORE POP PUSH1 0x7 CALLER SWAP1 DUP1 PUSH1 0x1 DUP2 SLOAD ADD DUP1 DUP3 SSTORE DUP1 SWAP2 POP POP PUSH1 0x1 SWAP1 SUB SWAP1 PUSH0 MSTORE PUSH1 0x20 PUSH0 KECCAK256 ADD PUSH0 SWAP1 SWAP2 SWAP1 SWAP2 SWAP1 SWAP2 PUSH2 0x100 EXP DUP2 SLOAD DUP2 PUSH20 0xFFFFFFFFFFFFFFFFFFFFFFFFFFFFFFFFFFFFFFFF MUL NOT AND SWAP1 DUP4 PUSH20 0xFFFFFFFFFFFFFFFFFFFFFFFFFFFFFFFFFFFFFFFF AND MUL OR SWAP1 SSTORE POP JUMPDEST POP POP JUMP JUMPDEST PUSH1 0x7 DUP2 DUP2 SLOAD DUP2 LT PUSH2 0x141C JUMPI PUSH0 DUP1 REVERT JUMPDEST SWAP1 PUSH0 MSTORE PUSH1 0x20 PUSH0 KECCAK256 ADD PUSH0 SWAP2 POP SLOAD SWAP1 PUSH2 0x100 EXP SWAP1 DIV PUSH20 0xFFFFFFFFFFFFFFFFFFFFFFFFFFFFFFFFFFFFFFFF AND DUP2 JUMP JUMPDEST PUSH0 PUSH0 REVERT JUMPDEST PUSH0 PUSH20 0xFFFFFFFFFFFFFFFFFFFFFFFFFFFFFFFFFFFFFFFF DUP3 AND SWAP1 POP SWAP2 SWAP1 POP JUMP JUMPDEST PUSH0 PUSH2 0x1475 DUP3 PUSH2 0x144C JUMP JUMPDEST SWAP1 POP SWAP2 SWAP1 POP JUMP JUMPDEST PUSH2 0x1485 DUP2 PUSH2 0x146B JUMP JUMPDEST DUP2 EQ PUSH2 0x148F JUMPI PUSH0 PUSH0 REVERT JUMPDEST POP JUMP JUMPDEST PUSH0 DUP2 CALLDATALOAD SWAP1 POP PUSH2 0x14A0 DUP2 PUSH2 0x147C JUMP JUMPDEST SWAP3 SWAP2 POP POP JUMP JUMPDEST PUSH0 PUSH1 0x20 DUP3 DUP5 SUB SLT ISZERO PUSH2 0x14BB JUMPI PUSH2 0x14BA PUSH2 0x1448 JUMP JUMPDEST JUMPDEST PUSH0 PUSH2 0x14C8 DUP5 DUP3 DUP6 ADD PUSH2 0x1492 JUMP JUMPDEST SWAP2 POP POP SWAP3 SWAP2 POP POP JUMP JUMPDEST PUSH0 DUP2 ISZERO ISZERO SWAP1 POP SWAP2 SWAP1 POP JUMP JUMPDEST PUSH2 0x14E5 DUP2 PUSH2 0x14D1 JUMP JUMPDEST DUP3 MSTORE POP POP JUMP JUMPDEST PUSH0 PUSH1 0x20 DUP3 ADD SWAP1 POP PUSH2 0x14FE PUSH0 DUP4 ADD DUP5 PUSH2 0x14DC JUMP JUMPDEST SWAP3 SWAP2 POP POP JUMP JUMPDEST PUSH0 DUP2 SWAP1 POP SWAP2 SWAP1 POP JUMP JUMPDEST PUSH2 0x1516 DUP2 PUSH2 0x1504 JUMP JUMPDEST DUP3 MSTORE POP POP JUMP JUMPDEST PUSH0 PUSH1 0x20 DUP3 ADD SWAP1 POP PUSH2 0x152F PUSH0 DUP4 ADD DUP5 PUSH2 0x150D JUMP JUMPDEST SWAP3 SWAP2 POP POP JUMP JUMPDEST PUSH0 DUP2 MLOAD SWAP1 POP SWAP2 SWAP1 POP JUMP JUMPDEST PUSH0 DUP3 DUP3 MSTORE PUSH1 0x20 DUP3 ADD SWAP1 POP SWAP3 SWAP2 POP POP JUMP JUMPDEST DUP3 DUP2 DUP4 MCOPY PUSH0 DUP4 DUP4 ADD MSTORE POP POP POP JUMP JUMPDEST PUSH0 PUSH1 0x1F NOT PUSH1 0x1F DUP4 ADD AND SWAP1 POP SWAP2 SWAP1 POP JUMP JUMPDEST PUSH0 PUSH2 0x1577 DUP3 PUSH2 0x1535 JUMP JUMPDEST PUSH2 0x1581 DUP2 DUP6 PUSH2 0x153F JUMP JUMPDEST SWAP4 POP PUSH2 0x1591 DUP2 DUP6 PUSH1 0x20 DUP7 ADD PUSH2 0x154F JUMP JUMPDEST PUSH2 0x159A DUP2 PUSH2 0x155D JUMP JUMPDEST DUP5 ADD SWAP2 POP POP SWAP3 SWAP2 POP POP JUMP JUMPDEST PUSH0 PUSH1 0x20 DUP3 ADD SWAP1 POP DUP2 DUP2 SUB PUSH0 DUP4 ADD MSTORE PUSH2 0x15BD DUP2 DUP5 PUSH2 0x156D JUMP JUMPDEST SWAP1 POP SWAP3 SWAP2 POP POP JUMP JUMPDEST PUSH2 0x15CE DUP2 PUSH2 0x146B JUMP JUMPDEST DUP3 MSTORE POP POP JUMP JUMPDEST PUSH0 DUP2 MLOAD SWAP1 POP SWAP2 SWAP1 POP JUMP JUMPDEST PUSH0 DUP3 DUP3 MSTORE PUSH1 0x20 DUP3 ADD SWAP1 POP SWAP3 SWAP2 POP POP JUMP JUMPDEST PUSH0 DUP2 SWAP1 POP PUSH1 0x20 DUP3 ADD SWAP1 POP SWAP2 SWAP1 POP JUMP JUMPDEST PUSH2 0x1606 DUP2 PUSH2 0x146B JUMP JUMPDEST DUP3 MSTORE POP POP JUMP JUMPDEST PUSH0 PUSH2 0x1617 DUP4 DUP4 PUSH2 0x15FD JUMP JUMPDEST PUSH1 0x20 DUP4 ADD SWAP1 POP SWAP3 SWAP2 POP POP JUMP JUMPDEST PUSH0 PUSH1 0x20 DUP3 ADD SWAP1 POP SWAP2 SWAP1 POP JUMP JUMPDEST PUSH0 PUSH2 0x1639 DUP3 PUSH2 0x15D4 JUMP JUMPDEST PUSH2 0x1643 DUP2 DUP6 PUSH2 0x15DE JUMP JUMPDEST SWAP4 POP PUSH2 0x164E DUP4 PUSH2 0x15EE JUMP JUMPDEST DUP1 PUSH0 JUMPDEST DUP4 DUP2 LT ISZERO PUSH2 0x167E JUMPI DUP2 MLOAD PUSH2 0x1665 DUP9 DUP3 PUSH2 0x160C JUMP JUMPDEST SWAP8 POP PUSH2 0x1670 DUP4 PUSH2 0x1623 JUMP JUMPDEST SWAP3 POP POP PUSH1 0x1 DUP2 ADD SWAP1 POP PUSH2 0x1651 JUMP JUMPDEST POP DUP6 SWAP4 POP POP POP POP SWAP3 SWAP2 POP POP JUMP JUMPDEST PUSH0 PUSH2 0x140 DUP3 ADD SWAP1 POP PUSH2 0x169F PUSH0 DUP4 ADD DUP14 PUSH2 0x150D JUMP JUMPDEST PUSH2 0x16AC PUSH1 0x20 DUP4 ADD DUP13 PUSH2 0x150D JUMP JUMPDEST PUSH2 0x16B9 PUSH1 0x40 DUP4 ADD DUP12 PUSH2 0x150D JUMP JUMPDEST PUSH2 0x16C6 PUSH1 0x60 DUP4 ADD DUP11 PUSH2 0x15C5 JUMP JUMPDEST PUSH2 0x16D3 PUSH1 0x80 DUP4 ADD DUP10 PUSH2 0x150D JUMP JUMPDEST DUP2 DUP2 SUB PUSH1 0xA0 DUP4 ADD MSTORE PUSH2 0x16E5 DUP2 DUP9 PUSH2 0x156D JUMP JUMPDEST SWAP1 POP DUP2 DUP2 SUB PUSH1 0xC0 DUP4 ADD MSTORE PUSH2 0x16F9 DUP2 DUP8 PUSH2 0x156D JUMP JUMPDEST SWAP1 POP PUSH2 0x1708 PUSH1 0xE0 DUP4 ADD DUP7 PUSH2 0x15C5 JUMP JUMPDEST DUP2 DUP2 SUB PUSH2 0x100 DUP4 ADD MSTORE PUSH2 0x171B DUP2 DUP6 PUSH2 0x162F JUMP JUMPDEST SWAP1 POP PUSH2 0x172B PUSH2 0x120 DUP4 ADD DUP5 PUSH2 0x150D JUMP JUMPDEST SWAP12 SWAP11 POP POP POP POP POP POP POP POP POP POP POP JUMP JUMPDEST PUSH0 PUSH1 0x20 DUP3 ADD SWAP1 POP PUSH2 0x174D PUSH0 DUP4 ADD DUP5 PUSH2 0x15C5 JUMP JUMPDEST SWAP3 SWAP2 POP POP JUMP JUMPDEST PUSH0 DUP2 MLOAD SWAP1 POP SWAP2 SWAP1 POP JUMP JUMPDEST PUSH0 DUP3 DUP3 MSTORE PUSH1 0x20 DUP3 ADD SWAP1 POP SWAP3 SWAP2 POP POP JUMP JUMPDEST PUSH0 DUP2 SWAP1 POP PUSH1 0x20 DUP3 ADD SWAP1 POP SWAP2 SWAP1 POP JUMP JUMPDEST PUSH2 0x1785 DUP2 PUSH2 0x1504 JUMP JUMPDEST DUP3 MSTORE POP POP JUMP JUMPDEST PUSH1 0x60 DUP3 ADD PUSH0 DUP3 ADD MLOAD PUSH2 0x179F PUSH0 DUP6 ADD DUP3 PUSH2 0x177C JUMP JUMPDEST POP PUSH1 0x20 DUP3 ADD MLOAD PUSH2 0x17B2 PUSH1 0x20 DUP6 ADD DUP3 PUSH2 0x177C JUMP JUMPDEST POP PUSH1 0x40 DUP3 ADD MLOAD PUSH2 0x17C5 PUSH1 0x40 DUP6 ADD DUP3 PUSH2 0x15FD JUMP JUMPDEST POP POP POP POP JUMP JUMPDEST PUSH0 PUSH2 0x17D6 DUP4 DUP4 PUSH2 0x178B JUMP JUMPDEST PUSH1 0x60 DUP4 ADD SWAP1 POP SWAP3 SWAP2 POP POP JUMP JUMPDEST PUSH0 PUSH1 0x20 DUP3 ADD SWAP1 POP SWAP2 SWAP1 POP JUMP JUMPDEST PUSH0 PUSH2 0x17F8 DUP3 PUSH2 0x1753 JUMP JUMPDEST PUSH2 0x1802 DUP2 DUP6 PUSH2 0x175D JUMP JUMPDEST SWAP4 POP PUSH2 0x180D DUP4 PUSH2 0x176D JUMP JUMPDEST DUP1 PUSH0 JUMPDEST DUP4 DUP2 LT ISZERO PUSH2 0x183D JUMPI DUP2 MLOAD PUSH2 0x1824 DUP9 DUP3 PUSH2 0x17CB JUMP JUMPDEST SWAP8 POP PUSH2 0x182F DUP4 PUSH2 0x17E2 JUMP JUMPDEST SWAP3 POP POP PUSH1 0x1 DUP2 ADD SWAP1 POP PUSH2 0x1810 JUMP JUMPDEST POP DUP6 SWAP4 POP POP POP POP SWAP3 SWAP2 POP POP JUMP JUMPDEST PUSH0 PUSH1 0x20 DUP3 ADD SWAP1 POP DUP2 DUP2 SUB PUSH0 DUP4 ADD MSTORE PUSH2 0x1862 DUP2 DUP5 PUSH2 0x17EE JUMP JUMPDEST SWAP1 POP SWAP3 SWAP2 POP POP JUMP JUMPDEST PUSH2 0x1873 DUP2 PUSH2 0x1504 JUMP JUMPDEST DUP2 EQ PUSH2 0x187D JUMPI PUSH0 PUSH0 REVERT JUMPDEST POP JUMP JUMPDEST PUSH0 DUP2 CALLDATALOAD SWAP1 POP PUSH2 0x188E DUP2 PUSH2 0x186A JUMP JUMPDEST SWAP3 SWAP2 POP POP JUMP JUMPDEST PUSH0 PUSH1 0x20 DUP3 DUP5 SUB SLT ISZERO PUSH2 0x18A9 JUMPI PUSH2 0x18A8 PUSH2 0x1448 JUMP JUMPDEST JUMPDEST PUSH0 PUSH2 0x18B6 DUP5 DUP3 DUP6 ADD PUSH2 0x1880 JUMP JUMPDEST SWAP2 POP POP SWAP3 SWAP2 POP POP JUMP JUMPDEST PUSH0 PUSH1 0x60 DUP3 ADD SWAP1 POP PUSH2 0x18D2 PUSH0 DUP4 ADD DUP7 PUSH2 0x150D JUMP JUMPDEST PUSH2 0x18DF PUSH1 0x20 DUP4 ADD DUP6 PUSH2 0x150D JUMP JUMPDEST PUSH2 0x18EC PUSH1 0x40 DUP4 ADD DUP5 PUSH2 0x15C5 JUMP JUMPDEST SWAP5 SWAP4 POP POP POP POP JUMP JUMPDEST PUSH0 PUSH1 0x20 DUP3 ADD SWAP1 POP DUP2 DUP2 SUB PUSH0 DUP4 ADD MSTORE PUSH2 0x190C DUP2 DUP5 PUSH2 0x162F JUMP JUMPDEST SWAP1 POP SWAP3 SWAP2 POP POP JUMP JUMPDEST PUSH32 0x41756374696F6E206E6F742066696E616C697A65640000000000000000000000 PUSH0 DUP3 ADD MSTORE POP JUMP JUMPDEST PUSH0 PUSH2 0x1948 PUSH1 0x15 DUP4 PUSH2 0x153F JUMP JUMPDEST SWAP2 POP PUSH2 0x1953 DUP3 PUSH2 0x1914 JUMP JUMPDEST PUSH1 0x20 DUP3 ADD SWAP1 POP SWAP2 SWAP1 POP JUMP JUMPDEST PUSH0 PUSH1 0x20 DUP3 ADD SWAP1 POP DUP2 DUP2 SUB PUSH0 DUP4 ADD MSTORE PUSH2 0x1975 DUP2 PUSH2 0x193C JUMP JUMPDEST SWAP1 POP SWAP2 SWAP1 POP JUMP JUMPDEST PUSH32 0x4F6E6C792077696E6E65722063616E2061636365737320746865206461746100 PUSH0 DUP3 ADD MSTORE POP JUMP JUMPDEST PUSH0 PUSH2 0x19B0 PUSH1 0x1F DUP4 PUSH2 0x153F JUMP JUMPDEST SWAP2 POP PUSH2 0x19BB DUP3 PUSH2 0x197C JUMP JUMPDEST PUSH1 0x20 DUP3 ADD SWAP1 POP SWAP2 SWAP1 POP JUMP JUMPDEST PUSH0 PUSH1 0x20 DUP3 ADD SWAP1 POP DUP2 DUP2 SUB PUSH0 DUP4 ADD MSTORE PUSH2 0x19DD DUP2 PUSH2 0x19A4 JUMP JUMPDEST SWAP1 POP SWAP2 SWAP1 POP JUMP JUMPDEST PUSH32 0x4E487B7100000000000000000000000000000000000000000000000000000000 PUSH0 MSTORE PUSH1 0x22 PUSH1 0x4 MSTORE PUSH1 0x24 PUSH0 REVERT JUMPDEST PUSH0 PUSH1 0x2 DUP3 DIV SWAP1 POP PUSH1 0x1 DUP3 AND DUP1 PUSH2 0x1A28 JUMPI PUSH1 0x7F DUP3 AND SWAP2 POP JUMPDEST PUSH1 0x20 DUP3 LT DUP2 SUB PUSH2 0x1A3B JUMPI PUSH2 0x1A3A PUSH2 0x19E4 JUMP JUMPDEST JUMPDEST POP SWAP2 SWAP1 POP JUMP JUMPDEST PUSH32 0x41756374696F6E206E6F7420656E646564207965740000000000000000000000 PUSH0 DUP3 ADD MSTORE POP JUMP JUMPDEST PUSH0 PUSH2 0x1A75 PUSH1 0x15 DUP4 PUSH2 0x153F JUMP JUMPDEST SWAP2 POP PUSH2 0x1A80 DUP3 PUSH2 0x1A41 JUMP JUMPDEST PUSH1 0x20 DUP3 ADD SWAP1 POP SWAP2 SWAP1 POP JUMP JUMPDEST PUSH0 PUSH1 0x20 DUP3 ADD SWAP1 POP DUP2 DUP2 SUB PUSH0 DUP4 ADD MSTORE PUSH2 0x1AA2 DUP2 PUSH2 0x1A69 JUMP JUMPDEST SWAP1 POP SWAP2 SWAP1 POP JUMP JUMPDEST PUSH32 0x41756374696F6E20616C72656164792066696E616C697A656400000000000000 PUSH0 DUP3 ADD MSTORE POP JUMP JUMPDEST PUSH0 PUSH2 0x1ADD PUSH1 0x19 DUP4 PUSH2 0x153F JUMP JUMPDEST SWAP2 POP PUSH2 0x1AE8 DUP3 PUSH2 0x1AA9 JUMP JUMPDEST PUSH1 0x20 DUP3 ADD SWAP1 POP SWAP2 SWAP1 POP JUMP JUMPDEST PUSH0 PUSH1 0x20 DUP3 ADD SWAP1 POP DUP2 DUP2 SUB PUSH0 DUP4 ADD MSTORE PUSH2 0x1B0A DUP2 PUSH2 0x1AD1 JUMP JUMPDEST SWAP1 POP SWAP2 SWAP1 POP JUMP JUMPDEST PUSH32 0x4E487B7100000000000000000000000000000000000000000000000000000000 PUSH0 MSTORE PUSH1 0x32 PUSH1 0x4 MSTORE PUSH1 0x24 PUSH0 REVERT JUMPDEST PUSH32 0x496E73756666696369656E742062616C616E6365000000000000000000000000 PUSH0 DUP3 ADD MSTORE POP JUMP JUMPDEST PUSH0 PUSH2 0x1B72 PUSH1 0x14 DUP4 PUSH2 0x153F JUMP JUMPDEST SWAP2 POP PUSH2 0x1B7D DUP3 PUSH2 0x1B3E JUMP JUMPDEST PUSH1 0x20 DUP3 ADD SWAP1 POP SWAP2 SWAP1 POP JUMP JUMPDEST PUSH0 PUSH1 0x20 DUP3 ADD SWAP1 POP DUP2 DUP2 SUB PUSH0 DUP4 ADD MSTORE PUSH2 0x1B9F DUP2 PUSH2 0x1B66 JUMP JUMPDEST SWAP1 POP SWAP2 SWAP1 POP JUMP JUMPDEST PUSH32 0x41756374696F6E20656E64656400000000000000000000000000000000000000 PUSH0 DUP3 ADD MSTORE POP JUMP JUMPDEST PUSH0 PUSH2 0x1BDA PUSH1 0xD DUP4 PUSH2 0x153F JUMP JUMPDEST SWAP2 POP PUSH2 0x1BE5 DUP3 PUSH2 0x1BA6 JUMP JUMPDEST PUSH1 0x20 DUP3 ADD SWAP1 POP SWAP2 SWAP1 POP JUMP JUMPDEST PUSH0 PUSH1 0x20 DUP3 ADD SWAP1 POP DUP2 DUP2 SUB PUSH0 DUP4 ADD MSTORE PUSH2 0x1C07 DUP2 PUSH2 0x1BCE JUMP JUMPDEST SWAP1 POP SWAP2 SWAP1 POP JUMP JUMPDEST PUSH32 0x596F752063616E277420626964206F6E20796F7572206F776E2061756374696F PUSH0 DUP3 ADD MSTORE PUSH32 0x6E00000000000000000000000000000000000000000000000000000000000000 PUSH1 0x20 DUP3 ADD MSTORE POP JUMP JUMPDEST PUSH0 PUSH2 0x1C68 PUSH1 0x21 DUP4 PUSH2 0x153F JUMP JUMPDEST SWAP2 POP PUSH2 0x1C73 DUP3 PUSH2 0x1C0E JUMP JUMPDEST PUSH1 0x40 DUP3 ADD SWAP1 POP SWAP2 SWAP1 POP JUMP JUMPDEST PUSH0 PUSH1 0x20 DUP3 ADD SWAP1 POP DUP2 DUP2 SUB PUSH0 DUP4 ADD MSTORE PUSH2 0x1C95 DUP2 PUSH2 0x1C5C JUMP JUMPDEST SWAP1 POP SWAP2 SWAP1 POP JUMP JUMPDEST PUSH32 0x4D7573742073656E6420736F6D65206574686572000000000000000000000000 PUSH0 DUP3 ADD MSTORE POP JUMP JUMPDEST PUSH0 PUSH2 0x1CD0 PUSH1 0x14 DUP4 PUSH2 0x153F JUMP JUMPDEST SWAP2 POP PUSH2 0x1CDB DUP3 PUSH2 0x1C9C JUMP JUMPDEST PUSH1 0x20 DUP3 ADD SWAP1 POP SWAP2 SWAP1 POP JUMP JUMPDEST PUSH0 PUSH1 0x20 DUP3 ADD SWAP1 POP DUP2 DUP2 SUB PUSH0 DUP4 ADD MSTORE PUSH2 0x1CFD DUP2 PUSH2 0x1CC4 JUMP JUMPDEST SWAP1 POP SWAP2 SWAP1 POP JUMP JUMPDEST PUSH32 0x4E487B7100000000000000000000000000000000000000000000000000000000 PUSH0 MSTORE PUSH1 0x11 PUSH1 0x4 MSTORE PUSH1 0x24 PUSH0 REVERT JUMPDEST PUSH0 PUSH2 0x1D3B DUP3 PUSH2 0x1504 JUMP JUMPDEST SWAP2 POP PUSH2 0x1D46 DUP4 PUSH2 0x1504 JUMP JUMPDEST SWAP3 POP DUP3 DUP3 ADD SWAP1 POP DUP1 DUP3 GT ISZERO PUSH2 0x1D5E JUMPI PUSH2 0x1D5D PUSH2 0x1D04 JUMP JUMPDEST JUMPDEST SWAP3 SWAP2 POP POP JUMP JUMPDEST PUSH32 0x42656C6F77206D696E696D756D20626964000000000000000000000000000000 PUSH0 DUP3 ADD MSTORE POP JUMP JUMPDEST PUSH0 PUSH2 0x1D98 PUSH1 0x11 DUP4 PUSH2 0x153F JUMP JUMPDEST SWAP2 POP PUSH2 0x1DA3 DUP3 PUSH2 0x1D64 JUMP JUMPDEST PUSH1 0x20 DUP3 ADD SWAP1 POP SWAP2 SWAP1 POP JUMP JUMPDEST PUSH0 PUSH1 0x20 DUP3 ADD SWAP1 POP DUP2 DUP2 SUB PUSH0 DUP4 ADD MSTORE PUSH2 0x1DC5 DUP2 PUSH2 0x1D8C JUMP JUMPDEST SWAP1 POP SWAP2 SWAP1 POP JUMP JUMPDEST PUSH32 0x426964206D757374206578636565642063757272656E74206869676865737400 PUSH0 DUP3 ADD MSTORE POP JUMP JUMPDEST PUSH0 PUSH2 0x1E00 PUSH1 0x1F DUP4 PUSH2 0x153F JUMP JUMPDEST SWAP2 POP PUSH2 0x1E0B DUP3 PUSH2 0x1DCC JUMP JUMPDEST PUSH1 0x20 DUP3 ADD SWAP1 POP SWAP2 SWAP1 POP JUMP JUMPDEST PUSH0 PUSH1 0x20 DUP3 ADD SWAP1 POP DUP2 DUP2 SUB PUSH0 DUP4 ADD MSTORE PUSH2 0x1E2D DUP2 PUSH2 0x1DF4 JUMP JUMPDEST SWAP1 POP SWAP2 SWAP1 POP JUMP JUMPDEST PUSH0 PUSH2 0x1E3E DUP3 PUSH2 0x1504 JUMP JUMPDEST SWAP2 POP PUSH32 0xFFFFFFFFFFFFFFFFFFFFFFFFFFFFFFFFFFFFFFFFFFFFFFFFFFFFFFFFFFFFFFFF DUP3 SUB PUSH2 0x1E70 JUMPI PUSH2 0x1E6F PUSH2 0x1D04 JUMP JUMPDEST JUMPDEST PUSH1 0x1 DUP3 ADD SWAP1 POP SWAP2 SWAP1 POP JUMP INVALID LOG2 PUSH5 0x6970667358 0x22 SLT KECCAK256 0x29 SUB 0x2C LOG0 0xDE SDIV 0xDB 0xCE 0x2E 0x4E GASPRICE LOG1 0xD2 PUSH19 0xEA7060CD469D1C9375A7A2587AA855D9BC8D64 PUSH20 0x6F6C634300081E00330000000000000000000000 "},"gasEstimates":{"creation":{"codeDepositCost":"1571400","executionCost":"infinite","totalCost":"infinite"},"external":{"addresses(uint256)":"5076","approvers(address)":"2857","approversCount()":"2448","approversMoney(address)":"2891","closed()":"2533","contribute()":"infinite","dataDescription()":"infinite","dataForSell()":"infinite","endTime()":"2471","finalizeAuctionIfNeeded()":"infinite","getAddresses()":"infinite","getBid(address)":"2895","getData()":"infinite","getStatus()":"2496","getSummary()":"infinite","getTransactions()":"infinite","highestBid()":"2513","highestBidder()":"2575","manager()":"2619","minimumContribution()":"2514","transactions(uint256)":"infinite"}},"methodIdentifiers":{"addresses(uint256)":"edf26d9b","approvers(address)":"0a144391","approversCount()":"82fde093","approversMoney(address)":"5dc1d641","closed()":"597e1fb5","contribute()":"d7bb99ba","dataDescription()":"58d65629","dataForSell()":"7b87d856","endTime()":"3197cbb6","finalizeAuctionIfNeeded()":"976af615","getAddresses()":"a39fac12","getBid(address)":"c8b342ab","getData()":"3bc5de30","getStatus()":"4e69d560","getSummary()":"4051ddac","getTransactions()":"83920e90","highestBid()":"d57bde79","highestBidder()":"91f90157","manager()":"481c6a75","minimumContribution()":"937e09b1","transactions(uint256)":"9ace38c2"}},"storageLayout":{"storage":[{"astId":22,"contract":"Campaign.sol:Campaign","label":"manager","offset":0,"slot":"0","type":"t_address"},{"astId":24,"contract":"Campaign.sol:Campaign","label":"minimumContribution","offset":0,"slot":"1","type":"t_uint256"},{"astId":26,"contract":"Campaign.sol:Campaign","label":"dataForSell","offset":0,"slot":"2","type":"t_string_storage"},{"astId":28,"contract":"Campaign.sol:Campaign","label":"dataDescription","offset":0,"slot":"3","type":"t_string_storage"},{"astId":32,"contract":"Campaign.sol:Campaign","label":"approvers","offset":0,"slot":"4","type":"t_mapping(t_address,t_bool)"},{"astId":36,"contract":"Campaign.sol:Campaign","label":"approversMoney","offset":0,"slot":"5","type":"t_mapping(t_address,t_uint256)"},{"astId":38,"contract":"Campaign.sol:Campaign","label":"approversCount","offset":0,"slot":"6","type":"t_uint256"},{"astId":41,"contract":"Campaign.sol:Campaign","label":"addresses","offset":0,"slot":"7","type":"t_array(t_address)dyn_storage"},{"astId":45,"contract":"Campaign.sol:Campaign","label":"transactions","offset":0,"slot":"8","type":"t_array(t_struct(Bid)20_storage)dyn_storage"},{"astId":47,"contract":"Campaign.sol:Campaign","label":"highestBidder","offset":0,"slot":"9","type":"t_address"},{"astId":49,"contract":"Campaign.sol:Campaign","label":"highestBid","offset":0,"slot":"10","type":"t_uint256"},{"astId":51,"contract":"Campaign.sol:Campaign","label":"endTime","offset":0,"slot":"11","type":"t_uint256"},{"astId":53,"contract":"Campaign.sol:Campaign","label":"closed","offset":0,"slot":"12","type":"t_bool"}],"types":{"t_address":{"encoding":"inplace","label":"address","numberOfBytes":"20"},"t_array(t_address)dyn_storage":{"base":"t_address","encoding":"dynamic_array","label":"address[]","numberOfBytes":"32"},"t_array(t_struct(Bid)20_storage)dyn_storage":{"base":"t_struct(Bid)20_storage","encoding":"dynamic_array","label":"struct Campaign.Bid[]","numberOfBytes":"32"},"t_bool":{"encoding":"inplace","label":"bool","numberOfBytes":"1"},"t_mapping(t_address,t_bool)":{"encoding":"mapping","key":"t_address","label":"mapping(address => bool)","numberOfBytes":"32","value":"t_bool"},"t_mapping(t_address,t_uint256)":{"encoding":"mapping","key":"t_address","label":"mapping(address => uint256)","numberOfBytes":"32","value":"t_uint256"},"t_string_storage":{"encoding":"bytes","label":"string","numberOfBytes":"32"},"t_struct(Bid)20_storage":{"encoding":"inplace","label":"struct Campaign.Bid","members":[{"astId":15,"contract":"Campaign.sol:Campaign","label":"value","offset":0,"slot":"0","type":"t_uint256"},{"astId":17,"contract":"Campaign.sol:Campaign","label":"time","offset":0,"slot":"1","type":"t_uint256"},{"astId":19,"contract":"Campaign.sol:Campaign","label":"bidderAddress","offset":0,"slot":"2","type":"t_address"}],"numberOfBytes":"96"},"t_uint256":{"encoding":"inplace","label":"uint256","numberOfBytes":"32"}}},"transientStorageLayout":{"storage":[],"types":null},"userdoc":{"kind":"user","methods":{},"version":1}}