{"abi":[{"inputs":[],"name":"checkEndedAuctions","outputs":[],"stateMutability":"payable","type":"function"},{"inputs":[{"internalType":"uint256","name":"minimum","type":"uint256"},{"internalType":"string","name":"dataSell","type":"string"},{"internalType":"string","name":"dataDesc","type":"string"},{"internalType":"uint256","name":"duration","type":"uint256"}],"name":"createCampaign","outputs":[],"stateMutability":"nonpayable","type":"function"},{"inputs":[{"internalType":"uint256","name":"","type":"uint256"}],"name":"deployedCampaigns","outputs":[{"internalType":"address payable","name":"","type":"address"}],"stateMutability":"view","type":"function"},{"inputs":[],"name":"getDeployedCampaigns","outputs":[{"internalType":"address payable[]","name":"","type":"address[]"}],"stateMutability":"view","type":"function"}],"devdoc":{"kind":"dev","methods":{},"version":1},"evm":{"assembly":"    /* \"Campaign.sol\":92:1112  contract CampaignFactory {... */\n  mstore(0x40, 0x80)\n  callvalue\n  dup1\n  iszero\n  tag_1\n  jumpi\n  0x00\n  dup1\n  revert\ntag_1:\n  pop\n  dataSize(sub_0)\n  dup1\n  dataOffset(sub_0)\n  0x00\n  codecopy\n  0x00\n  return\nstop\n\nsub_0: assembly {\n        /* \"Campaign.sol\":92:1112  contract CampaignFactory {... */\n      mstore(0x40, 0x80)\n      jumpi(tag_1, lt(calldatasize, 0x04))\n      shr(0xe0, calldataload(0x00))\n      dup1\n      0x339d50a5\n      eq\n      tag_2\n      jumpi\n      dup1\n      0x4acb9d4f\n      eq\n      tag_3\n      jumpi\n      dup1\n      0x75da6ba0\n      eq\n      tag_4\n      jumpi\n      dup1\n      0xdc117416\n      eq\n      tag_5\n      jumpi\n    tag_1:\n      0x00\n      dup1\n      revert\n        /* \"Campaign.sol\":123:165  address payable[] public deployedCampaigns */\n    tag_2:\n      callvalue\n      dup1\n      iszero\n      tag_6\n      jumpi\n      0x00\n      dup1\n      revert\n    tag_6:\n      pop\n      tag_7\n      0x04\n      dup1\n      calldatasize\n      sub\n      dup2\n      add\n      swap1\n      tag_8\n      swap2\n      swap1\n      tag_9\n      jump\t// in\n    tag_8:\n      tag_10\n      jump\t// in\n    tag_7:\n      mload(0x40)\n      tag_11\n      swap2\n      swap1\n      tag_12\n      jump\t// in\n    tag_11:\n      mload(0x40)\n      dup1\n      swap2\n      sub\n      swap1\n      return\n        /* \"Campaign.sol\":676:824  function getDeployedCampaigns()... */\n    tag_3:\n      callvalue\n      dup1\n      iszero\n      tag_13\n      jumpi\n      0x00\n      dup1\n      revert\n    tag_13:\n      pop\n      tag_14\n      tag_15\n      jump\t// in\n    tag_14:\n      mload(0x40)\n      tag_16\n      swap2\n      swap1\n      tag_17\n      jump\t// in\n    tag_16:\n      mload(0x40)\n      dup1\n      swap2\n      sub\n      swap1\n      return\n        /* \"Campaign.sol\":830:1110  function checkEndedAuctions() public payable {... */\n    tag_4:\n      tag_18\n      tag_19\n      jump\t// in\n    tag_18:\n      stop\n        /* \"Campaign.sol\":172:670  function createCampaign(... */\n    tag_5:\n      callvalue\n      dup1\n      iszero\n      tag_20\n      jumpi\n      0x00\n      dup1\n      revert\n    tag_20:\n      pop\n      tag_21\n      0x04\n      dup1\n      calldatasize\n      sub\n      dup2\n      add\n      swap1\n      tag_22\n      swap2\n      swap1\n      tag_23\n      jump\t// in\n    tag_22:\n      tag_24\n      jump\t// in\n    tag_21:\n      stop\n        /* \"Campaign.sol\":123:165  address payable[] public deployedCampaigns */\n    tag_10:\n      0x00\n      dup2\n      dup2\n      sload\n      dup2\n      lt\n      tag_25\n      jumpi\n      0x00\n      dup1\n      revert\n    tag_25:\n      swap1\n      0x00\n      mstore\n      keccak256(0x00, 0x20)\n      add\n      0x00\n      swap2\n      pop\n      sload\n      swap1\n      0x0100\n      exp\n      swap1\n      div\n      0xffffffffffffffffffffffffffffffffffffffff\n      and\n      dup2\n      jump\t// out\n        /* \"Campaign.sol\":676:824  function getDeployedCampaigns()... */\n    tag_15:\n        /* \"Campaign.sol\":753:777  address payable[] memory */\n      0x60\n        /* \"Campaign.sol\":800:817  deployedCampaigns */\n      0x00\n        /* \"Campaign.sol\":793:817  return deployedCampaigns */\n      dup1\n      sload\n      dup1\n      0x20\n      mul\n      0x20\n      add\n      mload(0x40)\n      swap1\n      dup2\n      add\n      0x40\n      mstore\n      dup1\n      swap3\n      swap2\n      swap1\n      dup2\n      dup2\n      mstore\n      0x20\n      add\n      dup3\n      dup1\n      sload\n      dup1\n      iszero\n      tag_28\n      jumpi\n      0x20\n      mul\n      dup3\n      add\n      swap2\n      swap1\n      0x00\n      mstore\n      keccak256(0x00, 0x20)\n      swap1\n    tag_29:\n      dup2\n      0x00\n      swap1\n      sload\n      swap1\n      0x0100\n      exp\n      swap1\n      div\n      0xffffffffffffffffffffffffffffffffffffffff\n      and\n      0xffffffffffffffffffffffffffffffffffffffff\n      and\n      dup2\n      mstore\n      0x20\n      add\n      swap1\n      0x01\n      add\n      swap1\n      dup1\n      dup4\n      gt\n      tag_29\n      jumpi\n    tag_28:\n      pop\n      pop\n      pop\n      pop\n      pop\n      swap1\n      pop\n        /* \"Campaign.sol\":676:824  function getDeployedCampaigns()... */\n      swap1\n      jump\t// out\n        /* \"Campaign.sol\":830:1110  function checkEndedAuctions() public payable {... */\n    tag_19:\n        /* \"Campaign.sol\":885:908  uint256 campaignsLength */\n      0x00\n        /* \"Campaign.sol\":911:928  deployedCampaigns */\n      dup1\n        /* \"Campaign.sol\":911:935  deployedCampaigns.length */\n      dup1\n      sload\n      swap1\n      pop\n        /* \"Campaign.sol\":885:935  uint256 campaignsLength = deployedCampaigns.length */\n      swap1\n      pop\n        /* \"Campaign.sol\":950:959  uint256 i */\n      0x00\n        /* \"Campaign.sol\":945:1104  for (uint256 i = 0; i < campaignsLength; i++) {... */\n    tag_31:\n        /* \"Campaign.sol\":969:984  campaignsLength */\n      dup2\n        /* \"Campaign.sol\":965:966  i */\n      dup2\n        /* \"Campaign.sol\":965:984  i < campaignsLength */\n      lt\n        /* \"Campaign.sol\":945:1104  for (uint256 i = 0; i < campaignsLength; i++) {... */\n      iszero\n      tag_32\n      jumpi\n        /* \"Campaign.sol\":1005:1022  Campaign campaign */\n      0x00\n        /* \"Campaign.sol\":1034:1051  deployedCampaigns */\n      dup1\n        /* \"Campaign.sol\":1052:1053  i */\n      dup3\n        /* \"Campaign.sol\":1034:1054  deployedCampaigns[i] */\n      dup2\n      sload\n      dup2\n      lt\n      tag_34\n      jumpi\n      tag_35\n      tag_36\n      jump\t// in\n    tag_35:\n    tag_34:\n      swap1\n      0x00\n      mstore\n      keccak256(0x00, 0x20)\n      add\n      0x00\n      swap1\n      sload\n      swap1\n      0x0100\n      exp\n      swap1\n      div\n      0xffffffffffffffffffffffffffffffffffffffff\n      and\n        /* \"Campaign.sol\":1005:1055  Campaign campaign = Campaign(deployedCampaigns[i]) */\n      swap1\n      pop\n        /* \"Campaign.sol\":1069:1077  campaign */\n      dup1\n        /* \"Campaign.sol\":1069:1091  campaign.EndedAuctions */\n      0xffffffffffffffffffffffffffffffffffffffff\n      and\n      0x8d2a1dad\n        /* \"Campaign.sol\":1069:1093  campaign.EndedAuctions() */\n      mload(0x40)\n      dup2\n      0xffffffff\n      and\n      0xe0\n      shl\n      dup2\n      mstore\n      0x04\n      add\n      0x00\n      mload(0x40)\n      dup1\n      dup4\n      sub\n      dup2\n      0x00\n      dup8\n      dup1\n      extcodesize\n      iszero\n      dup1\n      iszero\n      tag_38\n      jumpi\n      0x00\n      dup1\n      revert\n    tag_38:\n      pop\n      gas\n      call\n      iszero\n      dup1\n      iszero\n      tag_40\n      jumpi\n      returndatasize\n      0x00\n      dup1\n      returndatacopy\n      revert(0x00, returndatasize)\n    tag_40:\n      pop\n      pop\n      pop\n      pop\n        /* \"Campaign.sol\":991:1104  {... */\n      pop\n        /* \"Campaign.sol\":986:989  i++ */\n      dup1\n      dup1\n      tag_41\n      swap1\n      tag_42\n      jump\t// in\n    tag_41:\n      swap2\n      pop\n      pop\n        /* \"Campaign.sol\":945:1104  for (uint256 i = 0; i < campaignsLength; i++) {... */\n      jump(tag_31)\n    tag_32:\n      pop\n        /* \"Campaign.sol\":875:1110  {... */\n      pop\n        /* \"Campaign.sol\":830:1110  function checkEndedAuctions() public payable {... */\n      jump\t// out\n        /* \"Campaign.sol\":172:670  function createCampaign(... */\n    tag_24:\n        /* \"Campaign.sol\":406:417  uint256 dur */\n      0x00\n        /* \"Campaign.sol\":436:451  block.timestamp */\n      timestamp\n        /* \"Campaign.sol\":425:433  duration */\n      dup3\n        /* \"Campaign.sol\":420:422  60 */\n      0x3c\n        /* \"Campaign.sol\":420:433  60 * duration */\n      tag_44\n      swap2\n      swap1\n      tag_45\n      jump\t// in\n    tag_44:\n        /* \"Campaign.sol\":420:451  60 * duration + block.timestamp */\n      tag_46\n      swap2\n      swap1\n      tag_47\n      jump\t// in\n    tag_46:\n        /* \"Campaign.sol\":406:451  uint256 dur = 60 * duration + block.timestamp */\n      swap1\n      pop\n        /* \"Campaign.sol\":498:517  address newCampaign */\n      0x00\n        /* \"Campaign.sol\":554:561  minimum */\n      dup6\n        /* \"Campaign.sol\":563:571  dataSell */\n      dup6\n        /* \"Campaign.sol\":573:581  dataDesc */\n      dup6\n        /* \"Campaign.sol\":583:593  msg.sender */\n      caller\n        /* \"Campaign.sol\":595:598  dur */\n      dup6\n        /* \"Campaign.sol\":541:599  new Campaign(minimum, dataSell, dataDesc, msg.sender, dur) */\n      mload(0x40)\n      tag_48\n      swap1\n      tag_49\n      jump\t// in\n    tag_48:\n      tag_50\n      swap6\n      swap5\n      swap4\n      swap3\n      swap2\n      swap1\n      tag_51\n      jump\t// in\n    tag_50:\n      mload(0x40)\n      dup1\n      swap2\n      sub\n      swap1\n      0x00\n      create\n      dup1\n      iszero\n      dup1\n      iszero\n      tag_52\n      jumpi\n      returndatasize\n      0x00\n      dup1\n      returndatacopy\n      revert(0x00, returndatasize)\n    tag_52:\n      pop\n        /* \"Campaign.sol\":498:609  address newCampaign = address(... */\n      swap1\n      pop\n        /* \"Campaign.sol\":619:636  deployedCampaigns */\n      0x00\n        /* \"Campaign.sol\":650:661  newCampaign */\n      dup2\n        /* \"Campaign.sol\":619:663  deployedCampaigns.push(payable(newCampaign)) */\n      swap1\n      dup1\n      0x01\n      dup2\n      sload\n      add\n      dup1\n      dup3\n      sstore\n      dup1\n      swap2\n      pop\n      pop\n      0x01\n      swap1\n      sub\n      swap1\n      0x00\n      mstore\n      keccak256(0x00, 0x20)\n      add\n      0x00\n      swap1\n      swap2\n      swap1\n      swap2\n      swap1\n      swap2\n      0x0100\n      exp\n      dup2\n      sload\n      dup2\n      0xffffffffffffffffffffffffffffffffffffffff\n      mul\n      not\n      and\n      swap1\n      dup4\n      0xffffffffffffffffffffffffffffffffffffffff\n      and\n      mul\n      or\n      swap1\n      sstore\n      pop\n        /* \"Campaign.sol\":396:670  {... */\n      pop\n      pop\n        /* \"Campaign.sol\":172:670  function createCampaign(... */\n      pop\n      pop\n      pop\n      pop\n      jump\t// out\n    tag_49:\n      dataSize(sub_0)\n      dup1\n      dataOffset(sub_0)\n      dup4\n      codecopy\n      add\n      swap1\n      jump\t// out\n        /* \"#utility.yul\":7:82   */\n    tag_54:\n        /* \"#utility.yul\":40:46   */\n      0x00\n        /* \"#utility.yul\":73:75   */\n      0x40\n        /* \"#utility.yul\":67:76   */\n      mload\n        /* \"#utility.yul\":57:76   */\n      swap1\n      pop\n        /* \"#utility.yul\":7:82   */\n      swap1\n      jump\t// out\n        /* \"#utility.yul\":88:205   */\n    tag_55:\n        /* \"#utility.yul\":197:198   */\n      0x00\n        /* \"#utility.yul\":194:195   */\n      dup1\n        /* \"#utility.yul\":187:199   */\n      revert\n        /* \"#utility.yul\":211:328   */\n    tag_56:\n        /* \"#utility.yul\":320:321   */\n      0x00\n        /* \"#utility.yul\":317:318   */\n      dup1\n        /* \"#utility.yul\":310:322   */\n      revert\n        /* \"#utility.yul\":334:411   */\n    tag_57:\n        /* \"#utility.yul\":371:378   */\n      0x00\n        /* \"#utility.yul\":400:405   */\n      dup2\n        /* \"#utility.yul\":389:405   */\n      swap1\n      pop\n        /* \"#utility.yul\":334:411   */\n      swap2\n      swap1\n      pop\n      jump\t// out\n        /* \"#utility.yul\":417:539   */\n    tag_58:\n        /* \"#utility.yul\":490:514   */\n      tag_94\n        /* \"#utility.yul\":508:513   */\n      dup2\n        /* \"#utility.yul\":490:514   */\n      tag_57\n      jump\t// in\n    tag_94:\n        /* \"#utility.yul\":483:488   */\n      dup2\n        /* \"#utility.yul\":480:515   */\n      eq\n        /* \"#utility.yul\":470:533   */\n      tag_95\n      jumpi\n        /* \"#utility.yul\":529:530   */\n      0x00\n        /* \"#utility.yul\":526:527   */\n      dup1\n        /* \"#utility.yul\":519:531   */\n      revert\n        /* \"#utility.yul\":470:533   */\n    tag_95:\n        /* \"#utility.yul\":417:539   */\n      pop\n      jump\t// out\n        /* \"#utility.yul\":545:684   */\n    tag_59:\n        /* \"#utility.yul\":591:596   */\n      0x00\n        /* \"#utility.yul\":629:635   */\n      dup2\n        /* \"#utility.yul\":616:636   */\n      calldataload\n        /* \"#utility.yul\":607:636   */\n      swap1\n      pop\n        /* \"#utility.yul\":645:678   */\n      tag_97\n        /* \"#utility.yul\":672:677   */\n      dup2\n        /* \"#utility.yul\":645:678   */\n      tag_58\n      jump\t// in\n    tag_97:\n        /* \"#utility.yul\":545:684   */\n      swap3\n      swap2\n      pop\n      pop\n      jump\t// out\n        /* \"#utility.yul\":690:1019   */\n    tag_9:\n        /* \"#utility.yul\":749:755   */\n      0x00\n        /* \"#utility.yul\":798:800   */\n      0x20\n        /* \"#utility.yul\":786:795   */\n      dup3\n        /* \"#utility.yul\":777:784   */\n      dup5\n        /* \"#utility.yul\":773:796   */\n      sub\n        /* \"#utility.yul\":769:801   */\n      slt\n        /* \"#utility.yul\":766:885   */\n      iszero\n      tag_99\n      jumpi\n        /* \"#utility.yul\":804:883   */\n      tag_100\n      tag_55\n      jump\t// in\n    tag_100:\n        /* \"#utility.yul\":766:885   */\n    tag_99:\n        /* \"#utility.yul\":924:925   */\n      0x00\n        /* \"#utility.yul\":949:1002   */\n      tag_101\n        /* \"#utility.yul\":994:1001   */\n      dup5\n        /* \"#utility.yul\":985:991   */\n      dup3\n        /* \"#utility.yul\":974:983   */\n      dup6\n        /* \"#utility.yul\":970:992   */\n      add\n        /* \"#utility.yul\":949:1002   */\n      tag_59\n      jump\t// in\n    tag_101:\n        /* \"#utility.yul\":939:1002   */\n      swap2\n      pop\n        /* \"#utility.yul\":895:1012   */\n      pop\n        /* \"#utility.yul\":690:1019   */\n      swap3\n      swap2\n      pop\n      pop\n      jump\t// out\n        /* \"#utility.yul\":1025:1151   */\n    tag_60:\n        /* \"#utility.yul\":1062:1069   */\n      0x00\n        /* \"#utility.yul\":1102:1144   */\n      0xffffffffffffffffffffffffffffffffffffffff\n        /* \"#utility.yul\":1095:1100   */\n      dup3\n        /* \"#utility.yul\":1091:1145   */\n      and\n        /* \"#utility.yul\":1080:1145   */\n      swap1\n      pop\n        /* \"#utility.yul\":1025:1151   */\n      swap2\n      swap1\n      pop\n      jump\t// out\n        /* \"#utility.yul\":1157:1261   */\n    tag_61:\n        /* \"#utility.yul\":1202:1209   */\n      0x00\n        /* \"#utility.yul\":1231:1255   */\n      tag_104\n        /* \"#utility.yul\":1249:1254   */\n      dup3\n        /* \"#utility.yul\":1231:1255   */\n      tag_60\n      jump\t// in\n    tag_104:\n        /* \"#utility.yul\":1220:1255   */\n      swap1\n      pop\n        /* \"#utility.yul\":1157:1261   */\n      swap2\n      swap1\n      pop\n      jump\t// out\n        /* \"#utility.yul\":1267:1409   */\n    tag_62:\n        /* \"#utility.yul\":1370:1402   */\n      tag_106\n        /* \"#utility.yul\":1396:1401   */\n      dup2\n        /* \"#utility.yul\":1370:1402   */\n      tag_61\n      jump\t// in\n    tag_106:\n        /* \"#utility.yul\":1365:1368   */\n      dup3\n        /* \"#utility.yul\":1358:1403   */\n      mstore\n        /* \"#utility.yul\":1267:1409   */\n      pop\n      pop\n      jump\t// out\n        /* \"#utility.yul\":1415:1669   */\n    tag_12:\n        /* \"#utility.yul\":1524:1528   */\n      0x00\n        /* \"#utility.yul\":1562:1564   */\n      0x20\n        /* \"#utility.yul\":1551:1560   */\n      dup3\n        /* \"#utility.yul\":1547:1565   */\n      add\n        /* \"#utility.yul\":1539:1565   */\n      swap1\n      pop\n        /* \"#utility.yul\":1575:1662   */\n      tag_108\n        /* \"#utility.yul\":1659:1660   */\n      0x00\n        /* \"#utility.yul\":1648:1657   */\n      dup4\n        /* \"#utility.yul\":1644:1661   */\n      add\n        /* \"#utility.yul\":1635:1641   */\n      dup5\n        /* \"#utility.yul\":1575:1662   */\n      tag_62\n      jump\t// in\n    tag_108:\n        /* \"#utility.yul\":1415:1669   */\n      swap3\n      swap2\n      pop\n      pop\n      jump\t// out\n        /* \"#utility.yul\":1675:1797   */\n    tag_63:\n        /* \"#utility.yul\":1750:1756   */\n      0x00\n        /* \"#utility.yul\":1784:1789   */\n      dup2\n        /* \"#utility.yul\":1778:1790   */\n      mload\n        /* \"#utility.yul\":1768:1790   */\n      swap1\n      pop\n        /* \"#utility.yul\":1675:1797   */\n      swap2\n      swap1\n      pop\n      jump\t// out\n        /* \"#utility.yul\":1803:1995   */\n    tag_64:\n        /* \"#utility.yul\":1910:1921   */\n      0x00\n        /* \"#utility.yul\":1944:1950   */\n      dup3\n        /* \"#utility.yul\":1939:1942   */\n      dup3\n        /* \"#utility.yul\":1932:1951   */\n      mstore\n        /* \"#utility.yul\":1984:1988   */\n      0x20\n        /* \"#utility.yul\":1979:1982   */\n      dup3\n        /* \"#utility.yul\":1975:1989   */\n      add\n        /* \"#utility.yul\":1960:1989   */\n      swap1\n      pop\n        /* \"#utility.yul\":1803:1995   */\n      swap3\n      swap2\n      pop\n      pop\n      jump\t// out\n        /* \"#utility.yul\":2001:2141   */\n    tag_65:\n        /* \"#utility.yul\":2076:2080   */\n      0x00\n        /* \"#utility.yul\":2099:2102   */\n      dup2\n        /* \"#utility.yul\":2091:2102   */\n      swap1\n      pop\n        /* \"#utility.yul\":2129:2133   */\n      0x20\n        /* \"#utility.yul\":2124:2127   */\n      dup3\n        /* \"#utility.yul\":2120:2134   */\n      add\n        /* \"#utility.yul\":2112:2134   */\n      swap1\n      pop\n        /* \"#utility.yul\":2001:2141   */\n      swap2\n      swap1\n      pop\n      jump\t// out\n        /* \"#utility.yul\":2147:2279   */\n    tag_66:\n        /* \"#utility.yul\":2240:2272   */\n      tag_113\n        /* \"#utility.yul\":2266:2271   */\n      dup2\n        /* \"#utility.yul\":2240:2272   */\n      tag_61\n      jump\t// in\n    tag_113:\n        /* \"#utility.yul\":2235:2238   */\n      dup3\n        /* \"#utility.yul\":2228:2273   */\n      mstore\n        /* \"#utility.yul\":2147:2279   */\n      pop\n      pop\n      jump\t// out\n        /* \"#utility.yul\":2285:2496   */\n    tag_67:\n        /* \"#utility.yul\":2370:2380   */\n      0x00\n        /* \"#utility.yul\":2391:2453   */\n      tag_115\n        /* \"#utility.yul\":2449:2452   */\n      dup4\n        /* \"#utility.yul\":2441:2447   */\n      dup4\n        /* \"#utility.yul\":2391:2453   */\n      tag_66\n      jump\t// in\n    tag_115:\n        /* \"#utility.yul\":2485:2489   */\n      0x20\n        /* \"#utility.yul\":2480:2483   */\n      dup4\n        /* \"#utility.yul\":2476:2490   */\n      add\n        /* \"#utility.yul\":2462:2490   */\n      swap1\n      pop\n        /* \"#utility.yul\":2285:2496   */\n      swap3\n      swap2\n      pop\n      pop\n      jump\t// out\n        /* \"#utility.yul\":2502:2623   */\n    tag_68:\n        /* \"#utility.yul\":2580:2584   */\n      0x00\n        /* \"#utility.yul\":2612:2616   */\n      0x20\n        /* \"#utility.yul\":2607:2610   */\n      dup3\n        /* \"#utility.yul\":2603:2617   */\n      add\n        /* \"#utility.yul\":2595:2617   */\n      swap1\n      pop\n        /* \"#utility.yul\":2502:2623   */\n      swap2\n      swap1\n      pop\n      jump\t// out\n        /* \"#utility.yul\":2675:3471   */\n    tag_69:\n        /* \"#utility.yul\":2810:2813   */\n      0x00\n        /* \"#utility.yul\":2839:2901   */\n      tag_118\n        /* \"#utility.yul\":2895:2900   */\n      dup3\n        /* \"#utility.yul\":2839:2901   */\n      tag_63\n      jump\t// in\n    tag_118:\n        /* \"#utility.yul\":2917:3011   */\n      tag_119\n        /* \"#utility.yul\":3004:3010   */\n      dup2\n        /* \"#utility.yul\":2999:3002   */\n      dup6\n        /* \"#utility.yul\":2917:3011   */\n      tag_64\n      jump\t// in\n    tag_119:\n        /* \"#utility.yul\":2910:3011   */\n      swap4\n      pop\n        /* \"#utility.yul\":3035:3099   */\n      tag_120\n        /* \"#utility.yul\":3093:3098   */\n      dup4\n        /* \"#utility.yul\":3035:3099   */\n      tag_65\n      jump\t// in\n    tag_120:\n        /* \"#utility.yul\":3122:3129   */\n      dup1\n        /* \"#utility.yul\":3153:3154   */\n      0x00\n        /* \"#utility.yul\":3138:3446   */\n    tag_121:\n        /* \"#utility.yul\":3163:3169   */\n      dup4\n        /* \"#utility.yul\":3160:3161   */\n      dup2\n        /* \"#utility.yul\":3157:3170   */\n      lt\n        /* \"#utility.yul\":3138:3446   */\n      iszero\n      tag_123\n      jumpi\n        /* \"#utility.yul\":3239:3245   */\n      dup2\n        /* \"#utility.yul\":3233:3246   */\n      mload\n        /* \"#utility.yul\":3266:3345   */\n      tag_124\n        /* \"#utility.yul\":3341:3344   */\n      dup9\n        /* \"#utility.yul\":3326:3339   */\n      dup3\n        /* \"#utility.yul\":3266:3345   */\n      tag_67\n      jump\t// in\n    tag_124:\n        /* \"#utility.yul\":3259:3345   */\n      swap8\n      pop\n        /* \"#utility.yul\":3368:3436   */\n      tag_125\n        /* \"#utility.yul\":3429:3435   */\n      dup4\n        /* \"#utility.yul\":3368:3436   */\n      tag_68\n      jump\t// in\n    tag_125:\n        /* \"#utility.yul\":3358:3436   */\n      swap3\n      pop\n        /* \"#utility.yul\":3198:3446   */\n      pop\n        /* \"#utility.yul\":3185:3186   */\n      0x01\n        /* \"#utility.yul\":3182:3183   */\n      dup2\n        /* \"#utility.yul\":3178:3187   */\n      add\n        /* \"#utility.yul\":3173:3187   */\n      swap1\n      pop\n        /* \"#utility.yul\":3138:3446   */\n      jump(tag_121)\n    tag_123:\n        /* \"#utility.yul\":3142:3156   */\n      pop\n        /* \"#utility.yul\":3462:3465   */\n      dup6\n        /* \"#utility.yul\":3455:3465   */\n      swap4\n      pop\n        /* \"#utility.yul\":2815:3471   */\n      pop\n      pop\n      pop\n        /* \"#utility.yul\":2675:3471   */\n      swap3\n      swap2\n      pop\n      pop\n      jump\t// out\n        /* \"#utility.yul\":3477:3882   */\n    tag_17:\n        /* \"#utility.yul\":3636:3640   */\n      0x00\n        /* \"#utility.yul\":3674:3676   */\n      0x20\n        /* \"#utility.yul\":3663:3672   */\n      dup3\n        /* \"#utility.yul\":3659:3677   */\n      add\n        /* \"#utility.yul\":3651:3677   */\n      swap1\n      pop\n        /* \"#utility.yul\":3723:3732   */\n      dup2\n        /* \"#utility.yul\":3717:3721   */\n      dup2\n        /* \"#utility.yul\":3713:3733   */\n      sub\n        /* \"#utility.yul\":3709:3710   */\n      0x00\n        /* \"#utility.yul\":3698:3707   */\n      dup4\n        /* \"#utility.yul\":3694:3711   */\n      add\n        /* \"#utility.yul\":3687:3734   */\n      mstore\n        /* \"#utility.yul\":3751:3875   */\n      tag_127\n        /* \"#utility.yul\":3870:3874   */\n      dup2\n        /* \"#utility.yul\":3861:3867   */\n      dup5\n        /* \"#utility.yul\":3751:3875   */\n      tag_69\n      jump\t// in\n    tag_127:\n        /* \"#utility.yul\":3743:3875   */\n      swap1\n      pop\n        /* \"#utility.yul\":3477:3882   */\n      swap3\n      swap2\n      pop\n      pop\n      jump\t// out\n        /* \"#utility.yul\":3888:4005   */\n    tag_70:\n        /* \"#utility.yul\":3997:3998   */\n      0x00\n        /* \"#utility.yul\":3994:3995   */\n      dup1\n        /* \"#utility.yul\":3987:3999   */\n      revert\n        /* \"#utility.yul\":4011:4128   */\n    tag_71:\n        /* \"#utility.yul\":4120:4121   */\n      0x00\n        /* \"#utility.yul\":4117:4118   */\n      dup1\n        /* \"#utility.yul\":4110:4122   */\n      revert\n        /* \"#utility.yul\":4134:4236   */\n    tag_72:\n        /* \"#utility.yul\":4175:4181   */\n      0x00\n        /* \"#utility.yul\":4226:4228   */\n      0x1f\n        /* \"#utility.yul\":4222:4229   */\n      not\n        /* \"#utility.yul\":4217:4219   */\n      0x1f\n        /* \"#utility.yul\":4210:4215   */\n      dup4\n        /* \"#utility.yul\":4206:4220   */\n      add\n        /* \"#utility.yul\":4202:4230   */\n      and\n        /* \"#utility.yul\":4192:4230   */\n      swap1\n      pop\n        /* \"#utility.yul\":4134:4236   */\n      swap2\n      swap1\n      pop\n      jump\t// out\n        /* \"#utility.yul\":4242:4422   */\n    tag_73:\n        /* \"#utility.yul\":4290:4367   */\n      0x4e487b7100000000000000000000000000000000000000000000000000000000\n        /* \"#utility.yul\":4287:4288   */\n      0x00\n        /* \"#utility.yul\":4280:4368   */\n      mstore\n        /* \"#utility.yul\":4387:4391   */\n      0x41\n        /* \"#utility.yul\":4384:4385   */\n      0x04\n        /* \"#utility.yul\":4377:4392   */\n      mstore\n        /* \"#utility.yul\":4411:4415   */\n      0x24\n        /* \"#utility.yul\":4408:4409   */\n      0x00\n        /* \"#utility.yul\":4401:4416   */\n      revert\n        /* \"#utility.yul\":4428:4709   */\n    tag_74:\n        /* \"#utility.yul\":4511:4538   */\n      tag_133\n        /* \"#utility.yul\":4533:4537   */\n      dup3\n        /* \"#utility.yul\":4511:4538   */\n      tag_72\n      jump\t// in\n    tag_133:\n        /* \"#utility.yul\":4503:4509   */\n      dup2\n        /* \"#utility.yul\":4499:4539   */\n      add\n        /* \"#utility.yul\":4641:4647   */\n      dup2\n        /* \"#utility.yul\":4629:4639   */\n      dup2\n        /* \"#utility.yul\":4626:4648   */\n      lt\n        /* \"#utility.yul\":4605:4623   */\n      0xffffffffffffffff\n        /* \"#utility.yul\":4593:4603   */\n      dup3\n        /* \"#utility.yul\":4590:4624   */\n      gt\n        /* \"#utility.yul\":4587:4649   */\n      or\n        /* \"#utility.yul\":4584:4672   */\n      iszero\n      tag_134\n      jumpi\n        /* \"#utility.yul\":4652:4670   */\n      tag_135\n      tag_73\n      jump\t// in\n    tag_135:\n        /* \"#utility.yul\":4584:4672   */\n    tag_134:\n        /* \"#utility.yul\":4692:4702   */\n      dup1\n        /* \"#utility.yul\":4688:4690   */\n      0x40\n        /* \"#utility.yul\":4681:4703   */\n      mstore\n        /* \"#utility.yul\":4471:4709   */\n      pop\n        /* \"#utility.yul\":4428:4709   */\n      pop\n      pop\n      jump\t// out\n        /* \"#utility.yul\":4715:4844   */\n    tag_75:\n        /* \"#utility.yul\":4749:4755   */\n      0x00\n        /* \"#utility.yul\":4776:4796   */\n      tag_137\n      tag_54\n      jump\t// in\n    tag_137:\n        /* \"#utility.yul\":4766:4796   */\n      swap1\n      pop\n        /* \"#utility.yul\":4805:4838   */\n      tag_138\n        /* \"#utility.yul\":4833:4837   */\n      dup3\n        /* \"#utility.yul\":4825:4831   */\n      dup3\n        /* \"#utility.yul\":4805:4838   */\n      tag_74\n      jump\t// in\n    tag_138:\n        /* \"#utility.yul\":4715:4844   */\n      swap2\n      swap1\n      pop\n      jump\t// out\n        /* \"#utility.yul\":4850:5158   */\n    tag_76:\n        /* \"#utility.yul\":4912:4916   */\n      0x00\n        /* \"#utility.yul\":5002:5020   */\n      0xffffffffffffffff\n        /* \"#utility.yul\":4994:5000   */\n      dup3\n        /* \"#utility.yul\":4991:5021   */\n      gt\n        /* \"#utility.yul\":4988:5044   */\n      iszero\n      tag_140\n      jumpi\n        /* \"#utility.yul\":5024:5042   */\n      tag_141\n      tag_73\n      jump\t// in\n    tag_141:\n        /* \"#utility.yul\":4988:5044   */\n    tag_140:\n        /* \"#utility.yul\":5062:5091   */\n      tag_142\n        /* \"#utility.yul\":5084:5090   */\n      dup3\n        /* \"#utility.yul\":5062:5091   */\n      tag_72\n      jump\t// in\n    tag_142:\n        /* \"#utility.yul\":5054:5091   */\n      swap1\n      pop\n        /* \"#utility.yul\":5146:5150   */\n      0x20\n        /* \"#utility.yul\":5140:5144   */\n      dup2\n        /* \"#utility.yul\":5136:5151   */\n      add\n        /* \"#utility.yul\":5128:5151   */\n      swap1\n      pop\n        /* \"#utility.yul\":4850:5158   */\n      swap2\n      swap1\n      pop\n      jump\t// out\n        /* \"#utility.yul\":5164:5318   */\n    tag_77:\n        /* \"#utility.yul\":5248:5254   */\n      dup3\n        /* \"#utility.yul\":5243:5246   */\n      dup2\n        /* \"#utility.yul\":5238:5241   */\n      dup4\n        /* \"#utility.yul\":5225:5255   */\n      calldatacopy\n        /* \"#utility.yul\":5310:5311   */\n      0x00\n        /* \"#utility.yul\":5301:5307   */\n      dup4\n        /* \"#utility.yul\":5296:5299   */\n      dup4\n        /* \"#utility.yul\":5292:5308   */\n      add\n        /* \"#utility.yul\":5285:5312   */\n      mstore\n        /* \"#utility.yul\":5164:5318   */\n      pop\n      pop\n      pop\n      jump\t// out\n        /* \"#utility.yul\":5324:5736   */\n    tag_78:\n        /* \"#utility.yul\":5402:5407   */\n      0x00\n        /* \"#utility.yul\":5427:5493   */\n      tag_145\n        /* \"#utility.yul\":5443:5492   */\n      tag_146\n        /* \"#utility.yul\":5485:5491   */\n      dup5\n        /* \"#utility.yul\":5443:5492   */\n      tag_76\n      jump\t// in\n    tag_146:\n        /* \"#utility.yul\":5427:5493   */\n      tag_75\n      jump\t// in\n    tag_145:\n        /* \"#utility.yul\":5418:5493   */\n      swap1\n      pop\n        /* \"#utility.yul\":5516:5522   */\n      dup3\n        /* \"#utility.yul\":5509:5514   */\n      dup2\n        /* \"#utility.yul\":5502:5523   */\n      mstore\n        /* \"#utility.yul\":5554:5558   */\n      0x20\n        /* \"#utility.yul\":5547:5552   */\n      dup2\n        /* \"#utility.yul\":5543:5559   */\n      add\n        /* \"#utility.yul\":5592:5595   */\n      dup5\n        /* \"#utility.yul\":5583:5589   */\n      dup5\n        /* \"#utility.yul\":5578:5581   */\n      dup5\n        /* \"#utility.yul\":5574:5590   */\n      add\n        /* \"#utility.yul\":5571:5596   */\n      gt\n        /* \"#utility.yul\":5568:5680   */\n      iszero\n      tag_147\n      jumpi\n        /* \"#utility.yul\":5599:5678   */\n      tag_148\n      tag_71\n      jump\t// in\n    tag_148:\n        /* \"#utility.yul\":5568:5680   */\n    tag_147:\n        /* \"#utility.yul\":5689:5730   */\n      tag_149\n        /* \"#utility.yul\":5723:5729   */\n      dup5\n        /* \"#utility.yul\":5718:5721   */\n      dup3\n        /* \"#utility.yul\":5713:5716   */\n      dup6\n        /* \"#utility.yul\":5689:5730   */\n      tag_77\n      jump\t// in\n    tag_149:\n        /* \"#utility.yul\":5408:5736   */\n      pop\n        /* \"#utility.yul\":5324:5736   */\n      swap4\n      swap3\n      pop\n      pop\n      pop\n      jump\t// out\n        /* \"#utility.yul\":5756:6096   */\n    tag_79:\n        /* \"#utility.yul\":5812:5817   */\n      0x00\n        /* \"#utility.yul\":5861:5864   */\n      dup3\n        /* \"#utility.yul\":5854:5858   */\n      0x1f\n        /* \"#utility.yul\":5846:5852   */\n      dup4\n        /* \"#utility.yul\":5842:5859   */\n      add\n        /* \"#utility.yul\":5838:5865   */\n      slt\n        /* \"#utility.yul\":5828:5950   */\n      tag_151\n      jumpi\n        /* \"#utility.yul\":5869:5948   */\n      tag_152\n      tag_70\n      jump\t// in\n    tag_152:\n        /* \"#utility.yul\":5828:5950   */\n    tag_151:\n        /* \"#utility.yul\":5986:5992   */\n      dup2\n        /* \"#utility.yul\":5973:5993   */\n      calldataload\n        /* \"#utility.yul\":6011:6090   */\n      tag_153\n        /* \"#utility.yul\":6086:6089   */\n      dup5\n        /* \"#utility.yul\":6078:6084   */\n      dup3\n        /* \"#utility.yul\":6071:6075   */\n      0x20\n        /* \"#utility.yul\":6063:6069   */\n      dup7\n        /* \"#utility.yul\":6059:6076   */\n      add\n        /* \"#utility.yul\":6011:6090   */\n      tag_78\n      jump\t// in\n    tag_153:\n        /* \"#utility.yul\":6002:6090   */\n      swap2\n      pop\n        /* \"#utility.yul\":5818:6096   */\n      pop\n        /* \"#utility.yul\":5756:6096   */\n      swap3\n      swap2\n      pop\n      pop\n      jump\t// out\n        /* \"#utility.yul\":6102:7227   */\n    tag_23:\n        /* \"#utility.yul\":6208:6214   */\n      0x00\n        /* \"#utility.yul\":6216:6222   */\n      dup1\n        /* \"#utility.yul\":6224:6230   */\n      0x00\n        /* \"#utility.yul\":6232:6238   */\n      dup1\n        /* \"#utility.yul\":6281:6284   */\n      0x80\n        /* \"#utility.yul\":6269:6278   */\n      dup6\n        /* \"#utility.yul\":6260:6267   */\n      dup8\n        /* \"#utility.yul\":6256:6279   */\n      sub\n        /* \"#utility.yul\":6252:6285   */\n      slt\n        /* \"#utility.yul\":6249:6369   */\n      iszero\n      tag_155\n      jumpi\n        /* \"#utility.yul\":6288:6367   */\n      tag_156\n      tag_55\n      jump\t// in\n    tag_156:\n        /* \"#utility.yul\":6249:6369   */\n    tag_155:\n        /* \"#utility.yul\":6408:6409   */\n      0x00\n        /* \"#utility.yul\":6433:6486   */\n      tag_157\n        /* \"#utility.yul\":6478:6485   */\n      dup8\n        /* \"#utility.yul\":6469:6475   */\n      dup3\n        /* \"#utility.yul\":6458:6467   */\n      dup9\n        /* \"#utility.yul\":6454:6476   */\n      add\n        /* \"#utility.yul\":6433:6486   */\n      tag_59\n      jump\t// in\n    tag_157:\n        /* \"#utility.yul\":6423:6486   */\n      swap5\n      pop\n        /* \"#utility.yul\":6379:6496   */\n      pop\n        /* \"#utility.yul\":6563:6565   */\n      0x20\n        /* \"#utility.yul\":6552:6561   */\n      dup6\n        /* \"#utility.yul\":6548:6566   */\n      add\n        /* \"#utility.yul\":6535:6567   */\n      calldataload\n        /* \"#utility.yul\":6594:6612   */\n      0xffffffffffffffff\n        /* \"#utility.yul\":6586:6592   */\n      dup2\n        /* \"#utility.yul\":6583:6613   */\n      gt\n        /* \"#utility.yul\":6580:6697   */\n      iszero\n      tag_158\n      jumpi\n        /* \"#utility.yul\":6616:6695   */\n      tag_159\n      tag_56\n      jump\t// in\n    tag_159:\n        /* \"#utility.yul\":6580:6697   */\n    tag_158:\n        /* \"#utility.yul\":6721:6784   */\n      tag_160\n        /* \"#utility.yul\":6776:6783   */\n      dup8\n        /* \"#utility.yul\":6767:6773   */\n      dup3\n        /* \"#utility.yul\":6756:6765   */\n      dup9\n        /* \"#utility.yul\":6752:6774   */\n      add\n        /* \"#utility.yul\":6721:6784   */\n      tag_79\n      jump\t// in\n    tag_160:\n        /* \"#utility.yul\":6711:6784   */\n      swap4\n      pop\n        /* \"#utility.yul\":6506:6794   */\n      pop\n        /* \"#utility.yul\":6861:6863   */\n      0x40\n        /* \"#utility.yul\":6850:6859   */\n      dup6\n        /* \"#utility.yul\":6846:6864   */\n      add\n        /* \"#utility.yul\":6833:6865   */\n      calldataload\n        /* \"#utility.yul\":6892:6910   */\n      0xffffffffffffffff\n        /* \"#utility.yul\":6884:6890   */\n      dup2\n        /* \"#utility.yul\":6881:6911   */\n      gt\n        /* \"#utility.yul\":6878:6995   */\n      iszero\n      tag_161\n      jumpi\n        /* \"#utility.yul\":6914:6993   */\n      tag_162\n      tag_56\n      jump\t// in\n    tag_162:\n        /* \"#utility.yul\":6878:6995   */\n    tag_161:\n        /* \"#utility.yul\":7019:7082   */\n      tag_163\n        /* \"#utility.yul\":7074:7081   */\n      dup8\n        /* \"#utility.yul\":7065:7071   */\n      dup3\n        /* \"#utility.yul\":7054:7063   */\n      dup9\n        /* \"#utility.yul\":7050:7072   */\n      add\n        /* \"#utility.yul\":7019:7082   */\n      tag_79\n      jump\t// in\n    tag_163:\n        /* \"#utility.yul\":7009:7082   */\n      swap3\n      pop\n        /* \"#utility.yul\":6804:7092   */\n      pop\n        /* \"#utility.yul\":7131:7133   */\n      0x60\n        /* \"#utility.yul\":7157:7210   */\n      tag_164\n        /* \"#utility.yul\":7202:7209   */\n      dup8\n        /* \"#utility.yul\":7193:7199   */\n      dup3\n        /* \"#utility.yul\":7182:7191   */\n      dup9\n        /* \"#utility.yul\":7178:7200   */\n      add\n        /* \"#utility.yul\":7157:7210   */\n      tag_59\n      jump\t// in\n    tag_164:\n        /* \"#utility.yul\":7147:7210   */\n      swap2\n      pop\n        /* \"#utility.yul\":7102:7220   */\n      pop\n        /* \"#utility.yul\":6102:7227   */\n      swap3\n      swap6\n      swap2\n      swap5\n      pop\n      swap3\n      pop\n      jump\t// out\n        /* \"#utility.yul\":7233:7413   */\n    tag_36:\n        /* \"#utility.yul\":7281:7358   */\n      0x4e487b7100000000000000000000000000000000000000000000000000000000\n        /* \"#utility.yul\":7278:7279   */\n      0x00\n        /* \"#utility.yul\":7271:7359   */\n      mstore\n        /* \"#utility.yul\":7378:7382   */\n      0x32\n        /* \"#utility.yul\":7375:7376   */\n      0x04\n        /* \"#utility.yul\":7368:7383   */\n      mstore\n        /* \"#utility.yul\":7402:7406   */\n      0x24\n        /* \"#utility.yul\":7399:7400   */\n      0x00\n        /* \"#utility.yul\":7392:7407   */\n      revert\n        /* \"#utility.yul\":7419:7599   */\n    tag_80:\n        /* \"#utility.yul\":7467:7544   */\n      0x4e487b7100000000000000000000000000000000000000000000000000000000\n        /* \"#utility.yul\":7464:7465   */\n      0x00\n        /* \"#utility.yul\":7457:7545   */\n      mstore\n        /* \"#utility.yul\":7564:7568   */\n      0x11\n        /* \"#utility.yul\":7561:7562   */\n      0x04\n        /* \"#utility.yul\":7554:7569   */\n      mstore\n        /* \"#utility.yul\":7588:7592   */\n      0x24\n        /* \"#utility.yul\":7585:7586   */\n      0x00\n        /* \"#utility.yul\":7578:7593   */\n      revert\n        /* \"#utility.yul\":7605:7838   */\n    tag_42:\n        /* \"#utility.yul\":7644:7647   */\n      0x00\n        /* \"#utility.yul\":7667:7691   */\n      tag_168\n        /* \"#utility.yul\":7685:7690   */\n      dup3\n        /* \"#utility.yul\":7667:7691   */\n      tag_57\n      jump\t// in\n    tag_168:\n        /* \"#utility.yul\":7658:7691   */\n      swap2\n      pop\n        /* \"#utility.yul\":7713:7779   */\n      0xffffffffffffffffffffffffffffffffffffffffffffffffffffffffffffffff\n        /* \"#utility.yul\":7706:7711   */\n      dup3\n        /* \"#utility.yul\":7703:7780   */\n      sub\n        /* \"#utility.yul\":7700:7803   */\n      tag_169\n      jumpi\n        /* \"#utility.yul\":7783:7801   */\n      tag_170\n      tag_80\n      jump\t// in\n    tag_170:\n        /* \"#utility.yul\":7700:7803   */\n    tag_169:\n        /* \"#utility.yul\":7830:7831   */\n      0x01\n        /* \"#utility.yul\":7823:7828   */\n      dup3\n        /* \"#utility.yul\":7819:7832   */\n      add\n        /* \"#utility.yul\":7812:7832   */\n      swap1\n      pop\n        /* \"#utility.yul\":7605:7838   */\n      swap2\n      swap1\n      pop\n      jump\t// out\n        /* \"#utility.yul\":7844:8192   */\n    tag_45:\n        /* \"#utility.yul\":7884:7891   */\n      0x00\n        /* \"#utility.yul\":7907:7927   */\n      tag_172\n        /* \"#utility.yul\":7925:7926   */\n      dup3\n        /* \"#utility.yul\":7907:7927   */\n      tag_57\n      jump\t// in\n    tag_172:\n        /* \"#utility.yul\":7902:7927   */\n      swap2\n      pop\n        /* \"#utility.yul\":7941:7961   */\n      tag_173\n        /* \"#utility.yul\":7959:7960   */\n      dup4\n        /* \"#utility.yul\":7941:7961   */\n      tag_57\n      jump\t// in\n    tag_173:\n        /* \"#utility.yul\":7936:7961   */\n      swap3\n      pop\n        /* \"#utility.yul\":8129:8130   */\n      dup2\n        /* \"#utility.yul\":8061:8127   */\n      0xffffffffffffffffffffffffffffffffffffffffffffffffffffffffffffffff\n        /* \"#utility.yul\":8057:8131   */\n      div\n        /* \"#utility.yul\":8054:8055   */\n      dup4\n        /* \"#utility.yul\":8051:8132   */\n      gt\n        /* \"#utility.yul\":8046:8047   */\n      dup3\n        /* \"#utility.yul\":8039:8048   */\n      iszero\n        /* \"#utility.yul\":8032:8049   */\n      iszero\n        /* \"#utility.yul\":8028:8133   */\n      and\n        /* \"#utility.yul\":8025:8156   */\n      iszero\n      tag_174\n      jumpi\n        /* \"#utility.yul\":8136:8154   */\n      tag_175\n      tag_80\n      jump\t// in\n    tag_175:\n        /* \"#utility.yul\":8025:8156   */\n    tag_174:\n        /* \"#utility.yul\":8184:8185   */\n      dup3\n        /* \"#utility.yul\":8181:8182   */\n      dup3\n        /* \"#utility.yul\":8177:8186   */\n      mul\n        /* \"#utility.yul\":8166:8186   */\n      swap1\n      pop\n        /* \"#utility.yul\":7844:8192   */\n      swap3\n      swap2\n      pop\n      pop\n      jump\t// out\n        /* \"#utility.yul\":8198:8503   */\n    tag_47:\n        /* \"#utility.yul\":8238:8241   */\n      0x00\n        /* \"#utility.yul\":8257:8277   */\n      tag_177\n        /* \"#utility.yul\":8275:8276   */\n      dup3\n        /* \"#utility.yul\":8257:8277   */\n      tag_57\n      jump\t// in\n    tag_177:\n        /* \"#utility.yul\":8252:8277   */\n      swap2\n      pop\n        /* \"#utility.yul\":8291:8311   */\n      tag_178\n        /* \"#utility.yul\":8309:8310   */\n      dup4\n        /* \"#utility.yul\":8291:8311   */\n      tag_57\n      jump\t// in\n    tag_178:\n        /* \"#utility.yul\":8286:8311   */\n      swap3\n      pop\n        /* \"#utility.yul\":8445:8446   */\n      dup3\n        /* \"#utility.yul\":8377:8443   */\n      0xffffffffffffffffffffffffffffffffffffffffffffffffffffffffffffffff\n        /* \"#utility.yul\":8373:8447   */\n      sub\n        /* \"#utility.yul\":8370:8371   */\n      dup3\n        /* \"#utility.yul\":8367:8448   */\n      gt\n        /* \"#utility.yul\":8364:8471   */\n      iszero\n      tag_179\n      jumpi\n        /* \"#utility.yul\":8451:8469   */\n      tag_180\n      tag_80\n      jump\t// in\n    tag_180:\n        /* \"#utility.yul\":8364:8471   */\n    tag_179:\n        /* \"#utility.yul\":8495:8496   */\n      dup3\n        /* \"#utility.yul\":8492:8493   */\n      dup3\n        /* \"#utility.yul\":8488:8497   */\n      add\n        /* \"#utility.yul\":8481:8497   */\n      swap1\n      pop\n        /* \"#utility.yul\":8198:8503   */\n      swap3\n      swap2\n      pop\n      pop\n      jump\t// out\n        /* \"#utility.yul\":8509:8627   */\n    tag_81:\n        /* \"#utility.yul\":8596:8620   */\n      tag_182\n        /* \"#utility.yul\":8614:8619   */\n      dup2\n        /* \"#utility.yul\":8596:8620   */\n      tag_57\n      jump\t// in\n    tag_182:\n        /* \"#utility.yul\":8591:8594   */\n      dup3\n        /* \"#utility.yul\":8584:8621   */\n      mstore\n        /* \"#utility.yul\":8509:8627   */\n      pop\n      pop\n      jump\t// out\n        /* \"#utility.yul\":8633:8732   */\n    tag_82:\n        /* \"#utility.yul\":8685:8691   */\n      0x00\n        /* \"#utility.yul\":8719:8724   */\n      dup2\n        /* \"#utility.yul\":8713:8725   */\n      mload\n        /* \"#utility.yul\":8703:8725   */\n      swap1\n      pop\n        /* \"#utility.yul\":8633:8732   */\n      swap2\n      swap1\n      pop\n      jump\t// out\n        /* \"#utility.yul\":8738:8907   */\n    tag_83:\n        /* \"#utility.yul\":8822:8833   */\n      0x00\n        /* \"#utility.yul\":8856:8862   */\n      dup3\n        /* \"#utility.yul\":8851:8854   */\n      dup3\n        /* \"#utility.yul\":8844:8863   */\n      mstore\n        /* \"#utility.yul\":8896:8900   */\n      0x20\n        /* \"#utility.yul\":8891:8894   */\n      dup3\n        /* \"#utility.yul\":8887:8901   */\n      add\n        /* \"#utility.yul\":8872:8901   */\n      swap1\n      pop\n        /* \"#utility.yul\":8738:8907   */\n      swap3\n      swap2\n      pop\n      pop\n      jump\t// out\n        /* \"#utility.yul\":8913:9220   */\n    tag_84:\n        /* \"#utility.yul\":8981:8982   */\n      0x00\n        /* \"#utility.yul\":8991:9104   */\n    tag_186:\n        /* \"#utility.yul\":9005:9011   */\n      dup4\n        /* \"#utility.yul\":9002:9003   */\n      dup2\n        /* \"#utility.yul\":8999:9012   */\n      lt\n        /* \"#utility.yul\":8991:9104   */\n      iszero\n      tag_188\n      jumpi\n        /* \"#utility.yul\":9090:9091   */\n      dup1\n        /* \"#utility.yul\":9085:9088   */\n      dup3\n        /* \"#utility.yul\":9081:9092   */\n      add\n        /* \"#utility.yul\":9075:9093   */\n      mload\n        /* \"#utility.yul\":9071:9072   */\n      dup2\n        /* \"#utility.yul\":9066:9069   */\n      dup5\n        /* \"#utility.yul\":9062:9073   */\n      add\n        /* \"#utility.yul\":9055:9094   */\n      mstore\n        /* \"#utility.yul\":9027:9029   */\n      0x20\n        /* \"#utility.yul\":9024:9025   */\n      dup2\n        /* \"#utility.yul\":9020:9030   */\n      add\n        /* \"#utility.yul\":9015:9030   */\n      swap1\n      pop\n        /* \"#utility.yul\":8991:9104   */\n      jump(tag_186)\n    tag_188:\n        /* \"#utility.yul\":9122:9128   */\n      dup4\n        /* \"#utility.yul\":9119:9120   */\n      dup2\n        /* \"#utility.yul\":9116:9129   */\n      gt\n        /* \"#utility.yul\":9113:9214   */\n      iszero\n      tag_189\n      jumpi\n        /* \"#utility.yul\":9202:9203   */\n      0x00\n        /* \"#utility.yul\":9193:9199   */\n      dup5\n        /* \"#utility.yul\":9188:9191   */\n      dup5\n        /* \"#utility.yul\":9184:9200   */\n      add\n        /* \"#utility.yul\":9177:9204   */\n      mstore\n        /* \"#utility.yul\":9113:9214   */\n    tag_189:\n        /* \"#utility.yul\":8962:9220   */\n      pop\n        /* \"#utility.yul\":8913:9220   */\n      pop\n      pop\n      pop\n      jump\t// out\n        /* \"#utility.yul\":9226:9590   */\n    tag_85:\n        /* \"#utility.yul\":9314:9317   */\n      0x00\n        /* \"#utility.yul\":9342:9381   */\n      tag_191\n        /* \"#utility.yul\":9375:9380   */\n      dup3\n        /* \"#utility.yul\":9342:9381   */\n      tag_82\n      jump\t// in\n    tag_191:\n        /* \"#utility.yul\":9397:9468   */\n      tag_192\n        /* \"#utility.yul\":9461:9467   */\n      dup2\n        /* \"#utility.yul\":9456:9459   */\n      dup6\n        /* \"#utility.yul\":9397:9468   */\n      tag_83\n      jump\t// in\n    tag_192:\n        /* \"#utility.yul\":9390:9468   */\n      swap4\n      pop\n        /* \"#utility.yul\":9477:9529   */\n      tag_193\n        /* \"#utility.yul\":9522:9528   */\n      dup2\n        /* \"#utility.yul\":9517:9520   */\n      dup6\n        /* \"#utility.yul\":9510:9514   */\n      0x20\n        /* \"#utility.yul\":9503:9508   */\n      dup7\n        /* \"#utility.yul\":9499:9515   */\n      add\n        /* \"#utility.yul\":9477:9529   */\n      tag_84\n      jump\t// in\n    tag_193:\n        /* \"#utility.yul\":9554:9583   */\n      tag_194\n        /* \"#utility.yul\":9576:9582   */\n      dup2\n        /* \"#utility.yul\":9554:9583   */\n      tag_72\n      jump\t// in\n    tag_194:\n        /* \"#utility.yul\":9549:9552   */\n      dup5\n        /* \"#utility.yul\":9545:9584   */\n      add\n        /* \"#utility.yul\":9538:9584   */\n      swap2\n      pop\n        /* \"#utility.yul\":9318:9590   */\n      pop\n        /* \"#utility.yul\":9226:9590   */\n      swap3\n      swap2\n      pop\n      pop\n      jump\t// out\n        /* \"#utility.yul\":9596:9692   */\n    tag_86:\n        /* \"#utility.yul\":9633:9640   */\n      0x00\n        /* \"#utility.yul\":9662:9686   */\n      tag_196\n        /* \"#utility.yul\":9680:9685   */\n      dup3\n        /* \"#utility.yul\":9662:9686   */\n      tag_60\n      jump\t// in\n    tag_196:\n        /* \"#utility.yul\":9651:9686   */\n      swap1\n      pop\n        /* \"#utility.yul\":9596:9692   */\n      swap2\n      swap1\n      pop\n      jump\t// out\n        /* \"#utility.yul\":9698:9816   */\n    tag_87:\n        /* \"#utility.yul\":9785:9809   */\n      tag_198\n        /* \"#utility.yul\":9803:9808   */\n      dup2\n        /* \"#utility.yul\":9785:9809   */\n      tag_86\n      jump\t// in\n    tag_198:\n        /* \"#utility.yul\":9780:9783   */\n      dup3\n        /* \"#utility.yul\":9773:9810   */\n      mstore\n        /* \"#utility.yul\":9698:9816   */\n      pop\n      pop\n      jump\t// out\n        /* \"#utility.yul\":9822:10668   */\n    tag_51:\n        /* \"#utility.yul\":10067:10071   */\n      0x00\n        /* \"#utility.yul\":10105:10108   */\n      0xa0\n        /* \"#utility.yul\":10094:10103   */\n      dup3\n        /* \"#utility.yul\":10090:10109   */\n      add\n        /* \"#utility.yul\":10082:10109   */\n      swap1\n      pop\n        /* \"#utility.yul\":10119:10190   */\n      tag_200\n        /* \"#utility.yul\":10187:10188   */\n      0x00\n        /* \"#utility.yul\":10176:10185   */\n      dup4\n        /* \"#utility.yul\":10172:10189   */\n      add\n        /* \"#utility.yul\":10163:10169   */\n      dup9\n        /* \"#utility.yul\":10119:10190   */\n      tag_81\n      jump\t// in\n    tag_200:\n        /* \"#utility.yul\":10237:10246   */\n      dup2\n        /* \"#utility.yul\":10231:10235   */\n      dup2\n        /* \"#utility.yul\":10227:10247   */\n      sub\n        /* \"#utility.yul\":10222:10224   */\n      0x20\n        /* \"#utility.yul\":10211:10220   */\n      dup4\n        /* \"#utility.yul\":10207:10225   */\n      add\n        /* \"#utility.yul\":10200:10248   */\n      mstore\n        /* \"#utility.yul\":10265:10343   */\n      tag_201\n        /* \"#utility.yul\":10338:10342   */\n      dup2\n        /* \"#utility.yul\":10329:10335   */\n      dup8\n        /* \"#utility.yul\":10265:10343   */\n      tag_85\n      jump\t// in\n    tag_201:\n        /* \"#utility.yul\":10257:10343   */\n      swap1\n      pop\n        /* \"#utility.yul\":10390:10399   */\n      dup2\n        /* \"#utility.yul\":10384:10388   */\n      dup2\n        /* \"#utility.yul\":10380:10400   */\n      sub\n        /* \"#utility.yul\":10375:10377   */\n      0x40\n        /* \"#utility.yul\":10364:10373   */\n      dup4\n        /* \"#utility.yul\":10360:10378   */\n      add\n        /* \"#utility.yul\":10353:10401   */\n      mstore\n        /* \"#utility.yul\":10418:10496   */\n      tag_202\n        /* \"#utility.yul\":10491:10495   */\n      dup2\n        /* \"#utility.yul\":10482:10488   */\n      dup7\n        /* \"#utility.yul\":10418:10496   */\n      tag_85\n      jump\t// in\n    tag_202:\n        /* \"#utility.yul\":10410:10496   */\n      swap1\n      pop\n        /* \"#utility.yul\":10506:10578   */\n      tag_203\n        /* \"#utility.yul\":10574:10576   */\n      0x60\n        /* \"#utility.yul\":10563:10572   */\n      dup4\n        /* \"#utility.yul\":10559:10577   */\n      add\n        /* \"#utility.yul\":10550:10556   */\n      dup6\n        /* \"#utility.yul\":10506:10578   */\n      tag_87\n      jump\t// in\n    tag_203:\n        /* \"#utility.yul\":10588:10661   */\n      tag_204\n        /* \"#utility.yul\":10656:10659   */\n      0x80\n        /* \"#utility.yul\":10645:10654   */\n      dup4\n        /* \"#utility.yul\":10641:10660   */\n      add\n        /* \"#utility.yul\":10632:10638   */\n      dup5\n        /* \"#utility.yul\":10588:10661   */\n      tag_81\n      jump\t// in\n    tag_204:\n        /* \"#utility.yul\":9822:10668   */\n      swap7\n      swap6\n      pop\n      pop\n      pop\n      pop\n      pop\n      pop\n      jump\t// out\n    stop\n\n    sub_0: assembly {\n            /* \"Campaign.sol\":1114:7450  contract Campaign {... */\n          mstore(0x40, 0x80)\n            /* \"Campaign.sol\":1978:2386  constructor(... */\n          callvalue\n          dup1\n          iszero\n          tag_1\n          jumpi\n          0x00\n          dup1\n          revert\n        tag_1:\n          pop\n          mload(0x40)\n          sub(codesize, bytecodeSize)\n          dup1\n          bytecodeSize\n          dup4\n          codecopy\n          dup2\n          dup2\n          add\n          0x40\n          mstore\n          dup2\n          add\n          swap1\n          tag_2\n          swap2\n          swap1\n          tag_3\n          jump\t// in\n        tag_2:\n            /* \"Campaign.sol\":2180:2187  creator */\n          dup2\n            /* \"Campaign.sol\":2170:2177  manager */\n          0x01\n          0x00\n            /* \"Campaign.sol\":2170:2187  manager = creator */\n          0x0100\n          exp\n          dup2\n          sload\n          dup2\n          0xffffffffffffffffffffffffffffffffffffffff\n          mul\n          not\n          and\n          swap1\n          dup4\n          0xffffffffffffffffffffffffffffffffffffffff\n          and\n          mul\n          or\n          swap1\n          sstore\n          pop\n            /* \"Campaign.sol\":2219:2226  minimum */\n          dup5\n            /* \"Campaign.sol\":2197:2216  minimumContribution */\n          0x02\n            /* \"Campaign.sol\":2197:2226  minimumContribution = minimum */\n          dup2\n          swap1\n          sstore\n          pop\n            /* \"Campaign.sol\":2250:2258  dataSell */\n          dup4\n            /* \"Campaign.sol\":2236:2247  dataForSell */\n          0x03\n            /* \"Campaign.sol\":2236:2258  dataForSell = dataSell */\n          swap1\n          dup2\n          tag_6\n          swap2\n          swap1\n          tag_7\n          jump\t// in\n        tag_6:\n          pop\n            /* \"Campaign.sol\":2286:2294  dataDesc */\n          dup3\n            /* \"Campaign.sol\":2268:2283  dataDescription */\n          0x04\n            /* \"Campaign.sol\":2268:2294  dataDescription = dataDesc */\n          swap1\n          dup2\n          tag_8\n          swap2\n          swap1\n          tag_7\n          jump\t// in\n        tag_8:\n          pop\n            /* \"Campaign.sol\":2314:2321  endtime */\n          dup1\n            /* \"Campaign.sol\":2304:2311  endTime */\n          0x0b\n            /* \"Campaign.sol\":2304:2321  endTime = endtime */\n          dup2\n          swap1\n          sstore\n          pop\n            /* \"Campaign.sol\":2340:2345  false */\n          0x00\n            /* \"Campaign.sol\":2331:2337  closed */\n          0x0c\n          0x00\n            /* \"Campaign.sol\":2331:2345  closed = false */\n          0x0100\n          exp\n          dup2\n          sload\n          dup2\n          0xff\n          mul\n          not\n          and\n          swap1\n          dup4\n          iszero\n          iszero\n          mul\n          or\n          swap1\n          sstore\n          pop\n            /* \"Campaign.sol\":1978:2386  constructor(... */\n          pop\n          pop\n          pop\n          pop\n          pop\n            /* \"Campaign.sol\":1114:7450  contract Campaign {... */\n          jump(tag_9)\n            /* \"#utility.yul\":7:82   */\n        tag_10:\n            /* \"#utility.yul\":40:46   */\n          0x00\n            /* \"#utility.yul\":73:75   */\n          0x40\n            /* \"#utility.yul\":67:76   */\n          mload\n            /* \"#utility.yul\":57:76   */\n          swap1\n          pop\n            /* \"#utility.yul\":7:82   */\n          swap1\n          jump\t// out\n            /* \"#utility.yul\":88:205   */\n        tag_11:\n            /* \"#utility.yul\":197:198   */\n          0x00\n            /* \"#utility.yul\":194:195   */\n          dup1\n            /* \"#utility.yul\":187:199   */\n          revert\n            /* \"#utility.yul\":211:328   */\n        tag_12:\n            /* \"#utility.yul\":320:321   */\n          0x00\n            /* \"#utility.yul\":317:318   */\n          dup1\n            /* \"#utility.yul\":310:322   */\n          revert\n            /* \"#utility.yul\":334:411   */\n        tag_13:\n            /* \"#utility.yul\":371:378   */\n          0x00\n            /* \"#utility.yul\":400:405   */\n          dup2\n            /* \"#utility.yul\":389:405   */\n          swap1\n          pop\n            /* \"#utility.yul\":334:411   */\n          swap2\n          swap1\n          pop\n          jump\t// out\n            /* \"#utility.yul\":417:539   */\n        tag_14:\n            /* \"#utility.yul\":490:514   */\n          tag_54\n            /* \"#utility.yul\":508:513   */\n          dup2\n            /* \"#utility.yul\":490:514   */\n          tag_13\n          jump\t// in\n        tag_54:\n            /* \"#utility.yul\":483:488   */\n          dup2\n            /* \"#utility.yul\":480:515   */\n          eq\n            /* \"#utility.yul\":470:533   */\n          tag_55\n          jumpi\n            /* \"#utility.yul\":529:530   */\n          0x00\n            /* \"#utility.yul\":526:527   */\n          dup1\n            /* \"#utility.yul\":519:531   */\n          revert\n            /* \"#utility.yul\":470:533   */\n        tag_55:\n            /* \"#utility.yul\":417:539   */\n          pop\n          jump\t// out\n            /* \"#utility.yul\":545:688   */\n        tag_15:\n            /* \"#utility.yul\":602:607   */\n          0x00\n            /* \"#utility.yul\":633:639   */\n          dup2\n            /* \"#utility.yul\":627:640   */\n          mload\n            /* \"#utility.yul\":618:640   */\n          swap1\n          pop\n            /* \"#utility.yul\":649:682   */\n          tag_57\n            /* \"#utility.yul\":676:681   */\n          dup2\n            /* \"#utility.yul\":649:682   */\n          tag_14\n          jump\t// in\n        tag_57:\n            /* \"#utility.yul\":545:688   */\n          swap3\n          swap2\n          pop\n          pop\n          jump\t// out\n            /* \"#utility.yul\":694:811   */\n        tag_16:\n            /* \"#utility.yul\":803:804   */\n          0x00\n            /* \"#utility.yul\":800:801   */\n          dup1\n            /* \"#utility.yul\":793:805   */\n          revert\n            /* \"#utility.yul\":817:934   */\n        tag_17:\n            /* \"#utility.yul\":926:927   */\n          0x00\n            /* \"#utility.yul\":923:924   */\n          dup1\n            /* \"#utility.yul\":916:928   */\n          revert\n            /* \"#utility.yul\":940:1042   */\n        tag_18:\n            /* \"#utility.yul\":981:987   */\n          0x00\n            /* \"#utility.yul\":1032:1034   */\n          0x1f\n            /* \"#utility.yul\":1028:1035   */\n          not\n            /* \"#utility.yul\":1023:1025   */\n          0x1f\n            /* \"#utility.yul\":1016:1021   */\n          dup4\n            /* \"#utility.yul\":1012:1026   */\n          add\n            /* \"#utility.yul\":1008:1036   */\n          and\n            /* \"#utility.yul\":998:1036   */\n          swap1\n          pop\n            /* \"#utility.yul\":940:1042   */\n          swap2\n          swap1\n          pop\n          jump\t// out\n            /* \"#utility.yul\":1048:1228   */\n        tag_19:\n            /* \"#utility.yul\":1096:1173   */\n          0x4e487b7100000000000000000000000000000000000000000000000000000000\n            /* \"#utility.yul\":1093:1094   */\n          0x00\n            /* \"#utility.yul\":1086:1174   */\n          mstore\n            /* \"#utility.yul\":1193:1197   */\n          0x41\n            /* \"#utility.yul\":1190:1191   */\n          0x04\n            /* \"#utility.yul\":1183:1198   */\n          mstore\n            /* \"#utility.yul\":1217:1221   */\n          0x24\n            /* \"#utility.yul\":1214:1215   */\n          0x00\n            /* \"#utility.yul\":1207:1222   */\n          revert\n            /* \"#utility.yul\":1234:1515   */\n        tag_20:\n            /* \"#utility.yul\":1317:1344   */\n          tag_63\n            /* \"#utility.yul\":1339:1343   */\n          dup3\n            /* \"#utility.yul\":1317:1344   */\n          tag_18\n          jump\t// in\n        tag_63:\n            /* \"#utility.yul\":1309:1315   */\n          dup2\n            /* \"#utility.yul\":1305:1345   */\n          add\n            /* \"#utility.yul\":1447:1453   */\n          dup2\n            /* \"#utility.yul\":1435:1445   */\n          dup2\n            /* \"#utility.yul\":1432:1454   */\n          lt\n            /* \"#utility.yul\":1411:1429   */\n          0xffffffffffffffff\n            /* \"#utility.yul\":1399:1409   */\n          dup3\n            /* \"#utility.yul\":1396:1430   */\n          gt\n            /* \"#utility.yul\":1393:1455   */\n          or\n            /* \"#utility.yul\":1390:1478   */\n          iszero\n          tag_64\n          jumpi\n            /* \"#utility.yul\":1458:1476   */\n          tag_65\n          tag_19\n          jump\t// in\n        tag_65:\n            /* \"#utility.yul\":1390:1478   */\n        tag_64:\n            /* \"#utility.yul\":1498:1508   */\n          dup1\n            /* \"#utility.yul\":1494:1496   */\n          0x40\n            /* \"#utility.yul\":1487:1509   */\n          mstore\n            /* \"#utility.yul\":1277:1515   */\n          pop\n            /* \"#utility.yul\":1234:1515   */\n          pop\n          pop\n          jump\t// out\n            /* \"#utility.yul\":1521:1650   */\n        tag_21:\n            /* \"#utility.yul\":1555:1561   */\n          0x00\n            /* \"#utility.yul\":1582:1602   */\n          tag_67\n          tag_10\n          jump\t// in\n        tag_67:\n            /* \"#utility.yul\":1572:1602   */\n          swap1\n          pop\n            /* \"#utility.yul\":1611:1644   */\n          tag_68\n            /* \"#utility.yul\":1639:1643   */\n          dup3\n            /* \"#utility.yul\":1631:1637   */\n          dup3\n            /* \"#utility.yul\":1611:1644   */\n          tag_20\n          jump\t// in\n        tag_68:\n            /* \"#utility.yul\":1521:1650   */\n          swap2\n          swap1\n          pop\n          jump\t// out\n            /* \"#utility.yul\":1656:1964   */\n        tag_22:\n            /* \"#utility.yul\":1718:1722   */\n          0x00\n            /* \"#utility.yul\":1808:1826   */\n          0xffffffffffffffff\n            /* \"#utility.yul\":1800:1806   */\n          dup3\n            /* \"#utility.yul\":1797:1827   */\n          gt\n            /* \"#utility.yul\":1794:1850   */\n          iszero\n          tag_70\n          jumpi\n            /* \"#utility.yul\":1830:1848   */\n          tag_71\n          tag_19\n          jump\t// in\n        tag_71:\n            /* \"#utility.yul\":1794:1850   */\n        tag_70:\n            /* \"#utility.yul\":1868:1897   */\n          tag_72\n            /* \"#utility.yul\":1890:1896   */\n          dup3\n            /* \"#utility.yul\":1868:1897   */\n          tag_18\n          jump\t// in\n        tag_72:\n            /* \"#utility.yul\":1860:1897   */\n          swap1\n          pop\n            /* \"#utility.yul\":1952:1956   */\n          0x20\n            /* \"#utility.yul\":1946:1950   */\n          dup2\n            /* \"#utility.yul\":1942:1957   */\n          add\n            /* \"#utility.yul\":1934:1957   */\n          swap1\n          pop\n            /* \"#utility.yul\":1656:1964   */\n          swap2\n          swap1\n          pop\n          jump\t// out\n            /* \"#utility.yul\":1970:2277   */\n        tag_23:\n            /* \"#utility.yul\":2038:2039   */\n          0x00\n            /* \"#utility.yul\":2048:2161   */\n        tag_74:\n            /* \"#utility.yul\":2062:2068   */\n          dup4\n            /* \"#utility.yul\":2059:2060   */\n          dup2\n            /* \"#utility.yul\":2056:2069   */\n          lt\n            /* \"#utility.yul\":2048:2161   */\n          iszero\n          tag_76\n          jumpi\n            /* \"#utility.yul\":2147:2148   */\n          dup1\n            /* \"#utility.yul\":2142:2145   */\n          dup3\n            /* \"#utility.yul\":2138:2149   */\n          add\n            /* \"#utility.yul\":2132:2150   */\n          mload\n            /* \"#utility.yul\":2128:2129   */\n          dup2\n            /* \"#utility.yul\":2123:2126   */\n          dup5\n            /* \"#utility.yul\":2119:2130   */\n          add\n            /* \"#utility.yul\":2112:2151   */\n          mstore\n            /* \"#utility.yul\":2084:2086   */\n          0x20\n            /* \"#utility.yul\":2081:2082   */\n          dup2\n            /* \"#utility.yul\":2077:2087   */\n          add\n            /* \"#utility.yul\":2072:2087   */\n          swap1\n          pop\n            /* \"#utility.yul\":2048:2161   */\n          jump(tag_74)\n        tag_76:\n            /* \"#utility.yul\":2179:2185   */\n          dup4\n            /* \"#utility.yul\":2176:2177   */\n          dup2\n            /* \"#utility.yul\":2173:2186   */\n          gt\n            /* \"#utility.yul\":2170:2271   */\n          iszero\n          tag_77\n          jumpi\n            /* \"#utility.yul\":2259:2260   */\n          0x00\n            /* \"#utility.yul\":2250:2256   */\n          dup5\n            /* \"#utility.yul\":2245:2248   */\n          dup5\n            /* \"#utility.yul\":2241:2257   */\n          add\n            /* \"#utility.yul\":2234:2261   */\n          mstore\n            /* \"#utility.yul\":2170:2271   */\n        tag_77:\n            /* \"#utility.yul\":2019:2277   */\n          pop\n            /* \"#utility.yul\":1970:2277   */\n          pop\n          pop\n          pop\n          jump\t// out\n            /* \"#utility.yul\":2283:2704   */\n        tag_24:\n            /* \"#utility.yul\":2372:2377   */\n          0x00\n            /* \"#utility.yul\":2397:2463   */\n          tag_79\n            /* \"#utility.yul\":2413:2462   */\n          tag_80\n            /* \"#utility.yul\":2455:2461   */\n          dup5\n            /* \"#utility.yul\":2413:2462   */\n          tag_22\n          jump\t// in\n        tag_80:\n            /* \"#utility.yul\":2397:2463   */\n          tag_21\n          jump\t// in\n        tag_79:\n            /* \"#utility.yul\":2388:2463   */\n          swap1\n          pop\n            /* \"#utility.yul\":2486:2492   */\n          dup3\n            /* \"#utility.yul\":2479:2484   */\n          dup2\n            /* \"#utility.yul\":2472:2493   */\n          mstore\n            /* \"#utility.yul\":2524:2528   */\n          0x20\n            /* \"#utility.yul\":2517:2522   */\n          dup2\n            /* \"#utility.yul\":2513:2529   */\n          add\n            /* \"#utility.yul\":2562:2565   */\n          dup5\n            /* \"#utility.yul\":2553:2559   */\n          dup5\n            /* \"#utility.yul\":2548:2551   */\n          dup5\n            /* \"#utility.yul\":2544:2560   */\n          add\n            /* \"#utility.yul\":2541:2566   */\n          gt\n            /* \"#utility.yul\":2538:2650   */\n          iszero\n          tag_81\n          jumpi\n            /* \"#utility.yul\":2569:2648   */\n          tag_82\n          tag_17\n          jump\t// in\n        tag_82:\n            /* \"#utility.yul\":2538:2650   */\n        tag_81:\n            /* \"#utility.yul\":2659:2698   */\n          tag_83\n            /* \"#utility.yul\":2691:2697   */\n          dup5\n            /* \"#utility.yul\":2686:2689   */\n          dup3\n            /* \"#utility.yul\":2681:2684   */\n          dup6\n            /* \"#utility.yul\":2659:2698   */\n          tag_23\n          jump\t// in\n        tag_83:\n            /* \"#utility.yul\":2378:2704   */\n          pop\n            /* \"#utility.yul\":2283:2704   */\n          swap4\n          swap3\n          pop\n          pop\n          pop\n          jump\t// out\n            /* \"#utility.yul\":2724:3079   */\n        tag_25:\n            /* \"#utility.yul\":2791:2796   */\n          0x00\n            /* \"#utility.yul\":2840:2843   */\n          dup3\n            /* \"#utility.yul\":2833:2837   */\n          0x1f\n            /* \"#utility.yul\":2825:2831   */\n          dup4\n            /* \"#utility.yul\":2821:2838   */\n          add\n            /* \"#utility.yul\":2817:2844   */\n          slt\n            /* \"#utility.yul\":2807:2929   */\n          tag_85\n          jumpi\n            /* \"#utility.yul\":2848:2927   */\n          tag_86\n          tag_16\n          jump\t// in\n        tag_86:\n            /* \"#utility.yul\":2807:2929   */\n        tag_85:\n            /* \"#utility.yul\":2958:2964   */\n          dup2\n            /* \"#utility.yul\":2952:2965   */\n          mload\n            /* \"#utility.yul\":2983:3073   */\n          tag_87\n            /* \"#utility.yul\":3069:3072   */\n          dup5\n            /* \"#utility.yul\":3061:3067   */\n          dup3\n            /* \"#utility.yul\":3054:3058   */\n          0x20\n            /* \"#utility.yul\":3046:3052   */\n          dup7\n            /* \"#utility.yul\":3042:3059   */\n          add\n            /* \"#utility.yul\":2983:3073   */\n          tag_24\n          jump\t// in\n        tag_87:\n            /* \"#utility.yul\":2974:3073   */\n          swap2\n          pop\n            /* \"#utility.yul\":2797:3079   */\n          pop\n            /* \"#utility.yul\":2724:3079   */\n          swap3\n          swap2\n          pop\n          pop\n          jump\t// out\n            /* \"#utility.yul\":3085:3211   */\n        tag_26:\n            /* \"#utility.yul\":3122:3129   */\n          0x00\n            /* \"#utility.yul\":3162:3204   */\n          0xffffffffffffffffffffffffffffffffffffffff\n            /* \"#utility.yul\":3155:3160   */\n          dup3\n            /* \"#utility.yul\":3151:3205   */\n          and\n            /* \"#utility.yul\":3140:3205   */\n          swap1\n          pop\n            /* \"#utility.yul\":3085:3211   */\n          swap2\n          swap1\n          pop\n          jump\t// out\n            /* \"#utility.yul\":3217:3313   */\n        tag_27:\n            /* \"#utility.yul\":3254:3261   */\n          0x00\n            /* \"#utility.yul\":3283:3307   */\n          tag_90\n            /* \"#utility.yul\":3301:3306   */\n          dup3\n            /* \"#utility.yul\":3283:3307   */\n          tag_26\n          jump\t// in\n        tag_90:\n            /* \"#utility.yul\":3272:3307   */\n          swap1\n          pop\n            /* \"#utility.yul\":3217:3313   */\n          swap2\n          swap1\n          pop\n          jump\t// out\n            /* \"#utility.yul\":3319:3441   */\n        tag_28:\n            /* \"#utility.yul\":3392:3416   */\n          tag_92\n            /* \"#utility.yul\":3410:3415   */\n          dup2\n            /* \"#utility.yul\":3392:3416   */\n          tag_27\n          jump\t// in\n        tag_92:\n            /* \"#utility.yul\":3385:3390   */\n          dup2\n            /* \"#utility.yul\":3382:3417   */\n          eq\n            /* \"#utility.yul\":3372:3435   */\n          tag_93\n          jumpi\n            /* \"#utility.yul\":3431:3432   */\n          0x00\n            /* \"#utility.yul\":3428:3429   */\n          dup1\n            /* \"#utility.yul\":3421:3433   */\n          revert\n            /* \"#utility.yul\":3372:3435   */\n        tag_93:\n            /* \"#utility.yul\":3319:3441   */\n          pop\n          jump\t// out\n            /* \"#utility.yul\":3447:3590   */\n        tag_29:\n            /* \"#utility.yul\":3504:3509   */\n          0x00\n            /* \"#utility.yul\":3535:3541   */\n          dup2\n            /* \"#utility.yul\":3529:3542   */\n          mload\n            /* \"#utility.yul\":3520:3542   */\n          swap1\n          pop\n            /* \"#utility.yul\":3551:3584   */\n          tag_95\n            /* \"#utility.yul\":3578:3583   */\n          dup2\n            /* \"#utility.yul\":3551:3584   */\n          tag_28\n          jump\t// in\n        tag_95:\n            /* \"#utility.yul\":3447:3590   */\n          swap3\n          swap2\n          pop\n          pop\n          jump\t// out\n            /* \"#utility.yul\":3596:4919   */\n        tag_3:\n            /* \"#utility.yul\":3722:3728   */\n          0x00\n            /* \"#utility.yul\":3730:3736   */\n          dup1\n            /* \"#utility.yul\":3738:3744   */\n          0x00\n            /* \"#utility.yul\":3746:3752   */\n          dup1\n            /* \"#utility.yul\":3754:3760   */\n          0x00\n            /* \"#utility.yul\":3803:3806   */\n          0xa0\n            /* \"#utility.yul\":3791:3800   */\n          dup7\n            /* \"#utility.yul\":3782:3789   */\n          dup9\n            /* \"#utility.yul\":3778:3801   */\n          sub\n            /* \"#utility.yul\":3774:3807   */\n          slt\n            /* \"#utility.yul\":3771:3891   */\n          iszero\n          tag_97\n          jumpi\n            /* \"#utility.yul\":3810:3889   */\n          tag_98\n          tag_11\n          jump\t// in\n        tag_98:\n            /* \"#utility.yul\":3771:3891   */\n        tag_97:\n            /* \"#utility.yul\":3930:3931   */\n          0x00\n            /* \"#utility.yul\":3955:4019   */\n          tag_99\n            /* \"#utility.yul\":4011:4018   */\n          dup9\n            /* \"#utility.yul\":4002:4008   */\n          dup3\n            /* \"#utility.yul\":3991:4000   */\n          dup10\n            /* \"#utility.yul\":3987:4009   */\n          add\n            /* \"#utility.yul\":3955:4019   */\n          tag_15\n          jump\t// in\n        tag_99:\n            /* \"#utility.yul\":3945:4019   */\n          swap6\n          pop\n            /* \"#utility.yul\":3901:4029   */\n          pop\n            /* \"#utility.yul\":4089:4091   */\n          0x20\n            /* \"#utility.yul\":4078:4087   */\n          dup7\n            /* \"#utility.yul\":4074:4092   */\n          add\n            /* \"#utility.yul\":4068:4093   */\n          mload\n            /* \"#utility.yul\":4120:4138   */\n          0xffffffffffffffff\n            /* \"#utility.yul\":4112:4118   */\n          dup2\n            /* \"#utility.yul\":4109:4139   */\n          gt\n            /* \"#utility.yul\":4106:4223   */\n          iszero\n          tag_100\n          jumpi\n            /* \"#utility.yul\":4142:4221   */\n          tag_101\n          tag_12\n          jump\t// in\n        tag_101:\n            /* \"#utility.yul\":4106:4223   */\n        tag_100:\n            /* \"#utility.yul\":4247:4321   */\n          tag_102\n            /* \"#utility.yul\":4313:4320   */\n          dup9\n            /* \"#utility.yul\":4304:4310   */\n          dup3\n            /* \"#utility.yul\":4293:4302   */\n          dup10\n            /* \"#utility.yul\":4289:4311   */\n          add\n            /* \"#utility.yul\":4247:4321   */\n          tag_25\n          jump\t// in\n        tag_102:\n            /* \"#utility.yul\":4237:4321   */\n          swap5\n          pop\n            /* \"#utility.yul\":4039:4331   */\n          pop\n            /* \"#utility.yul\":4391:4393   */\n          0x40\n            /* \"#utility.yul\":4380:4389   */\n          dup7\n            /* \"#utility.yul\":4376:4394   */\n          add\n            /* \"#utility.yul\":4370:4395   */\n          mload\n            /* \"#utility.yul\":4422:4440   */\n          0xffffffffffffffff\n            /* \"#utility.yul\":4414:4420   */\n          dup2\n            /* \"#utility.yul\":4411:4441   */\n          gt\n            /* \"#utility.yul\":4408:4525   */\n          iszero\n          tag_103\n          jumpi\n            /* \"#utility.yul\":4444:4523   */\n          tag_104\n          tag_12\n          jump\t// in\n        tag_104:\n            /* \"#utility.yul\":4408:4525   */\n        tag_103:\n            /* \"#utility.yul\":4549:4623   */\n          tag_105\n            /* \"#utility.yul\":4615:4622   */\n          dup9\n            /* \"#utility.yul\":4606:4612   */\n          dup3\n            /* \"#utility.yul\":4595:4604   */\n          dup10\n            /* \"#utility.yul\":4591:4613   */\n          add\n            /* \"#utility.yul\":4549:4623   */\n          tag_25\n          jump\t// in\n        tag_105:\n            /* \"#utility.yul\":4539:4623   */\n          swap4\n          pop\n            /* \"#utility.yul\":4341:4633   */\n          pop\n            /* \"#utility.yul\":4672:4674   */\n          0x60\n            /* \"#utility.yul\":4698:4762   */\n          tag_106\n            /* \"#utility.yul\":4754:4761   */\n          dup9\n            /* \"#utility.yul\":4745:4751   */\n          dup3\n            /* \"#utility.yul\":4734:4743   */\n          dup10\n            /* \"#utility.yul\":4730:4752   */\n          add\n            /* \"#utility.yul\":4698:4762   */\n          tag_29\n          jump\t// in\n        tag_106:\n            /* \"#utility.yul\":4688:4762   */\n          swap3\n          pop\n            /* \"#utility.yul\":4643:4772   */\n          pop\n            /* \"#utility.yul\":4811:4814   */\n          0x80\n            /* \"#utility.yul\":4838:4902   */\n          tag_107\n            /* \"#utility.yul\":4894:4901   */\n          dup9\n            /* \"#utility.yul\":4885:4891   */\n          dup3\n            /* \"#utility.yul\":4874:4883   */\n          dup10\n            /* \"#utility.yul\":4870:4892   */\n          add\n            /* \"#utility.yul\":4838:4902   */\n          tag_15\n          jump\t// in\n        tag_107:\n            /* \"#utility.yul\":4828:4902   */\n          swap2\n          pop\n            /* \"#utility.yul\":4782:4912   */\n          pop\n            /* \"#utility.yul\":3596:4919   */\n          swap3\n          swap6\n          pop\n          swap3\n          swap6\n          swap1\n          swap4\n          pop\n          jump\t// out\n            /* \"#utility.yul\":4925:5024   */\n        tag_30:\n            /* \"#utility.yul\":4977:4983   */\n          0x00\n            /* \"#utility.yul\":5011:5016   */\n          dup2\n            /* \"#utility.yul\":5005:5017   */\n          mload\n            /* \"#utility.yul\":4995:5017   */\n          swap1\n          pop\n            /* \"#utility.yul\":4925:5024   */\n          swap2\n          swap1\n          pop\n          jump\t// out\n            /* \"#utility.yul\":5030:5210   */\n        tag_31:\n            /* \"#utility.yul\":5078:5155   */\n          0x4e487b7100000000000000000000000000000000000000000000000000000000\n            /* \"#utility.yul\":5075:5076   */\n          0x00\n            /* \"#utility.yul\":5068:5156   */\n          mstore\n            /* \"#utility.yul\":5175:5179   */\n          0x22\n            /* \"#utility.yul\":5172:5173   */\n          0x04\n            /* \"#utility.yul\":5165:5180   */\n          mstore\n            /* \"#utility.yul\":5199:5203   */\n          0x24\n            /* \"#utility.yul\":5196:5197   */\n          0x00\n            /* \"#utility.yul\":5189:5204   */\n          revert\n            /* \"#utility.yul\":5216:5536   */\n        tag_32:\n            /* \"#utility.yul\":5260:5266   */\n          0x00\n            /* \"#utility.yul\":5297:5298   */\n          0x02\n            /* \"#utility.yul\":5291:5295   */\n          dup3\n            /* \"#utility.yul\":5287:5299   */\n          div\n            /* \"#utility.yul\":5277:5299   */\n          swap1\n          pop\n            /* \"#utility.yul\":5344:5345   */\n          0x01\n            /* \"#utility.yul\":5338:5342   */\n          dup3\n            /* \"#utility.yul\":5334:5346   */\n          and\n            /* \"#utility.yul\":5365:5383   */\n          dup1\n            /* \"#utility.yul\":5355:5436   */\n          tag_111\n          jumpi\n            /* \"#utility.yul\":5421:5425   */\n          0x7f\n            /* \"#utility.yul\":5413:5419   */\n          dup3\n            /* \"#utility.yul\":5409:5426   */\n          and\n            /* \"#utility.yul\":5399:5426   */\n          swap2\n          pop\n            /* \"#utility.yul\":5355:5436   */\n        tag_111:\n            /* \"#utility.yul\":5483:5485   */\n          0x20\n            /* \"#utility.yul\":5475:5481   */\n          dup3\n            /* \"#utility.yul\":5472:5486   */\n          lt\n            /* \"#utility.yul\":5452:5470   */\n          dup2\n            /* \"#utility.yul\":5449:5487   */\n          sub\n            /* \"#utility.yul\":5446:5530   */\n          tag_112\n          jumpi\n            /* \"#utility.yul\":5502:5520   */\n          tag_113\n          tag_31\n          jump\t// in\n        tag_113:\n            /* \"#utility.yul\":5446:5530   */\n        tag_112:\n            /* \"#utility.yul\":5267:5536   */\n          pop\n            /* \"#utility.yul\":5216:5536   */\n          swap2\n          swap1\n          pop\n          jump\t// out\n            /* \"#utility.yul\":5542:5683   */\n        tag_33:\n            /* \"#utility.yul\":5591:5595   */\n          0x00\n            /* \"#utility.yul\":5614:5617   */\n          dup2\n            /* \"#utility.yul\":5606:5617   */\n          swap1\n          pop\n            /* \"#utility.yul\":5637:5640   */\n          dup2\n            /* \"#utility.yul\":5634:5635   */\n          0x00\n            /* \"#utility.yul\":5627:5641   */\n          mstore\n            /* \"#utility.yul\":5671:5675   */\n          0x20\n            /* \"#utility.yul\":5668:5669   */\n          0x00\n            /* \"#utility.yul\":5658:5676   */\n          keccak256\n            /* \"#utility.yul\":5650:5676   */\n          swap1\n          pop\n            /* \"#utility.yul\":5542:5683   */\n          swap2\n          swap1\n          pop\n          jump\t// out\n            /* \"#utility.yul\":5689:5782   */\n        tag_34:\n            /* \"#utility.yul\":5726:5732   */\n          0x00\n            /* \"#utility.yul\":5773:5775   */\n          0x20\n            /* \"#utility.yul\":5768:5770   */\n          0x1f\n            /* \"#utility.yul\":5761:5766   */\n          dup4\n            /* \"#utility.yul\":5757:5771   */\n          add\n            /* \"#utility.yul\":5753:5776   */\n          div\n            /* \"#utility.yul\":5743:5776   */\n          swap1\n          pop\n            /* \"#utility.yul\":5689:5782   */\n          swap2\n          swap1\n          pop\n          jump\t// out\n            /* \"#utility.yul\":5788:5895   */\n        tag_35:\n            /* \"#utility.yul\":5832:5840   */\n          0x00\n            /* \"#utility.yul\":5882:5887   */\n          dup3\n            /* \"#utility.yul\":5876:5880   */\n          dup3\n            /* \"#utility.yul\":5872:5888   */\n          shl\n            /* \"#utility.yul\":5851:5888   */\n          swap1\n          pop\n            /* \"#utility.yul\":5788:5895   */\n          swap3\n          swap2\n          pop\n          pop\n          jump\t// out\n            /* \"#utility.yul\":5901:6294   */\n        tag_36:\n            /* \"#utility.yul\":5970:5976   */\n          0x00\n            /* \"#utility.yul\":6020:6021   */\n          0x08\n            /* \"#utility.yul\":6008:6018   */\n          dup4\n            /* \"#utility.yul\":6004:6022   */\n          mul\n            /* \"#utility.yul\":6043:6140   */\n          tag_118\n            /* \"#utility.yul\":6073:6139   */\n          0xffffffffffffffffffffffffffffffffffffffffffffffffffffffffffffffff\n            /* \"#utility.yul\":6062:6071   */\n          dup3\n            /* \"#utility.yul\":6043:6140   */\n          tag_35\n          jump\t// in\n        tag_118:\n            /* \"#utility.yul\":6161:6200   */\n          tag_119\n            /* \"#utility.yul\":6191:6199   */\n          dup7\n            /* \"#utility.yul\":6180:6189   */\n          dup4\n            /* \"#utility.yul\":6161:6200   */\n          tag_35\n          jump\t// in\n        tag_119:\n            /* \"#utility.yul\":6149:6200   */\n          swap6\n          pop\n            /* \"#utility.yul\":6233:6237   */\n          dup1\n            /* \"#utility.yul\":6229:6238   */\n          not\n            /* \"#utility.yul\":6222:6227   */\n          dup5\n            /* \"#utility.yul\":6218:6239   */\n          and\n            /* \"#utility.yul\":6209:6239   */\n          swap4\n          pop\n            /* \"#utility.yul\":6282:6286   */\n          dup1\n            /* \"#utility.yul\":6272:6280   */\n          dup7\n            /* \"#utility.yul\":6268:6287   */\n          and\n            /* \"#utility.yul\":6261:6266   */\n          dup5\n            /* \"#utility.yul\":6258:6288   */\n          or\n            /* \"#utility.yul\":6248:6288   */\n          swap3\n          pop\n            /* \"#utility.yul\":5977:6294   */\n          pop\n          pop\n            /* \"#utility.yul\":5901:6294   */\n          swap4\n          swap3\n          pop\n          pop\n          pop\n          jump\t// out\n            /* \"#utility.yul\":6300:6360   */\n        tag_37:\n            /* \"#utility.yul\":6328:6331   */\n          0x00\n            /* \"#utility.yul\":6349:6354   */\n          dup2\n            /* \"#utility.yul\":6342:6354   */\n          swap1\n          pop\n            /* \"#utility.yul\":6300:6360   */\n          swap2\n          swap1\n          pop\n          jump\t// out\n            /* \"#utility.yul\":6366:6508   */\n        tag_38:\n            /* \"#utility.yul\":6416:6425   */\n          0x00\n            /* \"#utility.yul\":6449:6502   */\n          tag_122\n            /* \"#utility.yul\":6467:6501   */\n          tag_123\n            /* \"#utility.yul\":6476:6500   */\n          tag_124\n            /* \"#utility.yul\":6494:6499   */\n          dup5\n            /* \"#utility.yul\":6476:6500   */\n          tag_13\n          jump\t// in\n        tag_124:\n            /* \"#utility.yul\":6467:6501   */\n          tag_37\n          jump\t// in\n        tag_123:\n            /* \"#utility.yul\":6449:6502   */\n          tag_13\n          jump\t// in\n        tag_122:\n            /* \"#utility.yul\":6436:6502   */\n          swap1\n          pop\n            /* \"#utility.yul\":6366:6508   */\n          swap2\n          swap1\n          pop\n          jump\t// out\n            /* \"#utility.yul\":6514:6589   */\n        tag_39:\n            /* \"#utility.yul\":6557:6560   */\n          0x00\n            /* \"#utility.yul\":6578:6583   */\n          dup2\n            /* \"#utility.yul\":6571:6583   */\n          swap1\n          pop\n            /* \"#utility.yul\":6514:6589   */\n          swap2\n          swap1\n          pop\n          jump\t// out\n            /* \"#utility.yul\":6595:6864   */\n        tag_40:\n            /* \"#utility.yul\":6705:6744   */\n          tag_127\n            /* \"#utility.yul\":6736:6743   */\n          dup4\n            /* \"#utility.yul\":6705:6744   */\n          tag_38\n          jump\t// in\n        tag_127:\n            /* \"#utility.yul\":6766:6857   */\n          tag_128\n            /* \"#utility.yul\":6815:6856   */\n          tag_129\n            /* \"#utility.yul\":6839:6855   */\n          dup3\n            /* \"#utility.yul\":6815:6856   */\n          tag_39\n          jump\t// in\n        tag_129:\n            /* \"#utility.yul\":6807:6813   */\n          dup5\n            /* \"#utility.yul\":6800:6804   */\n          dup5\n            /* \"#utility.yul\":6794:6805   */\n          sload\n            /* \"#utility.yul\":6766:6857   */\n          tag_36\n          jump\t// in\n        tag_128:\n            /* \"#utility.yul\":6760:6764   */\n          dup3\n            /* \"#utility.yul\":6753:6858   */\n          sstore\n            /* \"#utility.yul\":6671:6864   */\n          pop\n            /* \"#utility.yul\":6595:6864   */\n          pop\n          pop\n          pop\n          jump\t// out\n            /* \"#utility.yul\":6870:6943   */\n        tag_41:\n            /* \"#utility.yul\":6915:6918   */\n          0x00\n            /* \"#utility.yul\":6870:6943   */\n          swap1\n          jump\t// out\n            /* \"#utility.yul\":6949:7138   */\n        tag_42:\n            /* \"#utility.yul\":7026:7058   */\n          tag_132\n          tag_41\n          jump\t// in\n        tag_132:\n            /* \"#utility.yul\":7067:7132   */\n          tag_133\n            /* \"#utility.yul\":7125:7131   */\n          dup2\n            /* \"#utility.yul\":7117:7123   */\n          dup5\n            /* \"#utility.yul\":7111:7115   */\n          dup5\n            /* \"#utility.yul\":7067:7132   */\n          tag_40\n          jump\t// in\n        tag_133:\n            /* \"#utility.yul\":7002:7138   */\n          pop\n            /* \"#utility.yul\":6949:7138   */\n          pop\n          pop\n          jump\t// out\n            /* \"#utility.yul\":7144:7330   */\n        tag_43:\n            /* \"#utility.yul\":7204:7324   */\n        tag_135:\n            /* \"#utility.yul\":7221:7224   */\n          dup2\n            /* \"#utility.yul\":7214:7219   */\n          dup2\n            /* \"#utility.yul\":7211:7225   */\n          lt\n            /* \"#utility.yul\":7204:7324   */\n          iszero\n          tag_137\n          jumpi\n            /* \"#utility.yul\":7275:7314   */\n          tag_138\n            /* \"#utility.yul\":7312:7313   */\n          0x00\n            /* \"#utility.yul\":7305:7310   */\n          dup3\n            /* \"#utility.yul\":7275:7314   */\n          tag_42\n          jump\t// in\n        tag_138:\n            /* \"#utility.yul\":7248:7249   */\n          0x01\n            /* \"#utility.yul\":7241:7246   */\n          dup2\n            /* \"#utility.yul\":7237:7250   */\n          add\n            /* \"#utility.yul\":7228:7250   */\n          swap1\n          pop\n            /* \"#utility.yul\":7204:7324   */\n          jump(tag_135)\n        tag_137:\n            /* \"#utility.yul\":7144:7330   */\n          pop\n          pop\n          jump\t// out\n            /* \"#utility.yul\":7336:7879   */\n        tag_44:\n            /* \"#utility.yul\":7437:7439   */\n          0x1f\n            /* \"#utility.yul\":7432:7435   */\n          dup3\n            /* \"#utility.yul\":7429:7440   */\n          gt\n            /* \"#utility.yul\":7426:7872   */\n          iszero\n          tag_140\n          jumpi\n            /* \"#utility.yul\":7471:7509   */\n          tag_141\n            /* \"#utility.yul\":7503:7508   */\n          dup2\n            /* \"#utility.yul\":7471:7509   */\n          tag_33\n          jump\t// in\n        tag_141:\n            /* \"#utility.yul\":7555:7584   */\n          tag_142\n            /* \"#utility.yul\":7573:7583   */\n          dup5\n            /* \"#utility.yul\":7555:7584   */\n          tag_34\n          jump\t// in\n        tag_142:\n            /* \"#utility.yul\":7545:7553   */\n          dup2\n            /* \"#utility.yul\":7541:7585   */\n          add\n            /* \"#utility.yul\":7738:7740   */\n          0x20\n            /* \"#utility.yul\":7726:7736   */\n          dup6\n            /* \"#utility.yul\":7723:7741   */\n          lt\n            /* \"#utility.yul\":7720:7769   */\n          iszero\n          tag_143\n          jumpi\n            /* \"#utility.yul\":7759:7767   */\n          dup2\n            /* \"#utility.yul\":7744:7767   */\n          swap1\n          pop\n            /* \"#utility.yul\":7720:7769   */\n        tag_143:\n            /* \"#utility.yul\":7782:7862   */\n          tag_144\n            /* \"#utility.yul\":7838:7860   */\n          tag_145\n            /* \"#utility.yul\":7856:7859   */\n          dup6\n            /* \"#utility.yul\":7838:7860   */\n          tag_34\n          jump\t// in\n        tag_145:\n            /* \"#utility.yul\":7828:7836   */\n          dup4\n            /* \"#utility.yul\":7824:7861   */\n          add\n            /* \"#utility.yul\":7811:7822   */\n          dup3\n            /* \"#utility.yul\":7782:7862   */\n          tag_43\n          jump\t// in\n        tag_144:\n            /* \"#utility.yul\":7441:7872   */\n          pop\n          pop\n            /* \"#utility.yul\":7426:7872   */\n        tag_140:\n            /* \"#utility.yul\":7336:7879   */\n          pop\n          pop\n          pop\n          jump\t// out\n            /* \"#utility.yul\":7885:8002   */\n        tag_45:\n            /* \"#utility.yul\":7939:7947   */\n          0x00\n            /* \"#utility.yul\":7989:7994   */\n          dup3\n            /* \"#utility.yul\":7983:7987   */\n          dup3\n            /* \"#utility.yul\":7979:7995   */\n          shr\n            /* \"#utility.yul\":7958:7995   */\n          swap1\n          pop\n            /* \"#utility.yul\":7885:8002   */\n          swap3\n          swap2\n          pop\n          pop\n          jump\t// out\n            /* \"#utility.yul\":8008:8177   */\n        tag_46:\n            /* \"#utility.yul\":8052:8058   */\n          0x00\n            /* \"#utility.yul\":8085:8136   */\n          tag_148\n            /* \"#utility.yul\":8133:8134   */\n          0x00\n            /* \"#utility.yul\":8129:8135   */\n          not\n            /* \"#utility.yul\":8121:8126   */\n          dup5\n            /* \"#utility.yul\":8118:8119   */\n          0x08\n            /* \"#utility.yul\":8114:8127   */\n          mul\n            /* \"#utility.yul\":8085:8136   */\n          tag_45\n          jump\t// in\n        tag_148:\n            /* \"#utility.yul\":8081:8137   */\n          not\n            /* \"#utility.yul\":8166:8170   */\n          dup1\n            /* \"#utility.yul\":8160:8164   */\n          dup4\n            /* \"#utility.yul\":8156:8171   */\n          and\n            /* \"#utility.yul\":8146:8171   */\n          swap2\n          pop\n            /* \"#utility.yul\":8059:8177   */\n          pop\n            /* \"#utility.yul\":8008:8177   */\n          swap3\n          swap2\n          pop\n          pop\n          jump\t// out\n            /* \"#utility.yul\":8182:8477   */\n        tag_47:\n            /* \"#utility.yul\":8258:8262   */\n          0x00\n            /* \"#utility.yul\":8404:8433   */\n          tag_150\n            /* \"#utility.yul\":8429:8432   */\n          dup4\n            /* \"#utility.yul\":8423:8427   */\n          dup4\n            /* \"#utility.yul\":8404:8433   */\n          tag_46\n          jump\t// in\n        tag_150:\n            /* \"#utility.yul\":8396:8433   */\n          swap2\n          pop\n            /* \"#utility.yul\":8466:8469   */\n          dup3\n            /* \"#utility.yul\":8463:8464   */\n          0x02\n            /* \"#utility.yul\":8459:8470   */\n          mul\n            /* \"#utility.yul\":8453:8457   */\n          dup3\n            /* \"#utility.yul\":8450:8471   */\n          or\n            /* \"#utility.yul\":8442:8471   */\n          swap1\n          pop\n            /* \"#utility.yul\":8182:8477   */\n          swap3\n          swap2\n          pop\n          pop\n          jump\t// out\n            /* \"#utility.yul\":8482:9877   */\n        tag_7:\n            /* \"#utility.yul\":8599:8636   */\n          tag_152\n            /* \"#utility.yul\":8632:8635   */\n          dup3\n            /* \"#utility.yul\":8599:8636   */\n          tag_30\n          jump\t// in\n        tag_152:\n            /* \"#utility.yul\":8701:8719   */\n          0xffffffffffffffff\n            /* \"#utility.yul\":8693:8699   */\n          dup2\n            /* \"#utility.yul\":8690:8720   */\n          gt\n            /* \"#utility.yul\":8687:8743   */\n          iszero\n          tag_153\n          jumpi\n            /* \"#utility.yul\":8723:8741   */\n          tag_154\n          tag_19\n          jump\t// in\n        tag_154:\n            /* \"#utility.yul\":8687:8743   */\n        tag_153:\n            /* \"#utility.yul\":8767:8805   */\n          tag_155\n            /* \"#utility.yul\":8799:8803   */\n          dup3\n            /* \"#utility.yul\":8793:8804   */\n          sload\n            /* \"#utility.yul\":8767:8805   */\n          tag_32\n          jump\t// in\n        tag_155:\n            /* \"#utility.yul\":8852:8919   */\n          tag_156\n            /* \"#utility.yul\":8912:8918   */\n          dup3\n            /* \"#utility.yul\":8904:8910   */\n          dup3\n            /* \"#utility.yul\":8898:8902   */\n          dup6\n            /* \"#utility.yul\":8852:8919   */\n          tag_44\n          jump\t// in\n        tag_156:\n            /* \"#utility.yul\":8946:8947   */\n          0x00\n            /* \"#utility.yul\":8970:8974   */\n          0x20\n            /* \"#utility.yul\":8957:8974   */\n          swap1\n          pop\n            /* \"#utility.yul\":9002:9004   */\n          0x1f\n            /* \"#utility.yul\":8994:9000   */\n          dup4\n            /* \"#utility.yul\":8991:9005   */\n          gt\n            /* \"#utility.yul\":9019:9020   */\n          0x01\n            /* \"#utility.yul\":9014:9632   */\n          dup2\n          eq\n          tag_158\n          jumpi\n            /* \"#utility.yul\":9676:9677   */\n          0x00\n            /* \"#utility.yul\":9693:9699   */\n          dup5\n            /* \"#utility.yul\":9690:9767   */\n          iszero\n          tag_159\n          jumpi\n            /* \"#utility.yul\":9742:9751   */\n          dup3\n            /* \"#utility.yul\":9737:9740   */\n          dup8\n            /* \"#utility.yul\":9733:9752   */\n          add\n            /* \"#utility.yul\":9727:9753   */\n          mload\n            /* \"#utility.yul\":9718:9753   */\n          swap1\n          pop\n            /* \"#utility.yul\":9690:9767   */\n        tag_159:\n            /* \"#utility.yul\":9793:9860   */\n          tag_160\n            /* \"#utility.yul\":9853:9859   */\n          dup6\n            /* \"#utility.yul\":9846:9851   */\n          dup3\n            /* \"#utility.yul\":9793:9860   */\n          tag_47\n          jump\t// in\n        tag_160:\n            /* \"#utility.yul\":9787:9791   */\n          dup7\n            /* \"#utility.yul\":9780:9861   */\n          sstore\n            /* \"#utility.yul\":9649:9871   */\n          pop\n            /* \"#utility.yul\":8984:9871   */\n          jump(tag_157)\n            /* \"#utility.yul\":9014:9632   */\n        tag_158:\n            /* \"#utility.yul\":9066:9070   */\n          0x1f\n            /* \"#utility.yul\":9062:9071   */\n          not\n            /* \"#utility.yul\":9054:9060   */\n          dup5\n            /* \"#utility.yul\":9050:9072   */\n          and\n            /* \"#utility.yul\":9100:9137   */\n          tag_161\n            /* \"#utility.yul\":9132:9136   */\n          dup7\n            /* \"#utility.yul\":9100:9137   */\n          tag_33\n          jump\t// in\n        tag_161:\n            /* \"#utility.yul\":9159:9160   */\n          0x00\n            /* \"#utility.yul\":9173:9381   */\n        tag_162:\n            /* \"#utility.yul\":9187:9194   */\n          dup3\n            /* \"#utility.yul\":9184:9185   */\n          dup2\n            /* \"#utility.yul\":9181:9195   */\n          lt\n            /* \"#utility.yul\":9173:9381   */\n          iszero\n          tag_164\n          jumpi\n            /* \"#utility.yul\":9266:9275   */\n          dup5\n            /* \"#utility.yul\":9261:9264   */\n          dup10\n            /* \"#utility.yul\":9257:9276   */\n          add\n            /* \"#utility.yul\":9251:9277   */\n          mload\n            /* \"#utility.yul\":9243:9249   */\n          dup3\n            /* \"#utility.yul\":9236:9278   */\n          sstore\n            /* \"#utility.yul\":9317:9318   */\n          0x01\n            /* \"#utility.yul\":9309:9315   */\n          dup3\n            /* \"#utility.yul\":9305:9319   */\n          add\n            /* \"#utility.yul\":9295:9319   */\n          swap2\n          pop\n            /* \"#utility.yul\":9364:9366   */\n          0x20\n            /* \"#utility.yul\":9353:9362   */\n          dup6\n            /* \"#utility.yul\":9349:9367   */\n          add\n            /* \"#utility.yul\":9336:9367   */\n          swap5\n          pop\n            /* \"#utility.yul\":9210:9214   */\n          0x20\n            /* \"#utility.yul\":9207:9208   */\n          dup2\n            /* \"#utility.yul\":9203:9215   */\n          add\n            /* \"#utility.yul\":9198:9215   */\n          swap1\n          pop\n            /* \"#utility.yul\":9173:9381   */\n          jump(tag_162)\n        tag_164:\n            /* \"#utility.yul\":9409:9415   */\n          dup7\n            /* \"#utility.yul\":9400:9407   */\n          dup4\n            /* \"#utility.yul\":9397:9416   */\n          lt\n            /* \"#utility.yul\":9394:9573   */\n          iszero\n          tag_165\n          jumpi\n            /* \"#utility.yul\":9467:9476   */\n          dup5\n            /* \"#utility.yul\":9462:9465   */\n          dup10\n            /* \"#utility.yul\":9458:9477   */\n          add\n            /* \"#utility.yul\":9452:9478   */\n          mload\n            /* \"#utility.yul\":9510:9558   */\n          tag_166\n            /* \"#utility.yul\":9552:9556   */\n          0x1f\n            /* \"#utility.yul\":9544:9550   */\n          dup10\n            /* \"#utility.yul\":9540:9557   */\n          and\n            /* \"#utility.yul\":9529:9538   */\n          dup3\n            /* \"#utility.yul\":9510:9558   */\n          tag_46\n          jump\t// in\n        tag_166:\n            /* \"#utility.yul\":9502:9508   */\n          dup4\n            /* \"#utility.yul\":9495:9559   */\n          sstore\n            /* \"#utility.yul\":9417:9573   */\n          pop\n            /* \"#utility.yul\":9394:9573   */\n        tag_165:\n            /* \"#utility.yul\":9619:9620   */\n          0x01\n            /* \"#utility.yul\":9615:9616   */\n          0x02\n            /* \"#utility.yul\":9607:9613   */\n          dup9\n            /* \"#utility.yul\":9603:9617   */\n          mul\n            /* \"#utility.yul\":9599:9621   */\n          add\n            /* \"#utility.yul\":9593:9597   */\n          dup9\n            /* \"#utility.yul\":9586:9622   */\n          sstore\n            /* \"#utility.yul\":9021:9632   */\n          pop\n          pop\n          pop\n            /* \"#utility.yul\":8984:9871   */\n        tag_157:\n          pop\n            /* \"#utility.yul\":8574:9877   */\n          pop\n          pop\n          pop\n            /* \"#utility.yul\":8482:9877   */\n          pop\n          pop\n          jump\t// out\n            /* \"Campaign.sol\":1114:7450  contract Campaign {... */\n        tag_9:\n          dataSize(sub_0)\n          dup1\n          dataOffset(sub_0)\n          0x00\n          codecopy\n          0x00\n          return\n        stop\n\n        sub_0: assembly {\n                /* \"Campaign.sol\":1114:7450  contract Campaign {... */\n              mstore(0x40, 0x80)\n              jumpi(tag_1, lt(calldatasize, 0x04))\n              shr(0xe0, calldataload(0x00))\n              dup1\n              0x82fde093\n              gt\n              tag_25\n              jumpi\n              dup1\n              0x9ace38c2\n              gt\n              tag_26\n              jumpi\n              dup1\n              0x9ace38c2\n              eq\n              tag_19\n              jumpi\n              dup1\n              0xa39fac12\n              eq\n              tag_20\n              jumpi\n              dup1\n              0xc8b342ab\n              eq\n              tag_21\n              jumpi\n              dup1\n              0xd57bde79\n              eq\n              tag_22\n              jumpi\n              dup1\n              0xd7bb99ba\n              eq\n              tag_23\n              jumpi\n              dup1\n              0xedf26d9b\n              eq\n              tag_24\n              jumpi\n              jump(tag_1)\n            tag_26:\n              dup1\n              0x82fde093\n              eq\n              tag_13\n              jumpi\n              dup1\n              0x83920e90\n              eq\n              tag_14\n              jumpi\n              dup1\n              0x8d2a1dad\n              eq\n              tag_15\n              jumpi\n              dup1\n              0x91f90157\n              eq\n              tag_16\n              jumpi\n              dup1\n              0x937e09b1\n              eq\n              tag_17\n              jumpi\n              dup1\n              0x94073c25\n              eq\n              tag_18\n              jumpi\n              jump(tag_1)\n            tag_25:\n              dup1\n              0x4e69d560\n              gt\n              tag_27\n              jumpi\n              dup1\n              0x4e69d560\n              eq\n              tag_7\n              jumpi\n              dup1\n              0x4ede3648\n              eq\n              tag_8\n              jumpi\n              dup1\n              0x58d65629\n              eq\n              tag_9\n              jumpi\n              dup1\n              0x597e1fb5\n              eq\n              tag_10\n              jumpi\n              dup1\n              0x7b87d856\n              eq\n              tag_11\n              jumpi\n              dup1\n              0x7e06eb7d\n              eq\n              tag_12\n              jumpi\n              jump(tag_1)\n            tag_27:\n              dup1\n              0x0a144391\n              eq\n              tag_2\n              jumpi\n              dup1\n              0x2ebc9a3e\n              eq\n              tag_3\n              jumpi\n              dup1\n              0x3197cbb6\n              eq\n              tag_4\n              jumpi\n              dup1\n              0x4051ddac\n              eq\n              tag_5\n              jumpi\n              dup1\n              0x481c6a75\n              eq\n              tag_6\n              jumpi\n            tag_1:\n              0x00\n              dup1\n              revert\n                /* \"Campaign.sol\":1572:1613  mapping(address => bool) public approvers */\n            tag_2:\n              callvalue\n              dup1\n              iszero\n              tag_28\n              jumpi\n              0x00\n              dup1\n              revert\n            tag_28:\n              pop\n              tag_29\n              0x04\n              dup1\n              calldatasize\n              sub\n              dup2\n              add\n              swap1\n              tag_30\n              swap2\n              swap1\n              tag_31\n              jump\t// in\n            tag_30:\n              tag_32\n              jump\t// in\n            tag_29:\n              mload(0x40)\n              tag_33\n              swap2\n              swap1\n              tag_34\n              jump\t// in\n            tag_33:\n              mload(0x40)\n              dup1\n              swap2\n              sub\n              swap1\n              return\n                /* \"Campaign.sol\":1619:1669  mapping(address => uint256) public approversMonney */\n            tag_3:\n              callvalue\n              dup1\n              iszero\n              tag_35\n              jumpi\n              0x00\n              dup1\n              revert\n            tag_35:\n              pop\n              tag_36\n              0x04\n              dup1\n              calldatasize\n              sub\n              dup2\n              add\n              swap1\n              tag_37\n              swap2\n              swap1\n              tag_31\n              jump\t// in\n            tag_37:\n              tag_38\n              jump\t// in\n            tag_36:\n              mload(0x40)\n              tag_39\n              swap2\n              swap1\n              tag_40\n              jump\t// in\n            tag_39:\n              mload(0x40)\n              dup1\n              swap2\n              sub\n              swap1\n              return\n                /* \"Campaign.sol\":1807:1829  uint256 public endTime */\n            tag_4:\n              callvalue\n              dup1\n              iszero\n              tag_41\n              jumpi\n              0x00\n              dup1\n              revert\n            tag_41:\n              pop\n              tag_42\n              tag_43\n              jump\t// in\n            tag_42:\n              mload(0x40)\n              tag_44\n              swap2\n              swap1\n              tag_40\n              jump\t// in\n            tag_44:\n              mload(0x40)\n              dup1\n              swap2\n              sub\n              swap1\n              return\n                /* \"Campaign.sol\":6836:7448  function getSummary()... */\n            tag_5:\n              callvalue\n              dup1\n              iszero\n              tag_45\n              jumpi\n              0x00\n              dup1\n              revert\n            tag_45:\n              pop\n              tag_46\n              tag_47\n              jump\t// in\n            tag_46:\n              mload(0x40)\n              tag_48\n              swap11\n              swap10\n              swap9\n              swap8\n              swap7\n              swap6\n              swap5\n              swap4\n              swap3\n              swap2\n              swap1\n              tag_49\n              jump\t// in\n            tag_48:\n              mload(0x40)\n              dup1\n              swap2\n              sub\n              swap1\n              return\n                /* \"Campaign.sol\":1438:1460  address public manager */\n            tag_6:\n              callvalue\n              dup1\n              iszero\n              tag_50\n              jumpi\n              0x00\n              dup1\n              revert\n            tag_50:\n              pop\n              tag_51\n              tag_52\n              jump\t// in\n            tag_51:\n              mload(0x40)\n              tag_53\n              swap2\n              swap1\n              tag_54\n              jump\t// in\n            tag_53:\n              mload(0x40)\n              dup1\n              swap2\n              sub\n              swap1\n              return\n                /* \"Campaign.sol\":4520:4598  function getStatus() public view returns (bool) {... */\n            tag_7:\n              callvalue\n              dup1\n              iszero\n              tag_55\n              jumpi\n              0x00\n              dup1\n              revert\n            tag_55:\n              pop\n              tag_56\n              tag_57\n              jump\t// in\n            tag_56:\n              mload(0x40)\n              tag_58\n              swap2\n              swap1\n              tag_34\n              jump\t// in\n            tag_58:\n              mload(0x40)\n              dup1\n              swap2\n              sub\n              swap1\n              return\n                /* \"Campaign.sol\":6099:6830  function withdrawBid(address payable _address) public {... */\n            tag_8:\n              callvalue\n              dup1\n              iszero\n              tag_59\n              jumpi\n              0x00\n              dup1\n              revert\n            tag_59:\n              pop\n              tag_60\n              0x04\n              dup1\n              calldatasize\n              sub\n              dup2\n              add\n              swap1\n              tag_61\n              swap2\n              swap1\n              tag_62\n              jump\t// in\n            tag_61:\n              tag_63\n              jump\t// in\n            tag_60:\n              stop\n                /* \"Campaign.sol\":1537:1566  string public dataDescription */\n            tag_9:\n              callvalue\n              dup1\n              iszero\n              tag_64\n              jumpi\n              0x00\n              dup1\n              revert\n            tag_64:\n              pop\n              tag_65\n              tag_66\n              jump\t// in\n            tag_65:\n              mload(0x40)\n              tag_67\n              swap2\n              swap1\n              tag_68\n              jump\t// in\n            tag_67:\n              mload(0x40)\n              dup1\n              swap2\n              sub\n              swap1\n              return\n                /* \"Campaign.sol\":1835:1853  bool public closed */\n            tag_10:\n              callvalue\n              dup1\n              iszero\n              tag_69\n              jumpi\n              0x00\n              dup1\n              revert\n            tag_69:\n              pop\n              tag_70\n              tag_71\n              jump\t// in\n            tag_70:\n              mload(0x40)\n              tag_72\n              swap2\n              swap1\n              tag_34\n              jump\t// in\n            tag_72:\n              mload(0x40)\n              dup1\n              swap2\n              sub\n              swap1\n              return\n                /* \"Campaign.sol\":1506:1531  string public dataForSell */\n            tag_11:\n              callvalue\n              dup1\n              iszero\n              tag_73\n              jumpi\n              0x00\n              dup1\n              revert\n            tag_73:\n              pop\n              tag_74\n              tag_75\n              jump\t// in\n            tag_74:\n              mload(0x40)\n              tag_76\n              swap2\n              swap1\n              tag_68\n              jump\t// in\n            tag_76:\n              mload(0x40)\n              dup1\n              swap2\n              sub\n              swap1\n              return\n                /* \"Campaign.sol\":2392:2515  function compareAddresses(address a, address b) public pure returns (bool) {... */\n            tag_12:\n              callvalue\n              dup1\n              iszero\n              tag_77\n              jumpi\n              0x00\n              dup1\n              revert\n            tag_77:\n              pop\n              tag_78\n              0x04\n              dup1\n              calldatasize\n              sub\n              dup2\n              add\n              swap1\n              tag_79\n              swap2\n              swap1\n              tag_80\n              jump\t// in\n            tag_79:\n              tag_81\n              jump\t// in\n            tag_78:\n              mload(0x40)\n              tag_82\n              swap2\n              swap1\n              tag_34\n              jump\t// in\n            tag_82:\n              mload(0x40)\n              dup1\n              swap2\n              sub\n              swap1\n              return\n                /* \"Campaign.sol\":1675:1704  uint256 public approversCount */\n            tag_13:\n              callvalue\n              dup1\n              iszero\n              tag_83\n              jumpi\n              0x00\n              dup1\n              revert\n            tag_83:\n              pop\n              tag_84\n              tag_85\n              jump\t// in\n            tag_84:\n              mload(0x40)\n              tag_86\n              swap2\n              swap1\n              tag_40\n              jump\t// in\n            tag_86:\n              mload(0x40)\n              dup1\n              swap2\n              sub\n              swap1\n              return\n                /* \"Campaign.sol\":4198:4296  function getTransactions() public view returns (Bid[] memory) {... */\n            tag_14:\n              callvalue\n              dup1\n              iszero\n              tag_87\n              jumpi\n              0x00\n              dup1\n              revert\n            tag_87:\n              pop\n              tag_88\n              tag_89\n              jump\t// in\n            tag_88:\n              mload(0x40)\n              tag_90\n              swap2\n              swap1\n              tag_91\n              jump\t// in\n            tag_90:\n              mload(0x40)\n              dup1\n              swap2\n              sub\n              swap1\n              return\n                /* \"Campaign.sol\":2924:4192  function EndedAuctions() public payable {... */\n            tag_15:\n              tag_92\n              tag_93\n              jump\t// in\n            tag_92:\n              stop\n                /* \"Campaign.sol\":1742:1770  address public highestBidder */\n            tag_16:\n              callvalue\n              dup1\n              iszero\n              tag_94\n              jumpi\n              0x00\n              dup1\n              revert\n            tag_94:\n              pop\n              tag_95\n              tag_96\n              jump\t// in\n            tag_95:\n              mload(0x40)\n              tag_97\n              swap2\n              swap1\n              tag_54\n              jump\t// in\n            tag_97:\n              mload(0x40)\n              dup1\n              swap2\n              sub\n              swap1\n              return\n                /* \"Campaign.sol\":1466:1500  uint256 public minimumContribution */\n            tag_17:\n              callvalue\n              dup1\n              iszero\n              tag_98\n              jumpi\n              0x00\n              dup1\n              revert\n            tag_98:\n              pop\n              tag_99\n              tag_100\n              jump\t// in\n            tag_99:\n              mload(0x40)\n              tag_101\n              swap2\n              swap1\n              tag_40\n              jump\t// in\n            tag_101:\n              mload(0x40)\n              dup1\n              swap2\n              sub\n              swap1\n              return\n                /* \"Campaign.sol\":2521:2918  function toLower(address _address) public pure returns (address) {... */\n            tag_18:\n              callvalue\n              dup1\n              iszero\n              tag_102\n              jumpi\n              0x00\n              dup1\n              revert\n            tag_102:\n              pop\n              tag_103\n              0x04\n              dup1\n              calldatasize\n              sub\n              dup2\n              add\n              swap1\n              tag_104\n              swap2\n              swap1\n              tag_31\n              jump\t// in\n            tag_104:\n              tag_105\n              jump\t// in\n            tag_103:\n              mload(0x40)\n              tag_106\n              swap2\n              swap1\n              tag_54\n              jump\t// in\n            tag_106:\n              mload(0x40)\n              dup1\n              swap2\n              sub\n              swap1\n              return\n                /* \"Campaign.sol\":1407:1432  Bid[] public transactions */\n            tag_19:\n              callvalue\n              dup1\n              iszero\n              tag_107\n              jumpi\n              0x00\n              dup1\n              revert\n            tag_107:\n              pop\n              tag_108\n              0x04\n              dup1\n              calldatasize\n              sub\n              dup2\n              add\n              swap1\n              tag_109\n              swap2\n              swap1\n              tag_110\n              jump\t// in\n            tag_109:\n              tag_111\n              jump\t// in\n            tag_108:\n              mload(0x40)\n              tag_112\n              swap4\n              swap3\n              swap2\n              swap1\n              tag_113\n              jump\t// in\n            tag_112:\n              mload(0x40)\n              dup1\n              swap2\n              sub\n              swap1\n              return\n                /* \"Campaign.sol\":4604:4700  function getAddresses() public view returns (address[] memory) {... */\n            tag_20:\n              callvalue\n              dup1\n              iszero\n              tag_114\n              jumpi\n              0x00\n              dup1\n              revert\n            tag_114:\n              pop\n              tag_115\n              tag_116\n              jump\t// in\n            tag_115:\n              mload(0x40)\n              tag_117\n              swap2\n              swap1\n              tag_118\n              jump\t// in\n            tag_117:\n              mload(0x40)\n              dup1\n              swap2\n              sub\n              swap1\n              return\n                /* \"Campaign.sol\":4302:4515  function getBid(address add) public view returns (uint256) {... */\n            tag_21:\n              callvalue\n              dup1\n              iszero\n              tag_119\n              jumpi\n              0x00\n              dup1\n              revert\n            tag_119:\n              pop\n              tag_120\n              0x04\n              dup1\n              calldatasize\n              sub\n              dup2\n              add\n              swap1\n              tag_121\n              swap2\n              swap1\n              tag_31\n              jump\t// in\n            tag_121:\n              tag_122\n              jump\t// in\n            tag_120:\n              mload(0x40)\n              tag_123\n              swap2\n              swap1\n              tag_40\n              jump\t// in\n            tag_123:\n              mload(0x40)\n              dup1\n              swap2\n              sub\n              swap1\n              return\n                /* \"Campaign.sol\":1776:1801  uint256 public highestBid */\n            tag_22:\n              callvalue\n              dup1\n              iszero\n              tag_124\n              jumpi\n              0x00\n              dup1\n              revert\n            tag_124:\n              pop\n              tag_125\n              tag_126\n              jump\t// in\n            tag_125:\n              mload(0x40)\n              tag_127\n              swap2\n              swap1\n              tag_40\n              jump\t// in\n            tag_127:\n              mload(0x40)\n              dup1\n              swap2\n              sub\n              swap1\n              return\n                /* \"Campaign.sol\":4706:6093  function contribute() public payable {... */\n            tag_23:\n              tag_128\n              tag_129\n              jump\t// in\n            tag_128:\n              stop\n                /* \"Campaign.sol\":1710:1736  address[] public addresses */\n            tag_24:\n              callvalue\n              dup1\n              iszero\n              tag_130\n              jumpi\n              0x00\n              dup1\n              revert\n            tag_130:\n              pop\n              tag_131\n              0x04\n              dup1\n              calldatasize\n              sub\n              dup2\n              add\n              swap1\n              tag_132\n              swap2\n              swap1\n              tag_110\n              jump\t// in\n            tag_132:\n              tag_133\n              jump\t// in\n            tag_131:\n              mload(0x40)\n              tag_134\n              swap2\n              swap1\n              tag_54\n              jump\t// in\n            tag_134:\n              mload(0x40)\n              dup1\n              swap2\n              sub\n              swap1\n              return\n                /* \"Campaign.sol\":1572:1613  mapping(address => bool) public approvers */\n            tag_32:\n              mstore(0x20, 0x05)\n              dup1\n              0x00\n              mstore\n              keccak256(0x00, 0x40)\n              0x00\n              swap2\n              pop\n              sload\n              swap1\n              0x0100\n              exp\n              swap1\n              div\n              0xff\n              and\n              dup2\n              jump\t// out\n                /* \"Campaign.sol\":1619:1669  mapping(address => uint256) public approversMonney */\n            tag_38:\n              mstore(0x20, 0x06)\n              dup1\n              0x00\n              mstore\n              keccak256(0x00, 0x40)\n              0x00\n              swap2\n              pop\n              swap1\n              pop\n              sload\n              dup2\n              jump\t// out\n                /* \"Campaign.sol\":1807:1829  uint256 public endTime */\n            tag_43:\n              sload(0x0b)\n              dup2\n              jump\t// out\n                /* \"Campaign.sol\":6836:7448  function getSummary()... */\n            tag_47:\n                /* \"Campaign.sol\":6916:6923  uint256 */\n              0x00\n                /* \"Campaign.sol\":6937:6944  uint256 */\n              dup1\n                /* \"Campaign.sol\":6958:6965  uint256 */\n              0x00\n                /* \"Campaign.sol\":6979:6986  address */\n              dup1\n                /* \"Campaign.sol\":7000:7007  uint256 */\n              0x00\n                /* \"Campaign.sol\":7021:7034  string memory */\n              0x60\n                /* \"Campaign.sol\":7048:7061  string memory */\n              dup1\n                /* \"Campaign.sol\":7075:7082  uint256 */\n              0x00\n                /* \"Campaign.sol\":7096:7103  address */\n              dup1\n                /* \"Campaign.sol\":7117:7133  address[] memory */\n              0x60\n                /* \"Campaign.sol\":7179:7198  minimumContribution */\n              sload(0x02)\n                /* \"Campaign.sol\":7212:7233  address(this).balance */\n              selfbalance\n                /* \"Campaign.sol\":7247:7261  approversCount */\n              sload(0x07)\n                /* \"Campaign.sol\":7275:7282  manager */\n              0x01\n              0x00\n              swap1\n              sload\n              swap1\n              0x0100\n              exp\n              swap1\n              div\n              0xffffffffffffffffffffffffffffffffffffffff\n              and\n                /* \"Campaign.sol\":7296:7306  highestBid */\n              sload(0x0a)\n                /* \"Campaign.sol\":7320:7331  dataForSell */\n              0x03\n                /* \"Campaign.sol\":7345:7360  dataDescription */\n              0x04\n                /* \"Campaign.sol\":7374:7381  endTime */\n              sload(0x0b)\n                /* \"Campaign.sol\":7395:7408  highestBidder */\n              0x09\n              0x00\n              swap1\n              sload\n              swap1\n              0x0100\n              exp\n              swap1\n              div\n              0xffffffffffffffffffffffffffffffffffffffff\n              and\n                /* \"Campaign.sol\":7422:7431  addresses */\n              0x08\n                /* \"Campaign.sol\":7158:7441  return (... */\n              dup5\n              dup1\n              sload\n              tag_136\n              swap1\n              tag_137\n              jump\t// in\n            tag_136:\n              dup1\n              0x1f\n              add\n              0x20\n              dup1\n              swap2\n              div\n              mul\n              0x20\n              add\n              mload(0x40)\n              swap1\n              dup2\n              add\n              0x40\n              mstore\n              dup1\n              swap3\n              swap2\n              swap1\n              dup2\n              dup2\n              mstore\n              0x20\n              add\n              dup3\n              dup1\n              sload\n              tag_138\n              swap1\n              tag_137\n              jump\t// in\n            tag_138:\n              dup1\n              iszero\n              tag_139\n              jumpi\n              dup1\n              0x1f\n              lt\n              tag_140\n              jumpi\n              0x0100\n              dup1\n              dup4\n              sload\n              div\n              mul\n              dup4\n              mstore\n              swap2\n              0x20\n              add\n              swap2\n              jump(tag_139)\n            tag_140:\n              dup3\n              add\n              swap2\n              swap1\n              0x00\n              mstore\n              keccak256(0x00, 0x20)\n              swap1\n            tag_141:\n              dup2\n              sload\n              dup2\n              mstore\n              swap1\n              0x01\n              add\n              swap1\n              0x20\n              add\n              dup1\n              dup4\n              gt\n              tag_141\n              jumpi\n              dup3\n              swap1\n              sub\n              0x1f\n              and\n              dup3\n              add\n              swap2\n            tag_139:\n              pop\n              pop\n              pop\n              pop\n              pop\n              swap5\n              pop\n              dup4\n              dup1\n              sload\n              tag_142\n              swap1\n              tag_137\n              jump\t// in\n            tag_142:\n              dup1\n              0x1f\n              add\n              0x20\n              dup1\n              swap2\n              div\n              mul\n              0x20\n              add\n              mload(0x40)\n              swap1\n              dup2\n              add\n              0x40\n              mstore\n              dup1\n              swap3\n              swap2\n              swap1\n              dup2\n              dup2\n              mstore\n              0x20\n              add\n              dup3\n              dup1\n              sload\n              tag_143\n              swap1\n              tag_137\n              jump\t// in\n            tag_143:\n              dup1\n              iszero\n              tag_144\n              jumpi\n              dup1\n              0x1f\n              lt\n              tag_145\n              jumpi\n              0x0100\n              dup1\n              dup4\n              sload\n              div\n              mul\n              dup4\n              mstore\n              swap2\n              0x20\n              add\n              swap2\n              jump(tag_144)\n            tag_145:\n              dup3\n              add\n              swap2\n              swap1\n              0x00\n              mstore\n              keccak256(0x00, 0x20)\n              swap1\n            tag_146:\n              dup2\n              sload\n              dup2\n              mstore\n              swap1\n              0x01\n              add\n              swap1\n              0x20\n              add\n              dup1\n              dup4\n              gt\n              tag_146\n              jumpi\n              dup3\n              swap1\n              sub\n              0x1f\n              and\n              dup3\n              add\n              swap2\n            tag_144:\n              pop\n              pop\n              pop\n              pop\n              pop\n              swap4\n              pop\n              dup1\n              dup1\n              sload\n              dup1\n              0x20\n              mul\n              0x20\n              add\n              mload(0x40)\n              swap1\n              dup2\n              add\n              0x40\n              mstore\n              dup1\n              swap3\n              swap2\n              swap1\n              dup2\n              dup2\n              mstore\n              0x20\n              add\n              dup3\n              dup1\n              sload\n              dup1\n              iszero\n              tag_147\n              jumpi\n              0x20\n              mul\n              dup3\n              add\n              swap2\n              swap1\n              0x00\n              mstore\n              keccak256(0x00, 0x20)\n              swap1\n            tag_148:\n              dup2\n              0x00\n              swap1\n              sload\n              swap1\n              0x0100\n              exp\n              swap1\n              div\n              0xffffffffffffffffffffffffffffffffffffffff\n              and\n              0xffffffffffffffffffffffffffffffffffffffff\n              and\n              dup2\n              mstore\n              0x20\n              add\n              swap1\n              0x01\n              add\n              swap1\n              dup1\n              dup4\n              gt\n              tag_148\n              jumpi\n            tag_147:\n              pop\n              pop\n              pop\n              pop\n              pop\n              swap1\n              pop\n              swap10\n              pop\n              swap10\n              pop\n              swap10\n              pop\n              swap10\n              pop\n              swap10\n              pop\n              swap10\n              pop\n              swap10\n              pop\n              swap10\n              pop\n              swap10\n              pop\n              swap10\n              pop\n                /* \"Campaign.sol\":6836:7448  function getSummary()... */\n              swap1\n              swap2\n              swap3\n              swap4\n              swap5\n              swap6\n              swap7\n              swap8\n              swap9\n              swap10\n              jump\t// out\n                /* \"Campaign.sol\":1438:1460  address public manager */\n            tag_52:\n              0x01\n              0x00\n              swap1\n              sload\n              swap1\n              0x0100\n              exp\n              swap1\n              div\n              0xffffffffffffffffffffffffffffffffffffffff\n              and\n              dup2\n              jump\t// out\n                /* \"Campaign.sol\":4520:4598  function getStatus() public view returns (bool) {... */\n            tag_57:\n                /* \"Campaign.sol\":4562:4566  bool */\n              0x00\n                /* \"Campaign.sol\":4585:4591  closed */\n              0x0c\n              0x00\n              swap1\n              sload\n              swap1\n              0x0100\n              exp\n              swap1\n              div\n              0xff\n              and\n                /* \"Campaign.sol\":4578:4591  return closed */\n              swap1\n              pop\n                /* \"Campaign.sol\":4520:4598  function getStatus() public view returns (bool) {... */\n              swap1\n              jump\t// out\n                /* \"Campaign.sol\":6099:6830  function withdrawBid(address payable _address) public {... */\n            tag_63:\n                /* \"Campaign.sol\":6164:6172  _address */\n              dup1\n                /* \"Campaign.sol\":6163:6182  (_address).transfer */\n              0xffffffffffffffffffffffffffffffffffffffff\n              and\n                /* \"Campaign.sol\":6163:6209  (_address).transfer(approversMonney[_address]) */\n              0x08fc\n                /* \"Campaign.sol\":6183:6198  approversMonney */\n              0x06\n                /* \"Campaign.sol\":6183:6208  approversMonney[_address] */\n              0x00\n                /* \"Campaign.sol\":6199:6207  _address */\n              dup5\n                /* \"Campaign.sol\":6183:6208  approversMonney[_address] */\n              0xffffffffffffffffffffffffffffffffffffffff\n              and\n              0xffffffffffffffffffffffffffffffffffffffff\n              and\n              dup2\n              mstore\n              0x20\n              add\n              swap1\n              dup2\n              mstore\n              0x20\n              add\n              0x00\n              keccak256\n              sload\n                /* \"Campaign.sol\":6163:6209  (_address).transfer(approversMonney[_address]) */\n              swap1\n              dup2\n              iszero\n              mul\n              swap1\n              mload(0x40)\n              0x00\n              mload(0x40)\n              dup1\n              dup4\n              sub\n              dup2\n              dup6\n              dup9\n              dup9\n              call\n              swap4\n              pop\n              pop\n              pop\n              pop\n              iszero\n              dup1\n              iszero\n              tag_152\n              jumpi\n              returndatasize\n              0x00\n              dup1\n              returndatacopy\n              revert(0x00, returndatasize)\n            tag_152:\n              pop\n                /* \"Campaign.sol\":6799:6800  0 */\n              0x00\n                /* \"Campaign.sol\":6771:6786  approversMonney */\n              0x06\n                /* \"Campaign.sol\":6771:6796  approversMonney[_address] */\n              0x00\n                /* \"Campaign.sol\":6787:6795  _address */\n              dup4\n                /* \"Campaign.sol\":6771:6796  approversMonney[_address] */\n              0xffffffffffffffffffffffffffffffffffffffff\n              and\n              0xffffffffffffffffffffffffffffffffffffffff\n              and\n              dup2\n              mstore\n              0x20\n              add\n              swap1\n              dup2\n              mstore\n              0x20\n              add\n              0x00\n              keccak256\n                /* \"Campaign.sol\":6771:6800  approversMonney[_address] = 0 */\n              dup2\n              swap1\n              sstore\n              pop\n                /* \"Campaign.sol\":6819:6823  true */\n              0x01\n                /* \"Campaign.sol\":6810:6816  closed */\n              0x0c\n              0x00\n                /* \"Campaign.sol\":6810:6823  closed = true */\n              0x0100\n              exp\n              dup2\n              sload\n              dup2\n              0xff\n              mul\n              not\n              and\n              swap1\n              dup4\n              iszero\n              iszero\n              mul\n              or\n              swap1\n              sstore\n              pop\n                /* \"Campaign.sol\":6099:6830  function withdrawBid(address payable _address) public {... */\n              pop\n              jump\t// out\n                /* \"Campaign.sol\":1537:1566  string public dataDescription */\n            tag_66:\n              0x04\n              dup1\n              sload\n              tag_153\n              swap1\n              tag_137\n              jump\t// in\n            tag_153:\n              dup1\n              0x1f\n              add\n              0x20\n              dup1\n              swap2\n              div\n              mul\n              0x20\n              add\n              mload(0x40)\n              swap1\n              dup2\n              add\n              0x40\n              mstore\n              dup1\n              swap3\n              swap2\n              swap1\n              dup2\n              dup2\n              mstore\n              0x20\n              add\n              dup3\n              dup1\n              sload\n              tag_154\n              swap1\n              tag_137\n              jump\t// in\n            tag_154:\n              dup1\n              iszero\n              tag_155\n              jumpi\n              dup1\n              0x1f\n              lt\n              tag_156\n              jumpi\n              0x0100\n              dup1\n              dup4\n              sload\n              div\n              mul\n              dup4\n              mstore\n              swap2\n              0x20\n              add\n              swap2\n              jump(tag_155)\n            tag_156:\n              dup3\n              add\n              swap2\n              swap1\n              0x00\n              mstore\n              keccak256(0x00, 0x20)\n              swap1\n            tag_157:\n              dup2\n              sload\n              dup2\n              mstore\n              swap1\n              0x01\n              add\n              swap1\n              0x20\n              add\n              dup1\n              dup4\n              gt\n              tag_157\n              jumpi\n              dup3\n              swap1\n              sub\n              0x1f\n              and\n              dup3\n              add\n              swap2\n            tag_155:\n              pop\n              pop\n              pop\n              pop\n              pop\n              dup2\n              jump\t// out\n                /* \"Campaign.sol\":1835:1853  bool public closed */\n            tag_71:\n              0x0c\n              0x00\n              swap1\n              sload\n              swap1\n              0x0100\n              exp\n              swap1\n              div\n              0xff\n              and\n              dup2\n              jump\t// out\n                /* \"Campaign.sol\":1506:1531  string public dataForSell */\n            tag_75:\n              0x03\n              dup1\n              sload\n              tag_158\n              swap1\n              tag_137\n              jump\t// in\n            tag_158:\n              dup1\n              0x1f\n              add\n              0x20\n              dup1\n              swap2\n              div\n              mul\n              0x20\n              add\n              mload(0x40)\n              swap1\n              dup2\n              add\n              0x40\n              mstore\n              dup1\n              swap3\n              swap2\n              swap1\n              dup2\n              dup2\n              mstore\n              0x20\n              add\n              dup3\n              dup1\n              sload\n              tag_159\n              swap1\n              tag_137\n              jump\t// in\n            tag_159:\n              dup1\n              iszero\n              tag_160\n              jumpi\n              dup1\n              0x1f\n              lt\n              tag_161\n              jumpi\n              0x0100\n              dup1\n              dup4\n              sload\n              div\n              mul\n              dup4\n              mstore\n              swap2\n              0x20\n              add\n              swap2\n              jump(tag_160)\n            tag_161:\n              dup3\n              add\n              swap2\n              swap1\n              0x00\n              mstore\n              keccak256(0x00, 0x20)\n              swap1\n            tag_162:\n              dup2\n              sload\n              dup2\n              mstore\n              swap1\n              0x01\n              add\n              swap1\n              0x20\n              add\n              dup1\n              dup4\n              gt\n              tag_162\n              jumpi\n              dup3\n              swap1\n              sub\n              0x1f\n              and\n              dup3\n              add\n              swap2\n            tag_160:\n              pop\n              pop\n              pop\n              pop\n              pop\n              dup2\n              jump\t// out\n                /* \"Campaign.sol\":2392:2515  function compareAddresses(address a, address b) public pure returns (bool) {... */\n            tag_81:\n                /* \"Campaign.sol\":2461:2465  bool */\n              0x00\n                /* \"Campaign.sol\":2498:2508  toLower(b) */\n              tag_164\n                /* \"Campaign.sol\":2506:2507  b */\n              dup3\n                /* \"Campaign.sol\":2498:2505  toLower */\n              tag_105\n                /* \"Campaign.sol\":2498:2508  toLower(b) */\n              jump\t// in\n            tag_164:\n                /* \"Campaign.sol\":2484:2508  toLower(a) == toLower(b) */\n              0xffffffffffffffffffffffffffffffffffffffff\n              and\n                /* \"Campaign.sol\":2484:2494  toLower(a) */\n              tag_165\n                /* \"Campaign.sol\":2492:2493  a */\n              dup5\n                /* \"Campaign.sol\":2484:2491  toLower */\n              tag_105\n                /* \"Campaign.sol\":2484:2494  toLower(a) */\n              jump\t// in\n            tag_165:\n                /* \"Campaign.sol\":2484:2508  toLower(a) == toLower(b) */\n              0xffffffffffffffffffffffffffffffffffffffff\n              and\n              eq\n                /* \"Campaign.sol\":2477:2508  return toLower(a) == toLower(b) */\n              swap1\n              pop\n                /* \"Campaign.sol\":2392:2515  function compareAddresses(address a, address b) public pure returns (bool) {... */\n              swap3\n              swap2\n              pop\n              pop\n              jump\t// out\n                /* \"Campaign.sol\":1675:1704  uint256 public approversCount */\n            tag_85:\n              sload(0x07)\n              dup2\n              jump\t// out\n                /* \"Campaign.sol\":4198:4296  function getTransactions() public view returns (Bid[] memory) {... */\n            tag_89:\n                /* \"Campaign.sol\":4246:4258  Bid[] memory */\n              0x60\n                /* \"Campaign.sol\":4277:4289  transactions */\n              0x00\n                /* \"Campaign.sol\":4270:4289  return transactions */\n              dup1\n              sload\n              dup1\n              0x20\n              mul\n              0x20\n              add\n              mload(0x40)\n              swap1\n              dup2\n              add\n              0x40\n              mstore\n              dup1\n              swap3\n              swap2\n              swap1\n              dup2\n              dup2\n              mstore\n              0x20\n              add\n              0x00\n              swap1\n            tag_167:\n              dup3\n              dup3\n              lt\n              iszero\n              tag_168\n              jumpi\n              dup4\n              dup3\n              swap1\n              0x00\n              mstore\n              keccak256(0x00, 0x20)\n              swap1\n              0x03\n              mul\n              add\n              mload(0x40)\n              dup1\n              0x60\n              add\n              0x40\n              mstore\n              swap1\n              dup2\n              0x00\n              dup3\n              add\n              sload\n              dup2\n              mstore\n              0x20\n              add\n              0x01\n              dup3\n              add\n              sload\n              dup2\n              mstore\n              0x20\n              add\n              0x02\n              dup3\n              add\n              0x00\n              swap1\n              sload\n              swap1\n              0x0100\n              exp\n              swap1\n              div\n              0xffffffffffffffffffffffffffffffffffffffff\n              and\n              0xffffffffffffffffffffffffffffffffffffffff\n              and\n              0xffffffffffffffffffffffffffffffffffffffff\n              and\n              dup2\n              mstore\n              pop\n              pop\n              dup2\n              mstore\n              0x20\n              add\n              swap1\n              0x01\n              add\n              swap1\n              jump(tag_167)\n            tag_168:\n              pop\n              pop\n              pop\n              pop\n              swap1\n              pop\n                /* \"Campaign.sol\":4198:4296  function getTransactions() public view returns (Bid[] memory) {... */\n              swap1\n              jump\t// out\n                /* \"Campaign.sol\":2924:4192  function EndedAuctions() public payable {... */\n            tag_93:\n                /* \"Campaign.sol\":3035:3050  block.timestamp */\n              timestamp\n                /* \"Campaign.sol\":3025:3032  endTime */\n              sload(0x0b)\n                /* \"Campaign.sol\":3025:3050  endTime < block.timestamp */\n              lt\n                /* \"Campaign.sol\":3021:4186  if (endTime < block.timestamp) {... */\n              iszero\n              tag_171\n              jumpi\n                /* \"Campaign.sol\":3110:3123  uint256 index */\n              0x00\n                /* \"Campaign.sol\":3141:3177  address[] memory nonWinningAddresses */\n              dup1\n                /* \"Campaign.sol\":3230:3231  1 */\n              0x01\n                /* \"Campaign.sol\":3211:3220  addresses */\n              0x08\n                /* \"Campaign.sol\":3211:3227  addresses.length */\n              dup1\n              sload\n              swap1\n              pop\n                /* \"Campaign.sol\":3211:3231  addresses.length - 1 */\n              tag_172\n              swap2\n              swap1\n              tag_173\n              jump\t// in\n            tag_172:\n                /* \"Campaign.sol\":3180:3245  new address[](... */\n              0xffffffffffffffff\n              dup2\n              gt\n              iszero\n              tag_174\n              jumpi\n              tag_175\n              tag_176\n              jump\t// in\n            tag_175:\n            tag_174:\n              mload(0x40)\n              swap1\n              dup1\n              dup3\n              mstore\n              dup1\n              0x20\n              mul\n              0x20\n              add\n              dup3\n              add\n              0x40\n              mstore\n              dup1\n              iszero\n              tag_177\n              jumpi\n              dup2\n              0x20\n              add\n              0x20\n              dup3\n              mul\n              dup1\n              calldatasize\n              dup4\n              calldatacopy\n              dup1\n              dup3\n              add\n              swap2\n              pop\n              pop\n              swap1\n              pop\n            tag_177:\n              pop\n                /* \"Campaign.sol\":3141:3245  address[] memory nonWinningAddresses = new address[](... */\n              swap1\n              pop\n                /* \"Campaign.sol\":3265:3271  uint i */\n              0x00\n                /* \"Campaign.sol\":3260:3932  for (uint i = 0; i < addresses.length; i++) {... */\n            tag_178:\n                /* \"Campaign.sol\":3281:3290  addresses */\n              0x08\n                /* \"Campaign.sol\":3281:3297  addresses.length */\n              dup1\n              sload\n              swap1\n              pop\n                /* \"Campaign.sol\":3277:3278  i */\n              dup2\n                /* \"Campaign.sol\":3277:3297  i < addresses.length */\n              lt\n                /* \"Campaign.sol\":3260:3932  for (uint i = 0; i < addresses.length; i++) {... */\n              iszero\n              tag_179\n              jumpi\n                /* \"Campaign.sol\":3342:3363  toLower(addresses[i]) */\n              tag_181\n                /* \"Campaign.sol\":3350:3359  addresses */\n              0x08\n                /* \"Campaign.sol\":3360:3361  i */\n              dup3\n                /* \"Campaign.sol\":3350:3362  addresses[i] */\n              dup2\n              sload\n              dup2\n              lt\n              tag_182\n              jumpi\n              tag_183\n              tag_184\n              jump\t// in\n            tag_183:\n            tag_182:\n              swap1\n              0x00\n              mstore\n              keccak256(0x00, 0x20)\n              add\n              0x00\n              swap1\n              sload\n              swap1\n              0x0100\n              exp\n              swap1\n              div\n              0xffffffffffffffffffffffffffffffffffffffff\n              and\n                /* \"Campaign.sol\":3342:3349  toLower */\n              tag_105\n                /* \"Campaign.sol\":3342:3363  toLower(addresses[i]) */\n              jump\t// in\n            tag_181:\n                /* \"Campaign.sol\":3327:3364  LogMyVariable1(toLower(addresses[i])) */\n              0xffffffffffffffffffffffffffffffffffffffff\n              and\n              0xdb2255c40dd3a96ac26cefe042ef05b7245beb67ba6fe3deb5a32048c48ae645\n              mload(0x40)\n              mload(0x40)\n              dup1\n              swap2\n              sub\n              swap1\n              log2\n                /* \"Campaign.sol\":3402:3415  highestBidder */\n              0x09\n              0x00\n              swap1\n              sload\n              swap1\n              0x0100\n              exp\n              swap1\n              div\n              0xffffffffffffffffffffffffffffffffffffffff\n              and\n                /* \"Campaign.sol\":3387:3416  LogMyVariable1(highestBidder) */\n              0xffffffffffffffffffffffffffffffffffffffff\n              and\n              0xdb2255c40dd3a96ac26cefe042ef05b7245beb67ba6fe3deb5a32048c48ae645\n              mload(0x40)\n              mload(0x40)\n              dup1\n              swap2\n              sub\n              swap1\n              log2\n                /* \"Campaign.sol\":3460:3593  compareAddresses(... */\n              tag_186\n                /* \"Campaign.sol\":3502:3523  toLower(addresses[i]) */\n              tag_187\n                /* \"Campaign.sol\":3510:3519  addresses */\n              0x08\n                /* \"Campaign.sol\":3520:3521  i */\n              dup4\n                /* \"Campaign.sol\":3510:3522  addresses[i] */\n              dup2\n              sload\n              dup2\n              lt\n              tag_188\n              jumpi\n              tag_189\n              tag_184\n              jump\t// in\n            tag_189:\n            tag_188:\n              swap1\n              0x00\n              mstore\n              keccak256(0x00, 0x20)\n              add\n              0x00\n              swap1\n              sload\n              swap1\n              0x0100\n              exp\n              swap1\n              div\n              0xffffffffffffffffffffffffffffffffffffffff\n              and\n                /* \"Campaign.sol\":3502:3509  toLower */\n              tag_105\n                /* \"Campaign.sol\":3502:3523  toLower(addresses[i]) */\n              jump\t// in\n            tag_187:\n                /* \"Campaign.sol\":3549:3571  toLower(highestBidder) */\n              tag_191\n                /* \"Campaign.sol\":3557:3570  highestBidder */\n              0x09\n              0x00\n              swap1\n              sload\n              swap1\n              0x0100\n              exp\n              swap1\n              div\n              0xffffffffffffffffffffffffffffffffffffffff\n              and\n                /* \"Campaign.sol\":3549:3556  toLower */\n              tag_105\n                /* \"Campaign.sol\":3549:3571  toLower(highestBidder) */\n              jump\t// in\n            tag_191:\n                /* \"Campaign.sol\":3460:3476  compareAddresses */\n              tag_81\n                /* \"Campaign.sol\":3460:3593  compareAddresses(... */\n              jump\t// in\n            tag_186:\n                /* \"Campaign.sol\":3434:3723  if (... */\n              tag_192\n              jumpi\n                /* \"Campaign.sol\":3663:3672  addresses */\n              0x08\n                /* \"Campaign.sol\":3673:3674  i */\n              dup2\n                /* \"Campaign.sol\":3663:3675  addresses[i] */\n              dup2\n              sload\n              dup2\n              lt\n              tag_193\n              jumpi\n              tag_194\n              tag_184\n              jump\t// in\n            tag_194:\n            tag_193:\n              swap1\n              0x00\n              mstore\n              keccak256(0x00, 0x20)\n              add\n              0x00\n              swap1\n              sload\n              swap1\n              0x0100\n              exp\n              swap1\n              div\n              0xffffffffffffffffffffffffffffffffffffffff\n              and\n                /* \"Campaign.sol\":3634:3653  nonWinningAddresses */\n              dup3\n                /* \"Campaign.sol\":3654:3659  index */\n              dup5\n                /* \"Campaign.sol\":3634:3660  nonWinningAddresses[index] */\n              dup2\n              mload\n              dup2\n              lt\n              tag_196\n              jumpi\n              tag_197\n              tag_184\n              jump\t// in\n            tag_197:\n            tag_196:\n              0x20\n              mul\n              0x20\n              add\n              add\n                /* \"Campaign.sol\":3634:3675  nonWinningAddresses[index] = addresses[i] */\n              swap1\n              0xffffffffffffffffffffffffffffffffffffffff\n              and\n              swap1\n              dup2\n              0xffffffffffffffffffffffffffffffffffffffff\n              and\n              dup2\n              mstore\n              pop\n              pop\n                /* \"Campaign.sol\":3697:3704  index++ */\n              dup3\n              dup1\n              tag_198\n              swap1\n              tag_199\n              jump\t// in\n            tag_198:\n              swap4\n              pop\n              pop\n                /* \"Campaign.sol\":3434:3723  if (... */\n            tag_192:\n                /* \"Campaign.sol\":3299:3302  i++ */\n              dup1\n              dup1\n              tag_200\n              swap1\n              tag_199\n              jump\t// in\n            tag_200:\n              swap2\n              pop\n              pop\n                /* \"Campaign.sol\":3260:3932  for (uint i = 0; i < addresses.length; i++) {... */\n              jump(tag_178)\n            tag_179:\n              pop\n                /* \"Campaign.sol\":3965:3984  nonWinningAddresses */\n              dup1\n                /* \"Campaign.sol\":3951:3985  LogMyVariable(nonWinningAddresses) */\n              mload(0x40)\n              tag_201\n              swap2\n              swap1\n              tag_202\n              jump\t// in\n            tag_201:\n              mload(0x40)\n              dup1\n              swap2\n              sub\n              swap1\n              keccak256\n              0x8f58f64f8e5f3dff0793565c7810439028723c99baee435e979ede9712271433\n              mload(0x40)\n              mload(0x40)\n              dup1\n              swap2\n              sub\n              swap1\n              log2\n                /* \"Campaign.sol\":4018:4027  addresses */\n              0x08\n                /* \"Campaign.sol\":4004:4028  LogMyVariable(addresses) */\n              mload(0x40)\n              tag_203\n              swap2\n              swap1\n              tag_204\n              jump\t// in\n            tag_203:\n              mload(0x40)\n              dup1\n              swap2\n              sub\n              swap1\n              keccak256\n              0x8f58f64f8e5f3dff0793565c7810439028723c99baee435e979ede9712271433\n              mload(0x40)\n              mload(0x40)\n              dup1\n              swap2\n              sub\n              swap1\n              log2\n                /* \"Campaign.sol\":4047:4056  uint256 i */\n              0x00\n                /* \"Campaign.sol\":4042:4176  for (uint256 i = 0; i < nonWinningAddresses.length; i++) {... */\n            tag_205:\n                /* \"Campaign.sol\":4066:4085  nonWinningAddresses */\n              dup2\n                /* \"Campaign.sol\":4066:4092  nonWinningAddresses.length */\n              mload\n                /* \"Campaign.sol\":4062:4063  i */\n              dup2\n                /* \"Campaign.sol\":4062:4092  i < nonWinningAddresses.length */\n              lt\n                /* \"Campaign.sol\":4042:4176  for (uint256 i = 0; i < nonWinningAddresses.length; i++) {... */\n              iszero\n              tag_206\n              jumpi\n                /* \"Campaign.sol\":4117:4161  withdrawBid(payable(nonWinningAddresses[i])) */\n              tag_208\n                /* \"Campaign.sol\":4137:4156  nonWinningAddresses */\n              dup3\n                /* \"Campaign.sol\":4157:4158  i */\n              dup3\n                /* \"Campaign.sol\":4137:4159  nonWinningAddresses[i] */\n              dup2\n              mload\n              dup2\n              lt\n              tag_209\n              jumpi\n              tag_210\n              tag_184\n              jump\t// in\n            tag_210:\n            tag_209:\n              0x20\n              mul\n              0x20\n              add\n              add\n              mload\n                /* \"Campaign.sol\":4117:4128  withdrawBid */\n              tag_63\n                /* \"Campaign.sol\":4117:4161  withdrawBid(payable(nonWinningAddresses[i])) */\n              jump\t// in\n            tag_208:\n                /* \"Campaign.sol\":4094:4097  i++ */\n              dup1\n              dup1\n              tag_211\n              swap1\n              tag_199\n              jump\t// in\n            tag_211:\n              swap2\n              pop\n              pop\n                /* \"Campaign.sol\":4042:4176  for (uint256 i = 0; i < nonWinningAddresses.length; i++) {... */\n              jump(tag_205)\n            tag_206:\n              pop\n                /* \"Campaign.sol\":3052:4186  {... */\n              pop\n              pop\n                /* \"Campaign.sol\":3021:4186  if (endTime < block.timestamp) {... */\n            tag_171:\n                /* \"Campaign.sol\":2924:4192  function EndedAuctions() public payable {... */\n              jump\t// out\n                /* \"Campaign.sol\":1742:1770  address public highestBidder */\n            tag_96:\n              0x09\n              0x00\n              swap1\n              sload\n              swap1\n              0x0100\n              exp\n              swap1\n              div\n              0xffffffffffffffffffffffffffffffffffffffff\n              and\n              dup2\n              jump\t// out\n                /* \"Campaign.sol\":1466:1500  uint256 public minimumContribution */\n            tag_100:\n              sload(0x02)\n              dup2\n              jump\t// out\n                /* \"Campaign.sol\":2521:2918  function toLower(address _address) public pure returns (address) {... */\n            tag_105:\n                /* \"Campaign.sol\":2577:2584  address */\n              0x00\n                /* \"Campaign.sol\":2596:2614  uint160 intAddress */\n              dup1\n                /* \"Campaign.sol\":2625:2633  _address */\n              dup3\n                /* \"Campaign.sol\":2596:2634  uint160 intAddress = uint160(_address) */\n              swap1\n              pop\n                /* \"Campaign.sol\":2649:2655  uint i */\n              0x00\n                /* \"Campaign.sol\":2644:2876  for (uint i = 0; i < 20; i++) {... */\n            tag_213:\n                /* \"Campaign.sol\":2665:2667  20 */\n              0x14\n                /* \"Campaign.sol\":2661:2662  i */\n              dup2\n                /* \"Campaign.sol\":2661:2667  i < 20 */\n              lt\n                /* \"Campaign.sol\":2644:2876  for (uint i = 0; i < 20; i++) {... */\n              iszero\n              tag_214\n              jumpi\n                /* \"Campaign.sol\":2688:2695  uint8 b */\n              0x00\n                /* \"Campaign.sol\":2712:2720  _address */\n              dup5\n                /* \"Campaign.sol\":2704:2721  bytes20(_address) */\n              0x60\n              shl\n                /* \"Campaign.sol\":2722:2723  i */\n              dup3\n                /* \"Campaign.sol\":2704:2724  bytes20(_address)[i] */\n              0x14\n              dup2\n              lt\n              tag_216\n              jumpi\n              tag_217\n              tag_184\n              jump\t// in\n            tag_217:\n            tag_216:\n              byte\n              0xf8\n              shl\n                /* \"Campaign.sol\":2698:2725  uint8(bytes20(_address)[i]) */\n              0xf8\n              shr\n                /* \"Campaign.sol\":2688:2725  uint8 b = uint8(bytes20(_address)[i]) */\n              swap1\n              pop\n                /* \"Campaign.sol\":2748:2750  65 */\n              0x41\n                /* \"Campaign.sol\":2743:2744  b */\n              dup2\n                /* \"Campaign.sol\":2743:2750  b >= 65 */\n              0xff\n              and\n              lt\n              iszero\n                /* \"Campaign.sol\":2743:2761  b >= 65 && b <= 90 */\n              dup1\n              iszero\n              tag_218\n              jumpi\n              pop\n                /* \"Campaign.sol\":2759:2761  90 */\n              0x5a\n                /* \"Campaign.sol\":2754:2755  b */\n              dup2\n                /* \"Campaign.sol\":2754:2761  b <= 90 */\n              0xff\n              and\n              gt\n              iszero\n                /* \"Campaign.sol\":2743:2761  b >= 65 && b <= 90 */\n            tag_218:\n                /* \"Campaign.sol\":2739:2803  if (b >= 65 && b <= 90) {... */\n              iszero\n              tag_219\n              jumpi\n                /* \"Campaign.sol\":2786:2788  32 */\n              0x20\n                /* \"Campaign.sol\":2781:2788  b += 32 */\n              dup2\n              tag_220\n              swap2\n              swap1\n              tag_221\n              jump\t// in\n            tag_220:\n              swap1\n              pop\n                /* \"Campaign.sol\":2739:2803  if (b >= 65 && b <= 90) {... */\n            tag_219:\n                /* \"Campaign.sol\":2862:2863  i */\n              dup2\n                /* \"Campaign.sol\":2857:2859  19 */\n              0x13\n                /* \"Campaign.sol\":2857:2863  19 - i */\n              tag_222\n              swap2\n              swap1\n              tag_173\n              jump\t// in\n            tag_222:\n                /* \"Campaign.sol\":2852:2853  8 */\n              0x08\n                /* \"Campaign.sol\":2852:2864  8 * (19 - i) */\n              tag_223\n              swap2\n              swap1\n              tag_224\n              jump\t// in\n            tag_223:\n                /* \"Campaign.sol\":2830:2865  uint160(b) << uint160(8 * (19 - i)) */\n              0xffffffffffffffffffffffffffffffffffffffff\n              and\n                /* \"Campaign.sol\":2838:2839  b */\n              dup2\n                /* \"Campaign.sol\":2830:2840  uint160(b) */\n              0xff\n              and\n                /* \"Campaign.sol\":2830:2865  uint160(b) << uint160(8 * (19 - i)) */\n              0xffffffffffffffffffffffffffffffffffffffff\n              and\n              swap1\n              shl\n                /* \"Campaign.sol\":2816:2865  intAddress |= uint160(b) << uint160(8 * (19 - i)) */\n              dup4\n              or\n              swap3\n              pop\n                /* \"Campaign.sol\":2674:2876  {... */\n              pop\n                /* \"Campaign.sol\":2669:2672  i++ */\n              dup1\n              dup1\n              tag_225\n              swap1\n              tag_199\n              jump\t// in\n            tag_225:\n              swap2\n              pop\n              pop\n                /* \"Campaign.sol\":2644:2876  for (uint i = 0; i < 20; i++) {... */\n              jump(tag_213)\n            tag_214:\n              pop\n                /* \"Campaign.sol\":2900:2910  intAddress */\n              dup1\n                /* \"Campaign.sol\":2885:2911  return address(intAddress) */\n              swap2\n              pop\n              pop\n                /* \"Campaign.sol\":2521:2918  function toLower(address _address) public pure returns (address) {... */\n              swap2\n              swap1\n              pop\n              jump\t// out\n                /* \"Campaign.sol\":1407:1432  Bid[] public transactions */\n            tag_111:\n              0x00\n              dup2\n              dup2\n              sload\n              dup2\n              lt\n              tag_226\n              jumpi\n              0x00\n              dup1\n              revert\n            tag_226:\n              swap1\n              0x00\n              mstore\n              keccak256(0x00, 0x20)\n              swap1\n              0x03\n              mul\n              add\n              0x00\n              swap2\n              pop\n              swap1\n              pop\n              dup1\n              0x00\n              add\n              sload\n              swap1\n              dup1\n              0x01\n              add\n              sload\n              swap1\n              dup1\n              0x02\n              add\n              0x00\n              swap1\n              sload\n              swap1\n              0x0100\n              exp\n              swap1\n              div\n              0xffffffffffffffffffffffffffffffffffffffff\n              and\n              swap1\n              pop\n              dup4\n              jump\t// out\n                /* \"Campaign.sol\":4604:4700  function getAddresses() public view returns (address[] memory) {... */\n            tag_116:\n                /* \"Campaign.sol\":4649:4665  address[] memory */\n              0x60\n                /* \"Campaign.sol\":4684:4693  addresses */\n              0x08\n                /* \"Campaign.sol\":4677:4693  return addresses */\n              dup1\n              sload\n              dup1\n              0x20\n              mul\n              0x20\n              add\n              mload(0x40)\n              swap1\n              dup2\n              add\n              0x40\n              mstore\n              dup1\n              swap3\n              swap2\n              swap1\n              dup2\n              dup2\n              mstore\n              0x20\n              add\n              dup3\n              dup1\n              sload\n              dup1\n              iszero\n              tag_229\n              jumpi\n              0x20\n              mul\n              dup3\n              add\n              swap2\n              swap1\n              0x00\n              mstore\n              keccak256(0x00, 0x20)\n              swap1\n            tag_230:\n              dup2\n              0x00\n              swap1\n              sload\n              swap1\n              0x0100\n              exp\n              swap1\n              div\n              0xffffffffffffffffffffffffffffffffffffffff\n              and\n              0xffffffffffffffffffffffffffffffffffffffff\n              and\n              dup2\n              mstore\n              0x20\n              add\n              swap1\n              0x01\n              add\n              swap1\n              dup1\n              dup4\n              gt\n              tag_230\n              jumpi\n            tag_229:\n              pop\n              pop\n              pop\n              pop\n              pop\n              swap1\n              pop\n                /* \"Campaign.sol\":4604:4700  function getAddresses() public view returns (address[] memory) {... */\n              swap1\n              jump\t// out\n                /* \"Campaign.sol\":4302:4515  function getBid(address add) public view returns (uint256) {... */\n            tag_122:\n                /* \"Campaign.sol\":4352:4359  uint256 */\n              0x00\n                /* \"Campaign.sol\":4371:4385  uint256 monney */\n              dup1\n                /* \"Campaign.sol\":4388:4389  0 */\n              0x00\n                /* \"Campaign.sol\":4371:4389  uint256 monney = 0 */\n              swap1\n              pop\n                /* \"Campaign.sol\":4428:4429  0 */\n              0x00\n                /* \"Campaign.sol\":4404:4419  approversMonney */\n              0x06\n                /* \"Campaign.sol\":4404:4424  approversMonney[add] */\n              0x00\n                /* \"Campaign.sol\":4420:4423  add */\n              dup6\n                /* \"Campaign.sol\":4404:4424  approversMonney[add] */\n              0xffffffffffffffffffffffffffffffffffffffff\n              and\n              0xffffffffffffffffffffffffffffffffffffffff\n              and\n              dup2\n              mstore\n              0x20\n              add\n              swap1\n              dup2\n              mstore\n              0x20\n              add\n              0x00\n              keccak256\n              sload\n                /* \"Campaign.sol\":4404:4429  approversMonney[add] != 0 */\n              eq\n                /* \"Campaign.sol\":4400:4485  if (approversMonney[add] != 0) {... */\n              tag_232\n              jumpi\n                /* \"Campaign.sol\":4454:4469  approversMonney */\n              0x06\n                /* \"Campaign.sol\":4454:4474  approversMonney[add] */\n              0x00\n                /* \"Campaign.sol\":4470:4473  add */\n              dup5\n                /* \"Campaign.sol\":4454:4474  approversMonney[add] */\n              0xffffffffffffffffffffffffffffffffffffffff\n              and\n              0xffffffffffffffffffffffffffffffffffffffff\n              and\n              dup2\n              mstore\n              0x20\n              add\n              swap1\n              dup2\n              mstore\n              0x20\n              add\n              0x00\n              keccak256\n              sload\n                /* \"Campaign.sol\":4445:4474  monney = approversMonney[add] */\n              swap1\n              pop\n                /* \"Campaign.sol\":4400:4485  if (approversMonney[add] != 0) {... */\n            tag_232:\n                /* \"Campaign.sol\":4502:4508  monney */\n              dup1\n                /* \"Campaign.sol\":4495:4508  return monney */\n              swap2\n              pop\n              pop\n                /* \"Campaign.sol\":4302:4515  function getBid(address add) public view returns (uint256) {... */\n              swap2\n              swap1\n              pop\n              jump\t// out\n                /* \"Campaign.sol\":1776:1801  uint256 public highestBid */\n            tag_126:\n              sload(0x0a)\n              dup2\n              jump\t// out\n                /* \"Campaign.sol\":4706:6093  function contribute() public payable {... */\n            tag_129:\n                /* \"Campaign.sol\":4828:4835  manager */\n              0x01\n              0x00\n              swap1\n              sload\n              swap1\n              0x0100\n              exp\n              swap1\n              div\n              0xffffffffffffffffffffffffffffffffffffffff\n              and\n                /* \"Campaign.sol\":4814:4835  msg.sender != manager */\n              0xffffffffffffffffffffffffffffffffffffffff\n              and\n                /* \"Campaign.sol\":4814:4824  msg.sender */\n              caller\n                /* \"Campaign.sol\":4814:4835  msg.sender != manager */\n              0xffffffffffffffffffffffffffffffffffffffff\n              and\n              sub\n                /* \"Campaign.sol\":4806:4867  require(msg.sender != manager, \"you can't buy your own data\") */\n              tag_234\n              jumpi\n              mload(0x40)\n              0x08c379a000000000000000000000000000000000000000000000000000000000\n              dup2\n              mstore\n              0x04\n              add\n              tag_235\n              swap1\n              tag_236\n              jump\t// in\n            tag_235:\n              mload(0x40)\n              dup1\n              swap2\n              sub\n              swap1\n              revert\n            tag_234:\n                /* \"Campaign.sol\":4908:4923  block.timestamp */\n              timestamp\n                /* \"Campaign.sol\":4898:4905  endTime */\n              sload(0x0b)\n                /* \"Campaign.sol\":4898:4923  endTime > block.timestamp */\n              gt\n                /* \"Campaign.sol\":4877:4989  require(... */\n              tag_237\n              jumpi\n              mload(0x40)\n              0x08c379a000000000000000000000000000000000000000000000000000000000\n              dup2\n              mstore\n              0x04\n              add\n              tag_238\n              swap1\n              tag_239\n              jump\t// in\n            tag_238:\n              mload(0x40)\n              dup1\n              swap2\n              sub\n              swap1\n              revert\n            tag_237:\n                /* \"Campaign.sol\":4999:5011  transactions */\n              0x00\n                /* \"Campaign.sol\":5017:5060  Bid(msg.value, block.timestamp, msg.sender) */\n              mload(0x40)\n              dup1\n              0x60\n              add\n              0x40\n              mstore\n              dup1\n                /* \"Campaign.sol\":5021:5030  msg.value */\n              callvalue\n                /* \"Campaign.sol\":5017:5060  Bid(msg.value, block.timestamp, msg.sender) */\n              dup2\n              mstore\n              0x20\n              add\n                /* \"Campaign.sol\":5032:5047  block.timestamp */\n              timestamp\n                /* \"Campaign.sol\":5017:5060  Bid(msg.value, block.timestamp, msg.sender) */\n              dup2\n              mstore\n              0x20\n              add\n                /* \"Campaign.sol\":5049:5059  msg.sender */\n              caller\n                /* \"Campaign.sol\":5017:5060  Bid(msg.value, block.timestamp, msg.sender) */\n              0xffffffffffffffffffffffffffffffffffffffff\n              and\n              dup2\n              mstore\n              pop\n                /* \"Campaign.sol\":4999:5061  transactions.push(Bid(msg.value, block.timestamp, msg.sender)) */\n              swap1\n              dup1\n              0x01\n              dup2\n              sload\n              add\n              dup1\n              dup3\n              sstore\n              dup1\n              swap2\n              pop\n              pop\n              0x01\n              swap1\n              sub\n              swap1\n              0x00\n              mstore\n              keccak256(0x00, 0x20)\n              swap1\n              0x03\n              mul\n              add\n              0x00\n              swap1\n              swap2\n              swap1\n              swap2\n              swap1\n              swap2\n              pop\n              0x00\n              dup3\n              add\n              mload\n              dup2\n              0x00\n              add\n              sstore\n              0x20\n              dup3\n              add\n              mload\n              dup2\n              0x01\n              add\n              sstore\n              0x40\n              dup3\n              add\n              mload\n              dup2\n              0x02\n              add\n              exp(0x0100, 0x00)\n              dup2\n              sload\n              dup2\n              0xffffffffffffffffffffffffffffffffffffffff\n              mul\n              not\n              and\n              swap1\n              dup4\n              0xffffffffffffffffffffffffffffffffffffffff\n              and\n              mul\n              or\n              swap1\n              sstore\n              pop\n              pop\n              pop\n                /* \"Campaign.sol\":5101:5105  true */\n              0x01\n                /* \"Campaign.sol\":5076:5105  approvers[msg.sender] != true */\n              iszero\n              iszero\n                /* \"Campaign.sol\":5076:5085  approvers */\n              0x05\n                /* \"Campaign.sol\":5076:5097  approvers[msg.sender] */\n              0x00\n                /* \"Campaign.sol\":5086:5096  msg.sender */\n              caller\n                /* \"Campaign.sol\":5076:5097  approvers[msg.sender] */\n              0xffffffffffffffffffffffffffffffffffffffff\n              and\n              0xffffffffffffffffffffffffffffffffffffffff\n              and\n              dup2\n              mstore\n              0x20\n              add\n              swap1\n              dup2\n              mstore\n              0x20\n              add\n              0x00\n              keccak256\n              0x00\n              swap1\n              sload\n              swap1\n              0x0100\n              exp\n              swap1\n              div\n              0xff\n              and\n                /* \"Campaign.sol\":5076:5105  approvers[msg.sender] != true */\n              iszero\n              iszero\n              eq\n                /* \"Campaign.sol\":5072:6087  if (approvers[msg.sender] != true) {... */\n              tag_241\n              jumpi\n                /* \"Campaign.sol\":5141:5160  minimumContribution */\n              sload(0x02)\n                /* \"Campaign.sol\":5129:5138  msg.value */\n              callvalue\n                /* \"Campaign.sol\":5129:5160  msg.value > minimumContribution */\n              gt\n                /* \"Campaign.sol\":5121:5161  require(msg.value > minimumContribution) */\n              tag_242\n              jumpi\n              0x00\n              dup1\n              revert\n            tag_242:\n                /* \"Campaign.sol\":5243:5253  highestBid */\n              sload(0x0a)\n                /* \"Campaign.sol\":5231:5240  msg.value */\n              callvalue\n                /* \"Campaign.sol\":5231:5253  msg.value > highestBid */\n              gt\n                /* \"Campaign.sol\":5223:5273  require(msg.value > highestBid, \"value < highest\") */\n              tag_243\n              jumpi\n              mload(0x40)\n              0x08c379a000000000000000000000000000000000000000000000000000000000\n              dup2\n              mstore\n              0x04\n              add\n              tag_244\n              swap1\n              tag_245\n              jump\t// in\n            tag_244:\n              mload(0x40)\n              dup1\n              swap2\n              sub\n              swap1\n              revert\n            tag_243:\n                /* \"Campaign.sol\":5364:5368  true */\n              0x01\n                /* \"Campaign.sol\":5340:5349  approvers */\n              0x05\n                /* \"Campaign.sol\":5340:5361  approvers[msg.sender] */\n              0x00\n                /* \"Campaign.sol\":5350:5360  msg.sender */\n              caller\n                /* \"Campaign.sol\":5340:5361  approvers[msg.sender] */\n              0xffffffffffffffffffffffffffffffffffffffff\n              and\n              0xffffffffffffffffffffffffffffffffffffffff\n              and\n              dup2\n              mstore\n              0x20\n              add\n              swap1\n              dup2\n              mstore\n              0x20\n              add\n              0x00\n              keccak256\n              0x00\n                /* \"Campaign.sol\":5340:5368  approvers[msg.sender] = true */\n              0x0100\n              exp\n              dup2\n              sload\n              dup2\n              0xff\n              mul\n              not\n              and\n              swap1\n              dup4\n              iszero\n              iszero\n              mul\n              or\n              swap1\n              sstore\n              pop\n                /* \"Campaign.sol\":5398:5408  msg.sender */\n              caller\n                /* \"Campaign.sol\":5382:5395  highestBidder */\n              0x09\n              0x00\n                /* \"Campaign.sol\":5382:5408  highestBidder = msg.sender */\n              0x0100\n              exp\n              dup2\n              sload\n              dup2\n              0xffffffffffffffffffffffffffffffffffffffff\n              mul\n              not\n              and\n              swap1\n              dup4\n              0xffffffffffffffffffffffffffffffffffffffff\n              and\n              mul\n              or\n              swap1\n              sstore\n              pop\n                /* \"Campaign.sol\":5435:5444  msg.value */\n              callvalue\n                /* \"Campaign.sol\":5422:5432  highestBid */\n              0x0a\n                /* \"Campaign.sol\":5422:5444  highestBid = msg.value */\n              dup2\n              swap1\n              sstore\n              pop\n                /* \"Campaign.sol\":5458:5472  approversCount */\n              0x07\n              0x00\n                /* \"Campaign.sol\":5458:5474  approversCount++ */\n              dup2\n              sload\n              dup1\n              swap3\n              swap2\n              swap1\n              tag_246\n              swap1\n              tag_199\n              jump\t// in\n            tag_246:\n              swap2\n              swap1\n              pop\n              sstore\n              pop\n                /* \"Campaign.sol\":5518:5527  msg.value */\n              callvalue\n                /* \"Campaign.sol\":5488:5503  approversMonney */\n              0x06\n                /* \"Campaign.sol\":5488:5515  approversMonney[msg.sender] */\n              0x00\n                /* \"Campaign.sol\":5504:5514  msg.sender */\n              caller\n                /* \"Campaign.sol\":5488:5515  approversMonney[msg.sender] */\n              0xffffffffffffffffffffffffffffffffffffffff\n              and\n              0xffffffffffffffffffffffffffffffffffffffff\n              and\n              dup2\n              mstore\n              0x20\n              add\n              swap1\n              dup2\n              mstore\n              0x20\n              add\n              0x00\n              keccak256\n                /* \"Campaign.sol\":5488:5527  approversMonney[msg.sender] = msg.value */\n              dup2\n              swap1\n              sstore\n              pop\n                /* \"Campaign.sol\":5541:5550  addresses */\n              0x08\n                /* \"Campaign.sol\":5556:5566  msg.sender */\n              caller\n                /* \"Campaign.sol\":5541:5567  addresses.push(msg.sender) */\n              swap1\n              dup1\n              0x01\n              dup2\n              sload\n              add\n              dup1\n              dup3\n              sstore\n              dup1\n              swap2\n              pop\n              pop\n              0x01\n              swap1\n              sub\n              swap1\n              0x00\n              mstore\n              keccak256(0x00, 0x20)\n              add\n              0x00\n              swap1\n              swap2\n              swap1\n              swap2\n              swap1\n              swap2\n              0x0100\n              exp\n              dup2\n              sload\n              dup2\n              0xffffffffffffffffffffffffffffffffffffffff\n              mul\n              not\n              and\n              swap1\n              dup4\n              0xffffffffffffffffffffffffffffffffffffffff\n              and\n              mul\n              or\n              swap1\n              sstore\n              pop\n                /* \"Campaign.sol\":5072:6087  if (approvers[msg.sender] != true) {... */\n              jump(tag_248)\n            tag_241:\n                /* \"Campaign.sol\":5648:5673  uint256 calculatedAmmount */\n              0x00\n                /* \"Campaign.sol\":5688:5703  approversMonney */\n              0x06\n                /* \"Campaign.sol\":5688:5715  approversMonney[msg.sender] */\n              0x00\n                /* \"Campaign.sol\":5704:5714  msg.sender */\n              caller\n                /* \"Campaign.sol\":5688:5715  approversMonney[msg.sender] */\n              0xffffffffffffffffffffffffffffffffffffffff\n              and\n              0xffffffffffffffffffffffffffffffffffffffff\n              and\n              dup2\n              mstore\n              0x20\n              add\n              swap1\n              dup2\n              mstore\n              0x20\n              add\n              0x00\n              keccak256\n              sload\n                /* \"Campaign.sol\":5676:5685  msg.value */\n              callvalue\n                /* \"Campaign.sol\":5676:5715  msg.value + approversMonney[msg.sender] */\n              tag_249\n              swap2\n              swap1\n              tag_250\n              jump\t// in\n            tag_249:\n                /* \"Campaign.sol\":5648:5715  uint256 calculatedAmmount = msg.value + approversMonney[msg.sender] */\n              swap1\n              pop\n                /* \"Campaign.sol\":5757:5767  highestBid */\n              sload(0x0a)\n                /* \"Campaign.sol\":5737:5754  calculatedAmmount */\n              dup2\n                /* \"Campaign.sol\":5737:5767  calculatedAmmount > highestBid */\n              gt\n                /* \"Campaign.sol\":5729:5787  require(calculatedAmmount > highestBid, \"value < highest\") */\n              tag_251\n              jumpi\n              mload(0x40)\n              0x08c379a000000000000000000000000000000000000000000000000000000000\n              dup2\n              mstore\n              0x04\n              add\n              tag_252\n              swap1\n              tag_245\n              jump\t// in\n            tag_252:\n              mload(0x40)\n              dup1\n              swap2\n              sub\n              swap1\n              revert\n            tag_251:\n                /* \"Campaign.sol\":5910:5929  minimumContribution */\n              sload(0x02)\n                /* \"Campaign.sol\":5890:5907  calculatedAmmount */\n              dup2\n                /* \"Campaign.sol\":5890:5929  calculatedAmmount > minimumContribution */\n              gt\n                /* \"Campaign.sol\":5882:5930  require(calculatedAmmount > minimumContribution) */\n              tag_253\n              jumpi\n              0x00\n              dup1\n              revert\n            tag_253:\n                /* \"Campaign.sol\":5975:5992  calculatedAmmount */\n              dup1\n                /* \"Campaign.sol\":5945:5960  approversMonney */\n              0x06\n                /* \"Campaign.sol\":5945:5972  approversMonney[msg.sender] */\n              0x00\n                /* \"Campaign.sol\":5961:5971  msg.sender */\n              caller\n                /* \"Campaign.sol\":5945:5972  approversMonney[msg.sender] */\n              0xffffffffffffffffffffffffffffffffffffffff\n              and\n              0xffffffffffffffffffffffffffffffffffffffff\n              and\n              dup2\n              mstore\n              0x20\n              add\n              swap1\n              dup2\n              mstore\n              0x20\n              add\n              0x00\n              keccak256\n                /* \"Campaign.sol\":5945:5992  approversMonney[msg.sender] = calculatedAmmount */\n              dup2\n              swap1\n              sstore\n              pop\n                /* \"Campaign.sol\":6022:6032  msg.sender */\n              caller\n                /* \"Campaign.sol\":6006:6019  highestBidder */\n              0x09\n              0x00\n                /* \"Campaign.sol\":6006:6032  highestBidder = msg.sender */\n              0x0100\n              exp\n              dup2\n              sload\n              dup2\n              0xffffffffffffffffffffffffffffffffffffffff\n              mul\n              not\n              and\n              swap1\n              dup4\n              0xffffffffffffffffffffffffffffffffffffffff\n              and\n              mul\n              or\n              swap1\n              sstore\n              pop\n                /* \"Campaign.sol\":6059:6076  calculatedAmmount */\n              dup1\n                /* \"Campaign.sol\":6046:6056  highestBid */\n              0x0a\n                /* \"Campaign.sol\":6046:6076  highestBid = calculatedAmmount */\n              dup2\n              swap1\n              sstore\n              pop\n                /* \"Campaign.sol\":5584:6087  {... */\n              pop\n                /* \"Campaign.sol\":5072:6087  if (approvers[msg.sender] != true) {... */\n            tag_248:\n                /* \"Campaign.sol\":4706:6093  function contribute() public payable {... */\n              jump\t// out\n                /* \"Campaign.sol\":1710:1736  address[] public addresses */\n            tag_133:\n              0x08\n              dup2\n              dup2\n              sload\n              dup2\n              lt\n              tag_254\n              jumpi\n              0x00\n              dup1\n              revert\n            tag_254:\n              swap1\n              0x00\n              mstore\n              keccak256(0x00, 0x20)\n              add\n              0x00\n              swap2\n              pop\n              sload\n              swap1\n              0x0100\n              exp\n              swap1\n              div\n              0xffffffffffffffffffffffffffffffffffffffff\n              and\n              dup2\n              jump\t// out\n                /* \"#utility.yul\":88:205   */\n            tag_257:\n                /* \"#utility.yul\":197:198   */\n              0x00\n                /* \"#utility.yul\":194:195   */\n              dup1\n                /* \"#utility.yul\":187:199   */\n              revert\n                /* \"#utility.yul\":334:460   */\n            tag_259:\n                /* \"#utility.yul\":371:378   */\n              0x00\n                /* \"#utility.yul\":411:453   */\n              0xffffffffffffffffffffffffffffffffffffffff\n                /* \"#utility.yul\":404:409   */\n              dup3\n                /* \"#utility.yul\":400:454   */\n              and\n                /* \"#utility.yul\":389:454   */\n              swap1\n              pop\n                /* \"#utility.yul\":334:460   */\n              swap2\n              swap1\n              pop\n              jump\t// out\n                /* \"#utility.yul\":466:562   */\n            tag_260:\n                /* \"#utility.yul\":503:510   */\n              0x00\n                /* \"#utility.yul\":532:556   */\n              tag_320\n                /* \"#utility.yul\":550:555   */\n              dup3\n                /* \"#utility.yul\":532:556   */\n              tag_259\n              jump\t// in\n            tag_320:\n                /* \"#utility.yul\":521:556   */\n              swap1\n              pop\n                /* \"#utility.yul\":466:562   */\n              swap2\n              swap1\n              pop\n              jump\t// out\n                /* \"#utility.yul\":568:690   */\n            tag_261:\n                /* \"#utility.yul\":641:665   */\n              tag_322\n                /* \"#utility.yul\":659:664   */\n              dup2\n                /* \"#utility.yul\":641:665   */\n              tag_260\n              jump\t// in\n            tag_322:\n                /* \"#utility.yul\":634:639   */\n              dup2\n                /* \"#utility.yul\":631:666   */\n              eq\n                /* \"#utility.yul\":621:684   */\n              tag_323\n              jumpi\n                /* \"#utility.yul\":680:681   */\n              0x00\n                /* \"#utility.yul\":677:678   */\n              dup1\n                /* \"#utility.yul\":670:682   */\n              revert\n                /* \"#utility.yul\":621:684   */\n            tag_323:\n                /* \"#utility.yul\":568:690   */\n              pop\n              jump\t// out\n                /* \"#utility.yul\":696:835   */\n            tag_262:\n                /* \"#utility.yul\":742:747   */\n              0x00\n                /* \"#utility.yul\":780:786   */\n              dup2\n                /* \"#utility.yul\":767:787   */\n              calldataload\n                /* \"#utility.yul\":758:787   */\n              swap1\n              pop\n                /* \"#utility.yul\":796:829   */\n              tag_325\n                /* \"#utility.yul\":823:828   */\n              dup2\n                /* \"#utility.yul\":796:829   */\n              tag_261\n              jump\t// in\n            tag_325:\n                /* \"#utility.yul\":696:835   */\n              swap3\n              swap2\n              pop\n              pop\n              jump\t// out\n                /* \"#utility.yul\":841:1170   */\n            tag_31:\n                /* \"#utility.yul\":900:906   */\n              0x00\n                /* \"#utility.yul\":949:951   */\n              0x20\n                /* \"#utility.yul\":937:946   */\n              dup3\n                /* \"#utility.yul\":928:935   */\n              dup5\n                /* \"#utility.yul\":924:947   */\n              sub\n                /* \"#utility.yul\":920:952   */\n              slt\n                /* \"#utility.yul\":917:1036   */\n              iszero\n              tag_327\n              jumpi\n                /* \"#utility.yul\":955:1034   */\n              tag_328\n              tag_257\n              jump\t// in\n            tag_328:\n                /* \"#utility.yul\":917:1036   */\n            tag_327:\n                /* \"#utility.yul\":1075:1076   */\n              0x00\n                /* \"#utility.yul\":1100:1153   */\n              tag_329\n                /* \"#utility.yul\":1145:1152   */\n              dup5\n                /* \"#utility.yul\":1136:1142   */\n              dup3\n                /* \"#utility.yul\":1125:1134   */\n              dup6\n                /* \"#utility.yul\":1121:1143   */\n              add\n                /* \"#utility.yul\":1100:1153   */\n              tag_262\n              jump\t// in\n            tag_329:\n                /* \"#utility.yul\":1090:1153   */\n              swap2\n              pop\n                /* \"#utility.yul\":1046:1163   */\n              pop\n                /* \"#utility.yul\":841:1170   */\n              swap3\n              swap2\n              pop\n              pop\n              jump\t// out\n                /* \"#utility.yul\":1176:1266   */\n            tag_263:\n                /* \"#utility.yul\":1210:1217   */\n              0x00\n                /* \"#utility.yul\":1253:1258   */\n              dup2\n                /* \"#utility.yul\":1246:1259   */\n              iszero\n                /* \"#utility.yul\":1239:1260   */\n              iszero\n                /* \"#utility.yul\":1228:1260   */\n              swap1\n              pop\n                /* \"#utility.yul\":1176:1266   */\n              swap2\n              swap1\n              pop\n              jump\t// out\n                /* \"#utility.yul\":1272:1381   */\n            tag_264:\n                /* \"#utility.yul\":1353:1374   */\n              tag_332\n                /* \"#utility.yul\":1368:1373   */\n              dup2\n                /* \"#utility.yul\":1353:1374   */\n              tag_263\n              jump\t// in\n            tag_332:\n                /* \"#utility.yul\":1348:1351   */\n              dup3\n                /* \"#utility.yul\":1341:1375   */\n              mstore\n                /* \"#utility.yul\":1272:1381   */\n              pop\n              pop\n              jump\t// out\n                /* \"#utility.yul\":1387:1597   */\n            tag_34:\n                /* \"#utility.yul\":1474:1478   */\n              0x00\n                /* \"#utility.yul\":1512:1514   */\n              0x20\n                /* \"#utility.yul\":1501:1510   */\n              dup3\n                /* \"#utility.yul\":1497:1515   */\n              add\n                /* \"#utility.yul\":1489:1515   */\n              swap1\n              pop\n                /* \"#utility.yul\":1525:1590   */\n              tag_334\n                /* \"#utility.yul\":1587:1588   */\n              0x00\n                /* \"#utility.yul\":1576:1585   */\n              dup4\n                /* \"#utility.yul\":1572:1589   */\n              add\n                /* \"#utility.yul\":1563:1569   */\n              dup5\n                /* \"#utility.yul\":1525:1590   */\n              tag_264\n              jump\t// in\n            tag_334:\n                /* \"#utility.yul\":1387:1597   */\n              swap3\n              swap2\n              pop\n              pop\n              jump\t// out\n                /* \"#utility.yul\":1603:1680   */\n            tag_265:\n                /* \"#utility.yul\":1640:1647   */\n              0x00\n                /* \"#utility.yul\":1669:1674   */\n              dup2\n                /* \"#utility.yul\":1658:1674   */\n              swap1\n              pop\n                /* \"#utility.yul\":1603:1680   */\n              swap2\n              swap1\n              pop\n              jump\t// out\n                /* \"#utility.yul\":1686:1804   */\n            tag_266:\n                /* \"#utility.yul\":1773:1797   */\n              tag_337\n                /* \"#utility.yul\":1791:1796   */\n              dup2\n                /* \"#utility.yul\":1773:1797   */\n              tag_265\n              jump\t// in\n            tag_337:\n                /* \"#utility.yul\":1768:1771   */\n              dup3\n                /* \"#utility.yul\":1761:1798   */\n              mstore\n                /* \"#utility.yul\":1686:1804   */\n              pop\n              pop\n              jump\t// out\n                /* \"#utility.yul\":1810:2032   */\n            tag_40:\n                /* \"#utility.yul\":1903:1907   */\n              0x00\n                /* \"#utility.yul\":1941:1943   */\n              0x20\n                /* \"#utility.yul\":1930:1939   */\n              dup3\n                /* \"#utility.yul\":1926:1944   */\n              add\n                /* \"#utility.yul\":1918:1944   */\n              swap1\n              pop\n                /* \"#utility.yul\":1954:2025   */\n              tag_339\n                /* \"#utility.yul\":2022:2023   */\n              0x00\n                /* \"#utility.yul\":2011:2020   */\n              dup4\n                /* \"#utility.yul\":2007:2024   */\n              add\n                /* \"#utility.yul\":1998:2004   */\n              dup5\n                /* \"#utility.yul\":1954:2025   */\n              tag_266\n              jump\t// in\n            tag_339:\n                /* \"#utility.yul\":1810:2032   */\n              swap3\n              swap2\n              pop\n              pop\n              jump\t// out\n                /* \"#utility.yul\":2038:2156   */\n            tag_267:\n                /* \"#utility.yul\":2125:2149   */\n              tag_341\n                /* \"#utility.yul\":2143:2148   */\n              dup2\n                /* \"#utility.yul\":2125:2149   */\n              tag_260\n              jump\t// in\n            tag_341:\n                /* \"#utility.yul\":2120:2123   */\n              dup3\n                /* \"#utility.yul\":2113:2150   */\n              mstore\n                /* \"#utility.yul\":2038:2156   */\n              pop\n              pop\n              jump\t// out\n                /* \"#utility.yul\":2162:2261   */\n            tag_268:\n                /* \"#utility.yul\":2214:2220   */\n              0x00\n                /* \"#utility.yul\":2248:2253   */\n              dup2\n                /* \"#utility.yul\":2242:2254   */\n              mload\n                /* \"#utility.yul\":2232:2254   */\n              swap1\n              pop\n                /* \"#utility.yul\":2162:2261   */\n              swap2\n              swap1\n              pop\n              jump\t// out\n                /* \"#utility.yul\":2267:2436   */\n            tag_269:\n                /* \"#utility.yul\":2351:2362   */\n              0x00\n                /* \"#utility.yul\":2385:2391   */\n              dup3\n                /* \"#utility.yul\":2380:2383   */\n              dup3\n                /* \"#utility.yul\":2373:2392   */\n              mstore\n                /* \"#utility.yul\":2425:2429   */\n              0x20\n                /* \"#utility.yul\":2420:2423   */\n              dup3\n                /* \"#utility.yul\":2416:2430   */\n              add\n                /* \"#utility.yul\":2401:2430   */\n              swap1\n              pop\n                /* \"#utility.yul\":2267:2436   */\n              swap3\n              swap2\n              pop\n              pop\n              jump\t// out\n                /* \"#utility.yul\":2442:2749   */\n            tag_270:\n                /* \"#utility.yul\":2510:2511   */\n              0x00\n                /* \"#utility.yul\":2520:2633   */\n            tag_345:\n                /* \"#utility.yul\":2534:2540   */\n              dup4\n                /* \"#utility.yul\":2531:2532   */\n              dup2\n                /* \"#utility.yul\":2528:2541   */\n              lt\n                /* \"#utility.yul\":2520:2633   */\n              iszero\n              tag_347\n              jumpi\n                /* \"#utility.yul\":2619:2620   */\n              dup1\n                /* \"#utility.yul\":2614:2617   */\n              dup3\n                /* \"#utility.yul\":2610:2621   */\n              add\n                /* \"#utility.yul\":2604:2622   */\n              mload\n                /* \"#utility.yul\":2600:2601   */\n              dup2\n                /* \"#utility.yul\":2595:2598   */\n              dup5\n                /* \"#utility.yul\":2591:2602   */\n              add\n                /* \"#utility.yul\":2584:2623   */\n              mstore\n                /* \"#utility.yul\":2556:2558   */\n              0x20\n                /* \"#utility.yul\":2553:2554   */\n              dup2\n                /* \"#utility.yul\":2549:2559   */\n              add\n                /* \"#utility.yul\":2544:2559   */\n              swap1\n              pop\n                /* \"#utility.yul\":2520:2633   */\n              jump(tag_345)\n            tag_347:\n                /* \"#utility.yul\":2651:2657   */\n              dup4\n                /* \"#utility.yul\":2648:2649   */\n              dup2\n                /* \"#utility.yul\":2645:2658   */\n              gt\n                /* \"#utility.yul\":2642:2743   */\n              iszero\n              tag_348\n              jumpi\n                /* \"#utility.yul\":2731:2732   */\n              0x00\n                /* \"#utility.yul\":2722:2728   */\n              dup5\n                /* \"#utility.yul\":2717:2720   */\n              dup5\n                /* \"#utility.yul\":2713:2729   */\n              add\n                /* \"#utility.yul\":2706:2733   */\n              mstore\n                /* \"#utility.yul\":2642:2743   */\n            tag_348:\n                /* \"#utility.yul\":2491:2749   */\n              pop\n                /* \"#utility.yul\":2442:2749   */\n              pop\n              pop\n              pop\n              jump\t// out\n                /* \"#utility.yul\":2755:2857   */\n            tag_271:\n                /* \"#utility.yul\":2796:2802   */\n              0x00\n                /* \"#utility.yul\":2847:2849   */\n              0x1f\n                /* \"#utility.yul\":2843:2850   */\n              not\n                /* \"#utility.yul\":2838:2840   */\n              0x1f\n                /* \"#utility.yul\":2831:2836   */\n              dup4\n                /* \"#utility.yul\":2827:2841   */\n              add\n                /* \"#utility.yul\":2823:2851   */\n              and\n                /* \"#utility.yul\":2813:2851   */\n              swap1\n              pop\n                /* \"#utility.yul\":2755:2857   */\n              swap2\n              swap1\n              pop\n              jump\t// out\n                /* \"#utility.yul\":2863:3227   */\n            tag_272:\n                /* \"#utility.yul\":2951:2954   */\n              0x00\n                /* \"#utility.yul\":2979:3018   */\n              tag_351\n                /* \"#utility.yul\":3012:3017   */\n              dup3\n                /* \"#utility.yul\":2979:3018   */\n              tag_268\n              jump\t// in\n            tag_351:\n                /* \"#utility.yul\":3034:3105   */\n              tag_352\n                /* \"#utility.yul\":3098:3104   */\n              dup2\n                /* \"#utility.yul\":3093:3096   */\n              dup6\n                /* \"#utility.yul\":3034:3105   */\n              tag_269\n              jump\t// in\n            tag_352:\n                /* \"#utility.yul\":3027:3105   */\n              swap4\n              pop\n                /* \"#utility.yul\":3114:3166   */\n              tag_353\n                /* \"#utility.yul\":3159:3165   */\n              dup2\n                /* \"#utility.yul\":3154:3157   */\n              dup6\n                /* \"#utility.yul\":3147:3151   */\n              0x20\n                /* \"#utility.yul\":3140:3145   */\n              dup7\n                /* \"#utility.yul\":3136:3152   */\n              add\n                /* \"#utility.yul\":3114:3166   */\n              tag_270\n              jump\t// in\n            tag_353:\n                /* \"#utility.yul\":3191:3220   */\n              tag_354\n                /* \"#utility.yul\":3213:3219   */\n              dup2\n                /* \"#utility.yul\":3191:3220   */\n              tag_271\n              jump\t// in\n            tag_354:\n                /* \"#utility.yul\":3186:3189   */\n              dup5\n                /* \"#utility.yul\":3182:3221   */\n              add\n                /* \"#utility.yul\":3175:3221   */\n              swap2\n              pop\n                /* \"#utility.yul\":2955:3227   */\n              pop\n                /* \"#utility.yul\":2863:3227   */\n              swap3\n              swap2\n              pop\n              pop\n              jump\t// out\n                /* \"#utility.yul\":3233:3347   */\n            tag_273:\n                /* \"#utility.yul\":3300:3306   */\n              0x00\n                /* \"#utility.yul\":3334:3339   */\n              dup2\n                /* \"#utility.yul\":3328:3340   */\n              mload\n                /* \"#utility.yul\":3318:3340   */\n              swap1\n              pop\n                /* \"#utility.yul\":3233:3347   */\n              swap2\n              swap1\n              pop\n              jump\t// out\n                /* \"#utility.yul\":3353:3537   */\n            tag_274:\n                /* \"#utility.yul\":3452:3463   */\n              0x00\n                /* \"#utility.yul\":3486:3492   */\n              dup3\n                /* \"#utility.yul\":3481:3484   */\n              dup3\n                /* \"#utility.yul\":3474:3493   */\n              mstore\n                /* \"#utility.yul\":3526:3530   */\n              0x20\n                /* \"#utility.yul\":3521:3524   */\n              dup3\n                /* \"#utility.yul\":3517:3531   */\n              add\n                /* \"#utility.yul\":3502:3531   */\n              swap1\n              pop\n                /* \"#utility.yul\":3353:3537   */\n              swap3\n              swap2\n              pop\n              pop\n              jump\t// out\n                /* \"#utility.yul\":3543:3675   */\n            tag_275:\n                /* \"#utility.yul\":3610:3614   */\n              0x00\n                /* \"#utility.yul\":3633:3636   */\n              dup2\n                /* \"#utility.yul\":3625:3636   */\n              swap1\n              pop\n                /* \"#utility.yul\":3663:3667   */\n              0x20\n                /* \"#utility.yul\":3658:3661   */\n              dup3\n                /* \"#utility.yul\":3654:3668   */\n              add\n                /* \"#utility.yul\":3646:3668   */\n              swap1\n              pop\n                /* \"#utility.yul\":3543:3675   */\n              swap2\n              swap1\n              pop\n              jump\t// out\n                /* \"#utility.yul\":3681:3789   */\n            tag_276:\n                /* \"#utility.yul\":3758:3782   */\n              tag_359\n                /* \"#utility.yul\":3776:3781   */\n              dup2\n                /* \"#utility.yul\":3758:3782   */\n              tag_260\n              jump\t// in\n            tag_359:\n                /* \"#utility.yul\":3753:3756   */\n              dup3\n                /* \"#utility.yul\":3746:3783   */\n              mstore\n                /* \"#utility.yul\":3681:3789   */\n              pop\n              pop\n              jump\t// out\n                /* \"#utility.yul\":3795:3974   */\n            tag_277:\n                /* \"#utility.yul\":3864:3874   */\n              0x00\n                /* \"#utility.yul\":3885:3931   */\n              tag_361\n                /* \"#utility.yul\":3927:3930   */\n              dup4\n                /* \"#utility.yul\":3919:3925   */\n              dup4\n                /* \"#utility.yul\":3885:3931   */\n              tag_276\n              jump\t// in\n            tag_361:\n                /* \"#utility.yul\":3963:3967   */\n              0x20\n                /* \"#utility.yul\":3958:3961   */\n              dup4\n                /* \"#utility.yul\":3954:3968   */\n              add\n                /* \"#utility.yul\":3940:3968   */\n              swap1\n              pop\n                /* \"#utility.yul\":3795:3974   */\n              swap3\n              swap2\n              pop\n              pop\n              jump\t// out\n                /* \"#utility.yul\":3980:4093   */\n            tag_278:\n                /* \"#utility.yul\":4050:4054   */\n              0x00\n                /* \"#utility.yul\":4082:4086   */\n              0x20\n                /* \"#utility.yul\":4077:4080   */\n              dup3\n                /* \"#utility.yul\":4073:4087   */\n              add\n                /* \"#utility.yul\":4065:4087   */\n              swap1\n              pop\n                /* \"#utility.yul\":3980:4093   */\n              swap2\n              swap1\n              pop\n              jump\t// out\n                /* \"#utility.yul\":4129:4861   */\n            tag_279:\n                /* \"#utility.yul\":4248:4251   */\n              0x00\n                /* \"#utility.yul\":4277:4331   */\n              tag_364\n                /* \"#utility.yul\":4325:4330   */\n              dup3\n                /* \"#utility.yul\":4277:4331   */\n              tag_273\n              jump\t// in\n            tag_364:\n                /* \"#utility.yul\":4347:4433   */\n              tag_365\n                /* \"#utility.yul\":4426:4432   */\n              dup2\n                /* \"#utility.yul\":4421:4424   */\n              dup6\n                /* \"#utility.yul\":4347:4433   */\n              tag_274\n              jump\t// in\n            tag_365:\n                /* \"#utility.yul\":4340:4433   */\n              swap4\n              pop\n                /* \"#utility.yul\":4457:4513   */\n              tag_366\n                /* \"#utility.yul\":4507:4512   */\n              dup4\n                /* \"#utility.yul\":4457:4513   */\n              tag_275\n              jump\t// in\n            tag_366:\n                /* \"#utility.yul\":4536:4543   */\n              dup1\n                /* \"#utility.yul\":4567:4568   */\n              0x00\n                /* \"#utility.yul\":4552:4836   */\n            tag_367:\n                /* \"#utility.yul\":4577:4583   */\n              dup4\n                /* \"#utility.yul\":4574:4575   */\n              dup2\n                /* \"#utility.yul\":4571:4584   */\n              lt\n                /* \"#utility.yul\":4552:4836   */\n              iszero\n              tag_369\n              jumpi\n                /* \"#utility.yul\":4653:4659   */\n              dup2\n                /* \"#utility.yul\":4647:4660   */\n              mload\n                /* \"#utility.yul\":4680:4743   */\n              tag_370\n                /* \"#utility.yul\":4739:4742   */\n              dup9\n                /* \"#utility.yul\":4724:4737   */\n              dup3\n                /* \"#utility.yul\":4680:4743   */\n              tag_277\n              jump\t// in\n            tag_370:\n                /* \"#utility.yul\":4673:4743   */\n              swap8\n              pop\n                /* \"#utility.yul\":4766:4826   */\n              tag_371\n                /* \"#utility.yul\":4819:4825   */\n              dup4\n                /* \"#utility.yul\":4766:4826   */\n              tag_278\n              jump\t// in\n            tag_371:\n                /* \"#utility.yul\":4756:4826   */\n              swap3\n              pop\n                /* \"#utility.yul\":4612:4836   */\n              pop\n                /* \"#utility.yul\":4599:4600   */\n              0x01\n                /* \"#utility.yul\":4596:4597   */\n              dup2\n                /* \"#utility.yul\":4592:4601   */\n              add\n                /* \"#utility.yul\":4587:4601   */\n              swap1\n              pop\n                /* \"#utility.yul\":4552:4836   */\n              jump(tag_367)\n            tag_369:\n                /* \"#utility.yul\":4556:4570   */\n              pop\n                /* \"#utility.yul\":4852:4855   */\n              dup6\n                /* \"#utility.yul\":4845:4855   */\n              swap4\n              pop\n                /* \"#utility.yul\":4253:4861   */\n              pop\n              pop\n              pop\n                /* \"#utility.yul\":4129:4861   */\n              swap3\n              swap2\n              pop\n              pop\n              jump\t// out\n                /* \"#utility.yul\":4867:6419   */\n            tag_49:\n                /* \"#utility.yul\":5302:5306   */\n              0x00\n                /* \"#utility.yul\":5340:5343   */\n              0x0140\n                /* \"#utility.yul\":5329:5338   */\n              dup3\n                /* \"#utility.yul\":5325:5344   */\n              add\n                /* \"#utility.yul\":5317:5344   */\n              swap1\n              pop\n                /* \"#utility.yul\":5354:5425   */\n              tag_373\n                /* \"#utility.yul\":5422:5423   */\n              0x00\n                /* \"#utility.yul\":5411:5420   */\n              dup4\n                /* \"#utility.yul\":5407:5424   */\n              add\n                /* \"#utility.yul\":5398:5404   */\n              dup14\n                /* \"#utility.yul\":5354:5425   */\n              tag_266\n              jump\t// in\n            tag_373:\n                /* \"#utility.yul\":5435:5507   */\n              tag_374\n                /* \"#utility.yul\":5503:5505   */\n              0x20\n                /* \"#utility.yul\":5492:5501   */\n              dup4\n                /* \"#utility.yul\":5488:5506   */\n              add\n                /* \"#utility.yul\":5479:5485   */\n              dup13\n                /* \"#utility.yul\":5435:5507   */\n              tag_266\n              jump\t// in\n            tag_374:\n                /* \"#utility.yul\":5517:5589   */\n              tag_375\n                /* \"#utility.yul\":5585:5587   */\n              0x40\n                /* \"#utility.yul\":5574:5583   */\n              dup4\n                /* \"#utility.yul\":5570:5588   */\n              add\n                /* \"#utility.yul\":5561:5567   */\n              dup12\n                /* \"#utility.yul\":5517:5589   */\n              tag_266\n              jump\t// in\n            tag_375:\n                /* \"#utility.yul\":5599:5671   */\n              tag_376\n                /* \"#utility.yul\":5667:5669   */\n              0x60\n                /* \"#utility.yul\":5656:5665   */\n              dup4\n                /* \"#utility.yul\":5652:5670   */\n              add\n                /* \"#utility.yul\":5643:5649   */\n              dup11\n                /* \"#utility.yul\":5599:5671   */\n              tag_267\n              jump\t// in\n            tag_376:\n                /* \"#utility.yul\":5681:5754   */\n              tag_377\n                /* \"#utility.yul\":5749:5752   */\n              0x80\n                /* \"#utility.yul\":5738:5747   */\n              dup4\n                /* \"#utility.yul\":5734:5753   */\n              add\n                /* \"#utility.yul\":5725:5731   */\n              dup10\n                /* \"#utility.yul\":5681:5754   */\n              tag_266\n              jump\t// in\n            tag_377:\n                /* \"#utility.yul\":5802:5811   */\n              dup2\n                /* \"#utility.yul\":5796:5800   */\n              dup2\n                /* \"#utility.yul\":5792:5812   */\n              sub\n                /* \"#utility.yul\":5786:5789   */\n              0xa0\n                /* \"#utility.yul\":5775:5784   */\n              dup4\n                /* \"#utility.yul\":5771:5790   */\n              add\n                /* \"#utility.yul\":5764:5813   */\n              mstore\n                /* \"#utility.yul\":5830:5908   */\n              tag_378\n                /* \"#utility.yul\":5903:5907   */\n              dup2\n                /* \"#utility.yul\":5894:5900   */\n              dup9\n                /* \"#utility.yul\":5830:5908   */\n              tag_272\n              jump\t// in\n            tag_378:\n                /* \"#utility.yul\":5822:5908   */\n              swap1\n              pop\n                /* \"#utility.yul\":5956:5965   */\n              dup2\n                /* \"#utility.yul\":5950:5954   */\n              dup2\n                /* \"#utility.yul\":5946:5966   */\n              sub\n                /* \"#utility.yul\":5940:5943   */\n              0xc0\n                /* \"#utility.yul\":5929:5938   */\n              dup4\n                /* \"#utility.yul\":5925:5944   */\n              add\n                /* \"#utility.yul\":5918:5967   */\n              mstore\n                /* \"#utility.yul\":5984:6062   */\n              tag_379\n                /* \"#utility.yul\":6057:6061   */\n              dup2\n                /* \"#utility.yul\":6048:6054   */\n              dup8\n                /* \"#utility.yul\":5984:6062   */\n              tag_272\n              jump\t// in\n            tag_379:\n                /* \"#utility.yul\":5976:6062   */\n              swap1\n              pop\n                /* \"#utility.yul\":6072:6145   */\n              tag_380\n                /* \"#utility.yul\":6140:6143   */\n              0xe0\n                /* \"#utility.yul\":6129:6138   */\n              dup4\n                /* \"#utility.yul\":6125:6144   */\n              add\n                /* \"#utility.yul\":6116:6122   */\n              dup7\n                /* \"#utility.yul\":6072:6145   */\n              tag_266\n              jump\t// in\n            tag_380:\n                /* \"#utility.yul\":6155:6228   */\n              tag_381\n                /* \"#utility.yul\":6223:6226   */\n              0x0100\n                /* \"#utility.yul\":6212:6221   */\n              dup4\n                /* \"#utility.yul\":6208:6227   */\n              add\n                /* \"#utility.yul\":6199:6205   */\n              dup6\n                /* \"#utility.yul\":6155:6228   */\n              tag_267\n              jump\t// in\n            tag_381:\n                /* \"#utility.yul\":6276:6285   */\n              dup2\n                /* \"#utility.yul\":6270:6274   */\n              dup2\n                /* \"#utility.yul\":6266:6286   */\n              sub\n                /* \"#utility.yul\":6260:6263   */\n              0x0120\n                /* \"#utility.yul\":6249:6258   */\n              dup4\n                /* \"#utility.yul\":6245:6264   */\n              add\n                /* \"#utility.yul\":6238:6287   */\n              mstore\n                /* \"#utility.yul\":6304:6412   */\n              tag_382\n                /* \"#utility.yul\":6407:6411   */\n              dup2\n                /* \"#utility.yul\":6398:6404   */\n              dup5\n                /* \"#utility.yul\":6304:6412   */\n              tag_279\n              jump\t// in\n            tag_382:\n                /* \"#utility.yul\":6296:6412   */\n              swap1\n              pop\n                /* \"#utility.yul\":4867:6419   */\n              swap12\n              swap11\n              pop\n              pop\n              pop\n              pop\n              pop\n              pop\n              pop\n              pop\n              pop\n              pop\n              pop\n              jump\t// out\n                /* \"#utility.yul\":6425:6647   */\n            tag_54:\n                /* \"#utility.yul\":6518:6522   */\n              0x00\n                /* \"#utility.yul\":6556:6558   */\n              0x20\n                /* \"#utility.yul\":6545:6554   */\n              dup3\n                /* \"#utility.yul\":6541:6559   */\n              add\n                /* \"#utility.yul\":6533:6559   */\n              swap1\n              pop\n                /* \"#utility.yul\":6569:6640   */\n              tag_384\n                /* \"#utility.yul\":6637:6638   */\n              0x00\n                /* \"#utility.yul\":6626:6635   */\n              dup4\n                /* \"#utility.yul\":6622:6639   */\n              add\n                /* \"#utility.yul\":6613:6619   */\n              dup5\n                /* \"#utility.yul\":6569:6640   */\n              tag_267\n              jump\t// in\n            tag_384:\n                /* \"#utility.yul\":6425:6647   */\n              swap3\n              swap2\n              pop\n              pop\n              jump\t// out\n                /* \"#utility.yul\":6653:6757   */\n            tag_280:\n                /* \"#utility.yul\":6698:6705   */\n              0x00\n                /* \"#utility.yul\":6727:6751   */\n              tag_386\n                /* \"#utility.yul\":6745:6750   */\n              dup3\n                /* \"#utility.yul\":6727:6751   */\n              tag_259\n              jump\t// in\n            tag_386:\n                /* \"#utility.yul\":6716:6751   */\n              swap1\n              pop\n                /* \"#utility.yul\":6653:6757   */\n              swap2\n              swap1\n              pop\n              jump\t// out\n                /* \"#utility.yul\":6763:6901   */\n            tag_281:\n                /* \"#utility.yul\":6844:6876   */\n              tag_388\n                /* \"#utility.yul\":6870:6875   */\n              dup2\n                /* \"#utility.yul\":6844:6876   */\n              tag_280\n              jump\t// in\n            tag_388:\n                /* \"#utility.yul\":6837:6842   */\n              dup2\n                /* \"#utility.yul\":6834:6877   */\n              eq\n                /* \"#utility.yul\":6824:6895   */\n              tag_389\n              jumpi\n                /* \"#utility.yul\":6891:6892   */\n              0x00\n                /* \"#utility.yul\":6888:6889   */\n              dup1\n                /* \"#utility.yul\":6881:6893   */\n              revert\n                /* \"#utility.yul\":6824:6895   */\n            tag_389:\n                /* \"#utility.yul\":6763:6901   */\n              pop\n              jump\t// out\n                /* \"#utility.yul\":6907:7062   */\n            tag_282:\n                /* \"#utility.yul\":6961:6966   */\n              0x00\n                /* \"#utility.yul\":6999:7005   */\n              dup2\n                /* \"#utility.yul\":6986:7006   */\n              calldataload\n                /* \"#utility.yul\":6977:7006   */\n              swap1\n              pop\n                /* \"#utility.yul\":7015:7056   */\n              tag_391\n                /* \"#utility.yul\":7050:7055   */\n              dup2\n                /* \"#utility.yul\":7015:7056   */\n              tag_281\n              jump\t// in\n            tag_391:\n                /* \"#utility.yul\":6907:7062   */\n              swap3\n              swap2\n              pop\n              pop\n              jump\t// out\n                /* \"#utility.yul\":7068:7413   */\n            tag_62:\n                /* \"#utility.yul\":7135:7141   */\n              0x00\n                /* \"#utility.yul\":7184:7186   */\n              0x20\n                /* \"#utility.yul\":7172:7181   */\n              dup3\n                /* \"#utility.yul\":7163:7170   */\n              dup5\n                /* \"#utility.yul\":7159:7182   */\n              sub\n                /* \"#utility.yul\":7155:7187   */\n              slt\n                /* \"#utility.yul\":7152:7271   */\n              iszero\n              tag_393\n              jumpi\n                /* \"#utility.yul\":7190:7269   */\n              tag_394\n              tag_257\n              jump\t// in\n            tag_394:\n                /* \"#utility.yul\":7152:7271   */\n            tag_393:\n                /* \"#utility.yul\":7310:7311   */\n              0x00\n                /* \"#utility.yul\":7335:7396   */\n              tag_395\n                /* \"#utility.yul\":7388:7395   */\n              dup5\n                /* \"#utility.yul\":7379:7385   */\n              dup3\n                /* \"#utility.yul\":7368:7377   */\n              dup6\n                /* \"#utility.yul\":7364:7386   */\n              add\n                /* \"#utility.yul\":7335:7396   */\n              tag_282\n              jump\t// in\n            tag_395:\n                /* \"#utility.yul\":7325:7396   */\n              swap2\n              pop\n                /* \"#utility.yul\":7281:7406   */\n              pop\n                /* \"#utility.yul\":7068:7413   */\n              swap3\n              swap2\n              pop\n              pop\n              jump\t// out\n                /* \"#utility.yul\":7419:7732   */\n            tag_68:\n                /* \"#utility.yul\":7532:7536   */\n              0x00\n                /* \"#utility.yul\":7570:7572   */\n              0x20\n                /* \"#utility.yul\":7559:7568   */\n              dup3\n                /* \"#utility.yul\":7555:7573   */\n              add\n                /* \"#utility.yul\":7547:7573   */\n              swap1\n              pop\n                /* \"#utility.yul\":7619:7628   */\n              dup2\n                /* \"#utility.yul\":7613:7617   */\n              dup2\n                /* \"#utility.yul\":7609:7629   */\n              sub\n                /* \"#utility.yul\":7605:7606   */\n              0x00\n                /* \"#utility.yul\":7594:7603   */\n              dup4\n                /* \"#utility.yul\":7590:7607   */\n              add\n                /* \"#utility.yul\":7583:7630   */\n              mstore\n                /* \"#utility.yul\":7647:7725   */\n              tag_397\n                /* \"#utility.yul\":7720:7724   */\n              dup2\n                /* \"#utility.yul\":7711:7717   */\n              dup5\n                /* \"#utility.yul\":7647:7725   */\n              tag_272\n              jump\t// in\n            tag_397:\n                /* \"#utility.yul\":7639:7725   */\n              swap1\n              pop\n                /* \"#utility.yul\":7419:7732   */\n              swap3\n              swap2\n              pop\n              pop\n              jump\t// out\n                /* \"#utility.yul\":7738:8212   */\n            tag_80:\n                /* \"#utility.yul\":7806:7812   */\n              0x00\n                /* \"#utility.yul\":7814:7820   */\n              dup1\n                /* \"#utility.yul\":7863:7865   */\n              0x40\n                /* \"#utility.yul\":7851:7860   */\n              dup4\n                /* \"#utility.yul\":7842:7849   */\n              dup6\n                /* \"#utility.yul\":7838:7861   */\n              sub\n                /* \"#utility.yul\":7834:7866   */\n              slt\n                /* \"#utility.yul\":7831:7950   */\n              iszero\n              tag_399\n              jumpi\n                /* \"#utility.yul\":7869:7948   */\n              tag_400\n              tag_257\n              jump\t// in\n            tag_400:\n                /* \"#utility.yul\":7831:7950   */\n            tag_399:\n                /* \"#utility.yul\":7989:7990   */\n              0x00\n                /* \"#utility.yul\":8014:8067   */\n              tag_401\n                /* \"#utility.yul\":8059:8066   */\n              dup6\n                /* \"#utility.yul\":8050:8056   */\n              dup3\n                /* \"#utility.yul\":8039:8048   */\n              dup7\n                /* \"#utility.yul\":8035:8057   */\n              add\n                /* \"#utility.yul\":8014:8067   */\n              tag_262\n              jump\t// in\n            tag_401:\n                /* \"#utility.yul\":8004:8067   */\n              swap3\n              pop\n                /* \"#utility.yul\":7960:8077   */\n              pop\n                /* \"#utility.yul\":8116:8118   */\n              0x20\n                /* \"#utility.yul\":8142:8195   */\n              tag_402\n                /* \"#utility.yul\":8187:8194   */\n              dup6\n                /* \"#utility.yul\":8178:8184   */\n              dup3\n                /* \"#utility.yul\":8167:8176   */\n              dup7\n                /* \"#utility.yul\":8163:8185   */\n              add\n                /* \"#utility.yul\":8142:8195   */\n              tag_262\n              jump\t// in\n            tag_402:\n                /* \"#utility.yul\":8132:8195   */\n              swap2\n              pop\n                /* \"#utility.yul\":8087:8205   */\n              pop\n                /* \"#utility.yul\":7738:8212   */\n              swap3\n              pop\n              swap3\n              swap1\n              pop\n              jump\t// out\n                /* \"#utility.yul\":8218:8352   */\n            tag_283:\n                /* \"#utility.yul\":8305:8311   */\n              0x00\n                /* \"#utility.yul\":8339:8344   */\n              dup2\n                /* \"#utility.yul\":8333:8345   */\n              mload\n                /* \"#utility.yul\":8323:8345   */\n              swap1\n              pop\n                /* \"#utility.yul\":8218:8352   */\n              swap2\n              swap1\n              pop\n              jump\t// out\n                /* \"#utility.yul\":8358:8562   */\n            tag_284:\n                /* \"#utility.yul\":8477:8488   */\n              0x00\n                /* \"#utility.yul\":8511:8517   */\n              dup3\n                /* \"#utility.yul\":8506:8509   */\n              dup3\n                /* \"#utility.yul\":8499:8518   */\n              mstore\n                /* \"#utility.yul\":8551:8555   */\n              0x20\n                /* \"#utility.yul\":8546:8549   */\n              dup3\n                /* \"#utility.yul\":8542:8556   */\n              add\n                /* \"#utility.yul\":8527:8556   */\n              swap1\n              pop\n                /* \"#utility.yul\":8358:8562   */\n              swap3\n              swap2\n              pop\n              pop\n              jump\t// out\n                /* \"#utility.yul\":8568:8720   */\n            tag_285:\n                /* \"#utility.yul\":8655:8659   */\n              0x00\n                /* \"#utility.yul\":8678:8681   */\n              dup2\n                /* \"#utility.yul\":8670:8681   */\n              swap1\n              pop\n                /* \"#utility.yul\":8708:8712   */\n              0x20\n                /* \"#utility.yul\":8703:8706   */\n              dup3\n                /* \"#utility.yul\":8699:8713   */\n              add\n                /* \"#utility.yul\":8691:8713   */\n              swap1\n              pop\n                /* \"#utility.yul\":8568:8720   */\n              swap2\n              swap1\n              pop\n              jump\t// out\n                /* \"#utility.yul\":8726:8834   */\n            tag_286:\n                /* \"#utility.yul\":8803:8827   */\n              tag_407\n                /* \"#utility.yul\":8821:8826   */\n              dup2\n                /* \"#utility.yul\":8803:8827   */\n              tag_265\n              jump\t// in\n            tag_407:\n                /* \"#utility.yul\":8798:8801   */\n              dup3\n                /* \"#utility.yul\":8791:8828   */\n              mstore\n                /* \"#utility.yul\":8726:8834   */\n              pop\n              pop\n              jump\t// out\n                /* \"#utility.yul\":8890:9561   */\n            tag_287:\n                /* \"#utility.yul\":9017:9021   */\n              0x60\n                /* \"#utility.yul\":9012:9015   */\n              dup3\n                /* \"#utility.yul\":9008:9022   */\n              add\n                /* \"#utility.yul\":9105:9109   */\n              0x00\n                /* \"#utility.yul\":9098:9103   */\n              dup3\n                /* \"#utility.yul\":9094:9110   */\n              add\n                /* \"#utility.yul\":9088:9111   */\n              mload\n                /* \"#utility.yul\":9124:9187   */\n              tag_409\n                /* \"#utility.yul\":9181:9185   */\n              0x00\n                /* \"#utility.yul\":9176:9179   */\n              dup6\n                /* \"#utility.yul\":9172:9186   */\n              add\n                /* \"#utility.yul\":9158:9170   */\n              dup3\n                /* \"#utility.yul\":9124:9187   */\n              tag_286\n              jump\t// in\n            tag_409:\n                /* \"#utility.yul\":9032:9197   */\n              pop\n                /* \"#utility.yul\":9279:9283   */\n              0x20\n                /* \"#utility.yul\":9272:9277   */\n              dup3\n                /* \"#utility.yul\":9268:9284   */\n              add\n                /* \"#utility.yul\":9262:9285   */\n              mload\n                /* \"#utility.yul\":9298:9361   */\n              tag_410\n                /* \"#utility.yul\":9355:9359   */\n              0x20\n                /* \"#utility.yul\":9350:9353   */\n              dup6\n                /* \"#utility.yul\":9346:9360   */\n              add\n                /* \"#utility.yul\":9332:9344   */\n              dup3\n                /* \"#utility.yul\":9298:9361   */\n              tag_286\n              jump\t// in\n            tag_410:\n                /* \"#utility.yul\":9207:9371   */\n              pop\n                /* \"#utility.yul\":9462:9466   */\n              0x40\n                /* \"#utility.yul\":9455:9460   */\n              dup3\n                /* \"#utility.yul\":9451:9467   */\n              add\n                /* \"#utility.yul\":9445:9468   */\n              mload\n                /* \"#utility.yul\":9481:9544   */\n              tag_411\n                /* \"#utility.yul\":9538:9542   */\n              0x40\n                /* \"#utility.yul\":9533:9536   */\n              dup6\n                /* \"#utility.yul\":9529:9543   */\n              add\n                /* \"#utility.yul\":9515:9527   */\n              dup3\n                /* \"#utility.yul\":9481:9544   */\n              tag_276\n              jump\t// in\n            tag_411:\n                /* \"#utility.yul\":9381:9554   */\n              pop\n                /* \"#utility.yul\":8986:9561   */\n              pop\n                /* \"#utility.yul\":8890:9561   */\n              pop\n              pop\n              jump\t// out\n                /* \"#utility.yul\":9567:9826   */\n            tag_288:\n                /* \"#utility.yul\":9676:9686   */\n              0x00\n                /* \"#utility.yul\":9697:9783   */\n              tag_413\n                /* \"#utility.yul\":9779:9782   */\n              dup4\n                /* \"#utility.yul\":9771:9777   */\n              dup4\n                /* \"#utility.yul\":9697:9783   */\n              tag_287\n              jump\t// in\n            tag_413:\n                /* \"#utility.yul\":9815:9819   */\n              0x60\n                /* \"#utility.yul\":9810:9813   */\n              dup4\n                /* \"#utility.yul\":9806:9820   */\n              add\n                /* \"#utility.yul\":9792:9820   */\n              swap1\n              pop\n                /* \"#utility.yul\":9567:9826   */\n              swap3\n              swap2\n              pop\n              pop\n              jump\t// out\n                /* \"#utility.yul\":9832:9965   */\n            tag_289:\n                /* \"#utility.yul\":9922:9926   */\n              0x00\n                /* \"#utility.yul\":9954:9958   */\n              0x20\n                /* \"#utility.yul\":9949:9952   */\n              dup3\n                /* \"#utility.yul\":9945:9959   */\n              add\n                /* \"#utility.yul\":9937:9959   */\n              swap1\n              pop\n                /* \"#utility.yul\":9832:9965   */\n              swap2\n              swap1\n              pop\n              jump\t// out\n                /* \"#utility.yul\":10025:10917   */\n            tag_290:\n                /* \"#utility.yul\":10184:10187   */\n              0x00\n                /* \"#utility.yul\":10213:10287   */\n              tag_416\n                /* \"#utility.yul\":10281:10286   */\n              dup3\n                /* \"#utility.yul\":10213:10287   */\n              tag_283\n              jump\t// in\n            tag_416:\n                /* \"#utility.yul\":10303:10409   */\n              tag_417\n                /* \"#utility.yul\":10402:10408   */\n              dup2\n                /* \"#utility.yul\":10397:10400   */\n              dup6\n                /* \"#utility.yul\":10303:10409   */\n              tag_284\n              jump\t// in\n            tag_417:\n                /* \"#utility.yul\":10296:10409   */\n              swap4\n              pop\n                /* \"#utility.yul\":10433:10509   */\n              tag_418\n                /* \"#utility.yul\":10503:10508   */\n              dup4\n                /* \"#utility.yul\":10433:10509   */\n              tag_285\n              jump\t// in\n            tag_418:\n                /* \"#utility.yul\":10532:10539   */\n              dup1\n                /* \"#utility.yul\":10563:10564   */\n              0x00\n                /* \"#utility.yul\":10548:10892   */\n            tag_419:\n                /* \"#utility.yul\":10573:10579   */\n              dup4\n                /* \"#utility.yul\":10570:10571   */\n              dup2\n                /* \"#utility.yul\":10567:10580   */\n              lt\n                /* \"#utility.yul\":10548:10892   */\n              iszero\n              tag_421\n              jumpi\n                /* \"#utility.yul\":10649:10655   */\n              dup2\n                /* \"#utility.yul\":10643:10656   */\n              mload\n                /* \"#utility.yul\":10676:10779   */\n              tag_422\n                /* \"#utility.yul\":10775:10778   */\n              dup9\n                /* \"#utility.yul\":10760:10773   */\n              dup3\n                /* \"#utility.yul\":10676:10779   */\n              tag_288\n              jump\t// in\n            tag_422:\n                /* \"#utility.yul\":10669:10779   */\n              swap8\n              pop\n                /* \"#utility.yul\":10802:10882   */\n              tag_423\n                /* \"#utility.yul\":10875:10881   */\n              dup4\n                /* \"#utility.yul\":10802:10882   */\n              tag_289\n              jump\t// in\n            tag_423:\n                /* \"#utility.yul\":10792:10882   */\n              swap3\n              pop\n                /* \"#utility.yul\":10608:10892   */\n              pop\n                /* \"#utility.yul\":10595:10596   */\n              0x01\n                /* \"#utility.yul\":10592:10593   */\n              dup2\n                /* \"#utility.yul\":10588:10597   */\n              add\n                /* \"#utility.yul\":10583:10597   */\n              swap1\n              pop\n                /* \"#utility.yul\":10548:10892   */\n              jump(tag_419)\n            tag_421:\n                /* \"#utility.yul\":10552:10566   */\n              pop\n                /* \"#utility.yul\":10908:10911   */\n              dup6\n                /* \"#utility.yul\":10901:10911   */\n              swap4\n              pop\n                /* \"#utility.yul\":10189:10917   */\n              pop\n              pop\n              pop\n                /* \"#utility.yul\":10025:10917   */\n              swap3\n              swap2\n              pop\n              pop\n              jump\t// out\n                /* \"#utility.yul\":10923:11376   */\n            tag_91:\n                /* \"#utility.yul\":11106:11110   */\n              0x00\n                /* \"#utility.yul\":11144:11146   */\n              0x20\n                /* \"#utility.yul\":11133:11142   */\n              dup3\n                /* \"#utility.yul\":11129:11147   */\n              add\n                /* \"#utility.yul\":11121:11147   */\n              swap1\n              pop\n                /* \"#utility.yul\":11193:11202   */\n              dup2\n                /* \"#utility.yul\":11187:11191   */\n              dup2\n                /* \"#utility.yul\":11183:11203   */\n              sub\n                /* \"#utility.yul\":11179:11180   */\n              0x00\n                /* \"#utility.yul\":11168:11177   */\n              dup4\n                /* \"#utility.yul\":11164:11181   */\n              add\n                /* \"#utility.yul\":11157:11204   */\n              mstore\n                /* \"#utility.yul\":11221:11369   */\n              tag_425\n                /* \"#utility.yul\":11364:11368   */\n              dup2\n                /* \"#utility.yul\":11355:11361   */\n              dup5\n                /* \"#utility.yul\":11221:11369   */\n              tag_290\n              jump\t// in\n            tag_425:\n                /* \"#utility.yul\":11213:11369   */\n              swap1\n              pop\n                /* \"#utility.yul\":10923:11376   */\n              swap3\n              swap2\n              pop\n              pop\n              jump\t// out\n                /* \"#utility.yul\":11382:11504   */\n            tag_291:\n                /* \"#utility.yul\":11455:11479   */\n              tag_427\n                /* \"#utility.yul\":11473:11478   */\n              dup2\n                /* \"#utility.yul\":11455:11479   */\n              tag_265\n              jump\t// in\n            tag_427:\n                /* \"#utility.yul\":11448:11453   */\n              dup2\n                /* \"#utility.yul\":11445:11480   */\n              eq\n                /* \"#utility.yul\":11435:11498   */\n              tag_428\n              jumpi\n                /* \"#utility.yul\":11494:11495   */\n              0x00\n                /* \"#utility.yul\":11491:11492   */\n              dup1\n                /* \"#utility.yul\":11484:11496   */\n              revert\n                /* \"#utility.yul\":11435:11498   */\n            tag_428:\n                /* \"#utility.yul\":11382:11504   */\n              pop\n              jump\t// out\n                /* \"#utility.yul\":11510:11649   */\n            tag_292:\n                /* \"#utility.yul\":11556:11561   */\n              0x00\n                /* \"#utility.yul\":11594:11600   */\n              dup2\n                /* \"#utility.yul\":11581:11601   */\n              calldataload\n                /* \"#utility.yul\":11572:11601   */\n              swap1\n              pop\n                /* \"#utility.yul\":11610:11643   */\n              tag_430\n                /* \"#utility.yul\":11637:11642   */\n              dup2\n                /* \"#utility.yul\":11610:11643   */\n              tag_291\n              jump\t// in\n            tag_430:\n                /* \"#utility.yul\":11510:11649   */\n              swap3\n              swap2\n              pop\n              pop\n              jump\t// out\n                /* \"#utility.yul\":11655:11984   */\n            tag_110:\n                /* \"#utility.yul\":11714:11720   */\n              0x00\n                /* \"#utility.yul\":11763:11765   */\n              0x20\n                /* \"#utility.yul\":11751:11760   */\n              dup3\n                /* \"#utility.yul\":11742:11749   */\n              dup5\n                /* \"#utility.yul\":11738:11761   */\n              sub\n                /* \"#utility.yul\":11734:11766   */\n              slt\n                /* \"#utility.yul\":11731:11850   */\n              iszero\n              tag_432\n              jumpi\n                /* \"#utility.yul\":11769:11848   */\n              tag_433\n              tag_257\n              jump\t// in\n            tag_433:\n                /* \"#utility.yul\":11731:11850   */\n            tag_432:\n                /* \"#utility.yul\":11889:11890   */\n              0x00\n                /* \"#utility.yul\":11914:11967   */\n              tag_434\n                /* \"#utility.yul\":11959:11966   */\n              dup5\n                /* \"#utility.yul\":11950:11956   */\n              dup3\n                /* \"#utility.yul\":11939:11948   */\n              dup6\n                /* \"#utility.yul\":11935:11957   */\n              add\n                /* \"#utility.yul\":11914:11967   */\n              tag_292\n              jump\t// in\n            tag_434:\n                /* \"#utility.yul\":11904:11967   */\n              swap2\n              pop\n                /* \"#utility.yul\":11860:11977   */\n              pop\n                /* \"#utility.yul\":11655:11984   */\n              swap3\n              swap2\n              pop\n              pop\n              jump\t// out\n                /* \"#utility.yul\":11990:12432   */\n            tag_113:\n                /* \"#utility.yul\":12139:12143   */\n              0x00\n                /* \"#utility.yul\":12177:12179   */\n              0x60\n                /* \"#utility.yul\":12166:12175   */\n              dup3\n                /* \"#utility.yul\":12162:12180   */\n              add\n                /* \"#utility.yul\":12154:12180   */\n              swap1\n              pop\n                /* \"#utility.yul\":12190:12261   */\n              tag_436\n                /* \"#utility.yul\":12258:12259   */\n              0x00\n                /* \"#utility.yul\":12247:12256   */\n              dup4\n                /* \"#utility.yul\":12243:12260   */\n              add\n                /* \"#utility.yul\":12234:12240   */\n              dup7\n                /* \"#utility.yul\":12190:12261   */\n              tag_266\n              jump\t// in\n            tag_436:\n                /* \"#utility.yul\":12271:12343   */\n              tag_437\n                /* \"#utility.yul\":12339:12341   */\n              0x20\n                /* \"#utility.yul\":12328:12337   */\n              dup4\n                /* \"#utility.yul\":12324:12342   */\n              add\n                /* \"#utility.yul\":12315:12321   */\n              dup6\n                /* \"#utility.yul\":12271:12343   */\n              tag_266\n              jump\t// in\n            tag_437:\n                /* \"#utility.yul\":12353:12425   */\n              tag_438\n                /* \"#utility.yul\":12421:12423   */\n              0x40\n                /* \"#utility.yul\":12410:12419   */\n              dup4\n                /* \"#utility.yul\":12406:12424   */\n              add\n                /* \"#utility.yul\":12397:12403   */\n              dup5\n                /* \"#utility.yul\":12353:12425   */\n              tag_267\n              jump\t// in\n            tag_438:\n                /* \"#utility.yul\":11990:12432   */\n              swap5\n              swap4\n              pop\n              pop\n              pop\n              pop\n              jump\t// out\n                /* \"#utility.yul\":12438:12811   */\n            tag_118:\n                /* \"#utility.yul\":12581:12585   */\n              0x00\n                /* \"#utility.yul\":12619:12621   */\n              0x20\n                /* \"#utility.yul\":12608:12617   */\n              dup3\n                /* \"#utility.yul\":12604:12622   */\n              add\n                /* \"#utility.yul\":12596:12622   */\n              swap1\n              pop\n                /* \"#utility.yul\":12668:12677   */\n              dup2\n                /* \"#utility.yul\":12662:12666   */\n              dup2\n                /* \"#utility.yul\":12658:12678   */\n              sub\n                /* \"#utility.yul\":12654:12655   */\n              0x00\n                /* \"#utility.yul\":12643:12652   */\n              dup4\n                /* \"#utility.yul\":12639:12656   */\n              add\n                /* \"#utility.yul\":12632:12679   */\n              mstore\n                /* \"#utility.yul\":12696:12804   */\n              tag_440\n                /* \"#utility.yul\":12799:12803   */\n              dup2\n                /* \"#utility.yul\":12790:12796   */\n              dup5\n                /* \"#utility.yul\":12696:12804   */\n              tag_279\n              jump\t// in\n            tag_440:\n                /* \"#utility.yul\":12688:12804   */\n              swap1\n              pop\n                /* \"#utility.yul\":12438:12811   */\n              swap3\n              swap2\n              pop\n              pop\n              jump\t// out\n                /* \"#utility.yul\":12817:12997   */\n            tag_293:\n                /* \"#utility.yul\":12865:12942   */\n              0x4e487b7100000000000000000000000000000000000000000000000000000000\n                /* \"#utility.yul\":12862:12863   */\n              0x00\n                /* \"#utility.yul\":12855:12943   */\n              mstore\n                /* \"#utility.yul\":12962:12966   */\n              0x22\n                /* \"#utility.yul\":12959:12960   */\n              0x04\n                /* \"#utility.yul\":12952:12967   */\n              mstore\n                /* \"#utility.yul\":12986:12990   */\n              0x24\n                /* \"#utility.yul\":12983:12984   */\n              0x00\n                /* \"#utility.yul\":12976:12991   */\n              revert\n                /* \"#utility.yul\":13003:13323   */\n            tag_137:\n                /* \"#utility.yul\":13047:13053   */\n              0x00\n                /* \"#utility.yul\":13084:13085   */\n              0x02\n                /* \"#utility.yul\":13078:13082   */\n              dup3\n                /* \"#utility.yul\":13074:13086   */\n              div\n                /* \"#utility.yul\":13064:13086   */\n              swap1\n              pop\n                /* \"#utility.yul\":13131:13132   */\n              0x01\n                /* \"#utility.yul\":13125:13129   */\n              dup3\n                /* \"#utility.yul\":13121:13133   */\n              and\n                /* \"#utility.yul\":13152:13170   */\n              dup1\n                /* \"#utility.yul\":13142:13223   */\n              tag_443\n              jumpi\n                /* \"#utility.yul\":13208:13212   */\n              0x7f\n                /* \"#utility.yul\":13200:13206   */\n              dup3\n                /* \"#utility.yul\":13196:13213   */\n              and\n                /* \"#utility.yul\":13186:13213   */\n              swap2\n              pop\n                /* \"#utility.yul\":13142:13223   */\n            tag_443:\n                /* \"#utility.yul\":13270:13272   */\n              0x20\n                /* \"#utility.yul\":13262:13268   */\n              dup3\n                /* \"#utility.yul\":13259:13273   */\n              lt\n                /* \"#utility.yul\":13239:13257   */\n              dup2\n                /* \"#utility.yul\":13236:13274   */\n              sub\n                /* \"#utility.yul\":13233:13317   */\n              tag_444\n              jumpi\n                /* \"#utility.yul\":13289:13307   */\n              tag_445\n              tag_293\n              jump\t// in\n            tag_445:\n                /* \"#utility.yul\":13233:13317   */\n            tag_444:\n                /* \"#utility.yul\":13054:13323   */\n              pop\n                /* \"#utility.yul\":13003:13323   */\n              swap2\n              swap1\n              pop\n              jump\t// out\n                /* \"#utility.yul\":13329:13509   */\n            tag_294:\n                /* \"#utility.yul\":13377:13454   */\n              0x4e487b7100000000000000000000000000000000000000000000000000000000\n                /* \"#utility.yul\":13374:13375   */\n              0x00\n                /* \"#utility.yul\":13367:13455   */\n              mstore\n                /* \"#utility.yul\":13474:13478   */\n              0x11\n                /* \"#utility.yul\":13471:13472   */\n              0x04\n                /* \"#utility.yul\":13464:13479   */\n              mstore\n                /* \"#utility.yul\":13498:13502   */\n              0x24\n                /* \"#utility.yul\":13495:13496   */\n              0x00\n                /* \"#utility.yul\":13488:13503   */\n              revert\n                /* \"#utility.yul\":13515:13706   */\n            tag_173:\n                /* \"#utility.yul\":13555:13559   */\n              0x00\n                /* \"#utility.yul\":13575:13595   */\n              tag_448\n                /* \"#utility.yul\":13593:13594   */\n              dup3\n                /* \"#utility.yul\":13575:13595   */\n              tag_265\n              jump\t// in\n            tag_448:\n                /* \"#utility.yul\":13570:13595   */\n              swap2\n              pop\n                /* \"#utility.yul\":13609:13629   */\n              tag_449\n                /* \"#utility.yul\":13627:13628   */\n              dup4\n                /* \"#utility.yul\":13609:13629   */\n              tag_265\n              jump\t// in\n            tag_449:\n                /* \"#utility.yul\":13604:13629   */\n              swap3\n              pop\n                /* \"#utility.yul\":13648:13649   */\n              dup3\n                /* \"#utility.yul\":13645:13646   */\n              dup3\n                /* \"#utility.yul\":13642:13650   */\n              lt\n                /* \"#utility.yul\":13639:13673   */\n              iszero\n              tag_450\n              jumpi\n                /* \"#utility.yul\":13653:13671   */\n              tag_451\n              tag_294\n              jump\t// in\n            tag_451:\n                /* \"#utility.yul\":13639:13673   */\n            tag_450:\n                /* \"#utility.yul\":13698:13699   */\n              dup3\n                /* \"#utility.yul\":13695:13696   */\n              dup3\n                /* \"#utility.yul\":13691:13700   */\n              sub\n                /* \"#utility.yul\":13683:13700   */\n              swap1\n              pop\n                /* \"#utility.yul\":13515:13706   */\n              swap3\n              swap2\n              pop\n              pop\n              jump\t// out\n                /* \"#utility.yul\":13712:13892   */\n            tag_176:\n                /* \"#utility.yul\":13760:13837   */\n              0x4e487b7100000000000000000000000000000000000000000000000000000000\n                /* \"#utility.yul\":13757:13758   */\n              0x00\n                /* \"#utility.yul\":13750:13838   */\n              mstore\n                /* \"#utility.yul\":13857:13861   */\n              0x41\n                /* \"#utility.yul\":13854:13855   */\n              0x04\n                /* \"#utility.yul\":13847:13862   */\n              mstore\n                /* \"#utility.yul\":13881:13885   */\n              0x24\n                /* \"#utility.yul\":13878:13879   */\n              0x00\n                /* \"#utility.yul\":13871:13886   */\n              revert\n                /* \"#utility.yul\":13898:14078   */\n            tag_184:\n                /* \"#utility.yul\":13946:14023   */\n              0x4e487b7100000000000000000000000000000000000000000000000000000000\n                /* \"#utility.yul\":13943:13944   */\n              0x00\n                /* \"#utility.yul\":13936:14024   */\n              mstore\n                /* \"#utility.yul\":14043:14047   */\n              0x32\n                /* \"#utility.yul\":14040:14041   */\n              0x04\n                /* \"#utility.yul\":14033:14048   */\n              mstore\n                /* \"#utility.yul\":14067:14071   */\n              0x24\n                /* \"#utility.yul\":14064:14065   */\n              0x00\n                /* \"#utility.yul\":14057:14072   */\n              revert\n                /* \"#utility.yul\":14084:14317   */\n            tag_199:\n                /* \"#utility.yul\":14123:14126   */\n              0x00\n                /* \"#utility.yul\":14146:14170   */\n              tag_455\n                /* \"#utility.yul\":14164:14169   */\n              dup3\n                /* \"#utility.yul\":14146:14170   */\n              tag_265\n              jump\t// in\n            tag_455:\n                /* \"#utility.yul\":14137:14170   */\n              swap2\n              pop\n                /* \"#utility.yul\":14192:14258   */\n              0xffffffffffffffffffffffffffffffffffffffffffffffffffffffffffffffff\n                /* \"#utility.yul\":14185:14190   */\n              dup3\n                /* \"#utility.yul\":14182:14259   */\n              sub\n                /* \"#utility.yul\":14179:14282   */\n              tag_456\n              jumpi\n                /* \"#utility.yul\":14262:14280   */\n              tag_457\n              tag_294\n              jump\t// in\n            tag_457:\n                /* \"#utility.yul\":14179:14282   */\n            tag_456:\n                /* \"#utility.yul\":14309:14310   */\n              0x01\n                /* \"#utility.yul\":14302:14307   */\n              dup3\n                /* \"#utility.yul\":14298:14311   */\n              add\n                /* \"#utility.yul\":14291:14311   */\n              swap1\n              pop\n                /* \"#utility.yul\":14084:14317   */\n              swap2\n              swap1\n              pop\n              jump\t// out\n                /* \"#utility.yul\":14323:14486   */\n            tag_295:\n                /* \"#utility.yul\":14440:14451   */\n              0x00\n                /* \"#utility.yul\":14477:14480   */\n              dup2\n                /* \"#utility.yul\":14462:14480   */\n              swap1\n              pop\n                /* \"#utility.yul\":14323:14486   */\n              swap3\n              swap2\n              pop\n              pop\n              jump\t// out\n                /* \"#utility.yul\":14492:14608   */\n            tag_296:\n                /* \"#utility.yul\":14577:14601   */\n              tag_460\n                /* \"#utility.yul\":14595:14600   */\n              dup2\n                /* \"#utility.yul\":14577:14601   */\n              tag_260\n              jump\t// in\n            tag_460:\n                /* \"#utility.yul\":14572:14575   */\n              dup3\n                /* \"#utility.yul\":14565:14602   */\n              mstore\n                /* \"#utility.yul\":14492:14608   */\n              pop\n              pop\n              jump\t// out\n                /* \"#utility.yul\":14614:14809   */\n            tag_297:\n                /* \"#utility.yul\":14691:14701   */\n              0x00\n                /* \"#utility.yul\":14712:14766   */\n              tag_462\n                /* \"#utility.yul\":14762:14765   */\n              dup4\n                /* \"#utility.yul\":14754:14760   */\n              dup4\n                /* \"#utility.yul\":14712:14766   */\n              tag_296\n              jump\t// in\n            tag_462:\n                /* \"#utility.yul\":14798:14802   */\n              0x20\n                /* \"#utility.yul\":14793:14796   */\n              dup4\n                /* \"#utility.yul\":14789:14803   */\n              add\n                /* \"#utility.yul\":14775:14803   */\n              swap1\n              pop\n                /* \"#utility.yul\":14614:14809   */\n              swap3\n              swap2\n              pop\n              pop\n              jump\t// out\n                /* \"#utility.yul\":14845:15621   */\n            tag_298:\n                /* \"#utility.yul\":14982:14985   */\n              0x00\n                /* \"#utility.yul\":15011:15065   */\n              tag_464\n                /* \"#utility.yul\":15059:15064   */\n              dup3\n                /* \"#utility.yul\":15011:15065   */\n              tag_273\n              jump\t// in\n            tag_464:\n                /* \"#utility.yul\":15081:15185   */\n              tag_465\n                /* \"#utility.yul\":15178:15184   */\n              dup2\n                /* \"#utility.yul\":15173:15176   */\n              dup6\n                /* \"#utility.yul\":15081:15185   */\n              tag_295\n              jump\t// in\n            tag_465:\n                /* \"#utility.yul\":15074:15185   */\n              swap4\n              pop\n                /* \"#utility.yul\":15209:15265   */\n              tag_466\n                /* \"#utility.yul\":15259:15264   */\n              dup4\n                /* \"#utility.yul\":15209:15265   */\n              tag_275\n              jump\t// in\n            tag_466:\n                /* \"#utility.yul\":15288:15295   */\n              dup1\n                /* \"#utility.yul\":15319:15320   */\n              0x00\n                /* \"#utility.yul\":15304:15596   */\n            tag_467:\n                /* \"#utility.yul\":15329:15335   */\n              dup4\n                /* \"#utility.yul\":15326:15327   */\n              dup2\n                /* \"#utility.yul\":15323:15336   */\n              lt\n                /* \"#utility.yul\":15304:15596   */\n              iszero\n              tag_469\n              jumpi\n                /* \"#utility.yul\":15405:15411   */\n              dup2\n                /* \"#utility.yul\":15399:15412   */\n              mload\n                /* \"#utility.yul\":15432:15503   */\n              tag_470\n                /* \"#utility.yul\":15499:15502   */\n              dup9\n                /* \"#utility.yul\":15484:15497   */\n              dup3\n                /* \"#utility.yul\":15432:15503   */\n              tag_297\n              jump\t// in\n            tag_470:\n                /* \"#utility.yul\":15425:15503   */\n              swap8\n              pop\n                /* \"#utility.yul\":15526:15586   */\n              tag_471\n                /* \"#utility.yul\":15579:15585   */\n              dup4\n                /* \"#utility.yul\":15526:15586   */\n              tag_278\n              jump\t// in\n            tag_471:\n                /* \"#utility.yul\":15516:15586   */\n              swap3\n              pop\n                /* \"#utility.yul\":15364:15596   */\n              pop\n                /* \"#utility.yul\":15351:15352   */\n              0x01\n                /* \"#utility.yul\":15348:15349   */\n              dup2\n                /* \"#utility.yul\":15344:15353   */\n              add\n                /* \"#utility.yul\":15339:15353   */\n              swap1\n              pop\n                /* \"#utility.yul\":15304:15596   */\n              jump(tag_467)\n            tag_469:\n                /* \"#utility.yul\":15308:15322   */\n              pop\n                /* \"#utility.yul\":15612:15615   */\n              dup6\n                /* \"#utility.yul\":15605:15615   */\n              swap4\n              pop\n                /* \"#utility.yul\":14987:15621   */\n              pop\n              pop\n              pop\n                /* \"#utility.yul\":14845:15621   */\n              swap3\n              swap2\n              pop\n              pop\n              jump\t// out\n                /* \"#utility.yul\":15627:15962   */\n            tag_202:\n                /* \"#utility.yul\":15789:15792   */\n              0x00\n                /* \"#utility.yul\":15811:15936   */\n              tag_473\n                /* \"#utility.yul\":15932:15935   */\n              dup3\n                /* \"#utility.yul\":15923:15929   */\n              dup5\n                /* \"#utility.yul\":15811:15936   */\n              tag_298\n              jump\t// in\n            tag_473:\n                /* \"#utility.yul\":15804:15936   */\n              swap2\n              pop\n                /* \"#utility.yul\":15953:15956   */\n              dup2\n                /* \"#utility.yul\":15946:15956   */\n              swap1\n              pop\n                /* \"#utility.yul\":15627:15962   */\n              swap3\n              swap2\n              pop\n              pop\n              jump\t// out\n                /* \"#utility.yul\":15968:16079   */\n            tag_299:\n                /* \"#utility.yul\":16032:16038   */\n              0x00\n                /* \"#utility.yul\":16066:16071   */\n              dup2\n                /* \"#utility.yul\":16060:16072   */\n              sload\n                /* \"#utility.yul\":16050:16072   */\n              swap1\n              pop\n                /* \"#utility.yul\":15968:16079   */\n              swap2\n              swap1\n              pop\n              jump\t// out\n                /* \"#utility.yul\":16085:16241   */\n            tag_300:\n                /* \"#utility.yul\":16149:16153   */\n              0x00\n                /* \"#utility.yul\":16172:16175   */\n              dup2\n                /* \"#utility.yul\":16164:16175   */\n              swap1\n              pop\n                /* \"#utility.yul\":16195:16198   */\n              dup2\n                /* \"#utility.yul\":16192:16193   */\n              0x00\n                /* \"#utility.yul\":16185:16199   */\n              mstore\n                /* \"#utility.yul\":16229:16233   */\n              0x20\n                /* \"#utility.yul\":16226:16227   */\n              0x00\n                /* \"#utility.yul\":16216:16234   */\n              keccak256\n                /* \"#utility.yul\":16208:16234   */\n              swap1\n              pop\n                /* \"#utility.yul\":16085:16241   */\n              swap2\n              swap1\n              pop\n              jump\t// out\n                /* \"#utility.yul\":16247:16349   */\n            tag_301:\n                /* \"#utility.yul\":16289:16297   */\n              0x00\n                /* \"#utility.yul\":16336:16341   */\n              dup2\n                /* \"#utility.yul\":16333:16334   */\n              0x00\n                /* \"#utility.yul\":16329:16342   */\n              shr\n                /* \"#utility.yul\":16308:16342   */\n              swap1\n              pop\n                /* \"#utility.yul\":16247:16349   */\n              swap2\n              swap1\n              pop\n              jump\t// out\n                /* \"#utility.yul\":16355:16494   */\n            tag_302:\n                /* \"#utility.yul\":16405:16412   */\n              0x00\n                /* \"#utility.yul\":16445:16487   */\n              0xffffffffffffffffffffffffffffffffffffffff\n                /* \"#utility.yul\":16438:16443   */\n              dup3\n                /* \"#utility.yul\":16434:16488   */\n              and\n                /* \"#utility.yul\":16423:16488   */\n              swap1\n              pop\n                /* \"#utility.yul\":16355:16494   */\n              swap2\n              swap1\n              pop\n              jump\t// out\n                /* \"#utility.yul\":16500:16666   */\n            tag_303:\n                /* \"#utility.yul\":16569:16574   */\n              0x00\n                /* \"#utility.yul\":16594:16660   */\n              tag_479\n                /* \"#utility.yul\":16625:16659   */\n              tag_480\n                /* \"#utility.yul\":16648:16658   */\n              dup4\n                /* \"#utility.yul\":16625:16659   */\n              tag_301\n              jump\t// in\n            tag_480:\n                /* \"#utility.yul\":16594:16660   */\n              tag_302\n              jump\t// in\n            tag_479:\n                /* \"#utility.yul\":16585:16660   */\n              swap1\n              pop\n                /* \"#utility.yul\":16500:16666   */\n              swap2\n              swap1\n              pop\n              jump\t// out\n                /* \"#utility.yul\":16672:16816   */\n            tag_304:\n                /* \"#utility.yul\":16727:16732   */\n              0x00\n                /* \"#utility.yul\":16752:16809   */\n              tag_482\n                /* \"#utility.yul\":16803:16807   */\n              dup3\n                /* \"#utility.yul\":16797:16808   */\n              sload\n                /* \"#utility.yul\":16752:16809   */\n              tag_303\n              jump\t// in\n            tag_482:\n                /* \"#utility.yul\":16743:16809   */\n              swap1\n              pop\n                /* \"#utility.yul\":16672:16816   */\n              swap2\n              swap1\n              pop\n              jump\t// out\n                /* \"#utility.yul\":16822:16932   */\n            tag_305:\n                /* \"#utility.yul\":16889:16893   */\n              0x00\n                /* \"#utility.yul\":16921:16925   */\n              0x01\n                /* \"#utility.yul\":16916:16919   */\n              dup3\n                /* \"#utility.yul\":16912:16926   */\n              add\n                /* \"#utility.yul\":16904:16926   */\n              swap1\n              pop\n                /* \"#utility.yul\":16822:16932   */\n              swap2\n              swap1\n              pop\n              jump\t// out\n                /* \"#utility.yul\":16968:17763   */\n            tag_306:\n                /* \"#utility.yul\":17102:17105   */\n              0x00\n                /* \"#utility.yul\":17131:17182   */\n              tag_485\n                /* \"#utility.yul\":17176:17181   */\n              dup3\n                /* \"#utility.yul\":17131:17182   */\n              tag_299\n              jump\t// in\n            tag_485:\n                /* \"#utility.yul\":17198:17302   */\n              tag_486\n                /* \"#utility.yul\":17295:17301   */\n              dup2\n                /* \"#utility.yul\":17290:17293   */\n              dup6\n                /* \"#utility.yul\":17198:17302   */\n              tag_295\n              jump\t// in\n            tag_486:\n                /* \"#utility.yul\":17191:17302   */\n              swap4\n              pop\n                /* \"#utility.yul\":17326:17379   */\n              tag_487\n                /* \"#utility.yul\":17373:17378   */\n              dup4\n                /* \"#utility.yul\":17326:17379   */\n              tag_300\n              jump\t// in\n            tag_487:\n                /* \"#utility.yul\":17402:17409   */\n              dup1\n                /* \"#utility.yul\":17433:17434   */\n              0x00\n                /* \"#utility.yul\":17418:17738   */\n            tag_488:\n                /* \"#utility.yul\":17443:17449   */\n              dup4\n                /* \"#utility.yul\":17440:17441   */\n              dup2\n                /* \"#utility.yul\":17437:17450   */\n              lt\n                /* \"#utility.yul\":17418:17738   */\n              iszero\n              tag_490\n              jumpi\n                /* \"#utility.yul\":17513:17557   */\n              tag_491\n                /* \"#utility.yul\":17550:17556   */\n              dup3\n                /* \"#utility.yul\":17513:17557   */\n              tag_304\n              jump\t// in\n            tag_491:\n                /* \"#utility.yul\":17577:17648   */\n              tag_492\n                /* \"#utility.yul\":17644:17647   */\n              dup9\n                /* \"#utility.yul\":17629:17642   */\n              dup3\n                /* \"#utility.yul\":17577:17648   */\n              tag_297\n              jump\t// in\n            tag_492:\n                /* \"#utility.yul\":17570:17648   */\n              swap8\n              pop\n                /* \"#utility.yul\":17671:17728   */\n              tag_493\n                /* \"#utility.yul\":17721:17727   */\n              dup4\n                /* \"#utility.yul\":17671:17728   */\n              tag_305\n              jump\t// in\n            tag_493:\n                /* \"#utility.yul\":17661:17728   */\n              swap3\n              pop\n                /* \"#utility.yul\":17478:17738   */\n              pop\n                /* \"#utility.yul\":17465:17466   */\n              0x01\n                /* \"#utility.yul\":17462:17463   */\n              dup2\n                /* \"#utility.yul\":17458:17467   */\n              add\n                /* \"#utility.yul\":17453:17467   */\n              swap1\n              pop\n                /* \"#utility.yul\":17418:17738   */\n              jump(tag_488)\n            tag_490:\n                /* \"#utility.yul\":17422:17436   */\n              pop\n                /* \"#utility.yul\":17754:17757   */\n              dup6\n                /* \"#utility.yul\":17747:17757   */\n              swap4\n              pop\n                /* \"#utility.yul\":17107:17763   */\n              pop\n              pop\n              pop\n                /* \"#utility.yul\":16968:17763   */\n              swap3\n              swap2\n              pop\n              pop\n              jump\t// out\n                /* \"#utility.yul\":17769:18098   */\n            tag_204:\n                /* \"#utility.yul\":17928:17931   */\n              0x00\n                /* \"#utility.yul\":17950:18072   */\n              tag_495\n                /* \"#utility.yul\":18068:18071   */\n              dup3\n                /* \"#utility.yul\":18059:18065   */\n              dup5\n                /* \"#utility.yul\":17950:18072   */\n              tag_306\n              jump\t// in\n            tag_495:\n                /* \"#utility.yul\":17943:18072   */\n              swap2\n              pop\n                /* \"#utility.yul\":18089:18092   */\n              dup2\n                /* \"#utility.yul\":18082:18092   */\n              swap1\n              pop\n                /* \"#utility.yul\":17769:18098   */\n              swap3\n              swap2\n              pop\n              pop\n              jump\t// out\n                /* \"#utility.yul\":18104:18190   */\n            tag_307:\n                /* \"#utility.yul\":18139:18146   */\n              0x00\n                /* \"#utility.yul\":18179:18183   */\n              0xff\n                /* \"#utility.yul\":18172:18177   */\n              dup3\n                /* \"#utility.yul\":18168:18184   */\n              and\n                /* \"#utility.yul\":18157:18184   */\n              swap1\n              pop\n                /* \"#utility.yul\":18104:18190   */\n              swap2\n              swap1\n              pop\n              jump\t// out\n                /* \"#utility.yul\":18196:18433   */\n            tag_221:\n                /* \"#utility.yul\":18234:18237   */\n              0x00\n                /* \"#utility.yul\":18253:18271   */\n              tag_498\n                /* \"#utility.yul\":18269:18270   */\n              dup3\n                /* \"#utility.yul\":18253:18271   */\n              tag_307\n              jump\t// in\n            tag_498:\n                /* \"#utility.yul\":18248:18271   */\n              swap2\n              pop\n                /* \"#utility.yul\":18285:18303   */\n              tag_499\n                /* \"#utility.yul\":18301:18302   */\n              dup4\n                /* \"#utility.yul\":18285:18303   */\n              tag_307\n              jump\t// in\n            tag_499:\n                /* \"#utility.yul\":18280:18303   */\n              swap3\n              pop\n                /* \"#utility.yul\":18375:18376   */\n              dup3\n                /* \"#utility.yul\":18369:18373   */\n              0xff\n                /* \"#utility.yul\":18365:18377   */\n              sub\n                /* \"#utility.yul\":18362:18363   */\n              dup3\n                /* \"#utility.yul\":18359:18378   */\n              gt\n                /* \"#utility.yul\":18356:18401   */\n              iszero\n              tag_500\n              jumpi\n                /* \"#utility.yul\":18381:18399   */\n              tag_501\n              tag_294\n              jump\t// in\n            tag_501:\n                /* \"#utility.yul\":18356:18401   */\n            tag_500:\n                /* \"#utility.yul\":18425:18426   */\n              dup3\n                /* \"#utility.yul\":18422:18423   */\n              dup3\n                /* \"#utility.yul\":18418:18427   */\n              add\n                /* \"#utility.yul\":18411:18427   */\n              swap1\n              pop\n                /* \"#utility.yul\":18196:18433   */\n              swap3\n              swap2\n              pop\n              pop\n              jump\t// out\n                /* \"#utility.yul\":18439:18787   */\n            tag_224:\n                /* \"#utility.yul\":18479:18486   */\n              0x00\n                /* \"#utility.yul\":18502:18522   */\n              tag_503\n                /* \"#utility.yul\":18520:18521   */\n              dup3\n                /* \"#utility.yul\":18502:18522   */\n              tag_265\n              jump\t// in\n            tag_503:\n                /* \"#utility.yul\":18497:18522   */\n              swap2\n              pop\n                /* \"#utility.yul\":18536:18556   */\n              tag_504\n                /* \"#utility.yul\":18554:18555   */\n              dup4\n                /* \"#utility.yul\":18536:18556   */\n              tag_265\n              jump\t// in\n            tag_504:\n                /* \"#utility.yul\":18531:18556   */\n              swap3\n              pop\n                /* \"#utility.yul\":18724:18725   */\n              dup2\n                /* \"#utility.yul\":18656:18722   */\n              0xffffffffffffffffffffffffffffffffffffffffffffffffffffffffffffffff\n                /* \"#utility.yul\":18652:18726   */\n              div\n                /* \"#utility.yul\":18649:18650   */\n              dup4\n                /* \"#utility.yul\":18646:18727   */\n              gt\n                /* \"#utility.yul\":18641:18642   */\n              dup3\n                /* \"#utility.yul\":18634:18643   */\n              iszero\n                /* \"#utility.yul\":18627:18644   */\n              iszero\n                /* \"#utility.yul\":18623:18728   */\n              and\n                /* \"#utility.yul\":18620:18751   */\n              iszero\n              tag_505\n              jumpi\n                /* \"#utility.yul\":18731:18749   */\n              tag_506\n              tag_294\n              jump\t// in\n            tag_506:\n                /* \"#utility.yul\":18620:18751   */\n            tag_505:\n                /* \"#utility.yul\":18779:18780   */\n              dup3\n                /* \"#utility.yul\":18776:18777   */\n              dup3\n                /* \"#utility.yul\":18772:18781   */\n              mul\n                /* \"#utility.yul\":18761:18781   */\n              swap1\n              pop\n                /* \"#utility.yul\":18439:18787   */\n              swap3\n              swap2\n              pop\n              pop\n              jump\t// out\n                /* \"#utility.yul\":18793:18970   */\n            tag_308:\n                /* \"#utility.yul\":18933:18962   */\n              0x796f752063616e27742062757920796f7572206f776e20646174610000000000\n                /* \"#utility.yul\":18929:18930   */\n              0x00\n                /* \"#utility.yul\":18921:18927   */\n              dup3\n                /* \"#utility.yul\":18917:18931   */\n              add\n                /* \"#utility.yul\":18910:18963   */\n              mstore\n                /* \"#utility.yul\":18793:18970   */\n              pop\n              jump\t// out\n                /* \"#utility.yul\":18976:19342   */\n            tag_309:\n                /* \"#utility.yul\":19118:19121   */\n              0x00\n                /* \"#utility.yul\":19139:19206   */\n              tag_509\n                /* \"#utility.yul\":19203:19205   */\n              0x1b\n                /* \"#utility.yul\":19198:19201   */\n              dup4\n                /* \"#utility.yul\":19139:19206   */\n              tag_269\n              jump\t// in\n            tag_509:\n                /* \"#utility.yul\":19132:19206   */\n              swap2\n              pop\n                /* \"#utility.yul\":19215:19308   */\n              tag_510\n                /* \"#utility.yul\":19304:19307   */\n              dup3\n                /* \"#utility.yul\":19215:19308   */\n              tag_308\n              jump\t// in\n            tag_510:\n                /* \"#utility.yul\":19333:19335   */\n              0x20\n                /* \"#utility.yul\":19328:19331   */\n              dup3\n                /* \"#utility.yul\":19324:19336   */\n              add\n                /* \"#utility.yul\":19317:19336   */\n              swap1\n              pop\n                /* \"#utility.yul\":18976:19342   */\n              swap2\n              swap1\n              pop\n              jump\t// out\n                /* \"#utility.yul\":19348:19767   */\n            tag_236:\n                /* \"#utility.yul\":19514:19518   */\n              0x00\n                /* \"#utility.yul\":19552:19554   */\n              0x20\n                /* \"#utility.yul\":19541:19550   */\n              dup3\n                /* \"#utility.yul\":19537:19555   */\n              add\n                /* \"#utility.yul\":19529:19555   */\n              swap1\n              pop\n                /* \"#utility.yul\":19601:19610   */\n              dup2\n                /* \"#utility.yul\":19595:19599   */\n              dup2\n                /* \"#utility.yul\":19591:19611   */\n              sub\n                /* \"#utility.yul\":19587:19588   */\n              0x00\n                /* \"#utility.yul\":19576:19585   */\n              dup4\n                /* \"#utility.yul\":19572:19589   */\n              add\n                /* \"#utility.yul\":19565:19612   */\n              mstore\n                /* \"#utility.yul\":19629:19760   */\n              tag_512\n                /* \"#utility.yul\":19755:19759   */\n              dup2\n                /* \"#utility.yul\":19629:19760   */\n              tag_309\n              jump\t// in\n            tag_512:\n                /* \"#utility.yul\":19621:19760   */\n              swap1\n              pop\n                /* \"#utility.yul\":19348:19767   */\n              swap2\n              swap1\n              pop\n              jump\t// out\n                /* \"#utility.yul\":19773:20000   */\n            tag_310:\n                /* \"#utility.yul\":19913:19947   */\n              0x796f752063616e277420636f6e7472696275746520746f20616e20656e646564\n                /* \"#utility.yul\":19909:19910   */\n              0x00\n                /* \"#utility.yul\":19901:19907   */\n              dup3\n                /* \"#utility.yul\":19897:19911   */\n              add\n                /* \"#utility.yul\":19890:19948   */\n              mstore\n                /* \"#utility.yul\":19982:19992   */\n              0x2061756374696f6e000000000000000000000000000000000000000000000000\n                /* \"#utility.yul\":19977:19979   */\n              0x20\n                /* \"#utility.yul\":19969:19975   */\n              dup3\n                /* \"#utility.yul\":19965:19980   */\n              add\n                /* \"#utility.yul\":19958:19993   */\n              mstore\n                /* \"#utility.yul\":19773:20000   */\n              pop\n              jump\t// out\n                /* \"#utility.yul\":20006:20372   */\n            tag_311:\n                /* \"#utility.yul\":20148:20151   */\n              0x00\n                /* \"#utility.yul\":20169:20236   */\n              tag_515\n                /* \"#utility.yul\":20233:20235   */\n              0x28\n                /* \"#utility.yul\":20228:20231   */\n              dup4\n                /* \"#utility.yul\":20169:20236   */\n              tag_269\n              jump\t// in\n            tag_515:\n                /* \"#utility.yul\":20162:20236   */\n              swap2\n              pop\n                /* \"#utility.yul\":20245:20338   */\n              tag_516\n                /* \"#utility.yul\":20334:20337   */\n              dup3\n                /* \"#utility.yul\":20245:20338   */\n              tag_310\n              jump\t// in\n            tag_516:\n                /* \"#utility.yul\":20363:20365   */\n              0x40\n                /* \"#utility.yul\":20358:20361   */\n              dup3\n                /* \"#utility.yul\":20354:20366   */\n              add\n                /* \"#utility.yul\":20347:20366   */\n              swap1\n              pop\n                /* \"#utility.yul\":20006:20372   */\n              swap2\n              swap1\n              pop\n              jump\t// out\n                /* \"#utility.yul\":20378:20797   */\n            tag_239:\n                /* \"#utility.yul\":20544:20548   */\n              0x00\n                /* \"#utility.yul\":20582:20584   */\n              0x20\n                /* \"#utility.yul\":20571:20580   */\n              dup3\n                /* \"#utility.yul\":20567:20585   */\n              add\n                /* \"#utility.yul\":20559:20585   */\n              swap1\n              pop\n                /* \"#utility.yul\":20631:20640   */\n              dup2\n                /* \"#utility.yul\":20625:20629   */\n              dup2\n                /* \"#utility.yul\":20621:20641   */\n              sub\n                /* \"#utility.yul\":20617:20618   */\n              0x00\n                /* \"#utility.yul\":20606:20615   */\n              dup4\n                /* \"#utility.yul\":20602:20619   */\n              add\n                /* \"#utility.yul\":20595:20642   */\n              mstore\n                /* \"#utility.yul\":20659:20790   */\n              tag_518\n                /* \"#utility.yul\":20785:20789   */\n              dup2\n                /* \"#utility.yul\":20659:20790   */\n              tag_311\n              jump\t// in\n            tag_518:\n                /* \"#utility.yul\":20651:20790   */\n              swap1\n              pop\n                /* \"#utility.yul\":20378:20797   */\n              swap2\n              swap1\n              pop\n              jump\t// out\n                /* \"#utility.yul\":20803:20968   */\n            tag_312:\n                /* \"#utility.yul\":20943:20960   */\n              0x76616c7565203c20686967686573740000000000000000000000000000000000\n                /* \"#utility.yul\":20939:20940   */\n              0x00\n                /* \"#utility.yul\":20931:20937   */\n              dup3\n                /* \"#utility.yul\":20927:20941   */\n              add\n                /* \"#utility.yul\":20920:20961   */\n              mstore\n                /* \"#utility.yul\":20803:20968   */\n              pop\n              jump\t// out\n                /* \"#utility.yul\":20974:21340   */\n            tag_313:\n                /* \"#utility.yul\":21116:21119   */\n              0x00\n                /* \"#utility.yul\":21137:21204   */\n              tag_521\n                /* \"#utility.yul\":21201:21203   */\n              0x0f\n                /* \"#utility.yul\":21196:21199   */\n              dup4\n                /* \"#utility.yul\":21137:21204   */\n              tag_269\n              jump\t// in\n            tag_521:\n                /* \"#utility.yul\":21130:21204   */\n              swap2\n              pop\n                /* \"#utility.yul\":21213:21306   */\n              tag_522\n                /* \"#utility.yul\":21302:21305   */\n              dup3\n                /* \"#utility.yul\":21213:21306   */\n              tag_312\n              jump\t// in\n            tag_522:\n                /* \"#utility.yul\":21331:21333   */\n              0x20\n                /* \"#utility.yul\":21326:21329   */\n              dup3\n                /* \"#utility.yul\":21322:21334   */\n              add\n                /* \"#utility.yul\":21315:21334   */\n              swap1\n              pop\n                /* \"#utility.yul\":20974:21340   */\n              swap2\n              swap1\n              pop\n              jump\t// out\n                /* \"#utility.yul\":21346:21765   */\n            tag_245:\n                /* \"#utility.yul\":21512:21516   */\n              0x00\n                /* \"#utility.yul\":21550:21552   */\n              0x20\n                /* \"#utility.yul\":21539:21548   */\n              dup3\n                /* \"#utility.yul\":21535:21553   */\n              add\n                /* \"#utility.yul\":21527:21553   */\n              swap1\n              pop\n                /* \"#utility.yul\":21599:21608   */\n              dup2\n                /* \"#utility.yul\":21593:21597   */\n              dup2\n                /* \"#utility.yul\":21589:21609   */\n              sub\n                /* \"#utility.yul\":21585:21586   */\n              0x00\n                /* \"#utility.yul\":21574:21583   */\n              dup4\n                /* \"#utility.yul\":21570:21587   */\n              add\n                /* \"#utility.yul\":21563:21610   */\n              mstore\n                /* \"#utility.yul\":21627:21758   */\n              tag_524\n                /* \"#utility.yul\":21753:21757   */\n              dup2\n                /* \"#utility.yul\":21627:21758   */\n              tag_313\n              jump\t// in\n            tag_524:\n                /* \"#utility.yul\":21619:21758   */\n              swap1\n              pop\n                /* \"#utility.yul\":21346:21765   */\n              swap2\n              swap1\n              pop\n              jump\t// out\n                /* \"#utility.yul\":21771:22076   */\n            tag_250:\n                /* \"#utility.yul\":21811:21814   */\n              0x00\n                /* \"#utility.yul\":21830:21850   */\n              tag_526\n                /* \"#utility.yul\":21848:21849   */\n              dup3\n                /* \"#utility.yul\":21830:21850   */\n              tag_265\n              jump\t// in\n            tag_526:\n                /* \"#utility.yul\":21825:21850   */\n              swap2\n              pop\n                /* \"#utility.yul\":21864:21884   */\n              tag_527\n                /* \"#utility.yul\":21882:21883   */\n              dup4\n                /* \"#utility.yul\":21864:21884   */\n              tag_265\n              jump\t// in\n            tag_527:\n                /* \"#utility.yul\":21859:21884   */\n              swap3\n              pop\n                /* \"#utility.yul\":22018:22019   */\n              dup3\n                /* \"#utility.yul\":21950:22016   */\n              0xffffffffffffffffffffffffffffffffffffffffffffffffffffffffffffffff\n                /* \"#utility.yul\":21946:22020   */\n              sub\n                /* \"#utility.yul\":21943:21944   */\n              dup3\n                /* \"#utility.yul\":21940:22021   */\n              gt\n                /* \"#utility.yul\":21937:22044   */\n              iszero\n              tag_528\n              jumpi\n                /* \"#utility.yul\":22024:22042   */\n              tag_529\n              tag_294\n              jump\t// in\n            tag_529:\n                /* \"#utility.yul\":21937:22044   */\n            tag_528:\n                /* \"#utility.yul\":22068:22069   */\n              dup3\n                /* \"#utility.yul\":22065:22066   */\n              dup3\n                /* \"#utility.yul\":22061:22070   */\n              add\n                /* \"#utility.yul\":22054:22070   */\n              swap1\n              pop\n                /* \"#utility.yul\":21771:22076   */\n              swap3\n              swap2\n              pop\n              pop\n              jump\t// out\n\n            auxdata: 0xa2646970667358221220be9c98dd10ba056546c695ccdd7367a98a366b30d98ebe0d3552c2328c1f5b9164736f6c634300080f0033\n        }\n    }\n\n    auxdata: 0xa2646970667358221220640d5138bc6dc54aa35111d5ed0e79d6c8fd1d1746fc55d8d82554910e11850d64736f6c634300080f0033\n}\n","bytecode":{"linkReferences":{},"object":"608060405234801561001057600080fd5b506132dd806100206000396000f3fe608060405260043610620000445760003560e01c8063339d50a514620000495780634acb9d4f146200008d57806375da6ba014620000bd578063dc11741614620000c9575b600080fd5b3480156200005657600080fd5b506200007560048036038101906200006f9190620003cb565b620000f7565b60405162000084919062000442565b60405180910390f35b3480156200009a57600080fd5b50620000a562000137565b604051620000b491906200052d565b60405180910390f35b620000c7620001c7565b005b348015620000d657600080fd5b50620000f56004803603810190620000ef9190620006b3565b6200029e565b005b600081815481106200010857600080fd5b906000526020600020016000915054906101000a900473ffffffffffffffffffffffffffffffffffffffff1681565b60606000805480602002602001604051908101604052809291908181526020018280548015620001bd57602002820191906000526020600020905b8160009054906101000a900473ffffffffffffffffffffffffffffffffffffffff1673ffffffffffffffffffffffffffffffffffffffff168152602001906001019080831162000172575b5050505050905090565b60008080549050905060005b818110156200029a576000808281548110620001f457620001f362000763565b5b9060005260206000200160009054906101000a900473ffffffffffffffffffffffffffffffffffffffff1690508073ffffffffffffffffffffffffffffffffffffffff16638d2a1dad6040518163ffffffff1660e01b8152600401600060405180830381600087803b1580156200026a57600080fd5b505af11580156200027f573d6000803e3d6000fd5b505050505080806200029190620007c1565b915050620001d3565b5050565b60004282603c620002b091906200080e565b620002bc91906200086f565b905060008585853385604051620002d3906200036e565b620002e395949392919062000995565b604051809103906000f08015801562000300573d6000803e3d6000fd5b5090506000819080600181540180825580915050600190039060005260206000200160009091909190916101000a81548173ffffffffffffffffffffffffffffffffffffffff021916908373ffffffffffffffffffffffffffffffffffffffff160217905550505050505050565b6128a78062000a0183390190565b6000604051905090565b600080fd5b600080fd5b6000819050919050565b620003a58162000390565b8114620003b157600080fd5b50565b600081359050620003c5816200039a565b92915050565b600060208284031215620003e457620003e362000386565b5b6000620003f484828501620003b4565b91505092915050565b600073ffffffffffffffffffffffffffffffffffffffff82169050919050565b60006200042a82620003fd565b9050919050565b6200043c816200041d565b82525050565b600060208201905062000459600083018462000431565b92915050565b600081519050919050565b600082825260208201905092915050565b6000819050602082019050919050565b62000496816200041d565b82525050565b6000620004aa83836200048b565b60208301905092915050565b6000602082019050919050565b6000620004d0826200045f565b620004dc81856200046a565b9350620004e9836200047b565b8060005b83811015620005205781516200050488826200049c565b97506200051183620004b6565b925050600181019050620004ed565b5085935050505092915050565b60006020820190508181036000830152620005498184620004c3565b905092915050565b600080fd5b600080fd5b6000601f19601f8301169050919050565b7f4e487b7100000000000000000000000000000000000000000000000000000000600052604160045260246000fd5b620005a6826200055b565b810181811067ffffffffffffffff82111715620005c857620005c76200056c565b5b80604052505050565b6000620005dd6200037c565b9050620005eb82826200059b565b919050565b600067ffffffffffffffff8211156200060e576200060d6200056c565b5b62000619826200055b565b9050602081019050919050565b82818337600083830152505050565b60006200064c6200064684620005f0565b620005d1565b9050828152602081018484840111156200066b576200066a62000556565b5b6200067884828562000626565b509392505050565b600082601f83011262000698576200069762000551565b5b8135620006aa84826020860162000635565b91505092915050565b60008060008060808587031215620006d057620006cf62000386565b5b6000620006e087828801620003b4565b945050602085013567ffffffffffffffff8111156200070457620007036200038b565b5b620007128782880162000680565b935050604085013567ffffffffffffffff8111156200073657620007356200038b565b5b620007448782880162000680565b92505060606200075787828801620003b4565b91505092959194509250565b7f4e487b7100000000000000000000000000000000000000000000000000000000600052603260045260246000fd5b7f4e487b7100000000000000000000000000000000000000000000000000000000600052601160045260246000fd5b6000620007ce8262000390565b91507fffffffffffffffffffffffffffffffffffffffffffffffffffffffffffffffff820362000803576200080262000792565b5b600182019050919050565b60006200081b8262000390565b9150620008288362000390565b9250817fffffffffffffffffffffffffffffffffffffffffffffffffffffffffffffffff048311821515161562000864576200086362000792565b5b828202905092915050565b60006200087c8262000390565b9150620008898362000390565b9250827fffffffffffffffffffffffffffffffffffffffffffffffffffffffffffffffff03821115620008c157620008c062000792565b5b828201905092915050565b620008d78162000390565b82525050565b600081519050919050565b600082825260208201905092915050565b60005b8381101562000919578082015181840152602081019050620008fc565b8381111562000929576000848401525b50505050565b60006200093c82620008dd565b620009488185620008e8565b93506200095a818560208601620008f9565b62000965816200055b565b840191505092915050565b60006200097d82620003fd565b9050919050565b6200098f8162000970565b82525050565b600060a082019050620009ac6000830188620008cc565b8181036020830152620009c081876200092f565b90508181036040830152620009d681866200092f565b9050620009e7606083018562000984565b620009f66080830184620008cc565b969550505050505056fe60806040523480156200001157600080fd5b50604051620028a7380380620028a783398181016040528101906200003791906200030d565b81600160006101000a81548173ffffffffffffffffffffffffffffffffffffffff021916908373ffffffffffffffffffffffffffffffffffffffff16021790555084600281905550836003908162000090919062000614565b508260049081620000a2919062000614565b5080600b819055506000600c60006101000a81548160ff0219169083151502179055505050505050620006fb565b6000604051905090565b600080fd5b600080fd5b6000819050919050565b620000f981620000e4565b81146200010557600080fd5b50565b6000815190506200011981620000ee565b92915050565b600080fd5b600080fd5b6000601f19601f8301169050919050565b7f4e487b7100000000000000000000000000000000000000000000000000000000600052604160045260246000fd5b620001748262000129565b810181811067ffffffffffffffff821117156200019657620001956200013a565b5b80604052505050565b6000620001ab620000d0565b9050620001b9828262000169565b919050565b600067ffffffffffffffff821115620001dc57620001db6200013a565b5b620001e78262000129565b9050602081019050919050565b60005b8381101562000214578082015181840152602081019050620001f7565b8381111562000224576000848401525b50505050565b6000620002416200023b84620001be565b6200019f565b90508281526020810184848401111562000260576200025f62000124565b5b6200026d848285620001f4565b509392505050565b600082601f8301126200028d576200028c6200011f565b5b81516200029f8482602086016200022a565b91505092915050565b600073ffffffffffffffffffffffffffffffffffffffff82169050919050565b6000620002d582620002a8565b9050919050565b620002e781620002c8565b8114620002f357600080fd5b50565b6000815190506200030781620002dc565b92915050565b600080600080600060a086880312156200032c576200032b620000da565b5b60006200033c8882890162000108565b955050602086015167ffffffffffffffff81111562000360576200035f620000df565b5b6200036e8882890162000275565b945050604086015167ffffffffffffffff811115620003925762000391620000df565b5b620003a08882890162000275565b9350506060620003b388828901620002f6565b9250506080620003c68882890162000108565b9150509295509295909350565b600081519050919050565b7f4e487b7100000000000000000000000000000000000000000000000000000000600052602260045260246000fd5b600060028204905060018216806200042657607f821691505b6020821081036200043c576200043b620003de565b5b50919050565b60008190508160005260206000209050919050565b60006020601f8301049050919050565b600082821b905092915050565b600060088302620004a67fffffffffffffffffffffffffffffffffffffffffffffffffffffffffffffffff8262000467565b620004b2868362000467565b95508019841693508086168417925050509392505050565b6000819050919050565b6000620004f5620004ef620004e984620000e4565b620004ca565b620000e4565b9050919050565b6000819050919050565b6200051183620004d4565b620005296200052082620004fc565b84845462000474565b825550505050565b600090565b6200054062000531565b6200054d81848462000506565b505050565b5b8181101562000575576200056960008262000536565b60018101905062000553565b5050565b601f821115620005c4576200058e8162000442565b620005998462000457565b81016020851015620005a9578190505b620005c1620005b88562000457565b83018262000552565b50505b505050565b600082821c905092915050565b6000620005e960001984600802620005c9565b1980831691505092915050565b6000620006048383620005d6565b9150826002028217905092915050565b6200061f82620003d3565b67ffffffffffffffff8111156200063b576200063a6200013a565b5b6200064782546200040d565b6200065482828562000579565b600060209050601f8311600181146200068c576000841562000677578287015190505b620006838582620005f6565b865550620006f3565b601f1984166200069c8662000442565b60005b82811015620006c6578489015182556001820191506020850194506020810190506200069f565b86831015620006e65784890151620006e2601f891682620005d6565b8355505b6001600288020188555050505b505050505050565b61219c806200070b6000396000f3fe6080604052600436106101405760003560e01c806382fde093116100b65780639ace38c21161006f5780639ace38c21461044e578063a39fac121461048d578063c8b342ab146104b8578063d57bde79146104f5578063d7bb99ba14610520578063edf26d9b1461052a57610140565b806382fde0931461035b57806383920e90146103865780638d2a1dad146103b157806391f90157146103bb578063937e09b1146103e657806394073c251461041157610140565b80634e69d560116101085780634e69d560146102495780634ede36481461027457806358d656291461029d578063597e1fb5146102c85780637b87d856146102f35780637e06eb7d1461031e57610140565b80630a144391146101455780632ebc9a3e146101825780633197cbb6146101bf5780634051ddac146101ea578063481c6a751461021e575b600080fd5b34801561015157600080fd5b5061016c6004803603810190610167919061168b565b610567565b60405161017991906116d3565b60405180910390f35b34801561018e57600080fd5b506101a960048036038101906101a4919061168b565b610587565b6040516101b69190611707565b60405180910390f35b3480156101cb57600080fd5b506101d461059f565b6040516101e19190611707565b60405180910390f35b3480156101f657600080fd5b506101ff6105a5565b6040516102159a99989796959493929190611888565b60405180910390f35b34801561022a57600080fd5b506102336107ce565b6040516102409190611939565b60405180910390f35b34801561025557600080fd5b5061025e6107f4565b60405161026b91906116d3565b60405180910390f35b34801561028057600080fd5b5061029b60048036038101906102969190611992565b61080b565b005b3480156102a957600080fd5b506102b26108f4565b6040516102bf91906119bf565b60405180910390f35b3480156102d457600080fd5b506102dd610982565b6040516102ea91906116d3565b60405180910390f35b3480156102ff57600080fd5b50610308610995565b60405161031591906119bf565b60405180910390f35b34801561032a57600080fd5b50610345600480360381019061034091906119e1565b610a23565b60405161035291906116d3565b60405180910390f35b34801561036757600080fd5b50610370610a6c565b60405161037d9190611707565b60405180910390f35b34801561039257600080fd5b5061039b610a72565b6040516103a89190611b21565b60405180910390f35b6103b9610b3b565b005b3480156103c757600080fd5b506103d0610e9c565b6040516103dd9190611939565b60405180910390f35b3480156103f257600080fd5b506103fb610ec2565b6040516104089190611707565b60405180910390f35b34801561041d57600080fd5b506104386004803603810190610433919061168b565b610ec8565b6040516104459190611939565b60405180910390f35b34801561045a57600080fd5b5061047560048036038101906104709190611b6f565b610f95565b60405161048493929190611b9c565b60405180910390f35b34801561049957600080fd5b506104a2610fef565b6040516104af9190611bd3565b60405180910390f35b3480156104c457600080fd5b506104df60048036038101906104da919061168b565b61107d565b6040516104ec9190611707565b60405180910390f35b34801561050157600080fd5b5061050a611117565b6040516105179190611707565b60405180910390f35b61052861111d565b005b34801561053657600080fd5b50610551600480360381019061054c9190611b6f565b6115e9565b60405161055e9190611939565b60405180910390f35b60056020528060005260406000206000915054906101000a900460ff1681565b60066020528060005260406000206000915090505481565b600b5481565b6000806000806000606080600080606060025447600754600160009054906101000a900473ffffffffffffffffffffffffffffffffffffffff16600a5460036004600b54600960009054906101000a900473ffffffffffffffffffffffffffffffffffffffff16600884805461061a90611c24565b80601f016020809104026020016040519081016040528092919081815260200182805461064690611c24565b80156106935780601f1061066857610100808354040283529160200191610693565b820191906000526020600020905b81548152906001019060200180831161067657829003601f168201915b505050505094508380546106a690611c24565b80601f01602080910402602001604051908101604052809291908181526020018280546106d290611c24565b801561071f5780601f106106f45761010080835404028352916020019161071f565b820191906000526020600020905b81548152906001019060200180831161070257829003601f168201915b50505050509350808054806020026020016040519081016040528092919081815260200182805480156107a757602002820191906000526020600020905b8160009054906101000a900473ffffffffffffffffffffffffffffffffffffffff1673ffffffffffffffffffffffffffffffffffffffff168152602001906001019080831161075d575b50505050509050995099509950995099509950995099509950995090919293949596979899565b600160009054906101000a900473ffffffffffffffffffffffffffffffffffffffff1681565b6000600c60009054906101000a900460ff16905090565b8073ffffffffffffffffffffffffffffffffffffffff166108fc600660008473ffffffffffffffffffffffffffffffffffffffff1673ffffffffffffffffffffffffffffffffffffffff168152602001908152602001600020549081150290604051600060405180830381858888f19350505050158015610890573d6000803e3d6000fd5b506000600660008373ffffffffffffffffffffffffffffffffffffffff1673ffffffffffffffffffffffffffffffffffffffff168152602001908152602001600020819055506001600c60006101000a81548160ff02191690831515021790555050565b6004805461090190611c24565b80601f016020809104026020016040519081016040528092919081815260200182805461092d90611c24565b801561097a5780601f1061094f5761010080835404028352916020019161097a565b820191906000526020600020905b81548152906001019060200180831161095d57829003601f168201915b505050505081565b600c60009054906101000a900460ff1681565b600380546109a290611c24565b80601f01602080910402602001604051908101604052809291908181526020018280546109ce90611c24565b8015610a1b5780601f106109f057610100808354040283529160200191610a1b565b820191906000526020600020905b8154815290600101906020018083116109fe57829003601f168201915b505050505081565b6000610a2e82610ec8565b73ffffffffffffffffffffffffffffffffffffffff16610a4d84610ec8565b73ffffffffffffffffffffffffffffffffffffffff1614905092915050565b60075481565b60606000805480602002602001604051908101604052809291908181526020016000905b82821015610b32578382906000526020600020906003020160405180606001604052908160008201548152602001600182015481526020016002820160009054906101000a900473ffffffffffffffffffffffffffffffffffffffff1673ffffffffffffffffffffffffffffffffffffffff1673ffffffffffffffffffffffffffffffffffffffff168152505081526020019060010190610a96565b50505050905090565b42600b541015610e9a576000806001600880549050610b5a9190611c84565b67ffffffffffffffff811115610b7357610b72611cb8565b5b604051908082528060200260200182016040528015610ba15781602001602082028036833780820191505090505b50905060005b600880549050811015610dce57610bfb60088281548110610bcb57610bca611ce7565b5b9060005260206000200160009054906101000a900473ffffffffffffffffffffffffffffffffffffffff16610ec8565b73ffffffffffffffffffffffffffffffffffffffff167fdb2255c40dd3a96ac26cefe042ef05b7245beb67ba6fe3deb5a32048c48ae64560405160405180910390a2600960009054906101000a900473ffffffffffffffffffffffffffffffffffffffff1673ffffffffffffffffffffffffffffffffffffffff167fdb2255c40dd3a96ac26cefe042ef05b7245beb67ba6fe3deb5a32048c48ae64560405160405180910390a2610d1c610cec60088381548110610cbc57610cbb611ce7565b5b9060005260206000200160009054906101000a900473ffffffffffffffffffffffffffffffffffffffff16610ec8565b610d17600960009054906101000a900473ffffffffffffffffffffffffffffffffffffffff16610ec8565b610a23565b610dbb5760088181548110610d3457610d33611ce7565b5b9060005260206000200160009054906101000a900473ffffffffffffffffffffffffffffffffffffffff16828481518110610d7257610d71611ce7565b5b602002602001019073ffffffffffffffffffffffffffffffffffffffff16908173ffffffffffffffffffffffffffffffffffffffff16815250508280610db790611d16565b9350505b8080610dc690611d16565b915050610ba7565b5080604051610ddd9190611dee565b60405180910390207f8f58f64f8e5f3dff0793565c7810439028723c99baee435e979ede971227143360405160405180910390a26008604051610e209190611ef1565b60405180910390207f8f58f64f8e5f3dff0793565c7810439028723c99baee435e979ede971227143360405160405180910390a260005b8151811015610e9657610e83828281518110610e7657610e75611ce7565b5b602002602001015161080b565b8080610e8e90611d16565b915050610e57565b5050505b565b600960009054906101000a900473ffffffffffffffffffffffffffffffffffffffff1681565b60025481565b60008082905060005b6014811015610f8b5760008460601b8260148110610ef257610ef1611ce7565b5b1a60f81b60f81c905060418160ff1610158015610f135750605a8160ff1611155b15610f2857602081610f259190611f15565b90505b816013610f359190611c84565b6008610f419190611f4c565b73ffffffffffffffffffffffffffffffffffffffff168160ff1673ffffffffffffffffffffffffffffffffffffffff16901b83179250508080610f8390611d16565b915050610ed1565b5080915050919050565b60008181548110610fa557600080fd5b90600052602060002090600302016000915090508060000154908060010154908060020160009054906101000a900473ffffffffffffffffffffffffffffffffffffffff16905083565b6060600880548060200260200160405190810160405280929190818152602001828054801561107357602002820191906000526020600020905b8160009054906101000a900473ffffffffffffffffffffffffffffffffffffffff1673ffffffffffffffffffffffffffffffffffffffff1681526020019060010190808311611029575b5050505050905090565b600080600090506000600660008573ffffffffffffffffffffffffffffffffffffffff1673ffffffffffffffffffffffffffffffffffffffff168152602001908152602001600020541461110e57600660008473ffffffffffffffffffffffffffffffffffffffff1673ffffffffffffffffffffffffffffffffffffffff1681526020019081526020016000205490505b80915050919050565b600a5481565b600160009054906101000a900473ffffffffffffffffffffffffffffffffffffffff1673ffffffffffffffffffffffffffffffffffffffff163373ffffffffffffffffffffffffffffffffffffffff16036111ad576040517f08c379a00000000000000000000000000000000000000000000000000000000081526004016111a490611ff2565b60405180910390fd5b42600b54116111f1576040517f08c379a00000000000000000000000000000000000000000000000000000000081526004016111e890612084565b60405180910390fd5b600060405180606001604052803481526020014281526020013373ffffffffffffffffffffffffffffffffffffffff168152509080600181540180825580915050600190039060005260206000209060030201600090919091909150600082015181600001556020820151816001015560408201518160020160006101000a81548173ffffffffffffffffffffffffffffffffffffffff021916908373ffffffffffffffffffffffffffffffffffffffff160217905550505060011515600560003373ffffffffffffffffffffffffffffffffffffffff1673ffffffffffffffffffffffffffffffffffffffff16815260200190815260200160002060009054906101000a900460ff161515146114b857600254341161131057600080fd5b600a543411611354576040517f08c379a000000000000000000000000000000000000000000000000000000000815260040161134b906120f0565b60405180910390fd5b6001600560003373ffffffffffffffffffffffffffffffffffffffff1673ffffffffffffffffffffffffffffffffffffffff16815260200190815260200160002060006101000a81548160ff02191690831515021790555033600960006101000a81548173ffffffffffffffffffffffffffffffffffffffff021916908373ffffffffffffffffffffffffffffffffffffffff16021790555034600a819055506007600081548092919061140790611d16565b919050555034600660003373ffffffffffffffffffffffffffffffffffffffff1673ffffffffffffffffffffffffffffffffffffffff168152602001908152602001600020819055506008339080600181540180825580915050600190039060005260206000200160009091909190916101000a81548173ffffffffffffffffffffffffffffffffffffffff021916908373ffffffffffffffffffffffffffffffffffffffff1602179055506115e7565b6000600660003373ffffffffffffffffffffffffffffffffffffffff1673ffffffffffffffffffffffffffffffffffffffff16815260200190815260200160002054346115059190612110565b9050600a54811161154b576040517f08c379a0000000000000000000000000000000000000000000000000000000008152600401611542906120f0565b60405180910390fd5b600254811161155957600080fd5b80600660003373ffffffffffffffffffffffffffffffffffffffff1673ffffffffffffffffffffffffffffffffffffffff1681526020019081526020016000208190555033600960006101000a81548173ffffffffffffffffffffffffffffffffffffffff021916908373ffffffffffffffffffffffffffffffffffffffff16021790555080600a81905550505b565b600881815481106115f957600080fd5b906000526020600020016000915054906101000a900473ffffffffffffffffffffffffffffffffffffffff1681565b600080fd5b600073ffffffffffffffffffffffffffffffffffffffff82169050919050565b60006116588261162d565b9050919050565b6116688161164d565b811461167357600080fd5b50565b6000813590506116858161165f565b92915050565b6000602082840312156116a1576116a0611628565b5b60006116af84828501611676565b91505092915050565b60008115159050919050565b6116cd816116b8565b82525050565b60006020820190506116e860008301846116c4565b92915050565b6000819050919050565b611701816116ee565b82525050565b600060208201905061171c60008301846116f8565b92915050565b61172b8161164d565b82525050565b600081519050919050565b600082825260208201905092915050565b60005b8381101561176b578082015181840152602081019050611750565b8381111561177a576000848401525b50505050565b6000601f19601f8301169050919050565b600061179c82611731565b6117a6818561173c565b93506117b681856020860161174d565b6117bf81611780565b840191505092915050565b600081519050919050565b600082825260208201905092915050565b6000819050602082019050919050565b6117ff8161164d565b82525050565b600061181183836117f6565b60208301905092915050565b6000602082019050919050565b6000611835826117ca565b61183f81856117d5565b935061184a836117e6565b8060005b8381101561187b5781516118628882611805565b975061186d8361181d565b92505060018101905061184e565b5085935050505092915050565b60006101408201905061189e600083018d6116f8565b6118ab602083018c6116f8565b6118b8604083018b6116f8565b6118c5606083018a611722565b6118d260808301896116f8565b81810360a08301526118e48188611791565b905081810360c08301526118f88187611791565b905061190760e08301866116f8565b611915610100830185611722565b818103610120830152611928818461182a565b90509b9a5050505050505050505050565b600060208201905061194e6000830184611722565b92915050565b600061195f8261162d565b9050919050565b61196f81611954565b811461197a57600080fd5b50565b60008135905061198c81611966565b92915050565b6000602082840312156119a8576119a7611628565b5b60006119b68482850161197d565b91505092915050565b600060208201905081810360008301526119d98184611791565b905092915050565b600080604083850312156119f8576119f7611628565b5b6000611a0685828601611676565b9250506020611a1785828601611676565b9150509250929050565b600081519050919050565b600082825260208201905092915050565b6000819050602082019050919050565b611a56816116ee565b82525050565b606082016000820151611a726000850182611a4d565b506020820151611a856020850182611a4d565b506040820151611a9860408501826117f6565b50505050565b6000611aaa8383611a5c565b60608301905092915050565b6000602082019050919050565b6000611ace82611a21565b611ad88185611a2c565b9350611ae383611a3d565b8060005b83811015611b14578151611afb8882611a9e565b9750611b0683611ab6565b925050600181019050611ae7565b5085935050505092915050565b60006020820190508181036000830152611b3b8184611ac3565b905092915050565b611b4c816116ee565b8114611b5757600080fd5b50565b600081359050611b6981611b43565b92915050565b600060208284031215611b8557611b84611628565b5b6000611b9384828501611b5a565b91505092915050565b6000606082019050611bb160008301866116f8565b611bbe60208301856116f8565b611bcb6040830184611722565b949350505050565b60006020820190508181036000830152611bed818461182a565b905092915050565b7f4e487b7100000000000000000000000000000000000000000000000000000000600052602260045260246000fd5b60006002820490506001821680611c3c57607f821691505b602082108103611c4f57611c4e611bf5565b5b50919050565b7f4e487b7100000000000000000000000000000000000000000000000000000000600052601160045260246000fd5b6000611c8f826116ee565b9150611c9a836116ee565b925082821015611cad57611cac611c55565b5b828203905092915050565b7f4e487b7100000000000000000000000000000000000000000000000000000000600052604160045260246000fd5b7f4e487b7100000000000000000000000000000000000000000000000000000000600052603260045260246000fd5b6000611d21826116ee565b91507fffffffffffffffffffffffffffffffffffffffffffffffffffffffffffffffff8203611d5357611d52611c55565b5b600182019050919050565b600081905092915050565b611d728161164d565b82525050565b6000611d848383611d69565b60208301905092915050565b6000611d9b826117ca565b611da58185611d5e565b9350611db0836117e6565b8060005b83811015611de1578151611dc88882611d78565b9750611dd38361181d565b925050600181019050611db4565b5085935050505092915050565b6000611dfa8284611d90565b915081905092915050565b600081549050919050565b60008190508160005260206000209050919050565b60008160001c9050919050565b600073ffffffffffffffffffffffffffffffffffffffff82169050919050565b6000611e65611e6083611e25565b611e32565b9050919050565b6000611e788254611e52565b9050919050565b6000600182019050919050565b6000611e9782611e05565b611ea18185611d5e565b9350611eac83611e10565b8060005b83811015611ee457611ec182611e6c565b611ecb8882611d78565b9750611ed683611e7f565b925050600181019050611eb0565b5085935050505092915050565b6000611efd8284611e8c565b915081905092915050565b600060ff82169050919050565b6000611f2082611f08565b9150611f2b83611f08565b92508260ff03821115611f4157611f40611c55565b5b828201905092915050565b6000611f57826116ee565b9150611f62836116ee565b9250817fffffffffffffffffffffffffffffffffffffffffffffffffffffffffffffffff0483118215151615611f9b57611f9a611c55565b5b828202905092915050565b7f796f752063616e27742062757920796f7572206f776e20646174610000000000600082015250565b6000611fdc601b8361173c565b9150611fe782611fa6565b602082019050919050565b6000602082019050818103600083015261200b81611fcf565b9050919050565b7f796f752063616e277420636f6e7472696275746520746f20616e20656e64656460008201527f2061756374696f6e000000000000000000000000000000000000000000000000602082015250565b600061206e60288361173c565b915061207982612012565b604082019050919050565b6000602082019050818103600083015261209d81612061565b9050919050565b7f76616c7565203c20686967686573740000000000000000000000000000000000600082015250565b60006120da600f8361173c565b91506120e5826120a4565b602082019050919050565b60006020820190508181036000830152612109816120cd565b9050919050565b600061211b826116ee565b9150612126836116ee565b9250827fffffffffffffffffffffffffffffffffffffffffffffffffffffffffffffffff0382111561215b5761215a611c55565b5b82820190509291505056fea2646970667358221220be9c98dd10ba056546c695ccdd7367a98a366b30d98ebe0d3552c2328c1f5b9164736f6c634300080f0033a2646970667358221220640d5138bc6dc54aa35111d5ed0e79d6c8fd1d1746fc55d8d82554910e11850d64736f6c634300080f0033","opcodes":"PUSH1 0x80 PUSH1 0x40 MSTORE CALLVALUE DUP1 ISZERO PUSH2 0x10 JUMPI PUSH1 0x0 DUP1 REVERT JUMPDEST POP PUSH2 0x32DD DUP1 PUSH2 0x20 PUSH1 0x0 CODECOPY PUSH1 0x0 RETURN INVALID PUSH1 0x80 PUSH1 0x40 MSTORE PUSH1 0x4 CALLDATASIZE LT PUSH3 0x44 JUMPI PUSH1 0x0 CALLDATALOAD PUSH1 0xE0 SHR DUP1 PUSH4 0x339D50A5 EQ PUSH3 0x49 JUMPI DUP1 PUSH4 0x4ACB9D4F EQ PUSH3 0x8D JUMPI DUP1 PUSH4 0x75DA6BA0 EQ PUSH3 0xBD JUMPI DUP1 PUSH4 0xDC117416 EQ PUSH3 0xC9 JUMPI JUMPDEST PUSH1 0x0 DUP1 REVERT JUMPDEST CALLVALUE DUP1 ISZERO PUSH3 0x56 JUMPI PUSH1 0x0 DUP1 REVERT JUMPDEST POP PUSH3 0x75 PUSH1 0x4 DUP1 CALLDATASIZE SUB DUP2 ADD SWAP1 PUSH3 0x6F SWAP2 SWAP1 PUSH3 0x3CB JUMP JUMPDEST PUSH3 0xF7 JUMP JUMPDEST PUSH1 0x40 MLOAD PUSH3 0x84 SWAP2 SWAP1 PUSH3 0x442 JUMP JUMPDEST PUSH1 0x40 MLOAD DUP1 SWAP2 SUB SWAP1 RETURN JUMPDEST CALLVALUE DUP1 ISZERO PUSH3 0x9A JUMPI PUSH1 0x0 DUP1 REVERT JUMPDEST POP PUSH3 0xA5 PUSH3 0x137 JUMP JUMPDEST PUSH1 0x40 MLOAD PUSH3 0xB4 SWAP2 SWAP1 PUSH3 0x52D JUMP JUMPDEST PUSH1 0x40 MLOAD DUP1 SWAP2 SUB SWAP1 RETURN JUMPDEST PUSH3 0xC7 PUSH3 0x1C7 JUMP JUMPDEST STOP JUMPDEST CALLVALUE DUP1 ISZERO PUSH3 0xD6 JUMPI PUSH1 0x0 DUP1 REVERT JUMPDEST POP PUSH3 0xF5 PUSH1 0x4 DUP1 CALLDATASIZE SUB DUP2 ADD SWAP1 PUSH3 0xEF SWAP2 SWAP1 PUSH3 0x6B3 JUMP JUMPDEST PUSH3 0x29E JUMP JUMPDEST STOP JUMPDEST PUSH1 0x0 DUP2 DUP2 SLOAD DUP2 LT PUSH3 0x108 JUMPI PUSH1 0x0 DUP1 REVERT JUMPDEST SWAP1 PUSH1 0x0 MSTORE PUSH1 0x20 PUSH1 0x0 KECCAK256 ADD PUSH1 0x0 SWAP2 POP SLOAD SWAP1 PUSH2 0x100 EXP SWAP1 DIV PUSH20 0xFFFFFFFFFFFFFFFFFFFFFFFFFFFFFFFFFFFFFFFF AND DUP2 JUMP JUMPDEST PUSH1 0x60 PUSH1 0x0 DUP1 SLOAD DUP1 PUSH1 0x20 MUL PUSH1 0x20 ADD PUSH1 0x40 MLOAD SWAP1 DUP2 ADD PUSH1 0x40 MSTORE DUP1 SWAP3 SWAP2 SWAP1 DUP2 DUP2 MSTORE PUSH1 0x20 ADD DUP3 DUP1 SLOAD DUP1 ISZERO PUSH3 0x1BD JUMPI PUSH1 0x20 MUL DUP3 ADD SWAP2 SWAP1 PUSH1 0x0 MSTORE PUSH1 0x20 PUSH1 0x0 KECCAK256 SWAP1 JUMPDEST DUP2 PUSH1 0x0 SWAP1 SLOAD SWAP1 PUSH2 0x100 EXP SWAP1 DIV PUSH20 0xFFFFFFFFFFFFFFFFFFFFFFFFFFFFFFFFFFFFFFFF AND PUSH20 0xFFFFFFFFFFFFFFFFFFFFFFFFFFFFFFFFFFFFFFFF AND DUP2 MSTORE PUSH1 0x20 ADD SWAP1 PUSH1 0x1 ADD SWAP1 DUP1 DUP4 GT PUSH3 0x172 JUMPI JUMPDEST POP POP POP POP POP SWAP1 POP SWAP1 JUMP JUMPDEST PUSH1 0x0 DUP1 DUP1 SLOAD SWAP1 POP SWAP1 POP PUSH1 0x0 JUMPDEST DUP2 DUP2 LT ISZERO PUSH3 0x29A JUMPI PUSH1 0x0 DUP1 DUP3 DUP2 SLOAD DUP2 LT PUSH3 0x1F4 JUMPI PUSH3 0x1F3 PUSH3 0x763 JUMP JUMPDEST JUMPDEST SWAP1 PUSH1 0x0 MSTORE PUSH1 0x20 PUSH1 0x0 KECCAK256 ADD PUSH1 0x0 SWAP1 SLOAD SWAP1 PUSH2 0x100 EXP SWAP1 DIV PUSH20 0xFFFFFFFFFFFFFFFFFFFFFFFFFFFFFFFFFFFFFFFF AND SWAP1 POP DUP1 PUSH20 0xFFFFFFFFFFFFFFFFFFFFFFFFFFFFFFFFFFFFFFFF AND PUSH4 0x8D2A1DAD PUSH1 0x40 MLOAD DUP2 PUSH4 0xFFFFFFFF AND PUSH1 0xE0 SHL DUP2 MSTORE PUSH1 0x4 ADD PUSH1 0x0 PUSH1 0x40 MLOAD DUP1 DUP4 SUB DUP2 PUSH1 0x0 DUP8 DUP1 EXTCODESIZE ISZERO DUP1 ISZERO PUSH3 0x26A JUMPI PUSH1 0x0 DUP1 REVERT JUMPDEST POP GAS CALL ISZERO DUP1 ISZERO PUSH3 0x27F JUMPI RETURNDATASIZE PUSH1 0x0 DUP1 RETURNDATACOPY RETURNDATASIZE PUSH1 0x0 REVERT JUMPDEST POP POP POP POP POP DUP1 DUP1 PUSH3 0x291 SWAP1 PUSH3 0x7C1 JUMP JUMPDEST SWAP2 POP POP PUSH3 0x1D3 JUMP JUMPDEST POP POP JUMP JUMPDEST PUSH1 0x0 TIMESTAMP DUP3 PUSH1 0x3C PUSH3 0x2B0 SWAP2 SWAP1 PUSH3 0x80E JUMP JUMPDEST PUSH3 0x2BC SWAP2 SWAP1 PUSH3 0x86F JUMP JUMPDEST SWAP1 POP PUSH1 0x0 DUP6 DUP6 DUP6 CALLER DUP6 PUSH1 0x40 MLOAD PUSH3 0x2D3 SWAP1 PUSH3 0x36E JUMP JUMPDEST PUSH3 0x2E3 SWAP6 SWAP5 SWAP4 SWAP3 SWAP2 SWAP1 PUSH3 0x995 JUMP JUMPDEST PUSH1 0x40 MLOAD DUP1 SWAP2 SUB SWAP1 PUSH1 0x0 CREATE DUP1 ISZERO DUP1 ISZERO PUSH3 0x300 JUMPI RETURNDATASIZE PUSH1 0x0 DUP1 RETURNDATACOPY RETURNDATASIZE PUSH1 0x0 REVERT JUMPDEST POP SWAP1 POP PUSH1 0x0 DUP2 SWAP1 DUP1 PUSH1 0x1 DUP2 SLOAD ADD DUP1 DUP3 SSTORE DUP1 SWAP2 POP POP PUSH1 0x1 SWAP1 SUB SWAP1 PUSH1 0x0 MSTORE PUSH1 0x20 PUSH1 0x0 KECCAK256 ADD PUSH1 0x0 SWAP1 SWAP2 SWAP1 SWAP2 SWAP1 SWAP2 PUSH2 0x100 EXP DUP2 SLOAD DUP2 PUSH20 0xFFFFFFFFFFFFFFFFFFFFFFFFFFFFFFFFFFFFFFFF MUL NOT AND SWAP1 DUP4 PUSH20 0xFFFFFFFFFFFFFFFFFFFFFFFFFFFFFFFFFFFFFFFF AND MUL OR SWAP1 SSTORE POP POP POP POP POP POP POP JUMP JUMPDEST PUSH2 0x28A7 DUP1 PUSH3 0xA01 DUP4 CODECOPY ADD SWAP1 JUMP JUMPDEST PUSH1 0x0 PUSH1 0x40 MLOAD SWAP1 POP SWAP1 JUMP JUMPDEST PUSH1 0x0 DUP1 REVERT JUMPDEST PUSH1 0x0 DUP1 REVERT JUMPDEST PUSH1 0x0 DUP2 SWAP1 POP SWAP2 SWAP1 POP JUMP JUMPDEST PUSH3 0x3A5 DUP2 PUSH3 0x390 JUMP JUMPDEST DUP2 EQ PUSH3 0x3B1 JUMPI PUSH1 0x0 DUP1 REVERT JUMPDEST POP JUMP JUMPDEST PUSH1 0x0 DUP2 CALLDATALOAD SWAP1 POP PUSH3 0x3C5 DUP2 PUSH3 0x39A JUMP JUMPDEST SWAP3 SWAP2 POP POP JUMP JUMPDEST PUSH1 0x0 PUSH1 0x20 DUP3 DUP5 SUB SLT ISZERO PUSH3 0x3E4 JUMPI PUSH3 0x3E3 PUSH3 0x386 JUMP JUMPDEST JUMPDEST PUSH1 0x0 PUSH3 0x3F4 DUP5 DUP3 DUP6 ADD PUSH3 0x3B4 JUMP JUMPDEST SWAP2 POP POP SWAP3 SWAP2 POP POP JUMP JUMPDEST PUSH1 0x0 PUSH20 0xFFFFFFFFFFFFFFFFFFFFFFFFFFFFFFFFFFFFFFFF DUP3 AND SWAP1 POP SWAP2 SWAP1 POP JUMP JUMPDEST PUSH1 0x0 PUSH3 0x42A DUP3 PUSH3 0x3FD JUMP JUMPDEST SWAP1 POP SWAP2 SWAP1 POP JUMP JUMPDEST PUSH3 0x43C DUP2 PUSH3 0x41D JUMP JUMPDEST DUP3 MSTORE POP POP JUMP JUMPDEST PUSH1 0x0 PUSH1 0x20 DUP3 ADD SWAP1 POP PUSH3 0x459 PUSH1 0x0 DUP4 ADD DUP5 PUSH3 0x431 JUMP JUMPDEST SWAP3 SWAP2 POP POP JUMP JUMPDEST PUSH1 0x0 DUP2 MLOAD SWAP1 POP SWAP2 SWAP1 POP JUMP JUMPDEST PUSH1 0x0 DUP3 DUP3 MSTORE PUSH1 0x20 DUP3 ADD SWAP1 POP SWAP3 SWAP2 POP POP JUMP JUMPDEST PUSH1 0x0 DUP2 SWAP1 POP PUSH1 0x20 DUP3 ADD SWAP1 POP SWAP2 SWAP1 POP JUMP JUMPDEST PUSH3 0x496 DUP2 PUSH3 0x41D JUMP JUMPDEST DUP3 MSTORE POP POP JUMP JUMPDEST PUSH1 0x0 PUSH3 0x4AA DUP4 DUP4 PUSH3 0x48B JUMP JUMPDEST PUSH1 0x20 DUP4 ADD SWAP1 POP SWAP3 SWAP2 POP POP JUMP JUMPDEST PUSH1 0x0 PUSH1 0x20 DUP3 ADD SWAP1 POP SWAP2 SWAP1 POP JUMP JUMPDEST PUSH1 0x0 PUSH3 0x4D0 DUP3 PUSH3 0x45F JUMP JUMPDEST PUSH3 0x4DC DUP2 DUP6 PUSH3 0x46A JUMP JUMPDEST SWAP4 POP PUSH3 0x4E9 DUP4 PUSH3 0x47B JUMP JUMPDEST DUP1 PUSH1 0x0 JUMPDEST DUP4 DUP2 LT ISZERO PUSH3 0x520 JUMPI DUP2 MLOAD PUSH3 0x504 DUP9 DUP3 PUSH3 0x49C JUMP JUMPDEST SWAP8 POP PUSH3 0x511 DUP4 PUSH3 0x4B6 JUMP JUMPDEST SWAP3 POP POP PUSH1 0x1 DUP2 ADD SWAP1 POP PUSH3 0x4ED JUMP JUMPDEST POP DUP6 SWAP4 POP POP POP POP SWAP3 SWAP2 POP POP JUMP JUMPDEST PUSH1 0x0 PUSH1 0x20 DUP3 ADD SWAP1 POP DUP2 DUP2 SUB PUSH1 0x0 DUP4 ADD MSTORE PUSH3 0x549 DUP2 DUP5 PUSH3 0x4C3 JUMP JUMPDEST SWAP1 POP SWAP3 SWAP2 POP POP JUMP JUMPDEST PUSH1 0x0 DUP1 REVERT JUMPDEST PUSH1 0x0 DUP1 REVERT JUMPDEST PUSH1 0x0 PUSH1 0x1F NOT PUSH1 0x1F DUP4 ADD AND SWAP1 POP SWAP2 SWAP1 POP JUMP JUMPDEST PUSH32 0x4E487B7100000000000000000000000000000000000000000000000000000000 PUSH1 0x0 MSTORE PUSH1 0x41 PUSH1 0x4 MSTORE PUSH1 0x24 PUSH1 0x0 REVERT JUMPDEST PUSH3 0x5A6 DUP3 PUSH3 0x55B JUMP JUMPDEST DUP2 ADD DUP2 DUP2 LT PUSH8 0xFFFFFFFFFFFFFFFF DUP3 GT OR ISZERO PUSH3 0x5C8 JUMPI PUSH3 0x5C7 PUSH3 0x56C JUMP JUMPDEST JUMPDEST DUP1 PUSH1 0x40 MSTORE POP POP POP JUMP JUMPDEST PUSH1 0x0 PUSH3 0x5DD PUSH3 0x37C JUMP JUMPDEST SWAP1 POP PUSH3 0x5EB DUP3 DUP3 PUSH3 0x59B JUMP JUMPDEST SWAP2 SWAP1 POP JUMP JUMPDEST PUSH1 0x0 PUSH8 0xFFFFFFFFFFFFFFFF DUP3 GT ISZERO PUSH3 0x60E JUMPI PUSH3 0x60D PUSH3 0x56C JUMP JUMPDEST JUMPDEST PUSH3 0x619 DUP3 PUSH3 0x55B JUMP JUMPDEST SWAP1 POP PUSH1 0x20 DUP2 ADD SWAP1 POP SWAP2 SWAP1 POP JUMP JUMPDEST DUP3 DUP2 DUP4 CALLDATACOPY PUSH1 0x0 DUP4 DUP4 ADD MSTORE POP POP POP JUMP JUMPDEST PUSH1 0x0 PUSH3 0x64C PUSH3 0x646 DUP5 PUSH3 0x5F0 JUMP JUMPDEST PUSH3 0x5D1 JUMP JUMPDEST SWAP1 POP DUP3 DUP2 MSTORE PUSH1 0x20 DUP2 ADD DUP5 DUP5 DUP5 ADD GT ISZERO PUSH3 0x66B JUMPI PUSH3 0x66A PUSH3 0x556 JUMP JUMPDEST JUMPDEST PUSH3 0x678 DUP5 DUP3 DUP6 PUSH3 0x626 JUMP JUMPDEST POP SWAP4 SWAP3 POP POP POP JUMP JUMPDEST PUSH1 0x0 DUP3 PUSH1 0x1F DUP4 ADD SLT PUSH3 0x698 JUMPI PUSH3 0x697 PUSH3 0x551 JUMP JUMPDEST JUMPDEST DUP2 CALLDATALOAD PUSH3 0x6AA DUP5 DUP3 PUSH1 0x20 DUP7 ADD PUSH3 0x635 JUMP JUMPDEST SWAP2 POP POP SWAP3 SWAP2 POP POP JUMP JUMPDEST PUSH1 0x0 DUP1 PUSH1 0x0 DUP1 PUSH1 0x80 DUP6 DUP8 SUB SLT ISZERO PUSH3 0x6D0 JUMPI PUSH3 0x6CF PUSH3 0x386 JUMP JUMPDEST JUMPDEST PUSH1 0x0 PUSH3 0x6E0 DUP8 DUP3 DUP9 ADD PUSH3 0x3B4 JUMP JUMPDEST SWAP5 POP POP PUSH1 0x20 DUP6 ADD CALLDATALOAD PUSH8 0xFFFFFFFFFFFFFFFF DUP2 GT ISZERO PUSH3 0x704 JUMPI PUSH3 0x703 PUSH3 0x38B JUMP JUMPDEST JUMPDEST PUSH3 0x712 DUP8 DUP3 DUP9 ADD PUSH3 0x680 JUMP JUMPDEST SWAP4 POP POP PUSH1 0x40 DUP6 ADD CALLDATALOAD PUSH8 0xFFFFFFFFFFFFFFFF DUP2 GT ISZERO PUSH3 0x736 JUMPI PUSH3 0x735 PUSH3 0x38B JUMP JUMPDEST JUMPDEST PUSH3 0x744 DUP8 DUP3 DUP9 ADD PUSH3 0x680 JUMP JUMPDEST SWAP3 POP POP PUSH1 0x60 PUSH3 0x757 DUP8 DUP3 DUP9 ADD PUSH3 0x3B4 JUMP JUMPDEST SWAP2 POP POP SWAP3 SWAP6 SWAP2 SWAP5 POP SWAP3 POP JUMP JUMPDEST PUSH32 0x4E487B7100000000000000000000000000000000000000000000000000000000 PUSH1 0x0 MSTORE PUSH1 0x32 PUSH1 0x4 MSTORE PUSH1 0x24 PUSH1 0x0 REVERT JUMPDEST PUSH32 0x4E487B7100000000000000000000000000000000000000000000000000000000 PUSH1 0x0 MSTORE PUSH1 0x11 PUSH1 0x4 MSTORE PUSH1 0x24 PUSH1 0x0 REVERT JUMPDEST PUSH1 0x0 PUSH3 0x7CE DUP3 PUSH3 0x390 JUMP JUMPDEST SWAP2 POP PUSH32 0xFFFFFFFFFFFFFFFFFFFFFFFFFFFFFFFFFFFFFFFFFFFFFFFFFFFFFFFFFFFFFFFF DUP3 SUB PUSH3 0x803 JUMPI PUSH3 0x802 PUSH3 0x792 JUMP JUMPDEST JUMPDEST PUSH1 0x1 DUP3 ADD SWAP1 POP SWAP2 SWAP1 POP JUMP JUMPDEST PUSH1 0x0 PUSH3 0x81B DUP3 PUSH3 0x390 JUMP JUMPDEST SWAP2 POP PUSH3 0x828 DUP4 PUSH3 0x390 JUMP JUMPDEST SWAP3 POP DUP2 PUSH32 0xFFFFFFFFFFFFFFFFFFFFFFFFFFFFFFFFFFFFFFFFFFFFFFFFFFFFFFFFFFFFFFFF DIV DUP4 GT DUP3 ISZERO ISZERO AND ISZERO PUSH3 0x864 JUMPI PUSH3 0x863 PUSH3 0x792 JUMP JUMPDEST JUMPDEST DUP3 DUP3 MUL SWAP1 POP SWAP3 SWAP2 POP POP JUMP JUMPDEST PUSH1 0x0 PUSH3 0x87C DUP3 PUSH3 0x390 JUMP JUMPDEST SWAP2 POP PUSH3 0x889 DUP4 PUSH3 0x390 JUMP JUMPDEST SWAP3 POP DUP3 PUSH32 0xFFFFFFFFFFFFFFFFFFFFFFFFFFFFFFFFFFFFFFFFFFFFFFFFFFFFFFFFFFFFFFFF SUB DUP3 GT ISZERO PUSH3 0x8C1 JUMPI PUSH3 0x8C0 PUSH3 0x792 JUMP JUMPDEST JUMPDEST DUP3 DUP3 ADD SWAP1 POP SWAP3 SWAP2 POP POP JUMP JUMPDEST PUSH3 0x8D7 DUP2 PUSH3 0x390 JUMP JUMPDEST DUP3 MSTORE POP POP JUMP JUMPDEST PUSH1 0x0 DUP2 MLOAD SWAP1 POP SWAP2 SWAP1 POP JUMP JUMPDEST PUSH1 0x0 DUP3 DUP3 MSTORE PUSH1 0x20 DUP3 ADD SWAP1 POP SWAP3 SWAP2 POP POP JUMP JUMPDEST PUSH1 0x0 JUMPDEST DUP4 DUP2 LT ISZERO PUSH3 0x919 JUMPI DUP1 DUP3 ADD MLOAD DUP2 DUP5 ADD MSTORE PUSH1 0x20 DUP2 ADD SWAP1 POP PUSH3 0x8FC JUMP JUMPDEST DUP4 DUP2 GT ISZERO PUSH3 0x929 JUMPI PUSH1 0x0 DUP5 DUP5 ADD MSTORE JUMPDEST POP POP POP POP JUMP JUMPDEST PUSH1 0x0 PUSH3 0x93C DUP3 PUSH3 0x8DD JUMP JUMPDEST PUSH3 0x948 DUP2 DUP6 PUSH3 0x8E8 JUMP JUMPDEST SWAP4 POP PUSH3 0x95A DUP2 DUP6 PUSH1 0x20 DUP7 ADD PUSH3 0x8F9 JUMP JUMPDEST PUSH3 0x965 DUP2 PUSH3 0x55B JUMP JUMPDEST DUP5 ADD SWAP2 POP POP SWAP3 SWAP2 POP POP JUMP JUMPDEST PUSH1 0x0 PUSH3 0x97D DUP3 PUSH3 0x3FD JUMP JUMPDEST SWAP1 POP SWAP2 SWAP1 POP JUMP JUMPDEST PUSH3 0x98F DUP2 PUSH3 0x970 JUMP JUMPDEST DUP3 MSTORE POP POP JUMP JUMPDEST PUSH1 0x0 PUSH1 0xA0 DUP3 ADD SWAP1 POP PUSH3 0x9AC PUSH1 0x0 DUP4 ADD DUP9 PUSH3 0x8CC JUMP JUMPDEST DUP2 DUP2 SUB PUSH1 0x20 DUP4 ADD MSTORE PUSH3 0x9C0 DUP2 DUP8 PUSH3 0x92F JUMP JUMPDEST SWAP1 POP DUP2 DUP2 SUB PUSH1 0x40 DUP4 ADD MSTORE PUSH3 0x9D6 DUP2 DUP7 PUSH3 0x92F JUMP JUMPDEST SWAP1 POP PUSH3 0x9E7 PUSH1 0x60 DUP4 ADD DUP6 PUSH3 0x984 JUMP JUMPDEST PUSH3 0x9F6 PUSH1 0x80 DUP4 ADD DUP5 PUSH3 0x8CC JUMP JUMPDEST SWAP7 SWAP6 POP POP POP POP POP POP JUMP INVALID PUSH1 0x80 PUSH1 0x40 MSTORE CALLVALUE DUP1 ISZERO PUSH3 0x11 JUMPI PUSH1 0x0 DUP1 REVERT JUMPDEST POP PUSH1 0x40 MLOAD PUSH3 0x28A7 CODESIZE SUB DUP1 PUSH3 0x28A7 DUP4 CODECOPY DUP2 DUP2 ADD PUSH1 0x40 MSTORE DUP2 ADD SWAP1 PUSH3 0x37 SWAP2 SWAP1 PUSH3 0x30D JUMP JUMPDEST DUP2 PUSH1 0x1 PUSH1 0x0 PUSH2 0x100 EXP DUP2 SLOAD DUP2 PUSH20 0xFFFFFFFFFFFFFFFFFFFFFFFFFFFFFFFFFFFFFFFF MUL NOT AND SWAP1 DUP4 PUSH20 0xFFFFFFFFFFFFFFFFFFFFFFFFFFFFFFFFFFFFFFFF AND MUL OR SWAP1 SSTORE POP DUP5 PUSH1 0x2 DUP2 SWAP1 SSTORE POP DUP4 PUSH1 0x3 SWAP1 DUP2 PUSH3 0x90 SWAP2 SWAP1 PUSH3 0x614 JUMP JUMPDEST POP DUP3 PUSH1 0x4 SWAP1 DUP2 PUSH3 0xA2 SWAP2 SWAP1 PUSH3 0x614 JUMP JUMPDEST POP DUP1 PUSH1 0xB DUP2 SWAP1 SSTORE POP PUSH1 0x0 PUSH1 0xC PUSH1 0x0 PUSH2 0x100 EXP DUP2 SLOAD DUP2 PUSH1 0xFF MUL NOT AND SWAP1 DUP4 ISZERO ISZERO MUL OR SWAP1 SSTORE POP POP POP POP POP POP PUSH3 0x6FB JUMP JUMPDEST PUSH1 0x0 PUSH1 0x40 MLOAD SWAP1 POP SWAP1 JUMP JUMPDEST PUSH1 0x0 DUP1 REVERT JUMPDEST PUSH1 0x0 DUP1 REVERT JUMPDEST PUSH1 0x0 DUP2 SWAP1 POP SWAP2 SWAP1 POP JUMP JUMPDEST PUSH3 0xF9 DUP2 PUSH3 0xE4 JUMP JUMPDEST DUP2 EQ PUSH3 0x105 JUMPI PUSH1 0x0 DUP1 REVERT JUMPDEST POP JUMP JUMPDEST PUSH1 0x0 DUP2 MLOAD SWAP1 POP PUSH3 0x119 DUP2 PUSH3 0xEE JUMP JUMPDEST SWAP3 SWAP2 POP POP JUMP JUMPDEST PUSH1 0x0 DUP1 REVERT JUMPDEST PUSH1 0x0 DUP1 REVERT JUMPDEST PUSH1 0x0 PUSH1 0x1F NOT PUSH1 0x1F DUP4 ADD AND SWAP1 POP SWAP2 SWAP1 POP JUMP JUMPDEST PUSH32 0x4E487B7100000000000000000000000000000000000000000000000000000000 PUSH1 0x0 MSTORE PUSH1 0x41 PUSH1 0x4 MSTORE PUSH1 0x24 PUSH1 0x0 REVERT JUMPDEST PUSH3 0x174 DUP3 PUSH3 0x129 JUMP JUMPDEST DUP2 ADD DUP2 DUP2 LT PUSH8 0xFFFFFFFFFFFFFFFF DUP3 GT OR ISZERO PUSH3 0x196 JUMPI PUSH3 0x195 PUSH3 0x13A JUMP JUMPDEST JUMPDEST DUP1 PUSH1 0x40 MSTORE POP POP POP JUMP JUMPDEST PUSH1 0x0 PUSH3 0x1AB PUSH3 0xD0 JUMP JUMPDEST SWAP1 POP PUSH3 0x1B9 DUP3 DUP3 PUSH3 0x169 JUMP JUMPDEST SWAP2 SWAP1 POP JUMP JUMPDEST PUSH1 0x0 PUSH8 0xFFFFFFFFFFFFFFFF DUP3 GT ISZERO PUSH3 0x1DC JUMPI PUSH3 0x1DB PUSH3 0x13A JUMP JUMPDEST JUMPDEST PUSH3 0x1E7 DUP3 PUSH3 0x129 JUMP JUMPDEST SWAP1 POP PUSH1 0x20 DUP2 ADD SWAP1 POP SWAP2 SWAP1 POP JUMP JUMPDEST PUSH1 0x0 JUMPDEST DUP4 DUP2 LT ISZERO PUSH3 0x214 JUMPI DUP1 DUP3 ADD MLOAD DUP2 DUP5 ADD MSTORE PUSH1 0x20 DUP2 ADD SWAP1 POP PUSH3 0x1F7 JUMP JUMPDEST DUP4 DUP2 GT ISZERO PUSH3 0x224 JUMPI PUSH1 0x0 DUP5 DUP5 ADD MSTORE JUMPDEST POP POP POP POP JUMP JUMPDEST PUSH1 0x0 PUSH3 0x241 PUSH3 0x23B DUP5 PUSH3 0x1BE JUMP JUMPDEST PUSH3 0x19F JUMP JUMPDEST SWAP1 POP DUP3 DUP2 MSTORE PUSH1 0x20 DUP2 ADD DUP5 DUP5 DUP5 ADD GT ISZERO PUSH3 0x260 JUMPI PUSH3 0x25F PUSH3 0x124 JUMP JUMPDEST JUMPDEST PUSH3 0x26D DUP5 DUP3 DUP6 PUSH3 0x1F4 JUMP JUMPDEST POP SWAP4 SWAP3 POP POP POP JUMP JUMPDEST PUSH1 0x0 DUP3 PUSH1 0x1F DUP4 ADD SLT PUSH3 0x28D JUMPI PUSH3 0x28C PUSH3 0x11F JUMP JUMPDEST JUMPDEST DUP2 MLOAD PUSH3 0x29F DUP5 DUP3 PUSH1 0x20 DUP7 ADD PUSH3 0x22A JUMP JUMPDEST SWAP2 POP POP SWAP3 SWAP2 POP POP JUMP JUMPDEST PUSH1 0x0 PUSH20 0xFFFFFFFFFFFFFFFFFFFFFFFFFFFFFFFFFFFFFFFF DUP3 AND SWAP1 POP SWAP2 SWAP1 POP JUMP JUMPDEST PUSH1 0x0 PUSH3 0x2D5 DUP3 PUSH3 0x2A8 JUMP JUMPDEST SWAP1 POP SWAP2 SWAP1 POP JUMP JUMPDEST PUSH3 0x2E7 DUP2 PUSH3 0x2C8 JUMP JUMPDEST DUP2 EQ PUSH3 0x2F3 JUMPI PUSH1 0x0 DUP1 REVERT JUMPDEST POP JUMP JUMPDEST PUSH1 0x0 DUP2 MLOAD SWAP1 POP PUSH3 0x307 DUP2 PUSH3 0x2DC JUMP JUMPDEST SWAP3 SWAP2 POP POP JUMP JUMPDEST PUSH1 0x0 DUP1 PUSH1 0x0 DUP1 PUSH1 0x0 PUSH1 0xA0 DUP7 DUP9 SUB SLT ISZERO PUSH3 0x32C JUMPI PUSH3 0x32B PUSH3 0xDA JUMP JUMPDEST JUMPDEST PUSH1 0x0 PUSH3 0x33C DUP9 DUP3 DUP10 ADD PUSH3 0x108 JUMP JUMPDEST SWAP6 POP POP PUSH1 0x20 DUP7 ADD MLOAD PUSH8 0xFFFFFFFFFFFFFFFF DUP2 GT ISZERO PUSH3 0x360 JUMPI PUSH3 0x35F PUSH3 0xDF JUMP JUMPDEST JUMPDEST PUSH3 0x36E DUP9 DUP3 DUP10 ADD PUSH3 0x275 JUMP JUMPDEST SWAP5 POP POP PUSH1 0x40 DUP7 ADD MLOAD PUSH8 0xFFFFFFFFFFFFFFFF DUP2 GT ISZERO PUSH3 0x392 JUMPI PUSH3 0x391 PUSH3 0xDF JUMP JUMPDEST JUMPDEST PUSH3 0x3A0 DUP9 DUP3 DUP10 ADD PUSH3 0x275 JUMP JUMPDEST SWAP4 POP POP PUSH1 0x60 PUSH3 0x3B3 DUP9 DUP3 DUP10 ADD PUSH3 0x2F6 JUMP JUMPDEST SWAP3 POP POP PUSH1 0x80 PUSH3 0x3C6 DUP9 DUP3 DUP10 ADD PUSH3 0x108 JUMP JUMPDEST SWAP2 POP POP SWAP3 SWAP6 POP SWAP3 SWAP6 SWAP1 SWAP4 POP JUMP JUMPDEST PUSH1 0x0 DUP2 MLOAD SWAP1 POP SWAP2 SWAP1 POP JUMP JUMPDEST PUSH32 0x4E487B7100000000000000000000000000000000000000000000000000000000 PUSH1 0x0 MSTORE PUSH1 0x22 PUSH1 0x4 MSTORE PUSH1 0x24 PUSH1 0x0 REVERT JUMPDEST PUSH1 0x0 PUSH1 0x2 DUP3 DIV SWAP1 POP PUSH1 0x1 DUP3 AND DUP1 PUSH3 0x426 JUMPI PUSH1 0x7F DUP3 AND SWAP2 POP JUMPDEST PUSH1 0x20 DUP3 LT DUP2 SUB PUSH3 0x43C JUMPI PUSH3 0x43B PUSH3 0x3DE JUMP JUMPDEST JUMPDEST POP SWAP2 SWAP1 POP JUMP JUMPDEST PUSH1 0x0 DUP2 SWAP1 POP DUP2 PUSH1 0x0 MSTORE PUSH1 0x20 PUSH1 0x0 KECCAK256 SWAP1 POP SWAP2 SWAP1 POP JUMP JUMPDEST PUSH1 0x0 PUSH1 0x20 PUSH1 0x1F DUP4 ADD DIV SWAP1 POP SWAP2 SWAP1 POP JUMP JUMPDEST PUSH1 0x0 DUP3 DUP3 SHL SWAP1 POP SWAP3 SWAP2 POP POP JUMP JUMPDEST PUSH1 0x0 PUSH1 0x8 DUP4 MUL PUSH3 0x4A6 PUSH32 0xFFFFFFFFFFFFFFFFFFFFFFFFFFFFFFFFFFFFFFFFFFFFFFFFFFFFFFFFFFFFFFFF DUP3 PUSH3 0x467 JUMP JUMPDEST PUSH3 0x4B2 DUP7 DUP4 PUSH3 0x467 JUMP JUMPDEST SWAP6 POP DUP1 NOT DUP5 AND SWAP4 POP DUP1 DUP7 AND DUP5 OR SWAP3 POP POP POP SWAP4 SWAP3 POP POP POP JUMP JUMPDEST PUSH1 0x0 DUP2 SWAP1 POP SWAP2 SWAP1 POP JUMP JUMPDEST PUSH1 0x0 PUSH3 0x4F5 PUSH3 0x4EF PUSH3 0x4E9 DUP5 PUSH3 0xE4 JUMP JUMPDEST PUSH3 0x4CA JUMP JUMPDEST PUSH3 0xE4 JUMP JUMPDEST SWAP1 POP SWAP2 SWAP1 POP JUMP JUMPDEST PUSH1 0x0 DUP2 SWAP1 POP SWAP2 SWAP1 POP JUMP JUMPDEST PUSH3 0x511 DUP4 PUSH3 0x4D4 JUMP JUMPDEST PUSH3 0x529 PUSH3 0x520 DUP3 PUSH3 0x4FC JUMP JUMPDEST DUP5 DUP5 SLOAD PUSH3 0x474 JUMP JUMPDEST DUP3 SSTORE POP POP POP POP JUMP JUMPDEST PUSH1 0x0 SWAP1 JUMP JUMPDEST PUSH3 0x540 PUSH3 0x531 JUMP JUMPDEST PUSH3 0x54D DUP2 DUP5 DUP5 PUSH3 0x506 JUMP JUMPDEST POP POP POP JUMP JUMPDEST JUMPDEST DUP2 DUP2 LT ISZERO PUSH3 0x575 JUMPI PUSH3 0x569 PUSH1 0x0 DUP3 PUSH3 0x536 JUMP JUMPDEST PUSH1 0x1 DUP2 ADD SWAP1 POP PUSH3 0x553 JUMP JUMPDEST POP POP JUMP JUMPDEST PUSH1 0x1F DUP3 GT ISZERO PUSH3 0x5C4 JUMPI PUSH3 0x58E DUP2 PUSH3 0x442 JUMP JUMPDEST PUSH3 0x599 DUP5 PUSH3 0x457 JUMP JUMPDEST DUP2 ADD PUSH1 0x20 DUP6 LT ISZERO PUSH3 0x5A9 JUMPI DUP2 SWAP1 POP JUMPDEST PUSH3 0x5C1 PUSH3 0x5B8 DUP6 PUSH3 0x457 JUMP JUMPDEST DUP4 ADD DUP3 PUSH3 0x552 JUMP JUMPDEST POP POP JUMPDEST POP POP POP JUMP JUMPDEST PUSH1 0x0 DUP3 DUP3 SHR SWAP1 POP SWAP3 SWAP2 POP POP JUMP JUMPDEST PUSH1 0x0 PUSH3 0x5E9 PUSH1 0x0 NOT DUP5 PUSH1 0x8 MUL PUSH3 0x5C9 JUMP JUMPDEST NOT DUP1 DUP4 AND SWAP2 POP POP SWAP3 SWAP2 POP POP JUMP JUMPDEST PUSH1 0x0 PUSH3 0x604 DUP4 DUP4 PUSH3 0x5D6 JUMP JUMPDEST SWAP2 POP DUP3 PUSH1 0x2 MUL DUP3 OR SWAP1 POP SWAP3 SWAP2 POP POP JUMP JUMPDEST PUSH3 0x61F DUP3 PUSH3 0x3D3 JUMP JUMPDEST PUSH8 0xFFFFFFFFFFFFFFFF DUP2 GT ISZERO PUSH3 0x63B JUMPI PUSH3 0x63A PUSH3 0x13A JUMP JUMPDEST JUMPDEST PUSH3 0x647 DUP3 SLOAD PUSH3 0x40D JUMP JUMPDEST PUSH3 0x654 DUP3 DUP3 DUP6 PUSH3 0x579 JUMP JUMPDEST PUSH1 0x0 PUSH1 0x20 SWAP1 POP PUSH1 0x1F DUP4 GT PUSH1 0x1 DUP2 EQ PUSH3 0x68C JUMPI PUSH1 0x0 DUP5 ISZERO PUSH3 0x677 JUMPI DUP3 DUP8 ADD MLOAD SWAP1 POP JUMPDEST PUSH3 0x683 DUP6 DUP3 PUSH3 0x5F6 JUMP JUMPDEST DUP7 SSTORE POP PUSH3 0x6F3 JUMP JUMPDEST PUSH1 0x1F NOT DUP5 AND PUSH3 0x69C DUP7 PUSH3 0x442 JUMP JUMPDEST PUSH1 0x0 JUMPDEST DUP3 DUP2 LT ISZERO PUSH3 0x6C6 JUMPI DUP5 DUP10 ADD MLOAD DUP3 SSTORE PUSH1 0x1 DUP3 ADD SWAP2 POP PUSH1 0x20 DUP6 ADD SWAP5 POP PUSH1 0x20 DUP2 ADD SWAP1 POP PUSH3 0x69F JUMP JUMPDEST DUP7 DUP4 LT ISZERO PUSH3 0x6E6 JUMPI DUP5 DUP10 ADD MLOAD PUSH3 0x6E2 PUSH1 0x1F DUP10 AND DUP3 PUSH3 0x5D6 JUMP JUMPDEST DUP4 SSTORE POP JUMPDEST PUSH1 0x1 PUSH1 0x2 DUP9 MUL ADD DUP9 SSTORE POP POP POP JUMPDEST POP POP POP POP POP POP JUMP JUMPDEST PUSH2 0x219C DUP1 PUSH3 0x70B PUSH1 0x0 CODECOPY PUSH1 0x0 RETURN INVALID PUSH1 0x80 PUSH1 0x40 MSTORE PUSH1 0x4 CALLDATASIZE LT PUSH2 0x140 JUMPI PUSH1 0x0 CALLDATALOAD PUSH1 0xE0 SHR DUP1 PUSH4 0x82FDE093 GT PUSH2 0xB6 JUMPI DUP1 PUSH4 0x9ACE38C2 GT PUSH2 0x6F JUMPI DUP1 PUSH4 0x9ACE38C2 EQ PUSH2 0x44E JUMPI DUP1 PUSH4 0xA39FAC12 EQ PUSH2 0x48D JUMPI DUP1 PUSH4 0xC8B342AB EQ PUSH2 0x4B8 JUMPI DUP1 PUSH4 0xD57BDE79 EQ PUSH2 0x4F5 JUMPI DUP1 PUSH4 0xD7BB99BA EQ PUSH2 0x520 JUMPI DUP1 PUSH4 0xEDF26D9B EQ PUSH2 0x52A JUMPI PUSH2 0x140 JUMP JUMPDEST DUP1 PUSH4 0x82FDE093 EQ PUSH2 0x35B JUMPI DUP1 PUSH4 0x83920E90 EQ PUSH2 0x386 JUMPI DUP1 PUSH4 0x8D2A1DAD EQ PUSH2 0x3B1 JUMPI DUP1 PUSH4 0x91F90157 EQ PUSH2 0x3BB JUMPI DUP1 PUSH4 0x937E09B1 EQ PUSH2 0x3E6 JUMPI DUP1 PUSH4 0x94073C25 EQ PUSH2 0x411 JUMPI PUSH2 0x140 JUMP JUMPDEST DUP1 PUSH4 0x4E69D560 GT PUSH2 0x108 JUMPI DUP1 PUSH4 0x4E69D560 EQ PUSH2 0x249 JUMPI DUP1 PUSH4 0x4EDE3648 EQ PUSH2 0x274 JUMPI DUP1 PUSH4 0x58D65629 EQ PUSH2 0x29D JUMPI DUP1 PUSH4 0x597E1FB5 EQ PUSH2 0x2C8 JUMPI DUP1 PUSH4 0x7B87D856 EQ PUSH2 0x2F3 JUMPI DUP1 PUSH4 0x7E06EB7D EQ PUSH2 0x31E JUMPI PUSH2 0x140 JUMP JUMPDEST DUP1 PUSH4 0xA144391 EQ PUSH2 0x145 JUMPI DUP1 PUSH4 0x2EBC9A3E EQ PUSH2 0x182 JUMPI DUP1 PUSH4 0x3197CBB6 EQ PUSH2 0x1BF JUMPI DUP1 PUSH4 0x4051DDAC EQ PUSH2 0x1EA JUMPI DUP1 PUSH4 0x481C6A75 EQ PUSH2 0x21E JUMPI JUMPDEST PUSH1 0x0 DUP1 REVERT JUMPDEST CALLVALUE DUP1 ISZERO PUSH2 0x151 JUMPI PUSH1 0x0 DUP1 REVERT JUMPDEST POP PUSH2 0x16C PUSH1 0x4 DUP1 CALLDATASIZE SUB DUP2 ADD SWAP1 PUSH2 0x167 SWAP2 SWAP1 PUSH2 0x168B JUMP JUMPDEST PUSH2 0x567 JUMP JUMPDEST PUSH1 0x40 MLOAD PUSH2 0x179 SWAP2 SWAP1 PUSH2 0x16D3 JUMP JUMPDEST PUSH1 0x40 MLOAD DUP1 SWAP2 SUB SWAP1 RETURN JUMPDEST CALLVALUE DUP1 ISZERO PUSH2 0x18E JUMPI PUSH1 0x0 DUP1 REVERT JUMPDEST POP PUSH2 0x1A9 PUSH1 0x4 DUP1 CALLDATASIZE SUB DUP2 ADD SWAP1 PUSH2 0x1A4 SWAP2 SWAP1 PUSH2 0x168B JUMP JUMPDEST PUSH2 0x587 JUMP JUMPDEST PUSH1 0x40 MLOAD PUSH2 0x1B6 SWAP2 SWAP1 PUSH2 0x1707 JUMP JUMPDEST PUSH1 0x40 MLOAD DUP1 SWAP2 SUB SWAP1 RETURN JUMPDEST CALLVALUE DUP1 ISZERO PUSH2 0x1CB JUMPI PUSH1 0x0 DUP1 REVERT JUMPDEST POP PUSH2 0x1D4 PUSH2 0x59F JUMP JUMPDEST PUSH1 0x40 MLOAD PUSH2 0x1E1 SWAP2 SWAP1 PUSH2 0x1707 JUMP JUMPDEST PUSH1 0x40 MLOAD DUP1 SWAP2 SUB SWAP1 RETURN JUMPDEST CALLVALUE DUP1 ISZERO PUSH2 0x1F6 JUMPI PUSH1 0x0 DUP1 REVERT JUMPDEST POP PUSH2 0x1FF PUSH2 0x5A5 JUMP JUMPDEST PUSH1 0x40 MLOAD PUSH2 0x215 SWAP11 SWAP10 SWAP9 SWAP8 SWAP7 SWAP6 SWAP5 SWAP4 SWAP3 SWAP2 SWAP1 PUSH2 0x1888 JUMP JUMPDEST PUSH1 0x40 MLOAD DUP1 SWAP2 SUB SWAP1 RETURN JUMPDEST CALLVALUE DUP1 ISZERO PUSH2 0x22A JUMPI PUSH1 0x0 DUP1 REVERT JUMPDEST POP PUSH2 0x233 PUSH2 0x7CE JUMP JUMPDEST PUSH1 0x40 MLOAD PUSH2 0x240 SWAP2 SWAP1 PUSH2 0x1939 JUMP JUMPDEST PUSH1 0x40 MLOAD DUP1 SWAP2 SUB SWAP1 RETURN JUMPDEST CALLVALUE DUP1 ISZERO PUSH2 0x255 JUMPI PUSH1 0x0 DUP1 REVERT JUMPDEST POP PUSH2 0x25E PUSH2 0x7F4 JUMP JUMPDEST PUSH1 0x40 MLOAD PUSH2 0x26B SWAP2 SWAP1 PUSH2 0x16D3 JUMP JUMPDEST PUSH1 0x40 MLOAD DUP1 SWAP2 SUB SWAP1 RETURN JUMPDEST CALLVALUE DUP1 ISZERO PUSH2 0x280 JUMPI PUSH1 0x0 DUP1 REVERT JUMPDEST POP PUSH2 0x29B PUSH1 0x4 DUP1 CALLDATASIZE SUB DUP2 ADD SWAP1 PUSH2 0x296 SWAP2 SWAP1 PUSH2 0x1992 JUMP JUMPDEST PUSH2 0x80B JUMP JUMPDEST STOP JUMPDEST CALLVALUE DUP1 ISZERO PUSH2 0x2A9 JUMPI PUSH1 0x0 DUP1 REVERT JUMPDEST POP PUSH2 0x2B2 PUSH2 0x8F4 JUMP JUMPDEST PUSH1 0x40 MLOAD PUSH2 0x2BF SWAP2 SWAP1 PUSH2 0x19BF JUMP JUMPDEST PUSH1 0x40 MLOAD DUP1 SWAP2 SUB SWAP1 RETURN JUMPDEST CALLVALUE DUP1 ISZERO PUSH2 0x2D4 JUMPI PUSH1 0x0 DUP1 REVERT JUMPDEST POP PUSH2 0x2DD PUSH2 0x982 JUMP JUMPDEST PUSH1 0x40 MLOAD PUSH2 0x2EA SWAP2 SWAP1 PUSH2 0x16D3 JUMP JUMPDEST PUSH1 0x40 MLOAD DUP1 SWAP2 SUB SWAP1 RETURN JUMPDEST CALLVALUE DUP1 ISZERO PUSH2 0x2FF JUMPI PUSH1 0x0 DUP1 REVERT JUMPDEST POP PUSH2 0x308 PUSH2 0x995 JUMP JUMPDEST PUSH1 0x40 MLOAD PUSH2 0x315 SWAP2 SWAP1 PUSH2 0x19BF JUMP JUMPDEST PUSH1 0x40 MLOAD DUP1 SWAP2 SUB SWAP1 RETURN JUMPDEST CALLVALUE DUP1 ISZERO PUSH2 0x32A JUMPI PUSH1 0x0 DUP1 REVERT JUMPDEST POP PUSH2 0x345 PUSH1 0x4 DUP1 CALLDATASIZE SUB DUP2 ADD SWAP1 PUSH2 0x340 SWAP2 SWAP1 PUSH2 0x19E1 JUMP JUMPDEST PUSH2 0xA23 JUMP JUMPDEST PUSH1 0x40 MLOAD PUSH2 0x352 SWAP2 SWAP1 PUSH2 0x16D3 JUMP JUMPDEST PUSH1 0x40 MLOAD DUP1 SWAP2 SUB SWAP1 RETURN JUMPDEST CALLVALUE DUP1 ISZERO PUSH2 0x367 JUMPI PUSH1 0x0 DUP1 REVERT JUMPDEST POP PUSH2 0x370 PUSH2 0xA6C JUMP JUMPDEST PUSH1 0x40 MLOAD PUSH2 0x37D SWAP2 SWAP1 PUSH2 0x1707 JUMP JUMPDEST PUSH1 0x40 MLOAD DUP1 SWAP2 SUB SWAP1 RETURN JUMPDEST CALLVALUE DUP1 ISZERO PUSH2 0x392 JUMPI PUSH1 0x0 DUP1 REVERT JUMPDEST POP PUSH2 0x39B PUSH2 0xA72 JUMP JUMPDEST PUSH1 0x40 MLOAD PUSH2 0x3A8 SWAP2 SWAP1 PUSH2 0x1B21 JUMP JUMPDEST PUSH1 0x40 MLOAD DUP1 SWAP2 SUB SWAP1 RETURN JUMPDEST PUSH2 0x3B9 PUSH2 0xB3B JUMP JUMPDEST STOP JUMPDEST CALLVALUE DUP1 ISZERO PUSH2 0x3C7 JUMPI PUSH1 0x0 DUP1 REVERT JUMPDEST POP PUSH2 0x3D0 PUSH2 0xE9C JUMP JUMPDEST PUSH1 0x40 MLOAD PUSH2 0x3DD SWAP2 SWAP1 PUSH2 0x1939 JUMP JUMPDEST PUSH1 0x40 MLOAD DUP1 SWAP2 SUB SWAP1 RETURN JUMPDEST CALLVALUE DUP1 ISZERO PUSH2 0x3F2 JUMPI PUSH1 0x0 DUP1 REVERT JUMPDEST POP PUSH2 0x3FB PUSH2 0xEC2 JUMP JUMPDEST PUSH1 0x40 MLOAD PUSH2 0x408 SWAP2 SWAP1 PUSH2 0x1707 JUMP JUMPDEST PUSH1 0x40 MLOAD DUP1 SWAP2 SUB SWAP1 RETURN JUMPDEST CALLVALUE DUP1 ISZERO PUSH2 0x41D JUMPI PUSH1 0x0 DUP1 REVERT JUMPDEST POP PUSH2 0x438 PUSH1 0x4 DUP1 CALLDATASIZE SUB DUP2 ADD SWAP1 PUSH2 0x433 SWAP2 SWAP1 PUSH2 0x168B JUMP JUMPDEST PUSH2 0xEC8 JUMP JUMPDEST PUSH1 0x40 MLOAD PUSH2 0x445 SWAP2 SWAP1 PUSH2 0x1939 JUMP JUMPDEST PUSH1 0x40 MLOAD DUP1 SWAP2 SUB SWAP1 RETURN JUMPDEST CALLVALUE DUP1 ISZERO PUSH2 0x45A JUMPI PUSH1 0x0 DUP1 REVERT JUMPDEST POP PUSH2 0x475 PUSH1 0x4 DUP1 CALLDATASIZE SUB DUP2 ADD SWAP1 PUSH2 0x470 SWAP2 SWAP1 PUSH2 0x1B6F JUMP JUMPDEST PUSH2 0xF95 JUMP JUMPDEST PUSH1 0x40 MLOAD PUSH2 0x484 SWAP4 SWAP3 SWAP2 SWAP1 PUSH2 0x1B9C JUMP JUMPDEST PUSH1 0x40 MLOAD DUP1 SWAP2 SUB SWAP1 RETURN JUMPDEST CALLVALUE DUP1 ISZERO PUSH2 0x499 JUMPI PUSH1 0x0 DUP1 REVERT JUMPDEST POP PUSH2 0x4A2 PUSH2 0xFEF JUMP JUMPDEST PUSH1 0x40 MLOAD PUSH2 0x4AF SWAP2 SWAP1 PUSH2 0x1BD3 JUMP JUMPDEST PUSH1 0x40 MLOAD DUP1 SWAP2 SUB SWAP1 RETURN JUMPDEST CALLVALUE DUP1 ISZERO PUSH2 0x4C4 JUMPI PUSH1 0x0 DUP1 REVERT JUMPDEST POP PUSH2 0x4DF PUSH1 0x4 DUP1 CALLDATASIZE SUB DUP2 ADD SWAP1 PUSH2 0x4DA SWAP2 SWAP1 PUSH2 0x168B JUMP JUMPDEST PUSH2 0x107D JUMP JUMPDEST PUSH1 0x40 MLOAD PUSH2 0x4EC SWAP2 SWAP1 PUSH2 0x1707 JUMP JUMPDEST PUSH1 0x40 MLOAD DUP1 SWAP2 SUB SWAP1 RETURN JUMPDEST CALLVALUE DUP1 ISZERO PUSH2 0x501 JUMPI PUSH1 0x0 DUP1 REVERT JUMPDEST POP PUSH2 0x50A PUSH2 0x1117 JUMP JUMPDEST PUSH1 0x40 MLOAD PUSH2 0x517 SWAP2 SWAP1 PUSH2 0x1707 JUMP JUMPDEST PUSH1 0x40 MLOAD DUP1 SWAP2 SUB SWAP1 RETURN JUMPDEST PUSH2 0x528 PUSH2 0x111D JUMP JUMPDEST STOP JUMPDEST CALLVALUE DUP1 ISZERO PUSH2 0x536 JUMPI PUSH1 0x0 DUP1 REVERT JUMPDEST POP PUSH2 0x551 PUSH1 0x4 DUP1 CALLDATASIZE SUB DUP2 ADD SWAP1 PUSH2 0x54C SWAP2 SWAP1 PUSH2 0x1B6F JUMP JUMPDEST PUSH2 0x15E9 JUMP JUMPDEST PUSH1 0x40 MLOAD PUSH2 0x55E SWAP2 SWAP1 PUSH2 0x1939 JUMP JUMPDEST PUSH1 0x40 MLOAD DUP1 SWAP2 SUB SWAP1 RETURN JUMPDEST PUSH1 0x5 PUSH1 0x20 MSTORE DUP1 PUSH1 0x0 MSTORE PUSH1 0x40 PUSH1 0x0 KECCAK256 PUSH1 0x0 SWAP2 POP SLOAD SWAP1 PUSH2 0x100 EXP SWAP1 DIV PUSH1 0xFF AND DUP2 JUMP JUMPDEST PUSH1 0x6 PUSH1 0x20 MSTORE DUP1 PUSH1 0x0 MSTORE PUSH1 0x40 PUSH1 0x0 KECCAK256 PUSH1 0x0 SWAP2 POP SWAP1 POP SLOAD DUP2 JUMP JUMPDEST PUSH1 0xB SLOAD DUP2 JUMP JUMPDEST PUSH1 0x0 DUP1 PUSH1 0x0 DUP1 PUSH1 0x0 PUSH1 0x60 DUP1 PUSH1 0x0 DUP1 PUSH1 0x60 PUSH1 0x2 SLOAD SELFBALANCE PUSH1 0x7 SLOAD PUSH1 0x1 PUSH1 0x0 SWAP1 SLOAD SWAP1 PUSH2 0x100 EXP SWAP1 DIV PUSH20 0xFFFFFFFFFFFFFFFFFFFFFFFFFFFFFFFFFFFFFFFF AND PUSH1 0xA SLOAD PUSH1 0x3 PUSH1 0x4 PUSH1 0xB SLOAD PUSH1 0x9 PUSH1 0x0 SWAP1 SLOAD SWAP1 PUSH2 0x100 EXP SWAP1 DIV PUSH20 0xFFFFFFFFFFFFFFFFFFFFFFFFFFFFFFFFFFFFFFFF AND PUSH1 0x8 DUP5 DUP1 SLOAD PUSH2 0x61A SWAP1 PUSH2 0x1C24 JUMP JUMPDEST DUP1 PUSH1 0x1F ADD PUSH1 0x20 DUP1 SWAP2 DIV MUL PUSH1 0x20 ADD PUSH1 0x40 MLOAD SWAP1 DUP2 ADD PUSH1 0x40 MSTORE DUP1 SWAP3 SWAP2 SWAP1 DUP2 DUP2 MSTORE PUSH1 0x20 ADD DUP3 DUP1 SLOAD PUSH2 0x646 SWAP1 PUSH2 0x1C24 JUMP JUMPDEST DUP1 ISZERO PUSH2 0x693 JUMPI DUP1 PUSH1 0x1F LT PUSH2 0x668 JUMPI PUSH2 0x100 DUP1 DUP4 SLOAD DIV MUL DUP4 MSTORE SWAP2 PUSH1 0x20 ADD SWAP2 PUSH2 0x693 JUMP JUMPDEST DUP3 ADD SWAP2 SWAP1 PUSH1 0x0 MSTORE PUSH1 0x20 PUSH1 0x0 KECCAK256 SWAP1 JUMPDEST DUP2 SLOAD DUP2 MSTORE SWAP1 PUSH1 0x1 ADD SWAP1 PUSH1 0x20 ADD DUP1 DUP4 GT PUSH2 0x676 JUMPI DUP3 SWAP1 SUB PUSH1 0x1F AND DUP3 ADD SWAP2 JUMPDEST POP POP POP POP POP SWAP5 POP DUP4 DUP1 SLOAD PUSH2 0x6A6 SWAP1 PUSH2 0x1C24 JUMP JUMPDEST DUP1 PUSH1 0x1F ADD PUSH1 0x20 DUP1 SWAP2 DIV MUL PUSH1 0x20 ADD PUSH1 0x40 MLOAD SWAP1 DUP2 ADD PUSH1 0x40 MSTORE DUP1 SWAP3 SWAP2 SWAP1 DUP2 DUP2 MSTORE PUSH1 0x20 ADD DUP3 DUP1 SLOAD PUSH2 0x6D2 SWAP1 PUSH2 0x1C24 JUMP JUMPDEST DUP1 ISZERO PUSH2 0x71F JUMPI DUP1 PUSH1 0x1F LT PUSH2 0x6F4 JUMPI PUSH2 0x100 DUP1 DUP4 SLOAD DIV MUL DUP4 MSTORE SWAP2 PUSH1 0x20 ADD SWAP2 PUSH2 0x71F JUMP JUMPDEST DUP3 ADD SWAP2 SWAP1 PUSH1 0x0 MSTORE PUSH1 0x20 PUSH1 0x0 KECCAK256 SWAP1 JUMPDEST DUP2 SLOAD DUP2 MSTORE SWAP1 PUSH1 0x1 ADD SWAP1 PUSH1 0x20 ADD DUP1 DUP4 GT PUSH2 0x702 JUMPI DUP3 SWAP1 SUB PUSH1 0x1F AND DUP3 ADD SWAP2 JUMPDEST POP POP POP POP POP SWAP4 POP DUP1 DUP1 SLOAD DUP1 PUSH1 0x20 MUL PUSH1 0x20 ADD PUSH1 0x40 MLOAD SWAP1 DUP2 ADD PUSH1 0x40 MSTORE DUP1 SWAP3 SWAP2 SWAP1 DUP2 DUP2 MSTORE PUSH1 0x20 ADD DUP3 DUP1 SLOAD DUP1 ISZERO PUSH2 0x7A7 JUMPI PUSH1 0x20 MUL DUP3 ADD SWAP2 SWAP1 PUSH1 0x0 MSTORE PUSH1 0x20 PUSH1 0x0 KECCAK256 SWAP1 JUMPDEST DUP2 PUSH1 0x0 SWAP1 SLOAD SWAP1 PUSH2 0x100 EXP SWAP1 DIV PUSH20 0xFFFFFFFFFFFFFFFFFFFFFFFFFFFFFFFFFFFFFFFF AND PUSH20 0xFFFFFFFFFFFFFFFFFFFFFFFFFFFFFFFFFFFFFFFF AND DUP2 MSTORE PUSH1 0x20 ADD SWAP1 PUSH1 0x1 ADD SWAP1 DUP1 DUP4 GT PUSH2 0x75D JUMPI JUMPDEST POP POP POP POP POP SWAP1 POP SWAP10 POP SWAP10 POP SWAP10 POP SWAP10 POP SWAP10 POP SWAP10 POP SWAP10 POP SWAP10 POP SWAP10 POP SWAP10 POP SWAP1 SWAP2 SWAP3 SWAP4 SWAP5 SWAP6 SWAP7 SWAP8 SWAP9 SWAP10 JUMP JUMPDEST PUSH1 0x1 PUSH1 0x0 SWAP1 SLOAD SWAP1 PUSH2 0x100 EXP SWAP1 DIV PUSH20 0xFFFFFFFFFFFFFFFFFFFFFFFFFFFFFFFFFFFFFFFF AND DUP2 JUMP JUMPDEST PUSH1 0x0 PUSH1 0xC PUSH1 0x0 SWAP1 SLOAD SWAP1 PUSH2 0x100 EXP SWAP1 DIV PUSH1 0xFF AND SWAP1 POP SWAP1 JUMP JUMPDEST DUP1 PUSH20 0xFFFFFFFFFFFFFFFFFFFFFFFFFFFFFFFFFFFFFFFF AND PUSH2 0x8FC PUSH1 0x6 PUSH1 0x0 DUP5 PUSH20 0xFFFFFFFFFFFFFFFFFFFFFFFFFFFFFFFFFFFFFFFF AND PUSH20 0xFFFFFFFFFFFFFFFFFFFFFFFFFFFFFFFFFFFFFFFF AND DUP2 MSTORE PUSH1 0x20 ADD SWAP1 DUP2 MSTORE PUSH1 0x20 ADD PUSH1 0x0 KECCAK256 SLOAD SWAP1 DUP2 ISZERO MUL SWAP1 PUSH1 0x40 MLOAD PUSH1 0x0 PUSH1 0x40 MLOAD DUP1 DUP4 SUB DUP2 DUP6 DUP9 DUP9 CALL SWAP4 POP POP POP POP ISZERO DUP1 ISZERO PUSH2 0x890 JUMPI RETURNDATASIZE PUSH1 0x0 DUP1 RETURNDATACOPY RETURNDATASIZE PUSH1 0x0 REVERT JUMPDEST POP PUSH1 0x0 PUSH1 0x6 PUSH1 0x0 DUP4 PUSH20 0xFFFFFFFFFFFFFFFFFFFFFFFFFFFFFFFFFFFFFFFF AND PUSH20 0xFFFFFFFFFFFFFFFFFFFFFFFFFFFFFFFFFFFFFFFF AND DUP2 MSTORE PUSH1 0x20 ADD SWAP1 DUP2 MSTORE PUSH1 0x20 ADD PUSH1 0x0 KECCAK256 DUP2 SWAP1 SSTORE POP PUSH1 0x1 PUSH1 0xC PUSH1 0x0 PUSH2 0x100 EXP DUP2 SLOAD DUP2 PUSH1 0xFF MUL NOT AND SWAP1 DUP4 ISZERO ISZERO MUL OR SWAP1 SSTORE POP POP JUMP JUMPDEST PUSH1 0x4 DUP1 SLOAD PUSH2 0x901 SWAP1 PUSH2 0x1C24 JUMP JUMPDEST DUP1 PUSH1 0x1F ADD PUSH1 0x20 DUP1 SWAP2 DIV MUL PUSH1 0x20 ADD PUSH1 0x40 MLOAD SWAP1 DUP2 ADD PUSH1 0x40 MSTORE DUP1 SWAP3 SWAP2 SWAP1 DUP2 DUP2 MSTORE PUSH1 0x20 ADD DUP3 DUP1 SLOAD PUSH2 0x92D SWAP1 PUSH2 0x1C24 JUMP JUMPDEST DUP1 ISZERO PUSH2 0x97A JUMPI DUP1 PUSH1 0x1F LT PUSH2 0x94F JUMPI PUSH2 0x100 DUP1 DUP4 SLOAD DIV MUL DUP4 MSTORE SWAP2 PUSH1 0x20 ADD SWAP2 PUSH2 0x97A JUMP JUMPDEST DUP3 ADD SWAP2 SWAP1 PUSH1 0x0 MSTORE PUSH1 0x20 PUSH1 0x0 KECCAK256 SWAP1 JUMPDEST DUP2 SLOAD DUP2 MSTORE SWAP1 PUSH1 0x1 ADD SWAP1 PUSH1 0x20 ADD DUP1 DUP4 GT PUSH2 0x95D JUMPI DUP3 SWAP1 SUB PUSH1 0x1F AND DUP3 ADD SWAP2 JUMPDEST POP POP POP POP POP DUP2 JUMP JUMPDEST PUSH1 0xC PUSH1 0x0 SWAP1 SLOAD SWAP1 PUSH2 0x100 EXP SWAP1 DIV PUSH1 0xFF AND DUP2 JUMP JUMPDEST PUSH1 0x3 DUP1 SLOAD PUSH2 0x9A2 SWAP1 PUSH2 0x1C24 JUMP JUMPDEST DUP1 PUSH1 0x1F ADD PUSH1 0x20 DUP1 SWAP2 DIV MUL PUSH1 0x20 ADD PUSH1 0x40 MLOAD SWAP1 DUP2 ADD PUSH1 0x40 MSTORE DUP1 SWAP3 SWAP2 SWAP1 DUP2 DUP2 MSTORE PUSH1 0x20 ADD DUP3 DUP1 SLOAD PUSH2 0x9CE SWAP1 PUSH2 0x1C24 JUMP JUMPDEST DUP1 ISZERO PUSH2 0xA1B JUMPI DUP1 PUSH1 0x1F LT PUSH2 0x9F0 JUMPI PUSH2 0x100 DUP1 DUP4 SLOAD DIV MUL DUP4 MSTORE SWAP2 PUSH1 0x20 ADD SWAP2 PUSH2 0xA1B JUMP JUMPDEST DUP3 ADD SWAP2 SWAP1 PUSH1 0x0 MSTORE PUSH1 0x20 PUSH1 0x0 KECCAK256 SWAP1 JUMPDEST DUP2 SLOAD DUP2 MSTORE SWAP1 PUSH1 0x1 ADD SWAP1 PUSH1 0x20 ADD DUP1 DUP4 GT PUSH2 0x9FE JUMPI DUP3 SWAP1 SUB PUSH1 0x1F AND DUP3 ADD SWAP2 JUMPDEST POP POP POP POP POP DUP2 JUMP JUMPDEST PUSH1 0x0 PUSH2 0xA2E DUP3 PUSH2 0xEC8 JUMP JUMPDEST PUSH20 0xFFFFFFFFFFFFFFFFFFFFFFFFFFFFFFFFFFFFFFFF AND PUSH2 0xA4D DUP5 PUSH2 0xEC8 JUMP JUMPDEST PUSH20 0xFFFFFFFFFFFFFFFFFFFFFFFFFFFFFFFFFFFFFFFF AND EQ SWAP1 POP SWAP3 SWAP2 POP POP JUMP JUMPDEST PUSH1 0x7 SLOAD DUP2 JUMP JUMPDEST PUSH1 0x60 PUSH1 0x0 DUP1 SLOAD DUP1 PUSH1 0x20 MUL PUSH1 0x20 ADD PUSH1 0x40 MLOAD SWAP1 DUP2 ADD PUSH1 0x40 MSTORE DUP1 SWAP3 SWAP2 SWAP1 DUP2 DUP2 MSTORE PUSH1 0x20 ADD PUSH1 0x0 SWAP1 JUMPDEST DUP3 DUP3 LT ISZERO PUSH2 0xB32 JUMPI DUP4 DUP3 SWAP1 PUSH1 0x0 MSTORE PUSH1 0x20 PUSH1 0x0 KECCAK256 SWAP1 PUSH1 0x3 MUL ADD PUSH1 0x40 MLOAD DUP1 PUSH1 0x60 ADD PUSH1 0x40 MSTORE SWAP1 DUP2 PUSH1 0x0 DUP3 ADD SLOAD DUP2 MSTORE PUSH1 0x20 ADD PUSH1 0x1 DUP3 ADD SLOAD DUP2 MSTORE PUSH1 0x20 ADD PUSH1 0x2 DUP3 ADD PUSH1 0x0 SWAP1 SLOAD SWAP1 PUSH2 0x100 EXP SWAP1 DIV PUSH20 0xFFFFFFFFFFFFFFFFFFFFFFFFFFFFFFFFFFFFFFFF AND PUSH20 0xFFFFFFFFFFFFFFFFFFFFFFFFFFFFFFFFFFFFFFFF AND PUSH20 0xFFFFFFFFFFFFFFFFFFFFFFFFFFFFFFFFFFFFFFFF AND DUP2 MSTORE POP POP DUP2 MSTORE PUSH1 0x20 ADD SWAP1 PUSH1 0x1 ADD SWAP1 PUSH2 0xA96 JUMP JUMPDEST POP POP POP POP SWAP1 POP SWAP1 JUMP JUMPDEST TIMESTAMP PUSH1 0xB SLOAD LT ISZERO PUSH2 0xE9A JUMPI PUSH1 0x0 DUP1 PUSH1 0x1 PUSH1 0x8 DUP1 SLOAD SWAP1 POP PUSH2 0xB5A SWAP2 SWAP1 PUSH2 0x1C84 JUMP JUMPDEST PUSH8 0xFFFFFFFFFFFFFFFF DUP2 GT ISZERO PUSH2 0xB73 JUMPI PUSH2 0xB72 PUSH2 0x1CB8 JUMP JUMPDEST JUMPDEST PUSH1 0x40 MLOAD SWAP1 DUP1 DUP3 MSTORE DUP1 PUSH1 0x20 MUL PUSH1 0x20 ADD DUP3 ADD PUSH1 0x40 MSTORE DUP1 ISZERO PUSH2 0xBA1 JUMPI DUP2 PUSH1 0x20 ADD PUSH1 0x20 DUP3 MUL DUP1 CALLDATASIZE DUP4 CALLDATACOPY DUP1 DUP3 ADD SWAP2 POP POP SWAP1 POP JUMPDEST POP SWAP1 POP PUSH1 0x0 JUMPDEST PUSH1 0x8 DUP1 SLOAD SWAP1 POP DUP2 LT ISZERO PUSH2 0xDCE JUMPI PUSH2 0xBFB PUSH1 0x8 DUP3 DUP2 SLOAD DUP2 LT PUSH2 0xBCB JUMPI PUSH2 0xBCA PUSH2 0x1CE7 JUMP JUMPDEST JUMPDEST SWAP1 PUSH1 0x0 MSTORE PUSH1 0x20 PUSH1 0x0 KECCAK256 ADD PUSH1 0x0 SWAP1 SLOAD SWAP1 PUSH2 0x100 EXP SWAP1 DIV PUSH20 0xFFFFFFFFFFFFFFFFFFFFFFFFFFFFFFFFFFFFFFFF AND PUSH2 0xEC8 JUMP JUMPDEST PUSH20 0xFFFFFFFFFFFFFFFFFFFFFFFFFFFFFFFFFFFFFFFF AND PUSH32 0xDB2255C40DD3A96AC26CEFE042EF05B7245BEB67BA6FE3DEB5A32048C48AE645 PUSH1 0x40 MLOAD PUSH1 0x40 MLOAD DUP1 SWAP2 SUB SWAP1 LOG2 PUSH1 0x9 PUSH1 0x0 SWAP1 SLOAD SWAP1 PUSH2 0x100 EXP SWAP1 DIV PUSH20 0xFFFFFFFFFFFFFFFFFFFFFFFFFFFFFFFFFFFFFFFF AND PUSH20 0xFFFFFFFFFFFFFFFFFFFFFFFFFFFFFFFFFFFFFFFF AND PUSH32 0xDB2255C40DD3A96AC26CEFE042EF05B7245BEB67BA6FE3DEB5A32048C48AE645 PUSH1 0x40 MLOAD PUSH1 0x40 MLOAD DUP1 SWAP2 SUB SWAP1 LOG2 PUSH2 0xD1C PUSH2 0xCEC PUSH1 0x8 DUP4 DUP2 SLOAD DUP2 LT PUSH2 0xCBC JUMPI PUSH2 0xCBB PUSH2 0x1CE7 JUMP JUMPDEST JUMPDEST SWAP1 PUSH1 0x0 MSTORE PUSH1 0x20 PUSH1 0x0 KECCAK256 ADD PUSH1 0x0 SWAP1 SLOAD SWAP1 PUSH2 0x100 EXP SWAP1 DIV PUSH20 0xFFFFFFFFFFFFFFFFFFFFFFFFFFFFFFFFFFFFFFFF AND PUSH2 0xEC8 JUMP JUMPDEST PUSH2 0xD17 PUSH1 0x9 PUSH1 0x0 SWAP1 SLOAD SWAP1 PUSH2 0x100 EXP SWAP1 DIV PUSH20 0xFFFFFFFFFFFFFFFFFFFFFFFFFFFFFFFFFFFFFFFF AND PUSH2 0xEC8 JUMP JUMPDEST PUSH2 0xA23 JUMP JUMPDEST PUSH2 0xDBB JUMPI PUSH1 0x8 DUP2 DUP2 SLOAD DUP2 LT PUSH2 0xD34 JUMPI PUSH2 0xD33 PUSH2 0x1CE7 JUMP JUMPDEST JUMPDEST SWAP1 PUSH1 0x0 MSTORE PUSH1 0x20 PUSH1 0x0 KECCAK256 ADD PUSH1 0x0 SWAP1 SLOAD SWAP1 PUSH2 0x100 EXP SWAP1 DIV PUSH20 0xFFFFFFFFFFFFFFFFFFFFFFFFFFFFFFFFFFFFFFFF AND DUP3 DUP5 DUP2 MLOAD DUP2 LT PUSH2 0xD72 JUMPI PUSH2 0xD71 PUSH2 0x1CE7 JUMP JUMPDEST JUMPDEST PUSH1 0x20 MUL PUSH1 0x20 ADD ADD SWAP1 PUSH20 0xFFFFFFFFFFFFFFFFFFFFFFFFFFFFFFFFFFFFFFFF AND SWAP1 DUP2 PUSH20 0xFFFFFFFFFFFFFFFFFFFFFFFFFFFFFFFFFFFFFFFF AND DUP2 MSTORE POP POP DUP3 DUP1 PUSH2 0xDB7 SWAP1 PUSH2 0x1D16 JUMP JUMPDEST SWAP4 POP POP JUMPDEST DUP1 DUP1 PUSH2 0xDC6 SWAP1 PUSH2 0x1D16 JUMP JUMPDEST SWAP2 POP POP PUSH2 0xBA7 JUMP JUMPDEST POP DUP1 PUSH1 0x40 MLOAD PUSH2 0xDDD SWAP2 SWAP1 PUSH2 0x1DEE JUMP JUMPDEST PUSH1 0x40 MLOAD DUP1 SWAP2 SUB SWAP1 KECCAK256 PUSH32 0x8F58F64F8E5F3DFF0793565C7810439028723C99BAEE435E979EDE9712271433 PUSH1 0x40 MLOAD PUSH1 0x40 MLOAD DUP1 SWAP2 SUB SWAP1 LOG2 PUSH1 0x8 PUSH1 0x40 MLOAD PUSH2 0xE20 SWAP2 SWAP1 PUSH2 0x1EF1 JUMP JUMPDEST PUSH1 0x40 MLOAD DUP1 SWAP2 SUB SWAP1 KECCAK256 PUSH32 0x8F58F64F8E5F3DFF0793565C7810439028723C99BAEE435E979EDE9712271433 PUSH1 0x40 MLOAD PUSH1 0x40 MLOAD DUP1 SWAP2 SUB SWAP1 LOG2 PUSH1 0x0 JUMPDEST DUP2 MLOAD DUP2 LT ISZERO PUSH2 0xE96 JUMPI PUSH2 0xE83 DUP3 DUP3 DUP2 MLOAD DUP2 LT PUSH2 0xE76 JUMPI PUSH2 0xE75 PUSH2 0x1CE7 JUMP JUMPDEST JUMPDEST PUSH1 0x20 MUL PUSH1 0x20 ADD ADD MLOAD PUSH2 0x80B JUMP JUMPDEST DUP1 DUP1 PUSH2 0xE8E SWAP1 PUSH2 0x1D16 JUMP JUMPDEST SWAP2 POP POP PUSH2 0xE57 JUMP JUMPDEST POP POP POP JUMPDEST JUMP JUMPDEST PUSH1 0x9 PUSH1 0x0 SWAP1 SLOAD SWAP1 PUSH2 0x100 EXP SWAP1 DIV PUSH20 0xFFFFFFFFFFFFFFFFFFFFFFFFFFFFFFFFFFFFFFFF AND DUP2 JUMP JUMPDEST PUSH1 0x2 SLOAD DUP2 JUMP JUMPDEST PUSH1 0x0 DUP1 DUP3 SWAP1 POP PUSH1 0x0 JUMPDEST PUSH1 0x14 DUP2 LT ISZERO PUSH2 0xF8B JUMPI PUSH1 0x0 DUP5 PUSH1 0x60 SHL DUP3 PUSH1 0x14 DUP2 LT PUSH2 0xEF2 JUMPI PUSH2 0xEF1 PUSH2 0x1CE7 JUMP JUMPDEST JUMPDEST BYTE PUSH1 0xF8 SHL PUSH1 0xF8 SHR SWAP1 POP PUSH1 0x41 DUP2 PUSH1 0xFF AND LT ISZERO DUP1 ISZERO PUSH2 0xF13 JUMPI POP PUSH1 0x5A DUP2 PUSH1 0xFF AND GT ISZERO JUMPDEST ISZERO PUSH2 0xF28 JUMPI PUSH1 0x20 DUP2 PUSH2 0xF25 SWAP2 SWAP1 PUSH2 0x1F15 JUMP JUMPDEST SWAP1 POP JUMPDEST DUP2 PUSH1 0x13 PUSH2 0xF35 SWAP2 SWAP1 PUSH2 0x1C84 JUMP JUMPDEST PUSH1 0x8 PUSH2 0xF41 SWAP2 SWAP1 PUSH2 0x1F4C JUMP JUMPDEST PUSH20 0xFFFFFFFFFFFFFFFFFFFFFFFFFFFFFFFFFFFFFFFF AND DUP2 PUSH1 0xFF AND PUSH20 0xFFFFFFFFFFFFFFFFFFFFFFFFFFFFFFFFFFFFFFFF AND SWAP1 SHL DUP4 OR SWAP3 POP POP DUP1 DUP1 PUSH2 0xF83 SWAP1 PUSH2 0x1D16 JUMP JUMPDEST SWAP2 POP POP PUSH2 0xED1 JUMP JUMPDEST POP DUP1 SWAP2 POP POP SWAP2 SWAP1 POP JUMP JUMPDEST PUSH1 0x0 DUP2 DUP2 SLOAD DUP2 LT PUSH2 0xFA5 JUMPI PUSH1 0x0 DUP1 REVERT JUMPDEST SWAP1 PUSH1 0x0 MSTORE PUSH1 0x20 PUSH1 0x0 KECCAK256 SWAP1 PUSH1 0x3 MUL ADD PUSH1 0x0 SWAP2 POP SWAP1 POP DUP1 PUSH1 0x0 ADD SLOAD SWAP1 DUP1 PUSH1 0x1 ADD SLOAD SWAP1 DUP1 PUSH1 0x2 ADD PUSH1 0x0 SWAP1 SLOAD SWAP1 PUSH2 0x100 EXP SWAP1 DIV PUSH20 0xFFFFFFFFFFFFFFFFFFFFFFFFFFFFFFFFFFFFFFFF AND SWAP1 POP DUP4 JUMP JUMPDEST PUSH1 0x60 PUSH1 0x8 DUP1 SLOAD DUP1 PUSH1 0x20 MUL PUSH1 0x20 ADD PUSH1 0x40 MLOAD SWAP1 DUP2 ADD PUSH1 0x40 MSTORE DUP1 SWAP3 SWAP2 SWAP1 DUP2 DUP2 MSTORE PUSH1 0x20 ADD DUP3 DUP1 SLOAD DUP1 ISZERO PUSH2 0x1073 JUMPI PUSH1 0x20 MUL DUP3 ADD SWAP2 SWAP1 PUSH1 0x0 MSTORE PUSH1 0x20 PUSH1 0x0 KECCAK256 SWAP1 JUMPDEST DUP2 PUSH1 0x0 SWAP1 SLOAD SWAP1 PUSH2 0x100 EXP SWAP1 DIV PUSH20 0xFFFFFFFFFFFFFFFFFFFFFFFFFFFFFFFFFFFFFFFF AND PUSH20 0xFFFFFFFFFFFFFFFFFFFFFFFFFFFFFFFFFFFFFFFF AND DUP2 MSTORE PUSH1 0x20 ADD SWAP1 PUSH1 0x1 ADD SWAP1 DUP1 DUP4 GT PUSH2 0x1029 JUMPI JUMPDEST POP POP POP POP POP SWAP1 POP SWAP1 JUMP JUMPDEST PUSH1 0x0 DUP1 PUSH1 0x0 SWAP1 POP PUSH1 0x0 PUSH1 0x6 PUSH1 0x0 DUP6 PUSH20 0xFFFFFFFFFFFFFFFFFFFFFFFFFFFFFFFFFFFFFFFF AND PUSH20 0xFFFFFFFFFFFFFFFFFFFFFFFFFFFFFFFFFFFFFFFF AND DUP2 MSTORE PUSH1 0x20 ADD SWAP1 DUP2 MSTORE PUSH1 0x20 ADD PUSH1 0x0 KECCAK256 SLOAD EQ PUSH2 0x110E JUMPI PUSH1 0x6 PUSH1 0x0 DUP5 PUSH20 0xFFFFFFFFFFFFFFFFFFFFFFFFFFFFFFFFFFFFFFFF AND PUSH20 0xFFFFFFFFFFFFFFFFFFFFFFFFFFFFFFFFFFFFFFFF AND DUP2 MSTORE PUSH1 0x20 ADD SWAP1 DUP2 MSTORE PUSH1 0x20 ADD PUSH1 0x0 KECCAK256 SLOAD SWAP1 POP JUMPDEST DUP1 SWAP2 POP POP SWAP2 SWAP1 POP JUMP JUMPDEST PUSH1 0xA SLOAD DUP2 JUMP JUMPDEST PUSH1 0x1 PUSH1 0x0 SWAP1 SLOAD SWAP1 PUSH2 0x100 EXP SWAP1 DIV PUSH20 0xFFFFFFFFFFFFFFFFFFFFFFFFFFFFFFFFFFFFFFFF AND PUSH20 0xFFFFFFFFFFFFFFFFFFFFFFFFFFFFFFFFFFFFFFFF AND CALLER PUSH20 0xFFFFFFFFFFFFFFFFFFFFFFFFFFFFFFFFFFFFFFFF AND SUB PUSH2 0x11AD JUMPI PUSH1 0x40 MLOAD PUSH32 0x8C379A000000000000000000000000000000000000000000000000000000000 DUP2 MSTORE PUSH1 0x4 ADD PUSH2 0x11A4 SWAP1 PUSH2 0x1FF2 JUMP JUMPDEST PUSH1 0x40 MLOAD DUP1 SWAP2 SUB SWAP1 REVERT JUMPDEST TIMESTAMP PUSH1 0xB SLOAD GT PUSH2 0x11F1 JUMPI PUSH1 0x40 MLOAD PUSH32 0x8C379A000000000000000000000000000000000000000000000000000000000 DUP2 MSTORE PUSH1 0x4 ADD PUSH2 0x11E8 SWAP1 PUSH2 0x2084 JUMP JUMPDEST PUSH1 0x40 MLOAD DUP1 SWAP2 SUB SWAP1 REVERT JUMPDEST PUSH1 0x0 PUSH1 0x40 MLOAD DUP1 PUSH1 0x60 ADD PUSH1 0x40 MSTORE DUP1 CALLVALUE DUP2 MSTORE PUSH1 0x20 ADD TIMESTAMP DUP2 MSTORE PUSH1 0x20 ADD CALLER PUSH20 0xFFFFFFFFFFFFFFFFFFFFFFFFFFFFFFFFFFFFFFFF AND DUP2 MSTORE POP SWAP1 DUP1 PUSH1 0x1 DUP2 SLOAD ADD DUP1 DUP3 SSTORE DUP1 SWAP2 POP POP PUSH1 0x1 SWAP1 SUB SWAP1 PUSH1 0x0 MSTORE PUSH1 0x20 PUSH1 0x0 KECCAK256 SWAP1 PUSH1 0x3 MUL ADD PUSH1 0x0 SWAP1 SWAP2 SWAP1 SWAP2 SWAP1 SWAP2 POP PUSH1 0x0 DUP3 ADD MLOAD DUP2 PUSH1 0x0 ADD SSTORE PUSH1 0x20 DUP3 ADD MLOAD DUP2 PUSH1 0x1 ADD SSTORE PUSH1 0x40 DUP3 ADD MLOAD DUP2 PUSH1 0x2 ADD PUSH1 0x0 PUSH2 0x100 EXP DUP2 SLOAD DUP2 PUSH20 0xFFFFFFFFFFFFFFFFFFFFFFFFFFFFFFFFFFFFFFFF MUL NOT AND SWAP1 DUP4 PUSH20 0xFFFFFFFFFFFFFFFFFFFFFFFFFFFFFFFFFFFFFFFF AND MUL OR SWAP1 SSTORE POP POP POP PUSH1 0x1 ISZERO ISZERO PUSH1 0x5 PUSH1 0x0 CALLER PUSH20 0xFFFFFFFFFFFFFFFFFFFFFFFFFFFFFFFFFFFFFFFF AND PUSH20 0xFFFFFFFFFFFFFFFFFFFFFFFFFFFFFFFFFFFFFFFF AND DUP2 MSTORE PUSH1 0x20 ADD SWAP1 DUP2 MSTORE PUSH1 0x20 ADD PUSH1 0x0 KECCAK256 PUSH1 0x0 SWAP1 SLOAD SWAP1 PUSH2 0x100 EXP SWAP1 DIV PUSH1 0xFF AND ISZERO ISZERO EQ PUSH2 0x14B8 JUMPI PUSH1 0x2 SLOAD CALLVALUE GT PUSH2 0x1310 JUMPI PUSH1 0x0 DUP1 REVERT JUMPDEST PUSH1 0xA SLOAD CALLVALUE GT PUSH2 0x1354 JUMPI PUSH1 0x40 MLOAD PUSH32 0x8C379A000000000000000000000000000000000000000000000000000000000 DUP2 MSTORE PUSH1 0x4 ADD PUSH2 0x134B SWAP1 PUSH2 0x20F0 JUMP JUMPDEST PUSH1 0x40 MLOAD DUP1 SWAP2 SUB SWAP1 REVERT JUMPDEST PUSH1 0x1 PUSH1 0x5 PUSH1 0x0 CALLER PUSH20 0xFFFFFFFFFFFFFFFFFFFFFFFFFFFFFFFFFFFFFFFF AND PUSH20 0xFFFFFFFFFFFFFFFFFFFFFFFFFFFFFFFFFFFFFFFF AND DUP2 MSTORE PUSH1 0x20 ADD SWAP1 DUP2 MSTORE PUSH1 0x20 ADD PUSH1 0x0 KECCAK256 PUSH1 0x0 PUSH2 0x100 EXP DUP2 SLOAD DUP2 PUSH1 0xFF MUL NOT AND SWAP1 DUP4 ISZERO ISZERO MUL OR SWAP1 SSTORE POP CALLER PUSH1 0x9 PUSH1 0x0 PUSH2 0x100 EXP DUP2 SLOAD DUP2 PUSH20 0xFFFFFFFFFFFFFFFFFFFFFFFFFFFFFFFFFFFFFFFF MUL NOT AND SWAP1 DUP4 PUSH20 0xFFFFFFFFFFFFFFFFFFFFFFFFFFFFFFFFFFFFFFFF AND MUL OR SWAP1 SSTORE POP CALLVALUE PUSH1 0xA DUP2 SWAP1 SSTORE POP PUSH1 0x7 PUSH1 0x0 DUP2 SLOAD DUP1 SWAP3 SWAP2 SWAP1 PUSH2 0x1407 SWAP1 PUSH2 0x1D16 JUMP JUMPDEST SWAP2 SWAP1 POP SSTORE POP CALLVALUE PUSH1 0x6 PUSH1 0x0 CALLER PUSH20 0xFFFFFFFFFFFFFFFFFFFFFFFFFFFFFFFFFFFFFFFF AND PUSH20 0xFFFFFFFFFFFFFFFFFFFFFFFFFFFFFFFFFFFFFFFF AND DUP2 MSTORE PUSH1 0x20 ADD SWAP1 DUP2 MSTORE PUSH1 0x20 ADD PUSH1 0x0 KECCAK256 DUP2 SWAP1 SSTORE POP PUSH1 0x8 CALLER SWAP1 DUP1 PUSH1 0x1 DUP2 SLOAD ADD DUP1 DUP3 SSTORE DUP1 SWAP2 POP POP PUSH1 0x1 SWAP1 SUB SWAP1 PUSH1 0x0 MSTORE PUSH1 0x20 PUSH1 0x0 KECCAK256 ADD PUSH1 0x0 SWAP1 SWAP2 SWAP1 SWAP2 SWAP1 SWAP2 PUSH2 0x100 EXP DUP2 SLOAD DUP2 PUSH20 0xFFFFFFFFFFFFFFFFFFFFFFFFFFFFFFFFFFFFFFFF MUL NOT AND SWAP1 DUP4 PUSH20 0xFFFFFFFFFFFFFFFFFFFFFFFFFFFFFFFFFFFFFFFF AND MUL OR SWAP1 SSTORE POP PUSH2 0x15E7 JUMP JUMPDEST PUSH1 0x0 PUSH1 0x6 PUSH1 0x0 CALLER PUSH20 0xFFFFFFFFFFFFFFFFFFFFFFFFFFFFFFFFFFFFFFFF AND PUSH20 0xFFFFFFFFFFFFFFFFFFFFFFFFFFFFFFFFFFFFFFFF AND DUP2 MSTORE PUSH1 0x20 ADD SWAP1 DUP2 MSTORE PUSH1 0x20 ADD PUSH1 0x0 KECCAK256 SLOAD CALLVALUE PUSH2 0x1505 SWAP2 SWAP1 PUSH2 0x2110 JUMP JUMPDEST SWAP1 POP PUSH1 0xA SLOAD DUP2 GT PUSH2 0x154B JUMPI PUSH1 0x40 MLOAD PUSH32 0x8C379A000000000000000000000000000000000000000000000000000000000 DUP2 MSTORE PUSH1 0x4 ADD PUSH2 0x1542 SWAP1 PUSH2 0x20F0 JUMP JUMPDEST PUSH1 0x40 MLOAD DUP1 SWAP2 SUB SWAP1 REVERT JUMPDEST PUSH1 0x2 SLOAD DUP2 GT PUSH2 0x1559 JUMPI PUSH1 0x0 DUP1 REVERT JUMPDEST DUP1 PUSH1 0x6 PUSH1 0x0 CALLER PUSH20 0xFFFFFFFFFFFFFFFFFFFFFFFFFFFFFFFFFFFFFFFF AND PUSH20 0xFFFFFFFFFFFFFFFFFFFFFFFFFFFFFFFFFFFFFFFF AND DUP2 MSTORE PUSH1 0x20 ADD SWAP1 DUP2 MSTORE PUSH1 0x20 ADD PUSH1 0x0 KECCAK256 DUP2 SWAP1 SSTORE POP CALLER PUSH1 0x9 PUSH1 0x0 PUSH2 0x100 EXP DUP2 SLOAD DUP2 PUSH20 0xFFFFFFFFFFFFFFFFFFFFFFFFFFFFFFFFFFFFFFFF MUL NOT AND SWAP1 DUP4 PUSH20 0xFFFFFFFFFFFFFFFFFFFFFFFFFFFFFFFFFFFFFFFF AND MUL OR SWAP1 SSTORE POP DUP1 PUSH1 0xA DUP2 SWAP1 SSTORE POP POP JUMPDEST JUMP JUMPDEST PUSH1 0x8 DUP2 DUP2 SLOAD DUP2 LT PUSH2 0x15F9 JUMPI PUSH1 0x0 DUP1 REVERT JUMPDEST SWAP1 PUSH1 0x0 MSTORE PUSH1 0x20 PUSH1 0x0 KECCAK256 ADD PUSH1 0x0 SWAP2 POP SLOAD SWAP1 PUSH2 0x100 EXP SWAP1 DIV PUSH20 0xFFFFFFFFFFFFFFFFFFFFFFFFFFFFFFFFFFFFFFFF AND DUP2 JUMP JUMPDEST PUSH1 0x0 DUP1 REVERT JUMPDEST PUSH1 0x0 PUSH20 0xFFFFFFFFFFFFFFFFFFFFFFFFFFFFFFFFFFFFFFFF DUP3 AND SWAP1 POP SWAP2 SWAP1 POP JUMP JUMPDEST PUSH1 0x0 PUSH2 0x1658 DUP3 PUSH2 0x162D JUMP JUMPDEST SWAP1 POP SWAP2 SWAP1 POP JUMP JUMPDEST PUSH2 0x1668 DUP2 PUSH2 0x164D JUMP JUMPDEST DUP2 EQ PUSH2 0x1673 JUMPI PUSH1 0x0 DUP1 REVERT JUMPDEST POP JUMP JUMPDEST PUSH1 0x0 DUP2 CALLDATALOAD SWAP1 POP PUSH2 0x1685 DUP2 PUSH2 0x165F JUMP JUMPDEST SWAP3 SWAP2 POP POP JUMP JUMPDEST PUSH1 0x0 PUSH1 0x20 DUP3 DUP5 SUB SLT ISZERO PUSH2 0x16A1 JUMPI PUSH2 0x16A0 PUSH2 0x1628 JUMP JUMPDEST JUMPDEST PUSH1 0x0 PUSH2 0x16AF DUP5 DUP3 DUP6 ADD PUSH2 0x1676 JUMP JUMPDEST SWAP2 POP POP SWAP3 SWAP2 POP POP JUMP JUMPDEST PUSH1 0x0 DUP2 ISZERO ISZERO SWAP1 POP SWAP2 SWAP1 POP JUMP JUMPDEST PUSH2 0x16CD DUP2 PUSH2 0x16B8 JUMP JUMPDEST DUP3 MSTORE POP POP JUMP JUMPDEST PUSH1 0x0 PUSH1 0x20 DUP3 ADD SWAP1 POP PUSH2 0x16E8 PUSH1 0x0 DUP4 ADD DUP5 PUSH2 0x16C4 JUMP JUMPDEST SWAP3 SWAP2 POP POP JUMP JUMPDEST PUSH1 0x0 DUP2 SWAP1 POP SWAP2 SWAP1 POP JUMP JUMPDEST PUSH2 0x1701 DUP2 PUSH2 0x16EE JUMP JUMPDEST DUP3 MSTORE POP POP JUMP JUMPDEST PUSH1 0x0 PUSH1 0x20 DUP3 ADD SWAP1 POP PUSH2 0x171C PUSH1 0x0 DUP4 ADD DUP5 PUSH2 0x16F8 JUMP JUMPDEST SWAP3 SWAP2 POP POP JUMP JUMPDEST PUSH2 0x172B DUP2 PUSH2 0x164D JUMP JUMPDEST DUP3 MSTORE POP POP JUMP JUMPDEST PUSH1 0x0 DUP2 MLOAD SWAP1 POP SWAP2 SWAP1 POP JUMP JUMPDEST PUSH1 0x0 DUP3 DUP3 MSTORE PUSH1 0x20 DUP3 ADD SWAP1 POP SWAP3 SWAP2 POP POP JUMP JUMPDEST PUSH1 0x0 JUMPDEST DUP4 DUP2 LT ISZERO PUSH2 0x176B JUMPI DUP1 DUP3 ADD MLOAD DUP2 DUP5 ADD MSTORE PUSH1 0x20 DUP2 ADD SWAP1 POP PUSH2 0x1750 JUMP JUMPDEST DUP4 DUP2 GT ISZERO PUSH2 0x177A JUMPI PUSH1 0x0 DUP5 DUP5 ADD MSTORE JUMPDEST POP POP POP POP JUMP JUMPDEST PUSH1 0x0 PUSH1 0x1F NOT PUSH1 0x1F DUP4 ADD AND SWAP1 POP SWAP2 SWAP1 POP JUMP JUMPDEST PUSH1 0x0 PUSH2 0x179C DUP3 PUSH2 0x1731 JUMP JUMPDEST PUSH2 0x17A6 DUP2 DUP6 PUSH2 0x173C JUMP JUMPDEST SWAP4 POP PUSH2 0x17B6 DUP2 DUP6 PUSH1 0x20 DUP7 ADD PUSH2 0x174D JUMP JUMPDEST PUSH2 0x17BF DUP2 PUSH2 0x1780 JUMP JUMPDEST DUP5 ADD SWAP2 POP POP SWAP3 SWAP2 POP POP JUMP JUMPDEST PUSH1 0x0 DUP2 MLOAD SWAP1 POP SWAP2 SWAP1 POP JUMP JUMPDEST PUSH1 0x0 DUP3 DUP3 MSTORE PUSH1 0x20 DUP3 ADD SWAP1 POP SWAP3 SWAP2 POP POP JUMP JUMPDEST PUSH1 0x0 DUP2 SWAP1 POP PUSH1 0x20 DUP3 ADD SWAP1 POP SWAP2 SWAP1 POP JUMP JUMPDEST PUSH2 0x17FF DUP2 PUSH2 0x164D JUMP JUMPDEST DUP3 MSTORE POP POP JUMP JUMPDEST PUSH1 0x0 PUSH2 0x1811 DUP4 DUP4 PUSH2 0x17F6 JUMP JUMPDEST PUSH1 0x20 DUP4 ADD SWAP1 POP SWAP3 SWAP2 POP POP JUMP JUMPDEST PUSH1 0x0 PUSH1 0x20 DUP3 ADD SWAP1 POP SWAP2 SWAP1 POP JUMP JUMPDEST PUSH1 0x0 PUSH2 0x1835 DUP3 PUSH2 0x17CA JUMP JUMPDEST PUSH2 0x183F DUP2 DUP6 PUSH2 0x17D5 JUMP JUMPDEST SWAP4 POP PUSH2 0x184A DUP4 PUSH2 0x17E6 JUMP JUMPDEST DUP1 PUSH1 0x0 JUMPDEST DUP4 DUP2 LT ISZERO PUSH2 0x187B JUMPI DUP2 MLOAD PUSH2 0x1862 DUP9 DUP3 PUSH2 0x1805 JUMP JUMPDEST SWAP8 POP PUSH2 0x186D DUP4 PUSH2 0x181D JUMP JUMPDEST SWAP3 POP POP PUSH1 0x1 DUP2 ADD SWAP1 POP PUSH2 0x184E JUMP JUMPDEST POP DUP6 SWAP4 POP POP POP POP SWAP3 SWAP2 POP POP JUMP JUMPDEST PUSH1 0x0 PUSH2 0x140 DUP3 ADD SWAP1 POP PUSH2 0x189E PUSH1 0x0 DUP4 ADD DUP14 PUSH2 0x16F8 JUMP JUMPDEST PUSH2 0x18AB PUSH1 0x20 DUP4 ADD DUP13 PUSH2 0x16F8 JUMP JUMPDEST PUSH2 0x18B8 PUSH1 0x40 DUP4 ADD DUP12 PUSH2 0x16F8 JUMP JUMPDEST PUSH2 0x18C5 PUSH1 0x60 DUP4 ADD DUP11 PUSH2 0x1722 JUMP JUMPDEST PUSH2 0x18D2 PUSH1 0x80 DUP4 ADD DUP10 PUSH2 0x16F8 JUMP JUMPDEST DUP2 DUP2 SUB PUSH1 0xA0 DUP4 ADD MSTORE PUSH2 0x18E4 DUP2 DUP9 PUSH2 0x1791 JUMP JUMPDEST SWAP1 POP DUP2 DUP2 SUB PUSH1 0xC0 DUP4 ADD MSTORE PUSH2 0x18F8 DUP2 DUP8 PUSH2 0x1791 JUMP JUMPDEST SWAP1 POP PUSH2 0x1907 PUSH1 0xE0 DUP4 ADD DUP7 PUSH2 0x16F8 JUMP JUMPDEST PUSH2 0x1915 PUSH2 0x100 DUP4 ADD DUP6 PUSH2 0x1722 JUMP JUMPDEST DUP2 DUP2 SUB PUSH2 0x120 DUP4 ADD MSTORE PUSH2 0x1928 DUP2 DUP5 PUSH2 0x182A JUMP JUMPDEST SWAP1 POP SWAP12 SWAP11 POP POP POP POP POP POP POP POP POP POP POP JUMP JUMPDEST PUSH1 0x0 PUSH1 0x20 DUP3 ADD SWAP1 POP PUSH2 0x194E PUSH1 0x0 DUP4 ADD DUP5 PUSH2 0x1722 JUMP JUMPDEST SWAP3 SWAP2 POP POP JUMP JUMPDEST PUSH1 0x0 PUSH2 0x195F DUP3 PUSH2 0x162D JUMP JUMPDEST SWAP1 POP SWAP2 SWAP1 POP JUMP JUMPDEST PUSH2 0x196F DUP2 PUSH2 0x1954 JUMP JUMPDEST DUP2 EQ PUSH2 0x197A JUMPI PUSH1 0x0 DUP1 REVERT JUMPDEST POP JUMP JUMPDEST PUSH1 0x0 DUP2 CALLDATALOAD SWAP1 POP PUSH2 0x198C DUP2 PUSH2 0x1966 JUMP JUMPDEST SWAP3 SWAP2 POP POP JUMP JUMPDEST PUSH1 0x0 PUSH1 0x20 DUP3 DUP5 SUB SLT ISZERO PUSH2 0x19A8 JUMPI PUSH2 0x19A7 PUSH2 0x1628 JUMP JUMPDEST JUMPDEST PUSH1 0x0 PUSH2 0x19B6 DUP5 DUP3 DUP6 ADD PUSH2 0x197D JUMP JUMPDEST SWAP2 POP POP SWAP3 SWAP2 POP POP JUMP JUMPDEST PUSH1 0x0 PUSH1 0x20 DUP3 ADD SWAP1 POP DUP2 DUP2 SUB PUSH1 0x0 DUP4 ADD MSTORE PUSH2 0x19D9 DUP2 DUP5 PUSH2 0x1791 JUMP JUMPDEST SWAP1 POP SWAP3 SWAP2 POP POP JUMP JUMPDEST PUSH1 0x0 DUP1 PUSH1 0x40 DUP4 DUP6 SUB SLT ISZERO PUSH2 0x19F8 JUMPI PUSH2 0x19F7 PUSH2 0x1628 JUMP JUMPDEST JUMPDEST PUSH1 0x0 PUSH2 0x1A06 DUP6 DUP3 DUP7 ADD PUSH2 0x1676 JUMP JUMPDEST SWAP3 POP POP PUSH1 0x20 PUSH2 0x1A17 DUP6 DUP3 DUP7 ADD PUSH2 0x1676 JUMP JUMPDEST SWAP2 POP POP SWAP3 POP SWAP3 SWAP1 POP JUMP JUMPDEST PUSH1 0x0 DUP2 MLOAD SWAP1 POP SWAP2 SWAP1 POP JUMP JUMPDEST PUSH1 0x0 DUP3 DUP3 MSTORE PUSH1 0x20 DUP3 ADD SWAP1 POP SWAP3 SWAP2 POP POP JUMP JUMPDEST PUSH1 0x0 DUP2 SWAP1 POP PUSH1 0x20 DUP3 ADD SWAP1 POP SWAP2 SWAP1 POP JUMP JUMPDEST PUSH2 0x1A56 DUP2 PUSH2 0x16EE JUMP JUMPDEST DUP3 MSTORE POP POP JUMP JUMPDEST PUSH1 0x60 DUP3 ADD PUSH1 0x0 DUP3 ADD MLOAD PUSH2 0x1A72 PUSH1 0x0 DUP6 ADD DUP3 PUSH2 0x1A4D JUMP JUMPDEST POP PUSH1 0x20 DUP3 ADD MLOAD PUSH2 0x1A85 PUSH1 0x20 DUP6 ADD DUP3 PUSH2 0x1A4D JUMP JUMPDEST POP PUSH1 0x40 DUP3 ADD MLOAD PUSH2 0x1A98 PUSH1 0x40 DUP6 ADD DUP3 PUSH2 0x17F6 JUMP JUMPDEST POP POP POP POP JUMP JUMPDEST PUSH1 0x0 PUSH2 0x1AAA DUP4 DUP4 PUSH2 0x1A5C JUMP JUMPDEST PUSH1 0x60 DUP4 ADD SWAP1 POP SWAP3 SWAP2 POP POP JUMP JUMPDEST PUSH1 0x0 PUSH1 0x20 DUP3 ADD SWAP1 POP SWAP2 SWAP1 POP JUMP JUMPDEST PUSH1 0x0 PUSH2 0x1ACE DUP3 PUSH2 0x1A21 JUMP JUMPDEST PUSH2 0x1AD8 DUP2 DUP6 PUSH2 0x1A2C JUMP JUMPDEST SWAP4 POP PUSH2 0x1AE3 DUP4 PUSH2 0x1A3D JUMP JUMPDEST DUP1 PUSH1 0x0 JUMPDEST DUP4 DUP2 LT ISZERO PUSH2 0x1B14 JUMPI DUP2 MLOAD PUSH2 0x1AFB DUP9 DUP3 PUSH2 0x1A9E JUMP JUMPDEST SWAP8 POP PUSH2 0x1B06 DUP4 PUSH2 0x1AB6 JUMP JUMPDEST SWAP3 POP POP PUSH1 0x1 DUP2 ADD SWAP1 POP PUSH2 0x1AE7 JUMP JUMPDEST POP DUP6 SWAP4 POP POP POP POP SWAP3 SWAP2 POP POP JUMP JUMPDEST PUSH1 0x0 PUSH1 0x20 DUP3 ADD SWAP1 POP DUP2 DUP2 SUB PUSH1 0x0 DUP4 ADD MSTORE PUSH2 0x1B3B DUP2 DUP5 PUSH2 0x1AC3 JUMP JUMPDEST SWAP1 POP SWAP3 SWAP2 POP POP JUMP JUMPDEST PUSH2 0x1B4C DUP2 PUSH2 0x16EE JUMP JUMPDEST DUP2 EQ PUSH2 0x1B57 JUMPI PUSH1 0x0 DUP1 REVERT JUMPDEST POP JUMP JUMPDEST PUSH1 0x0 DUP2 CALLDATALOAD SWAP1 POP PUSH2 0x1B69 DUP2 PUSH2 0x1B43 JUMP JUMPDEST SWAP3 SWAP2 POP POP JUMP JUMPDEST PUSH1 0x0 PUSH1 0x20 DUP3 DUP5 SUB SLT ISZERO PUSH2 0x1B85 JUMPI PUSH2 0x1B84 PUSH2 0x1628 JUMP JUMPDEST JUMPDEST PUSH1 0x0 PUSH2 0x1B93 DUP5 DUP3 DUP6 ADD PUSH2 0x1B5A JUMP JUMPDEST SWAP2 POP POP SWAP3 SWAP2 POP POP JUMP JUMPDEST PUSH1 0x0 PUSH1 0x60 DUP3 ADD SWAP1 POP PUSH2 0x1BB1 PUSH1 0x0 DUP4 ADD DUP7 PUSH2 0x16F8 JUMP JUMPDEST PUSH2 0x1BBE PUSH1 0x20 DUP4 ADD DUP6 PUSH2 0x16F8 JUMP JUMPDEST PUSH2 0x1BCB PUSH1 0x40 DUP4 ADD DUP5 PUSH2 0x1722 JUMP JUMPDEST SWAP5 SWAP4 POP POP POP POP JUMP JUMPDEST PUSH1 0x0 PUSH1 0x20 DUP3 ADD SWAP1 POP DUP2 DUP2 SUB PUSH1 0x0 DUP4 ADD MSTORE PUSH2 0x1BED DUP2 DUP5 PUSH2 0x182A JUMP JUMPDEST SWAP1 POP SWAP3 SWAP2 POP POP JUMP JUMPDEST PUSH32 0x4E487B7100000000000000000000000000000000000000000000000000000000 PUSH1 0x0 MSTORE PUSH1 0x22 PUSH1 0x4 MSTORE PUSH1 0x24 PUSH1 0x0 REVERT JUMPDEST PUSH1 0x0 PUSH1 0x2 DUP3 DIV SWAP1 POP PUSH1 0x1 DUP3 AND DUP1 PUSH2 0x1C3C JUMPI PUSH1 0x7F DUP3 AND SWAP2 POP JUMPDEST PUSH1 0x20 DUP3 LT DUP2 SUB PUSH2 0x1C4F JUMPI PUSH2 0x1C4E PUSH2 0x1BF5 JUMP JUMPDEST JUMPDEST POP SWAP2 SWAP1 POP JUMP JUMPDEST PUSH32 0x4E487B7100000000000000000000000000000000000000000000000000000000 PUSH1 0x0 MSTORE PUSH1 0x11 PUSH1 0x4 MSTORE PUSH1 0x24 PUSH1 0x0 REVERT JUMPDEST PUSH1 0x0 PUSH2 0x1C8F DUP3 PUSH2 0x16EE JUMP JUMPDEST SWAP2 POP PUSH2 0x1C9A DUP4 PUSH2 0x16EE JUMP JUMPDEST SWAP3 POP DUP3 DUP3 LT ISZERO PUSH2 0x1CAD JUMPI PUSH2 0x1CAC PUSH2 0x1C55 JUMP JUMPDEST JUMPDEST DUP3 DUP3 SUB SWAP1 POP SWAP3 SWAP2 POP POP JUMP JUMPDEST PUSH32 0x4E487B7100000000000000000000000000000000000000000000000000000000 PUSH1 0x0 MSTORE PUSH1 0x41 PUSH1 0x4 MSTORE PUSH1 0x24 PUSH1 0x0 REVERT JUMPDEST PUSH32 0x4E487B7100000000000000000000000000000000000000000000000000000000 PUSH1 0x0 MSTORE PUSH1 0x32 PUSH1 0x4 MSTORE PUSH1 0x24 PUSH1 0x0 REVERT JUMPDEST PUSH1 0x0 PUSH2 0x1D21 DUP3 PUSH2 0x16EE JUMP JUMPDEST SWAP2 POP PUSH32 0xFFFFFFFFFFFFFFFFFFFFFFFFFFFFFFFFFFFFFFFFFFFFFFFFFFFFFFFFFFFFFFFF DUP3 SUB PUSH2 0x1D53 JUMPI PUSH2 0x1D52 PUSH2 0x1C55 JUMP JUMPDEST JUMPDEST PUSH1 0x1 DUP3 ADD SWAP1 POP SWAP2 SWAP1 POP JUMP JUMPDEST PUSH1 0x0 DUP2 SWAP1 POP SWAP3 SWAP2 POP POP JUMP JUMPDEST PUSH2 0x1D72 DUP2 PUSH2 0x164D JUMP JUMPDEST DUP3 MSTORE POP POP JUMP JUMPDEST PUSH1 0x0 PUSH2 0x1D84 DUP4 DUP4 PUSH2 0x1D69 JUMP JUMPDEST PUSH1 0x20 DUP4 ADD SWAP1 POP SWAP3 SWAP2 POP POP JUMP JUMPDEST PUSH1 0x0 PUSH2 0x1D9B DUP3 PUSH2 0x17CA JUMP JUMPDEST PUSH2 0x1DA5 DUP2 DUP6 PUSH2 0x1D5E JUMP JUMPDEST SWAP4 POP PUSH2 0x1DB0 DUP4 PUSH2 0x17E6 JUMP JUMPDEST DUP1 PUSH1 0x0 JUMPDEST DUP4 DUP2 LT ISZERO PUSH2 0x1DE1 JUMPI DUP2 MLOAD PUSH2 0x1DC8 DUP9 DUP3 PUSH2 0x1D78 JUMP JUMPDEST SWAP8 POP PUSH2 0x1DD3 DUP4 PUSH2 0x181D JUMP JUMPDEST SWAP3 POP POP PUSH1 0x1 DUP2 ADD SWAP1 POP PUSH2 0x1DB4 JUMP JUMPDEST POP DUP6 SWAP4 POP POP POP POP SWAP3 SWAP2 POP POP JUMP JUMPDEST PUSH1 0x0 PUSH2 0x1DFA DUP3 DUP5 PUSH2 0x1D90 JUMP JUMPDEST SWAP2 POP DUP2 SWAP1 POP SWAP3 SWAP2 POP POP JUMP JUMPDEST PUSH1 0x0 DUP2 SLOAD SWAP1 POP SWAP2 SWAP1 POP JUMP JUMPDEST PUSH1 0x0 DUP2 SWAP1 POP DUP2 PUSH1 0x0 MSTORE PUSH1 0x20 PUSH1 0x0 KECCAK256 SWAP1 POP SWAP2 SWAP1 POP JUMP JUMPDEST PUSH1 0x0 DUP2 PUSH1 0x0 SHR SWAP1 POP SWAP2 SWAP1 POP JUMP JUMPDEST PUSH1 0x0 PUSH20 0xFFFFFFFFFFFFFFFFFFFFFFFFFFFFFFFFFFFFFFFF DUP3 AND SWAP1 POP SWAP2 SWAP1 POP JUMP JUMPDEST PUSH1 0x0 PUSH2 0x1E65 PUSH2 0x1E60 DUP4 PUSH2 0x1E25 JUMP JUMPDEST PUSH2 0x1E32 JUMP JUMPDEST SWAP1 POP SWAP2 SWAP1 POP JUMP JUMPDEST PUSH1 0x0 PUSH2 0x1E78 DUP3 SLOAD PUSH2 0x1E52 JUMP JUMPDEST SWAP1 POP SWAP2 SWAP1 POP JUMP JUMPDEST PUSH1 0x0 PUSH1 0x1 DUP3 ADD SWAP1 POP SWAP2 SWAP1 POP JUMP JUMPDEST PUSH1 0x0 PUSH2 0x1E97 DUP3 PUSH2 0x1E05 JUMP JUMPDEST PUSH2 0x1EA1 DUP2 DUP6 PUSH2 0x1D5E JUMP JUMPDEST SWAP4 POP PUSH2 0x1EAC DUP4 PUSH2 0x1E10 JUMP JUMPDEST DUP1 PUSH1 0x0 JUMPDEST DUP4 DUP2 LT ISZERO PUSH2 0x1EE4 JUMPI PUSH2 0x1EC1 DUP3 PUSH2 0x1E6C JUMP JUMPDEST PUSH2 0x1ECB DUP9 DUP3 PUSH2 0x1D78 JUMP JUMPDEST SWAP8 POP PUSH2 0x1ED6 DUP4 PUSH2 0x1E7F JUMP JUMPDEST SWAP3 POP POP PUSH1 0x1 DUP2 ADD SWAP1 POP PUSH2 0x1EB0 JUMP JUMPDEST POP DUP6 SWAP4 POP POP POP POP SWAP3 SWAP2 POP POP JUMP JUMPDEST PUSH1 0x0 PUSH2 0x1EFD DUP3 DUP5 PUSH2 0x1E8C JUMP JUMPDEST SWAP2 POP DUP2 SWAP1 POP SWAP3 SWAP2 POP POP JUMP JUMPDEST PUSH1 0x0 PUSH1 0xFF DUP3 AND SWAP1 POP SWAP2 SWAP1 POP JUMP JUMPDEST PUSH1 0x0 PUSH2 0x1F20 DUP3 PUSH2 0x1F08 JUMP JUMPDEST SWAP2 POP PUSH2 0x1F2B DUP4 PUSH2 0x1F08 JUMP JUMPDEST SWAP3 POP DUP3 PUSH1 0xFF SUB DUP3 GT ISZERO PUSH2 0x1F41 JUMPI PUSH2 0x1F40 PUSH2 0x1C55 JUMP JUMPDEST JUMPDEST DUP3 DUP3 ADD SWAP1 POP SWAP3 SWAP2 POP POP JUMP JUMPDEST PUSH1 0x0 PUSH2 0x1F57 DUP3 PUSH2 0x16EE JUMP JUMPDEST SWAP2 POP PUSH2 0x1F62 DUP4 PUSH2 0x16EE JUMP JUMPDEST SWAP3 POP DUP2 PUSH32 0xFFFFFFFFFFFFFFFFFFFFFFFFFFFFFFFFFFFFFFFFFFFFFFFFFFFFFFFFFFFFFFFF DIV DUP4 GT DUP3 ISZERO ISZERO AND ISZERO PUSH2 0x1F9B JUMPI PUSH2 0x1F9A PUSH2 0x1C55 JUMP JUMPDEST JUMPDEST DUP3 DUP3 MUL SWAP1 POP SWAP3 SWAP2 POP POP JUMP JUMPDEST PUSH32 0x796F752063616E27742062757920796F7572206F776E20646174610000000000 PUSH1 0x0 DUP3 ADD MSTORE POP JUMP JUMPDEST PUSH1 0x0 PUSH2 0x1FDC PUSH1 0x1B DUP4 PUSH2 0x173C JUMP JUMPDEST SWAP2 POP PUSH2 0x1FE7 DUP3 PUSH2 0x1FA6 JUMP JUMPDEST PUSH1 0x20 DUP3 ADD SWAP1 POP SWAP2 SWAP1 POP JUMP JUMPDEST PUSH1 0x0 PUSH1 0x20 DUP3 ADD SWAP1 POP DUP2 DUP2 SUB PUSH1 0x0 DUP4 ADD MSTORE PUSH2 0x200B DUP2 PUSH2 0x1FCF JUMP JUMPDEST SWAP1 POP SWAP2 SWAP1 POP JUMP JUMPDEST PUSH32 0x796F752063616E277420636F6E7472696275746520746F20616E20656E646564 PUSH1 0x0 DUP3 ADD MSTORE PUSH32 0x2061756374696F6E000000000000000000000000000000000000000000000000 PUSH1 0x20 DUP3 ADD MSTORE POP JUMP JUMPDEST PUSH1 0x0 PUSH2 0x206E PUSH1 0x28 DUP4 PUSH2 0x173C JUMP JUMPDEST SWAP2 POP PUSH2 0x2079 DUP3 PUSH2 0x2012 JUMP JUMPDEST PUSH1 0x40 DUP3 ADD SWAP1 POP SWAP2 SWAP1 POP JUMP JUMPDEST PUSH1 0x0 PUSH1 0x20 DUP3 ADD SWAP1 POP DUP2 DUP2 SUB PUSH1 0x0 DUP4 ADD MSTORE PUSH2 0x209D DUP2 PUSH2 0x2061 JUMP JUMPDEST SWAP1 POP SWAP2 SWAP1 POP JUMP JUMPDEST PUSH32 0x76616C7565203C20686967686573740000000000000000000000000000000000 PUSH1 0x0 DUP3 ADD MSTORE POP JUMP JUMPDEST PUSH1 0x0 PUSH2 0x20DA PUSH1 0xF DUP4 PUSH2 0x173C JUMP JUMPDEST SWAP2 POP PUSH2 0x20E5 DUP3 PUSH2 0x20A4 JUMP JUMPDEST PUSH1 0x20 DUP3 ADD SWAP1 POP SWAP2 SWAP1 POP JUMP JUMPDEST PUSH1 0x0 PUSH1 0x20 DUP3 ADD SWAP1 POP DUP2 DUP2 SUB PUSH1 0x0 DUP4 ADD MSTORE PUSH2 0x2109 DUP2 PUSH2 0x20CD JUMP JUMPDEST SWAP1 POP SWAP2 SWAP1 POP JUMP JUMPDEST PUSH1 0x0 PUSH2 0x211B DUP3 PUSH2 0x16EE JUMP JUMPDEST SWAP2 POP PUSH2 0x2126 DUP4 PUSH2 0x16EE JUMP JUMPDEST SWAP3 POP DUP3 PUSH32 0xFFFFFFFFFFFFFFFFFFFFFFFFFFFFFFFFFFFFFFFFFFFFFFFFFFFFFFFFFFFFFFFF SUB DUP3 GT ISZERO PUSH2 0x215B JUMPI PUSH2 0x215A PUSH2 0x1C55 JUMP JUMPDEST JUMPDEST DUP3 DUP3 ADD SWAP1 POP SWAP3 SWAP2 POP POP JUMP INVALID LOG2 PUSH5 0x6970667358 0x22 SLT KECCAK256 0xBE SWAP13 SWAP9 0xDD LT 0xBA SDIV PUSH6 0x46C695CCDD73 PUSH8 0xA98A366B30D98EBE 0xD CALLDATALOAD MSTORE 0xC2 ORIGIN DUP13 0x1F JUMPDEST SWAP2 PUSH5 0x736F6C6343 STOP ADDMOD 0xF STOP CALLER LOG2 PUSH5 0x6970667358 0x22 SLT KECCAK256 PUSH5 0xD5138BC6D 0xC5 0x4A LOG3 MLOAD GT 0xD5 0xED 0xE PUSH26 0xD6C8FD1D1746FC55D8D82554910E11850D64736F6C634300080F STOP CALLER "},"gasEstimates":{"creation":{"codeDepositCost":"2604200","executionCost":"2816","totalCost":"2607016"},"external":{"checkEndedAuctions()":"infinite","createCampaign(uint256,string,string,uint256)":"infinite","deployedCampaigns(uint256)":"4934","getDeployedCampaigns()":"infinite"}},"methodIdentifiers":{"checkEndedAuctions()":"75da6ba0","createCampaign(uint256,string,string,uint256)":"dc117416","deployedCampaigns(uint256)":"339d50a5","getDeployedCampaigns()":"4acb9d4f"}},"storageLayout":{"storage":[{"astId":5,"contract":"Campaign.sol:CampaignFactory","label":"deployedCampaigns","offset":0,"slot":"0","type":"t_array(t_address_payable)dyn_storage"}],"types":{"t_address_payable":{"encoding":"inplace","label":"address payable","numberOfBytes":"20"},"t_array(t_address_payable)dyn_storage":{"base":"t_address_payable","encoding":"dynamic_array","label":"address payable[]","numberOfBytes":"32"}}},"userdoc":{"kind":"user","methods":{},"version":1}}