{"abi":[{"inputs":[],"name":"checkEndedAuctions","outputs":[],"stateMutability":"nonpayable","type":"function"},{"inputs":[{"internalType":"uint256","name":"minimum","type":"uint256"},{"internalType":"string","name":"dataSell","type":"string"},{"internalType":"string","name":"dataDesc","type":"string"},{"internalType":"uint256","name":"duration","type":"uint256"},{"internalType":"address","name":"tokenAddress","type":"address"}],"name":"createCampaign","outputs":[],"stateMutability":"nonpayable","type":"function"},{"inputs":[{"internalType":"uint256","name":"","type":"uint256"}],"name":"deployedCampaigns","outputs":[{"internalType":"address payable","name":"","type":"address"}],"stateMutability":"view","type":"function"},{"inputs":[],"name":"getDeployedCampaigns","outputs":[{"internalType":"address payable[]","name":"","type":"address[]"}],"stateMutability":"view","type":"function"}],"devdoc":{"kind":"dev","methods":{},"version":1},"evm":{"assembly":"    /* \"Campaign.sol\":7111:8150  contract CampaignFactory {... */\n  mstore(0x40, 0x80)\n  callvalue\n  dup1\n  iszero\n  tag_1\n  jumpi\n  revert(0x00, 0x00)\ntag_1:\n  pop\n  dataSize(sub_0)\n  dup1\n  dataOffset(sub_0)\n  0x00\n  codecopy\n  0x00\n  return\nstop\n\nsub_0: assembly {\n        /* \"Campaign.sol\":7111:8150  contract CampaignFactory {... */\n      mstore(0x40, 0x80)\n      callvalue\n      dup1\n      iszero\n      tag_1\n      jumpi\n      revert(0x00, 0x00)\n    tag_1:\n      pop\n      jumpi(tag_2, lt(calldatasize, 0x04))\n      shr(0xe0, calldataload(0x00))\n      dup1\n      0x339d50a5\n      eq\n      tag_3\n      jumpi\n      dup1\n      0x4acb9d4f\n      eq\n      tag_4\n      jumpi\n      dup1\n      0x75da6ba0\n      eq\n      tag_5\n      jumpi\n      dup1\n      0xf9f01f88\n      eq\n      tag_6\n      jumpi\n    tag_2:\n      revert(0x00, 0x00)\n        /* \"Campaign.sol\":7143:7185  address payable[] public deployedCampaigns */\n    tag_3:\n      tag_7\n      0x04\n      dup1\n      calldatasize\n      sub\n      dup2\n      add\n      swap1\n      tag_8\n      swap2\n      swap1\n      tag_9\n      jump\t// in\n    tag_8:\n      tag_10\n      jump\t// in\n    tag_7:\n      mload(0x40)\n      tag_11\n      swap2\n      swap1\n      tag_12\n      jump\t// in\n    tag_11:\n      mload(0x40)\n      dup1\n      swap2\n      sub\n      swap1\n      return\n        /* \"Campaign.sol\":7647:7801  function getDeployedCampaigns()... */\n    tag_4:\n      tag_13\n      tag_14\n      jump\t// in\n    tag_13:\n      mload(0x40)\n      tag_15\n      swap2\n      swap1\n      tag_16\n      jump\t// in\n    tag_15:\n      mload(0x40)\n      dup1\n      swap2\n      sub\n      swap1\n      return\n        /* \"Campaign.sol\":7809:8147  function checkEndedAuctions() public {... */\n    tag_5:\n      tag_17\n      tag_18\n      jump\t// in\n    tag_17:\n      stop\n        /* \"Campaign.sol\":7194:7639  function createCampaign(... */\n    tag_6:\n      tag_19\n      0x04\n      dup1\n      calldatasize\n      sub\n      dup2\n      add\n      swap1\n      tag_20\n      swap2\n      swap1\n      tag_21\n      jump\t// in\n    tag_20:\n      tag_22\n      jump\t// in\n    tag_19:\n      stop\n        /* \"Campaign.sol\":7143:7185  address payable[] public deployedCampaigns */\n    tag_10:\n      0x00\n      dup2\n      dup2\n      sload\n      dup2\n      lt\n      tag_23\n      jumpi\n      0x00\n      dup1\n      revert\n    tag_23:\n      swap1\n      0x00\n      mstore\n      keccak256(0x00, 0x20)\n      add\n      0x00\n      swap2\n      pop\n      sload\n      swap1\n      0x0100\n      exp\n      swap1\n      div\n      0xffffffffffffffffffffffffffffffffffffffff\n      and\n      dup2\n      jump\t// out\n        /* \"Campaign.sol\":7647:7801  function getDeployedCampaigns()... */\n    tag_14:\n        /* \"Campaign.sol\":7727:7751  address payable[] memory */\n      0x60\n        /* \"Campaign.sol\":7776:7793  deployedCampaigns */\n      0x00\n        /* \"Campaign.sol\":7769:7793  return deployedCampaigns */\n      dup1\n      sload\n      dup1\n      0x20\n      mul\n      0x20\n      add\n      mload(0x40)\n      swap1\n      dup2\n      add\n      0x40\n      mstore\n      dup1\n      swap3\n      swap2\n      swap1\n      dup2\n      dup2\n      mstore\n      0x20\n      add\n      dup3\n      dup1\n      sload\n      dup1\n      iszero\n      tag_26\n      jumpi\n      0x20\n      mul\n      dup3\n      add\n      swap2\n      swap1\n      0x00\n      mstore\n      keccak256(0x00, 0x20)\n      swap1\n    tag_27:\n      dup2\n      0x00\n      swap1\n      sload\n      swap1\n      0x0100\n      exp\n      swap1\n      div\n      0xffffffffffffffffffffffffffffffffffffffff\n      and\n      0xffffffffffffffffffffffffffffffffffffffff\n      and\n      dup2\n      mstore\n      0x20\n      add\n      swap1\n      0x01\n      add\n      swap1\n      dup1\n      dup4\n      gt\n      tag_27\n      jumpi\n    tag_26:\n      pop\n      pop\n      pop\n      pop\n      pop\n      swap1\n      pop\n        /* \"Campaign.sol\":7647:7801  function getDeployedCampaigns()... */\n      swap1\n      jump\t// out\n        /* \"Campaign.sol\":7809:8147  function checkEndedAuctions() public {... */\n    tag_18:\n        /* \"Campaign.sol\":7862:7871  uint256 i */\n      0x00\n        /* \"Campaign.sol\":7874:7875  0 */\n      0x00\n        /* \"Campaign.sol\":7862:7875  uint256 i = 0 */\n      swap1\n      pop\n        /* \"Campaign.sol\":7857:8140  for (uint256 i = 0; i < deployedCampaigns.length; i++) {... */\n    tag_29:\n        /* \"Campaign.sol\":7881:7898  deployedCampaigns */\n      0x00\n        /* \"Campaign.sol\":7881:7905  deployedCampaigns.length */\n      dup1\n      sload\n      swap1\n      pop\n        /* \"Campaign.sol\":7877:7878  i */\n      dup2\n        /* \"Campaign.sol\":7877:7905  i < deployedCampaigns.length */\n      lt\n        /* \"Campaign.sol\":7857:8140  for (uint256 i = 0; i < deployedCampaigns.length; i++) {... */\n      iszero\n      tag_30\n      jumpi\n        /* \"Campaign.sol\":7927:7944  Campaign campaign */\n      0x00\n        /* \"Campaign.sol\":7956:7973  deployedCampaigns */\n      0x00\n        /* \"Campaign.sol\":7974:7975  i */\n      dup3\n        /* \"Campaign.sol\":7956:7976  deployedCampaigns[i] */\n      dup2\n      sload\n      dup2\n      lt\n      tag_32\n      jumpi\n      tag_33\n      tag_34\n      jump\t// in\n    tag_33:\n    tag_32:\n      swap1\n      0x00\n      mstore\n      keccak256(0x00, 0x20)\n      add\n      0x00\n      swap1\n      sload\n      swap1\n      0x0100\n      exp\n      swap1\n      div\n      0xffffffffffffffffffffffffffffffffffffffff\n      and\n        /* \"Campaign.sol\":7927:7977  Campaign campaign = Campaign(deployedCampaigns[i]) */\n      swap1\n      pop\n        /* \"Campaign.sol\":7997:8005  campaign */\n      dup1\n        /* \"Campaign.sol\":7997:8015  campaign.getStatus */\n      0xffffffffffffffffffffffffffffffffffffffff\n      and\n      0x4e69d560\n        /* \"Campaign.sol\":7997:8017  campaign.getStatus() */\n      mload(0x40)\n      dup2\n      0xffffffff\n      and\n      0xe0\n      shl\n      dup2\n      mstore\n      0x04\n      add\n      0x20\n      mload(0x40)\n      dup1\n      dup4\n      sub\n      dup2\n      dup7\n      gas\n      staticcall\n      iszero\n      dup1\n      iszero\n      tag_37\n      jumpi\n      returndatacopy(0x00, 0x00, returndatasize)\n      revert(0x00, returndatasize)\n    tag_37:\n      pop\n      pop\n      pop\n      pop\n      mload(0x40)\n      returndatasize\n      not(0x1f)\n      0x1f\n      dup3\n      add\n      and\n      dup3\n      add\n      dup1\n      0x40\n      mstore\n      pop\n      dup2\n      add\n      swap1\n      tag_38\n      swap2\n      swap1\n      tag_39\n      jump\t// in\n    tag_38:\n        /* \"Campaign.sol\":7996:8017  !campaign.getStatus() */\n      iszero\n        /* \"Campaign.sol\":7996:8058  !campaign.getStatus() && block.timestamp >= campaign.endTime() */\n      dup1\n      iszero\n      tag_40\n      jumpi\n      pop\n        /* \"Campaign.sol\":8040:8048  campaign */\n      dup1\n        /* \"Campaign.sol\":8040:8056  campaign.endTime */\n      0xffffffffffffffffffffffffffffffffffffffff\n      and\n      0x3197cbb6\n        /* \"Campaign.sol\":8040:8058  campaign.endTime() */\n      mload(0x40)\n      dup2\n      0xffffffff\n      and\n      0xe0\n      shl\n      dup2\n      mstore\n      0x04\n      add\n      0x20\n      mload(0x40)\n      dup1\n      dup4\n      sub\n      dup2\n      dup7\n      gas\n      staticcall\n      iszero\n      dup1\n      iszero\n      tag_42\n      jumpi\n      returndatacopy(0x00, 0x00, returndatasize)\n      revert(0x00, returndatasize)\n    tag_42:\n      pop\n      pop\n      pop\n      pop\n      mload(0x40)\n      returndatasize\n      not(0x1f)\n      0x1f\n      dup3\n      add\n      and\n      dup3\n      add\n      dup1\n      0x40\n      mstore\n      pop\n      dup2\n      add\n      swap1\n      tag_43\n      swap2\n      swap1\n      tag_44\n      jump\t// in\n    tag_43:\n        /* \"Campaign.sol\":8021:8036  block.timestamp */\n      timestamp\n        /* \"Campaign.sol\":8021:8058  block.timestamp >= campaign.endTime() */\n      lt\n      iszero\n        /* \"Campaign.sol\":7996:8058  !campaign.getStatus() && block.timestamp >= campaign.endTime() */\n    tag_40:\n        /* \"Campaign.sol\":7992:8129  if (!campaign.getStatus() && block.timestamp >= campaign.endTime()) {... */\n      iszero\n      tag_45\n      jumpi\n        /* \"Campaign.sol\":8079:8087  campaign */\n      dup1\n        /* \"Campaign.sol\":8079:8111  campaign.finalizeAuctionIfNeeded */\n      0xffffffffffffffffffffffffffffffffffffffff\n      and\n      0x976af615\n        /* \"Campaign.sol\":8079:8113  campaign.finalizeAuctionIfNeeded() */\n      mload(0x40)\n      dup2\n      0xffffffff\n      and\n      0xe0\n      shl\n      dup2\n      mstore\n      0x04\n      add\n      0x00\n      mload(0x40)\n      dup1\n      dup4\n      sub\n      dup2\n      0x00\n      dup8\n      dup1\n      extcodesize\n      iszero\n      dup1\n      iszero\n      tag_46\n      jumpi\n      revert(0x00, 0x00)\n    tag_46:\n      pop\n      gas\n      call\n      iszero\n      dup1\n      iszero\n      tag_48\n      jumpi\n      returndatacopy(0x00, 0x00, returndatasize)\n      revert(0x00, returndatasize)\n    tag_48:\n      pop\n      pop\n      pop\n      pop\n        /* \"Campaign.sol\":7992:8129  if (!campaign.getStatus() && block.timestamp >= campaign.endTime()) {... */\n    tag_45:\n        /* \"Campaign.sol\":7912:8140  {... */\n      pop\n        /* \"Campaign.sol\":7907:7910  i++ */\n      dup1\n      dup1\n      0x01\n      add\n      swap2\n      pop\n      pop\n        /* \"Campaign.sol\":7857:8140  for (uint256 i = 0; i < deployedCampaigns.length; i++) {... */\n      jump(tag_29)\n    tag_30:\n      pop\n        /* \"Campaign.sol\":7809:8147  function checkEndedAuctions() public {... */\n      jump\t// out\n        /* \"Campaign.sol\":7194:7639  function createCampaign(... */\n    tag_22:\n        /* \"Campaign.sol\":7393:7404  uint256 end */\n      0x00\n        /* \"Campaign.sol\":7423:7438  block.timestamp */\n      timestamp\n        /* \"Campaign.sol\":7412:7420  duration */\n      dup4\n        /* \"Campaign.sol\":7407:7409  60 */\n      0x3c\n        /* \"Campaign.sol\":7407:7420  60 * duration */\n      tag_50\n      swap2\n      swap1\n      tag_51\n      jump\t// in\n    tag_50:\n        /* \"Campaign.sol\":7407:7438  60 * duration + block.timestamp */\n      tag_52\n      swap2\n      swap1\n      tag_53\n      jump\t// in\n    tag_52:\n        /* \"Campaign.sol\":7393:7438  uint256 end = 60 * duration + block.timestamp */\n      swap1\n      pop\n        /* \"Campaign.sol\":7449:7468  address newCampaign */\n      0x00\n        /* \"Campaign.sol\":7506:7513  minimum */\n      dup7\n        /* \"Campaign.sol\":7515:7523  dataSell */\n      dup7\n        /* \"Campaign.sol\":7525:7533  dataDesc */\n      dup7\n        /* \"Campaign.sol\":7535:7545  msg.sender */\n      caller\n        /* \"Campaign.sol\":7547:7550  end */\n      dup6\n        /* \"Campaign.sol\":7552:7564  tokenAddress */\n      dup8\n        /* \"Campaign.sol\":7493:7565  new Campaign(minimum, dataSell, dataDesc, msg.sender, end, tokenAddress) */\n      mload(0x40)\n      tag_54\n      swap1\n      tag_55\n      jump\t// in\n    tag_54:\n      tag_56\n      swap7\n      swap6\n      swap5\n      swap4\n      swap3\n      swap2\n      swap1\n      tag_57\n      jump\t// in\n    tag_56:\n      mload(0x40)\n      dup1\n      swap2\n      sub\n      swap1\n      0x00\n      create\n      dup1\n      iszero\n      dup1\n      iszero\n      tag_58\n      jumpi\n      returndatacopy(0x00, 0x00, returndatasize)\n      revert(0x00, returndatasize)\n    tag_58:\n      pop\n        /* \"Campaign.sol\":7449:7576  address newCampaign = address(... */\n      swap1\n      pop\n        /* \"Campaign.sol\":7587:7604  deployedCampaigns */\n      0x00\n        /* \"Campaign.sol\":7618:7629  newCampaign */\n      dup2\n        /* \"Campaign.sol\":7587:7631  deployedCampaigns.push(payable(newCampaign)) */\n      swap1\n      dup1\n      0x01\n      dup2\n      sload\n      add\n      dup1\n      dup3\n      sstore\n      dup1\n      swap2\n      pop\n      pop\n      0x01\n      swap1\n      sub\n      swap1\n      0x00\n      mstore\n      keccak256(0x00, 0x20)\n      add\n      0x00\n      swap1\n      swap2\n      swap1\n      swap2\n      swap1\n      swap2\n      0x0100\n      exp\n      dup2\n      sload\n      dup2\n      0xffffffffffffffffffffffffffffffffffffffff\n      mul\n      not\n      and\n      swap1\n      dup4\n      0xffffffffffffffffffffffffffffffffffffffff\n      and\n      mul\n      or\n      swap1\n      sstore\n      pop\n        /* \"Campaign.sol\":7382:7639  {... */\n      pop\n      pop\n        /* \"Campaign.sol\":7194:7639  function createCampaign(... */\n      pop\n      pop\n      pop\n      pop\n      pop\n      jump\t// out\n    tag_55:\n      dataSize(sub_0)\n      dup1\n      dataOffset(sub_0)\n      dup4\n      codecopy\n      add\n      swap1\n      jump\t// out\n        /* \"#utility.yul\":7:82   */\n    tag_60:\n        /* \"#utility.yul\":40:46   */\n      0x00\n        /* \"#utility.yul\":73:75   */\n      0x40\n        /* \"#utility.yul\":67:76   */\n      mload\n        /* \"#utility.yul\":57:76   */\n      swap1\n      pop\n        /* \"#utility.yul\":7:82   */\n      swap1\n      jump\t// out\n        /* \"#utility.yul\":88:205   */\n    tag_61:\n        /* \"#utility.yul\":197:198   */\n      0x00\n        /* \"#utility.yul\":194:195   */\n      0x00\n        /* \"#utility.yul\":187:199   */\n      revert\n        /* \"#utility.yul\":211:328   */\n    tag_62:\n        /* \"#utility.yul\":320:321   */\n      0x00\n        /* \"#utility.yul\":317:318   */\n      0x00\n        /* \"#utility.yul\":310:322   */\n      revert\n        /* \"#utility.yul\":334:411   */\n    tag_63:\n        /* \"#utility.yul\":371:378   */\n      0x00\n        /* \"#utility.yul\":400:405   */\n      dup2\n        /* \"#utility.yul\":389:405   */\n      swap1\n      pop\n        /* \"#utility.yul\":334:411   */\n      swap2\n      swap1\n      pop\n      jump\t// out\n        /* \"#utility.yul\":417:539   */\n    tag_64:\n        /* \"#utility.yul\":490:514   */\n      tag_106\n        /* \"#utility.yul\":508:513   */\n      dup2\n        /* \"#utility.yul\":490:514   */\n      tag_63\n      jump\t// in\n    tag_106:\n        /* \"#utility.yul\":483:488   */\n      dup2\n        /* \"#utility.yul\":480:515   */\n      eq\n        /* \"#utility.yul\":470:533   */\n      tag_107\n      jumpi\n        /* \"#utility.yul\":529:530   */\n      0x00\n        /* \"#utility.yul\":526:527   */\n      0x00\n        /* \"#utility.yul\":519:531   */\n      revert\n        /* \"#utility.yul\":470:533   */\n    tag_107:\n        /* \"#utility.yul\":417:539   */\n      pop\n      jump\t// out\n        /* \"#utility.yul\":545:684   */\n    tag_65:\n        /* \"#utility.yul\":591:596   */\n      0x00\n        /* \"#utility.yul\":629:635   */\n      dup2\n        /* \"#utility.yul\":616:636   */\n      calldataload\n        /* \"#utility.yul\":607:636   */\n      swap1\n      pop\n        /* \"#utility.yul\":645:678   */\n      tag_109\n        /* \"#utility.yul\":672:677   */\n      dup2\n        /* \"#utility.yul\":645:678   */\n      tag_64\n      jump\t// in\n    tag_109:\n        /* \"#utility.yul\":545:684   */\n      swap3\n      swap2\n      pop\n      pop\n      jump\t// out\n        /* \"#utility.yul\":690:1019   */\n    tag_9:\n        /* \"#utility.yul\":749:755   */\n      0x00\n        /* \"#utility.yul\":798:800   */\n      0x20\n        /* \"#utility.yul\":786:795   */\n      dup3\n        /* \"#utility.yul\":777:784   */\n      dup5\n        /* \"#utility.yul\":773:796   */\n      sub\n        /* \"#utility.yul\":769:801   */\n      slt\n        /* \"#utility.yul\":766:885   */\n      iszero\n      tag_111\n      jumpi\n        /* \"#utility.yul\":804:883   */\n      tag_112\n      tag_61\n      jump\t// in\n    tag_112:\n        /* \"#utility.yul\":766:885   */\n    tag_111:\n        /* \"#utility.yul\":924:925   */\n      0x00\n        /* \"#utility.yul\":949:1002   */\n      tag_113\n        /* \"#utility.yul\":994:1001   */\n      dup5\n        /* \"#utility.yul\":985:991   */\n      dup3\n        /* \"#utility.yul\":974:983   */\n      dup6\n        /* \"#utility.yul\":970:992   */\n      add\n        /* \"#utility.yul\":949:1002   */\n      tag_65\n      jump\t// in\n    tag_113:\n        /* \"#utility.yul\":939:1002   */\n      swap2\n      pop\n        /* \"#utility.yul\":895:1012   */\n      pop\n        /* \"#utility.yul\":690:1019   */\n      swap3\n      swap2\n      pop\n      pop\n      jump\t// out\n        /* \"#utility.yul\":1025:1151   */\n    tag_66:\n        /* \"#utility.yul\":1062:1069   */\n      0x00\n        /* \"#utility.yul\":1102:1144   */\n      0xffffffffffffffffffffffffffffffffffffffff\n        /* \"#utility.yul\":1095:1100   */\n      dup3\n        /* \"#utility.yul\":1091:1145   */\n      and\n        /* \"#utility.yul\":1080:1145   */\n      swap1\n      pop\n        /* \"#utility.yul\":1025:1151   */\n      swap2\n      swap1\n      pop\n      jump\t// out\n        /* \"#utility.yul\":1157:1261   */\n    tag_67:\n        /* \"#utility.yul\":1202:1209   */\n      0x00\n        /* \"#utility.yul\":1231:1255   */\n      tag_116\n        /* \"#utility.yul\":1249:1254   */\n      dup3\n        /* \"#utility.yul\":1231:1255   */\n      tag_66\n      jump\t// in\n    tag_116:\n        /* \"#utility.yul\":1220:1255   */\n      swap1\n      pop\n        /* \"#utility.yul\":1157:1261   */\n      swap2\n      swap1\n      pop\n      jump\t// out\n        /* \"#utility.yul\":1267:1409   */\n    tag_68:\n        /* \"#utility.yul\":1370:1402   */\n      tag_118\n        /* \"#utility.yul\":1396:1401   */\n      dup2\n        /* \"#utility.yul\":1370:1402   */\n      tag_67\n      jump\t// in\n    tag_118:\n        /* \"#utility.yul\":1365:1368   */\n      dup3\n        /* \"#utility.yul\":1358:1403   */\n      mstore\n        /* \"#utility.yul\":1267:1409   */\n      pop\n      pop\n      jump\t// out\n        /* \"#utility.yul\":1415:1669   */\n    tag_12:\n        /* \"#utility.yul\":1524:1528   */\n      0x00\n        /* \"#utility.yul\":1562:1564   */\n      0x20\n        /* \"#utility.yul\":1551:1560   */\n      dup3\n        /* \"#utility.yul\":1547:1565   */\n      add\n        /* \"#utility.yul\":1539:1565   */\n      swap1\n      pop\n        /* \"#utility.yul\":1575:1662   */\n      tag_120\n        /* \"#utility.yul\":1659:1660   */\n      0x00\n        /* \"#utility.yul\":1648:1657   */\n      dup4\n        /* \"#utility.yul\":1644:1661   */\n      add\n        /* \"#utility.yul\":1635:1641   */\n      dup5\n        /* \"#utility.yul\":1575:1662   */\n      tag_68\n      jump\t// in\n    tag_120:\n        /* \"#utility.yul\":1415:1669   */\n      swap3\n      swap2\n      pop\n      pop\n      jump\t// out\n        /* \"#utility.yul\":1675:1797   */\n    tag_69:\n        /* \"#utility.yul\":1750:1756   */\n      0x00\n        /* \"#utility.yul\":1784:1789   */\n      dup2\n        /* \"#utility.yul\":1778:1790   */\n      mload\n        /* \"#utility.yul\":1768:1790   */\n      swap1\n      pop\n        /* \"#utility.yul\":1675:1797   */\n      swap2\n      swap1\n      pop\n      jump\t// out\n        /* \"#utility.yul\":1803:1995   */\n    tag_70:\n        /* \"#utility.yul\":1910:1921   */\n      0x00\n        /* \"#utility.yul\":1944:1950   */\n      dup3\n        /* \"#utility.yul\":1939:1942   */\n      dup3\n        /* \"#utility.yul\":1932:1951   */\n      mstore\n        /* \"#utility.yul\":1984:1988   */\n      0x20\n        /* \"#utility.yul\":1979:1982   */\n      dup3\n        /* \"#utility.yul\":1975:1989   */\n      add\n        /* \"#utility.yul\":1960:1989   */\n      swap1\n      pop\n        /* \"#utility.yul\":1803:1995   */\n      swap3\n      swap2\n      pop\n      pop\n      jump\t// out\n        /* \"#utility.yul\":2001:2141   */\n    tag_71:\n        /* \"#utility.yul\":2076:2080   */\n      0x00\n        /* \"#utility.yul\":2099:2102   */\n      dup2\n        /* \"#utility.yul\":2091:2102   */\n      swap1\n      pop\n        /* \"#utility.yul\":2129:2133   */\n      0x20\n        /* \"#utility.yul\":2124:2127   */\n      dup3\n        /* \"#utility.yul\":2120:2134   */\n      add\n        /* \"#utility.yul\":2112:2134   */\n      swap1\n      pop\n        /* \"#utility.yul\":2001:2141   */\n      swap2\n      swap1\n      pop\n      jump\t// out\n        /* \"#utility.yul\":2147:2279   */\n    tag_72:\n        /* \"#utility.yul\":2240:2272   */\n      tag_125\n        /* \"#utility.yul\":2266:2271   */\n      dup2\n        /* \"#utility.yul\":2240:2272   */\n      tag_67\n      jump\t// in\n    tag_125:\n        /* \"#utility.yul\":2235:2238   */\n      dup3\n        /* \"#utility.yul\":2228:2273   */\n      mstore\n        /* \"#utility.yul\":2147:2279   */\n      pop\n      pop\n      jump\t// out\n        /* \"#utility.yul\":2285:2496   */\n    tag_73:\n        /* \"#utility.yul\":2370:2380   */\n      0x00\n        /* \"#utility.yul\":2391:2453   */\n      tag_127\n        /* \"#utility.yul\":2449:2452   */\n      dup4\n        /* \"#utility.yul\":2441:2447   */\n      dup4\n        /* \"#utility.yul\":2391:2453   */\n      tag_72\n      jump\t// in\n    tag_127:\n        /* \"#utility.yul\":2485:2489   */\n      0x20\n        /* \"#utility.yul\":2480:2483   */\n      dup4\n        /* \"#utility.yul\":2476:2490   */\n      add\n        /* \"#utility.yul\":2462:2490   */\n      swap1\n      pop\n        /* \"#utility.yul\":2285:2496   */\n      swap3\n      swap2\n      pop\n      pop\n      jump\t// out\n        /* \"#utility.yul\":2502:2623   */\n    tag_74:\n        /* \"#utility.yul\":2580:2584   */\n      0x00\n        /* \"#utility.yul\":2612:2616   */\n      0x20\n        /* \"#utility.yul\":2607:2610   */\n      dup3\n        /* \"#utility.yul\":2603:2617   */\n      add\n        /* \"#utility.yul\":2595:2617   */\n      swap1\n      pop\n        /* \"#utility.yul\":2502:2623   */\n      swap2\n      swap1\n      pop\n      jump\t// out\n        /* \"#utility.yul\":2675:3471   */\n    tag_75:\n        /* \"#utility.yul\":2810:2813   */\n      0x00\n        /* \"#utility.yul\":2839:2901   */\n      tag_130\n        /* \"#utility.yul\":2895:2900   */\n      dup3\n        /* \"#utility.yul\":2839:2901   */\n      tag_69\n      jump\t// in\n    tag_130:\n        /* \"#utility.yul\":2917:3011   */\n      tag_131\n        /* \"#utility.yul\":3004:3010   */\n      dup2\n        /* \"#utility.yul\":2999:3002   */\n      dup6\n        /* \"#utility.yul\":2917:3011   */\n      tag_70\n      jump\t// in\n    tag_131:\n        /* \"#utility.yul\":2910:3011   */\n      swap4\n      pop\n        /* \"#utility.yul\":3035:3099   */\n      tag_132\n        /* \"#utility.yul\":3093:3098   */\n      dup4\n        /* \"#utility.yul\":3035:3099   */\n      tag_71\n      jump\t// in\n    tag_132:\n        /* \"#utility.yul\":3122:3129   */\n      dup1\n        /* \"#utility.yul\":3153:3154   */\n      0x00\n        /* \"#utility.yul\":3138:3446   */\n    tag_133:\n        /* \"#utility.yul\":3163:3169   */\n      dup4\n        /* \"#utility.yul\":3160:3161   */\n      dup2\n        /* \"#utility.yul\":3157:3170   */\n      lt\n        /* \"#utility.yul\":3138:3446   */\n      iszero\n      tag_135\n      jumpi\n        /* \"#utility.yul\":3239:3245   */\n      dup2\n        /* \"#utility.yul\":3233:3246   */\n      mload\n        /* \"#utility.yul\":3266:3345   */\n      tag_136\n        /* \"#utility.yul\":3341:3344   */\n      dup9\n        /* \"#utility.yul\":3326:3339   */\n      dup3\n        /* \"#utility.yul\":3266:3345   */\n      tag_73\n      jump\t// in\n    tag_136:\n        /* \"#utility.yul\":3259:3345   */\n      swap8\n      pop\n        /* \"#utility.yul\":3368:3436   */\n      tag_137\n        /* \"#utility.yul\":3429:3435   */\n      dup4\n        /* \"#utility.yul\":3368:3436   */\n      tag_74\n      jump\t// in\n    tag_137:\n        /* \"#utility.yul\":3358:3436   */\n      swap3\n      pop\n        /* \"#utility.yul\":3198:3446   */\n      pop\n        /* \"#utility.yul\":3185:3186   */\n      0x01\n        /* \"#utility.yul\":3182:3183   */\n      dup2\n        /* \"#utility.yul\":3178:3187   */\n      add\n        /* \"#utility.yul\":3173:3187   */\n      swap1\n      pop\n        /* \"#utility.yul\":3138:3446   */\n      jump(tag_133)\n    tag_135:\n        /* \"#utility.yul\":3142:3156   */\n      pop\n        /* \"#utility.yul\":3462:3465   */\n      dup6\n        /* \"#utility.yul\":3455:3465   */\n      swap4\n      pop\n        /* \"#utility.yul\":2815:3471   */\n      pop\n      pop\n      pop\n        /* \"#utility.yul\":2675:3471   */\n      swap3\n      swap2\n      pop\n      pop\n      jump\t// out\n        /* \"#utility.yul\":3477:3882   */\n    tag_16:\n        /* \"#utility.yul\":3636:3640   */\n      0x00\n        /* \"#utility.yul\":3674:3676   */\n      0x20\n        /* \"#utility.yul\":3663:3672   */\n      dup3\n        /* \"#utility.yul\":3659:3677   */\n      add\n        /* \"#utility.yul\":3651:3677   */\n      swap1\n      pop\n        /* \"#utility.yul\":3723:3732   */\n      dup2\n        /* \"#utility.yul\":3717:3721   */\n      dup2\n        /* \"#utility.yul\":3713:3733   */\n      sub\n        /* \"#utility.yul\":3709:3710   */\n      0x00\n        /* \"#utility.yul\":3698:3707   */\n      dup4\n        /* \"#utility.yul\":3694:3711   */\n      add\n        /* \"#utility.yul\":3687:3734   */\n      mstore\n        /* \"#utility.yul\":3751:3875   */\n      tag_139\n        /* \"#utility.yul\":3870:3874   */\n      dup2\n        /* \"#utility.yul\":3861:3867   */\n      dup5\n        /* \"#utility.yul\":3751:3875   */\n      tag_75\n      jump\t// in\n    tag_139:\n        /* \"#utility.yul\":3743:3875   */\n      swap1\n      pop\n        /* \"#utility.yul\":3477:3882   */\n      swap3\n      swap2\n      pop\n      pop\n      jump\t// out\n        /* \"#utility.yul\":3888:4005   */\n    tag_76:\n        /* \"#utility.yul\":3997:3998   */\n      0x00\n        /* \"#utility.yul\":3994:3995   */\n      0x00\n        /* \"#utility.yul\":3987:3999   */\n      revert\n        /* \"#utility.yul\":4011:4128   */\n    tag_77:\n        /* \"#utility.yul\":4120:4121   */\n      0x00\n        /* \"#utility.yul\":4117:4118   */\n      0x00\n        /* \"#utility.yul\":4110:4122   */\n      revert\n        /* \"#utility.yul\":4134:4236   */\n    tag_78:\n        /* \"#utility.yul\":4175:4181   */\n      0x00\n        /* \"#utility.yul\":4226:4228   */\n      0x1f\n        /* \"#utility.yul\":4222:4229   */\n      not\n        /* \"#utility.yul\":4217:4219   */\n      0x1f\n        /* \"#utility.yul\":4210:4215   */\n      dup4\n        /* \"#utility.yul\":4206:4220   */\n      add\n        /* \"#utility.yul\":4202:4230   */\n      and\n        /* \"#utility.yul\":4192:4230   */\n      swap1\n      pop\n        /* \"#utility.yul\":4134:4236   */\n      swap2\n      swap1\n      pop\n      jump\t// out\n        /* \"#utility.yul\":4242:4422   */\n    tag_79:\n        /* \"#utility.yul\":4290:4367   */\n      0x4e487b7100000000000000000000000000000000000000000000000000000000\n        /* \"#utility.yul\":4287:4288   */\n      0x00\n        /* \"#utility.yul\":4280:4368   */\n      mstore\n        /* \"#utility.yul\":4387:4391   */\n      0x41\n        /* \"#utility.yul\":4384:4385   */\n      0x04\n        /* \"#utility.yul\":4377:4392   */\n      mstore\n        /* \"#utility.yul\":4411:4415   */\n      0x24\n        /* \"#utility.yul\":4408:4409   */\n      0x00\n        /* \"#utility.yul\":4401:4416   */\n      revert\n        /* \"#utility.yul\":4428:4709   */\n    tag_80:\n        /* \"#utility.yul\":4511:4538   */\n      tag_145\n        /* \"#utility.yul\":4533:4537   */\n      dup3\n        /* \"#utility.yul\":4511:4538   */\n      tag_78\n      jump\t// in\n    tag_145:\n        /* \"#utility.yul\":4503:4509   */\n      dup2\n        /* \"#utility.yul\":4499:4539   */\n      add\n        /* \"#utility.yul\":4641:4647   */\n      dup2\n        /* \"#utility.yul\":4629:4639   */\n      dup2\n        /* \"#utility.yul\":4626:4648   */\n      lt\n        /* \"#utility.yul\":4605:4623   */\n      0xffffffffffffffff\n        /* \"#utility.yul\":4593:4603   */\n      dup3\n        /* \"#utility.yul\":4590:4624   */\n      gt\n        /* \"#utility.yul\":4587:4649   */\n      or\n        /* \"#utility.yul\":4584:4672   */\n      iszero\n      tag_146\n      jumpi\n        /* \"#utility.yul\":4652:4670   */\n      tag_147\n      tag_79\n      jump\t// in\n    tag_147:\n        /* \"#utility.yul\":4584:4672   */\n    tag_146:\n        /* \"#utility.yul\":4692:4702   */\n      dup1\n        /* \"#utility.yul\":4688:4690   */\n      0x40\n        /* \"#utility.yul\":4681:4703   */\n      mstore\n        /* \"#utility.yul\":4471:4709   */\n      pop\n        /* \"#utility.yul\":4428:4709   */\n      pop\n      pop\n      jump\t// out\n        /* \"#utility.yul\":4715:4844   */\n    tag_81:\n        /* \"#utility.yul\":4749:4755   */\n      0x00\n        /* \"#utility.yul\":4776:4796   */\n      tag_149\n      tag_60\n      jump\t// in\n    tag_149:\n        /* \"#utility.yul\":4766:4796   */\n      swap1\n      pop\n        /* \"#utility.yul\":4805:4838   */\n      tag_150\n        /* \"#utility.yul\":4833:4837   */\n      dup3\n        /* \"#utility.yul\":4825:4831   */\n      dup3\n        /* \"#utility.yul\":4805:4838   */\n      tag_80\n      jump\t// in\n    tag_150:\n        /* \"#utility.yul\":4715:4844   */\n      swap2\n      swap1\n      pop\n      jump\t// out\n        /* \"#utility.yul\":4850:5158   */\n    tag_82:\n        /* \"#utility.yul\":4912:4916   */\n      0x00\n        /* \"#utility.yul\":5002:5020   */\n      0xffffffffffffffff\n        /* \"#utility.yul\":4994:5000   */\n      dup3\n        /* \"#utility.yul\":4991:5021   */\n      gt\n        /* \"#utility.yul\":4988:5044   */\n      iszero\n      tag_152\n      jumpi\n        /* \"#utility.yul\":5024:5042   */\n      tag_153\n      tag_79\n      jump\t// in\n    tag_153:\n        /* \"#utility.yul\":4988:5044   */\n    tag_152:\n        /* \"#utility.yul\":5062:5091   */\n      tag_154\n        /* \"#utility.yul\":5084:5090   */\n      dup3\n        /* \"#utility.yul\":5062:5091   */\n      tag_78\n      jump\t// in\n    tag_154:\n        /* \"#utility.yul\":5054:5091   */\n      swap1\n      pop\n        /* \"#utility.yul\":5146:5150   */\n      0x20\n        /* \"#utility.yul\":5140:5144   */\n      dup2\n        /* \"#utility.yul\":5136:5151   */\n      add\n        /* \"#utility.yul\":5128:5151   */\n      swap1\n      pop\n        /* \"#utility.yul\":4850:5158   */\n      swap2\n      swap1\n      pop\n      jump\t// out\n        /* \"#utility.yul\":5164:5312   */\n    tag_83:\n        /* \"#utility.yul\":5262:5268   */\n      dup3\n        /* \"#utility.yul\":5257:5260   */\n      dup2\n        /* \"#utility.yul\":5252:5255   */\n      dup4\n        /* \"#utility.yul\":5239:5269   */\n      calldatacopy\n        /* \"#utility.yul\":5303:5304   */\n      0x00\n        /* \"#utility.yul\":5294:5300   */\n      dup4\n        /* \"#utility.yul\":5289:5292   */\n      dup4\n        /* \"#utility.yul\":5285:5301   */\n      add\n        /* \"#utility.yul\":5278:5305   */\n      mstore\n        /* \"#utility.yul\":5164:5312   */\n      pop\n      pop\n      pop\n      jump\t// out\n        /* \"#utility.yul\":5318:5743   */\n    tag_84:\n        /* \"#utility.yul\":5396:5401   */\n      0x00\n        /* \"#utility.yul\":5421:5487   */\n      tag_157\n        /* \"#utility.yul\":5437:5486   */\n      tag_158\n        /* \"#utility.yul\":5479:5485   */\n      dup5\n        /* \"#utility.yul\":5437:5486   */\n      tag_82\n      jump\t// in\n    tag_158:\n        /* \"#utility.yul\":5421:5487   */\n      tag_81\n      jump\t// in\n    tag_157:\n        /* \"#utility.yul\":5412:5487   */\n      swap1\n      pop\n        /* \"#utility.yul\":5510:5516   */\n      dup3\n        /* \"#utility.yul\":5503:5508   */\n      dup2\n        /* \"#utility.yul\":5496:5517   */\n      mstore\n        /* \"#utility.yul\":5548:5552   */\n      0x20\n        /* \"#utility.yul\":5541:5546   */\n      dup2\n        /* \"#utility.yul\":5537:5553   */\n      add\n        /* \"#utility.yul\":5586:5589   */\n      dup5\n        /* \"#utility.yul\":5577:5583   */\n      dup5\n        /* \"#utility.yul\":5572:5575   */\n      dup5\n        /* \"#utility.yul\":5568:5584   */\n      add\n        /* \"#utility.yul\":5565:5590   */\n      gt\n        /* \"#utility.yul\":5562:5674   */\n      iszero\n      tag_159\n      jumpi\n        /* \"#utility.yul\":5593:5672   */\n      tag_160\n      tag_77\n      jump\t// in\n    tag_160:\n        /* \"#utility.yul\":5562:5674   */\n    tag_159:\n        /* \"#utility.yul\":5683:5737   */\n      tag_161\n        /* \"#utility.yul\":5730:5736   */\n      dup5\n        /* \"#utility.yul\":5725:5728   */\n      dup3\n        /* \"#utility.yul\":5720:5723   */\n      dup6\n        /* \"#utility.yul\":5683:5737   */\n      tag_83\n      jump\t// in\n    tag_161:\n        /* \"#utility.yul\":5402:5743   */\n      pop\n        /* \"#utility.yul\":5318:5743   */\n      swap4\n      swap3\n      pop\n      pop\n      pop\n      jump\t// out\n        /* \"#utility.yul\":5763:6103   */\n    tag_85:\n        /* \"#utility.yul\":5819:5824   */\n      0x00\n        /* \"#utility.yul\":5868:5871   */\n      dup3\n        /* \"#utility.yul\":5861:5865   */\n      0x1f\n        /* \"#utility.yul\":5853:5859   */\n      dup4\n        /* \"#utility.yul\":5849:5866   */\n      add\n        /* \"#utility.yul\":5845:5872   */\n      slt\n        /* \"#utility.yul\":5835:5957   */\n      tag_163\n      jumpi\n        /* \"#utility.yul\":5876:5955   */\n      tag_164\n      tag_76\n      jump\t// in\n    tag_164:\n        /* \"#utility.yul\":5835:5957   */\n    tag_163:\n        /* \"#utility.yul\":5993:5999   */\n      dup2\n        /* \"#utility.yul\":5980:6000   */\n      calldataload\n        /* \"#utility.yul\":6018:6097   */\n      tag_165\n        /* \"#utility.yul\":6093:6096   */\n      dup5\n        /* \"#utility.yul\":6085:6091   */\n      dup3\n        /* \"#utility.yul\":6078:6082   */\n      0x20\n        /* \"#utility.yul\":6070:6076   */\n      dup7\n        /* \"#utility.yul\":6066:6083   */\n      add\n        /* \"#utility.yul\":6018:6097   */\n      tag_84\n      jump\t// in\n    tag_165:\n        /* \"#utility.yul\":6009:6097   */\n      swap2\n      pop\n        /* \"#utility.yul\":5825:6103   */\n      pop\n        /* \"#utility.yul\":5763:6103   */\n      swap3\n      swap2\n      pop\n      pop\n      jump\t// out\n        /* \"#utility.yul\":6109:6205   */\n    tag_86:\n        /* \"#utility.yul\":6146:6153   */\n      0x00\n        /* \"#utility.yul\":6175:6199   */\n      tag_167\n        /* \"#utility.yul\":6193:6198   */\n      dup3\n        /* \"#utility.yul\":6175:6199   */\n      tag_66\n      jump\t// in\n    tag_167:\n        /* \"#utility.yul\":6164:6199   */\n      swap1\n      pop\n        /* \"#utility.yul\":6109:6205   */\n      swap2\n      swap1\n      pop\n      jump\t// out\n        /* \"#utility.yul\":6211:6333   */\n    tag_87:\n        /* \"#utility.yul\":6284:6308   */\n      tag_169\n        /* \"#utility.yul\":6302:6307   */\n      dup2\n        /* \"#utility.yul\":6284:6308   */\n      tag_86\n      jump\t// in\n    tag_169:\n        /* \"#utility.yul\":6277:6282   */\n      dup2\n        /* \"#utility.yul\":6274:6309   */\n      eq\n        /* \"#utility.yul\":6264:6327   */\n      tag_170\n      jumpi\n        /* \"#utility.yul\":6323:6324   */\n      0x00\n        /* \"#utility.yul\":6320:6321   */\n      0x00\n        /* \"#utility.yul\":6313:6325   */\n      revert\n        /* \"#utility.yul\":6264:6327   */\n    tag_170:\n        /* \"#utility.yul\":6211:6333   */\n      pop\n      jump\t// out\n        /* \"#utility.yul\":6339:6478   */\n    tag_88:\n        /* \"#utility.yul\":6385:6390   */\n      0x00\n        /* \"#utility.yul\":6423:6429   */\n      dup2\n        /* \"#utility.yul\":6410:6430   */\n      calldataload\n        /* \"#utility.yul\":6401:6430   */\n      swap1\n      pop\n        /* \"#utility.yul\":6439:6472   */\n      tag_172\n        /* \"#utility.yul\":6466:6471   */\n      dup2\n        /* \"#utility.yul\":6439:6472   */\n      tag_87\n      jump\t// in\n    tag_172:\n        /* \"#utility.yul\":6339:6478   */\n      swap3\n      swap2\n      pop\n      pop\n      jump\t// out\n        /* \"#utility.yul\":6484:7755   */\n    tag_21:\n        /* \"#utility.yul\":6599:6605   */\n      0x00\n        /* \"#utility.yul\":6607:6613   */\n      0x00\n        /* \"#utility.yul\":6615:6621   */\n      0x00\n        /* \"#utility.yul\":6623:6629   */\n      0x00\n        /* \"#utility.yul\":6631:6637   */\n      0x00\n        /* \"#utility.yul\":6680:6683   */\n      0xa0\n        /* \"#utility.yul\":6668:6677   */\n      dup7\n        /* \"#utility.yul\":6659:6666   */\n      dup9\n        /* \"#utility.yul\":6655:6678   */\n      sub\n        /* \"#utility.yul\":6651:6684   */\n      slt\n        /* \"#utility.yul\":6648:6768   */\n      iszero\n      tag_174\n      jumpi\n        /* \"#utility.yul\":6687:6766   */\n      tag_175\n      tag_61\n      jump\t// in\n    tag_175:\n        /* \"#utility.yul\":6648:6768   */\n    tag_174:\n        /* \"#utility.yul\":6807:6808   */\n      0x00\n        /* \"#utility.yul\":6832:6885   */\n      tag_176\n        /* \"#utility.yul\":6877:6884   */\n      dup9\n        /* \"#utility.yul\":6868:6874   */\n      dup3\n        /* \"#utility.yul\":6857:6866   */\n      dup10\n        /* \"#utility.yul\":6853:6875   */\n      add\n        /* \"#utility.yul\":6832:6885   */\n      tag_65\n      jump\t// in\n    tag_176:\n        /* \"#utility.yul\":6822:6885   */\n      swap6\n      pop\n        /* \"#utility.yul\":6778:6895   */\n      pop\n        /* \"#utility.yul\":6962:6964   */\n      0x20\n        /* \"#utility.yul\":6951:6960   */\n      dup7\n        /* \"#utility.yul\":6947:6965   */\n      add\n        /* \"#utility.yul\":6934:6966   */\n      calldataload\n        /* \"#utility.yul\":6993:7011   */\n      0xffffffffffffffff\n        /* \"#utility.yul\":6985:6991   */\n      dup2\n        /* \"#utility.yul\":6982:7012   */\n      gt\n        /* \"#utility.yul\":6979:7096   */\n      iszero\n      tag_177\n      jumpi\n        /* \"#utility.yul\":7015:7094   */\n      tag_178\n      tag_62\n      jump\t// in\n    tag_178:\n        /* \"#utility.yul\":6979:7096   */\n    tag_177:\n        /* \"#utility.yul\":7120:7183   */\n      tag_179\n        /* \"#utility.yul\":7175:7182   */\n      dup9\n        /* \"#utility.yul\":7166:7172   */\n      dup3\n        /* \"#utility.yul\":7155:7164   */\n      dup10\n        /* \"#utility.yul\":7151:7173   */\n      add\n        /* \"#utility.yul\":7120:7183   */\n      tag_85\n      jump\t// in\n    tag_179:\n        /* \"#utility.yul\":7110:7183   */\n      swap5\n      pop\n        /* \"#utility.yul\":6905:7193   */\n      pop\n        /* \"#utility.yul\":7260:7262   */\n      0x40\n        /* \"#utility.yul\":7249:7258   */\n      dup7\n        /* \"#utility.yul\":7245:7263   */\n      add\n        /* \"#utility.yul\":7232:7264   */\n      calldataload\n        /* \"#utility.yul\":7291:7309   */\n      0xffffffffffffffff\n        /* \"#utility.yul\":7283:7289   */\n      dup2\n        /* \"#utility.yul\":7280:7310   */\n      gt\n        /* \"#utility.yul\":7277:7394   */\n      iszero\n      tag_180\n      jumpi\n        /* \"#utility.yul\":7313:7392   */\n      tag_181\n      tag_62\n      jump\t// in\n    tag_181:\n        /* \"#utility.yul\":7277:7394   */\n    tag_180:\n        /* \"#utility.yul\":7418:7481   */\n      tag_182\n        /* \"#utility.yul\":7473:7480   */\n      dup9\n        /* \"#utility.yul\":7464:7470   */\n      dup3\n        /* \"#utility.yul\":7453:7462   */\n      dup10\n        /* \"#utility.yul\":7449:7471   */\n      add\n        /* \"#utility.yul\":7418:7481   */\n      tag_85\n      jump\t// in\n    tag_182:\n        /* \"#utility.yul\":7408:7481   */\n      swap4\n      pop\n        /* \"#utility.yul\":7203:7491   */\n      pop\n        /* \"#utility.yul\":7530:7532   */\n      0x60\n        /* \"#utility.yul\":7556:7609   */\n      tag_183\n        /* \"#utility.yul\":7601:7608   */\n      dup9\n        /* \"#utility.yul\":7592:7598   */\n      dup3\n        /* \"#utility.yul\":7581:7590   */\n      dup10\n        /* \"#utility.yul\":7577:7599   */\n      add\n        /* \"#utility.yul\":7556:7609   */\n      tag_65\n      jump\t// in\n    tag_183:\n        /* \"#utility.yul\":7546:7609   */\n      swap3\n      pop\n        /* \"#utility.yul\":7501:7619   */\n      pop\n        /* \"#utility.yul\":7658:7661   */\n      0x80\n        /* \"#utility.yul\":7685:7738   */\n      tag_184\n        /* \"#utility.yul\":7730:7737   */\n      dup9\n        /* \"#utility.yul\":7721:7727   */\n      dup3\n        /* \"#utility.yul\":7710:7719   */\n      dup10\n        /* \"#utility.yul\":7706:7728   */\n      add\n        /* \"#utility.yul\":7685:7738   */\n      tag_88\n      jump\t// in\n    tag_184:\n        /* \"#utility.yul\":7675:7738   */\n      swap2\n      pop\n        /* \"#utility.yul\":7629:7748   */\n      pop\n        /* \"#utility.yul\":6484:7755   */\n      swap3\n      swap6\n      pop\n      swap3\n      swap6\n      swap1\n      swap4\n      pop\n      jump\t// out\n        /* \"#utility.yul\":7761:7941   */\n    tag_34:\n        /* \"#utility.yul\":7809:7886   */\n      0x4e487b7100000000000000000000000000000000000000000000000000000000\n        /* \"#utility.yul\":7806:7807   */\n      0x00\n        /* \"#utility.yul\":7799:7887   */\n      mstore\n        /* \"#utility.yul\":7906:7910   */\n      0x32\n        /* \"#utility.yul\":7903:7904   */\n      0x04\n        /* \"#utility.yul\":7896:7911   */\n      mstore\n        /* \"#utility.yul\":7930:7934   */\n      0x24\n        /* \"#utility.yul\":7927:7928   */\n      0x00\n        /* \"#utility.yul\":7920:7935   */\n      revert\n        /* \"#utility.yul\":7947:8037   */\n    tag_89:\n        /* \"#utility.yul\":7981:7988   */\n      0x00\n        /* \"#utility.yul\":8024:8029   */\n      dup2\n        /* \"#utility.yul\":8017:8030   */\n      iszero\n        /* \"#utility.yul\":8010:8031   */\n      iszero\n        /* \"#utility.yul\":7999:8031   */\n      swap1\n      pop\n        /* \"#utility.yul\":7947:8037   */\n      swap2\n      swap1\n      pop\n      jump\t// out\n        /* \"#utility.yul\":8043:8159   */\n    tag_90:\n        /* \"#utility.yul\":8113:8134   */\n      tag_188\n        /* \"#utility.yul\":8128:8133   */\n      dup2\n        /* \"#utility.yul\":8113:8134   */\n      tag_89\n      jump\t// in\n    tag_188:\n        /* \"#utility.yul\":8106:8111   */\n      dup2\n        /* \"#utility.yul\":8103:8135   */\n      eq\n        /* \"#utility.yul\":8093:8153   */\n      tag_189\n      jumpi\n        /* \"#utility.yul\":8149:8150   */\n      0x00\n        /* \"#utility.yul\":8146:8147   */\n      0x00\n        /* \"#utility.yul\":8139:8151   */\n      revert\n        /* \"#utility.yul\":8093:8153   */\n    tag_189:\n        /* \"#utility.yul\":8043:8159   */\n      pop\n      jump\t// out\n        /* \"#utility.yul\":8165:8302   */\n    tag_91:\n        /* \"#utility.yul\":8219:8224   */\n      0x00\n        /* \"#utility.yul\":8250:8256   */\n      dup2\n        /* \"#utility.yul\":8244:8257   */\n      mload\n        /* \"#utility.yul\":8235:8257   */\n      swap1\n      pop\n        /* \"#utility.yul\":8266:8296   */\n      tag_191\n        /* \"#utility.yul\":8290:8295   */\n      dup2\n        /* \"#utility.yul\":8266:8296   */\n      tag_90\n      jump\t// in\n    tag_191:\n        /* \"#utility.yul\":8165:8302   */\n      swap3\n      swap2\n      pop\n      pop\n      jump\t// out\n        /* \"#utility.yul\":8308:8653   */\n    tag_39:\n        /* \"#utility.yul\":8375:8381   */\n      0x00\n        /* \"#utility.yul\":8424:8426   */\n      0x20\n        /* \"#utility.yul\":8412:8421   */\n      dup3\n        /* \"#utility.yul\":8403:8410   */\n      dup5\n        /* \"#utility.yul\":8399:8422   */\n      sub\n        /* \"#utility.yul\":8395:8427   */\n      slt\n        /* \"#utility.yul\":8392:8511   */\n      iszero\n      tag_193\n      jumpi\n        /* \"#utility.yul\":8430:8509   */\n      tag_194\n      tag_61\n      jump\t// in\n    tag_194:\n        /* \"#utility.yul\":8392:8511   */\n    tag_193:\n        /* \"#utility.yul\":8550:8551   */\n      0x00\n        /* \"#utility.yul\":8575:8636   */\n      tag_195\n        /* \"#utility.yul\":8628:8635   */\n      dup5\n        /* \"#utility.yul\":8619:8625   */\n      dup3\n        /* \"#utility.yul\":8608:8617   */\n      dup6\n        /* \"#utility.yul\":8604:8626   */\n      add\n        /* \"#utility.yul\":8575:8636   */\n      tag_91\n      jump\t// in\n    tag_195:\n        /* \"#utility.yul\":8565:8636   */\n      swap2\n      pop\n        /* \"#utility.yul\":8521:8646   */\n      pop\n        /* \"#utility.yul\":8308:8653   */\n      swap3\n      swap2\n      pop\n      pop\n      jump\t// out\n        /* \"#utility.yul\":8659:8802   */\n    tag_92:\n        /* \"#utility.yul\":8716:8721   */\n      0x00\n        /* \"#utility.yul\":8747:8753   */\n      dup2\n        /* \"#utility.yul\":8741:8754   */\n      mload\n        /* \"#utility.yul\":8732:8754   */\n      swap1\n      pop\n        /* \"#utility.yul\":8763:8796   */\n      tag_197\n        /* \"#utility.yul\":8790:8795   */\n      dup2\n        /* \"#utility.yul\":8763:8796   */\n      tag_64\n      jump\t// in\n    tag_197:\n        /* \"#utility.yul\":8659:8802   */\n      swap3\n      swap2\n      pop\n      pop\n      jump\t// out\n        /* \"#utility.yul\":8808:9159   */\n    tag_44:\n        /* \"#utility.yul\":8878:8884   */\n      0x00\n        /* \"#utility.yul\":8927:8929   */\n      0x20\n        /* \"#utility.yul\":8915:8924   */\n      dup3\n        /* \"#utility.yul\":8906:8913   */\n      dup5\n        /* \"#utility.yul\":8902:8925   */\n      sub\n        /* \"#utility.yul\":8898:8930   */\n      slt\n        /* \"#utility.yul\":8895:9014   */\n      iszero\n      tag_199\n      jumpi\n        /* \"#utility.yul\":8933:9012   */\n      tag_200\n      tag_61\n      jump\t// in\n    tag_200:\n        /* \"#utility.yul\":8895:9014   */\n    tag_199:\n        /* \"#utility.yul\":9053:9054   */\n      0x00\n        /* \"#utility.yul\":9078:9142   */\n      tag_201\n        /* \"#utility.yul\":9134:9141   */\n      dup5\n        /* \"#utility.yul\":9125:9131   */\n      dup3\n        /* \"#utility.yul\":9114:9123   */\n      dup6\n        /* \"#utility.yul\":9110:9132   */\n      add\n        /* \"#utility.yul\":9078:9142   */\n      tag_92\n      jump\t// in\n    tag_201:\n        /* \"#utility.yul\":9068:9142   */\n      swap2\n      pop\n        /* \"#utility.yul\":9024:9152   */\n      pop\n        /* \"#utility.yul\":8808:9159   */\n      swap3\n      swap2\n      pop\n      pop\n      jump\t// out\n        /* \"#utility.yul\":9165:9345   */\n    tag_93:\n        /* \"#utility.yul\":9213:9290   */\n      0x4e487b7100000000000000000000000000000000000000000000000000000000\n        /* \"#utility.yul\":9210:9211   */\n      0x00\n        /* \"#utility.yul\":9203:9291   */\n      mstore\n        /* \"#utility.yul\":9310:9314   */\n      0x11\n        /* \"#utility.yul\":9307:9308   */\n      0x04\n        /* \"#utility.yul\":9300:9315   */\n      mstore\n        /* \"#utility.yul\":9334:9338   */\n      0x24\n        /* \"#utility.yul\":9331:9332   */\n      0x00\n        /* \"#utility.yul\":9324:9339   */\n      revert\n        /* \"#utility.yul\":9351:9761   */\n    tag_51:\n        /* \"#utility.yul\":9391:9398   */\n      0x00\n        /* \"#utility.yul\":9414:9434   */\n      tag_204\n        /* \"#utility.yul\":9432:9433   */\n      dup3\n        /* \"#utility.yul\":9414:9434   */\n      tag_63\n      jump\t// in\n    tag_204:\n        /* \"#utility.yul\":9409:9434   */\n      swap2\n      pop\n        /* \"#utility.yul\":9448:9468   */\n      tag_205\n        /* \"#utility.yul\":9466:9467   */\n      dup4\n        /* \"#utility.yul\":9448:9468   */\n      tag_63\n      jump\t// in\n    tag_205:\n        /* \"#utility.yul\":9443:9468   */\n      swap3\n      pop\n        /* \"#utility.yul\":9503:9504   */\n      dup3\n        /* \"#utility.yul\":9500:9501   */\n      dup3\n        /* \"#utility.yul\":9496:9505   */\n      mul\n        /* \"#utility.yul\":9525:9555   */\n      tag_206\n        /* \"#utility.yul\":9543:9554   */\n      dup2\n        /* \"#utility.yul\":9525:9555   */\n      tag_63\n      jump\t// in\n    tag_206:\n        /* \"#utility.yul\":9514:9555   */\n      swap2\n      pop\n        /* \"#utility.yul\":9704:9705   */\n      dup3\n        /* \"#utility.yul\":9695:9702   */\n      dup3\n        /* \"#utility.yul\":9691:9706   */\n      div\n        /* \"#utility.yul\":9688:9689   */\n      dup5\n        /* \"#utility.yul\":9685:9707   */\n      eq\n        /* \"#utility.yul\":9665:9666   */\n      dup4\n        /* \"#utility.yul\":9658:9667   */\n      iszero\n        /* \"#utility.yul\":9638:9721   */\n      or\n        /* \"#utility.yul\":9615:9754   */\n      tag_207\n      jumpi\n        /* \"#utility.yul\":9734:9752   */\n      tag_208\n      tag_93\n      jump\t// in\n    tag_208:\n        /* \"#utility.yul\":9615:9754   */\n    tag_207:\n        /* \"#utility.yul\":9399:9761   */\n      pop\n        /* \"#utility.yul\":9351:9761   */\n      swap3\n      swap2\n      pop\n      pop\n      jump\t// out\n        /* \"#utility.yul\":9767:9958   */\n    tag_53:\n        /* \"#utility.yul\":9807:9810   */\n      0x00\n        /* \"#utility.yul\":9826:9846   */\n      tag_210\n        /* \"#utility.yul\":9844:9845   */\n      dup3\n        /* \"#utility.yul\":9826:9846   */\n      tag_63\n      jump\t// in\n    tag_210:\n        /* \"#utility.yul\":9821:9846   */\n      swap2\n      pop\n        /* \"#utility.yul\":9860:9880   */\n      tag_211\n        /* \"#utility.yul\":9878:9879   */\n      dup4\n        /* \"#utility.yul\":9860:9880   */\n      tag_63\n      jump\t// in\n    tag_211:\n        /* \"#utility.yul\":9855:9880   */\n      swap3\n      pop\n        /* \"#utility.yul\":9903:9904   */\n      dup3\n        /* \"#utility.yul\":9900:9901   */\n      dup3\n        /* \"#utility.yul\":9896:9905   */\n      add\n        /* \"#utility.yul\":9889:9905   */\n      swap1\n      pop\n        /* \"#utility.yul\":9924:9927   */\n      dup1\n        /* \"#utility.yul\":9921:9922   */\n      dup3\n        /* \"#utility.yul\":9918:9928   */\n      gt\n        /* \"#utility.yul\":9915:9951   */\n      iszero\n      tag_212\n      jumpi\n        /* \"#utility.yul\":9931:9949   */\n      tag_213\n      tag_93\n      jump\t// in\n    tag_213:\n        /* \"#utility.yul\":9915:9951   */\n    tag_212:\n        /* \"#utility.yul\":9767:9958   */\n      swap3\n      swap2\n      pop\n      pop\n      jump\t// out\n        /* \"#utility.yul\":9964:10082   */\n    tag_94:\n        /* \"#utility.yul\":10051:10075   */\n      tag_215\n        /* \"#utility.yul\":10069:10074   */\n      dup2\n        /* \"#utility.yul\":10051:10075   */\n      tag_63\n      jump\t// in\n    tag_215:\n        /* \"#utility.yul\":10046:10049   */\n      dup3\n        /* \"#utility.yul\":10039:10076   */\n      mstore\n        /* \"#utility.yul\":9964:10082   */\n      pop\n      pop\n      jump\t// out\n        /* \"#utility.yul\":10088:10187   */\n    tag_95:\n        /* \"#utility.yul\":10140:10146   */\n      0x00\n        /* \"#utility.yul\":10174:10179   */\n      dup2\n        /* \"#utility.yul\":10168:10180   */\n      mload\n        /* \"#utility.yul\":10158:10180   */\n      swap1\n      pop\n        /* \"#utility.yul\":10088:10187   */\n      swap2\n      swap1\n      pop\n      jump\t// out\n        /* \"#utility.yul\":10193:10362   */\n    tag_96:\n        /* \"#utility.yul\":10277:10288   */\n      0x00\n        /* \"#utility.yul\":10311:10317   */\n      dup3\n        /* \"#utility.yul\":10306:10309   */\n      dup3\n        /* \"#utility.yul\":10299:10318   */\n      mstore\n        /* \"#utility.yul\":10351:10355   */\n      0x20\n        /* \"#utility.yul\":10346:10349   */\n      dup3\n        /* \"#utility.yul\":10342:10356   */\n      add\n        /* \"#utility.yul\":10327:10356   */\n      swap1\n      pop\n        /* \"#utility.yul\":10193:10362   */\n      swap3\n      swap2\n      pop\n      pop\n      jump\t// out\n        /* \"#utility.yul\":10368:10507   */\n    tag_97:\n        /* \"#utility.yul\":10457:10463   */\n      dup3\n        /* \"#utility.yul\":10452:10455   */\n      dup2\n        /* \"#utility.yul\":10447:10450   */\n      dup4\n        /* \"#utility.yul\":10441:10464   */\n      mcopy\n        /* \"#utility.yul\":10498:10499   */\n      0x00\n        /* \"#utility.yul\":10489:10495   */\n      dup4\n        /* \"#utility.yul\":10484:10487   */\n      dup4\n        /* \"#utility.yul\":10480:10496   */\n      add\n        /* \"#utility.yul\":10473:10500   */\n      mstore\n        /* \"#utility.yul\":10368:10507   */\n      pop\n      pop\n      pop\n      jump\t// out\n        /* \"#utility.yul\":10513:10890   */\n    tag_98:\n        /* \"#utility.yul\":10601:10604   */\n      0x00\n        /* \"#utility.yul\":10629:10668   */\n      tag_220\n        /* \"#utility.yul\":10662:10667   */\n      dup3\n        /* \"#utility.yul\":10629:10668   */\n      tag_95\n      jump\t// in\n    tag_220:\n        /* \"#utility.yul\":10684:10755   */\n      tag_221\n        /* \"#utility.yul\":10748:10754   */\n      dup2\n        /* \"#utility.yul\":10743:10746   */\n      dup6\n        /* \"#utility.yul\":10684:10755   */\n      tag_96\n      jump\t// in\n    tag_221:\n        /* \"#utility.yul\":10677:10755   */\n      swap4\n      pop\n        /* \"#utility.yul\":10764:10829   */\n      tag_222\n        /* \"#utility.yul\":10822:10828   */\n      dup2\n        /* \"#utility.yul\":10817:10820   */\n      dup6\n        /* \"#utility.yul\":10810:10814   */\n      0x20\n        /* \"#utility.yul\":10803:10808   */\n      dup7\n        /* \"#utility.yul\":10799:10815   */\n      add\n        /* \"#utility.yul\":10764:10829   */\n      tag_97\n      jump\t// in\n    tag_222:\n        /* \"#utility.yul\":10854:10883   */\n      tag_223\n        /* \"#utility.yul\":10876:10882   */\n      dup2\n        /* \"#utility.yul\":10854:10883   */\n      tag_78\n      jump\t// in\n    tag_223:\n        /* \"#utility.yul\":10849:10852   */\n      dup5\n        /* \"#utility.yul\":10845:10884   */\n      add\n        /* \"#utility.yul\":10838:10884   */\n      swap2\n      pop\n        /* \"#utility.yul\":10605:10890   */\n      pop\n        /* \"#utility.yul\":10513:10890   */\n      swap3\n      swap2\n      pop\n      pop\n      jump\t// out\n        /* \"#utility.yul\":10896:11014   */\n    tag_99:\n        /* \"#utility.yul\":10983:11007   */\n      tag_225\n        /* \"#utility.yul\":11001:11006   */\n      dup2\n        /* \"#utility.yul\":10983:11007   */\n      tag_86\n      jump\t// in\n    tag_225:\n        /* \"#utility.yul\":10978:10981   */\n      dup3\n        /* \"#utility.yul\":10971:11008   */\n      mstore\n        /* \"#utility.yul\":10896:11014   */\n      pop\n      pop\n      jump\t// out\n        /* \"#utility.yul\":11020:11977   */\n    tag_57:\n        /* \"#utility.yul\":11293:11297   */\n      0x00\n        /* \"#utility.yul\":11331:11334   */\n      0xc0\n        /* \"#utility.yul\":11320:11329   */\n      dup3\n        /* \"#utility.yul\":11316:11335   */\n      add\n        /* \"#utility.yul\":11308:11335   */\n      swap1\n      pop\n        /* \"#utility.yul\":11345:11416   */\n      tag_227\n        /* \"#utility.yul\":11413:11414   */\n      0x00\n        /* \"#utility.yul\":11402:11411   */\n      dup4\n        /* \"#utility.yul\":11398:11415   */\n      add\n        /* \"#utility.yul\":11389:11395   */\n      dup10\n        /* \"#utility.yul\":11345:11416   */\n      tag_94\n      jump\t// in\n    tag_227:\n        /* \"#utility.yul\":11463:11472   */\n      dup2\n        /* \"#utility.yul\":11457:11461   */\n      dup2\n        /* \"#utility.yul\":11453:11473   */\n      sub\n        /* \"#utility.yul\":11448:11450   */\n      0x20\n        /* \"#utility.yul\":11437:11446   */\n      dup4\n        /* \"#utility.yul\":11433:11451   */\n      add\n        /* \"#utility.yul\":11426:11474   */\n      mstore\n        /* \"#utility.yul\":11491:11569   */\n      tag_228\n        /* \"#utility.yul\":11564:11568   */\n      dup2\n        /* \"#utility.yul\":11555:11561   */\n      dup9\n        /* \"#utility.yul\":11491:11569   */\n      tag_98\n      jump\t// in\n    tag_228:\n        /* \"#utility.yul\":11483:11569   */\n      swap1\n      pop\n        /* \"#utility.yul\":11616:11625   */\n      dup2\n        /* \"#utility.yul\":11610:11614   */\n      dup2\n        /* \"#utility.yul\":11606:11626   */\n      sub\n        /* \"#utility.yul\":11601:11603   */\n      0x40\n        /* \"#utility.yul\":11590:11599   */\n      dup4\n        /* \"#utility.yul\":11586:11604   */\n      add\n        /* \"#utility.yul\":11579:11627   */\n      mstore\n        /* \"#utility.yul\":11644:11722   */\n      tag_229\n        /* \"#utility.yul\":11717:11721   */\n      dup2\n        /* \"#utility.yul\":11708:11714   */\n      dup8\n        /* \"#utility.yul\":11644:11722   */\n      tag_98\n      jump\t// in\n    tag_229:\n        /* \"#utility.yul\":11636:11722   */\n      swap1\n      pop\n        /* \"#utility.yul\":11732:11804   */\n      tag_230\n        /* \"#utility.yul\":11800:11802   */\n      0x60\n        /* \"#utility.yul\":11789:11798   */\n      dup4\n        /* \"#utility.yul\":11785:11803   */\n      add\n        /* \"#utility.yul\":11776:11782   */\n      dup7\n        /* \"#utility.yul\":11732:11804   */\n      tag_99\n      jump\t// in\n    tag_230:\n        /* \"#utility.yul\":11814:11887   */\n      tag_231\n        /* \"#utility.yul\":11882:11885   */\n      0x80\n        /* \"#utility.yul\":11871:11880   */\n      dup4\n        /* \"#utility.yul\":11867:11886   */\n      add\n        /* \"#utility.yul\":11858:11864   */\n      dup6\n        /* \"#utility.yul\":11814:11887   */\n      tag_94\n      jump\t// in\n    tag_231:\n        /* \"#utility.yul\":11897:11970   */\n      tag_232\n        /* \"#utility.yul\":11965:11968   */\n      0xa0\n        /* \"#utility.yul\":11954:11963   */\n      dup4\n        /* \"#utility.yul\":11950:11969   */\n      add\n        /* \"#utility.yul\":11941:11947   */\n      dup5\n        /* \"#utility.yul\":11897:11970   */\n      tag_99\n      jump\t// in\n    tag_232:\n        /* \"#utility.yul\":11020:11977   */\n      swap8\n      swap7\n      pop\n      pop\n      pop\n      pop\n      pop\n      pop\n      pop\n      jump\t// out\n    stop\n\n    sub_0: assembly {\n            /* \"Campaign.sol\":698:7107  contract Campaign {... */\n          mstore(0x40, 0x80)\n            /* \"Campaign.sol\":1715:2157  constructor(... */\n          callvalue\n          dup1\n          iszero\n          tag_1\n          jumpi\n          revert(0x00, 0x00)\n        tag_1:\n          pop\n          mload(0x40)\n          sub(codesize, bytecodeSize)\n          dup1\n          bytecodeSize\n          dup4\n          codecopy\n          dup2\n          dup2\n          add\n          0x40\n          mstore\n          dup2\n          add\n          swap1\n          tag_2\n          swap2\n          swap1\n          tag_3\n          jump\t// in\n        tag_2:\n            /* \"Campaign.sol\":1933:1940  creator */\n          dup3\n            /* \"Campaign.sol\":1923:1930  manager */\n          0x00\n          0x00\n            /* \"Campaign.sol\":1923:1940  manager = creator */\n          0x0100\n          exp\n          dup2\n          sload\n          dup2\n          0xffffffffffffffffffffffffffffffffffffffff\n          mul\n          not\n          and\n          swap1\n          dup4\n          0xffffffffffffffffffffffffffffffffffffffff\n          and\n          mul\n          or\n          swap1\n          sstore\n          pop\n            /* \"Campaign.sol\":1973:1980  minimum */\n          dup6\n            /* \"Campaign.sol\":1951:1970  minimumContribution */\n          0x01\n            /* \"Campaign.sol\":1951:1980  minimumContribution = minimum */\n          dup2\n          swap1\n          sstore\n          pop\n            /* \"Campaign.sol\":2005:2013  dataSell */\n          dup5\n            /* \"Campaign.sol\":1991:2002  dataForSell */\n          0x02\n            /* \"Campaign.sol\":1991:2013  dataForSell = dataSell */\n          swap1\n          dup2\n          tag_6\n          swap2\n          swap1\n          tag_7\n          jump\t// in\n        tag_6:\n          pop\n            /* \"Campaign.sol\":2042:2050  dataDesc */\n          dup4\n            /* \"Campaign.sol\":2024:2039  dataDescription */\n          0x03\n            /* \"Campaign.sol\":2024:2050  dataDescription = dataDesc */\n          swap1\n          dup2\n          tag_8\n          swap2\n          swap1\n          tag_7\n          jump\t// in\n        tag_8:\n          pop\n            /* \"Campaign.sol\":2071:2079  duration */\n          dup2\n            /* \"Campaign.sol\":2061:2068  endTime */\n          0x0b\n            /* \"Campaign.sol\":2061:2079  endTime = duration */\n          dup2\n          swap1\n          sstore\n          pop\n            /* \"Campaign.sol\":2099:2104  false */\n          0x00\n            /* \"Campaign.sol\":2090:2096  closed */\n          0x0c\n          0x00\n            /* \"Campaign.sol\":2090:2104  closed = false */\n          0x0100\n          exp\n          dup2\n          sload\n          dup2\n          0xff\n          mul\n          not\n          and\n          swap1\n          dup4\n          iszero\n          iszero\n          mul\n          or\n          swap1\n          sstore\n          pop\n            /* \"Campaign.sol\":2136:2148  tokenAddress */\n          dup1\n            /* \"Campaign.sol\":2115:2120  token */\n          0x0c\n          0x01\n            /* \"Campaign.sol\":2115:2149  token = IERC20Permit(tokenAddress) */\n          0x0100\n          exp\n          dup2\n          sload\n          dup2\n          0xffffffffffffffffffffffffffffffffffffffff\n          mul\n          not\n          and\n          swap1\n          dup4\n          0xffffffffffffffffffffffffffffffffffffffff\n          and\n          mul\n          or\n          swap1\n          sstore\n          pop\n            /* \"Campaign.sol\":1715:2157  constructor(... */\n          pop\n          pop\n          pop\n          pop\n          pop\n          pop\n            /* \"Campaign.sol\":698:7107  contract Campaign {... */\n          jump(tag_9)\n            /* \"#utility.yul\":7:82   */\n        tag_10:\n            /* \"#utility.yul\":40:46   */\n          0x00\n            /* \"#utility.yul\":73:75   */\n          0x40\n            /* \"#utility.yul\":67:76   */\n          mload\n            /* \"#utility.yul\":57:76   */\n          swap1\n          pop\n            /* \"#utility.yul\":7:82   */\n          swap1\n          jump\t// out\n            /* \"#utility.yul\":88:205   */\n        tag_11:\n            /* \"#utility.yul\":197:198   */\n          0x00\n            /* \"#utility.yul\":194:195   */\n          0x00\n            /* \"#utility.yul\":187:199   */\n          revert\n            /* \"#utility.yul\":211:328   */\n        tag_12:\n            /* \"#utility.yul\":320:321   */\n          0x00\n            /* \"#utility.yul\":317:318   */\n          0x00\n            /* \"#utility.yul\":310:322   */\n          revert\n            /* \"#utility.yul\":334:411   */\n        tag_13:\n            /* \"#utility.yul\":371:378   */\n          0x00\n            /* \"#utility.yul\":400:405   */\n          dup2\n            /* \"#utility.yul\":389:405   */\n          swap1\n          pop\n            /* \"#utility.yul\":334:411   */\n          swap2\n          swap1\n          pop\n          jump\t// out\n            /* \"#utility.yul\":417:539   */\n        tag_14:\n            /* \"#utility.yul\":490:514   */\n          tag_54\n            /* \"#utility.yul\":508:513   */\n          dup2\n            /* \"#utility.yul\":490:514   */\n          tag_13\n          jump\t// in\n        tag_54:\n            /* \"#utility.yul\":483:488   */\n          dup2\n            /* \"#utility.yul\":480:515   */\n          eq\n            /* \"#utility.yul\":470:533   */\n          tag_55\n          jumpi\n            /* \"#utility.yul\":529:530   */\n          0x00\n            /* \"#utility.yul\":526:527   */\n          0x00\n            /* \"#utility.yul\":519:531   */\n          revert\n            /* \"#utility.yul\":470:533   */\n        tag_55:\n            /* \"#utility.yul\":417:539   */\n          pop\n          jump\t// out\n            /* \"#utility.yul\":545:688   */\n        tag_15:\n            /* \"#utility.yul\":602:607   */\n          0x00\n            /* \"#utility.yul\":633:639   */\n          dup2\n            /* \"#utility.yul\":627:640   */\n          mload\n            /* \"#utility.yul\":618:640   */\n          swap1\n          pop\n            /* \"#utility.yul\":649:682   */\n          tag_57\n            /* \"#utility.yul\":676:681   */\n          dup2\n            /* \"#utility.yul\":649:682   */\n          tag_14\n          jump\t// in\n        tag_57:\n            /* \"#utility.yul\":545:688   */\n          swap3\n          swap2\n          pop\n          pop\n          jump\t// out\n            /* \"#utility.yul\":694:811   */\n        tag_16:\n            /* \"#utility.yul\":803:804   */\n          0x00\n            /* \"#utility.yul\":800:801   */\n          0x00\n            /* \"#utility.yul\":793:805   */\n          revert\n            /* \"#utility.yul\":817:934   */\n        tag_17:\n            /* \"#utility.yul\":926:927   */\n          0x00\n            /* \"#utility.yul\":923:924   */\n          0x00\n            /* \"#utility.yul\":916:928   */\n          revert\n            /* \"#utility.yul\":940:1042   */\n        tag_18:\n            /* \"#utility.yul\":981:987   */\n          0x00\n            /* \"#utility.yul\":1032:1034   */\n          0x1f\n            /* \"#utility.yul\":1028:1035   */\n          not\n            /* \"#utility.yul\":1023:1025   */\n          0x1f\n            /* \"#utility.yul\":1016:1021   */\n          dup4\n            /* \"#utility.yul\":1012:1026   */\n          add\n            /* \"#utility.yul\":1008:1036   */\n          and\n            /* \"#utility.yul\":998:1036   */\n          swap1\n          pop\n            /* \"#utility.yul\":940:1042   */\n          swap2\n          swap1\n          pop\n          jump\t// out\n            /* \"#utility.yul\":1048:1228   */\n        tag_19:\n            /* \"#utility.yul\":1096:1173   */\n          0x4e487b7100000000000000000000000000000000000000000000000000000000\n            /* \"#utility.yul\":1093:1094   */\n          0x00\n            /* \"#utility.yul\":1086:1174   */\n          mstore\n            /* \"#utility.yul\":1193:1197   */\n          0x41\n            /* \"#utility.yul\":1190:1191   */\n          0x04\n            /* \"#utility.yul\":1183:1198   */\n          mstore\n            /* \"#utility.yul\":1217:1221   */\n          0x24\n            /* \"#utility.yul\":1214:1215   */\n          0x00\n            /* \"#utility.yul\":1207:1222   */\n          revert\n            /* \"#utility.yul\":1234:1515   */\n        tag_20:\n            /* \"#utility.yul\":1317:1344   */\n          tag_63\n            /* \"#utility.yul\":1339:1343   */\n          dup3\n            /* \"#utility.yul\":1317:1344   */\n          tag_18\n          jump\t// in\n        tag_63:\n            /* \"#utility.yul\":1309:1315   */\n          dup2\n            /* \"#utility.yul\":1305:1345   */\n          add\n            /* \"#utility.yul\":1447:1453   */\n          dup2\n            /* \"#utility.yul\":1435:1445   */\n          dup2\n            /* \"#utility.yul\":1432:1454   */\n          lt\n            /* \"#utility.yul\":1411:1429   */\n          0xffffffffffffffff\n            /* \"#utility.yul\":1399:1409   */\n          dup3\n            /* \"#utility.yul\":1396:1430   */\n          gt\n            /* \"#utility.yul\":1393:1455   */\n          or\n            /* \"#utility.yul\":1390:1478   */\n          iszero\n          tag_64\n          jumpi\n            /* \"#utility.yul\":1458:1476   */\n          tag_65\n          tag_19\n          jump\t// in\n        tag_65:\n            /* \"#utility.yul\":1390:1478   */\n        tag_64:\n            /* \"#utility.yul\":1498:1508   */\n          dup1\n            /* \"#utility.yul\":1494:1496   */\n          0x40\n            /* \"#utility.yul\":1487:1509   */\n          mstore\n            /* \"#utility.yul\":1277:1515   */\n          pop\n            /* \"#utility.yul\":1234:1515   */\n          pop\n          pop\n          jump\t// out\n            /* \"#utility.yul\":1521:1650   */\n        tag_21:\n            /* \"#utility.yul\":1555:1561   */\n          0x00\n            /* \"#utility.yul\":1582:1602   */\n          tag_67\n          tag_10\n          jump\t// in\n        tag_67:\n            /* \"#utility.yul\":1572:1602   */\n          swap1\n          pop\n            /* \"#utility.yul\":1611:1644   */\n          tag_68\n            /* \"#utility.yul\":1639:1643   */\n          dup3\n            /* \"#utility.yul\":1631:1637   */\n          dup3\n            /* \"#utility.yul\":1611:1644   */\n          tag_20\n          jump\t// in\n        tag_68:\n            /* \"#utility.yul\":1521:1650   */\n          swap2\n          swap1\n          pop\n          jump\t// out\n            /* \"#utility.yul\":1656:1964   */\n        tag_22:\n            /* \"#utility.yul\":1718:1722   */\n          0x00\n            /* \"#utility.yul\":1808:1826   */\n          0xffffffffffffffff\n            /* \"#utility.yul\":1800:1806   */\n          dup3\n            /* \"#utility.yul\":1797:1827   */\n          gt\n            /* \"#utility.yul\":1794:1850   */\n          iszero\n          tag_70\n          jumpi\n            /* \"#utility.yul\":1830:1848   */\n          tag_71\n          tag_19\n          jump\t// in\n        tag_71:\n            /* \"#utility.yul\":1794:1850   */\n        tag_70:\n            /* \"#utility.yul\":1868:1897   */\n          tag_72\n            /* \"#utility.yul\":1890:1896   */\n          dup3\n            /* \"#utility.yul\":1868:1897   */\n          tag_18\n          jump\t// in\n        tag_72:\n            /* \"#utility.yul\":1860:1897   */\n          swap1\n          pop\n            /* \"#utility.yul\":1952:1956   */\n          0x20\n            /* \"#utility.yul\":1946:1950   */\n          dup2\n            /* \"#utility.yul\":1942:1957   */\n          add\n            /* \"#utility.yul\":1934:1957   */\n          swap1\n          pop\n            /* \"#utility.yul\":1656:1964   */\n          swap2\n          swap1\n          pop\n          jump\t// out\n            /* \"#utility.yul\":1970:2109   */\n        tag_23:\n            /* \"#utility.yul\":2059:2065   */\n          dup3\n            /* \"#utility.yul\":2054:2057   */\n          dup2\n            /* \"#utility.yul\":2049:2052   */\n          dup4\n            /* \"#utility.yul\":2043:2066   */\n          mcopy\n            /* \"#utility.yul\":2100:2101   */\n          0x00\n            /* \"#utility.yul\":2091:2097   */\n          dup4\n            /* \"#utility.yul\":2086:2089   */\n          dup4\n            /* \"#utility.yul\":2082:2098   */\n          add\n            /* \"#utility.yul\":2075:2102   */\n          mstore\n            /* \"#utility.yul\":1970:2109   */\n          pop\n          pop\n          pop\n          jump\t// out\n            /* \"#utility.yul\":2115:2549   */\n        tag_24:\n            /* \"#utility.yul\":2204:2209   */\n          0x00\n            /* \"#utility.yul\":2229:2295   */\n          tag_75\n            /* \"#utility.yul\":2245:2294   */\n          tag_76\n            /* \"#utility.yul\":2287:2293   */\n          dup5\n            /* \"#utility.yul\":2245:2294   */\n          tag_22\n          jump\t// in\n        tag_76:\n            /* \"#utility.yul\":2229:2295   */\n          tag_21\n          jump\t// in\n        tag_75:\n            /* \"#utility.yul\":2220:2295   */\n          swap1\n          pop\n            /* \"#utility.yul\":2318:2324   */\n          dup3\n            /* \"#utility.yul\":2311:2316   */\n          dup2\n            /* \"#utility.yul\":2304:2325   */\n          mstore\n            /* \"#utility.yul\":2356:2360   */\n          0x20\n            /* \"#utility.yul\":2349:2354   */\n          dup2\n            /* \"#utility.yul\":2345:2361   */\n          add\n            /* \"#utility.yul\":2394:2397   */\n          dup5\n            /* \"#utility.yul\":2385:2391   */\n          dup5\n            /* \"#utility.yul\":2380:2383   */\n          dup5\n            /* \"#utility.yul\":2376:2392   */\n          add\n            /* \"#utility.yul\":2373:2398   */\n          gt\n            /* \"#utility.yul\":2370:2482   */\n          iszero\n          tag_77\n          jumpi\n            /* \"#utility.yul\":2401:2480   */\n          tag_78\n          tag_17\n          jump\t// in\n        tag_78:\n            /* \"#utility.yul\":2370:2482   */\n        tag_77:\n            /* \"#utility.yul\":2491:2543   */\n          tag_79\n            /* \"#utility.yul\":2536:2542   */\n          dup5\n            /* \"#utility.yul\":2531:2534   */\n          dup3\n            /* \"#utility.yul\":2526:2529   */\n          dup6\n            /* \"#utility.yul\":2491:2543   */\n          tag_23\n          jump\t// in\n        tag_79:\n            /* \"#utility.yul\":2210:2549   */\n          pop\n            /* \"#utility.yul\":2115:2549   */\n          swap4\n          swap3\n          pop\n          pop\n          pop\n          jump\t// out\n            /* \"#utility.yul\":2569:2924   */\n        tag_25:\n            /* \"#utility.yul\":2636:2641   */\n          0x00\n            /* \"#utility.yul\":2685:2688   */\n          dup3\n            /* \"#utility.yul\":2678:2682   */\n          0x1f\n            /* \"#utility.yul\":2670:2676   */\n          dup4\n            /* \"#utility.yul\":2666:2683   */\n          add\n            /* \"#utility.yul\":2662:2689   */\n          slt\n            /* \"#utility.yul\":2652:2774   */\n          tag_81\n          jumpi\n            /* \"#utility.yul\":2693:2772   */\n          tag_82\n          tag_16\n          jump\t// in\n        tag_82:\n            /* \"#utility.yul\":2652:2774   */\n        tag_81:\n            /* \"#utility.yul\":2803:2809   */\n          dup2\n            /* \"#utility.yul\":2797:2810   */\n          mload\n            /* \"#utility.yul\":2828:2918   */\n          tag_83\n            /* \"#utility.yul\":2914:2917   */\n          dup5\n            /* \"#utility.yul\":2906:2912   */\n          dup3\n            /* \"#utility.yul\":2899:2903   */\n          0x20\n            /* \"#utility.yul\":2891:2897   */\n          dup7\n            /* \"#utility.yul\":2887:2904   */\n          add\n            /* \"#utility.yul\":2828:2918   */\n          tag_24\n          jump\t// in\n        tag_83:\n            /* \"#utility.yul\":2819:2918   */\n          swap2\n          pop\n            /* \"#utility.yul\":2642:2924   */\n          pop\n            /* \"#utility.yul\":2569:2924   */\n          swap3\n          swap2\n          pop\n          pop\n          jump\t// out\n            /* \"#utility.yul\":2930:3056   */\n        tag_26:\n            /* \"#utility.yul\":2967:2974   */\n          0x00\n            /* \"#utility.yul\":3007:3049   */\n          0xffffffffffffffffffffffffffffffffffffffff\n            /* \"#utility.yul\":3000:3005   */\n          dup3\n            /* \"#utility.yul\":2996:3050   */\n          and\n            /* \"#utility.yul\":2985:3050   */\n          swap1\n          pop\n            /* \"#utility.yul\":2930:3056   */\n          swap2\n          swap1\n          pop\n          jump\t// out\n            /* \"#utility.yul\":3062:3158   */\n        tag_27:\n            /* \"#utility.yul\":3099:3106   */\n          0x00\n            /* \"#utility.yul\":3128:3152   */\n          tag_86\n            /* \"#utility.yul\":3146:3151   */\n          dup3\n            /* \"#utility.yul\":3128:3152   */\n          tag_26\n          jump\t// in\n        tag_86:\n            /* \"#utility.yul\":3117:3152   */\n          swap1\n          pop\n            /* \"#utility.yul\":3062:3158   */\n          swap2\n          swap1\n          pop\n          jump\t// out\n            /* \"#utility.yul\":3164:3286   */\n        tag_28:\n            /* \"#utility.yul\":3237:3261   */\n          tag_88\n            /* \"#utility.yul\":3255:3260   */\n          dup2\n            /* \"#utility.yul\":3237:3261   */\n          tag_27\n          jump\t// in\n        tag_88:\n            /* \"#utility.yul\":3230:3235   */\n          dup2\n            /* \"#utility.yul\":3227:3262   */\n          eq\n            /* \"#utility.yul\":3217:3280   */\n          tag_89\n          jumpi\n            /* \"#utility.yul\":3276:3277   */\n          0x00\n            /* \"#utility.yul\":3273:3274   */\n          0x00\n            /* \"#utility.yul\":3266:3278   */\n          revert\n            /* \"#utility.yul\":3217:3280   */\n        tag_89:\n            /* \"#utility.yul\":3164:3286   */\n          pop\n          jump\t// out\n            /* \"#utility.yul\":3292:3435   */\n        tag_29:\n            /* \"#utility.yul\":3349:3354   */\n          0x00\n            /* \"#utility.yul\":3380:3386   */\n          dup2\n            /* \"#utility.yul\":3374:3387   */\n          mload\n            /* \"#utility.yul\":3365:3387   */\n          swap1\n          pop\n            /* \"#utility.yul\":3396:3429   */\n          tag_91\n            /* \"#utility.yul\":3423:3428   */\n          dup2\n            /* \"#utility.yul\":3396:3429   */\n          tag_28\n          jump\t// in\n        tag_91:\n            /* \"#utility.yul\":3292:3435   */\n          swap3\n          swap2\n          pop\n          pop\n          jump\t// out\n            /* \"#utility.yul\":3441:4921   */\n        tag_3:\n            /* \"#utility.yul\":3576:3582   */\n          0x00\n            /* \"#utility.yul\":3584:3590   */\n          0x00\n            /* \"#utility.yul\":3592:3598   */\n          0x00\n            /* \"#utility.yul\":3600:3606   */\n          0x00\n            /* \"#utility.yul\":3608:3614   */\n          0x00\n            /* \"#utility.yul\":3616:3622   */\n          0x00\n            /* \"#utility.yul\":3665:3668   */\n          0xc0\n            /* \"#utility.yul\":3653:3662   */\n          dup8\n            /* \"#utility.yul\":3644:3651   */\n          dup10\n            /* \"#utility.yul\":3640:3663   */\n          sub\n            /* \"#utility.yul\":3636:3669   */\n          slt\n            /* \"#utility.yul\":3633:3753   */\n          iszero\n          tag_93\n          jumpi\n            /* \"#utility.yul\":3672:3751   */\n          tag_94\n          tag_11\n          jump\t// in\n        tag_94:\n            /* \"#utility.yul\":3633:3753   */\n        tag_93:\n            /* \"#utility.yul\":3792:3793   */\n          0x00\n            /* \"#utility.yul\":3817:3881   */\n          tag_95\n            /* \"#utility.yul\":3873:3880   */\n          dup10\n            /* \"#utility.yul\":3864:3870   */\n          dup3\n            /* \"#utility.yul\":3853:3862   */\n          dup11\n            /* \"#utility.yul\":3849:3871   */\n          add\n            /* \"#utility.yul\":3817:3881   */\n          tag_15\n          jump\t// in\n        tag_95:\n            /* \"#utility.yul\":3807:3881   */\n          swap7\n          pop\n            /* \"#utility.yul\":3763:3891   */\n          pop\n            /* \"#utility.yul\":3951:3953   */\n          0x20\n            /* \"#utility.yul\":3940:3949   */\n          dup8\n            /* \"#utility.yul\":3936:3954   */\n          add\n            /* \"#utility.yul\":3930:3955   */\n          mload\n            /* \"#utility.yul\":3982:4000   */\n          0xffffffffffffffff\n            /* \"#utility.yul\":3974:3980   */\n          dup2\n            /* \"#utility.yul\":3971:4001   */\n          gt\n            /* \"#utility.yul\":3968:4085   */\n          iszero\n          tag_96\n          jumpi\n            /* \"#utility.yul\":4004:4083   */\n          tag_97\n          tag_12\n          jump\t// in\n        tag_97:\n            /* \"#utility.yul\":3968:4085   */\n        tag_96:\n            /* \"#utility.yul\":4109:4183   */\n          tag_98\n            /* \"#utility.yul\":4175:4182   */\n          dup10\n            /* \"#utility.yul\":4166:4172   */\n          dup3\n            /* \"#utility.yul\":4155:4164   */\n          dup11\n            /* \"#utility.yul\":4151:4173   */\n          add\n            /* \"#utility.yul\":4109:4183   */\n          tag_25\n          jump\t// in\n        tag_98:\n            /* \"#utility.yul\":4099:4183   */\n          swap6\n          pop\n            /* \"#utility.yul\":3901:4193   */\n          pop\n            /* \"#utility.yul\":4253:4255   */\n          0x40\n            /* \"#utility.yul\":4242:4251   */\n          dup8\n            /* \"#utility.yul\":4238:4256   */\n          add\n            /* \"#utility.yul\":4232:4257   */\n          mload\n            /* \"#utility.yul\":4284:4302   */\n          0xffffffffffffffff\n            /* \"#utility.yul\":4276:4282   */\n          dup2\n            /* \"#utility.yul\":4273:4303   */\n          gt\n            /* \"#utility.yul\":4270:4387   */\n          iszero\n          tag_99\n          jumpi\n            /* \"#utility.yul\":4306:4385   */\n          tag_100\n          tag_12\n          jump\t// in\n        tag_100:\n            /* \"#utility.yul\":4270:4387   */\n        tag_99:\n            /* \"#utility.yul\":4411:4485   */\n          tag_101\n            /* \"#utility.yul\":4477:4484   */\n          dup10\n            /* \"#utility.yul\":4468:4474   */\n          dup3\n            /* \"#utility.yul\":4457:4466   */\n          dup11\n            /* \"#utility.yul\":4453:4475   */\n          add\n            /* \"#utility.yul\":4411:4485   */\n          tag_25\n          jump\t// in\n        tag_101:\n            /* \"#utility.yul\":4401:4485   */\n          swap5\n          pop\n            /* \"#utility.yul\":4203:4495   */\n          pop\n            /* \"#utility.yul\":4534:4536   */\n          0x60\n            /* \"#utility.yul\":4560:4624   */\n          tag_102\n            /* \"#utility.yul\":4616:4623   */\n          dup10\n            /* \"#utility.yul\":4607:4613   */\n          dup3\n            /* \"#utility.yul\":4596:4605   */\n          dup11\n            /* \"#utility.yul\":4592:4614   */\n          add\n            /* \"#utility.yul\":4560:4624   */\n          tag_29\n          jump\t// in\n        tag_102:\n            /* \"#utility.yul\":4550:4624   */\n          swap4\n          pop\n            /* \"#utility.yul\":4505:4634   */\n          pop\n            /* \"#utility.yul\":4673:4676   */\n          0x80\n            /* \"#utility.yul\":4700:4764   */\n          tag_103\n            /* \"#utility.yul\":4756:4763   */\n          dup10\n            /* \"#utility.yul\":4747:4753   */\n          dup3\n            /* \"#utility.yul\":4736:4745   */\n          dup11\n            /* \"#utility.yul\":4732:4754   */\n          add\n            /* \"#utility.yul\":4700:4764   */\n          tag_15\n          jump\t// in\n        tag_103:\n            /* \"#utility.yul\":4690:4764   */\n          swap3\n          pop\n            /* \"#utility.yul\":4644:4774   */\n          pop\n            /* \"#utility.yul\":4813:4816   */\n          0xa0\n            /* \"#utility.yul\":4840:4904   */\n          tag_104\n            /* \"#utility.yul\":4896:4903   */\n          dup10\n            /* \"#utility.yul\":4887:4893   */\n          dup3\n            /* \"#utility.yul\":4876:4885   */\n          dup11\n            /* \"#utility.yul\":4872:4894   */\n          add\n            /* \"#utility.yul\":4840:4904   */\n          tag_29\n          jump\t// in\n        tag_104:\n            /* \"#utility.yul\":4830:4904   */\n          swap2\n          pop\n            /* \"#utility.yul\":4784:4914   */\n          pop\n            /* \"#utility.yul\":3441:4921   */\n          swap3\n          swap6\n          pop\n          swap3\n          swap6\n          pop\n          swap3\n          swap6\n          jump\t// out\n            /* \"#utility.yul\":4927:5026   */\n        tag_30:\n            /* \"#utility.yul\":4979:4985   */\n          0x00\n            /* \"#utility.yul\":5013:5018   */\n          dup2\n            /* \"#utility.yul\":5007:5019   */\n          mload\n            /* \"#utility.yul\":4997:5019   */\n          swap1\n          pop\n            /* \"#utility.yul\":4927:5026   */\n          swap2\n          swap1\n          pop\n          jump\t// out\n            /* \"#utility.yul\":5032:5212   */\n        tag_31:\n            /* \"#utility.yul\":5080:5157   */\n          0x4e487b7100000000000000000000000000000000000000000000000000000000\n            /* \"#utility.yul\":5077:5078   */\n          0x00\n            /* \"#utility.yul\":5070:5158   */\n          mstore\n            /* \"#utility.yul\":5177:5181   */\n          0x22\n            /* \"#utility.yul\":5174:5175   */\n          0x04\n            /* \"#utility.yul\":5167:5182   */\n          mstore\n            /* \"#utility.yul\":5201:5205   */\n          0x24\n            /* \"#utility.yul\":5198:5199   */\n          0x00\n            /* \"#utility.yul\":5191:5206   */\n          revert\n            /* \"#utility.yul\":5218:5538   */\n        tag_32:\n            /* \"#utility.yul\":5262:5268   */\n          0x00\n            /* \"#utility.yul\":5299:5300   */\n          0x02\n            /* \"#utility.yul\":5293:5297   */\n          dup3\n            /* \"#utility.yul\":5289:5301   */\n          div\n            /* \"#utility.yul\":5279:5301   */\n          swap1\n          pop\n            /* \"#utility.yul\":5346:5347   */\n          0x01\n            /* \"#utility.yul\":5340:5344   */\n          dup3\n            /* \"#utility.yul\":5336:5348   */\n          and\n            /* \"#utility.yul\":5367:5385   */\n          dup1\n            /* \"#utility.yul\":5357:5438   */\n          tag_108\n          jumpi\n            /* \"#utility.yul\":5423:5427   */\n          0x7f\n            /* \"#utility.yul\":5415:5421   */\n          dup3\n            /* \"#utility.yul\":5411:5428   */\n          and\n            /* \"#utility.yul\":5401:5428   */\n          swap2\n          pop\n            /* \"#utility.yul\":5357:5438   */\n        tag_108:\n            /* \"#utility.yul\":5485:5487   */\n          0x20\n            /* \"#utility.yul\":5477:5483   */\n          dup3\n            /* \"#utility.yul\":5474:5488   */\n          lt\n            /* \"#utility.yul\":5454:5472   */\n          dup2\n            /* \"#utility.yul\":5451:5489   */\n          sub\n            /* \"#utility.yul\":5448:5532   */\n          tag_109\n          jumpi\n            /* \"#utility.yul\":5504:5522   */\n          tag_110\n          tag_31\n          jump\t// in\n        tag_110:\n            /* \"#utility.yul\":5448:5532   */\n        tag_109:\n            /* \"#utility.yul\":5269:5538   */\n          pop\n            /* \"#utility.yul\":5218:5538   */\n          swap2\n          swap1\n          pop\n          jump\t// out\n            /* \"#utility.yul\":5544:5685   */\n        tag_33:\n            /* \"#utility.yul\":5593:5597   */\n          0x00\n            /* \"#utility.yul\":5616:5619   */\n          dup2\n            /* \"#utility.yul\":5608:5619   */\n          swap1\n          pop\n            /* \"#utility.yul\":5639:5642   */\n          dup2\n            /* \"#utility.yul\":5636:5637   */\n          0x00\n            /* \"#utility.yul\":5629:5643   */\n          mstore\n            /* \"#utility.yul\":5673:5677   */\n          0x20\n            /* \"#utility.yul\":5670:5671   */\n          0x00\n            /* \"#utility.yul\":5660:5678   */\n          keccak256\n            /* \"#utility.yul\":5652:5678   */\n          swap1\n          pop\n            /* \"#utility.yul\":5544:5685   */\n          swap2\n          swap1\n          pop\n          jump\t// out\n            /* \"#utility.yul\":5691:5784   */\n        tag_34:\n            /* \"#utility.yul\":5728:5734   */\n          0x00\n            /* \"#utility.yul\":5775:5777   */\n          0x20\n            /* \"#utility.yul\":5770:5772   */\n          0x1f\n            /* \"#utility.yul\":5763:5768   */\n          dup4\n            /* \"#utility.yul\":5759:5773   */\n          add\n            /* \"#utility.yul\":5755:5778   */\n          div\n            /* \"#utility.yul\":5745:5778   */\n          swap1\n          pop\n            /* \"#utility.yul\":5691:5784   */\n          swap2\n          swap1\n          pop\n          jump\t// out\n            /* \"#utility.yul\":5790:5897   */\n        tag_35:\n            /* \"#utility.yul\":5834:5842   */\n          0x00\n            /* \"#utility.yul\":5884:5889   */\n          dup3\n            /* \"#utility.yul\":5878:5882   */\n          dup3\n            /* \"#utility.yul\":5874:5890   */\n          shl\n            /* \"#utility.yul\":5853:5890   */\n          swap1\n          pop\n            /* \"#utility.yul\":5790:5897   */\n          swap3\n          swap2\n          pop\n          pop\n          jump\t// out\n            /* \"#utility.yul\":5903:6296   */\n        tag_36:\n            /* \"#utility.yul\":5972:5978   */\n          0x00\n            /* \"#utility.yul\":6022:6023   */\n          0x08\n            /* \"#utility.yul\":6010:6020   */\n          dup4\n            /* \"#utility.yul\":6006:6024   */\n          mul\n            /* \"#utility.yul\":6045:6142   */\n          tag_115\n            /* \"#utility.yul\":6075:6141   */\n          0xffffffffffffffffffffffffffffffffffffffffffffffffffffffffffffffff\n            /* \"#utility.yul\":6064:6073   */\n          dup3\n            /* \"#utility.yul\":6045:6142   */\n          tag_35\n          jump\t// in\n        tag_115:\n            /* \"#utility.yul\":6163:6202   */\n          tag_116\n            /* \"#utility.yul\":6193:6201   */\n          dup7\n            /* \"#utility.yul\":6182:6191   */\n          dup4\n            /* \"#utility.yul\":6163:6202   */\n          tag_35\n          jump\t// in\n        tag_116:\n            /* \"#utility.yul\":6151:6202   */\n          swap6\n          pop\n            /* \"#utility.yul\":6235:6239   */\n          dup1\n            /* \"#utility.yul\":6231:6240   */\n          not\n            /* \"#utility.yul\":6224:6229   */\n          dup5\n            /* \"#utility.yul\":6220:6241   */\n          and\n            /* \"#utility.yul\":6211:6241   */\n          swap4\n          pop\n            /* \"#utility.yul\":6284:6288   */\n          dup1\n            /* \"#utility.yul\":6274:6282   */\n          dup7\n            /* \"#utility.yul\":6270:6289   */\n          and\n            /* \"#utility.yul\":6263:6268   */\n          dup5\n            /* \"#utility.yul\":6260:6290   */\n          or\n            /* \"#utility.yul\":6250:6290   */\n          swap3\n          pop\n            /* \"#utility.yul\":5979:6296   */\n          pop\n          pop\n            /* \"#utility.yul\":5903:6296   */\n          swap4\n          swap3\n          pop\n          pop\n          pop\n          jump\t// out\n            /* \"#utility.yul\":6302:6362   */\n        tag_37:\n            /* \"#utility.yul\":6330:6333   */\n          0x00\n            /* \"#utility.yul\":6351:6356   */\n          dup2\n            /* \"#utility.yul\":6344:6356   */\n          swap1\n          pop\n            /* \"#utility.yul\":6302:6362   */\n          swap2\n          swap1\n          pop\n          jump\t// out\n            /* \"#utility.yul\":6368:6510   */\n        tag_38:\n            /* \"#utility.yul\":6418:6427   */\n          0x00\n            /* \"#utility.yul\":6451:6504   */\n          tag_119\n            /* \"#utility.yul\":6469:6503   */\n          tag_120\n            /* \"#utility.yul\":6478:6502   */\n          tag_121\n            /* \"#utility.yul\":6496:6501   */\n          dup5\n            /* \"#utility.yul\":6478:6502   */\n          tag_13\n          jump\t// in\n        tag_121:\n            /* \"#utility.yul\":6469:6503   */\n          tag_37\n          jump\t// in\n        tag_120:\n            /* \"#utility.yul\":6451:6504   */\n          tag_13\n          jump\t// in\n        tag_119:\n            /* \"#utility.yul\":6438:6504   */\n          swap1\n          pop\n            /* \"#utility.yul\":6368:6510   */\n          swap2\n          swap1\n          pop\n          jump\t// out\n            /* \"#utility.yul\":6516:6591   */\n        tag_39:\n            /* \"#utility.yul\":6559:6562   */\n          0x00\n            /* \"#utility.yul\":6580:6585   */\n          dup2\n            /* \"#utility.yul\":6573:6585   */\n          swap1\n          pop\n            /* \"#utility.yul\":6516:6591   */\n          swap2\n          swap1\n          pop\n          jump\t// out\n            /* \"#utility.yul\":6597:6866   */\n        tag_40:\n            /* \"#utility.yul\":6707:6746   */\n          tag_124\n            /* \"#utility.yul\":6738:6745   */\n          dup4\n            /* \"#utility.yul\":6707:6746   */\n          tag_38\n          jump\t// in\n        tag_124:\n            /* \"#utility.yul\":6768:6859   */\n          tag_125\n            /* \"#utility.yul\":6817:6858   */\n          tag_126\n            /* \"#utility.yul\":6841:6857   */\n          dup3\n            /* \"#utility.yul\":6817:6858   */\n          tag_39\n          jump\t// in\n        tag_126:\n            /* \"#utility.yul\":6809:6815   */\n          dup5\n            /* \"#utility.yul\":6802:6806   */\n          dup5\n            /* \"#utility.yul\":6796:6807   */\n          sload\n            /* \"#utility.yul\":6768:6859   */\n          tag_36\n          jump\t// in\n        tag_125:\n            /* \"#utility.yul\":6762:6766   */\n          dup3\n            /* \"#utility.yul\":6755:6860   */\n          sstore\n            /* \"#utility.yul\":6673:6866   */\n          pop\n            /* \"#utility.yul\":6597:6866   */\n          pop\n          pop\n          pop\n          jump\t// out\n            /* \"#utility.yul\":6872:6945   */\n        tag_41:\n            /* \"#utility.yul\":6917:6920   */\n          0x00\n            /* \"#utility.yul\":6938:6939   */\n          0x00\n            /* \"#utility.yul\":6931:6939   */\n          swap1\n          pop\n            /* \"#utility.yul\":6872:6945   */\n          swap1\n          jump\t// out\n            /* \"#utility.yul\":6951:7140   */\n        tag_42:\n            /* \"#utility.yul\":7028:7060   */\n          tag_129\n          tag_41\n          jump\t// in\n        tag_129:\n            /* \"#utility.yul\":7069:7134   */\n          tag_130\n            /* \"#utility.yul\":7127:7133   */\n          dup2\n            /* \"#utility.yul\":7119:7125   */\n          dup5\n            /* \"#utility.yul\":7113:7117   */\n          dup5\n            /* \"#utility.yul\":7069:7134   */\n          tag_40\n          jump\t// in\n        tag_130:\n            /* \"#utility.yul\":7004:7140   */\n          pop\n            /* \"#utility.yul\":6951:7140   */\n          pop\n          pop\n          jump\t// out\n            /* \"#utility.yul\":7146:7332   */\n        tag_43:\n            /* \"#utility.yul\":7206:7326   */\n        tag_132:\n            /* \"#utility.yul\":7223:7226   */\n          dup2\n            /* \"#utility.yul\":7216:7221   */\n          dup2\n            /* \"#utility.yul\":7213:7227   */\n          lt\n            /* \"#utility.yul\":7206:7326   */\n          iszero\n          tag_134\n          jumpi\n            /* \"#utility.yul\":7277:7316   */\n          tag_135\n            /* \"#utility.yul\":7314:7315   */\n          0x00\n            /* \"#utility.yul\":7307:7312   */\n          dup3\n            /* \"#utility.yul\":7277:7316   */\n          tag_42\n          jump\t// in\n        tag_135:\n            /* \"#utility.yul\":7250:7251   */\n          0x01\n            /* \"#utility.yul\":7243:7248   */\n          dup2\n            /* \"#utility.yul\":7239:7252   */\n          add\n            /* \"#utility.yul\":7230:7252   */\n          swap1\n          pop\n            /* \"#utility.yul\":7206:7326   */\n          jump(tag_132)\n        tag_134:\n            /* \"#utility.yul\":7146:7332   */\n          pop\n          pop\n          jump\t// out\n            /* \"#utility.yul\":7338:7881   */\n        tag_44:\n            /* \"#utility.yul\":7439:7441   */\n          0x1f\n            /* \"#utility.yul\":7434:7437   */\n          dup3\n            /* \"#utility.yul\":7431:7442   */\n          gt\n            /* \"#utility.yul\":7428:7874   */\n          iszero\n          tag_137\n          jumpi\n            /* \"#utility.yul\":7473:7511   */\n          tag_138\n            /* \"#utility.yul\":7505:7510   */\n          dup2\n            /* \"#utility.yul\":7473:7511   */\n          tag_33\n          jump\t// in\n        tag_138:\n            /* \"#utility.yul\":7557:7586   */\n          tag_139\n            /* \"#utility.yul\":7575:7585   */\n          dup5\n            /* \"#utility.yul\":7557:7586   */\n          tag_34\n          jump\t// in\n        tag_139:\n            /* \"#utility.yul\":7547:7555   */\n          dup2\n            /* \"#utility.yul\":7543:7587   */\n          add\n            /* \"#utility.yul\":7740:7742   */\n          0x20\n            /* \"#utility.yul\":7728:7738   */\n          dup6\n            /* \"#utility.yul\":7725:7743   */\n          lt\n            /* \"#utility.yul\":7722:7771   */\n          iszero\n          tag_140\n          jumpi\n            /* \"#utility.yul\":7761:7769   */\n          dup2\n            /* \"#utility.yul\":7746:7769   */\n          swap1\n          pop\n            /* \"#utility.yul\":7722:7771   */\n        tag_140:\n            /* \"#utility.yul\":7784:7864   */\n          tag_141\n            /* \"#utility.yul\":7840:7862   */\n          tag_142\n            /* \"#utility.yul\":7858:7861   */\n          dup6\n            /* \"#utility.yul\":7840:7862   */\n          tag_34\n          jump\t// in\n        tag_142:\n            /* \"#utility.yul\":7830:7838   */\n          dup4\n            /* \"#utility.yul\":7826:7863   */\n          add\n            /* \"#utility.yul\":7813:7824   */\n          dup3\n            /* \"#utility.yul\":7784:7864   */\n          tag_43\n          jump\t// in\n        tag_141:\n            /* \"#utility.yul\":7443:7874   */\n          pop\n          pop\n            /* \"#utility.yul\":7428:7874   */\n        tag_137:\n            /* \"#utility.yul\":7338:7881   */\n          pop\n          pop\n          pop\n          jump\t// out\n            /* \"#utility.yul\":7887:8004   */\n        tag_45:\n            /* \"#utility.yul\":7941:7949   */\n          0x00\n            /* \"#utility.yul\":7991:7996   */\n          dup3\n            /* \"#utility.yul\":7985:7989   */\n          dup3\n            /* \"#utility.yul\":7981:7997   */\n          shr\n            /* \"#utility.yul\":7960:7997   */\n          swap1\n          pop\n            /* \"#utility.yul\":7887:8004   */\n          swap3\n          swap2\n          pop\n          pop\n          jump\t// out\n            /* \"#utility.yul\":8010:8179   */\n        tag_46:\n            /* \"#utility.yul\":8054:8060   */\n          0x00\n            /* \"#utility.yul\":8087:8138   */\n          tag_145\n            /* \"#utility.yul\":8135:8136   */\n          0x00\n            /* \"#utility.yul\":8131:8137   */\n          not\n            /* \"#utility.yul\":8123:8128   */\n          dup5\n            /* \"#utility.yul\":8120:8121   */\n          0x08\n            /* \"#utility.yul\":8116:8129   */\n          mul\n            /* \"#utility.yul\":8087:8138   */\n          tag_45\n          jump\t// in\n        tag_145:\n            /* \"#utility.yul\":8083:8139   */\n          not\n            /* \"#utility.yul\":8168:8172   */\n          dup1\n            /* \"#utility.yul\":8162:8166   */\n          dup4\n            /* \"#utility.yul\":8158:8173   */\n          and\n            /* \"#utility.yul\":8148:8173   */\n          swap2\n          pop\n            /* \"#utility.yul\":8061:8179   */\n          pop\n            /* \"#utility.yul\":8010:8179   */\n          swap3\n          swap2\n          pop\n          pop\n          jump\t// out\n            /* \"#utility.yul\":8184:8479   */\n        tag_47:\n            /* \"#utility.yul\":8260:8264   */\n          0x00\n            /* \"#utility.yul\":8406:8435   */\n          tag_147\n            /* \"#utility.yul\":8431:8434   */\n          dup4\n            /* \"#utility.yul\":8425:8429   */\n          dup4\n            /* \"#utility.yul\":8406:8435   */\n          tag_46\n          jump\t// in\n        tag_147:\n            /* \"#utility.yul\":8398:8435   */\n          swap2\n          pop\n            /* \"#utility.yul\":8468:8471   */\n          dup3\n            /* \"#utility.yul\":8465:8466   */\n          0x02\n            /* \"#utility.yul\":8461:8472   */\n          mul\n            /* \"#utility.yul\":8455:8459   */\n          dup3\n            /* \"#utility.yul\":8452:8473   */\n          or\n            /* \"#utility.yul\":8444:8473   */\n          swap1\n          pop\n            /* \"#utility.yul\":8184:8479   */\n          swap3\n          swap2\n          pop\n          pop\n          jump\t// out\n            /* \"#utility.yul\":8484:9879   */\n        tag_7:\n            /* \"#utility.yul\":8601:8638   */\n          tag_149\n            /* \"#utility.yul\":8634:8637   */\n          dup3\n            /* \"#utility.yul\":8601:8638   */\n          tag_30\n          jump\t// in\n        tag_149:\n            /* \"#utility.yul\":8703:8721   */\n          0xffffffffffffffff\n            /* \"#utility.yul\":8695:8701   */\n          dup2\n            /* \"#utility.yul\":8692:8722   */\n          gt\n            /* \"#utility.yul\":8689:8745   */\n          iszero\n          tag_150\n          jumpi\n            /* \"#utility.yul\":8725:8743   */\n          tag_151\n          tag_19\n          jump\t// in\n        tag_151:\n            /* \"#utility.yul\":8689:8745   */\n        tag_150:\n            /* \"#utility.yul\":8769:8807   */\n          tag_152\n            /* \"#utility.yul\":8801:8805   */\n          dup3\n            /* \"#utility.yul\":8795:8806   */\n          sload\n            /* \"#utility.yul\":8769:8807   */\n          tag_32\n          jump\t// in\n        tag_152:\n            /* \"#utility.yul\":8854:8921   */\n          tag_153\n            /* \"#utility.yul\":8914:8920   */\n          dup3\n            /* \"#utility.yul\":8906:8912   */\n          dup3\n            /* \"#utility.yul\":8900:8904   */\n          dup6\n            /* \"#utility.yul\":8854:8921   */\n          tag_44\n          jump\t// in\n        tag_153:\n            /* \"#utility.yul\":8948:8949   */\n          0x00\n            /* \"#utility.yul\":8972:8976   */\n          0x20\n            /* \"#utility.yul\":8959:8976   */\n          swap1\n          pop\n            /* \"#utility.yul\":9004:9006   */\n          0x1f\n            /* \"#utility.yul\":8996:9002   */\n          dup4\n            /* \"#utility.yul\":8993:9007   */\n          gt\n            /* \"#utility.yul\":9021:9022   */\n          0x01\n            /* \"#utility.yul\":9016:9634   */\n          dup2\n          eq\n          tag_155\n          jumpi\n            /* \"#utility.yul\":9678:9679   */\n          0x00\n            /* \"#utility.yul\":9695:9701   */\n          dup5\n            /* \"#utility.yul\":9692:9769   */\n          iszero\n          tag_156\n          jumpi\n            /* \"#utility.yul\":9744:9753   */\n          dup3\n            /* \"#utility.yul\":9739:9742   */\n          dup8\n            /* \"#utility.yul\":9735:9754   */\n          add\n            /* \"#utility.yul\":9729:9755   */\n          mload\n            /* \"#utility.yul\":9720:9755   */\n          swap1\n          pop\n            /* \"#utility.yul\":9692:9769   */\n        tag_156:\n            /* \"#utility.yul\":9795:9862   */\n          tag_157\n            /* \"#utility.yul\":9855:9861   */\n          dup6\n            /* \"#utility.yul\":9848:9853   */\n          dup3\n            /* \"#utility.yul\":9795:9862   */\n          tag_47\n          jump\t// in\n        tag_157:\n            /* \"#utility.yul\":9789:9793   */\n          dup7\n            /* \"#utility.yul\":9782:9863   */\n          sstore\n            /* \"#utility.yul\":9651:9873   */\n          pop\n            /* \"#utility.yul\":8986:9873   */\n          jump(tag_154)\n            /* \"#utility.yul\":9016:9634   */\n        tag_155:\n            /* \"#utility.yul\":9068:9072   */\n          0x1f\n            /* \"#utility.yul\":9064:9073   */\n          not\n            /* \"#utility.yul\":9056:9062   */\n          dup5\n            /* \"#utility.yul\":9052:9074   */\n          and\n            /* \"#utility.yul\":9102:9139   */\n          tag_158\n            /* \"#utility.yul\":9134:9138   */\n          dup7\n            /* \"#utility.yul\":9102:9139   */\n          tag_33\n          jump\t// in\n        tag_158:\n            /* \"#utility.yul\":9161:9162   */\n          0x00\n            /* \"#utility.yul\":9175:9383   */\n        tag_159:\n            /* \"#utility.yul\":9189:9196   */\n          dup3\n            /* \"#utility.yul\":9186:9187   */\n          dup2\n            /* \"#utility.yul\":9183:9197   */\n          lt\n            /* \"#utility.yul\":9175:9383   */\n          iszero\n          tag_161\n          jumpi\n            /* \"#utility.yul\":9268:9277   */\n          dup5\n            /* \"#utility.yul\":9263:9266   */\n          dup10\n            /* \"#utility.yul\":9259:9278   */\n          add\n            /* \"#utility.yul\":9253:9279   */\n          mload\n            /* \"#utility.yul\":9245:9251   */\n          dup3\n            /* \"#utility.yul\":9238:9280   */\n          sstore\n            /* \"#utility.yul\":9319:9320   */\n          0x01\n            /* \"#utility.yul\":9311:9317   */\n          dup3\n            /* \"#utility.yul\":9307:9321   */\n          add\n            /* \"#utility.yul\":9297:9321   */\n          swap2\n          pop\n            /* \"#utility.yul\":9366:9368   */\n          0x20\n            /* \"#utility.yul\":9355:9364   */\n          dup6\n            /* \"#utility.yul\":9351:9369   */\n          add\n            /* \"#utility.yul\":9338:9369   */\n          swap5\n          pop\n            /* \"#utility.yul\":9212:9216   */\n          0x20\n            /* \"#utility.yul\":9209:9210   */\n          dup2\n            /* \"#utility.yul\":9205:9217   */\n          add\n            /* \"#utility.yul\":9200:9217   */\n          swap1\n          pop\n            /* \"#utility.yul\":9175:9383   */\n          jump(tag_159)\n        tag_161:\n            /* \"#utility.yul\":9411:9417   */\n          dup7\n            /* \"#utility.yul\":9402:9409   */\n          dup4\n            /* \"#utility.yul\":9399:9418   */\n          lt\n            /* \"#utility.yul\":9396:9575   */\n          iszero\n          tag_162\n          jumpi\n            /* \"#utility.yul\":9469:9478   */\n          dup5\n            /* \"#utility.yul\":9464:9467   */\n          dup10\n            /* \"#utility.yul\":9460:9479   */\n          add\n            /* \"#utility.yul\":9454:9480   */\n          mload\n            /* \"#utility.yul\":9512:9560   */\n          tag_163\n            /* \"#utility.yul\":9554:9558   */\n          0x1f\n            /* \"#utility.yul\":9546:9552   */\n          dup10\n            /* \"#utility.yul\":9542:9559   */\n          and\n            /* \"#utility.yul\":9531:9540   */\n          dup3\n            /* \"#utility.yul\":9512:9560   */\n          tag_46\n          jump\t// in\n        tag_163:\n            /* \"#utility.yul\":9504:9510   */\n          dup4\n            /* \"#utility.yul\":9497:9561   */\n          sstore\n            /* \"#utility.yul\":9419:9575   */\n          pop\n            /* \"#utility.yul\":9396:9575   */\n        tag_162:\n            /* \"#utility.yul\":9621:9622   */\n          0x01\n            /* \"#utility.yul\":9617:9618   */\n          0x02\n            /* \"#utility.yul\":9609:9615   */\n          dup9\n            /* \"#utility.yul\":9605:9619   */\n          mul\n            /* \"#utility.yul\":9601:9623   */\n          add\n            /* \"#utility.yul\":9595:9599   */\n          dup9\n            /* \"#utility.yul\":9588:9624   */\n          sstore\n            /* \"#utility.yul\":9023:9634   */\n          pop\n          pop\n          pop\n            /* \"#utility.yul\":8986:9873   */\n        tag_154:\n          pop\n            /* \"#utility.yul\":8576:9879   */\n          pop\n          pop\n          pop\n            /* \"#utility.yul\":8484:9879   */\n          pop\n          pop\n          jump\t// out\n            /* \"Campaign.sol\":698:7107  contract Campaign {... */\n        tag_9:\n          dataSize(sub_0)\n          dup1\n          dataOffset(sub_0)\n          0x00\n          codecopy\n          0x00\n          return\n        stop\n\n        sub_0: assembly {\n                /* \"Campaign.sol\":698:7107  contract Campaign {... */\n              mstore(0x40, 0x80)\n              callvalue\n              dup1\n              iszero\n              tag_1\n              jumpi\n              revert(0x00, 0x00)\n            tag_1:\n              pop\n              jumpi(tag_2, lt(calldatasize, 0x04))\n              shr(0xe0, calldataload(0x00))\n              dup1\n              0x82fde093\n              gt\n              tag_26\n              jumpi\n              dup1\n              0xa39fac12\n              gt\n              tag_27\n              jumpi\n              dup1\n              0xa39fac12\n              eq\n              tag_20\n              jumpi\n              dup1\n              0xc1cbbca7\n              eq\n              tag_21\n              jumpi\n              dup1\n              0xc8b342ab\n              eq\n              tag_22\n              jumpi\n              dup1\n              0xd57bde79\n              eq\n              tag_23\n              jumpi\n              dup1\n              0xedf26d9b\n              eq\n              tag_24\n              jumpi\n              dup1\n              0xfc0c546a\n              eq\n              tag_25\n              jumpi\n              jump(tag_2)\n            tag_27:\n              dup1\n              0x82fde093\n              eq\n              tag_14\n              jumpi\n              dup1\n              0x83920e90\n              eq\n              tag_15\n              jumpi\n              dup1\n              0x91f90157\n              eq\n              tag_16\n              jumpi\n              dup1\n              0x937e09b1\n              eq\n              tag_17\n              jumpi\n              dup1\n              0x976af615\n              eq\n              tag_18\n              jumpi\n              dup1\n              0x9ace38c2\n              eq\n              tag_19\n              jumpi\n              jump(tag_2)\n            tag_26:\n              dup1\n              0x4e69d560\n              gt\n              tag_28\n              jumpi\n              dup1\n              0x4e69d560\n              eq\n              tag_8\n              jumpi\n              dup1\n              0x58d65629\n              eq\n              tag_9\n              jumpi\n              dup1\n              0x597e1fb5\n              eq\n              tag_10\n              jumpi\n              dup1\n              0x5dc1d641\n              eq\n              tag_11\n              jumpi\n              dup1\n              0x7aed167c\n              eq\n              tag_12\n              jumpi\n              dup1\n              0x7b87d856\n              eq\n              tag_13\n              jumpi\n              jump(tag_2)\n            tag_28:\n              dup1\n              0x0a144391\n              eq\n              tag_3\n              jumpi\n              dup1\n              0x3197cbb6\n              eq\n              tag_4\n              jumpi\n              dup1\n              0x3bc5de30\n              eq\n              tag_5\n              jumpi\n              dup1\n              0x4051ddac\n              eq\n              tag_6\n              jumpi\n              dup1\n              0x481c6a75\n              eq\n              tag_7\n              jumpi\n            tag_2:\n              revert(0x00, 0x00)\n                /* \"Campaign.sol\":1107:1148  mapping(address => bool) public approvers */\n            tag_3:\n              tag_29\n              0x04\n              dup1\n              calldatasize\n              sub\n              dup2\n              add\n              swap1\n              tag_30\n              swap2\n              swap1\n              tag_31\n              jump\t// in\n            tag_30:\n              tag_32\n              jump\t// in\n            tag_29:\n              mload(0x40)\n              tag_33\n              swap2\n              swap1\n              tag_34\n              jump\t// in\n            tag_33:\n              mload(0x40)\n              dup1\n              swap2\n              sub\n              swap1\n              return\n                /* \"Campaign.sol\":1383:1405  uint256 public endTime */\n            tag_4:\n              tag_35\n              tag_36\n              jump\t// in\n            tag_35:\n              mload(0x40)\n              tag_37\n              swap2\n              swap1\n              tag_38\n              jump\t// in\n            tag_37:\n              mload(0x40)\n              dup1\n              swap2\n              sub\n              swap1\n              return\n                /* \"Campaign.sol\":6190:6415  function getData() public view returns (string memory) {... */\n            tag_5:\n              tag_39\n              tag_40\n              jump\t// in\n            tag_39:\n              mload(0x40)\n              tag_41\n              swap2\n              swap1\n              tag_42\n              jump\t// in\n            tag_41:\n              mload(0x40)\n              dup1\n              swap2\n              sub\n              swap1\n              return\n                /* \"Campaign.sol\":6529:7104  function getSummary()... */\n            tag_6:\n              tag_43\n              tag_44\n              jump\t// in\n            tag_43:\n              mload(0x40)\n              tag_45\n              swap11\n              swap10\n              swap9\n              swap8\n              swap7\n              swap6\n              swap5\n              swap4\n              swap3\n              swap2\n              swap1\n              tag_46\n              jump\t// in\n            tag_45:\n              mload(0x40)\n              dup1\n              swap2\n              sub\n              swap1\n              return\n                /* \"Campaign.sol\":967:989  address public manager */\n            tag_7:\n              tag_47\n              tag_48\n              jump\t// in\n            tag_47:\n              mload(0x40)\n              tag_49\n              swap2\n              swap1\n              tag_50\n              jump\t// in\n            tag_49:\n              mload(0x40)\n              dup1\n              swap2\n              sub\n              swap1\n              return\n                /* \"Campaign.sol\":5876:5956  function getStatus() public view returns (bool) {... */\n            tag_8:\n              tag_51\n              tag_52\n              jump\t// in\n            tag_51:\n              mload(0x40)\n              tag_53\n              swap2\n              swap1\n              tag_34\n              jump\t// in\n            tag_53:\n              mload(0x40)\n              dup1\n              swap2\n              sub\n              swap1\n              return\n                /* \"Campaign.sol\":1069:1098  string public dataDescription */\n            tag_9:\n              tag_54\n              tag_55\n              jump\t// in\n            tag_54:\n              mload(0x40)\n              tag_56\n              swap2\n              swap1\n              tag_42\n              jump\t// in\n            tag_56:\n              mload(0x40)\n              dup1\n              swap2\n              sub\n              swap1\n              return\n                /* \"Campaign.sol\":1412:1430  bool public closed */\n            tag_10:\n              tag_57\n              tag_58\n              jump\t// in\n            tag_57:\n              mload(0x40)\n              tag_59\n              swap2\n              swap1\n              tag_34\n              jump\t// in\n            tag_59:\n              mload(0x40)\n              dup1\n              swap2\n              sub\n              swap1\n              return\n                /* \"Campaign.sol\":1155:1204  mapping(address => uint256) public approversMoney */\n            tag_11:\n              tag_60\n              0x04\n              dup1\n              calldatasize\n              sub\n              dup2\n              add\n              swap1\n              tag_61\n              swap2\n              swap1\n              tag_31\n              jump\t// in\n            tag_61:\n              tag_62\n              jump\t// in\n            tag_60:\n              mload(0x40)\n              tag_63\n              swap2\n              swap1\n              tag_38\n              jump\t// in\n            tag_63:\n              mload(0x40)\n              dup1\n              swap2\n              sub\n              swap1\n              return\n                /* \"Campaign.sol\":3808:4960  function permitAndContribute(... */\n            tag_12:\n              tag_64\n              0x04\n              dup1\n              calldatasize\n              sub\n              dup2\n              add\n              swap1\n              tag_65\n              swap2\n              swap1\n              tag_66\n              jump\t// in\n            tag_65:\n              tag_67\n              jump\t// in\n            tag_64:\n              stop\n                /* \"Campaign.sol\":1037:1062  string public dataForSell */\n            tag_13:\n              tag_68\n              tag_69\n              jump\t// in\n            tag_68:\n              mload(0x40)\n              tag_70\n              swap2\n              swap1\n              tag_42\n              jump\t// in\n            tag_70:\n              mload(0x40)\n              dup1\n              swap2\n              sub\n              swap1\n              return\n                /* \"Campaign.sol\":1211:1240  uint256 public approversCount */\n            tag_14:\n              tag_71\n              tag_72\n              jump\t// in\n            tag_71:\n              mload(0x40)\n              tag_73\n              swap2\n              swap1\n              tag_38\n              jump\t// in\n            tag_73:\n              mload(0x40)\n              dup1\n              swap2\n              sub\n              swap1\n              return\n                /* \"Campaign.sol\":6082:6182  function getTransactions() public view returns (Bid[] memory) {... */\n            tag_15:\n              tag_74\n              tag_75\n              jump\t// in\n            tag_74:\n              mload(0x40)\n              tag_76\n              swap2\n              swap1\n              tag_77\n              jump\t// in\n            tag_76:\n              mload(0x40)\n              dup1\n              swap2\n              sub\n              swap1\n              return\n                /* \"Campaign.sol\":1316:1344  address public highestBidder */\n            tag_16:\n              tag_78\n              tag_79\n              jump\t// in\n            tag_78:\n              mload(0x40)\n              tag_80\n              swap2\n              swap1\n              tag_50\n              jump\t// in\n            tag_80:\n              mload(0x40)\n              dup1\n              swap2\n              sub\n              swap1\n              return\n                /* \"Campaign.sol\":996:1030  uint256 public minimumContribution */\n            tag_17:\n              tag_81\n              tag_82\n              jump\t// in\n            tag_81:\n              mload(0x40)\n              tag_83\n              swap2\n              swap1\n              tag_38\n              jump\t// in\n            tag_83:\n              mload(0x40)\n              dup1\n              swap2\n              sub\n              swap1\n              return\n                /* \"Campaign.sol\":4980:5868  function finalizeAuctionIfNeeded() public onlyAfterEnd {... */\n            tag_18:\n              tag_84\n              tag_85\n              jump\t// in\n            tag_84:\n              stop\n                /* \"Campaign.sol\":1282:1307  Bid[] public transactions */\n            tag_19:\n              tag_86\n              0x04\n              dup1\n              calldatasize\n              sub\n              dup2\n              add\n              swap1\n              tag_87\n              swap2\n              swap1\n              tag_88\n              jump\t// in\n            tag_87:\n              tag_89\n              jump\t// in\n            tag_86:\n              mload(0x40)\n              tag_90\n              swap4\n              swap3\n              swap2\n              swap1\n              tag_91\n              jump\t// in\n            tag_90:\n              mload(0x40)\n              dup1\n              swap2\n              sub\n              swap1\n              return\n                /* \"Campaign.sol\":6423:6521  function getAddresses() public view returns (address[] memory) {... */\n            tag_20:\n              tag_92\n              tag_93\n              jump\t// in\n            tag_92:\n              mload(0x40)\n              tag_94\n              swap2\n              swap1\n              tag_95\n              jump\t// in\n            tag_94:\n              mload(0x40)\n              dup1\n              swap2\n              sub\n              swap1\n              return\n                /* \"Campaign.sol\":2165:3386  function contribute(uint256 amount) public onlyBeforeEnd {... */\n            tag_21:\n              tag_96\n              0x04\n              dup1\n              calldatasize\n              sub\n              dup2\n              add\n              swap1\n              tag_97\n              swap2\n              swap1\n              tag_88\n              jump\t// in\n            tag_97:\n              tag_98\n              jump\t// in\n            tag_96:\n              stop\n                /* \"Campaign.sol\":5964:6074  function getBid(address bidder) public view returns (uint256) {... */\n            tag_22:\n              tag_99\n              0x04\n              dup1\n              calldatasize\n              sub\n              dup2\n              add\n              swap1\n              tag_100\n              swap2\n              swap1\n              tag_31\n              jump\t// in\n            tag_100:\n              tag_101\n              jump\t// in\n            tag_99:\n              mload(0x40)\n              tag_102\n              swap2\n              swap1\n              tag_38\n              jump\t// in\n            tag_102:\n              mload(0x40)\n              dup1\n              swap2\n              sub\n              swap1\n              return\n                /* \"Campaign.sol\":1351:1376  uint256 public highestBid */\n            tag_23:\n              tag_103\n              tag_104\n              jump\t// in\n            tag_103:\n              mload(0x40)\n              tag_105\n              swap2\n              swap1\n              tag_38\n              jump\t// in\n            tag_105:\n              mload(0x40)\n              dup1\n              swap2\n              sub\n              swap1\n              return\n                /* \"Campaign.sol\":1249:1275  address[] public addresses */\n            tag_24:\n              tag_106\n              0x04\n              dup1\n              calldatasize\n              sub\n              dup2\n              add\n              swap1\n              tag_107\n              swap2\n              swap1\n              tag_88\n              jump\t// in\n            tag_107:\n              tag_108\n              jump\t// in\n            tag_106:\n              mload(0x40)\n              tag_109\n              swap2\n              swap1\n              tag_50\n              jump\t// in\n            tag_109:\n              mload(0x40)\n              dup1\n              swap2\n              sub\n              swap1\n              return\n                /* \"Campaign.sol\":1441:1466  IERC20Permit public token */\n            tag_25:\n              tag_110\n              tag_111\n              jump\t// in\n            tag_110:\n              mload(0x40)\n              tag_112\n              swap2\n              swap1\n              tag_113\n              jump\t// in\n            tag_112:\n              mload(0x40)\n              dup1\n              swap2\n              sub\n              swap1\n              return\n                /* \"Campaign.sol\":1107:1148  mapping(address => bool) public approvers */\n            tag_32:\n              mstore(0x20, 0x04)\n              dup1\n              0x00\n              mstore\n              keccak256(0x00, 0x40)\n              0x00\n              swap2\n              pop\n              sload\n              swap1\n              0x0100\n              exp\n              swap1\n              div\n              0xff\n              and\n              dup2\n              jump\t// out\n                /* \"Campaign.sol\":1383:1405  uint256 public endTime */\n            tag_36:\n              sload(0x0b)\n              dup2\n              jump\t// out\n                /* \"Campaign.sol\":6190:6415  function getData() public view returns (string memory) {... */\n            tag_40:\n                /* \"Campaign.sol\":6230:6243  string memory */\n              0x60\n                /* \"Campaign.sol\":6264:6270  closed */\n              0x0c\n              0x00\n              swap1\n              sload\n              swap1\n              0x0100\n              exp\n              swap1\n              div\n              0xff\n              and\n                /* \"Campaign.sol\":6256:6296  require(closed, \"Auction not finalized\") */\n              tag_115\n              jumpi\n              mload(0x40)\n              0x08c379a000000000000000000000000000000000000000000000000000000000\n              dup2\n              mstore\n              0x04\n              add\n              tag_116\n              swap1\n              tag_117\n              jump\t// in\n            tag_116:\n              mload(0x40)\n              dup1\n              swap2\n              sub\n              swap1\n              revert\n            tag_115:\n                /* \"Campaign.sol\":6329:6342  highestBidder */\n              0x09\n              0x00\n              swap1\n              sload\n              swap1\n              0x0100\n              exp\n              swap1\n              div\n              0xffffffffffffffffffffffffffffffffffffffff\n              and\n                /* \"Campaign.sol\":6315:6342  msg.sender == highestBidder */\n              0xffffffffffffffffffffffffffffffffffffffff\n              and\n                /* \"Campaign.sol\":6315:6325  msg.sender */\n              caller\n                /* \"Campaign.sol\":6315:6342  msg.sender == highestBidder */\n              0xffffffffffffffffffffffffffffffffffffffff\n              and\n              eq\n                /* \"Campaign.sol\":6307:6378  require(msg.sender == highestBidder, \"Only winner can access the data\") */\n              tag_118\n              jumpi\n              mload(0x40)\n              0x08c379a000000000000000000000000000000000000000000000000000000000\n              dup2\n              mstore\n              0x04\n              add\n              tag_119\n              swap1\n              tag_120\n              jump\t// in\n            tag_119:\n              mload(0x40)\n              dup1\n              swap2\n              sub\n              swap1\n              revert\n            tag_118:\n                /* \"Campaign.sol\":6396:6407  dataForSell */\n              0x02\n                /* \"Campaign.sol\":6389:6407  return dataForSell */\n              dup1\n              sload\n              tag_121\n              swap1\n              tag_122\n              jump\t// in\n            tag_121:\n              dup1\n              0x1f\n              add\n              0x20\n              dup1\n              swap2\n              div\n              mul\n              0x20\n              add\n              mload(0x40)\n              swap1\n              dup2\n              add\n              0x40\n              mstore\n              dup1\n              swap3\n              swap2\n              swap1\n              dup2\n              dup2\n              mstore\n              0x20\n              add\n              dup3\n              dup1\n              sload\n              tag_123\n              swap1\n              tag_122\n              jump\t// in\n            tag_123:\n              dup1\n              iszero\n              tag_124\n              jumpi\n              dup1\n              0x1f\n              lt\n              tag_125\n              jumpi\n              0x0100\n              dup1\n              dup4\n              sload\n              div\n              mul\n              dup4\n              mstore\n              swap2\n              0x20\n              add\n              swap2\n              jump(tag_124)\n            tag_125:\n              dup3\n              add\n              swap2\n              swap1\n              0x00\n              mstore\n              keccak256(0x00, 0x20)\n              swap1\n            tag_126:\n              dup2\n              sload\n              dup2\n              mstore\n              swap1\n              0x01\n              add\n              swap1\n              0x20\n              add\n              dup1\n              dup4\n              gt\n              tag_126\n              jumpi\n              dup3\n              swap1\n              sub\n              0x1f\n              and\n              dup3\n              add\n              swap2\n            tag_124:\n              pop\n              pop\n              pop\n              pop\n              pop\n              swap1\n              pop\n                /* \"Campaign.sol\":6190:6415  function getData() public view returns (string memory) {... */\n              swap1\n              jump\t// out\n                /* \"Campaign.sol\":6529:7104  function getSummary()... */\n            tag_44:\n                /* \"Campaign.sol\":6613:6620  uint256 */\n              0x00\n                /* \"Campaign.sol\":6622:6629  uint256 */\n              0x00\n                /* \"Campaign.sol\":6631:6638  uint256 */\n              0x00\n                /* \"Campaign.sol\":6640:6647  address */\n              0x00\n                /* \"Campaign.sol\":6662:6669  uint256 */\n              0x00\n                /* \"Campaign.sol\":6671:6684  string memory */\n              0x60\n                /* \"Campaign.sol\":6686:6699  string memory */\n              dup1\n                /* \"Campaign.sol\":6714:6721  address */\n              0x00\n                /* \"Campaign.sol\":6723:6739  address[] memory */\n              0x60\n                /* \"Campaign.sol\":6741:6748  uint256 */\n              0x00\n                /* \"Campaign.sol\":6798:6817  minimumContribution */\n              sload(0x01)\n                /* \"Campaign.sol\":6847:6852  token */\n              0x0c\n              0x01\n              swap1\n              sload\n              swap1\n              0x0100\n              exp\n              swap1\n              div\n              0xffffffffffffffffffffffffffffffffffffffff\n              and\n                /* \"Campaign.sol\":6832:6864  IERC20(address(token)).balanceOf */\n              0xffffffffffffffffffffffffffffffffffffffff\n              and\n              0x70a08231\n                /* \"Campaign.sol\":6873:6877  this */\n              address\n                /* \"Campaign.sol\":6832:6879  IERC20(address(token)).balanceOf(address(this)) */\n              mload(0x40)\n              dup3\n              0xffffffff\n              and\n              0xe0\n              shl\n              dup2\n              mstore\n              0x04\n              add\n              tag_128\n              swap2\n              swap1\n              tag_50\n              jump\t// in\n            tag_128:\n              0x20\n              mload(0x40)\n              dup1\n              dup4\n              sub\n              dup2\n              dup7\n              gas\n              staticcall\n              iszero\n              dup1\n              iszero\n              tag_130\n              jumpi\n              returndatacopy(0x00, 0x00, returndatasize)\n              revert(0x00, returndatasize)\n            tag_130:\n              pop\n              pop\n              pop\n              pop\n              mload(0x40)\n              returndatasize\n              not(0x1f)\n              0x1f\n              dup3\n              add\n              and\n              dup3\n              add\n              dup1\n              0x40\n              mstore\n              pop\n              dup2\n              add\n              swap1\n              tag_131\n              swap2\n              swap1\n              tag_132\n              jump\t// in\n            tag_131:\n                /* \"Campaign.sol\":6894:6908  approversCount */\n              sload(0x06)\n                /* \"Campaign.sol\":6923:6930  manager */\n              0x00\n              0x00\n              swap1\n              sload\n              swap1\n              0x0100\n              exp\n              swap1\n              div\n              0xffffffffffffffffffffffffffffffffffffffff\n              and\n                /* \"Campaign.sol\":6945:6955  highestBid */\n              sload(0x0a)\n                /* \"Campaign.sol\":6970:6981  dataForSell */\n              0x02\n                /* \"Campaign.sol\":6996:7011  dataDescription */\n              0x03\n                /* \"Campaign.sol\":7026:7039  highestBidder */\n              0x09\n              0x00\n              swap1\n              sload\n              swap1\n              0x0100\n              exp\n              swap1\n              div\n              0xffffffffffffffffffffffffffffffffffffffff\n              and\n                /* \"Campaign.sol\":7054:7063  addresses */\n              0x07\n                /* \"Campaign.sol\":7078:7085  endTime */\n              sload(0x0b)\n                /* \"Campaign.sol\":6776:7096  return (... */\n              dup5\n              dup1\n              sload\n              tag_133\n              swap1\n              tag_122\n              jump\t// in\n            tag_133:\n              dup1\n              0x1f\n              add\n              0x20\n              dup1\n              swap2\n              div\n              mul\n              0x20\n              add\n              mload(0x40)\n              swap1\n              dup2\n              add\n              0x40\n              mstore\n              dup1\n              swap3\n              swap2\n              swap1\n              dup2\n              dup2\n              mstore\n              0x20\n              add\n              dup3\n              dup1\n              sload\n              tag_134\n              swap1\n              tag_122\n              jump\t// in\n            tag_134:\n              dup1\n              iszero\n              tag_135\n              jumpi\n              dup1\n              0x1f\n              lt\n              tag_136\n              jumpi\n              0x0100\n              dup1\n              dup4\n              sload\n              div\n              mul\n              dup4\n              mstore\n              swap2\n              0x20\n              add\n              swap2\n              jump(tag_135)\n            tag_136:\n              dup3\n              add\n              swap2\n              swap1\n              0x00\n              mstore\n              keccak256(0x00, 0x20)\n              swap1\n            tag_137:\n              dup2\n              sload\n              dup2\n              mstore\n              swap1\n              0x01\n              add\n              swap1\n              0x20\n              add\n              dup1\n              dup4\n              gt\n              tag_137\n              jumpi\n              dup3\n              swap1\n              sub\n              0x1f\n              and\n              dup3\n              add\n              swap2\n            tag_135:\n              pop\n              pop\n              pop\n              pop\n              pop\n              swap5\n              pop\n              dup4\n              dup1\n              sload\n              tag_138\n              swap1\n              tag_122\n              jump\t// in\n            tag_138:\n              dup1\n              0x1f\n              add\n              0x20\n              dup1\n              swap2\n              div\n              mul\n              0x20\n              add\n              mload(0x40)\n              swap1\n              dup2\n              add\n              0x40\n              mstore\n              dup1\n              swap3\n              swap2\n              swap1\n              dup2\n              dup2\n              mstore\n              0x20\n              add\n              dup3\n              dup1\n              sload\n              tag_139\n              swap1\n              tag_122\n              jump\t// in\n            tag_139:\n              dup1\n              iszero\n              tag_140\n              jumpi\n              dup1\n              0x1f\n              lt\n              tag_141\n              jumpi\n              0x0100\n              dup1\n              dup4\n              sload\n              div\n              mul\n              dup4\n              mstore\n              swap2\n              0x20\n              add\n              swap2\n              jump(tag_140)\n            tag_141:\n              dup3\n              add\n              swap2\n              swap1\n              0x00\n              mstore\n              keccak256(0x00, 0x20)\n              swap1\n            tag_142:\n              dup2\n              sload\n              dup2\n              mstore\n              swap1\n              0x01\n              add\n              swap1\n              0x20\n              add\n              dup1\n              dup4\n              gt\n              tag_142\n              jumpi\n              dup3\n              swap1\n              sub\n              0x1f\n              and\n              dup3\n              add\n              swap2\n            tag_140:\n              pop\n              pop\n              pop\n              pop\n              pop\n              swap4\n              pop\n              dup2\n              dup1\n              sload\n              dup1\n              0x20\n              mul\n              0x20\n              add\n              mload(0x40)\n              swap1\n              dup2\n              add\n              0x40\n              mstore\n              dup1\n              swap3\n              swap2\n              swap1\n              dup2\n              dup2\n              mstore\n              0x20\n              add\n              dup3\n              dup1\n              sload\n              dup1\n              iszero\n              tag_143\n              jumpi\n              0x20\n              mul\n              dup3\n              add\n              swap2\n              swap1\n              0x00\n              mstore\n              keccak256(0x00, 0x20)\n              swap1\n            tag_144:\n              dup2\n              0x00\n              swap1\n              sload\n              swap1\n              0x0100\n              exp\n              swap1\n              div\n              0xffffffffffffffffffffffffffffffffffffffff\n              and\n              0xffffffffffffffffffffffffffffffffffffffff\n              and\n              dup2\n              mstore\n              0x20\n              add\n              swap1\n              0x01\n              add\n              swap1\n              dup1\n              dup4\n              gt\n              tag_144\n              jumpi\n            tag_143:\n              pop\n              pop\n              pop\n              pop\n              pop\n              swap2\n              pop\n              swap10\n              pop\n              swap10\n              pop\n              swap10\n              pop\n              swap10\n              pop\n              swap10\n              pop\n              swap10\n              pop\n              swap10\n              pop\n              swap10\n              pop\n              swap10\n              pop\n              swap10\n              pop\n                /* \"Campaign.sol\":6529:7104  function getSummary()... */\n              swap1\n              swap2\n              swap3\n              swap4\n              swap5\n              swap6\n              swap7\n              swap8\n              swap9\n              swap10\n              jump\t// out\n                /* \"Campaign.sol\":967:989  address public manager */\n            tag_48:\n              0x00\n              0x00\n              swap1\n              sload\n              swap1\n              0x0100\n              exp\n              swap1\n              div\n              0xffffffffffffffffffffffffffffffffffffffff\n              and\n              dup2\n              jump\t// out\n                /* \"Campaign.sol\":5876:5956  function getStatus() public view returns (bool) {... */\n            tag_52:\n                /* \"Campaign.sol\":5918:5922  bool */\n              0x00\n                /* \"Campaign.sol\":5942:5948  closed */\n              0x0c\n              0x00\n              swap1\n              sload\n              swap1\n              0x0100\n              exp\n              swap1\n              div\n              0xff\n              and\n                /* \"Campaign.sol\":5935:5948  return closed */\n              swap1\n              pop\n                /* \"Campaign.sol\":5876:5956  function getStatus() public view returns (bool) {... */\n              swap1\n              jump\t// out\n                /* \"Campaign.sol\":1069:1098  string public dataDescription */\n            tag_55:\n              0x03\n              dup1\n              sload\n              tag_146\n              swap1\n              tag_122\n              jump\t// in\n            tag_146:\n              dup1\n              0x1f\n              add\n              0x20\n              dup1\n              swap2\n              div\n              mul\n              0x20\n              add\n              mload(0x40)\n              swap1\n              dup2\n              add\n              0x40\n              mstore\n              dup1\n              swap3\n              swap2\n              swap1\n              dup2\n              dup2\n              mstore\n              0x20\n              add\n              dup3\n              dup1\n              sload\n              tag_147\n              swap1\n              tag_122\n              jump\t// in\n            tag_147:\n              dup1\n              iszero\n              tag_148\n              jumpi\n              dup1\n              0x1f\n              lt\n              tag_149\n              jumpi\n              0x0100\n              dup1\n              dup4\n              sload\n              div\n              mul\n              dup4\n              mstore\n              swap2\n              0x20\n              add\n              swap2\n              jump(tag_148)\n            tag_149:\n              dup3\n              add\n              swap2\n              swap1\n              0x00\n              mstore\n              keccak256(0x00, 0x20)\n              swap1\n            tag_150:\n              dup2\n              sload\n              dup2\n              mstore\n              swap1\n              0x01\n              add\n              swap1\n              0x20\n              add\n              dup1\n              dup4\n              gt\n              tag_150\n              jumpi\n              dup3\n              swap1\n              sub\n              0x1f\n              and\n              dup3\n              add\n              swap2\n            tag_148:\n              pop\n              pop\n              pop\n              pop\n              pop\n              dup2\n              jump\t// out\n                /* \"Campaign.sol\":1412:1430  bool public closed */\n            tag_58:\n              0x0c\n              0x00\n              swap1\n              sload\n              swap1\n              0x0100\n              exp\n              swap1\n              div\n              0xff\n              and\n              dup2\n              jump\t// out\n                /* \"Campaign.sol\":1155:1204  mapping(address => uint256) public approversMoney */\n            tag_62:\n              mstore(0x20, 0x05)\n              dup1\n              0x00\n              mstore\n              keccak256(0x00, 0x40)\n              0x00\n              swap2\n              pop\n              swap1\n              pop\n              sload\n              dup2\n              jump\t// out\n                /* \"Campaign.sol\":3808:4960  function permitAndContribute(... */\n            tag_67:\n                /* \"Campaign.sol\":3946:3959  address owner */\n              0x00\n                /* \"Campaign.sol\":3962:3972  msg.sender */\n              caller\n                /* \"Campaign.sol\":3946:3972  address owner = msg.sender */\n              swap1\n              pop\n                /* \"Campaign.sol\":3979:3994  address spender */\n              0x00\n                /* \"Campaign.sol\":4005:4009  this */\n              address\n                /* \"Campaign.sol\":3979:4010  address spender = address(this) */\n              swap1\n              pop\n                /* \"Campaign.sol\":4062:4075  uint256 nonce */\n              0x00\n                /* \"Campaign.sol\":4078:4083  token */\n              0x0c\n              0x01\n              swap1\n              sload\n              swap1\n              0x0100\n              exp\n              swap1\n              div\n              0xffffffffffffffffffffffffffffffffffffffff\n              and\n                /* \"Campaign.sol\":4078:4090  token.nonces */\n              0xffffffffffffffffffffffffffffffffffffffff\n              and\n              0x7ecebe00\n                /* \"Campaign.sol\":4091:4096  owner */\n              dup5\n                /* \"Campaign.sol\":4078:4097  token.nonces(owner) */\n              mload(0x40)\n              dup3\n              0xffffffff\n              and\n              0xe0\n              shl\n              dup2\n              mstore\n              0x04\n              add\n              tag_152\n              swap2\n              swap1\n              tag_50\n              jump\t// in\n            tag_152:\n              0x20\n              mload(0x40)\n              dup1\n              dup4\n              sub\n              dup2\n              dup7\n              gas\n              staticcall\n              iszero\n              dup1\n              iszero\n              tag_154\n              jumpi\n              returndatacopy(0x00, 0x00, returndatasize)\n              revert(0x00, returndatasize)\n            tag_154:\n              pop\n              pop\n              pop\n              pop\n              mload(0x40)\n              returndatasize\n              not(0x1f)\n              0x1f\n              dup3\n              add\n              and\n              dup3\n              add\n              dup1\n              0x40\n              mstore\n              pop\n              dup2\n              add\n              swap1\n              tag_155\n              swap2\n              swap1\n              tag_132\n              jump\t// in\n            tag_155:\n                /* \"Campaign.sol\":4062:4097  uint256 nonce = token.nonces(owner) */\n              swap1\n              pop\n                /* \"Campaign.sol\":4109:4126  NonceCheck(nonce) */\n              0xf29b58c6301ab4d806bf8454e3565b31382f5ad5f02fd45fb42e18523cb860e4\n                /* \"Campaign.sol\":4120:4125  nonce */\n              dup2\n                /* \"Campaign.sol\":4109:4126  NonceCheck(nonce) */\n              mload(0x40)\n              tag_156\n              swap2\n              swap1\n              tag_38\n              jump\t// in\n            tag_156:\n              mload(0x40)\n              dup1\n              swap2\n              sub\n              swap1\n              log1\n                /* \"Campaign.sol\":4161:4168  spender */\n              dup2\n                /* \"Campaign.sol\":4140:4194  PermitAttempt(owner, spender, amount, nonce, deadline) */\n              0xffffffffffffffffffffffffffffffffffffffff\n              and\n                /* \"Campaign.sol\":4154:4159  owner */\n              dup4\n                /* \"Campaign.sol\":4140:4194  PermitAttempt(owner, spender, amount, nonce, deadline) */\n              0xffffffffffffffffffffffffffffffffffffffff\n              and\n              0xe73d3e7f4544b3502481a4298011ede4f74f12e7c94c6998bc96c6db67502c3c\n                /* \"Campaign.sol\":4170:4176  amount */\n              dup11\n                /* \"Campaign.sol\":4178:4183  nonce */\n              dup5\n                /* \"Campaign.sol\":4185:4193  deadline */\n              dup12\n                /* \"Campaign.sol\":4140:4194  PermitAttempt(owner, spender, amount, nonce, deadline) */\n              mload(0x40)\n              tag_157\n              swap4\n              swap3\n              swap2\n              swap1\n              tag_158\n              jump\t// in\n            tag_157:\n              mload(0x40)\n              dup1\n              swap2\n              sub\n              swap1\n              log3\n                /* \"Campaign.sol\":4234:4239  token */\n              0x0c\n              0x01\n              swap1\n              sload\n              swap1\n              0x0100\n              exp\n              swap1\n              div\n              0xffffffffffffffffffffffffffffffffffffffff\n              and\n                /* \"Campaign.sol\":4234:4246  token.permit */\n              0xffffffffffffffffffffffffffffffffffffffff\n              and\n              0xd505accf\n                /* \"Campaign.sol\":4247:4252  owner */\n              dup5\n                /* \"Campaign.sol\":4254:4261  spender */\n              dup5\n                /* \"Campaign.sol\":4263:4269  amount */\n              dup12\n                /* \"Campaign.sol\":4271:4279  deadline */\n              dup12\n                /* \"Campaign.sol\":4281:4282  v */\n              dup12\n                /* \"Campaign.sol\":4284:4285  r */\n              dup12\n                /* \"Campaign.sol\":4287:4288  s */\n              dup12\n                /* \"Campaign.sol\":4234:4289  token.permit(owner, spender, amount, deadline, v, r, s) */\n              mload(0x40)\n              dup9\n              0xffffffff\n              and\n              0xe0\n              shl\n              dup2\n              mstore\n              0x04\n              add\n              tag_159\n              swap8\n              swap7\n              swap6\n              swap5\n              swap4\n              swap3\n              swap2\n              swap1\n              tag_160\n              jump\t// in\n            tag_159:\n              0x00\n              mload(0x40)\n              dup1\n              dup4\n              sub\n              dup2\n              0x00\n              dup8\n              dup1\n              extcodesize\n              iszero\n              dup1\n              iszero\n              tag_161\n              jumpi\n              revert(0x00, 0x00)\n            tag_161:\n              pop\n              gas\n              call\n              swap3\n              pop\n              pop\n              pop\n              dup1\n              iszero\n              tag_162\n              jumpi\n              pop\n              0x01\n            tag_162:\n                /* \"Campaign.sol\":4230:4577  try token.permit(owner, spender, amount, deadline, v, r, s) {... */\n              tag_163\n              jumpi\n              tag_167\n              tag_168\n              jump\t// in\n            tag_167:\n              dup1\n              0x08c379a0\n              sub\n              tag_166\n              jumpi\n              pop\n              tag_169\n              tag_170\n              jump\t// in\n            tag_169:\n              dup1\n              tag_171\n              jumpi\n              pop\n              jump(tag_165)\n            tag_171:\n                /* \"Campaign.sol\":4370:4390  PermitFailed(reason) */\n              0xe19fbc5ff4f9e3df659f19fd3f2f1bd7a51b5e2994e3a55670578bb0f9d1d556\n                /* \"Campaign.sol\":4383:4389  reason */\n              dup2\n                /* \"Campaign.sol\":4370:4390  PermitFailed(reason) */\n              mload(0x40)\n              tag_172\n              swap2\n              swap1\n              tag_42\n              jump\t// in\n            tag_172:\n              mload(0x40)\n              dup1\n              swap2\n              sub\n              swap1\n              log1\n                /* \"Campaign.sol\":4451:4457  reason */\n              dup1\n                /* \"Campaign.sol\":4415:4458  abi.encodePacked(\"Permit failed: \", reason) */\n              add(0x20, mload(0x40))\n              tag_173\n              swap2\n              swap1\n              tag_174\n              jump\t// in\n            tag_173:\n              mload(0x40)\n              0x20\n              dup2\n              dup4\n              sub\n              sub\n              dup2\n              mstore\n              swap1\n              0x40\n              mstore\n                /* \"Campaign.sol\":4401:4460  revert(string(abi.encodePacked(\"Permit failed: \", reason))) */\n              mload(0x40)\n              0x08c379a000000000000000000000000000000000000000000000000000000000\n              dup2\n              mstore\n              0x04\n              add\n              tag_175\n              swap2\n              swap1\n              tag_42\n              jump\t// in\n            tag_175:\n              mload(0x40)\n              dup1\n              swap2\n              sub\n              swap1\n              revert\n                /* \"Campaign.sol\":4230:4577  try token.permit(owner, spender, amount, deadline, v, r, s) {... */\n            tag_166:\n              pop\n            tag_165:\n                /* \"Campaign.sol\":4491:4520  PermitFailed(\"Unknown error\") */\n              0xe19fbc5ff4f9e3df659f19fd3f2f1bd7a51b5e2994e3a55670578bb0f9d1d556\n              mload(0x40)\n              tag_176\n              swap1\n              tag_177\n              jump\t// in\n            tag_176:\n              mload(0x40)\n              dup1\n              swap2\n              sub\n              swap1\n              log1\n                /* \"Campaign.sol\":4531:4569  revert(\"Permit failed: unknown error\") */\n              mload(0x40)\n              0x08c379a000000000000000000000000000000000000000000000000000000000\n              dup2\n              mstore\n              0x04\n              add\n              tag_178\n              swap1\n              tag_179\n              jump\t// in\n            tag_178:\n              mload(0x40)\n              dup1\n              swap2\n              sub\n              swap1\n              revert\n                /* \"Campaign.sol\":4230:4577  try token.permit(owner, spender, amount, deadline, v, r, s) {... */\n            tag_163:\n                /* \"Campaign.sol\":4622:4639  uint256 allowance */\n              0x00\n                /* \"Campaign.sol\":4657:4662  token */\n              0x0c\n              0x01\n              swap1\n              sload\n              swap1\n              0x0100\n              exp\n              swap1\n              div\n              0xffffffffffffffffffffffffffffffffffffffff\n              and\n                /* \"Campaign.sol\":4642:4674  IERC20(address(token)).allowance */\n              0xffffffffffffffffffffffffffffffffffffffff\n              and\n              0xdd62ed3e\n                /* \"Campaign.sol\":4675:4680  owner */\n              dup6\n                /* \"Campaign.sol\":4682:4689  spender */\n              dup6\n                /* \"Campaign.sol\":4642:4690  IERC20(address(token)).allowance(owner, spender) */\n              mload(0x40)\n              dup4\n              0xffffffff\n              and\n              0xe0\n              shl\n              dup2\n              mstore\n              0x04\n              add\n              tag_181\n              swap3\n              swap2\n              swap1\n              tag_182\n              jump\t// in\n            tag_181:\n              0x20\n              mload(0x40)\n              dup1\n              dup4\n              sub\n              dup2\n              dup7\n              gas\n              staticcall\n              iszero\n              dup1\n              iszero\n              tag_184\n              jumpi\n              returndatacopy(0x00, 0x00, returndatasize)\n              revert(0x00, returndatasize)\n            tag_184:\n              pop\n              pop\n              pop\n              pop\n              mload(0x40)\n              returndatasize\n              not(0x1f)\n              0x1f\n              dup3\n              add\n              and\n              dup3\n              add\n              dup1\n              0x40\n              mstore\n              pop\n              dup2\n              add\n              swap1\n              tag_185\n              swap2\n              swap1\n              tag_132\n              jump\t// in\n            tag_185:\n                /* \"Campaign.sol\":4622:4690  uint256 allowance = IERC20(address(token)).allowance(owner, spender) */\n              swap1\n              pop\n                /* \"Campaign.sol\":4702:4735  AllowanceCheck(allowance, amount) */\n              0xfb7db43709e58b37855e273302377128c7eff642d99999cb530a6cd6a287e9fa\n                /* \"Campaign.sol\":4717:4726  allowance */\n              dup2\n                /* \"Campaign.sol\":4728:4734  amount */\n              dup11\n                /* \"Campaign.sol\":4702:4735  AllowanceCheck(allowance, amount) */\n              mload(0x40)\n              tag_186\n              swap3\n              swap2\n              swap1\n              tag_187\n              jump\t// in\n            tag_186:\n              mload(0x40)\n              dup1\n              swap2\n              sub\n              swap1\n              log1\n                /* \"Campaign.sol\":4765:4771  amount */\n              dup9\n                /* \"Campaign.sol\":4752:4761  allowance */\n              dup2\n                /* \"Campaign.sol\":4752:4771  allowance >= amount */\n              lt\n              iszero\n                /* \"Campaign.sol\":4744:4811  require(allowance >= amount, \"Allowance was not updated by permit\") */\n              tag_188\n              jumpi\n              mload(0x40)\n              0x08c379a000000000000000000000000000000000000000000000000000000000\n              dup2\n              mstore\n              0x04\n              add\n              tag_189\n              swap1\n              tag_190\n              jump\t// in\n            tag_189:\n              mload(0x40)\n              dup1\n              swap2\n              sub\n              swap1\n              revert\n            tag_188:\n                /* \"Campaign.sol\":4839:4844  owner */\n              dup4\n                /* \"Campaign.sol\":4825:4856  PermitSuccess(owner, allowance) */\n              0xffffffffffffffffffffffffffffffffffffffff\n              and\n              0x7653ba64263e4c00c4274956a77bb1ce892c55a528cfbf7873a825ea64cf981c\n                /* \"Campaign.sol\":4846:4855  allowance */\n              dup3\n                /* \"Campaign.sol\":4825:4856  PermitSuccess(owner, allowance) */\n              mload(0x40)\n              tag_191\n              swap2\n              swap1\n              tag_38\n              jump\t// in\n            tag_191:\n              mload(0x40)\n              dup1\n              swap2\n              sub\n              swap1\n              log2\n                /* \"Campaign.sol\":4900:4931  ContributeCalled(owner, amount) */\n              0x38ad295bd970e48fbc3d2741a85bca4baf27a2884ec78bc81a5eee942060d5fc\n                /* \"Campaign.sol\":4917:4922  owner */\n              dup5\n                /* \"Campaign.sol\":4924:4930  amount */\n              dup11\n                /* \"Campaign.sol\":4900:4931  ContributeCalled(owner, amount) */\n              mload(0x40)\n              tag_192\n              swap3\n              swap2\n              swap1\n              tag_193\n              jump\t// in\n            tag_192:\n              mload(0x40)\n              dup1\n              swap2\n              sub\n              swap1\n              log1\n                /* \"Campaign.sol\":4938:4956  contribute(amount) */\n              tag_194\n                /* \"Campaign.sol\":4949:4955  amount */\n              dup10\n                /* \"Campaign.sol\":4938:4948  contribute */\n              tag_98\n                /* \"Campaign.sol\":4938:4956  contribute(amount) */\n              jump\t// in\n            tag_194:\n                /* \"Campaign.sol\":3939:4960  {... */\n              pop\n              pop\n              pop\n              pop\n                /* \"Campaign.sol\":3808:4960  function permitAndContribute(... */\n              pop\n              pop\n              pop\n              pop\n              pop\n              jump\t// out\n                /* \"Campaign.sol\":1037:1062  string public dataForSell */\n            tag_69:\n              0x02\n              dup1\n              sload\n              tag_195\n              swap1\n              tag_122\n              jump\t// in\n            tag_195:\n              dup1\n              0x1f\n              add\n              0x20\n              dup1\n              swap2\n              div\n              mul\n              0x20\n              add\n              mload(0x40)\n              swap1\n              dup2\n              add\n              0x40\n              mstore\n              dup1\n              swap3\n              swap2\n              swap1\n              dup2\n              dup2\n              mstore\n              0x20\n              add\n              dup3\n              dup1\n              sload\n              tag_196\n              swap1\n              tag_122\n              jump\t// in\n            tag_196:\n              dup1\n              iszero\n              tag_197\n              jumpi\n              dup1\n              0x1f\n              lt\n              tag_198\n              jumpi\n              0x0100\n              dup1\n              dup4\n              sload\n              div\n              mul\n              dup4\n              mstore\n              swap2\n              0x20\n              add\n              swap2\n              jump(tag_197)\n            tag_198:\n              dup3\n              add\n              swap2\n              swap1\n              0x00\n              mstore\n              keccak256(0x00, 0x20)\n              swap1\n            tag_199:\n              dup2\n              sload\n              dup2\n              mstore\n              swap1\n              0x01\n              add\n              swap1\n              0x20\n              add\n              dup1\n              dup4\n              gt\n              tag_199\n              jumpi\n              dup3\n              swap1\n              sub\n              0x1f\n              and\n              dup3\n              add\n              swap2\n            tag_197:\n              pop\n              pop\n              pop\n              pop\n              pop\n              dup2\n              jump\t// out\n                /* \"Campaign.sol\":1211:1240  uint256 public approversCount */\n            tag_72:\n              sload(0x06)\n              dup2\n              jump\t// out\n                /* \"Campaign.sol\":6082:6182  function getTransactions() public view returns (Bid[] memory) {... */\n            tag_75:\n                /* \"Campaign.sol\":6130:6142  Bid[] memory */\n              0x60\n                /* \"Campaign.sol\":6162:6174  transactions */\n              0x08\n                /* \"Campaign.sol\":6155:6174  return transactions */\n              dup1\n              sload\n              dup1\n              0x20\n              mul\n              0x20\n              add\n              mload(0x40)\n              swap1\n              dup2\n              add\n              0x40\n              mstore\n              dup1\n              swap3\n              swap2\n              swap1\n              dup2\n              dup2\n              mstore\n              0x20\n              add\n              0x00\n              swap1\n            tag_201:\n              dup3\n              dup3\n              lt\n              iszero\n              tag_202\n              jumpi\n              dup4\n              dup3\n              swap1\n              0x00\n              mstore\n              keccak256(0x00, 0x20)\n              swap1\n              0x03\n              mul\n              add\n              mload(0x40)\n              dup1\n              0x60\n              add\n              0x40\n              mstore\n              swap1\n              dup2\n              0x00\n              dup3\n              add\n              sload\n              dup2\n              mstore\n              0x20\n              add\n              0x01\n              dup3\n              add\n              sload\n              dup2\n              mstore\n              0x20\n              add\n              0x02\n              dup3\n              add\n              0x00\n              swap1\n              sload\n              swap1\n              0x0100\n              exp\n              swap1\n              div\n              0xffffffffffffffffffffffffffffffffffffffff\n              and\n              0xffffffffffffffffffffffffffffffffffffffff\n              and\n              0xffffffffffffffffffffffffffffffffffffffff\n              and\n              dup2\n              mstore\n              pop\n              pop\n              dup2\n              mstore\n              0x20\n              add\n              swap1\n              0x01\n              add\n              swap1\n              jump(tag_201)\n            tag_202:\n              pop\n              pop\n              pop\n              pop\n              swap1\n              pop\n                /* \"Campaign.sol\":6082:6182  function getTransactions() public view returns (Bid[] memory) {... */\n              swap1\n              jump\t// out\n                /* \"Campaign.sol\":1316:1344  address public highestBidder */\n            tag_79:\n              0x09\n              0x00\n              swap1\n              sload\n              swap1\n              0x0100\n              exp\n              swap1\n              div\n              0xffffffffffffffffffffffffffffffffffffffff\n              and\n              dup2\n              jump\t// out\n                /* \"Campaign.sol\":996:1030  uint256 public minimumContribution */\n            tag_82:\n              sload(0x01)\n              dup2\n              jump\t// out\n                /* \"Campaign.sol\":4980:5868  function finalizeAuctionIfNeeded() public onlyAfterEnd {... */\n            tag_85:\n                /* \"Campaign.sol\":1654:1661  endTime */\n              sload(0x0b)\n                /* \"Campaign.sol\":1635:1650  block.timestamp */\n              timestamp\n                /* \"Campaign.sol\":1635:1661  block.timestamp >= endTime */\n              lt\n              iszero\n                /* \"Campaign.sol\":1627:1687  require(block.timestamp >= endTime, \"Auction not ended yet\") */\n              tag_205\n              jumpi\n              mload(0x40)\n              0x08c379a000000000000000000000000000000000000000000000000000000000\n              dup2\n              mstore\n              0x04\n              add\n              tag_206\n              swap1\n              tag_207\n              jump\t// in\n            tag_206:\n              mload(0x40)\n              dup1\n              swap2\n              sub\n              swap1\n              revert\n            tag_205:\n                /* \"Campaign.sol\":5055:5061  closed */\n              0x0c\n              0x00\n              swap1\n              sload\n              swap1\n              0x0100\n              exp\n              swap1\n              div\n              0xff\n              and\n                /* \"Campaign.sol\":5054:5061  !closed */\n              iszero\n                /* \"Campaign.sol\":5046:5091  require(!closed, \"Auction already finalized\") */\n              tag_209\n              jumpi\n              mload(0x40)\n              0x08c379a000000000000000000000000000000000000000000000000000000000\n              dup2\n              mstore\n              0x04\n              add\n              tag_210\n              swap1\n              tag_211\n              jump\t// in\n            tag_210:\n              mload(0x40)\n              dup1\n              swap2\n              sub\n              swap1\n              revert\n            tag_209:\n                /* \"Campaign.sol\":5109:5118  uint256 i */\n              0x00\n                /* \"Campaign.sol\":5121:5122  0 */\n              0x00\n                /* \"Campaign.sol\":5109:5122  uint256 i = 0 */\n              swap1\n              pop\n                /* \"Campaign.sol\":5104:5636  for (uint256 i = 0; i < addresses.length; i++) {... */\n            tag_212:\n                /* \"Campaign.sol\":5128:5137  addresses */\n              0x07\n                /* \"Campaign.sol\":5128:5144  addresses.length */\n              dup1\n              sload\n              swap1\n              pop\n                /* \"Campaign.sol\":5124:5125  i */\n              dup2\n                /* \"Campaign.sol\":5124:5144  i < addresses.length */\n              lt\n                /* \"Campaign.sol\":5104:5636  for (uint256 i = 0; i < addresses.length; i++) {... */\n              iszero\n              tag_213\n              jumpi\n                /* \"Campaign.sol\":5166:5185  address contributor */\n              0x00\n                /* \"Campaign.sol\":5188:5197  addresses */\n              0x07\n                /* \"Campaign.sol\":5198:5199  i */\n              dup3\n                /* \"Campaign.sol\":5188:5200  addresses[i] */\n              dup2\n              sload\n              dup2\n              lt\n              tag_215\n              jumpi\n              tag_216\n              tag_217\n              jump\t// in\n            tag_216:\n            tag_215:\n              swap1\n              0x00\n              mstore\n              keccak256(0x00, 0x20)\n              add\n              0x00\n              swap1\n              sload\n              swap1\n              0x0100\n              exp\n              swap1\n              div\n              0xffffffffffffffffffffffffffffffffffffffff\n              and\n                /* \"Campaign.sol\":5166:5200  address contributor = addresses[i] */\n              swap1\n              pop\n                /* \"Campaign.sol\":5234:5247  highestBidder */\n              0x09\n              0x00\n              swap1\n              sload\n              swap1\n              0x0100\n              exp\n              swap1\n              div\n              0xffffffffffffffffffffffffffffffffffffffff\n              and\n                /* \"Campaign.sol\":5219:5247  contributor != highestBidder */\n              0xffffffffffffffffffffffffffffffffffffffff\n              and\n                /* \"Campaign.sol\":5219:5230  contributor */\n              dup2\n                /* \"Campaign.sol\":5219:5247  contributor != highestBidder */\n              0xffffffffffffffffffffffffffffffffffffffff\n              and\n              eq\n                /* \"Campaign.sol\":5215:5625  if (contributor != highestBidder) {... */\n              tag_219\n              jumpi\n                /* \"Campaign.sol\":5268:5288  uint256 refundAmount */\n              0x00\n                /* \"Campaign.sol\":5291:5305  approversMoney */\n              0x05\n                /* \"Campaign.sol\":5291:5318  approversMoney[contributor] */\n              0x00\n                /* \"Campaign.sol\":5306:5317  contributor */\n              dup4\n                /* \"Campaign.sol\":5291:5318  approversMoney[contributor] */\n              0xffffffffffffffffffffffffffffffffffffffff\n              and\n              0xffffffffffffffffffffffffffffffffffffffff\n              and\n              dup2\n              mstore\n              0x20\n              add\n              swap1\n              dup2\n              mstore\n              0x20\n              add\n              0x00\n              keccak256\n              sload\n                /* \"Campaign.sol\":5268:5318  uint256 refundAmount = approversMoney[contributor] */\n              swap1\n              pop\n                /* \"Campaign.sol\":5356:5357  0 */\n              0x00\n                /* \"Campaign.sol\":5341:5353  refundAmount */\n              dup2\n                /* \"Campaign.sol\":5341:5357  refundAmount > 0 */\n              gt\n                /* \"Campaign.sol\":5337:5610  if (refundAmount > 0) {... */\n              iszero\n              tag_220\n              jumpi\n                /* \"Campaign.sol\":5412:5413  0 */\n              0x00\n                /* \"Campaign.sol\":5382:5396  approversMoney */\n              0x05\n                /* \"Campaign.sol\":5382:5409  approversMoney[contributor] */\n              0x00\n                /* \"Campaign.sol\":5397:5408  contributor */\n              dup5\n                /* \"Campaign.sol\":5382:5409  approversMoney[contributor] */\n              0xffffffffffffffffffffffffffffffffffffffff\n              and\n              0xffffffffffffffffffffffffffffffffffffffff\n              and\n              dup2\n              mstore\n              0x20\n              add\n              swap1\n              dup2\n              mstore\n              0x20\n              add\n              0x00\n              keccak256\n                /* \"Campaign.sol\":5382:5413  approversMoney[contributor] = 0 */\n              dup2\n              swap1\n              sstore\n              pop\n                /* \"Campaign.sol\":5459:5464  token */\n              0x0c\n              0x01\n              swap1\n              sload\n              swap1\n              0x0100\n              exp\n              swap1\n              div\n              0xffffffffffffffffffffffffffffffffffffffff\n              and\n                /* \"Campaign.sol\":5444:5475  IERC20(address(token)).transfer */\n              0xffffffffffffffffffffffffffffffffffffffff\n              and\n              0xa9059cbb\n                /* \"Campaign.sol\":5476:5487  contributor */\n              dup4\n                /* \"Campaign.sol\":5489:5501  refundAmount */\n              dup4\n                /* \"Campaign.sol\":5444:5502  IERC20(address(token)).transfer(contributor, refundAmount) */\n              mload(0x40)\n              dup4\n              0xffffffff\n              and\n              0xe0\n              shl\n              dup2\n              mstore\n              0x04\n              add\n              tag_221\n              swap3\n              swap2\n              swap1\n              tag_193\n              jump\t// in\n            tag_221:\n              0x20\n              mload(0x40)\n              dup1\n              dup4\n              sub\n              dup2\n              0x00\n              dup8\n              gas\n              call\n              iszero\n              dup1\n              iszero\n              tag_223\n              jumpi\n              returndatacopy(0x00, 0x00, returndatasize)\n              revert(0x00, returndatasize)\n            tag_223:\n              pop\n              pop\n              pop\n              pop\n              mload(0x40)\n              returndatasize\n              not(0x1f)\n              0x1f\n              dup3\n              add\n              and\n              dup3\n              add\n              dup1\n              0x40\n              mstore\n              pop\n              dup2\n              add\n              swap1\n              tag_224\n              swap2\n              swap1\n              tag_225\n              jump\t// in\n            tag_224:\n                /* \"Campaign.sol\":5436:5520  require(IERC20(address(token)).transfer(contributor, refundAmount), \"Refund failed\") */\n              tag_226\n              jumpi\n              mload(0x40)\n              0x08c379a000000000000000000000000000000000000000000000000000000000\n              dup2\n              mstore\n              0x04\n              add\n              tag_227\n              swap1\n              tag_228\n              jump\t// in\n            tag_227:\n              mload(0x40)\n              dup1\n              swap2\n              sub\n              swap1\n              revert\n            tag_226:\n                /* \"Campaign.sol\":5564:5575  contributor */\n              dup2\n                /* \"Campaign.sol\":5548:5590  RefundProcessed(contributor, refundAmount) */\n              0xffffffffffffffffffffffffffffffffffffffff\n              and\n              0x3367befd2b2f39615cd79917c2153263c4af1d3945ec003e5d5bfc13a8d85833\n                /* \"Campaign.sol\":5577:5589  refundAmount */\n              dup3\n                /* \"Campaign.sol\":5548:5590  RefundProcessed(contributor, refundAmount) */\n              mload(0x40)\n              tag_229\n              swap2\n              swap1\n              tag_38\n              jump\t// in\n            tag_229:\n              mload(0x40)\n              dup1\n              swap2\n              sub\n              swap1\n              log2\n                /* \"Campaign.sol\":5337:5610  if (refundAmount > 0) {... */\n            tag_220:\n                /* \"Campaign.sol\":5249:5625  {... */\n              pop\n                /* \"Campaign.sol\":5215:5625  if (contributor != highestBidder) {... */\n            tag_219:\n                /* \"Campaign.sol\":5151:5636  {... */\n              pop\n                /* \"Campaign.sol\":5146:5149  i++ */\n              dup1\n              dup1\n              0x01\n              add\n              swap2\n              pop\n              pop\n                /* \"Campaign.sol\":5104:5636  for (uint256 i = 0; i < addresses.length; i++) {... */\n              jump(tag_212)\n            tag_213:\n              pop\n                /* \"Campaign.sol\":5665:5666  0 */\n              0x00\n                /* \"Campaign.sol\":5652:5662  highestBid */\n              sload(0x0a)\n                /* \"Campaign.sol\":5652:5666  highestBid > 0 */\n              gt\n                /* \"Campaign.sol\":5648:5835  if (highestBid > 0) {... */\n              iszero\n              tag_230\n              jumpi\n                /* \"Campaign.sol\":5706:5711  token */\n              0x0c\n              0x01\n              swap1\n              sload\n              swap1\n              0x0100\n              exp\n              swap1\n              div\n              0xffffffffffffffffffffffffffffffffffffffff\n              and\n                /* \"Campaign.sol\":5691:5722  IERC20(address(token)).transfer */\n              0xffffffffffffffffffffffffffffffffffffffff\n              and\n              0xa9059cbb\n                /* \"Campaign.sol\":5723:5730  manager */\n              0x00\n              0x00\n              swap1\n              sload\n              swap1\n              0x0100\n              exp\n              swap1\n              div\n              0xffffffffffffffffffffffffffffffffffffffff\n              and\n                /* \"Campaign.sol\":5732:5742  highestBid */\n              sload(0x0a)\n                /* \"Campaign.sol\":5691:5743  IERC20(address(token)).transfer(manager, highestBid) */\n              mload(0x40)\n              dup4\n              0xffffffff\n              and\n              0xe0\n              shl\n              dup2\n              mstore\n              0x04\n              add\n              tag_231\n              swap3\n              swap2\n              swap1\n              tag_193\n              jump\t// in\n            tag_231:\n              0x20\n              mload(0x40)\n              dup1\n              dup4\n              sub\n              dup2\n              0x00\n              dup8\n              gas\n              call\n              iszero\n              dup1\n              iszero\n              tag_233\n              jumpi\n              returndatacopy(0x00, 0x00, returndatasize)\n              revert(0x00, returndatasize)\n            tag_233:\n              pop\n              pop\n              pop\n              pop\n              mload(0x40)\n              returndatasize\n              not(0x1f)\n              0x1f\n              dup3\n              add\n              and\n              dup3\n              add\n              dup1\n              0x40\n              mstore\n              pop\n              dup2\n              add\n              swap1\n              tag_234\n              swap2\n              swap1\n              tag_225\n              jump\t// in\n            tag_234:\n                /* \"Campaign.sol\":5683:5772  require(IERC20(address(token)).transfer(manager, highestBid), \"Payment to seller failed\") */\n              tag_235\n              jumpi\n              mload(0x40)\n              0x08c379a000000000000000000000000000000000000000000000000000000000\n              dup2\n              mstore\n              0x04\n              add\n              tag_236\n              swap1\n              tag_237\n              jump\t// in\n            tag_236:\n              mload(0x40)\n              dup1\n              swap2\n              sub\n              swap1\n              revert\n            tag_235:\n                /* \"Campaign.sol\":5803:5810  manager */\n              0x00\n              0x00\n              swap1\n              sload\n              swap1\n              0x0100\n              exp\n              swap1\n              div\n              0xffffffffffffffffffffffffffffffffffffffff\n              and\n                /* \"Campaign.sol\":5792:5823  SellerPaid(manager, highestBid) */\n              0xffffffffffffffffffffffffffffffffffffffff\n              and\n              0xcb4a9094da4df77fb2c0dbaa5047660b1237e61d82a02176c1be74ca757f2531\n                /* \"Campaign.sol\":5812:5822  highestBid */\n              sload(0x0a)\n                /* \"Campaign.sol\":5792:5823  SellerPaid(manager, highestBid) */\n              mload(0x40)\n              tag_238\n              swap2\n              swap1\n              tag_38\n              jump\t// in\n            tag_238:\n              mload(0x40)\n              dup1\n              swap2\n              sub\n              swap1\n              log2\n                /* \"Campaign.sol\":5648:5835  if (highestBid > 0) {... */\n            tag_230:\n                /* \"Campaign.sol\":5856:5860  true */\n              0x01\n                /* \"Campaign.sol\":5847:5853  closed */\n              0x0c\n              0x00\n                /* \"Campaign.sol\":5847:5860  closed = true */\n              0x0100\n              exp\n              dup2\n              sload\n              dup2\n              0xff\n              mul\n              not\n              and\n              swap1\n              dup4\n              iszero\n              iszero\n              mul\n              or\n              swap1\n              sstore\n              pop\n                /* \"Campaign.sol\":4980:5868  function finalizeAuctionIfNeeded() public onlyAfterEnd {... */\n              jump\t// out\n                /* \"Campaign.sol\":1282:1307  Bid[] public transactions */\n            tag_89:\n              0x08\n              dup2\n              dup2\n              sload\n              dup2\n              lt\n              tag_239\n              jumpi\n              0x00\n              dup1\n              revert\n            tag_239:\n              swap1\n              0x00\n              mstore\n              keccak256(0x00, 0x20)\n              swap1\n              0x03\n              mul\n              add\n              0x00\n              swap2\n              pop\n              swap1\n              pop\n              dup1\n              0x00\n              add\n              sload\n              swap1\n              dup1\n              0x01\n              add\n              sload\n              swap1\n              dup1\n              0x02\n              add\n              0x00\n              swap1\n              sload\n              swap1\n              0x0100\n              exp\n              swap1\n              div\n              0xffffffffffffffffffffffffffffffffffffffff\n              and\n              swap1\n              pop\n              dup4\n              jump\t// out\n                /* \"Campaign.sol\":6423:6521  function getAddresses() public view returns (address[] memory) {... */\n            tag_93:\n                /* \"Campaign.sol\":6468:6484  address[] memory */\n              0x60\n                /* \"Campaign.sol\":6504:6513  addresses */\n              0x07\n                /* \"Campaign.sol\":6497:6513  return addresses */\n              dup1\n              sload\n              dup1\n              0x20\n              mul\n              0x20\n              add\n              mload(0x40)\n              swap1\n              dup2\n              add\n              0x40\n              mstore\n              dup1\n              swap3\n              swap2\n              swap1\n              dup2\n              dup2\n              mstore\n              0x20\n              add\n              dup3\n              dup1\n              sload\n              dup1\n              iszero\n              tag_242\n              jumpi\n              0x20\n              mul\n              dup3\n              add\n              swap2\n              swap1\n              0x00\n              mstore\n              keccak256(0x00, 0x20)\n              swap1\n            tag_243:\n              dup2\n              0x00\n              swap1\n              sload\n              swap1\n              0x0100\n              exp\n              swap1\n              div\n              0xffffffffffffffffffffffffffffffffffffffff\n              and\n              0xffffffffffffffffffffffffffffffffffffffff\n              and\n              dup2\n              mstore\n              0x20\n              add\n              swap1\n              0x01\n              add\n              swap1\n              dup1\n              dup4\n              gt\n              tag_243\n              jumpi\n            tag_242:\n              pop\n              pop\n              pop\n              pop\n              pop\n              swap1\n              pop\n                /* \"Campaign.sol\":6423:6521  function getAddresses() public view returns (address[] memory) {... */\n              swap1\n              jump\t// out\n                /* \"Campaign.sol\":2165:3386  function contribute(uint256 amount) public onlyBeforeEnd {... */\n            tag_98:\n                /* \"Campaign.sol\":1539:1546  endTime */\n              sload(0x0b)\n                /* \"Campaign.sol\":1521:1536  block.timestamp */\n              timestamp\n                /* \"Campaign.sol\":1521:1546  block.timestamp < endTime */\n              lt\n                /* \"Campaign.sol\":1513:1564  require(block.timestamp < endTime, \"Auction ended\") */\n              tag_245\n              jumpi\n              mload(0x40)\n              0x08c379a000000000000000000000000000000000000000000000000000000000\n              dup2\n              mstore\n              0x04\n              add\n              tag_246\n              swap1\n              tag_247\n              jump\t// in\n            tag_246:\n              mload(0x40)\n              dup1\n              swap2\n              sub\n              swap1\n              revert\n            tag_245:\n                /* \"Campaign.sol\":2255:2262  manager */\n              0x00\n              0x00\n              swap1\n              sload\n              swap1\n              0x0100\n              exp\n              swap1\n              div\n              0xffffffffffffffffffffffffffffffffffffffff\n              and\n                /* \"Campaign.sol\":2241:2262  msg.sender != manager */\n              0xffffffffffffffffffffffffffffffffffffffff\n              and\n                /* \"Campaign.sol\":2241:2251  msg.sender */\n              caller\n                /* \"Campaign.sol\":2241:2262  msg.sender != manager */\n              0xffffffffffffffffffffffffffffffffffffffff\n              and\n              sub\n                /* \"Campaign.sol\":2233:2300  require(msg.sender != manager, \"You can't bid on your own auction\") */\n              tag_249\n              jumpi\n              mload(0x40)\n              0x08c379a000000000000000000000000000000000000000000000000000000000\n              dup2\n              mstore\n              0x04\n              add\n              tag_250\n              swap1\n              tag_251\n              jump\t// in\n            tag_250:\n              mload(0x40)\n              dup1\n              swap2\n              sub\n              swap1\n              revert\n            tag_249:\n                /* \"Campaign.sol\":2313:2329  uint256 previous */\n              0x00\n                /* \"Campaign.sol\":2332:2346  approversMoney */\n              0x05\n                /* \"Campaign.sol\":2332:2358  approversMoney[msg.sender] */\n              0x00\n                /* \"Campaign.sol\":2347:2357  msg.sender */\n              caller\n                /* \"Campaign.sol\":2332:2358  approversMoney[msg.sender] */\n              0xffffffffffffffffffffffffffffffffffffffff\n              and\n              0xffffffffffffffffffffffffffffffffffffffff\n              and\n              dup2\n              mstore\n              0x20\n              add\n              swap1\n              dup2\n              mstore\n              0x20\n              add\n              0x00\n              keccak256\n              sload\n                /* \"Campaign.sol\":2313:2358  uint256 previous = approversMoney[msg.sender] */\n              swap1\n              pop\n                /* \"Campaign.sol\":2369:2385  uint256 newTotal */\n              0x00\n                /* \"Campaign.sol\":2399:2405  amount */\n              dup3\n                /* \"Campaign.sol\":2388:2396  previous */\n              dup3\n                /* \"Campaign.sol\":2388:2405  previous + amount */\n              tag_252\n              swap2\n              swap1\n              tag_253\n              jump\t// in\n            tag_252:\n                /* \"Campaign.sol\":2369:2405  uint256 newTotal = previous + amount */\n              swap1\n              pop\n                /* \"Campaign.sol\":2535:2536  0 */\n              0x00\n                /* \"Campaign.sol\":2523:2531  previous */\n              dup3\n                /* \"Campaign.sol\":2523:2536  previous == 0 */\n              sub\n                /* \"Campaign.sol\":2519:2626  if (previous == 0) {... */\n              tag_254\n              jumpi\n                /* \"Campaign.sol\":2573:2592  minimumContribution */\n              sload(0x01)\n                /* \"Campaign.sol\":2561:2569  newTotal */\n              dup2\n                /* \"Campaign.sol\":2561:2592  newTotal >= minimumContribution */\n              lt\n              iszero\n                /* \"Campaign.sol\":2553:2614  require(newTotal >= minimumContribution, \"Below minimum bid\") */\n              tag_255\n              jumpi\n              mload(0x40)\n              0x08c379a000000000000000000000000000000000000000000000000000000000\n              dup2\n              mstore\n              0x04\n              add\n              tag_256\n              swap1\n              tag_257\n              jump\t// in\n            tag_256:\n              mload(0x40)\n              dup1\n              swap2\n              sub\n              swap1\n              revert\n            tag_255:\n                /* \"Campaign.sol\":2519:2626  if (previous == 0) {... */\n            tag_254:\n                /* \"Campaign.sol\":2657:2667  highestBid */\n              sload(0x0a)\n                /* \"Campaign.sol\":2646:2654  newTotal */\n              dup2\n                /* \"Campaign.sol\":2646:2667  newTotal > highestBid */\n              gt\n                /* \"Campaign.sol\":2638:2703  require(newTotal > highestBid, \"Bid must exceed current highest\") */\n              tag_258\n              jumpi\n              mload(0x40)\n              0x08c379a000000000000000000000000000000000000000000000000000000000\n              dup2\n              mstore\n              0x04\n              add\n              tag_259\n              swap1\n              tag_260\n              jump\t// in\n            tag_259:\n              mload(0x40)\n              dup1\n              swap2\n              sub\n              swap1\n              revert\n            tag_258:\n                /* \"Campaign.sol\":2741:2746  token */\n              0x0c\n              0x01\n              swap1\n              sload\n              swap1\n              0x0100\n              exp\n              swap1\n              div\n              0xffffffffffffffffffffffffffffffffffffffff\n              and\n                /* \"Campaign.sol\":2726:2761  IERC20(address(token)).transferFrom */\n              0xffffffffffffffffffffffffffffffffffffffff\n              and\n              0x23b872dd\n                /* \"Campaign.sol\":2762:2772  msg.sender */\n              caller\n                /* \"Campaign.sol\":2782:2786  this */\n              address\n                /* \"Campaign.sol\":2789:2795  amount */\n              dup7\n                /* \"Campaign.sol\":2726:2796  IERC20(address(token)).transferFrom(msg.sender, address(this), amount) */\n              mload(0x40)\n              dup5\n              0xffffffff\n              and\n              0xe0\n              shl\n              dup2\n              mstore\n              0x04\n              add\n              tag_261\n              swap4\n              swap3\n              swap2\n              swap1\n              tag_262\n              jump\t// in\n            tag_261:\n              0x20\n              mload(0x40)\n              dup1\n              dup4\n              sub\n              dup2\n              0x00\n              dup8\n              gas\n              call\n              iszero\n              dup1\n              iszero\n              tag_264\n              jumpi\n              returndatacopy(0x00, 0x00, returndatasize)\n              revert(0x00, returndatasize)\n            tag_264:\n              pop\n              pop\n              pop\n              pop\n              mload(0x40)\n              returndatasize\n              not(0x1f)\n              0x1f\n              dup3\n              add\n              and\n              dup3\n              add\n              dup1\n              0x40\n              mstore\n              pop\n              dup2\n              add\n              swap1\n              tag_265\n              swap2\n              swap1\n              tag_225\n              jump\t// in\n            tag_265:\n                /* \"Campaign.sol\":2718:2816  require(IERC20(address(token)).transferFrom(msg.sender, address(this), amount), \"Transfer failed\") */\n              tag_266\n              jumpi\n              mload(0x40)\n              0x08c379a000000000000000000000000000000000000000000000000000000000\n              dup2\n              mstore\n              0x04\n              add\n              tag_267\n              swap1\n              tag_268\n              jump\t// in\n            tag_267:\n              mload(0x40)\n              dup1\n              swap2\n              sub\n              swap1\n              revert\n            tag_266:\n                /* \"Campaign.sol\":2916:2924  newTotal */\n              dup1\n                /* \"Campaign.sol\":2887:2901  approversMoney */\n              0x05\n                /* \"Campaign.sol\":2887:2913  approversMoney[msg.sender] */\n              0x00\n                /* \"Campaign.sol\":2902:2912  msg.sender */\n              caller\n                /* \"Campaign.sol\":2887:2913  approversMoney[msg.sender] */\n              0xffffffffffffffffffffffffffffffffffffffff\n              and\n              0xffffffffffffffffffffffffffffffffffffffff\n              and\n              dup2\n              mstore\n              0x20\n              add\n              swap1\n              dup2\n              mstore\n              0x20\n              add\n              0x00\n              keccak256\n                /* \"Campaign.sol\":2887:2924  approversMoney[msg.sender] = newTotal */\n              dup2\n              swap1\n              sstore\n              pop\n                /* \"Campaign.sol\":2948:2956  newTotal */\n              dup1\n                /* \"Campaign.sol\":2935:2945  highestBid */\n              0x0a\n                /* \"Campaign.sol\":2935:2956  highestBid = newTotal */\n              dup2\n              swap1\n              sstore\n              pop\n                /* \"Campaign.sol\":2983:2993  msg.sender */\n              caller\n                /* \"Campaign.sol\":2967:2980  highestBidder */\n              0x09\n              0x00\n                /* \"Campaign.sol\":2967:2993  highestBidder = msg.sender */\n              0x0100\n              exp\n              dup2\n              sload\n              dup2\n              0xffffffffffffffffffffffffffffffffffffffff\n              mul\n              not\n              and\n              swap1\n              dup4\n              0xffffffffffffffffffffffffffffffffffffffff\n              and\n              mul\n              or\n              swap1\n              sstore\n              pop\n                /* \"Campaign.sol\":3084:3096  transactions */\n              0x08\n                /* \"Campaign.sol\":3102:3142  Bid(amount, block.timestamp, msg.sender) */\n              mload(0x40)\n              dup1\n              0x60\n              add\n              0x40\n              mstore\n              dup1\n                /* \"Campaign.sol\":3106:3112  amount */\n              dup6\n                /* \"Campaign.sol\":3102:3142  Bid(amount, block.timestamp, msg.sender) */\n              dup2\n              mstore\n              0x20\n              add\n                /* \"Campaign.sol\":3114:3129  block.timestamp */\n              timestamp\n                /* \"Campaign.sol\":3102:3142  Bid(amount, block.timestamp, msg.sender) */\n              dup2\n              mstore\n              0x20\n              add\n                /* \"Campaign.sol\":3131:3141  msg.sender */\n              caller\n                /* \"Campaign.sol\":3102:3142  Bid(amount, block.timestamp, msg.sender) */\n              0xffffffffffffffffffffffffffffffffffffffff\n              and\n              dup2\n              mstore\n              pop\n                /* \"Campaign.sol\":3084:3143  transactions.push(Bid(amount, block.timestamp, msg.sender)) */\n              swap1\n              dup1\n              0x01\n              dup2\n              sload\n              add\n              dup1\n              dup3\n              sstore\n              dup1\n              swap2\n              pop\n              pop\n              0x01\n              swap1\n              sub\n              swap1\n              0x00\n              mstore\n              keccak256(0x00, 0x20)\n              swap1\n              0x03\n              mul\n              add\n              0x00\n              swap1\n              swap2\n              swap1\n              swap2\n              swap1\n              swap2\n              pop\n              0x00\n              dup3\n              add\n              mload\n              dup2\n              0x00\n              add\n              sstore\n              0x20\n              dup3\n              add\n              mload\n              dup2\n              0x01\n              add\n              sstore\n              0x40\n              dup3\n              add\n              mload\n              dup2\n              0x02\n              add\n              exp(0x0100, 0x00)\n              dup2\n              sload\n              dup2\n              0xffffffffffffffffffffffffffffffffffffffff\n              mul\n              not\n              and\n              swap1\n              dup4\n              0xffffffffffffffffffffffffffffffffffffffff\n              and\n              mul\n              or\n              swap1\n              sstore\n              pop\n              pop\n              pop\n                /* \"Campaign.sol\":3229:3238  approvers */\n              0x04\n                /* \"Campaign.sol\":3229:3250  approvers[msg.sender] */\n              0x00\n                /* \"Campaign.sol\":3239:3249  msg.sender */\n              caller\n                /* \"Campaign.sol\":3229:3250  approvers[msg.sender] */\n              0xffffffffffffffffffffffffffffffffffffffff\n              and\n              0xffffffffffffffffffffffffffffffffffffffff\n              and\n              dup2\n              mstore\n              0x20\n              add\n              swap1\n              dup2\n              mstore\n              0x20\n              add\n              0x00\n              keccak256\n              0x00\n              swap1\n              sload\n              swap1\n              0x0100\n              exp\n              swap1\n              div\n              0xff\n              and\n                /* \"Campaign.sol\":3224:3379  if (!approvers[msg.sender]) {... */\n              tag_270\n              jumpi\n                /* \"Campaign.sol\":3291:3295  true */\n              0x01\n                /* \"Campaign.sol\":3267:3276  approvers */\n              0x04\n                /* \"Campaign.sol\":3267:3288  approvers[msg.sender] */\n              0x00\n                /* \"Campaign.sol\":3277:3287  msg.sender */\n              caller\n                /* \"Campaign.sol\":3267:3288  approvers[msg.sender] */\n              0xffffffffffffffffffffffffffffffffffffffff\n              and\n              0xffffffffffffffffffffffffffffffffffffffff\n              and\n              dup2\n              mstore\n              0x20\n              add\n              swap1\n              dup2\n              mstore\n              0x20\n              add\n              0x00\n              keccak256\n              0x00\n                /* \"Campaign.sol\":3267:3295  approvers[msg.sender] = true */\n              0x0100\n              exp\n              dup2\n              sload\n              dup2\n              0xff\n              mul\n              not\n              and\n              swap1\n              dup4\n              iszero\n              iszero\n              mul\n              or\n              swap1\n              sstore\n              pop\n                /* \"Campaign.sol\":3310:3324  approversCount */\n              0x06\n              0x00\n                /* \"Campaign.sol\":3310:3326  approversCount++ */\n              dup2\n              sload\n              dup1\n              swap3\n              swap2\n              swap1\n              tag_271\n              swap1\n              tag_272\n              jump\t// in\n            tag_271:\n              swap2\n              swap1\n              pop\n              sstore\n              pop\n                /* \"Campaign.sol\":3341:3350  addresses */\n              0x07\n                /* \"Campaign.sol\":3356:3366  msg.sender */\n              caller\n                /* \"Campaign.sol\":3341:3367  addresses.push(msg.sender) */\n              swap1\n              dup1\n              0x01\n              dup2\n              sload\n              add\n              dup1\n              dup3\n              sstore\n              dup1\n              swap2\n              pop\n              pop\n              0x01\n              swap1\n              sub\n              swap1\n              0x00\n              mstore\n              keccak256(0x00, 0x20)\n              add\n              0x00\n              swap1\n              swap2\n              swap1\n              swap2\n              swap1\n              swap2\n              0x0100\n              exp\n              dup2\n              sload\n              dup2\n              0xffffffffffffffffffffffffffffffffffffffff\n              mul\n              not\n              and\n              swap1\n              dup4\n              0xffffffffffffffffffffffffffffffffffffffff\n              and\n              mul\n              or\n              swap1\n              sstore\n              pop\n                /* \"Campaign.sol\":3224:3379  if (!approvers[msg.sender]) {... */\n            tag_270:\n                /* \"Campaign.sol\":2222:3386  {... */\n              pop\n              pop\n                /* \"Campaign.sol\":2165:3386  function contribute(uint256 amount) public onlyBeforeEnd {... */\n              pop\n              jump\t// out\n                /* \"Campaign.sol\":5964:6074  function getBid(address bidder) public view returns (uint256) {... */\n            tag_101:\n                /* \"Campaign.sol\":6017:6024  uint256 */\n              0x00\n                /* \"Campaign.sol\":6044:6058  approversMoney */\n              0x05\n                /* \"Campaign.sol\":6044:6066  approversMoney[bidder] */\n              0x00\n                /* \"Campaign.sol\":6059:6065  bidder */\n              dup4\n                /* \"Campaign.sol\":6044:6066  approversMoney[bidder] */\n              0xffffffffffffffffffffffffffffffffffffffff\n              and\n              0xffffffffffffffffffffffffffffffffffffffff\n              and\n              dup2\n              mstore\n              0x20\n              add\n              swap1\n              dup2\n              mstore\n              0x20\n              add\n              0x00\n              keccak256\n              sload\n                /* \"Campaign.sol\":6037:6066  return approversMoney[bidder] */\n              swap1\n              pop\n                /* \"Campaign.sol\":5964:6074  function getBid(address bidder) public view returns (uint256) {... */\n              swap2\n              swap1\n              pop\n              jump\t// out\n                /* \"Campaign.sol\":1351:1376  uint256 public highestBid */\n            tag_104:\n              sload(0x0a)\n              dup2\n              jump\t// out\n                /* \"Campaign.sol\":1249:1275  address[] public addresses */\n            tag_108:\n              0x07\n              dup2\n              dup2\n              sload\n              dup2\n              lt\n              tag_275\n              jumpi\n              0x00\n              dup1\n              revert\n            tag_275:\n              swap1\n              0x00\n              mstore\n              keccak256(0x00, 0x20)\n              add\n              0x00\n              swap2\n              pop\n              sload\n              swap1\n              0x0100\n              exp\n              swap1\n              div\n              0xffffffffffffffffffffffffffffffffffffffff\n              and\n              dup2\n              jump\t// out\n                /* \"Campaign.sol\":1441:1466  IERC20Permit public token */\n            tag_111:\n              0x0c\n              0x01\n              swap1\n              sload\n              swap1\n              0x0100\n              exp\n              swap1\n              div\n              0xffffffffffffffffffffffffffffffffffffffff\n              and\n              dup2\n              jump\t// out\n                /* \"#utility.yul\":7:82   */\n            tag_277:\n                /* \"#utility.yul\":40:46   */\n              0x00\n                /* \"#utility.yul\":73:75   */\n              0x40\n                /* \"#utility.yul\":67:76   */\n              mload\n                /* \"#utility.yul\":57:76   */\n              swap1\n              pop\n                /* \"#utility.yul\":7:82   */\n              swap1\n              jump\t// out\n                /* \"#utility.yul\":88:205   */\n            tag_278:\n                /* \"#utility.yul\":197:198   */\n              0x00\n                /* \"#utility.yul\":194:195   */\n              0x00\n                /* \"#utility.yul\":187:199   */\n              revert\n                /* \"#utility.yul\":334:460   */\n            tag_280:\n                /* \"#utility.yul\":371:378   */\n              0x00\n                /* \"#utility.yul\":411:453   */\n              0xffffffffffffffffffffffffffffffffffffffff\n                /* \"#utility.yul\":404:409   */\n              dup3\n                /* \"#utility.yul\":400:454   */\n              and\n                /* \"#utility.yul\":389:454   */\n              swap1\n              pop\n                /* \"#utility.yul\":334:460   */\n              swap2\n              swap1\n              pop\n              jump\t// out\n                /* \"#utility.yul\":466:562   */\n            tag_281:\n                /* \"#utility.yul\":503:510   */\n              0x00\n                /* \"#utility.yul\":532:556   */\n              tag_370\n                /* \"#utility.yul\":550:555   */\n              dup3\n                /* \"#utility.yul\":532:556   */\n              tag_280\n              jump\t// in\n            tag_370:\n                /* \"#utility.yul\":521:556   */\n              swap1\n              pop\n                /* \"#utility.yul\":466:562   */\n              swap2\n              swap1\n              pop\n              jump\t// out\n                /* \"#utility.yul\":568:690   */\n            tag_282:\n                /* \"#utility.yul\":641:665   */\n              tag_372\n                /* \"#utility.yul\":659:664   */\n              dup2\n                /* \"#utility.yul\":641:665   */\n              tag_281\n              jump\t// in\n            tag_372:\n                /* \"#utility.yul\":634:639   */\n              dup2\n                /* \"#utility.yul\":631:666   */\n              eq\n                /* \"#utility.yul\":621:684   */\n              tag_373\n              jumpi\n                /* \"#utility.yul\":680:681   */\n              0x00\n                /* \"#utility.yul\":677:678   */\n              0x00\n                /* \"#utility.yul\":670:682   */\n              revert\n                /* \"#utility.yul\":621:684   */\n            tag_373:\n                /* \"#utility.yul\":568:690   */\n              pop\n              jump\t// out\n                /* \"#utility.yul\":696:835   */\n            tag_283:\n                /* \"#utility.yul\":742:747   */\n              0x00\n                /* \"#utility.yul\":780:786   */\n              dup2\n                /* \"#utility.yul\":767:787   */\n              calldataload\n                /* \"#utility.yul\":758:787   */\n              swap1\n              pop\n                /* \"#utility.yul\":796:829   */\n              tag_375\n                /* \"#utility.yul\":823:828   */\n              dup2\n                /* \"#utility.yul\":796:829   */\n              tag_282\n              jump\t// in\n            tag_375:\n                /* \"#utility.yul\":696:835   */\n              swap3\n              swap2\n              pop\n              pop\n              jump\t// out\n                /* \"#utility.yul\":841:1170   */\n            tag_31:\n                /* \"#utility.yul\":900:906   */\n              0x00\n                /* \"#utility.yul\":949:951   */\n              0x20\n                /* \"#utility.yul\":937:946   */\n              dup3\n                /* \"#utility.yul\":928:935   */\n              dup5\n                /* \"#utility.yul\":924:947   */\n              sub\n                /* \"#utility.yul\":920:952   */\n              slt\n                /* \"#utility.yul\":917:1036   */\n              iszero\n              tag_377\n              jumpi\n                /* \"#utility.yul\":955:1034   */\n              tag_378\n              tag_278\n              jump\t// in\n            tag_378:\n                /* \"#utility.yul\":917:1036   */\n            tag_377:\n                /* \"#utility.yul\":1075:1076   */\n              0x00\n                /* \"#utility.yul\":1100:1153   */\n              tag_379\n                /* \"#utility.yul\":1145:1152   */\n              dup5\n                /* \"#utility.yul\":1136:1142   */\n              dup3\n                /* \"#utility.yul\":1125:1134   */\n              dup6\n                /* \"#utility.yul\":1121:1143   */\n              add\n                /* \"#utility.yul\":1100:1153   */\n              tag_283\n              jump\t// in\n            tag_379:\n                /* \"#utility.yul\":1090:1153   */\n              swap2\n              pop\n                /* \"#utility.yul\":1046:1163   */\n              pop\n                /* \"#utility.yul\":841:1170   */\n              swap3\n              swap2\n              pop\n              pop\n              jump\t// out\n                /* \"#utility.yul\":1176:1266   */\n            tag_284:\n                /* \"#utility.yul\":1210:1217   */\n              0x00\n                /* \"#utility.yul\":1253:1258   */\n              dup2\n                /* \"#utility.yul\":1246:1259   */\n              iszero\n                /* \"#utility.yul\":1239:1260   */\n              iszero\n                /* \"#utility.yul\":1228:1260   */\n              swap1\n              pop\n                /* \"#utility.yul\":1176:1266   */\n              swap2\n              swap1\n              pop\n              jump\t// out\n                /* \"#utility.yul\":1272:1381   */\n            tag_285:\n                /* \"#utility.yul\":1353:1374   */\n              tag_382\n                /* \"#utility.yul\":1368:1373   */\n              dup2\n                /* \"#utility.yul\":1353:1374   */\n              tag_284\n              jump\t// in\n            tag_382:\n                /* \"#utility.yul\":1348:1351   */\n              dup3\n                /* \"#utility.yul\":1341:1375   */\n              mstore\n                /* \"#utility.yul\":1272:1381   */\n              pop\n              pop\n              jump\t// out\n                /* \"#utility.yul\":1387:1597   */\n            tag_34:\n                /* \"#utility.yul\":1474:1478   */\n              0x00\n                /* \"#utility.yul\":1512:1514   */\n              0x20\n                /* \"#utility.yul\":1501:1510   */\n              dup3\n                /* \"#utility.yul\":1497:1515   */\n              add\n                /* \"#utility.yul\":1489:1515   */\n              swap1\n              pop\n                /* \"#utility.yul\":1525:1590   */\n              tag_384\n                /* \"#utility.yul\":1587:1588   */\n              0x00\n                /* \"#utility.yul\":1576:1585   */\n              dup4\n                /* \"#utility.yul\":1572:1589   */\n              add\n                /* \"#utility.yul\":1563:1569   */\n              dup5\n                /* \"#utility.yul\":1525:1590   */\n              tag_285\n              jump\t// in\n            tag_384:\n                /* \"#utility.yul\":1387:1597   */\n              swap3\n              swap2\n              pop\n              pop\n              jump\t// out\n                /* \"#utility.yul\":1603:1680   */\n            tag_286:\n                /* \"#utility.yul\":1640:1647   */\n              0x00\n                /* \"#utility.yul\":1669:1674   */\n              dup2\n                /* \"#utility.yul\":1658:1674   */\n              swap1\n              pop\n                /* \"#utility.yul\":1603:1680   */\n              swap2\n              swap1\n              pop\n              jump\t// out\n                /* \"#utility.yul\":1686:1804   */\n            tag_287:\n                /* \"#utility.yul\":1773:1797   */\n              tag_387\n                /* \"#utility.yul\":1791:1796   */\n              dup2\n                /* \"#utility.yul\":1773:1797   */\n              tag_286\n              jump\t// in\n            tag_387:\n                /* \"#utility.yul\":1768:1771   */\n              dup3\n                /* \"#utility.yul\":1761:1798   */\n              mstore\n                /* \"#utility.yul\":1686:1804   */\n              pop\n              pop\n              jump\t// out\n                /* \"#utility.yul\":1810:2032   */\n            tag_38:\n                /* \"#utility.yul\":1903:1907   */\n              0x00\n                /* \"#utility.yul\":1941:1943   */\n              0x20\n                /* \"#utility.yul\":1930:1939   */\n              dup3\n                /* \"#utility.yul\":1926:1944   */\n              add\n                /* \"#utility.yul\":1918:1944   */\n              swap1\n              pop\n                /* \"#utility.yul\":1954:2025   */\n              tag_389\n                /* \"#utility.yul\":2022:2023   */\n              0x00\n                /* \"#utility.yul\":2011:2020   */\n              dup4\n                /* \"#utility.yul\":2007:2024   */\n              add\n                /* \"#utility.yul\":1998:2004   */\n              dup5\n                /* \"#utility.yul\":1954:2025   */\n              tag_287\n              jump\t// in\n            tag_389:\n                /* \"#utility.yul\":1810:2032   */\n              swap3\n              swap2\n              pop\n              pop\n              jump\t// out\n                /* \"#utility.yul\":2038:2137   */\n            tag_288:\n                /* \"#utility.yul\":2090:2096   */\n              0x00\n                /* \"#utility.yul\":2124:2129   */\n              dup2\n                /* \"#utility.yul\":2118:2130   */\n              mload\n                /* \"#utility.yul\":2108:2130   */\n              swap1\n              pop\n                /* \"#utility.yul\":2038:2137   */\n              swap2\n              swap1\n              pop\n              jump\t// out\n                /* \"#utility.yul\":2143:2312   */\n            tag_289:\n                /* \"#utility.yul\":2227:2238   */\n              0x00\n                /* \"#utility.yul\":2261:2267   */\n              dup3\n                /* \"#utility.yul\":2256:2259   */\n              dup3\n                /* \"#utility.yul\":2249:2268   */\n              mstore\n                /* \"#utility.yul\":2301:2305   */\n              0x20\n                /* \"#utility.yul\":2296:2299   */\n              dup3\n                /* \"#utility.yul\":2292:2306   */\n              add\n                /* \"#utility.yul\":2277:2306   */\n              swap1\n              pop\n                /* \"#utility.yul\":2143:2312   */\n              swap3\n              swap2\n              pop\n              pop\n              jump\t// out\n                /* \"#utility.yul\":2318:2457   */\n            tag_290:\n                /* \"#utility.yul\":2407:2413   */\n              dup3\n                /* \"#utility.yul\":2402:2405   */\n              dup2\n                /* \"#utility.yul\":2397:2400   */\n              dup4\n                /* \"#utility.yul\":2391:2414   */\n              mcopy\n                /* \"#utility.yul\":2448:2449   */\n              0x00\n                /* \"#utility.yul\":2439:2445   */\n              dup4\n                /* \"#utility.yul\":2434:2437   */\n              dup4\n                /* \"#utility.yul\":2430:2446   */\n              add\n                /* \"#utility.yul\":2423:2450   */\n              mstore\n                /* \"#utility.yul\":2318:2457   */\n              pop\n              pop\n              pop\n              jump\t// out\n                /* \"#utility.yul\":2463:2565   */\n            tag_291:\n                /* \"#utility.yul\":2504:2510   */\n              0x00\n                /* \"#utility.yul\":2555:2557   */\n              0x1f\n                /* \"#utility.yul\":2551:2558   */\n              not\n                /* \"#utility.yul\":2546:2548   */\n              0x1f\n                /* \"#utility.yul\":2539:2544   */\n              dup4\n                /* \"#utility.yul\":2535:2549   */\n              add\n                /* \"#utility.yul\":2531:2559   */\n              and\n                /* \"#utility.yul\":2521:2559   */\n              swap1\n              pop\n                /* \"#utility.yul\":2463:2565   */\n              swap2\n              swap1\n              pop\n              jump\t// out\n                /* \"#utility.yul\":2571:2948   */\n            tag_292:\n                /* \"#utility.yul\":2659:2662   */\n              0x00\n                /* \"#utility.yul\":2687:2726   */\n              tag_395\n                /* \"#utility.yul\":2720:2725   */\n              dup3\n                /* \"#utility.yul\":2687:2726   */\n              tag_288\n              jump\t// in\n            tag_395:\n                /* \"#utility.yul\":2742:2813   */\n              tag_396\n                /* \"#utility.yul\":2806:2812   */\n              dup2\n                /* \"#utility.yul\":2801:2804   */\n              dup6\n                /* \"#utility.yul\":2742:2813   */\n              tag_289\n              jump\t// in\n            tag_396:\n                /* \"#utility.yul\":2735:2813   */\n              swap4\n              pop\n                /* \"#utility.yul\":2822:2887   */\n              tag_397\n                /* \"#utility.yul\":2880:2886   */\n              dup2\n                /* \"#utility.yul\":2875:2878   */\n              dup6\n                /* \"#utility.yul\":2868:2872   */\n              0x20\n                /* \"#utility.yul\":2861:2866   */\n              dup7\n                /* \"#utility.yul\":2857:2873   */\n              add\n                /* \"#utility.yul\":2822:2887   */\n              tag_290\n              jump\t// in\n            tag_397:\n                /* \"#utility.yul\":2912:2941   */\n              tag_398\n                /* \"#utility.yul\":2934:2940   */\n              dup2\n                /* \"#utility.yul\":2912:2941   */\n              tag_291\n              jump\t// in\n            tag_398:\n                /* \"#utility.yul\":2907:2910   */\n              dup5\n                /* \"#utility.yul\":2903:2942   */\n              add\n                /* \"#utility.yul\":2896:2942   */\n              swap2\n              pop\n                /* \"#utility.yul\":2663:2948   */\n              pop\n                /* \"#utility.yul\":2571:2948   */\n              swap3\n              swap2\n              pop\n              pop\n              jump\t// out\n                /* \"#utility.yul\":2954:3267   */\n            tag_42:\n                /* \"#utility.yul\":3067:3071   */\n              0x00\n                /* \"#utility.yul\":3105:3107   */\n              0x20\n                /* \"#utility.yul\":3094:3103   */\n              dup3\n                /* \"#utility.yul\":3090:3108   */\n              add\n                /* \"#utility.yul\":3082:3108   */\n              swap1\n              pop\n                /* \"#utility.yul\":3154:3163   */\n              dup2\n                /* \"#utility.yul\":3148:3152   */\n              dup2\n                /* \"#utility.yul\":3144:3164   */\n              sub\n                /* \"#utility.yul\":3140:3141   */\n              0x00\n                /* \"#utility.yul\":3129:3138   */\n              dup4\n                /* \"#utility.yul\":3125:3142   */\n              add\n                /* \"#utility.yul\":3118:3165   */\n              mstore\n                /* \"#utility.yul\":3182:3260   */\n              tag_400\n                /* \"#utility.yul\":3255:3259   */\n              dup2\n                /* \"#utility.yul\":3246:3252   */\n              dup5\n                /* \"#utility.yul\":3182:3260   */\n              tag_292\n              jump\t// in\n            tag_400:\n                /* \"#utility.yul\":3174:3260   */\n              swap1\n              pop\n                /* \"#utility.yul\":2954:3267   */\n              swap3\n              swap2\n              pop\n              pop\n              jump\t// out\n                /* \"#utility.yul\":3273:3391   */\n            tag_293:\n                /* \"#utility.yul\":3360:3384   */\n              tag_402\n                /* \"#utility.yul\":3378:3383   */\n              dup2\n                /* \"#utility.yul\":3360:3384   */\n              tag_281\n              jump\t// in\n            tag_402:\n                /* \"#utility.yul\":3355:3358   */\n              dup3\n                /* \"#utility.yul\":3348:3385   */\n              mstore\n                /* \"#utility.yul\":3273:3391   */\n              pop\n              pop\n              jump\t// out\n                /* \"#utility.yul\":3397:3511   */\n            tag_294:\n                /* \"#utility.yul\":3464:3470   */\n              0x00\n                /* \"#utility.yul\":3498:3503   */\n              dup2\n                /* \"#utility.yul\":3492:3504   */\n              mload\n                /* \"#utility.yul\":3482:3504   */\n              swap1\n              pop\n                /* \"#utility.yul\":3397:3511   */\n              swap2\n              swap1\n              pop\n              jump\t// out\n                /* \"#utility.yul\":3517:3701   */\n            tag_295:\n                /* \"#utility.yul\":3616:3627   */\n              0x00\n                /* \"#utility.yul\":3650:3656   */\n              dup3\n                /* \"#utility.yul\":3645:3648   */\n              dup3\n                /* \"#utility.yul\":3638:3657   */\n              mstore\n                /* \"#utility.yul\":3690:3694   */\n              0x20\n                /* \"#utility.yul\":3685:3688   */\n              dup3\n                /* \"#utility.yul\":3681:3695   */\n              add\n                /* \"#utility.yul\":3666:3695   */\n              swap1\n              pop\n                /* \"#utility.yul\":3517:3701   */\n              swap3\n              swap2\n              pop\n              pop\n              jump\t// out\n                /* \"#utility.yul\":3707:3839   */\n            tag_296:\n                /* \"#utility.yul\":3774:3778   */\n              0x00\n                /* \"#utility.yul\":3797:3800   */\n              dup2\n                /* \"#utility.yul\":3789:3800   */\n              swap1\n              pop\n                /* \"#utility.yul\":3827:3831   */\n              0x20\n                /* \"#utility.yul\":3822:3825   */\n              dup3\n                /* \"#utility.yul\":3818:3832   */\n              add\n                /* \"#utility.yul\":3810:3832   */\n              swap1\n              pop\n                /* \"#utility.yul\":3707:3839   */\n              swap2\n              swap1\n              pop\n              jump\t// out\n                /* \"#utility.yul\":3845:3953   */\n            tag_297:\n                /* \"#utility.yul\":3922:3946   */\n              tag_407\n                /* \"#utility.yul\":3940:3945   */\n              dup2\n                /* \"#utility.yul\":3922:3946   */\n              tag_281\n              jump\t// in\n            tag_407:\n                /* \"#utility.yul\":3917:3920   */\n              dup3\n                /* \"#utility.yul\":3910:3947   */\n              mstore\n                /* \"#utility.yul\":3845:3953   */\n              pop\n              pop\n              jump\t// out\n                /* \"#utility.yul\":3959:4138   */\n            tag_298:\n                /* \"#utility.yul\":4028:4038   */\n              0x00\n                /* \"#utility.yul\":4049:4095   */\n              tag_409\n                /* \"#utility.yul\":4091:4094   */\n              dup4\n                /* \"#utility.yul\":4083:4089   */\n              dup4\n                /* \"#utility.yul\":4049:4095   */\n              tag_297\n              jump\t// in\n            tag_409:\n                /* \"#utility.yul\":4127:4131   */\n              0x20\n                /* \"#utility.yul\":4122:4125   */\n              dup4\n                /* \"#utility.yul\":4118:4132   */\n              add\n                /* \"#utility.yul\":4104:4132   */\n              swap1\n              pop\n                /* \"#utility.yul\":3959:4138   */\n              swap3\n              swap2\n              pop\n              pop\n              jump\t// out\n                /* \"#utility.yul\":4144:4257   */\n            tag_299:\n                /* \"#utility.yul\":4214:4218   */\n              0x00\n                /* \"#utility.yul\":4246:4250   */\n              0x20\n                /* \"#utility.yul\":4241:4244   */\n              dup3\n                /* \"#utility.yul\":4237:4251   */\n              add\n                /* \"#utility.yul\":4229:4251   */\n              swap1\n              pop\n                /* \"#utility.yul\":4144:4257   */\n              swap2\n              swap1\n              pop\n              jump\t// out\n                /* \"#utility.yul\":4293:5025   */\n            tag_300:\n                /* \"#utility.yul\":4412:4415   */\n              0x00\n                /* \"#utility.yul\":4441:4495   */\n              tag_412\n                /* \"#utility.yul\":4489:4494   */\n              dup3\n                /* \"#utility.yul\":4441:4495   */\n              tag_294\n              jump\t// in\n            tag_412:\n                /* \"#utility.yul\":4511:4597   */\n              tag_413\n                /* \"#utility.yul\":4590:4596   */\n              dup2\n                /* \"#utility.yul\":4585:4588   */\n              dup6\n                /* \"#utility.yul\":4511:4597   */\n              tag_295\n              jump\t// in\n            tag_413:\n                /* \"#utility.yul\":4504:4597   */\n              swap4\n              pop\n                /* \"#utility.yul\":4621:4677   */\n              tag_414\n                /* \"#utility.yul\":4671:4676   */\n              dup4\n                /* \"#utility.yul\":4621:4677   */\n              tag_296\n              jump\t// in\n            tag_414:\n                /* \"#utility.yul\":4700:4707   */\n              dup1\n                /* \"#utility.yul\":4731:4732   */\n              0x00\n                /* \"#utility.yul\":4716:5000   */\n            tag_415:\n                /* \"#utility.yul\":4741:4747   */\n              dup4\n                /* \"#utility.yul\":4738:4739   */\n              dup2\n                /* \"#utility.yul\":4735:4748   */\n              lt\n                /* \"#utility.yul\":4716:5000   */\n              iszero\n              tag_417\n              jumpi\n                /* \"#utility.yul\":4817:4823   */\n              dup2\n                /* \"#utility.yul\":4811:4824   */\n              mload\n                /* \"#utility.yul\":4844:4907   */\n              tag_418\n                /* \"#utility.yul\":4903:4906   */\n              dup9\n                /* \"#utility.yul\":4888:4901   */\n              dup3\n                /* \"#utility.yul\":4844:4907   */\n              tag_298\n              jump\t// in\n            tag_418:\n                /* \"#utility.yul\":4837:4907   */\n              swap8\n              pop\n                /* \"#utility.yul\":4930:4990   */\n              tag_419\n                /* \"#utility.yul\":4983:4989   */\n              dup4\n                /* \"#utility.yul\":4930:4990   */\n              tag_299\n              jump\t// in\n            tag_419:\n                /* \"#utility.yul\":4920:4990   */\n              swap3\n              pop\n                /* \"#utility.yul\":4776:5000   */\n              pop\n                /* \"#utility.yul\":4763:4764   */\n              0x01\n                /* \"#utility.yul\":4760:4761   */\n              dup2\n                /* \"#utility.yul\":4756:4765   */\n              add\n                /* \"#utility.yul\":4751:4765   */\n              swap1\n              pop\n                /* \"#utility.yul\":4716:5000   */\n              jump(tag_415)\n            tag_417:\n                /* \"#utility.yul\":4720:4734   */\n              pop\n                /* \"#utility.yul\":5016:5019   */\n              dup6\n                /* \"#utility.yul\":5009:5019   */\n              swap4\n              pop\n                /* \"#utility.yul\":4417:5025   */\n              pop\n              pop\n              pop\n                /* \"#utility.yul\":4293:5025   */\n              swap3\n              swap2\n              pop\n              pop\n              jump\t// out\n                /* \"#utility.yul\":5031:6583   */\n            tag_46:\n                /* \"#utility.yul\":5466:5470   */\n              0x00\n                /* \"#utility.yul\":5504:5507   */\n              0x0140\n                /* \"#utility.yul\":5493:5502   */\n              dup3\n                /* \"#utility.yul\":5489:5508   */\n              add\n                /* \"#utility.yul\":5481:5508   */\n              swap1\n              pop\n                /* \"#utility.yul\":5518:5589   */\n              tag_421\n                /* \"#utility.yul\":5586:5587   */\n              0x00\n                /* \"#utility.yul\":5575:5584   */\n              dup4\n                /* \"#utility.yul\":5571:5588   */\n              add\n                /* \"#utility.yul\":5562:5568   */\n              dup14\n                /* \"#utility.yul\":5518:5589   */\n              tag_287\n              jump\t// in\n            tag_421:\n                /* \"#utility.yul\":5599:5671   */\n              tag_422\n                /* \"#utility.yul\":5667:5669   */\n              0x20\n                /* \"#utility.yul\":5656:5665   */\n              dup4\n                /* \"#utility.yul\":5652:5670   */\n              add\n                /* \"#utility.yul\":5643:5649   */\n              dup13\n                /* \"#utility.yul\":5599:5671   */\n              tag_287\n              jump\t// in\n            tag_422:\n                /* \"#utility.yul\":5681:5753   */\n              tag_423\n                /* \"#utility.yul\":5749:5751   */\n              0x40\n                /* \"#utility.yul\":5738:5747   */\n              dup4\n                /* \"#utility.yul\":5734:5752   */\n              add\n                /* \"#utility.yul\":5725:5731   */\n              dup12\n                /* \"#utility.yul\":5681:5753   */\n              tag_287\n              jump\t// in\n            tag_423:\n                /* \"#utility.yul\":5763:5835   */\n              tag_424\n                /* \"#utility.yul\":5831:5833   */\n              0x60\n                /* \"#utility.yul\":5820:5829   */\n              dup4\n                /* \"#utility.yul\":5816:5834   */\n              add\n                /* \"#utility.yul\":5807:5813   */\n              dup11\n                /* \"#utility.yul\":5763:5835   */\n              tag_293\n              jump\t// in\n            tag_424:\n                /* \"#utility.yul\":5845:5918   */\n              tag_425\n                /* \"#utility.yul\":5913:5916   */\n              0x80\n                /* \"#utility.yul\":5902:5911   */\n              dup4\n                /* \"#utility.yul\":5898:5917   */\n              add\n                /* \"#utility.yul\":5889:5895   */\n              dup10\n                /* \"#utility.yul\":5845:5918   */\n              tag_287\n              jump\t// in\n            tag_425:\n                /* \"#utility.yul\":5966:5975   */\n              dup2\n                /* \"#utility.yul\":5960:5964   */\n              dup2\n                /* \"#utility.yul\":5956:5976   */\n              sub\n                /* \"#utility.yul\":5950:5953   */\n              0xa0\n                /* \"#utility.yul\":5939:5948   */\n              dup4\n                /* \"#utility.yul\":5935:5954   */\n              add\n                /* \"#utility.yul\":5928:5977   */\n              mstore\n                /* \"#utility.yul\":5994:6072   */\n              tag_426\n                /* \"#utility.yul\":6067:6071   */\n              dup2\n                /* \"#utility.yul\":6058:6064   */\n              dup9\n                /* \"#utility.yul\":5994:6072   */\n              tag_292\n              jump\t// in\n            tag_426:\n                /* \"#utility.yul\":5986:6072   */\n              swap1\n              pop\n                /* \"#utility.yul\":6120:6129   */\n              dup2\n                /* \"#utility.yul\":6114:6118   */\n              dup2\n                /* \"#utility.yul\":6110:6130   */\n              sub\n                /* \"#utility.yul\":6104:6107   */\n              0xc0\n                /* \"#utility.yul\":6093:6102   */\n              dup4\n                /* \"#utility.yul\":6089:6108   */\n              add\n                /* \"#utility.yul\":6082:6131   */\n              mstore\n                /* \"#utility.yul\":6148:6226   */\n              tag_427\n                /* \"#utility.yul\":6221:6225   */\n              dup2\n                /* \"#utility.yul\":6212:6218   */\n              dup8\n                /* \"#utility.yul\":6148:6226   */\n              tag_292\n              jump\t// in\n            tag_427:\n                /* \"#utility.yul\":6140:6226   */\n              swap1\n              pop\n                /* \"#utility.yul\":6236:6309   */\n              tag_428\n                /* \"#utility.yul\":6304:6307   */\n              0xe0\n                /* \"#utility.yul\":6293:6302   */\n              dup4\n                /* \"#utility.yul\":6289:6308   */\n              add\n                /* \"#utility.yul\":6280:6286   */\n              dup7\n                /* \"#utility.yul\":6236:6309   */\n              tag_293\n              jump\t// in\n            tag_428:\n                /* \"#utility.yul\":6357:6366   */\n              dup2\n                /* \"#utility.yul\":6351:6355   */\n              dup2\n                /* \"#utility.yul\":6347:6367   */\n              sub\n                /* \"#utility.yul\":6341:6344   */\n              0x0100\n                /* \"#utility.yul\":6330:6339   */\n              dup4\n                /* \"#utility.yul\":6326:6345   */\n              add\n                /* \"#utility.yul\":6319:6368   */\n              mstore\n                /* \"#utility.yul\":6385:6493   */\n              tag_429\n                /* \"#utility.yul\":6488:6492   */\n              dup2\n                /* \"#utility.yul\":6479:6485   */\n              dup6\n                /* \"#utility.yul\":6385:6493   */\n              tag_300\n              jump\t// in\n            tag_429:\n                /* \"#utility.yul\":6377:6493   */\n              swap1\n              pop\n                /* \"#utility.yul\":6503:6576   */\n              tag_430\n                /* \"#utility.yul\":6571:6574   */\n              0x0120\n                /* \"#utility.yul\":6560:6569   */\n              dup4\n                /* \"#utility.yul\":6556:6575   */\n              add\n                /* \"#utility.yul\":6547:6553   */\n              dup5\n                /* \"#utility.yul\":6503:6576   */\n              tag_287\n              jump\t// in\n            tag_430:\n                /* \"#utility.yul\":5031:6583   */\n              swap12\n              swap11\n              pop\n              pop\n              pop\n              pop\n              pop\n              pop\n              pop\n              pop\n              pop\n              pop\n              pop\n              jump\t// out\n                /* \"#utility.yul\":6589:6811   */\n            tag_50:\n                /* \"#utility.yul\":6682:6686   */\n              0x00\n                /* \"#utility.yul\":6720:6722   */\n              0x20\n                /* \"#utility.yul\":6709:6718   */\n              dup3\n                /* \"#utility.yul\":6705:6723   */\n              add\n                /* \"#utility.yul\":6697:6723   */\n              swap1\n              pop\n                /* \"#utility.yul\":6733:6804   */\n              tag_432\n                /* \"#utility.yul\":6801:6802   */\n              0x00\n                /* \"#utility.yul\":6790:6799   */\n              dup4\n                /* \"#utility.yul\":6786:6803   */\n              add\n                /* \"#utility.yul\":6777:6783   */\n              dup5\n                /* \"#utility.yul\":6733:6804   */\n              tag_293\n              jump\t// in\n            tag_432:\n                /* \"#utility.yul\":6589:6811   */\n              swap3\n              swap2\n              pop\n              pop\n              jump\t// out\n                /* \"#utility.yul\":6817:6939   */\n            tag_301:\n                /* \"#utility.yul\":6890:6914   */\n              tag_434\n                /* \"#utility.yul\":6908:6913   */\n              dup2\n                /* \"#utility.yul\":6890:6914   */\n              tag_286\n              jump\t// in\n            tag_434:\n                /* \"#utility.yul\":6883:6888   */\n              dup2\n                /* \"#utility.yul\":6880:6915   */\n              eq\n                /* \"#utility.yul\":6870:6933   */\n              tag_435\n              jumpi\n                /* \"#utility.yul\":6929:6930   */\n              0x00\n                /* \"#utility.yul\":6926:6927   */\n              0x00\n                /* \"#utility.yul\":6919:6931   */\n              revert\n                /* \"#utility.yul\":6870:6933   */\n            tag_435:\n                /* \"#utility.yul\":6817:6939   */\n              pop\n              jump\t// out\n                /* \"#utility.yul\":6945:7084   */\n            tag_302:\n                /* \"#utility.yul\":6991:6996   */\n              0x00\n                /* \"#utility.yul\":7029:7035   */\n              dup2\n                /* \"#utility.yul\":7016:7036   */\n              calldataload\n                /* \"#utility.yul\":7007:7036   */\n              swap1\n              pop\n                /* \"#utility.yul\":7045:7078   */\n              tag_437\n                /* \"#utility.yul\":7072:7077   */\n              dup2\n                /* \"#utility.yul\":7045:7078   */\n              tag_301\n              jump\t// in\n            tag_437:\n                /* \"#utility.yul\":6945:7084   */\n              swap3\n              swap2\n              pop\n              pop\n              jump\t// out\n                /* \"#utility.yul\":7090:7176   */\n            tag_303:\n                /* \"#utility.yul\":7125:7132   */\n              0x00\n                /* \"#utility.yul\":7165:7169   */\n              0xff\n                /* \"#utility.yul\":7158:7163   */\n              dup3\n                /* \"#utility.yul\":7154:7170   */\n              and\n                /* \"#utility.yul\":7143:7170   */\n              swap1\n              pop\n                /* \"#utility.yul\":7090:7176   */\n              swap2\n              swap1\n              pop\n              jump\t// out\n                /* \"#utility.yul\":7182:7300   */\n            tag_304:\n                /* \"#utility.yul\":7253:7275   */\n              tag_440\n                /* \"#utility.yul\":7269:7274   */\n              dup2\n                /* \"#utility.yul\":7253:7275   */\n              tag_303\n              jump\t// in\n            tag_440:\n                /* \"#utility.yul\":7246:7251   */\n              dup2\n                /* \"#utility.yul\":7243:7276   */\n              eq\n                /* \"#utility.yul\":7233:7294   */\n              tag_441\n              jumpi\n                /* \"#utility.yul\":7290:7291   */\n              0x00\n                /* \"#utility.yul\":7287:7288   */\n              0x00\n                /* \"#utility.yul\":7280:7292   */\n              revert\n                /* \"#utility.yul\":7233:7294   */\n            tag_441:\n                /* \"#utility.yul\":7182:7300   */\n              pop\n              jump\t// out\n                /* \"#utility.yul\":7306:7441   */\n            tag_305:\n                /* \"#utility.yul\":7350:7355   */\n              0x00\n                /* \"#utility.yul\":7388:7394   */\n              dup2\n                /* \"#utility.yul\":7375:7395   */\n              calldataload\n                /* \"#utility.yul\":7366:7395   */\n              swap1\n              pop\n                /* \"#utility.yul\":7404:7435   */\n              tag_443\n                /* \"#utility.yul\":7429:7434   */\n              dup2\n                /* \"#utility.yul\":7404:7435   */\n              tag_304\n              jump\t// in\n            tag_443:\n                /* \"#utility.yul\":7306:7441   */\n              swap3\n              swap2\n              pop\n              pop\n              jump\t// out\n                /* \"#utility.yul\":7447:7524   */\n            tag_306:\n                /* \"#utility.yul\":7484:7491   */\n              0x00\n                /* \"#utility.yul\":7513:7518   */\n              dup2\n                /* \"#utility.yul\":7502:7518   */\n              swap1\n              pop\n                /* \"#utility.yul\":7447:7524   */\n              swap2\n              swap1\n              pop\n              jump\t// out\n                /* \"#utility.yul\":7530:7652   */\n            tag_307:\n                /* \"#utility.yul\":7603:7627   */\n              tag_446\n                /* \"#utility.yul\":7621:7626   */\n              dup2\n                /* \"#utility.yul\":7603:7627   */\n              tag_306\n              jump\t// in\n            tag_446:\n                /* \"#utility.yul\":7596:7601   */\n              dup2\n                /* \"#utility.yul\":7593:7628   */\n              eq\n                /* \"#utility.yul\":7583:7646   */\n              tag_447\n              jumpi\n                /* \"#utility.yul\":7642:7643   */\n              0x00\n                /* \"#utility.yul\":7639:7640   */\n              0x00\n                /* \"#utility.yul\":7632:7644   */\n              revert\n                /* \"#utility.yul\":7583:7646   */\n            tag_447:\n                /* \"#utility.yul\":7530:7652   */\n              pop\n              jump\t// out\n                /* \"#utility.yul\":7658:7797   */\n            tag_308:\n                /* \"#utility.yul\":7704:7709   */\n              0x00\n                /* \"#utility.yul\":7742:7748   */\n              dup2\n                /* \"#utility.yul\":7729:7749   */\n              calldataload\n                /* \"#utility.yul\":7720:7749   */\n              swap1\n              pop\n                /* \"#utility.yul\":7758:7791   */\n              tag_449\n                /* \"#utility.yul\":7785:7790   */\n              dup2\n                /* \"#utility.yul\":7758:7791   */\n              tag_307\n              jump\t// in\n            tag_449:\n                /* \"#utility.yul\":7658:7797   */\n              swap3\n              swap2\n              pop\n              pop\n              jump\t// out\n                /* \"#utility.yul\":7803:8710   */\n            tag_66:\n                /* \"#utility.yul\":7896:7902   */\n              0x00\n                /* \"#utility.yul\":7904:7910   */\n              0x00\n                /* \"#utility.yul\":7912:7918   */\n              0x00\n                /* \"#utility.yul\":7920:7926   */\n              0x00\n                /* \"#utility.yul\":7928:7934   */\n              0x00\n                /* \"#utility.yul\":7977:7980   */\n              0xa0\n                /* \"#utility.yul\":7965:7974   */\n              dup7\n                /* \"#utility.yul\":7956:7963   */\n              dup9\n                /* \"#utility.yul\":7952:7975   */\n              sub\n                /* \"#utility.yul\":7948:7981   */\n              slt\n                /* \"#utility.yul\":7945:8065   */\n              iszero\n              tag_451\n              jumpi\n                /* \"#utility.yul\":7984:8063   */\n              tag_452\n              tag_278\n              jump\t// in\n            tag_452:\n                /* \"#utility.yul\":7945:8065   */\n            tag_451:\n                /* \"#utility.yul\":8104:8105   */\n              0x00\n                /* \"#utility.yul\":8129:8182   */\n              tag_453\n                /* \"#utility.yul\":8174:8181   */\n              dup9\n                /* \"#utility.yul\":8165:8171   */\n              dup3\n                /* \"#utility.yul\":8154:8163   */\n              dup10\n                /* \"#utility.yul\":8150:8172   */\n              add\n                /* \"#utility.yul\":8129:8182   */\n              tag_302\n              jump\t// in\n            tag_453:\n                /* \"#utility.yul\":8119:8182   */\n              swap6\n              pop\n                /* \"#utility.yul\":8075:8192   */\n              pop\n                /* \"#utility.yul\":8231:8233   */\n              0x20\n                /* \"#utility.yul\":8257:8310   */\n              tag_454\n                /* \"#utility.yul\":8302:8309   */\n              dup9\n                /* \"#utility.yul\":8293:8299   */\n              dup3\n                /* \"#utility.yul\":8282:8291   */\n              dup10\n                /* \"#utility.yul\":8278:8300   */\n              add\n                /* \"#utility.yul\":8257:8310   */\n              tag_302\n              jump\t// in\n            tag_454:\n                /* \"#utility.yul\":8247:8310   */\n              swap5\n              pop\n                /* \"#utility.yul\":8202:8320   */\n              pop\n                /* \"#utility.yul\":8359:8361   */\n              0x40\n                /* \"#utility.yul\":8385:8436   */\n              tag_455\n                /* \"#utility.yul\":8428:8435   */\n              dup9\n                /* \"#utility.yul\":8419:8425   */\n              dup3\n                /* \"#utility.yul\":8408:8417   */\n              dup10\n                /* \"#utility.yul\":8404:8426   */\n              add\n                /* \"#utility.yul\":8385:8436   */\n              tag_305\n              jump\t// in\n            tag_455:\n                /* \"#utility.yul\":8375:8436   */\n              swap4\n              pop\n                /* \"#utility.yul\":8330:8446   */\n              pop\n                /* \"#utility.yul\":8485:8487   */\n              0x60\n                /* \"#utility.yul\":8511:8564   */\n              tag_456\n                /* \"#utility.yul\":8556:8563   */\n              dup9\n                /* \"#utility.yul\":8547:8553   */\n              dup3\n                /* \"#utility.yul\":8536:8545   */\n              dup10\n                /* \"#utility.yul\":8532:8554   */\n              add\n                /* \"#utility.yul\":8511:8564   */\n              tag_308\n              jump\t// in\n            tag_456:\n                /* \"#utility.yul\":8501:8564   */\n              swap3\n              pop\n                /* \"#utility.yul\":8456:8574   */\n              pop\n                /* \"#utility.yul\":8613:8616   */\n              0x80\n                /* \"#utility.yul\":8640:8693   */\n              tag_457\n                /* \"#utility.yul\":8685:8692   */\n              dup9\n                /* \"#utility.yul\":8676:8682   */\n              dup3\n                /* \"#utility.yul\":8665:8674   */\n              dup10\n                /* \"#utility.yul\":8661:8683   */\n              add\n                /* \"#utility.yul\":8640:8693   */\n              tag_308\n              jump\t// in\n            tag_457:\n                /* \"#utility.yul\":8630:8693   */\n              swap2\n              pop\n                /* \"#utility.yul\":8584:8703   */\n              pop\n                /* \"#utility.yul\":7803:8710   */\n              swap3\n              swap6\n              pop\n              swap3\n              swap6\n              swap1\n              swap4\n              pop\n              jump\t// out\n                /* \"#utility.yul\":8716:8849   */\n            tag_309:\n                /* \"#utility.yul\":8802:8808   */\n              0x00\n                /* \"#utility.yul\":8836:8841   */\n              dup2\n                /* \"#utility.yul\":8830:8842   */\n              mload\n                /* \"#utility.yul\":8820:8842   */\n              swap1\n              pop\n                /* \"#utility.yul\":8716:8849   */\n              swap2\n              swap1\n              pop\n              jump\t// out\n                /* \"#utility.yul\":8855:9058   */\n            tag_310:\n                /* \"#utility.yul\":8973:8984   */\n              0x00\n                /* \"#utility.yul\":9007:9013   */\n              dup3\n                /* \"#utility.yul\":9002:9005   */\n              dup3\n                /* \"#utility.yul\":8995:9014   */\n              mstore\n                /* \"#utility.yul\":9047:9051   */\n              0x20\n                /* \"#utility.yul\":9042:9045   */\n              dup3\n                /* \"#utility.yul\":9038:9052   */\n              add\n                /* \"#utility.yul\":9023:9052   */\n              swap1\n              pop\n                /* \"#utility.yul\":8855:9058   */\n              swap3\n              swap2\n              pop\n              pop\n              jump\t// out\n                /* \"#utility.yul\":9064:9215   */\n            tag_311:\n                /* \"#utility.yul\":9150:9154   */\n              0x00\n                /* \"#utility.yul\":9173:9176   */\n              dup2\n                /* \"#utility.yul\":9165:9176   */\n              swap1\n              pop\n                /* \"#utility.yul\":9203:9207   */\n              0x20\n                /* \"#utility.yul\":9198:9201   */\n              dup3\n                /* \"#utility.yul\":9194:9208   */\n              add\n                /* \"#utility.yul\":9186:9208   */\n              swap1\n              pop\n                /* \"#utility.yul\":9064:9215   */\n              swap2\n              swap1\n              pop\n              jump\t// out\n                /* \"#utility.yul\":9221:9329   */\n            tag_312:\n                /* \"#utility.yul\":9298:9322   */\n              tag_462\n                /* \"#utility.yul\":9316:9321   */\n              dup2\n                /* \"#utility.yul\":9298:9322   */\n              tag_286\n              jump\t// in\n            tag_462:\n                /* \"#utility.yul\":9293:9296   */\n              dup3\n                /* \"#utility.yul\":9286:9323   */\n              mstore\n                /* \"#utility.yul\":9221:9329   */\n              pop\n              pop\n              jump\t// out\n                /* \"#utility.yul\":9385:10054   */\n            tag_313:\n                /* \"#utility.yul\":9510:9514   */\n              0x60\n                /* \"#utility.yul\":9505:9508   */\n              dup3\n                /* \"#utility.yul\":9501:9515   */\n              add\n                /* \"#utility.yul\":9598:9602   */\n              0x00\n                /* \"#utility.yul\":9591:9596   */\n              dup3\n                /* \"#utility.yul\":9587:9603   */\n              add\n                /* \"#utility.yul\":9581:9604   */\n              mload\n                /* \"#utility.yul\":9617:9680   */\n              tag_464\n                /* \"#utility.yul\":9674:9678   */\n              0x00\n                /* \"#utility.yul\":9669:9672   */\n              dup6\n                /* \"#utility.yul\":9665:9679   */\n              add\n                /* \"#utility.yul\":9651:9663   */\n              dup3\n                /* \"#utility.yul\":9617:9680   */\n              tag_312\n              jump\t// in\n            tag_464:\n                /* \"#utility.yul\":9525:9690   */\n              pop\n                /* \"#utility.yul\":9772:9776   */\n              0x20\n                /* \"#utility.yul\":9765:9770   */\n              dup3\n                /* \"#utility.yul\":9761:9777   */\n              add\n                /* \"#utility.yul\":9755:9778   */\n              mload\n                /* \"#utility.yul\":9791:9854   */\n              tag_465\n                /* \"#utility.yul\":9848:9852   */\n              0x20\n                /* \"#utility.yul\":9843:9846   */\n              dup6\n                /* \"#utility.yul\":9839:9853   */\n              add\n                /* \"#utility.yul\":9825:9837   */\n              dup3\n                /* \"#utility.yul\":9791:9854   */\n              tag_312\n              jump\t// in\n            tag_465:\n                /* \"#utility.yul\":9700:9864   */\n              pop\n                /* \"#utility.yul\":9955:9959   */\n              0x40\n                /* \"#utility.yul\":9948:9953   */\n              dup3\n                /* \"#utility.yul\":9944:9960   */\n              add\n                /* \"#utility.yul\":9938:9961   */\n              mload\n                /* \"#utility.yul\":9974:10037   */\n              tag_466\n                /* \"#utility.yul\":10031:10035   */\n              0x40\n                /* \"#utility.yul\":10026:10029   */\n              dup6\n                /* \"#utility.yul\":10022:10036   */\n              add\n                /* \"#utility.yul\":10008:10020   */\n              dup3\n                /* \"#utility.yul\":9974:10037   */\n              tag_297\n              jump\t// in\n            tag_466:\n                /* \"#utility.yul\":9874:10047   */\n              pop\n                /* \"#utility.yul\":9479:10054   */\n              pop\n                /* \"#utility.yul\":9385:10054   */\n              pop\n              pop\n              jump\t// out\n                /* \"#utility.yul\":10060:10315   */\n            tag_314:\n                /* \"#utility.yul\":10167:10177   */\n              0x00\n                /* \"#utility.yul\":10188:10272   */\n              tag_468\n                /* \"#utility.yul\":10268:10271   */\n              dup4\n                /* \"#utility.yul\":10260:10266   */\n              dup4\n                /* \"#utility.yul\":10188:10272   */\n              tag_313\n              jump\t// in\n            tag_468:\n                /* \"#utility.yul\":10304:10308   */\n              0x60\n                /* \"#utility.yul\":10299:10302   */\n              dup4\n                /* \"#utility.yul\":10295:10309   */\n              add\n                /* \"#utility.yul\":10281:10309   */\n              swap1\n              pop\n                /* \"#utility.yul\":10060:10315   */\n              swap3\n              swap2\n              pop\n              pop\n              jump\t// out\n                /* \"#utility.yul\":10321:10453   */\n            tag_315:\n                /* \"#utility.yul\":10410:10414   */\n              0x00\n                /* \"#utility.yul\":10442:10446   */\n              0x20\n                /* \"#utility.yul\":10437:10440   */\n              dup3\n                /* \"#utility.yul\":10433:10447   */\n              add\n                /* \"#utility.yul\":10425:10447   */\n              swap1\n              pop\n                /* \"#utility.yul\":10321:10453   */\n              swap2\n              swap1\n              pop\n              jump\t// out\n                /* \"#utility.yul\":10513:11397   */\n            tag_316:\n                /* \"#utility.yul\":10670:10673   */\n              0x00\n                /* \"#utility.yul\":10699:10772   */\n              tag_471\n                /* \"#utility.yul\":10766:10771   */\n              dup3\n                /* \"#utility.yul\":10699:10772   */\n              tag_309\n              jump\t// in\n            tag_471:\n                /* \"#utility.yul\":10788:10893   */\n              tag_472\n                /* \"#utility.yul\":10886:10892   */\n              dup2\n                /* \"#utility.yul\":10881:10884   */\n              dup6\n                /* \"#utility.yul\":10788:10893   */\n              tag_310\n              jump\t// in\n            tag_472:\n                /* \"#utility.yul\":10781:10893   */\n              swap4\n              pop\n                /* \"#utility.yul\":10917:10992   */\n              tag_473\n                /* \"#utility.yul\":10986:10991   */\n              dup4\n                /* \"#utility.yul\":10917:10992   */\n              tag_311\n              jump\t// in\n            tag_473:\n                /* \"#utility.yul\":11015:11022   */\n              dup1\n                /* \"#utility.yul\":11046:11047   */\n              0x00\n                /* \"#utility.yul\":11031:11372   */\n            tag_474:\n                /* \"#utility.yul\":11056:11062   */\n              dup4\n                /* \"#utility.yul\":11053:11054   */\n              dup2\n                /* \"#utility.yul\":11050:11063   */\n              lt\n                /* \"#utility.yul\":11031:11372   */\n              iszero\n              tag_476\n              jumpi\n                /* \"#utility.yul\":11132:11138   */\n              dup2\n                /* \"#utility.yul\":11126:11139   */\n              mload\n                /* \"#utility.yul\":11159:11260   */\n              tag_477\n                /* \"#utility.yul\":11256:11259   */\n              dup9\n                /* \"#utility.yul\":11241:11254   */\n              dup3\n                /* \"#utility.yul\":11159:11260   */\n              tag_314\n              jump\t// in\n            tag_477:\n                /* \"#utility.yul\":11152:11260   */\n              swap8\n              pop\n                /* \"#utility.yul\":11283:11362   */\n              tag_478\n                /* \"#utility.yul\":11355:11361   */\n              dup4\n                /* \"#utility.yul\":11283:11362   */\n              tag_315\n              jump\t// in\n            tag_478:\n                /* \"#utility.yul\":11273:11362   */\n              swap3\n              pop\n                /* \"#utility.yul\":11091:11372   */\n              pop\n                /* \"#utility.yul\":11078:11079   */\n              0x01\n                /* \"#utility.yul\":11075:11076   */\n              dup2\n                /* \"#utility.yul\":11071:11080   */\n              add\n                /* \"#utility.yul\":11066:11080   */\n              swap1\n              pop\n                /* \"#utility.yul\":11031:11372   */\n              jump(tag_474)\n            tag_476:\n                /* \"#utility.yul\":11035:11049   */\n              pop\n                /* \"#utility.yul\":11388:11391   */\n              dup6\n                /* \"#utility.yul\":11381:11391   */\n              swap4\n              pop\n                /* \"#utility.yul\":10675:11397   */\n              pop\n              pop\n              pop\n                /* \"#utility.yul\":10513:11397   */\n              swap3\n              swap2\n              pop\n              pop\n              jump\t// out\n                /* \"#utility.yul\":11403:11852   */\n            tag_77:\n                /* \"#utility.yul\":11584:11588   */\n              0x00\n                /* \"#utility.yul\":11622:11624   */\n              0x20\n                /* \"#utility.yul\":11611:11620   */\n              dup3\n                /* \"#utility.yul\":11607:11625   */\n              add\n                /* \"#utility.yul\":11599:11625   */\n              swap1\n              pop\n                /* \"#utility.yul\":11671:11680   */\n              dup2\n                /* \"#utility.yul\":11665:11669   */\n              dup2\n                /* \"#utility.yul\":11661:11681   */\n              sub\n                /* \"#utility.yul\":11657:11658   */\n              0x00\n                /* \"#utility.yul\":11646:11655   */\n              dup4\n                /* \"#utility.yul\":11642:11659   */\n              add\n                /* \"#utility.yul\":11635:11682   */\n              mstore\n                /* \"#utility.yul\":11699:11845   */\n              tag_480\n                /* \"#utility.yul\":11840:11844   */\n              dup2\n                /* \"#utility.yul\":11831:11837   */\n              dup5\n                /* \"#utility.yul\":11699:11845   */\n              tag_316\n              jump\t// in\n            tag_480:\n                /* \"#utility.yul\":11691:11845   */\n              swap1\n              pop\n                /* \"#utility.yul\":11403:11852   */\n              swap3\n              swap2\n              pop\n              pop\n              jump\t// out\n                /* \"#utility.yul\":11858:12187   */\n            tag_88:\n                /* \"#utility.yul\":11917:11923   */\n              0x00\n                /* \"#utility.yul\":11966:11968   */\n              0x20\n                /* \"#utility.yul\":11954:11963   */\n              dup3\n                /* \"#utility.yul\":11945:11952   */\n              dup5\n                /* \"#utility.yul\":11941:11964   */\n              sub\n                /* \"#utility.yul\":11937:11969   */\n              slt\n                /* \"#utility.yul\":11934:12053   */\n              iszero\n              tag_482\n              jumpi\n                /* \"#utility.yul\":11972:12051   */\n              tag_483\n              tag_278\n              jump\t// in\n            tag_483:\n                /* \"#utility.yul\":11934:12053   */\n            tag_482:\n                /* \"#utility.yul\":12092:12093   */\n              0x00\n                /* \"#utility.yul\":12117:12170   */\n              tag_484\n                /* \"#utility.yul\":12162:12169   */\n              dup5\n                /* \"#utility.yul\":12153:12159   */\n              dup3\n                /* \"#utility.yul\":12142:12151   */\n              dup6\n                /* \"#utility.yul\":12138:12160   */\n              add\n                /* \"#utility.yul\":12117:12170   */\n              tag_302\n              jump\t// in\n            tag_484:\n                /* \"#utility.yul\":12107:12170   */\n              swap2\n              pop\n                /* \"#utility.yul\":12063:12180   */\n              pop\n                /* \"#utility.yul\":11858:12187   */\n              swap3\n              swap2\n              pop\n              pop\n              jump\t// out\n                /* \"#utility.yul\":12193:12635   */\n            tag_91:\n                /* \"#utility.yul\":12342:12346   */\n              0x00\n                /* \"#utility.yul\":12380:12382   */\n              0x60\n                /* \"#utility.yul\":12369:12378   */\n              dup3\n                /* \"#utility.yul\":12365:12383   */\n              add\n                /* \"#utility.yul\":12357:12383   */\n              swap1\n              pop\n                /* \"#utility.yul\":12393:12464   */\n              tag_486\n                /* \"#utility.yul\":12461:12462   */\n              0x00\n                /* \"#utility.yul\":12450:12459   */\n              dup4\n                /* \"#utility.yul\":12446:12463   */\n              add\n                /* \"#utility.yul\":12437:12443   */\n              dup7\n                /* \"#utility.yul\":12393:12464   */\n              tag_287\n              jump\t// in\n            tag_486:\n                /* \"#utility.yul\":12474:12546   */\n              tag_487\n                /* \"#utility.yul\":12542:12544   */\n              0x20\n                /* \"#utility.yul\":12531:12540   */\n              dup4\n                /* \"#utility.yul\":12527:12545   */\n              add\n                /* \"#utility.yul\":12518:12524   */\n              dup6\n                /* \"#utility.yul\":12474:12546   */\n              tag_287\n              jump\t// in\n            tag_487:\n                /* \"#utility.yul\":12556:12628   */\n              tag_488\n                /* \"#utility.yul\":12624:12626   */\n              0x40\n                /* \"#utility.yul\":12613:12622   */\n              dup4\n                /* \"#utility.yul\":12609:12627   */\n              add\n                /* \"#utility.yul\":12600:12606   */\n              dup5\n                /* \"#utility.yul\":12556:12628   */\n              tag_293\n              jump\t// in\n            tag_488:\n                /* \"#utility.yul\":12193:12635   */\n              swap5\n              swap4\n              pop\n              pop\n              pop\n              pop\n              jump\t// out\n                /* \"#utility.yul\":12641:13014   */\n            tag_95:\n                /* \"#utility.yul\":12784:12788   */\n              0x00\n                /* \"#utility.yul\":12822:12824   */\n              0x20\n                /* \"#utility.yul\":12811:12820   */\n              dup3\n                /* \"#utility.yul\":12807:12825   */\n              add\n                /* \"#utility.yul\":12799:12825   */\n              swap1\n              pop\n                /* \"#utility.yul\":12871:12880   */\n              dup2\n                /* \"#utility.yul\":12865:12869   */\n              dup2\n                /* \"#utility.yul\":12861:12881   */\n              sub\n                /* \"#utility.yul\":12857:12858   */\n              0x00\n                /* \"#utility.yul\":12846:12855   */\n              dup4\n                /* \"#utility.yul\":12842:12859   */\n              add\n                /* \"#utility.yul\":12835:12882   */\n              mstore\n                /* \"#utility.yul\":12899:13007   */\n              tag_490\n                /* \"#utility.yul\":13002:13006   */\n              dup2\n                /* \"#utility.yul\":12993:12999   */\n              dup5\n                /* \"#utility.yul\":12899:13007   */\n              tag_300\n              jump\t// in\n            tag_490:\n                /* \"#utility.yul\":12891:13007   */\n              swap1\n              pop\n                /* \"#utility.yul\":12641:13014   */\n              swap3\n              swap2\n              pop\n              pop\n              jump\t// out\n                /* \"#utility.yul\":13020:13080   */\n            tag_317:\n                /* \"#utility.yul\":13048:13051   */\n              0x00\n                /* \"#utility.yul\":13069:13074   */\n              dup2\n                /* \"#utility.yul\":13062:13074   */\n              swap1\n              pop\n                /* \"#utility.yul\":13020:13080   */\n              swap2\n              swap1\n              pop\n              jump\t// out\n                /* \"#utility.yul\":13086:13228   */\n            tag_318:\n                /* \"#utility.yul\":13136:13145   */\n              0x00\n                /* \"#utility.yul\":13169:13222   */\n              tag_493\n                /* \"#utility.yul\":13187:13221   */\n              tag_494\n                /* \"#utility.yul\":13196:13220   */\n              tag_495\n                /* \"#utility.yul\":13214:13219   */\n              dup5\n                /* \"#utility.yul\":13196:13220   */\n              tag_280\n              jump\t// in\n            tag_495:\n                /* \"#utility.yul\":13187:13221   */\n              tag_317\n              jump\t// in\n            tag_494:\n                /* \"#utility.yul\":13169:13222   */\n              tag_280\n              jump\t// in\n            tag_493:\n                /* \"#utility.yul\":13156:13222   */\n              swap1\n              pop\n                /* \"#utility.yul\":13086:13228   */\n              swap2\n              swap1\n              pop\n              jump\t// out\n                /* \"#utility.yul\":13234:13360   */\n            tag_319:\n                /* \"#utility.yul\":13284:13293   */\n              0x00\n                /* \"#utility.yul\":13317:13354   */\n              tag_497\n                /* \"#utility.yul\":13348:13353   */\n              dup3\n                /* \"#utility.yul\":13317:13354   */\n              tag_318\n              jump\t// in\n            tag_497:\n                /* \"#utility.yul\":13304:13354   */\n              swap1\n              pop\n                /* \"#utility.yul\":13234:13360   */\n              swap2\n              swap1\n              pop\n              jump\t// out\n                /* \"#utility.yul\":13366:13512   */\n            tag_320:\n                /* \"#utility.yul\":13436:13445   */\n              0x00\n                /* \"#utility.yul\":13469:13506   */\n              tag_499\n                /* \"#utility.yul\":13500:13505   */\n              dup3\n                /* \"#utility.yul\":13469:13506   */\n              tag_319\n              jump\t// in\n            tag_499:\n                /* \"#utility.yul\":13456:13506   */\n              swap1\n              pop\n                /* \"#utility.yul\":13366:13512   */\n              swap2\n              swap1\n              pop\n              jump\t// out\n                /* \"#utility.yul\":13518:13689   */\n            tag_321:\n                /* \"#utility.yul\":13625:13682   */\n              tag_501\n                /* \"#utility.yul\":13676:13681   */\n              dup2\n                /* \"#utility.yul\":13625:13682   */\n              tag_320\n              jump\t// in\n            tag_501:\n                /* \"#utility.yul\":13620:13623   */\n              dup3\n                /* \"#utility.yul\":13613:13683   */\n              mstore\n                /* \"#utility.yul\":13518:13689   */\n              pop\n              pop\n              jump\t// out\n                /* \"#utility.yul\":13695:13957   */\n            tag_113:\n                /* \"#utility.yul\":13808:13812   */\n              0x00\n                /* \"#utility.yul\":13846:13848   */\n              0x20\n                /* \"#utility.yul\":13835:13844   */\n              dup3\n                /* \"#utility.yul\":13831:13849   */\n              add\n                /* \"#utility.yul\":13823:13849   */\n              swap1\n              pop\n                /* \"#utility.yul\":13859:13950   */\n              tag_503\n                /* \"#utility.yul\":13947:13948   */\n              0x00\n                /* \"#utility.yul\":13936:13945   */\n              dup4\n                /* \"#utility.yul\":13932:13949   */\n              add\n                /* \"#utility.yul\":13923:13929   */\n              dup5\n                /* \"#utility.yul\":13859:13950   */\n              tag_321\n              jump\t// in\n            tag_503:\n                /* \"#utility.yul\":13695:13957   */\n              swap3\n              swap2\n              pop\n              pop\n              jump\t// out\n                /* \"#utility.yul\":13963:14134   */\n            tag_322:\n                /* \"#utility.yul\":14103:14126   */\n              0x41756374696f6e206e6f742066696e616c697a65640000000000000000000000\n                /* \"#utility.yul\":14099:14100   */\n              0x00\n                /* \"#utility.yul\":14091:14097   */\n              dup3\n                /* \"#utility.yul\":14087:14101   */\n              add\n                /* \"#utility.yul\":14080:14127   */\n              mstore\n                /* \"#utility.yul\":13963:14134   */\n              pop\n              jump\t// out\n                /* \"#utility.yul\":14140:14506   */\n            tag_323:\n                /* \"#utility.yul\":14282:14285   */\n              0x00\n                /* \"#utility.yul\":14303:14370   */\n              tag_506\n                /* \"#utility.yul\":14367:14369   */\n              0x15\n                /* \"#utility.yul\":14362:14365   */\n              dup4\n                /* \"#utility.yul\":14303:14370   */\n              tag_289\n              jump\t// in\n            tag_506:\n                /* \"#utility.yul\":14296:14370   */\n              swap2\n              pop\n                /* \"#utility.yul\":14379:14472   */\n              tag_507\n                /* \"#utility.yul\":14468:14471   */\n              dup3\n                /* \"#utility.yul\":14379:14472   */\n              tag_322\n              jump\t// in\n            tag_507:\n                /* \"#utility.yul\":14497:14499   */\n              0x20\n                /* \"#utility.yul\":14492:14495   */\n              dup3\n                /* \"#utility.yul\":14488:14500   */\n              add\n                /* \"#utility.yul\":14481:14500   */\n              swap1\n              pop\n                /* \"#utility.yul\":14140:14506   */\n              swap2\n              swap1\n              pop\n              jump\t// out\n                /* \"#utility.yul\":14512:14931   */\n            tag_117:\n                /* \"#utility.yul\":14678:14682   */\n              0x00\n                /* \"#utility.yul\":14716:14718   */\n              0x20\n                /* \"#utility.yul\":14705:14714   */\n              dup3\n                /* \"#utility.yul\":14701:14719   */\n              add\n                /* \"#utility.yul\":14693:14719   */\n              swap1\n              pop\n                /* \"#utility.yul\":14765:14774   */\n              dup2\n                /* \"#utility.yul\":14759:14763   */\n              dup2\n                /* \"#utility.yul\":14755:14775   */\n              sub\n                /* \"#utility.yul\":14751:14752   */\n              0x00\n                /* \"#utility.yul\":14740:14749   */\n              dup4\n                /* \"#utility.yul\":14736:14753   */\n              add\n                /* \"#utility.yul\":14729:14776   */\n              mstore\n                /* \"#utility.yul\":14793:14924   */\n              tag_509\n                /* \"#utility.yul\":14919:14923   */\n              dup2\n                /* \"#utility.yul\":14793:14924   */\n              tag_323\n              jump\t// in\n            tag_509:\n                /* \"#utility.yul\":14785:14924   */\n              swap1\n              pop\n                /* \"#utility.yul\":14512:14931   */\n              swap2\n              swap1\n              pop\n              jump\t// out\n                /* \"#utility.yul\":14937:15118   */\n            tag_324:\n                /* \"#utility.yul\":15077:15110   */\n              0x4f6e6c792077696e6e65722063616e2061636365737320746865206461746100\n                /* \"#utility.yul\":15073:15074   */\n              0x00\n                /* \"#utility.yul\":15065:15071   */\n              dup3\n                /* \"#utility.yul\":15061:15075   */\n              add\n                /* \"#utility.yul\":15054:15111   */\n              mstore\n                /* \"#utility.yul\":14937:15118   */\n              pop\n              jump\t// out\n                /* \"#utility.yul\":15124:15490   */\n            tag_325:\n                /* \"#utility.yul\":15266:15269   */\n              0x00\n                /* \"#utility.yul\":15287:15354   */\n              tag_512\n                /* \"#utility.yul\":15351:15353   */\n              0x1f\n                /* \"#utility.yul\":15346:15349   */\n              dup4\n                /* \"#utility.yul\":15287:15354   */\n              tag_289\n              jump\t// in\n            tag_512:\n                /* \"#utility.yul\":15280:15354   */\n              swap2\n              pop\n                /* \"#utility.yul\":15363:15456   */\n              tag_513\n                /* \"#utility.yul\":15452:15455   */\n              dup3\n                /* \"#utility.yul\":15363:15456   */\n              tag_324\n              jump\t// in\n            tag_513:\n                /* \"#utility.yul\":15481:15483   */\n              0x20\n                /* \"#utility.yul\":15476:15479   */\n              dup3\n                /* \"#utility.yul\":15472:15484   */\n              add\n                /* \"#utility.yul\":15465:15484   */\n              swap1\n              pop\n                /* \"#utility.yul\":15124:15490   */\n              swap2\n              swap1\n              pop\n              jump\t// out\n                /* \"#utility.yul\":15496:15915   */\n            tag_120:\n                /* \"#utility.yul\":15662:15666   */\n              0x00\n                /* \"#utility.yul\":15700:15702   */\n              0x20\n                /* \"#utility.yul\":15689:15698   */\n              dup3\n                /* \"#utility.yul\":15685:15703   */\n              add\n                /* \"#utility.yul\":15677:15703   */\n              swap1\n              pop\n                /* \"#utility.yul\":15749:15758   */\n              dup2\n                /* \"#utility.yul\":15743:15747   */\n              dup2\n                /* \"#utility.yul\":15739:15759   */\n              sub\n                /* \"#utility.yul\":15735:15736   */\n              0x00\n                /* \"#utility.yul\":15724:15733   */\n              dup4\n                /* \"#utility.yul\":15720:15737   */\n              add\n                /* \"#utility.yul\":15713:15760   */\n              mstore\n                /* \"#utility.yul\":15777:15908   */\n              tag_515\n                /* \"#utility.yul\":15903:15907   */\n              dup2\n                /* \"#utility.yul\":15777:15908   */\n              tag_325\n              jump\t// in\n            tag_515:\n                /* \"#utility.yul\":15769:15908   */\n              swap1\n              pop\n                /* \"#utility.yul\":15496:15915   */\n              swap2\n              swap1\n              pop\n              jump\t// out\n                /* \"#utility.yul\":15921:16101   */\n            tag_326:\n                /* \"#utility.yul\":15969:16046   */\n              0x4e487b7100000000000000000000000000000000000000000000000000000000\n                /* \"#utility.yul\":15966:15967   */\n              0x00\n                /* \"#utility.yul\":15959:16047   */\n              mstore\n                /* \"#utility.yul\":16066:16070   */\n              0x22\n                /* \"#utility.yul\":16063:16064   */\n              0x04\n                /* \"#utility.yul\":16056:16071   */\n              mstore\n                /* \"#utility.yul\":16090:16094   */\n              0x24\n                /* \"#utility.yul\":16087:16088   */\n              0x00\n                /* \"#utility.yul\":16080:16095   */\n              revert\n                /* \"#utility.yul\":16107:16427   */\n            tag_122:\n                /* \"#utility.yul\":16151:16157   */\n              0x00\n                /* \"#utility.yul\":16188:16189   */\n              0x02\n                /* \"#utility.yul\":16182:16186   */\n              dup3\n                /* \"#utility.yul\":16178:16190   */\n              div\n                /* \"#utility.yul\":16168:16190   */\n              swap1\n              pop\n                /* \"#utility.yul\":16235:16236   */\n              0x01\n                /* \"#utility.yul\":16229:16233   */\n              dup3\n                /* \"#utility.yul\":16225:16237   */\n              and\n                /* \"#utility.yul\":16256:16274   */\n              dup1\n                /* \"#utility.yul\":16246:16327   */\n              tag_518\n              jumpi\n                /* \"#utility.yul\":16312:16316   */\n              0x7f\n                /* \"#utility.yul\":16304:16310   */\n              dup3\n                /* \"#utility.yul\":16300:16317   */\n              and\n                /* \"#utility.yul\":16290:16317   */\n              swap2\n              pop\n                /* \"#utility.yul\":16246:16327   */\n            tag_518:\n                /* \"#utility.yul\":16374:16376   */\n              0x20\n                /* \"#utility.yul\":16366:16372   */\n              dup3\n                /* \"#utility.yul\":16363:16377   */\n              lt\n                /* \"#utility.yul\":16343:16361   */\n              dup2\n                /* \"#utility.yul\":16340:16378   */\n              sub\n                /* \"#utility.yul\":16337:16421   */\n              tag_519\n              jumpi\n                /* \"#utility.yul\":16393:16411   */\n              tag_520\n              tag_326\n              jump\t// in\n            tag_520:\n                /* \"#utility.yul\":16337:16421   */\n            tag_519:\n                /* \"#utility.yul\":16158:16427   */\n              pop\n                /* \"#utility.yul\":16107:16427   */\n              swap2\n              swap1\n              pop\n              jump\t// out\n                /* \"#utility.yul\":16433:16576   */\n            tag_327:\n                /* \"#utility.yul\":16490:16495   */\n              0x00\n                /* \"#utility.yul\":16521:16527   */\n              dup2\n                /* \"#utility.yul\":16515:16528   */\n              mload\n                /* \"#utility.yul\":16506:16528   */\n              swap1\n              pop\n                /* \"#utility.yul\":16537:16570   */\n              tag_522\n                /* \"#utility.yul\":16564:16569   */\n              dup2\n                /* \"#utility.yul\":16537:16570   */\n              tag_301\n              jump\t// in\n            tag_522:\n                /* \"#utility.yul\":16433:16576   */\n              swap3\n              swap2\n              pop\n              pop\n              jump\t// out\n                /* \"#utility.yul\":16582:16933   */\n            tag_132:\n                /* \"#utility.yul\":16652:16658   */\n              0x00\n                /* \"#utility.yul\":16701:16703   */\n              0x20\n                /* \"#utility.yul\":16689:16698   */\n              dup3\n                /* \"#utility.yul\":16680:16687   */\n              dup5\n                /* \"#utility.yul\":16676:16699   */\n              sub\n                /* \"#utility.yul\":16672:16704   */\n              slt\n                /* \"#utility.yul\":16669:16788   */\n              iszero\n              tag_524\n              jumpi\n                /* \"#utility.yul\":16707:16786   */\n              tag_525\n              tag_278\n              jump\t// in\n            tag_525:\n                /* \"#utility.yul\":16669:16788   */\n            tag_524:\n                /* \"#utility.yul\":16827:16828   */\n              0x00\n                /* \"#utility.yul\":16852:16916   */\n              tag_526\n                /* \"#utility.yul\":16908:16915   */\n              dup5\n                /* \"#utility.yul\":16899:16905   */\n              dup3\n                /* \"#utility.yul\":16888:16897   */\n              dup6\n                /* \"#utility.yul\":16884:16906   */\n              add\n                /* \"#utility.yul\":16852:16916   */\n              tag_327\n              jump\t// in\n            tag_526:\n                /* \"#utility.yul\":16842:16916   */\n              swap2\n              pop\n                /* \"#utility.yul\":16798:16926   */\n              pop\n                /* \"#utility.yul\":16582:16933   */\n              swap3\n              swap2\n              pop\n              pop\n              jump\t// out\n                /* \"#utility.yul\":16939:17381   */\n            tag_158:\n                /* \"#utility.yul\":17088:17092   */\n              0x00\n                /* \"#utility.yul\":17126:17128   */\n              0x60\n                /* \"#utility.yul\":17115:17124   */\n              dup3\n                /* \"#utility.yul\":17111:17129   */\n              add\n                /* \"#utility.yul\":17103:17129   */\n              swap1\n              pop\n                /* \"#utility.yul\":17139:17210   */\n              tag_528\n                /* \"#utility.yul\":17207:17208   */\n              0x00\n                /* \"#utility.yul\":17196:17205   */\n              dup4\n                /* \"#utility.yul\":17192:17209   */\n              add\n                /* \"#utility.yul\":17183:17189   */\n              dup7\n                /* \"#utility.yul\":17139:17210   */\n              tag_287\n              jump\t// in\n            tag_528:\n                /* \"#utility.yul\":17220:17292   */\n              tag_529\n                /* \"#utility.yul\":17288:17290   */\n              0x20\n                /* \"#utility.yul\":17277:17286   */\n              dup4\n                /* \"#utility.yul\":17273:17291   */\n              add\n                /* \"#utility.yul\":17264:17270   */\n              dup6\n                /* \"#utility.yul\":17220:17292   */\n              tag_287\n              jump\t// in\n            tag_529:\n                /* \"#utility.yul\":17302:17374   */\n              tag_530\n                /* \"#utility.yul\":17370:17372   */\n              0x40\n                /* \"#utility.yul\":17359:17368   */\n              dup4\n                /* \"#utility.yul\":17355:17373   */\n              add\n                /* \"#utility.yul\":17346:17352   */\n              dup5\n                /* \"#utility.yul\":17302:17374   */\n              tag_287\n              jump\t// in\n            tag_530:\n                /* \"#utility.yul\":16939:17381   */\n              swap5\n              swap4\n              pop\n              pop\n              pop\n              pop\n              jump\t// out\n                /* \"#utility.yul\":17387:17499   */\n            tag_328:\n                /* \"#utility.yul\":17470:17492   */\n              tag_532\n                /* \"#utility.yul\":17486:17491   */\n              dup2\n                /* \"#utility.yul\":17470:17492   */\n              tag_303\n              jump\t// in\n            tag_532:\n                /* \"#utility.yul\":17465:17468   */\n              dup3\n                /* \"#utility.yul\":17458:17493   */\n              mstore\n                /* \"#utility.yul\":17387:17499   */\n              pop\n              pop\n              jump\t// out\n                /* \"#utility.yul\":17505:17623   */\n            tag_329:\n                /* \"#utility.yul\":17592:17616   */\n              tag_534\n                /* \"#utility.yul\":17610:17615   */\n              dup2\n                /* \"#utility.yul\":17592:17616   */\n              tag_306\n              jump\t// in\n            tag_534:\n                /* \"#utility.yul\":17587:17590   */\n              dup3\n                /* \"#utility.yul\":17580:17617   */\n              mstore\n                /* \"#utility.yul\":17505:17623   */\n              pop\n              pop\n              jump\t// out\n                /* \"#utility.yul\":17629:18507   */\n            tag_160:\n                /* \"#utility.yul\":17886:17890   */\n              0x00\n                /* \"#utility.yul\":17924:17927   */\n              0xe0\n                /* \"#utility.yul\":17913:17922   */\n              dup3\n                /* \"#utility.yul\":17909:17928   */\n              add\n                /* \"#utility.yul\":17901:17928   */\n              swap1\n              pop\n                /* \"#utility.yul\":17938:18009   */\n              tag_536\n                /* \"#utility.yul\":18006:18007   */\n              0x00\n                /* \"#utility.yul\":17995:18004   */\n              dup4\n                /* \"#utility.yul\":17991:18008   */\n              add\n                /* \"#utility.yul\":17982:17988   */\n              dup11\n                /* \"#utility.yul\":17938:18009   */\n              tag_293\n              jump\t// in\n            tag_536:\n                /* \"#utility.yul\":18019:18091   */\n              tag_537\n                /* \"#utility.yul\":18087:18089   */\n              0x20\n                /* \"#utility.yul\":18076:18085   */\n              dup4\n                /* \"#utility.yul\":18072:18090   */\n              add\n                /* \"#utility.yul\":18063:18069   */\n              dup10\n                /* \"#utility.yul\":18019:18091   */\n              tag_293\n              jump\t// in\n            tag_537:\n                /* \"#utility.yul\":18101:18173   */\n              tag_538\n                /* \"#utility.yul\":18169:18171   */\n              0x40\n                /* \"#utility.yul\":18158:18167   */\n              dup4\n                /* \"#utility.yul\":18154:18172   */\n              add\n                /* \"#utility.yul\":18145:18151   */\n              dup9\n                /* \"#utility.yul\":18101:18173   */\n              tag_287\n              jump\t// in\n            tag_538:\n                /* \"#utility.yul\":18183:18255   */\n              tag_539\n                /* \"#utility.yul\":18251:18253   */\n              0x60\n                /* \"#utility.yul\":18240:18249   */\n              dup4\n                /* \"#utility.yul\":18236:18254   */\n              add\n                /* \"#utility.yul\":18227:18233   */\n              dup8\n                /* \"#utility.yul\":18183:18255   */\n              tag_287\n              jump\t// in\n            tag_539:\n                /* \"#utility.yul\":18265:18334   */\n              tag_540\n                /* \"#utility.yul\":18329:18332   */\n              0x80\n                /* \"#utility.yul\":18318:18327   */\n              dup4\n                /* \"#utility.yul\":18314:18333   */\n              add\n                /* \"#utility.yul\":18305:18311   */\n              dup7\n                /* \"#utility.yul\":18265:18334   */\n              tag_328\n              jump\t// in\n            tag_540:\n                /* \"#utility.yul\":18344:18417   */\n              tag_541\n                /* \"#utility.yul\":18412:18415   */\n              0xa0\n                /* \"#utility.yul\":18401:18410   */\n              dup4\n                /* \"#utility.yul\":18397:18416   */\n              add\n                /* \"#utility.yul\":18388:18394   */\n              dup6\n                /* \"#utility.yul\":18344:18417   */\n              tag_329\n              jump\t// in\n            tag_541:\n                /* \"#utility.yul\":18427:18500   */\n              tag_542\n                /* \"#utility.yul\":18495:18498   */\n              0xc0\n                /* \"#utility.yul\":18484:18493   */\n              dup4\n                /* \"#utility.yul\":18480:18499   */\n              add\n                /* \"#utility.yul\":18471:18477   */\n              dup5\n                /* \"#utility.yul\":18427:18500   */\n              tag_329\n              jump\t// in\n            tag_542:\n                /* \"#utility.yul\":17629:18507   */\n              swap9\n              swap8\n              pop\n              pop\n              pop\n              pop\n              pop\n              pop\n              pop\n              pop\n              jump\t// out\n                /* \"#utility.yul\":18513:18619   */\n            tag_330:\n                /* \"#utility.yul\":18557:18565   */\n              0x00\n                /* \"#utility.yul\":18606:18611   */\n              dup2\n                /* \"#utility.yul\":18601:18604   */\n              0xe0\n                /* \"#utility.yul\":18597:18612   */\n              shr\n                /* \"#utility.yul\":18576:18612   */\n              swap1\n              pop\n                /* \"#utility.yul\":18513:18619   */\n              swap2\n              swap1\n              pop\n              jump\t// out\n                /* \"#utility.yul\":18625:18808   */\n            tag_168:\n                /* \"#utility.yul\":18660:18663   */\n              0x00\n                /* \"#utility.yul\":18698:18699   */\n              0x03\n                /* \"#utility.yul\":18680:18696   */\n              returndatasize\n                /* \"#utility.yul\":18677:18700   */\n              gt\n                /* \"#utility.yul\":18674:18802   */\n              iszero\n              tag_545\n              jumpi\n                /* \"#utility.yul\":18736:18737   */\n              0x04\n                /* \"#utility.yul\":18733:18734   */\n              0x00\n                /* \"#utility.yul\":18730:18731   */\n              0x00\n                /* \"#utility.yul\":18715:18738   */\n              returndatacopy\n                /* \"#utility.yul\":18758:18792   */\n              tag_546\n                /* \"#utility.yul\":18789:18790   */\n              0x00\n                /* \"#utility.yul\":18783:18791   */\n              mload\n                /* \"#utility.yul\":18758:18792   */\n              tag_330\n              jump\t// in\n            tag_546:\n                /* \"#utility.yul\":18751:18792   */\n              swap1\n              pop\n                /* \"#utility.yul\":18674:18802   */\n            tag_545:\n                /* \"#utility.yul\":18625:18808   */\n              swap1\n              jump\t// out\n                /* \"#utility.yul\":18814:18994   */\n            tag_331:\n                /* \"#utility.yul\":18862:18939   */\n              0x4e487b7100000000000000000000000000000000000000000000000000000000\n                /* \"#utility.yul\":18859:18860   */\n              0x00\n                /* \"#utility.yul\":18852:18940   */\n              mstore\n                /* \"#utility.yul\":18959:18963   */\n              0x41\n                /* \"#utility.yul\":18956:18957   */\n              0x04\n                /* \"#utility.yul\":18949:18964   */\n              mstore\n                /* \"#utility.yul\":18983:18987   */\n              0x24\n                /* \"#utility.yul\":18980:18981   */\n              0x00\n                /* \"#utility.yul\":18973:18988   */\n              revert\n                /* \"#utility.yul\":19000:19281   */\n            tag_332:\n                /* \"#utility.yul\":19083:19110   */\n              tag_549\n                /* \"#utility.yul\":19105:19109   */\n              dup3\n                /* \"#utility.yul\":19083:19110   */\n              tag_291\n              jump\t// in\n            tag_549:\n                /* \"#utility.yul\":19075:19081   */\n              dup2\n                /* \"#utility.yul\":19071:19111   */\n              add\n                /* \"#utility.yul\":19213:19219   */\n              dup2\n                /* \"#utility.yul\":19201:19211   */\n              dup2\n                /* \"#utility.yul\":19198:19220   */\n              lt\n                /* \"#utility.yul\":19177:19195   */\n              0xffffffffffffffff\n                /* \"#utility.yul\":19165:19175   */\n              dup3\n                /* \"#utility.yul\":19162:19196   */\n              gt\n                /* \"#utility.yul\":19159:19221   */\n              or\n                /* \"#utility.yul\":19156:19244   */\n              iszero\n              tag_550\n              jumpi\n                /* \"#utility.yul\":19224:19242   */\n              tag_551\n              tag_331\n              jump\t// in\n            tag_551:\n                /* \"#utility.yul\":19156:19244   */\n            tag_550:\n                /* \"#utility.yul\":19264:19274   */\n              dup1\n                /* \"#utility.yul\":19260:19262   */\n              0x40\n                /* \"#utility.yul\":19253:19275   */\n              mstore\n                /* \"#utility.yul\":19043:19281   */\n              pop\n                /* \"#utility.yul\":19000:19281   */\n              pop\n              pop\n              jump\t// out\n                /* \"#utility.yul\":19287:19998   */\n            tag_170:\n                /* \"#utility.yul\":19326:19329   */\n              0x00\n                /* \"#utility.yul\":19364:19368   */\n              0x44\n                /* \"#utility.yul\":19346:19362   */\n              returndatasize\n                /* \"#utility.yul\":19343:19369   */\n              lt\n                /* \"#utility.yul\":19372:19377   */\n              tag_552\n                /* \"#utility.yul\":19340:19379   */\n              jumpi\n                /* \"#utility.yul\":19401:19421   */\n              tag_554\n              tag_277\n              jump\t// in\n            tag_554:\n                /* \"#utility.yul\":19476:19477   */\n              0x04\n                /* \"#utility.yul\":19458:19474   */\n              returndatasize\n                /* \"#utility.yul\":19454:19478   */\n              sub\n                /* \"#utility.yul\":19451:19452   */\n              0x04\n                /* \"#utility.yul\":19445:19449   */\n              dup3\n                /* \"#utility.yul\":19430:19479   */\n              returndatacopy\n                /* \"#utility.yul\":19509:19513   */\n              dup1\n                /* \"#utility.yul\":19503:19514   */\n              mload\n                /* \"#utility.yul\":19608:19624   */\n              returndatasize\n                /* \"#utility.yul\":19601:19605   */\n              0x24\n                /* \"#utility.yul\":19593:19599   */\n              dup3\n                /* \"#utility.yul\":19589:19606   */\n              add\n                /* \"#utility.yul\":19586:19625   */\n              gt\n                /* \"#utility.yul\":19553:19571   */\n              0xffffffffffffffff\n                /* \"#utility.yul\":19545:19551   */\n              dup3\n                /* \"#utility.yul\":19542:19572   */\n              gt\n                /* \"#utility.yul\":19526:19639   */\n              or\n                /* \"#utility.yul\":19523:19669   */\n              iszero\n              tag_555\n              jumpi\n                /* \"#utility.yul\":19654:19659   */\n              pop\n              pop\n              jump(tag_552)\n                /* \"#utility.yul\":19523:19669   */\n            tag_555:\n                /* \"#utility.yul\":19700:19706   */\n              dup1\n                /* \"#utility.yul\":19694:19698   */\n              dup3\n                /* \"#utility.yul\":19690:19707   */\n              add\n                /* \"#utility.yul\":19736:19739   */\n              dup1\n                /* \"#utility.yul\":19730:19740   */\n              mload\n                /* \"#utility.yul\":19763:19781   */\n              0xffffffffffffffff\n                /* \"#utility.yul\":19755:19761   */\n              dup2\n                /* \"#utility.yul\":19752:19782   */\n              gt\n                /* \"#utility.yul\":19749:19792   */\n              iszero\n              tag_556\n              jumpi\n                /* \"#utility.yul\":19785:19790   */\n              pop\n              pop\n              pop\n              pop\n              jump(tag_552)\n                /* \"#utility.yul\":19749:19792   */\n            tag_556:\n                /* \"#utility.yul\":19833:19839   */\n              dup1\n                /* \"#utility.yul\":19826:19830   */\n              0x20\n                /* \"#utility.yul\":19821:19824   */\n              dup4\n                /* \"#utility.yul\":19817:19831   */\n              add\n                /* \"#utility.yul\":19813:19840   */\n              add\n                /* \"#utility.yul\":19892:19893   */\n              0x04\n                /* \"#utility.yul\":19874:19890   */\n              returndatasize\n                /* \"#utility.yul\":19870:19894   */\n              sub\n                /* \"#utility.yul\":19864:19868   */\n              dup6\n                /* \"#utility.yul\":19860:19895   */\n              add\n                /* \"#utility.yul\":19855:19858   */\n              dup2\n                /* \"#utility.yul\":19852:19896   */\n              gt\n                /* \"#utility.yul\":19849:19906   */\n              iszero\n              tag_557\n              jumpi\n                /* \"#utility.yul\":19899:19904   */\n              pop\n              pop\n              pop\n              pop\n              pop\n              jump(tag_552)\n                /* \"#utility.yul\":19849:19906   */\n            tag_557:\n                /* \"#utility.yul\":19916:19973   */\n              tag_558\n                /* \"#utility.yul\":19964:19970   */\n              dup3\n                /* \"#utility.yul\":19958:19962   */\n              0x20\n                /* \"#utility.yul\":19954:19971   */\n              add\n                /* \"#utility.yul\":19946:19952   */\n              dup6\n                /* \"#utility.yul\":19942:19972   */\n              add\n                /* \"#utility.yul\":19936:19940   */\n              dup7\n                /* \"#utility.yul\":19916:19973   */\n              tag_332\n              jump\t// in\n            tag_558:\n                /* \"#utility.yul\":19989:19992   */\n              dup3\n                /* \"#utility.yul\":19982:19992   */\n              swap6\n              pop\n                /* \"#utility.yul\":19330:19998   */\n              pop\n              pop\n              pop\n              pop\n              pop\n                /* \"#utility.yul\":19287:19998   */\n            tag_552:\n              swap1\n              jump\t// out\n                /* \"#utility.yul\":20004:20152   */\n            tag_333:\n                /* \"#utility.yul\":20106:20117   */\n              0x00\n                /* \"#utility.yul\":20143:20146   */\n              dup2\n                /* \"#utility.yul\":20128:20146   */\n              swap1\n              pop\n                /* \"#utility.yul\":20004:20152   */\n              swap3\n              swap2\n              pop\n              pop\n              jump\t// out\n                /* \"#utility.yul\":20158:20323   */\n            tag_334:\n                /* \"#utility.yul\":20298:20315   */\n              0x5065726d6974206661696c65643a200000000000000000000000000000000000\n                /* \"#utility.yul\":20294:20295   */\n              0x00\n                /* \"#utility.yul\":20286:20292   */\n              dup3\n                /* \"#utility.yul\":20282:20296   */\n              add\n                /* \"#utility.yul\":20275:20316   */\n              mstore\n                /* \"#utility.yul\":20158:20323   */\n              pop\n              jump\t// out\n                /* \"#utility.yul\":20329:20731   */\n            tag_335:\n                /* \"#utility.yul\":20489:20492   */\n              0x00\n                /* \"#utility.yul\":20510:20595   */\n              tag_562\n                /* \"#utility.yul\":20592:20594   */\n              0x0f\n                /* \"#utility.yul\":20587:20590   */\n              dup4\n                /* \"#utility.yul\":20510:20595   */\n              tag_333\n              jump\t// in\n            tag_562:\n                /* \"#utility.yul\":20503:20595   */\n              swap2\n              pop\n                /* \"#utility.yul\":20604:20697   */\n              tag_563\n                /* \"#utility.yul\":20693:20696   */\n              dup3\n                /* \"#utility.yul\":20604:20697   */\n              tag_334\n              jump\t// in\n            tag_563:\n                /* \"#utility.yul\":20722:20724   */\n              0x0f\n                /* \"#utility.yul\":20717:20720   */\n              dup3\n                /* \"#utility.yul\":20713:20725   */\n              add\n                /* \"#utility.yul\":20706:20725   */\n              swap1\n              pop\n                /* \"#utility.yul\":20329:20731   */\n              swap2\n              swap1\n              pop\n              jump\t// out\n                /* \"#utility.yul\":20737:21127   */\n            tag_336:\n                /* \"#utility.yul\":20843:20846   */\n              0x00\n                /* \"#utility.yul\":20871:20910   */\n              tag_565\n                /* \"#utility.yul\":20904:20909   */\n              dup3\n                /* \"#utility.yul\":20871:20910   */\n              tag_288\n              jump\t// in\n            tag_565:\n                /* \"#utility.yul\":20926:21015   */\n              tag_566\n                /* \"#utility.yul\":21008:21014   */\n              dup2\n                /* \"#utility.yul\":21003:21006   */\n              dup6\n                /* \"#utility.yul\":20926:21015   */\n              tag_333\n              jump\t// in\n            tag_566:\n                /* \"#utility.yul\":20919:21015   */\n              swap4\n              pop\n                /* \"#utility.yul\":21024:21089   */\n              tag_567\n                /* \"#utility.yul\":21082:21088   */\n              dup2\n                /* \"#utility.yul\":21077:21080   */\n              dup6\n                /* \"#utility.yul\":21070:21074   */\n              0x20\n                /* \"#utility.yul\":21063:21068   */\n              dup7\n                /* \"#utility.yul\":21059:21075   */\n              add\n                /* \"#utility.yul\":21024:21089   */\n              tag_290\n              jump\t// in\n            tag_567:\n                /* \"#utility.yul\":21114:21120   */\n              dup1\n                /* \"#utility.yul\":21109:21112   */\n              dup5\n                /* \"#utility.yul\":21105:21121   */\n              add\n                /* \"#utility.yul\":21098:21121   */\n              swap2\n              pop\n                /* \"#utility.yul\":20847:21127   */\n              pop\n                /* \"#utility.yul\":20737:21127   */\n              swap3\n              swap2\n              pop\n              pop\n              jump\t// out\n                /* \"#utility.yul\":21133:21674   */\n            tag_174:\n                /* \"#utility.yul\":21366:21369   */\n              0x00\n                /* \"#utility.yul\":21388:21536   */\n              tag_569\n                /* \"#utility.yul\":21532:21535   */\n              dup3\n                /* \"#utility.yul\":21388:21536   */\n              tag_335\n              jump\t// in\n            tag_569:\n                /* \"#utility.yul\":21381:21536   */\n              swap2\n              pop\n                /* \"#utility.yul\":21553:21648   */\n              tag_570\n                /* \"#utility.yul\":21644:21647   */\n              dup3\n                /* \"#utility.yul\":21635:21641   */\n              dup5\n                /* \"#utility.yul\":21553:21648   */\n              tag_336\n              jump\t// in\n            tag_570:\n                /* \"#utility.yul\":21546:21648   */\n              swap2\n              pop\n                /* \"#utility.yul\":21665:21668   */\n              dup2\n                /* \"#utility.yul\":21658:21668   */\n              swap1\n              pop\n                /* \"#utility.yul\":21133:21674   */\n              swap3\n              swap2\n              pop\n              pop\n              jump\t// out\n                /* \"#utility.yul\":21680:21843   */\n            tag_337:\n                /* \"#utility.yul\":21820:21835   */\n              0x556e6b6e6f776e206572726f7200000000000000000000000000000000000000\n                /* \"#utility.yul\":21816:21817   */\n              0x00\n                /* \"#utility.yul\":21808:21814   */\n              dup3\n                /* \"#utility.yul\":21804:21818   */\n              add\n                /* \"#utility.yul\":21797:21836   */\n              mstore\n                /* \"#utility.yul\":21680:21843   */\n              pop\n              jump\t// out\n                /* \"#utility.yul\":21849:22215   */\n            tag_338:\n                /* \"#utility.yul\":21991:21994   */\n              0x00\n                /* \"#utility.yul\":22012:22079   */\n              tag_573\n                /* \"#utility.yul\":22076:22078   */\n              0x0d\n                /* \"#utility.yul\":22071:22074   */\n              dup4\n                /* \"#utility.yul\":22012:22079   */\n              tag_289\n              jump\t// in\n            tag_573:\n                /* \"#utility.yul\":22005:22079   */\n              swap2\n              pop\n                /* \"#utility.yul\":22088:22181   */\n              tag_574\n                /* \"#utility.yul\":22177:22180   */\n              dup3\n                /* \"#utility.yul\":22088:22181   */\n              tag_337\n              jump\t// in\n            tag_574:\n                /* \"#utility.yul\":22206:22208   */\n              0x20\n                /* \"#utility.yul\":22201:22204   */\n              dup3\n                /* \"#utility.yul\":22197:22209   */\n              add\n                /* \"#utility.yul\":22190:22209   */\n              swap1\n              pop\n                /* \"#utility.yul\":21849:22215   */\n              swap2\n              swap1\n              pop\n              jump\t// out\n                /* \"#utility.yul\":22221:22640   */\n            tag_177:\n                /* \"#utility.yul\":22387:22391   */\n              0x00\n                /* \"#utility.yul\":22425:22427   */\n              0x20\n                /* \"#utility.yul\":22414:22423   */\n              dup3\n                /* \"#utility.yul\":22410:22428   */\n              add\n                /* \"#utility.yul\":22402:22428   */\n              swap1\n              pop\n                /* \"#utility.yul\":22474:22483   */\n              dup2\n                /* \"#utility.yul\":22468:22472   */\n              dup2\n                /* \"#utility.yul\":22464:22484   */\n              sub\n                /* \"#utility.yul\":22460:22461   */\n              0x00\n                /* \"#utility.yul\":22449:22458   */\n              dup4\n                /* \"#utility.yul\":22445:22462   */\n              add\n                /* \"#utility.yul\":22438:22485   */\n              mstore\n                /* \"#utility.yul\":22502:22633   */\n              tag_576\n                /* \"#utility.yul\":22628:22632   */\n              dup2\n                /* \"#utility.yul\":22502:22633   */\n              tag_338\n              jump\t// in\n            tag_576:\n                /* \"#utility.yul\":22494:22633   */\n              swap1\n              pop\n                /* \"#utility.yul\":22221:22640   */\n              swap2\n              swap1\n              pop\n              jump\t// out\n                /* \"#utility.yul\":22646:22824   */\n            tag_339:\n                /* \"#utility.yul\":22786:22816   */\n              0x5065726d6974206661696c65643a20756e6b6e6f776e206572726f7200000000\n                /* \"#utility.yul\":22782:22783   */\n              0x00\n                /* \"#utility.yul\":22774:22780   */\n              dup3\n                /* \"#utility.yul\":22770:22784   */\n              add\n                /* \"#utility.yul\":22763:22817   */\n              mstore\n                /* \"#utility.yul\":22646:22824   */\n              pop\n              jump\t// out\n                /* \"#utility.yul\":22830:23196   */\n            tag_340:\n                /* \"#utility.yul\":22972:22975   */\n              0x00\n                /* \"#utility.yul\":22993:23060   */\n              tag_579\n                /* \"#utility.yul\":23057:23059   */\n              0x1c\n                /* \"#utility.yul\":23052:23055   */\n              dup4\n                /* \"#utility.yul\":22993:23060   */\n              tag_289\n              jump\t// in\n            tag_579:\n                /* \"#utility.yul\":22986:23060   */\n              swap2\n              pop\n                /* \"#utility.yul\":23069:23162   */\n              tag_580\n                /* \"#utility.yul\":23158:23161   */\n              dup3\n                /* \"#utility.yul\":23069:23162   */\n              tag_339\n              jump\t// in\n            tag_580:\n                /* \"#utility.yul\":23187:23189   */\n              0x20\n                /* \"#utility.yul\":23182:23185   */\n              dup3\n                /* \"#utility.yul\":23178:23190   */\n              add\n                /* \"#utility.yul\":23171:23190   */\n              swap1\n              pop\n                /* \"#utility.yul\":22830:23196   */\n              swap2\n              swap1\n              pop\n              jump\t// out\n                /* \"#utility.yul\":23202:23621   */\n            tag_179:\n                /* \"#utility.yul\":23368:23372   */\n              0x00\n                /* \"#utility.yul\":23406:23408   */\n              0x20\n                /* \"#utility.yul\":23395:23404   */\n              dup3\n                /* \"#utility.yul\":23391:23409   */\n              add\n                /* \"#utility.yul\":23383:23409   */\n              swap1\n              pop\n                /* \"#utility.yul\":23455:23464   */\n              dup2\n                /* \"#utility.yul\":23449:23453   */\n              dup2\n                /* \"#utility.yul\":23445:23465   */\n              sub\n                /* \"#utility.yul\":23441:23442   */\n              0x00\n                /* \"#utility.yul\":23430:23439   */\n              dup4\n                /* \"#utility.yul\":23426:23443   */\n              add\n                /* \"#utility.yul\":23419:23466   */\n              mstore\n                /* \"#utility.yul\":23483:23614   */\n              tag_582\n                /* \"#utility.yul\":23609:23613   */\n              dup2\n                /* \"#utility.yul\":23483:23614   */\n              tag_340\n              jump\t// in\n            tag_582:\n                /* \"#utility.yul\":23475:23614   */\n              swap1\n              pop\n                /* \"#utility.yul\":23202:23621   */\n              swap2\n              swap1\n              pop\n              jump\t// out\n                /* \"#utility.yul\":23627:23959   */\n            tag_182:\n                /* \"#utility.yul\":23748:23752   */\n              0x00\n                /* \"#utility.yul\":23786:23788   */\n              0x40\n                /* \"#utility.yul\":23775:23784   */\n              dup3\n                /* \"#utility.yul\":23771:23789   */\n              add\n                /* \"#utility.yul\":23763:23789   */\n              swap1\n              pop\n                /* \"#utility.yul\":23799:23870   */\n              tag_584\n                /* \"#utility.yul\":23867:23868   */\n              0x00\n                /* \"#utility.yul\":23856:23865   */\n              dup4\n                /* \"#utility.yul\":23852:23869   */\n              add\n                /* \"#utility.yul\":23843:23849   */\n              dup6\n                /* \"#utility.yul\":23799:23870   */\n              tag_293\n              jump\t// in\n            tag_584:\n                /* \"#utility.yul\":23880:23952   */\n              tag_585\n                /* \"#utility.yul\":23948:23950   */\n              0x20\n                /* \"#utility.yul\":23937:23946   */\n              dup4\n                /* \"#utility.yul\":23933:23951   */\n              add\n                /* \"#utility.yul\":23924:23930   */\n              dup5\n                /* \"#utility.yul\":23880:23952   */\n              tag_293\n              jump\t// in\n            tag_585:\n                /* \"#utility.yul\":23627:23959   */\n              swap4\n              swap3\n              pop\n              pop\n              pop\n              jump\t// out\n                /* \"#utility.yul\":23965:24297   */\n            tag_187:\n                /* \"#utility.yul\":24086:24090   */\n              0x00\n                /* \"#utility.yul\":24124:24126   */\n              0x40\n                /* \"#utility.yul\":24113:24122   */\n              dup3\n                /* \"#utility.yul\":24109:24127   */\n              add\n                /* \"#utility.yul\":24101:24127   */\n              swap1\n              pop\n                /* \"#utility.yul\":24137:24208   */\n              tag_587\n                /* \"#utility.yul\":24205:24206   */\n              0x00\n                /* \"#utility.yul\":24194:24203   */\n              dup4\n                /* \"#utility.yul\":24190:24207   */\n              add\n                /* \"#utility.yul\":24181:24187   */\n              dup6\n                /* \"#utility.yul\":24137:24208   */\n              tag_287\n              jump\t// in\n            tag_587:\n                /* \"#utility.yul\":24218:24290   */\n              tag_588\n                /* \"#utility.yul\":24286:24288   */\n              0x20\n                /* \"#utility.yul\":24275:24284   */\n              dup4\n                /* \"#utility.yul\":24271:24289   */\n              add\n                /* \"#utility.yul\":24262:24268   */\n              dup5\n                /* \"#utility.yul\":24218:24290   */\n              tag_287\n              jump\t// in\n            tag_588:\n                /* \"#utility.yul\":23965:24297   */\n              swap4\n              swap3\n              pop\n              pop\n              pop\n              jump\t// out\n                /* \"#utility.yul\":24303:24525   */\n            tag_341:\n                /* \"#utility.yul\":24443:24477   */\n              0x416c6c6f77616e636520776173206e6f74207570646174656420627920706572\n                /* \"#utility.yul\":24439:24440   */\n              0x00\n                /* \"#utility.yul\":24431:24437   */\n              dup3\n                /* \"#utility.yul\":24427:24441   */\n              add\n                /* \"#utility.yul\":24420:24478   */\n              mstore\n                /* \"#utility.yul\":24512:24517   */\n              0x6d69740000000000000000000000000000000000000000000000000000000000\n                /* \"#utility.yul\":24507:24509   */\n              0x20\n                /* \"#utility.yul\":24499:24505   */\n              dup3\n                /* \"#utility.yul\":24495:24510   */\n              add\n                /* \"#utility.yul\":24488:24518   */\n              mstore\n                /* \"#utility.yul\":24303:24525   */\n              pop\n              jump\t// out\n                /* \"#utility.yul\":24531:24897   */\n            tag_342:\n                /* \"#utility.yul\":24673:24676   */\n              0x00\n                /* \"#utility.yul\":24694:24761   */\n              tag_591\n                /* \"#utility.yul\":24758:24760   */\n              0x23\n                /* \"#utility.yul\":24753:24756   */\n              dup4\n                /* \"#utility.yul\":24694:24761   */\n              tag_289\n              jump\t// in\n            tag_591:\n                /* \"#utility.yul\":24687:24761   */\n              swap2\n              pop\n                /* \"#utility.yul\":24770:24863   */\n              tag_592\n                /* \"#utility.yul\":24859:24862   */\n              dup3\n                /* \"#utility.yul\":24770:24863   */\n              tag_341\n              jump\t// in\n            tag_592:\n                /* \"#utility.yul\":24888:24890   */\n              0x40\n                /* \"#utility.yul\":24883:24886   */\n              dup3\n                /* \"#utility.yul\":24879:24891   */\n              add\n                /* \"#utility.yul\":24872:24891   */\n              swap1\n              pop\n                /* \"#utility.yul\":24531:24897   */\n              swap2\n              swap1\n              pop\n              jump\t// out\n                /* \"#utility.yul\":24903:25322   */\n            tag_190:\n                /* \"#utility.yul\":25069:25073   */\n              0x00\n                /* \"#utility.yul\":25107:25109   */\n              0x20\n                /* \"#utility.yul\":25096:25105   */\n              dup3\n                /* \"#utility.yul\":25092:25110   */\n              add\n                /* \"#utility.yul\":25084:25110   */\n              swap1\n              pop\n                /* \"#utility.yul\":25156:25165   */\n              dup2\n                /* \"#utility.yul\":25150:25154   */\n              dup2\n                /* \"#utility.yul\":25146:25166   */\n              sub\n                /* \"#utility.yul\":25142:25143   */\n              0x00\n                /* \"#utility.yul\":25131:25140   */\n              dup4\n                /* \"#utility.yul\":25127:25144   */\n              add\n                /* \"#utility.yul\":25120:25167   */\n              mstore\n                /* \"#utility.yul\":25184:25315   */\n              tag_594\n                /* \"#utility.yul\":25310:25314   */\n              dup2\n                /* \"#utility.yul\":25184:25315   */\n              tag_342\n              jump\t// in\n            tag_594:\n                /* \"#utility.yul\":25176:25315   */\n              swap1\n              pop\n                /* \"#utility.yul\":24903:25322   */\n              swap2\n              swap1\n              pop\n              jump\t// out\n                /* \"#utility.yul\":25328:25660   */\n            tag_193:\n                /* \"#utility.yul\":25449:25453   */\n              0x00\n                /* \"#utility.yul\":25487:25489   */\n              0x40\n                /* \"#utility.yul\":25476:25485   */\n              dup3\n                /* \"#utility.yul\":25472:25490   */\n              add\n                /* \"#utility.yul\":25464:25490   */\n              swap1\n              pop\n                /* \"#utility.yul\":25500:25571   */\n              tag_596\n                /* \"#utility.yul\":25568:25569   */\n              0x00\n                /* \"#utility.yul\":25557:25566   */\n              dup4\n                /* \"#utility.yul\":25553:25570   */\n              add\n                /* \"#utility.yul\":25544:25550   */\n              dup6\n                /* \"#utility.yul\":25500:25571   */\n              tag_293\n              jump\t// in\n            tag_596:\n                /* \"#utility.yul\":25581:25653   */\n              tag_597\n                /* \"#utility.yul\":25649:25651   */\n              0x20\n                /* \"#utility.yul\":25638:25647   */\n              dup4\n                /* \"#utility.yul\":25634:25652   */\n              add\n                /* \"#utility.yul\":25625:25631   */\n              dup5\n                /* \"#utility.yul\":25581:25653   */\n              tag_287\n              jump\t// in\n            tag_597:\n                /* \"#utility.yul\":25328:25660   */\n              swap4\n              swap3\n              pop\n              pop\n              pop\n              jump\t// out\n                /* \"#utility.yul\":25666:25837   */\n            tag_343:\n                /* \"#utility.yul\":25806:25829   */\n              0x41756374696f6e206e6f7420656e646564207965740000000000000000000000\n                /* \"#utility.yul\":25802:25803   */\n              0x00\n                /* \"#utility.yul\":25794:25800   */\n              dup3\n                /* \"#utility.yul\":25790:25804   */\n              add\n                /* \"#utility.yul\":25783:25830   */\n              mstore\n                /* \"#utility.yul\":25666:25837   */\n              pop\n              jump\t// out\n                /* \"#utility.yul\":25843:26209   */\n            tag_344:\n                /* \"#utility.yul\":25985:25988   */\n              0x00\n                /* \"#utility.yul\":26006:26073   */\n              tag_600\n                /* \"#utility.yul\":26070:26072   */\n              0x15\n                /* \"#utility.yul\":26065:26068   */\n              dup4\n                /* \"#utility.yul\":26006:26073   */\n              tag_289\n              jump\t// in\n            tag_600:\n                /* \"#utility.yul\":25999:26073   */\n              swap2\n              pop\n                /* \"#utility.yul\":26082:26175   */\n              tag_601\n                /* \"#utility.yul\":26171:26174   */\n              dup3\n                /* \"#utility.yul\":26082:26175   */\n              tag_343\n              jump\t// in\n            tag_601:\n                /* \"#utility.yul\":26200:26202   */\n              0x20\n                /* \"#utility.yul\":26195:26198   */\n              dup3\n                /* \"#utility.yul\":26191:26203   */\n              add\n                /* \"#utility.yul\":26184:26203   */\n              swap1\n              pop\n                /* \"#utility.yul\":25843:26209   */\n              swap2\n              swap1\n              pop\n              jump\t// out\n                /* \"#utility.yul\":26215:26634   */\n            tag_207:\n                /* \"#utility.yul\":26381:26385   */\n              0x00\n                /* \"#utility.yul\":26419:26421   */\n              0x20\n                /* \"#utility.yul\":26408:26417   */\n              dup3\n                /* \"#utility.yul\":26404:26422   */\n              add\n                /* \"#utility.yul\":26396:26422   */\n              swap1\n              pop\n                /* \"#utility.yul\":26468:26477   */\n              dup2\n                /* \"#utility.yul\":26462:26466   */\n              dup2\n                /* \"#utility.yul\":26458:26478   */\n              sub\n                /* \"#utility.yul\":26454:26455   */\n              0x00\n                /* \"#utility.yul\":26443:26452   */\n              dup4\n                /* \"#utility.yul\":26439:26456   */\n              add\n                /* \"#utility.yul\":26432:26479   */\n              mstore\n                /* \"#utility.yul\":26496:26627   */\n              tag_603\n                /* \"#utility.yul\":26622:26626   */\n              dup2\n                /* \"#utility.yul\":26496:26627   */\n              tag_344\n              jump\t// in\n            tag_603:\n                /* \"#utility.yul\":26488:26627   */\n              swap1\n              pop\n                /* \"#utility.yul\":26215:26634   */\n              swap2\n              swap1\n              pop\n              jump\t// out\n                /* \"#utility.yul\":26640:26815   */\n            tag_345:\n                /* \"#utility.yul\":26780:26807   */\n              0x41756374696f6e20616c72656164792066696e616c697a656400000000000000\n                /* \"#utility.yul\":26776:26777   */\n              0x00\n                /* \"#utility.yul\":26768:26774   */\n              dup3\n                /* \"#utility.yul\":26764:26778   */\n              add\n                /* \"#utility.yul\":26757:26808   */\n              mstore\n                /* \"#utility.yul\":26640:26815   */\n              pop\n              jump\t// out\n                /* \"#utility.yul\":26821:27187   */\n            tag_346:\n                /* \"#utility.yul\":26963:26966   */\n              0x00\n                /* \"#utility.yul\":26984:27051   */\n              tag_606\n                /* \"#utility.yul\":27048:27050   */\n              0x19\n                /* \"#utility.yul\":27043:27046   */\n              dup4\n                /* \"#utility.yul\":26984:27051   */\n              tag_289\n              jump\t// in\n            tag_606:\n                /* \"#utility.yul\":26977:27051   */\n              swap2\n              pop\n                /* \"#utility.yul\":27060:27153   */\n              tag_607\n                /* \"#utility.yul\":27149:27152   */\n              dup3\n                /* \"#utility.yul\":27060:27153   */\n              tag_345\n              jump\t// in\n            tag_607:\n                /* \"#utility.yul\":27178:27180   */\n              0x20\n                /* \"#utility.yul\":27173:27176   */\n              dup3\n                /* \"#utility.yul\":27169:27181   */\n              add\n                /* \"#utility.yul\":27162:27181   */\n              swap1\n              pop\n                /* \"#utility.yul\":26821:27187   */\n              swap2\n              swap1\n              pop\n              jump\t// out\n                /* \"#utility.yul\":27193:27612   */\n            tag_211:\n                /* \"#utility.yul\":27359:27363   */\n              0x00\n                /* \"#utility.yul\":27397:27399   */\n              0x20\n                /* \"#utility.yul\":27386:27395   */\n              dup3\n                /* \"#utility.yul\":27382:27400   */\n              add\n                /* \"#utility.yul\":27374:27400   */\n              swap1\n              pop\n                /* \"#utility.yul\":27446:27455   */\n              dup2\n                /* \"#utility.yul\":27440:27444   */\n              dup2\n                /* \"#utility.yul\":27436:27456   */\n              sub\n                /* \"#utility.yul\":27432:27433   */\n              0x00\n                /* \"#utility.yul\":27421:27430   */\n              dup4\n                /* \"#utility.yul\":27417:27434   */\n              add\n                /* \"#utility.yul\":27410:27457   */\n              mstore\n                /* \"#utility.yul\":27474:27605   */\n              tag_609\n                /* \"#utility.yul\":27600:27604   */\n              dup2\n                /* \"#utility.yul\":27474:27605   */\n              tag_346\n              jump\t// in\n            tag_609:\n                /* \"#utility.yul\":27466:27605   */\n              swap1\n              pop\n                /* \"#utility.yul\":27193:27612   */\n              swap2\n              swap1\n              pop\n              jump\t// out\n                /* \"#utility.yul\":27618:27798   */\n            tag_217:\n                /* \"#utility.yul\":27666:27743   */\n              0x4e487b7100000000000000000000000000000000000000000000000000000000\n                /* \"#utility.yul\":27663:27664   */\n              0x00\n                /* \"#utility.yul\":27656:27744   */\n              mstore\n                /* \"#utility.yul\":27763:27767   */\n              0x32\n                /* \"#utility.yul\":27760:27761   */\n              0x04\n                /* \"#utility.yul\":27753:27768   */\n              mstore\n                /* \"#utility.yul\":27787:27791   */\n              0x24\n                /* \"#utility.yul\":27784:27785   */\n              0x00\n                /* \"#utility.yul\":27777:27792   */\n              revert\n                /* \"#utility.yul\":27804:27920   */\n            tag_347:\n                /* \"#utility.yul\":27874:27895   */\n              tag_612\n                /* \"#utility.yul\":27889:27894   */\n              dup2\n                /* \"#utility.yul\":27874:27895   */\n              tag_284\n              jump\t// in\n            tag_612:\n                /* \"#utility.yul\":27867:27872   */\n              dup2\n                /* \"#utility.yul\":27864:27896   */\n              eq\n                /* \"#utility.yul\":27854:27914   */\n              tag_613\n              jumpi\n                /* \"#utility.yul\":27910:27911   */\n              0x00\n                /* \"#utility.yul\":27907:27908   */\n              0x00\n                /* \"#utility.yul\":27900:27912   */\n              revert\n                /* \"#utility.yul\":27854:27914   */\n            tag_613:\n                /* \"#utility.yul\":27804:27920   */\n              pop\n              jump\t// out\n                /* \"#utility.yul\":27926:28063   */\n            tag_348:\n                /* \"#utility.yul\":27980:27985   */\n              0x00\n                /* \"#utility.yul\":28011:28017   */\n              dup2\n                /* \"#utility.yul\":28005:28018   */\n              mload\n                /* \"#utility.yul\":27996:28018   */\n              swap1\n              pop\n                /* \"#utility.yul\":28027:28057   */\n              tag_615\n                /* \"#utility.yul\":28051:28056   */\n              dup2\n                /* \"#utility.yul\":28027:28057   */\n              tag_347\n              jump\t// in\n            tag_615:\n                /* \"#utility.yul\":27926:28063   */\n              swap3\n              swap2\n              pop\n              pop\n              jump\t// out\n                /* \"#utility.yul\":28069:28414   */\n            tag_225:\n                /* \"#utility.yul\":28136:28142   */\n              0x00\n                /* \"#utility.yul\":28185:28187   */\n              0x20\n                /* \"#utility.yul\":28173:28182   */\n              dup3\n                /* \"#utility.yul\":28164:28171   */\n              dup5\n                /* \"#utility.yul\":28160:28183   */\n              sub\n                /* \"#utility.yul\":28156:28188   */\n              slt\n                /* \"#utility.yul\":28153:28272   */\n              iszero\n              tag_617\n              jumpi\n                /* \"#utility.yul\":28191:28270   */\n              tag_618\n              tag_278\n              jump\t// in\n            tag_618:\n                /* \"#utility.yul\":28153:28272   */\n            tag_617:\n                /* \"#utility.yul\":28311:28312   */\n              0x00\n                /* \"#utility.yul\":28336:28397   */\n              tag_619\n                /* \"#utility.yul\":28389:28396   */\n              dup5\n                /* \"#utility.yul\":28380:28386   */\n              dup3\n                /* \"#utility.yul\":28369:28378   */\n              dup6\n                /* \"#utility.yul\":28365:28387   */\n              add\n                /* \"#utility.yul\":28336:28397   */\n              tag_348\n              jump\t// in\n            tag_619:\n                /* \"#utility.yul\":28326:28397   */\n              swap2\n              pop\n                /* \"#utility.yul\":28282:28407   */\n              pop\n                /* \"#utility.yul\":28069:28414   */\n              swap3\n              swap2\n              pop\n              pop\n              jump\t// out\n                /* \"#utility.yul\":28420:28583   */\n            tag_349:\n                /* \"#utility.yul\":28560:28575   */\n              0x526566756e64206661696c656400000000000000000000000000000000000000\n                /* \"#utility.yul\":28556:28557   */\n              0x00\n                /* \"#utility.yul\":28548:28554   */\n              dup3\n                /* \"#utility.yul\":28544:28558   */\n              add\n                /* \"#utility.yul\":28537:28576   */\n              mstore\n                /* \"#utility.yul\":28420:28583   */\n              pop\n              jump\t// out\n                /* \"#utility.yul\":28589:28955   */\n            tag_350:\n                /* \"#utility.yul\":28731:28734   */\n              0x00\n                /* \"#utility.yul\":28752:28819   */\n              tag_622\n                /* \"#utility.yul\":28816:28818   */\n              0x0d\n                /* \"#utility.yul\":28811:28814   */\n              dup4\n                /* \"#utility.yul\":28752:28819   */\n              tag_289\n              jump\t// in\n            tag_622:\n                /* \"#utility.yul\":28745:28819   */\n              swap2\n              pop\n                /* \"#utility.yul\":28828:28921   */\n              tag_623\n                /* \"#utility.yul\":28917:28920   */\n              dup3\n                /* \"#utility.yul\":28828:28921   */\n              tag_349\n              jump\t// in\n            tag_623:\n                /* \"#utility.yul\":28946:28948   */\n              0x20\n                /* \"#utility.yul\":28941:28944   */\n              dup3\n                /* \"#utility.yul\":28937:28949   */\n              add\n                /* \"#utility.yul\":28930:28949   */\n              swap1\n              pop\n                /* \"#utility.yul\":28589:28955   */\n              swap2\n              swap1\n              pop\n              jump\t// out\n                /* \"#utility.yul\":28961:29380   */\n            tag_228:\n                /* \"#utility.yul\":29127:29131   */\n              0x00\n                /* \"#utility.yul\":29165:29167   */\n              0x20\n                /* \"#utility.yul\":29154:29163   */\n              dup3\n                /* \"#utility.yul\":29150:29168   */\n              add\n                /* \"#utility.yul\":29142:29168   */\n              swap1\n              pop\n                /* \"#utility.yul\":29214:29223   */\n              dup2\n                /* \"#utility.yul\":29208:29212   */\n              dup2\n                /* \"#utility.yul\":29204:29224   */\n              sub\n                /* \"#utility.yul\":29200:29201   */\n              0x00\n                /* \"#utility.yul\":29189:29198   */\n              dup4\n                /* \"#utility.yul\":29185:29202   */\n              add\n                /* \"#utility.yul\":29178:29225   */\n              mstore\n                /* \"#utility.yul\":29242:29373   */\n              tag_625\n                /* \"#utility.yul\":29368:29372   */\n              dup2\n                /* \"#utility.yul\":29242:29373   */\n              tag_350\n              jump\t// in\n            tag_625:\n                /* \"#utility.yul\":29234:29373   */\n              swap1\n              pop\n                /* \"#utility.yul\":28961:29380   */\n              swap2\n              swap1\n              pop\n              jump\t// out\n                /* \"#utility.yul\":29386:29560   */\n            tag_351:\n                /* \"#utility.yul\":29526:29552   */\n              0x5061796d656e7420746f2073656c6c6572206661696c65640000000000000000\n                /* \"#utility.yul\":29522:29523   */\n              0x00\n                /* \"#utility.yul\":29514:29520   */\n              dup3\n                /* \"#utility.yul\":29510:29524   */\n              add\n                /* \"#utility.yul\":29503:29553   */\n              mstore\n                /* \"#utility.yul\":29386:29560   */\n              pop\n              jump\t// out\n                /* \"#utility.yul\":29566:29932   */\n            tag_352:\n                /* \"#utility.yul\":29708:29711   */\n              0x00\n                /* \"#utility.yul\":29729:29796   */\n              tag_628\n                /* \"#utility.yul\":29793:29795   */\n              0x18\n                /* \"#utility.yul\":29788:29791   */\n              dup4\n                /* \"#utility.yul\":29729:29796   */\n              tag_289\n              jump\t// in\n            tag_628:\n                /* \"#utility.yul\":29722:29796   */\n              swap2\n              pop\n                /* \"#utility.yul\":29805:29898   */\n              tag_629\n                /* \"#utility.yul\":29894:29897   */\n              dup3\n                /* \"#utility.yul\":29805:29898   */\n              tag_351\n              jump\t// in\n            tag_629:\n                /* \"#utility.yul\":29923:29925   */\n              0x20\n                /* \"#utility.yul\":29918:29921   */\n              dup3\n                /* \"#utility.yul\":29914:29926   */\n              add\n                /* \"#utility.yul\":29907:29926   */\n              swap1\n              pop\n                /* \"#utility.yul\":29566:29932   */\n              swap2\n              swap1\n              pop\n              jump\t// out\n                /* \"#utility.yul\":29938:30357   */\n            tag_237:\n                /* \"#utility.yul\":30104:30108   */\n              0x00\n                /* \"#utility.yul\":30142:30144   */\n              0x20\n                /* \"#utility.yul\":30131:30140   */\n              dup3\n                /* \"#utility.yul\":30127:30145   */\n              add\n                /* \"#utility.yul\":30119:30145   */\n              swap1\n              pop\n                /* \"#utility.yul\":30191:30200   */\n              dup2\n                /* \"#utility.yul\":30185:30189   */\n              dup2\n                /* \"#utility.yul\":30181:30201   */\n              sub\n                /* \"#utility.yul\":30177:30178   */\n              0x00\n                /* \"#utility.yul\":30166:30175   */\n              dup4\n                /* \"#utility.yul\":30162:30179   */\n              add\n                /* \"#utility.yul\":30155:30202   */\n              mstore\n                /* \"#utility.yul\":30219:30350   */\n              tag_631\n                /* \"#utility.yul\":30345:30349   */\n              dup2\n                /* \"#utility.yul\":30219:30350   */\n              tag_352\n              jump\t// in\n            tag_631:\n                /* \"#utility.yul\":30211:30350   */\n              swap1\n              pop\n                /* \"#utility.yul\":29938:30357   */\n              swap2\n              swap1\n              pop\n              jump\t// out\n                /* \"#utility.yul\":30363:30526   */\n            tag_353:\n                /* \"#utility.yul\":30503:30518   */\n              0x41756374696f6e20656e64656400000000000000000000000000000000000000\n                /* \"#utility.yul\":30499:30500   */\n              0x00\n                /* \"#utility.yul\":30491:30497   */\n              dup3\n                /* \"#utility.yul\":30487:30501   */\n              add\n                /* \"#utility.yul\":30480:30519   */\n              mstore\n                /* \"#utility.yul\":30363:30526   */\n              pop\n              jump\t// out\n                /* \"#utility.yul\":30532:30898   */\n            tag_354:\n                /* \"#utility.yul\":30674:30677   */\n              0x00\n                /* \"#utility.yul\":30695:30762   */\n              tag_634\n                /* \"#utility.yul\":30759:30761   */\n              0x0d\n                /* \"#utility.yul\":30754:30757   */\n              dup4\n                /* \"#utility.yul\":30695:30762   */\n              tag_289\n              jump\t// in\n            tag_634:\n                /* \"#utility.yul\":30688:30762   */\n              swap2\n              pop\n                /* \"#utility.yul\":30771:30864   */\n              tag_635\n                /* \"#utility.yul\":30860:30863   */\n              dup3\n                /* \"#utility.yul\":30771:30864   */\n              tag_353\n              jump\t// in\n            tag_635:\n                /* \"#utility.yul\":30889:30891   */\n              0x20\n                /* \"#utility.yul\":30884:30887   */\n              dup3\n                /* \"#utility.yul\":30880:30892   */\n              add\n                /* \"#utility.yul\":30873:30892   */\n              swap1\n              pop\n                /* \"#utility.yul\":30532:30898   */\n              swap2\n              swap1\n              pop\n              jump\t// out\n                /* \"#utility.yul\":30904:31323   */\n            tag_247:\n                /* \"#utility.yul\":31070:31074   */\n              0x00\n                /* \"#utility.yul\":31108:31110   */\n              0x20\n                /* \"#utility.yul\":31097:31106   */\n              dup3\n                /* \"#utility.yul\":31093:31111   */\n              add\n                /* \"#utility.yul\":31085:31111   */\n              swap1\n              pop\n                /* \"#utility.yul\":31157:31166   */\n              dup2\n                /* \"#utility.yul\":31151:31155   */\n              dup2\n                /* \"#utility.yul\":31147:31167   */\n              sub\n                /* \"#utility.yul\":31143:31144   */\n              0x00\n                /* \"#utility.yul\":31132:31141   */\n              dup4\n                /* \"#utility.yul\":31128:31145   */\n              add\n                /* \"#utility.yul\":31121:31168   */\n              mstore\n                /* \"#utility.yul\":31185:31316   */\n              tag_637\n                /* \"#utility.yul\":31311:31315   */\n              dup2\n                /* \"#utility.yul\":31185:31316   */\n              tag_354\n              jump\t// in\n            tag_637:\n                /* \"#utility.yul\":31177:31316   */\n              swap1\n              pop\n                /* \"#utility.yul\":30904:31323   */\n              swap2\n              swap1\n              pop\n              jump\t// out\n                /* \"#utility.yul\":31329:31549   */\n            tag_355:\n                /* \"#utility.yul\":31469:31503   */\n              0x596f752063616e277420626964206f6e20796f7572206f776e2061756374696f\n                /* \"#utility.yul\":31465:31466   */\n              0x00\n                /* \"#utility.yul\":31457:31463   */\n              dup3\n                /* \"#utility.yul\":31453:31467   */\n              add\n                /* \"#utility.yul\":31446:31504   */\n              mstore\n                /* \"#utility.yul\":31538:31541   */\n              0x6e00000000000000000000000000000000000000000000000000000000000000\n                /* \"#utility.yul\":31533:31535   */\n              0x20\n                /* \"#utility.yul\":31525:31531   */\n              dup3\n                /* \"#utility.yul\":31521:31536   */\n              add\n                /* \"#utility.yul\":31514:31542   */\n              mstore\n                /* \"#utility.yul\":31329:31549   */\n              pop\n              jump\t// out\n                /* \"#utility.yul\":31555:31921   */\n            tag_356:\n                /* \"#utility.yul\":31697:31700   */\n              0x00\n                /* \"#utility.yul\":31718:31785   */\n              tag_640\n                /* \"#utility.yul\":31782:31784   */\n              0x21\n                /* \"#utility.yul\":31777:31780   */\n              dup4\n                /* \"#utility.yul\":31718:31785   */\n              tag_289\n              jump\t// in\n            tag_640:\n                /* \"#utility.yul\":31711:31785   */\n              swap2\n              pop\n                /* \"#utility.yul\":31794:31887   */\n              tag_641\n                /* \"#utility.yul\":31883:31886   */\n              dup3\n                /* \"#utility.yul\":31794:31887   */\n              tag_355\n              jump\t// in\n            tag_641:\n                /* \"#utility.yul\":31912:31914   */\n              0x40\n                /* \"#utility.yul\":31907:31910   */\n              dup3\n                /* \"#utility.yul\":31903:31915   */\n              add\n                /* \"#utility.yul\":31896:31915   */\n              swap1\n              pop\n                /* \"#utility.yul\":31555:31921   */\n              swap2\n              swap1\n              pop\n              jump\t// out\n                /* \"#utility.yul\":31927:32346   */\n            tag_251:\n                /* \"#utility.yul\":32093:32097   */\n              0x00\n                /* \"#utility.yul\":32131:32133   */\n              0x20\n                /* \"#utility.yul\":32120:32129   */\n              dup3\n                /* \"#utility.yul\":32116:32134   */\n              add\n                /* \"#utility.yul\":32108:32134   */\n              swap1\n              pop\n                /* \"#utility.yul\":32180:32189   */\n              dup2\n                /* \"#utility.yul\":32174:32178   */\n              dup2\n                /* \"#utility.yul\":32170:32190   */\n              sub\n                /* \"#utility.yul\":32166:32167   */\n              0x00\n                /* \"#utility.yul\":32155:32164   */\n              dup4\n                /* \"#utility.yul\":32151:32168   */\n              add\n                /* \"#utility.yul\":32144:32191   */\n              mstore\n                /* \"#utility.yul\":32208:32339   */\n              tag_643\n                /* \"#utility.yul\":32334:32338   */\n              dup2\n                /* \"#utility.yul\":32208:32339   */\n              tag_356\n              jump\t// in\n            tag_643:\n                /* \"#utility.yul\":32200:32339   */\n              swap1\n              pop\n                /* \"#utility.yul\":31927:32346   */\n              swap2\n              swap1\n              pop\n              jump\t// out\n                /* \"#utility.yul\":32352:32532   */\n            tag_357:\n                /* \"#utility.yul\":32400:32477   */\n              0x4e487b7100000000000000000000000000000000000000000000000000000000\n                /* \"#utility.yul\":32397:32398   */\n              0x00\n                /* \"#utility.yul\":32390:32478   */\n              mstore\n                /* \"#utility.yul\":32497:32501   */\n              0x11\n                /* \"#utility.yul\":32494:32495   */\n              0x04\n                /* \"#utility.yul\":32487:32502   */\n              mstore\n                /* \"#utility.yul\":32521:32525   */\n              0x24\n                /* \"#utility.yul\":32518:32519   */\n              0x00\n                /* \"#utility.yul\":32511:32526   */\n              revert\n                /* \"#utility.yul\":32538:32729   */\n            tag_253:\n                /* \"#utility.yul\":32578:32581   */\n              0x00\n                /* \"#utility.yul\":32597:32617   */\n              tag_646\n                /* \"#utility.yul\":32615:32616   */\n              dup3\n                /* \"#utility.yul\":32597:32617   */\n              tag_286\n              jump\t// in\n            tag_646:\n                /* \"#utility.yul\":32592:32617   */\n              swap2\n              pop\n                /* \"#utility.yul\":32631:32651   */\n              tag_647\n                /* \"#utility.yul\":32649:32650   */\n              dup4\n                /* \"#utility.yul\":32631:32651   */\n              tag_286\n              jump\t// in\n            tag_647:\n                /* \"#utility.yul\":32626:32651   */\n              swap3\n              pop\n                /* \"#utility.yul\":32674:32675   */\n              dup3\n                /* \"#utility.yul\":32671:32672   */\n              dup3\n                /* \"#utility.yul\":32667:32676   */\n              add\n                /* \"#utility.yul\":32660:32676   */\n              swap1\n              pop\n                /* \"#utility.yul\":32695:32698   */\n              dup1\n                /* \"#utility.yul\":32692:32693   */\n              dup3\n                /* \"#utility.yul\":32689:32699   */\n              gt\n                /* \"#utility.yul\":32686:32722   */\n              iszero\n              tag_648\n              jumpi\n                /* \"#utility.yul\":32702:32720   */\n              tag_649\n              tag_357\n              jump\t// in\n            tag_649:\n                /* \"#utility.yul\":32686:32722   */\n            tag_648:\n                /* \"#utility.yul\":32538:32729   */\n              swap3\n              swap2\n              pop\n              pop\n              jump\t// out\n                /* \"#utility.yul\":32735:32902   */\n            tag_358:\n                /* \"#utility.yul\":32875:32894   */\n              0x42656c6f77206d696e696d756d20626964000000000000000000000000000000\n                /* \"#utility.yul\":32871:32872   */\n              0x00\n                /* \"#utility.yul\":32863:32869   */\n              dup3\n                /* \"#utility.yul\":32859:32873   */\n              add\n                /* \"#utility.yul\":32852:32895   */\n              mstore\n                /* \"#utility.yul\":32735:32902   */\n              pop\n              jump\t// out\n                /* \"#utility.yul\":32908:33274   */\n            tag_359:\n                /* \"#utility.yul\":33050:33053   */\n              0x00\n                /* \"#utility.yul\":33071:33138   */\n              tag_652\n                /* \"#utility.yul\":33135:33137   */\n              0x11\n                /* \"#utility.yul\":33130:33133   */\n              dup4\n                /* \"#utility.yul\":33071:33138   */\n              tag_289\n              jump\t// in\n            tag_652:\n                /* \"#utility.yul\":33064:33138   */\n              swap2\n              pop\n                /* \"#utility.yul\":33147:33240   */\n              tag_653\n                /* \"#utility.yul\":33236:33239   */\n              dup3\n                /* \"#utility.yul\":33147:33240   */\n              tag_358\n              jump\t// in\n            tag_653:\n                /* \"#utility.yul\":33265:33267   */\n              0x20\n                /* \"#utility.yul\":33260:33263   */\n              dup3\n                /* \"#utility.yul\":33256:33268   */\n              add\n                /* \"#utility.yul\":33249:33268   */\n              swap1\n              pop\n                /* \"#utility.yul\":32908:33274   */\n              swap2\n              swap1\n              pop\n              jump\t// out\n                /* \"#utility.yul\":33280:33699   */\n            tag_257:\n                /* \"#utility.yul\":33446:33450   */\n              0x00\n                /* \"#utility.yul\":33484:33486   */\n              0x20\n                /* \"#utility.yul\":33473:33482   */\n              dup3\n                /* \"#utility.yul\":33469:33487   */\n              add\n                /* \"#utility.yul\":33461:33487   */\n              swap1\n              pop\n                /* \"#utility.yul\":33533:33542   */\n              dup2\n                /* \"#utility.yul\":33527:33531   */\n              dup2\n                /* \"#utility.yul\":33523:33543   */\n              sub\n                /* \"#utility.yul\":33519:33520   */\n              0x00\n                /* \"#utility.yul\":33508:33517   */\n              dup4\n                /* \"#utility.yul\":33504:33521   */\n              add\n                /* \"#utility.yul\":33497:33544   */\n              mstore\n                /* \"#utility.yul\":33561:33692   */\n              tag_655\n                /* \"#utility.yul\":33687:33691   */\n              dup2\n                /* \"#utility.yul\":33561:33692   */\n              tag_359\n              jump\t// in\n            tag_655:\n                /* \"#utility.yul\":33553:33692   */\n              swap1\n              pop\n                /* \"#utility.yul\":33280:33699   */\n              swap2\n              swap1\n              pop\n              jump\t// out\n                /* \"#utility.yul\":33705:33886   */\n            tag_360:\n                /* \"#utility.yul\":33845:33878   */\n              0x426964206d757374206578636565642063757272656e74206869676865737400\n                /* \"#utility.yul\":33841:33842   */\n              0x00\n                /* \"#utility.yul\":33833:33839   */\n              dup3\n                /* \"#utility.yul\":33829:33843   */\n              add\n                /* \"#utility.yul\":33822:33879   */\n              mstore\n                /* \"#utility.yul\":33705:33886   */\n              pop\n              jump\t// out\n                /* \"#utility.yul\":33892:34258   */\n            tag_361:\n                /* \"#utility.yul\":34034:34037   */\n              0x00\n                /* \"#utility.yul\":34055:34122   */\n              tag_658\n                /* \"#utility.yul\":34119:34121   */\n              0x1f\n                /* \"#utility.yul\":34114:34117   */\n              dup4\n                /* \"#utility.yul\":34055:34122   */\n              tag_289\n              jump\t// in\n            tag_658:\n                /* \"#utility.yul\":34048:34122   */\n              swap2\n              pop\n                /* \"#utility.yul\":34131:34224   */\n              tag_659\n                /* \"#utility.yul\":34220:34223   */\n              dup3\n                /* \"#utility.yul\":34131:34224   */\n              tag_360\n              jump\t// in\n            tag_659:\n                /* \"#utility.yul\":34249:34251   */\n              0x20\n                /* \"#utility.yul\":34244:34247   */\n              dup3\n                /* \"#utility.yul\":34240:34252   */\n              add\n                /* \"#utility.yul\":34233:34252   */\n              swap1\n              pop\n                /* \"#utility.yul\":33892:34258   */\n              swap2\n              swap1\n              pop\n              jump\t// out\n                /* \"#utility.yul\":34264:34683   */\n            tag_260:\n                /* \"#utility.yul\":34430:34434   */\n              0x00\n                /* \"#utility.yul\":34468:34470   */\n              0x20\n                /* \"#utility.yul\":34457:34466   */\n              dup3\n                /* \"#utility.yul\":34453:34471   */\n              add\n                /* \"#utility.yul\":34445:34471   */\n              swap1\n              pop\n                /* \"#utility.yul\":34517:34526   */\n              dup2\n                /* \"#utility.yul\":34511:34515   */\n              dup2\n                /* \"#utility.yul\":34507:34527   */\n              sub\n                /* \"#utility.yul\":34503:34504   */\n              0x00\n                /* \"#utility.yul\":34492:34501   */\n              dup4\n                /* \"#utility.yul\":34488:34505   */\n              add\n                /* \"#utility.yul\":34481:34528   */\n              mstore\n                /* \"#utility.yul\":34545:34676   */\n              tag_661\n                /* \"#utility.yul\":34671:34675   */\n              dup2\n                /* \"#utility.yul\":34545:34676   */\n              tag_361\n              jump\t// in\n            tag_661:\n                /* \"#utility.yul\":34537:34676   */\n              swap1\n              pop\n                /* \"#utility.yul\":34264:34683   */\n              swap2\n              swap1\n              pop\n              jump\t// out\n                /* \"#utility.yul\":34689:35131   */\n            tag_262:\n                /* \"#utility.yul\":34838:34842   */\n              0x00\n                /* \"#utility.yul\":34876:34878   */\n              0x60\n                /* \"#utility.yul\":34865:34874   */\n              dup3\n                /* \"#utility.yul\":34861:34879   */\n              add\n                /* \"#utility.yul\":34853:34879   */\n              swap1\n              pop\n                /* \"#utility.yul\":34889:34960   */\n              tag_663\n                /* \"#utility.yul\":34957:34958   */\n              0x00\n                /* \"#utility.yul\":34946:34955   */\n              dup4\n                /* \"#utility.yul\":34942:34959   */\n              add\n                /* \"#utility.yul\":34933:34939   */\n              dup7\n                /* \"#utility.yul\":34889:34960   */\n              tag_293\n              jump\t// in\n            tag_663:\n                /* \"#utility.yul\":34970:35042   */\n              tag_664\n                /* \"#utility.yul\":35038:35040   */\n              0x20\n                /* \"#utility.yul\":35027:35036   */\n              dup4\n                /* \"#utility.yul\":35023:35041   */\n              add\n                /* \"#utility.yul\":35014:35020   */\n              dup6\n                /* \"#utility.yul\":34970:35042   */\n              tag_293\n              jump\t// in\n            tag_664:\n                /* \"#utility.yul\":35052:35124   */\n              tag_665\n                /* \"#utility.yul\":35120:35122   */\n              0x40\n                /* \"#utility.yul\":35109:35118   */\n              dup4\n                /* \"#utility.yul\":35105:35123   */\n              add\n                /* \"#utility.yul\":35096:35102   */\n              dup5\n                /* \"#utility.yul\":35052:35124   */\n              tag_287\n              jump\t// in\n            tag_665:\n                /* \"#utility.yul\":34689:35131   */\n              swap5\n              swap4\n              pop\n              pop\n              pop\n              pop\n              jump\t// out\n                /* \"#utility.yul\":35137:35302   */\n            tag_362:\n                /* \"#utility.yul\":35277:35294   */\n              0x5472616e73666572206661696c65640000000000000000000000000000000000\n                /* \"#utility.yul\":35273:35274   */\n              0x00\n                /* \"#utility.yul\":35265:35271   */\n              dup3\n                /* \"#utility.yul\":35261:35275   */\n              add\n                /* \"#utility.yul\":35254:35295   */\n              mstore\n                /* \"#utility.yul\":35137:35302   */\n              pop\n              jump\t// out\n                /* \"#utility.yul\":35308:35674   */\n            tag_363:\n                /* \"#utility.yul\":35450:35453   */\n              0x00\n                /* \"#utility.yul\":35471:35538   */\n              tag_668\n                /* \"#utility.yul\":35535:35537   */\n              0x0f\n                /* \"#utility.yul\":35530:35533   */\n              dup4\n                /* \"#utility.yul\":35471:35538   */\n              tag_289\n              jump\t// in\n            tag_668:\n                /* \"#utility.yul\":35464:35538   */\n              swap2\n              pop\n                /* \"#utility.yul\":35547:35640   */\n              tag_669\n                /* \"#utility.yul\":35636:35639   */\n              dup3\n                /* \"#utility.yul\":35547:35640   */\n              tag_362\n              jump\t// in\n            tag_669:\n                /* \"#utility.yul\":35665:35667   */\n              0x20\n                /* \"#utility.yul\":35660:35663   */\n              dup3\n                /* \"#utility.yul\":35656:35668   */\n              add\n                /* \"#utility.yul\":35649:35668   */\n              swap1\n              pop\n                /* \"#utility.yul\":35308:35674   */\n              swap2\n              swap1\n              pop\n              jump\t// out\n                /* \"#utility.yul\":35680:36099   */\n            tag_268:\n                /* \"#utility.yul\":35846:35850   */\n              0x00\n                /* \"#utility.yul\":35884:35886   */\n              0x20\n                /* \"#utility.yul\":35873:35882   */\n              dup3\n                /* \"#utility.yul\":35869:35887   */\n              add\n                /* \"#utility.yul\":35861:35887   */\n              swap1\n              pop\n                /* \"#utility.yul\":35933:35942   */\n              dup2\n                /* \"#utility.yul\":35927:35931   */\n              dup2\n                /* \"#utility.yul\":35923:35943   */\n              sub\n                /* \"#utility.yul\":35919:35920   */\n              0x00\n                /* \"#utility.yul\":35908:35917   */\n              dup4\n                /* \"#utility.yul\":35904:35921   */\n              add\n                /* \"#utility.yul\":35897:35944   */\n              mstore\n                /* \"#utility.yul\":35961:36092   */\n              tag_671\n                /* \"#utility.yul\":36087:36091   */\n              dup2\n                /* \"#utility.yul\":35961:36092   */\n              tag_363\n              jump\t// in\n            tag_671:\n                /* \"#utility.yul\":35953:36092   */\n              swap1\n              pop\n                /* \"#utility.yul\":35680:36099   */\n              swap2\n              swap1\n              pop\n              jump\t// out\n                /* \"#utility.yul\":36105:36338   */\n            tag_272:\n                /* \"#utility.yul\":36144:36147   */\n              0x00\n                /* \"#utility.yul\":36167:36191   */\n              tag_673\n                /* \"#utility.yul\":36185:36190   */\n              dup3\n                /* \"#utility.yul\":36167:36191   */\n              tag_286\n              jump\t// in\n            tag_673:\n                /* \"#utility.yul\":36158:36191   */\n              swap2\n              pop\n                /* \"#utility.yul\":36213:36279   */\n              0xffffffffffffffffffffffffffffffffffffffffffffffffffffffffffffffff\n                /* \"#utility.yul\":36206:36211   */\n              dup3\n                /* \"#utility.yul\":36203:36280   */\n              sub\n                /* \"#utility.yul\":36200:36303   */\n              tag_674\n              jumpi\n                /* \"#utility.yul\":36283:36301   */\n              tag_675\n              tag_357\n              jump\t// in\n            tag_675:\n                /* \"#utility.yul\":36200:36303   */\n            tag_674:\n                /* \"#utility.yul\":36330:36331   */\n              0x01\n                /* \"#utility.yul\":36323:36328   */\n              dup3\n                /* \"#utility.yul\":36319:36332   */\n              add\n                /* \"#utility.yul\":36312:36332   */\n              swap1\n              pop\n                /* \"#utility.yul\":36105:36338   */\n              swap2\n              swap1\n              pop\n              jump\t// out\n\n            auxdata: 0xa2646970667358221220b513931911f6137c1c2734bc1fe4ab5a6c4344b86aac6cbdc277f96aba1c42bc64736f6c634300081e0033\n        }\n    }\n\n    auxdata: 0xa2646970667358221220d9af48793e6ba19e116b5ed201f09f5b8db9e6c3876781aa536bf0c4ad0908d264736f6c634300081e0033\n}\n","bytecode":{"linkReferences":{},"object":"6080604052348015600e575f5ffd5b50613cdc8061001c5f395ff3fe608060405234801561000f575f5ffd5b506004361061004a575f3560e01c8063339d50a51461004e5780634acb9d4f1461007e57806375da6ba01461009c578063f9f01f88146100a6575b5f5ffd5b6100686004803603810190610063919061043f565b6100c2565b60405161007591906104a9565b60405180910390f35b6100866100fc565b6040516100939190610579565b60405180910390f35b6100a4610186565b005b6100c060048036038101906100bb9190610710565b61032d565b005b5f81815481106100d0575f80fd5b905f5260205f20015f915054906101000a900473ffffffffffffffffffffffffffffffffffffffff1681565b60605f80548060200260200160405190810160405280929190818152602001828054801561017c57602002820191905f5260205f20905b815f9054906101000a900473ffffffffffffffffffffffffffffffffffffffff1673ffffffffffffffffffffffffffffffffffffffff1681526020019060010190808311610133575b5050505050905090565b5f5f90505b5f8054905081101561032a575f5f82815481106101ab576101aa6107bf565b5b905f5260205f20015f9054906101000a900473ffffffffffffffffffffffffffffffffffffffff1690508073ffffffffffffffffffffffffffffffffffffffff16634e69d5606040518163ffffffff1660e01b8152600401602060405180830381865afa15801561021e573d5f5f3e3d5ffd5b505050506040513d601f19601f820116820180604052508101906102429190610821565b1580156102bb57508073ffffffffffffffffffffffffffffffffffffffff16633197cbb66040518163ffffffff1660e01b8152600401602060405180830381865afa158015610293573d5f5f3e3d5ffd5b505050506040513d601f19601f820116820180604052508101906102b79190610860565b4210155b1561031c578073ffffffffffffffffffffffffffffffffffffffff1663976af6156040518163ffffffff1660e01b81526004015f604051808303815f87803b158015610305575f5ffd5b505af1158015610317573d5f5f3e3d5ffd5b505050505b50808060010191505061018b565b50565b5f4283603c61033c91906108b8565b61034691906108f9565b90505f86868633858760405161035b906103ee565b61036a969594939291906109aa565b604051809103905ff080158015610383573d5f5f3e3d5ffd5b5090505f81908060018154018082558091505060019003905f5260205f20015f9091909190916101000a81548173ffffffffffffffffffffffffffffffffffffffff021916908373ffffffffffffffffffffffffffffffffffffffff16021790555050505050505050565b61328f80610a1883390190565b5f604051905090565b5f5ffd5b5f5ffd5b5f819050919050565b61041e8161040c565b8114610428575f5ffd5b50565b5f8135905061043981610415565b92915050565b5f6020828403121561045457610453610404565b5b5f6104618482850161042b565b91505092915050565b5f73ffffffffffffffffffffffffffffffffffffffff82169050919050565b5f6104938261046a565b9050919050565b6104a381610489565b82525050565b5f6020820190506104bc5f83018461049a565b92915050565b5f81519050919050565b5f82825260208201905092915050565b5f819050602082019050919050565b6104f481610489565b82525050565b5f61050583836104eb565b60208301905092915050565b5f602082019050919050565b5f610527826104c2565b61053181856104cc565b935061053c836104dc565b805f5b8381101561056c57815161055388826104fa565b975061055e83610511565b92505060018101905061053f565b5085935050505092915050565b5f6020820190508181035f830152610591818461051d565b905092915050565b5f5ffd5b5f5ffd5b5f601f19601f8301169050919050565b7f4e487b71000000000000000000000000000000000000000000000000000000005f52604160045260245ffd5b6105e7826105a1565b810181811067ffffffffffffffff82111715610606576106056105b1565b5b80604052505050565b5f6106186103fb565b905061062482826105de565b919050565b5f67ffffffffffffffff821115610643576106426105b1565b5b61064c826105a1565b9050602081019050919050565b828183375f83830152505050565b5f61067961067484610629565b61060f565b9050828152602081018484840111156106955761069461059d565b5b6106a0848285610659565b509392505050565b5f82601f8301126106bc576106bb610599565b5b81356106cc848260208601610667565b91505092915050565b5f6106df8261046a565b9050919050565b6106ef816106d5565b81146106f9575f5ffd5b50565b5f8135905061070a816106e6565b92915050565b5f5f5f5f5f60a0868803121561072957610728610404565b5b5f6107368882890161042b565b955050602086013567ffffffffffffffff81111561075757610756610408565b5b610763888289016106a8565b945050604086013567ffffffffffffffff81111561078457610783610408565b5b610790888289016106a8565b93505060606107a18882890161042b565b92505060806107b2888289016106fc565b9150509295509295909350565b7f4e487b71000000000000000000000000000000000000000000000000000000005f52603260045260245ffd5b5f8115159050919050565b610800816107ec565b811461080a575f5ffd5b50565b5f8151905061081b816107f7565b92915050565b5f6020828403121561083657610835610404565b5b5f6108438482850161080d565b91505092915050565b5f8151905061085a81610415565b92915050565b5f6020828403121561087557610874610404565b5b5f6108828482850161084c565b91505092915050565b7f4e487b71000000000000000000000000000000000000000000000000000000005f52601160045260245ffd5b5f6108c28261040c565b91506108cd8361040c565b92508282026108db8161040c565b915082820484148315176108f2576108f161088b565b5b5092915050565b5f6109038261040c565b915061090e8361040c565b92508282019050808211156109265761092561088b565b5b92915050565b6109358161040c565b82525050565b5f81519050919050565b5f82825260208201905092915050565b8281835e5f83830152505050565b5f61096d8261093b565b6109778185610945565b9350610987818560208601610955565b610990816105a1565b840191505092915050565b6109a4816106d5565b82525050565b5f60c0820190506109bd5f83018961092c565b81810360208301526109cf8188610963565b905081810360408301526109e38187610963565b90506109f2606083018661099b565b6109ff608083018561092c565b610a0c60a083018461099b565b97965050505050505056fe608060405234801561000f575f5ffd5b5060405161328f38038061328f833981810160405281019061003191906102dd565b825f5f6101000a81548173ffffffffffffffffffffffffffffffffffffffff021916908373ffffffffffffffffffffffffffffffffffffffff16021790555085600181905550846002908161008691906105a5565b50836003908161009691906105a5565b5081600b819055505f600c5f6101000a81548160ff02191690831515021790555080600c60016101000a81548173ffffffffffffffffffffffffffffffffffffffff021916908373ffffffffffffffffffffffffffffffffffffffff160217905550505050505050610674565b5f604051905090565b5f5ffd5b5f5ffd5b5f819050919050565b61012681610114565b8114610130575f5ffd5b50565b5f815190506101418161011d565b92915050565b5f5ffd5b5f5ffd5b5f601f19601f8301169050919050565b7f4e487b71000000000000000000000000000000000000000000000000000000005f52604160045260245ffd5b6101958261014f565b810181811067ffffffffffffffff821117156101b4576101b361015f565b5b80604052505050565b5f6101c6610103565b90506101d2828261018c565b919050565b5f67ffffffffffffffff8211156101f1576101f061015f565b5b6101fa8261014f565b9050602081019050919050565b8281835e5f83830152505050565b5f610227610222846101d7565b6101bd565b9050828152602081018484840111156102435761024261014b565b5b61024e848285610207565b509392505050565b5f82601f83011261026a57610269610147565b5b815161027a848260208601610215565b91505092915050565b5f73ffffffffffffffffffffffffffffffffffffffff82169050919050565b5f6102ac82610283565b9050919050565b6102bc816102a2565b81146102c6575f5ffd5b50565b5f815190506102d7816102b3565b92915050565b5f5f5f5f5f5f60c087890312156102f7576102f661010c565b5b5f61030489828a01610133565b965050602087015167ffffffffffffffff81111561032557610324610110565b5b61033189828a01610256565b955050604087015167ffffffffffffffff81111561035257610351610110565b5b61035e89828a01610256565b945050606061036f89828a016102c9565b935050608061038089828a01610133565b92505060a061039189828a016102c9565b9150509295509295509295565b5f81519050919050565b7f4e487b71000000000000000000000000000000000000000000000000000000005f52602260045260245ffd5b5f60028204905060018216806103ec57607f821691505b6020821081036103ff576103fe6103a8565b5b50919050565b5f819050815f5260205f209050919050565b5f6020601f8301049050919050565b5f82821b905092915050565b5f600883026104617fffffffffffffffffffffffffffffffffffffffffffffffffffffffffffffffff82610426565b61046b8683610426565b95508019841693508086168417925050509392505050565b5f819050919050565b5f6104a66104a161049c84610114565b610483565b610114565b9050919050565b5f819050919050565b6104bf8361048c565b6104d36104cb826104ad565b848454610432565b825550505050565b5f5f905090565b6104ea6104db565b6104f58184846104b6565b505050565b5b818110156105185761050d5f826104e2565b6001810190506104fb565b5050565b601f82111561055d5761052e81610405565b61053784610417565b81016020851015610546578190505b61055a61055285610417565b8301826104fa565b50505b505050565b5f82821c905092915050565b5f61057d5f1984600802610562565b1980831691505092915050565b5f610595838361056e565b9150826002028217905092915050565b6105ae8261039e565b67ffffffffffffffff8111156105c7576105c661015f565b5b6105d182546103d5565b6105dc82828561051c565b5f60209050601f83116001811461060d575f84156105fb578287015190505b610605858261058a565b86555061066c565b601f19841661061b86610405565b5f5b828110156106425784890151825560018201915060208501945060208101905061061d565b8683101561065f578489015161065b601f89168261056e565b8355505b6001600288020188555050505b505050505050565b612c0e806106815f395ff3fe608060405234801561000f575f5ffd5b506004361061014b575f3560e01c806382fde093116100c1578063a39fac121161007a578063a39fac1214610378578063c1cbbca714610396578063c8b342ab146103b2578063d57bde79146103e2578063edf26d9b14610400578063fc0c546a146104305761014b565b806382fde093146102c457806383920e90146102e257806391f9015714610300578063937e09b11461031e578063976af6151461033c5780639ace38c2146103465761014b565b80634e69d560116101135780634e69d5601461020057806358d656291461021e578063597e1fb51461023c5780635dc1d6411461025a5780637aed167c1461028a5780637b87d856146102a65761014b565b80630a1443911461014f5780633197cbb61461017f5780633bc5de301461019d5780634051ddac146101bb578063481c6a75146101e2575b5f5ffd5b61016960048036038101906101649190611b2e565b61044e565b6040516101769190611b73565b60405180910390f35b61018761046b565b6040516101949190611ba4565b60405180910390f35b6101a5610471565b6040516101b29190611c2d565b60405180910390f35b6101c36105de565b6040516101d99a99989796959493929190611d13565b60405180910390f35b6101ea610892565b6040516101f79190611dc2565b60405180910390f35b6102086108b6565b6040516102159190611b73565b60405180910390f35b6102266108cb565b6040516102339190611c2d565b60405180910390f35b610244610957565b6040516102519190611b73565b60405180910390f35b610274600480360381019061026f9190611b2e565b610969565b6040516102819190611ba4565b60405180910390f35b6102a4600480360381019061029f9190611e6e565b61097e565b005b6102ae610e38565b6040516102bb9190611c2d565b60405180910390f35b6102cc610ec4565b6040516102d99190611ba4565b60405180910390f35b6102ea610eca565b6040516102f79190611fdc565b60405180910390f35b610308610f8e565b6040516103159190611dc2565b60405180910390f35b610326610fb3565b6040516103339190611ba4565b60405180910390f35b610344610fb9565b005b610360600480360381019061035b9190611ffc565b61144e565b60405161036f93929190612027565b60405180910390f35b6103806114a2565b60405161038d919061205c565b60405180910390f35b6103b060048036038101906103ab9190611ffc565b61152d565b005b6103cc60048036038101906103c79190611b2e565b611a1a565b6040516103d99190611ba4565b60405180910390f35b6103ea611a60565b6040516103f79190611ba4565b60405180910390f35b61041a60048036038101906104159190611ffc565b611a66565b6040516104279190611dc2565b60405180910390f35b610438611aa1565b60405161044591906120d7565b60405180910390f35b6004602052805f5260405f205f915054906101000a900460ff1681565b600b5481565b6060600c5f9054906101000a900460ff166104c1576040517f08c379a00000000000000000000000000000000000000000000000000000000081526004016104b89061213a565b60405180910390fd5b60095f9054906101000a900473ffffffffffffffffffffffffffffffffffffffff1673ffffffffffffffffffffffffffffffffffffffff163373ffffffffffffffffffffffffffffffffffffffff1614610550576040517f08c379a0000000000000000000000000000000000000000000000000000000008152600401610547906121a2565b60405180910390fd5b6002805461055d906121ed565b80601f0160208091040260200160405190810160405280929190818152602001828054610589906121ed565b80156105d45780601f106105ab576101008083540402835291602001916105d4565b820191905f5260205f20905b8154815290600101906020018083116105b757829003601f168201915b5050505050905090565b5f5f5f5f5f6060805f60605f600154600c60019054906101000a900473ffffffffffffffffffffffffffffffffffffffff1673ffffffffffffffffffffffffffffffffffffffff166370a08231306040518263ffffffff1660e01b81526004016106489190611dc2565b602060405180830381865afa158015610663573d5f5f3e3d5ffd5b505050506040513d601f19601f820116820180604052508101906106879190612231565b6006545f5f9054906101000a900473ffffffffffffffffffffffffffffffffffffffff16600a546002600360095f9054906101000a900473ffffffffffffffffffffffffffffffffffffffff166007600b548480546106e5906121ed565b80601f0160208091040260200160405190810160405280929190818152602001828054610711906121ed565b801561075c5780601f106107335761010080835404028352916020019161075c565b820191905f5260205f20905b81548152906001019060200180831161073f57829003601f168201915b5050505050945083805461076f906121ed565b80601f016020809104026020016040519081016040528092919081815260200182805461079b906121ed565b80156107e65780601f106107bd576101008083540402835291602001916107e6565b820191905f5260205f20905b8154815290600101906020018083116107c957829003601f168201915b505050505093508180548060200260200160405190810160405280929190818152602001828054801561086b57602002820191905f5260205f20905b815f9054906101000a900473ffffffffffffffffffffffffffffffffffffffff1673ffffffffffffffffffffffffffffffffffffffff1681526020019060010190808311610822575b50505050509150995099509950995099509950995099509950995090919293949596979899565b5f5f9054906101000a900473ffffffffffffffffffffffffffffffffffffffff1681565b5f600c5f9054906101000a900460ff16905090565b600380546108d8906121ed565b80601f0160208091040260200160405190810160405280929190818152602001828054610904906121ed565b801561094f5780601f106109265761010080835404028352916020019161094f565b820191905f5260205f20905b81548152906001019060200180831161093257829003601f168201915b505050505081565b600c5f9054906101000a900460ff1681565b6005602052805f5260405f205f915090505481565b5f3390505f3090505f600c60019054906101000a900473ffffffffffffffffffffffffffffffffffffffff1673ffffffffffffffffffffffffffffffffffffffff16637ecebe00846040518263ffffffff1660e01b81526004016109e29190611dc2565b602060405180830381865afa1580156109fd573d5f5f3e3d5ffd5b505050506040513d601f19601f82011682018060405250810190610a219190612231565b90507ff29b58c6301ab4d806bf8454e3565b31382f5ad5f02fd45fb42e18523cb860e481604051610a529190611ba4565b60405180910390a18173ffffffffffffffffffffffffffffffffffffffff168373ffffffffffffffffffffffffffffffffffffffff167fe73d3e7f4544b3502481a4298011ede4f74f12e7c94c6998bc96c6db67502c3c8a848b604051610abb9392919061225c565b60405180910390a3600c60019054906101000a900473ffffffffffffffffffffffffffffffffffffffff1673ffffffffffffffffffffffffffffffffffffffff1663d505accf84848b8b8b8b8b6040518863ffffffff1660e01b8152600401610b2a97969594939291906122af565b5f604051808303815f87803b158015610b41575f5ffd5b505af1925050508015610b52575060015b610c8257610b5e612328565b806308c379a003610c105750610b726123a5565b80610b7d5750610c12565b7fe19fbc5ff4f9e3df659f19fd3f2f1bd7a51b5e2994e3a55670578bb0f9d1d55681604051610bac9190611c2d565b60405180910390a180604051602001610bc591906124b8565b6040516020818303038152906040526040517f08c379a0000000000000000000000000000000000000000000000000000000008152600401610c079190611c2d565b60405180910390fd5b505b7fe19fbc5ff4f9e3df659f19fd3f2f1bd7a51b5e2994e3a55670578bb0f9d1d556604051610c3f90612523565b60405180910390a16040517f08c379a0000000000000000000000000000000000000000000000000000000008152600401610c799061258b565b60405180910390fd5b5f600c60019054906101000a900473ffffffffffffffffffffffffffffffffffffffff1673ffffffffffffffffffffffffffffffffffffffff1663dd62ed3e85856040518363ffffffff1660e01b8152600401610ce09291906125a9565b602060405180830381865afa158015610cfb573d5f5f3e3d5ffd5b505050506040513d601f19601f82011682018060405250810190610d1f9190612231565b90507ffb7db43709e58b37855e273302377128c7eff642d99999cb530a6cd6a287e9fa818a604051610d529291906125d0565b60405180910390a188811015610d9d576040517f08c379a0000000000000000000000000000000000000000000000000000000008152600401610d9490612667565b60405180910390fd5b8373ffffffffffffffffffffffffffffffffffffffff167f7653ba64263e4c00c4274956a77bb1ce892c55a528cfbf7873a825ea64cf981c82604051610de39190611ba4565b60405180910390a27f38ad295bd970e48fbc3d2741a85bca4baf27a2884ec78bc81a5eee942060d5fc848a604051610e1c929190612685565b60405180910390a1610e2d8961152d565b505050505050505050565b60028054610e45906121ed565b80601f0160208091040260200160405190810160405280929190818152602001828054610e71906121ed565b8015610ebc5780601f10610e9357610100808354040283529160200191610ebc565b820191905f5260205f20905b815481529060010190602001808311610e9f57829003601f168201915b505050505081565b60065481565b60606008805480602002602001604051908101604052809291908181526020015f905b82821015610f85578382905f5260205f2090600302016040518060600160405290815f820154815260200160018201548152602001600282015f9054906101000a900473ffffffffffffffffffffffffffffffffffffffff1673ffffffffffffffffffffffffffffffffffffffff1673ffffffffffffffffffffffffffffffffffffffff168152505081526020019060010190610eed565b50505050905090565b60095f9054906101000a900473ffffffffffffffffffffffffffffffffffffffff1681565b60015481565b600b54421015610ffe576040517f08c379a0000000000000000000000000000000000000000000000000000000008152600401610ff5906126f6565b60405180910390fd5b600c5f9054906101000a900460ff161561104d576040517f08c379a00000000000000000000000000000000000000000000000000000000081526004016110449061275e565b60405180910390fd5b5f5f90505b6007805490508110156112b8575f600782815481106110745761107361277c565b5b905f5260205f20015f9054906101000a900473ffffffffffffffffffffffffffffffffffffffff16905060095f9054906101000a900473ffffffffffffffffffffffffffffffffffffffff1673ffffffffffffffffffffffffffffffffffffffff168173ffffffffffffffffffffffffffffffffffffffff16146112aa575f60055f8373ffffffffffffffffffffffffffffffffffffffff1673ffffffffffffffffffffffffffffffffffffffff1681526020019081526020015f205490505f8111156112a8575f60055f8473ffffffffffffffffffffffffffffffffffffffff1673ffffffffffffffffffffffffffffffffffffffff1681526020019081526020015f2081905550600c60019054906101000a900473ffffffffffffffffffffffffffffffffffffffff1673ffffffffffffffffffffffffffffffffffffffff1663a9059cbb83836040518363ffffffff1660e01b81526004016111da929190612685565b6020604051808303815f875af11580156111f6573d5f5f3e3d5ffd5b505050506040513d601f19601f8201168201806040525081019061121a91906127d3565b611259576040517f08c379a000000000000000000000000000000000000000000000000000000000815260040161125090612848565b60405180910390fd5b8173ffffffffffffffffffffffffffffffffffffffff167f3367befd2b2f39615cd79917c2153263c4af1d3945ec003e5d5bfc13a8d858338260405161129f9190611ba4565b60405180910390a25b505b508080600101915050611052565b505f600a54111561143257600c60019054906101000a900473ffffffffffffffffffffffffffffffffffffffff1673ffffffffffffffffffffffffffffffffffffffff1663a9059cbb5f5f9054906101000a900473ffffffffffffffffffffffffffffffffffffffff16600a546040518363ffffffff1660e01b8152600401611342929190612685565b6020604051808303815f875af115801561135e573d5f5f3e3d5ffd5b505050506040513d601f19601f8201168201806040525081019061138291906127d3565b6113c1576040517f08c379a00000000000000000000000000000000000000000000000000000000081526004016113b8906128b0565b60405180910390fd5b5f5f9054906101000a900473ffffffffffffffffffffffffffffffffffffffff1673ffffffffffffffffffffffffffffffffffffffff167fcb4a9094da4df77fb2c0dbaa5047660b1237e61d82a02176c1be74ca757f2531600a546040516114299190611ba4565b60405180910390a25b6001600c5f6101000a81548160ff021916908315150217905550565b6008818154811061145d575f80fd5b905f5260205f2090600302015f91509050805f015490806001015490806002015f9054906101000a900473ffffffffffffffffffffffffffffffffffffffff16905083565b6060600780548060200260200160405190810160405280929190818152602001828054801561152357602002820191905f5260205f20905b815f9054906101000a900473ffffffffffffffffffffffffffffffffffffffff1673ffffffffffffffffffffffffffffffffffffffff16815260200190600101908083116114da575b5050505050905090565b600b544210611571576040517f08c379a000000000000000000000000000000000000000000000000000000000815260040161156890612918565b60405180910390fd5b5f5f9054906101000a900473ffffffffffffffffffffffffffffffffffffffff1673ffffffffffffffffffffffffffffffffffffffff163373ffffffffffffffffffffffffffffffffffffffff16036115ff576040517f08c379a00000000000000000000000000000000000000000000000000000000081526004016115f6906129a6565b60405180910390fd5b5f60055f3373ffffffffffffffffffffffffffffffffffffffff1673ffffffffffffffffffffffffffffffffffffffff1681526020019081526020015f205490505f828261164d91906129f1565b90505f820361169c5760015481101561169b576040517f08c379a000000000000000000000000000000000000000000000000000000000815260040161169290612a6e565b60405180910390fd5b5b600a5481116116e0576040517f08c379a00000000000000000000000000000000000000000000000000000000081526004016116d790612ad6565b60405180910390fd5b600c60019054906101000a900473ffffffffffffffffffffffffffffffffffffffff1673ffffffffffffffffffffffffffffffffffffffff166323b872dd3330866040518463ffffffff1660e01b815260040161173f93929190612af4565b6020604051808303815f875af115801561175b573d5f5f3e3d5ffd5b505050506040513d601f19601f8201168201806040525081019061177f91906127d3565b6117be576040517f08c379a00000000000000000000000000000000000000000000000000000000081526004016117b590612b73565b60405180910390fd5b8060055f3373ffffffffffffffffffffffffffffffffffffffff1673ffffffffffffffffffffffffffffffffffffffff1681526020019081526020015f208190555080600a819055503360095f6101000a81548173ffffffffffffffffffffffffffffffffffffffff021916908373ffffffffffffffffffffffffffffffffffffffff160217905550600860405180606001604052808581526020014281526020013373ffffffffffffffffffffffffffffffffffffffff16815250908060018154018082558091505060019003905f5260205f2090600302015f909190919091505f820151815f0155602082015181600101556040820151816002015f6101000a81548173ffffffffffffffffffffffffffffffffffffffff021916908373ffffffffffffffffffffffffffffffffffffffff160217905550505060045f3373ffffffffffffffffffffffffffffffffffffffff1673ffffffffffffffffffffffffffffffffffffffff1681526020019081526020015f205f9054906101000a900460ff16611a1557600160045f3373ffffffffffffffffffffffffffffffffffffffff1673ffffffffffffffffffffffffffffffffffffffff1681526020019081526020015f205f6101000a81548160ff02191690831515021790555060065f8154809291906119af90612b91565b9190505550600733908060018154018082558091505060019003905f5260205f20015f9091909190916101000a81548173ffffffffffffffffffffffffffffffffffffffff021916908373ffffffffffffffffffffffffffffffffffffffff1602179055505b505050565b5f60055f8373ffffffffffffffffffffffffffffffffffffffff1673ffffffffffffffffffffffffffffffffffffffff1681526020019081526020015f20549050919050565b600a5481565b60078181548110611a75575f80fd5b905f5260205f20015f915054906101000a900473ffffffffffffffffffffffffffffffffffffffff1681565b600c60019054906101000a900473ffffffffffffffffffffffffffffffffffffffff1681565b5f604051905090565b5f5ffd5b5f73ffffffffffffffffffffffffffffffffffffffff82169050919050565b5f611afd82611ad4565b9050919050565b611b0d81611af3565b8114611b17575f5ffd5b50565b5f81359050611b2881611b04565b92915050565b5f60208284031215611b4357611b42611ad0565b5b5f611b5084828501611b1a565b91505092915050565b5f8115159050919050565b611b6d81611b59565b82525050565b5f602082019050611b865f830184611b64565b92915050565b5f819050919050565b611b9e81611b8c565b82525050565b5f602082019050611bb75f830184611b95565b92915050565b5f81519050919050565b5f82825260208201905092915050565b8281835e5f83830152505050565b5f601f19601f8301169050919050565b5f611bff82611bbd565b611c098185611bc7565b9350611c19818560208601611bd7565b611c2281611be5565b840191505092915050565b5f6020820190508181035f830152611c458184611bf5565b905092915050565b611c5681611af3565b82525050565b5f81519050919050565b5f82825260208201905092915050565b5f819050602082019050919050565b611c8e81611af3565b82525050565b5f611c9f8383611c85565b60208301905092915050565b5f602082019050919050565b5f611cc182611c5c565b611ccb8185611c66565b9350611cd683611c76565b805f5b83811015611d06578151611ced8882611c94565b9750611cf883611cab565b925050600181019050611cd9565b5085935050505092915050565b5f61014082019050611d275f83018d611b95565b611d34602083018c611b95565b611d41604083018b611b95565b611d4e606083018a611c4d565b611d5b6080830189611b95565b81810360a0830152611d6d8188611bf5565b905081810360c0830152611d818187611bf5565b9050611d9060e0830186611c4d565b818103610100830152611da38185611cb7565b9050611db3610120830184611b95565b9b9a5050505050505050505050565b5f602082019050611dd55f830184611c4d565b92915050565b611de481611b8c565b8114611dee575f5ffd5b50565b5f81359050611dff81611ddb565b92915050565b5f60ff82169050919050565b611e1a81611e05565b8114611e24575f5ffd5b50565b5f81359050611e3581611e11565b92915050565b5f819050919050565b611e4d81611e3b565b8114611e57575f5ffd5b50565b5f81359050611e6881611e44565b92915050565b5f5f5f5f5f60a08688031215611e8757611e86611ad0565b5b5f611e9488828901611df1565b9550506020611ea588828901611df1565b9450506040611eb688828901611e27565b9350506060611ec788828901611e5a565b9250506080611ed888828901611e5a565b9150509295509295909350565b5f81519050919050565b5f82825260208201905092915050565b5f819050602082019050919050565b611f1781611b8c565b82525050565b606082015f820151611f315f850182611f0e565b506020820151611f446020850182611f0e565b506040820151611f576040850182611c85565b50505050565b5f611f688383611f1d565b60608301905092915050565b5f602082019050919050565b5f611f8a82611ee5565b611f948185611eef565b9350611f9f83611eff565b805f5b83811015611fcf578151611fb68882611f5d565b9750611fc183611f74565b925050600181019050611fa2565b5085935050505092915050565b5f6020820190508181035f830152611ff48184611f80565b905092915050565b5f6020828403121561201157612010611ad0565b5b5f61201e84828501611df1565b91505092915050565b5f60608201905061203a5f830186611b95565b6120476020830185611b95565b6120546040830184611c4d565b949350505050565b5f6020820190508181035f8301526120748184611cb7565b905092915050565b5f819050919050565b5f61209f61209a61209584611ad4565b61207c565b611ad4565b9050919050565b5f6120b082612085565b9050919050565b5f6120c1826120a6565b9050919050565b6120d1816120b7565b82525050565b5f6020820190506120ea5f8301846120c8565b92915050565b7f41756374696f6e206e6f742066696e616c697a656400000000000000000000005f82015250565b5f612124601583611bc7565b915061212f826120f0565b602082019050919050565b5f6020820190508181035f83015261215181612118565b9050919050565b7f4f6e6c792077696e6e65722063616e20616363657373207468652064617461005f82015250565b5f61218c601f83611bc7565b915061219782612158565b602082019050919050565b5f6020820190508181035f8301526121b981612180565b9050919050565b7f4e487b71000000000000000000000000000000000000000000000000000000005f52602260045260245ffd5b5f600282049050600182168061220457607f821691505b602082108103612217576122166121c0565b5b50919050565b5f8151905061222b81611ddb565b92915050565b5f6020828403121561224657612245611ad0565b5b5f6122538482850161221d565b91505092915050565b5f60608201905061226f5f830186611b95565b61227c6020830185611b95565b6122896040830184611b95565b949350505050565b61229a81611e05565b82525050565b6122a981611e3b565b82525050565b5f60e0820190506122c25f83018a611c4d565b6122cf6020830189611c4d565b6122dc6040830188611b95565b6122e96060830187611b95565b6122f66080830186612291565b61230360a08301856122a0565b61231060c08301846122a0565b98975050505050505050565b5f8160e01c9050919050565b5f60033d11156123445760045f5f3e6123415f5161231c565b90505b90565b7f4e487b71000000000000000000000000000000000000000000000000000000005f52604160045260245ffd5b61237d82611be5565b810181811067ffffffffffffffff8211171561239c5761239b612347565b5b80604052505050565b5f60443d10612431576123b6611ac7565b60043d036004823e80513d602482011167ffffffffffffffff821117156123de575050612431565b808201805167ffffffffffffffff8111156123fc5750505050612431565b80602083010160043d038501811115612419575050505050612431565b61242882602001850186612374565b82955050505050505b90565b5f81905092915050565b7f5065726d6974206661696c65643a2000000000000000000000000000000000005f82015250565b5f612472600f83612434565b915061247d8261243e565b600f82019050919050565b5f61249282611bbd565b61249c8185612434565b93506124ac818560208601611bd7565b80840191505092915050565b5f6124c282612466565b91506124ce8284612488565b915081905092915050565b7f556e6b6e6f776e206572726f72000000000000000000000000000000000000005f82015250565b5f61250d600d83611bc7565b9150612518826124d9565b602082019050919050565b5f6020820190508181035f83015261253a81612501565b9050919050565b7f5065726d6974206661696c65643a20756e6b6e6f776e206572726f72000000005f82015250565b5f612575601c83611bc7565b915061258082612541565b602082019050919050565b5f6020820190508181035f8301526125a281612569565b9050919050565b5f6040820190506125bc5f830185611c4d565b6125c96020830184611c4d565b9392505050565b5f6040820190506125e35f830185611b95565b6125f06020830184611b95565b9392505050565b7f416c6c6f77616e636520776173206e6f742075706461746564206279207065725f8201527f6d69740000000000000000000000000000000000000000000000000000000000602082015250565b5f612651602383611bc7565b915061265c826125f7565b604082019050919050565b5f6020820190508181035f83015261267e81612645565b9050919050565b5f6040820190506126985f830185611c4d565b6126a56020830184611b95565b9392505050565b7f41756374696f6e206e6f7420656e6465642079657400000000000000000000005f82015250565b5f6126e0601583611bc7565b91506126eb826126ac565b602082019050919050565b5f6020820190508181035f83015261270d816126d4565b9050919050565b7f41756374696f6e20616c72656164792066696e616c697a6564000000000000005f82015250565b5f612748601983611bc7565b915061275382612714565b602082019050919050565b5f6020820190508181035f8301526127758161273c565b9050919050565b7f4e487b71000000000000000000000000000000000000000000000000000000005f52603260045260245ffd5b6127b281611b59565b81146127bc575f5ffd5b50565b5f815190506127cd816127a9565b92915050565b5f602082840312156127e8576127e7611ad0565b5b5f6127f5848285016127bf565b91505092915050565b7f526566756e64206661696c6564000000000000000000000000000000000000005f82015250565b5f612832600d83611bc7565b915061283d826127fe565b602082019050919050565b5f6020820190508181035f83015261285f81612826565b9050919050565b7f5061796d656e7420746f2073656c6c6572206661696c656400000000000000005f82015250565b5f61289a601883611bc7565b91506128a582612866565b602082019050919050565b5f6020820190508181035f8301526128c78161288e565b9050919050565b7f41756374696f6e20656e646564000000000000000000000000000000000000005f82015250565b5f612902600d83611bc7565b915061290d826128ce565b602082019050919050565b5f6020820190508181035f83015261292f816128f6565b9050919050565b7f596f752063616e277420626964206f6e20796f7572206f776e2061756374696f5f8201527f6e00000000000000000000000000000000000000000000000000000000000000602082015250565b5f612990602183611bc7565b915061299b82612936565b604082019050919050565b5f6020820190508181035f8301526129bd81612984565b9050919050565b7f4e487b71000000000000000000000000000000000000000000000000000000005f52601160045260245ffd5b5f6129fb82611b8c565b9150612a0683611b8c565b9250828201905080821115612a1e57612a1d6129c4565b5b92915050565b7f42656c6f77206d696e696d756d206269640000000000000000000000000000005f82015250565b5f612a58601183611bc7565b9150612a6382612a24565b602082019050919050565b5f6020820190508181035f830152612a8581612a4c565b9050919050565b7f426964206d757374206578636565642063757272656e742068696768657374005f82015250565b5f612ac0601f83611bc7565b9150612acb82612a8c565b602082019050919050565b5f6020820190508181035f830152612aed81612ab4565b9050919050565b5f606082019050612b075f830186611c4d565b612b146020830185611c4d565b612b216040830184611b95565b949350505050565b7f5472616e73666572206661696c656400000000000000000000000000000000005f82015250565b5f612b5d600f83611bc7565b9150612b6882612b29565b602082019050919050565b5f6020820190508181035f830152612b8a81612b51565b9050919050565b5f612b9b82611b8c565b91507fffffffffffffffffffffffffffffffffffffffffffffffffffffffffffffffff8203612bcd57612bcc6129c4565b5b60018201905091905056fea2646970667358221220b513931911f6137c1c2734bc1fe4ab5a6c4344b86aac6cbdc277f96aba1c42bc64736f6c634300081e0033a2646970667358221220d9af48793e6ba19e116b5ed201f09f5b8db9e6c3876781aa536bf0c4ad0908d264736f6c634300081e0033","opcodes":"PUSH1 0x80 PUSH1 0x40 MSTORE CALLVALUE DUP1 ISZERO PUSH1 0xE JUMPI PUSH0 PUSH0 REVERT JUMPDEST POP PUSH2 0x3CDC DUP1 PUSH2 0x1C PUSH0 CODECOPY PUSH0 RETURN INVALID PUSH1 0x80 PUSH1 0x40 MSTORE CALLVALUE DUP1 ISZERO PUSH2 0xF JUMPI PUSH0 PUSH0 REVERT JUMPDEST POP PUSH1 0x4 CALLDATASIZE LT PUSH2 0x4A JUMPI PUSH0 CALLDATALOAD PUSH1 0xE0 SHR DUP1 PUSH4 0x339D50A5 EQ PUSH2 0x4E JUMPI DUP1 PUSH4 0x4ACB9D4F EQ PUSH2 0x7E JUMPI DUP1 PUSH4 0x75DA6BA0 EQ PUSH2 0x9C JUMPI DUP1 PUSH4 0xF9F01F88 EQ PUSH2 0xA6 JUMPI JUMPDEST PUSH0 PUSH0 REVERT JUMPDEST PUSH2 0x68 PUSH1 0x4 DUP1 CALLDATASIZE SUB DUP2 ADD SWAP1 PUSH2 0x63 SWAP2 SWAP1 PUSH2 0x43F JUMP JUMPDEST PUSH2 0xC2 JUMP JUMPDEST PUSH1 0x40 MLOAD PUSH2 0x75 SWAP2 SWAP1 PUSH2 0x4A9 JUMP JUMPDEST PUSH1 0x40 MLOAD DUP1 SWAP2 SUB SWAP1 RETURN JUMPDEST PUSH2 0x86 PUSH2 0xFC JUMP JUMPDEST PUSH1 0x40 MLOAD PUSH2 0x93 SWAP2 SWAP1 PUSH2 0x579 JUMP JUMPDEST PUSH1 0x40 MLOAD DUP1 SWAP2 SUB SWAP1 RETURN JUMPDEST PUSH2 0xA4 PUSH2 0x186 JUMP JUMPDEST STOP JUMPDEST PUSH2 0xC0 PUSH1 0x4 DUP1 CALLDATASIZE SUB DUP2 ADD SWAP1 PUSH2 0xBB SWAP2 SWAP1 PUSH2 0x710 JUMP JUMPDEST PUSH2 0x32D JUMP JUMPDEST STOP JUMPDEST PUSH0 DUP2 DUP2 SLOAD DUP2 LT PUSH2 0xD0 JUMPI PUSH0 DUP1 REVERT JUMPDEST SWAP1 PUSH0 MSTORE PUSH1 0x20 PUSH0 KECCAK256 ADD PUSH0 SWAP2 POP SLOAD SWAP1 PUSH2 0x100 EXP SWAP1 DIV PUSH20 0xFFFFFFFFFFFFFFFFFFFFFFFFFFFFFFFFFFFFFFFF AND DUP2 JUMP JUMPDEST PUSH1 0x60 PUSH0 DUP1 SLOAD DUP1 PUSH1 0x20 MUL PUSH1 0x20 ADD PUSH1 0x40 MLOAD SWAP1 DUP2 ADD PUSH1 0x40 MSTORE DUP1 SWAP3 SWAP2 SWAP1 DUP2 DUP2 MSTORE PUSH1 0x20 ADD DUP3 DUP1 SLOAD DUP1 ISZERO PUSH2 0x17C JUMPI PUSH1 0x20 MUL DUP3 ADD SWAP2 SWAP1 PUSH0 MSTORE PUSH1 0x20 PUSH0 KECCAK256 SWAP1 JUMPDEST DUP2 PUSH0 SWAP1 SLOAD SWAP1 PUSH2 0x100 EXP SWAP1 DIV PUSH20 0xFFFFFFFFFFFFFFFFFFFFFFFFFFFFFFFFFFFFFFFF AND PUSH20 0xFFFFFFFFFFFFFFFFFFFFFFFFFFFFFFFFFFFFFFFF AND DUP2 MSTORE PUSH1 0x20 ADD SWAP1 PUSH1 0x1 ADD SWAP1 DUP1 DUP4 GT PUSH2 0x133 JUMPI JUMPDEST POP POP POP POP POP SWAP1 POP SWAP1 JUMP JUMPDEST PUSH0 PUSH0 SWAP1 POP JUMPDEST PUSH0 DUP1 SLOAD SWAP1 POP DUP2 LT ISZERO PUSH2 0x32A JUMPI PUSH0 PUSH0 DUP3 DUP2 SLOAD DUP2 LT PUSH2 0x1AB JUMPI PUSH2 0x1AA PUSH2 0x7BF JUMP JUMPDEST JUMPDEST SWAP1 PUSH0 MSTORE PUSH1 0x20 PUSH0 KECCAK256 ADD PUSH0 SWAP1 SLOAD SWAP1 PUSH2 0x100 EXP SWAP1 DIV PUSH20 0xFFFFFFFFFFFFFFFFFFFFFFFFFFFFFFFFFFFFFFFF AND SWAP1 POP DUP1 PUSH20 0xFFFFFFFFFFFFFFFFFFFFFFFFFFFFFFFFFFFFFFFF AND PUSH4 0x4E69D560 PUSH1 0x40 MLOAD DUP2 PUSH4 0xFFFFFFFF AND PUSH1 0xE0 SHL DUP2 MSTORE PUSH1 0x4 ADD PUSH1 0x20 PUSH1 0x40 MLOAD DUP1 DUP4 SUB DUP2 DUP7 GAS STATICCALL ISZERO DUP1 ISZERO PUSH2 0x21E JUMPI RETURNDATASIZE PUSH0 PUSH0 RETURNDATACOPY RETURNDATASIZE PUSH0 REVERT JUMPDEST POP POP POP POP PUSH1 0x40 MLOAD RETURNDATASIZE PUSH1 0x1F NOT PUSH1 0x1F DUP3 ADD AND DUP3 ADD DUP1 PUSH1 0x40 MSTORE POP DUP2 ADD SWAP1 PUSH2 0x242 SWAP2 SWAP1 PUSH2 0x821 JUMP JUMPDEST ISZERO DUP1 ISZERO PUSH2 0x2BB JUMPI POP DUP1 PUSH20 0xFFFFFFFFFFFFFFFFFFFFFFFFFFFFFFFFFFFFFFFF AND PUSH4 0x3197CBB6 PUSH1 0x40 MLOAD DUP2 PUSH4 0xFFFFFFFF AND PUSH1 0xE0 SHL DUP2 MSTORE PUSH1 0x4 ADD PUSH1 0x20 PUSH1 0x40 MLOAD DUP1 DUP4 SUB DUP2 DUP7 GAS STATICCALL ISZERO DUP1 ISZERO PUSH2 0x293 JUMPI RETURNDATASIZE PUSH0 PUSH0 RETURNDATACOPY RETURNDATASIZE PUSH0 REVERT JUMPDEST POP POP POP POP PUSH1 0x40 MLOAD RETURNDATASIZE PUSH1 0x1F NOT PUSH1 0x1F DUP3 ADD AND DUP3 ADD DUP1 PUSH1 0x40 MSTORE POP DUP2 ADD SWAP1 PUSH2 0x2B7 SWAP2 SWAP1 PUSH2 0x860 JUMP JUMPDEST TIMESTAMP LT ISZERO JUMPDEST ISZERO PUSH2 0x31C JUMPI DUP1 PUSH20 0xFFFFFFFFFFFFFFFFFFFFFFFFFFFFFFFFFFFFFFFF AND PUSH4 0x976AF615 PUSH1 0x40 MLOAD DUP2 PUSH4 0xFFFFFFFF AND PUSH1 0xE0 SHL DUP2 MSTORE PUSH1 0x4 ADD PUSH0 PUSH1 0x40 MLOAD DUP1 DUP4 SUB DUP2 PUSH0 DUP8 DUP1 EXTCODESIZE ISZERO DUP1 ISZERO PUSH2 0x305 JUMPI PUSH0 PUSH0 REVERT JUMPDEST POP GAS CALL ISZERO DUP1 ISZERO PUSH2 0x317 JUMPI RETURNDATASIZE PUSH0 PUSH0 RETURNDATACOPY RETURNDATASIZE PUSH0 REVERT JUMPDEST POP POP POP POP JUMPDEST POP DUP1 DUP1 PUSH1 0x1 ADD SWAP2 POP POP PUSH2 0x18B JUMP JUMPDEST POP JUMP JUMPDEST PUSH0 TIMESTAMP DUP4 PUSH1 0x3C PUSH2 0x33C SWAP2 SWAP1 PUSH2 0x8B8 JUMP JUMPDEST PUSH2 0x346 SWAP2 SWAP1 PUSH2 0x8F9 JUMP JUMPDEST SWAP1 POP PUSH0 DUP7 DUP7 DUP7 CALLER DUP6 DUP8 PUSH1 0x40 MLOAD PUSH2 0x35B SWAP1 PUSH2 0x3EE JUMP JUMPDEST PUSH2 0x36A SWAP7 SWAP6 SWAP5 SWAP4 SWAP3 SWAP2 SWAP1 PUSH2 0x9AA JUMP JUMPDEST PUSH1 0x40 MLOAD DUP1 SWAP2 SUB SWAP1 PUSH0 CREATE DUP1 ISZERO DUP1 ISZERO PUSH2 0x383 JUMPI RETURNDATASIZE PUSH0 PUSH0 RETURNDATACOPY RETURNDATASIZE PUSH0 REVERT JUMPDEST POP SWAP1 POP PUSH0 DUP2 SWAP1 DUP1 PUSH1 0x1 DUP2 SLOAD ADD DUP1 DUP3 SSTORE DUP1 SWAP2 POP POP PUSH1 0x1 SWAP1 SUB SWAP1 PUSH0 MSTORE PUSH1 0x20 PUSH0 KECCAK256 ADD PUSH0 SWAP1 SWAP2 SWAP1 SWAP2 SWAP1 SWAP2 PUSH2 0x100 EXP DUP2 SLOAD DUP2 PUSH20 0xFFFFFFFFFFFFFFFFFFFFFFFFFFFFFFFFFFFFFFFF MUL NOT AND SWAP1 DUP4 PUSH20 0xFFFFFFFFFFFFFFFFFFFFFFFFFFFFFFFFFFFFFFFF AND MUL OR SWAP1 SSTORE POP POP POP POP POP POP POP POP JUMP JUMPDEST PUSH2 0x328F DUP1 PUSH2 0xA18 DUP4 CODECOPY ADD SWAP1 JUMP JUMPDEST PUSH0 PUSH1 0x40 MLOAD SWAP1 POP SWAP1 JUMP JUMPDEST PUSH0 PUSH0 REVERT JUMPDEST PUSH0 PUSH0 REVERT JUMPDEST PUSH0 DUP2 SWAP1 POP SWAP2 SWAP1 POP JUMP JUMPDEST PUSH2 0x41E DUP2 PUSH2 0x40C JUMP JUMPDEST DUP2 EQ PUSH2 0x428 JUMPI PUSH0 PUSH0 REVERT JUMPDEST POP JUMP JUMPDEST PUSH0 DUP2 CALLDATALOAD SWAP1 POP PUSH2 0x439 DUP2 PUSH2 0x415 JUMP JUMPDEST SWAP3 SWAP2 POP POP JUMP JUMPDEST PUSH0 PUSH1 0x20 DUP3 DUP5 SUB SLT ISZERO PUSH2 0x454 JUMPI PUSH2 0x453 PUSH2 0x404 JUMP JUMPDEST JUMPDEST PUSH0 PUSH2 0x461 DUP5 DUP3 DUP6 ADD PUSH2 0x42B JUMP JUMPDEST SWAP2 POP POP SWAP3 SWAP2 POP POP JUMP JUMPDEST PUSH0 PUSH20 0xFFFFFFFFFFFFFFFFFFFFFFFFFFFFFFFFFFFFFFFF DUP3 AND SWAP1 POP SWAP2 SWAP1 POP JUMP JUMPDEST PUSH0 PUSH2 0x493 DUP3 PUSH2 0x46A JUMP JUMPDEST SWAP1 POP SWAP2 SWAP1 POP JUMP JUMPDEST PUSH2 0x4A3 DUP2 PUSH2 0x489 JUMP JUMPDEST DUP3 MSTORE POP POP JUMP JUMPDEST PUSH0 PUSH1 0x20 DUP3 ADD SWAP1 POP PUSH2 0x4BC PUSH0 DUP4 ADD DUP5 PUSH2 0x49A JUMP JUMPDEST SWAP3 SWAP2 POP POP JUMP JUMPDEST PUSH0 DUP2 MLOAD SWAP1 POP SWAP2 SWAP1 POP JUMP JUMPDEST PUSH0 DUP3 DUP3 MSTORE PUSH1 0x20 DUP3 ADD SWAP1 POP SWAP3 SWAP2 POP POP JUMP JUMPDEST PUSH0 DUP2 SWAP1 POP PUSH1 0x20 DUP3 ADD SWAP1 POP SWAP2 SWAP1 POP JUMP JUMPDEST PUSH2 0x4F4 DUP2 PUSH2 0x489 JUMP JUMPDEST DUP3 MSTORE POP POP JUMP JUMPDEST PUSH0 PUSH2 0x505 DUP4 DUP4 PUSH2 0x4EB JUMP JUMPDEST PUSH1 0x20 DUP4 ADD SWAP1 POP SWAP3 SWAP2 POP POP JUMP JUMPDEST PUSH0 PUSH1 0x20 DUP3 ADD SWAP1 POP SWAP2 SWAP1 POP JUMP JUMPDEST PUSH0 PUSH2 0x527 DUP3 PUSH2 0x4C2 JUMP JUMPDEST PUSH2 0x531 DUP2 DUP6 PUSH2 0x4CC JUMP JUMPDEST SWAP4 POP PUSH2 0x53C DUP4 PUSH2 0x4DC JUMP JUMPDEST DUP1 PUSH0 JUMPDEST DUP4 DUP2 LT ISZERO PUSH2 0x56C JUMPI DUP2 MLOAD PUSH2 0x553 DUP9 DUP3 PUSH2 0x4FA JUMP JUMPDEST SWAP8 POP PUSH2 0x55E DUP4 PUSH2 0x511 JUMP JUMPDEST SWAP3 POP POP PUSH1 0x1 DUP2 ADD SWAP1 POP PUSH2 0x53F JUMP JUMPDEST POP DUP6 SWAP4 POP POP POP POP SWAP3 SWAP2 POP POP JUMP JUMPDEST PUSH0 PUSH1 0x20 DUP3 ADD SWAP1 POP DUP2 DUP2 SUB PUSH0 DUP4 ADD MSTORE PUSH2 0x591 DUP2 DUP5 PUSH2 0x51D JUMP JUMPDEST SWAP1 POP SWAP3 SWAP2 POP POP JUMP JUMPDEST PUSH0 PUSH0 REVERT JUMPDEST PUSH0 PUSH0 REVERT JUMPDEST PUSH0 PUSH1 0x1F NOT PUSH1 0x1F DUP4 ADD AND SWAP1 POP SWAP2 SWAP1 POP JUMP JUMPDEST PUSH32 0x4E487B7100000000000000000000000000000000000000000000000000000000 PUSH0 MSTORE PUSH1 0x41 PUSH1 0x4 MSTORE PUSH1 0x24 PUSH0 REVERT JUMPDEST PUSH2 0x5E7 DUP3 PUSH2 0x5A1 JUMP JUMPDEST DUP2 ADD DUP2 DUP2 LT PUSH8 0xFFFFFFFFFFFFFFFF DUP3 GT OR ISZERO PUSH2 0x606 JUMPI PUSH2 0x605 PUSH2 0x5B1 JUMP JUMPDEST JUMPDEST DUP1 PUSH1 0x40 MSTORE POP POP POP JUMP JUMPDEST PUSH0 PUSH2 0x618 PUSH2 0x3FB JUMP JUMPDEST SWAP1 POP PUSH2 0x624 DUP3 DUP3 PUSH2 0x5DE JUMP JUMPDEST SWAP2 SWAP1 POP JUMP JUMPDEST PUSH0 PUSH8 0xFFFFFFFFFFFFFFFF DUP3 GT ISZERO PUSH2 0x643 JUMPI PUSH2 0x642 PUSH2 0x5B1 JUMP JUMPDEST JUMPDEST PUSH2 0x64C DUP3 PUSH2 0x5A1 JUMP JUMPDEST SWAP1 POP PUSH1 0x20 DUP2 ADD SWAP1 POP SWAP2 SWAP1 POP JUMP JUMPDEST DUP3 DUP2 DUP4 CALLDATACOPY PUSH0 DUP4 DUP4 ADD MSTORE POP POP POP JUMP JUMPDEST PUSH0 PUSH2 0x679 PUSH2 0x674 DUP5 PUSH2 0x629 JUMP JUMPDEST PUSH2 0x60F JUMP JUMPDEST SWAP1 POP DUP3 DUP2 MSTORE PUSH1 0x20 DUP2 ADD DUP5 DUP5 DUP5 ADD GT ISZERO PUSH2 0x695 JUMPI PUSH2 0x694 PUSH2 0x59D JUMP JUMPDEST JUMPDEST PUSH2 0x6A0 DUP5 DUP3 DUP6 PUSH2 0x659 JUMP JUMPDEST POP SWAP4 SWAP3 POP POP POP JUMP JUMPDEST PUSH0 DUP3 PUSH1 0x1F DUP4 ADD SLT PUSH2 0x6BC JUMPI PUSH2 0x6BB PUSH2 0x599 JUMP JUMPDEST JUMPDEST DUP2 CALLDATALOAD PUSH2 0x6CC DUP5 DUP3 PUSH1 0x20 DUP7 ADD PUSH2 0x667 JUMP JUMPDEST SWAP2 POP POP SWAP3 SWAP2 POP POP JUMP JUMPDEST PUSH0 PUSH2 0x6DF DUP3 PUSH2 0x46A JUMP JUMPDEST SWAP1 POP SWAP2 SWAP1 POP JUMP JUMPDEST PUSH2 0x6EF DUP2 PUSH2 0x6D5 JUMP JUMPDEST DUP2 EQ PUSH2 0x6F9 JUMPI PUSH0 PUSH0 REVERT JUMPDEST POP JUMP JUMPDEST PUSH0 DUP2 CALLDATALOAD SWAP1 POP PUSH2 0x70A DUP2 PUSH2 0x6E6 JUMP JUMPDEST SWAP3 SWAP2 POP POP JUMP JUMPDEST PUSH0 PUSH0 PUSH0 PUSH0 PUSH0 PUSH1 0xA0 DUP7 DUP9 SUB SLT ISZERO PUSH2 0x729 JUMPI PUSH2 0x728 PUSH2 0x404 JUMP JUMPDEST JUMPDEST PUSH0 PUSH2 0x736 DUP9 DUP3 DUP10 ADD PUSH2 0x42B JUMP JUMPDEST SWAP6 POP POP PUSH1 0x20 DUP7 ADD CALLDATALOAD PUSH8 0xFFFFFFFFFFFFFFFF DUP2 GT ISZERO PUSH2 0x757 JUMPI PUSH2 0x756 PUSH2 0x408 JUMP JUMPDEST JUMPDEST PUSH2 0x763 DUP9 DUP3 DUP10 ADD PUSH2 0x6A8 JUMP JUMPDEST SWAP5 POP POP PUSH1 0x40 DUP7 ADD CALLDATALOAD PUSH8 0xFFFFFFFFFFFFFFFF DUP2 GT ISZERO PUSH2 0x784 JUMPI PUSH2 0x783 PUSH2 0x408 JUMP JUMPDEST JUMPDEST PUSH2 0x790 DUP9 DUP3 DUP10 ADD PUSH2 0x6A8 JUMP JUMPDEST SWAP4 POP POP PUSH1 0x60 PUSH2 0x7A1 DUP9 DUP3 DUP10 ADD PUSH2 0x42B JUMP JUMPDEST SWAP3 POP POP PUSH1 0x80 PUSH2 0x7B2 DUP9 DUP3 DUP10 ADD PUSH2 0x6FC JUMP JUMPDEST SWAP2 POP POP SWAP3 SWAP6 POP SWAP3 SWAP6 SWAP1 SWAP4 POP JUMP JUMPDEST PUSH32 0x4E487B7100000000000000000000000000000000000000000000000000000000 PUSH0 MSTORE PUSH1 0x32 PUSH1 0x4 MSTORE PUSH1 0x24 PUSH0 REVERT JUMPDEST PUSH0 DUP2 ISZERO ISZERO SWAP1 POP SWAP2 SWAP1 POP JUMP JUMPDEST PUSH2 0x800 DUP2 PUSH2 0x7EC JUMP JUMPDEST DUP2 EQ PUSH2 0x80A JUMPI PUSH0 PUSH0 REVERT JUMPDEST POP JUMP JUMPDEST PUSH0 DUP2 MLOAD SWAP1 POP PUSH2 0x81B DUP2 PUSH2 0x7F7 JUMP JUMPDEST SWAP3 SWAP2 POP POP JUMP JUMPDEST PUSH0 PUSH1 0x20 DUP3 DUP5 SUB SLT ISZERO PUSH2 0x836 JUMPI PUSH2 0x835 PUSH2 0x404 JUMP JUMPDEST JUMPDEST PUSH0 PUSH2 0x843 DUP5 DUP3 DUP6 ADD PUSH2 0x80D JUMP JUMPDEST SWAP2 POP POP SWAP3 SWAP2 POP POP JUMP JUMPDEST PUSH0 DUP2 MLOAD SWAP1 POP PUSH2 0x85A DUP2 PUSH2 0x415 JUMP JUMPDEST SWAP3 SWAP2 POP POP JUMP JUMPDEST PUSH0 PUSH1 0x20 DUP3 DUP5 SUB SLT ISZERO PUSH2 0x875 JUMPI PUSH2 0x874 PUSH2 0x404 JUMP JUMPDEST JUMPDEST PUSH0 PUSH2 0x882 DUP5 DUP3 DUP6 ADD PUSH2 0x84C JUMP JUMPDEST SWAP2 POP POP SWAP3 SWAP2 POP POP JUMP JUMPDEST PUSH32 0x4E487B7100000000000000000000000000000000000000000000000000000000 PUSH0 MSTORE PUSH1 0x11 PUSH1 0x4 MSTORE PUSH1 0x24 PUSH0 REVERT JUMPDEST PUSH0 PUSH2 0x8C2 DUP3 PUSH2 0x40C JUMP JUMPDEST SWAP2 POP PUSH2 0x8CD DUP4 PUSH2 0x40C JUMP JUMPDEST SWAP3 POP DUP3 DUP3 MUL PUSH2 0x8DB DUP2 PUSH2 0x40C JUMP JUMPDEST SWAP2 POP DUP3 DUP3 DIV DUP5 EQ DUP4 ISZERO OR PUSH2 0x8F2 JUMPI PUSH2 0x8F1 PUSH2 0x88B JUMP JUMPDEST JUMPDEST POP SWAP3 SWAP2 POP POP JUMP JUMPDEST PUSH0 PUSH2 0x903 DUP3 PUSH2 0x40C JUMP JUMPDEST SWAP2 POP PUSH2 0x90E DUP4 PUSH2 0x40C JUMP JUMPDEST SWAP3 POP DUP3 DUP3 ADD SWAP1 POP DUP1 DUP3 GT ISZERO PUSH2 0x926 JUMPI PUSH2 0x925 PUSH2 0x88B JUMP JUMPDEST JUMPDEST SWAP3 SWAP2 POP POP JUMP JUMPDEST PUSH2 0x935 DUP2 PUSH2 0x40C JUMP JUMPDEST DUP3 MSTORE POP POP JUMP JUMPDEST PUSH0 DUP2 MLOAD SWAP1 POP SWAP2 SWAP1 POP JUMP JUMPDEST PUSH0 DUP3 DUP3 MSTORE PUSH1 0x20 DUP3 ADD SWAP1 POP SWAP3 SWAP2 POP POP JUMP JUMPDEST DUP3 DUP2 DUP4 MCOPY PUSH0 DUP4 DUP4 ADD MSTORE POP POP POP JUMP JUMPDEST PUSH0 PUSH2 0x96D DUP3 PUSH2 0x93B JUMP JUMPDEST PUSH2 0x977 DUP2 DUP6 PUSH2 0x945 JUMP JUMPDEST SWAP4 POP PUSH2 0x987 DUP2 DUP6 PUSH1 0x20 DUP7 ADD PUSH2 0x955 JUMP JUMPDEST PUSH2 0x990 DUP2 PUSH2 0x5A1 JUMP JUMPDEST DUP5 ADD SWAP2 POP POP SWAP3 SWAP2 POP POP JUMP JUMPDEST PUSH2 0x9A4 DUP2 PUSH2 0x6D5 JUMP JUMPDEST DUP3 MSTORE POP POP JUMP JUMPDEST PUSH0 PUSH1 0xC0 DUP3 ADD SWAP1 POP PUSH2 0x9BD PUSH0 DUP4 ADD DUP10 PUSH2 0x92C JUMP JUMPDEST DUP2 DUP2 SUB PUSH1 0x20 DUP4 ADD MSTORE PUSH2 0x9CF DUP2 DUP9 PUSH2 0x963 JUMP JUMPDEST SWAP1 POP DUP2 DUP2 SUB PUSH1 0x40 DUP4 ADD MSTORE PUSH2 0x9E3 DUP2 DUP8 PUSH2 0x963 JUMP JUMPDEST SWAP1 POP PUSH2 0x9F2 PUSH1 0x60 DUP4 ADD DUP7 PUSH2 0x99B JUMP JUMPDEST PUSH2 0x9FF PUSH1 0x80 DUP4 ADD DUP6 PUSH2 0x92C JUMP JUMPDEST PUSH2 0xA0C PUSH1 0xA0 DUP4 ADD DUP5 PUSH2 0x99B JUMP JUMPDEST SWAP8 SWAP7 POP POP POP POP POP POP POP JUMP INVALID PUSH1 0x80 PUSH1 0x40 MSTORE CALLVALUE DUP1 ISZERO PUSH2 0xF JUMPI PUSH0 PUSH0 REVERT JUMPDEST POP PUSH1 0x40 MLOAD PUSH2 0x328F CODESIZE SUB DUP1 PUSH2 0x328F DUP4 CODECOPY DUP2 DUP2 ADD PUSH1 0x40 MSTORE DUP2 ADD SWAP1 PUSH2 0x31 SWAP2 SWAP1 PUSH2 0x2DD JUMP JUMPDEST DUP3 PUSH0 PUSH0 PUSH2 0x100 EXP DUP2 SLOAD DUP2 PUSH20 0xFFFFFFFFFFFFFFFFFFFFFFFFFFFFFFFFFFFFFFFF MUL NOT AND SWAP1 DUP4 PUSH20 0xFFFFFFFFFFFFFFFFFFFFFFFFFFFFFFFFFFFFFFFF AND MUL OR SWAP1 SSTORE POP DUP6 PUSH1 0x1 DUP2 SWAP1 SSTORE POP DUP5 PUSH1 0x2 SWAP1 DUP2 PUSH2 0x86 SWAP2 SWAP1 PUSH2 0x5A5 JUMP JUMPDEST POP DUP4 PUSH1 0x3 SWAP1 DUP2 PUSH2 0x96 SWAP2 SWAP1 PUSH2 0x5A5 JUMP JUMPDEST POP DUP2 PUSH1 0xB DUP2 SWAP1 SSTORE POP PUSH0 PUSH1 0xC PUSH0 PUSH2 0x100 EXP DUP2 SLOAD DUP2 PUSH1 0xFF MUL NOT AND SWAP1 DUP4 ISZERO ISZERO MUL OR SWAP1 SSTORE POP DUP1 PUSH1 0xC PUSH1 0x1 PUSH2 0x100 EXP DUP2 SLOAD DUP2 PUSH20 0xFFFFFFFFFFFFFFFFFFFFFFFFFFFFFFFFFFFFFFFF MUL NOT AND SWAP1 DUP4 PUSH20 0xFFFFFFFFFFFFFFFFFFFFFFFFFFFFFFFFFFFFFFFF AND MUL OR SWAP1 SSTORE POP POP POP POP POP POP POP PUSH2 0x674 JUMP JUMPDEST PUSH0 PUSH1 0x40 MLOAD SWAP1 POP SWAP1 JUMP JUMPDEST PUSH0 PUSH0 REVERT JUMPDEST PUSH0 PUSH0 REVERT JUMPDEST PUSH0 DUP2 SWAP1 POP SWAP2 SWAP1 POP JUMP JUMPDEST PUSH2 0x126 DUP2 PUSH2 0x114 JUMP JUMPDEST DUP2 EQ PUSH2 0x130 JUMPI PUSH0 PUSH0 REVERT JUMPDEST POP JUMP JUMPDEST PUSH0 DUP2 MLOAD SWAP1 POP PUSH2 0x141 DUP2 PUSH2 0x11D JUMP JUMPDEST SWAP3 SWAP2 POP POP JUMP JUMPDEST PUSH0 PUSH0 REVERT JUMPDEST PUSH0 PUSH0 REVERT JUMPDEST PUSH0 PUSH1 0x1F NOT PUSH1 0x1F DUP4 ADD AND SWAP1 POP SWAP2 SWAP1 POP JUMP JUMPDEST PUSH32 0x4E487B7100000000000000000000000000000000000000000000000000000000 PUSH0 MSTORE PUSH1 0x41 PUSH1 0x4 MSTORE PUSH1 0x24 PUSH0 REVERT JUMPDEST PUSH2 0x195 DUP3 PUSH2 0x14F JUMP JUMPDEST DUP2 ADD DUP2 DUP2 LT PUSH8 0xFFFFFFFFFFFFFFFF DUP3 GT OR ISZERO PUSH2 0x1B4 JUMPI PUSH2 0x1B3 PUSH2 0x15F JUMP JUMPDEST JUMPDEST DUP1 PUSH1 0x40 MSTORE POP POP POP JUMP JUMPDEST PUSH0 PUSH2 0x1C6 PUSH2 0x103 JUMP JUMPDEST SWAP1 POP PUSH2 0x1D2 DUP3 DUP3 PUSH2 0x18C JUMP JUMPDEST SWAP2 SWAP1 POP JUMP JUMPDEST PUSH0 PUSH8 0xFFFFFFFFFFFFFFFF DUP3 GT ISZERO PUSH2 0x1F1 JUMPI PUSH2 0x1F0 PUSH2 0x15F JUMP JUMPDEST JUMPDEST PUSH2 0x1FA DUP3 PUSH2 0x14F JUMP JUMPDEST SWAP1 POP PUSH1 0x20 DUP2 ADD SWAP1 POP SWAP2 SWAP1 POP JUMP JUMPDEST DUP3 DUP2 DUP4 MCOPY PUSH0 DUP4 DUP4 ADD MSTORE POP POP POP JUMP JUMPDEST PUSH0 PUSH2 0x227 PUSH2 0x222 DUP5 PUSH2 0x1D7 JUMP JUMPDEST PUSH2 0x1BD JUMP JUMPDEST SWAP1 POP DUP3 DUP2 MSTORE PUSH1 0x20 DUP2 ADD DUP5 DUP5 DUP5 ADD GT ISZERO PUSH2 0x243 JUMPI PUSH2 0x242 PUSH2 0x14B JUMP JUMPDEST JUMPDEST PUSH2 0x24E DUP5 DUP3 DUP6 PUSH2 0x207 JUMP JUMPDEST POP SWAP4 SWAP3 POP POP POP JUMP JUMPDEST PUSH0 DUP3 PUSH1 0x1F DUP4 ADD SLT PUSH2 0x26A JUMPI PUSH2 0x269 PUSH2 0x147 JUMP JUMPDEST JUMPDEST DUP2 MLOAD PUSH2 0x27A DUP5 DUP3 PUSH1 0x20 DUP7 ADD PUSH2 0x215 JUMP JUMPDEST SWAP2 POP POP SWAP3 SWAP2 POP POP JUMP JUMPDEST PUSH0 PUSH20 0xFFFFFFFFFFFFFFFFFFFFFFFFFFFFFFFFFFFFFFFF DUP3 AND SWAP1 POP SWAP2 SWAP1 POP JUMP JUMPDEST PUSH0 PUSH2 0x2AC DUP3 PUSH2 0x283 JUMP JUMPDEST SWAP1 POP SWAP2 SWAP1 POP JUMP JUMPDEST PUSH2 0x2BC DUP2 PUSH2 0x2A2 JUMP JUMPDEST DUP2 EQ PUSH2 0x2C6 JUMPI PUSH0 PUSH0 REVERT JUMPDEST POP JUMP JUMPDEST PUSH0 DUP2 MLOAD SWAP1 POP PUSH2 0x2D7 DUP2 PUSH2 0x2B3 JUMP JUMPDEST SWAP3 SWAP2 POP POP JUMP JUMPDEST PUSH0 PUSH0 PUSH0 PUSH0 PUSH0 PUSH0 PUSH1 0xC0 DUP8 DUP10 SUB SLT ISZERO PUSH2 0x2F7 JUMPI PUSH2 0x2F6 PUSH2 0x10C JUMP JUMPDEST JUMPDEST PUSH0 PUSH2 0x304 DUP10 DUP3 DUP11 ADD PUSH2 0x133 JUMP JUMPDEST SWAP7 POP POP PUSH1 0x20 DUP8 ADD MLOAD PUSH8 0xFFFFFFFFFFFFFFFF DUP2 GT ISZERO PUSH2 0x325 JUMPI PUSH2 0x324 PUSH2 0x110 JUMP JUMPDEST JUMPDEST PUSH2 0x331 DUP10 DUP3 DUP11 ADD PUSH2 0x256 JUMP JUMPDEST SWAP6 POP POP PUSH1 0x40 DUP8 ADD MLOAD PUSH8 0xFFFFFFFFFFFFFFFF DUP2 GT ISZERO PUSH2 0x352 JUMPI PUSH2 0x351 PUSH2 0x110 JUMP JUMPDEST JUMPDEST PUSH2 0x35E DUP10 DUP3 DUP11 ADD PUSH2 0x256 JUMP JUMPDEST SWAP5 POP POP PUSH1 0x60 PUSH2 0x36F DUP10 DUP3 DUP11 ADD PUSH2 0x2C9 JUMP JUMPDEST SWAP4 POP POP PUSH1 0x80 PUSH2 0x380 DUP10 DUP3 DUP11 ADD PUSH2 0x133 JUMP JUMPDEST SWAP3 POP POP PUSH1 0xA0 PUSH2 0x391 DUP10 DUP3 DUP11 ADD PUSH2 0x2C9 JUMP JUMPDEST SWAP2 POP POP SWAP3 SWAP6 POP SWAP3 SWAP6 POP SWAP3 SWAP6 JUMP JUMPDEST PUSH0 DUP2 MLOAD SWAP1 POP SWAP2 SWAP1 POP JUMP JUMPDEST PUSH32 0x4E487B7100000000000000000000000000000000000000000000000000000000 PUSH0 MSTORE PUSH1 0x22 PUSH1 0x4 MSTORE PUSH1 0x24 PUSH0 REVERT JUMPDEST PUSH0 PUSH1 0x2 DUP3 DIV SWAP1 POP PUSH1 0x1 DUP3 AND DUP1 PUSH2 0x3EC JUMPI PUSH1 0x7F DUP3 AND SWAP2 POP JUMPDEST PUSH1 0x20 DUP3 LT DUP2 SUB PUSH2 0x3FF JUMPI PUSH2 0x3FE PUSH2 0x3A8 JUMP JUMPDEST JUMPDEST POP SWAP2 SWAP1 POP JUMP JUMPDEST PUSH0 DUP2 SWAP1 POP DUP2 PUSH0 MSTORE PUSH1 0x20 PUSH0 KECCAK256 SWAP1 POP SWAP2 SWAP1 POP JUMP JUMPDEST PUSH0 PUSH1 0x20 PUSH1 0x1F DUP4 ADD DIV SWAP1 POP SWAP2 SWAP1 POP JUMP JUMPDEST PUSH0 DUP3 DUP3 SHL SWAP1 POP SWAP3 SWAP2 POP POP JUMP JUMPDEST PUSH0 PUSH1 0x8 DUP4 MUL PUSH2 0x461 PUSH32 0xFFFFFFFFFFFFFFFFFFFFFFFFFFFFFFFFFFFFFFFFFFFFFFFFFFFFFFFFFFFFFFFF DUP3 PUSH2 0x426 JUMP JUMPDEST PUSH2 0x46B DUP7 DUP4 PUSH2 0x426 JUMP JUMPDEST SWAP6 POP DUP1 NOT DUP5 AND SWAP4 POP DUP1 DUP7 AND DUP5 OR SWAP3 POP POP POP SWAP4 SWAP3 POP POP POP JUMP JUMPDEST PUSH0 DUP2 SWAP1 POP SWAP2 SWAP1 POP JUMP JUMPDEST PUSH0 PUSH2 0x4A6 PUSH2 0x4A1 PUSH2 0x49C DUP5 PUSH2 0x114 JUMP JUMPDEST PUSH2 0x483 JUMP JUMPDEST PUSH2 0x114 JUMP JUMPDEST SWAP1 POP SWAP2 SWAP1 POP JUMP JUMPDEST PUSH0 DUP2 SWAP1 POP SWAP2 SWAP1 POP JUMP JUMPDEST PUSH2 0x4BF DUP4 PUSH2 0x48C JUMP JUMPDEST PUSH2 0x4D3 PUSH2 0x4CB DUP3 PUSH2 0x4AD JUMP JUMPDEST DUP5 DUP5 SLOAD PUSH2 0x432 JUMP JUMPDEST DUP3 SSTORE POP POP POP POP JUMP JUMPDEST PUSH0 PUSH0 SWAP1 POP SWAP1 JUMP JUMPDEST PUSH2 0x4EA PUSH2 0x4DB JUMP JUMPDEST PUSH2 0x4F5 DUP2 DUP5 DUP5 PUSH2 0x4B6 JUMP JUMPDEST POP POP POP JUMP JUMPDEST JUMPDEST DUP2 DUP2 LT ISZERO PUSH2 0x518 JUMPI PUSH2 0x50D PUSH0 DUP3 PUSH2 0x4E2 JUMP JUMPDEST PUSH1 0x1 DUP2 ADD SWAP1 POP PUSH2 0x4FB JUMP JUMPDEST POP POP JUMP JUMPDEST PUSH1 0x1F DUP3 GT ISZERO PUSH2 0x55D JUMPI PUSH2 0x52E DUP2 PUSH2 0x405 JUMP JUMPDEST PUSH2 0x537 DUP5 PUSH2 0x417 JUMP JUMPDEST DUP2 ADD PUSH1 0x20 DUP6 LT ISZERO PUSH2 0x546 JUMPI DUP2 SWAP1 POP JUMPDEST PUSH2 0x55A PUSH2 0x552 DUP6 PUSH2 0x417 JUMP JUMPDEST DUP4 ADD DUP3 PUSH2 0x4FA JUMP JUMPDEST POP POP JUMPDEST POP POP POP JUMP JUMPDEST PUSH0 DUP3 DUP3 SHR SWAP1 POP SWAP3 SWAP2 POP POP JUMP JUMPDEST PUSH0 PUSH2 0x57D PUSH0 NOT DUP5 PUSH1 0x8 MUL PUSH2 0x562 JUMP JUMPDEST NOT DUP1 DUP4 AND SWAP2 POP POP SWAP3 SWAP2 POP POP JUMP JUMPDEST PUSH0 PUSH2 0x595 DUP4 DUP4 PUSH2 0x56E JUMP JUMPDEST SWAP2 POP DUP3 PUSH1 0x2 MUL DUP3 OR SWAP1 POP SWAP3 SWAP2 POP POP JUMP JUMPDEST PUSH2 0x5AE DUP3 PUSH2 0x39E JUMP JUMPDEST PUSH8 0xFFFFFFFFFFFFFFFF DUP2 GT ISZERO PUSH2 0x5C7 JUMPI PUSH2 0x5C6 PUSH2 0x15F JUMP JUMPDEST JUMPDEST PUSH2 0x5D1 DUP3 SLOAD PUSH2 0x3D5 JUMP JUMPDEST PUSH2 0x5DC DUP3 DUP3 DUP6 PUSH2 0x51C JUMP JUMPDEST PUSH0 PUSH1 0x20 SWAP1 POP PUSH1 0x1F DUP4 GT PUSH1 0x1 DUP2 EQ PUSH2 0x60D JUMPI PUSH0 DUP5 ISZERO PUSH2 0x5FB JUMPI DUP3 DUP8 ADD MLOAD SWAP1 POP JUMPDEST PUSH2 0x605 DUP6 DUP3 PUSH2 0x58A JUMP JUMPDEST DUP7 SSTORE POP PUSH2 0x66C JUMP JUMPDEST PUSH1 0x1F NOT DUP5 AND PUSH2 0x61B DUP7 PUSH2 0x405 JUMP JUMPDEST PUSH0 JUMPDEST DUP3 DUP2 LT ISZERO PUSH2 0x642 JUMPI DUP5 DUP10 ADD MLOAD DUP3 SSTORE PUSH1 0x1 DUP3 ADD SWAP2 POP PUSH1 0x20 DUP6 ADD SWAP5 POP PUSH1 0x20 DUP2 ADD SWAP1 POP PUSH2 0x61D JUMP JUMPDEST DUP7 DUP4 LT ISZERO PUSH2 0x65F JUMPI DUP5 DUP10 ADD MLOAD PUSH2 0x65B PUSH1 0x1F DUP10 AND DUP3 PUSH2 0x56E JUMP JUMPDEST DUP4 SSTORE POP JUMPDEST PUSH1 0x1 PUSH1 0x2 DUP9 MUL ADD DUP9 SSTORE POP POP POP JUMPDEST POP POP POP POP POP POP JUMP JUMPDEST PUSH2 0x2C0E DUP1 PUSH2 0x681 PUSH0 CODECOPY PUSH0 RETURN INVALID PUSH1 0x80 PUSH1 0x40 MSTORE CALLVALUE DUP1 ISZERO PUSH2 0xF JUMPI PUSH0 PUSH0 REVERT JUMPDEST POP PUSH1 0x4 CALLDATASIZE LT PUSH2 0x14B JUMPI PUSH0 CALLDATALOAD PUSH1 0xE0 SHR DUP1 PUSH4 0x82FDE093 GT PUSH2 0xC1 JUMPI DUP1 PUSH4 0xA39FAC12 GT PUSH2 0x7A JUMPI DUP1 PUSH4 0xA39FAC12 EQ PUSH2 0x378 JUMPI DUP1 PUSH4 0xC1CBBCA7 EQ PUSH2 0x396 JUMPI DUP1 PUSH4 0xC8B342AB EQ PUSH2 0x3B2 JUMPI DUP1 PUSH4 0xD57BDE79 EQ PUSH2 0x3E2 JUMPI DUP1 PUSH4 0xEDF26D9B EQ PUSH2 0x400 JUMPI DUP1 PUSH4 0xFC0C546A EQ PUSH2 0x430 JUMPI PUSH2 0x14B JUMP JUMPDEST DUP1 PUSH4 0x82FDE093 EQ PUSH2 0x2C4 JUMPI DUP1 PUSH4 0x83920E90 EQ PUSH2 0x2E2 JUMPI DUP1 PUSH4 0x91F90157 EQ PUSH2 0x300 JUMPI DUP1 PUSH4 0x937E09B1 EQ PUSH2 0x31E JUMPI DUP1 PUSH4 0x976AF615 EQ PUSH2 0x33C JUMPI DUP1 PUSH4 0x9ACE38C2 EQ PUSH2 0x346 JUMPI PUSH2 0x14B JUMP JUMPDEST DUP1 PUSH4 0x4E69D560 GT PUSH2 0x113 JUMPI DUP1 PUSH4 0x4E69D560 EQ PUSH2 0x200 JUMPI DUP1 PUSH4 0x58D65629 EQ PUSH2 0x21E JUMPI DUP1 PUSH4 0x597E1FB5 EQ PUSH2 0x23C JUMPI DUP1 PUSH4 0x5DC1D641 EQ PUSH2 0x25A JUMPI DUP1 PUSH4 0x7AED167C EQ PUSH2 0x28A JUMPI DUP1 PUSH4 0x7B87D856 EQ PUSH2 0x2A6 JUMPI PUSH2 0x14B JUMP JUMPDEST DUP1 PUSH4 0xA144391 EQ PUSH2 0x14F JUMPI DUP1 PUSH4 0x3197CBB6 EQ PUSH2 0x17F JUMPI DUP1 PUSH4 0x3BC5DE30 EQ PUSH2 0x19D JUMPI DUP1 PUSH4 0x4051DDAC EQ PUSH2 0x1BB JUMPI DUP1 PUSH4 0x481C6A75 EQ PUSH2 0x1E2 JUMPI JUMPDEST PUSH0 PUSH0 REVERT JUMPDEST PUSH2 0x169 PUSH1 0x4 DUP1 CALLDATASIZE SUB DUP2 ADD SWAP1 PUSH2 0x164 SWAP2 SWAP1 PUSH2 0x1B2E JUMP JUMPDEST PUSH2 0x44E JUMP JUMPDEST PUSH1 0x40 MLOAD PUSH2 0x176 SWAP2 SWAP1 PUSH2 0x1B73 JUMP JUMPDEST PUSH1 0x40 MLOAD DUP1 SWAP2 SUB SWAP1 RETURN JUMPDEST PUSH2 0x187 PUSH2 0x46B JUMP JUMPDEST PUSH1 0x40 MLOAD PUSH2 0x194 SWAP2 SWAP1 PUSH2 0x1BA4 JUMP JUMPDEST PUSH1 0x40 MLOAD DUP1 SWAP2 SUB SWAP1 RETURN JUMPDEST PUSH2 0x1A5 PUSH2 0x471 JUMP JUMPDEST PUSH1 0x40 MLOAD PUSH2 0x1B2 SWAP2 SWAP1 PUSH2 0x1C2D JUMP JUMPDEST PUSH1 0x40 MLOAD DUP1 SWAP2 SUB SWAP1 RETURN JUMPDEST PUSH2 0x1C3 PUSH2 0x5DE JUMP JUMPDEST PUSH1 0x40 MLOAD PUSH2 0x1D9 SWAP11 SWAP10 SWAP9 SWAP8 SWAP7 SWAP6 SWAP5 SWAP4 SWAP3 SWAP2 SWAP1 PUSH2 0x1D13 JUMP JUMPDEST PUSH1 0x40 MLOAD DUP1 SWAP2 SUB SWAP1 RETURN JUMPDEST PUSH2 0x1EA PUSH2 0x892 JUMP JUMPDEST PUSH1 0x40 MLOAD PUSH2 0x1F7 SWAP2 SWAP1 PUSH2 0x1DC2 JUMP JUMPDEST PUSH1 0x40 MLOAD DUP1 SWAP2 SUB SWAP1 RETURN JUMPDEST PUSH2 0x208 PUSH2 0x8B6 JUMP JUMPDEST PUSH1 0x40 MLOAD PUSH2 0x215 SWAP2 SWAP1 PUSH2 0x1B73 JUMP JUMPDEST PUSH1 0x40 MLOAD DUP1 SWAP2 SUB SWAP1 RETURN JUMPDEST PUSH2 0x226 PUSH2 0x8CB JUMP JUMPDEST PUSH1 0x40 MLOAD PUSH2 0x233 SWAP2 SWAP1 PUSH2 0x1C2D JUMP JUMPDEST PUSH1 0x40 MLOAD DUP1 SWAP2 SUB SWAP1 RETURN JUMPDEST PUSH2 0x244 PUSH2 0x957 JUMP JUMPDEST PUSH1 0x40 MLOAD PUSH2 0x251 SWAP2 SWAP1 PUSH2 0x1B73 JUMP JUMPDEST PUSH1 0x40 MLOAD DUP1 SWAP2 SUB SWAP1 RETURN JUMPDEST PUSH2 0x274 PUSH1 0x4 DUP1 CALLDATASIZE SUB DUP2 ADD SWAP1 PUSH2 0x26F SWAP2 SWAP1 PUSH2 0x1B2E JUMP JUMPDEST PUSH2 0x969 JUMP JUMPDEST PUSH1 0x40 MLOAD PUSH2 0x281 SWAP2 SWAP1 PUSH2 0x1BA4 JUMP JUMPDEST PUSH1 0x40 MLOAD DUP1 SWAP2 SUB SWAP1 RETURN JUMPDEST PUSH2 0x2A4 PUSH1 0x4 DUP1 CALLDATASIZE SUB DUP2 ADD SWAP1 PUSH2 0x29F SWAP2 SWAP1 PUSH2 0x1E6E JUMP JUMPDEST PUSH2 0x97E JUMP JUMPDEST STOP JUMPDEST PUSH2 0x2AE PUSH2 0xE38 JUMP JUMPDEST PUSH1 0x40 MLOAD PUSH2 0x2BB SWAP2 SWAP1 PUSH2 0x1C2D JUMP JUMPDEST PUSH1 0x40 MLOAD DUP1 SWAP2 SUB SWAP1 RETURN JUMPDEST PUSH2 0x2CC PUSH2 0xEC4 JUMP JUMPDEST PUSH1 0x40 MLOAD PUSH2 0x2D9 SWAP2 SWAP1 PUSH2 0x1BA4 JUMP JUMPDEST PUSH1 0x40 MLOAD DUP1 SWAP2 SUB SWAP1 RETURN JUMPDEST PUSH2 0x2EA PUSH2 0xECA JUMP JUMPDEST PUSH1 0x40 MLOAD PUSH2 0x2F7 SWAP2 SWAP1 PUSH2 0x1FDC JUMP JUMPDEST PUSH1 0x40 MLOAD DUP1 SWAP2 SUB SWAP1 RETURN JUMPDEST PUSH2 0x308 PUSH2 0xF8E JUMP JUMPDEST PUSH1 0x40 MLOAD PUSH2 0x315 SWAP2 SWAP1 PUSH2 0x1DC2 JUMP JUMPDEST PUSH1 0x40 MLOAD DUP1 SWAP2 SUB SWAP1 RETURN JUMPDEST PUSH2 0x326 PUSH2 0xFB3 JUMP JUMPDEST PUSH1 0x40 MLOAD PUSH2 0x333 SWAP2 SWAP1 PUSH2 0x1BA4 JUMP JUMPDEST PUSH1 0x40 MLOAD DUP1 SWAP2 SUB SWAP1 RETURN JUMPDEST PUSH2 0x344 PUSH2 0xFB9 JUMP JUMPDEST STOP JUMPDEST PUSH2 0x360 PUSH1 0x4 DUP1 CALLDATASIZE SUB DUP2 ADD SWAP1 PUSH2 0x35B SWAP2 SWAP1 PUSH2 0x1FFC JUMP JUMPDEST PUSH2 0x144E JUMP JUMPDEST PUSH1 0x40 MLOAD PUSH2 0x36F SWAP4 SWAP3 SWAP2 SWAP1 PUSH2 0x2027 JUMP JUMPDEST PUSH1 0x40 MLOAD DUP1 SWAP2 SUB SWAP1 RETURN JUMPDEST PUSH2 0x380 PUSH2 0x14A2 JUMP JUMPDEST PUSH1 0x40 MLOAD PUSH2 0x38D SWAP2 SWAP1 PUSH2 0x205C JUMP JUMPDEST PUSH1 0x40 MLOAD DUP1 SWAP2 SUB SWAP1 RETURN JUMPDEST PUSH2 0x3B0 PUSH1 0x4 DUP1 CALLDATASIZE SUB DUP2 ADD SWAP1 PUSH2 0x3AB SWAP2 SWAP1 PUSH2 0x1FFC JUMP JUMPDEST PUSH2 0x152D JUMP JUMPDEST STOP JUMPDEST PUSH2 0x3CC PUSH1 0x4 DUP1 CALLDATASIZE SUB DUP2 ADD SWAP1 PUSH2 0x3C7 SWAP2 SWAP1 PUSH2 0x1B2E JUMP JUMPDEST PUSH2 0x1A1A JUMP JUMPDEST PUSH1 0x40 MLOAD PUSH2 0x3D9 SWAP2 SWAP1 PUSH2 0x1BA4 JUMP JUMPDEST PUSH1 0x40 MLOAD DUP1 SWAP2 SUB SWAP1 RETURN JUMPDEST PUSH2 0x3EA PUSH2 0x1A60 JUMP JUMPDEST PUSH1 0x40 MLOAD PUSH2 0x3F7 SWAP2 SWAP1 PUSH2 0x1BA4 JUMP JUMPDEST PUSH1 0x40 MLOAD DUP1 SWAP2 SUB SWAP1 RETURN JUMPDEST PUSH2 0x41A PUSH1 0x4 DUP1 CALLDATASIZE SUB DUP2 ADD SWAP1 PUSH2 0x415 SWAP2 SWAP1 PUSH2 0x1FFC JUMP JUMPDEST PUSH2 0x1A66 JUMP JUMPDEST PUSH1 0x40 MLOAD PUSH2 0x427 SWAP2 SWAP1 PUSH2 0x1DC2 JUMP JUMPDEST PUSH1 0x40 MLOAD DUP1 SWAP2 SUB SWAP1 RETURN JUMPDEST PUSH2 0x438 PUSH2 0x1AA1 JUMP JUMPDEST PUSH1 0x40 MLOAD PUSH2 0x445 SWAP2 SWAP1 PUSH2 0x20D7 JUMP JUMPDEST PUSH1 0x40 MLOAD DUP1 SWAP2 SUB SWAP1 RETURN JUMPDEST PUSH1 0x4 PUSH1 0x20 MSTORE DUP1 PUSH0 MSTORE PUSH1 0x40 PUSH0 KECCAK256 PUSH0 SWAP2 POP SLOAD SWAP1 PUSH2 0x100 EXP SWAP1 DIV PUSH1 0xFF AND DUP2 JUMP JUMPDEST PUSH1 0xB SLOAD DUP2 JUMP JUMPDEST PUSH1 0x60 PUSH1 0xC PUSH0 SWAP1 SLOAD SWAP1 PUSH2 0x100 EXP SWAP1 DIV PUSH1 0xFF AND PUSH2 0x4C1 JUMPI PUSH1 0x40 MLOAD PUSH32 0x8C379A000000000000000000000000000000000000000000000000000000000 DUP2 MSTORE PUSH1 0x4 ADD PUSH2 0x4B8 SWAP1 PUSH2 0x213A JUMP JUMPDEST PUSH1 0x40 MLOAD DUP1 SWAP2 SUB SWAP1 REVERT JUMPDEST PUSH1 0x9 PUSH0 SWAP1 SLOAD SWAP1 PUSH2 0x100 EXP SWAP1 DIV PUSH20 0xFFFFFFFFFFFFFFFFFFFFFFFFFFFFFFFFFFFFFFFF AND PUSH20 0xFFFFFFFFFFFFFFFFFFFFFFFFFFFFFFFFFFFFFFFF AND CALLER PUSH20 0xFFFFFFFFFFFFFFFFFFFFFFFFFFFFFFFFFFFFFFFF AND EQ PUSH2 0x550 JUMPI PUSH1 0x40 MLOAD PUSH32 0x8C379A000000000000000000000000000000000000000000000000000000000 DUP2 MSTORE PUSH1 0x4 ADD PUSH2 0x547 SWAP1 PUSH2 0x21A2 JUMP JUMPDEST PUSH1 0x40 MLOAD DUP1 SWAP2 SUB SWAP1 REVERT JUMPDEST PUSH1 0x2 DUP1 SLOAD PUSH2 0x55D SWAP1 PUSH2 0x21ED JUMP JUMPDEST DUP1 PUSH1 0x1F ADD PUSH1 0x20 DUP1 SWAP2 DIV MUL PUSH1 0x20 ADD PUSH1 0x40 MLOAD SWAP1 DUP2 ADD PUSH1 0x40 MSTORE DUP1 SWAP3 SWAP2 SWAP1 DUP2 DUP2 MSTORE PUSH1 0x20 ADD DUP3 DUP1 SLOAD PUSH2 0x589 SWAP1 PUSH2 0x21ED JUMP JUMPDEST DUP1 ISZERO PUSH2 0x5D4 JUMPI DUP1 PUSH1 0x1F LT PUSH2 0x5AB JUMPI PUSH2 0x100 DUP1 DUP4 SLOAD DIV MUL DUP4 MSTORE SWAP2 PUSH1 0x20 ADD SWAP2 PUSH2 0x5D4 JUMP JUMPDEST DUP3 ADD SWAP2 SWAP1 PUSH0 MSTORE PUSH1 0x20 PUSH0 KECCAK256 SWAP1 JUMPDEST DUP2 SLOAD DUP2 MSTORE SWAP1 PUSH1 0x1 ADD SWAP1 PUSH1 0x20 ADD DUP1 DUP4 GT PUSH2 0x5B7 JUMPI DUP3 SWAP1 SUB PUSH1 0x1F AND DUP3 ADD SWAP2 JUMPDEST POP POP POP POP POP SWAP1 POP SWAP1 JUMP JUMPDEST PUSH0 PUSH0 PUSH0 PUSH0 PUSH0 PUSH1 0x60 DUP1 PUSH0 PUSH1 0x60 PUSH0 PUSH1 0x1 SLOAD PUSH1 0xC PUSH1 0x1 SWAP1 SLOAD SWAP1 PUSH2 0x100 EXP SWAP1 DIV PUSH20 0xFFFFFFFFFFFFFFFFFFFFFFFFFFFFFFFFFFFFFFFF AND PUSH20 0xFFFFFFFFFFFFFFFFFFFFFFFFFFFFFFFFFFFFFFFF AND PUSH4 0x70A08231 ADDRESS PUSH1 0x40 MLOAD DUP3 PUSH4 0xFFFFFFFF AND PUSH1 0xE0 SHL DUP2 MSTORE PUSH1 0x4 ADD PUSH2 0x648 SWAP2 SWAP1 PUSH2 0x1DC2 JUMP JUMPDEST PUSH1 0x20 PUSH1 0x40 MLOAD DUP1 DUP4 SUB DUP2 DUP7 GAS STATICCALL ISZERO DUP1 ISZERO PUSH2 0x663 JUMPI RETURNDATASIZE PUSH0 PUSH0 RETURNDATACOPY RETURNDATASIZE PUSH0 REVERT JUMPDEST POP POP POP POP PUSH1 0x40 MLOAD RETURNDATASIZE PUSH1 0x1F NOT PUSH1 0x1F DUP3 ADD AND DUP3 ADD DUP1 PUSH1 0x40 MSTORE POP DUP2 ADD SWAP1 PUSH2 0x687 SWAP2 SWAP1 PUSH2 0x2231 JUMP JUMPDEST PUSH1 0x6 SLOAD PUSH0 PUSH0 SWAP1 SLOAD SWAP1 PUSH2 0x100 EXP SWAP1 DIV PUSH20 0xFFFFFFFFFFFFFFFFFFFFFFFFFFFFFFFFFFFFFFFF AND PUSH1 0xA SLOAD PUSH1 0x2 PUSH1 0x3 PUSH1 0x9 PUSH0 SWAP1 SLOAD SWAP1 PUSH2 0x100 EXP SWAP1 DIV PUSH20 0xFFFFFFFFFFFFFFFFFFFFFFFFFFFFFFFFFFFFFFFF AND PUSH1 0x7 PUSH1 0xB SLOAD DUP5 DUP1 SLOAD PUSH2 0x6E5 SWAP1 PUSH2 0x21ED JUMP JUMPDEST DUP1 PUSH1 0x1F ADD PUSH1 0x20 DUP1 SWAP2 DIV MUL PUSH1 0x20 ADD PUSH1 0x40 MLOAD SWAP1 DUP2 ADD PUSH1 0x40 MSTORE DUP1 SWAP3 SWAP2 SWAP1 DUP2 DUP2 MSTORE PUSH1 0x20 ADD DUP3 DUP1 SLOAD PUSH2 0x711 SWAP1 PUSH2 0x21ED JUMP JUMPDEST DUP1 ISZERO PUSH2 0x75C JUMPI DUP1 PUSH1 0x1F LT PUSH2 0x733 JUMPI PUSH2 0x100 DUP1 DUP4 SLOAD DIV MUL DUP4 MSTORE SWAP2 PUSH1 0x20 ADD SWAP2 PUSH2 0x75C JUMP JUMPDEST DUP3 ADD SWAP2 SWAP1 PUSH0 MSTORE PUSH1 0x20 PUSH0 KECCAK256 SWAP1 JUMPDEST DUP2 SLOAD DUP2 MSTORE SWAP1 PUSH1 0x1 ADD SWAP1 PUSH1 0x20 ADD DUP1 DUP4 GT PUSH2 0x73F JUMPI DUP3 SWAP1 SUB PUSH1 0x1F AND DUP3 ADD SWAP2 JUMPDEST POP POP POP POP POP SWAP5 POP DUP4 DUP1 SLOAD PUSH2 0x76F SWAP1 PUSH2 0x21ED JUMP JUMPDEST DUP1 PUSH1 0x1F ADD PUSH1 0x20 DUP1 SWAP2 DIV MUL PUSH1 0x20 ADD PUSH1 0x40 MLOAD SWAP1 DUP2 ADD PUSH1 0x40 MSTORE DUP1 SWAP3 SWAP2 SWAP1 DUP2 DUP2 MSTORE PUSH1 0x20 ADD DUP3 DUP1 SLOAD PUSH2 0x79B SWAP1 PUSH2 0x21ED JUMP JUMPDEST DUP1 ISZERO PUSH2 0x7E6 JUMPI DUP1 PUSH1 0x1F LT PUSH2 0x7BD JUMPI PUSH2 0x100 DUP1 DUP4 SLOAD DIV MUL DUP4 MSTORE SWAP2 PUSH1 0x20 ADD SWAP2 PUSH2 0x7E6 JUMP JUMPDEST DUP3 ADD SWAP2 SWAP1 PUSH0 MSTORE PUSH1 0x20 PUSH0 KECCAK256 SWAP1 JUMPDEST DUP2 SLOAD DUP2 MSTORE SWAP1 PUSH1 0x1 ADD SWAP1 PUSH1 0x20 ADD DUP1 DUP4 GT PUSH2 0x7C9 JUMPI DUP3 SWAP1 SUB PUSH1 0x1F AND DUP3 ADD SWAP2 JUMPDEST POP POP POP POP POP SWAP4 POP DUP2 DUP1 SLOAD DUP1 PUSH1 0x20 MUL PUSH1 0x20 ADD PUSH1 0x40 MLOAD SWAP1 DUP2 ADD PUSH1 0x40 MSTORE DUP1 SWAP3 SWAP2 SWAP1 DUP2 DUP2 MSTORE PUSH1 0x20 ADD DUP3 DUP1 SLOAD DUP1 ISZERO PUSH2 0x86B JUMPI PUSH1 0x20 MUL DUP3 ADD SWAP2 SWAP1 PUSH0 MSTORE PUSH1 0x20 PUSH0 KECCAK256 SWAP1 JUMPDEST DUP2 PUSH0 SWAP1 SLOAD SWAP1 PUSH2 0x100 EXP SWAP1 DIV PUSH20 0xFFFFFFFFFFFFFFFFFFFFFFFFFFFFFFFFFFFFFFFF AND PUSH20 0xFFFFFFFFFFFFFFFFFFFFFFFFFFFFFFFFFFFFFFFF AND DUP2 MSTORE PUSH1 0x20 ADD SWAP1 PUSH1 0x1 ADD SWAP1 DUP1 DUP4 GT PUSH2 0x822 JUMPI JUMPDEST POP POP POP POP POP SWAP2 POP SWAP10 POP SWAP10 POP SWAP10 POP SWAP10 POP SWAP10 POP SWAP10 POP SWAP10 POP SWAP10 POP SWAP10 POP SWAP10 POP SWAP1 SWAP2 SWAP3 SWAP4 SWAP5 SWAP6 SWAP7 SWAP8 SWAP9 SWAP10 JUMP JUMPDEST PUSH0 PUSH0 SWAP1 SLOAD SWAP1 PUSH2 0x100 EXP SWAP1 DIV PUSH20 0xFFFFFFFFFFFFFFFFFFFFFFFFFFFFFFFFFFFFFFFF AND DUP2 JUMP JUMPDEST PUSH0 PUSH1 0xC PUSH0 SWAP1 SLOAD SWAP1 PUSH2 0x100 EXP SWAP1 DIV PUSH1 0xFF AND SWAP1 POP SWAP1 JUMP JUMPDEST PUSH1 0x3 DUP1 SLOAD PUSH2 0x8D8 SWAP1 PUSH2 0x21ED JUMP JUMPDEST DUP1 PUSH1 0x1F ADD PUSH1 0x20 DUP1 SWAP2 DIV MUL PUSH1 0x20 ADD PUSH1 0x40 MLOAD SWAP1 DUP2 ADD PUSH1 0x40 MSTORE DUP1 SWAP3 SWAP2 SWAP1 DUP2 DUP2 MSTORE PUSH1 0x20 ADD DUP3 DUP1 SLOAD PUSH2 0x904 SWAP1 PUSH2 0x21ED JUMP JUMPDEST DUP1 ISZERO PUSH2 0x94F JUMPI DUP1 PUSH1 0x1F LT PUSH2 0x926 JUMPI PUSH2 0x100 DUP1 DUP4 SLOAD DIV MUL DUP4 MSTORE SWAP2 PUSH1 0x20 ADD SWAP2 PUSH2 0x94F JUMP JUMPDEST DUP3 ADD SWAP2 SWAP1 PUSH0 MSTORE PUSH1 0x20 PUSH0 KECCAK256 SWAP1 JUMPDEST DUP2 SLOAD DUP2 MSTORE SWAP1 PUSH1 0x1 ADD SWAP1 PUSH1 0x20 ADD DUP1 DUP4 GT PUSH2 0x932 JUMPI DUP3 SWAP1 SUB PUSH1 0x1F AND DUP3 ADD SWAP2 JUMPDEST POP POP POP POP POP DUP2 JUMP JUMPDEST PUSH1 0xC PUSH0 SWAP1 SLOAD SWAP1 PUSH2 0x100 EXP SWAP1 DIV PUSH1 0xFF AND DUP2 JUMP JUMPDEST PUSH1 0x5 PUSH1 0x20 MSTORE DUP1 PUSH0 MSTORE PUSH1 0x40 PUSH0 KECCAK256 PUSH0 SWAP2 POP SWAP1 POP SLOAD DUP2 JUMP JUMPDEST PUSH0 CALLER SWAP1 POP PUSH0 ADDRESS SWAP1 POP PUSH0 PUSH1 0xC PUSH1 0x1 SWAP1 SLOAD SWAP1 PUSH2 0x100 EXP SWAP1 DIV PUSH20 0xFFFFFFFFFFFFFFFFFFFFFFFFFFFFFFFFFFFFFFFF AND PUSH20 0xFFFFFFFFFFFFFFFFFFFFFFFFFFFFFFFFFFFFFFFF AND PUSH4 0x7ECEBE00 DUP5 PUSH1 0x40 MLOAD DUP3 PUSH4 0xFFFFFFFF AND PUSH1 0xE0 SHL DUP2 MSTORE PUSH1 0x4 ADD PUSH2 0x9E2 SWAP2 SWAP1 PUSH2 0x1DC2 JUMP JUMPDEST PUSH1 0x20 PUSH1 0x40 MLOAD DUP1 DUP4 SUB DUP2 DUP7 GAS STATICCALL ISZERO DUP1 ISZERO PUSH2 0x9FD JUMPI RETURNDATASIZE PUSH0 PUSH0 RETURNDATACOPY RETURNDATASIZE PUSH0 REVERT JUMPDEST POP POP POP POP PUSH1 0x40 MLOAD RETURNDATASIZE PUSH1 0x1F NOT PUSH1 0x1F DUP3 ADD AND DUP3 ADD DUP1 PUSH1 0x40 MSTORE POP DUP2 ADD SWAP1 PUSH2 0xA21 SWAP2 SWAP1 PUSH2 0x2231 JUMP JUMPDEST SWAP1 POP PUSH32 0xF29B58C6301AB4D806BF8454E3565B31382F5AD5F02FD45FB42E18523CB860E4 DUP2 PUSH1 0x40 MLOAD PUSH2 0xA52 SWAP2 SWAP1 PUSH2 0x1BA4 JUMP JUMPDEST PUSH1 0x40 MLOAD DUP1 SWAP2 SUB SWAP1 LOG1 DUP2 PUSH20 0xFFFFFFFFFFFFFFFFFFFFFFFFFFFFFFFFFFFFFFFF AND DUP4 PUSH20 0xFFFFFFFFFFFFFFFFFFFFFFFFFFFFFFFFFFFFFFFF AND PUSH32 0xE73D3E7F4544B3502481A4298011EDE4F74F12E7C94C6998BC96C6DB67502C3C DUP11 DUP5 DUP12 PUSH1 0x40 MLOAD PUSH2 0xABB SWAP4 SWAP3 SWAP2 SWAP1 PUSH2 0x225C JUMP JUMPDEST PUSH1 0x40 MLOAD DUP1 SWAP2 SUB SWAP1 LOG3 PUSH1 0xC PUSH1 0x1 SWAP1 SLOAD SWAP1 PUSH2 0x100 EXP SWAP1 DIV PUSH20 0xFFFFFFFFFFFFFFFFFFFFFFFFFFFFFFFFFFFFFFFF AND PUSH20 0xFFFFFFFFFFFFFFFFFFFFFFFFFFFFFFFFFFFFFFFF AND PUSH4 0xD505ACCF DUP5 DUP5 DUP12 DUP12 DUP12 DUP12 DUP12 PUSH1 0x40 MLOAD DUP9 PUSH4 0xFFFFFFFF AND PUSH1 0xE0 SHL DUP2 MSTORE PUSH1 0x4 ADD PUSH2 0xB2A SWAP8 SWAP7 SWAP6 SWAP5 SWAP4 SWAP3 SWAP2 SWAP1 PUSH2 0x22AF JUMP JUMPDEST PUSH0 PUSH1 0x40 MLOAD DUP1 DUP4 SUB DUP2 PUSH0 DUP8 DUP1 EXTCODESIZE ISZERO DUP1 ISZERO PUSH2 0xB41 JUMPI PUSH0 PUSH0 REVERT JUMPDEST POP GAS CALL SWAP3 POP POP POP DUP1 ISZERO PUSH2 0xB52 JUMPI POP PUSH1 0x1 JUMPDEST PUSH2 0xC82 JUMPI PUSH2 0xB5E PUSH2 0x2328 JUMP JUMPDEST DUP1 PUSH4 0x8C379A0 SUB PUSH2 0xC10 JUMPI POP PUSH2 0xB72 PUSH2 0x23A5 JUMP JUMPDEST DUP1 PUSH2 0xB7D JUMPI POP PUSH2 0xC12 JUMP JUMPDEST PUSH32 0xE19FBC5FF4F9E3DF659F19FD3F2F1BD7A51B5E2994E3A55670578BB0F9D1D556 DUP2 PUSH1 0x40 MLOAD PUSH2 0xBAC SWAP2 SWAP1 PUSH2 0x1C2D JUMP JUMPDEST PUSH1 0x40 MLOAD DUP1 SWAP2 SUB SWAP1 LOG1 DUP1 PUSH1 0x40 MLOAD PUSH1 0x20 ADD PUSH2 0xBC5 SWAP2 SWAP1 PUSH2 0x24B8 JUMP JUMPDEST PUSH1 0x40 MLOAD PUSH1 0x20 DUP2 DUP4 SUB SUB DUP2 MSTORE SWAP1 PUSH1 0x40 MSTORE PUSH1 0x40 MLOAD PUSH32 0x8C379A000000000000000000000000000000000000000000000000000000000 DUP2 MSTORE PUSH1 0x4 ADD PUSH2 0xC07 SWAP2 SWAP1 PUSH2 0x1C2D JUMP JUMPDEST PUSH1 0x40 MLOAD DUP1 SWAP2 SUB SWAP1 REVERT JUMPDEST POP JUMPDEST PUSH32 0xE19FBC5FF4F9E3DF659F19FD3F2F1BD7A51B5E2994E3A55670578BB0F9D1D556 PUSH1 0x40 MLOAD PUSH2 0xC3F SWAP1 PUSH2 0x2523 JUMP JUMPDEST PUSH1 0x40 MLOAD DUP1 SWAP2 SUB SWAP1 LOG1 PUSH1 0x40 MLOAD PUSH32 0x8C379A000000000000000000000000000000000000000000000000000000000 DUP2 MSTORE PUSH1 0x4 ADD PUSH2 0xC79 SWAP1 PUSH2 0x258B JUMP JUMPDEST PUSH1 0x40 MLOAD DUP1 SWAP2 SUB SWAP1 REVERT JUMPDEST PUSH0 PUSH1 0xC PUSH1 0x1 SWAP1 SLOAD SWAP1 PUSH2 0x100 EXP SWAP1 DIV PUSH20 0xFFFFFFFFFFFFFFFFFFFFFFFFFFFFFFFFFFFFFFFF AND PUSH20 0xFFFFFFFFFFFFFFFFFFFFFFFFFFFFFFFFFFFFFFFF AND PUSH4 0xDD62ED3E DUP6 DUP6 PUSH1 0x40 MLOAD DUP4 PUSH4 0xFFFFFFFF AND PUSH1 0xE0 SHL DUP2 MSTORE PUSH1 0x4 ADD PUSH2 0xCE0 SWAP3 SWAP2 SWAP1 PUSH2 0x25A9 JUMP JUMPDEST PUSH1 0x20 PUSH1 0x40 MLOAD DUP1 DUP4 SUB DUP2 DUP7 GAS STATICCALL ISZERO DUP1 ISZERO PUSH2 0xCFB JUMPI RETURNDATASIZE PUSH0 PUSH0 RETURNDATACOPY RETURNDATASIZE PUSH0 REVERT JUMPDEST POP POP POP POP PUSH1 0x40 MLOAD RETURNDATASIZE PUSH1 0x1F NOT PUSH1 0x1F DUP3 ADD AND DUP3 ADD DUP1 PUSH1 0x40 MSTORE POP DUP2 ADD SWAP1 PUSH2 0xD1F SWAP2 SWAP1 PUSH2 0x2231 JUMP JUMPDEST SWAP1 POP PUSH32 0xFB7DB43709E58B37855E273302377128C7EFF642D99999CB530A6CD6A287E9FA DUP2 DUP11 PUSH1 0x40 MLOAD PUSH2 0xD52 SWAP3 SWAP2 SWAP1 PUSH2 0x25D0 JUMP JUMPDEST PUSH1 0x40 MLOAD DUP1 SWAP2 SUB SWAP1 LOG1 DUP9 DUP2 LT ISZERO PUSH2 0xD9D JUMPI PUSH1 0x40 MLOAD PUSH32 0x8C379A000000000000000000000000000000000000000000000000000000000 DUP2 MSTORE PUSH1 0x4 ADD PUSH2 0xD94 SWAP1 PUSH2 0x2667 JUMP JUMPDEST PUSH1 0x40 MLOAD DUP1 SWAP2 SUB SWAP1 REVERT JUMPDEST DUP4 PUSH20 0xFFFFFFFFFFFFFFFFFFFFFFFFFFFFFFFFFFFFFFFF AND PUSH32 0x7653BA64263E4C00C4274956A77BB1CE892C55A528CFBF7873A825EA64CF981C DUP3 PUSH1 0x40 MLOAD PUSH2 0xDE3 SWAP2 SWAP1 PUSH2 0x1BA4 JUMP JUMPDEST PUSH1 0x40 MLOAD DUP1 SWAP2 SUB SWAP1 LOG2 PUSH32 0x38AD295BD970E48FBC3D2741A85BCA4BAF27A2884EC78BC81A5EEE942060D5FC DUP5 DUP11 PUSH1 0x40 MLOAD PUSH2 0xE1C SWAP3 SWAP2 SWAP1 PUSH2 0x2685 JUMP JUMPDEST PUSH1 0x40 MLOAD DUP1 SWAP2 SUB SWAP1 LOG1 PUSH2 0xE2D DUP10 PUSH2 0x152D JUMP JUMPDEST POP POP POP POP POP POP POP POP POP JUMP JUMPDEST PUSH1 0x2 DUP1 SLOAD PUSH2 0xE45 SWAP1 PUSH2 0x21ED JUMP JUMPDEST DUP1 PUSH1 0x1F ADD PUSH1 0x20 DUP1 SWAP2 DIV MUL PUSH1 0x20 ADD PUSH1 0x40 MLOAD SWAP1 DUP2 ADD PUSH1 0x40 MSTORE DUP1 SWAP3 SWAP2 SWAP1 DUP2 DUP2 MSTORE PUSH1 0x20 ADD DUP3 DUP1 SLOAD PUSH2 0xE71 SWAP1 PUSH2 0x21ED JUMP JUMPDEST DUP1 ISZERO PUSH2 0xEBC JUMPI DUP1 PUSH1 0x1F LT PUSH2 0xE93 JUMPI PUSH2 0x100 DUP1 DUP4 SLOAD DIV MUL DUP4 MSTORE SWAP2 PUSH1 0x20 ADD SWAP2 PUSH2 0xEBC JUMP JUMPDEST DUP3 ADD SWAP2 SWAP1 PUSH0 MSTORE PUSH1 0x20 PUSH0 KECCAK256 SWAP1 JUMPDEST DUP2 SLOAD DUP2 MSTORE SWAP1 PUSH1 0x1 ADD SWAP1 PUSH1 0x20 ADD DUP1 DUP4 GT PUSH2 0xE9F JUMPI DUP3 SWAP1 SUB PUSH1 0x1F AND DUP3 ADD SWAP2 JUMPDEST POP POP POP POP POP DUP2 JUMP JUMPDEST PUSH1 0x6 SLOAD DUP2 JUMP JUMPDEST PUSH1 0x60 PUSH1 0x8 DUP1 SLOAD DUP1 PUSH1 0x20 MUL PUSH1 0x20 ADD PUSH1 0x40 MLOAD SWAP1 DUP2 ADD PUSH1 0x40 MSTORE DUP1 SWAP3 SWAP2 SWAP1 DUP2 DUP2 MSTORE PUSH1 0x20 ADD PUSH0 SWAP1 JUMPDEST DUP3 DUP3 LT ISZERO PUSH2 0xF85 JUMPI DUP4 DUP3 SWAP1 PUSH0 MSTORE PUSH1 0x20 PUSH0 KECCAK256 SWAP1 PUSH1 0x3 MUL ADD PUSH1 0x40 MLOAD DUP1 PUSH1 0x60 ADD PUSH1 0x40 MSTORE SWAP1 DUP2 PUSH0 DUP3 ADD SLOAD DUP2 MSTORE PUSH1 0x20 ADD PUSH1 0x1 DUP3 ADD SLOAD DUP2 MSTORE PUSH1 0x20 ADD PUSH1 0x2 DUP3 ADD PUSH0 SWAP1 SLOAD SWAP1 PUSH2 0x100 EXP SWAP1 DIV PUSH20 0xFFFFFFFFFFFFFFFFFFFFFFFFFFFFFFFFFFFFFFFF AND PUSH20 0xFFFFFFFFFFFFFFFFFFFFFFFFFFFFFFFFFFFFFFFF AND PUSH20 0xFFFFFFFFFFFFFFFFFFFFFFFFFFFFFFFFFFFFFFFF AND DUP2 MSTORE POP POP DUP2 MSTORE PUSH1 0x20 ADD SWAP1 PUSH1 0x1 ADD SWAP1 PUSH2 0xEED JUMP JUMPDEST POP POP POP POP SWAP1 POP SWAP1 JUMP JUMPDEST PUSH1 0x9 PUSH0 SWAP1 SLOAD SWAP1 PUSH2 0x100 EXP SWAP1 DIV PUSH20 0xFFFFFFFFFFFFFFFFFFFFFFFFFFFFFFFFFFFFFFFF AND DUP2 JUMP JUMPDEST PUSH1 0x1 SLOAD DUP2 JUMP JUMPDEST PUSH1 0xB SLOAD TIMESTAMP LT ISZERO PUSH2 0xFFE JUMPI PUSH1 0x40 MLOAD PUSH32 0x8C379A000000000000000000000000000000000000000000000000000000000 DUP2 MSTORE PUSH1 0x4 ADD PUSH2 0xFF5 SWAP1 PUSH2 0x26F6 JUMP JUMPDEST PUSH1 0x40 MLOAD DUP1 SWAP2 SUB SWAP1 REVERT JUMPDEST PUSH1 0xC PUSH0 SWAP1 SLOAD SWAP1 PUSH2 0x100 EXP SWAP1 DIV PUSH1 0xFF AND ISZERO PUSH2 0x104D JUMPI PUSH1 0x40 MLOAD PUSH32 0x8C379A000000000000000000000000000000000000000000000000000000000 DUP2 MSTORE PUSH1 0x4 ADD PUSH2 0x1044 SWAP1 PUSH2 0x275E JUMP JUMPDEST PUSH1 0x40 MLOAD DUP1 SWAP2 SUB SWAP1 REVERT JUMPDEST PUSH0 PUSH0 SWAP1 POP JUMPDEST PUSH1 0x7 DUP1 SLOAD SWAP1 POP DUP2 LT ISZERO PUSH2 0x12B8 JUMPI PUSH0 PUSH1 0x7 DUP3 DUP2 SLOAD DUP2 LT PUSH2 0x1074 JUMPI PUSH2 0x1073 PUSH2 0x277C JUMP JUMPDEST JUMPDEST SWAP1 PUSH0 MSTORE PUSH1 0x20 PUSH0 KECCAK256 ADD PUSH0 SWAP1 SLOAD SWAP1 PUSH2 0x100 EXP SWAP1 DIV PUSH20 0xFFFFFFFFFFFFFFFFFFFFFFFFFFFFFFFFFFFFFFFF AND SWAP1 POP PUSH1 0x9 PUSH0 SWAP1 SLOAD SWAP1 PUSH2 0x100 EXP SWAP1 DIV PUSH20 0xFFFFFFFFFFFFFFFFFFFFFFFFFFFFFFFFFFFFFFFF AND PUSH20 0xFFFFFFFFFFFFFFFFFFFFFFFFFFFFFFFFFFFFFFFF AND DUP2 PUSH20 0xFFFFFFFFFFFFFFFFFFFFFFFFFFFFFFFFFFFFFFFF AND EQ PUSH2 0x12AA JUMPI PUSH0 PUSH1 0x5 PUSH0 DUP4 PUSH20 0xFFFFFFFFFFFFFFFFFFFFFFFFFFFFFFFFFFFFFFFF AND PUSH20 0xFFFFFFFFFFFFFFFFFFFFFFFFFFFFFFFFFFFFFFFF AND DUP2 MSTORE PUSH1 0x20 ADD SWAP1 DUP2 MSTORE PUSH1 0x20 ADD PUSH0 KECCAK256 SLOAD SWAP1 POP PUSH0 DUP2 GT ISZERO PUSH2 0x12A8 JUMPI PUSH0 PUSH1 0x5 PUSH0 DUP5 PUSH20 0xFFFFFFFFFFFFFFFFFFFFFFFFFFFFFFFFFFFFFFFF AND PUSH20 0xFFFFFFFFFFFFFFFFFFFFFFFFFFFFFFFFFFFFFFFF AND DUP2 MSTORE PUSH1 0x20 ADD SWAP1 DUP2 MSTORE PUSH1 0x20 ADD PUSH0 KECCAK256 DUP2 SWAP1 SSTORE POP PUSH1 0xC PUSH1 0x1 SWAP1 SLOAD SWAP1 PUSH2 0x100 EXP SWAP1 DIV PUSH20 0xFFFFFFFFFFFFFFFFFFFFFFFFFFFFFFFFFFFFFFFF AND PUSH20 0xFFFFFFFFFFFFFFFFFFFFFFFFFFFFFFFFFFFFFFFF AND PUSH4 0xA9059CBB DUP4 DUP4 PUSH1 0x40 MLOAD DUP4 PUSH4 0xFFFFFFFF AND PUSH1 0xE0 SHL DUP2 MSTORE PUSH1 0x4 ADD PUSH2 0x11DA SWAP3 SWAP2 SWAP1 PUSH2 0x2685 JUMP JUMPDEST PUSH1 0x20 PUSH1 0x40 MLOAD DUP1 DUP4 SUB DUP2 PUSH0 DUP8 GAS CALL ISZERO DUP1 ISZERO PUSH2 0x11F6 JUMPI RETURNDATASIZE PUSH0 PUSH0 RETURNDATACOPY RETURNDATASIZE PUSH0 REVERT JUMPDEST POP POP POP POP PUSH1 0x40 MLOAD RETURNDATASIZE PUSH1 0x1F NOT PUSH1 0x1F DUP3 ADD AND DUP3 ADD DUP1 PUSH1 0x40 MSTORE POP DUP2 ADD SWAP1 PUSH2 0x121A SWAP2 SWAP1 PUSH2 0x27D3 JUMP JUMPDEST PUSH2 0x1259 JUMPI PUSH1 0x40 MLOAD PUSH32 0x8C379A000000000000000000000000000000000000000000000000000000000 DUP2 MSTORE PUSH1 0x4 ADD PUSH2 0x1250 SWAP1 PUSH2 0x2848 JUMP JUMPDEST PUSH1 0x40 MLOAD DUP1 SWAP2 SUB SWAP1 REVERT JUMPDEST DUP2 PUSH20 0xFFFFFFFFFFFFFFFFFFFFFFFFFFFFFFFFFFFFFFFF AND PUSH32 0x3367BEFD2B2F39615CD79917C2153263C4AF1D3945EC003E5D5BFC13A8D85833 DUP3 PUSH1 0x40 MLOAD PUSH2 0x129F SWAP2 SWAP1 PUSH2 0x1BA4 JUMP JUMPDEST PUSH1 0x40 MLOAD DUP1 SWAP2 SUB SWAP1 LOG2 JUMPDEST POP JUMPDEST POP DUP1 DUP1 PUSH1 0x1 ADD SWAP2 POP POP PUSH2 0x1052 JUMP JUMPDEST POP PUSH0 PUSH1 0xA SLOAD GT ISZERO PUSH2 0x1432 JUMPI PUSH1 0xC PUSH1 0x1 SWAP1 SLOAD SWAP1 PUSH2 0x100 EXP SWAP1 DIV PUSH20 0xFFFFFFFFFFFFFFFFFFFFFFFFFFFFFFFFFFFFFFFF AND PUSH20 0xFFFFFFFFFFFFFFFFFFFFFFFFFFFFFFFFFFFFFFFF AND PUSH4 0xA9059CBB PUSH0 PUSH0 SWAP1 SLOAD SWAP1 PUSH2 0x100 EXP SWAP1 DIV PUSH20 0xFFFFFFFFFFFFFFFFFFFFFFFFFFFFFFFFFFFFFFFF AND PUSH1 0xA SLOAD PUSH1 0x40 MLOAD DUP4 PUSH4 0xFFFFFFFF AND PUSH1 0xE0 SHL DUP2 MSTORE PUSH1 0x4 ADD PUSH2 0x1342 SWAP3 SWAP2 SWAP1 PUSH2 0x2685 JUMP JUMPDEST PUSH1 0x20 PUSH1 0x40 MLOAD DUP1 DUP4 SUB DUP2 PUSH0 DUP8 GAS CALL ISZERO DUP1 ISZERO PUSH2 0x135E JUMPI RETURNDATASIZE PUSH0 PUSH0 RETURNDATACOPY RETURNDATASIZE PUSH0 REVERT JUMPDEST POP POP POP POP PUSH1 0x40 MLOAD RETURNDATASIZE PUSH1 0x1F NOT PUSH1 0x1F DUP3 ADD AND DUP3 ADD DUP1 PUSH1 0x40 MSTORE POP DUP2 ADD SWAP1 PUSH2 0x1382 SWAP2 SWAP1 PUSH2 0x27D3 JUMP JUMPDEST PUSH2 0x13C1 JUMPI PUSH1 0x40 MLOAD PUSH32 0x8C379A000000000000000000000000000000000000000000000000000000000 DUP2 MSTORE PUSH1 0x4 ADD PUSH2 0x13B8 SWAP1 PUSH2 0x28B0 JUMP JUMPDEST PUSH1 0x40 MLOAD DUP1 SWAP2 SUB SWAP1 REVERT JUMPDEST PUSH0 PUSH0 SWAP1 SLOAD SWAP1 PUSH2 0x100 EXP SWAP1 DIV PUSH20 0xFFFFFFFFFFFFFFFFFFFFFFFFFFFFFFFFFFFFFFFF AND PUSH20 0xFFFFFFFFFFFFFFFFFFFFFFFFFFFFFFFFFFFFFFFF AND PUSH32 0xCB4A9094DA4DF77FB2C0DBAA5047660B1237E61D82A02176C1BE74CA757F2531 PUSH1 0xA SLOAD PUSH1 0x40 MLOAD PUSH2 0x1429 SWAP2 SWAP1 PUSH2 0x1BA4 JUMP JUMPDEST PUSH1 0x40 MLOAD DUP1 SWAP2 SUB SWAP1 LOG2 JUMPDEST PUSH1 0x1 PUSH1 0xC PUSH0 PUSH2 0x100 EXP DUP2 SLOAD DUP2 PUSH1 0xFF MUL NOT AND SWAP1 DUP4 ISZERO ISZERO MUL OR SWAP1 SSTORE POP JUMP JUMPDEST PUSH1 0x8 DUP2 DUP2 SLOAD DUP2 LT PUSH2 0x145D JUMPI PUSH0 DUP1 REVERT JUMPDEST SWAP1 PUSH0 MSTORE PUSH1 0x20 PUSH0 KECCAK256 SWAP1 PUSH1 0x3 MUL ADD PUSH0 SWAP2 POP SWAP1 POP DUP1 PUSH0 ADD SLOAD SWAP1 DUP1 PUSH1 0x1 ADD SLOAD SWAP1 DUP1 PUSH1 0x2 ADD PUSH0 SWAP1 SLOAD SWAP1 PUSH2 0x100 EXP SWAP1 DIV PUSH20 0xFFFFFFFFFFFFFFFFFFFFFFFFFFFFFFFFFFFFFFFF AND SWAP1 POP DUP4 JUMP JUMPDEST PUSH1 0x60 PUSH1 0x7 DUP1 SLOAD DUP1 PUSH1 0x20 MUL PUSH1 0x20 ADD PUSH1 0x40 MLOAD SWAP1 DUP2 ADD PUSH1 0x40 MSTORE DUP1 SWAP3 SWAP2 SWAP1 DUP2 DUP2 MSTORE PUSH1 0x20 ADD DUP3 DUP1 SLOAD DUP1 ISZERO PUSH2 0x1523 JUMPI PUSH1 0x20 MUL DUP3 ADD SWAP2 SWAP1 PUSH0 MSTORE PUSH1 0x20 PUSH0 KECCAK256 SWAP1 JUMPDEST DUP2 PUSH0 SWAP1 SLOAD SWAP1 PUSH2 0x100 EXP SWAP1 DIV PUSH20 0xFFFFFFFFFFFFFFFFFFFFFFFFFFFFFFFFFFFFFFFF AND PUSH20 0xFFFFFFFFFFFFFFFFFFFFFFFFFFFFFFFFFFFFFFFF AND DUP2 MSTORE PUSH1 0x20 ADD SWAP1 PUSH1 0x1 ADD SWAP1 DUP1 DUP4 GT PUSH2 0x14DA JUMPI JUMPDEST POP POP POP POP POP SWAP1 POP SWAP1 JUMP JUMPDEST PUSH1 0xB SLOAD TIMESTAMP LT PUSH2 0x1571 JUMPI PUSH1 0x40 MLOAD PUSH32 0x8C379A000000000000000000000000000000000000000000000000000000000 DUP2 MSTORE PUSH1 0x4 ADD PUSH2 0x1568 SWAP1 PUSH2 0x2918 JUMP JUMPDEST PUSH1 0x40 MLOAD DUP1 SWAP2 SUB SWAP1 REVERT JUMPDEST PUSH0 PUSH0 SWAP1 SLOAD SWAP1 PUSH2 0x100 EXP SWAP1 DIV PUSH20 0xFFFFFFFFFFFFFFFFFFFFFFFFFFFFFFFFFFFFFFFF AND PUSH20 0xFFFFFFFFFFFFFFFFFFFFFFFFFFFFFFFFFFFFFFFF AND CALLER PUSH20 0xFFFFFFFFFFFFFFFFFFFFFFFFFFFFFFFFFFFFFFFF AND SUB PUSH2 0x15FF JUMPI PUSH1 0x40 MLOAD PUSH32 0x8C379A000000000000000000000000000000000000000000000000000000000 DUP2 MSTORE PUSH1 0x4 ADD PUSH2 0x15F6 SWAP1 PUSH2 0x29A6 JUMP JUMPDEST PUSH1 0x40 MLOAD DUP1 SWAP2 SUB SWAP1 REVERT JUMPDEST PUSH0 PUSH1 0x5 PUSH0 CALLER PUSH20 0xFFFFFFFFFFFFFFFFFFFFFFFFFFFFFFFFFFFFFFFF AND PUSH20 0xFFFFFFFFFFFFFFFFFFFFFFFFFFFFFFFFFFFFFFFF AND DUP2 MSTORE PUSH1 0x20 ADD SWAP1 DUP2 MSTORE PUSH1 0x20 ADD PUSH0 KECCAK256 SLOAD SWAP1 POP PUSH0 DUP3 DUP3 PUSH2 0x164D SWAP2 SWAP1 PUSH2 0x29F1 JUMP JUMPDEST SWAP1 POP PUSH0 DUP3 SUB PUSH2 0x169C JUMPI PUSH1 0x1 SLOAD DUP2 LT ISZERO PUSH2 0x169B JUMPI PUSH1 0x40 MLOAD PUSH32 0x8C379A000000000000000000000000000000000000000000000000000000000 DUP2 MSTORE PUSH1 0x4 ADD PUSH2 0x1692 SWAP1 PUSH2 0x2A6E JUMP JUMPDEST PUSH1 0x40 MLOAD DUP1 SWAP2 SUB SWAP1 REVERT JUMPDEST JUMPDEST PUSH1 0xA SLOAD DUP2 GT PUSH2 0x16E0 JUMPI PUSH1 0x40 MLOAD PUSH32 0x8C379A000000000000000000000000000000000000000000000000000000000 DUP2 MSTORE PUSH1 0x4 ADD PUSH2 0x16D7 SWAP1 PUSH2 0x2AD6 JUMP JUMPDEST PUSH1 0x40 MLOAD DUP1 SWAP2 SUB SWAP1 REVERT JUMPDEST PUSH1 0xC PUSH1 0x1 SWAP1 SLOAD SWAP1 PUSH2 0x100 EXP SWAP1 DIV PUSH20 0xFFFFFFFFFFFFFFFFFFFFFFFFFFFFFFFFFFFFFFFF AND PUSH20 0xFFFFFFFFFFFFFFFFFFFFFFFFFFFFFFFFFFFFFFFF AND PUSH4 0x23B872DD CALLER ADDRESS DUP7 PUSH1 0x40 MLOAD DUP5 PUSH4 0xFFFFFFFF AND PUSH1 0xE0 SHL DUP2 MSTORE PUSH1 0x4 ADD PUSH2 0x173F SWAP4 SWAP3 SWAP2 SWAP1 PUSH2 0x2AF4 JUMP JUMPDEST PUSH1 0x20 PUSH1 0x40 MLOAD DUP1 DUP4 SUB DUP2 PUSH0 DUP8 GAS CALL ISZERO DUP1 ISZERO PUSH2 0x175B JUMPI RETURNDATASIZE PUSH0 PUSH0 RETURNDATACOPY RETURNDATASIZE PUSH0 REVERT JUMPDEST POP POP POP POP PUSH1 0x40 MLOAD RETURNDATASIZE PUSH1 0x1F NOT PUSH1 0x1F DUP3 ADD AND DUP3 ADD DUP1 PUSH1 0x40 MSTORE POP DUP2 ADD SWAP1 PUSH2 0x177F SWAP2 SWAP1 PUSH2 0x27D3 JUMP JUMPDEST PUSH2 0x17BE JUMPI PUSH1 0x40 MLOAD PUSH32 0x8C379A000000000000000000000000000000000000000000000000000000000 DUP2 MSTORE PUSH1 0x4 ADD PUSH2 0x17B5 SWAP1 PUSH2 0x2B73 JUMP JUMPDEST PUSH1 0x40 MLOAD DUP1 SWAP2 SUB SWAP1 REVERT JUMPDEST DUP1 PUSH1 0x5 PUSH0 CALLER PUSH20 0xFFFFFFFFFFFFFFFFFFFFFFFFFFFFFFFFFFFFFFFF AND PUSH20 0xFFFFFFFFFFFFFFFFFFFFFFFFFFFFFFFFFFFFFFFF AND DUP2 MSTORE PUSH1 0x20 ADD SWAP1 DUP2 MSTORE PUSH1 0x20 ADD PUSH0 KECCAK256 DUP2 SWAP1 SSTORE POP DUP1 PUSH1 0xA DUP2 SWAP1 SSTORE POP CALLER PUSH1 0x9 PUSH0 PUSH2 0x100 EXP DUP2 SLOAD DUP2 PUSH20 0xFFFFFFFFFFFFFFFFFFFFFFFFFFFFFFFFFFFFFFFF MUL NOT AND SWAP1 DUP4 PUSH20 0xFFFFFFFFFFFFFFFFFFFFFFFFFFFFFFFFFFFFFFFF AND MUL OR SWAP1 SSTORE POP PUSH1 0x8 PUSH1 0x40 MLOAD DUP1 PUSH1 0x60 ADD PUSH1 0x40 MSTORE DUP1 DUP6 DUP2 MSTORE PUSH1 0x20 ADD TIMESTAMP DUP2 MSTORE PUSH1 0x20 ADD CALLER PUSH20 0xFFFFFFFFFFFFFFFFFFFFFFFFFFFFFFFFFFFFFFFF AND DUP2 MSTORE POP SWAP1 DUP1 PUSH1 0x1 DUP2 SLOAD ADD DUP1 DUP3 SSTORE DUP1 SWAP2 POP POP PUSH1 0x1 SWAP1 SUB SWAP1 PUSH0 MSTORE PUSH1 0x20 PUSH0 KECCAK256 SWAP1 PUSH1 0x3 MUL ADD PUSH0 SWAP1 SWAP2 SWAP1 SWAP2 SWAP1 SWAP2 POP PUSH0 DUP3 ADD MLOAD DUP2 PUSH0 ADD SSTORE PUSH1 0x20 DUP3 ADD MLOAD DUP2 PUSH1 0x1 ADD SSTORE PUSH1 0x40 DUP3 ADD MLOAD DUP2 PUSH1 0x2 ADD PUSH0 PUSH2 0x100 EXP DUP2 SLOAD DUP2 PUSH20 0xFFFFFFFFFFFFFFFFFFFFFFFFFFFFFFFFFFFFFFFF MUL NOT AND SWAP1 DUP4 PUSH20 0xFFFFFFFFFFFFFFFFFFFFFFFFFFFFFFFFFFFFFFFF AND MUL OR SWAP1 SSTORE POP POP POP PUSH1 0x4 PUSH0 CALLER PUSH20 0xFFFFFFFFFFFFFFFFFFFFFFFFFFFFFFFFFFFFFFFF AND PUSH20 0xFFFFFFFFFFFFFFFFFFFFFFFFFFFFFFFFFFFFFFFF AND DUP2 MSTORE PUSH1 0x20 ADD SWAP1 DUP2 MSTORE PUSH1 0x20 ADD PUSH0 KECCAK256 PUSH0 SWAP1 SLOAD SWAP1 PUSH2 0x100 EXP SWAP1 DIV PUSH1 0xFF AND PUSH2 0x1A15 JUMPI PUSH1 0x1 PUSH1 0x4 PUSH0 CALLER PUSH20 0xFFFFFFFFFFFFFFFFFFFFFFFFFFFFFFFFFFFFFFFF AND PUSH20 0xFFFFFFFFFFFFFFFFFFFFFFFFFFFFFFFFFFFFFFFF AND DUP2 MSTORE PUSH1 0x20 ADD SWAP1 DUP2 MSTORE PUSH1 0x20 ADD PUSH0 KECCAK256 PUSH0 PUSH2 0x100 EXP DUP2 SLOAD DUP2 PUSH1 0xFF MUL NOT AND SWAP1 DUP4 ISZERO ISZERO MUL OR SWAP1 SSTORE POP PUSH1 0x6 PUSH0 DUP2 SLOAD DUP1 SWAP3 SWAP2 SWAP1 PUSH2 0x19AF SWAP1 PUSH2 0x2B91 JUMP JUMPDEST SWAP2 SWAP1 POP SSTORE POP PUSH1 0x7 CALLER SWAP1 DUP1 PUSH1 0x1 DUP2 SLOAD ADD DUP1 DUP3 SSTORE DUP1 SWAP2 POP POP PUSH1 0x1 SWAP1 SUB SWAP1 PUSH0 MSTORE PUSH1 0x20 PUSH0 KECCAK256 ADD PUSH0 SWAP1 SWAP2 SWAP1 SWAP2 SWAP1 SWAP2 PUSH2 0x100 EXP DUP2 SLOAD DUP2 PUSH20 0xFFFFFFFFFFFFFFFFFFFFFFFFFFFFFFFFFFFFFFFF MUL NOT AND SWAP1 DUP4 PUSH20 0xFFFFFFFFFFFFFFFFFFFFFFFFFFFFFFFFFFFFFFFF AND MUL OR SWAP1 SSTORE POP JUMPDEST POP POP POP JUMP JUMPDEST PUSH0 PUSH1 0x5 PUSH0 DUP4 PUSH20 0xFFFFFFFFFFFFFFFFFFFFFFFFFFFFFFFFFFFFFFFF AND PUSH20 0xFFFFFFFFFFFFFFFFFFFFFFFFFFFFFFFFFFFFFFFF AND DUP2 MSTORE PUSH1 0x20 ADD SWAP1 DUP2 MSTORE PUSH1 0x20 ADD PUSH0 KECCAK256 SLOAD SWAP1 POP SWAP2 SWAP1 POP JUMP JUMPDEST PUSH1 0xA SLOAD DUP2 JUMP JUMPDEST PUSH1 0x7 DUP2 DUP2 SLOAD DUP2 LT PUSH2 0x1A75 JUMPI PUSH0 DUP1 REVERT JUMPDEST SWAP1 PUSH0 MSTORE PUSH1 0x20 PUSH0 KECCAK256 ADD PUSH0 SWAP2 POP SLOAD SWAP1 PUSH2 0x100 EXP SWAP1 DIV PUSH20 0xFFFFFFFFFFFFFFFFFFFFFFFFFFFFFFFFFFFFFFFF AND DUP2 JUMP JUMPDEST PUSH1 0xC PUSH1 0x1 SWAP1 SLOAD SWAP1 PUSH2 0x100 EXP SWAP1 DIV PUSH20 0xFFFFFFFFFFFFFFFFFFFFFFFFFFFFFFFFFFFFFFFF AND DUP2 JUMP JUMPDEST PUSH0 PUSH1 0x40 MLOAD SWAP1 POP SWAP1 JUMP JUMPDEST PUSH0 PUSH0 REVERT JUMPDEST PUSH0 PUSH20 0xFFFFFFFFFFFFFFFFFFFFFFFFFFFFFFFFFFFFFFFF DUP3 AND SWAP1 POP SWAP2 SWAP1 POP JUMP JUMPDEST PUSH0 PUSH2 0x1AFD DUP3 PUSH2 0x1AD4 JUMP JUMPDEST SWAP1 POP SWAP2 SWAP1 POP JUMP JUMPDEST PUSH2 0x1B0D DUP2 PUSH2 0x1AF3 JUMP JUMPDEST DUP2 EQ PUSH2 0x1B17 JUMPI PUSH0 PUSH0 REVERT JUMPDEST POP JUMP JUMPDEST PUSH0 DUP2 CALLDATALOAD SWAP1 POP PUSH2 0x1B28 DUP2 PUSH2 0x1B04 JUMP JUMPDEST SWAP3 SWAP2 POP POP JUMP JUMPDEST PUSH0 PUSH1 0x20 DUP3 DUP5 SUB SLT ISZERO PUSH2 0x1B43 JUMPI PUSH2 0x1B42 PUSH2 0x1AD0 JUMP JUMPDEST JUMPDEST PUSH0 PUSH2 0x1B50 DUP5 DUP3 DUP6 ADD PUSH2 0x1B1A JUMP JUMPDEST SWAP2 POP POP SWAP3 SWAP2 POP POP JUMP JUMPDEST PUSH0 DUP2 ISZERO ISZERO SWAP1 POP SWAP2 SWAP1 POP JUMP JUMPDEST PUSH2 0x1B6D DUP2 PUSH2 0x1B59 JUMP JUMPDEST DUP3 MSTORE POP POP JUMP JUMPDEST PUSH0 PUSH1 0x20 DUP3 ADD SWAP1 POP PUSH2 0x1B86 PUSH0 DUP4 ADD DUP5 PUSH2 0x1B64 JUMP JUMPDEST SWAP3 SWAP2 POP POP JUMP JUMPDEST PUSH0 DUP2 SWAP1 POP SWAP2 SWAP1 POP JUMP JUMPDEST PUSH2 0x1B9E DUP2 PUSH2 0x1B8C JUMP JUMPDEST DUP3 MSTORE POP POP JUMP JUMPDEST PUSH0 PUSH1 0x20 DUP3 ADD SWAP1 POP PUSH2 0x1BB7 PUSH0 DUP4 ADD DUP5 PUSH2 0x1B95 JUMP JUMPDEST SWAP3 SWAP2 POP POP JUMP JUMPDEST PUSH0 DUP2 MLOAD SWAP1 POP SWAP2 SWAP1 POP JUMP JUMPDEST PUSH0 DUP3 DUP3 MSTORE PUSH1 0x20 DUP3 ADD SWAP1 POP SWAP3 SWAP2 POP POP JUMP JUMPDEST DUP3 DUP2 DUP4 MCOPY PUSH0 DUP4 DUP4 ADD MSTORE POP POP POP JUMP JUMPDEST PUSH0 PUSH1 0x1F NOT PUSH1 0x1F DUP4 ADD AND SWAP1 POP SWAP2 SWAP1 POP JUMP JUMPDEST PUSH0 PUSH2 0x1BFF DUP3 PUSH2 0x1BBD JUMP JUMPDEST PUSH2 0x1C09 DUP2 DUP6 PUSH2 0x1BC7 JUMP JUMPDEST SWAP4 POP PUSH2 0x1C19 DUP2 DUP6 PUSH1 0x20 DUP7 ADD PUSH2 0x1BD7 JUMP JUMPDEST PUSH2 0x1C22 DUP2 PUSH2 0x1BE5 JUMP JUMPDEST DUP5 ADD SWAP2 POP POP SWAP3 SWAP2 POP POP JUMP JUMPDEST PUSH0 PUSH1 0x20 DUP3 ADD SWAP1 POP DUP2 DUP2 SUB PUSH0 DUP4 ADD MSTORE PUSH2 0x1C45 DUP2 DUP5 PUSH2 0x1BF5 JUMP JUMPDEST SWAP1 POP SWAP3 SWAP2 POP POP JUMP JUMPDEST PUSH2 0x1C56 DUP2 PUSH2 0x1AF3 JUMP JUMPDEST DUP3 MSTORE POP POP JUMP JUMPDEST PUSH0 DUP2 MLOAD SWAP1 POP SWAP2 SWAP1 POP JUMP JUMPDEST PUSH0 DUP3 DUP3 MSTORE PUSH1 0x20 DUP3 ADD SWAP1 POP SWAP3 SWAP2 POP POP JUMP JUMPDEST PUSH0 DUP2 SWAP1 POP PUSH1 0x20 DUP3 ADD SWAP1 POP SWAP2 SWAP1 POP JUMP JUMPDEST PUSH2 0x1C8E DUP2 PUSH2 0x1AF3 JUMP JUMPDEST DUP3 MSTORE POP POP JUMP JUMPDEST PUSH0 PUSH2 0x1C9F DUP4 DUP4 PUSH2 0x1C85 JUMP JUMPDEST PUSH1 0x20 DUP4 ADD SWAP1 POP SWAP3 SWAP2 POP POP JUMP JUMPDEST PUSH0 PUSH1 0x20 DUP3 ADD SWAP1 POP SWAP2 SWAP1 POP JUMP JUMPDEST PUSH0 PUSH2 0x1CC1 DUP3 PUSH2 0x1C5C JUMP JUMPDEST PUSH2 0x1CCB DUP2 DUP6 PUSH2 0x1C66 JUMP JUMPDEST SWAP4 POP PUSH2 0x1CD6 DUP4 PUSH2 0x1C76 JUMP JUMPDEST DUP1 PUSH0 JUMPDEST DUP4 DUP2 LT ISZERO PUSH2 0x1D06 JUMPI DUP2 MLOAD PUSH2 0x1CED DUP9 DUP3 PUSH2 0x1C94 JUMP JUMPDEST SWAP8 POP PUSH2 0x1CF8 DUP4 PUSH2 0x1CAB JUMP JUMPDEST SWAP3 POP POP PUSH1 0x1 DUP2 ADD SWAP1 POP PUSH2 0x1CD9 JUMP JUMPDEST POP DUP6 SWAP4 POP POP POP POP SWAP3 SWAP2 POP POP JUMP JUMPDEST PUSH0 PUSH2 0x140 DUP3 ADD SWAP1 POP PUSH2 0x1D27 PUSH0 DUP4 ADD DUP14 PUSH2 0x1B95 JUMP JUMPDEST PUSH2 0x1D34 PUSH1 0x20 DUP4 ADD DUP13 PUSH2 0x1B95 JUMP JUMPDEST PUSH2 0x1D41 PUSH1 0x40 DUP4 ADD DUP12 PUSH2 0x1B95 JUMP JUMPDEST PUSH2 0x1D4E PUSH1 0x60 DUP4 ADD DUP11 PUSH2 0x1C4D JUMP JUMPDEST PUSH2 0x1D5B PUSH1 0x80 DUP4 ADD DUP10 PUSH2 0x1B95 JUMP JUMPDEST DUP2 DUP2 SUB PUSH1 0xA0 DUP4 ADD MSTORE PUSH2 0x1D6D DUP2 DUP9 PUSH2 0x1BF5 JUMP JUMPDEST SWAP1 POP DUP2 DUP2 SUB PUSH1 0xC0 DUP4 ADD MSTORE PUSH2 0x1D81 DUP2 DUP8 PUSH2 0x1BF5 JUMP JUMPDEST SWAP1 POP PUSH2 0x1D90 PUSH1 0xE0 DUP4 ADD DUP7 PUSH2 0x1C4D JUMP JUMPDEST DUP2 DUP2 SUB PUSH2 0x100 DUP4 ADD MSTORE PUSH2 0x1DA3 DUP2 DUP6 PUSH2 0x1CB7 JUMP JUMPDEST SWAP1 POP PUSH2 0x1DB3 PUSH2 0x120 DUP4 ADD DUP5 PUSH2 0x1B95 JUMP JUMPDEST SWAP12 SWAP11 POP POP POP POP POP POP POP POP POP POP POP JUMP JUMPDEST PUSH0 PUSH1 0x20 DUP3 ADD SWAP1 POP PUSH2 0x1DD5 PUSH0 DUP4 ADD DUP5 PUSH2 0x1C4D JUMP JUMPDEST SWAP3 SWAP2 POP POP JUMP JUMPDEST PUSH2 0x1DE4 DUP2 PUSH2 0x1B8C JUMP JUMPDEST DUP2 EQ PUSH2 0x1DEE JUMPI PUSH0 PUSH0 REVERT JUMPDEST POP JUMP JUMPDEST PUSH0 DUP2 CALLDATALOAD SWAP1 POP PUSH2 0x1DFF DUP2 PUSH2 0x1DDB JUMP JUMPDEST SWAP3 SWAP2 POP POP JUMP JUMPDEST PUSH0 PUSH1 0xFF DUP3 AND SWAP1 POP SWAP2 SWAP1 POP JUMP JUMPDEST PUSH2 0x1E1A DUP2 PUSH2 0x1E05 JUMP JUMPDEST DUP2 EQ PUSH2 0x1E24 JUMPI PUSH0 PUSH0 REVERT JUMPDEST POP JUMP JUMPDEST PUSH0 DUP2 CALLDATALOAD SWAP1 POP PUSH2 0x1E35 DUP2 PUSH2 0x1E11 JUMP JUMPDEST SWAP3 SWAP2 POP POP JUMP JUMPDEST PUSH0 DUP2 SWAP1 POP SWAP2 SWAP1 POP JUMP JUMPDEST PUSH2 0x1E4D DUP2 PUSH2 0x1E3B JUMP JUMPDEST DUP2 EQ PUSH2 0x1E57 JUMPI PUSH0 PUSH0 REVERT JUMPDEST POP JUMP JUMPDEST PUSH0 DUP2 CALLDATALOAD SWAP1 POP PUSH2 0x1E68 DUP2 PUSH2 0x1E44 JUMP JUMPDEST SWAP3 SWAP2 POP POP JUMP JUMPDEST PUSH0 PUSH0 PUSH0 PUSH0 PUSH0 PUSH1 0xA0 DUP7 DUP9 SUB SLT ISZERO PUSH2 0x1E87 JUMPI PUSH2 0x1E86 PUSH2 0x1AD0 JUMP JUMPDEST JUMPDEST PUSH0 PUSH2 0x1E94 DUP9 DUP3 DUP10 ADD PUSH2 0x1DF1 JUMP JUMPDEST SWAP6 POP POP PUSH1 0x20 PUSH2 0x1EA5 DUP9 DUP3 DUP10 ADD PUSH2 0x1DF1 JUMP JUMPDEST SWAP5 POP POP PUSH1 0x40 PUSH2 0x1EB6 DUP9 DUP3 DUP10 ADD PUSH2 0x1E27 JUMP JUMPDEST SWAP4 POP POP PUSH1 0x60 PUSH2 0x1EC7 DUP9 DUP3 DUP10 ADD PUSH2 0x1E5A JUMP JUMPDEST SWAP3 POP POP PUSH1 0x80 PUSH2 0x1ED8 DUP9 DUP3 DUP10 ADD PUSH2 0x1E5A JUMP JUMPDEST SWAP2 POP POP SWAP3 SWAP6 POP SWAP3 SWAP6 SWAP1 SWAP4 POP JUMP JUMPDEST PUSH0 DUP2 MLOAD SWAP1 POP SWAP2 SWAP1 POP JUMP JUMPDEST PUSH0 DUP3 DUP3 MSTORE PUSH1 0x20 DUP3 ADD SWAP1 POP SWAP3 SWAP2 POP POP JUMP JUMPDEST PUSH0 DUP2 SWAP1 POP PUSH1 0x20 DUP3 ADD SWAP1 POP SWAP2 SWAP1 POP JUMP JUMPDEST PUSH2 0x1F17 DUP2 PUSH2 0x1B8C JUMP JUMPDEST DUP3 MSTORE POP POP JUMP JUMPDEST PUSH1 0x60 DUP3 ADD PUSH0 DUP3 ADD MLOAD PUSH2 0x1F31 PUSH0 DUP6 ADD DUP3 PUSH2 0x1F0E JUMP JUMPDEST POP PUSH1 0x20 DUP3 ADD MLOAD PUSH2 0x1F44 PUSH1 0x20 DUP6 ADD DUP3 PUSH2 0x1F0E JUMP JUMPDEST POP PUSH1 0x40 DUP3 ADD MLOAD PUSH2 0x1F57 PUSH1 0x40 DUP6 ADD DUP3 PUSH2 0x1C85 JUMP JUMPDEST POP POP POP POP JUMP JUMPDEST PUSH0 PUSH2 0x1F68 DUP4 DUP4 PUSH2 0x1F1D JUMP JUMPDEST PUSH1 0x60 DUP4 ADD SWAP1 POP SWAP3 SWAP2 POP POP JUMP JUMPDEST PUSH0 PUSH1 0x20 DUP3 ADD SWAP1 POP SWAP2 SWAP1 POP JUMP JUMPDEST PUSH0 PUSH2 0x1F8A DUP3 PUSH2 0x1EE5 JUMP JUMPDEST PUSH2 0x1F94 DUP2 DUP6 PUSH2 0x1EEF JUMP JUMPDEST SWAP4 POP PUSH2 0x1F9F DUP4 PUSH2 0x1EFF JUMP JUMPDEST DUP1 PUSH0 JUMPDEST DUP4 DUP2 LT ISZERO PUSH2 0x1FCF JUMPI DUP2 MLOAD PUSH2 0x1FB6 DUP9 DUP3 PUSH2 0x1F5D JUMP JUMPDEST SWAP8 POP PUSH2 0x1FC1 DUP4 PUSH2 0x1F74 JUMP JUMPDEST SWAP3 POP POP PUSH1 0x1 DUP2 ADD SWAP1 POP PUSH2 0x1FA2 JUMP JUMPDEST POP DUP6 SWAP4 POP POP POP POP SWAP3 SWAP2 POP POP JUMP JUMPDEST PUSH0 PUSH1 0x20 DUP3 ADD SWAP1 POP DUP2 DUP2 SUB PUSH0 DUP4 ADD MSTORE PUSH2 0x1FF4 DUP2 DUP5 PUSH2 0x1F80 JUMP JUMPDEST SWAP1 POP SWAP3 SWAP2 POP POP JUMP JUMPDEST PUSH0 PUSH1 0x20 DUP3 DUP5 SUB SLT ISZERO PUSH2 0x2011 JUMPI PUSH2 0x2010 PUSH2 0x1AD0 JUMP JUMPDEST JUMPDEST PUSH0 PUSH2 0x201E DUP5 DUP3 DUP6 ADD PUSH2 0x1DF1 JUMP JUMPDEST SWAP2 POP POP SWAP3 SWAP2 POP POP JUMP JUMPDEST PUSH0 PUSH1 0x60 DUP3 ADD SWAP1 POP PUSH2 0x203A PUSH0 DUP4 ADD DUP7 PUSH2 0x1B95 JUMP JUMPDEST PUSH2 0x2047 PUSH1 0x20 DUP4 ADD DUP6 PUSH2 0x1B95 JUMP JUMPDEST PUSH2 0x2054 PUSH1 0x40 DUP4 ADD DUP5 PUSH2 0x1C4D JUMP JUMPDEST SWAP5 SWAP4 POP POP POP POP JUMP JUMPDEST PUSH0 PUSH1 0x20 DUP3 ADD SWAP1 POP DUP2 DUP2 SUB PUSH0 DUP4 ADD MSTORE PUSH2 0x2074 DUP2 DUP5 PUSH2 0x1CB7 JUMP JUMPDEST SWAP1 POP SWAP3 SWAP2 POP POP JUMP JUMPDEST PUSH0 DUP2 SWAP1 POP SWAP2 SWAP1 POP JUMP JUMPDEST PUSH0 PUSH2 0x209F PUSH2 0x209A PUSH2 0x2095 DUP5 PUSH2 0x1AD4 JUMP JUMPDEST PUSH2 0x207C JUMP JUMPDEST PUSH2 0x1AD4 JUMP JUMPDEST SWAP1 POP SWAP2 SWAP1 POP JUMP JUMPDEST PUSH0 PUSH2 0x20B0 DUP3 PUSH2 0x2085 JUMP JUMPDEST SWAP1 POP SWAP2 SWAP1 POP JUMP JUMPDEST PUSH0 PUSH2 0x20C1 DUP3 PUSH2 0x20A6 JUMP JUMPDEST SWAP1 POP SWAP2 SWAP1 POP JUMP JUMPDEST PUSH2 0x20D1 DUP2 PUSH2 0x20B7 JUMP JUMPDEST DUP3 MSTORE POP POP JUMP JUMPDEST PUSH0 PUSH1 0x20 DUP3 ADD SWAP1 POP PUSH2 0x20EA PUSH0 DUP4 ADD DUP5 PUSH2 0x20C8 JUMP JUMPDEST SWAP3 SWAP2 POP POP JUMP JUMPDEST PUSH32 0x41756374696F6E206E6F742066696E616C697A65640000000000000000000000 PUSH0 DUP3 ADD MSTORE POP JUMP JUMPDEST PUSH0 PUSH2 0x2124 PUSH1 0x15 DUP4 PUSH2 0x1BC7 JUMP JUMPDEST SWAP2 POP PUSH2 0x212F DUP3 PUSH2 0x20F0 JUMP JUMPDEST PUSH1 0x20 DUP3 ADD SWAP1 POP SWAP2 SWAP1 POP JUMP JUMPDEST PUSH0 PUSH1 0x20 DUP3 ADD SWAP1 POP DUP2 DUP2 SUB PUSH0 DUP4 ADD MSTORE PUSH2 0x2151 DUP2 PUSH2 0x2118 JUMP JUMPDEST SWAP1 POP SWAP2 SWAP1 POP JUMP JUMPDEST PUSH32 0x4F6E6C792077696E6E65722063616E2061636365737320746865206461746100 PUSH0 DUP3 ADD MSTORE POP JUMP JUMPDEST PUSH0 PUSH2 0x218C PUSH1 0x1F DUP4 PUSH2 0x1BC7 JUMP JUMPDEST SWAP2 POP PUSH2 0x2197 DUP3 PUSH2 0x2158 JUMP JUMPDEST PUSH1 0x20 DUP3 ADD SWAP1 POP SWAP2 SWAP1 POP JUMP JUMPDEST PUSH0 PUSH1 0x20 DUP3 ADD SWAP1 POP DUP2 DUP2 SUB PUSH0 DUP4 ADD MSTORE PUSH2 0x21B9 DUP2 PUSH2 0x2180 JUMP JUMPDEST SWAP1 POP SWAP2 SWAP1 POP JUMP JUMPDEST PUSH32 0x4E487B7100000000000000000000000000000000000000000000000000000000 PUSH0 MSTORE PUSH1 0x22 PUSH1 0x4 MSTORE PUSH1 0x24 PUSH0 REVERT JUMPDEST PUSH0 PUSH1 0x2 DUP3 DIV SWAP1 POP PUSH1 0x1 DUP3 AND DUP1 PUSH2 0x2204 JUMPI PUSH1 0x7F DUP3 AND SWAP2 POP JUMPDEST PUSH1 0x20 DUP3 LT DUP2 SUB PUSH2 0x2217 JUMPI PUSH2 0x2216 PUSH2 0x21C0 JUMP JUMPDEST JUMPDEST POP SWAP2 SWAP1 POP JUMP JUMPDEST PUSH0 DUP2 MLOAD SWAP1 POP PUSH2 0x222B DUP2 PUSH2 0x1DDB JUMP JUMPDEST SWAP3 SWAP2 POP POP JUMP JUMPDEST PUSH0 PUSH1 0x20 DUP3 DUP5 SUB SLT ISZERO PUSH2 0x2246 JUMPI PUSH2 0x2245 PUSH2 0x1AD0 JUMP JUMPDEST JUMPDEST PUSH0 PUSH2 0x2253 DUP5 DUP3 DUP6 ADD PUSH2 0x221D JUMP JUMPDEST SWAP2 POP POP SWAP3 SWAP2 POP POP JUMP JUMPDEST PUSH0 PUSH1 0x60 DUP3 ADD SWAP1 POP PUSH2 0x226F PUSH0 DUP4 ADD DUP7 PUSH2 0x1B95 JUMP JUMPDEST PUSH2 0x227C PUSH1 0x20 DUP4 ADD DUP6 PUSH2 0x1B95 JUMP JUMPDEST PUSH2 0x2289 PUSH1 0x40 DUP4 ADD DUP5 PUSH2 0x1B95 JUMP JUMPDEST SWAP5 SWAP4 POP POP POP POP JUMP JUMPDEST PUSH2 0x229A DUP2 PUSH2 0x1E05 JUMP JUMPDEST DUP3 MSTORE POP POP JUMP JUMPDEST PUSH2 0x22A9 DUP2 PUSH2 0x1E3B JUMP JUMPDEST DUP3 MSTORE POP POP JUMP JUMPDEST PUSH0 PUSH1 0xE0 DUP3 ADD SWAP1 POP PUSH2 0x22C2 PUSH0 DUP4 ADD DUP11 PUSH2 0x1C4D JUMP JUMPDEST PUSH2 0x22CF PUSH1 0x20 DUP4 ADD DUP10 PUSH2 0x1C4D JUMP JUMPDEST PUSH2 0x22DC PUSH1 0x40 DUP4 ADD DUP9 PUSH2 0x1B95 JUMP JUMPDEST PUSH2 0x22E9 PUSH1 0x60 DUP4 ADD DUP8 PUSH2 0x1B95 JUMP JUMPDEST PUSH2 0x22F6 PUSH1 0x80 DUP4 ADD DUP7 PUSH2 0x2291 JUMP JUMPDEST PUSH2 0x2303 PUSH1 0xA0 DUP4 ADD DUP6 PUSH2 0x22A0 JUMP JUMPDEST PUSH2 0x2310 PUSH1 0xC0 DUP4 ADD DUP5 PUSH2 0x22A0 JUMP JUMPDEST SWAP9 SWAP8 POP POP POP POP POP POP POP POP JUMP JUMPDEST PUSH0 DUP2 PUSH1 0xE0 SHR SWAP1 POP SWAP2 SWAP1 POP JUMP JUMPDEST PUSH0 PUSH1 0x3 RETURNDATASIZE GT ISZERO PUSH2 0x2344 JUMPI PUSH1 0x4 PUSH0 PUSH0 RETURNDATACOPY PUSH2 0x2341 PUSH0 MLOAD PUSH2 0x231C JUMP JUMPDEST SWAP1 POP JUMPDEST SWAP1 JUMP JUMPDEST PUSH32 0x4E487B7100000000000000000000000000000000000000000000000000000000 PUSH0 MSTORE PUSH1 0x41 PUSH1 0x4 MSTORE PUSH1 0x24 PUSH0 REVERT JUMPDEST PUSH2 0x237D DUP3 PUSH2 0x1BE5 JUMP JUMPDEST DUP2 ADD DUP2 DUP2 LT PUSH8 0xFFFFFFFFFFFFFFFF DUP3 GT OR ISZERO PUSH2 0x239C JUMPI PUSH2 0x239B PUSH2 0x2347 JUMP JUMPDEST JUMPDEST DUP1 PUSH1 0x40 MSTORE POP POP POP JUMP JUMPDEST PUSH0 PUSH1 0x44 RETURNDATASIZE LT PUSH2 0x2431 JUMPI PUSH2 0x23B6 PUSH2 0x1AC7 JUMP JUMPDEST PUSH1 0x4 RETURNDATASIZE SUB PUSH1 0x4 DUP3 RETURNDATACOPY DUP1 MLOAD RETURNDATASIZE PUSH1 0x24 DUP3 ADD GT PUSH8 0xFFFFFFFFFFFFFFFF DUP3 GT OR ISZERO PUSH2 0x23DE JUMPI POP POP PUSH2 0x2431 JUMP JUMPDEST DUP1 DUP3 ADD DUP1 MLOAD PUSH8 0xFFFFFFFFFFFFFFFF DUP2 GT ISZERO PUSH2 0x23FC JUMPI POP POP POP POP PUSH2 0x2431 JUMP JUMPDEST DUP1 PUSH1 0x20 DUP4 ADD ADD PUSH1 0x4 RETURNDATASIZE SUB DUP6 ADD DUP2 GT ISZERO PUSH2 0x2419 JUMPI POP POP POP POP POP PUSH2 0x2431 JUMP JUMPDEST PUSH2 0x2428 DUP3 PUSH1 0x20 ADD DUP6 ADD DUP7 PUSH2 0x2374 JUMP JUMPDEST DUP3 SWAP6 POP POP POP POP POP POP JUMPDEST SWAP1 JUMP JUMPDEST PUSH0 DUP2 SWAP1 POP SWAP3 SWAP2 POP POP JUMP JUMPDEST PUSH32 0x5065726D6974206661696C65643A200000000000000000000000000000000000 PUSH0 DUP3 ADD MSTORE POP JUMP JUMPDEST PUSH0 PUSH2 0x2472 PUSH1 0xF DUP4 PUSH2 0x2434 JUMP JUMPDEST SWAP2 POP PUSH2 0x247D DUP3 PUSH2 0x243E JUMP JUMPDEST PUSH1 0xF DUP3 ADD SWAP1 POP SWAP2 SWAP1 POP JUMP JUMPDEST PUSH0 PUSH2 0x2492 DUP3 PUSH2 0x1BBD JUMP JUMPDEST PUSH2 0x249C DUP2 DUP6 PUSH2 0x2434 JUMP JUMPDEST SWAP4 POP PUSH2 0x24AC DUP2 DUP6 PUSH1 0x20 DUP7 ADD PUSH2 0x1BD7 JUMP JUMPDEST DUP1 DUP5 ADD SWAP2 POP POP SWAP3 SWAP2 POP POP JUMP JUMPDEST PUSH0 PUSH2 0x24C2 DUP3 PUSH2 0x2466 JUMP JUMPDEST SWAP2 POP PUSH2 0x24CE DUP3 DUP5 PUSH2 0x2488 JUMP JUMPDEST SWAP2 POP DUP2 SWAP1 POP SWAP3 SWAP2 POP POP JUMP JUMPDEST PUSH32 0x556E6B6E6F776E206572726F7200000000000000000000000000000000000000 PUSH0 DUP3 ADD MSTORE POP JUMP JUMPDEST PUSH0 PUSH2 0x250D PUSH1 0xD DUP4 PUSH2 0x1BC7 JUMP JUMPDEST SWAP2 POP PUSH2 0x2518 DUP3 PUSH2 0x24D9 JUMP JUMPDEST PUSH1 0x20 DUP3 ADD SWAP1 POP SWAP2 SWAP1 POP JUMP JUMPDEST PUSH0 PUSH1 0x20 DUP3 ADD SWAP1 POP DUP2 DUP2 SUB PUSH0 DUP4 ADD MSTORE PUSH2 0x253A DUP2 PUSH2 0x2501 JUMP JUMPDEST SWAP1 POP SWAP2 SWAP1 POP JUMP JUMPDEST PUSH32 0x5065726D6974206661696C65643A20756E6B6E6F776E206572726F7200000000 PUSH0 DUP3 ADD MSTORE POP JUMP JUMPDEST PUSH0 PUSH2 0x2575 PUSH1 0x1C DUP4 PUSH2 0x1BC7 JUMP JUMPDEST SWAP2 POP PUSH2 0x2580 DUP3 PUSH2 0x2541 JUMP JUMPDEST PUSH1 0x20 DUP3 ADD SWAP1 POP SWAP2 SWAP1 POP JUMP JUMPDEST PUSH0 PUSH1 0x20 DUP3 ADD SWAP1 POP DUP2 DUP2 SUB PUSH0 DUP4 ADD MSTORE PUSH2 0x25A2 DUP2 PUSH2 0x2569 JUMP JUMPDEST SWAP1 POP SWAP2 SWAP1 POP JUMP JUMPDEST PUSH0 PUSH1 0x40 DUP3 ADD SWAP1 POP PUSH2 0x25BC PUSH0 DUP4 ADD DUP6 PUSH2 0x1C4D JUMP JUMPDEST PUSH2 0x25C9 PUSH1 0x20 DUP4 ADD DUP5 PUSH2 0x1C4D JUMP JUMPDEST SWAP4 SWAP3 POP POP POP JUMP JUMPDEST PUSH0 PUSH1 0x40 DUP3 ADD SWAP1 POP PUSH2 0x25E3 PUSH0 DUP4 ADD DUP6 PUSH2 0x1B95 JUMP JUMPDEST PUSH2 0x25F0 PUSH1 0x20 DUP4 ADD DUP5 PUSH2 0x1B95 JUMP JUMPDEST SWAP4 SWAP3 POP POP POP JUMP JUMPDEST PUSH32 0x416C6C6F77616E636520776173206E6F74207570646174656420627920706572 PUSH0 DUP3 ADD MSTORE PUSH32 0x6D69740000000000000000000000000000000000000000000000000000000000 PUSH1 0x20 DUP3 ADD MSTORE POP JUMP JUMPDEST PUSH0 PUSH2 0x2651 PUSH1 0x23 DUP4 PUSH2 0x1BC7 JUMP JUMPDEST SWAP2 POP PUSH2 0x265C DUP3 PUSH2 0x25F7 JUMP JUMPDEST PUSH1 0x40 DUP3 ADD SWAP1 POP SWAP2 SWAP1 POP JUMP JUMPDEST PUSH0 PUSH1 0x20 DUP3 ADD SWAP1 POP DUP2 DUP2 SUB PUSH0 DUP4 ADD MSTORE PUSH2 0x267E DUP2 PUSH2 0x2645 JUMP JUMPDEST SWAP1 POP SWAP2 SWAP1 POP JUMP JUMPDEST PUSH0 PUSH1 0x40 DUP3 ADD SWAP1 POP PUSH2 0x2698 PUSH0 DUP4 ADD DUP6 PUSH2 0x1C4D JUMP JUMPDEST PUSH2 0x26A5 PUSH1 0x20 DUP4 ADD DUP5 PUSH2 0x1B95 JUMP JUMPDEST SWAP4 SWAP3 POP POP POP JUMP JUMPDEST PUSH32 0x41756374696F6E206E6F7420656E646564207965740000000000000000000000 PUSH0 DUP3 ADD MSTORE POP JUMP JUMPDEST PUSH0 PUSH2 0x26E0 PUSH1 0x15 DUP4 PUSH2 0x1BC7 JUMP JUMPDEST SWAP2 POP PUSH2 0x26EB DUP3 PUSH2 0x26AC JUMP JUMPDEST PUSH1 0x20 DUP3 ADD SWAP1 POP SWAP2 SWAP1 POP JUMP JUMPDEST PUSH0 PUSH1 0x20 DUP3 ADD SWAP1 POP DUP2 DUP2 SUB PUSH0 DUP4 ADD MSTORE PUSH2 0x270D DUP2 PUSH2 0x26D4 JUMP JUMPDEST SWAP1 POP SWAP2 SWAP1 POP JUMP JUMPDEST PUSH32 0x41756374696F6E20616C72656164792066696E616C697A656400000000000000 PUSH0 DUP3 ADD MSTORE POP JUMP JUMPDEST PUSH0 PUSH2 0x2748 PUSH1 0x19 DUP4 PUSH2 0x1BC7 JUMP JUMPDEST SWAP2 POP PUSH2 0x2753 DUP3 PUSH2 0x2714 JUMP JUMPDEST PUSH1 0x20 DUP3 ADD SWAP1 POP SWAP2 SWAP1 POP JUMP JUMPDEST PUSH0 PUSH1 0x20 DUP3 ADD SWAP1 POP DUP2 DUP2 SUB PUSH0 DUP4 ADD MSTORE PUSH2 0x2775 DUP2 PUSH2 0x273C JUMP JUMPDEST SWAP1 POP SWAP2 SWAP1 POP JUMP JUMPDEST PUSH32 0x4E487B7100000000000000000000000000000000000000000000000000000000 PUSH0 MSTORE PUSH1 0x32 PUSH1 0x4 MSTORE PUSH1 0x24 PUSH0 REVERT JUMPDEST PUSH2 0x27B2 DUP2 PUSH2 0x1B59 JUMP JUMPDEST DUP2 EQ PUSH2 0x27BC JUMPI PUSH0 PUSH0 REVERT JUMPDEST POP JUMP JUMPDEST PUSH0 DUP2 MLOAD SWAP1 POP PUSH2 0x27CD DUP2 PUSH2 0x27A9 JUMP JUMPDEST SWAP3 SWAP2 POP POP JUMP JUMPDEST PUSH0 PUSH1 0x20 DUP3 DUP5 SUB SLT ISZERO PUSH2 0x27E8 JUMPI PUSH2 0x27E7 PUSH2 0x1AD0 JUMP JUMPDEST JUMPDEST PUSH0 PUSH2 0x27F5 DUP5 DUP3 DUP6 ADD PUSH2 0x27BF JUMP JUMPDEST SWAP2 POP POP SWAP3 SWAP2 POP POP JUMP JUMPDEST PUSH32 0x526566756E64206661696C656400000000000000000000000000000000000000 PUSH0 DUP3 ADD MSTORE POP JUMP JUMPDEST PUSH0 PUSH2 0x2832 PUSH1 0xD DUP4 PUSH2 0x1BC7 JUMP JUMPDEST SWAP2 POP PUSH2 0x283D DUP3 PUSH2 0x27FE JUMP JUMPDEST PUSH1 0x20 DUP3 ADD SWAP1 POP SWAP2 SWAP1 POP JUMP JUMPDEST PUSH0 PUSH1 0x20 DUP3 ADD SWAP1 POP DUP2 DUP2 SUB PUSH0 DUP4 ADD MSTORE PUSH2 0x285F DUP2 PUSH2 0x2826 JUMP JUMPDEST SWAP1 POP SWAP2 SWAP1 POP JUMP JUMPDEST PUSH32 0x5061796D656E7420746F2073656C6C6572206661696C65640000000000000000 PUSH0 DUP3 ADD MSTORE POP JUMP JUMPDEST PUSH0 PUSH2 0x289A PUSH1 0x18 DUP4 PUSH2 0x1BC7 JUMP JUMPDEST SWAP2 POP PUSH2 0x28A5 DUP3 PUSH2 0x2866 JUMP JUMPDEST PUSH1 0x20 DUP3 ADD SWAP1 POP SWAP2 SWAP1 POP JUMP JUMPDEST PUSH0 PUSH1 0x20 DUP3 ADD SWAP1 POP DUP2 DUP2 SUB PUSH0 DUP4 ADD MSTORE PUSH2 0x28C7 DUP2 PUSH2 0x288E JUMP JUMPDEST SWAP1 POP SWAP2 SWAP1 POP JUMP JUMPDEST PUSH32 0x41756374696F6E20656E64656400000000000000000000000000000000000000 PUSH0 DUP3 ADD MSTORE POP JUMP JUMPDEST PUSH0 PUSH2 0x2902 PUSH1 0xD DUP4 PUSH2 0x1BC7 JUMP JUMPDEST SWAP2 POP PUSH2 0x290D DUP3 PUSH2 0x28CE JUMP JUMPDEST PUSH1 0x20 DUP3 ADD SWAP1 POP SWAP2 SWAP1 POP JUMP JUMPDEST PUSH0 PUSH1 0x20 DUP3 ADD SWAP1 POP DUP2 DUP2 SUB PUSH0 DUP4 ADD MSTORE PUSH2 0x292F DUP2 PUSH2 0x28F6 JUMP JUMPDEST SWAP1 POP SWAP2 SWAP1 POP JUMP JUMPDEST PUSH32 0x596F752063616E277420626964206F6E20796F7572206F776E2061756374696F PUSH0 DUP3 ADD MSTORE PUSH32 0x6E00000000000000000000000000000000000000000000000000000000000000 PUSH1 0x20 DUP3 ADD MSTORE POP JUMP JUMPDEST PUSH0 PUSH2 0x2990 PUSH1 0x21 DUP4 PUSH2 0x1BC7 JUMP JUMPDEST SWAP2 POP PUSH2 0x299B DUP3 PUSH2 0x2936 JUMP JUMPDEST PUSH1 0x40 DUP3 ADD SWAP1 POP SWAP2 SWAP1 POP JUMP JUMPDEST PUSH0 PUSH1 0x20 DUP3 ADD SWAP1 POP DUP2 DUP2 SUB PUSH0 DUP4 ADD MSTORE PUSH2 0x29BD DUP2 PUSH2 0x2984 JUMP JUMPDEST SWAP1 POP SWAP2 SWAP1 POP JUMP JUMPDEST PUSH32 0x4E487B7100000000000000000000000000000000000000000000000000000000 PUSH0 MSTORE PUSH1 0x11 PUSH1 0x4 MSTORE PUSH1 0x24 PUSH0 REVERT JUMPDEST PUSH0 PUSH2 0x29FB DUP3 PUSH2 0x1B8C JUMP JUMPDEST SWAP2 POP PUSH2 0x2A06 DUP4 PUSH2 0x1B8C JUMP JUMPDEST SWAP3 POP DUP3 DUP3 ADD SWAP1 POP DUP1 DUP3 GT ISZERO PUSH2 0x2A1E JUMPI PUSH2 0x2A1D PUSH2 0x29C4 JUMP JUMPDEST JUMPDEST SWAP3 SWAP2 POP POP JUMP JUMPDEST PUSH32 0x42656C6F77206D696E696D756D20626964000000000000000000000000000000 PUSH0 DUP3 ADD MSTORE POP JUMP JUMPDEST PUSH0 PUSH2 0x2A58 PUSH1 0x11 DUP4 PUSH2 0x1BC7 JUMP JUMPDEST SWAP2 POP PUSH2 0x2A63 DUP3 PUSH2 0x2A24 JUMP JUMPDEST PUSH1 0x20 DUP3 ADD SWAP1 POP SWAP2 SWAP1 POP JUMP JUMPDEST PUSH0 PUSH1 0x20 DUP3 ADD SWAP1 POP DUP2 DUP2 SUB PUSH0 DUP4 ADD MSTORE PUSH2 0x2A85 DUP2 PUSH2 0x2A4C JUMP JUMPDEST SWAP1 POP SWAP2 SWAP1 POP JUMP JUMPDEST PUSH32 0x426964206D757374206578636565642063757272656E74206869676865737400 PUSH0 DUP3 ADD MSTORE POP JUMP JUMPDEST PUSH0 PUSH2 0x2AC0 PUSH1 0x1F DUP4 PUSH2 0x1BC7 JUMP JUMPDEST SWAP2 POP PUSH2 0x2ACB DUP3 PUSH2 0x2A8C JUMP JUMPDEST PUSH1 0x20 DUP3 ADD SWAP1 POP SWAP2 SWAP1 POP JUMP JUMPDEST PUSH0 PUSH1 0x20 DUP3 ADD SWAP1 POP DUP2 DUP2 SUB PUSH0 DUP4 ADD MSTORE PUSH2 0x2AED DUP2 PUSH2 0x2AB4 JUMP JUMPDEST SWAP1 POP SWAP2 SWAP1 POP JUMP JUMPDEST PUSH0 PUSH1 0x60 DUP3 ADD SWAP1 POP PUSH2 0x2B07 PUSH0 DUP4 ADD DUP7 PUSH2 0x1C4D JUMP JUMPDEST PUSH2 0x2B14 PUSH1 0x20 DUP4 ADD DUP6 PUSH2 0x1C4D JUMP JUMPDEST PUSH2 0x2B21 PUSH1 0x40 DUP4 ADD DUP5 PUSH2 0x1B95 JUMP JUMPDEST SWAP5 SWAP4 POP POP POP POP JUMP JUMPDEST PUSH32 0x5472616E73666572206661696C65640000000000000000000000000000000000 PUSH0 DUP3 ADD MSTORE POP JUMP JUMPDEST PUSH0 PUSH2 0x2B5D PUSH1 0xF DUP4 PUSH2 0x1BC7 JUMP JUMPDEST SWAP2 POP PUSH2 0x2B68 DUP3 PUSH2 0x2B29 JUMP JUMPDEST PUSH1 0x20 DUP3 ADD SWAP1 POP SWAP2 SWAP1 POP JUMP JUMPDEST PUSH0 PUSH1 0x20 DUP3 ADD SWAP1 POP DUP2 DUP2 SUB PUSH0 DUP4 ADD MSTORE PUSH2 0x2B8A DUP2 PUSH2 0x2B51 JUMP JUMPDEST SWAP1 POP SWAP2 SWAP1 POP JUMP JUMPDEST PUSH0 PUSH2 0x2B9B DUP3 PUSH2 0x1B8C JUMP JUMPDEST SWAP2 POP PUSH32 0xFFFFFFFFFFFFFFFFFFFFFFFFFFFFFFFFFFFFFFFFFFFFFFFFFFFFFFFFFFFFFFFF DUP3 SUB PUSH2 0x2BCD JUMPI PUSH2 0x2BCC PUSH2 0x29C4 JUMP JUMPDEST JUMPDEST PUSH1 0x1 DUP3 ADD SWAP1 POP SWAP2 SWAP1 POP JUMP INVALID LOG2 PUSH5 0x6970667358 0x22 SLT KECCAK256 0xB5 SGT SWAP4 NOT GT 0xF6 SGT PUSH29 0x1C2734BC1FE4AB5A6C4344B86AAC6CBDC277F96ABA1C42BC64736F6C63 NUMBER STOP ADDMOD 0x1E STOP CALLER LOG2 PUSH5 0x6970667358 0x22 SLT KECCAK256 0xD9 0xAF BASEFEE PUSH26 0x3E6BA19E116B5ED201F09F5B8DB9E6C3876781AA536BF0C4AD09 ADDMOD 0xD2 PUSH5 0x736F6C6343 STOP ADDMOD 0x1E STOP CALLER "},"gasEstimates":{"creation":{"codeDepositCost":"3116000","executionCost":"3434","totalCost":"3119434"},"external":{"checkEndedAuctions()":"infinite","createCampaign(uint256,string,string,uint256,address)":"infinite","deployedCampaigns(uint256)":"4921","getDeployedCampaigns()":"infinite"}},"methodIdentifiers":{"checkEndedAuctions()":"75da6ba0","createCampaign(uint256,string,string,uint256,address)":"f9f01f88","deployedCampaigns(uint256)":"339d50a5","getDeployedCampaigns()":"4acb9d4f"}},"storageLayout":{"storage":[{"astId":624,"contract":"Campaign.sol:CampaignFactory","label":"deployedCampaigns","offset":0,"slot":"0","type":"t_array(t_address_payable)dyn_storage"}],"types":{"t_address_payable":{"encoding":"inplace","label":"address payable","numberOfBytes":"20"},"t_array(t_address_payable)dyn_storage":{"base":"t_address_payable","encoding":"dynamic_array","label":"address payable[]","numberOfBytes":"32"}}},"transientStorageLayout":{"storage":[],"types":null},"userdoc":{"kind":"user","methods":{},"version":1}}