{"abi":[{"inputs":[{"internalType":"uint256","name":"minimum","type":"uint256"},{"internalType":"string","name":"dataSell","type":"string"},{"internalType":"string","name":"dataDesc","type":"string"},{"internalType":"address","name":"creator","type":"address"},{"internalType":"uint256","name":"duration","type":"uint256"},{"internalType":"address","name":"factoryAddress","type":"address"}],"stateMutability":"nonpayable","type":"constructor"},{"anonymous":false,"inputs":[{"indexed":false,"internalType":"address","name":"contributor","type":"address"}],"name":"BidAdded","type":"event"},{"anonymous":false,"inputs":[{"indexed":true,"internalType":"address","name":"bidder","type":"address"},{"indexed":false,"internalType":"uint256","name":"amount","type":"uint256"},{"indexed":false,"internalType":"uint256","name":"cumulativeBid","type":"uint256"},{"indexed":false,"internalType":"uint256","name":"budgetBefore","type":"uint256"},{"indexed":false,"internalType":"uint256","name":"budgetAfter","type":"uint256"},{"indexed":false,"internalType":"uint256","name":"time","type":"uint256"},{"indexed":true,"internalType":"address","name":"previousHighestBidder","type":"address"},{"indexed":false,"internalType":"uint256","name":"previousHighestBid","type":"uint256"}],"name":"BidRecorded","type":"event"},{"anonymous":false,"inputs":[{"indexed":true,"internalType":"address","name":"contributor","type":"address"},{"indexed":false,"internalType":"uint256","name":"amount","type":"uint256"}],"name":"RefundProcessed","type":"event"},{"anonymous":false,"inputs":[{"indexed":true,"internalType":"address","name":"seller","type":"address"},{"indexed":false,"internalType":"uint256","name":"amount","type":"uint256"}],"name":"SellerPaid","type":"event"},{"inputs":[{"internalType":"uint256","name":"","type":"uint256"}],"name":"addresses","outputs":[{"internalType":"address","name":"","type":"address"}],"stateMutability":"view","type":"function"},{"inputs":[{"internalType":"address","name":"","type":"address"}],"name":"approvers","outputs":[{"internalType":"bool","name":"","type":"bool"}],"stateMutability":"view","type":"function"},{"inputs":[],"name":"approversCount","outputs":[{"internalType":"uint256","name":"","type":"uint256"}],"stateMutability":"view","type":"function"},{"inputs":[{"internalType":"address","name":"","type":"address"}],"name":"approversMoney","outputs":[{"internalType":"uint256","name":"","type":"uint256"}],"stateMutability":"view","type":"function"},{"inputs":[{"internalType":"uint256","name":"","type":"uint256"}],"name":"bidLedger","outputs":[{"internalType":"uint256","name":"value","type":"uint256"},{"internalType":"uint256","name":"time","type":"uint256"},{"internalType":"address","name":"bidderAddress","type":"address"},{"internalType":"uint256","name":"cumulativeBid","type":"uint256"},{"internalType":"uint256","name":"budgetBefore","type":"uint256"},{"internalType":"uint256","name":"budgetAfter","type":"uint256"},{"internalType":"address","name":"previousHighestBidder","type":"address"},{"internalType":"uint256","name":"previousHighestBid","type":"uint256"}],"stateMutability":"view","type":"function"},{"inputs":[],"name":"closed","outputs":[{"internalType":"bool","name":"","type":"bool"}],"stateMutability":"view","type":"function"},{"inputs":[],"name":"contribute","outputs":[],"stateMutability":"payable","type":"function"},{"inputs":[],"name":"dataDescription","outputs":[{"internalType":"string","name":"","type":"string"}],"stateMutability":"view","type":"function"},{"inputs":[],"name":"dataForSell","outputs":[{"internalType":"string","name":"","type":"string"}],"stateMutability":"view","type":"function"},{"inputs":[],"name":"endTime","outputs":[{"internalType":"uint256","name":"","type":"uint256"}],"stateMutability":"view","type":"function"},{"inputs":[],"name":"factory","outputs":[{"internalType":"contract CampaignFactory","name":"","type":"address"}],"stateMutability":"view","type":"function"},{"inputs":[],"name":"finalizeAuctionIfNeeded","outputs":[],"stateMutability":"nonpayable","type":"function"},{"inputs":[],"name":"getAddresses","outputs":[{"internalType":"address[]","name":"","type":"address[]"}],"stateMutability":"view","type":"function"},{"inputs":[{"internalType":"address","name":"bidder","type":"address"}],"name":"getBid","outputs":[{"internalType":"uint256","name":"","type":"uint256"}],"stateMutability":"view","type":"function"},{"inputs":[],"name":"getBidLedger","outputs":[{"components":[{"internalType":"uint256","name":"value","type":"uint256"},{"internalType":"uint256","name":"time","type":"uint256"},{"internalType":"address","name":"bidderAddress","type":"address"},{"internalType":"uint256","name":"cumulativeBid","type":"uint256"},{"internalType":"uint256","name":"budgetBefore","type":"uint256"},{"internalType":"uint256","name":"budgetAfter","type":"uint256"},{"internalType":"address","name":"previousHighestBidder","type":"address"},{"internalType":"uint256","name":"previousHighestBid","type":"uint256"}],"internalType":"struct Campaign.BidLedgerEntry[]","name":"","type":"tuple[]"}],"stateMutability":"view","type":"function"},{"inputs":[{"internalType":"uint256","name":"index","type":"uint256"}],"name":"getBidLedgerAt","outputs":[{"components":[{"internalType":"uint256","name":"value","type":"uint256"},{"internalType":"uint256","name":"time","type":"uint256"},{"internalType":"address","name":"bidderAddress","type":"address"},{"internalType":"uint256","name":"cumulativeBid","type":"uint256"},{"internalType":"uint256","name":"budgetBefore","type":"uint256"},{"internalType":"uint256","name":"budgetAfter","type":"uint256"},{"internalType":"address","name":"previousHighestBidder","type":"address"},{"internalType":"uint256","name":"previousHighestBid","type":"uint256"}],"internalType":"struct Campaign.BidLedgerEntry","name":"","type":"tuple"}],"stateMutability":"view","type":"function"},{"inputs":[],"name":"getData","outputs":[{"internalType":"string","name":"","type":"string"}],"stateMutability":"view","type":"function"},{"inputs":[],"name":"getListSummary","outputs":[{"internalType":"uint256","name":"","type":"uint256"},{"internalType":"uint256","name":"","type":"uint256"},{"internalType":"uint256","name":"","type":"uint256"},{"internalType":"address","name":"","type":"address"},{"internalType":"uint256","name":"","type":"uint256"},{"internalType":"string","name":"","type":"string"},{"internalType":"address","name":"","type":"address"},{"internalType":"uint256","name":"","type":"uint256"},{"internalType":"bool","name":"","type":"bool"}],"stateMutability":"view","type":"function"},{"inputs":[],"name":"getStatus","outputs":[{"internalType":"bool","name":"","type":"bool"}],"stateMutability":"view","type":"function"},{"inputs":[],"name":"getSummary","outputs":[{"internalType":"uint256","name":"","type":"uint256"},{"internalType":"uint256","name":"","type":"uint256"},{"internalType":"uint256","name":"","type":"uint256"},{"internalType":"address","name":"","type":"address"},{"internalType":"uint256","name":"","type":"uint256"},{"internalType":"string","name":"","type":"string"},{"internalType":"string","name":"","type":"string"},{"internalType":"address","name":"","type":"address"},{"internalType":"address[]","name":"","type":"address[]"},{"internalType":"uint256","name":"","type":"uint256"}],"stateMutability":"view","type":"function"},{"inputs":[{"internalType":"uint256","name":"index","type":"uint256"}],"name":"getTransactionAt","outputs":[{"components":[{"internalType":"uint256","name":"value","type":"uint256"},{"internalType":"uint256","name":"time","type":"uint256"},{"internalType":"address","name":"bidderAddress","type":"address"}],"internalType":"struct Campaign.Bid","name":"","type":"tuple"}],"stateMutability":"view","type":"function"},{"inputs":[],"name":"getTransactionCount","outputs":[{"internalType":"uint256","name":"","type":"uint256"}],"stateMutability":"view","type":"function"},{"inputs":[],"name":"getTransactions","outputs":[{"components":[{"internalType":"uint256","name":"value","type":"uint256"},{"internalType":"uint256","name":"time","type":"uint256"},{"internalType":"address","name":"bidderAddress","type":"address"}],"internalType":"struct Campaign.Bid[]","name":"","type":"tuple[]"}],"stateMutability":"view","type":"function"},{"inputs":[{"internalType":"address","name":"user","type":"address"}],"name":"getUserAuctionStatus","outputs":[{"internalType":"bool","name":"","type":"bool"},{"internalType":"uint256","name":"","type":"uint256"},{"internalType":"bool","name":"","type":"bool"},{"internalType":"bool","name":"","type":"bool"},{"internalType":"bool","name":"","type":"bool"}],"stateMutability":"view","type":"function"},{"inputs":[],"name":"highestBid","outputs":[{"internalType":"uint256","name":"","type":"uint256"}],"stateMutability":"view","type":"function"},{"inputs":[],"name":"highestBidder","outputs":[{"internalType":"address","name":"","type":"address"}],"stateMutability":"view","type":"function"},{"inputs":[],"name":"manager","outputs":[{"internalType":"address","name":"","type":"address"}],"stateMutability":"view","type":"function"},{"inputs":[],"name":"minimumContribution","outputs":[{"internalType":"uint256","name":"","type":"uint256"}],"stateMutability":"view","type":"function"},{"inputs":[],"name":"nextRefundIndex","outputs":[{"internalType":"uint256","name":"","type":"uint256"}],"stateMutability":"view","type":"function"},{"inputs":[{"internalType":"uint256","name":"maxRefunds","type":"uint256"}],"name":"processRefunds","outputs":[],"stateMutability":"nonpayable","type":"function"},{"inputs":[{"internalType":"uint256","name":"","type":"uint256"}],"name":"transactions","outputs":[{"internalType":"uint256","name":"value","type":"uint256"},{"internalType":"uint256","name":"time","type":"uint256"},{"internalType":"address","name":"bidderAddress","type":"address"}],"stateMutability":"view","type":"function"},{"inputs":[],"name":"withdrawRefund","outputs":[],"stateMutability":"nonpayable","type":"function"}],"devdoc":{"kind":"dev","methods":{},"version":1},"evm":{"assembly":"    /* \"Campaign.sol\":58:9308  contract Campaign {... */\n  mstore(0x40, 0x80)\n    /* \"Campaign.sol\":1709:2143  constructor(... */\n  callvalue\n  dup1\n  iszero\n  tag_1\n  jumpi\n  revert(0x00, 0x00)\ntag_1:\n  pop\n  mload(0x40)\n  sub(codesize, bytecodeSize)\n  dup1\n  bytecodeSize\n  dup4\n  codecopy\n  dup2\n  dup2\n  add\n  0x40\n  mstore\n  dup2\n  add\n  swap1\n  tag_2\n  swap2\n  swap1\n  tag_3\n  jump\t// in\ntag_2:\n    /* \"Campaign.sol\":1919:1926  creator */\n  dup3\n    /* \"Campaign.sol\":1909:1916  manager */\n  0x01\n  0x00\n    /* \"Campaign.sol\":1909:1926  manager = creator */\n  0x0100\n  exp\n  dup2\n  sload\n  dup2\n  0xffffffffffffffffffffffffffffffffffffffff\n  mul\n  not\n  and\n  swap1\n  dup4\n  0xffffffffffffffffffffffffffffffffffffffff\n  and\n  mul\n  or\n  swap1\n  sstore\n  pop\n    /* \"Campaign.sol\":1958:1965  minimum */\n  dup6\n    /* \"Campaign.sol\":1936:1955  minimumContribution */\n  0x02\n    /* \"Campaign.sol\":1936:1965  minimumContribution = minimum */\n  dup2\n  swap1\n  sstore\n  pop\n    /* \"Campaign.sol\":1989:1997  dataSell */\n  dup5\n    /* \"Campaign.sol\":1975:1986  dataForSell */\n  0x03\n    /* \"Campaign.sol\":1975:1997  dataForSell = dataSell */\n  swap1\n  dup2\n  tag_6\n  swap2\n  swap1\n  tag_7\n  jump\t// in\ntag_6:\n  pop\n    /* \"Campaign.sol\":2025:2033  dataDesc */\n  dup4\n    /* \"Campaign.sol\":2007:2022  dataDescription */\n  0x04\n    /* \"Campaign.sol\":2007:2033  dataDescription = dataDesc */\n  swap1\n  dup2\n  tag_8\n  swap2\n  swap1\n  tag_7\n  jump\t// in\ntag_8:\n  pop\n    /* \"Campaign.sol\":2053:2061  duration */\n  dup2\n    /* \"Campaign.sol\":2043:2050  endTime */\n  0x0d\n    /* \"Campaign.sol\":2043:2061  endTime = duration */\n  dup2\n  swap1\n  sstore\n  pop\n    /* \"Campaign.sol\":2080:2085  false */\n  0x00\n    /* \"Campaign.sol\":2071:2077  closed */\n  0x0e\n  0x00\n    /* \"Campaign.sol\":2071:2085  closed = false */\n  0x0100\n  exp\n  dup2\n  sload\n  dup2\n  0xff\n  mul\n  not\n  and\n  swap1\n  dup4\n  iszero\n  iszero\n  mul\n  or\n  swap1\n  sstore\n  pop\n    /* \"Campaign.sol\":2121:2135  factoryAddress */\n  dup1\n    /* \"Campaign.sol\":2095:2102  factory */\n  0x00\n  0x00\n    /* \"Campaign.sol\":2095:2136  factory = CampaignFactory(factoryAddress) */\n  0x0100\n  exp\n  dup2\n  sload\n  dup2\n  0xffffffffffffffffffffffffffffffffffffffff\n  mul\n  not\n  and\n  swap1\n  dup4\n  0xffffffffffffffffffffffffffffffffffffffff\n  and\n  mul\n  or\n  swap1\n  sstore\n  pop\n    /* \"Campaign.sol\":1709:2143  constructor(... */\n  pop\n  pop\n  pop\n  pop\n  pop\n  pop\n    /* \"Campaign.sol\":58:9308  contract Campaign {... */\n  jump(tag_9)\n    /* \"#utility.yul\":7:82   */\ntag_10:\n    /* \"#utility.yul\":40:46   */\n  0x00\n    /* \"#utility.yul\":73:75   */\n  0x40\n    /* \"#utility.yul\":67:76   */\n  mload\n    /* \"#utility.yul\":57:76   */\n  swap1\n  pop\n    /* \"#utility.yul\":7:82   */\n  swap1\n  jump\t// out\n    /* \"#utility.yul\":88:205   */\ntag_11:\n    /* \"#utility.yul\":197:198   */\n  0x00\n    /* \"#utility.yul\":194:195   */\n  0x00\n    /* \"#utility.yul\":187:199   */\n  revert\n    /* \"#utility.yul\":211:328   */\ntag_12:\n    /* \"#utility.yul\":320:321   */\n  0x00\n    /* \"#utility.yul\":317:318   */\n  0x00\n    /* \"#utility.yul\":310:322   */\n  revert\n    /* \"#utility.yul\":334:411   */\ntag_13:\n    /* \"#utility.yul\":371:378   */\n  0x00\n    /* \"#utility.yul\":400:405   */\n  dup2\n    /* \"#utility.yul\":389:405   */\n  swap1\n  pop\n    /* \"#utility.yul\":334:411   */\n  swap2\n  swap1\n  pop\n  jump\t// out\n    /* \"#utility.yul\":417:539   */\ntag_14:\n    /* \"#utility.yul\":490:514   */\n  tag_54\n    /* \"#utility.yul\":508:513   */\n  dup2\n    /* \"#utility.yul\":490:514   */\n  tag_13\n  jump\t// in\ntag_54:\n    /* \"#utility.yul\":483:488   */\n  dup2\n    /* \"#utility.yul\":480:515   */\n  eq\n    /* \"#utility.yul\":470:533   */\n  tag_55\n  jumpi\n    /* \"#utility.yul\":529:530   */\n  0x00\n    /* \"#utility.yul\":526:527   */\n  0x00\n    /* \"#utility.yul\":519:531   */\n  revert\n    /* \"#utility.yul\":470:533   */\ntag_55:\n    /* \"#utility.yul\":417:539   */\n  pop\n  jump\t// out\n    /* \"#utility.yul\":545:688   */\ntag_15:\n    /* \"#utility.yul\":602:607   */\n  0x00\n    /* \"#utility.yul\":633:639   */\n  dup2\n    /* \"#utility.yul\":627:640   */\n  mload\n    /* \"#utility.yul\":618:640   */\n  swap1\n  pop\n    /* \"#utility.yul\":649:682   */\n  tag_57\n    /* \"#utility.yul\":676:681   */\n  dup2\n    /* \"#utility.yul\":649:682   */\n  tag_14\n  jump\t// in\ntag_57:\n    /* \"#utility.yul\":545:688   */\n  swap3\n  swap2\n  pop\n  pop\n  jump\t// out\n    /* \"#utility.yul\":694:811   */\ntag_16:\n    /* \"#utility.yul\":803:804   */\n  0x00\n    /* \"#utility.yul\":800:801   */\n  0x00\n    /* \"#utility.yul\":793:805   */\n  revert\n    /* \"#utility.yul\":817:934   */\ntag_17:\n    /* \"#utility.yul\":926:927   */\n  0x00\n    /* \"#utility.yul\":923:924   */\n  0x00\n    /* \"#utility.yul\":916:928   */\n  revert\n    /* \"#utility.yul\":940:1042   */\ntag_18:\n    /* \"#utility.yul\":981:987   */\n  0x00\n    /* \"#utility.yul\":1032:1034   */\n  0x1f\n    /* \"#utility.yul\":1028:1035   */\n  not\n    /* \"#utility.yul\":1023:1025   */\n  0x1f\n    /* \"#utility.yul\":1016:1021   */\n  dup4\n    /* \"#utility.yul\":1012:1026   */\n  add\n    /* \"#utility.yul\":1008:1036   */\n  and\n    /* \"#utility.yul\":998:1036   */\n  swap1\n  pop\n    /* \"#utility.yul\":940:1042   */\n  swap2\n  swap1\n  pop\n  jump\t// out\n    /* \"#utility.yul\":1048:1228   */\ntag_19:\n    /* \"#utility.yul\":1096:1173   */\n  0x4e487b7100000000000000000000000000000000000000000000000000000000\n    /* \"#utility.yul\":1093:1094   */\n  0x00\n    /* \"#utility.yul\":1086:1174   */\n  mstore\n    /* \"#utility.yul\":1193:1197   */\n  0x41\n    /* \"#utility.yul\":1190:1191   */\n  0x04\n    /* \"#utility.yul\":1183:1198   */\n  mstore\n    /* \"#utility.yul\":1217:1221   */\n  0x24\n    /* \"#utility.yul\":1214:1215   */\n  0x00\n    /* \"#utility.yul\":1207:1222   */\n  revert\n    /* \"#utility.yul\":1234:1515   */\ntag_20:\n    /* \"#utility.yul\":1317:1344   */\n  tag_63\n    /* \"#utility.yul\":1339:1343   */\n  dup3\n    /* \"#utility.yul\":1317:1344   */\n  tag_18\n  jump\t// in\ntag_63:\n    /* \"#utility.yul\":1309:1315   */\n  dup2\n    /* \"#utility.yul\":1305:1345   */\n  add\n    /* \"#utility.yul\":1447:1453   */\n  dup2\n    /* \"#utility.yul\":1435:1445   */\n  dup2\n    /* \"#utility.yul\":1432:1454   */\n  lt\n    /* \"#utility.yul\":1411:1429   */\n  0xffffffffffffffff\n    /* \"#utility.yul\":1399:1409   */\n  dup3\n    /* \"#utility.yul\":1396:1430   */\n  gt\n    /* \"#utility.yul\":1393:1455   */\n  or\n    /* \"#utility.yul\":1390:1478   */\n  iszero\n  tag_64\n  jumpi\n    /* \"#utility.yul\":1458:1476   */\n  tag_65\n  tag_19\n  jump\t// in\ntag_65:\n    /* \"#utility.yul\":1390:1478   */\ntag_64:\n    /* \"#utility.yul\":1498:1508   */\n  dup1\n    /* \"#utility.yul\":1494:1496   */\n  0x40\n    /* \"#utility.yul\":1487:1509   */\n  mstore\n    /* \"#utility.yul\":1277:1515   */\n  pop\n    /* \"#utility.yul\":1234:1515   */\n  pop\n  pop\n  jump\t// out\n    /* \"#utility.yul\":1521:1650   */\ntag_21:\n    /* \"#utility.yul\":1555:1561   */\n  0x00\n    /* \"#utility.yul\":1582:1602   */\n  tag_67\n  tag_10\n  jump\t// in\ntag_67:\n    /* \"#utility.yul\":1572:1602   */\n  swap1\n  pop\n    /* \"#utility.yul\":1611:1644   */\n  tag_68\n    /* \"#utility.yul\":1639:1643   */\n  dup3\n    /* \"#utility.yul\":1631:1637   */\n  dup3\n    /* \"#utility.yul\":1611:1644   */\n  tag_20\n  jump\t// in\ntag_68:\n    /* \"#utility.yul\":1521:1650   */\n  swap2\n  swap1\n  pop\n  jump\t// out\n    /* \"#utility.yul\":1656:1964   */\ntag_22:\n    /* \"#utility.yul\":1718:1722   */\n  0x00\n    /* \"#utility.yul\":1808:1826   */\n  0xffffffffffffffff\n    /* \"#utility.yul\":1800:1806   */\n  dup3\n    /* \"#utility.yul\":1797:1827   */\n  gt\n    /* \"#utility.yul\":1794:1850   */\n  iszero\n  tag_70\n  jumpi\n    /* \"#utility.yul\":1830:1848   */\n  tag_71\n  tag_19\n  jump\t// in\ntag_71:\n    /* \"#utility.yul\":1794:1850   */\ntag_70:\n    /* \"#utility.yul\":1868:1897   */\n  tag_72\n    /* \"#utility.yul\":1890:1896   */\n  dup3\n    /* \"#utility.yul\":1868:1897   */\n  tag_18\n  jump\t// in\ntag_72:\n    /* \"#utility.yul\":1860:1897   */\n  swap1\n  pop\n    /* \"#utility.yul\":1952:1956   */\n  0x20\n    /* \"#utility.yul\":1946:1950   */\n  dup2\n    /* \"#utility.yul\":1942:1957   */\n  add\n    /* \"#utility.yul\":1934:1957   */\n  swap1\n  pop\n    /* \"#utility.yul\":1656:1964   */\n  swap2\n  swap1\n  pop\n  jump\t// out\n    /* \"#utility.yul\":1970:2109   */\ntag_23:\n    /* \"#utility.yul\":2059:2065   */\n  dup3\n    /* \"#utility.yul\":2054:2057   */\n  dup2\n    /* \"#utility.yul\":2049:2052   */\n  dup4\n    /* \"#utility.yul\":2043:2066   */\n  mcopy\n    /* \"#utility.yul\":2100:2101   */\n  0x00\n    /* \"#utility.yul\":2091:2097   */\n  dup4\n    /* \"#utility.yul\":2086:2089   */\n  dup4\n    /* \"#utility.yul\":2082:2098   */\n  add\n    /* \"#utility.yul\":2075:2102   */\n  mstore\n    /* \"#utility.yul\":1970:2109   */\n  pop\n  pop\n  pop\n  jump\t// out\n    /* \"#utility.yul\":2115:2549   */\ntag_24:\n    /* \"#utility.yul\":2204:2209   */\n  0x00\n    /* \"#utility.yul\":2229:2295   */\n  tag_75\n    /* \"#utility.yul\":2245:2294   */\n  tag_76\n    /* \"#utility.yul\":2287:2293   */\n  dup5\n    /* \"#utility.yul\":2245:2294   */\n  tag_22\n  jump\t// in\ntag_76:\n    /* \"#utility.yul\":2229:2295   */\n  tag_21\n  jump\t// in\ntag_75:\n    /* \"#utility.yul\":2220:2295   */\n  swap1\n  pop\n    /* \"#utility.yul\":2318:2324   */\n  dup3\n    /* \"#utility.yul\":2311:2316   */\n  dup2\n    /* \"#utility.yul\":2304:2325   */\n  mstore\n    /* \"#utility.yul\":2356:2360   */\n  0x20\n    /* \"#utility.yul\":2349:2354   */\n  dup2\n    /* \"#utility.yul\":2345:2361   */\n  add\n    /* \"#utility.yul\":2394:2397   */\n  dup5\n    /* \"#utility.yul\":2385:2391   */\n  dup5\n    /* \"#utility.yul\":2380:2383   */\n  dup5\n    /* \"#utility.yul\":2376:2392   */\n  add\n    /* \"#utility.yul\":2373:2398   */\n  gt\n    /* \"#utility.yul\":2370:2482   */\n  iszero\n  tag_77\n  jumpi\n    /* \"#utility.yul\":2401:2480   */\n  tag_78\n  tag_17\n  jump\t// in\ntag_78:\n    /* \"#utility.yul\":2370:2482   */\ntag_77:\n    /* \"#utility.yul\":2491:2543   */\n  tag_79\n    /* \"#utility.yul\":2536:2542   */\n  dup5\n    /* \"#utility.yul\":2531:2534   */\n  dup3\n    /* \"#utility.yul\":2526:2529   */\n  dup6\n    /* \"#utility.yul\":2491:2543   */\n  tag_23\n  jump\t// in\ntag_79:\n    /* \"#utility.yul\":2210:2549   */\n  pop\n    /* \"#utility.yul\":2115:2549   */\n  swap4\n  swap3\n  pop\n  pop\n  pop\n  jump\t// out\n    /* \"#utility.yul\":2569:2924   */\ntag_25:\n    /* \"#utility.yul\":2636:2641   */\n  0x00\n    /* \"#utility.yul\":2685:2688   */\n  dup3\n    /* \"#utility.yul\":2678:2682   */\n  0x1f\n    /* \"#utility.yul\":2670:2676   */\n  dup4\n    /* \"#utility.yul\":2666:2683   */\n  add\n    /* \"#utility.yul\":2662:2689   */\n  slt\n    /* \"#utility.yul\":2652:2774   */\n  tag_81\n  jumpi\n    /* \"#utility.yul\":2693:2772   */\n  tag_82\n  tag_16\n  jump\t// in\ntag_82:\n    /* \"#utility.yul\":2652:2774   */\ntag_81:\n    /* \"#utility.yul\":2803:2809   */\n  dup2\n    /* \"#utility.yul\":2797:2810   */\n  mload\n    /* \"#utility.yul\":2828:2918   */\n  tag_83\n    /* \"#utility.yul\":2914:2917   */\n  dup5\n    /* \"#utility.yul\":2906:2912   */\n  dup3\n    /* \"#utility.yul\":2899:2903   */\n  0x20\n    /* \"#utility.yul\":2891:2897   */\n  dup7\n    /* \"#utility.yul\":2887:2904   */\n  add\n    /* \"#utility.yul\":2828:2918   */\n  tag_24\n  jump\t// in\ntag_83:\n    /* \"#utility.yul\":2819:2918   */\n  swap2\n  pop\n    /* \"#utility.yul\":2642:2924   */\n  pop\n    /* \"#utility.yul\":2569:2924   */\n  swap3\n  swap2\n  pop\n  pop\n  jump\t// out\n    /* \"#utility.yul\":2930:3056   */\ntag_26:\n    /* \"#utility.yul\":2967:2974   */\n  0x00\n    /* \"#utility.yul\":3007:3049   */\n  0xffffffffffffffffffffffffffffffffffffffff\n    /* \"#utility.yul\":3000:3005   */\n  dup3\n    /* \"#utility.yul\":2996:3050   */\n  and\n    /* \"#utility.yul\":2985:3050   */\n  swap1\n  pop\n    /* \"#utility.yul\":2930:3056   */\n  swap2\n  swap1\n  pop\n  jump\t// out\n    /* \"#utility.yul\":3062:3158   */\ntag_27:\n    /* \"#utility.yul\":3099:3106   */\n  0x00\n    /* \"#utility.yul\":3128:3152   */\n  tag_86\n    /* \"#utility.yul\":3146:3151   */\n  dup3\n    /* \"#utility.yul\":3128:3152   */\n  tag_26\n  jump\t// in\ntag_86:\n    /* \"#utility.yul\":3117:3152   */\n  swap1\n  pop\n    /* \"#utility.yul\":3062:3158   */\n  swap2\n  swap1\n  pop\n  jump\t// out\n    /* \"#utility.yul\":3164:3286   */\ntag_28:\n    /* \"#utility.yul\":3237:3261   */\n  tag_88\n    /* \"#utility.yul\":3255:3260   */\n  dup2\n    /* \"#utility.yul\":3237:3261   */\n  tag_27\n  jump\t// in\ntag_88:\n    /* \"#utility.yul\":3230:3235   */\n  dup2\n    /* \"#utility.yul\":3227:3262   */\n  eq\n    /* \"#utility.yul\":3217:3280   */\n  tag_89\n  jumpi\n    /* \"#utility.yul\":3276:3277   */\n  0x00\n    /* \"#utility.yul\":3273:3274   */\n  0x00\n    /* \"#utility.yul\":3266:3278   */\n  revert\n    /* \"#utility.yul\":3217:3280   */\ntag_89:\n    /* \"#utility.yul\":3164:3286   */\n  pop\n  jump\t// out\n    /* \"#utility.yul\":3292:3435   */\ntag_29:\n    /* \"#utility.yul\":3349:3354   */\n  0x00\n    /* \"#utility.yul\":3380:3386   */\n  dup2\n    /* \"#utility.yul\":3374:3387   */\n  mload\n    /* \"#utility.yul\":3365:3387   */\n  swap1\n  pop\n    /* \"#utility.yul\":3396:3429   */\n  tag_91\n    /* \"#utility.yul\":3423:3428   */\n  dup2\n    /* \"#utility.yul\":3396:3429   */\n  tag_28\n  jump\t// in\ntag_91:\n    /* \"#utility.yul\":3292:3435   */\n  swap3\n  swap2\n  pop\n  pop\n  jump\t// out\n    /* \"#utility.yul\":3441:4921   */\ntag_3:\n    /* \"#utility.yul\":3576:3582   */\n  0x00\n    /* \"#utility.yul\":3584:3590   */\n  0x00\n    /* \"#utility.yul\":3592:3598   */\n  0x00\n    /* \"#utility.yul\":3600:3606   */\n  0x00\n    /* \"#utility.yul\":3608:3614   */\n  0x00\n    /* \"#utility.yul\":3616:3622   */\n  0x00\n    /* \"#utility.yul\":3665:3668   */\n  0xc0\n    /* \"#utility.yul\":3653:3662   */\n  dup8\n    /* \"#utility.yul\":3644:3651   */\n  dup10\n    /* \"#utility.yul\":3640:3663   */\n  sub\n    /* \"#utility.yul\":3636:3669   */\n  slt\n    /* \"#utility.yul\":3633:3753   */\n  iszero\n  tag_93\n  jumpi\n    /* \"#utility.yul\":3672:3751   */\n  tag_94\n  tag_11\n  jump\t// in\ntag_94:\n    /* \"#utility.yul\":3633:3753   */\ntag_93:\n    /* \"#utility.yul\":3792:3793   */\n  0x00\n    /* \"#utility.yul\":3817:3881   */\n  tag_95\n    /* \"#utility.yul\":3873:3880   */\n  dup10\n    /* \"#utility.yul\":3864:3870   */\n  dup3\n    /* \"#utility.yul\":3853:3862   */\n  dup11\n    /* \"#utility.yul\":3849:3871   */\n  add\n    /* \"#utility.yul\":3817:3881   */\n  tag_15\n  jump\t// in\ntag_95:\n    /* \"#utility.yul\":3807:3881   */\n  swap7\n  pop\n    /* \"#utility.yul\":3763:3891   */\n  pop\n    /* \"#utility.yul\":3951:3953   */\n  0x20\n    /* \"#utility.yul\":3940:3949   */\n  dup8\n    /* \"#utility.yul\":3936:3954   */\n  add\n    /* \"#utility.yul\":3930:3955   */\n  mload\n    /* \"#utility.yul\":3982:4000   */\n  0xffffffffffffffff\n    /* \"#utility.yul\":3974:3980   */\n  dup2\n    /* \"#utility.yul\":3971:4001   */\n  gt\n    /* \"#utility.yul\":3968:4085   */\n  iszero\n  tag_96\n  jumpi\n    /* \"#utility.yul\":4004:4083   */\n  tag_97\n  tag_12\n  jump\t// in\ntag_97:\n    /* \"#utility.yul\":3968:4085   */\ntag_96:\n    /* \"#utility.yul\":4109:4183   */\n  tag_98\n    /* \"#utility.yul\":4175:4182   */\n  dup10\n    /* \"#utility.yul\":4166:4172   */\n  dup3\n    /* \"#utility.yul\":4155:4164   */\n  dup11\n    /* \"#utility.yul\":4151:4173   */\n  add\n    /* \"#utility.yul\":4109:4183   */\n  tag_25\n  jump\t// in\ntag_98:\n    /* \"#utility.yul\":4099:4183   */\n  swap6\n  pop\n    /* \"#utility.yul\":3901:4193   */\n  pop\n    /* \"#utility.yul\":4253:4255   */\n  0x40\n    /* \"#utility.yul\":4242:4251   */\n  dup8\n    /* \"#utility.yul\":4238:4256   */\n  add\n    /* \"#utility.yul\":4232:4257   */\n  mload\n    /* \"#utility.yul\":4284:4302   */\n  0xffffffffffffffff\n    /* \"#utility.yul\":4276:4282   */\n  dup2\n    /* \"#utility.yul\":4273:4303   */\n  gt\n    /* \"#utility.yul\":4270:4387   */\n  iszero\n  tag_99\n  jumpi\n    /* \"#utility.yul\":4306:4385   */\n  tag_100\n  tag_12\n  jump\t// in\ntag_100:\n    /* \"#utility.yul\":4270:4387   */\ntag_99:\n    /* \"#utility.yul\":4411:4485   */\n  tag_101\n    /* \"#utility.yul\":4477:4484   */\n  dup10\n    /* \"#utility.yul\":4468:4474   */\n  dup3\n    /* \"#utility.yul\":4457:4466   */\n  dup11\n    /* \"#utility.yul\":4453:4475   */\n  add\n    /* \"#utility.yul\":4411:4485   */\n  tag_25\n  jump\t// in\ntag_101:\n    /* \"#utility.yul\":4401:4485   */\n  swap5\n  pop\n    /* \"#utility.yul\":4203:4495   */\n  pop\n    /* \"#utility.yul\":4534:4536   */\n  0x60\n    /* \"#utility.yul\":4560:4624   */\n  tag_102\n    /* \"#utility.yul\":4616:4623   */\n  dup10\n    /* \"#utility.yul\":4607:4613   */\n  dup3\n    /* \"#utility.yul\":4596:4605   */\n  dup11\n    /* \"#utility.yul\":4592:4614   */\n  add\n    /* \"#utility.yul\":4560:4624   */\n  tag_29\n  jump\t// in\ntag_102:\n    /* \"#utility.yul\":4550:4624   */\n  swap4\n  pop\n    /* \"#utility.yul\":4505:4634   */\n  pop\n    /* \"#utility.yul\":4673:4676   */\n  0x80\n    /* \"#utility.yul\":4700:4764   */\n  tag_103\n    /* \"#utility.yul\":4756:4763   */\n  dup10\n    /* \"#utility.yul\":4747:4753   */\n  dup3\n    /* \"#utility.yul\":4736:4745   */\n  dup11\n    /* \"#utility.yul\":4732:4754   */\n  add\n    /* \"#utility.yul\":4700:4764   */\n  tag_15\n  jump\t// in\ntag_103:\n    /* \"#utility.yul\":4690:4764   */\n  swap3\n  pop\n    /* \"#utility.yul\":4644:4774   */\n  pop\n    /* \"#utility.yul\":4813:4816   */\n  0xa0\n    /* \"#utility.yul\":4840:4904   */\n  tag_104\n    /* \"#utility.yul\":4896:4903   */\n  dup10\n    /* \"#utility.yul\":4887:4893   */\n  dup3\n    /* \"#utility.yul\":4876:4885   */\n  dup11\n    /* \"#utility.yul\":4872:4894   */\n  add\n    /* \"#utility.yul\":4840:4904   */\n  tag_29\n  jump\t// in\ntag_104:\n    /* \"#utility.yul\":4830:4904   */\n  swap2\n  pop\n    /* \"#utility.yul\":4784:4914   */\n  pop\n    /* \"#utility.yul\":3441:4921   */\n  swap3\n  swap6\n  pop\n  swap3\n  swap6\n  pop\n  swap3\n  swap6\n  jump\t// out\n    /* \"#utility.yul\":4927:5026   */\ntag_30:\n    /* \"#utility.yul\":4979:4985   */\n  0x00\n    /* \"#utility.yul\":5013:5018   */\n  dup2\n    /* \"#utility.yul\":5007:5019   */\n  mload\n    /* \"#utility.yul\":4997:5019   */\n  swap1\n  pop\n    /* \"#utility.yul\":4927:5026   */\n  swap2\n  swap1\n  pop\n  jump\t// out\n    /* \"#utility.yul\":5032:5212   */\ntag_31:\n    /* \"#utility.yul\":5080:5157   */\n  0x4e487b7100000000000000000000000000000000000000000000000000000000\n    /* \"#utility.yul\":5077:5078   */\n  0x00\n    /* \"#utility.yul\":5070:5158   */\n  mstore\n    /* \"#utility.yul\":5177:5181   */\n  0x22\n    /* \"#utility.yul\":5174:5175   */\n  0x04\n    /* \"#utility.yul\":5167:5182   */\n  mstore\n    /* \"#utility.yul\":5201:5205   */\n  0x24\n    /* \"#utility.yul\":5198:5199   */\n  0x00\n    /* \"#utility.yul\":5191:5206   */\n  revert\n    /* \"#utility.yul\":5218:5538   */\ntag_32:\n    /* \"#utility.yul\":5262:5268   */\n  0x00\n    /* \"#utility.yul\":5299:5300   */\n  0x02\n    /* \"#utility.yul\":5293:5297   */\n  dup3\n    /* \"#utility.yul\":5289:5301   */\n  div\n    /* \"#utility.yul\":5279:5301   */\n  swap1\n  pop\n    /* \"#utility.yul\":5346:5347   */\n  0x01\n    /* \"#utility.yul\":5340:5344   */\n  dup3\n    /* \"#utility.yul\":5336:5348   */\n  and\n    /* \"#utility.yul\":5367:5385   */\n  dup1\n    /* \"#utility.yul\":5357:5438   */\n  tag_108\n  jumpi\n    /* \"#utility.yul\":5423:5427   */\n  0x7f\n    /* \"#utility.yul\":5415:5421   */\n  dup3\n    /* \"#utility.yul\":5411:5428   */\n  and\n    /* \"#utility.yul\":5401:5428   */\n  swap2\n  pop\n    /* \"#utility.yul\":5357:5438   */\ntag_108:\n    /* \"#utility.yul\":5485:5487   */\n  0x20\n    /* \"#utility.yul\":5477:5483   */\n  dup3\n    /* \"#utility.yul\":5474:5488   */\n  lt\n    /* \"#utility.yul\":5454:5472   */\n  dup2\n    /* \"#utility.yul\":5451:5489   */\n  sub\n    /* \"#utility.yul\":5448:5532   */\n  tag_109\n  jumpi\n    /* \"#utility.yul\":5504:5522   */\n  tag_110\n  tag_31\n  jump\t// in\ntag_110:\n    /* \"#utility.yul\":5448:5532   */\ntag_109:\n    /* \"#utility.yul\":5269:5538   */\n  pop\n    /* \"#utility.yul\":5218:5538   */\n  swap2\n  swap1\n  pop\n  jump\t// out\n    /* \"#utility.yul\":5544:5685   */\ntag_33:\n    /* \"#utility.yul\":5593:5597   */\n  0x00\n    /* \"#utility.yul\":5616:5619   */\n  dup2\n    /* \"#utility.yul\":5608:5619   */\n  swap1\n  pop\n    /* \"#utility.yul\":5639:5642   */\n  dup2\n    /* \"#utility.yul\":5636:5637   */\n  0x00\n    /* \"#utility.yul\":5629:5643   */\n  mstore\n    /* \"#utility.yul\":5673:5677   */\n  0x20\n    /* \"#utility.yul\":5670:5671   */\n  0x00\n    /* \"#utility.yul\":5660:5678   */\n  keccak256\n    /* \"#utility.yul\":5652:5678   */\n  swap1\n  pop\n    /* \"#utility.yul\":5544:5685   */\n  swap2\n  swap1\n  pop\n  jump\t// out\n    /* \"#utility.yul\":5691:5784   */\ntag_34:\n    /* \"#utility.yul\":5728:5734   */\n  0x00\n    /* \"#utility.yul\":5775:5777   */\n  0x20\n    /* \"#utility.yul\":5770:5772   */\n  0x1f\n    /* \"#utility.yul\":5763:5768   */\n  dup4\n    /* \"#utility.yul\":5759:5773   */\n  add\n    /* \"#utility.yul\":5755:5778   */\n  div\n    /* \"#utility.yul\":5745:5778   */\n  swap1\n  pop\n    /* \"#utility.yul\":5691:5784   */\n  swap2\n  swap1\n  pop\n  jump\t// out\n    /* \"#utility.yul\":5790:5897   */\ntag_35:\n    /* \"#utility.yul\":5834:5842   */\n  0x00\n    /* \"#utility.yul\":5884:5889   */\n  dup3\n    /* \"#utility.yul\":5878:5882   */\n  dup3\n    /* \"#utility.yul\":5874:5890   */\n  shl\n    /* \"#utility.yul\":5853:5890   */\n  swap1\n  pop\n    /* \"#utility.yul\":5790:5897   */\n  swap3\n  swap2\n  pop\n  pop\n  jump\t// out\n    /* \"#utility.yul\":5903:6296   */\ntag_36:\n    /* \"#utility.yul\":5972:5978   */\n  0x00\n    /* \"#utility.yul\":6022:6023   */\n  0x08\n    /* \"#utility.yul\":6010:6020   */\n  dup4\n    /* \"#utility.yul\":6006:6024   */\n  mul\n    /* \"#utility.yul\":6045:6142   */\n  tag_115\n    /* \"#utility.yul\":6075:6141   */\n  0xffffffffffffffffffffffffffffffffffffffffffffffffffffffffffffffff\n    /* \"#utility.yul\":6064:6073   */\n  dup3\n    /* \"#utility.yul\":6045:6142   */\n  tag_35\n  jump\t// in\ntag_115:\n    /* \"#utility.yul\":6163:6202   */\n  tag_116\n    /* \"#utility.yul\":6193:6201   */\n  dup7\n    /* \"#utility.yul\":6182:6191   */\n  dup4\n    /* \"#utility.yul\":6163:6202   */\n  tag_35\n  jump\t// in\ntag_116:\n    /* \"#utility.yul\":6151:6202   */\n  swap6\n  pop\n    /* \"#utility.yul\":6235:6239   */\n  dup1\n    /* \"#utility.yul\":6231:6240   */\n  not\n    /* \"#utility.yul\":6224:6229   */\n  dup5\n    /* \"#utility.yul\":6220:6241   */\n  and\n    /* \"#utility.yul\":6211:6241   */\n  swap4\n  pop\n    /* \"#utility.yul\":6284:6288   */\n  dup1\n    /* \"#utility.yul\":6274:6282   */\n  dup7\n    /* \"#utility.yul\":6270:6289   */\n  and\n    /* \"#utility.yul\":6263:6268   */\n  dup5\n    /* \"#utility.yul\":6260:6290   */\n  or\n    /* \"#utility.yul\":6250:6290   */\n  swap3\n  pop\n    /* \"#utility.yul\":5979:6296   */\n  pop\n  pop\n    /* \"#utility.yul\":5903:6296   */\n  swap4\n  swap3\n  pop\n  pop\n  pop\n  jump\t// out\n    /* \"#utility.yul\":6302:6362   */\ntag_37:\n    /* \"#utility.yul\":6330:6333   */\n  0x00\n    /* \"#utility.yul\":6351:6356   */\n  dup2\n    /* \"#utility.yul\":6344:6356   */\n  swap1\n  pop\n    /* \"#utility.yul\":6302:6362   */\n  swap2\n  swap1\n  pop\n  jump\t// out\n    /* \"#utility.yul\":6368:6510   */\ntag_38:\n    /* \"#utility.yul\":6418:6427   */\n  0x00\n    /* \"#utility.yul\":6451:6504   */\n  tag_119\n    /* \"#utility.yul\":6469:6503   */\n  tag_120\n    /* \"#utility.yul\":6478:6502   */\n  tag_121\n    /* \"#utility.yul\":6496:6501   */\n  dup5\n    /* \"#utility.yul\":6478:6502   */\n  tag_13\n  jump\t// in\ntag_121:\n    /* \"#utility.yul\":6469:6503   */\n  tag_37\n  jump\t// in\ntag_120:\n    /* \"#utility.yul\":6451:6504   */\n  tag_13\n  jump\t// in\ntag_119:\n    /* \"#utility.yul\":6438:6504   */\n  swap1\n  pop\n    /* \"#utility.yul\":6368:6510   */\n  swap2\n  swap1\n  pop\n  jump\t// out\n    /* \"#utility.yul\":6516:6591   */\ntag_39:\n    /* \"#utility.yul\":6559:6562   */\n  0x00\n    /* \"#utility.yul\":6580:6585   */\n  dup2\n    /* \"#utility.yul\":6573:6585   */\n  swap1\n  pop\n    /* \"#utility.yul\":6516:6591   */\n  swap2\n  swap1\n  pop\n  jump\t// out\n    /* \"#utility.yul\":6597:6866   */\ntag_40:\n    /* \"#utility.yul\":6707:6746   */\n  tag_124\n    /* \"#utility.yul\":6738:6745   */\n  dup4\n    /* \"#utility.yul\":6707:6746   */\n  tag_38\n  jump\t// in\ntag_124:\n    /* \"#utility.yul\":6768:6859   */\n  tag_125\n    /* \"#utility.yul\":6817:6858   */\n  tag_126\n    /* \"#utility.yul\":6841:6857   */\n  dup3\n    /* \"#utility.yul\":6817:6858   */\n  tag_39\n  jump\t// in\ntag_126:\n    /* \"#utility.yul\":6809:6815   */\n  dup5\n    /* \"#utility.yul\":6802:6806   */\n  dup5\n    /* \"#utility.yul\":6796:6807   */\n  sload\n    /* \"#utility.yul\":6768:6859   */\n  tag_36\n  jump\t// in\ntag_125:\n    /* \"#utility.yul\":6762:6766   */\n  dup3\n    /* \"#utility.yul\":6755:6860   */\n  sstore\n    /* \"#utility.yul\":6673:6866   */\n  pop\n    /* \"#utility.yul\":6597:6866   */\n  pop\n  pop\n  pop\n  jump\t// out\n    /* \"#utility.yul\":6872:6945   */\ntag_41:\n    /* \"#utility.yul\":6917:6920   */\n  0x00\n    /* \"#utility.yul\":6938:6939   */\n  0x00\n    /* \"#utility.yul\":6931:6939   */\n  swap1\n  pop\n    /* \"#utility.yul\":6872:6945   */\n  swap1\n  jump\t// out\n    /* \"#utility.yul\":6951:7140   */\ntag_42:\n    /* \"#utility.yul\":7028:7060   */\n  tag_129\n  tag_41\n  jump\t// in\ntag_129:\n    /* \"#utility.yul\":7069:7134   */\n  tag_130\n    /* \"#utility.yul\":7127:7133   */\n  dup2\n    /* \"#utility.yul\":7119:7125   */\n  dup5\n    /* \"#utility.yul\":7113:7117   */\n  dup5\n    /* \"#utility.yul\":7069:7134   */\n  tag_40\n  jump\t// in\ntag_130:\n    /* \"#utility.yul\":7004:7140   */\n  pop\n    /* \"#utility.yul\":6951:7140   */\n  pop\n  pop\n  jump\t// out\n    /* \"#utility.yul\":7146:7360   */\ntag_43:\n    /* \"#utility.yul\":7231:7232   */\n  0x00\n    /* \"#utility.yul\":7216:7354   */\ntag_132:\n    /* \"#utility.yul\":7241:7250   */\n  dup3\n    /* \"#utility.yul\":7238:7239   */\n  dup2\n    /* \"#utility.yul\":7235:7251   */\n  lt\n    /* \"#utility.yul\":7216:7354   */\n  iszero\n  tag_134\n  jumpi\n    /* \"#utility.yul\":7293:7344   */\n  tag_135\n    /* \"#utility.yul\":7342:7343   */\n  0x00\n    /* \"#utility.yul\":7338:7339   */\n  dup3\n    /* \"#utility.yul\":7327:7336   */\n  dup5\n    /* \"#utility.yul\":7323:7340   */\n  add\n    /* \"#utility.yul\":7293:7344   */\n  tag_42\n  jump\t// in\ntag_135:\n    /* \"#utility.yul\":7266:7267   */\n  0x01\n    /* \"#utility.yul\":7263:7264   */\n  dup2\n    /* \"#utility.yul\":7259:7268   */\n  add\n    /* \"#utility.yul\":7254:7268   */\n  swap1\n  pop\n    /* \"#utility.yul\":7216:7354   */\n  jump(tag_132)\ntag_134:\n    /* \"#utility.yul\":7220:7234   */\n  pop\n    /* \"#utility.yul\":7146:7360   */\n  pop\n  pop\n  jump\t// out\n    /* \"#utility.yul\":7366:8112   */\ntag_44:\n    /* \"#utility.yul\":7467:7469   */\n  0x1f\n    /* \"#utility.yul\":7462:7465   */\n  dup3\n    /* \"#utility.yul\":7459:7470   */\n  gt\n    /* \"#utility.yul\":7456:8105   */\n  iszero\n  tag_137\n  jumpi\n    /* \"#utility.yul\":7496:7506   */\n  dup3\n    /* \"#utility.yul\":7491:7494   */\n  dup3\n    /* \"#utility.yul\":7488:7507   */\n  gt\n    /* \"#utility.yul\":7485:8095   */\n  iszero\n  tag_138\n  jumpi\n    /* \"#utility.yul\":7542:7580   */\n  tag_139\n    /* \"#utility.yul\":7574:7579   */\n  dup2\n    /* \"#utility.yul\":7542:7580   */\n  tag_33\n  jump\t// in\ntag_139:\n    /* \"#utility.yul\":7617:7639   */\n  tag_140\n    /* \"#utility.yul\":7635:7638   */\n  dup4\n    /* \"#utility.yul\":7617:7639   */\n  tag_34\n  jump\t// in\ntag_140:\n    /* \"#utility.yul\":7676:7705   */\n  tag_141\n    /* \"#utility.yul\":7694:7704   */\n  dup6\n    /* \"#utility.yul\":7676:7705   */\n  tag_34\n  jump\t// in\ntag_141:\n    /* \"#utility.yul\":7866:7868   */\n  0x20\n    /* \"#utility.yul\":7854:7864   */\n  dup7\n    /* \"#utility.yul\":7851:7869   */\n  lt\n    /* \"#utility.yul\":7848:7927   */\n  iszero\n  tag_142\n  jumpi\n    /* \"#utility.yul\":7908:7909   */\n  0x00\n    /* \"#utility.yul\":7892:7909   */\n  swap1\n  pop\n    /* \"#utility.yul\":7848:7927   */\ntag_142:\n    /* \"#utility.yul\":7977:7989   */\n  dup1\n    /* \"#utility.yul\":7967:7975   */\n  dup4\n    /* \"#utility.yul\":7963:7990   */\n  add\n    /* \"#utility.yul\":8007:8081   */\n  tag_143\n    /* \"#utility.yul\":8067:8079   */\n  dup3\n    /* \"#utility.yul\":8053:8065   */\n  dup5\n    /* \"#utility.yul\":8049:8080   */\n  sub\n    /* \"#utility.yul\":8036:8047   */\n  dup3\n    /* \"#utility.yul\":8007:8081   */\n  tag_43\n  jump\t// in\ntag_143:\n    /* \"#utility.yul\":7508:8095   */\n  pop\n  pop\n  pop\n  pop\n    /* \"#utility.yul\":7485:8095   */\ntag_138:\n    /* \"#utility.yul\":7456:8105   */\ntag_137:\n    /* \"#utility.yul\":7366:8112   */\n  pop\n  pop\n  pop\n  jump\t// out\n    /* \"#utility.yul\":8118:8235   */\ntag_45:\n    /* \"#utility.yul\":8172:8180   */\n  0x00\n    /* \"#utility.yul\":8222:8227   */\n  dup3\n    /* \"#utility.yul\":8216:8220   */\n  dup3\n    /* \"#utility.yul\":8212:8228   */\n  shr\n    /* \"#utility.yul\":8191:8228   */\n  swap1\n  pop\n    /* \"#utility.yul\":8118:8235   */\n  swap3\n  swap2\n  pop\n  pop\n  jump\t// out\n    /* \"#utility.yul\":8241:8410   */\ntag_46:\n    /* \"#utility.yul\":8285:8291   */\n  0x00\n    /* \"#utility.yul\":8318:8369   */\n  tag_146\n    /* \"#utility.yul\":8366:8367   */\n  0x00\n    /* \"#utility.yul\":8362:8368   */\n  not\n    /* \"#utility.yul\":8354:8359   */\n  dup5\n    /* \"#utility.yul\":8351:8352   */\n  0x08\n    /* \"#utility.yul\":8347:8360   */\n  mul\n    /* \"#utility.yul\":8318:8369   */\n  tag_45\n  jump\t// in\ntag_146:\n    /* \"#utility.yul\":8314:8370   */\n  not\n    /* \"#utility.yul\":8399:8403   */\n  dup1\n    /* \"#utility.yul\":8393:8397   */\n  dup4\n    /* \"#utility.yul\":8389:8404   */\n  and\n    /* \"#utility.yul\":8379:8404   */\n  swap2\n  pop\n    /* \"#utility.yul\":8292:8410   */\n  pop\n    /* \"#utility.yul\":8241:8410   */\n  swap3\n  swap2\n  pop\n  pop\n  jump\t// out\n    /* \"#utility.yul\":8415:8710   */\ntag_47:\n    /* \"#utility.yul\":8491:8495   */\n  0x00\n    /* \"#utility.yul\":8637:8666   */\n  tag_148\n    /* \"#utility.yul\":8662:8665   */\n  dup4\n    /* \"#utility.yul\":8656:8660   */\n  dup4\n    /* \"#utility.yul\":8637:8666   */\n  tag_46\n  jump\t// in\ntag_148:\n    /* \"#utility.yul\":8629:8666   */\n  swap2\n  pop\n    /* \"#utility.yul\":8699:8702   */\n  dup3\n    /* \"#utility.yul\":8696:8697   */\n  0x02\n    /* \"#utility.yul\":8692:8703   */\n  mul\n    /* \"#utility.yul\":8686:8690   */\n  dup3\n    /* \"#utility.yul\":8683:8704   */\n  or\n    /* \"#utility.yul\":8675:8704   */\n  swap1\n  pop\n    /* \"#utility.yul\":8415:8710   */\n  swap3\n  swap2\n  pop\n  pop\n  jump\t// out\n    /* \"#utility.yul\":8715:10110   */\ntag_7:\n    /* \"#utility.yul\":8832:8869   */\n  tag_150\n    /* \"#utility.yul\":8865:8868   */\n  dup3\n    /* \"#utility.yul\":8832:8869   */\n  tag_30\n  jump\t// in\ntag_150:\n    /* \"#utility.yul\":8934:8952   */\n  0xffffffffffffffff\n    /* \"#utility.yul\":8926:8932   */\n  dup2\n    /* \"#utility.yul\":8923:8953   */\n  gt\n    /* \"#utility.yul\":8920:8976   */\n  iszero\n  tag_151\n  jumpi\n    /* \"#utility.yul\":8956:8974   */\n  tag_152\n  tag_19\n  jump\t// in\ntag_152:\n    /* \"#utility.yul\":8920:8976   */\ntag_151:\n    /* \"#utility.yul\":9000:9038   */\n  tag_153\n    /* \"#utility.yul\":9032:9036   */\n  dup3\n    /* \"#utility.yul\":9026:9037   */\n  sload\n    /* \"#utility.yul\":9000:9038   */\n  tag_32\n  jump\t// in\ntag_153:\n    /* \"#utility.yul\":9085:9152   */\n  tag_154\n    /* \"#utility.yul\":9145:9151   */\n  dup3\n    /* \"#utility.yul\":9137:9143   */\n  dup3\n    /* \"#utility.yul\":9131:9135   */\n  dup6\n    /* \"#utility.yul\":9085:9152   */\n  tag_44\n  jump\t// in\ntag_154:\n    /* \"#utility.yul\":9179:9180   */\n  0x00\n    /* \"#utility.yul\":9203:9207   */\n  0x20\n    /* \"#utility.yul\":9190:9207   */\n  swap1\n  pop\n    /* \"#utility.yul\":9235:9237   */\n  0x1f\n    /* \"#utility.yul\":9227:9233   */\n  dup4\n    /* \"#utility.yul\":9224:9238   */\n  gt\n    /* \"#utility.yul\":9252:9253   */\n  0x01\n    /* \"#utility.yul\":9247:9865   */\n  dup2\n  eq\n  tag_156\n  jumpi\n    /* \"#utility.yul\":9909:9910   */\n  0x00\n    /* \"#utility.yul\":9926:9932   */\n  dup5\n    /* \"#utility.yul\":9923:10000   */\n  iszero\n  tag_157\n  jumpi\n    /* \"#utility.yul\":9975:9984   */\n  dup3\n    /* \"#utility.yul\":9970:9973   */\n  dup8\n    /* \"#utility.yul\":9966:9985   */\n  add\n    /* \"#utility.yul\":9960:9986   */\n  mload\n    /* \"#utility.yul\":9951:9986   */\n  swap1\n  pop\n    /* \"#utility.yul\":9923:10000   */\ntag_157:\n    /* \"#utility.yul\":10026:10093   */\n  tag_158\n    /* \"#utility.yul\":10086:10092   */\n  dup6\n    /* \"#utility.yul\":10079:10084   */\n  dup3\n    /* \"#utility.yul\":10026:10093   */\n  tag_47\n  jump\t// in\ntag_158:\n    /* \"#utility.yul\":10020:10024   */\n  dup7\n    /* \"#utility.yul\":10013:10094   */\n  sstore\n    /* \"#utility.yul\":9882:10104   */\n  pop\n    /* \"#utility.yul\":9217:10104   */\n  jump(tag_155)\n    /* \"#utility.yul\":9247:9865   */\ntag_156:\n    /* \"#utility.yul\":9299:9303   */\n  0x1f\n    /* \"#utility.yul\":9295:9304   */\n  not\n    /* \"#utility.yul\":9287:9293   */\n  dup5\n    /* \"#utility.yul\":9283:9305   */\n  and\n    /* \"#utility.yul\":9333:9370   */\n  tag_159\n    /* \"#utility.yul\":9365:9369   */\n  dup7\n    /* \"#utility.yul\":9333:9370   */\n  tag_33\n  jump\t// in\ntag_159:\n    /* \"#utility.yul\":9392:9393   */\n  0x00\n    /* \"#utility.yul\":9406:9614   */\ntag_160:\n    /* \"#utility.yul\":9420:9427   */\n  dup3\n    /* \"#utility.yul\":9417:9418   */\n  dup2\n    /* \"#utility.yul\":9414:9428   */\n  lt\n    /* \"#utility.yul\":9406:9614   */\n  iszero\n  tag_162\n  jumpi\n    /* \"#utility.yul\":9499:9508   */\n  dup5\n    /* \"#utility.yul\":9494:9497   */\n  dup10\n    /* \"#utility.yul\":9490:9509   */\n  add\n    /* \"#utility.yul\":9484:9510   */\n  mload\n    /* \"#utility.yul\":9476:9482   */\n  dup3\n    /* \"#utility.yul\":9469:9511   */\n  sstore\n    /* \"#utility.yul\":9550:9551   */\n  0x01\n    /* \"#utility.yul\":9542:9548   */\n  dup3\n    /* \"#utility.yul\":9538:9552   */\n  add\n    /* \"#utility.yul\":9528:9552   */\n  swap2\n  pop\n    /* \"#utility.yul\":9597:9599   */\n  0x20\n    /* \"#utility.yul\":9586:9595   */\n  dup6\n    /* \"#utility.yul\":9582:9600   */\n  add\n    /* \"#utility.yul\":9569:9600   */\n  swap5\n  pop\n    /* \"#utility.yul\":9443:9447   */\n  0x20\n    /* \"#utility.yul\":9440:9441   */\n  dup2\n    /* \"#utility.yul\":9436:9448   */\n  add\n    /* \"#utility.yul\":9431:9448   */\n  swap1\n  pop\n    /* \"#utility.yul\":9406:9614   */\n  jump(tag_160)\ntag_162:\n    /* \"#utility.yul\":9642:9648   */\n  dup7\n    /* \"#utility.yul\":9633:9640   */\n  dup4\n    /* \"#utility.yul\":9630:9649   */\n  lt\n    /* \"#utility.yul\":9627:9806   */\n  iszero\n  tag_163\n  jumpi\n    /* \"#utility.yul\":9700:9709   */\n  dup5\n    /* \"#utility.yul\":9695:9698   */\n  dup10\n    /* \"#utility.yul\":9691:9710   */\n  add\n    /* \"#utility.yul\":9685:9711   */\n  mload\n    /* \"#utility.yul\":9743:9791   */\n  tag_164\n    /* \"#utility.yul\":9785:9789   */\n  0x1f\n    /* \"#utility.yul\":9777:9783   */\n  dup10\n    /* \"#utility.yul\":9773:9790   */\n  and\n    /* \"#utility.yul\":9762:9771   */\n  dup3\n    /* \"#utility.yul\":9743:9791   */\n  tag_46\n  jump\t// in\ntag_164:\n    /* \"#utility.yul\":9735:9741   */\n  dup4\n    /* \"#utility.yul\":9728:9792   */\n  sstore\n    /* \"#utility.yul\":9650:9806   */\n  pop\n    /* \"#utility.yul\":9627:9806   */\ntag_163:\n    /* \"#utility.yul\":9852:9853   */\n  0x01\n    /* \"#utility.yul\":9848:9849   */\n  0x02\n    /* \"#utility.yul\":9840:9846   */\n  dup9\n    /* \"#utility.yul\":9836:9850   */\n  mul\n    /* \"#utility.yul\":9832:9854   */\n  add\n    /* \"#utility.yul\":9826:9830   */\n  dup9\n    /* \"#utility.yul\":9819:9855   */\n  sstore\n    /* \"#utility.yul\":9254:9865   */\n  pop\n  pop\n  pop\n    /* \"#utility.yul\":9217:10104   */\ntag_155:\n  pop\n    /* \"#utility.yul\":8807:10110   */\n  pop\n  pop\n  pop\n    /* \"#utility.yul\":8715:10110   */\n  pop\n  pop\n  jump\t// out\n    /* \"Campaign.sol\":58:9308  contract Campaign {... */\ntag_9:\n  dataSize(sub_0)\n  dup1\n  dataOffset(sub_0)\n  0x00\n  codecopy\n  0x00\n  return\nstop\n\nsub_0: assembly {\n        /* \"Campaign.sol\":58:9308  contract Campaign {... */\n      mstore(0x40, 0x80)\n      jumpi(tag_1, lt(calldatasize, 0x04))\n      shr(0xe0, calldataload(0x00))\n      dup1\n      0x82fde093\n      gt\n      tag_34\n      jumpi\n      dup1\n      0xa39fac12\n      gt\n      tag_35\n      jumpi\n      dup1\n      0xc8b342ab\n      gt\n      tag_36\n      jumpi\n      dup1\n      0xc8b342ab\n      eq\n      tag_30\n      jumpi\n      dup1\n      0xd57bde79\n      eq\n      tag_31\n      jumpi\n      dup1\n      0xd7bb99ba\n      eq\n      tag_32\n      jumpi\n      dup1\n      0xedf26d9b\n      eq\n      tag_33\n      jumpi\n      jump(tag_1)\n    tag_36:\n      dup1\n      0xa39fac12\n      eq\n      tag_26\n      jumpi\n      dup1\n      0xc37fbb75\n      eq\n      tag_27\n      jumpi\n      dup1\n      0xc45a0155\n      eq\n      tag_28\n      jumpi\n      dup1\n      0xc6f56901\n      eq\n      tag_29\n      jumpi\n      jump(tag_1)\n    tag_35:\n      dup1\n      0x9292260e\n      gt\n      tag_37\n      jumpi\n      dup1\n      0x9292260e\n      eq\n      tag_22\n      jumpi\n      dup1\n      0x937e09b1\n      eq\n      tag_23\n      jumpi\n      dup1\n      0x976af615\n      eq\n      tag_24\n      jumpi\n      dup1\n      0x9ace38c2\n      eq\n      tag_25\n      jumpi\n      jump(tag_1)\n    tag_37:\n      dup1\n      0x82fde093\n      eq\n      tag_18\n      jumpi\n      dup1\n      0x83920e90\n      eq\n      tag_19\n      jumpi\n      dup1\n      0x8ba123e8\n      eq\n      tag_20\n      jumpi\n      dup1\n      0x91f90157\n      eq\n      tag_21\n      jumpi\n      jump(tag_1)\n    tag_34:\n      dup1\n      0x4051ddac\n      gt\n      tag_38\n      jumpi\n      dup1\n      0x597e1fb5\n      gt\n      tag_39\n      jumpi\n      dup1\n      0x597e1fb5\n      eq\n      tag_14\n      jumpi\n      dup1\n      0x5dc1d641\n      eq\n      tag_15\n      jumpi\n      dup1\n      0x7914135e\n      eq\n      tag_16\n      jumpi\n      dup1\n      0x7b87d856\n      eq\n      tag_17\n      jumpi\n      jump(tag_1)\n    tag_39:\n      dup1\n      0x4051ddac\n      eq\n      tag_10\n      jumpi\n      dup1\n      0x481c6a75\n      eq\n      tag_11\n      jumpi\n      dup1\n      0x4e69d560\n      eq\n      tag_12\n      jumpi\n      dup1\n      0x58d65629\n      eq\n      tag_13\n      jumpi\n      jump(tag_1)\n    tag_38:\n      dup1\n      0x2e7700f0\n      gt\n      tag_40\n      jumpi\n      dup1\n      0x2e7700f0\n      eq\n      tag_6\n      jumpi\n      dup1\n      0x3197cbb6\n      eq\n      tag_7\n      jumpi\n      dup1\n      0x3a9d3027\n      eq\n      tag_8\n      jumpi\n      dup1\n      0x3bc5de30\n      eq\n      tag_9\n      jumpi\n      jump(tag_1)\n    tag_40:\n      dup1\n      0x05281103\n      eq\n      tag_2\n      jumpi\n      dup1\n      0x074d55c4\n      eq\n      tag_3\n      jumpi\n      dup1\n      0x0a144391\n      eq\n      tag_4\n      jumpi\n      dup1\n      0x110f8874\n      eq\n      tag_5\n      jumpi\n    tag_1:\n      revert(0x00, 0x00)\n        /* \"Campaign.sol\":8833:9306  function getUserAuctionStatus(address user)... */\n    tag_2:\n      callvalue\n      dup1\n      iszero\n      tag_41\n      jumpi\n      revert(0x00, 0x00)\n    tag_41:\n      pop\n      tag_42\n      0x04\n      dup1\n      calldatasize\n      sub\n      dup2\n      add\n      swap1\n      tag_43\n      swap2\n      swap1\n      tag_44\n      jump\t// in\n    tag_43:\n      tag_45\n      jump\t// in\n    tag_42:\n      mload(0x40)\n      tag_46\n      swap6\n      swap5\n      swap4\n      swap3\n      swap2\n      swap1\n      tag_47\n      jump\t// in\n    tag_46:\n      mload(0x40)\n      dup1\n      swap2\n      sub\n      swap1\n      return\n        /* \"Campaign.sol\":1444:1474  uint256 public nextRefundIndex */\n    tag_3:\n      callvalue\n      dup1\n      iszero\n      tag_48\n      jumpi\n      revert(0x00, 0x00)\n    tag_48:\n      pop\n      tag_49\n      tag_50\n      jump\t// in\n    tag_49:\n      mload(0x40)\n      tag_51\n      swap2\n      swap1\n      tag_52\n      jump\t// in\n    tag_51:\n      mload(0x40)\n      dup1\n      swap2\n      sub\n      swap1\n      return\n        /* \"Campaign.sol\":1086:1127  mapping(address => bool) public approvers */\n    tag_4:\n      callvalue\n      dup1\n      iszero\n      tag_53\n      jumpi\n      revert(0x00, 0x00)\n    tag_53:\n      pop\n      tag_54\n      0x04\n      dup1\n      calldatasize\n      sub\n      dup2\n      add\n      swap1\n      tag_55\n      swap2\n      swap1\n      tag_44\n      jump\t// in\n    tag_55:\n      tag_56\n      jump\t// in\n    tag_54:\n      mload(0x40)\n      tag_57\n      swap2\n      swap1\n      tag_58\n      jump\t// in\n    tag_57:\n      mload(0x40)\n      dup1\n      swap2\n      sub\n      swap1\n      return\n        /* \"Campaign.sol\":5017:5509  function withdrawRefund() public {... */\n    tag_5:\n      callvalue\n      dup1\n      iszero\n      tag_59\n      jumpi\n      revert(0x00, 0x00)\n    tag_59:\n      pop\n      tag_60\n      tag_61\n      jump\t// in\n    tag_60:\n      stop\n        /* \"Campaign.sol\":6691:6795  function getTransactionCount() public view returns (uint256) {... */\n    tag_6:\n      callvalue\n      dup1\n      iszero\n      tag_62\n      jumpi\n      revert(0x00, 0x00)\n    tag_62:\n      pop\n      tag_63\n      tag_64\n      jump\t// in\n    tag_63:\n      mload(0x40)\n      tag_65\n      swap2\n      swap1\n      tag_52\n      jump\t// in\n    tag_65:\n      mload(0x40)\n      dup1\n      swap2\n      sub\n      swap1\n      return\n        /* \"Campaign.sol\":1392:1414  uint256 public endTime */\n    tag_7:\n      callvalue\n      dup1\n      iszero\n      tag_66\n      jumpi\n      revert(0x00, 0x00)\n    tag_66:\n      pop\n      tag_67\n      tag_68\n      jump\t// in\n    tag_67:\n      mload(0x40)\n      tag_69\n      swap2\n      swap1\n      tag_52\n      jump\t// in\n    tag_69:\n      mload(0x40)\n      dup1\n      swap2\n      sub\n      swap1\n      return\n        /* \"Campaign.sol\":6996:7099  function getBidLedger() public view returns (BidLedgerEntry[] memory) {... */\n    tag_8:\n      callvalue\n      dup1\n      iszero\n      tag_70\n      jumpi\n      revert(0x00, 0x00)\n    tag_70:\n      pop\n      tag_71\n      tag_72\n      jump\t// in\n    tag_71:\n      mload(0x40)\n      tag_73\n      swap2\n      swap1\n      tag_74\n      jump\t// in\n    tag_73:\n      mload(0x40)\n      dup1\n      swap2\n      sub\n      swap1\n      return\n        /* \"Campaign.sol\":7331:7552  function getData() public view returns (string memory) {... */\n    tag_9:\n      callvalue\n      dup1\n      iszero\n      tag_75\n      jumpi\n      revert(0x00, 0x00)\n    tag_75:\n      pop\n      tag_76\n      tag_77\n      jump\t// in\n    tag_76:\n      mload(0x40)\n      tag_78\n      swap2\n      swap1\n      tag_79\n      jump\t// in\n    tag_78:\n      mload(0x40)\n      dup1\n      swap2\n      sub\n      swap1\n      return\n        /* \"Campaign.sol\":7660:8272  function getSummary()... */\n    tag_10:\n      callvalue\n      dup1\n      iszero\n      tag_80\n      jumpi\n      revert(0x00, 0x00)\n    tag_80:\n      pop\n      tag_81\n      tag_82\n      jump\t// in\n    tag_81:\n      mload(0x40)\n      tag_83\n      swap11\n      swap10\n      swap9\n      swap8\n      swap7\n      swap6\n      swap5\n      swap4\n      swap3\n      swap2\n      swap1\n      tag_84\n      jump\t// in\n    tag_83:\n      mload(0x40)\n      dup1\n      swap2\n      sub\n      swap1\n      return\n        /* \"Campaign.sol\":951:973  address public manager */\n    tag_11:\n      callvalue\n      dup1\n      iszero\n      tag_85\n      jumpi\n      revert(0x00, 0x00)\n    tag_85:\n      pop\n      tag_86\n      tag_87\n      jump\t// in\n    tag_86:\n      mload(0x40)\n      tag_88\n      swap2\n      swap1\n      tag_89\n      jump\t// in\n    tag_88:\n      mload(0x40)\n      dup1\n      swap2\n      sub\n      swap1\n      return\n        /* \"Campaign.sol\":6389:6467  function getStatus() public view returns (bool) {... */\n    tag_12:\n      callvalue\n      dup1\n      iszero\n      tag_90\n      jumpi\n      revert(0x00, 0x00)\n    tag_90:\n      pop\n      tag_91\n      tag_92\n      jump\t// in\n    tag_91:\n      mload(0x40)\n      tag_93\n      swap2\n      swap1\n      tag_58\n      jump\t// in\n    tag_93:\n      mload(0x40)\n      dup1\n      swap2\n      sub\n      swap1\n      return\n        /* \"Campaign.sol\":1050:1079  string public dataDescription */\n    tag_13:\n      callvalue\n      dup1\n      iszero\n      tag_94\n      jumpi\n      revert(0x00, 0x00)\n    tag_94:\n      pop\n      tag_95\n      tag_96\n      jump\t// in\n    tag_95:\n      mload(0x40)\n      tag_97\n      swap2\n      swap1\n      tag_79\n      jump\t// in\n    tag_97:\n      mload(0x40)\n      dup1\n      swap2\n      sub\n      swap1\n      return\n        /* \"Campaign.sol\":1420:1438  bool public closed */\n    tag_14:\n      callvalue\n      dup1\n      iszero\n      tag_98\n      jumpi\n      revert(0x00, 0x00)\n    tag_98:\n      pop\n      tag_99\n      tag_100\n      jump\t// in\n    tag_99:\n      mload(0x40)\n      tag_101\n      swap2\n      swap1\n      tag_58\n      jump\t// in\n    tag_101:\n      mload(0x40)\n      dup1\n      swap2\n      sub\n      swap1\n      return\n        /* \"Campaign.sol\":1133:1182  mapping(address => uint256) public approversMoney */\n    tag_15:\n      callvalue\n      dup1\n      iszero\n      tag_102\n      jumpi\n      revert(0x00, 0x00)\n    tag_102:\n      pop\n      tag_103\n      0x04\n      dup1\n      calldatasize\n      sub\n      dup2\n      add\n      swap1\n      tag_104\n      swap2\n      swap1\n      tag_44\n      jump\t// in\n    tag_104:\n      tag_105\n      jump\t// in\n    tag_103:\n      mload(0x40)\n      tag_106\n      swap2\n      swap1\n      tag_52\n      jump\t// in\n    tag_106:\n      mload(0x40)\n      dup1\n      swap2\n      sub\n      swap1\n      return\n        /* \"Campaign.sol\":8278:8827  function getListSummary()... */\n    tag_16:\n      callvalue\n      dup1\n      iszero\n      tag_107\n      jumpi\n      revert(0x00, 0x00)\n    tag_107:\n      pop\n      tag_108\n      tag_109\n      jump\t// in\n    tag_108:\n      mload(0x40)\n      tag_110\n      swap10\n      swap9\n      swap8\n      swap7\n      swap6\n      swap5\n      swap4\n      swap3\n      swap2\n      swap1\n      tag_111\n      jump\t// in\n    tag_110:\n      mload(0x40)\n      dup1\n      swap2\n      sub\n      swap1\n      return\n        /* \"Campaign.sol\":1019:1044  string public dataForSell */\n    tag_17:\n      callvalue\n      dup1\n      iszero\n      tag_112\n      jumpi\n      revert(0x00, 0x00)\n    tag_112:\n      pop\n      tag_113\n      tag_114\n      jump\t// in\n    tag_113:\n      mload(0x40)\n      tag_115\n      swap2\n      swap1\n      tag_79\n      jump\t// in\n    tag_115:\n      mload(0x40)\n      dup1\n      swap2\n      sub\n      swap1\n      return\n        /* \"Campaign.sol\":1188:1217  uint256 public approversCount */\n    tag_18:\n      callvalue\n      dup1\n      iszero\n      tag_116\n      jumpi\n      revert(0x00, 0x00)\n    tag_116:\n      pop\n      tag_117\n      tag_118\n      jump\t// in\n    tag_117:\n      mload(0x40)\n      tag_119\n      swap2\n      swap1\n      tag_52\n      jump\t// in\n    tag_119:\n      mload(0x40)\n      dup1\n      swap2\n      sub\n      swap1\n      return\n        /* \"Campaign.sol\":6587:6685  function getTransactions() public view returns (Bid[] memory) {... */\n    tag_19:\n      callvalue\n      dup1\n      iszero\n      tag_120\n      jumpi\n      revert(0x00, 0x00)\n    tag_120:\n      pop\n      tag_121\n      tag_122\n      jump\t// in\n    tag_121:\n      mload(0x40)\n      tag_123\n      swap2\n      swap1\n      tag_124\n      jump\t// in\n    tag_123:\n      mload(0x40)\n      dup1\n      swap2\n      sub\n      swap1\n      return\n        /* \"Campaign.sol\":1287:1320  BidLedgerEntry[] public bidLedger */\n    tag_20:\n      callvalue\n      dup1\n      iszero\n      tag_125\n      jumpi\n      revert(0x00, 0x00)\n    tag_125:\n      pop\n      tag_126\n      0x04\n      dup1\n      calldatasize\n      sub\n      dup2\n      add\n      swap1\n      tag_127\n      swap2\n      swap1\n      tag_128\n      jump\t// in\n    tag_127:\n      tag_129\n      jump\t// in\n    tag_126:\n      mload(0x40)\n      tag_130\n      swap9\n      swap8\n      swap7\n      swap6\n      swap5\n      swap4\n      swap3\n      swap2\n      swap1\n      tag_131\n      jump\t// in\n    tag_130:\n      mload(0x40)\n      dup1\n      swap2\n      sub\n      swap1\n      return\n        /* \"Campaign.sol\":1327:1355  address public highestBidder */\n    tag_21:\n      callvalue\n      dup1\n      iszero\n      tag_132\n      jumpi\n      revert(0x00, 0x00)\n    tag_132:\n      pop\n      tag_133\n      tag_134\n      jump\t// in\n    tag_133:\n      mload(0x40)\n      tag_135\n      swap2\n      swap1\n      tag_89\n      jump\t// in\n    tag_135:\n      mload(0x40)\n      dup1\n      swap2\n      sub\n      swap1\n      return\n        /* \"Campaign.sol\":6801:6990  function getTransactionAt(uint256 index) public view returns (Bid memory) {... */\n    tag_22:\n      callvalue\n      dup1\n      iszero\n      tag_136\n      jumpi\n      revert(0x00, 0x00)\n    tag_136:\n      pop\n      tag_137\n      0x04\n      dup1\n      calldatasize\n      sub\n      dup2\n      add\n      swap1\n      tag_138\n      swap2\n      swap1\n      tag_128\n      jump\t// in\n    tag_138:\n      tag_139\n      jump\t// in\n    tag_137:\n      mload(0x40)\n      tag_140\n      swap2\n      swap1\n      tag_141\n      jump\t// in\n    tag_140:\n      mload(0x40)\n      dup1\n      swap2\n      sub\n      swap1\n      return\n        /* \"Campaign.sol\":979:1013  uint256 public minimumContribution */\n    tag_23:\n      callvalue\n      dup1\n      iszero\n      tag_142\n      jumpi\n      revert(0x00, 0x00)\n    tag_142:\n      pop\n      tag_143\n      tag_144\n      jump\t// in\n    tag_143:\n      mload(0x40)\n      tag_145\n      swap2\n      swap1\n      tag_52\n      jump\t// in\n    tag_145:\n      mload(0x40)\n      dup1\n      swap2\n      sub\n      swap1\n      return\n        /* \"Campaign.sol\":4461:5011  function finalizeAuctionIfNeeded() public onlyAfterEnd {... */\n    tag_24:\n      callvalue\n      dup1\n      iszero\n      tag_146\n      jumpi\n      revert(0x00, 0x00)\n    tag_146:\n      pop\n      tag_147\n      tag_148\n      jump\t// in\n    tag_147:\n      stop\n        /* \"Campaign.sol\":1256:1281  Bid[] public transactions */\n    tag_25:\n      callvalue\n      dup1\n      iszero\n      tag_149\n      jumpi\n      revert(0x00, 0x00)\n    tag_149:\n      pop\n      tag_150\n      0x04\n      dup1\n      calldatasize\n      sub\n      dup2\n      add\n      swap1\n      tag_151\n      swap2\n      swap1\n      tag_128\n      jump\t// in\n    tag_151:\n      tag_152\n      jump\t// in\n    tag_150:\n      mload(0x40)\n      tag_153\n      swap4\n      swap3\n      swap2\n      swap1\n      tag_154\n      jump\t// in\n    tag_153:\n      mload(0x40)\n      dup1\n      swap2\n      sub\n      swap1\n      return\n        /* \"Campaign.sol\":7558:7654  function getAddresses() public view returns (address[] memory) {... */\n    tag_26:\n      callvalue\n      dup1\n      iszero\n      tag_155\n      jumpi\n      revert(0x00, 0x00)\n    tag_155:\n      pop\n      tag_156\n      tag_157\n      jump\t// in\n    tag_156:\n      mload(0x40)\n      tag_158\n      swap2\n      swap1\n      tag_159\n      jump\t// in\n    tag_158:\n      mload(0x40)\n      dup1\n      swap2\n      sub\n      swap1\n      return\n        /* \"Campaign.sol\":7105:7325  function getBidLedgerAt(uint256 index)... */\n    tag_27:\n      callvalue\n      dup1\n      iszero\n      tag_160\n      jumpi\n      revert(0x00, 0x00)\n    tag_160:\n      pop\n      tag_161\n      0x04\n      dup1\n      calldatasize\n      sub\n      dup2\n      add\n      swap1\n      tag_162\n      swap2\n      swap1\n      tag_128\n      jump\t// in\n    tag_162:\n      tag_163\n      jump\t// in\n    tag_161:\n      mload(0x40)\n      tag_164\n      swap2\n      swap1\n      tag_165\n      jump\t// in\n    tag_164:\n      mload(0x40)\n      dup1\n      swap2\n      sub\n      swap1\n      return\n        /* \"Campaign.sol\":82:112  CampaignFactory public factory */\n    tag_28:\n      callvalue\n      dup1\n      iszero\n      tag_166\n      jumpi\n      revert(0x00, 0x00)\n    tag_166:\n      pop\n      tag_167\n      tag_168\n      jump\t// in\n    tag_167:\n      mload(0x40)\n      tag_169\n      swap2\n      swap1\n      tag_170\n      jump\t// in\n    tag_169:\n      mload(0x40)\n      dup1\n      swap2\n      sub\n      swap1\n      return\n        /* \"Campaign.sol\":5515:6383  function processRefunds(uint256 maxRefunds) public {... */\n    tag_29:\n      callvalue\n      dup1\n      iszero\n      tag_171\n      jumpi\n      revert(0x00, 0x00)\n    tag_171:\n      pop\n      tag_172\n      0x04\n      dup1\n      calldatasize\n      sub\n      dup2\n      add\n      swap1\n      tag_173\n      swap2\n      swap1\n      tag_128\n      jump\t// in\n    tag_173:\n      tag_174\n      jump\t// in\n    tag_172:\n      stop\n        /* \"Campaign.sol\":6473:6581  function getBid(address bidder) public view returns (uint256) {... */\n    tag_30:\n      callvalue\n      dup1\n      iszero\n      tag_175\n      jumpi\n      revert(0x00, 0x00)\n    tag_175:\n      pop\n      tag_176\n      0x04\n      dup1\n      calldatasize\n      sub\n      dup2\n      add\n      swap1\n      tag_177\n      swap2\n      swap1\n      tag_44\n      jump\t// in\n    tag_177:\n      tag_178\n      jump\t// in\n    tag_176:\n      mload(0x40)\n      tag_179\n      swap2\n      swap1\n      tag_52\n      jump\t// in\n    tag_179:\n      mload(0x40)\n      dup1\n      swap2\n      sub\n      swap1\n      return\n        /* \"Campaign.sol\":1361:1386  uint256 public highestBid */\n    tag_31:\n      callvalue\n      dup1\n      iszero\n      tag_180\n      jumpi\n      revert(0x00, 0x00)\n    tag_180:\n      pop\n      tag_181\n      tag_182\n      jump\t// in\n    tag_181:\n      mload(0x40)\n      tag_183\n      swap2\n      swap1\n      tag_52\n      jump\t// in\n    tag_183:\n      mload(0x40)\n      dup1\n      swap2\n      sub\n      swap1\n      return\n        /* \"Campaign.sol\":2149:4455  function contribute() public payable onlyBeforeEnd {... */\n    tag_32:\n      tag_184\n      tag_185\n      jump\t// in\n    tag_184:\n      stop\n        /* \"Campaign.sol\":1224:1250  address[] public addresses */\n    tag_33:\n      callvalue\n      dup1\n      iszero\n      tag_186\n      jumpi\n      revert(0x00, 0x00)\n    tag_186:\n      pop\n      tag_187\n      0x04\n      dup1\n      calldatasize\n      sub\n      dup2\n      add\n      swap1\n      tag_188\n      swap2\n      swap1\n      tag_128\n      jump\t// in\n    tag_188:\n      tag_189\n      jump\t// in\n    tag_187:\n      mload(0x40)\n      tag_190\n      swap2\n      swap1\n      tag_89\n      jump\t// in\n    tag_190:\n      mload(0x40)\n      dup1\n      swap2\n      sub\n      swap1\n      return\n        /* \"Campaign.sol\":8833:9306  function getUserAuctionStatus(address user)... */\n    tag_45:\n        /* \"Campaign.sol\":8922:8926  bool */\n      0x00\n        /* \"Campaign.sol\":8928:8935  uint256 */\n      0x00\n        /* \"Campaign.sol\":8937:8941  bool */\n      0x00\n        /* \"Campaign.sol\":8943:8947  bool */\n      0x00\n        /* \"Campaign.sol\":8949:8953  bool */\n      0x00\n        /* \"Campaign.sol\":8969:8986  bool participated */\n      0x00\n        /* \"Campaign.sol\":8989:8998  approvers */\n      0x05\n        /* \"Campaign.sol\":8989:9004  approvers[user] */\n      0x00\n        /* \"Campaign.sol\":8999:9003  user */\n      dup9\n        /* \"Campaign.sol\":8989:9004  approvers[user] */\n      0xffffffffffffffffffffffffffffffffffffffff\n      and\n      0xffffffffffffffffffffffffffffffffffffffff\n      and\n      dup2\n      mstore\n      0x20\n      add\n      swap1\n      dup2\n      mstore\n      0x20\n      add\n      0x00\n      keccak256\n      0x00\n      swap1\n      sload\n      swap1\n      0x0100\n      exp\n      swap1\n      div\n      0xff\n      and\n        /* \"Campaign.sol\":8969:9004  bool participated = approvers[user] */\n      swap1\n      pop\n        /* \"Campaign.sol\":9014:9025  uint256 bid */\n      0x00\n        /* \"Campaign.sol\":9028:9042  approversMoney */\n      0x06\n        /* \"Campaign.sol\":9028:9048  approversMoney[user] */\n      0x00\n        /* \"Campaign.sol\":9043:9047  user */\n      dup10\n        /* \"Campaign.sol\":9028:9048  approversMoney[user] */\n      0xffffffffffffffffffffffffffffffffffffffff\n      and\n      0xffffffffffffffffffffffffffffffffffffffff\n      and\n      dup2\n      mstore\n      0x20\n      add\n      swap1\n      dup2\n      mstore\n      0x20\n      add\n      0x00\n      keccak256\n      sload\n        /* \"Campaign.sol\":9014:9048  uint256 bid = approversMoney[user] */\n      swap1\n      pop\n        /* \"Campaign.sol\":9058:9072  bool isManager */\n      0x00\n        /* \"Campaign.sol\":9083:9090  manager */\n      0x01\n      0x00\n      swap1\n      sload\n      swap1\n      0x0100\n      exp\n      swap1\n      div\n      0xffffffffffffffffffffffffffffffffffffffff\n      and\n        /* \"Campaign.sol\":9075:9090  user == manager */\n      0xffffffffffffffffffffffffffffffffffffffff\n      and\n        /* \"Campaign.sol\":9075:9079  user */\n      dup10\n        /* \"Campaign.sol\":9075:9090  user == manager */\n      0xffffffffffffffffffffffffffffffffffffffff\n      and\n      eq\n        /* \"Campaign.sol\":9058:9090  bool isManager = user == manager */\n      swap1\n      pop\n        /* \"Campaign.sol\":9100:9120  bool isHighestBidder */\n      0x00\n        /* \"Campaign.sol\":9131:9144  highestBidder */\n      0x0b\n      0x00\n      swap1\n      sload\n      swap1\n      0x0100\n      exp\n      swap1\n      div\n      0xffffffffffffffffffffffffffffffffffffffff\n      and\n        /* \"Campaign.sol\":9123:9144  user == highestBidder */\n      0xffffffffffffffffffffffffffffffffffffffff\n      and\n        /* \"Campaign.sol\":9123:9127  user */\n      dup11\n        /* \"Campaign.sol\":9123:9144  user == highestBidder */\n      0xffffffffffffffffffffffffffffffffffffffff\n      and\n      eq\n        /* \"Campaign.sol\":9100:9144  bool isHighestBidder = user == highestBidder */\n      swap1\n      pop\n        /* \"Campaign.sol\":9154:9167  bool refunded */\n      0x00\n        /* \"Campaign.sol\":9170:9176  closed */\n      0x0e\n      0x00\n      swap1\n      sload\n      swap1\n      0x0100\n      exp\n      swap1\n      div\n      0xff\n      and\n        /* \"Campaign.sol\":9170:9192  closed && participated */\n      dup1\n      iszero\n      tag_192\n      jumpi\n      pop\n        /* \"Campaign.sol\":9180:9192  participated */\n      dup5\n        /* \"Campaign.sol\":9170:9192  closed && participated */\n    tag_192:\n        /* \"Campaign.sol\":9170:9212  closed && participated && !isHighestBidder */\n      dup1\n      iszero\n      tag_193\n      jumpi\n      pop\n        /* \"Campaign.sol\":9197:9212  isHighestBidder */\n      dup2\n        /* \"Campaign.sol\":9196:9212  !isHighestBidder */\n      iszero\n        /* \"Campaign.sol\":9170:9212  closed && participated && !isHighestBidder */\n    tag_193:\n        /* \"Campaign.sol\":9170:9224  closed && participated && !isHighestBidder && bid == 0 */\n      dup1\n      iszero\n      tag_194\n      jumpi\n      pop\n        /* \"Campaign.sol\":9223:9224  0 */\n      0x00\n        /* \"Campaign.sol\":9216:9219  bid */\n      dup5\n        /* \"Campaign.sol\":9216:9224  bid == 0 */\n      eq\n        /* \"Campaign.sol\":9170:9224  closed && participated && !isHighestBidder && bid == 0 */\n    tag_194:\n        /* \"Campaign.sol\":9154:9224  bool refunded = closed && participated && !isHighestBidder && bid == 0 */\n      swap1\n      pop\n        /* \"Campaign.sol\":9243:9255  participated */\n      dup5\n        /* \"Campaign.sol\":9257:9260  bid */\n      dup5\n        /* \"Campaign.sol\":9262:9270  refunded */\n      dup3\n        /* \"Campaign.sol\":9272:9281  isManager */\n      dup6\n        /* \"Campaign.sol\":9283:9298  isHighestBidder */\n      dup6\n        /* \"Campaign.sol\":9235:9299  return (participated, bid, refunded, isManager, isHighestBidder) */\n      swap10\n      pop\n      swap10\n      pop\n      swap10\n      pop\n      swap10\n      pop\n      swap10\n      pop\n      pop\n      pop\n      pop\n      pop\n      pop\n        /* \"Campaign.sol\":8833:9306  function getUserAuctionStatus(address user)... */\n      swap2\n      swap4\n      swap6\n      swap1\n      swap3\n      swap5\n      pop\n      jump\t// out\n        /* \"Campaign.sol\":1444:1474  uint256 public nextRefundIndex */\n    tag_50:\n      sload(0x0f)\n      dup2\n      jump\t// out\n        /* \"Campaign.sol\":1086:1127  mapping(address => bool) public approvers */\n    tag_56:\n      mstore(0x20, 0x05)\n      dup1\n      0x00\n      mstore\n      keccak256(0x00, 0x40)\n      0x00\n      swap2\n      pop\n      sload\n      swap1\n      0x0100\n      exp\n      swap1\n      div\n      0xff\n      and\n      dup2\n      jump\t// out\n        /* \"Campaign.sol\":5017:5509  function withdrawRefund() public {... */\n    tag_61:\n        /* \"Campaign.sol\":5068:5074  closed */\n      0x0e\n      0x00\n      swap1\n      sload\n      swap1\n      0x0100\n      exp\n      swap1\n      div\n      0xff\n      and\n        /* \"Campaign.sol\":5060:5100  require(closed, \"Auction not finalized\") */\n      tag_196\n      jumpi\n      mload(0x40)\n      0x08c379a000000000000000000000000000000000000000000000000000000000\n      dup2\n      mstore\n      0x04\n      add\n      tag_197\n      swap1\n      tag_198\n      jump\t// in\n    tag_197:\n      mload(0x40)\n      dup1\n      swap2\n      sub\n      swap1\n      revert\n    tag_196:\n        /* \"Campaign.sol\":5132:5145  highestBidder */\n      0x0b\n      0x00\n      swap1\n      sload\n      swap1\n      0x0100\n      exp\n      swap1\n      div\n      0xffffffffffffffffffffffffffffffffffffffff\n      and\n        /* \"Campaign.sol\":5118:5145  msg.sender != highestBidder */\n      0xffffffffffffffffffffffffffffffffffffffff\n      and\n        /* \"Campaign.sol\":5118:5128  msg.sender */\n      caller\n        /* \"Campaign.sol\":5118:5145  msg.sender != highestBidder */\n      0xffffffffffffffffffffffffffffffffffffffff\n      and\n      sub\n        /* \"Campaign.sol\":5110:5170  require(msg.sender != highestBidder, \"Winner has no refund\") */\n      tag_199\n      jumpi\n      mload(0x40)\n      0x08c379a000000000000000000000000000000000000000000000000000000000\n      dup2\n      mstore\n      0x04\n      add\n      tag_200\n      swap1\n      tag_201\n      jump\t// in\n    tag_200:\n      mload(0x40)\n      dup1\n      swap2\n      sub\n      swap1\n      revert\n    tag_199:\n        /* \"Campaign.sol\":5181:5201  uint256 refundAmount */\n      0x00\n        /* \"Campaign.sol\":5204:5218  approversMoney */\n      0x06\n        /* \"Campaign.sol\":5204:5230  approversMoney[msg.sender] */\n      0x00\n        /* \"Campaign.sol\":5219:5229  msg.sender */\n      caller\n        /* \"Campaign.sol\":5204:5230  approversMoney[msg.sender] */\n      0xffffffffffffffffffffffffffffffffffffffff\n      and\n      0xffffffffffffffffffffffffffffffffffffffff\n      and\n      dup2\n      mstore\n      0x20\n      add\n      swap1\n      dup2\n      mstore\n      0x20\n      add\n      0x00\n      keccak256\n      sload\n        /* \"Campaign.sol\":5181:5230  uint256 refundAmount = approversMoney[msg.sender] */\n      swap1\n      pop\n        /* \"Campaign.sol\":5263:5264  0 */\n      0x00\n        /* \"Campaign.sol\":5248:5260  refundAmount */\n      dup2\n        /* \"Campaign.sol\":5248:5264  refundAmount > 0 */\n      gt\n        /* \"Campaign.sol\":5240:5288  require(refundAmount > 0, \"No refund available\") */\n      tag_202\n      jumpi\n      mload(0x40)\n      0x08c379a000000000000000000000000000000000000000000000000000000000\n      dup2\n      mstore\n      0x04\n      add\n      tag_203\n      swap1\n      tag_204\n      jump\t// in\n    tag_203:\n      mload(0x40)\n      dup1\n      swap2\n      sub\n      swap1\n      revert\n    tag_202:\n        /* \"Campaign.sol\":5328:5329  0 */\n      0x00\n        /* \"Campaign.sol\":5299:5313  approversMoney */\n      0x06\n        /* \"Campaign.sol\":5299:5325  approversMoney[msg.sender] */\n      0x00\n        /* \"Campaign.sol\":5314:5324  msg.sender */\n      caller\n        /* \"Campaign.sol\":5299:5325  approversMoney[msg.sender] */\n      0xffffffffffffffffffffffffffffffffffffffff\n      and\n      0xffffffffffffffffffffffffffffffffffffffff\n      and\n      dup2\n      mstore\n      0x20\n      add\n      swap1\n      dup2\n      mstore\n      0x20\n      add\n      0x00\n      keccak256\n        /* \"Campaign.sol\":5299:5329  approversMoney[msg.sender] = 0 */\n      dup2\n      swap1\n      sstore\n      pop\n        /* \"Campaign.sol\":5341:5350  bool sent */\n      0x00\n        /* \"Campaign.sol\":5364:5374  msg.sender */\n      caller\n        /* \"Campaign.sol\":5356:5380  payable(msg.sender).call */\n      0xffffffffffffffffffffffffffffffffffffffff\n      and\n        /* \"Campaign.sol\":5388:5400  refundAmount */\n      dup3\n        /* \"Campaign.sol\":5356:5405  payable(msg.sender).call{value: refundAmount}(\"\") */\n      mload(0x40)\n      tag_205\n      swap1\n      tag_206\n      jump\t// in\n    tag_205:\n      0x00\n      mload(0x40)\n      dup1\n      dup4\n      sub\n      dup2\n      dup6\n      dup8\n      gas\n      call\n      swap3\n      pop\n      pop\n      pop\n      returndatasize\n      dup1\n      0x00\n      dup2\n      eq\n      tag_209\n      jumpi\n      mload(0x40)\n      swap2\n      pop\n      and(add(returndatasize, 0x3f), not(0x1f))\n      dup3\n      add\n      0x40\n      mstore\n      returndatasize\n      dup3\n      mstore\n      returndatasize\n      0x00\n      0x20\n      dup5\n      add\n      returndatacopy\n      jump(tag_208)\n    tag_209:\n      0x60\n      swap2\n      pop\n    tag_208:\n      pop\n        /* \"Campaign.sol\":5340:5405  (bool sent, ) = payable(msg.sender).call{value: refundAmount}(\"\") */\n      pop\n      swap1\n      pop\n        /* \"Campaign.sol\":5423:5427  sent */\n      dup1\n        /* \"Campaign.sol\":5415:5445  require(sent, \"Refund failed\") */\n      tag_210\n      jumpi\n      mload(0x40)\n      0x08c379a000000000000000000000000000000000000000000000000000000000\n      dup2\n      mstore\n      0x04\n      add\n      tag_211\n      swap1\n      tag_212\n      jump\t// in\n    tag_211:\n      mload(0x40)\n      dup1\n      swap2\n      sub\n      swap1\n      revert\n    tag_210:\n        /* \"Campaign.sol\":5477:5487  msg.sender */\n      caller\n        /* \"Campaign.sol\":5461:5502  RefundProcessed(msg.sender, refundAmount) */\n      0xffffffffffffffffffffffffffffffffffffffff\n      and\n      0x3367befd2b2f39615cd79917c2153263c4af1d3945ec003e5d5bfc13a8d85833\n        /* \"Campaign.sol\":5489:5501  refundAmount */\n      dup4\n        /* \"Campaign.sol\":5461:5502  RefundProcessed(msg.sender, refundAmount) */\n      mload(0x40)\n      tag_213\n      swap2\n      swap1\n      tag_52\n      jump\t// in\n    tag_213:\n      mload(0x40)\n      dup1\n      swap2\n      sub\n      swap1\n      log2\n        /* \"Campaign.sol\":5050:5509  {... */\n      pop\n      pop\n        /* \"Campaign.sol\":5017:5509  function withdrawRefund() public {... */\n      jump\t// out\n        /* \"Campaign.sol\":6691:6795  function getTransactionCount() public view returns (uint256) {... */\n    tag_64:\n        /* \"Campaign.sol\":6743:6750  uint256 */\n      0x00\n        /* \"Campaign.sol\":6769:6781  transactions */\n      0x09\n        /* \"Campaign.sol\":6769:6788  transactions.length */\n      dup1\n      sload\n      swap1\n      pop\n        /* \"Campaign.sol\":6762:6788  return transactions.length */\n      swap1\n      pop\n        /* \"Campaign.sol\":6691:6795  function getTransactionCount() public view returns (uint256) {... */\n      swap1\n      jump\t// out\n        /* \"Campaign.sol\":1392:1414  uint256 public endTime */\n    tag_68:\n      sload(0x0d)\n      dup2\n      jump\t// out\n        /* \"Campaign.sol\":6996:7099  function getBidLedger() public view returns (BidLedgerEntry[] memory) {... */\n    tag_72:\n        /* \"Campaign.sol\":7041:7064  BidLedgerEntry[] memory */\n      0x60\n        /* \"Campaign.sol\":7083:7092  bidLedger */\n      0x0a\n        /* \"Campaign.sol\":7076:7092  return bidLedger */\n      dup1\n      sload\n      dup1\n      0x20\n      mul\n      0x20\n      add\n      mload(0x40)\n      swap1\n      dup2\n      add\n      0x40\n      mstore\n      dup1\n      swap3\n      swap2\n      swap1\n      dup2\n      dup2\n      mstore\n      0x20\n      add\n      0x00\n      swap1\n    tag_216:\n      dup3\n      dup3\n      lt\n      iszero\n      tag_217\n      jumpi\n      dup4\n      dup3\n      swap1\n      0x00\n      mstore\n      keccak256(0x00, 0x20)\n      swap1\n      0x08\n      mul\n      add\n      mload(0x40)\n      dup1\n      0x0100\n      add\n      0x40\n      mstore\n      swap1\n      dup2\n      0x00\n      dup3\n      add\n      sload\n      dup2\n      mstore\n      0x20\n      add\n      0x01\n      dup3\n      add\n      sload\n      dup2\n      mstore\n      0x20\n      add\n      0x02\n      dup3\n      add\n      0x00\n      swap1\n      sload\n      swap1\n      0x0100\n      exp\n      swap1\n      div\n      0xffffffffffffffffffffffffffffffffffffffff\n      and\n      0xffffffffffffffffffffffffffffffffffffffff\n      and\n      0xffffffffffffffffffffffffffffffffffffffff\n      and\n      dup2\n      mstore\n      0x20\n      add\n      0x03\n      dup3\n      add\n      sload\n      dup2\n      mstore\n      0x20\n      add\n      0x04\n      dup3\n      add\n      sload\n      dup2\n      mstore\n      0x20\n      add\n      0x05\n      dup3\n      add\n      sload\n      dup2\n      mstore\n      0x20\n      add\n      0x06\n      dup3\n      add\n      0x00\n      swap1\n      sload\n      swap1\n      0x0100\n      exp\n      swap1\n      div\n      0xffffffffffffffffffffffffffffffffffffffff\n      and\n      0xffffffffffffffffffffffffffffffffffffffff\n      and\n      0xffffffffffffffffffffffffffffffffffffffff\n      and\n      dup2\n      mstore\n      0x20\n      add\n      0x07\n      dup3\n      add\n      sload\n      dup2\n      mstore\n      pop\n      pop\n      dup2\n      mstore\n      0x20\n      add\n      swap1\n      0x01\n      add\n      swap1\n      jump(tag_216)\n    tag_217:\n      pop\n      pop\n      pop\n      pop\n      swap1\n      pop\n        /* \"Campaign.sol\":6996:7099  function getBidLedger() public view returns (BidLedgerEntry[] memory) {... */\n      swap1\n      jump\t// out\n        /* \"Campaign.sol\":7331:7552  function getData() public view returns (string memory) {... */\n    tag_77:\n        /* \"Campaign.sol\":7371:7384  string memory */\n      0x60\n        /* \"Campaign.sol\":7404:7410  closed */\n      0x0e\n      0x00\n      swap1\n      sload\n      swap1\n      0x0100\n      exp\n      swap1\n      div\n      0xff\n      and\n        /* \"Campaign.sol\":7396:7436  require(closed, \"Auction not finalized\") */\n      tag_220\n      jumpi\n      mload(0x40)\n      0x08c379a000000000000000000000000000000000000000000000000000000000\n      dup2\n      mstore\n      0x04\n      add\n      tag_221\n      swap1\n      tag_198\n      jump\t// in\n    tag_221:\n      mload(0x40)\n      dup1\n      swap2\n      sub\n      swap1\n      revert\n    tag_220:\n        /* \"Campaign.sol\":7468:7481  highestBidder */\n      0x0b\n      0x00\n      swap1\n      sload\n      swap1\n      0x0100\n      exp\n      swap1\n      div\n      0xffffffffffffffffffffffffffffffffffffffff\n      and\n        /* \"Campaign.sol\":7454:7481  msg.sender == highestBidder */\n      0xffffffffffffffffffffffffffffffffffffffff\n      and\n        /* \"Campaign.sol\":7454:7464  msg.sender */\n      caller\n        /* \"Campaign.sol\":7454:7481  msg.sender == highestBidder */\n      0xffffffffffffffffffffffffffffffffffffffff\n      and\n      eq\n        /* \"Campaign.sol\":7446:7517  require(msg.sender == highestBidder, \"Only winner can access the data\") */\n      tag_222\n      jumpi\n      mload(0x40)\n      0x08c379a000000000000000000000000000000000000000000000000000000000\n      dup2\n      mstore\n      0x04\n      add\n      tag_223\n      swap1\n      tag_224\n      jump\t// in\n    tag_223:\n      mload(0x40)\n      dup1\n      swap2\n      sub\n      swap1\n      revert\n    tag_222:\n        /* \"Campaign.sol\":7534:7545  dataForSell */\n      0x03\n        /* \"Campaign.sol\":7527:7545  return dataForSell */\n      dup1\n      sload\n      tag_225\n      swap1\n      tag_226\n      jump\t// in\n    tag_225:\n      dup1\n      0x1f\n      add\n      0x20\n      dup1\n      swap2\n      div\n      mul\n      0x20\n      add\n      mload(0x40)\n      swap1\n      dup2\n      add\n      0x40\n      mstore\n      dup1\n      swap3\n      swap2\n      swap1\n      dup2\n      dup2\n      mstore\n      0x20\n      add\n      dup3\n      dup1\n      sload\n      tag_227\n      swap1\n      tag_226\n      jump\t// in\n    tag_227:\n      dup1\n      iszero\n      tag_228\n      jumpi\n      dup1\n      0x1f\n      lt\n      tag_229\n      jumpi\n      0x0100\n      dup1\n      dup4\n      sload\n      div\n      mul\n      dup4\n      mstore\n      swap2\n      0x20\n      add\n      swap2\n      jump(tag_228)\n    tag_229:\n      dup3\n      add\n      swap2\n      swap1\n      0x00\n      mstore\n      keccak256(0x00, 0x20)\n      swap1\n    tag_230:\n      dup2\n      sload\n      dup2\n      mstore\n      swap1\n      0x01\n      add\n      swap1\n      0x20\n      add\n      dup1\n      dup4\n      gt\n      tag_230\n      jumpi\n      dup3\n      swap1\n      sub\n      0x1f\n      and\n      dup3\n      add\n      swap2\n    tag_228:\n      pop\n      pop\n      pop\n      pop\n      pop\n      swap1\n      pop\n        /* \"Campaign.sol\":7331:7552  function getData() public view returns (string memory) {... */\n      swap1\n      jump\t// out\n        /* \"Campaign.sol\":7660:8272  function getSummary()... */\n    tag_82:\n        /* \"Campaign.sol\":7740:7747  uint256 */\n      0x00\n        /* \"Campaign.sol\":7761:7768  uint256 */\n      0x00\n        /* \"Campaign.sol\":7782:7789  uint256 */\n      0x00\n        /* \"Campaign.sol\":7803:7810  address */\n      0x00\n        /* \"Campaign.sol\":7824:7831  uint256 */\n      0x00\n        /* \"Campaign.sol\":7845:7858  string memory */\n      0x60\n        /* \"Campaign.sol\":7872:7885  string memory */\n      dup1\n        /* \"Campaign.sol\":7899:7906  address */\n      0x00\n        /* \"Campaign.sol\":7920:7936  address[] memory */\n      0x60\n        /* \"Campaign.sol\":7950:7957  uint256 */\n      0x00\n        /* \"Campaign.sol\":8003:8022  minimumContribution */\n      sload(0x02)\n        /* \"Campaign.sol\":8036:8057  address(this).balance */\n      selfbalance\n        /* \"Campaign.sol\":8071:8085  approversCount */\n      sload(0x07)\n        /* \"Campaign.sol\":8099:8106  manager */\n      0x01\n      0x00\n      swap1\n      sload\n      swap1\n      0x0100\n      exp\n      swap1\n      div\n      0xffffffffffffffffffffffffffffffffffffffff\n      and\n        /* \"Campaign.sol\":8120:8130  highestBid */\n      sload(0x0c)\n        /* \"Campaign.sol\":8144:8155  dataForSell */\n      0x03\n        /* \"Campaign.sol\":8169:8184  dataDescription */\n      0x04\n        /* \"Campaign.sol\":8198:8211  highestBidder */\n      0x0b\n      0x00\n      swap1\n      sload\n      swap1\n      0x0100\n      exp\n      swap1\n      div\n      0xffffffffffffffffffffffffffffffffffffffff\n      and\n        /* \"Campaign.sol\":8225:8234  addresses */\n      0x08\n        /* \"Campaign.sol\":8248:8255  endTime */\n      sload(0x0d)\n        /* \"Campaign.sol\":7982:8265  return (... */\n      dup5\n      dup1\n      sload\n      tag_232\n      swap1\n      tag_226\n      jump\t// in\n    tag_232:\n      dup1\n      0x1f\n      add\n      0x20\n      dup1\n      swap2\n      div\n      mul\n      0x20\n      add\n      mload(0x40)\n      swap1\n      dup2\n      add\n      0x40\n      mstore\n      dup1\n      swap3\n      swap2\n      swap1\n      dup2\n      dup2\n      mstore\n      0x20\n      add\n      dup3\n      dup1\n      sload\n      tag_233\n      swap1\n      tag_226\n      jump\t// in\n    tag_233:\n      dup1\n      iszero\n      tag_234\n      jumpi\n      dup1\n      0x1f\n      lt\n      tag_235\n      jumpi\n      0x0100\n      dup1\n      dup4\n      sload\n      div\n      mul\n      dup4\n      mstore\n      swap2\n      0x20\n      add\n      swap2\n      jump(tag_234)\n    tag_235:\n      dup3\n      add\n      swap2\n      swap1\n      0x00\n      mstore\n      keccak256(0x00, 0x20)\n      swap1\n    tag_236:\n      dup2\n      sload\n      dup2\n      mstore\n      swap1\n      0x01\n      add\n      swap1\n      0x20\n      add\n      dup1\n      dup4\n      gt\n      tag_236\n      jumpi\n      dup3\n      swap1\n      sub\n      0x1f\n      and\n      dup3\n      add\n      swap2\n    tag_234:\n      pop\n      pop\n      pop\n      pop\n      pop\n      swap5\n      pop\n      dup4\n      dup1\n      sload\n      tag_237\n      swap1\n      tag_226\n      jump\t// in\n    tag_237:\n      dup1\n      0x1f\n      add\n      0x20\n      dup1\n      swap2\n      div\n      mul\n      0x20\n      add\n      mload(0x40)\n      swap1\n      dup2\n      add\n      0x40\n      mstore\n      dup1\n      swap3\n      swap2\n      swap1\n      dup2\n      dup2\n      mstore\n      0x20\n      add\n      dup3\n      dup1\n      sload\n      tag_238\n      swap1\n      tag_226\n      jump\t// in\n    tag_238:\n      dup1\n      iszero\n      tag_239\n      jumpi\n      dup1\n      0x1f\n      lt\n      tag_240\n      jumpi\n      0x0100\n      dup1\n      dup4\n      sload\n      div\n      mul\n      dup4\n      mstore\n      swap2\n      0x20\n      add\n      swap2\n      jump(tag_239)\n    tag_240:\n      dup3\n      add\n      swap2\n      swap1\n      0x00\n      mstore\n      keccak256(0x00, 0x20)\n      swap1\n    tag_241:\n      dup2\n      sload\n      dup2\n      mstore\n      swap1\n      0x01\n      add\n      swap1\n      0x20\n      add\n      dup1\n      dup4\n      gt\n      tag_241\n      jumpi\n      dup3\n      swap1\n      sub\n      0x1f\n      and\n      dup3\n      add\n      swap2\n    tag_239:\n      pop\n      pop\n      pop\n      pop\n      pop\n      swap4\n      pop\n      dup2\n      dup1\n      sload\n      dup1\n      0x20\n      mul\n      0x20\n      add\n      mload(0x40)\n      swap1\n      dup2\n      add\n      0x40\n      mstore\n      dup1\n      swap3\n      swap2\n      swap1\n      dup2\n      dup2\n      mstore\n      0x20\n      add\n      dup3\n      dup1\n      sload\n      dup1\n      iszero\n      tag_242\n      jumpi\n      0x20\n      mul\n      dup3\n      add\n      swap2\n      swap1\n      0x00\n      mstore\n      keccak256(0x00, 0x20)\n      swap1\n    tag_243:\n      dup2\n      0x00\n      swap1\n      sload\n      swap1\n      0x0100\n      exp\n      swap1\n      div\n      0xffffffffffffffffffffffffffffffffffffffff\n      and\n      0xffffffffffffffffffffffffffffffffffffffff\n      and\n      dup2\n      mstore\n      0x20\n      add\n      swap1\n      0x01\n      add\n      swap1\n      dup1\n      dup4\n      gt\n      tag_243\n      jumpi\n    tag_242:\n      pop\n      pop\n      pop\n      pop\n      pop\n      swap2\n      pop\n      swap10\n      pop\n      swap10\n      pop\n      swap10\n      pop\n      swap10\n      pop\n      swap10\n      pop\n      swap10\n      pop\n      swap10\n      pop\n      swap10\n      pop\n      swap10\n      pop\n      swap10\n      pop\n        /* \"Campaign.sol\":7660:8272  function getSummary()... */\n      swap1\n      swap2\n      swap3\n      swap4\n      swap5\n      swap6\n      swap7\n      swap8\n      swap9\n      swap10\n      jump\t// out\n        /* \"Campaign.sol\":951:973  address public manager */\n    tag_87:\n      0x01\n      0x00\n      swap1\n      sload\n      swap1\n      0x0100\n      exp\n      swap1\n      div\n      0xffffffffffffffffffffffffffffffffffffffff\n      and\n      dup2\n      jump\t// out\n        /* \"Campaign.sol\":6389:6467  function getStatus() public view returns (bool) {... */\n    tag_92:\n        /* \"Campaign.sol\":6431:6435  bool */\n      0x00\n        /* \"Campaign.sol\":6454:6460  closed */\n      0x0e\n      0x00\n      swap1\n      sload\n      swap1\n      0x0100\n      exp\n      swap1\n      div\n      0xff\n      and\n        /* \"Campaign.sol\":6447:6460  return closed */\n      swap1\n      pop\n        /* \"Campaign.sol\":6389:6467  function getStatus() public view returns (bool) {... */\n      swap1\n      jump\t// out\n        /* \"Campaign.sol\":1050:1079  string public dataDescription */\n    tag_96:\n      0x04\n      dup1\n      sload\n      tag_245\n      swap1\n      tag_226\n      jump\t// in\n    tag_245:\n      dup1\n      0x1f\n      add\n      0x20\n      dup1\n      swap2\n      div\n      mul\n      0x20\n      add\n      mload(0x40)\n      swap1\n      dup2\n      add\n      0x40\n      mstore\n      dup1\n      swap3\n      swap2\n      swap1\n      dup2\n      dup2\n      mstore\n      0x20\n      add\n      dup3\n      dup1\n      sload\n      tag_246\n      swap1\n      tag_226\n      jump\t// in\n    tag_246:\n      dup1\n      iszero\n      tag_247\n      jumpi\n      dup1\n      0x1f\n      lt\n      tag_248\n      jumpi\n      0x0100\n      dup1\n      dup4\n      sload\n      div\n      mul\n      dup4\n      mstore\n      swap2\n      0x20\n      add\n      swap2\n      jump(tag_247)\n    tag_248:\n      dup3\n      add\n      swap2\n      swap1\n      0x00\n      mstore\n      keccak256(0x00, 0x20)\n      swap1\n    tag_249:\n      dup2\n      sload\n      dup2\n      mstore\n      swap1\n      0x01\n      add\n      swap1\n      0x20\n      add\n      dup1\n      dup4\n      gt\n      tag_249\n      jumpi\n      dup3\n      swap1\n      sub\n      0x1f\n      and\n      dup3\n      add\n      swap2\n    tag_247:\n      pop\n      pop\n      pop\n      pop\n      pop\n      dup2\n      jump\t// out\n        /* \"Campaign.sol\":1420:1438  bool public closed */\n    tag_100:\n      0x0e\n      0x00\n      swap1\n      sload\n      swap1\n      0x0100\n      exp\n      swap1\n      div\n      0xff\n      and\n      dup2\n      jump\t// out\n        /* \"Campaign.sol\":1133:1182  mapping(address => uint256) public approversMoney */\n    tag_105:\n      mstore(0x20, 0x06)\n      dup1\n      0x00\n      mstore\n      keccak256(0x00, 0x40)\n      0x00\n      swap2\n      pop\n      swap1\n      pop\n      sload\n      dup2\n      jump\t// out\n        /* \"Campaign.sol\":8278:8827  function getListSummary()... */\n    tag_109:\n        /* \"Campaign.sol\":8362:8369  uint256 */\n      0x00\n        /* \"Campaign.sol\":8383:8390  uint256 */\n      0x00\n        /* \"Campaign.sol\":8404:8411  uint256 */\n      0x00\n        /* \"Campaign.sol\":8425:8432  address */\n      0x00\n        /* \"Campaign.sol\":8446:8453  uint256 */\n      0x00\n        /* \"Campaign.sol\":8467:8480  string memory */\n      0x60\n        /* \"Campaign.sol\":8494:8501  address */\n      0x00\n        /* \"Campaign.sol\":8515:8522  uint256 */\n      0x00\n        /* \"Campaign.sol\":8536:8540  bool */\n      0x00\n        /* \"Campaign.sol\":8586:8605  minimumContribution */\n      sload(0x02)\n        /* \"Campaign.sol\":8619:8640  address(this).balance */\n      selfbalance\n        /* \"Campaign.sol\":8654:8668  approversCount */\n      sload(0x07)\n        /* \"Campaign.sol\":8682:8689  manager */\n      0x01\n      0x00\n      swap1\n      sload\n      swap1\n      0x0100\n      exp\n      swap1\n      div\n      0xffffffffffffffffffffffffffffffffffffffff\n      and\n        /* \"Campaign.sol\":8703:8713  highestBid */\n      sload(0x0c)\n        /* \"Campaign.sol\":8727:8742  dataDescription */\n      0x04\n        /* \"Campaign.sol\":8756:8769  highestBidder */\n      0x0b\n      0x00\n      swap1\n      sload\n      swap1\n      0x0100\n      exp\n      swap1\n      div\n      0xffffffffffffffffffffffffffffffffffffffff\n      and\n        /* \"Campaign.sol\":8783:8790  endTime */\n      sload(0x0d)\n        /* \"Campaign.sol\":8804:8810  closed */\n      0x0e\n      0x00\n      swap1\n      sload\n      swap1\n      0x0100\n      exp\n      swap1\n      div\n      0xff\n      and\n        /* \"Campaign.sol\":8565:8820  return (... */\n      dup4\n      dup1\n      sload\n      tag_251\n      swap1\n      tag_226\n      jump\t// in\n    tag_251:\n      dup1\n      0x1f\n      add\n      0x20\n      dup1\n      swap2\n      div\n      mul\n      0x20\n      add\n      mload(0x40)\n      swap1\n      dup2\n      add\n      0x40\n      mstore\n      dup1\n      swap3\n      swap2\n      swap1\n      dup2\n      dup2\n      mstore\n      0x20\n      add\n      dup3\n      dup1\n      sload\n      tag_252\n      swap1\n      tag_226\n      jump\t// in\n    tag_252:\n      dup1\n      iszero\n      tag_253\n      jumpi\n      dup1\n      0x1f\n      lt\n      tag_254\n      jumpi\n      0x0100\n      dup1\n      dup4\n      sload\n      div\n      mul\n      dup4\n      mstore\n      swap2\n      0x20\n      add\n      swap2\n      jump(tag_253)\n    tag_254:\n      dup3\n      add\n      swap2\n      swap1\n      0x00\n      mstore\n      keccak256(0x00, 0x20)\n      swap1\n    tag_255:\n      dup2\n      sload\n      dup2\n      mstore\n      swap1\n      0x01\n      add\n      swap1\n      0x20\n      add\n      dup1\n      dup4\n      gt\n      tag_255\n      jumpi\n      dup3\n      swap1\n      sub\n      0x1f\n      and\n      dup3\n      add\n      swap2\n    tag_253:\n      pop\n      pop\n      pop\n      pop\n      pop\n      swap4\n      pop\n      swap9\n      pop\n      swap9\n      pop\n      swap9\n      pop\n      swap9\n      pop\n      swap9\n      pop\n      swap9\n      pop\n      swap9\n      pop\n      swap9\n      pop\n      swap9\n      pop\n        /* \"Campaign.sol\":8278:8827  function getListSummary()... */\n      swap1\n      swap2\n      swap3\n      swap4\n      swap5\n      swap6\n      swap7\n      swap8\n      swap9\n      jump\t// out\n        /* \"Campaign.sol\":1019:1044  string public dataForSell */\n    tag_114:\n      0x03\n      dup1\n      sload\n      tag_256\n      swap1\n      tag_226\n      jump\t// in\n    tag_256:\n      dup1\n      0x1f\n      add\n      0x20\n      dup1\n      swap2\n      div\n      mul\n      0x20\n      add\n      mload(0x40)\n      swap1\n      dup2\n      add\n      0x40\n      mstore\n      dup1\n      swap3\n      swap2\n      swap1\n      dup2\n      dup2\n      mstore\n      0x20\n      add\n      dup3\n      dup1\n      sload\n      tag_257\n      swap1\n      tag_226\n      jump\t// in\n    tag_257:\n      dup1\n      iszero\n      tag_258\n      jumpi\n      dup1\n      0x1f\n      lt\n      tag_259\n      jumpi\n      0x0100\n      dup1\n      dup4\n      sload\n      div\n      mul\n      dup4\n      mstore\n      swap2\n      0x20\n      add\n      swap2\n      jump(tag_258)\n    tag_259:\n      dup3\n      add\n      swap2\n      swap1\n      0x00\n      mstore\n      keccak256(0x00, 0x20)\n      swap1\n    tag_260:\n      dup2\n      sload\n      dup2\n      mstore\n      swap1\n      0x01\n      add\n      swap1\n      0x20\n      add\n      dup1\n      dup4\n      gt\n      tag_260\n      jumpi\n      dup3\n      swap1\n      sub\n      0x1f\n      and\n      dup3\n      add\n      swap2\n    tag_258:\n      pop\n      pop\n      pop\n      pop\n      pop\n      dup2\n      jump\t// out\n        /* \"Campaign.sol\":1188:1217  uint256 public approversCount */\n    tag_118:\n      sload(0x07)\n      dup2\n      jump\t// out\n        /* \"Campaign.sol\":6587:6685  function getTransactions() public view returns (Bid[] memory) {... */\n    tag_122:\n        /* \"Campaign.sol\":6635:6647  Bid[] memory */\n      0x60\n        /* \"Campaign.sol\":6666:6678  transactions */\n      0x09\n        /* \"Campaign.sol\":6659:6678  return transactions */\n      dup1\n      sload\n      dup1\n      0x20\n      mul\n      0x20\n      add\n      mload(0x40)\n      swap1\n      dup2\n      add\n      0x40\n      mstore\n      dup1\n      swap3\n      swap2\n      swap1\n      dup2\n      dup2\n      mstore\n      0x20\n      add\n      0x00\n      swap1\n    tag_262:\n      dup3\n      dup3\n      lt\n      iszero\n      tag_263\n      jumpi\n      dup4\n      dup3\n      swap1\n      0x00\n      mstore\n      keccak256(0x00, 0x20)\n      swap1\n      0x03\n      mul\n      add\n      mload(0x40)\n      dup1\n      0x60\n      add\n      0x40\n      mstore\n      swap1\n      dup2\n      0x00\n      dup3\n      add\n      sload\n      dup2\n      mstore\n      0x20\n      add\n      0x01\n      dup3\n      add\n      sload\n      dup2\n      mstore\n      0x20\n      add\n      0x02\n      dup3\n      add\n      0x00\n      swap1\n      sload\n      swap1\n      0x0100\n      exp\n      swap1\n      div\n      0xffffffffffffffffffffffffffffffffffffffff\n      and\n      0xffffffffffffffffffffffffffffffffffffffff\n      and\n      0xffffffffffffffffffffffffffffffffffffffff\n      and\n      dup2\n      mstore\n      pop\n      pop\n      dup2\n      mstore\n      0x20\n      add\n      swap1\n      0x01\n      add\n      swap1\n      jump(tag_262)\n    tag_263:\n      pop\n      pop\n      pop\n      pop\n      swap1\n      pop\n        /* \"Campaign.sol\":6587:6685  function getTransactions() public view returns (Bid[] memory) {... */\n      swap1\n      jump\t// out\n        /* \"Campaign.sol\":1287:1320  BidLedgerEntry[] public bidLedger */\n    tag_129:\n      0x0a\n      dup2\n      dup2\n      sload\n      dup2\n      lt\n      tag_265\n      jumpi\n      0x00\n      dup1\n      revert\n    tag_265:\n      swap1\n      0x00\n      mstore\n      keccak256(0x00, 0x20)\n      swap1\n      0x08\n      mul\n      add\n      0x00\n      swap2\n      pop\n      swap1\n      pop\n      dup1\n      0x00\n      add\n      sload\n      swap1\n      dup1\n      0x01\n      add\n      sload\n      swap1\n      dup1\n      0x02\n      add\n      0x00\n      swap1\n      sload\n      swap1\n      0x0100\n      exp\n      swap1\n      div\n      0xffffffffffffffffffffffffffffffffffffffff\n      and\n      swap1\n      dup1\n      0x03\n      add\n      sload\n      swap1\n      dup1\n      0x04\n      add\n      sload\n      swap1\n      dup1\n      0x05\n      add\n      sload\n      swap1\n      dup1\n      0x06\n      add\n      0x00\n      swap1\n      sload\n      swap1\n      0x0100\n      exp\n      swap1\n      div\n      0xffffffffffffffffffffffffffffffffffffffff\n      and\n      swap1\n      dup1\n      0x07\n      add\n      sload\n      swap1\n      pop\n      dup9\n      jump\t// out\n        /* \"Campaign.sol\":1327:1355  address public highestBidder */\n    tag_134:\n      0x0b\n      0x00\n      swap1\n      sload\n      swap1\n      0x0100\n      exp\n      swap1\n      div\n      0xffffffffffffffffffffffffffffffffffffffff\n      and\n      dup2\n      jump\t// out\n        /* \"Campaign.sol\":6801:6990  function getTransactionAt(uint256 index) public view returns (Bid memory) {... */\n    tag_139:\n        /* \"Campaign.sol\":6863:6873  Bid memory */\n      tag_267\n      tag_268\n      jump\t// in\n    tag_267:\n        /* \"Campaign.sol\":6901:6913  transactions */\n      0x09\n        /* \"Campaign.sol\":6901:6920  transactions.length */\n      dup1\n      sload\n      swap1\n      pop\n        /* \"Campaign.sol\":6893:6898  index */\n      dup3\n        /* \"Campaign.sol\":6893:6920  index < transactions.length */\n      lt\n        /* \"Campaign.sol\":6885:6947  require(index < transactions.length, \"Bid index out of range\") */\n      tag_270\n      jumpi\n      mload(0x40)\n      0x08c379a000000000000000000000000000000000000000000000000000000000\n      dup2\n      mstore\n      0x04\n      add\n      tag_271\n      swap1\n      tag_272\n      jump\t// in\n    tag_271:\n      mload(0x40)\n      dup1\n      swap2\n      sub\n      swap1\n      revert\n    tag_270:\n        /* \"Campaign.sol\":6964:6976  transactions */\n      0x09\n        /* \"Campaign.sol\":6977:6982  index */\n      dup3\n        /* \"Campaign.sol\":6964:6983  transactions[index] */\n      dup2\n      sload\n      dup2\n      lt\n      tag_273\n      jumpi\n      tag_274\n      tag_275\n      jump\t// in\n    tag_274:\n    tag_273:\n      swap1\n      0x00\n      mstore\n      keccak256(0x00, 0x20)\n      swap1\n      0x03\n      mul\n      add\n        /* \"Campaign.sol\":6957:6983  return transactions[index] */\n      mload(0x40)\n      dup1\n      0x60\n      add\n      0x40\n      mstore\n      swap1\n      dup2\n      0x00\n      dup3\n      add\n      sload\n      dup2\n      mstore\n      0x20\n      add\n      0x01\n      dup3\n      add\n      sload\n      dup2\n      mstore\n      0x20\n      add\n      0x02\n      dup3\n      add\n      0x00\n      swap1\n      sload\n      swap1\n      0x0100\n      exp\n      swap1\n      div\n      0xffffffffffffffffffffffffffffffffffffffff\n      and\n      0xffffffffffffffffffffffffffffffffffffffff\n      and\n      0xffffffffffffffffffffffffffffffffffffffff\n      and\n      dup2\n      mstore\n      pop\n      pop\n      swap1\n      pop\n        /* \"Campaign.sol\":6801:6990  function getTransactionAt(uint256 index) public view returns (Bid memory) {... */\n      swap2\n      swap1\n      pop\n      jump\t// out\n        /* \"Campaign.sol\":979:1013  uint256 public minimumContribution */\n    tag_144:\n      sload(0x02)\n      dup2\n      jump\t// out\n        /* \"Campaign.sol\":4461:5011  function finalizeAuctionIfNeeded() public onlyAfterEnd {... */\n    tag_148:\n        /* \"Campaign.sol\":1652:1659  endTime */\n      sload(0x0d)\n        /* \"Campaign.sol\":1633:1648  block.timestamp */\n      timestamp\n        /* \"Campaign.sol\":1633:1659  block.timestamp >= endTime */\n      lt\n      iszero\n        /* \"Campaign.sol\":1625:1685  require(block.timestamp >= endTime, \"Auction not ended yet\") */\n      tag_278\n      jumpi\n      mload(0x40)\n      0x08c379a000000000000000000000000000000000000000000000000000000000\n      dup2\n      mstore\n      0x04\n      add\n      tag_279\n      swap1\n      tag_280\n      jump\t// in\n    tag_279:\n      mload(0x40)\n      dup1\n      swap2\n      sub\n      swap1\n      revert\n    tag_278:\n        /* \"Campaign.sol\":4535:4541  closed */\n      0x0e\n      0x00\n      swap1\n      sload\n      swap1\n      0x0100\n      exp\n      swap1\n      div\n      0xff\n      and\n        /* \"Campaign.sol\":4534:4541  !closed */\n      iszero\n        /* \"Campaign.sol\":4526:4571  require(!closed, \"Auction already finalized\") */\n      tag_282\n      jumpi\n      mload(0x40)\n      0x08c379a000000000000000000000000000000000000000000000000000000000\n      dup2\n      mstore\n      0x04\n      add\n      tag_283\n      swap1\n      tag_284\n      jump\t// in\n    tag_283:\n      mload(0x40)\n      dup1\n      swap2\n      sub\n      swap1\n      revert\n    tag_282:\n        /* \"Campaign.sol\":4591:4595  true */\n      0x01\n        /* \"Campaign.sol\":4582:4588  closed */\n      0x0e\n      0x00\n        /* \"Campaign.sol\":4582:4595  closed = true */\n      0x0100\n      exp\n      dup2\n      sload\n      dup2\n      0xff\n      mul\n      not\n      and\n      swap1\n      dup4\n      iszero\n      iszero\n      mul\n      or\n      swap1\n      sstore\n      pop\n        /* \"Campaign.sol\":4623:4624  0 */\n      0x00\n        /* \"Campaign.sol\":4610:4620  highestBid */\n      sload(0x0c)\n        /* \"Campaign.sol\":4610:4624  highestBid > 0 */\n      gt\n        /* \"Campaign.sol\":4606:5005  if (highestBid > 0) {... */\n      iszero\n      tag_285\n      jumpi\n        /* \"Campaign.sol\":4673:4683  highestBid */\n      sload(0x0c)\n        /* \"Campaign.sol\":4648:4669  address(this).balance */\n      selfbalance\n        /* \"Campaign.sol\":4648:4683  address(this).balance >= highestBid */\n      lt\n      iszero\n        /* \"Campaign.sol\":4640:4708  require(address(this).balance >= highestBid, \"Insufficient balance\") */\n      tag_286\n      jumpi\n      mload(0x40)\n      0x08c379a000000000000000000000000000000000000000000000000000000000\n      dup2\n      mstore\n      0x04\n      add\n      tag_287\n      swap1\n      tag_288\n      jump\t// in\n    tag_287:\n      mload(0x40)\n      dup1\n      swap2\n      sub\n      swap1\n      revert\n    tag_286:\n        /* \"Campaign.sol\":4754:4755  0 */\n      0x00\n        /* \"Campaign.sol\":4722:4736  approversMoney */\n      0x06\n        /* \"Campaign.sol\":4722:4751  approversMoney[highestBidder] */\n      0x00\n        /* \"Campaign.sol\":4737:4750  highestBidder */\n      0x0b\n      0x00\n      swap1\n      sload\n      swap1\n      0x0100\n      exp\n      swap1\n      div\n      0xffffffffffffffffffffffffffffffffffffffff\n      and\n        /* \"Campaign.sol\":4722:4751  approversMoney[highestBidder] */\n      0xffffffffffffffffffffffffffffffffffffffff\n      and\n      0xffffffffffffffffffffffffffffffffffffffff\n      and\n      dup2\n      mstore\n      0x20\n      add\n      swap1\n      dup2\n      mstore\n      0x20\n      add\n      0x00\n      keccak256\n        /* \"Campaign.sol\":4722:4755  approversMoney[highestBidder] = 0 */\n      dup2\n      swap1\n      sstore\n      pop\n        /* \"Campaign.sol\":4771:4780  bool sent */\n      0x00\n        /* \"Campaign.sol\":4794:4801  manager */\n      0x01\n      0x00\n      swap1\n      sload\n      swap1\n      0x0100\n      exp\n      swap1\n      div\n      0xffffffffffffffffffffffffffffffffffffffff\n      and\n        /* \"Campaign.sol\":4786:4807  payable(manager).call */\n      0xffffffffffffffffffffffffffffffffffffffff\n      and\n        /* \"Campaign.sol\":4815:4825  highestBid */\n      sload(0x0c)\n        /* \"Campaign.sol\":4786:4830  payable(manager).call{value: highestBid}(\"\") */\n      mload(0x40)\n      tag_289\n      swap1\n      tag_206\n      jump\t// in\n    tag_289:\n      0x00\n      mload(0x40)\n      dup1\n      dup4\n      sub\n      dup2\n      dup6\n      dup8\n      gas\n      call\n      swap3\n      pop\n      pop\n      pop\n      returndatasize\n      dup1\n      0x00\n      dup2\n      eq\n      tag_292\n      jumpi\n      mload(0x40)\n      swap2\n      pop\n      and(add(returndatasize, 0x3f), not(0x1f))\n      dup3\n      add\n      0x40\n      mstore\n      returndatasize\n      dup3\n      mstore\n      returndatasize\n      0x00\n      0x20\n      dup5\n      add\n      returndatacopy\n      jump(tag_291)\n    tag_292:\n      0x60\n      swap2\n      pop\n    tag_291:\n      pop\n        /* \"Campaign.sol\":4770:4830  (bool sent, ) = payable(manager).call{value: highestBid}(\"\") */\n      pop\n      swap1\n      pop\n        /* \"Campaign.sol\":4852:4856  sent */\n      dup1\n        /* \"Campaign.sol\":4844:4882  require(sent, \"Seller payment failed\") */\n      tag_293\n      jumpi\n      mload(0x40)\n      0x08c379a000000000000000000000000000000000000000000000000000000000\n      dup2\n      mstore\n      0x04\n      add\n      tag_294\n      swap1\n      tag_295\n      jump\t// in\n    tag_294:\n      mload(0x40)\n      dup1\n      swap2\n      sub\n      swap1\n      revert\n    tag_293:\n        /* \"Campaign.sol\":4897:4904  factory */\n      0x00\n      0x00\n      swap1\n      sload\n      swap1\n      0x0100\n      exp\n      swap1\n      div\n      0xffffffffffffffffffffffffffffffffffffffff\n      and\n        /* \"Campaign.sol\":4897:4917  factory.changeBudget */\n      0xffffffffffffffffffffffffffffffffffffffff\n      and\n      0x8dfac90c\n        /* \"Campaign.sol\":4918:4925  manager */\n      0x01\n      0x00\n      swap1\n      sload\n      swap1\n      0x0100\n      exp\n      swap1\n      div\n      0xffffffffffffffffffffffffffffffffffffffff\n      and\n        /* \"Campaign.sol\":4927:4937  highestBid */\n      sload(0x0c)\n        /* \"Campaign.sol\":4939:4943  true */\n      0x01\n        /* \"Campaign.sol\":4897:4944  factory.changeBudget(manager, highestBid, true) */\n      mload(0x40)\n      dup5\n      0xffffffff\n      and\n      0xe0\n      shl\n      dup2\n      mstore\n      0x04\n      add\n      tag_296\n      swap4\n      swap3\n      swap2\n      swap1\n      tag_297\n      jump\t// in\n    tag_296:\n      0x40\n      dup1\n      mload\n      dup1\n      dup4\n      sub\n      dup2\n      0x00\n      dup8\n      gas\n      call\n      iszero\n      dup1\n      iszero\n      tag_299\n      jumpi\n      returndatacopy(0x00, 0x00, returndatasize)\n      revert(0x00, returndatasize)\n    tag_299:\n      pop\n      pop\n      pop\n      pop\n      mload(0x40)\n      returndatasize\n      not(0x1f)\n      0x1f\n      dup3\n      add\n      and\n      dup3\n      add\n      dup1\n      0x40\n      mstore\n      pop\n      dup2\n      add\n      swap1\n      tag_300\n      swap2\n      swap1\n      tag_301\n      jump\t// in\n    tag_300:\n      pop\n      pop\n        /* \"Campaign.sol\":4974:4981  manager */\n      0x01\n      0x00\n      swap1\n      sload\n      swap1\n      0x0100\n      exp\n      swap1\n      div\n      0xffffffffffffffffffffffffffffffffffffffff\n      and\n        /* \"Campaign.sol\":4963:4994  SellerPaid(manager, highestBid) */\n      0xffffffffffffffffffffffffffffffffffffffff\n      and\n      0xcb4a9094da4df77fb2c0dbaa5047660b1237e61d82a02176c1be74ca757f2531\n        /* \"Campaign.sol\":4983:4993  highestBid */\n      sload(0x0c)\n        /* \"Campaign.sol\":4963:4994  SellerPaid(manager, highestBid) */\n      mload(0x40)\n      tag_302\n      swap2\n      swap1\n      tag_52\n      jump\t// in\n    tag_302:\n      mload(0x40)\n      dup1\n      swap2\n      sub\n      swap1\n      log2\n        /* \"Campaign.sol\":4626:5005  {... */\n      pop\n        /* \"Campaign.sol\":4606:5005  if (highestBid > 0) {... */\n    tag_285:\n        /* \"Campaign.sol\":4461:5011  function finalizeAuctionIfNeeded() public onlyAfterEnd {... */\n      jump\t// out\n        /* \"Campaign.sol\":1256:1281  Bid[] public transactions */\n    tag_152:\n      0x09\n      dup2\n      dup2\n      sload\n      dup2\n      lt\n      tag_303\n      jumpi\n      0x00\n      dup1\n      revert\n    tag_303:\n      swap1\n      0x00\n      mstore\n      keccak256(0x00, 0x20)\n      swap1\n      0x03\n      mul\n      add\n      0x00\n      swap2\n      pop\n      swap1\n      pop\n      dup1\n      0x00\n      add\n      sload\n      swap1\n      dup1\n      0x01\n      add\n      sload\n      swap1\n      dup1\n      0x02\n      add\n      0x00\n      swap1\n      sload\n      swap1\n      0x0100\n      exp\n      swap1\n      div\n      0xffffffffffffffffffffffffffffffffffffffff\n      and\n      swap1\n      pop\n      dup4\n      jump\t// out\n        /* \"Campaign.sol\":7558:7654  function getAddresses() public view returns (address[] memory) {... */\n    tag_157:\n        /* \"Campaign.sol\":7603:7619  address[] memory */\n      0x60\n        /* \"Campaign.sol\":7638:7647  addresses */\n      0x08\n        /* \"Campaign.sol\":7631:7647  return addresses */\n      dup1\n      sload\n      dup1\n      0x20\n      mul\n      0x20\n      add\n      mload(0x40)\n      swap1\n      dup2\n      add\n      0x40\n      mstore\n      dup1\n      swap3\n      swap2\n      swap1\n      dup2\n      dup2\n      mstore\n      0x20\n      add\n      dup3\n      dup1\n      sload\n      dup1\n      iszero\n      tag_306\n      jumpi\n      0x20\n      mul\n      dup3\n      add\n      swap2\n      swap1\n      0x00\n      mstore\n      keccak256(0x00, 0x20)\n      swap1\n    tag_307:\n      dup2\n      0x00\n      swap1\n      sload\n      swap1\n      0x0100\n      exp\n      swap1\n      div\n      0xffffffffffffffffffffffffffffffffffffffff\n      and\n      0xffffffffffffffffffffffffffffffffffffffff\n      and\n      dup2\n      mstore\n      0x20\n      add\n      swap1\n      0x01\n      add\n      swap1\n      dup1\n      dup4\n      gt\n      tag_307\n      jumpi\n    tag_306:\n      pop\n      pop\n      pop\n      pop\n      pop\n      swap1\n      pop\n        /* \"Campaign.sol\":7558:7654  function getAddresses() public view returns (address[] memory) {... */\n      swap1\n      jump\t// out\n        /* \"Campaign.sol\":7105:7325  function getBidLedgerAt(uint256 index)... */\n    tag_163:\n        /* \"Campaign.sol\":7189:7210  BidLedgerEntry memory */\n      tag_308\n      tag_309\n      jump\t// in\n    tag_308:\n        /* \"Campaign.sol\":7242:7251  bidLedger */\n      0x0a\n        /* \"Campaign.sol\":7242:7258  bidLedger.length */\n      dup1\n      sload\n      swap1\n      pop\n        /* \"Campaign.sol\":7234:7239  index */\n      dup3\n        /* \"Campaign.sol\":7234:7258  index < bidLedger.length */\n      lt\n        /* \"Campaign.sol\":7226:7285  require(index < bidLedger.length, \"Bid index out of range\") */\n      tag_311\n      jumpi\n      mload(0x40)\n      0x08c379a000000000000000000000000000000000000000000000000000000000\n      dup2\n      mstore\n      0x04\n      add\n      tag_312\n      swap1\n      tag_272\n      jump\t// in\n    tag_312:\n      mload(0x40)\n      dup1\n      swap2\n      sub\n      swap1\n      revert\n    tag_311:\n        /* \"Campaign.sol\":7302:7311  bidLedger */\n      0x0a\n        /* \"Campaign.sol\":7312:7317  index */\n      dup3\n        /* \"Campaign.sol\":7302:7318  bidLedger[index] */\n      dup2\n      sload\n      dup2\n      lt\n      tag_313\n      jumpi\n      tag_314\n      tag_275\n      jump\t// in\n    tag_314:\n    tag_313:\n      swap1\n      0x00\n      mstore\n      keccak256(0x00, 0x20)\n      swap1\n      0x08\n      mul\n      add\n        /* \"Campaign.sol\":7295:7318  return bidLedger[index] */\n      mload(0x40)\n      dup1\n      0x0100\n      add\n      0x40\n      mstore\n      swap1\n      dup2\n      0x00\n      dup3\n      add\n      sload\n      dup2\n      mstore\n      0x20\n      add\n      0x01\n      dup3\n      add\n      sload\n      dup2\n      mstore\n      0x20\n      add\n      0x02\n      dup3\n      add\n      0x00\n      swap1\n      sload\n      swap1\n      0x0100\n      exp\n      swap1\n      div\n      0xffffffffffffffffffffffffffffffffffffffff\n      and\n      0xffffffffffffffffffffffffffffffffffffffff\n      and\n      0xffffffffffffffffffffffffffffffffffffffff\n      and\n      dup2\n      mstore\n      0x20\n      add\n      0x03\n      dup3\n      add\n      sload\n      dup2\n      mstore\n      0x20\n      add\n      0x04\n      dup3\n      add\n      sload\n      dup2\n      mstore\n      0x20\n      add\n      0x05\n      dup3\n      add\n      sload\n      dup2\n      mstore\n      0x20\n      add\n      0x06\n      dup3\n      add\n      0x00\n      swap1\n      sload\n      swap1\n      0x0100\n      exp\n      swap1\n      div\n      0xffffffffffffffffffffffffffffffffffffffff\n      and\n      0xffffffffffffffffffffffffffffffffffffffff\n      and\n      0xffffffffffffffffffffffffffffffffffffffff\n      and\n      dup2\n      mstore\n      0x20\n      add\n      0x07\n      dup3\n      add\n      sload\n      dup2\n      mstore\n      pop\n      pop\n      swap1\n      pop\n        /* \"Campaign.sol\":7105:7325  function getBidLedgerAt(uint256 index)... */\n      swap2\n      swap1\n      pop\n      jump\t// out\n        /* \"Campaign.sol\":82:112  CampaignFactory public factory */\n    tag_168:\n      0x00\n      0x00\n      swap1\n      sload\n      swap1\n      0x0100\n      exp\n      swap1\n      div\n      0xffffffffffffffffffffffffffffffffffffffff\n      and\n      dup2\n      jump\t// out\n        /* \"Campaign.sol\":5515:6383  function processRefunds(uint256 maxRefunds) public {... */\n    tag_174:\n        /* \"Campaign.sol\":5584:5590  closed */\n      0x0e\n      0x00\n      swap1\n      sload\n      swap1\n      0x0100\n      exp\n      swap1\n      div\n      0xff\n      and\n        /* \"Campaign.sol\":5576:5616  require(closed, \"Auction not finalized\") */\n      tag_317\n      jumpi\n      mload(0x40)\n      0x08c379a000000000000000000000000000000000000000000000000000000000\n      dup2\n      mstore\n      0x04\n      add\n      tag_318\n      swap1\n      tag_198\n      jump\t// in\n    tag_318:\n      mload(0x40)\n      dup1\n      swap2\n      sub\n      swap1\n      revert\n    tag_317:\n        /* \"Campaign.sol\":5647:5648  0 */\n      0x00\n        /* \"Campaign.sol\":5634:5644  maxRefunds */\n      dup2\n        /* \"Campaign.sol\":5634:5648  maxRefunds > 0 */\n      gt\n        /* \"Campaign.sol\":5626:5672  require(maxRefunds > 0, \"Batch size required\") */\n      tag_319\n      jumpi\n      mload(0x40)\n      0x08c379a000000000000000000000000000000000000000000000000000000000\n      dup2\n      mstore\n      0x04\n      add\n      tag_320\n      swap1\n      tag_321\n      jump\t// in\n    tag_320:\n      mload(0x40)\n      dup1\n      swap2\n      sub\n      swap1\n      revert\n    tag_319:\n        /* \"Campaign.sol\":5683:5700  uint256 processed */\n      0x00\n        /* \"Campaign.sol\":5703:5704  0 */\n      0x00\n        /* \"Campaign.sol\":5683:5704  uint256 processed = 0 */\n      swap1\n      pop\n        /* \"Campaign.sol\":5715:6377  while (nextRefundIndex < addresses.length && processed < maxRefunds) {... */\n    tag_322:\n        /* \"Campaign.sol\":5740:5749  addresses */\n      0x08\n        /* \"Campaign.sol\":5740:5756  addresses.length */\n      dup1\n      sload\n      swap1\n      pop\n        /* \"Campaign.sol\":5722:5737  nextRefundIndex */\n      sload(0x0f)\n        /* \"Campaign.sol\":5722:5756  nextRefundIndex < addresses.length */\n      lt\n        /* \"Campaign.sol\":5722:5782  nextRefundIndex < addresses.length && processed < maxRefunds */\n      dup1\n      iszero\n      tag_324\n      jumpi\n      pop\n        /* \"Campaign.sol\":5772:5782  maxRefunds */\n      dup2\n        /* \"Campaign.sol\":5760:5769  processed */\n      dup2\n        /* \"Campaign.sol\":5760:5782  processed < maxRefunds */\n      lt\n        /* \"Campaign.sol\":5722:5782  nextRefundIndex < addresses.length && processed < maxRefunds */\n    tag_324:\n        /* \"Campaign.sol\":5715:6377  while (nextRefundIndex < addresses.length && processed < maxRefunds) {... */\n      iszero\n      tag_323\n      jumpi\n        /* \"Campaign.sol\":5798:5817  address contributor */\n      0x00\n        /* \"Campaign.sol\":5820:5829  addresses */\n      0x08\n        /* \"Campaign.sol\":5830:5845  nextRefundIndex */\n      sload(0x0f)\n        /* \"Campaign.sol\":5820:5846  addresses[nextRefundIndex] */\n      dup2\n      sload\n      dup2\n      lt\n      tag_325\n      jumpi\n      tag_326\n      tag_275\n      jump\t// in\n    tag_326:\n    tag_325:\n      swap1\n      0x00\n      mstore\n      keccak256(0x00, 0x20)\n      add\n      0x00\n      swap1\n      sload\n      swap1\n      0x0100\n      exp\n      swap1\n      div\n      0xffffffffffffffffffffffffffffffffffffffff\n      and\n        /* \"Campaign.sol\":5798:5846  address contributor = addresses[nextRefundIndex] */\n      swap1\n      pop\n        /* \"Campaign.sol\":5860:5875  nextRefundIndex */\n      0x0f\n      0x00\n        /* \"Campaign.sol\":5860:5877  nextRefundIndex++ */\n      dup2\n      sload\n      dup1\n      swap3\n      swap2\n      swap1\n      tag_328\n      swap1\n      tag_329\n      jump\t// in\n    tag_328:\n      swap2\n      swap1\n      pop\n      sstore\n      pop\n        /* \"Campaign.sol\":5911:5924  highestBidder */\n      0x0b\n      0x00\n      swap1\n      sload\n      swap1\n      0x0100\n      exp\n      swap1\n      div\n      0xffffffffffffffffffffffffffffffffffffffff\n      and\n        /* \"Campaign.sol\":5896:5924  contributor == highestBidder */\n      0xffffffffffffffffffffffffffffffffffffffff\n      and\n        /* \"Campaign.sol\":5896:5907  contributor */\n      dup2\n        /* \"Campaign.sol\":5896:5924  contributor == highestBidder */\n      0xffffffffffffffffffffffffffffffffffffffff\n      and\n      sub\n        /* \"Campaign.sol\":5892:5967  if (contributor == highestBidder) {... */\n      tag_330\n      jumpi\n        /* \"Campaign.sol\":5944:5952  continue */\n      pop\n      jump(tag_322)\n        /* \"Campaign.sol\":5892:5967  if (contributor == highestBidder) {... */\n    tag_330:\n        /* \"Campaign.sol\":5981:6001  uint256 refundAmount */\n      0x00\n        /* \"Campaign.sol\":6004:6018  approversMoney */\n      0x06\n        /* \"Campaign.sol\":6004:6031  approversMoney[contributor] */\n      0x00\n        /* \"Campaign.sol\":6019:6030  contributor */\n      dup4\n        /* \"Campaign.sol\":6004:6031  approversMoney[contributor] */\n      0xffffffffffffffffffffffffffffffffffffffff\n      and\n      0xffffffffffffffffffffffffffffffffffffffff\n      and\n      dup2\n      mstore\n      0x20\n      add\n      swap1\n      dup2\n      mstore\n      0x20\n      add\n      0x00\n      keccak256\n      sload\n        /* \"Campaign.sol\":5981:6031  uint256 refundAmount = approversMoney[contributor] */\n      swap1\n      pop\n        /* \"Campaign.sol\":6065:6066  0 */\n      0x00\n        /* \"Campaign.sol\":6049:6061  refundAmount */\n      dup2\n        /* \"Campaign.sol\":6049:6066  refundAmount == 0 */\n      sub\n        /* \"Campaign.sol\":6045:6109  if (refundAmount == 0) {... */\n      tag_331\n      jumpi\n        /* \"Campaign.sol\":6086:6094  continue */\n      pop\n      pop\n      jump(tag_322)\n        /* \"Campaign.sol\":6045:6109  if (refundAmount == 0) {... */\n    tag_331:\n        /* \"Campaign.sol\":6153:6154  0 */\n      0x00\n        /* \"Campaign.sol\":6123:6137  approversMoney */\n      0x06\n        /* \"Campaign.sol\":6123:6150  approversMoney[contributor] */\n      0x00\n        /* \"Campaign.sol\":6138:6149  contributor */\n      dup5\n        /* \"Campaign.sol\":6123:6150  approversMoney[contributor] */\n      0xffffffffffffffffffffffffffffffffffffffff\n      and\n      0xffffffffffffffffffffffffffffffffffffffff\n      and\n      dup2\n      mstore\n      0x20\n      add\n      swap1\n      dup2\n      mstore\n      0x20\n      add\n      0x00\n      keccak256\n        /* \"Campaign.sol\":6123:6154  approversMoney[contributor] = 0 */\n      dup2\n      swap1\n      sstore\n      pop\n        /* \"Campaign.sol\":6170:6179  bool sent */\n      0x00\n        /* \"Campaign.sol\":6193:6204  contributor */\n      dup3\n        /* \"Campaign.sol\":6185:6210  payable(contributor).call */\n      0xffffffffffffffffffffffffffffffffffffffff\n      and\n        /* \"Campaign.sol\":6218:6230  refundAmount */\n      dup3\n        /* \"Campaign.sol\":6185:6235  payable(contributor).call{value: refundAmount}(\"\") */\n      mload(0x40)\n      tag_332\n      swap1\n      tag_206\n      jump\t// in\n    tag_332:\n      0x00\n      mload(0x40)\n      dup1\n      dup4\n      sub\n      dup2\n      dup6\n      dup8\n      gas\n      call\n      swap3\n      pop\n      pop\n      pop\n      returndatasize\n      dup1\n      0x00\n      dup2\n      eq\n      tag_335\n      jumpi\n      mload(0x40)\n      swap2\n      pop\n      and(add(returndatasize, 0x3f), not(0x1f))\n      dup3\n      add\n      0x40\n      mstore\n      returndatasize\n      dup3\n      mstore\n      returndatasize\n      0x00\n      0x20\n      dup5\n      add\n      returndatacopy\n      jump(tag_334)\n    tag_335:\n      0x60\n      swap2\n      pop\n    tag_334:\n      pop\n        /* \"Campaign.sol\":6169:6235  (bool sent, ) = payable(contributor).call{value: refundAmount}(\"\") */\n      pop\n      swap1\n      pop\n        /* \"Campaign.sol\":6257:6261  sent */\n      dup1\n        /* \"Campaign.sol\":6249:6279  require(sent, \"Refund failed\") */\n      tag_336\n      jumpi\n      mload(0x40)\n      0x08c379a000000000000000000000000000000000000000000000000000000000\n      dup2\n      mstore\n      0x04\n      add\n      tag_337\n      swap1\n      tag_212\n      jump\t// in\n    tag_337:\n      mload(0x40)\n      dup1\n      swap2\n      sub\n      swap1\n      revert\n    tag_336:\n        /* \"Campaign.sol\":6315:6326  contributor */\n      dup3\n        /* \"Campaign.sol\":6299:6341  RefundProcessed(contributor, refundAmount) */\n      0xffffffffffffffffffffffffffffffffffffffff\n      and\n      0x3367befd2b2f39615cd79917c2153263c4af1d3945ec003e5d5bfc13a8d85833\n        /* \"Campaign.sol\":6328:6340  refundAmount */\n      dup4\n        /* \"Campaign.sol\":6299:6341  RefundProcessed(contributor, refundAmount) */\n      mload(0x40)\n      tag_338\n      swap2\n      swap1\n      tag_52\n      jump\t// in\n    tag_338:\n      mload(0x40)\n      dup1\n      swap2\n      sub\n      swap1\n      log2\n        /* \"Campaign.sol\":6355:6366  processed++ */\n      dup4\n      dup1\n      tag_339\n      swap1\n      tag_329\n      jump\t// in\n    tag_339:\n      swap5\n      pop\n      pop\n        /* \"Campaign.sol\":5784:6377  {... */\n      pop\n      pop\n      pop\n        /* \"Campaign.sol\":5715:6377  while (nextRefundIndex < addresses.length && processed < maxRefunds) {... */\n      jump(tag_322)\n    tag_323:\n        /* \"Campaign.sol\":5566:6383  {... */\n      pop\n        /* \"Campaign.sol\":5515:6383  function processRefunds(uint256 maxRefunds) public {... */\n      pop\n      jump\t// out\n        /* \"Campaign.sol\":6473:6581  function getBid(address bidder) public view returns (uint256) {... */\n    tag_178:\n        /* \"Campaign.sol\":6526:6533  uint256 */\n      0x00\n        /* \"Campaign.sol\":6552:6566  approversMoney */\n      0x06\n        /* \"Campaign.sol\":6552:6574  approversMoney[bidder] */\n      0x00\n        /* \"Campaign.sol\":6567:6573  bidder */\n      dup4\n        /* \"Campaign.sol\":6552:6574  approversMoney[bidder] */\n      0xffffffffffffffffffffffffffffffffffffffff\n      and\n      0xffffffffffffffffffffffffffffffffffffffff\n      and\n      dup2\n      mstore\n      0x20\n      add\n      swap1\n      dup2\n      mstore\n      0x20\n      add\n      0x00\n      keccak256\n      sload\n        /* \"Campaign.sol\":6545:6574  return approversMoney[bidder] */\n      swap1\n      pop\n        /* \"Campaign.sol\":6473:6581  function getBid(address bidder) public view returns (uint256) {... */\n      swap2\n      swap1\n      pop\n      jump\t// out\n        /* \"Campaign.sol\":1361:1386  uint256 public highestBid */\n    tag_182:\n      sload(0x0c)\n      dup2\n      jump\t// out\n        /* \"Campaign.sol\":2149:4455  function contribute() public payable onlyBeforeEnd {... */\n    tag_185:\n        /* \"Campaign.sol\":1542:1549  endTime */\n      sload(0x0d)\n        /* \"Campaign.sol\":1524:1539  block.timestamp */\n      timestamp\n        /* \"Campaign.sol\":1524:1549  block.timestamp < endTime */\n      lt\n        /* \"Campaign.sol\":1516:1567  require(block.timestamp < endTime, \"Auction ended\") */\n      tag_342\n      jumpi\n      mload(0x40)\n      0x08c379a000000000000000000000000000000000000000000000000000000000\n      dup2\n      mstore\n      0x04\n      add\n      tag_343\n      swap1\n      tag_344\n      jump\t// in\n    tag_343:\n      mload(0x40)\n      dup1\n      swap2\n      sub\n      swap1\n      revert\n    tag_342:\n        /* \"Campaign.sol\":2232:2239  manager */\n      0x01\n      0x00\n      swap1\n      sload\n      swap1\n      0x0100\n      exp\n      swap1\n      div\n      0xffffffffffffffffffffffffffffffffffffffff\n      and\n        /* \"Campaign.sol\":2218:2239  msg.sender != manager */\n      0xffffffffffffffffffffffffffffffffffffffff\n      and\n        /* \"Campaign.sol\":2218:2228  msg.sender */\n      caller\n        /* \"Campaign.sol\":2218:2239  msg.sender != manager */\n      0xffffffffffffffffffffffffffffffffffffffff\n      and\n      sub\n        /* \"Campaign.sol\":2210:2277  require(msg.sender != manager, \"You can't bid on your own auction\") */\n      tag_346\n      jumpi\n      mload(0x40)\n      0x08c379a000000000000000000000000000000000000000000000000000000000\n      dup2\n      mstore\n      0x04\n      add\n      tag_347\n      swap1\n      tag_348\n      jump\t// in\n    tag_347:\n      mload(0x40)\n      dup1\n      swap2\n      sub\n      swap1\n      revert\n    tag_346:\n        /* \"Campaign.sol\":2307:2308  0 */\n      0x00\n        /* \"Campaign.sol\":2295:2304  msg.value */\n      callvalue\n        /* \"Campaign.sol\":2295:2308  msg.value > 0 */\n      gt\n        /* \"Campaign.sol\":2287:2333  require(msg.value > 0, \"Must send some ether\") */\n      tag_349\n      jumpi\n      mload(0x40)\n      0x08c379a000000000000000000000000000000000000000000000000000000000\n      dup2\n      mstore\n      0x04\n      add\n      tag_350\n      swap1\n      tag_351\n      jump\t// in\n    tag_350:\n      mload(0x40)\n      dup1\n      swap2\n      sub\n      swap1\n      revert\n    tag_349:\n        /* \"Campaign.sol\":2344:2360  uint256 previous */\n      0x00\n        /* \"Campaign.sol\":2363:2377  approversMoney */\n      0x06\n        /* \"Campaign.sol\":2363:2389  approversMoney[msg.sender] */\n      0x00\n        /* \"Campaign.sol\":2378:2388  msg.sender */\n      caller\n        /* \"Campaign.sol\":2363:2389  approversMoney[msg.sender] */\n      0xffffffffffffffffffffffffffffffffffffffff\n      and\n      0xffffffffffffffffffffffffffffffffffffffff\n      and\n      dup2\n      mstore\n      0x20\n      add\n      swap1\n      dup2\n      mstore\n      0x20\n      add\n      0x00\n      keccak256\n      sload\n        /* \"Campaign.sol\":2344:2389  uint256 previous = approversMoney[msg.sender] */\n      swap1\n      pop\n        /* \"Campaign.sol\":2399:2415  uint256 newTotal */\n      0x00\n        /* \"Campaign.sol\":2429:2438  msg.value */\n      callvalue\n        /* \"Campaign.sol\":2418:2426  previous */\n      dup3\n        /* \"Campaign.sol\":2418:2438  previous + msg.value */\n      tag_352\n      swap2\n      swap1\n      tag_353\n      jump\t// in\n    tag_352:\n        /* \"Campaign.sol\":2399:2438  uint256 newTotal = previous + msg.value */\n      swap1\n      pop\n        /* \"Campaign.sol\":2448:2474  uint256 previousHighestBid */\n      0x00\n        /* \"Campaign.sol\":2477:2487  highestBid */\n      sload(0x0c)\n        /* \"Campaign.sol\":2448:2487  uint256 previousHighestBid = highestBid */\n      swap1\n      pop\n        /* \"Campaign.sol\":2497:2526  address previousHighestBidder */\n      0x00\n        /* \"Campaign.sol\":2529:2542  highestBidder */\n      0x0b\n      0x00\n      swap1\n      sload\n      swap1\n      0x0100\n      exp\n      swap1\n      div\n      0xffffffffffffffffffffffffffffffffffffffff\n      and\n        /* \"Campaign.sol\":2497:2542  address previousHighestBidder = highestBidder */\n      swap1\n      pop\n        /* \"Campaign.sol\":2552:2572  uint256 budgetBefore */\n      0x00\n        /* \"Campaign.sol\":2582:2601  uint256 budgetAfter */\n      0x00\n        /* \"Campaign.sol\":2641:2642  0 */\n      0x00\n        /* \"Campaign.sol\":2616:2643  highestBidder == address(0) */\n      0xffffffffffffffffffffffffffffffffffffffff\n      and\n        /* \"Campaign.sol\":2616:2629  highestBidder */\n      0x0b\n      0x00\n      swap1\n      sload\n      swap1\n      0x0100\n      exp\n      swap1\n      div\n      0xffffffffffffffffffffffffffffffffffffffff\n      and\n        /* \"Campaign.sol\":2616:2643  highestBidder == address(0) */\n      0xffffffffffffffffffffffffffffffffffffffff\n      and\n      sub\n        /* \"Campaign.sol\":2612:3488  if (highestBidder == address(0)) {... */\n      tag_354\n      jumpi\n        /* \"Campaign.sol\":2679:2698  minimumContribution */\n      sload(0x02)\n        /* \"Campaign.sol\":2667:2675  newTotal */\n      dup6\n        /* \"Campaign.sol\":2667:2698  newTotal >= minimumContribution */\n      lt\n      iszero\n        /* \"Campaign.sol\":2659:2720  require(newTotal >= minimumContribution, \"Below minimum bid\") */\n      tag_355\n      jumpi\n      mload(0x40)\n      0x08c379a000000000000000000000000000000000000000000000000000000000\n      dup2\n      mstore\n      0x04\n      add\n      tag_356\n      swap1\n      tag_357\n      jump\t// in\n    tag_356:\n      mload(0x40)\n      dup1\n      swap2\n      sub\n      swap1\n      revert\n    tag_355:\n        /* \"Campaign.sol\":2764:2771  factory */\n      0x00\n      0x00\n      swap1\n      sload\n      swap1\n      0x0100\n      exp\n      swap1\n      div\n      0xffffffffffffffffffffffffffffffffffffffff\n      and\n        /* \"Campaign.sol\":2764:2784  factory.changeBudget */\n      0xffffffffffffffffffffffffffffffffffffffff\n      and\n      0x8dfac90c\n        /* \"Campaign.sol\":2802:2812  msg.sender */\n      caller\n        /* \"Campaign.sol\":2830:2839  msg.value */\n      callvalue\n        /* \"Campaign.sol\":2857:2862  false */\n      0x00\n        /* \"Campaign.sol\":2764:2876  factory.changeBudget(... */\n      mload(0x40)\n      dup5\n      0xffffffff\n      and\n      0xe0\n      shl\n      dup2\n      mstore\n      0x04\n      add\n      tag_358\n      swap4\n      swap3\n      swap2\n      swap1\n      tag_297\n      jump\t// in\n    tag_358:\n      0x40\n      dup1\n      mload\n      dup1\n      dup4\n      sub\n      dup2\n      0x00\n      dup8\n      gas\n      call\n      iszero\n      dup1\n      iszero\n      tag_360\n      jumpi\n      returndatacopy(0x00, 0x00, returndatasize)\n      revert(0x00, returndatasize)\n    tag_360:\n      pop\n      pop\n      pop\n      pop\n      mload(0x40)\n      returndatasize\n      not(0x1f)\n      0x1f\n      dup3\n      add\n      and\n      dup3\n      add\n      dup1\n      0x40\n      mstore\n      pop\n      dup2\n      add\n      swap1\n      tag_361\n      swap2\n      swap1\n      tag_301\n      jump\t// in\n    tag_361:\n        /* \"Campaign.sol\":2734:2876  (budgetBefore, budgetAfter) = factory.changeBudget(... */\n      dup1\n      swap3\n      pop\n      dup2\n      swap4\n      pop\n      pop\n      pop\n        /* \"Campaign.sol\":2612:3488  if (highestBidder == address(0)) {... */\n      jump(tag_362)\n    tag_354:\n        /* \"Campaign.sol\":2926:2936  highestBid */\n      sload(0x0c)\n        /* \"Campaign.sol\":2915:2923  newTotal */\n      dup6\n        /* \"Campaign.sol\":2915:2936  newTotal > highestBid */\n      gt\n        /* \"Campaign.sol\":2907:2972  require(newTotal > highestBid, \"Bid must exceed current highest\") */\n      tag_363\n      jumpi\n      mload(0x40)\n      0x08c379a000000000000000000000000000000000000000000000000000000000\n      dup2\n      mstore\n      0x04\n      add\n      tag_364\n      swap1\n      tag_365\n      jump\t// in\n    tag_364:\n      mload(0x40)\n      dup1\n      swap2\n      sub\n      swap1\n      revert\n    tag_363:\n        /* \"Campaign.sol\":3005:3018  highestBidder */\n      0x0b\n      0x00\n      swap1\n      sload\n      swap1\n      0x0100\n      exp\n      swap1\n      div\n      0xffffffffffffffffffffffffffffffffffffffff\n      and\n        /* \"Campaign.sol\":2991:3018  msg.sender != highestBidder */\n      0xffffffffffffffffffffffffffffffffffffffff\n      and\n        /* \"Campaign.sol\":2991:3001  msg.sender */\n      caller\n        /* \"Campaign.sol\":2991:3018  msg.sender != highestBidder */\n      0xffffffffffffffffffffffffffffffffffffffff\n      and\n      eq\n        /* \"Campaign.sol\":2987:3478  if (msg.sender != highestBidder) {... */\n      tag_366\n      jumpi\n        /* \"Campaign.sol\":3038:3045  factory */\n      0x00\n      0x00\n      swap1\n      sload\n      swap1\n      0x0100\n      exp\n      swap1\n      div\n      0xffffffffffffffffffffffffffffffffffffffff\n      and\n        /* \"Campaign.sol\":3038:3058  factory.changeBudget */\n      0xffffffffffffffffffffffffffffffffffffffff\n      and\n      0x8dfac90c\n        /* \"Campaign.sol\":3059:3072  highestBidder */\n      0x0b\n      0x00\n      swap1\n      sload\n      swap1\n      0x0100\n      exp\n      swap1\n      div\n      0xffffffffffffffffffffffffffffffffffffffff\n      and\n        /* \"Campaign.sol\":3074:3084  highestBid */\n      sload(0x0c)\n        /* \"Campaign.sol\":3086:3090  true */\n      0x01\n        /* \"Campaign.sol\":3038:3091  factory.changeBudget(highestBidder, highestBid, true) */\n      mload(0x40)\n      dup5\n      0xffffffff\n      and\n      0xe0\n      shl\n      dup2\n      mstore\n      0x04\n      add\n      tag_367\n      swap4\n      swap3\n      swap2\n      swap1\n      tag_297\n      jump\t// in\n    tag_367:\n      0x40\n      dup1\n      mload\n      dup1\n      dup4\n      sub\n      dup2\n      0x00\n      dup8\n      gas\n      call\n      iszero\n      dup1\n      iszero\n      tag_369\n      jumpi\n      returndatacopy(0x00, 0x00, returndatasize)\n      revert(0x00, returndatasize)\n    tag_369:\n      pop\n      pop\n      pop\n      pop\n      mload(0x40)\n      returndatasize\n      not(0x1f)\n      0x1f\n      dup3\n      add\n      and\n      dup3\n      add\n      dup1\n      0x40\n      mstore\n      pop\n      dup2\n      add\n      swap1\n      tag_370\n      swap2\n      swap1\n      tag_301\n      jump\t// in\n    tag_370:\n      pop\n      pop\n        /* \"Campaign.sol\":3139:3146  factory */\n      0x00\n      0x00\n      swap1\n      sload\n      swap1\n      0x0100\n      exp\n      swap1\n      div\n      0xffffffffffffffffffffffffffffffffffffffff\n      and\n        /* \"Campaign.sol\":3139:3159  factory.changeBudget */\n      0xffffffffffffffffffffffffffffffffffffffff\n      and\n      0x8dfac90c\n        /* \"Campaign.sol\":3181:3191  msg.sender */\n      caller\n        /* \"Campaign.sol\":3213:3221  newTotal */\n      dup8\n        /* \"Campaign.sol\":3243:3248  false */\n      0x00\n        /* \"Campaign.sol\":3139:3266  factory.changeBudget(... */\n      mload(0x40)\n      dup5\n      0xffffffff\n      and\n      0xe0\n      shl\n      dup2\n      mstore\n      0x04\n      add\n      tag_371\n      swap4\n      swap3\n      swap2\n      swap1\n      tag_297\n      jump\t// in\n    tag_371:\n      0x40\n      dup1\n      mload\n      dup1\n      dup4\n      sub\n      dup2\n      0x00\n      dup8\n      gas\n      call\n      iszero\n      dup1\n      iszero\n      tag_373\n      jumpi\n      returndatacopy(0x00, 0x00, returndatasize)\n      revert(0x00, returndatasize)\n    tag_373:\n      pop\n      pop\n      pop\n      pop\n      mload(0x40)\n      returndatasize\n      not(0x1f)\n      0x1f\n      dup3\n      add\n      and\n      dup3\n      add\n      dup1\n      0x40\n      mstore\n      pop\n      dup2\n      add\n      swap1\n      tag_374\n      swap2\n      swap1\n      tag_301\n      jump\t// in\n    tag_374:\n        /* \"Campaign.sol\":3109:3266  (budgetBefore, budgetAfter) = factory.changeBudget(... */\n      dup1\n      swap3\n      pop\n      dup2\n      swap4\n      pop\n      pop\n      pop\n        /* \"Campaign.sol\":2987:3478  if (msg.sender != highestBidder) {... */\n      jump(tag_375)\n    tag_366:\n        /* \"Campaign.sol\":3335:3342  factory */\n      0x00\n      0x00\n      swap1\n      sload\n      swap1\n      0x0100\n      exp\n      swap1\n      div\n      0xffffffffffffffffffffffffffffffffffffffff\n      and\n        /* \"Campaign.sol\":3335:3355  factory.changeBudget */\n      0xffffffffffffffffffffffffffffffffffffffff\n      and\n      0x8dfac90c\n        /* \"Campaign.sol\":3377:3387  msg.sender */\n      caller\n        /* \"Campaign.sol\":3409:3418  msg.value */\n      callvalue\n        /* \"Campaign.sol\":3440:3445  false */\n      0x00\n        /* \"Campaign.sol\":3335:3463  factory.changeBudget(... */\n      mload(0x40)\n      dup5\n      0xffffffff\n      and\n      0xe0\n      shl\n      dup2\n      mstore\n      0x04\n      add\n      tag_376\n      swap4\n      swap3\n      swap2\n      swap1\n      tag_297\n      jump\t// in\n    tag_376:\n      0x40\n      dup1\n      mload\n      dup1\n      dup4\n      sub\n      dup2\n      0x00\n      dup8\n      gas\n      call\n      iszero\n      dup1\n      iszero\n      tag_378\n      jumpi\n      returndatacopy(0x00, 0x00, returndatasize)\n      revert(0x00, returndatasize)\n    tag_378:\n      pop\n      pop\n      pop\n      pop\n      mload(0x40)\n      returndatasize\n      not(0x1f)\n      0x1f\n      dup3\n      add\n      and\n      dup3\n      add\n      dup1\n      0x40\n      mstore\n      pop\n      dup2\n      add\n      swap1\n      tag_379\n      swap2\n      swap1\n      tag_301\n      jump\t// in\n    tag_379:\n        /* \"Campaign.sol\":3305:3463  (budgetBefore, budgetAfter) = factory.changeBudget(... */\n      dup1\n      swap3\n      pop\n      dup2\n      swap4\n      pop\n      pop\n      pop\n        /* \"Campaign.sol\":2987:3478  if (msg.sender != highestBidder) {... */\n    tag_375:\n        /* \"Campaign.sol\":2612:3488  if (highestBidder == address(0)) {... */\n    tag_362:\n        /* \"Campaign.sol\":3527:3535  newTotal */\n      dup5\n        /* \"Campaign.sol\":3498:3512  approversMoney */\n      0x06\n        /* \"Campaign.sol\":3498:3524  approversMoney[msg.sender] */\n      0x00\n        /* \"Campaign.sol\":3513:3523  msg.sender */\n      caller\n        /* \"Campaign.sol\":3498:3524  approversMoney[msg.sender] */\n      0xffffffffffffffffffffffffffffffffffffffff\n      and\n      0xffffffffffffffffffffffffffffffffffffffff\n      and\n      dup2\n      mstore\n      0x20\n      add\n      swap1\n      dup2\n      mstore\n      0x20\n      add\n      0x00\n      keccak256\n        /* \"Campaign.sol\":3498:3535  approversMoney[msg.sender] = newTotal */\n      dup2\n      swap1\n      sstore\n      pop\n        /* \"Campaign.sol\":3558:3566  newTotal */\n      dup5\n        /* \"Campaign.sol\":3545:3555  highestBid */\n      0x0c\n        /* \"Campaign.sol\":3545:3566  highestBid = newTotal */\n      dup2\n      swap1\n      sstore\n      pop\n        /* \"Campaign.sol\":3592:3602  msg.sender */\n      caller\n        /* \"Campaign.sol\":3576:3589  highestBidder */\n      0x0b\n      0x00\n        /* \"Campaign.sol\":3576:3602  highestBidder = msg.sender */\n      0x0100\n      exp\n      dup2\n      sload\n      dup2\n      0xffffffffffffffffffffffffffffffffffffffff\n      mul\n      not\n      and\n      swap1\n      dup4\n      0xffffffffffffffffffffffffffffffffffffffff\n      and\n      mul\n      or\n      swap1\n      sstore\n      pop\n        /* \"Campaign.sol\":3613:3625  transactions */\n      0x09\n        /* \"Campaign.sol\":3631:3674  Bid(msg.value, block.timestamp, msg.sender) */\n      mload(0x40)\n      dup1\n      0x60\n      add\n      0x40\n      mstore\n      dup1\n        /* \"Campaign.sol\":3635:3644  msg.value */\n      callvalue\n        /* \"Campaign.sol\":3631:3674  Bid(msg.value, block.timestamp, msg.sender) */\n      dup2\n      mstore\n      0x20\n      add\n        /* \"Campaign.sol\":3646:3661  block.timestamp */\n      timestamp\n        /* \"Campaign.sol\":3631:3674  Bid(msg.value, block.timestamp, msg.sender) */\n      dup2\n      mstore\n      0x20\n      add\n        /* \"Campaign.sol\":3663:3673  msg.sender */\n      caller\n        /* \"Campaign.sol\":3631:3674  Bid(msg.value, block.timestamp, msg.sender) */\n      0xffffffffffffffffffffffffffffffffffffffff\n      and\n      dup2\n      mstore\n      pop\n        /* \"Campaign.sol\":3613:3675  transactions.push(Bid(msg.value, block.timestamp, msg.sender)) */\n      swap1\n      dup1\n      0x01\n      dup2\n      sload\n      add\n      dup1\n      dup3\n      sstore\n      dup1\n      swap2\n      pop\n      pop\n      0x01\n      swap1\n      sub\n      swap1\n      0x00\n      mstore\n      keccak256(0x00, 0x20)\n      swap1\n      0x03\n      mul\n      add\n      0x00\n      swap1\n      swap2\n      swap1\n      swap2\n      swap1\n      swap2\n      pop\n      0x00\n      dup3\n      add\n      mload\n      dup2\n      0x00\n      add\n      sstore\n      0x20\n      dup3\n      add\n      mload\n      dup2\n      0x01\n      add\n      sstore\n      0x40\n      dup3\n      add\n      mload\n      dup2\n      0x02\n      add\n      exp(0x0100, 0x00)\n      dup2\n      sload\n      dup2\n      0xffffffffffffffffffffffffffffffffffffffff\n      mul\n      not\n      and\n      swap1\n      dup4\n      0xffffffffffffffffffffffffffffffffffffffff\n      and\n      mul\n      or\n      swap1\n      sstore\n      pop\n      pop\n      pop\n        /* \"Campaign.sol\":3685:3694  bidLedger */\n      0x0a\n        /* \"Campaign.sol\":3713:3989  BidLedgerEntry(... */\n      mload(0x40)\n      dup1\n      0x0100\n      add\n      0x40\n      mstore\n      dup1\n        /* \"Campaign.sol\":3745:3754  msg.value */\n      callvalue\n        /* \"Campaign.sol\":3713:3989  BidLedgerEntry(... */\n      dup2\n      mstore\n      0x20\n      add\n        /* \"Campaign.sol\":3772:3787  block.timestamp */\n      timestamp\n        /* \"Campaign.sol\":3713:3989  BidLedgerEntry(... */\n      dup2\n      mstore\n      0x20\n      add\n        /* \"Campaign.sol\":3805:3815  msg.sender */\n      caller\n        /* \"Campaign.sol\":3713:3989  BidLedgerEntry(... */\n      0xffffffffffffffffffffffffffffffffffffffff\n      and\n      dup2\n      mstore\n      0x20\n      add\n        /* \"Campaign.sol\":3833:3841  newTotal */\n      dup8\n        /* \"Campaign.sol\":3713:3989  BidLedgerEntry(... */\n      dup2\n      mstore\n      0x20\n      add\n        /* \"Campaign.sol\":3859:3871  budgetBefore */\n      dup5\n        /* \"Campaign.sol\":3713:3989  BidLedgerEntry(... */\n      dup2\n      mstore\n      0x20\n      add\n        /* \"Campaign.sol\":3889:3900  budgetAfter */\n      dup4\n        /* \"Campaign.sol\":3713:3989  BidLedgerEntry(... */\n      dup2\n      mstore\n      0x20\n      add\n        /* \"Campaign.sol\":3918:3939  previousHighestBidder */\n      dup6\n        /* \"Campaign.sol\":3713:3989  BidLedgerEntry(... */\n      0xffffffffffffffffffffffffffffffffffffffff\n      and\n      dup2\n      mstore\n      0x20\n      add\n        /* \"Campaign.sol\":3957:3975  previousHighestBid */\n      dup7\n        /* \"Campaign.sol\":3713:3989  BidLedgerEntry(... */\n      dup2\n      mstore\n      pop\n        /* \"Campaign.sol\":3685:3999  bidLedger.push(... */\n      swap1\n      dup1\n      0x01\n      dup2\n      sload\n      add\n      dup1\n      dup3\n      sstore\n      dup1\n      swap2\n      pop\n      pop\n      0x01\n      swap1\n      sub\n      swap1\n      0x00\n      mstore\n      keccak256(0x00, 0x20)\n      swap1\n      0x08\n      mul\n      add\n      0x00\n      swap1\n      swap2\n      swap1\n      swap2\n      swap1\n      swap2\n      pop\n      0x00\n      dup3\n      add\n      mload\n      dup2\n      0x00\n      add\n      sstore\n      0x20\n      dup3\n      add\n      mload\n      dup2\n      0x01\n      add\n      sstore\n      0x40\n      dup3\n      add\n      mload\n      dup2\n      0x02\n      add\n      exp(0x0100, 0x00)\n      dup2\n      sload\n      dup2\n      0xffffffffffffffffffffffffffffffffffffffff\n      mul\n      not\n      and\n      swap1\n      dup4\n      0xffffffffffffffffffffffffffffffffffffffff\n      and\n      mul\n      or\n      swap1\n      sstore\n      pop\n      0x60\n      dup3\n      add\n      mload\n      dup2\n      0x03\n      add\n      sstore\n      0x80\n      dup3\n      add\n      mload\n      dup2\n      0x04\n      add\n      sstore\n      0xa0\n      dup3\n      add\n      mload\n      dup2\n      0x05\n      add\n      sstore\n      0xc0\n      dup3\n      add\n      mload\n      dup2\n      0x06\n      add\n      exp(0x0100, 0x00)\n      dup2\n      sload\n      dup2\n      0xffffffffffffffffffffffffffffffffffffffff\n      mul\n      not\n      and\n      swap1\n      dup4\n      0xffffffffffffffffffffffffffffffffffffffff\n      and\n      mul\n      or\n      swap1\n      sstore\n      pop\n      0xe0\n      dup3\n      add\n      mload\n      dup2\n      0x07\n      add\n      sstore\n      pop\n      pop\n        /* \"Campaign.sol\":4015:4024  approvers */\n      0x05\n        /* \"Campaign.sol\":4015:4036  approvers[msg.sender] */\n      0x00\n        /* \"Campaign.sol\":4025:4035  msg.sender */\n      caller\n        /* \"Campaign.sol\":4015:4036  approvers[msg.sender] */\n      0xffffffffffffffffffffffffffffffffffffffff\n      and\n      0xffffffffffffffffffffffffffffffffffffffff\n      and\n      dup2\n      mstore\n      0x20\n      add\n      swap1\n      dup2\n      mstore\n      0x20\n      add\n      0x00\n      keccak256\n      0x00\n      swap1\n      sload\n      swap1\n      0x0100\n      exp\n      swap1\n      div\n      0xff\n      and\n        /* \"Campaign.sol\":4010:4161  if (!approvers[msg.sender]) {... */\n      tag_382\n      jumpi\n        /* \"Campaign.sol\":4076:4080  true */\n      0x01\n        /* \"Campaign.sol\":4052:4061  approvers */\n      0x05\n        /* \"Campaign.sol\":4052:4073  approvers[msg.sender] */\n      0x00\n        /* \"Campaign.sol\":4062:4072  msg.sender */\n      caller\n        /* \"Campaign.sol\":4052:4073  approvers[msg.sender] */\n      0xffffffffffffffffffffffffffffffffffffffff\n      and\n      0xffffffffffffffffffffffffffffffffffffffff\n      and\n      dup2\n      mstore\n      0x20\n      add\n      swap1\n      dup2\n      mstore\n      0x20\n      add\n      0x00\n      keccak256\n      0x00\n        /* \"Campaign.sol\":4052:4080  approvers[msg.sender] = true */\n      0x0100\n      exp\n      dup2\n      sload\n      dup2\n      0xff\n      mul\n      not\n      and\n      swap1\n      dup4\n      iszero\n      iszero\n      mul\n      or\n      swap1\n      sstore\n      pop\n        /* \"Campaign.sol\":4094:4108  approversCount */\n      0x07\n      0x00\n        /* \"Campaign.sol\":4094:4110  approversCount++ */\n      dup2\n      sload\n      dup1\n      swap3\n      swap2\n      swap1\n      tag_383\n      swap1\n      tag_329\n      jump\t// in\n    tag_383:\n      swap2\n      swap1\n      pop\n      sstore\n      pop\n        /* \"Campaign.sol\":4124:4133  addresses */\n      0x08\n        /* \"Campaign.sol\":4139:4149  msg.sender */\n      caller\n        /* \"Campaign.sol\":4124:4150  addresses.push(msg.sender) */\n      swap1\n      dup1\n      0x01\n      dup2\n      sload\n      add\n      dup1\n      dup3\n      sstore\n      dup1\n      swap2\n      pop\n      pop\n      0x01\n      swap1\n      sub\n      swap1\n      0x00\n      mstore\n      keccak256(0x00, 0x20)\n      add\n      0x00\n      swap1\n      swap2\n      swap1\n      swap2\n      swap1\n      swap2\n      0x0100\n      exp\n      dup2\n      sload\n      dup2\n      0xffffffffffffffffffffffffffffffffffffffff\n      mul\n      not\n      and\n      swap1\n      dup4\n      0xffffffffffffffffffffffffffffffffffffffff\n      and\n      mul\n      or\n      swap1\n      sstore\n      pop\n        /* \"Campaign.sol\":4010:4161  if (!approvers[msg.sender]) {... */\n    tag_382:\n        /* \"Campaign.sol\":4176:4196  BidAdded(msg.sender) */\n      0x6cd3b8608d4368d7a92cfda5a745dfb2993256da9506cd888f31ff9aa48e2bd9\n        /* \"Campaign.sol\":4185:4195  msg.sender */\n      caller\n        /* \"Campaign.sol\":4176:4196  BidAdded(msg.sender) */\n      mload(0x40)\n      tag_385\n      swap2\n      swap1\n      tag_89\n      jump\t// in\n    tag_385:\n      mload(0x40)\n      dup1\n      swap2\n      sub\n      swap1\n      log1\n        /* \"Campaign.sol\":4385:4406  previousHighestBidder */\n      dup3\n        /* \"Campaign.sol\":4211:4448  BidRecorded(... */\n      0xffffffffffffffffffffffffffffffffffffffff\n      and\n        /* \"Campaign.sol\":4236:4246  msg.sender */\n      caller\n        /* \"Campaign.sol\":4211:4448  BidRecorded(... */\n      0xffffffffffffffffffffffffffffffffffffffff\n      and\n      0x3d264e392f908228778e879afe1033c40768d112e54eb947fd76595aa5a2b4e8\n        /* \"Campaign.sol\":4260:4269  msg.value */\n      callvalue\n        /* \"Campaign.sol\":4283:4291  newTotal */\n      dup9\n        /* \"Campaign.sol\":4305:4317  budgetBefore */\n      dup7\n        /* \"Campaign.sol\":4331:4342  budgetAfter */\n      dup7\n        /* \"Campaign.sol\":4356:4371  block.timestamp */\n      timestamp\n        /* \"Campaign.sol\":4420:4438  previousHighestBid */\n      dup12\n        /* \"Campaign.sol\":4211:4448  BidRecorded(... */\n      mload(0x40)\n      tag_386\n      swap7\n      swap6\n      swap5\n      swap4\n      swap3\n      swap2\n      swap1\n      tag_387\n      jump\t// in\n    tag_386:\n      mload(0x40)\n      dup1\n      swap2\n      sub\n      swap1\n      log3\n        /* \"Campaign.sol\":2200:4455  {... */\n      pop\n      pop\n      pop\n      pop\n      pop\n      pop\n        /* \"Campaign.sol\":2149:4455  function contribute() public payable onlyBeforeEnd {... */\n      jump\t// out\n        /* \"Campaign.sol\":1224:1250  address[] public addresses */\n    tag_189:\n      0x08\n      dup2\n      dup2\n      sload\n      dup2\n      lt\n      tag_388\n      jumpi\n      0x00\n      dup1\n      revert\n    tag_388:\n      swap1\n      0x00\n      mstore\n      keccak256(0x00, 0x20)\n      add\n      0x00\n      swap2\n      pop\n      sload\n      swap1\n      0x0100\n      exp\n      swap1\n      div\n      0xffffffffffffffffffffffffffffffffffffffff\n      and\n      dup2\n      jump\t// out\n    tag_268:\n      mload(0x40)\n      dup1\n      0x60\n      add\n      0x40\n      mstore\n      dup1\n      0x00\n      dup2\n      mstore\n      0x20\n      add\n      0x00\n      dup2\n      mstore\n      0x20\n      add\n      and(0xffffffffffffffffffffffffffffffffffffffff, 0x00)\n      dup2\n      mstore\n      pop\n      swap1\n      jump\t// out\n    tag_309:\n      mload(0x40)\n      dup1\n      0x0100\n      add\n      0x40\n      mstore\n      dup1\n      0x00\n      dup2\n      mstore\n      0x20\n      add\n      0x00\n      dup2\n      mstore\n      0x20\n      add\n      and(0xffffffffffffffffffffffffffffffffffffffff, 0x00)\n      dup2\n      mstore\n      0x20\n      add\n      0x00\n      dup2\n      mstore\n      0x20\n      add\n      0x00\n      dup2\n      mstore\n      0x20\n      add\n      0x00\n      dup2\n      mstore\n      0x20\n      add\n      and(0xffffffffffffffffffffffffffffffffffffffff, 0x00)\n      dup2\n      mstore\n      0x20\n      add\n      0x00\n      dup2\n      mstore\n      pop\n      swap1\n      jump\t// out\n        /* \"#utility.yul\":88:205   */\n    tag_391:\n        /* \"#utility.yul\":197:198   */\n      0x00\n        /* \"#utility.yul\":194:195   */\n      0x00\n        /* \"#utility.yul\":187:199   */\n      revert\n        /* \"#utility.yul\":334:460   */\n    tag_393:\n        /* \"#utility.yul\":371:378   */\n      0x00\n        /* \"#utility.yul\":411:453   */\n      0xffffffffffffffffffffffffffffffffffffffff\n        /* \"#utility.yul\":404:409   */\n      dup3\n        /* \"#utility.yul\":400:454   */\n      and\n        /* \"#utility.yul\":389:454   */\n      swap1\n      pop\n        /* \"#utility.yul\":334:460   */\n      swap2\n      swap1\n      pop\n      jump\t// out\n        /* \"#utility.yul\":466:562   */\n    tag_394:\n        /* \"#utility.yul\":503:510   */\n      0x00\n        /* \"#utility.yul\":532:556   */\n      tag_482\n        /* \"#utility.yul\":550:555   */\n      dup3\n        /* \"#utility.yul\":532:556   */\n      tag_393\n      jump\t// in\n    tag_482:\n        /* \"#utility.yul\":521:556   */\n      swap1\n      pop\n        /* \"#utility.yul\":466:562   */\n      swap2\n      swap1\n      pop\n      jump\t// out\n        /* \"#utility.yul\":568:690   */\n    tag_395:\n        /* \"#utility.yul\":641:665   */\n      tag_484\n        /* \"#utility.yul\":659:664   */\n      dup2\n        /* \"#utility.yul\":641:665   */\n      tag_394\n      jump\t// in\n    tag_484:\n        /* \"#utility.yul\":634:639   */\n      dup2\n        /* \"#utility.yul\":631:666   */\n      eq\n        /* \"#utility.yul\":621:684   */\n      tag_485\n      jumpi\n        /* \"#utility.yul\":680:681   */\n      0x00\n        /* \"#utility.yul\":677:678   */\n      0x00\n        /* \"#utility.yul\":670:682   */\n      revert\n        /* \"#utility.yul\":621:684   */\n    tag_485:\n        /* \"#utility.yul\":568:690   */\n      pop\n      jump\t// out\n        /* \"#utility.yul\":696:835   */\n    tag_396:\n        /* \"#utility.yul\":742:747   */\n      0x00\n        /* \"#utility.yul\":780:786   */\n      dup2\n        /* \"#utility.yul\":767:787   */\n      calldataload\n        /* \"#utility.yul\":758:787   */\n      swap1\n      pop\n        /* \"#utility.yul\":796:829   */\n      tag_487\n        /* \"#utility.yul\":823:828   */\n      dup2\n        /* \"#utility.yul\":796:829   */\n      tag_395\n      jump\t// in\n    tag_487:\n        /* \"#utility.yul\":696:835   */\n      swap3\n      swap2\n      pop\n      pop\n      jump\t// out\n        /* \"#utility.yul\":841:1170   */\n    tag_44:\n        /* \"#utility.yul\":900:906   */\n      0x00\n        /* \"#utility.yul\":949:951   */\n      0x20\n        /* \"#utility.yul\":937:946   */\n      dup3\n        /* \"#utility.yul\":928:935   */\n      dup5\n        /* \"#utility.yul\":924:947   */\n      sub\n        /* \"#utility.yul\":920:952   */\n      slt\n        /* \"#utility.yul\":917:1036   */\n      iszero\n      tag_489\n      jumpi\n        /* \"#utility.yul\":955:1034   */\n      tag_490\n      tag_391\n      jump\t// in\n    tag_490:\n        /* \"#utility.yul\":917:1036   */\n    tag_489:\n        /* \"#utility.yul\":1075:1076   */\n      0x00\n        /* \"#utility.yul\":1100:1153   */\n      tag_491\n        /* \"#utility.yul\":1145:1152   */\n      dup5\n        /* \"#utility.yul\":1136:1142   */\n      dup3\n        /* \"#utility.yul\":1125:1134   */\n      dup6\n        /* \"#utility.yul\":1121:1143   */\n      add\n        /* \"#utility.yul\":1100:1153   */\n      tag_396\n      jump\t// in\n    tag_491:\n        /* \"#utility.yul\":1090:1153   */\n      swap2\n      pop\n        /* \"#utility.yul\":1046:1163   */\n      pop\n        /* \"#utility.yul\":841:1170   */\n      swap3\n      swap2\n      pop\n      pop\n      jump\t// out\n        /* \"#utility.yul\":1176:1266   */\n    tag_397:\n        /* \"#utility.yul\":1210:1217   */\n      0x00\n        /* \"#utility.yul\":1253:1258   */\n      dup2\n        /* \"#utility.yul\":1246:1259   */\n      iszero\n        /* \"#utility.yul\":1239:1260   */\n      iszero\n        /* \"#utility.yul\":1228:1260   */\n      swap1\n      pop\n        /* \"#utility.yul\":1176:1266   */\n      swap2\n      swap1\n      pop\n      jump\t// out\n        /* \"#utility.yul\":1272:1381   */\n    tag_398:\n        /* \"#utility.yul\":1353:1374   */\n      tag_494\n        /* \"#utility.yul\":1368:1373   */\n      dup2\n        /* \"#utility.yul\":1353:1374   */\n      tag_397\n      jump\t// in\n    tag_494:\n        /* \"#utility.yul\":1348:1351   */\n      dup3\n        /* \"#utility.yul\":1341:1375   */\n      mstore\n        /* \"#utility.yul\":1272:1381   */\n      pop\n      pop\n      jump\t// out\n        /* \"#utility.yul\":1387:1464   */\n    tag_399:\n        /* \"#utility.yul\":1424:1431   */\n      0x00\n        /* \"#utility.yul\":1453:1458   */\n      dup2\n        /* \"#utility.yul\":1442:1458   */\n      swap1\n      pop\n        /* \"#utility.yul\":1387:1464   */\n      swap2\n      swap1\n      pop\n      jump\t// out\n        /* \"#utility.yul\":1470:1588   */\n    tag_400:\n        /* \"#utility.yul\":1557:1581   */\n      tag_497\n        /* \"#utility.yul\":1575:1580   */\n      dup2\n        /* \"#utility.yul\":1557:1581   */\n      tag_399\n      jump\t// in\n    tag_497:\n        /* \"#utility.yul\":1552:1555   */\n      dup3\n        /* \"#utility.yul\":1545:1582   */\n      mstore\n        /* \"#utility.yul\":1470:1588   */\n      pop\n      pop\n      jump\t// out\n        /* \"#utility.yul\":1594:2210   */\n    tag_47:\n        /* \"#utility.yul\":1775:1779   */\n      0x00\n        /* \"#utility.yul\":1813:1816   */\n      0xa0\n        /* \"#utility.yul\":1802:1811   */\n      dup3\n        /* \"#utility.yul\":1798:1817   */\n      add\n        /* \"#utility.yul\":1790:1817   */\n      swap1\n      pop\n        /* \"#utility.yul\":1827:1892   */\n      tag_499\n        /* \"#utility.yul\":1889:1890   */\n      0x00\n        /* \"#utility.yul\":1878:1887   */\n      dup4\n        /* \"#utility.yul\":1874:1891   */\n      add\n        /* \"#utility.yul\":1865:1871   */\n      dup9\n        /* \"#utility.yul\":1827:1892   */\n      tag_398\n      jump\t// in\n    tag_499:\n        /* \"#utility.yul\":1902:1974   */\n      tag_500\n        /* \"#utility.yul\":1970:1972   */\n      0x20\n        /* \"#utility.yul\":1959:1968   */\n      dup4\n        /* \"#utility.yul\":1955:1973   */\n      add\n        /* \"#utility.yul\":1946:1952   */\n      dup8\n        /* \"#utility.yul\":1902:1974   */\n      tag_400\n      jump\t// in\n    tag_500:\n        /* \"#utility.yul\":1984:2050   */\n      tag_501\n        /* \"#utility.yul\":2046:2048   */\n      0x40\n        /* \"#utility.yul\":2035:2044   */\n      dup4\n        /* \"#utility.yul\":2031:2049   */\n      add\n        /* \"#utility.yul\":2022:2028   */\n      dup7\n        /* \"#utility.yul\":1984:2050   */\n      tag_398\n      jump\t// in\n    tag_501:\n        /* \"#utility.yul\":2060:2126   */\n      tag_502\n        /* \"#utility.yul\":2122:2124   */\n      0x60\n        /* \"#utility.yul\":2111:2120   */\n      dup4\n        /* \"#utility.yul\":2107:2125   */\n      add\n        /* \"#utility.yul\":2098:2104   */\n      dup6\n        /* \"#utility.yul\":2060:2126   */\n      tag_398\n      jump\t// in\n    tag_502:\n        /* \"#utility.yul\":2136:2203   */\n      tag_503\n        /* \"#utility.yul\":2198:2201   */\n      0x80\n        /* \"#utility.yul\":2187:2196   */\n      dup4\n        /* \"#utility.yul\":2183:2202   */\n      add\n        /* \"#utility.yul\":2174:2180   */\n      dup5\n        /* \"#utility.yul\":2136:2203   */\n      tag_398\n      jump\t// in\n    tag_503:\n        /* \"#utility.yul\":1594:2210   */\n      swap7\n      swap6\n      pop\n      pop\n      pop\n      pop\n      pop\n      pop\n      jump\t// out\n        /* \"#utility.yul\":2216:2438   */\n    tag_52:\n        /* \"#utility.yul\":2309:2313   */\n      0x00\n        /* \"#utility.yul\":2347:2349   */\n      0x20\n        /* \"#utility.yul\":2336:2345   */\n      dup3\n        /* \"#utility.yul\":2332:2350   */\n      add\n        /* \"#utility.yul\":2324:2350   */\n      swap1\n      pop\n        /* \"#utility.yul\":2360:2431   */\n      tag_505\n        /* \"#utility.yul\":2428:2429   */\n      0x00\n        /* \"#utility.yul\":2417:2426   */\n      dup4\n        /* \"#utility.yul\":2413:2430   */\n      add\n        /* \"#utility.yul\":2404:2410   */\n      dup5\n        /* \"#utility.yul\":2360:2431   */\n      tag_400\n      jump\t// in\n    tag_505:\n        /* \"#utility.yul\":2216:2438   */\n      swap3\n      swap2\n      pop\n      pop\n      jump\t// out\n        /* \"#utility.yul\":2444:2654   */\n    tag_58:\n        /* \"#utility.yul\":2531:2535   */\n      0x00\n        /* \"#utility.yul\":2569:2571   */\n      0x20\n        /* \"#utility.yul\":2558:2567   */\n      dup3\n        /* \"#utility.yul\":2554:2572   */\n      add\n        /* \"#utility.yul\":2546:2572   */\n      swap1\n      pop\n        /* \"#utility.yul\":2582:2647   */\n      tag_507\n        /* \"#utility.yul\":2644:2645   */\n      0x00\n        /* \"#utility.yul\":2633:2642   */\n      dup4\n        /* \"#utility.yul\":2629:2646   */\n      add\n        /* \"#utility.yul\":2620:2626   */\n      dup5\n        /* \"#utility.yul\":2582:2647   */\n      tag_398\n      jump\t// in\n    tag_507:\n        /* \"#utility.yul\":2444:2654   */\n      swap3\n      swap2\n      pop\n      pop\n      jump\t// out\n        /* \"#utility.yul\":2660:2804   */\n    tag_401:\n        /* \"#utility.yul\":2757:2763   */\n      0x00\n        /* \"#utility.yul\":2791:2796   */\n      dup2\n        /* \"#utility.yul\":2785:2797   */\n      mload\n        /* \"#utility.yul\":2775:2797   */\n      swap1\n      pop\n        /* \"#utility.yul\":2660:2804   */\n      swap2\n      swap1\n      pop\n      jump\t// out\n        /* \"#utility.yul\":2810:3024   */\n    tag_402:\n        /* \"#utility.yul\":2939:2950   */\n      0x00\n        /* \"#utility.yul\":2973:2979   */\n      dup3\n        /* \"#utility.yul\":2968:2971   */\n      dup3\n        /* \"#utility.yul\":2961:2980   */\n      mstore\n        /* \"#utility.yul\":3013:3017   */\n      0x20\n        /* \"#utility.yul\":3008:3011   */\n      dup3\n        /* \"#utility.yul\":3004:3018   */\n      add\n        /* \"#utility.yul\":2989:3018   */\n      swap1\n      pop\n        /* \"#utility.yul\":2810:3024   */\n      swap3\n      swap2\n      pop\n      pop\n      jump\t// out\n        /* \"#utility.yul\":3030:3192   */\n    tag_403:\n        /* \"#utility.yul\":3127:3131   */\n      0x00\n        /* \"#utility.yul\":3150:3153   */\n      dup2\n        /* \"#utility.yul\":3142:3153   */\n      swap1\n      pop\n        /* \"#utility.yul\":3180:3184   */\n      0x20\n        /* \"#utility.yul\":3175:3178   */\n      dup3\n        /* \"#utility.yul\":3171:3185   */\n      add\n        /* \"#utility.yul\":3163:3185   */\n      swap1\n      pop\n        /* \"#utility.yul\":3030:3192   */\n      swap2\n      swap1\n      pop\n      jump\t// out\n        /* \"#utility.yul\":3198:3306   */\n    tag_404:\n        /* \"#utility.yul\":3275:3299   */\n      tag_512\n        /* \"#utility.yul\":3293:3298   */\n      dup2\n        /* \"#utility.yul\":3275:3299   */\n      tag_399\n      jump\t// in\n    tag_512:\n        /* \"#utility.yul\":3270:3273   */\n      dup3\n        /* \"#utility.yul\":3263:3300   */\n      mstore\n        /* \"#utility.yul\":3198:3306   */\n      pop\n      pop\n      jump\t// out\n        /* \"#utility.yul\":3312:3420   */\n    tag_405:\n        /* \"#utility.yul\":3389:3413   */\n      tag_514\n        /* \"#utility.yul\":3407:3412   */\n      dup2\n        /* \"#utility.yul\":3389:3413   */\n      tag_394\n      jump\t// in\n    tag_514:\n        /* \"#utility.yul\":3384:3387   */\n      dup3\n        /* \"#utility.yul\":3377:3414   */\n      mstore\n        /* \"#utility.yul\":3312:3420   */\n      pop\n      pop\n      jump\t// out\n        /* \"#utility.yul\":3498:5116   */\n    tag_406:\n        /* \"#utility.yul\":3645:3651   */\n      0x0100\n        /* \"#utility.yul\":3640:3643   */\n      dup3\n        /* \"#utility.yul\":3636:3652   */\n      add\n        /* \"#utility.yul\":3735:3739   */\n      0x00\n        /* \"#utility.yul\":3728:3733   */\n      dup3\n        /* \"#utility.yul\":3724:3740   */\n      add\n        /* \"#utility.yul\":3718:3741   */\n      mload\n        /* \"#utility.yul\":3754:3817   */\n      tag_516\n        /* \"#utility.yul\":3811:3815   */\n      0x00\n        /* \"#utility.yul\":3806:3809   */\n      dup6\n        /* \"#utility.yul\":3802:3816   */\n      add\n        /* \"#utility.yul\":3788:3800   */\n      dup3\n        /* \"#utility.yul\":3754:3817   */\n      tag_404\n      jump\t// in\n    tag_516:\n        /* \"#utility.yul\":3662:3827   */\n      pop\n        /* \"#utility.yul\":3909:3913   */\n      0x20\n        /* \"#utility.yul\":3902:3907   */\n      dup3\n        /* \"#utility.yul\":3898:3914   */\n      add\n        /* \"#utility.yul\":3892:3915   */\n      mload\n        /* \"#utility.yul\":3928:3991   */\n      tag_517\n        /* \"#utility.yul\":3985:3989   */\n      0x20\n        /* \"#utility.yul\":3980:3983   */\n      dup6\n        /* \"#utility.yul\":3976:3990   */\n      add\n        /* \"#utility.yul\":3962:3974   */\n      dup3\n        /* \"#utility.yul\":3928:3991   */\n      tag_404\n      jump\t// in\n    tag_517:\n        /* \"#utility.yul\":3837:4001   */\n      pop\n        /* \"#utility.yul\":4092:4096   */\n      0x40\n        /* \"#utility.yul\":4085:4090   */\n      dup3\n        /* \"#utility.yul\":4081:4097   */\n      add\n        /* \"#utility.yul\":4075:4098   */\n      mload\n        /* \"#utility.yul\":4111:4174   */\n      tag_518\n        /* \"#utility.yul\":4168:4172   */\n      0x40\n        /* \"#utility.yul\":4163:4166   */\n      dup6\n        /* \"#utility.yul\":4159:4173   */\n      add\n        /* \"#utility.yul\":4145:4157   */\n      dup3\n        /* \"#utility.yul\":4111:4174   */\n      tag_405\n      jump\t// in\n    tag_518:\n        /* \"#utility.yul\":4011:4184   */\n      pop\n        /* \"#utility.yul\":4275:4279   */\n      0x60\n        /* \"#utility.yul\":4268:4273   */\n      dup3\n        /* \"#utility.yul\":4264:4280   */\n      add\n        /* \"#utility.yul\":4258:4281   */\n      mload\n        /* \"#utility.yul\":4294:4357   */\n      tag_519\n        /* \"#utility.yul\":4351:4355   */\n      0x60\n        /* \"#utility.yul\":4346:4349   */\n      dup6\n        /* \"#utility.yul\":4342:4356   */\n      add\n        /* \"#utility.yul\":4328:4340   */\n      dup3\n        /* \"#utility.yul\":4294:4357   */\n      tag_404\n      jump\t// in\n    tag_519:\n        /* \"#utility.yul\":4194:4367   */\n      pop\n        /* \"#utility.yul\":4457:4461   */\n      0x80\n        /* \"#utility.yul\":4450:4455   */\n      dup3\n        /* \"#utility.yul\":4446:4462   */\n      add\n        /* \"#utility.yul\":4440:4463   */\n      mload\n        /* \"#utility.yul\":4476:4539   */\n      tag_520\n        /* \"#utility.yul\":4533:4537   */\n      0x80\n        /* \"#utility.yul\":4528:4531   */\n      dup6\n        /* \"#utility.yul\":4524:4538   */\n      add\n        /* \"#utility.yul\":4510:4522   */\n      dup3\n        /* \"#utility.yul\":4476:4539   */\n      tag_404\n      jump\t// in\n    tag_520:\n        /* \"#utility.yul\":4377:4549   */\n      pop\n        /* \"#utility.yul\":4638:4642   */\n      0xa0\n        /* \"#utility.yul\":4631:4636   */\n      dup3\n        /* \"#utility.yul\":4627:4643   */\n      add\n        /* \"#utility.yul\":4621:4644   */\n      mload\n        /* \"#utility.yul\":4657:4720   */\n      tag_521\n        /* \"#utility.yul\":4714:4718   */\n      0xa0\n        /* \"#utility.yul\":4709:4712   */\n      dup6\n        /* \"#utility.yul\":4705:4719   */\n      add\n        /* \"#utility.yul\":4691:4703   */\n      dup3\n        /* \"#utility.yul\":4657:4720   */\n      tag_404\n      jump\t// in\n    tag_521:\n        /* \"#utility.yul\":4559:4730   */\n      pop\n        /* \"#utility.yul\":4829:4833   */\n      0xc0\n        /* \"#utility.yul\":4822:4827   */\n      dup3\n        /* \"#utility.yul\":4818:4834   */\n      add\n        /* \"#utility.yul\":4812:4835   */\n      mload\n        /* \"#utility.yul\":4848:4911   */\n      tag_522\n        /* \"#utility.yul\":4905:4909   */\n      0xc0\n        /* \"#utility.yul\":4900:4903   */\n      dup6\n        /* \"#utility.yul\":4896:4910   */\n      add\n        /* \"#utility.yul\":4882:4894   */\n      dup3\n        /* \"#utility.yul\":4848:4911   */\n      tag_405\n      jump\t// in\n    tag_522:\n        /* \"#utility.yul\":4740:4921   */\n      pop\n        /* \"#utility.yul\":5017:5021   */\n      0xe0\n        /* \"#utility.yul\":5010:5015   */\n      dup3\n        /* \"#utility.yul\":5006:5022   */\n      add\n        /* \"#utility.yul\":5000:5023   */\n      mload\n        /* \"#utility.yul\":5036:5099   */\n      tag_523\n        /* \"#utility.yul\":5093:5097   */\n      0xe0\n        /* \"#utility.yul\":5088:5091   */\n      dup6\n        /* \"#utility.yul\":5084:5098   */\n      add\n        /* \"#utility.yul\":5070:5082   */\n      dup3\n        /* \"#utility.yul\":5036:5099   */\n      tag_404\n      jump\t// in\n    tag_523:\n        /* \"#utility.yul\":4931:5109   */\n      pop\n        /* \"#utility.yul\":3614:5116   */\n      pop\n        /* \"#utility.yul\":3498:5116   */\n      pop\n      pop\n      jump\t// out\n        /* \"#utility.yul\":5122:5423   */\n    tag_407:\n        /* \"#utility.yul\":5251:5261   */\n      0x00\n        /* \"#utility.yul\":5272:5378   */\n      tag_525\n        /* \"#utility.yul\":5374:5377   */\n      dup4\n        /* \"#utility.yul\":5366:5372   */\n      dup4\n        /* \"#utility.yul\":5272:5378   */\n      tag_406\n      jump\t// in\n    tag_525:\n        /* \"#utility.yul\":5410:5416   */\n      0x0100\n        /* \"#utility.yul\":5405:5408   */\n      dup4\n        /* \"#utility.yul\":5401:5417   */\n      add\n        /* \"#utility.yul\":5387:5417   */\n      swap1\n      pop\n        /* \"#utility.yul\":5122:5423   */\n      swap3\n      swap2\n      pop\n      pop\n      jump\t// out\n        /* \"#utility.yul\":5429:5572   */\n    tag_408:\n        /* \"#utility.yul\":5529:5533   */\n      0x00\n        /* \"#utility.yul\":5561:5565   */\n      0x20\n        /* \"#utility.yul\":5556:5559   */\n      dup3\n        /* \"#utility.yul\":5552:5566   */\n      add\n        /* \"#utility.yul\":5544:5566   */\n      swap1\n      pop\n        /* \"#utility.yul\":5429:5572   */\n      swap2\n      swap1\n      pop\n      jump\t// out\n        /* \"#utility.yul\":5654:6626   */\n    tag_409:\n        /* \"#utility.yul\":5833:5836   */\n      0x00\n        /* \"#utility.yul\":5862:5946   */\n      tag_528\n        /* \"#utility.yul\":5940:5945   */\n      dup3\n        /* \"#utility.yul\":5862:5946   */\n      tag_401\n      jump\t// in\n    tag_528:\n        /* \"#utility.yul\":5962:6078   */\n      tag_529\n        /* \"#utility.yul\":6071:6077   */\n      dup2\n        /* \"#utility.yul\":6066:6069   */\n      dup6\n        /* \"#utility.yul\":5962:6078   */\n      tag_402\n      jump\t// in\n    tag_529:\n        /* \"#utility.yul\":5955:6078   */\n      swap4\n      pop\n        /* \"#utility.yul\":6102:6188   */\n      tag_530\n        /* \"#utility.yul\":6182:6187   */\n      dup4\n        /* \"#utility.yul\":6102:6188   */\n      tag_403\n      jump\t// in\n    tag_530:\n        /* \"#utility.yul\":6211:6218   */\n      dup1\n        /* \"#utility.yul\":6242:6243   */\n      0x00\n        /* \"#utility.yul\":6227:6601   */\n    tag_531:\n        /* \"#utility.yul\":6252:6258   */\n      dup4\n        /* \"#utility.yul\":6249:6250   */\n      dup2\n        /* \"#utility.yul\":6246:6259   */\n      lt\n        /* \"#utility.yul\":6227:6601   */\n      iszero\n      tag_533\n      jumpi\n        /* \"#utility.yul\":6328:6334   */\n      dup2\n        /* \"#utility.yul\":6322:6335   */\n      mload\n        /* \"#utility.yul\":6355:6478   */\n      tag_534\n        /* \"#utility.yul\":6474:6477   */\n      dup9\n        /* \"#utility.yul\":6459:6472   */\n      dup3\n        /* \"#utility.yul\":6355:6478   */\n      tag_407\n      jump\t// in\n    tag_534:\n        /* \"#utility.yul\":6348:6478   */\n      swap8\n      pop\n        /* \"#utility.yul\":6501:6591   */\n      tag_535\n        /* \"#utility.yul\":6584:6590   */\n      dup4\n        /* \"#utility.yul\":6501:6591   */\n      tag_408\n      jump\t// in\n    tag_535:\n        /* \"#utility.yul\":6491:6591   */\n      swap3\n      pop\n        /* \"#utility.yul\":6287:6601   */\n      pop\n        /* \"#utility.yul\":6274:6275   */\n      0x01\n        /* \"#utility.yul\":6271:6272   */\n      dup2\n        /* \"#utility.yul\":6267:6276   */\n      add\n        /* \"#utility.yul\":6262:6276   */\n      swap1\n      pop\n        /* \"#utility.yul\":6227:6601   */\n      jump(tag_531)\n    tag_533:\n        /* \"#utility.yul\":6231:6245   */\n      pop\n        /* \"#utility.yul\":6617:6620   */\n      dup6\n        /* \"#utility.yul\":6610:6620   */\n      swap4\n      pop\n        /* \"#utility.yul\":5838:6626   */\n      pop\n      pop\n      pop\n        /* \"#utility.yul\":5654:6626   */\n      swap3\n      swap2\n      pop\n      pop\n      jump\t// out\n        /* \"#utility.yul\":6632:7125   */\n    tag_74:\n        /* \"#utility.yul\":6835:6839   */\n      0x00\n        /* \"#utility.yul\":6873:6875   */\n      0x20\n        /* \"#utility.yul\":6862:6871   */\n      dup3\n        /* \"#utility.yul\":6858:6876   */\n      add\n        /* \"#utility.yul\":6850:6876   */\n      swap1\n      pop\n        /* \"#utility.yul\":6922:6931   */\n      dup2\n        /* \"#utility.yul\":6916:6920   */\n      dup2\n        /* \"#utility.yul\":6912:6932   */\n      sub\n        /* \"#utility.yul\":6908:6909   */\n      0x00\n        /* \"#utility.yul\":6897:6906   */\n      dup4\n        /* \"#utility.yul\":6893:6910   */\n      add\n        /* \"#utility.yul\":6886:6933   */\n      mstore\n        /* \"#utility.yul\":6950:7118   */\n      tag_537\n        /* \"#utility.yul\":7113:7117   */\n      dup2\n        /* \"#utility.yul\":7104:7110   */\n      dup5\n        /* \"#utility.yul\":6950:7118   */\n      tag_409\n      jump\t// in\n    tag_537:\n        /* \"#utility.yul\":6942:7118   */\n      swap1\n      pop\n        /* \"#utility.yul\":6632:7125   */\n      swap3\n      swap2\n      pop\n      pop\n      jump\t// out\n        /* \"#utility.yul\":7131:7230   */\n    tag_410:\n        /* \"#utility.yul\":7183:7189   */\n      0x00\n        /* \"#utility.yul\":7217:7222   */\n      dup2\n        /* \"#utility.yul\":7211:7223   */\n      mload\n        /* \"#utility.yul\":7201:7223   */\n      swap1\n      pop\n        /* \"#utility.yul\":7131:7230   */\n      swap2\n      swap1\n      pop\n      jump\t// out\n        /* \"#utility.yul\":7236:7405   */\n    tag_411:\n        /* \"#utility.yul\":7320:7331   */\n      0x00\n        /* \"#utility.yul\":7354:7360   */\n      dup3\n        /* \"#utility.yul\":7349:7352   */\n      dup3\n        /* \"#utility.yul\":7342:7361   */\n      mstore\n        /* \"#utility.yul\":7394:7398   */\n      0x20\n        /* \"#utility.yul\":7389:7392   */\n      dup3\n        /* \"#utility.yul\":7385:7399   */\n      add\n        /* \"#utility.yul\":7370:7399   */\n      swap1\n      pop\n        /* \"#utility.yul\":7236:7405   */\n      swap3\n      swap2\n      pop\n      pop\n      jump\t// out\n        /* \"#utility.yul\":7411:7550   */\n    tag_412:\n        /* \"#utility.yul\":7500:7506   */\n      dup3\n        /* \"#utility.yul\":7495:7498   */\n      dup2\n        /* \"#utility.yul\":7490:7493   */\n      dup4\n        /* \"#utility.yul\":7484:7507   */\n      mcopy\n        /* \"#utility.yul\":7541:7542   */\n      0x00\n        /* \"#utility.yul\":7532:7538   */\n      dup4\n        /* \"#utility.yul\":7527:7530   */\n      dup4\n        /* \"#utility.yul\":7523:7539   */\n      add\n        /* \"#utility.yul\":7516:7543   */\n      mstore\n        /* \"#utility.yul\":7411:7550   */\n      pop\n      pop\n      pop\n      jump\t// out\n        /* \"#utility.yul\":7556:7658   */\n    tag_413:\n        /* \"#utility.yul\":7597:7603   */\n      0x00\n        /* \"#utility.yul\":7648:7650   */\n      0x1f\n        /* \"#utility.yul\":7644:7651   */\n      not\n        /* \"#utility.yul\":7639:7641   */\n      0x1f\n        /* \"#utility.yul\":7632:7637   */\n      dup4\n        /* \"#utility.yul\":7628:7642   */\n      add\n        /* \"#utility.yul\":7624:7652   */\n      and\n        /* \"#utility.yul\":7614:7652   */\n      swap1\n      pop\n        /* \"#utility.yul\":7556:7658   */\n      swap2\n      swap1\n      pop\n      jump\t// out\n        /* \"#utility.yul\":7664:8041   */\n    tag_414:\n        /* \"#utility.yul\":7752:7755   */\n      0x00\n        /* \"#utility.yul\":7780:7819   */\n      tag_543\n        /* \"#utility.yul\":7813:7818   */\n      dup3\n        /* \"#utility.yul\":7780:7819   */\n      tag_410\n      jump\t// in\n    tag_543:\n        /* \"#utility.yul\":7835:7906   */\n      tag_544\n        /* \"#utility.yul\":7899:7905   */\n      dup2\n        /* \"#utility.yul\":7894:7897   */\n      dup6\n        /* \"#utility.yul\":7835:7906   */\n      tag_411\n      jump\t// in\n    tag_544:\n        /* \"#utility.yul\":7828:7906   */\n      swap4\n      pop\n        /* \"#utility.yul\":7915:7980   */\n      tag_545\n        /* \"#utility.yul\":7973:7979   */\n      dup2\n        /* \"#utility.yul\":7968:7971   */\n      dup6\n        /* \"#utility.yul\":7961:7965   */\n      0x20\n        /* \"#utility.yul\":7954:7959   */\n      dup7\n        /* \"#utility.yul\":7950:7966   */\n      add\n        /* \"#utility.yul\":7915:7980   */\n      tag_412\n      jump\t// in\n    tag_545:\n        /* \"#utility.yul\":8005:8034   */\n      tag_546\n        /* \"#utility.yul\":8027:8033   */\n      dup2\n        /* \"#utility.yul\":8005:8034   */\n      tag_413\n      jump\t// in\n    tag_546:\n        /* \"#utility.yul\":8000:8003   */\n      dup5\n        /* \"#utility.yul\":7996:8035   */\n      add\n        /* \"#utility.yul\":7989:8035   */\n      swap2\n      pop\n        /* \"#utility.yul\":7756:8041   */\n      pop\n        /* \"#utility.yul\":7664:8041   */\n      swap3\n      swap2\n      pop\n      pop\n      jump\t// out\n        /* \"#utility.yul\":8047:8360   */\n    tag_79:\n        /* \"#utility.yul\":8160:8164   */\n      0x00\n        /* \"#utility.yul\":8198:8200   */\n      0x20\n        /* \"#utility.yul\":8187:8196   */\n      dup3\n        /* \"#utility.yul\":8183:8201   */\n      add\n        /* \"#utility.yul\":8175:8201   */\n      swap1\n      pop\n        /* \"#utility.yul\":8247:8256   */\n      dup2\n        /* \"#utility.yul\":8241:8245   */\n      dup2\n        /* \"#utility.yul\":8237:8257   */\n      sub\n        /* \"#utility.yul\":8233:8234   */\n      0x00\n        /* \"#utility.yul\":8222:8231   */\n      dup4\n        /* \"#utility.yul\":8218:8235   */\n      add\n        /* \"#utility.yul\":8211:8258   */\n      mstore\n        /* \"#utility.yul\":8275:8353   */\n      tag_548\n        /* \"#utility.yul\":8348:8352   */\n      dup2\n        /* \"#utility.yul\":8339:8345   */\n      dup5\n        /* \"#utility.yul\":8275:8353   */\n      tag_414\n      jump\t// in\n    tag_548:\n        /* \"#utility.yul\":8267:8353   */\n      swap1\n      pop\n        /* \"#utility.yul\":8047:8360   */\n      swap3\n      swap2\n      pop\n      pop\n      jump\t// out\n        /* \"#utility.yul\":8366:8484   */\n    tag_415:\n        /* \"#utility.yul\":8453:8477   */\n      tag_550\n        /* \"#utility.yul\":8471:8476   */\n      dup2\n        /* \"#utility.yul\":8453:8477   */\n      tag_394\n      jump\t// in\n    tag_550:\n        /* \"#utility.yul\":8448:8451   */\n      dup3\n        /* \"#utility.yul\":8441:8478   */\n      mstore\n        /* \"#utility.yul\":8366:8484   */\n      pop\n      pop\n      jump\t// out\n        /* \"#utility.yul\":8490:8604   */\n    tag_416:\n        /* \"#utility.yul\":8557:8563   */\n      0x00\n        /* \"#utility.yul\":8591:8596   */\n      dup2\n        /* \"#utility.yul\":8585:8597   */\n      mload\n        /* \"#utility.yul\":8575:8597   */\n      swap1\n      pop\n        /* \"#utility.yul\":8490:8604   */\n      swap2\n      swap1\n      pop\n      jump\t// out\n        /* \"#utility.yul\":8610:8794   */\n    tag_417:\n        /* \"#utility.yul\":8709:8720   */\n      0x00\n        /* \"#utility.yul\":8743:8749   */\n      dup3\n        /* \"#utility.yul\":8738:8741   */\n      dup3\n        /* \"#utility.yul\":8731:8750   */\n      mstore\n        /* \"#utility.yul\":8783:8787   */\n      0x20\n        /* \"#utility.yul\":8778:8781   */\n      dup3\n        /* \"#utility.yul\":8774:8788   */\n      add\n        /* \"#utility.yul\":8759:8788   */\n      swap1\n      pop\n        /* \"#utility.yul\":8610:8794   */\n      swap3\n      swap2\n      pop\n      pop\n      jump\t// out\n        /* \"#utility.yul\":8800:8932   */\n    tag_418:\n        /* \"#utility.yul\":8867:8871   */\n      0x00\n        /* \"#utility.yul\":8890:8893   */\n      dup2\n        /* \"#utility.yul\":8882:8893   */\n      swap1\n      pop\n        /* \"#utility.yul\":8920:8924   */\n      0x20\n        /* \"#utility.yul\":8915:8918   */\n      dup3\n        /* \"#utility.yul\":8911:8925   */\n      add\n        /* \"#utility.yul\":8903:8925   */\n      swap1\n      pop\n        /* \"#utility.yul\":8800:8932   */\n      swap2\n      swap1\n      pop\n      jump\t// out\n        /* \"#utility.yul\":8938:9117   */\n    tag_419:\n        /* \"#utility.yul\":9007:9017   */\n      0x00\n        /* \"#utility.yul\":9028:9074   */\n      tag_555\n        /* \"#utility.yul\":9070:9073   */\n      dup4\n        /* \"#utility.yul\":9062:9068   */\n      dup4\n        /* \"#utility.yul\":9028:9074   */\n      tag_405\n      jump\t// in\n    tag_555:\n        /* \"#utility.yul\":9106:9110   */\n      0x20\n        /* \"#utility.yul\":9101:9104   */\n      dup4\n        /* \"#utility.yul\":9097:9111   */\n      add\n        /* \"#utility.yul\":9083:9111   */\n      swap1\n      pop\n        /* \"#utility.yul\":8938:9117   */\n      swap3\n      swap2\n      pop\n      pop\n      jump\t// out\n        /* \"#utility.yul\":9123:9236   */\n    tag_420:\n        /* \"#utility.yul\":9193:9197   */\n      0x00\n        /* \"#utility.yul\":9225:9229   */\n      0x20\n        /* \"#utility.yul\":9220:9223   */\n      dup3\n        /* \"#utility.yul\":9216:9230   */\n      add\n        /* \"#utility.yul\":9208:9230   */\n      swap1\n      pop\n        /* \"#utility.yul\":9123:9236   */\n      swap2\n      swap1\n      pop\n      jump\t// out\n        /* \"#utility.yul\":9272:10004   */\n    tag_421:\n        /* \"#utility.yul\":9391:9394   */\n      0x00\n        /* \"#utility.yul\":9420:9474   */\n      tag_558\n        /* \"#utility.yul\":9468:9473   */\n      dup3\n        /* \"#utility.yul\":9420:9474   */\n      tag_416\n      jump\t// in\n    tag_558:\n        /* \"#utility.yul\":9490:9576   */\n      tag_559\n        /* \"#utility.yul\":9569:9575   */\n      dup2\n        /* \"#utility.yul\":9564:9567   */\n      dup6\n        /* \"#utility.yul\":9490:9576   */\n      tag_417\n      jump\t// in\n    tag_559:\n        /* \"#utility.yul\":9483:9576   */\n      swap4\n      pop\n        /* \"#utility.yul\":9600:9656   */\n      tag_560\n        /* \"#utility.yul\":9650:9655   */\n      dup4\n        /* \"#utility.yul\":9600:9656   */\n      tag_418\n      jump\t// in\n    tag_560:\n        /* \"#utility.yul\":9679:9686   */\n      dup1\n        /* \"#utility.yul\":9710:9711   */\n      0x00\n        /* \"#utility.yul\":9695:9979   */\n    tag_561:\n        /* \"#utility.yul\":9720:9726   */\n      dup4\n        /* \"#utility.yul\":9717:9718   */\n      dup2\n        /* \"#utility.yul\":9714:9727   */\n      lt\n        /* \"#utility.yul\":9695:9979   */\n      iszero\n      tag_563\n      jumpi\n        /* \"#utility.yul\":9796:9802   */\n      dup2\n        /* \"#utility.yul\":9790:9803   */\n      mload\n        /* \"#utility.yul\":9823:9886   */\n      tag_564\n        /* \"#utility.yul\":9882:9885   */\n      dup9\n        /* \"#utility.yul\":9867:9880   */\n      dup3\n        /* \"#utility.yul\":9823:9886   */\n      tag_419\n      jump\t// in\n    tag_564:\n        /* \"#utility.yul\":9816:9886   */\n      swap8\n      pop\n        /* \"#utility.yul\":9909:9969   */\n      tag_565\n        /* \"#utility.yul\":9962:9968   */\n      dup4\n        /* \"#utility.yul\":9909:9969   */\n      tag_420\n      jump\t// in\n    tag_565:\n        /* \"#utility.yul\":9899:9969   */\n      swap3\n      pop\n        /* \"#utility.yul\":9755:9979   */\n      pop\n        /* \"#utility.yul\":9742:9743   */\n      0x01\n        /* \"#utility.yul\":9739:9740   */\n      dup2\n        /* \"#utility.yul\":9735:9744   */\n      add\n        /* \"#utility.yul\":9730:9744   */\n      swap1\n      pop\n        /* \"#utility.yul\":9695:9979   */\n      jump(tag_561)\n    tag_563:\n        /* \"#utility.yul\":9699:9713   */\n      pop\n        /* \"#utility.yul\":9995:9998   */\n      dup6\n        /* \"#utility.yul\":9988:9998   */\n      swap4\n      pop\n        /* \"#utility.yul\":9396:10004   */\n      pop\n      pop\n      pop\n        /* \"#utility.yul\":9272:10004   */\n      swap3\n      swap2\n      pop\n      pop\n      jump\t// out\n        /* \"#utility.yul\":10010:11562   */\n    tag_84:\n        /* \"#utility.yul\":10445:10449   */\n      0x00\n        /* \"#utility.yul\":10483:10486   */\n      0x0140\n        /* \"#utility.yul\":10472:10481   */\n      dup3\n        /* \"#utility.yul\":10468:10487   */\n      add\n        /* \"#utility.yul\":10460:10487   */\n      swap1\n      pop\n        /* \"#utility.yul\":10497:10568   */\n      tag_567\n        /* \"#utility.yul\":10565:10566   */\n      0x00\n        /* \"#utility.yul\":10554:10563   */\n      dup4\n        /* \"#utility.yul\":10550:10567   */\n      add\n        /* \"#utility.yul\":10541:10547   */\n      dup14\n        /* \"#utility.yul\":10497:10568   */\n      tag_400\n      jump\t// in\n    tag_567:\n        /* \"#utility.yul\":10578:10650   */\n      tag_568\n        /* \"#utility.yul\":10646:10648   */\n      0x20\n        /* \"#utility.yul\":10635:10644   */\n      dup4\n        /* \"#utility.yul\":10631:10649   */\n      add\n        /* \"#utility.yul\":10622:10628   */\n      dup13\n        /* \"#utility.yul\":10578:10650   */\n      tag_400\n      jump\t// in\n    tag_568:\n        /* \"#utility.yul\":10660:10732   */\n      tag_569\n        /* \"#utility.yul\":10728:10730   */\n      0x40\n        /* \"#utility.yul\":10717:10726   */\n      dup4\n        /* \"#utility.yul\":10713:10731   */\n      add\n        /* \"#utility.yul\":10704:10710   */\n      dup12\n        /* \"#utility.yul\":10660:10732   */\n      tag_400\n      jump\t// in\n    tag_569:\n        /* \"#utility.yul\":10742:10814   */\n      tag_570\n        /* \"#utility.yul\":10810:10812   */\n      0x60\n        /* \"#utility.yul\":10799:10808   */\n      dup4\n        /* \"#utility.yul\":10795:10813   */\n      add\n        /* \"#utility.yul\":10786:10792   */\n      dup11\n        /* \"#utility.yul\":10742:10814   */\n      tag_415\n      jump\t// in\n    tag_570:\n        /* \"#utility.yul\":10824:10897   */\n      tag_571\n        /* \"#utility.yul\":10892:10895   */\n      0x80\n        /* \"#utility.yul\":10881:10890   */\n      dup4\n        /* \"#utility.yul\":10877:10896   */\n      add\n        /* \"#utility.yul\":10868:10874   */\n      dup10\n        /* \"#utility.yul\":10824:10897   */\n      tag_400\n      jump\t// in\n    tag_571:\n        /* \"#utility.yul\":10945:10954   */\n      dup2\n        /* \"#utility.yul\":10939:10943   */\n      dup2\n        /* \"#utility.yul\":10935:10955   */\n      sub\n        /* \"#utility.yul\":10929:10932   */\n      0xa0\n        /* \"#utility.yul\":10918:10927   */\n      dup4\n        /* \"#utility.yul\":10914:10933   */\n      add\n        /* \"#utility.yul\":10907:10956   */\n      mstore\n        /* \"#utility.yul\":10973:11051   */\n      tag_572\n        /* \"#utility.yul\":11046:11050   */\n      dup2\n        /* \"#utility.yul\":11037:11043   */\n      dup9\n        /* \"#utility.yul\":10973:11051   */\n      tag_414\n      jump\t// in\n    tag_572:\n        /* \"#utility.yul\":10965:11051   */\n      swap1\n      pop\n        /* \"#utility.yul\":11099:11108   */\n      dup2\n        /* \"#utility.yul\":11093:11097   */\n      dup2\n        /* \"#utility.yul\":11089:11109   */\n      sub\n        /* \"#utility.yul\":11083:11086   */\n      0xc0\n        /* \"#utility.yul\":11072:11081   */\n      dup4\n        /* \"#utility.yul\":11068:11087   */\n      add\n        /* \"#utility.yul\":11061:11110   */\n      mstore\n        /* \"#utility.yul\":11127:11205   */\n      tag_573\n        /* \"#utility.yul\":11200:11204   */\n      dup2\n        /* \"#utility.yul\":11191:11197   */\n      dup8\n        /* \"#utility.yul\":11127:11205   */\n      tag_414\n      jump\t// in\n    tag_573:\n        /* \"#utility.yul\":11119:11205   */\n      swap1\n      pop\n        /* \"#utility.yul\":11215:11288   */\n      tag_574\n        /* \"#utility.yul\":11283:11286   */\n      0xe0\n        /* \"#utility.yul\":11272:11281   */\n      dup4\n        /* \"#utility.yul\":11268:11287   */\n      add\n        /* \"#utility.yul\":11259:11265   */\n      dup7\n        /* \"#utility.yul\":11215:11288   */\n      tag_415\n      jump\t// in\n    tag_574:\n        /* \"#utility.yul\":11336:11345   */\n      dup2\n        /* \"#utility.yul\":11330:11334   */\n      dup2\n        /* \"#utility.yul\":11326:11346   */\n      sub\n        /* \"#utility.yul\":11320:11323   */\n      0x0100\n        /* \"#utility.yul\":11309:11318   */\n      dup4\n        /* \"#utility.yul\":11305:11324   */\n      add\n        /* \"#utility.yul\":11298:11347   */\n      mstore\n        /* \"#utility.yul\":11364:11472   */\n      tag_575\n        /* \"#utility.yul\":11467:11471   */\n      dup2\n        /* \"#utility.yul\":11458:11464   */\n      dup6\n        /* \"#utility.yul\":11364:11472   */\n      tag_421\n      jump\t// in\n    tag_575:\n        /* \"#utility.yul\":11356:11472   */\n      swap1\n      pop\n        /* \"#utility.yul\":11482:11555   */\n      tag_576\n        /* \"#utility.yul\":11550:11553   */\n      0x0120\n        /* \"#utility.yul\":11539:11548   */\n      dup4\n        /* \"#utility.yul\":11535:11554   */\n      add\n        /* \"#utility.yul\":11526:11532   */\n      dup5\n        /* \"#utility.yul\":11482:11555   */\n      tag_400\n      jump\t// in\n    tag_576:\n        /* \"#utility.yul\":10010:11562   */\n      swap12\n      swap11\n      pop\n      pop\n      pop\n      pop\n      pop\n      pop\n      pop\n      pop\n      pop\n      pop\n      pop\n      jump\t// out\n        /* \"#utility.yul\":11568:11790   */\n    tag_89:\n        /* \"#utility.yul\":11661:11665   */\n      0x00\n        /* \"#utility.yul\":11699:11701   */\n      0x20\n        /* \"#utility.yul\":11688:11697   */\n      dup3\n        /* \"#utility.yul\":11684:11702   */\n      add\n        /* \"#utility.yul\":11676:11702   */\n      swap1\n      pop\n        /* \"#utility.yul\":11712:11783   */\n      tag_578\n        /* \"#utility.yul\":11780:11781   */\n      0x00\n        /* \"#utility.yul\":11769:11778   */\n      dup4\n        /* \"#utility.yul\":11765:11782   */\n      add\n        /* \"#utility.yul\":11756:11762   */\n      dup5\n        /* \"#utility.yul\":11712:11783   */\n      tag_415\n      jump\t// in\n    tag_578:\n        /* \"#utility.yul\":11568:11790   */\n      swap3\n      swap2\n      pop\n      pop\n      jump\t// out\n        /* \"#utility.yul\":11796:12983   */\n    tag_111:\n        /* \"#utility.yul\":12127:12131   */\n      0x00\n        /* \"#utility.yul\":12165:12168   */\n      0x0120\n        /* \"#utility.yul\":12154:12163   */\n      dup3\n        /* \"#utility.yul\":12150:12169   */\n      add\n        /* \"#utility.yul\":12142:12169   */\n      swap1\n      pop\n        /* \"#utility.yul\":12179:12250   */\n      tag_580\n        /* \"#utility.yul\":12247:12248   */\n      0x00\n        /* \"#utility.yul\":12236:12245   */\n      dup4\n        /* \"#utility.yul\":12232:12249   */\n      add\n        /* \"#utility.yul\":12223:12229   */\n      dup13\n        /* \"#utility.yul\":12179:12250   */\n      tag_400\n      jump\t// in\n    tag_580:\n        /* \"#utility.yul\":12260:12332   */\n      tag_581\n        /* \"#utility.yul\":12328:12330   */\n      0x20\n        /* \"#utility.yul\":12317:12326   */\n      dup4\n        /* \"#utility.yul\":12313:12331   */\n      add\n        /* \"#utility.yul\":12304:12310   */\n      dup12\n        /* \"#utility.yul\":12260:12332   */\n      tag_400\n      jump\t// in\n    tag_581:\n        /* \"#utility.yul\":12342:12414   */\n      tag_582\n        /* \"#utility.yul\":12410:12412   */\n      0x40\n        /* \"#utility.yul\":12399:12408   */\n      dup4\n        /* \"#utility.yul\":12395:12413   */\n      add\n        /* \"#utility.yul\":12386:12392   */\n      dup11\n        /* \"#utility.yul\":12342:12414   */\n      tag_400\n      jump\t// in\n    tag_582:\n        /* \"#utility.yul\":12424:12496   */\n      tag_583\n        /* \"#utility.yul\":12492:12494   */\n      0x60\n        /* \"#utility.yul\":12481:12490   */\n      dup4\n        /* \"#utility.yul\":12477:12495   */\n      add\n        /* \"#utility.yul\":12468:12474   */\n      dup10\n        /* \"#utility.yul\":12424:12496   */\n      tag_415\n      jump\t// in\n    tag_583:\n        /* \"#utility.yul\":12506:12579   */\n      tag_584\n        /* \"#utility.yul\":12574:12577   */\n      0x80\n        /* \"#utility.yul\":12563:12572   */\n      dup4\n        /* \"#utility.yul\":12559:12578   */\n      add\n        /* \"#utility.yul\":12550:12556   */\n      dup9\n        /* \"#utility.yul\":12506:12579   */\n      tag_400\n      jump\t// in\n    tag_584:\n        /* \"#utility.yul\":12627:12636   */\n      dup2\n        /* \"#utility.yul\":12621:12625   */\n      dup2\n        /* \"#utility.yul\":12617:12637   */\n      sub\n        /* \"#utility.yul\":12611:12614   */\n      0xa0\n        /* \"#utility.yul\":12600:12609   */\n      dup4\n        /* \"#utility.yul\":12596:12615   */\n      add\n        /* \"#utility.yul\":12589:12638   */\n      mstore\n        /* \"#utility.yul\":12655:12733   */\n      tag_585\n        /* \"#utility.yul\":12728:12732   */\n      dup2\n        /* \"#utility.yul\":12719:12725   */\n      dup8\n        /* \"#utility.yul\":12655:12733   */\n      tag_414\n      jump\t// in\n    tag_585:\n        /* \"#utility.yul\":12647:12733   */\n      swap1\n      pop\n        /* \"#utility.yul\":12743:12816   */\n      tag_586\n        /* \"#utility.yul\":12811:12814   */\n      0xc0\n        /* \"#utility.yul\":12800:12809   */\n      dup4\n        /* \"#utility.yul\":12796:12815   */\n      add\n        /* \"#utility.yul\":12787:12793   */\n      dup7\n        /* \"#utility.yul\":12743:12816   */\n      tag_415\n      jump\t// in\n    tag_586:\n        /* \"#utility.yul\":12826:12899   */\n      tag_587\n        /* \"#utility.yul\":12894:12897   */\n      0xe0\n        /* \"#utility.yul\":12883:12892   */\n      dup4\n        /* \"#utility.yul\":12879:12898   */\n      add\n        /* \"#utility.yul\":12870:12876   */\n      dup6\n        /* \"#utility.yul\":12826:12899   */\n      tag_400\n      jump\t// in\n    tag_587:\n        /* \"#utility.yul\":12909:12976   */\n      tag_588\n        /* \"#utility.yul\":12971:12974   */\n      0x0100\n        /* \"#utility.yul\":12960:12969   */\n      dup4\n        /* \"#utility.yul\":12956:12975   */\n      add\n        /* \"#utility.yul\":12947:12953   */\n      dup5\n        /* \"#utility.yul\":12909:12976   */\n      tag_398\n      jump\t// in\n    tag_588:\n        /* \"#utility.yul\":11796:12983   */\n      swap11\n      swap10\n      pop\n      pop\n      pop\n      pop\n      pop\n      pop\n      pop\n      pop\n      pop\n      pop\n      jump\t// out\n        /* \"#utility.yul\":12989:13122   */\n    tag_422:\n        /* \"#utility.yul\":13075:13081   */\n      0x00\n        /* \"#utility.yul\":13109:13114   */\n      dup2\n        /* \"#utility.yul\":13103:13115   */\n      mload\n        /* \"#utility.yul\":13093:13115   */\n      swap1\n      pop\n        /* \"#utility.yul\":12989:13122   */\n      swap2\n      swap1\n      pop\n      jump\t// out\n        /* \"#utility.yul\":13128:13331   */\n    tag_423:\n        /* \"#utility.yul\":13246:13257   */\n      0x00\n        /* \"#utility.yul\":13280:13286   */\n      dup3\n        /* \"#utility.yul\":13275:13278   */\n      dup3\n        /* \"#utility.yul\":13268:13287   */\n      mstore\n        /* \"#utility.yul\":13320:13324   */\n      0x20\n        /* \"#utility.yul\":13315:13318   */\n      dup3\n        /* \"#utility.yul\":13311:13325   */\n      add\n        /* \"#utility.yul\":13296:13325   */\n      swap1\n      pop\n        /* \"#utility.yul\":13128:13331   */\n      swap3\n      swap2\n      pop\n      pop\n      jump\t// out\n        /* \"#utility.yul\":13337:13488   */\n    tag_424:\n        /* \"#utility.yul\":13423:13427   */\n      0x00\n        /* \"#utility.yul\":13446:13449   */\n      dup2\n        /* \"#utility.yul\":13438:13449   */\n      swap1\n      pop\n        /* \"#utility.yul\":13476:13480   */\n      0x20\n        /* \"#utility.yul\":13471:13474   */\n      dup3\n        /* \"#utility.yul\":13467:13481   */\n      add\n        /* \"#utility.yul\":13459:13481   */\n      swap1\n      pop\n        /* \"#utility.yul\":13337:13488   */\n      swap2\n      swap1\n      pop\n      jump\t// out\n        /* \"#utility.yul\":13544:14213   */\n    tag_425:\n        /* \"#utility.yul\":13669:13673   */\n      0x60\n        /* \"#utility.yul\":13664:13667   */\n      dup3\n        /* \"#utility.yul\":13660:13674   */\n      add\n        /* \"#utility.yul\":13757:13761   */\n      0x00\n        /* \"#utility.yul\":13750:13755   */\n      dup3\n        /* \"#utility.yul\":13746:13762   */\n      add\n        /* \"#utility.yul\":13740:13763   */\n      mload\n        /* \"#utility.yul\":13776:13839   */\n      tag_593\n        /* \"#utility.yul\":13833:13837   */\n      0x00\n        /* \"#utility.yul\":13828:13831   */\n      dup6\n        /* \"#utility.yul\":13824:13838   */\n      add\n        /* \"#utility.yul\":13810:13822   */\n      dup3\n        /* \"#utility.yul\":13776:13839   */\n      tag_404\n      jump\t// in\n    tag_593:\n        /* \"#utility.yul\":13684:13849   */\n      pop\n        /* \"#utility.yul\":13931:13935   */\n      0x20\n        /* \"#utility.yul\":13924:13929   */\n      dup3\n        /* \"#utility.yul\":13920:13936   */\n      add\n        /* \"#utility.yul\":13914:13937   */\n      mload\n        /* \"#utility.yul\":13950:14013   */\n      tag_594\n        /* \"#utility.yul\":14007:14011   */\n      0x20\n        /* \"#utility.yul\":14002:14005   */\n      dup6\n        /* \"#utility.yul\":13998:14012   */\n      add\n        /* \"#utility.yul\":13984:13996   */\n      dup3\n        /* \"#utility.yul\":13950:14013   */\n      tag_404\n      jump\t// in\n    tag_594:\n        /* \"#utility.yul\":13859:14023   */\n      pop\n        /* \"#utility.yul\":14114:14118   */\n      0x40\n        /* \"#utility.yul\":14107:14112   */\n      dup3\n        /* \"#utility.yul\":14103:14119   */\n      add\n        /* \"#utility.yul\":14097:14120   */\n      mload\n        /* \"#utility.yul\":14133:14196   */\n      tag_595\n        /* \"#utility.yul\":14190:14194   */\n      0x40\n        /* \"#utility.yul\":14185:14188   */\n      dup6\n        /* \"#utility.yul\":14181:14195   */\n      add\n        /* \"#utility.yul\":14167:14179   */\n      dup3\n        /* \"#utility.yul\":14133:14196   */\n      tag_405\n      jump\t// in\n    tag_595:\n        /* \"#utility.yul\":14033:14206   */\n      pop\n        /* \"#utility.yul\":13638:14213   */\n      pop\n        /* \"#utility.yul\":13544:14213   */\n      pop\n      pop\n      jump\t// out\n        /* \"#utility.yul\":14219:14474   */\n    tag_426:\n        /* \"#utility.yul\":14326:14336   */\n      0x00\n        /* \"#utility.yul\":14347:14431   */\n      tag_597\n        /* \"#utility.yul\":14427:14430   */\n      dup4\n        /* \"#utility.yul\":14419:14425   */\n      dup4\n        /* \"#utility.yul\":14347:14431   */\n      tag_425\n      jump\t// in\n    tag_597:\n        /* \"#utility.yul\":14463:14467   */\n      0x60\n        /* \"#utility.yul\":14458:14461   */\n      dup4\n        /* \"#utility.yul\":14454:14468   */\n      add\n        /* \"#utility.yul\":14440:14468   */\n      swap1\n      pop\n        /* \"#utility.yul\":14219:14474   */\n      swap3\n      swap2\n      pop\n      pop\n      jump\t// out\n        /* \"#utility.yul\":14480:14612   */\n    tag_427:\n        /* \"#utility.yul\":14569:14573   */\n      0x00\n        /* \"#utility.yul\":14601:14605   */\n      0x20\n        /* \"#utility.yul\":14596:14599   */\n      dup3\n        /* \"#utility.yul\":14592:14606   */\n      add\n        /* \"#utility.yul\":14584:14606   */\n      swap1\n      pop\n        /* \"#utility.yul\":14480:14612   */\n      swap2\n      swap1\n      pop\n      jump\t// out\n        /* \"#utility.yul\":14672:15556   */\n    tag_428:\n        /* \"#utility.yul\":14829:14832   */\n      0x00\n        /* \"#utility.yul\":14858:14931   */\n      tag_600\n        /* \"#utility.yul\":14925:14930   */\n      dup3\n        /* \"#utility.yul\":14858:14931   */\n      tag_422\n      jump\t// in\n    tag_600:\n        /* \"#utility.yul\":14947:15052   */\n      tag_601\n        /* \"#utility.yul\":15045:15051   */\n      dup2\n        /* \"#utility.yul\":15040:15043   */\n      dup6\n        /* \"#utility.yul\":14947:15052   */\n      tag_423\n      jump\t// in\n    tag_601:\n        /* \"#utility.yul\":14940:15052   */\n      swap4\n      pop\n        /* \"#utility.yul\":15076:15151   */\n      tag_602\n        /* \"#utility.yul\":15145:15150   */\n      dup4\n        /* \"#utility.yul\":15076:15151   */\n      tag_424\n      jump\t// in\n    tag_602:\n        /* \"#utility.yul\":15174:15181   */\n      dup1\n        /* \"#utility.yul\":15205:15206   */\n      0x00\n        /* \"#utility.yul\":15190:15531   */\n    tag_603:\n        /* \"#utility.yul\":15215:15221   */\n      dup4\n        /* \"#utility.yul\":15212:15213   */\n      dup2\n        /* \"#utility.yul\":15209:15222   */\n      lt\n        /* \"#utility.yul\":15190:15531   */\n      iszero\n      tag_605\n      jumpi\n        /* \"#utility.yul\":15291:15297   */\n      dup2\n        /* \"#utility.yul\":15285:15298   */\n      mload\n        /* \"#utility.yul\":15318:15419   */\n      tag_606\n        /* \"#utility.yul\":15415:15418   */\n      dup9\n        /* \"#utility.yul\":15400:15413   */\n      dup3\n        /* \"#utility.yul\":15318:15419   */\n      tag_426\n      jump\t// in\n    tag_606:\n        /* \"#utility.yul\":15311:15419   */\n      swap8\n      pop\n        /* \"#utility.yul\":15442:15521   */\n      tag_607\n        /* \"#utility.yul\":15514:15520   */\n      dup4\n        /* \"#utility.yul\":15442:15521   */\n      tag_427\n      jump\t// in\n    tag_607:\n        /* \"#utility.yul\":15432:15521   */\n      swap3\n      pop\n        /* \"#utility.yul\":15250:15531   */\n      pop\n        /* \"#utility.yul\":15237:15238   */\n      0x01\n        /* \"#utility.yul\":15234:15235   */\n      dup2\n        /* \"#utility.yul\":15230:15239   */\n      add\n        /* \"#utility.yul\":15225:15239   */\n      swap1\n      pop\n        /* \"#utility.yul\":15190:15531   */\n      jump(tag_603)\n    tag_605:\n        /* \"#utility.yul\":15194:15208   */\n      pop\n        /* \"#utility.yul\":15547:15550   */\n      dup6\n        /* \"#utility.yul\":15540:15550   */\n      swap4\n      pop\n        /* \"#utility.yul\":14834:15556   */\n      pop\n      pop\n      pop\n        /* \"#utility.yul\":14672:15556   */\n      swap3\n      swap2\n      pop\n      pop\n      jump\t// out\n        /* \"#utility.yul\":15562:16011   */\n    tag_124:\n        /* \"#utility.yul\":15743:15747   */\n      0x00\n        /* \"#utility.yul\":15781:15783   */\n      0x20\n        /* \"#utility.yul\":15770:15779   */\n      dup3\n        /* \"#utility.yul\":15766:15784   */\n      add\n        /* \"#utility.yul\":15758:15784   */\n      swap1\n      pop\n        /* \"#utility.yul\":15830:15839   */\n      dup2\n        /* \"#utility.yul\":15824:15828   */\n      dup2\n        /* \"#utility.yul\":15820:15840   */\n      sub\n        /* \"#utility.yul\":15816:15817   */\n      0x00\n        /* \"#utility.yul\":15805:15814   */\n      dup4\n        /* \"#utility.yul\":15801:15818   */\n      add\n        /* \"#utility.yul\":15794:15841   */\n      mstore\n        /* \"#utility.yul\":15858:16004   */\n      tag_609\n        /* \"#utility.yul\":15999:16003   */\n      dup2\n        /* \"#utility.yul\":15990:15996   */\n      dup5\n        /* \"#utility.yul\":15858:16004   */\n      tag_428\n      jump\t// in\n    tag_609:\n        /* \"#utility.yul\":15850:16004   */\n      swap1\n      pop\n        /* \"#utility.yul\":15562:16011   */\n      swap3\n      swap2\n      pop\n      pop\n      jump\t// out\n        /* \"#utility.yul\":16017:16139   */\n    tag_429:\n        /* \"#utility.yul\":16090:16114   */\n      tag_611\n        /* \"#utility.yul\":16108:16113   */\n      dup2\n        /* \"#utility.yul\":16090:16114   */\n      tag_399\n      jump\t// in\n    tag_611:\n        /* \"#utility.yul\":16083:16088   */\n      dup2\n        /* \"#utility.yul\":16080:16115   */\n      eq\n        /* \"#utility.yul\":16070:16133   */\n      tag_612\n      jumpi\n        /* \"#utility.yul\":16129:16130   */\n      0x00\n        /* \"#utility.yul\":16126:16127   */\n      0x00\n        /* \"#utility.yul\":16119:16131   */\n      revert\n        /* \"#utility.yul\":16070:16133   */\n    tag_612:\n        /* \"#utility.yul\":16017:16139   */\n      pop\n      jump\t// out\n        /* \"#utility.yul\":16145:16284   */\n    tag_430:\n        /* \"#utility.yul\":16191:16196   */\n      0x00\n        /* \"#utility.yul\":16229:16235   */\n      dup2\n        /* \"#utility.yul\":16216:16236   */\n      calldataload\n        /* \"#utility.yul\":16207:16236   */\n      swap1\n      pop\n        /* \"#utility.yul\":16245:16278   */\n      tag_614\n        /* \"#utility.yul\":16272:16277   */\n      dup2\n        /* \"#utility.yul\":16245:16278   */\n      tag_429\n      jump\t// in\n    tag_614:\n        /* \"#utility.yul\":16145:16284   */\n      swap3\n      swap2\n      pop\n      pop\n      jump\t// out\n        /* \"#utility.yul\":16290:16619   */\n    tag_128:\n        /* \"#utility.yul\":16349:16355   */\n      0x00\n        /* \"#utility.yul\":16398:16400   */\n      0x20\n        /* \"#utility.yul\":16386:16395   */\n      dup3\n        /* \"#utility.yul\":16377:16384   */\n      dup5\n        /* \"#utility.yul\":16373:16396   */\n      sub\n        /* \"#utility.yul\":16369:16401   */\n      slt\n        /* \"#utility.yul\":16366:16485   */\n      iszero\n      tag_616\n      jumpi\n        /* \"#utility.yul\":16404:16483   */\n      tag_617\n      tag_391\n      jump\t// in\n    tag_617:\n        /* \"#utility.yul\":16366:16485   */\n    tag_616:\n        /* \"#utility.yul\":16524:16525   */\n      0x00\n        /* \"#utility.yul\":16549:16602   */\n      tag_618\n        /* \"#utility.yul\":16594:16601   */\n      dup5\n        /* \"#utility.yul\":16585:16591   */\n      dup3\n        /* \"#utility.yul\":16574:16583   */\n      dup6\n        /* \"#utility.yul\":16570:16592   */\n      add\n        /* \"#utility.yul\":16549:16602   */\n      tag_430\n      jump\t// in\n    tag_618:\n        /* \"#utility.yul\":16539:16602   */\n      swap2\n      pop\n        /* \"#utility.yul\":16495:16612   */\n      pop\n        /* \"#utility.yul\":16290:16619   */\n      swap3\n      swap2\n      pop\n      pop\n      jump\t// out\n        /* \"#utility.yul\":16625:17622   */\n    tag_131:\n        /* \"#utility.yul\":16914:16918   */\n      0x00\n        /* \"#utility.yul\":16952:16955   */\n      0x0100\n        /* \"#utility.yul\":16941:16950   */\n      dup3\n        /* \"#utility.yul\":16937:16956   */\n      add\n        /* \"#utility.yul\":16929:16956   */\n      swap1\n      pop\n        /* \"#utility.yul\":16966:17037   */\n      tag_620\n        /* \"#utility.yul\":17034:17035   */\n      0x00\n        /* \"#utility.yul\":17023:17032   */\n      dup4\n        /* \"#utility.yul\":17019:17036   */\n      add\n        /* \"#utility.yul\":17010:17016   */\n      dup12\n        /* \"#utility.yul\":16966:17037   */\n      tag_400\n      jump\t// in\n    tag_620:\n        /* \"#utility.yul\":17047:17119   */\n      tag_621\n        /* \"#utility.yul\":17115:17117   */\n      0x20\n        /* \"#utility.yul\":17104:17113   */\n      dup4\n        /* \"#utility.yul\":17100:17118   */\n      add\n        /* \"#utility.yul\":17091:17097   */\n      dup11\n        /* \"#utility.yul\":17047:17119   */\n      tag_400\n      jump\t// in\n    tag_621:\n        /* \"#utility.yul\":17129:17201   */\n      tag_622\n        /* \"#utility.yul\":17197:17199   */\n      0x40\n        /* \"#utility.yul\":17186:17195   */\n      dup4\n        /* \"#utility.yul\":17182:17200   */\n      add\n        /* \"#utility.yul\":17173:17179   */\n      dup10\n        /* \"#utility.yul\":17129:17201   */\n      tag_415\n      jump\t// in\n    tag_622:\n        /* \"#utility.yul\":17211:17283   */\n      tag_623\n        /* \"#utility.yul\":17279:17281   */\n      0x60\n        /* \"#utility.yul\":17268:17277   */\n      dup4\n        /* \"#utility.yul\":17264:17282   */\n      add\n        /* \"#utility.yul\":17255:17261   */\n      dup9\n        /* \"#utility.yul\":17211:17283   */\n      tag_400\n      jump\t// in\n    tag_623:\n        /* \"#utility.yul\":17293:17366   */\n      tag_624\n        /* \"#utility.yul\":17361:17364   */\n      0x80\n        /* \"#utility.yul\":17350:17359   */\n      dup4\n        /* \"#utility.yul\":17346:17365   */\n      add\n        /* \"#utility.yul\":17337:17343   */\n      dup8\n        /* \"#utility.yul\":17293:17366   */\n      tag_400\n      jump\t// in\n    tag_624:\n        /* \"#utility.yul\":17376:17449   */\n      tag_625\n        /* \"#utility.yul\":17444:17447   */\n      0xa0\n        /* \"#utility.yul\":17433:17442   */\n      dup4\n        /* \"#utility.yul\":17429:17448   */\n      add\n        /* \"#utility.yul\":17420:17426   */\n      dup7\n        /* \"#utility.yul\":17376:17449   */\n      tag_400\n      jump\t// in\n    tag_625:\n        /* \"#utility.yul\":17459:17532   */\n      tag_626\n        /* \"#utility.yul\":17527:17530   */\n      0xc0\n        /* \"#utility.yul\":17516:17525   */\n      dup4\n        /* \"#utility.yul\":17512:17531   */\n      add\n        /* \"#utility.yul\":17503:17509   */\n      dup6\n        /* \"#utility.yul\":17459:17532   */\n      tag_415\n      jump\t// in\n    tag_626:\n        /* \"#utility.yul\":17542:17615   */\n      tag_627\n        /* \"#utility.yul\":17610:17613   */\n      0xe0\n        /* \"#utility.yul\":17599:17608   */\n      dup4\n        /* \"#utility.yul\":17595:17614   */\n      add\n        /* \"#utility.yul\":17586:17592   */\n      dup5\n        /* \"#utility.yul\":17542:17615   */\n      tag_400\n      jump\t// in\n    tag_627:\n        /* \"#utility.yul\":16625:17622   */\n      swap10\n      swap9\n      pop\n      pop\n      pop\n      pop\n      pop\n      pop\n      pop\n      pop\n      pop\n      jump\t// out\n        /* \"#utility.yul\":17678:18357   */\n    tag_431:\n        /* \"#utility.yul\":17813:17817   */\n      0x60\n        /* \"#utility.yul\":17808:17811   */\n      dup3\n        /* \"#utility.yul\":17804:17818   */\n      add\n        /* \"#utility.yul\":17901:17905   */\n      0x00\n        /* \"#utility.yul\":17894:17899   */\n      dup3\n        /* \"#utility.yul\":17890:17906   */\n      add\n        /* \"#utility.yul\":17884:17907   */\n      mload\n        /* \"#utility.yul\":17920:17983   */\n      tag_629\n        /* \"#utility.yul\":17977:17981   */\n      0x00\n        /* \"#utility.yul\":17972:17975   */\n      dup6\n        /* \"#utility.yul\":17968:17982   */\n      add\n        /* \"#utility.yul\":17954:17966   */\n      dup3\n        /* \"#utility.yul\":17920:17983   */\n      tag_404\n      jump\t// in\n    tag_629:\n        /* \"#utility.yul\":17828:17993   */\n      pop\n        /* \"#utility.yul\":18075:18079   */\n      0x20\n        /* \"#utility.yul\":18068:18073   */\n      dup3\n        /* \"#utility.yul\":18064:18080   */\n      add\n        /* \"#utility.yul\":18058:18081   */\n      mload\n        /* \"#utility.yul\":18094:18157   */\n      tag_630\n        /* \"#utility.yul\":18151:18155   */\n      0x20\n        /* \"#utility.yul\":18146:18149   */\n      dup6\n        /* \"#utility.yul\":18142:18156   */\n      add\n        /* \"#utility.yul\":18128:18140   */\n      dup3\n        /* \"#utility.yul\":18094:18157   */\n      tag_404\n      jump\t// in\n    tag_630:\n        /* \"#utility.yul\":18003:18167   */\n      pop\n        /* \"#utility.yul\":18258:18262   */\n      0x40\n        /* \"#utility.yul\":18251:18256   */\n      dup3\n        /* \"#utility.yul\":18247:18263   */\n      add\n        /* \"#utility.yul\":18241:18264   */\n      mload\n        /* \"#utility.yul\":18277:18340   */\n      tag_631\n        /* \"#utility.yul\":18334:18338   */\n      0x40\n        /* \"#utility.yul\":18329:18332   */\n      dup6\n        /* \"#utility.yul\":18325:18339   */\n      add\n        /* \"#utility.yul\":18311:18323   */\n      dup3\n        /* \"#utility.yul\":18277:18340   */\n      tag_405\n      jump\t// in\n    tag_631:\n        /* \"#utility.yul\":18177:18350   */\n      pop\n        /* \"#utility.yul\":17782:18357   */\n      pop\n        /* \"#utility.yul\":17678:18357   */\n      pop\n      pop\n      jump\t// out\n        /* \"#utility.yul\":18363:18661   */\n    tag_141:\n        /* \"#utility.yul\":18494:18498   */\n      0x00\n        /* \"#utility.yul\":18532:18534   */\n      0x60\n        /* \"#utility.yul\":18521:18530   */\n      dup3\n        /* \"#utility.yul\":18517:18535   */\n      add\n        /* \"#utility.yul\":18509:18535   */\n      swap1\n      pop\n        /* \"#utility.yul\":18545:18654   */\n      tag_633\n        /* \"#utility.yul\":18651:18652   */\n      0x00\n        /* \"#utility.yul\":18640:18649   */\n      dup4\n        /* \"#utility.yul\":18636:18653   */\n      add\n        /* \"#utility.yul\":18627:18633   */\n      dup5\n        /* \"#utility.yul\":18545:18654   */\n      tag_431\n      jump\t// in\n    tag_633:\n        /* \"#utility.yul\":18363:18661   */\n      swap3\n      swap2\n      pop\n      pop\n      jump\t// out\n        /* \"#utility.yul\":18667:19109   */\n    tag_154:\n        /* \"#utility.yul\":18816:18820   */\n      0x00\n        /* \"#utility.yul\":18854:18856   */\n      0x60\n        /* \"#utility.yul\":18843:18852   */\n      dup3\n        /* \"#utility.yul\":18839:18857   */\n      add\n        /* \"#utility.yul\":18831:18857   */\n      swap1\n      pop\n        /* \"#utility.yul\":18867:18938   */\n      tag_635\n        /* \"#utility.yul\":18935:18936   */\n      0x00\n        /* \"#utility.yul\":18924:18933   */\n      dup4\n        /* \"#utility.yul\":18920:18937   */\n      add\n        /* \"#utility.yul\":18911:18917   */\n      dup7\n        /* \"#utility.yul\":18867:18938   */\n      tag_400\n      jump\t// in\n    tag_635:\n        /* \"#utility.yul\":18948:19020   */\n      tag_636\n        /* \"#utility.yul\":19016:19018   */\n      0x20\n        /* \"#utility.yul\":19005:19014   */\n      dup4\n        /* \"#utility.yul\":19001:19019   */\n      add\n        /* \"#utility.yul\":18992:18998   */\n      dup6\n        /* \"#utility.yul\":18948:19020   */\n      tag_400\n      jump\t// in\n    tag_636:\n        /* \"#utility.yul\":19030:19102   */\n      tag_637\n        /* \"#utility.yul\":19098:19100   */\n      0x40\n        /* \"#utility.yul\":19087:19096   */\n      dup4\n        /* \"#utility.yul\":19083:19101   */\n      add\n        /* \"#utility.yul\":19074:19080   */\n      dup5\n        /* \"#utility.yul\":19030:19102   */\n      tag_415\n      jump\t// in\n    tag_637:\n        /* \"#utility.yul\":18667:19109   */\n      swap5\n      swap4\n      pop\n      pop\n      pop\n      pop\n      jump\t// out\n        /* \"#utility.yul\":19115:19488   */\n    tag_159:\n        /* \"#utility.yul\":19258:19262   */\n      0x00\n        /* \"#utility.yul\":19296:19298   */\n      0x20\n        /* \"#utility.yul\":19285:19294   */\n      dup3\n        /* \"#utility.yul\":19281:19299   */\n      add\n        /* \"#utility.yul\":19273:19299   */\n      swap1\n      pop\n        /* \"#utility.yul\":19345:19354   */\n      dup2\n        /* \"#utility.yul\":19339:19343   */\n      dup2\n        /* \"#utility.yul\":19335:19355   */\n      sub\n        /* \"#utility.yul\":19331:19332   */\n      0x00\n        /* \"#utility.yul\":19320:19329   */\n      dup4\n        /* \"#utility.yul\":19316:19333   */\n      add\n        /* \"#utility.yul\":19309:19356   */\n      mstore\n        /* \"#utility.yul\":19373:19481   */\n      tag_639\n        /* \"#utility.yul\":19476:19480   */\n      dup2\n        /* \"#utility.yul\":19467:19473   */\n      dup5\n        /* \"#utility.yul\":19373:19481   */\n      tag_421\n      jump\t// in\n    tag_639:\n        /* \"#utility.yul\":19365:19481   */\n      swap1\n      pop\n        /* \"#utility.yul\":19115:19488   */\n      swap3\n      swap2\n      pop\n      pop\n      jump\t// out\n        /* \"#utility.yul\":19566:21194   */\n    tag_432:\n        /* \"#utility.yul\":19723:19729   */\n      0x0100\n        /* \"#utility.yul\":19718:19721   */\n      dup3\n        /* \"#utility.yul\":19714:19730   */\n      add\n        /* \"#utility.yul\":19813:19817   */\n      0x00\n        /* \"#utility.yul\":19806:19811   */\n      dup3\n        /* \"#utility.yul\":19802:19818   */\n      add\n        /* \"#utility.yul\":19796:19819   */\n      mload\n        /* \"#utility.yul\":19832:19895   */\n      tag_641\n        /* \"#utility.yul\":19889:19893   */\n      0x00\n        /* \"#utility.yul\":19884:19887   */\n      dup6\n        /* \"#utility.yul\":19880:19894   */\n      add\n        /* \"#utility.yul\":19866:19878   */\n      dup3\n        /* \"#utility.yul\":19832:19895   */\n      tag_404\n      jump\t// in\n    tag_641:\n        /* \"#utility.yul\":19740:19905   */\n      pop\n        /* \"#utility.yul\":19987:19991   */\n      0x20\n        /* \"#utility.yul\":19980:19985   */\n      dup3\n        /* \"#utility.yul\":19976:19992   */\n      add\n        /* \"#utility.yul\":19970:19993   */\n      mload\n        /* \"#utility.yul\":20006:20069   */\n      tag_642\n        /* \"#utility.yul\":20063:20067   */\n      0x20\n        /* \"#utility.yul\":20058:20061   */\n      dup6\n        /* \"#utility.yul\":20054:20068   */\n      add\n        /* \"#utility.yul\":20040:20052   */\n      dup3\n        /* \"#utility.yul\":20006:20069   */\n      tag_404\n      jump\t// in\n    tag_642:\n        /* \"#utility.yul\":19915:20079   */\n      pop\n        /* \"#utility.yul\":20170:20174   */\n      0x40\n        /* \"#utility.yul\":20163:20168   */\n      dup3\n        /* \"#utility.yul\":20159:20175   */\n      add\n        /* \"#utility.yul\":20153:20176   */\n      mload\n        /* \"#utility.yul\":20189:20252   */\n      tag_643\n        /* \"#utility.yul\":20246:20250   */\n      0x40\n        /* \"#utility.yul\":20241:20244   */\n      dup6\n        /* \"#utility.yul\":20237:20251   */\n      add\n        /* \"#utility.yul\":20223:20235   */\n      dup3\n        /* \"#utility.yul\":20189:20252   */\n      tag_405\n      jump\t// in\n    tag_643:\n        /* \"#utility.yul\":20089:20262   */\n      pop\n        /* \"#utility.yul\":20353:20357   */\n      0x60\n        /* \"#utility.yul\":20346:20351   */\n      dup3\n        /* \"#utility.yul\":20342:20358   */\n      add\n        /* \"#utility.yul\":20336:20359   */\n      mload\n        /* \"#utility.yul\":20372:20435   */\n      tag_644\n        /* \"#utility.yul\":20429:20433   */\n      0x60\n        /* \"#utility.yul\":20424:20427   */\n      dup6\n        /* \"#utility.yul\":20420:20434   */\n      add\n        /* \"#utility.yul\":20406:20418   */\n      dup3\n        /* \"#utility.yul\":20372:20435   */\n      tag_404\n      jump\t// in\n    tag_644:\n        /* \"#utility.yul\":20272:20445   */\n      pop\n        /* \"#utility.yul\":20535:20539   */\n      0x80\n        /* \"#utility.yul\":20528:20533   */\n      dup3\n        /* \"#utility.yul\":20524:20540   */\n      add\n        /* \"#utility.yul\":20518:20541   */\n      mload\n        /* \"#utility.yul\":20554:20617   */\n      tag_645\n        /* \"#utility.yul\":20611:20615   */\n      0x80\n        /* \"#utility.yul\":20606:20609   */\n      dup6\n        /* \"#utility.yul\":20602:20616   */\n      add\n        /* \"#utility.yul\":20588:20600   */\n      dup3\n        /* \"#utility.yul\":20554:20617   */\n      tag_404\n      jump\t// in\n    tag_645:\n        /* \"#utility.yul\":20455:20627   */\n      pop\n        /* \"#utility.yul\":20716:20720   */\n      0xa0\n        /* \"#utility.yul\":20709:20714   */\n      dup3\n        /* \"#utility.yul\":20705:20721   */\n      add\n        /* \"#utility.yul\":20699:20722   */\n      mload\n        /* \"#utility.yul\":20735:20798   */\n      tag_646\n        /* \"#utility.yul\":20792:20796   */\n      0xa0\n        /* \"#utility.yul\":20787:20790   */\n      dup6\n        /* \"#utility.yul\":20783:20797   */\n      add\n        /* \"#utility.yul\":20769:20781   */\n      dup3\n        /* \"#utility.yul\":20735:20798   */\n      tag_404\n      jump\t// in\n    tag_646:\n        /* \"#utility.yul\":20637:20808   */\n      pop\n        /* \"#utility.yul\":20907:20911   */\n      0xc0\n        /* \"#utility.yul\":20900:20905   */\n      dup3\n        /* \"#utility.yul\":20896:20912   */\n      add\n        /* \"#utility.yul\":20890:20913   */\n      mload\n        /* \"#utility.yul\":20926:20989   */\n      tag_647\n        /* \"#utility.yul\":20983:20987   */\n      0xc0\n        /* \"#utility.yul\":20978:20981   */\n      dup6\n        /* \"#utility.yul\":20974:20988   */\n      add\n        /* \"#utility.yul\":20960:20972   */\n      dup3\n        /* \"#utility.yul\":20926:20989   */\n      tag_405\n      jump\t// in\n    tag_647:\n        /* \"#utility.yul\":20818:20999   */\n      pop\n        /* \"#utility.yul\":21095:21099   */\n      0xe0\n        /* \"#utility.yul\":21088:21093   */\n      dup3\n        /* \"#utility.yul\":21084:21100   */\n      add\n        /* \"#utility.yul\":21078:21101   */\n      mload\n        /* \"#utility.yul\":21114:21177   */\n      tag_648\n        /* \"#utility.yul\":21171:21175   */\n      0xe0\n        /* \"#utility.yul\":21166:21169   */\n      dup6\n        /* \"#utility.yul\":21162:21176   */\n      add\n        /* \"#utility.yul\":21148:21160   */\n      dup3\n        /* \"#utility.yul\":21114:21177   */\n      tag_404\n      jump\t// in\n    tag_648:\n        /* \"#utility.yul\":21009:21187   */\n      pop\n        /* \"#utility.yul\":19692:21194   */\n      pop\n        /* \"#utility.yul\":19566:21194   */\n      pop\n      pop\n      jump\t// out\n        /* \"#utility.yul\":21200:21543   */\n    tag_165:\n        /* \"#utility.yul\":21353:21357   */\n      0x00\n        /* \"#utility.yul\":21391:21394   */\n      0x0100\n        /* \"#utility.yul\":21380:21389   */\n      dup3\n        /* \"#utility.yul\":21376:21395   */\n      add\n        /* \"#utility.yul\":21368:21395   */\n      swap1\n      pop\n        /* \"#utility.yul\":21405:21536   */\n      tag_650\n        /* \"#utility.yul\":21533:21534   */\n      0x00\n        /* \"#utility.yul\":21522:21531   */\n      dup4\n        /* \"#utility.yul\":21518:21535   */\n      add\n        /* \"#utility.yul\":21509:21515   */\n      dup5\n        /* \"#utility.yul\":21405:21536   */\n      tag_432\n      jump\t// in\n    tag_650:\n        /* \"#utility.yul\":21200:21543   */\n      swap3\n      swap2\n      pop\n      pop\n      jump\t// out\n        /* \"#utility.yul\":21549:21609   */\n    tag_433:\n        /* \"#utility.yul\":21577:21580   */\n      0x00\n        /* \"#utility.yul\":21598:21603   */\n      dup2\n        /* \"#utility.yul\":21591:21603   */\n      swap1\n      pop\n        /* \"#utility.yul\":21549:21609   */\n      swap2\n      swap1\n      pop\n      jump\t// out\n        /* \"#utility.yul\":21615:21757   */\n    tag_434:\n        /* \"#utility.yul\":21665:21674   */\n      0x00\n        /* \"#utility.yul\":21698:21751   */\n      tag_653\n        /* \"#utility.yul\":21716:21750   */\n      tag_654\n        /* \"#utility.yul\":21725:21749   */\n      tag_655\n        /* \"#utility.yul\":21743:21748   */\n      dup5\n        /* \"#utility.yul\":21725:21749   */\n      tag_393\n      jump\t// in\n    tag_655:\n        /* \"#utility.yul\":21716:21750   */\n      tag_433\n      jump\t// in\n    tag_654:\n        /* \"#utility.yul\":21698:21751   */\n      tag_393\n      jump\t// in\n    tag_653:\n        /* \"#utility.yul\":21685:21751   */\n      swap1\n      pop\n        /* \"#utility.yul\":21615:21757   */\n      swap2\n      swap1\n      pop\n      jump\t// out\n        /* \"#utility.yul\":21763:21889   */\n    tag_435:\n        /* \"#utility.yul\":21813:21822   */\n      0x00\n        /* \"#utility.yul\":21846:21883   */\n      tag_657\n        /* \"#utility.yul\":21877:21882   */\n      dup3\n        /* \"#utility.yul\":21846:21883   */\n      tag_434\n      jump\t// in\n    tag_657:\n        /* \"#utility.yul\":21833:21883   */\n      swap1\n      pop\n        /* \"#utility.yul\":21763:21889   */\n      swap2\n      swap1\n      pop\n      jump\t// out\n        /* \"#utility.yul\":21895:22045   */\n    tag_436:\n        /* \"#utility.yul\":21969:21978   */\n      0x00\n        /* \"#utility.yul\":22002:22039   */\n      tag_659\n        /* \"#utility.yul\":22033:22038   */\n      dup3\n        /* \"#utility.yul\":22002:22039   */\n      tag_435\n      jump\t// in\n    tag_659:\n        /* \"#utility.yul\":21989:22039   */\n      swap1\n      pop\n        /* \"#utility.yul\":21895:22045   */\n      swap2\n      swap1\n      pop\n      jump\t// out\n        /* \"#utility.yul\":22051:22230   */\n    tag_437:\n        /* \"#utility.yul\":22162:22223   */\n      tag_661\n        /* \"#utility.yul\":22217:22222   */\n      dup2\n        /* \"#utility.yul\":22162:22223   */\n      tag_436\n      jump\t// in\n    tag_661:\n        /* \"#utility.yul\":22157:22160   */\n      dup3\n        /* \"#utility.yul\":22150:22224   */\n      mstore\n        /* \"#utility.yul\":22051:22230   */\n      pop\n      pop\n      jump\t// out\n        /* \"#utility.yul\":22236:22506   */\n    tag_170:\n        /* \"#utility.yul\":22353:22357   */\n      0x00\n        /* \"#utility.yul\":22391:22393   */\n      0x20\n        /* \"#utility.yul\":22380:22389   */\n      dup3\n        /* \"#utility.yul\":22376:22394   */\n      add\n        /* \"#utility.yul\":22368:22394   */\n      swap1\n      pop\n        /* \"#utility.yul\":22404:22499   */\n      tag_663\n        /* \"#utility.yul\":22496:22497   */\n      0x00\n        /* \"#utility.yul\":22485:22494   */\n      dup4\n        /* \"#utility.yul\":22481:22498   */\n      add\n        /* \"#utility.yul\":22472:22478   */\n      dup5\n        /* \"#utility.yul\":22404:22499   */\n      tag_437\n      jump\t// in\n    tag_663:\n        /* \"#utility.yul\":22236:22506   */\n      swap3\n      swap2\n      pop\n      pop\n      jump\t// out\n        /* \"#utility.yul\":22512:22683   */\n    tag_438:\n        /* \"#utility.yul\":22652:22675   */\n      0x41756374696f6e206e6f742066696e616c697a65640000000000000000000000\n        /* \"#utility.yul\":22648:22649   */\n      0x00\n        /* \"#utility.yul\":22640:22646   */\n      dup3\n        /* \"#utility.yul\":22636:22650   */\n      add\n        /* \"#utility.yul\":22629:22676   */\n      mstore\n        /* \"#utility.yul\":22512:22683   */\n      pop\n      jump\t// out\n        /* \"#utility.yul\":22689:23055   */\n    tag_439:\n        /* \"#utility.yul\":22831:22834   */\n      0x00\n        /* \"#utility.yul\":22852:22919   */\n      tag_666\n        /* \"#utility.yul\":22916:22918   */\n      0x15\n        /* \"#utility.yul\":22911:22914   */\n      dup4\n        /* \"#utility.yul\":22852:22919   */\n      tag_411\n      jump\t// in\n    tag_666:\n        /* \"#utility.yul\":22845:22919   */\n      swap2\n      pop\n        /* \"#utility.yul\":22928:23021   */\n      tag_667\n        /* \"#utility.yul\":23017:23020   */\n      dup3\n        /* \"#utility.yul\":22928:23021   */\n      tag_438\n      jump\t// in\n    tag_667:\n        /* \"#utility.yul\":23046:23048   */\n      0x20\n        /* \"#utility.yul\":23041:23044   */\n      dup3\n        /* \"#utility.yul\":23037:23049   */\n      add\n        /* \"#utility.yul\":23030:23049   */\n      swap1\n      pop\n        /* \"#utility.yul\":22689:23055   */\n      swap2\n      swap1\n      pop\n      jump\t// out\n        /* \"#utility.yul\":23061:23480   */\n    tag_198:\n        /* \"#utility.yul\":23227:23231   */\n      0x00\n        /* \"#utility.yul\":23265:23267   */\n      0x20\n        /* \"#utility.yul\":23254:23263   */\n      dup3\n        /* \"#utility.yul\":23250:23268   */\n      add\n        /* \"#utility.yul\":23242:23268   */\n      swap1\n      pop\n        /* \"#utility.yul\":23314:23323   */\n      dup2\n        /* \"#utility.yul\":23308:23312   */\n      dup2\n        /* \"#utility.yul\":23304:23324   */\n      sub\n        /* \"#utility.yul\":23300:23301   */\n      0x00\n        /* \"#utility.yul\":23289:23298   */\n      dup4\n        /* \"#utility.yul\":23285:23302   */\n      add\n        /* \"#utility.yul\":23278:23325   */\n      mstore\n        /* \"#utility.yul\":23342:23473   */\n      tag_669\n        /* \"#utility.yul\":23468:23472   */\n      dup2\n        /* \"#utility.yul\":23342:23473   */\n      tag_439\n      jump\t// in\n    tag_669:\n        /* \"#utility.yul\":23334:23473   */\n      swap1\n      pop\n        /* \"#utility.yul\":23061:23480   */\n      swap2\n      swap1\n      pop\n      jump\t// out\n        /* \"#utility.yul\":23486:23656   */\n    tag_440:\n        /* \"#utility.yul\":23626:23648   */\n      0x57696e6e657220686173206e6f20726566756e64000000000000000000000000\n        /* \"#utility.yul\":23622:23623   */\n      0x00\n        /* \"#utility.yul\":23614:23620   */\n      dup3\n        /* \"#utility.yul\":23610:23624   */\n      add\n        /* \"#utility.yul\":23603:23649   */\n      mstore\n        /* \"#utility.yul\":23486:23656   */\n      pop\n      jump\t// out\n        /* \"#utility.yul\":23662:24028   */\n    tag_441:\n        /* \"#utility.yul\":23804:23807   */\n      0x00\n        /* \"#utility.yul\":23825:23892   */\n      tag_672\n        /* \"#utility.yul\":23889:23891   */\n      0x14\n        /* \"#utility.yul\":23884:23887   */\n      dup4\n        /* \"#utility.yul\":23825:23892   */\n      tag_411\n      jump\t// in\n    tag_672:\n        /* \"#utility.yul\":23818:23892   */\n      swap2\n      pop\n        /* \"#utility.yul\":23901:23994   */\n      tag_673\n        /* \"#utility.yul\":23990:23993   */\n      dup3\n        /* \"#utility.yul\":23901:23994   */\n      tag_440\n      jump\t// in\n    tag_673:\n        /* \"#utility.yul\":24019:24021   */\n      0x20\n        /* \"#utility.yul\":24014:24017   */\n      dup3\n        /* \"#utility.yul\":24010:24022   */\n      add\n        /* \"#utility.yul\":24003:24022   */\n      swap1\n      pop\n        /* \"#utility.yul\":23662:24028   */\n      swap2\n      swap1\n      pop\n      jump\t// out\n        /* \"#utility.yul\":24034:24453   */\n    tag_201:\n        /* \"#utility.yul\":24200:24204   */\n      0x00\n        /* \"#utility.yul\":24238:24240   */\n      0x20\n        /* \"#utility.yul\":24227:24236   */\n      dup3\n        /* \"#utility.yul\":24223:24241   */\n      add\n        /* \"#utility.yul\":24215:24241   */\n      swap1\n      pop\n        /* \"#utility.yul\":24287:24296   */\n      dup2\n        /* \"#utility.yul\":24281:24285   */\n      dup2\n        /* \"#utility.yul\":24277:24297   */\n      sub\n        /* \"#utility.yul\":24273:24274   */\n      0x00\n        /* \"#utility.yul\":24262:24271   */\n      dup4\n        /* \"#utility.yul\":24258:24275   */\n      add\n        /* \"#utility.yul\":24251:24298   */\n      mstore\n        /* \"#utility.yul\":24315:24446   */\n      tag_675\n        /* \"#utility.yul\":24441:24445   */\n      dup2\n        /* \"#utility.yul\":24315:24446   */\n      tag_441\n      jump\t// in\n    tag_675:\n        /* \"#utility.yul\":24307:24446   */\n      swap1\n      pop\n        /* \"#utility.yul\":24034:24453   */\n      swap2\n      swap1\n      pop\n      jump\t// out\n        /* \"#utility.yul\":24459:24628   */\n    tag_442:\n        /* \"#utility.yul\":24599:24620   */\n      0x4e6f20726566756e6420617661696c61626c6500000000000000000000000000\n        /* \"#utility.yul\":24595:24596   */\n      0x00\n        /* \"#utility.yul\":24587:24593   */\n      dup3\n        /* \"#utility.yul\":24583:24597   */\n      add\n        /* \"#utility.yul\":24576:24621   */\n      mstore\n        /* \"#utility.yul\":24459:24628   */\n      pop\n      jump\t// out\n        /* \"#utility.yul\":24634:25000   */\n    tag_443:\n        /* \"#utility.yul\":24776:24779   */\n      0x00\n        /* \"#utility.yul\":24797:24864   */\n      tag_678\n        /* \"#utility.yul\":24861:24863   */\n      0x13\n        /* \"#utility.yul\":24856:24859   */\n      dup4\n        /* \"#utility.yul\":24797:24864   */\n      tag_411\n      jump\t// in\n    tag_678:\n        /* \"#utility.yul\":24790:24864   */\n      swap2\n      pop\n        /* \"#utility.yul\":24873:24966   */\n      tag_679\n        /* \"#utility.yul\":24962:24965   */\n      dup3\n        /* \"#utility.yul\":24873:24966   */\n      tag_442\n      jump\t// in\n    tag_679:\n        /* \"#utility.yul\":24991:24993   */\n      0x20\n        /* \"#utility.yul\":24986:24989   */\n      dup3\n        /* \"#utility.yul\":24982:24994   */\n      add\n        /* \"#utility.yul\":24975:24994   */\n      swap1\n      pop\n        /* \"#utility.yul\":24634:25000   */\n      swap2\n      swap1\n      pop\n      jump\t// out\n        /* \"#utility.yul\":25006:25425   */\n    tag_204:\n        /* \"#utility.yul\":25172:25176   */\n      0x00\n        /* \"#utility.yul\":25210:25212   */\n      0x20\n        /* \"#utility.yul\":25199:25208   */\n      dup3\n        /* \"#utility.yul\":25195:25213   */\n      add\n        /* \"#utility.yul\":25187:25213   */\n      swap1\n      pop\n        /* \"#utility.yul\":25259:25268   */\n      dup2\n        /* \"#utility.yul\":25253:25257   */\n      dup2\n        /* \"#utility.yul\":25249:25269   */\n      sub\n        /* \"#utility.yul\":25245:25246   */\n      0x00\n        /* \"#utility.yul\":25234:25243   */\n      dup4\n        /* \"#utility.yul\":25230:25247   */\n      add\n        /* \"#utility.yul\":25223:25270   */\n      mstore\n        /* \"#utility.yul\":25287:25418   */\n      tag_681\n        /* \"#utility.yul\":25413:25417   */\n      dup2\n        /* \"#utility.yul\":25287:25418   */\n      tag_443\n      jump\t// in\n    tag_681:\n        /* \"#utility.yul\":25279:25418   */\n      swap1\n      pop\n        /* \"#utility.yul\":25006:25425   */\n      swap2\n      swap1\n      pop\n      jump\t// out\n        /* \"#utility.yul\":25431:25578   */\n    tag_444:\n        /* \"#utility.yul\":25532:25543   */\n      0x00\n        /* \"#utility.yul\":25569:25572   */\n      dup2\n        /* \"#utility.yul\":25554:25572   */\n      swap1\n      pop\n        /* \"#utility.yul\":25431:25578   */\n      swap3\n      swap2\n      pop\n      pop\n      jump\t// out\n        /* \"#utility.yul\":25584:25698   */\n    tag_445:\n      pop\n      jump\t// out\n        /* \"#utility.yul\":25704:26102   */\n    tag_446:\n        /* \"#utility.yul\":25863:25866   */\n      0x00\n        /* \"#utility.yul\":25884:25967   */\n      tag_685\n        /* \"#utility.yul\":25965:25966   */\n      0x00\n        /* \"#utility.yul\":25960:25963   */\n      dup4\n        /* \"#utility.yul\":25884:25967   */\n      tag_444\n      jump\t// in\n    tag_685:\n        /* \"#utility.yul\":25877:25967   */\n      swap2\n      pop\n        /* \"#utility.yul\":25976:26069   */\n      tag_686\n        /* \"#utility.yul\":26065:26068   */\n      dup3\n        /* \"#utility.yul\":25976:26069   */\n      tag_445\n      jump\t// in\n    tag_686:\n        /* \"#utility.yul\":26094:26095   */\n      0x00\n        /* \"#utility.yul\":26089:26092   */\n      dup3\n        /* \"#utility.yul\":26085:26096   */\n      add\n        /* \"#utility.yul\":26078:26096   */\n      swap1\n      pop\n        /* \"#utility.yul\":25704:26102   */\n      swap2\n      swap1\n      pop\n      jump\t// out\n        /* \"#utility.yul\":26108:26487   */\n    tag_206:\n        /* \"#utility.yul\":26292:26295   */\n      0x00\n        /* \"#utility.yul\":26314:26461   */\n      tag_688\n        /* \"#utility.yul\":26457:26460   */\n      dup3\n        /* \"#utility.yul\":26314:26461   */\n      tag_446\n      jump\t// in\n    tag_688:\n        /* \"#utility.yul\":26307:26461   */\n      swap2\n      pop\n        /* \"#utility.yul\":26478:26481   */\n      dup2\n        /* \"#utility.yul\":26471:26481   */\n      swap1\n      pop\n        /* \"#utility.yul\":26108:26487   */\n      swap2\n      swap1\n      pop\n      jump\t// out\n        /* \"#utility.yul\":26493:26656   */\n    tag_447:\n        /* \"#utility.yul\":26633:26648   */\n      0x526566756e64206661696c656400000000000000000000000000000000000000\n        /* \"#utility.yul\":26629:26630   */\n      0x00\n        /* \"#utility.yul\":26621:26627   */\n      dup3\n        /* \"#utility.yul\":26617:26631   */\n      add\n        /* \"#utility.yul\":26610:26649   */\n      mstore\n        /* \"#utility.yul\":26493:26656   */\n      pop\n      jump\t// out\n        /* \"#utility.yul\":26662:27028   */\n    tag_448:\n        /* \"#utility.yul\":26804:26807   */\n      0x00\n        /* \"#utility.yul\":26825:26892   */\n      tag_691\n        /* \"#utility.yul\":26889:26891   */\n      0x0d\n        /* \"#utility.yul\":26884:26887   */\n      dup4\n        /* \"#utility.yul\":26825:26892   */\n      tag_411\n      jump\t// in\n    tag_691:\n        /* \"#utility.yul\":26818:26892   */\n      swap2\n      pop\n        /* \"#utility.yul\":26901:26994   */\n      tag_692\n        /* \"#utility.yul\":26990:26993   */\n      dup3\n        /* \"#utility.yul\":26901:26994   */\n      tag_447\n      jump\t// in\n    tag_692:\n        /* \"#utility.yul\":27019:27021   */\n      0x20\n        /* \"#utility.yul\":27014:27017   */\n      dup3\n        /* \"#utility.yul\":27010:27022   */\n      add\n        /* \"#utility.yul\":27003:27022   */\n      swap1\n      pop\n        /* \"#utility.yul\":26662:27028   */\n      swap2\n      swap1\n      pop\n      jump\t// out\n        /* \"#utility.yul\":27034:27453   */\n    tag_212:\n        /* \"#utility.yul\":27200:27204   */\n      0x00\n        /* \"#utility.yul\":27238:27240   */\n      0x20\n        /* \"#utility.yul\":27227:27236   */\n      dup3\n        /* \"#utility.yul\":27223:27241   */\n      add\n        /* \"#utility.yul\":27215:27241   */\n      swap1\n      pop\n        /* \"#utility.yul\":27287:27296   */\n      dup2\n        /* \"#utility.yul\":27281:27285   */\n      dup2\n        /* \"#utility.yul\":27277:27297   */\n      sub\n        /* \"#utility.yul\":27273:27274   */\n      0x00\n        /* \"#utility.yul\":27262:27271   */\n      dup4\n        /* \"#utility.yul\":27258:27275   */\n      add\n        /* \"#utility.yul\":27251:27298   */\n      mstore\n        /* \"#utility.yul\":27315:27446   */\n      tag_694\n        /* \"#utility.yul\":27441:27445   */\n      dup2\n        /* \"#utility.yul\":27315:27446   */\n      tag_448\n      jump\t// in\n    tag_694:\n        /* \"#utility.yul\":27307:27446   */\n      swap1\n      pop\n        /* \"#utility.yul\":27034:27453   */\n      swap2\n      swap1\n      pop\n      jump\t// out\n        /* \"#utility.yul\":27459:27640   */\n    tag_449:\n        /* \"#utility.yul\":27599:27632   */\n      0x4f6e6c792077696e6e65722063616e2061636365737320746865206461746100\n        /* \"#utility.yul\":27595:27596   */\n      0x00\n        /* \"#utility.yul\":27587:27593   */\n      dup3\n        /* \"#utility.yul\":27583:27597   */\n      add\n        /* \"#utility.yul\":27576:27633   */\n      mstore\n        /* \"#utility.yul\":27459:27640   */\n      pop\n      jump\t// out\n        /* \"#utility.yul\":27646:28012   */\n    tag_450:\n        /* \"#utility.yul\":27788:27791   */\n      0x00\n        /* \"#utility.yul\":27809:27876   */\n      tag_697\n        /* \"#utility.yul\":27873:27875   */\n      0x1f\n        /* \"#utility.yul\":27868:27871   */\n      dup4\n        /* \"#utility.yul\":27809:27876   */\n      tag_411\n      jump\t// in\n    tag_697:\n        /* \"#utility.yul\":27802:27876   */\n      swap2\n      pop\n        /* \"#utility.yul\":27885:27978   */\n      tag_698\n        /* \"#utility.yul\":27974:27977   */\n      dup3\n        /* \"#utility.yul\":27885:27978   */\n      tag_449\n      jump\t// in\n    tag_698:\n        /* \"#utility.yul\":28003:28005   */\n      0x20\n        /* \"#utility.yul\":27998:28001   */\n      dup3\n        /* \"#utility.yul\":27994:28006   */\n      add\n        /* \"#utility.yul\":27987:28006   */\n      swap1\n      pop\n        /* \"#utility.yul\":27646:28012   */\n      swap2\n      swap1\n      pop\n      jump\t// out\n        /* \"#utility.yul\":28018:28437   */\n    tag_224:\n        /* \"#utility.yul\":28184:28188   */\n      0x00\n        /* \"#utility.yul\":28222:28224   */\n      0x20\n        /* \"#utility.yul\":28211:28220   */\n      dup3\n        /* \"#utility.yul\":28207:28225   */\n      add\n        /* \"#utility.yul\":28199:28225   */\n      swap1\n      pop\n        /* \"#utility.yul\":28271:28280   */\n      dup2\n        /* \"#utility.yul\":28265:28269   */\n      dup2\n        /* \"#utility.yul\":28261:28281   */\n      sub\n        /* \"#utility.yul\":28257:28258   */\n      0x00\n        /* \"#utility.yul\":28246:28255   */\n      dup4\n        /* \"#utility.yul\":28242:28259   */\n      add\n        /* \"#utility.yul\":28235:28282   */\n      mstore\n        /* \"#utility.yul\":28299:28430   */\n      tag_700\n        /* \"#utility.yul\":28425:28429   */\n      dup2\n        /* \"#utility.yul\":28299:28430   */\n      tag_450\n      jump\t// in\n    tag_700:\n        /* \"#utility.yul\":28291:28430   */\n      swap1\n      pop\n        /* \"#utility.yul\":28018:28437   */\n      swap2\n      swap1\n      pop\n      jump\t// out\n        /* \"#utility.yul\":28443:28623   */\n    tag_451:\n        /* \"#utility.yul\":28491:28568   */\n      0x4e487b7100000000000000000000000000000000000000000000000000000000\n        /* \"#utility.yul\":28488:28489   */\n      0x00\n        /* \"#utility.yul\":28481:28569   */\n      mstore\n        /* \"#utility.yul\":28588:28592   */\n      0x22\n        /* \"#utility.yul\":28585:28586   */\n      0x04\n        /* \"#utility.yul\":28578:28593   */\n      mstore\n        /* \"#utility.yul\":28612:28616   */\n      0x24\n        /* \"#utility.yul\":28609:28610   */\n      0x00\n        /* \"#utility.yul\":28602:28617   */\n      revert\n        /* \"#utility.yul\":28629:28949   */\n    tag_226:\n        /* \"#utility.yul\":28673:28679   */\n      0x00\n        /* \"#utility.yul\":28710:28711   */\n      0x02\n        /* \"#utility.yul\":28704:28708   */\n      dup3\n        /* \"#utility.yul\":28700:28712   */\n      div\n        /* \"#utility.yul\":28690:28712   */\n      swap1\n      pop\n        /* \"#utility.yul\":28757:28758   */\n      0x01\n        /* \"#utility.yul\":28751:28755   */\n      dup3\n        /* \"#utility.yul\":28747:28759   */\n      and\n        /* \"#utility.yul\":28778:28796   */\n      dup1\n        /* \"#utility.yul\":28768:28849   */\n      tag_703\n      jumpi\n        /* \"#utility.yul\":28834:28838   */\n      0x7f\n        /* \"#utility.yul\":28826:28832   */\n      dup3\n        /* \"#utility.yul\":28822:28839   */\n      and\n        /* \"#utility.yul\":28812:28839   */\n      swap2\n      pop\n        /* \"#utility.yul\":28768:28849   */\n    tag_703:\n        /* \"#utility.yul\":28896:28898   */\n      0x20\n        /* \"#utility.yul\":28888:28894   */\n      dup3\n        /* \"#utility.yul\":28885:28899   */\n      lt\n        /* \"#utility.yul\":28865:28883   */\n      dup2\n        /* \"#utility.yul\":28862:28900   */\n      sub\n        /* \"#utility.yul\":28859:28943   */\n      tag_704\n      jumpi\n        /* \"#utility.yul\":28915:28933   */\n      tag_705\n      tag_451\n      jump\t// in\n    tag_705:\n        /* \"#utility.yul\":28859:28943   */\n    tag_704:\n        /* \"#utility.yul\":28680:28949   */\n      pop\n        /* \"#utility.yul\":28629:28949   */\n      swap2\n      swap1\n      pop\n      jump\t// out\n        /* \"#utility.yul\":28955:29127   */\n    tag_452:\n        /* \"#utility.yul\":29095:29119   */\n      0x42696420696e646578206f7574206f662072616e676500000000000000000000\n        /* \"#utility.yul\":29091:29092   */\n      0x00\n        /* \"#utility.yul\":29083:29089   */\n      dup3\n        /* \"#utility.yul\":29079:29093   */\n      add\n        /* \"#utility.yul\":29072:29120   */\n      mstore\n        /* \"#utility.yul\":28955:29127   */\n      pop\n      jump\t// out\n        /* \"#utility.yul\":29133:29499   */\n    tag_453:\n        /* \"#utility.yul\":29275:29278   */\n      0x00\n        /* \"#utility.yul\":29296:29363   */\n      tag_708\n        /* \"#utility.yul\":29360:29362   */\n      0x16\n        /* \"#utility.yul\":29355:29358   */\n      dup4\n        /* \"#utility.yul\":29296:29363   */\n      tag_411\n      jump\t// in\n    tag_708:\n        /* \"#utility.yul\":29289:29363   */\n      swap2\n      pop\n        /* \"#utility.yul\":29372:29465   */\n      tag_709\n        /* \"#utility.yul\":29461:29464   */\n      dup3\n        /* \"#utility.yul\":29372:29465   */\n      tag_452\n      jump\t// in\n    tag_709:\n        /* \"#utility.yul\":29490:29492   */\n      0x20\n        /* \"#utility.yul\":29485:29488   */\n      dup3\n        /* \"#utility.yul\":29481:29493   */\n      add\n        /* \"#utility.yul\":29474:29493   */\n      swap1\n      pop\n        /* \"#utility.yul\":29133:29499   */\n      swap2\n      swap1\n      pop\n      jump\t// out\n        /* \"#utility.yul\":29505:29924   */\n    tag_272:\n        /* \"#utility.yul\":29671:29675   */\n      0x00\n        /* \"#utility.yul\":29709:29711   */\n      0x20\n        /* \"#utility.yul\":29698:29707   */\n      dup3\n        /* \"#utility.yul\":29694:29712   */\n      add\n        /* \"#utility.yul\":29686:29712   */\n      swap1\n      pop\n        /* \"#utility.yul\":29758:29767   */\n      dup2\n        /* \"#utility.yul\":29752:29756   */\n      dup2\n        /* \"#utility.yul\":29748:29768   */\n      sub\n        /* \"#utility.yul\":29744:29745   */\n      0x00\n        /* \"#utility.yul\":29733:29742   */\n      dup4\n        /* \"#utility.yul\":29729:29746   */\n      add\n        /* \"#utility.yul\":29722:29769   */\n      mstore\n        /* \"#utility.yul\":29786:29917   */\n      tag_711\n        /* \"#utility.yul\":29912:29916   */\n      dup2\n        /* \"#utility.yul\":29786:29917   */\n      tag_453\n      jump\t// in\n    tag_711:\n        /* \"#utility.yul\":29778:29917   */\n      swap1\n      pop\n        /* \"#utility.yul\":29505:29924   */\n      swap2\n      swap1\n      pop\n      jump\t// out\n        /* \"#utility.yul\":29930:30110   */\n    tag_275:\n        /* \"#utility.yul\":29978:30055   */\n      0x4e487b7100000000000000000000000000000000000000000000000000000000\n        /* \"#utility.yul\":29975:29976   */\n      0x00\n        /* \"#utility.yul\":29968:30056   */\n      mstore\n        /* \"#utility.yul\":30075:30079   */\n      0x32\n        /* \"#utility.yul\":30072:30073   */\n      0x04\n        /* \"#utility.yul\":30065:30080   */\n      mstore\n        /* \"#utility.yul\":30099:30103   */\n      0x24\n        /* \"#utility.yul\":30096:30097   */\n      0x00\n        /* \"#utility.yul\":30089:30104   */\n      revert\n        /* \"#utility.yul\":30116:30287   */\n    tag_454:\n        /* \"#utility.yul\":30256:30279   */\n      0x41756374696f6e206e6f7420656e646564207965740000000000000000000000\n        /* \"#utility.yul\":30252:30253   */\n      0x00\n        /* \"#utility.yul\":30244:30250   */\n      dup3\n        /* \"#utility.yul\":30240:30254   */\n      add\n        /* \"#utility.yul\":30233:30280   */\n      mstore\n        /* \"#utility.yul\":30116:30287   */\n      pop\n      jump\t// out\n        /* \"#utility.yul\":30293:30659   */\n    tag_455:\n        /* \"#utility.yul\":30435:30438   */\n      0x00\n        /* \"#utility.yul\":30456:30523   */\n      tag_715\n        /* \"#utility.yul\":30520:30522   */\n      0x15\n        /* \"#utility.yul\":30515:30518   */\n      dup4\n        /* \"#utility.yul\":30456:30523   */\n      tag_411\n      jump\t// in\n    tag_715:\n        /* \"#utility.yul\":30449:30523   */\n      swap2\n      pop\n        /* \"#utility.yul\":30532:30625   */\n      tag_716\n        /* \"#utility.yul\":30621:30624   */\n      dup3\n        /* \"#utility.yul\":30532:30625   */\n      tag_454\n      jump\t// in\n    tag_716:\n        /* \"#utility.yul\":30650:30652   */\n      0x20\n        /* \"#utility.yul\":30645:30648   */\n      dup3\n        /* \"#utility.yul\":30641:30653   */\n      add\n        /* \"#utility.yul\":30634:30653   */\n      swap1\n      pop\n        /* \"#utility.yul\":30293:30659   */\n      swap2\n      swap1\n      pop\n      jump\t// out\n        /* \"#utility.yul\":30665:31084   */\n    tag_280:\n        /* \"#utility.yul\":30831:30835   */\n      0x00\n        /* \"#utility.yul\":30869:30871   */\n      0x20\n        /* \"#utility.yul\":30858:30867   */\n      dup3\n        /* \"#utility.yul\":30854:30872   */\n      add\n        /* \"#utility.yul\":30846:30872   */\n      swap1\n      pop\n        /* \"#utility.yul\":30918:30927   */\n      dup2\n        /* \"#utility.yul\":30912:30916   */\n      dup2\n        /* \"#utility.yul\":30908:30928   */\n      sub\n        /* \"#utility.yul\":30904:30905   */\n      0x00\n        /* \"#utility.yul\":30893:30902   */\n      dup4\n        /* \"#utility.yul\":30889:30906   */\n      add\n        /* \"#utility.yul\":30882:30929   */\n      mstore\n        /* \"#utility.yul\":30946:31077   */\n      tag_718\n        /* \"#utility.yul\":31072:31076   */\n      dup2\n        /* \"#utility.yul\":30946:31077   */\n      tag_455\n      jump\t// in\n    tag_718:\n        /* \"#utility.yul\":30938:31077   */\n      swap1\n      pop\n        /* \"#utility.yul\":30665:31084   */\n      swap2\n      swap1\n      pop\n      jump\t// out\n        /* \"#utility.yul\":31090:31265   */\n    tag_456:\n        /* \"#utility.yul\":31230:31257   */\n      0x41756374696f6e20616c72656164792066696e616c697a656400000000000000\n        /* \"#utility.yul\":31226:31227   */\n      0x00\n        /* \"#utility.yul\":31218:31224   */\n      dup3\n        /* \"#utility.yul\":31214:31228   */\n      add\n        /* \"#utility.yul\":31207:31258   */\n      mstore\n        /* \"#utility.yul\":31090:31265   */\n      pop\n      jump\t// out\n        /* \"#utility.yul\":31271:31637   */\n    tag_457:\n        /* \"#utility.yul\":31413:31416   */\n      0x00\n        /* \"#utility.yul\":31434:31501   */\n      tag_721\n        /* \"#utility.yul\":31498:31500   */\n      0x19\n        /* \"#utility.yul\":31493:31496   */\n      dup4\n        /* \"#utility.yul\":31434:31501   */\n      tag_411\n      jump\t// in\n    tag_721:\n        /* \"#utility.yul\":31427:31501   */\n      swap2\n      pop\n        /* \"#utility.yul\":31510:31603   */\n      tag_722\n        /* \"#utility.yul\":31599:31602   */\n      dup3\n        /* \"#utility.yul\":31510:31603   */\n      tag_456\n      jump\t// in\n    tag_722:\n        /* \"#utility.yul\":31628:31630   */\n      0x20\n        /* \"#utility.yul\":31623:31626   */\n      dup3\n        /* \"#utility.yul\":31619:31631   */\n      add\n        /* \"#utility.yul\":31612:31631   */\n      swap1\n      pop\n        /* \"#utility.yul\":31271:31637   */\n      swap2\n      swap1\n      pop\n      jump\t// out\n        /* \"#utility.yul\":31643:32062   */\n    tag_284:\n        /* \"#utility.yul\":31809:31813   */\n      0x00\n        /* \"#utility.yul\":31847:31849   */\n      0x20\n        /* \"#utility.yul\":31836:31845   */\n      dup3\n        /* \"#utility.yul\":31832:31850   */\n      add\n        /* \"#utility.yul\":31824:31850   */\n      swap1\n      pop\n        /* \"#utility.yul\":31896:31905   */\n      dup2\n        /* \"#utility.yul\":31890:31894   */\n      dup2\n        /* \"#utility.yul\":31886:31906   */\n      sub\n        /* \"#utility.yul\":31882:31883   */\n      0x00\n        /* \"#utility.yul\":31871:31880   */\n      dup4\n        /* \"#utility.yul\":31867:31884   */\n      add\n        /* \"#utility.yul\":31860:31907   */\n      mstore\n        /* \"#utility.yul\":31924:32055   */\n      tag_724\n        /* \"#utility.yul\":32050:32054   */\n      dup2\n        /* \"#utility.yul\":31924:32055   */\n      tag_457\n      jump\t// in\n    tag_724:\n        /* \"#utility.yul\":31916:32055   */\n      swap1\n      pop\n        /* \"#utility.yul\":31643:32062   */\n      swap2\n      swap1\n      pop\n      jump\t// out\n        /* \"#utility.yul\":32068:32238   */\n    tag_458:\n        /* \"#utility.yul\":32208:32230   */\n      0x496e73756666696369656e742062616c616e6365000000000000000000000000\n        /* \"#utility.yul\":32204:32205   */\n      0x00\n        /* \"#utility.yul\":32196:32202   */\n      dup3\n        /* \"#utility.yul\":32192:32206   */\n      add\n        /* \"#utility.yul\":32185:32231   */\n      mstore\n        /* \"#utility.yul\":32068:32238   */\n      pop\n      jump\t// out\n        /* \"#utility.yul\":32244:32610   */\n    tag_459:\n        /* \"#utility.yul\":32386:32389   */\n      0x00\n        /* \"#utility.yul\":32407:32474   */\n      tag_727\n        /* \"#utility.yul\":32471:32473   */\n      0x14\n        /* \"#utility.yul\":32466:32469   */\n      dup4\n        /* \"#utility.yul\":32407:32474   */\n      tag_411\n      jump\t// in\n    tag_727:\n        /* \"#utility.yul\":32400:32474   */\n      swap2\n      pop\n        /* \"#utility.yul\":32483:32576   */\n      tag_728\n        /* \"#utility.yul\":32572:32575   */\n      dup3\n        /* \"#utility.yul\":32483:32576   */\n      tag_458\n      jump\t// in\n    tag_728:\n        /* \"#utility.yul\":32601:32603   */\n      0x20\n        /* \"#utility.yul\":32596:32599   */\n      dup3\n        /* \"#utility.yul\":32592:32604   */\n      add\n        /* \"#utility.yul\":32585:32604   */\n      swap1\n      pop\n        /* \"#utility.yul\":32244:32610   */\n      swap2\n      swap1\n      pop\n      jump\t// out\n        /* \"#utility.yul\":32616:33035   */\n    tag_288:\n        /* \"#utility.yul\":32782:32786   */\n      0x00\n        /* \"#utility.yul\":32820:32822   */\n      0x20\n        /* \"#utility.yul\":32809:32818   */\n      dup3\n        /* \"#utility.yul\":32805:32823   */\n      add\n        /* \"#utility.yul\":32797:32823   */\n      swap1\n      pop\n        /* \"#utility.yul\":32869:32878   */\n      dup2\n        /* \"#utility.yul\":32863:32867   */\n      dup2\n        /* \"#utility.yul\":32859:32879   */\n      sub\n        /* \"#utility.yul\":32855:32856   */\n      0x00\n        /* \"#utility.yul\":32844:32853   */\n      dup4\n        /* \"#utility.yul\":32840:32857   */\n      add\n        /* \"#utility.yul\":32833:32880   */\n      mstore\n        /* \"#utility.yul\":32897:33028   */\n      tag_730\n        /* \"#utility.yul\":33023:33027   */\n      dup2\n        /* \"#utility.yul\":32897:33028   */\n      tag_459\n      jump\t// in\n    tag_730:\n        /* \"#utility.yul\":32889:33028   */\n      swap1\n      pop\n        /* \"#utility.yul\":32616:33035   */\n      swap2\n      swap1\n      pop\n      jump\t// out\n        /* \"#utility.yul\":33041:33212   */\n    tag_460:\n        /* \"#utility.yul\":33181:33204   */\n      0x53656c6c6572207061796d656e74206661696c65640000000000000000000000\n        /* \"#utility.yul\":33177:33178   */\n      0x00\n        /* \"#utility.yul\":33169:33175   */\n      dup3\n        /* \"#utility.yul\":33165:33179   */\n      add\n        /* \"#utility.yul\":33158:33205   */\n      mstore\n        /* \"#utility.yul\":33041:33212   */\n      pop\n      jump\t// out\n        /* \"#utility.yul\":33218:33584   */\n    tag_461:\n        /* \"#utility.yul\":33360:33363   */\n      0x00\n        /* \"#utility.yul\":33381:33448   */\n      tag_733\n        /* \"#utility.yul\":33445:33447   */\n      0x15\n        /* \"#utility.yul\":33440:33443   */\n      dup4\n        /* \"#utility.yul\":33381:33448   */\n      tag_411\n      jump\t// in\n    tag_733:\n        /* \"#utility.yul\":33374:33448   */\n      swap2\n      pop\n        /* \"#utility.yul\":33457:33550   */\n      tag_734\n        /* \"#utility.yul\":33546:33549   */\n      dup3\n        /* \"#utility.yul\":33457:33550   */\n      tag_460\n      jump\t// in\n    tag_734:\n        /* \"#utility.yul\":33575:33577   */\n      0x20\n        /* \"#utility.yul\":33570:33573   */\n      dup3\n        /* \"#utility.yul\":33566:33578   */\n      add\n        /* \"#utility.yul\":33559:33578   */\n      swap1\n      pop\n        /* \"#utility.yul\":33218:33584   */\n      swap2\n      swap1\n      pop\n      jump\t// out\n        /* \"#utility.yul\":33590:34009   */\n    tag_295:\n        /* \"#utility.yul\":33756:33760   */\n      0x00\n        /* \"#utility.yul\":33794:33796   */\n      0x20\n        /* \"#utility.yul\":33783:33792   */\n      dup3\n        /* \"#utility.yul\":33779:33797   */\n      add\n        /* \"#utility.yul\":33771:33797   */\n      swap1\n      pop\n        /* \"#utility.yul\":33843:33852   */\n      dup2\n        /* \"#utility.yul\":33837:33841   */\n      dup2\n        /* \"#utility.yul\":33833:33853   */\n      sub\n        /* \"#utility.yul\":33829:33830   */\n      0x00\n        /* \"#utility.yul\":33818:33827   */\n      dup4\n        /* \"#utility.yul\":33814:33831   */\n      add\n        /* \"#utility.yul\":33807:33854   */\n      mstore\n        /* \"#utility.yul\":33871:34002   */\n      tag_736\n        /* \"#utility.yul\":33997:34001   */\n      dup2\n        /* \"#utility.yul\":33871:34002   */\n      tag_461\n      jump\t// in\n    tag_736:\n        /* \"#utility.yul\":33863:34002   */\n      swap1\n      pop\n        /* \"#utility.yul\":33590:34009   */\n      swap2\n      swap1\n      pop\n      jump\t// out\n        /* \"#utility.yul\":34015:34445   */\n    tag_297:\n        /* \"#utility.yul\":34158:34162   */\n      0x00\n        /* \"#utility.yul\":34196:34198   */\n      0x60\n        /* \"#utility.yul\":34185:34194   */\n      dup3\n        /* \"#utility.yul\":34181:34199   */\n      add\n        /* \"#utility.yul\":34173:34199   */\n      swap1\n      pop\n        /* \"#utility.yul\":34209:34280   */\n      tag_738\n        /* \"#utility.yul\":34277:34278   */\n      0x00\n        /* \"#utility.yul\":34266:34275   */\n      dup4\n        /* \"#utility.yul\":34262:34279   */\n      add\n        /* \"#utility.yul\":34253:34259   */\n      dup7\n        /* \"#utility.yul\":34209:34280   */\n      tag_415\n      jump\t// in\n    tag_738:\n        /* \"#utility.yul\":34290:34362   */\n      tag_739\n        /* \"#utility.yul\":34358:34360   */\n      0x20\n        /* \"#utility.yul\":34347:34356   */\n      dup4\n        /* \"#utility.yul\":34343:34361   */\n      add\n        /* \"#utility.yul\":34334:34340   */\n      dup6\n        /* \"#utility.yul\":34290:34362   */\n      tag_400\n      jump\t// in\n    tag_739:\n        /* \"#utility.yul\":34372:34438   */\n      tag_740\n        /* \"#utility.yul\":34434:34436   */\n      0x40\n        /* \"#utility.yul\":34423:34432   */\n      dup4\n        /* \"#utility.yul\":34419:34437   */\n      add\n        /* \"#utility.yul\":34410:34416   */\n      dup5\n        /* \"#utility.yul\":34372:34438   */\n      tag_398\n      jump\t// in\n    tag_740:\n        /* \"#utility.yul\":34015:34445   */\n      swap5\n      swap4\n      pop\n      pop\n      pop\n      pop\n      jump\t// out\n        /* \"#utility.yul\":34451:34594   */\n    tag_462:\n        /* \"#utility.yul\":34508:34513   */\n      0x00\n        /* \"#utility.yul\":34539:34545   */\n      dup2\n        /* \"#utility.yul\":34533:34546   */\n      mload\n        /* \"#utility.yul\":34524:34546   */\n      swap1\n      pop\n        /* \"#utility.yul\":34555:34588   */\n      tag_742\n        /* \"#utility.yul\":34582:34587   */\n      dup2\n        /* \"#utility.yul\":34555:34588   */\n      tag_429\n      jump\t// in\n    tag_742:\n        /* \"#utility.yul\":34451:34594   */\n      swap3\n      swap2\n      pop\n      pop\n      jump\t// out\n        /* \"#utility.yul\":34600:35107   */\n    tag_301:\n        /* \"#utility.yul\":34679:34685   */\n      0x00\n        /* \"#utility.yul\":34687:34693   */\n      0x00\n        /* \"#utility.yul\":34736:34738   */\n      0x40\n        /* \"#utility.yul\":34724:34733   */\n      dup4\n        /* \"#utility.yul\":34715:34722   */\n      dup6\n        /* \"#utility.yul\":34711:34734   */\n      sub\n        /* \"#utility.yul\":34707:34739   */\n      slt\n        /* \"#utility.yul\":34704:34823   */\n      iszero\n      tag_744\n      jumpi\n        /* \"#utility.yul\":34742:34821   */\n      tag_745\n      tag_391\n      jump\t// in\n    tag_745:\n        /* \"#utility.yul\":34704:34823   */\n    tag_744:\n        /* \"#utility.yul\":34862:34863   */\n      0x00\n        /* \"#utility.yul\":34887:34951   */\n      tag_746\n        /* \"#utility.yul\":34943:34950   */\n      dup6\n        /* \"#utility.yul\":34934:34940   */\n      dup3\n        /* \"#utility.yul\":34923:34932   */\n      dup7\n        /* \"#utility.yul\":34919:34941   */\n      add\n        /* \"#utility.yul\":34887:34951   */\n      tag_462\n      jump\t// in\n    tag_746:\n        /* \"#utility.yul\":34877:34951   */\n      swap3\n      pop\n        /* \"#utility.yul\":34833:34961   */\n      pop\n        /* \"#utility.yul\":35000:35002   */\n      0x20\n        /* \"#utility.yul\":35026:35090   */\n      tag_747\n        /* \"#utility.yul\":35082:35089   */\n      dup6\n        /* \"#utility.yul\":35073:35079   */\n      dup3\n        /* \"#utility.yul\":35062:35071   */\n      dup7\n        /* \"#utility.yul\":35058:35080   */\n      add\n        /* \"#utility.yul\":35026:35090   */\n      tag_462\n      jump\t// in\n    tag_747:\n        /* \"#utility.yul\":35016:35090   */\n      swap2\n      pop\n        /* \"#utility.yul\":34971:35100   */\n      pop\n        /* \"#utility.yul\":34600:35107   */\n      swap3\n      pop\n      swap3\n      swap1\n      pop\n      jump\t// out\n        /* \"#utility.yul\":35113:35282   */\n    tag_463:\n        /* \"#utility.yul\":35253:35274   */\n      0x42617463682073697a6520726571756972656400000000000000000000000000\n        /* \"#utility.yul\":35249:35250   */\n      0x00\n        /* \"#utility.yul\":35241:35247   */\n      dup3\n        /* \"#utility.yul\":35237:35251   */\n      add\n        /* \"#utility.yul\":35230:35275   */\n      mstore\n        /* \"#utility.yul\":35113:35282   */\n      pop\n      jump\t// out\n        /* \"#utility.yul\":35288:35654   */\n    tag_464:\n        /* \"#utility.yul\":35430:35433   */\n      0x00\n        /* \"#utility.yul\":35451:35518   */\n      tag_750\n        /* \"#utility.yul\":35515:35517   */\n      0x13\n        /* \"#utility.yul\":35510:35513   */\n      dup4\n        /* \"#utility.yul\":35451:35518   */\n      tag_411\n      jump\t// in\n    tag_750:\n        /* \"#utility.yul\":35444:35518   */\n      swap2\n      pop\n        /* \"#utility.yul\":35527:35620   */\n      tag_751\n        /* \"#utility.yul\":35616:35619   */\n      dup3\n        /* \"#utility.yul\":35527:35620   */\n      tag_463\n      jump\t// in\n    tag_751:\n        /* \"#utility.yul\":35645:35647   */\n      0x20\n        /* \"#utility.yul\":35640:35643   */\n      dup3\n        /* \"#utility.yul\":35636:35648   */\n      add\n        /* \"#utility.yul\":35629:35648   */\n      swap1\n      pop\n        /* \"#utility.yul\":35288:35654   */\n      swap2\n      swap1\n      pop\n      jump\t// out\n        /* \"#utility.yul\":35660:36079   */\n    tag_321:\n        /* \"#utility.yul\":35826:35830   */\n      0x00\n        /* \"#utility.yul\":35864:35866   */\n      0x20\n        /* \"#utility.yul\":35853:35862   */\n      dup3\n        /* \"#utility.yul\":35849:35867   */\n      add\n        /* \"#utility.yul\":35841:35867   */\n      swap1\n      pop\n        /* \"#utility.yul\":35913:35922   */\n      dup2\n        /* \"#utility.yul\":35907:35911   */\n      dup2\n        /* \"#utility.yul\":35903:35923   */\n      sub\n        /* \"#utility.yul\":35899:35900   */\n      0x00\n        /* \"#utility.yul\":35888:35897   */\n      dup4\n        /* \"#utility.yul\":35884:35901   */\n      add\n        /* \"#utility.yul\":35877:35924   */\n      mstore\n        /* \"#utility.yul\":35941:36072   */\n      tag_753\n        /* \"#utility.yul\":36067:36071   */\n      dup2\n        /* \"#utility.yul\":35941:36072   */\n      tag_464\n      jump\t// in\n    tag_753:\n        /* \"#utility.yul\":35933:36072   */\n      swap1\n      pop\n        /* \"#utility.yul\":35660:36079   */\n      swap2\n      swap1\n      pop\n      jump\t// out\n        /* \"#utility.yul\":36085:36265   */\n    tag_465:\n        /* \"#utility.yul\":36133:36210   */\n      0x4e487b7100000000000000000000000000000000000000000000000000000000\n        /* \"#utility.yul\":36130:36131   */\n      0x00\n        /* \"#utility.yul\":36123:36211   */\n      mstore\n        /* \"#utility.yul\":36230:36234   */\n      0x11\n        /* \"#utility.yul\":36227:36228   */\n      0x04\n        /* \"#utility.yul\":36220:36235   */\n      mstore\n        /* \"#utility.yul\":36254:36258   */\n      0x24\n        /* \"#utility.yul\":36251:36252   */\n      0x00\n        /* \"#utility.yul\":36244:36259   */\n      revert\n        /* \"#utility.yul\":36271:36504   */\n    tag_329:\n        /* \"#utility.yul\":36310:36313   */\n      0x00\n        /* \"#utility.yul\":36333:36357   */\n      tag_756\n        /* \"#utility.yul\":36351:36356   */\n      dup3\n        /* \"#utility.yul\":36333:36357   */\n      tag_399\n      jump\t// in\n    tag_756:\n        /* \"#utility.yul\":36324:36357   */\n      swap2\n      pop\n        /* \"#utility.yul\":36379:36445   */\n      0xffffffffffffffffffffffffffffffffffffffffffffffffffffffffffffffff\n        /* \"#utility.yul\":36372:36377   */\n      dup3\n        /* \"#utility.yul\":36369:36446   */\n      sub\n        /* \"#utility.yul\":36366:36469   */\n      tag_757\n      jumpi\n        /* \"#utility.yul\":36449:36467   */\n      tag_758\n      tag_465\n      jump\t// in\n    tag_758:\n        /* \"#utility.yul\":36366:36469   */\n    tag_757:\n        /* \"#utility.yul\":36496:36497   */\n      0x01\n        /* \"#utility.yul\":36489:36494   */\n      dup3\n        /* \"#utility.yul\":36485:36498   */\n      add\n        /* \"#utility.yul\":36478:36498   */\n      swap1\n      pop\n        /* \"#utility.yul\":36271:36504   */\n      swap2\n      swap1\n      pop\n      jump\t// out\n        /* \"#utility.yul\":36510:36673   */\n    tag_466:\n        /* \"#utility.yul\":36650:36665   */\n      0x41756374696f6e20656e64656400000000000000000000000000000000000000\n        /* \"#utility.yul\":36646:36647   */\n      0x00\n        /* \"#utility.yul\":36638:36644   */\n      dup3\n        /* \"#utility.yul\":36634:36648   */\n      add\n        /* \"#utility.yul\":36627:36666   */\n      mstore\n        /* \"#utility.yul\":36510:36673   */\n      pop\n      jump\t// out\n        /* \"#utility.yul\":36679:37045   */\n    tag_467:\n        /* \"#utility.yul\":36821:36824   */\n      0x00\n        /* \"#utility.yul\":36842:36909   */\n      tag_761\n        /* \"#utility.yul\":36906:36908   */\n      0x0d\n        /* \"#utility.yul\":36901:36904   */\n      dup4\n        /* \"#utility.yul\":36842:36909   */\n      tag_411\n      jump\t// in\n    tag_761:\n        /* \"#utility.yul\":36835:36909   */\n      swap2\n      pop\n        /* \"#utility.yul\":36918:37011   */\n      tag_762\n        /* \"#utility.yul\":37007:37010   */\n      dup3\n        /* \"#utility.yul\":36918:37011   */\n      tag_466\n      jump\t// in\n    tag_762:\n        /* \"#utility.yul\":37036:37038   */\n      0x20\n        /* \"#utility.yul\":37031:37034   */\n      dup3\n        /* \"#utility.yul\":37027:37039   */\n      add\n        /* \"#utility.yul\":37020:37039   */\n      swap1\n      pop\n        /* \"#utility.yul\":36679:37045   */\n      swap2\n      swap1\n      pop\n      jump\t// out\n        /* \"#utility.yul\":37051:37470   */\n    tag_344:\n        /* \"#utility.yul\":37217:37221   */\n      0x00\n        /* \"#utility.yul\":37255:37257   */\n      0x20\n        /* \"#utility.yul\":37244:37253   */\n      dup3\n        /* \"#utility.yul\":37240:37258   */\n      add\n        /* \"#utility.yul\":37232:37258   */\n      swap1\n      pop\n        /* \"#utility.yul\":37304:37313   */\n      dup2\n        /* \"#utility.yul\":37298:37302   */\n      dup2\n        /* \"#utility.yul\":37294:37314   */\n      sub\n        /* \"#utility.yul\":37290:37291   */\n      0x00\n        /* \"#utility.yul\":37279:37288   */\n      dup4\n        /* \"#utility.yul\":37275:37292   */\n      add\n        /* \"#utility.yul\":37268:37315   */\n      mstore\n        /* \"#utility.yul\":37332:37463   */\n      tag_764\n        /* \"#utility.yul\":37458:37462   */\n      dup2\n        /* \"#utility.yul\":37332:37463   */\n      tag_467\n      jump\t// in\n    tag_764:\n        /* \"#utility.yul\":37324:37463   */\n      swap1\n      pop\n        /* \"#utility.yul\":37051:37470   */\n      swap2\n      swap1\n      pop\n      jump\t// out\n        /* \"#utility.yul\":37476:37696   */\n    tag_468:\n        /* \"#utility.yul\":37616:37650   */\n      0x596f752063616e277420626964206f6e20796f7572206f776e2061756374696f\n        /* \"#utility.yul\":37612:37613   */\n      0x00\n        /* \"#utility.yul\":37604:37610   */\n      dup3\n        /* \"#utility.yul\":37600:37614   */\n      add\n        /* \"#utility.yul\":37593:37651   */\n      mstore\n        /* \"#utility.yul\":37685:37688   */\n      0x6e00000000000000000000000000000000000000000000000000000000000000\n        /* \"#utility.yul\":37680:37682   */\n      0x20\n        /* \"#utility.yul\":37672:37678   */\n      dup3\n        /* \"#utility.yul\":37668:37683   */\n      add\n        /* \"#utility.yul\":37661:37689   */\n      mstore\n        /* \"#utility.yul\":37476:37696   */\n      pop\n      jump\t// out\n        /* \"#utility.yul\":37702:38068   */\n    tag_469:\n        /* \"#utility.yul\":37844:37847   */\n      0x00\n        /* \"#utility.yul\":37865:37932   */\n      tag_767\n        /* \"#utility.yul\":37929:37931   */\n      0x21\n        /* \"#utility.yul\":37924:37927   */\n      dup4\n        /* \"#utility.yul\":37865:37932   */\n      tag_411\n      jump\t// in\n    tag_767:\n        /* \"#utility.yul\":37858:37932   */\n      swap2\n      pop\n        /* \"#utility.yul\":37941:38034   */\n      tag_768\n        /* \"#utility.yul\":38030:38033   */\n      dup3\n        /* \"#utility.yul\":37941:38034   */\n      tag_468\n      jump\t// in\n    tag_768:\n        /* \"#utility.yul\":38059:38061   */\n      0x40\n        /* \"#utility.yul\":38054:38057   */\n      dup3\n        /* \"#utility.yul\":38050:38062   */\n      add\n        /* \"#utility.yul\":38043:38062   */\n      swap1\n      pop\n        /* \"#utility.yul\":37702:38068   */\n      swap2\n      swap1\n      pop\n      jump\t// out\n        /* \"#utility.yul\":38074:38493   */\n    tag_348:\n        /* \"#utility.yul\":38240:38244   */\n      0x00\n        /* \"#utility.yul\":38278:38280   */\n      0x20\n        /* \"#utility.yul\":38267:38276   */\n      dup3\n        /* \"#utility.yul\":38263:38281   */\n      add\n        /* \"#utility.yul\":38255:38281   */\n      swap1\n      pop\n        /* \"#utility.yul\":38327:38336   */\n      dup2\n        /* \"#utility.yul\":38321:38325   */\n      dup2\n        /* \"#utility.yul\":38317:38337   */\n      sub\n        /* \"#utility.yul\":38313:38314   */\n      0x00\n        /* \"#utility.yul\":38302:38311   */\n      dup4\n        /* \"#utility.yul\":38298:38315   */\n      add\n        /* \"#utility.yul\":38291:38338   */\n      mstore\n        /* \"#utility.yul\":38355:38486   */\n      tag_770\n        /* \"#utility.yul\":38481:38485   */\n      dup2\n        /* \"#utility.yul\":38355:38486   */\n      tag_469\n      jump\t// in\n    tag_770:\n        /* \"#utility.yul\":38347:38486   */\n      swap1\n      pop\n        /* \"#utility.yul\":38074:38493   */\n      swap2\n      swap1\n      pop\n      jump\t// out\n        /* \"#utility.yul\":38499:38669   */\n    tag_470:\n        /* \"#utility.yul\":38639:38661   */\n      0x4d7573742073656e6420736f6d65206574686572000000000000000000000000\n        /* \"#utility.yul\":38635:38636   */\n      0x00\n        /* \"#utility.yul\":38627:38633   */\n      dup3\n        /* \"#utility.yul\":38623:38637   */\n      add\n        /* \"#utility.yul\":38616:38662   */\n      mstore\n        /* \"#utility.yul\":38499:38669   */\n      pop\n      jump\t// out\n        /* \"#utility.yul\":38675:39041   */\n    tag_471:\n        /* \"#utility.yul\":38817:38820   */\n      0x00\n        /* \"#utility.yul\":38838:38905   */\n      tag_773\n        /* \"#utility.yul\":38902:38904   */\n      0x14\n        /* \"#utility.yul\":38897:38900   */\n      dup4\n        /* \"#utility.yul\":38838:38905   */\n      tag_411\n      jump\t// in\n    tag_773:\n        /* \"#utility.yul\":38831:38905   */\n      swap2\n      pop\n        /* \"#utility.yul\":38914:39007   */\n      tag_774\n        /* \"#utility.yul\":39003:39006   */\n      dup3\n        /* \"#utility.yul\":38914:39007   */\n      tag_470\n      jump\t// in\n    tag_774:\n        /* \"#utility.yul\":39032:39034   */\n      0x20\n        /* \"#utility.yul\":39027:39030   */\n      dup3\n        /* \"#utility.yul\":39023:39035   */\n      add\n        /* \"#utility.yul\":39016:39035   */\n      swap1\n      pop\n        /* \"#utility.yul\":38675:39041   */\n      swap2\n      swap1\n      pop\n      jump\t// out\n        /* \"#utility.yul\":39047:39466   */\n    tag_351:\n        /* \"#utility.yul\":39213:39217   */\n      0x00\n        /* \"#utility.yul\":39251:39253   */\n      0x20\n        /* \"#utility.yul\":39240:39249   */\n      dup3\n        /* \"#utility.yul\":39236:39254   */\n      add\n        /* \"#utility.yul\":39228:39254   */\n      swap1\n      pop\n        /* \"#utility.yul\":39300:39309   */\n      dup2\n        /* \"#utility.yul\":39294:39298   */\n      dup2\n        /* \"#utility.yul\":39290:39310   */\n      sub\n        /* \"#utility.yul\":39286:39287   */\n      0x00\n        /* \"#utility.yul\":39275:39284   */\n      dup4\n        /* \"#utility.yul\":39271:39288   */\n      add\n        /* \"#utility.yul\":39264:39311   */\n      mstore\n        /* \"#utility.yul\":39328:39459   */\n      tag_776\n        /* \"#utility.yul\":39454:39458   */\n      dup2\n        /* \"#utility.yul\":39328:39459   */\n      tag_471\n      jump\t// in\n    tag_776:\n        /* \"#utility.yul\":39320:39459   */\n      swap1\n      pop\n        /* \"#utility.yul\":39047:39466   */\n      swap2\n      swap1\n      pop\n      jump\t// out\n        /* \"#utility.yul\":39472:39663   */\n    tag_353:\n        /* \"#utility.yul\":39512:39515   */\n      0x00\n        /* \"#utility.yul\":39531:39551   */\n      tag_778\n        /* \"#utility.yul\":39549:39550   */\n      dup3\n        /* \"#utility.yul\":39531:39551   */\n      tag_399\n      jump\t// in\n    tag_778:\n        /* \"#utility.yul\":39526:39551   */\n      swap2\n      pop\n        /* \"#utility.yul\":39565:39585   */\n      tag_779\n        /* \"#utility.yul\":39583:39584   */\n      dup4\n        /* \"#utility.yul\":39565:39585   */\n      tag_399\n      jump\t// in\n    tag_779:\n        /* \"#utility.yul\":39560:39585   */\n      swap3\n      pop\n        /* \"#utility.yul\":39608:39609   */\n      dup3\n        /* \"#utility.yul\":39605:39606   */\n      dup3\n        /* \"#utility.yul\":39601:39610   */\n      add\n        /* \"#utility.yul\":39594:39610   */\n      swap1\n      pop\n        /* \"#utility.yul\":39629:39632   */\n      dup1\n        /* \"#utility.yul\":39626:39627   */\n      dup3\n        /* \"#utility.yul\":39623:39633   */\n      gt\n        /* \"#utility.yul\":39620:39656   */\n      iszero\n      tag_780\n      jumpi\n        /* \"#utility.yul\":39636:39654   */\n      tag_781\n      tag_465\n      jump\t// in\n    tag_781:\n        /* \"#utility.yul\":39620:39656   */\n    tag_780:\n        /* \"#utility.yul\":39472:39663   */\n      swap3\n      swap2\n      pop\n      pop\n      jump\t// out\n        /* \"#utility.yul\":39669:39836   */\n    tag_472:\n        /* \"#utility.yul\":39809:39828   */\n      0x42656c6f77206d696e696d756d20626964000000000000000000000000000000\n        /* \"#utility.yul\":39805:39806   */\n      0x00\n        /* \"#utility.yul\":39797:39803   */\n      dup3\n        /* \"#utility.yul\":39793:39807   */\n      add\n        /* \"#utility.yul\":39786:39829   */\n      mstore\n        /* \"#utility.yul\":39669:39836   */\n      pop\n      jump\t// out\n        /* \"#utility.yul\":39842:40208   */\n    tag_473:\n        /* \"#utility.yul\":39984:39987   */\n      0x00\n        /* \"#utility.yul\":40005:40072   */\n      tag_784\n        /* \"#utility.yul\":40069:40071   */\n      0x11\n        /* \"#utility.yul\":40064:40067   */\n      dup4\n        /* \"#utility.yul\":40005:40072   */\n      tag_411\n      jump\t// in\n    tag_784:\n        /* \"#utility.yul\":39998:40072   */\n      swap2\n      pop\n        /* \"#utility.yul\":40081:40174   */\n      tag_785\n        /* \"#utility.yul\":40170:40173   */\n      dup3\n        /* \"#utility.yul\":40081:40174   */\n      tag_472\n      jump\t// in\n    tag_785:\n        /* \"#utility.yul\":40199:40201   */\n      0x20\n        /* \"#utility.yul\":40194:40197   */\n      dup3\n        /* \"#utility.yul\":40190:40202   */\n      add\n        /* \"#utility.yul\":40183:40202   */\n      swap1\n      pop\n        /* \"#utility.yul\":39842:40208   */\n      swap2\n      swap1\n      pop\n      jump\t// out\n        /* \"#utility.yul\":40214:40633   */\n    tag_357:\n        /* \"#utility.yul\":40380:40384   */\n      0x00\n        /* \"#utility.yul\":40418:40420   */\n      0x20\n        /* \"#utility.yul\":40407:40416   */\n      dup3\n        /* \"#utility.yul\":40403:40421   */\n      add\n        /* \"#utility.yul\":40395:40421   */\n      swap1\n      pop\n        /* \"#utility.yul\":40467:40476   */\n      dup2\n        /* \"#utility.yul\":40461:40465   */\n      dup2\n        /* \"#utility.yul\":40457:40477   */\n      sub\n        /* \"#utility.yul\":40453:40454   */\n      0x00\n        /* \"#utility.yul\":40442:40451   */\n      dup4\n        /* \"#utility.yul\":40438:40455   */\n      add\n        /* \"#utility.yul\":40431:40478   */\n      mstore\n        /* \"#utility.yul\":40495:40626   */\n      tag_787\n        /* \"#utility.yul\":40621:40625   */\n      dup2\n        /* \"#utility.yul\":40495:40626   */\n      tag_473\n      jump\t// in\n    tag_787:\n        /* \"#utility.yul\":40487:40626   */\n      swap1\n      pop\n        /* \"#utility.yul\":40214:40633   */\n      swap2\n      swap1\n      pop\n      jump\t// out\n        /* \"#utility.yul\":40639:40820   */\n    tag_474:\n        /* \"#utility.yul\":40779:40812   */\n      0x426964206d757374206578636565642063757272656e74206869676865737400\n        /* \"#utility.yul\":40775:40776   */\n      0x00\n        /* \"#utility.yul\":40767:40773   */\n      dup3\n        /* \"#utility.yul\":40763:40777   */\n      add\n        /* \"#utility.yul\":40756:40813   */\n      mstore\n        /* \"#utility.yul\":40639:40820   */\n      pop\n      jump\t// out\n        /* \"#utility.yul\":40826:41192   */\n    tag_475:\n        /* \"#utility.yul\":40968:40971   */\n      0x00\n        /* \"#utility.yul\":40989:41056   */\n      tag_790\n        /* \"#utility.yul\":41053:41055   */\n      0x1f\n        /* \"#utility.yul\":41048:41051   */\n      dup4\n        /* \"#utility.yul\":40989:41056   */\n      tag_411\n      jump\t// in\n    tag_790:\n        /* \"#utility.yul\":40982:41056   */\n      swap2\n      pop\n        /* \"#utility.yul\":41065:41158   */\n      tag_791\n        /* \"#utility.yul\":41154:41157   */\n      dup3\n        /* \"#utility.yul\":41065:41158   */\n      tag_474\n      jump\t// in\n    tag_791:\n        /* \"#utility.yul\":41183:41185   */\n      0x20\n        /* \"#utility.yul\":41178:41181   */\n      dup3\n        /* \"#utility.yul\":41174:41186   */\n      add\n        /* \"#utility.yul\":41167:41186   */\n      swap1\n      pop\n        /* \"#utility.yul\":40826:41192   */\n      swap2\n      swap1\n      pop\n      jump\t// out\n        /* \"#utility.yul\":41198:41617   */\n    tag_365:\n        /* \"#utility.yul\":41364:41368   */\n      0x00\n        /* \"#utility.yul\":41402:41404   */\n      0x20\n        /* \"#utility.yul\":41391:41400   */\n      dup3\n        /* \"#utility.yul\":41387:41405   */\n      add\n        /* \"#utility.yul\":41379:41405   */\n      swap1\n      pop\n        /* \"#utility.yul\":41451:41460   */\n      dup2\n        /* \"#utility.yul\":41445:41449   */\n      dup2\n        /* \"#utility.yul\":41441:41461   */\n      sub\n        /* \"#utility.yul\":41437:41438   */\n      0x00\n        /* \"#utility.yul\":41426:41435   */\n      dup4\n        /* \"#utility.yul\":41422:41439   */\n      add\n        /* \"#utility.yul\":41415:41462   */\n      mstore\n        /* \"#utility.yul\":41479:41610   */\n      tag_793\n        /* \"#utility.yul\":41605:41609   */\n      dup2\n        /* \"#utility.yul\":41479:41610   */\n      tag_475\n      jump\t// in\n    tag_793:\n        /* \"#utility.yul\":41471:41610   */\n      swap1\n      pop\n        /* \"#utility.yul\":41198:41617   */\n      swap2\n      swap1\n      pop\n      jump\t// out\n        /* \"#utility.yul\":41623:42398   */\n    tag_387:\n        /* \"#utility.yul\":41856:41860   */\n      0x00\n        /* \"#utility.yul\":41894:41897   */\n      0xc0\n        /* \"#utility.yul\":41883:41892   */\n      dup3\n        /* \"#utility.yul\":41879:41898   */\n      add\n        /* \"#utility.yul\":41871:41898   */\n      swap1\n      pop\n        /* \"#utility.yul\":41908:41979   */\n      tag_795\n        /* \"#utility.yul\":41976:41977   */\n      0x00\n        /* \"#utility.yul\":41965:41974   */\n      dup4\n        /* \"#utility.yul\":41961:41978   */\n      add\n        /* \"#utility.yul\":41952:41958   */\n      dup10\n        /* \"#utility.yul\":41908:41979   */\n      tag_400\n      jump\t// in\n    tag_795:\n        /* \"#utility.yul\":41989:42061   */\n      tag_796\n        /* \"#utility.yul\":42057:42059   */\n      0x20\n        /* \"#utility.yul\":42046:42055   */\n      dup4\n        /* \"#utility.yul\":42042:42060   */\n      add\n        /* \"#utility.yul\":42033:42039   */\n      dup9\n        /* \"#utility.yul\":41989:42061   */\n      tag_400\n      jump\t// in\n    tag_796:\n        /* \"#utility.yul\":42071:42143   */\n      tag_797\n        /* \"#utility.yul\":42139:42141   */\n      0x40\n        /* \"#utility.yul\":42128:42137   */\n      dup4\n        /* \"#utility.yul\":42124:42142   */\n      add\n        /* \"#utility.yul\":42115:42121   */\n      dup8\n        /* \"#utility.yul\":42071:42143   */\n      tag_400\n      jump\t// in\n    tag_797:\n        /* \"#utility.yul\":42153:42225   */\n      tag_798\n        /* \"#utility.yul\":42221:42223   */\n      0x60\n        /* \"#utility.yul\":42210:42219   */\n      dup4\n        /* \"#utility.yul\":42206:42224   */\n      add\n        /* \"#utility.yul\":42197:42203   */\n      dup7\n        /* \"#utility.yul\":42153:42225   */\n      tag_400\n      jump\t// in\n    tag_798:\n        /* \"#utility.yul\":42235:42308   */\n      tag_799\n        /* \"#utility.yul\":42303:42306   */\n      0x80\n        /* \"#utility.yul\":42292:42301   */\n      dup4\n        /* \"#utility.yul\":42288:42307   */\n      add\n        /* \"#utility.yul\":42279:42285   */\n      dup6\n        /* \"#utility.yul\":42235:42308   */\n      tag_400\n      jump\t// in\n    tag_799:\n        /* \"#utility.yul\":42318:42391   */\n      tag_800\n        /* \"#utility.yul\":42386:42389   */\n      0xa0\n        /* \"#utility.yul\":42375:42384   */\n      dup4\n        /* \"#utility.yul\":42371:42390   */\n      add\n        /* \"#utility.yul\":42362:42368   */\n      dup5\n        /* \"#utility.yul\":42318:42391   */\n      tag_400\n      jump\t// in\n    tag_800:\n        /* \"#utility.yul\":41623:42398   */\n      swap8\n      swap7\n      pop\n      pop\n      pop\n      pop\n      pop\n      pop\n      pop\n      jump\t// out\n\n    auxdata: 0xa2646970667358221220d59883ebb7fe49887698fcfa00c72e512895d4e0d2e7001634033e14db71d67564736f6c63430008230033\n}\n","bytecode":{"linkReferences":{},"object":"608060405234801561000f575f5ffd5b50604051614263380380614263833981810160405281019061003191906102dc565b8260015f6101000a81548173ffffffffffffffffffffffffffffffffffffffff021916908373ffffffffffffffffffffffffffffffffffffffff16021790555085600281905550846003908161008791906105b5565b50836004908161009791906105b5565b5081600d819055505f600e5f6101000a81548160ff021916908315150217905550805f5f6101000a81548173ffffffffffffffffffffffffffffffffffffffff021916908373ffffffffffffffffffffffffffffffffffffffff160217905550505050505050610684565b5f604051905090565b5f5ffd5b5f5ffd5b5f819050919050565b61012581610113565b811461012f575f5ffd5b50565b5f815190506101408161011c565b92915050565b5f5ffd5b5f5ffd5b5f601f19601f8301169050919050565b7f4e487b71000000000000000000000000000000000000000000000000000000005f52604160045260245ffd5b6101948261014e565b810181811067ffffffffffffffff821117156101b3576101b261015e565b5b80604052505050565b5f6101c5610102565b90506101d1828261018b565b919050565b5f67ffffffffffffffff8211156101f0576101ef61015e565b5b6101f98261014e565b9050602081019050919050565b8281835e5f83830152505050565b5f610226610221846101d6565b6101bc565b9050828152602081018484840111156102425761024161014a565b5b61024d848285610206565b509392505050565b5f82601f83011261026957610268610146565b5b8151610279848260208601610214565b91505092915050565b5f73ffffffffffffffffffffffffffffffffffffffff82169050919050565b5f6102ab82610282565b9050919050565b6102bb816102a1565b81146102c5575f5ffd5b50565b5f815190506102d6816102b2565b92915050565b5f5f5f5f5f5f60c087890312156102f6576102f561010b565b5b5f61030389828a01610132565b965050602087015167ffffffffffffffff8111156103245761032361010f565b5b61033089828a01610255565b955050604087015167ffffffffffffffff8111156103515761035061010f565b5b61035d89828a01610255565b945050606061036e89828a016102c8565b935050608061037f89828a01610132565b92505060a061039089828a016102c8565b9150509295509295509295565b5f81519050919050565b7f4e487b71000000000000000000000000000000000000000000000000000000005f52602260045260245ffd5b5f60028204905060018216806103eb57607f821691505b6020821081036103fe576103fd6103a7565b5b50919050565b5f819050815f5260205f209050919050565b5f6020601f8301049050919050565b5f82821b905092915050565b5f600883026104607fffffffffffffffffffffffffffffffffffffffffffffffffffffffffffffffff82610425565b61046a8683610425565b95508019841693508086168417925050509392505050565b5f819050919050565b5f6104a56104a061049b84610113565b610482565b610113565b9050919050565b5f819050919050565b6104be8361048b565b6104d26104ca826104ac565b848454610431565b825550505050565b5f5f905090565b6104e96104da565b6104f48184846104b5565b505050565b5f5b8281101561051a5761050f5f8284016104e1565b6001810190506104fb565b505050565b601f82111561056d578282111561056c5761053981610404565b61054283610416565b61054b85610416565b6020861015610558575f90505b808301610567828403826104f9565b505050505b5b505050565b5f82821c905092915050565b5f61058d5f1984600802610572565b1980831691505092915050565b5f6105a5838361057e565b9150826002028217905092915050565b6105be8261039d565b67ffffffffffffffff8111156105d7576105d661015e565b5b6105e182546103d4565b6105ec82828561051f565b5f60209050601f83116001811461061d575f841561060b578287015190505b610615858261059a565b86555061067c565b601f19841661062b86610404565b5f5b828110156106525784890151825560018201915060208501945060208101905061062d565b8683101561066f578489015161066b601f89168261057e565b8355505b6001600288020188555050505b505050505050565b613bd2806106915f395ff3fe6080604052600436106101e2575f3560e01c806382fde09311610101578063a39fac1211610094578063c8b342ab11610063578063c8b342ab146106f0578063d57bde791461072c578063d7bb99ba14610756578063edf26d9b14610760576101e2565b8063a39fac1214610638578063c37fbb7514610662578063c45a01551461069e578063c6f56901146106c8576101e2565b80639292260e116100d05780639292260e1461057e578063937e09b1146105ba578063976af615146105e45780639ace38c2146105fa576101e2565b806382fde093146104bd57806383920e90146104e75780638ba123e81461051157806391f9015714610554576101e2565b80634051ddac11610179578063597e1fb511610148578063597e1fb5146103fb5780635dc1d641146104255780637914135e146104615780637b87d85614610493576101e2565b80634051ddac1461034a578063481c6a751461037d5780634e69d560146103a757806358d65629146103d1576101e2565b80632e7700f0116101b55780632e7700f0146102a25780633197cbb6146102cc5780633a9d3027146102f65780633bc5de3014610320576101e2565b806305281103146101e6578063074d55c4146102265780630a14439114610250578063110f88741461028c575b5f5ffd5b3480156101f1575f5ffd5b5061020c600480360381019061020791906129e1565b61079c565b60405161021d959493929190612a3e565b60405180910390f35b348015610231575f5ffd5b5061023a610922565b6040516102479190612a8f565b60405180910390f35b34801561025b575f5ffd5b50610276600480360381019061027191906129e1565b610928565b6040516102839190612aa8565b60405180910390f35b348015610297575f5ffd5b506102a0610945565b005b3480156102ad575f5ffd5b506102b6610be1565b6040516102c39190612a8f565b60405180910390f35b3480156102d7575f5ffd5b506102e0610bed565b6040516102ed9190612a8f565b60405180910390f35b348015610301575f5ffd5b5061030a610bf3565b6040516103179190612c28565b60405180910390f35b34801561032b575f5ffd5b50610334610d35565b6040516103419190612cb8565b60405180910390f35b348015610355575f5ffd5b5061035e610ea2565b6040516103749a99989796959493929190612d8f565b60405180910390f35b348015610388575f5ffd5b506103916110be565b60405161039e9190612e3e565b60405180910390f35b3480156103b2575f5ffd5b506103bb6110e3565b6040516103c89190612aa8565b60405180910390f35b3480156103dc575f5ffd5b506103e56110f8565b6040516103f29190612cb8565b60405180910390f35b348015610406575f5ffd5b5061040f611184565b60405161041c9190612aa8565b60405180910390f35b348015610430575f5ffd5b5061044b600480360381019061044691906129e1565b611196565b6040516104589190612a8f565b60405180910390f35b34801561046c575f5ffd5b506104756111ab565b60405161048a99989796959493929190612e57565b60405180910390f35b34801561049e575f5ffd5b506104a76112be565b6040516104b49190612cb8565b60405180910390f35b3480156104c8575f5ffd5b506104d161134a565b6040516104de9190612a8f565b60405180910390f35b3480156104f2575f5ffd5b506104fb611350565b6040516105089190612fd1565b60405180910390f35b34801561051c575f5ffd5b506105376004803603810190610532919061301b565b611414565b60405161054b989796959493929190613046565b60405180910390f35b34801561055f575f5ffd5b506105686114a5565b6040516105759190612e3e565b60405180910390f35b348015610589575f5ffd5b506105a4600480360381019061059f919061301b565b6114ca565b6040516105b19190613102565b60405180910390f35b3480156105c5575f5ffd5b506105ce6115b3565b6040516105db9190612a8f565b60405180910390f35b3480156105ef575f5ffd5b506105f86115b9565b005b348015610605575f5ffd5b50610620600480360381019061061b919061301b565b61191b565b60405161062f9392919061311b565b60405180910390f35b348015610643575f5ffd5b5061064c61196f565b6040516106599190613150565b60405180910390f35b34801561066d575f5ffd5b506106886004803603810190610683919061301b565b6119fa565b6040516106959190613210565b60405180910390f35b3480156106a9575f5ffd5b506106b2611b61565b6040516106bf9190613285565b60405180910390f35b3480156106d3575f5ffd5b506106ee60048036038101906106e9919061301b565b611b85565b005b3480156106fb575f5ffd5b50610716600480360381019061071191906129e1565b611e87565b6040516107239190612a8f565b60405180910390f35b348015610737575f5ffd5b50610740611ecd565b60405161074d9190612a8f565b60405180910390f35b61075e611ed3565b005b34801561076b575f5ffd5b506107866004803603810190610781919061301b565b6128ab565b6040516107939190612e3e565b60405180910390f35b5f5f5f5f5f5f60055f8873ffffffffffffffffffffffffffffffffffffffff1673ffffffffffffffffffffffffffffffffffffffff1681526020019081526020015f205f9054906101000a900460ff1690505f60065f8973ffffffffffffffffffffffffffffffffffffffff1673ffffffffffffffffffffffffffffffffffffffff1681526020019081526020015f205490505f60015f9054906101000a900473ffffffffffffffffffffffffffffffffffffffff1673ffffffffffffffffffffffffffffffffffffffff168973ffffffffffffffffffffffffffffffffffffffff161490505f600b5f9054906101000a900473ffffffffffffffffffffffffffffffffffffffff1673ffffffffffffffffffffffffffffffffffffffff168a73ffffffffffffffffffffffffffffffffffffffff161490505f600e5f9054906101000a900460ff1680156108ee5750845b80156108f8575081155b801561090357505f84145b9050848482858599509950995099509950505050505091939590929450565b600f5481565b6005602052805f5260405f205f915054906101000a900460ff1681565b600e5f9054906101000a900460ff16610993576040517f08c379a000000000000000000000000000000000000000000000000000000000815260040161098a906132e8565b60405180910390fd5b600b5f9054906101000a900473ffffffffffffffffffffffffffffffffffffffff1673ffffffffffffffffffffffffffffffffffffffff163373ffffffffffffffffffffffffffffffffffffffff1603610a22576040517f08c379a0000000000000000000000000000000000000000000000000000000008152600401610a1990613350565b60405180910390fd5b5f60065f3373ffffffffffffffffffffffffffffffffffffffff1673ffffffffffffffffffffffffffffffffffffffff1681526020019081526020015f205490505f8111610aa5576040517f08c379a0000000000000000000000000000000000000000000000000000000008152600401610a9c906133b8565b60405180910390fd5b5f60065f3373ffffffffffffffffffffffffffffffffffffffff1673ffffffffffffffffffffffffffffffffffffffff1681526020019081526020015f20819055505f3373ffffffffffffffffffffffffffffffffffffffff1682604051610b0c90613403565b5f6040518083038185875af1925050503d805f8114610b46576040519150601f19603f3d011682016040523d82523d5f602084013e610b4b565b606091505b5050905080610b8f576040517f08c379a0000000000000000000000000000000000000000000000000000000008152600401610b8690613461565b60405180910390fd5b3373ffffffffffffffffffffffffffffffffffffffff167f3367befd2b2f39615cd79917c2153263c4af1d3945ec003e5d5bfc13a8d8583383604051610bd59190612a8f565b60405180910390a25050565b5f600980549050905090565b600d5481565b6060600a805480602002602001604051908101604052809291908181526020015f905b82821015610d2c578382905f5260205f209060080201604051806101000160405290815f820154815260200160018201548152602001600282015f9054906101000a900473ffffffffffffffffffffffffffffffffffffffff1673ffffffffffffffffffffffffffffffffffffffff1673ffffffffffffffffffffffffffffffffffffffff168152602001600382015481526020016004820154815260200160058201548152602001600682015f9054906101000a900473ffffffffffffffffffffffffffffffffffffffff1673ffffffffffffffffffffffffffffffffffffffff1673ffffffffffffffffffffffffffffffffffffffff16815260200160078201548152505081526020019060010190610c16565b50505050905090565b6060600e5f9054906101000a900460ff16610d85576040517f08c379a0000000000000000000000000000000000000000000000000000000008152600401610d7c906132e8565b60405180910390fd5b600b5f9054906101000a900473ffffffffffffffffffffffffffffffffffffffff1673ffffffffffffffffffffffffffffffffffffffff163373ffffffffffffffffffffffffffffffffffffffff1614610e14576040517f08c379a0000000000000000000000000000000000000000000000000000000008152600401610e0b906134c9565b60405180910390fd5b60038054610e2190613514565b80601f0160208091040260200160405190810160405280929190818152602001828054610e4d90613514565b8015610e985780601f10610e6f57610100808354040283529160200191610e98565b820191905f5260205f20905b815481529060010190602001808311610e7b57829003601f168201915b5050505050905090565b5f5f5f5f5f6060805f60605f6002544760075460015f9054906101000a900473ffffffffffffffffffffffffffffffffffffffff16600c5460036004600b5f9054906101000a900473ffffffffffffffffffffffffffffffffffffffff166008600d54848054610f1190613514565b80601f0160208091040260200160405190810160405280929190818152602001828054610f3d90613514565b8015610f885780601f10610f5f57610100808354040283529160200191610f88565b820191905f5260205f20905b815481529060010190602001808311610f6b57829003601f168201915b50505050509450838054610f9b90613514565b80601f0160208091040260200160405190810160405280929190818152602001828054610fc790613514565b80156110125780601f10610fe957610100808354040283529160200191611012565b820191905f5260205f20905b815481529060010190602001808311610ff557829003601f168201915b505050505093508180548060200260200160405190810160405280929190818152602001828054801561109757602002820191905f5260205f20905b815f9054906101000a900473ffffffffffffffffffffffffffffffffffffffff1673ffffffffffffffffffffffffffffffffffffffff168152602001906001019080831161104e575b50505050509150995099509950995099509950995099509950995090919293949596979899565b60015f9054906101000a900473ffffffffffffffffffffffffffffffffffffffff1681565b5f600e5f9054906101000a900460ff16905090565b6004805461110590613514565b80601f016020809104026020016040519081016040528092919081815260200182805461113190613514565b801561117c5780601f106111535761010080835404028352916020019161117c565b820191905f5260205f20905b81548152906001019060200180831161115f57829003601f168201915b505050505081565b600e5f9054906101000a900460ff1681565b6006602052805f5260405f205f915090505481565b5f5f5f5f5f60605f5f5f6002544760075460015f9054906101000a900473ffffffffffffffffffffffffffffffffffffffff16600c546004600b5f9054906101000a900473ffffffffffffffffffffffffffffffffffffffff16600d54600e5f9054906101000a900460ff1683805461122390613514565b80601f016020809104026020016040519081016040528092919081815260200182805461124f90613514565b801561129a5780601f106112715761010080835404028352916020019161129a565b820191905f5260205f20905b81548152906001019060200180831161127d57829003601f168201915b50505050509350985098509850985098509850985098509850909192939495969798565b600380546112cb90613514565b80601f01602080910402602001604051908101604052809291908181526020018280546112f790613514565b80156113425780601f1061131957610100808354040283529160200191611342565b820191905f5260205f20905b81548152906001019060200180831161132557829003601f168201915b505050505081565b60075481565b60606009805480602002602001604051908101604052809291908181526020015f905b8282101561140b578382905f5260205f2090600302016040518060600160405290815f820154815260200160018201548152602001600282015f9054906101000a900473ffffffffffffffffffffffffffffffffffffffff1673ffffffffffffffffffffffffffffffffffffffff1673ffffffffffffffffffffffffffffffffffffffff168152505081526020019060010190611373565b50505050905090565b600a8181548110611423575f80fd5b905f5260205f2090600802015f91509050805f015490806001015490806002015f9054906101000a900473ffffffffffffffffffffffffffffffffffffffff1690806003015490806004015490806005015490806006015f9054906101000a900473ffffffffffffffffffffffffffffffffffffffff16908060070154905088565b600b5f9054906101000a900473ffffffffffffffffffffffffffffffffffffffff1681565b6114d26128e6565b6009805490508210611519576040517f08c379a00000000000000000000000000000000000000000000000000000000081526004016115109061358e565b60405180910390fd5b6009828154811061152d5761152c6135ac565b5b905f5260205f2090600302016040518060600160405290815f820154815260200160018201548152602001600282015f9054906101000a900473ffffffffffffffffffffffffffffffffffffffff1673ffffffffffffffffffffffffffffffffffffffff1673ffffffffffffffffffffffffffffffffffffffff16815250509050919050565b60025481565b600d544210156115fe576040517f08c379a00000000000000000000000000000000000000000000000000000000081526004016115f590613623565b60405180910390fd5b600e5f9054906101000a900460ff161561164d576040517f08c379a00000000000000000000000000000000000000000000000000000000081526004016116449061368b565b60405180910390fd5b6001600e5f6101000a81548160ff0219169083151502179055505f600c54111561191957600c544710156116b6576040517f08c379a00000000000000000000000000000000000000000000000000000000081526004016116ad906136f3565b60405180910390fd5b5f60065f600b5f9054906101000a900473ffffffffffffffffffffffffffffffffffffffff1673ffffffffffffffffffffffffffffffffffffffff1673ffffffffffffffffffffffffffffffffffffffff1681526020019081526020015f20819055505f60015f9054906101000a900473ffffffffffffffffffffffffffffffffffffffff1673ffffffffffffffffffffffffffffffffffffffff16600c5460405161176190613403565b5f6040518083038185875af1925050503d805f811461179b576040519150601f19603f3d011682016040523d82523d5f602084013e6117a0565b606091505b50509050806117e4576040517f08c379a00000000000000000000000000000000000000000000000000000000081526004016117db9061375b565b60405180910390fd5b5f5f9054906101000a900473ffffffffffffffffffffffffffffffffffffffff1673ffffffffffffffffffffffffffffffffffffffff16638dfac90c60015f9054906101000a900473ffffffffffffffffffffffffffffffffffffffff16600c5460016040518463ffffffff1660e01b815260040161186593929190613779565b60408051808303815f875af1158015611880573d5f5f3e3d5ffd5b505050506040513d601f19601f820116820180604052508101906118a491906137c2565b505060015f9054906101000a900473ffffffffffffffffffffffffffffffffffffffff1673ffffffffffffffffffffffffffffffffffffffff167fcb4a9094da4df77fb2c0dbaa5047660b1237e61d82a02176c1be74ca757f2531600c5460405161190f9190612a8f565b60405180910390a2505b565b6009818154811061192a575f80fd5b905f5260205f2090600302015f91509050805f015490806001015490806002015f9054906101000a900473ffffffffffffffffffffffffffffffffffffffff16905083565b606060088054806020026020016040519081016040528092919081815260200182805480156119f057602002820191905f5260205f20905b815f9054906101000a900473ffffffffffffffffffffffffffffffffffffffff1673ffffffffffffffffffffffffffffffffffffffff16815260200190600101908083116119a7575b5050505050905090565b611a0261291a565b600a805490508210611a49576040517f08c379a0000000000000000000000000000000000000000000000000000000008152600401611a409061358e565b60405180910390fd5b600a8281548110611a5d57611a5c6135ac565b5b905f5260205f209060080201604051806101000160405290815f820154815260200160018201548152602001600282015f9054906101000a900473ffffffffffffffffffffffffffffffffffffffff1673ffffffffffffffffffffffffffffffffffffffff1673ffffffffffffffffffffffffffffffffffffffff168152602001600382015481526020016004820154815260200160058201548152602001600682015f9054906101000a900473ffffffffffffffffffffffffffffffffffffffff1673ffffffffffffffffffffffffffffffffffffffff1673ffffffffffffffffffffffffffffffffffffffff1681526020016007820154815250509050919050565b5f5f9054906101000a900473ffffffffffffffffffffffffffffffffffffffff1681565b600e5f9054906101000a900460ff16611bd3576040517f08c379a0000000000000000000000000000000000000000000000000000000008152600401611bca906132e8565b60405180910390fd5b5f8111611c15576040517f08c379a0000000000000000000000000000000000000000000000000000000008152600401611c0c9061384a565b60405180910390fd5b5f5f90505b600880549050600f54108015611c2f57508181105b15611e83575f6008600f5481548110611c4b57611c4a6135ac565b5b905f5260205f20015f9054906101000a900473ffffffffffffffffffffffffffffffffffffffff169050600f5f815480929190611c8790613895565b9190505550600b5f9054906101000a900473ffffffffffffffffffffffffffffffffffffffff1673ffffffffffffffffffffffffffffffffffffffff168173ffffffffffffffffffffffffffffffffffffffff1603611ce65750611c1a565b5f60065f8373ffffffffffffffffffffffffffffffffffffffff1673ffffffffffffffffffffffffffffffffffffffff1681526020019081526020015f205490505f8103611d35575050611c1a565b5f60065f8473ffffffffffffffffffffffffffffffffffffffff1673ffffffffffffffffffffffffffffffffffffffff1681526020019081526020015f20819055505f8273ffffffffffffffffffffffffffffffffffffffff1682604051611d9c90613403565b5f6040518083038185875af1925050503d805f8114611dd6576040519150601f19603f3d011682016040523d82523d5f602084013e611ddb565b606091505b5050905080611e1f576040517f08c379a0000000000000000000000000000000000000000000000000000000008152600401611e1690613461565b60405180910390fd5b8273ffffffffffffffffffffffffffffffffffffffff167f3367befd2b2f39615cd79917c2153263c4af1d3945ec003e5d5bfc13a8d8583383604051611e659190612a8f565b60405180910390a28380611e7890613895565b945050505050611c1a565b5050565b5f60065f8373ffffffffffffffffffffffffffffffffffffffff1673ffffffffffffffffffffffffffffffffffffffff1681526020019081526020015f20549050919050565b600c5481565b600d544210611f17576040517f08c379a0000000000000000000000000000000000000000000000000000000008152600401611f0e90613926565b60405180910390fd5b60015f9054906101000a900473ffffffffffffffffffffffffffffffffffffffff1673ffffffffffffffffffffffffffffffffffffffff163373ffffffffffffffffffffffffffffffffffffffff1603611fa6576040517f08c379a0000000000000000000000000000000000000000000000000000000008152600401611f9d906139b4565b60405180910390fd5b5f3411611fe8576040517f08c379a0000000000000000000000000000000000000000000000000000000008152600401611fdf90613a1c565b60405180910390fd5b5f60065f3373ffffffffffffffffffffffffffffffffffffffff1673ffffffffffffffffffffffffffffffffffffffff1681526020019081526020015f205490505f34826120369190613a3a565b90505f600c5490505f600b5f9054906101000a900473ffffffffffffffffffffffffffffffffffffffff1690505f5f5f73ffffffffffffffffffffffffffffffffffffffff16600b5f9054906101000a900473ffffffffffffffffffffffffffffffffffffffff1673ffffffffffffffffffffffffffffffffffffffff16036121a7576002548510156120fe576040517f08c379a00000000000000000000000000000000000000000000000000000000081526004016120f590613ab7565b60405180910390fd5b5f5f9054906101000a900473ffffffffffffffffffffffffffffffffffffffff1673ffffffffffffffffffffffffffffffffffffffff16638dfac90c33345f6040518463ffffffff1660e01b815260040161215b93929190613779565b60408051808303815f875af1158015612176573d5f5f3e3d5ffd5b505050506040513d601f19601f8201168201806040525081019061219a91906137c2565b8092508193505050612450565b600c5485116121eb576040517f08c379a00000000000000000000000000000000000000000000000000000000081526004016121e290613b1f565b60405180910390fd5b600b5f9054906101000a900473ffffffffffffffffffffffffffffffffffffffff1673ffffffffffffffffffffffffffffffffffffffff163373ffffffffffffffffffffffffffffffffffffffff16146123aa575f5f9054906101000a900473ffffffffffffffffffffffffffffffffffffffff1673ffffffffffffffffffffffffffffffffffffffff16638dfac90c600b5f9054906101000a900473ffffffffffffffffffffffffffffffffffffffff16600c5460016040518463ffffffff1660e01b81526004016122c093929190613779565b60408051808303815f875af11580156122db573d5f5f3e3d5ffd5b505050506040513d601f19601f820116820180604052508101906122ff91906137c2565b50505f5f9054906101000a900473ffffffffffffffffffffffffffffffffffffffff1673ffffffffffffffffffffffffffffffffffffffff16638dfac90c33875f6040518463ffffffff1660e01b815260040161235e93929190613779565b60408051808303815f875af1158015612379573d5f5f3e3d5ffd5b505050506040513d601f19601f8201168201806040525081019061239d91906137c2565b809250819350505061244f565b5f5f9054906101000a900473ffffffffffffffffffffffffffffffffffffffff1673ffffffffffffffffffffffffffffffffffffffff16638dfac90c33345f6040518463ffffffff1660e01b815260040161240793929190613779565b60408051808303815f875af1158015612422573d5f5f3e3d5ffd5b505050506040513d601f19601f8201168201806040525081019061244691906137c2565b80925081935050505b5b8460065f3373ffffffffffffffffffffffffffffffffffffffff1673ffffffffffffffffffffffffffffffffffffffff1681526020019081526020015f208190555084600c8190555033600b5f6101000a81548173ffffffffffffffffffffffffffffffffffffffff021916908373ffffffffffffffffffffffffffffffffffffffff160217905550600960405180606001604052803481526020014281526020013373ffffffffffffffffffffffffffffffffffffffff16815250908060018154018082558091505060019003905f5260205f2090600302015f909190919091505f820151815f0155602082015181600101556040820151816002015f6101000a81548173ffffffffffffffffffffffffffffffffffffffff021916908373ffffffffffffffffffffffffffffffffffffffff1602179055505050600a6040518061010001604052803481526020014281526020013373ffffffffffffffffffffffffffffffffffffffff1681526020018781526020018481526020018381526020018573ffffffffffffffffffffffffffffffffffffffff16815260200186815250908060018154018082558091505060019003905f5260205f2090600802015f909190919091505f820151815f0155602082015181600101556040820151816002015f6101000a81548173ffffffffffffffffffffffffffffffffffffffff021916908373ffffffffffffffffffffffffffffffffffffffff160217905550606082015181600301556080820151816004015560a0820151816005015560c0820151816006015f6101000a81548173ffffffffffffffffffffffffffffffffffffffff021916908373ffffffffffffffffffffffffffffffffffffffff16021790555060e08201518160070155505060055f3373ffffffffffffffffffffffffffffffffffffffff1673ffffffffffffffffffffffffffffffffffffffff1681526020019081526020015f205f9054906101000a900460ff166127fd57600160055f3373ffffffffffffffffffffffffffffffffffffffff1673ffffffffffffffffffffffffffffffffffffffff1681526020019081526020015f205f6101000a81548160ff02191690831515021790555060075f81548092919061279790613895565b9190505550600833908060018154018082558091505060019003905f5260205f20015f9091909190916101000a81548173ffffffffffffffffffffffffffffffffffffffff021916908373ffffffffffffffffffffffffffffffffffffffff1602179055505b7f6cd3b8608d4368d7a92cfda5a745dfb2993256da9506cd888f31ff9aa48e2bd93360405161282c9190612e3e565b60405180910390a18273ffffffffffffffffffffffffffffffffffffffff163373ffffffffffffffffffffffffffffffffffffffff167f3d264e392f908228778e879afe1033c40768d112e54eb947fd76595aa5a2b4e834888686428b60405161289b96959493929190613b3d565b60405180910390a3505050505050565b600881815481106128ba575f80fd5b905f5260205f20015f915054906101000a900473ffffffffffffffffffffffffffffffffffffffff1681565b60405180606001604052805f81526020015f81526020015f73ffffffffffffffffffffffffffffffffffffffff1681525090565b6040518061010001604052805f81526020015f81526020015f73ffffffffffffffffffffffffffffffffffffffff1681526020015f81526020015f81526020015f81526020015f73ffffffffffffffffffffffffffffffffffffffff1681526020015f81525090565b5f5ffd5b5f73ffffffffffffffffffffffffffffffffffffffff82169050919050565b5f6129b082612987565b9050919050565b6129c0816129a6565b81146129ca575f5ffd5b50565b5f813590506129db816129b7565b92915050565b5f602082840312156129f6576129f5612983565b5b5f612a03848285016129cd565b91505092915050565b5f8115159050919050565b612a2081612a0c565b82525050565b5f819050919050565b612a3881612a26565b82525050565b5f60a082019050612a515f830188612a17565b612a5e6020830187612a2f565b612a6b6040830186612a17565b612a786060830185612a17565b612a856080830184612a17565b9695505050505050565b5f602082019050612aa25f830184612a2f565b92915050565b5f602082019050612abb5f830184612a17565b92915050565b5f81519050919050565b5f82825260208201905092915050565b5f819050602082019050919050565b612af381612a26565b82525050565b612b02816129a6565b82525050565b61010082015f820151612b1d5f850182612aea565b506020820151612b306020850182612aea565b506040820151612b436040850182612af9565b506060820151612b566060850182612aea565b506080820151612b696080850182612aea565b5060a0820151612b7c60a0850182612aea565b5060c0820151612b8f60c0850182612af9565b5060e0820151612ba260e0850182612aea565b50505050565b5f612bb38383612b08565b6101008301905092915050565b5f602082019050919050565b5f612bd682612ac1565b612be08185612acb565b9350612beb83612adb565b805f5b83811015612c1b578151612c028882612ba8565b9750612c0d83612bc0565b925050600181019050612bee565b5085935050505092915050565b5f6020820190508181035f830152612c408184612bcc565b905092915050565b5f81519050919050565b5f82825260208201905092915050565b8281835e5f83830152505050565b5f601f19601f8301169050919050565b5f612c8a82612c48565b612c948185612c52565b9350612ca4818560208601612c62565b612cad81612c70565b840191505092915050565b5f6020820190508181035f830152612cd08184612c80565b905092915050565b612ce1816129a6565b82525050565b5f81519050919050565b5f82825260208201905092915050565b5f819050602082019050919050565b5f612d1b8383612af9565b60208301905092915050565b5f602082019050919050565b5f612d3d82612ce7565b612d478185612cf1565b9350612d5283612d01565b805f5b83811015612d82578151612d698882612d10565b9750612d7483612d27565b925050600181019050612d55565b5085935050505092915050565b5f61014082019050612da35f83018d612a2f565b612db0602083018c612a2f565b612dbd604083018b612a2f565b612dca606083018a612cd8565b612dd76080830189612a2f565b81810360a0830152612de98188612c80565b905081810360c0830152612dfd8187612c80565b9050612e0c60e0830186612cd8565b818103610100830152612e1f8185612d33565b9050612e2f610120830184612a2f565b9b9a5050505050505050505050565b5f602082019050612e515f830184612cd8565b92915050565b5f61012082019050612e6b5f83018c612a2f565b612e78602083018b612a2f565b612e85604083018a612a2f565b612e926060830189612cd8565b612e9f6080830188612a2f565b81810360a0830152612eb18187612c80565b9050612ec060c0830186612cd8565b612ecd60e0830185612a2f565b612edb610100830184612a17565b9a9950505050505050505050565b5f81519050919050565b5f82825260208201905092915050565b5f819050602082019050919050565b606082015f820151612f265f850182612aea565b506020820151612f396020850182612aea565b506040820151612f4c6040850182612af9565b50505050565b5f612f5d8383612f12565b60608301905092915050565b5f602082019050919050565b5f612f7f82612ee9565b612f898185612ef3565b9350612f9483612f03565b805f5b83811015612fc4578151612fab8882612f52565b9750612fb683612f69565b925050600181019050612f97565b5085935050505092915050565b5f6020820190508181035f830152612fe98184612f75565b905092915050565b612ffa81612a26565b8114613004575f5ffd5b50565b5f8135905061301581612ff1565b92915050565b5f602082840312156130305761302f612983565b5b5f61303d84828501613007565b91505092915050565b5f6101008201905061305a5f83018b612a2f565b613067602083018a612a2f565b6130746040830189612cd8565b6130816060830188612a2f565b61308e6080830187612a2f565b61309b60a0830186612a2f565b6130a860c0830185612cd8565b6130b560e0830184612a2f565b9998505050505050505050565b606082015f8201516130d65f850182612aea565b5060208201516130e96020850182612aea565b5060408201516130fc6040850182612af9565b50505050565b5f6060820190506131155f8301846130c2565b92915050565b5f60608201905061312e5f830186612a2f565b61313b6020830185612a2f565b6131486040830184612cd8565b949350505050565b5f6020820190508181035f8301526131688184612d33565b905092915050565b61010082015f8201516131855f850182612aea565b5060208201516131986020850182612aea565b5060408201516131ab6040850182612af9565b5060608201516131be6060850182612aea565b5060808201516131d16080850182612aea565b5060a08201516131e460a0850182612aea565b5060c08201516131f760c0850182612af9565b5060e082015161320a60e0850182612aea565b50505050565b5f610100820190506132245f830184613170565b92915050565b5f819050919050565b5f61324d61324861324384612987565b61322a565b612987565b9050919050565b5f61325e82613233565b9050919050565b5f61326f82613254565b9050919050565b61327f81613265565b82525050565b5f6020820190506132985f830184613276565b92915050565b7f41756374696f6e206e6f742066696e616c697a656400000000000000000000005f82015250565b5f6132d2601583612c52565b91506132dd8261329e565b602082019050919050565b5f6020820190508181035f8301526132ff816132c6565b9050919050565b7f57696e6e657220686173206e6f20726566756e640000000000000000000000005f82015250565b5f61333a601483612c52565b915061334582613306565b602082019050919050565b5f6020820190508181035f8301526133678161332e565b9050919050565b7f4e6f20726566756e6420617661696c61626c65000000000000000000000000005f82015250565b5f6133a2601383612c52565b91506133ad8261336e565b602082019050919050565b5f6020820190508181035f8301526133cf81613396565b9050919050565b5f81905092915050565b50565b5f6133ee5f836133d6565b91506133f9826133e0565b5f82019050919050565b5f61340d826133e3565b9150819050919050565b7f526566756e64206661696c6564000000000000000000000000000000000000005f82015250565b5f61344b600d83612c52565b915061345682613417565b602082019050919050565b5f6020820190508181035f8301526134788161343f565b9050919050565b7f4f6e6c792077696e6e65722063616e20616363657373207468652064617461005f82015250565b5f6134b3601f83612c52565b91506134be8261347f565b602082019050919050565b5f6020820190508181035f8301526134e0816134a7565b9050919050565b7f4e487b71000000000000000000000000000000000000000000000000000000005f52602260045260245ffd5b5f600282049050600182168061352b57607f821691505b60208210810361353e5761353d6134e7565b5b50919050565b7f42696420696e646578206f7574206f662072616e6765000000000000000000005f82015250565b5f613578601683612c52565b915061358382613544565b602082019050919050565b5f6020820190508181035f8301526135a58161356c565b9050919050565b7f4e487b71000000000000000000000000000000000000000000000000000000005f52603260045260245ffd5b7f41756374696f6e206e6f7420656e6465642079657400000000000000000000005f82015250565b5f61360d601583612c52565b9150613618826135d9565b602082019050919050565b5f6020820190508181035f83015261363a81613601565b9050919050565b7f41756374696f6e20616c72656164792066696e616c697a6564000000000000005f82015250565b5f613675601983612c52565b915061368082613641565b602082019050919050565b5f6020820190508181035f8301526136a281613669565b9050919050565b7f496e73756666696369656e742062616c616e63650000000000000000000000005f82015250565b5f6136dd601483612c52565b91506136e8826136a9565b602082019050919050565b5f6020820190508181035f83015261370a816136d1565b9050919050565b7f53656c6c6572207061796d656e74206661696c656400000000000000000000005f82015250565b5f613745601583612c52565b915061375082613711565b602082019050919050565b5f6020820190508181035f83015261377281613739565b9050919050565b5f60608201905061378c5f830186612cd8565b6137996020830185612a2f565b6137a66040830184612a17565b949350505050565b5f815190506137bc81612ff1565b92915050565b5f5f604083850312156137d8576137d7612983565b5b5f6137e5858286016137ae565b92505060206137f6858286016137ae565b9150509250929050565b7f42617463682073697a65207265717569726564000000000000000000000000005f82015250565b5f613834601383612c52565b915061383f82613800565b602082019050919050565b5f6020820190508181035f83015261386181613828565b9050919050565b7f4e487b71000000000000000000000000000000000000000000000000000000005f52601160045260245ffd5b5f61389f82612a26565b91507fffffffffffffffffffffffffffffffffffffffffffffffffffffffffffffffff82036138d1576138d0613868565b5b600182019050919050565b7f41756374696f6e20656e646564000000000000000000000000000000000000005f82015250565b5f613910600d83612c52565b915061391b826138dc565b602082019050919050565b5f6020820190508181035f83015261393d81613904565b9050919050565b7f596f752063616e277420626964206f6e20796f7572206f776e2061756374696f5f8201527f6e00000000000000000000000000000000000000000000000000000000000000602082015250565b5f61399e602183612c52565b91506139a982613944565b604082019050919050565b5f6020820190508181035f8301526139cb81613992565b9050919050565b7f4d7573742073656e6420736f6d652065746865720000000000000000000000005f82015250565b5f613a06601483612c52565b9150613a11826139d2565b602082019050919050565b5f6020820190508181035f830152613a33816139fa565b9050919050565b5f613a4482612a26565b9150613a4f83612a26565b9250828201905080821115613a6757613a66613868565b5b92915050565b7f42656c6f77206d696e696d756d206269640000000000000000000000000000005f82015250565b5f613aa1601183612c52565b9150613aac82613a6d565b602082019050919050565b5f6020820190508181035f830152613ace81613a95565b9050919050565b7f426964206d757374206578636565642063757272656e742068696768657374005f82015250565b5f613b09601f83612c52565b9150613b1482613ad5565b602082019050919050565b5f6020820190508181035f830152613b3681613afd565b9050919050565b5f60c082019050613b505f830189612a2f565b613b5d6020830188612a2f565b613b6a6040830187612a2f565b613b776060830186612a2f565b613b846080830185612a2f565b613b9160a0830184612a2f565b97965050505050505056fea2646970667358221220d59883ebb7fe49887698fcfa00c72e512895d4e0d2e7001634033e14db71d67564736f6c63430008230033","opcodes":"PUSH1 0x80 PUSH1 0x40 MSTORE CALLVALUE DUP1 ISZERO PUSH2 0xF JUMPI PUSH0 PUSH0 REVERT JUMPDEST POP PUSH1 0x40 MLOAD PUSH2 0x4263 CODESIZE SUB DUP1 PUSH2 0x4263 DUP4 CODECOPY DUP2 DUP2 ADD PUSH1 0x40 MSTORE DUP2 ADD SWAP1 PUSH2 0x31 SWAP2 SWAP1 PUSH2 0x2DC JUMP JUMPDEST DUP3 PUSH1 0x1 PUSH0 PUSH2 0x100 EXP DUP2 SLOAD DUP2 PUSH20 0xFFFFFFFFFFFFFFFFFFFFFFFFFFFFFFFFFFFFFFFF MUL NOT AND SWAP1 DUP4 PUSH20 0xFFFFFFFFFFFFFFFFFFFFFFFFFFFFFFFFFFFFFFFF AND MUL OR SWAP1 SSTORE POP DUP6 PUSH1 0x2 DUP2 SWAP1 SSTORE POP DUP5 PUSH1 0x3 SWAP1 DUP2 PUSH2 0x87 SWAP2 SWAP1 PUSH2 0x5B5 JUMP JUMPDEST POP DUP4 PUSH1 0x4 SWAP1 DUP2 PUSH2 0x97 SWAP2 SWAP1 PUSH2 0x5B5 JUMP JUMPDEST POP DUP2 PUSH1 0xD DUP2 SWAP1 SSTORE POP PUSH0 PUSH1 0xE PUSH0 PUSH2 0x100 EXP DUP2 SLOAD DUP2 PUSH1 0xFF MUL NOT AND SWAP1 DUP4 ISZERO ISZERO MUL OR SWAP1 SSTORE POP DUP1 PUSH0 PUSH0 PUSH2 0x100 EXP DUP2 SLOAD DUP2 PUSH20 0xFFFFFFFFFFFFFFFFFFFFFFFFFFFFFFFFFFFFFFFF MUL NOT AND SWAP1 DUP4 PUSH20 0xFFFFFFFFFFFFFFFFFFFFFFFFFFFFFFFFFFFFFFFF AND MUL OR SWAP1 SSTORE POP POP POP POP POP POP POP PUSH2 0x684 JUMP JUMPDEST PUSH0 PUSH1 0x40 MLOAD SWAP1 POP SWAP1 JUMP JUMPDEST PUSH0 PUSH0 REVERT JUMPDEST PUSH0 PUSH0 REVERT JUMPDEST PUSH0 DUP2 SWAP1 POP SWAP2 SWAP1 POP JUMP JUMPDEST PUSH2 0x125 DUP2 PUSH2 0x113 JUMP JUMPDEST DUP2 EQ PUSH2 0x12F JUMPI PUSH0 PUSH0 REVERT JUMPDEST POP JUMP JUMPDEST PUSH0 DUP2 MLOAD SWAP1 POP PUSH2 0x140 DUP2 PUSH2 0x11C JUMP JUMPDEST SWAP3 SWAP2 POP POP JUMP JUMPDEST PUSH0 PUSH0 REVERT JUMPDEST PUSH0 PUSH0 REVERT JUMPDEST PUSH0 PUSH1 0x1F NOT PUSH1 0x1F DUP4 ADD AND SWAP1 POP SWAP2 SWAP1 POP JUMP JUMPDEST PUSH32 0x4E487B7100000000000000000000000000000000000000000000000000000000 PUSH0 MSTORE PUSH1 0x41 PUSH1 0x4 MSTORE PUSH1 0x24 PUSH0 REVERT JUMPDEST PUSH2 0x194 DUP3 PUSH2 0x14E JUMP JUMPDEST DUP2 ADD DUP2 DUP2 LT PUSH8 0xFFFFFFFFFFFFFFFF DUP3 GT OR ISZERO PUSH2 0x1B3 JUMPI PUSH2 0x1B2 PUSH2 0x15E JUMP JUMPDEST JUMPDEST DUP1 PUSH1 0x40 MSTORE POP POP POP JUMP JUMPDEST PUSH0 PUSH2 0x1C5 PUSH2 0x102 JUMP JUMPDEST SWAP1 POP PUSH2 0x1D1 DUP3 DUP3 PUSH2 0x18B JUMP JUMPDEST SWAP2 SWAP1 POP JUMP JUMPDEST PUSH0 PUSH8 0xFFFFFFFFFFFFFFFF DUP3 GT ISZERO PUSH2 0x1F0 JUMPI PUSH2 0x1EF PUSH2 0x15E JUMP JUMPDEST JUMPDEST PUSH2 0x1F9 DUP3 PUSH2 0x14E JUMP JUMPDEST SWAP1 POP PUSH1 0x20 DUP2 ADD SWAP1 POP SWAP2 SWAP1 POP JUMP JUMPDEST DUP3 DUP2 DUP4 MCOPY PUSH0 DUP4 DUP4 ADD MSTORE POP POP POP JUMP JUMPDEST PUSH0 PUSH2 0x226 PUSH2 0x221 DUP5 PUSH2 0x1D6 JUMP JUMPDEST PUSH2 0x1BC JUMP JUMPDEST SWAP1 POP DUP3 DUP2 MSTORE PUSH1 0x20 DUP2 ADD DUP5 DUP5 DUP5 ADD GT ISZERO PUSH2 0x242 JUMPI PUSH2 0x241 PUSH2 0x14A JUMP JUMPDEST JUMPDEST PUSH2 0x24D DUP5 DUP3 DUP6 PUSH2 0x206 JUMP JUMPDEST POP SWAP4 SWAP3 POP POP POP JUMP JUMPDEST PUSH0 DUP3 PUSH1 0x1F DUP4 ADD SLT PUSH2 0x269 JUMPI PUSH2 0x268 PUSH2 0x146 JUMP JUMPDEST JUMPDEST DUP2 MLOAD PUSH2 0x279 DUP5 DUP3 PUSH1 0x20 DUP7 ADD PUSH2 0x214 JUMP JUMPDEST SWAP2 POP POP SWAP3 SWAP2 POP POP JUMP JUMPDEST PUSH0 PUSH20 0xFFFFFFFFFFFFFFFFFFFFFFFFFFFFFFFFFFFFFFFF DUP3 AND SWAP1 POP SWAP2 SWAP1 POP JUMP JUMPDEST PUSH0 PUSH2 0x2AB DUP3 PUSH2 0x282 JUMP JUMPDEST SWAP1 POP SWAP2 SWAP1 POP JUMP JUMPDEST PUSH2 0x2BB DUP2 PUSH2 0x2A1 JUMP JUMPDEST DUP2 EQ PUSH2 0x2C5 JUMPI PUSH0 PUSH0 REVERT JUMPDEST POP JUMP JUMPDEST PUSH0 DUP2 MLOAD SWAP1 POP PUSH2 0x2D6 DUP2 PUSH2 0x2B2 JUMP JUMPDEST SWAP3 SWAP2 POP POP JUMP JUMPDEST PUSH0 PUSH0 PUSH0 PUSH0 PUSH0 PUSH0 PUSH1 0xC0 DUP8 DUP10 SUB SLT ISZERO PUSH2 0x2F6 JUMPI PUSH2 0x2F5 PUSH2 0x10B JUMP JUMPDEST JUMPDEST PUSH0 PUSH2 0x303 DUP10 DUP3 DUP11 ADD PUSH2 0x132 JUMP JUMPDEST SWAP7 POP POP PUSH1 0x20 DUP8 ADD MLOAD PUSH8 0xFFFFFFFFFFFFFFFF DUP2 GT ISZERO PUSH2 0x324 JUMPI PUSH2 0x323 PUSH2 0x10F JUMP JUMPDEST JUMPDEST PUSH2 0x330 DUP10 DUP3 DUP11 ADD PUSH2 0x255 JUMP JUMPDEST SWAP6 POP POP PUSH1 0x40 DUP8 ADD MLOAD PUSH8 0xFFFFFFFFFFFFFFFF DUP2 GT ISZERO PUSH2 0x351 JUMPI PUSH2 0x350 PUSH2 0x10F JUMP JUMPDEST JUMPDEST PUSH2 0x35D DUP10 DUP3 DUP11 ADD PUSH2 0x255 JUMP JUMPDEST SWAP5 POP POP PUSH1 0x60 PUSH2 0x36E DUP10 DUP3 DUP11 ADD PUSH2 0x2C8 JUMP JUMPDEST SWAP4 POP POP PUSH1 0x80 PUSH2 0x37F DUP10 DUP3 DUP11 ADD PUSH2 0x132 JUMP JUMPDEST SWAP3 POP POP PUSH1 0xA0 PUSH2 0x390 DUP10 DUP3 DUP11 ADD PUSH2 0x2C8 JUMP JUMPDEST SWAP2 POP POP SWAP3 SWAP6 POP SWAP3 SWAP6 POP SWAP3 SWAP6 JUMP JUMPDEST PUSH0 DUP2 MLOAD SWAP1 POP SWAP2 SWAP1 POP JUMP JUMPDEST PUSH32 0x4E487B7100000000000000000000000000000000000000000000000000000000 PUSH0 MSTORE PUSH1 0x22 PUSH1 0x4 MSTORE PUSH1 0x24 PUSH0 REVERT JUMPDEST PUSH0 PUSH1 0x2 DUP3 DIV SWAP1 POP PUSH1 0x1 DUP3 AND DUP1 PUSH2 0x3EB JUMPI PUSH1 0x7F DUP3 AND SWAP2 POP JUMPDEST PUSH1 0x20 DUP3 LT DUP2 SUB PUSH2 0x3FE JUMPI PUSH2 0x3FD PUSH2 0x3A7 JUMP JUMPDEST JUMPDEST POP SWAP2 SWAP1 POP JUMP JUMPDEST PUSH0 DUP2 SWAP1 POP DUP2 PUSH0 MSTORE PUSH1 0x20 PUSH0 KECCAK256 SWAP1 POP SWAP2 SWAP1 POP JUMP JUMPDEST PUSH0 PUSH1 0x20 PUSH1 0x1F DUP4 ADD DIV SWAP1 POP SWAP2 SWAP1 POP JUMP JUMPDEST PUSH0 DUP3 DUP3 SHL SWAP1 POP SWAP3 SWAP2 POP POP JUMP JUMPDEST PUSH0 PUSH1 0x8 DUP4 MUL PUSH2 0x460 PUSH32 0xFFFFFFFFFFFFFFFFFFFFFFFFFFFFFFFFFFFFFFFFFFFFFFFFFFFFFFFFFFFFFFFF DUP3 PUSH2 0x425 JUMP JUMPDEST PUSH2 0x46A DUP7 DUP4 PUSH2 0x425 JUMP JUMPDEST SWAP6 POP DUP1 NOT DUP5 AND SWAP4 POP DUP1 DUP7 AND DUP5 OR SWAP3 POP POP POP SWAP4 SWAP3 POP POP POP JUMP JUMPDEST PUSH0 DUP2 SWAP1 POP SWAP2 SWAP1 POP JUMP JUMPDEST PUSH0 PUSH2 0x4A5 PUSH2 0x4A0 PUSH2 0x49B DUP5 PUSH2 0x113 JUMP JUMPDEST PUSH2 0x482 JUMP JUMPDEST PUSH2 0x113 JUMP JUMPDEST SWAP1 POP SWAP2 SWAP1 POP JUMP JUMPDEST PUSH0 DUP2 SWAP1 POP SWAP2 SWAP1 POP JUMP JUMPDEST PUSH2 0x4BE DUP4 PUSH2 0x48B JUMP JUMPDEST PUSH2 0x4D2 PUSH2 0x4CA DUP3 PUSH2 0x4AC JUMP JUMPDEST DUP5 DUP5 SLOAD PUSH2 0x431 JUMP JUMPDEST DUP3 SSTORE POP POP POP POP JUMP JUMPDEST PUSH0 PUSH0 SWAP1 POP SWAP1 JUMP JUMPDEST PUSH2 0x4E9 PUSH2 0x4DA JUMP JUMPDEST PUSH2 0x4F4 DUP2 DUP5 DUP5 PUSH2 0x4B5 JUMP JUMPDEST POP POP POP JUMP JUMPDEST PUSH0 JUMPDEST DUP3 DUP2 LT ISZERO PUSH2 0x51A JUMPI PUSH2 0x50F PUSH0 DUP3 DUP5 ADD PUSH2 0x4E1 JUMP JUMPDEST PUSH1 0x1 DUP2 ADD SWAP1 POP PUSH2 0x4FB JUMP JUMPDEST POP POP POP JUMP JUMPDEST PUSH1 0x1F DUP3 GT ISZERO PUSH2 0x56D JUMPI DUP3 DUP3 GT ISZERO PUSH2 0x56C JUMPI PUSH2 0x539 DUP2 PUSH2 0x404 JUMP JUMPDEST PUSH2 0x542 DUP4 PUSH2 0x416 JUMP JUMPDEST PUSH2 0x54B DUP6 PUSH2 0x416 JUMP JUMPDEST PUSH1 0x20 DUP7 LT ISZERO PUSH2 0x558 JUMPI PUSH0 SWAP1 POP JUMPDEST DUP1 DUP4 ADD PUSH2 0x567 DUP3 DUP5 SUB DUP3 PUSH2 0x4F9 JUMP JUMPDEST POP POP POP POP JUMPDEST JUMPDEST POP POP POP JUMP JUMPDEST PUSH0 DUP3 DUP3 SHR SWAP1 POP SWAP3 SWAP2 POP POP JUMP JUMPDEST PUSH0 PUSH2 0x58D PUSH0 NOT DUP5 PUSH1 0x8 MUL PUSH2 0x572 JUMP JUMPDEST NOT DUP1 DUP4 AND SWAP2 POP POP SWAP3 SWAP2 POP POP JUMP JUMPDEST PUSH0 PUSH2 0x5A5 DUP4 DUP4 PUSH2 0x57E JUMP JUMPDEST SWAP2 POP DUP3 PUSH1 0x2 MUL DUP3 OR SWAP1 POP SWAP3 SWAP2 POP POP JUMP JUMPDEST PUSH2 0x5BE DUP3 PUSH2 0x39D JUMP JUMPDEST PUSH8 0xFFFFFFFFFFFFFFFF DUP2 GT ISZERO PUSH2 0x5D7 JUMPI PUSH2 0x5D6 PUSH2 0x15E JUMP JUMPDEST JUMPDEST PUSH2 0x5E1 DUP3 SLOAD PUSH2 0x3D4 JUMP JUMPDEST PUSH2 0x5EC DUP3 DUP3 DUP6 PUSH2 0x51F JUMP JUMPDEST PUSH0 PUSH1 0x20 SWAP1 POP PUSH1 0x1F DUP4 GT PUSH1 0x1 DUP2 EQ PUSH2 0x61D JUMPI PUSH0 DUP5 ISZERO PUSH2 0x60B JUMPI DUP3 DUP8 ADD MLOAD SWAP1 POP JUMPDEST PUSH2 0x615 DUP6 DUP3 PUSH2 0x59A JUMP JUMPDEST DUP7 SSTORE POP PUSH2 0x67C JUMP JUMPDEST PUSH1 0x1F NOT DUP5 AND PUSH2 0x62B DUP7 PUSH2 0x404 JUMP JUMPDEST PUSH0 JUMPDEST DUP3 DUP2 LT ISZERO PUSH2 0x652 JUMPI DUP5 DUP10 ADD MLOAD DUP3 SSTORE PUSH1 0x1 DUP3 ADD SWAP2 POP PUSH1 0x20 DUP6 ADD SWAP5 POP PUSH1 0x20 DUP2 ADD SWAP1 POP PUSH2 0x62D JUMP JUMPDEST DUP7 DUP4 LT ISZERO PUSH2 0x66F JUMPI DUP5 DUP10 ADD MLOAD PUSH2 0x66B PUSH1 0x1F DUP10 AND DUP3 PUSH2 0x57E JUMP JUMPDEST DUP4 SSTORE POP JUMPDEST PUSH1 0x1 PUSH1 0x2 DUP9 MUL ADD DUP9 SSTORE POP POP POP JUMPDEST POP POP POP POP POP POP JUMP JUMPDEST PUSH2 0x3BD2 DUP1 PUSH2 0x691 PUSH0 CODECOPY PUSH0 RETURN INVALID PUSH1 0x80 PUSH1 0x40 MSTORE PUSH1 0x4 CALLDATASIZE LT PUSH2 0x1E2 JUMPI PUSH0 CALLDATALOAD PUSH1 0xE0 SHR DUP1 PUSH4 0x82FDE093 GT PUSH2 0x101 JUMPI DUP1 PUSH4 0xA39FAC12 GT PUSH2 0x94 JUMPI DUP1 PUSH4 0xC8B342AB GT PUSH2 0x63 JUMPI DUP1 PUSH4 0xC8B342AB EQ PUSH2 0x6F0 JUMPI DUP1 PUSH4 0xD57BDE79 EQ PUSH2 0x72C JUMPI DUP1 PUSH4 0xD7BB99BA EQ PUSH2 0x756 JUMPI DUP1 PUSH4 0xEDF26D9B EQ PUSH2 0x760 JUMPI PUSH2 0x1E2 JUMP JUMPDEST DUP1 PUSH4 0xA39FAC12 EQ PUSH2 0x638 JUMPI DUP1 PUSH4 0xC37FBB75 EQ PUSH2 0x662 JUMPI DUP1 PUSH4 0xC45A0155 EQ PUSH2 0x69E JUMPI DUP1 PUSH4 0xC6F56901 EQ PUSH2 0x6C8 JUMPI PUSH2 0x1E2 JUMP JUMPDEST DUP1 PUSH4 0x9292260E GT PUSH2 0xD0 JUMPI DUP1 PUSH4 0x9292260E EQ PUSH2 0x57E JUMPI DUP1 PUSH4 0x937E09B1 EQ PUSH2 0x5BA JUMPI DUP1 PUSH4 0x976AF615 EQ PUSH2 0x5E4 JUMPI DUP1 PUSH4 0x9ACE38C2 EQ PUSH2 0x5FA JUMPI PUSH2 0x1E2 JUMP JUMPDEST DUP1 PUSH4 0x82FDE093 EQ PUSH2 0x4BD JUMPI DUP1 PUSH4 0x83920E90 EQ PUSH2 0x4E7 JUMPI DUP1 PUSH4 0x8BA123E8 EQ PUSH2 0x511 JUMPI DUP1 PUSH4 0x91F90157 EQ PUSH2 0x554 JUMPI PUSH2 0x1E2 JUMP JUMPDEST DUP1 PUSH4 0x4051DDAC GT PUSH2 0x179 JUMPI DUP1 PUSH4 0x597E1FB5 GT PUSH2 0x148 JUMPI DUP1 PUSH4 0x597E1FB5 EQ PUSH2 0x3FB JUMPI DUP1 PUSH4 0x5DC1D641 EQ PUSH2 0x425 JUMPI DUP1 PUSH4 0x7914135E EQ PUSH2 0x461 JUMPI DUP1 PUSH4 0x7B87D856 EQ PUSH2 0x493 JUMPI PUSH2 0x1E2 JUMP JUMPDEST DUP1 PUSH4 0x4051DDAC EQ PUSH2 0x34A JUMPI DUP1 PUSH4 0x481C6A75 EQ PUSH2 0x37D JUMPI DUP1 PUSH4 0x4E69D560 EQ PUSH2 0x3A7 JUMPI DUP1 PUSH4 0x58D65629 EQ PUSH2 0x3D1 JUMPI PUSH2 0x1E2 JUMP JUMPDEST DUP1 PUSH4 0x2E7700F0 GT PUSH2 0x1B5 JUMPI DUP1 PUSH4 0x2E7700F0 EQ PUSH2 0x2A2 JUMPI DUP1 PUSH4 0x3197CBB6 EQ PUSH2 0x2CC JUMPI DUP1 PUSH4 0x3A9D3027 EQ PUSH2 0x2F6 JUMPI DUP1 PUSH4 0x3BC5DE30 EQ PUSH2 0x320 JUMPI PUSH2 0x1E2 JUMP JUMPDEST DUP1 PUSH4 0x5281103 EQ PUSH2 0x1E6 JUMPI DUP1 PUSH4 0x74D55C4 EQ PUSH2 0x226 JUMPI DUP1 PUSH4 0xA144391 EQ PUSH2 0x250 JUMPI DUP1 PUSH4 0x110F8874 EQ PUSH2 0x28C JUMPI JUMPDEST PUSH0 PUSH0 REVERT JUMPDEST CALLVALUE DUP1 ISZERO PUSH2 0x1F1 JUMPI PUSH0 PUSH0 REVERT JUMPDEST POP PUSH2 0x20C PUSH1 0x4 DUP1 CALLDATASIZE SUB DUP2 ADD SWAP1 PUSH2 0x207 SWAP2 SWAP1 PUSH2 0x29E1 JUMP JUMPDEST PUSH2 0x79C JUMP JUMPDEST PUSH1 0x40 MLOAD PUSH2 0x21D SWAP6 SWAP5 SWAP4 SWAP3 SWAP2 SWAP1 PUSH2 0x2A3E JUMP JUMPDEST PUSH1 0x40 MLOAD DUP1 SWAP2 SUB SWAP1 RETURN JUMPDEST CALLVALUE DUP1 ISZERO PUSH2 0x231 JUMPI PUSH0 PUSH0 REVERT JUMPDEST POP PUSH2 0x23A PUSH2 0x922 JUMP JUMPDEST PUSH1 0x40 MLOAD PUSH2 0x247 SWAP2 SWAP1 PUSH2 0x2A8F JUMP JUMPDEST PUSH1 0x40 MLOAD DUP1 SWAP2 SUB SWAP1 RETURN JUMPDEST CALLVALUE DUP1 ISZERO PUSH2 0x25B JUMPI PUSH0 PUSH0 REVERT JUMPDEST POP PUSH2 0x276 PUSH1 0x4 DUP1 CALLDATASIZE SUB DUP2 ADD SWAP1 PUSH2 0x271 SWAP2 SWAP1 PUSH2 0x29E1 JUMP JUMPDEST PUSH2 0x928 JUMP JUMPDEST PUSH1 0x40 MLOAD PUSH2 0x283 SWAP2 SWAP1 PUSH2 0x2AA8 JUMP JUMPDEST PUSH1 0x40 MLOAD DUP1 SWAP2 SUB SWAP1 RETURN JUMPDEST CALLVALUE DUP1 ISZERO PUSH2 0x297 JUMPI PUSH0 PUSH0 REVERT JUMPDEST POP PUSH2 0x2A0 PUSH2 0x945 JUMP JUMPDEST STOP JUMPDEST CALLVALUE DUP1 ISZERO PUSH2 0x2AD JUMPI PUSH0 PUSH0 REVERT JUMPDEST POP PUSH2 0x2B6 PUSH2 0xBE1 JUMP JUMPDEST PUSH1 0x40 MLOAD PUSH2 0x2C3 SWAP2 SWAP1 PUSH2 0x2A8F JUMP JUMPDEST PUSH1 0x40 MLOAD DUP1 SWAP2 SUB SWAP1 RETURN JUMPDEST CALLVALUE DUP1 ISZERO PUSH2 0x2D7 JUMPI PUSH0 PUSH0 REVERT JUMPDEST POP PUSH2 0x2E0 PUSH2 0xBED JUMP JUMPDEST PUSH1 0x40 MLOAD PUSH2 0x2ED SWAP2 SWAP1 PUSH2 0x2A8F JUMP JUMPDEST PUSH1 0x40 MLOAD DUP1 SWAP2 SUB SWAP1 RETURN JUMPDEST CALLVALUE DUP1 ISZERO PUSH2 0x301 JUMPI PUSH0 PUSH0 REVERT JUMPDEST POP PUSH2 0x30A PUSH2 0xBF3 JUMP JUMPDEST PUSH1 0x40 MLOAD PUSH2 0x317 SWAP2 SWAP1 PUSH2 0x2C28 JUMP JUMPDEST PUSH1 0x40 MLOAD DUP1 SWAP2 SUB SWAP1 RETURN JUMPDEST CALLVALUE DUP1 ISZERO PUSH2 0x32B JUMPI PUSH0 PUSH0 REVERT JUMPDEST POP PUSH2 0x334 PUSH2 0xD35 JUMP JUMPDEST PUSH1 0x40 MLOAD PUSH2 0x341 SWAP2 SWAP1 PUSH2 0x2CB8 JUMP JUMPDEST PUSH1 0x40 MLOAD DUP1 SWAP2 SUB SWAP1 RETURN JUMPDEST CALLVALUE DUP1 ISZERO PUSH2 0x355 JUMPI PUSH0 PUSH0 REVERT JUMPDEST POP PUSH2 0x35E PUSH2 0xEA2 JUMP JUMPDEST PUSH1 0x40 MLOAD PUSH2 0x374 SWAP11 SWAP10 SWAP9 SWAP8 SWAP7 SWAP6 SWAP5 SWAP4 SWAP3 SWAP2 SWAP1 PUSH2 0x2D8F JUMP JUMPDEST PUSH1 0x40 MLOAD DUP1 SWAP2 SUB SWAP1 RETURN JUMPDEST CALLVALUE DUP1 ISZERO PUSH2 0x388 JUMPI PUSH0 PUSH0 REVERT JUMPDEST POP PUSH2 0x391 PUSH2 0x10BE JUMP JUMPDEST PUSH1 0x40 MLOAD PUSH2 0x39E SWAP2 SWAP1 PUSH2 0x2E3E JUMP JUMPDEST PUSH1 0x40 MLOAD DUP1 SWAP2 SUB SWAP1 RETURN JUMPDEST CALLVALUE DUP1 ISZERO PUSH2 0x3B2 JUMPI PUSH0 PUSH0 REVERT JUMPDEST POP PUSH2 0x3BB PUSH2 0x10E3 JUMP JUMPDEST PUSH1 0x40 MLOAD PUSH2 0x3C8 SWAP2 SWAP1 PUSH2 0x2AA8 JUMP JUMPDEST PUSH1 0x40 MLOAD DUP1 SWAP2 SUB SWAP1 RETURN JUMPDEST CALLVALUE DUP1 ISZERO PUSH2 0x3DC JUMPI PUSH0 PUSH0 REVERT JUMPDEST POP PUSH2 0x3E5 PUSH2 0x10F8 JUMP JUMPDEST PUSH1 0x40 MLOAD PUSH2 0x3F2 SWAP2 SWAP1 PUSH2 0x2CB8 JUMP JUMPDEST PUSH1 0x40 MLOAD DUP1 SWAP2 SUB SWAP1 RETURN JUMPDEST CALLVALUE DUP1 ISZERO PUSH2 0x406 JUMPI PUSH0 PUSH0 REVERT JUMPDEST POP PUSH2 0x40F PUSH2 0x1184 JUMP JUMPDEST PUSH1 0x40 MLOAD PUSH2 0x41C SWAP2 SWAP1 PUSH2 0x2AA8 JUMP JUMPDEST PUSH1 0x40 MLOAD DUP1 SWAP2 SUB SWAP1 RETURN JUMPDEST CALLVALUE DUP1 ISZERO PUSH2 0x430 JUMPI PUSH0 PUSH0 REVERT JUMPDEST POP PUSH2 0x44B PUSH1 0x4 DUP1 CALLDATASIZE SUB DUP2 ADD SWAP1 PUSH2 0x446 SWAP2 SWAP1 PUSH2 0x29E1 JUMP JUMPDEST PUSH2 0x1196 JUMP JUMPDEST PUSH1 0x40 MLOAD PUSH2 0x458 SWAP2 SWAP1 PUSH2 0x2A8F JUMP JUMPDEST PUSH1 0x40 MLOAD DUP1 SWAP2 SUB SWAP1 RETURN JUMPDEST CALLVALUE DUP1 ISZERO PUSH2 0x46C JUMPI PUSH0 PUSH0 REVERT JUMPDEST POP PUSH2 0x475 PUSH2 0x11AB JUMP JUMPDEST PUSH1 0x40 MLOAD PUSH2 0x48A SWAP10 SWAP9 SWAP8 SWAP7 SWAP6 SWAP5 SWAP4 SWAP3 SWAP2 SWAP1 PUSH2 0x2E57 JUMP JUMPDEST PUSH1 0x40 MLOAD DUP1 SWAP2 SUB SWAP1 RETURN JUMPDEST CALLVALUE DUP1 ISZERO PUSH2 0x49E JUMPI PUSH0 PUSH0 REVERT JUMPDEST POP PUSH2 0x4A7 PUSH2 0x12BE JUMP JUMPDEST PUSH1 0x40 MLOAD PUSH2 0x4B4 SWAP2 SWAP1 PUSH2 0x2CB8 JUMP JUMPDEST PUSH1 0x40 MLOAD DUP1 SWAP2 SUB SWAP1 RETURN JUMPDEST CALLVALUE DUP1 ISZERO PUSH2 0x4C8 JUMPI PUSH0 PUSH0 REVERT JUMPDEST POP PUSH2 0x4D1 PUSH2 0x134A JUMP JUMPDEST PUSH1 0x40 MLOAD PUSH2 0x4DE SWAP2 SWAP1 PUSH2 0x2A8F JUMP JUMPDEST PUSH1 0x40 MLOAD DUP1 SWAP2 SUB SWAP1 RETURN JUMPDEST CALLVALUE DUP1 ISZERO PUSH2 0x4F2 JUMPI PUSH0 PUSH0 REVERT JUMPDEST POP PUSH2 0x4FB PUSH2 0x1350 JUMP JUMPDEST PUSH1 0x40 MLOAD PUSH2 0x508 SWAP2 SWAP1 PUSH2 0x2FD1 JUMP JUMPDEST PUSH1 0x40 MLOAD DUP1 SWAP2 SUB SWAP1 RETURN JUMPDEST CALLVALUE DUP1 ISZERO PUSH2 0x51C JUMPI PUSH0 PUSH0 REVERT JUMPDEST POP PUSH2 0x537 PUSH1 0x4 DUP1 CALLDATASIZE SUB DUP2 ADD SWAP1 PUSH2 0x532 SWAP2 SWAP1 PUSH2 0x301B JUMP JUMPDEST PUSH2 0x1414 JUMP JUMPDEST PUSH1 0x40 MLOAD PUSH2 0x54B SWAP9 SWAP8 SWAP7 SWAP6 SWAP5 SWAP4 SWAP3 SWAP2 SWAP1 PUSH2 0x3046 JUMP JUMPDEST PUSH1 0x40 MLOAD DUP1 SWAP2 SUB SWAP1 RETURN JUMPDEST CALLVALUE DUP1 ISZERO PUSH2 0x55F JUMPI PUSH0 PUSH0 REVERT JUMPDEST POP PUSH2 0x568 PUSH2 0x14A5 JUMP JUMPDEST PUSH1 0x40 MLOAD PUSH2 0x575 SWAP2 SWAP1 PUSH2 0x2E3E JUMP JUMPDEST PUSH1 0x40 MLOAD DUP1 SWAP2 SUB SWAP1 RETURN JUMPDEST CALLVALUE DUP1 ISZERO PUSH2 0x589 JUMPI PUSH0 PUSH0 REVERT JUMPDEST POP PUSH2 0x5A4 PUSH1 0x4 DUP1 CALLDATASIZE SUB DUP2 ADD SWAP1 PUSH2 0x59F SWAP2 SWAP1 PUSH2 0x301B JUMP JUMPDEST PUSH2 0x14CA JUMP JUMPDEST PUSH1 0x40 MLOAD PUSH2 0x5B1 SWAP2 SWAP1 PUSH2 0x3102 JUMP JUMPDEST PUSH1 0x40 MLOAD DUP1 SWAP2 SUB SWAP1 RETURN JUMPDEST CALLVALUE DUP1 ISZERO PUSH2 0x5C5 JUMPI PUSH0 PUSH0 REVERT JUMPDEST POP PUSH2 0x5CE PUSH2 0x15B3 JUMP JUMPDEST PUSH1 0x40 MLOAD PUSH2 0x5DB SWAP2 SWAP1 PUSH2 0x2A8F JUMP JUMPDEST PUSH1 0x40 MLOAD DUP1 SWAP2 SUB SWAP1 RETURN JUMPDEST CALLVALUE DUP1 ISZERO PUSH2 0x5EF JUMPI PUSH0 PUSH0 REVERT JUMPDEST POP PUSH2 0x5F8 PUSH2 0x15B9 JUMP JUMPDEST STOP JUMPDEST CALLVALUE DUP1 ISZERO PUSH2 0x605 JUMPI PUSH0 PUSH0 REVERT JUMPDEST POP PUSH2 0x620 PUSH1 0x4 DUP1 CALLDATASIZE SUB DUP2 ADD SWAP1 PUSH2 0x61B SWAP2 SWAP1 PUSH2 0x301B JUMP JUMPDEST PUSH2 0x191B JUMP JUMPDEST PUSH1 0x40 MLOAD PUSH2 0x62F SWAP4 SWAP3 SWAP2 SWAP1 PUSH2 0x311B JUMP JUMPDEST PUSH1 0x40 MLOAD DUP1 SWAP2 SUB SWAP1 RETURN JUMPDEST CALLVALUE DUP1 ISZERO PUSH2 0x643 JUMPI PUSH0 PUSH0 REVERT JUMPDEST POP PUSH2 0x64C PUSH2 0x196F JUMP JUMPDEST PUSH1 0x40 MLOAD PUSH2 0x659 SWAP2 SWAP1 PUSH2 0x3150 JUMP JUMPDEST PUSH1 0x40 MLOAD DUP1 SWAP2 SUB SWAP1 RETURN JUMPDEST CALLVALUE DUP1 ISZERO PUSH2 0x66D JUMPI PUSH0 PUSH0 REVERT JUMPDEST POP PUSH2 0x688 PUSH1 0x4 DUP1 CALLDATASIZE SUB DUP2 ADD SWAP1 PUSH2 0x683 SWAP2 SWAP1 PUSH2 0x301B JUMP JUMPDEST PUSH2 0x19FA JUMP JUMPDEST PUSH1 0x40 MLOAD PUSH2 0x695 SWAP2 SWAP1 PUSH2 0x3210 JUMP JUMPDEST PUSH1 0x40 MLOAD DUP1 SWAP2 SUB SWAP1 RETURN JUMPDEST CALLVALUE DUP1 ISZERO PUSH2 0x6A9 JUMPI PUSH0 PUSH0 REVERT JUMPDEST POP PUSH2 0x6B2 PUSH2 0x1B61 JUMP JUMPDEST PUSH1 0x40 MLOAD PUSH2 0x6BF SWAP2 SWAP1 PUSH2 0x3285 JUMP JUMPDEST PUSH1 0x40 MLOAD DUP1 SWAP2 SUB SWAP1 RETURN JUMPDEST CALLVALUE DUP1 ISZERO PUSH2 0x6D3 JUMPI PUSH0 PUSH0 REVERT JUMPDEST POP PUSH2 0x6EE PUSH1 0x4 DUP1 CALLDATASIZE SUB DUP2 ADD SWAP1 PUSH2 0x6E9 SWAP2 SWAP1 PUSH2 0x301B JUMP JUMPDEST PUSH2 0x1B85 JUMP JUMPDEST STOP JUMPDEST CALLVALUE DUP1 ISZERO PUSH2 0x6FB JUMPI PUSH0 PUSH0 REVERT JUMPDEST POP PUSH2 0x716 PUSH1 0x4 DUP1 CALLDATASIZE SUB DUP2 ADD SWAP1 PUSH2 0x711 SWAP2 SWAP1 PUSH2 0x29E1 JUMP JUMPDEST PUSH2 0x1E87 JUMP JUMPDEST PUSH1 0x40 MLOAD PUSH2 0x723 SWAP2 SWAP1 PUSH2 0x2A8F JUMP JUMPDEST PUSH1 0x40 MLOAD DUP1 SWAP2 SUB SWAP1 RETURN JUMPDEST CALLVALUE DUP1 ISZERO PUSH2 0x737 JUMPI PUSH0 PUSH0 REVERT JUMPDEST POP PUSH2 0x740 PUSH2 0x1ECD JUMP JUMPDEST PUSH1 0x40 MLOAD PUSH2 0x74D SWAP2 SWAP1 PUSH2 0x2A8F JUMP JUMPDEST PUSH1 0x40 MLOAD DUP1 SWAP2 SUB SWAP1 RETURN JUMPDEST PUSH2 0x75E PUSH2 0x1ED3 JUMP JUMPDEST STOP JUMPDEST CALLVALUE DUP1 ISZERO PUSH2 0x76B JUMPI PUSH0 PUSH0 REVERT JUMPDEST POP PUSH2 0x786 PUSH1 0x4 DUP1 CALLDATASIZE SUB DUP2 ADD SWAP1 PUSH2 0x781 SWAP2 SWAP1 PUSH2 0x301B JUMP JUMPDEST PUSH2 0x28AB JUMP JUMPDEST PUSH1 0x40 MLOAD PUSH2 0x793 SWAP2 SWAP1 PUSH2 0x2E3E JUMP JUMPDEST PUSH1 0x40 MLOAD DUP1 SWAP2 SUB SWAP1 RETURN JUMPDEST PUSH0 PUSH0 PUSH0 PUSH0 PUSH0 PUSH0 PUSH1 0x5 PUSH0 DUP9 PUSH20 0xFFFFFFFFFFFFFFFFFFFFFFFFFFFFFFFFFFFFFFFF AND PUSH20 0xFFFFFFFFFFFFFFFFFFFFFFFFFFFFFFFFFFFFFFFF AND DUP2 MSTORE PUSH1 0x20 ADD SWAP1 DUP2 MSTORE PUSH1 0x20 ADD PUSH0 KECCAK256 PUSH0 SWAP1 SLOAD SWAP1 PUSH2 0x100 EXP SWAP1 DIV PUSH1 0xFF AND SWAP1 POP PUSH0 PUSH1 0x6 PUSH0 DUP10 PUSH20 0xFFFFFFFFFFFFFFFFFFFFFFFFFFFFFFFFFFFFFFFF AND PUSH20 0xFFFFFFFFFFFFFFFFFFFFFFFFFFFFFFFFFFFFFFFF AND DUP2 MSTORE PUSH1 0x20 ADD SWAP1 DUP2 MSTORE PUSH1 0x20 ADD PUSH0 KECCAK256 SLOAD SWAP1 POP PUSH0 PUSH1 0x1 PUSH0 SWAP1 SLOAD SWAP1 PUSH2 0x100 EXP SWAP1 DIV PUSH20 0xFFFFFFFFFFFFFFFFFFFFFFFFFFFFFFFFFFFFFFFF AND PUSH20 0xFFFFFFFFFFFFFFFFFFFFFFFFFFFFFFFFFFFFFFFF AND DUP10 PUSH20 0xFFFFFFFFFFFFFFFFFFFFFFFFFFFFFFFFFFFFFFFF AND EQ SWAP1 POP PUSH0 PUSH1 0xB PUSH0 SWAP1 SLOAD SWAP1 PUSH2 0x100 EXP SWAP1 DIV PUSH20 0xFFFFFFFFFFFFFFFFFFFFFFFFFFFFFFFFFFFFFFFF AND PUSH20 0xFFFFFFFFFFFFFFFFFFFFFFFFFFFFFFFFFFFFFFFF AND DUP11 PUSH20 0xFFFFFFFFFFFFFFFFFFFFFFFFFFFFFFFFFFFFFFFF AND EQ SWAP1 POP PUSH0 PUSH1 0xE PUSH0 SWAP1 SLOAD SWAP1 PUSH2 0x100 EXP SWAP1 DIV PUSH1 0xFF AND DUP1 ISZERO PUSH2 0x8EE JUMPI POP DUP5 JUMPDEST DUP1 ISZERO PUSH2 0x8F8 JUMPI POP DUP2 ISZERO JUMPDEST DUP1 ISZERO PUSH2 0x903 JUMPI POP PUSH0 DUP5 EQ JUMPDEST SWAP1 POP DUP5 DUP5 DUP3 DUP6 DUP6 SWAP10 POP SWAP10 POP SWAP10 POP SWAP10 POP SWAP10 POP POP POP POP POP POP SWAP2 SWAP4 SWAP6 SWAP1 SWAP3 SWAP5 POP JUMP JUMPDEST PUSH1 0xF SLOAD DUP2 JUMP JUMPDEST PUSH1 0x5 PUSH1 0x20 MSTORE DUP1 PUSH0 MSTORE PUSH1 0x40 PUSH0 KECCAK256 PUSH0 SWAP2 POP SLOAD SWAP1 PUSH2 0x100 EXP SWAP1 DIV PUSH1 0xFF AND DUP2 JUMP JUMPDEST PUSH1 0xE PUSH0 SWAP1 SLOAD SWAP1 PUSH2 0x100 EXP SWAP1 DIV PUSH1 0xFF AND PUSH2 0x993 JUMPI PUSH1 0x40 MLOAD PUSH32 0x8C379A000000000000000000000000000000000000000000000000000000000 DUP2 MSTORE PUSH1 0x4 ADD PUSH2 0x98A SWAP1 PUSH2 0x32E8 JUMP JUMPDEST PUSH1 0x40 MLOAD DUP1 SWAP2 SUB SWAP1 REVERT JUMPDEST PUSH1 0xB PUSH0 SWAP1 SLOAD SWAP1 PUSH2 0x100 EXP SWAP1 DIV PUSH20 0xFFFFFFFFFFFFFFFFFFFFFFFFFFFFFFFFFFFFFFFF AND PUSH20 0xFFFFFFFFFFFFFFFFFFFFFFFFFFFFFFFFFFFFFFFF AND CALLER PUSH20 0xFFFFFFFFFFFFFFFFFFFFFFFFFFFFFFFFFFFFFFFF AND SUB PUSH2 0xA22 JUMPI PUSH1 0x40 MLOAD PUSH32 0x8C379A000000000000000000000000000000000000000000000000000000000 DUP2 MSTORE PUSH1 0x4 ADD PUSH2 0xA19 SWAP1 PUSH2 0x3350 JUMP JUMPDEST PUSH1 0x40 MLOAD DUP1 SWAP2 SUB SWAP1 REVERT JUMPDEST PUSH0 PUSH1 0x6 PUSH0 CALLER PUSH20 0xFFFFFFFFFFFFFFFFFFFFFFFFFFFFFFFFFFFFFFFF AND PUSH20 0xFFFFFFFFFFFFFFFFFFFFFFFFFFFFFFFFFFFFFFFF AND DUP2 MSTORE PUSH1 0x20 ADD SWAP1 DUP2 MSTORE PUSH1 0x20 ADD PUSH0 KECCAK256 SLOAD SWAP1 POP PUSH0 DUP2 GT PUSH2 0xAA5 JUMPI PUSH1 0x40 MLOAD PUSH32 0x8C379A000000000000000000000000000000000000000000000000000000000 DUP2 MSTORE PUSH1 0x4 ADD PUSH2 0xA9C SWAP1 PUSH2 0x33B8 JUMP JUMPDEST PUSH1 0x40 MLOAD DUP1 SWAP2 SUB SWAP1 REVERT JUMPDEST PUSH0 PUSH1 0x6 PUSH0 CALLER PUSH20 0xFFFFFFFFFFFFFFFFFFFFFFFFFFFFFFFFFFFFFFFF AND PUSH20 0xFFFFFFFFFFFFFFFFFFFFFFFFFFFFFFFFFFFFFFFF AND DUP2 MSTORE PUSH1 0x20 ADD SWAP1 DUP2 MSTORE PUSH1 0x20 ADD PUSH0 KECCAK256 DUP2 SWAP1 SSTORE POP PUSH0 CALLER PUSH20 0xFFFFFFFFFFFFFFFFFFFFFFFFFFFFFFFFFFFFFFFF AND DUP3 PUSH1 0x40 MLOAD PUSH2 0xB0C SWAP1 PUSH2 0x3403 JUMP JUMPDEST PUSH0 PUSH1 0x40 MLOAD DUP1 DUP4 SUB DUP2 DUP6 DUP8 GAS CALL SWAP3 POP POP POP RETURNDATASIZE DUP1 PUSH0 DUP2 EQ PUSH2 0xB46 JUMPI PUSH1 0x40 MLOAD SWAP2 POP PUSH1 0x1F NOT PUSH1 0x3F RETURNDATASIZE ADD AND DUP3 ADD PUSH1 0x40 MSTORE RETURNDATASIZE DUP3 MSTORE RETURNDATASIZE PUSH0 PUSH1 0x20 DUP5 ADD RETURNDATACOPY PUSH2 0xB4B JUMP JUMPDEST PUSH1 0x60 SWAP2 POP JUMPDEST POP POP SWAP1 POP DUP1 PUSH2 0xB8F JUMPI PUSH1 0x40 MLOAD PUSH32 0x8C379A000000000000000000000000000000000000000000000000000000000 DUP2 MSTORE PUSH1 0x4 ADD PUSH2 0xB86 SWAP1 PUSH2 0x3461 JUMP JUMPDEST PUSH1 0x40 MLOAD DUP1 SWAP2 SUB SWAP1 REVERT JUMPDEST CALLER PUSH20 0xFFFFFFFFFFFFFFFFFFFFFFFFFFFFFFFFFFFFFFFF AND PUSH32 0x3367BEFD2B2F39615CD79917C2153263C4AF1D3945EC003E5D5BFC13A8D85833 DUP4 PUSH1 0x40 MLOAD PUSH2 0xBD5 SWAP2 SWAP1 PUSH2 0x2A8F JUMP JUMPDEST PUSH1 0x40 MLOAD DUP1 SWAP2 SUB SWAP1 LOG2 POP POP JUMP JUMPDEST PUSH0 PUSH1 0x9 DUP1 SLOAD SWAP1 POP SWAP1 POP SWAP1 JUMP JUMPDEST PUSH1 0xD SLOAD DUP2 JUMP JUMPDEST PUSH1 0x60 PUSH1 0xA DUP1 SLOAD DUP1 PUSH1 0x20 MUL PUSH1 0x20 ADD PUSH1 0x40 MLOAD SWAP1 DUP2 ADD PUSH1 0x40 MSTORE DUP1 SWAP3 SWAP2 SWAP1 DUP2 DUP2 MSTORE PUSH1 0x20 ADD PUSH0 SWAP1 JUMPDEST DUP3 DUP3 LT ISZERO PUSH2 0xD2C JUMPI DUP4 DUP3 SWAP1 PUSH0 MSTORE PUSH1 0x20 PUSH0 KECCAK256 SWAP1 PUSH1 0x8 MUL ADD PUSH1 0x40 MLOAD DUP1 PUSH2 0x100 ADD PUSH1 0x40 MSTORE SWAP1 DUP2 PUSH0 DUP3 ADD SLOAD DUP2 MSTORE PUSH1 0x20 ADD PUSH1 0x1 DUP3 ADD SLOAD DUP2 MSTORE PUSH1 0x20 ADD PUSH1 0x2 DUP3 ADD PUSH0 SWAP1 SLOAD SWAP1 PUSH2 0x100 EXP SWAP1 DIV PUSH20 0xFFFFFFFFFFFFFFFFFFFFFFFFFFFFFFFFFFFFFFFF AND PUSH20 0xFFFFFFFFFFFFFFFFFFFFFFFFFFFFFFFFFFFFFFFF AND PUSH20 0xFFFFFFFFFFFFFFFFFFFFFFFFFFFFFFFFFFFFFFFF AND DUP2 MSTORE PUSH1 0x20 ADD PUSH1 0x3 DUP3 ADD SLOAD DUP2 MSTORE PUSH1 0x20 ADD PUSH1 0x4 DUP3 ADD SLOAD DUP2 MSTORE PUSH1 0x20 ADD PUSH1 0x5 DUP3 ADD SLOAD DUP2 MSTORE PUSH1 0x20 ADD PUSH1 0x6 DUP3 ADD PUSH0 SWAP1 SLOAD SWAP1 PUSH2 0x100 EXP SWAP1 DIV PUSH20 0xFFFFFFFFFFFFFFFFFFFFFFFFFFFFFFFFFFFFFFFF AND PUSH20 0xFFFFFFFFFFFFFFFFFFFFFFFFFFFFFFFFFFFFFFFF AND PUSH20 0xFFFFFFFFFFFFFFFFFFFFFFFFFFFFFFFFFFFFFFFF AND DUP2 MSTORE PUSH1 0x20 ADD PUSH1 0x7 DUP3 ADD SLOAD DUP2 MSTORE POP POP DUP2 MSTORE PUSH1 0x20 ADD SWAP1 PUSH1 0x1 ADD SWAP1 PUSH2 0xC16 JUMP JUMPDEST POP POP POP POP SWAP1 POP SWAP1 JUMP JUMPDEST PUSH1 0x60 PUSH1 0xE PUSH0 SWAP1 SLOAD SWAP1 PUSH2 0x100 EXP SWAP1 DIV PUSH1 0xFF AND PUSH2 0xD85 JUMPI PUSH1 0x40 MLOAD PUSH32 0x8C379A000000000000000000000000000000000000000000000000000000000 DUP2 MSTORE PUSH1 0x4 ADD PUSH2 0xD7C SWAP1 PUSH2 0x32E8 JUMP JUMPDEST PUSH1 0x40 MLOAD DUP1 SWAP2 SUB SWAP1 REVERT JUMPDEST PUSH1 0xB PUSH0 SWAP1 SLOAD SWAP1 PUSH2 0x100 EXP SWAP1 DIV PUSH20 0xFFFFFFFFFFFFFFFFFFFFFFFFFFFFFFFFFFFFFFFF AND PUSH20 0xFFFFFFFFFFFFFFFFFFFFFFFFFFFFFFFFFFFFFFFF AND CALLER PUSH20 0xFFFFFFFFFFFFFFFFFFFFFFFFFFFFFFFFFFFFFFFF AND EQ PUSH2 0xE14 JUMPI PUSH1 0x40 MLOAD PUSH32 0x8C379A000000000000000000000000000000000000000000000000000000000 DUP2 MSTORE PUSH1 0x4 ADD PUSH2 0xE0B SWAP1 PUSH2 0x34C9 JUMP JUMPDEST PUSH1 0x40 MLOAD DUP1 SWAP2 SUB SWAP1 REVERT JUMPDEST PUSH1 0x3 DUP1 SLOAD PUSH2 0xE21 SWAP1 PUSH2 0x3514 JUMP JUMPDEST DUP1 PUSH1 0x1F ADD PUSH1 0x20 DUP1 SWAP2 DIV MUL PUSH1 0x20 ADD PUSH1 0x40 MLOAD SWAP1 DUP2 ADD PUSH1 0x40 MSTORE DUP1 SWAP3 SWAP2 SWAP1 DUP2 DUP2 MSTORE PUSH1 0x20 ADD DUP3 DUP1 SLOAD PUSH2 0xE4D SWAP1 PUSH2 0x3514 JUMP JUMPDEST DUP1 ISZERO PUSH2 0xE98 JUMPI DUP1 PUSH1 0x1F LT PUSH2 0xE6F JUMPI PUSH2 0x100 DUP1 DUP4 SLOAD DIV MUL DUP4 MSTORE SWAP2 PUSH1 0x20 ADD SWAP2 PUSH2 0xE98 JUMP JUMPDEST DUP3 ADD SWAP2 SWAP1 PUSH0 MSTORE PUSH1 0x20 PUSH0 KECCAK256 SWAP1 JUMPDEST DUP2 SLOAD DUP2 MSTORE SWAP1 PUSH1 0x1 ADD SWAP1 PUSH1 0x20 ADD DUP1 DUP4 GT PUSH2 0xE7B JUMPI DUP3 SWAP1 SUB PUSH1 0x1F AND DUP3 ADD SWAP2 JUMPDEST POP POP POP POP POP SWAP1 POP SWAP1 JUMP JUMPDEST PUSH0 PUSH0 PUSH0 PUSH0 PUSH0 PUSH1 0x60 DUP1 PUSH0 PUSH1 0x60 PUSH0 PUSH1 0x2 SLOAD SELFBALANCE PUSH1 0x7 SLOAD PUSH1 0x1 PUSH0 SWAP1 SLOAD SWAP1 PUSH2 0x100 EXP SWAP1 DIV PUSH20 0xFFFFFFFFFFFFFFFFFFFFFFFFFFFFFFFFFFFFFFFF AND PUSH1 0xC SLOAD PUSH1 0x3 PUSH1 0x4 PUSH1 0xB PUSH0 SWAP1 SLOAD SWAP1 PUSH2 0x100 EXP SWAP1 DIV PUSH20 0xFFFFFFFFFFFFFFFFFFFFFFFFFFFFFFFFFFFFFFFF AND PUSH1 0x8 PUSH1 0xD SLOAD DUP5 DUP1 SLOAD PUSH2 0xF11 SWAP1 PUSH2 0x3514 JUMP JUMPDEST DUP1 PUSH1 0x1F ADD PUSH1 0x20 DUP1 SWAP2 DIV MUL PUSH1 0x20 ADD PUSH1 0x40 MLOAD SWAP1 DUP2 ADD PUSH1 0x40 MSTORE DUP1 SWAP3 SWAP2 SWAP1 DUP2 DUP2 MSTORE PUSH1 0x20 ADD DUP3 DUP1 SLOAD PUSH2 0xF3D SWAP1 PUSH2 0x3514 JUMP JUMPDEST DUP1 ISZERO PUSH2 0xF88 JUMPI DUP1 PUSH1 0x1F LT PUSH2 0xF5F JUMPI PUSH2 0x100 DUP1 DUP4 SLOAD DIV MUL DUP4 MSTORE SWAP2 PUSH1 0x20 ADD SWAP2 PUSH2 0xF88 JUMP JUMPDEST DUP3 ADD SWAP2 SWAP1 PUSH0 MSTORE PUSH1 0x20 PUSH0 KECCAK256 SWAP1 JUMPDEST DUP2 SLOAD DUP2 MSTORE SWAP1 PUSH1 0x1 ADD SWAP1 PUSH1 0x20 ADD DUP1 DUP4 GT PUSH2 0xF6B JUMPI DUP3 SWAP1 SUB PUSH1 0x1F AND DUP3 ADD SWAP2 JUMPDEST POP POP POP POP POP SWAP5 POP DUP4 DUP1 SLOAD PUSH2 0xF9B SWAP1 PUSH2 0x3514 JUMP JUMPDEST DUP1 PUSH1 0x1F ADD PUSH1 0x20 DUP1 SWAP2 DIV MUL PUSH1 0x20 ADD PUSH1 0x40 MLOAD SWAP1 DUP2 ADD PUSH1 0x40 MSTORE DUP1 SWAP3 SWAP2 SWAP1 DUP2 DUP2 MSTORE PUSH1 0x20 ADD DUP3 DUP1 SLOAD PUSH2 0xFC7 SWAP1 PUSH2 0x3514 JUMP JUMPDEST DUP1 ISZERO PUSH2 0x1012 JUMPI DUP1 PUSH1 0x1F LT PUSH2 0xFE9 JUMPI PUSH2 0x100 DUP1 DUP4 SLOAD DIV MUL DUP4 MSTORE SWAP2 PUSH1 0x20 ADD SWAP2 PUSH2 0x1012 JUMP JUMPDEST DUP3 ADD SWAP2 SWAP1 PUSH0 MSTORE PUSH1 0x20 PUSH0 KECCAK256 SWAP1 JUMPDEST DUP2 SLOAD DUP2 MSTORE SWAP1 PUSH1 0x1 ADD SWAP1 PUSH1 0x20 ADD DUP1 DUP4 GT PUSH2 0xFF5 JUMPI DUP3 SWAP1 SUB PUSH1 0x1F AND DUP3 ADD SWAP2 JUMPDEST POP POP POP POP POP SWAP4 POP DUP2 DUP1 SLOAD DUP1 PUSH1 0x20 MUL PUSH1 0x20 ADD PUSH1 0x40 MLOAD SWAP1 DUP2 ADD PUSH1 0x40 MSTORE DUP1 SWAP3 SWAP2 SWAP1 DUP2 DUP2 MSTORE PUSH1 0x20 ADD DUP3 DUP1 SLOAD DUP1 ISZERO PUSH2 0x1097 JUMPI PUSH1 0x20 MUL DUP3 ADD SWAP2 SWAP1 PUSH0 MSTORE PUSH1 0x20 PUSH0 KECCAK256 SWAP1 JUMPDEST DUP2 PUSH0 SWAP1 SLOAD SWAP1 PUSH2 0x100 EXP SWAP1 DIV PUSH20 0xFFFFFFFFFFFFFFFFFFFFFFFFFFFFFFFFFFFFFFFF AND PUSH20 0xFFFFFFFFFFFFFFFFFFFFFFFFFFFFFFFFFFFFFFFF AND DUP2 MSTORE PUSH1 0x20 ADD SWAP1 PUSH1 0x1 ADD SWAP1 DUP1 DUP4 GT PUSH2 0x104E JUMPI JUMPDEST POP POP POP POP POP SWAP2 POP SWAP10 POP SWAP10 POP SWAP10 POP SWAP10 POP SWAP10 POP SWAP10 POP SWAP10 POP SWAP10 POP SWAP10 POP SWAP10 POP SWAP1 SWAP2 SWAP3 SWAP4 SWAP5 SWAP6 SWAP7 SWAP8 SWAP9 SWAP10 JUMP JUMPDEST PUSH1 0x1 PUSH0 SWAP1 SLOAD SWAP1 PUSH2 0x100 EXP SWAP1 DIV PUSH20 0xFFFFFFFFFFFFFFFFFFFFFFFFFFFFFFFFFFFFFFFF AND DUP2 JUMP JUMPDEST PUSH0 PUSH1 0xE PUSH0 SWAP1 SLOAD SWAP1 PUSH2 0x100 EXP SWAP1 DIV PUSH1 0xFF AND SWAP1 POP SWAP1 JUMP JUMPDEST PUSH1 0x4 DUP1 SLOAD PUSH2 0x1105 SWAP1 PUSH2 0x3514 JUMP JUMPDEST DUP1 PUSH1 0x1F ADD PUSH1 0x20 DUP1 SWAP2 DIV MUL PUSH1 0x20 ADD PUSH1 0x40 MLOAD SWAP1 DUP2 ADD PUSH1 0x40 MSTORE DUP1 SWAP3 SWAP2 SWAP1 DUP2 DUP2 MSTORE PUSH1 0x20 ADD DUP3 DUP1 SLOAD PUSH2 0x1131 SWAP1 PUSH2 0x3514 JUMP JUMPDEST DUP1 ISZERO PUSH2 0x117C JUMPI DUP1 PUSH1 0x1F LT PUSH2 0x1153 JUMPI PUSH2 0x100 DUP1 DUP4 SLOAD DIV MUL DUP4 MSTORE SWAP2 PUSH1 0x20 ADD SWAP2 PUSH2 0x117C JUMP JUMPDEST DUP3 ADD SWAP2 SWAP1 PUSH0 MSTORE PUSH1 0x20 PUSH0 KECCAK256 SWAP1 JUMPDEST DUP2 SLOAD DUP2 MSTORE SWAP1 PUSH1 0x1 ADD SWAP1 PUSH1 0x20 ADD DUP1 DUP4 GT PUSH2 0x115F JUMPI DUP3 SWAP1 SUB PUSH1 0x1F AND DUP3 ADD SWAP2 JUMPDEST POP POP POP POP POP DUP2 JUMP JUMPDEST PUSH1 0xE PUSH0 SWAP1 SLOAD SWAP1 PUSH2 0x100 EXP SWAP1 DIV PUSH1 0xFF AND DUP2 JUMP JUMPDEST PUSH1 0x6 PUSH1 0x20 MSTORE DUP1 PUSH0 MSTORE PUSH1 0x40 PUSH0 KECCAK256 PUSH0 SWAP2 POP SWAP1 POP SLOAD DUP2 JUMP JUMPDEST PUSH0 PUSH0 PUSH0 PUSH0 PUSH0 PUSH1 0x60 PUSH0 PUSH0 PUSH0 PUSH1 0x2 SLOAD SELFBALANCE PUSH1 0x7 SLOAD PUSH1 0x1 PUSH0 SWAP1 SLOAD SWAP1 PUSH2 0x100 EXP SWAP1 DIV PUSH20 0xFFFFFFFFFFFFFFFFFFFFFFFFFFFFFFFFFFFFFFFF AND PUSH1 0xC SLOAD PUSH1 0x4 PUSH1 0xB PUSH0 SWAP1 SLOAD SWAP1 PUSH2 0x100 EXP SWAP1 DIV PUSH20 0xFFFFFFFFFFFFFFFFFFFFFFFFFFFFFFFFFFFFFFFF AND PUSH1 0xD SLOAD PUSH1 0xE PUSH0 SWAP1 SLOAD SWAP1 PUSH2 0x100 EXP SWAP1 DIV PUSH1 0xFF AND DUP4 DUP1 SLOAD PUSH2 0x1223 SWAP1 PUSH2 0x3514 JUMP JUMPDEST DUP1 PUSH1 0x1F ADD PUSH1 0x20 DUP1 SWAP2 DIV MUL PUSH1 0x20 ADD PUSH1 0x40 MLOAD SWAP1 DUP2 ADD PUSH1 0x40 MSTORE DUP1 SWAP3 SWAP2 SWAP1 DUP2 DUP2 MSTORE PUSH1 0x20 ADD DUP3 DUP1 SLOAD PUSH2 0x124F SWAP1 PUSH2 0x3514 JUMP JUMPDEST DUP1 ISZERO PUSH2 0x129A JUMPI DUP1 PUSH1 0x1F LT PUSH2 0x1271 JUMPI PUSH2 0x100 DUP1 DUP4 SLOAD DIV MUL DUP4 MSTORE SWAP2 PUSH1 0x20 ADD SWAP2 PUSH2 0x129A JUMP JUMPDEST DUP3 ADD SWAP2 SWAP1 PUSH0 MSTORE PUSH1 0x20 PUSH0 KECCAK256 SWAP1 JUMPDEST DUP2 SLOAD DUP2 MSTORE SWAP1 PUSH1 0x1 ADD SWAP1 PUSH1 0x20 ADD DUP1 DUP4 GT PUSH2 0x127D JUMPI DUP3 SWAP1 SUB PUSH1 0x1F AND DUP3 ADD SWAP2 JUMPDEST POP POP POP POP POP SWAP4 POP SWAP9 POP SWAP9 POP SWAP9 POP SWAP9 POP SWAP9 POP SWAP9 POP SWAP9 POP SWAP9 POP SWAP9 POP SWAP1 SWAP2 SWAP3 SWAP4 SWAP5 SWAP6 SWAP7 SWAP8 SWAP9 JUMP JUMPDEST PUSH1 0x3 DUP1 SLOAD PUSH2 0x12CB SWAP1 PUSH2 0x3514 JUMP JUMPDEST DUP1 PUSH1 0x1F ADD PUSH1 0x20 DUP1 SWAP2 DIV MUL PUSH1 0x20 ADD PUSH1 0x40 MLOAD SWAP1 DUP2 ADD PUSH1 0x40 MSTORE DUP1 SWAP3 SWAP2 SWAP1 DUP2 DUP2 MSTORE PUSH1 0x20 ADD DUP3 DUP1 SLOAD PUSH2 0x12F7 SWAP1 PUSH2 0x3514 JUMP JUMPDEST DUP1 ISZERO PUSH2 0x1342 JUMPI DUP1 PUSH1 0x1F LT PUSH2 0x1319 JUMPI PUSH2 0x100 DUP1 DUP4 SLOAD DIV MUL DUP4 MSTORE SWAP2 PUSH1 0x20 ADD SWAP2 PUSH2 0x1342 JUMP JUMPDEST DUP3 ADD SWAP2 SWAP1 PUSH0 MSTORE PUSH1 0x20 PUSH0 KECCAK256 SWAP1 JUMPDEST DUP2 SLOAD DUP2 MSTORE SWAP1 PUSH1 0x1 ADD SWAP1 PUSH1 0x20 ADD DUP1 DUP4 GT PUSH2 0x1325 JUMPI DUP3 SWAP1 SUB PUSH1 0x1F AND DUP3 ADD SWAP2 JUMPDEST POP POP POP POP POP DUP2 JUMP JUMPDEST PUSH1 0x7 SLOAD DUP2 JUMP JUMPDEST PUSH1 0x60 PUSH1 0x9 DUP1 SLOAD DUP1 PUSH1 0x20 MUL PUSH1 0x20 ADD PUSH1 0x40 MLOAD SWAP1 DUP2 ADD PUSH1 0x40 MSTORE DUP1 SWAP3 SWAP2 SWAP1 DUP2 DUP2 MSTORE PUSH1 0x20 ADD PUSH0 SWAP1 JUMPDEST DUP3 DUP3 LT ISZERO PUSH2 0x140B JUMPI DUP4 DUP3 SWAP1 PUSH0 MSTORE PUSH1 0x20 PUSH0 KECCAK256 SWAP1 PUSH1 0x3 MUL ADD PUSH1 0x40 MLOAD DUP1 PUSH1 0x60 ADD PUSH1 0x40 MSTORE SWAP1 DUP2 PUSH0 DUP3 ADD SLOAD DUP2 MSTORE PUSH1 0x20 ADD PUSH1 0x1 DUP3 ADD SLOAD DUP2 MSTORE PUSH1 0x20 ADD PUSH1 0x2 DUP3 ADD PUSH0 SWAP1 SLOAD SWAP1 PUSH2 0x100 EXP SWAP1 DIV PUSH20 0xFFFFFFFFFFFFFFFFFFFFFFFFFFFFFFFFFFFFFFFF AND PUSH20 0xFFFFFFFFFFFFFFFFFFFFFFFFFFFFFFFFFFFFFFFF AND PUSH20 0xFFFFFFFFFFFFFFFFFFFFFFFFFFFFFFFFFFFFFFFF AND DUP2 MSTORE POP POP DUP2 MSTORE PUSH1 0x20 ADD SWAP1 PUSH1 0x1 ADD SWAP1 PUSH2 0x1373 JUMP JUMPDEST POP POP POP POP SWAP1 POP SWAP1 JUMP JUMPDEST PUSH1 0xA DUP2 DUP2 SLOAD DUP2 LT PUSH2 0x1423 JUMPI PUSH0 DUP1 REVERT JUMPDEST SWAP1 PUSH0 MSTORE PUSH1 0x20 PUSH0 KECCAK256 SWAP1 PUSH1 0x8 MUL ADD PUSH0 SWAP2 POP SWAP1 POP DUP1 PUSH0 ADD SLOAD SWAP1 DUP1 PUSH1 0x1 ADD SLOAD SWAP1 DUP1 PUSH1 0x2 ADD PUSH0 SWAP1 SLOAD SWAP1 PUSH2 0x100 EXP SWAP1 DIV PUSH20 0xFFFFFFFFFFFFFFFFFFFFFFFFFFFFFFFFFFFFFFFF AND SWAP1 DUP1 PUSH1 0x3 ADD SLOAD SWAP1 DUP1 PUSH1 0x4 ADD SLOAD SWAP1 DUP1 PUSH1 0x5 ADD SLOAD SWAP1 DUP1 PUSH1 0x6 ADD PUSH0 SWAP1 SLOAD SWAP1 PUSH2 0x100 EXP SWAP1 DIV PUSH20 0xFFFFFFFFFFFFFFFFFFFFFFFFFFFFFFFFFFFFFFFF AND SWAP1 DUP1 PUSH1 0x7 ADD SLOAD SWAP1 POP DUP9 JUMP JUMPDEST PUSH1 0xB PUSH0 SWAP1 SLOAD SWAP1 PUSH2 0x100 EXP SWAP1 DIV PUSH20 0xFFFFFFFFFFFFFFFFFFFFFFFFFFFFFFFFFFFFFFFF AND DUP2 JUMP JUMPDEST PUSH2 0x14D2 PUSH2 0x28E6 JUMP JUMPDEST PUSH1 0x9 DUP1 SLOAD SWAP1 POP DUP3 LT PUSH2 0x1519 JUMPI PUSH1 0x40 MLOAD PUSH32 0x8C379A000000000000000000000000000000000000000000000000000000000 DUP2 MSTORE PUSH1 0x4 ADD PUSH2 0x1510 SWAP1 PUSH2 0x358E JUMP JUMPDEST PUSH1 0x40 MLOAD DUP1 SWAP2 SUB SWAP1 REVERT JUMPDEST PUSH1 0x9 DUP3 DUP2 SLOAD DUP2 LT PUSH2 0x152D JUMPI PUSH2 0x152C PUSH2 0x35AC JUMP JUMPDEST JUMPDEST SWAP1 PUSH0 MSTORE PUSH1 0x20 PUSH0 KECCAK256 SWAP1 PUSH1 0x3 MUL ADD PUSH1 0x40 MLOAD DUP1 PUSH1 0x60 ADD PUSH1 0x40 MSTORE SWAP1 DUP2 PUSH0 DUP3 ADD SLOAD DUP2 MSTORE PUSH1 0x20 ADD PUSH1 0x1 DUP3 ADD SLOAD DUP2 MSTORE PUSH1 0x20 ADD PUSH1 0x2 DUP3 ADD PUSH0 SWAP1 SLOAD SWAP1 PUSH2 0x100 EXP SWAP1 DIV PUSH20 0xFFFFFFFFFFFFFFFFFFFFFFFFFFFFFFFFFFFFFFFF AND PUSH20 0xFFFFFFFFFFFFFFFFFFFFFFFFFFFFFFFFFFFFFFFF AND PUSH20 0xFFFFFFFFFFFFFFFFFFFFFFFFFFFFFFFFFFFFFFFF AND DUP2 MSTORE POP POP SWAP1 POP SWAP2 SWAP1 POP JUMP JUMPDEST PUSH1 0x2 SLOAD DUP2 JUMP JUMPDEST PUSH1 0xD SLOAD TIMESTAMP LT ISZERO PUSH2 0x15FE JUMPI PUSH1 0x40 MLOAD PUSH32 0x8C379A000000000000000000000000000000000000000000000000000000000 DUP2 MSTORE PUSH1 0x4 ADD PUSH2 0x15F5 SWAP1 PUSH2 0x3623 JUMP JUMPDEST PUSH1 0x40 MLOAD DUP1 SWAP2 SUB SWAP1 REVERT JUMPDEST PUSH1 0xE PUSH0 SWAP1 SLOAD SWAP1 PUSH2 0x100 EXP SWAP1 DIV PUSH1 0xFF AND ISZERO PUSH2 0x164D JUMPI PUSH1 0x40 MLOAD PUSH32 0x8C379A000000000000000000000000000000000000000000000000000000000 DUP2 MSTORE PUSH1 0x4 ADD PUSH2 0x1644 SWAP1 PUSH2 0x368B JUMP JUMPDEST PUSH1 0x40 MLOAD DUP1 SWAP2 SUB SWAP1 REVERT JUMPDEST PUSH1 0x1 PUSH1 0xE PUSH0 PUSH2 0x100 EXP DUP2 SLOAD DUP2 PUSH1 0xFF MUL NOT AND SWAP1 DUP4 ISZERO ISZERO MUL OR SWAP1 SSTORE POP PUSH0 PUSH1 0xC SLOAD GT ISZERO PUSH2 0x1919 JUMPI PUSH1 0xC SLOAD SELFBALANCE LT ISZERO PUSH2 0x16B6 JUMPI PUSH1 0x40 MLOAD PUSH32 0x8C379A000000000000000000000000000000000000000000000000000000000 DUP2 MSTORE PUSH1 0x4 ADD PUSH2 0x16AD SWAP1 PUSH2 0x36F3 JUMP JUMPDEST PUSH1 0x40 MLOAD DUP1 SWAP2 SUB SWAP1 REVERT JUMPDEST PUSH0 PUSH1 0x6 PUSH0 PUSH1 0xB PUSH0 SWAP1 SLOAD SWAP1 PUSH2 0x100 EXP SWAP1 DIV PUSH20 0xFFFFFFFFFFFFFFFFFFFFFFFFFFFFFFFFFFFFFFFF AND PUSH20 0xFFFFFFFFFFFFFFFFFFFFFFFFFFFFFFFFFFFFFFFF AND PUSH20 0xFFFFFFFFFFFFFFFFFFFFFFFFFFFFFFFFFFFFFFFF AND DUP2 MSTORE PUSH1 0x20 ADD SWAP1 DUP2 MSTORE PUSH1 0x20 ADD PUSH0 KECCAK256 DUP2 SWAP1 SSTORE POP PUSH0 PUSH1 0x1 PUSH0 SWAP1 SLOAD SWAP1 PUSH2 0x100 EXP SWAP1 DIV PUSH20 0xFFFFFFFFFFFFFFFFFFFFFFFFFFFFFFFFFFFFFFFF AND PUSH20 0xFFFFFFFFFFFFFFFFFFFFFFFFFFFFFFFFFFFFFFFF AND PUSH1 0xC SLOAD PUSH1 0x40 MLOAD PUSH2 0x1761 SWAP1 PUSH2 0x3403 JUMP JUMPDEST PUSH0 PUSH1 0x40 MLOAD DUP1 DUP4 SUB DUP2 DUP6 DUP8 GAS CALL SWAP3 POP POP POP RETURNDATASIZE DUP1 PUSH0 DUP2 EQ PUSH2 0x179B JUMPI PUSH1 0x40 MLOAD SWAP2 POP PUSH1 0x1F NOT PUSH1 0x3F RETURNDATASIZE ADD AND DUP3 ADD PUSH1 0x40 MSTORE RETURNDATASIZE DUP3 MSTORE RETURNDATASIZE PUSH0 PUSH1 0x20 DUP5 ADD RETURNDATACOPY PUSH2 0x17A0 JUMP JUMPDEST PUSH1 0x60 SWAP2 POP JUMPDEST POP POP SWAP1 POP DUP1 PUSH2 0x17E4 JUMPI PUSH1 0x40 MLOAD PUSH32 0x8C379A000000000000000000000000000000000000000000000000000000000 DUP2 MSTORE PUSH1 0x4 ADD PUSH2 0x17DB SWAP1 PUSH2 0x375B JUMP JUMPDEST PUSH1 0x40 MLOAD DUP1 SWAP2 SUB SWAP1 REVERT JUMPDEST PUSH0 PUSH0 SWAP1 SLOAD SWAP1 PUSH2 0x100 EXP SWAP1 DIV PUSH20 0xFFFFFFFFFFFFFFFFFFFFFFFFFFFFFFFFFFFFFFFF AND PUSH20 0xFFFFFFFFFFFFFFFFFFFFFFFFFFFFFFFFFFFFFFFF AND PUSH4 0x8DFAC90C PUSH1 0x1 PUSH0 SWAP1 SLOAD SWAP1 PUSH2 0x100 EXP SWAP1 DIV PUSH20 0xFFFFFFFFFFFFFFFFFFFFFFFFFFFFFFFFFFFFFFFF AND PUSH1 0xC SLOAD PUSH1 0x1 PUSH1 0x40 MLOAD DUP5 PUSH4 0xFFFFFFFF AND PUSH1 0xE0 SHL DUP2 MSTORE PUSH1 0x4 ADD PUSH2 0x1865 SWAP4 SWAP3 SWAP2 SWAP1 PUSH2 0x3779 JUMP JUMPDEST PUSH1 0x40 DUP1 MLOAD DUP1 DUP4 SUB DUP2 PUSH0 DUP8 GAS CALL ISZERO DUP1 ISZERO PUSH2 0x1880 JUMPI RETURNDATASIZE PUSH0 PUSH0 RETURNDATACOPY RETURNDATASIZE PUSH0 REVERT JUMPDEST POP POP POP POP PUSH1 0x40 MLOAD RETURNDATASIZE PUSH1 0x1F NOT PUSH1 0x1F DUP3 ADD AND DUP3 ADD DUP1 PUSH1 0x40 MSTORE POP DUP2 ADD SWAP1 PUSH2 0x18A4 SWAP2 SWAP1 PUSH2 0x37C2 JUMP JUMPDEST POP POP PUSH1 0x1 PUSH0 SWAP1 SLOAD SWAP1 PUSH2 0x100 EXP SWAP1 DIV PUSH20 0xFFFFFFFFFFFFFFFFFFFFFFFFFFFFFFFFFFFFFFFF AND PUSH20 0xFFFFFFFFFFFFFFFFFFFFFFFFFFFFFFFFFFFFFFFF AND PUSH32 0xCB4A9094DA4DF77FB2C0DBAA5047660B1237E61D82A02176C1BE74CA757F2531 PUSH1 0xC SLOAD PUSH1 0x40 MLOAD PUSH2 0x190F SWAP2 SWAP1 PUSH2 0x2A8F JUMP JUMPDEST PUSH1 0x40 MLOAD DUP1 SWAP2 SUB SWAP1 LOG2 POP JUMPDEST JUMP JUMPDEST PUSH1 0x9 DUP2 DUP2 SLOAD DUP2 LT PUSH2 0x192A JUMPI PUSH0 DUP1 REVERT JUMPDEST SWAP1 PUSH0 MSTORE PUSH1 0x20 PUSH0 KECCAK256 SWAP1 PUSH1 0x3 MUL ADD PUSH0 SWAP2 POP SWAP1 POP DUP1 PUSH0 ADD SLOAD SWAP1 DUP1 PUSH1 0x1 ADD SLOAD SWAP1 DUP1 PUSH1 0x2 ADD PUSH0 SWAP1 SLOAD SWAP1 PUSH2 0x100 EXP SWAP1 DIV PUSH20 0xFFFFFFFFFFFFFFFFFFFFFFFFFFFFFFFFFFFFFFFF AND SWAP1 POP DUP4 JUMP JUMPDEST PUSH1 0x60 PUSH1 0x8 DUP1 SLOAD DUP1 PUSH1 0x20 MUL PUSH1 0x20 ADD PUSH1 0x40 MLOAD SWAP1 DUP2 ADD PUSH1 0x40 MSTORE DUP1 SWAP3 SWAP2 SWAP1 DUP2 DUP2 MSTORE PUSH1 0x20 ADD DUP3 DUP1 SLOAD DUP1 ISZERO PUSH2 0x19F0 JUMPI PUSH1 0x20 MUL DUP3 ADD SWAP2 SWAP1 PUSH0 MSTORE PUSH1 0x20 PUSH0 KECCAK256 SWAP1 JUMPDEST DUP2 PUSH0 SWAP1 SLOAD SWAP1 PUSH2 0x100 EXP SWAP1 DIV PUSH20 0xFFFFFFFFFFFFFFFFFFFFFFFFFFFFFFFFFFFFFFFF AND PUSH20 0xFFFFFFFFFFFFFFFFFFFFFFFFFFFFFFFFFFFFFFFF AND DUP2 MSTORE PUSH1 0x20 ADD SWAP1 PUSH1 0x1 ADD SWAP1 DUP1 DUP4 GT PUSH2 0x19A7 JUMPI JUMPDEST POP POP POP POP POP SWAP1 POP SWAP1 JUMP JUMPDEST PUSH2 0x1A02 PUSH2 0x291A JUMP JUMPDEST PUSH1 0xA DUP1 SLOAD SWAP1 POP DUP3 LT PUSH2 0x1A49 JUMPI PUSH1 0x40 MLOAD PUSH32 0x8C379A000000000000000000000000000000000000000000000000000000000 DUP2 MSTORE PUSH1 0x4 ADD PUSH2 0x1A40 SWAP1 PUSH2 0x358E JUMP JUMPDEST PUSH1 0x40 MLOAD DUP1 SWAP2 SUB SWAP1 REVERT JUMPDEST PUSH1 0xA DUP3 DUP2 SLOAD DUP2 LT PUSH2 0x1A5D JUMPI PUSH2 0x1A5C PUSH2 0x35AC JUMP JUMPDEST JUMPDEST SWAP1 PUSH0 MSTORE PUSH1 0x20 PUSH0 KECCAK256 SWAP1 PUSH1 0x8 MUL ADD PUSH1 0x40 MLOAD DUP1 PUSH2 0x100 ADD PUSH1 0x40 MSTORE SWAP1 DUP2 PUSH0 DUP3 ADD SLOAD DUP2 MSTORE PUSH1 0x20 ADD PUSH1 0x1 DUP3 ADD SLOAD DUP2 MSTORE PUSH1 0x20 ADD PUSH1 0x2 DUP3 ADD PUSH0 SWAP1 SLOAD SWAP1 PUSH2 0x100 EXP SWAP1 DIV PUSH20 0xFFFFFFFFFFFFFFFFFFFFFFFFFFFFFFFFFFFFFFFF AND PUSH20 0xFFFFFFFFFFFFFFFFFFFFFFFFFFFFFFFFFFFFFFFF AND PUSH20 0xFFFFFFFFFFFFFFFFFFFFFFFFFFFFFFFFFFFFFFFF AND DUP2 MSTORE PUSH1 0x20 ADD PUSH1 0x3 DUP3 ADD SLOAD DUP2 MSTORE PUSH1 0x20 ADD PUSH1 0x4 DUP3 ADD SLOAD DUP2 MSTORE PUSH1 0x20 ADD PUSH1 0x5 DUP3 ADD SLOAD DUP2 MSTORE PUSH1 0x20 ADD PUSH1 0x6 DUP3 ADD PUSH0 SWAP1 SLOAD SWAP1 PUSH2 0x100 EXP SWAP1 DIV PUSH20 0xFFFFFFFFFFFFFFFFFFFFFFFFFFFFFFFFFFFFFFFF AND PUSH20 0xFFFFFFFFFFFFFFFFFFFFFFFFFFFFFFFFFFFFFFFF AND PUSH20 0xFFFFFFFFFFFFFFFFFFFFFFFFFFFFFFFFFFFFFFFF AND DUP2 MSTORE PUSH1 0x20 ADD PUSH1 0x7 DUP3 ADD SLOAD DUP2 MSTORE POP POP SWAP1 POP SWAP2 SWAP1 POP JUMP JUMPDEST PUSH0 PUSH0 SWAP1 SLOAD SWAP1 PUSH2 0x100 EXP SWAP1 DIV PUSH20 0xFFFFFFFFFFFFFFFFFFFFFFFFFFFFFFFFFFFFFFFF AND DUP2 JUMP JUMPDEST PUSH1 0xE PUSH0 SWAP1 SLOAD SWAP1 PUSH2 0x100 EXP SWAP1 DIV PUSH1 0xFF AND PUSH2 0x1BD3 JUMPI PUSH1 0x40 MLOAD PUSH32 0x8C379A000000000000000000000000000000000000000000000000000000000 DUP2 MSTORE PUSH1 0x4 ADD PUSH2 0x1BCA SWAP1 PUSH2 0x32E8 JUMP JUMPDEST PUSH1 0x40 MLOAD DUP1 SWAP2 SUB SWAP1 REVERT JUMPDEST PUSH0 DUP2 GT PUSH2 0x1C15 JUMPI PUSH1 0x40 MLOAD PUSH32 0x8C379A000000000000000000000000000000000000000000000000000000000 DUP2 MSTORE PUSH1 0x4 ADD PUSH2 0x1C0C SWAP1 PUSH2 0x384A JUMP JUMPDEST PUSH1 0x40 MLOAD DUP1 SWAP2 SUB SWAP1 REVERT JUMPDEST PUSH0 PUSH0 SWAP1 POP JUMPDEST PUSH1 0x8 DUP1 SLOAD SWAP1 POP PUSH1 0xF SLOAD LT DUP1 ISZERO PUSH2 0x1C2F JUMPI POP DUP2 DUP2 LT JUMPDEST ISZERO PUSH2 0x1E83 JUMPI PUSH0 PUSH1 0x8 PUSH1 0xF SLOAD DUP2 SLOAD DUP2 LT PUSH2 0x1C4B JUMPI PUSH2 0x1C4A PUSH2 0x35AC JUMP JUMPDEST JUMPDEST SWAP1 PUSH0 MSTORE PUSH1 0x20 PUSH0 KECCAK256 ADD PUSH0 SWAP1 SLOAD SWAP1 PUSH2 0x100 EXP SWAP1 DIV PUSH20 0xFFFFFFFFFFFFFFFFFFFFFFFFFFFFFFFFFFFFFFFF AND SWAP1 POP PUSH1 0xF PUSH0 DUP2 SLOAD DUP1 SWAP3 SWAP2 SWAP1 PUSH2 0x1C87 SWAP1 PUSH2 0x3895 JUMP JUMPDEST SWAP2 SWAP1 POP SSTORE POP PUSH1 0xB PUSH0 SWAP1 SLOAD SWAP1 PUSH2 0x100 EXP SWAP1 DIV PUSH20 0xFFFFFFFFFFFFFFFFFFFFFFFFFFFFFFFFFFFFFFFF AND PUSH20 0xFFFFFFFFFFFFFFFFFFFFFFFFFFFFFFFFFFFFFFFF AND DUP2 PUSH20 0xFFFFFFFFFFFFFFFFFFFFFFFFFFFFFFFFFFFFFFFF AND SUB PUSH2 0x1CE6 JUMPI POP PUSH2 0x1C1A JUMP JUMPDEST PUSH0 PUSH1 0x6 PUSH0 DUP4 PUSH20 0xFFFFFFFFFFFFFFFFFFFFFFFFFFFFFFFFFFFFFFFF AND PUSH20 0xFFFFFFFFFFFFFFFFFFFFFFFFFFFFFFFFFFFFFFFF AND DUP2 MSTORE PUSH1 0x20 ADD SWAP1 DUP2 MSTORE PUSH1 0x20 ADD PUSH0 KECCAK256 SLOAD SWAP1 POP PUSH0 DUP2 SUB PUSH2 0x1D35 JUMPI POP POP PUSH2 0x1C1A JUMP JUMPDEST PUSH0 PUSH1 0x6 PUSH0 DUP5 PUSH20 0xFFFFFFFFFFFFFFFFFFFFFFFFFFFFFFFFFFFFFFFF AND PUSH20 0xFFFFFFFFFFFFFFFFFFFFFFFFFFFFFFFFFFFFFFFF AND DUP2 MSTORE PUSH1 0x20 ADD SWAP1 DUP2 MSTORE PUSH1 0x20 ADD PUSH0 KECCAK256 DUP2 SWAP1 SSTORE POP PUSH0 DUP3 PUSH20 0xFFFFFFFFFFFFFFFFFFFFFFFFFFFFFFFFFFFFFFFF AND DUP3 PUSH1 0x40 MLOAD PUSH2 0x1D9C SWAP1 PUSH2 0x3403 JUMP JUMPDEST PUSH0 PUSH1 0x40 MLOAD DUP1 DUP4 SUB DUP2 DUP6 DUP8 GAS CALL SWAP3 POP POP POP RETURNDATASIZE DUP1 PUSH0 DUP2 EQ PUSH2 0x1DD6 JUMPI PUSH1 0x40 MLOAD SWAP2 POP PUSH1 0x1F NOT PUSH1 0x3F RETURNDATASIZE ADD AND DUP3 ADD PUSH1 0x40 MSTORE RETURNDATASIZE DUP3 MSTORE RETURNDATASIZE PUSH0 PUSH1 0x20 DUP5 ADD RETURNDATACOPY PUSH2 0x1DDB JUMP JUMPDEST PUSH1 0x60 SWAP2 POP JUMPDEST POP POP SWAP1 POP DUP1 PUSH2 0x1E1F JUMPI PUSH1 0x40 MLOAD PUSH32 0x8C379A000000000000000000000000000000000000000000000000000000000 DUP2 MSTORE PUSH1 0x4 ADD PUSH2 0x1E16 SWAP1 PUSH2 0x3461 JUMP JUMPDEST PUSH1 0x40 MLOAD DUP1 SWAP2 SUB SWAP1 REVERT JUMPDEST DUP3 PUSH20 0xFFFFFFFFFFFFFFFFFFFFFFFFFFFFFFFFFFFFFFFF AND PUSH32 0x3367BEFD2B2F39615CD79917C2153263C4AF1D3945EC003E5D5BFC13A8D85833 DUP4 PUSH1 0x40 MLOAD PUSH2 0x1E65 SWAP2 SWAP1 PUSH2 0x2A8F JUMP JUMPDEST PUSH1 0x40 MLOAD DUP1 SWAP2 SUB SWAP1 LOG2 DUP4 DUP1 PUSH2 0x1E78 SWAP1 PUSH2 0x3895 JUMP JUMPDEST SWAP5 POP POP POP POP POP PUSH2 0x1C1A JUMP JUMPDEST POP POP JUMP JUMPDEST PUSH0 PUSH1 0x6 PUSH0 DUP4 PUSH20 0xFFFFFFFFFFFFFFFFFFFFFFFFFFFFFFFFFFFFFFFF AND PUSH20 0xFFFFFFFFFFFFFFFFFFFFFFFFFFFFFFFFFFFFFFFF AND DUP2 MSTORE PUSH1 0x20 ADD SWAP1 DUP2 MSTORE PUSH1 0x20 ADD PUSH0 KECCAK256 SLOAD SWAP1 POP SWAP2 SWAP1 POP JUMP JUMPDEST PUSH1 0xC SLOAD DUP2 JUMP JUMPDEST PUSH1 0xD SLOAD TIMESTAMP LT PUSH2 0x1F17 JUMPI PUSH1 0x40 MLOAD PUSH32 0x8C379A000000000000000000000000000000000000000000000000000000000 DUP2 MSTORE PUSH1 0x4 ADD PUSH2 0x1F0E SWAP1 PUSH2 0x3926 JUMP JUMPDEST PUSH1 0x40 MLOAD DUP1 SWAP2 SUB SWAP1 REVERT JUMPDEST PUSH1 0x1 PUSH0 SWAP1 SLOAD SWAP1 PUSH2 0x100 EXP SWAP1 DIV PUSH20 0xFFFFFFFFFFFFFFFFFFFFFFFFFFFFFFFFFFFFFFFF AND PUSH20 0xFFFFFFFFFFFFFFFFFFFFFFFFFFFFFFFFFFFFFFFF AND CALLER PUSH20 0xFFFFFFFFFFFFFFFFFFFFFFFFFFFFFFFFFFFFFFFF AND SUB PUSH2 0x1FA6 JUMPI PUSH1 0x40 MLOAD PUSH32 0x8C379A000000000000000000000000000000000000000000000000000000000 DUP2 MSTORE PUSH1 0x4 ADD PUSH2 0x1F9D SWAP1 PUSH2 0x39B4 JUMP JUMPDEST PUSH1 0x40 MLOAD DUP1 SWAP2 SUB SWAP1 REVERT JUMPDEST PUSH0 CALLVALUE GT PUSH2 0x1FE8 JUMPI PUSH1 0x40 MLOAD PUSH32 0x8C379A000000000000000000000000000000000000000000000000000000000 DUP2 MSTORE PUSH1 0x4 ADD PUSH2 0x1FDF SWAP1 PUSH2 0x3A1C JUMP JUMPDEST PUSH1 0x40 MLOAD DUP1 SWAP2 SUB SWAP1 REVERT JUMPDEST PUSH0 PUSH1 0x6 PUSH0 CALLER PUSH20 0xFFFFFFFFFFFFFFFFFFFFFFFFFFFFFFFFFFFFFFFF AND PUSH20 0xFFFFFFFFFFFFFFFFFFFFFFFFFFFFFFFFFFFFFFFF AND DUP2 MSTORE PUSH1 0x20 ADD SWAP1 DUP2 MSTORE PUSH1 0x20 ADD PUSH0 KECCAK256 SLOAD SWAP1 POP PUSH0 CALLVALUE DUP3 PUSH2 0x2036 SWAP2 SWAP1 PUSH2 0x3A3A JUMP JUMPDEST SWAP1 POP PUSH0 PUSH1 0xC SLOAD SWAP1 POP PUSH0 PUSH1 0xB PUSH0 SWAP1 SLOAD SWAP1 PUSH2 0x100 EXP SWAP1 DIV PUSH20 0xFFFFFFFFFFFFFFFFFFFFFFFFFFFFFFFFFFFFFFFF AND SWAP1 POP PUSH0 PUSH0 PUSH0 PUSH20 0xFFFFFFFFFFFFFFFFFFFFFFFFFFFFFFFFFFFFFFFF AND PUSH1 0xB PUSH0 SWAP1 SLOAD SWAP1 PUSH2 0x100 EXP SWAP1 DIV PUSH20 0xFFFFFFFFFFFFFFFFFFFFFFFFFFFFFFFFFFFFFFFF AND PUSH20 0xFFFFFFFFFFFFFFFFFFFFFFFFFFFFFFFFFFFFFFFF AND SUB PUSH2 0x21A7 JUMPI PUSH1 0x2 SLOAD DUP6 LT ISZERO PUSH2 0x20FE JUMPI PUSH1 0x40 MLOAD PUSH32 0x8C379A000000000000000000000000000000000000000000000000000000000 DUP2 MSTORE PUSH1 0x4 ADD PUSH2 0x20F5 SWAP1 PUSH2 0x3AB7 JUMP JUMPDEST PUSH1 0x40 MLOAD DUP1 SWAP2 SUB SWAP1 REVERT JUMPDEST PUSH0 PUSH0 SWAP1 SLOAD SWAP1 PUSH2 0x100 EXP SWAP1 DIV PUSH20 0xFFFFFFFFFFFFFFFFFFFFFFFFFFFFFFFFFFFFFFFF AND PUSH20 0xFFFFFFFFFFFFFFFFFFFFFFFFFFFFFFFFFFFFFFFF AND PUSH4 0x8DFAC90C CALLER CALLVALUE PUSH0 PUSH1 0x40 MLOAD DUP5 PUSH4 0xFFFFFFFF AND PUSH1 0xE0 SHL DUP2 MSTORE PUSH1 0x4 ADD PUSH2 0x215B SWAP4 SWAP3 SWAP2 SWAP1 PUSH2 0x3779 JUMP JUMPDEST PUSH1 0x40 DUP1 MLOAD DUP1 DUP4 SUB DUP2 PUSH0 DUP8 GAS CALL ISZERO DUP1 ISZERO PUSH2 0x2176 JUMPI RETURNDATASIZE PUSH0 PUSH0 RETURNDATACOPY RETURNDATASIZE PUSH0 REVERT JUMPDEST POP POP POP POP PUSH1 0x40 MLOAD RETURNDATASIZE PUSH1 0x1F NOT PUSH1 0x1F DUP3 ADD AND DUP3 ADD DUP1 PUSH1 0x40 MSTORE POP DUP2 ADD SWAP1 PUSH2 0x219A SWAP2 SWAP1 PUSH2 0x37C2 JUMP JUMPDEST DUP1 SWAP3 POP DUP2 SWAP4 POP POP POP PUSH2 0x2450 JUMP JUMPDEST PUSH1 0xC SLOAD DUP6 GT PUSH2 0x21EB JUMPI PUSH1 0x40 MLOAD PUSH32 0x8C379A000000000000000000000000000000000000000000000000000000000 DUP2 MSTORE PUSH1 0x4 ADD PUSH2 0x21E2 SWAP1 PUSH2 0x3B1F JUMP JUMPDEST PUSH1 0x40 MLOAD DUP1 SWAP2 SUB SWAP1 REVERT JUMPDEST PUSH1 0xB PUSH0 SWAP1 SLOAD SWAP1 PUSH2 0x100 EXP SWAP1 DIV PUSH20 0xFFFFFFFFFFFFFFFFFFFFFFFFFFFFFFFFFFFFFFFF AND PUSH20 0xFFFFFFFFFFFFFFFFFFFFFFFFFFFFFFFFFFFFFFFF AND CALLER PUSH20 0xFFFFFFFFFFFFFFFFFFFFFFFFFFFFFFFFFFFFFFFF AND EQ PUSH2 0x23AA JUMPI PUSH0 PUSH0 SWAP1 SLOAD SWAP1 PUSH2 0x100 EXP SWAP1 DIV PUSH20 0xFFFFFFFFFFFFFFFFFFFFFFFFFFFFFFFFFFFFFFFF AND PUSH20 0xFFFFFFFFFFFFFFFFFFFFFFFFFFFFFFFFFFFFFFFF AND PUSH4 0x8DFAC90C PUSH1 0xB PUSH0 SWAP1 SLOAD SWAP1 PUSH2 0x100 EXP SWAP1 DIV PUSH20 0xFFFFFFFFFFFFFFFFFFFFFFFFFFFFFFFFFFFFFFFF AND PUSH1 0xC SLOAD PUSH1 0x1 PUSH1 0x40 MLOAD DUP5 PUSH4 0xFFFFFFFF AND PUSH1 0xE0 SHL DUP2 MSTORE PUSH1 0x4 ADD PUSH2 0x22C0 SWAP4 SWAP3 SWAP2 SWAP1 PUSH2 0x3779 JUMP JUMPDEST PUSH1 0x40 DUP1 MLOAD DUP1 DUP4 SUB DUP2 PUSH0 DUP8 GAS CALL ISZERO DUP1 ISZERO PUSH2 0x22DB JUMPI RETURNDATASIZE PUSH0 PUSH0 RETURNDATACOPY RETURNDATASIZE PUSH0 REVERT JUMPDEST POP POP POP POP PUSH1 0x40 MLOAD RETURNDATASIZE PUSH1 0x1F NOT PUSH1 0x1F DUP3 ADD AND DUP3 ADD DUP1 PUSH1 0x40 MSTORE POP DUP2 ADD SWAP1 PUSH2 0x22FF SWAP2 SWAP1 PUSH2 0x37C2 JUMP JUMPDEST POP POP PUSH0 PUSH0 SWAP1 SLOAD SWAP1 PUSH2 0x100 EXP SWAP1 DIV PUSH20 0xFFFFFFFFFFFFFFFFFFFFFFFFFFFFFFFFFFFFFFFF AND PUSH20 0xFFFFFFFFFFFFFFFFFFFFFFFFFFFFFFFFFFFFFFFF AND PUSH4 0x8DFAC90C CALLER DUP8 PUSH0 PUSH1 0x40 MLOAD DUP5 PUSH4 0xFFFFFFFF AND PUSH1 0xE0 SHL DUP2 MSTORE PUSH1 0x4 ADD PUSH2 0x235E SWAP4 SWAP3 SWAP2 SWAP1 PUSH2 0x3779 JUMP JUMPDEST PUSH1 0x40 DUP1 MLOAD DUP1 DUP4 SUB DUP2 PUSH0 DUP8 GAS CALL ISZERO DUP1 ISZERO PUSH2 0x2379 JUMPI RETURNDATASIZE PUSH0 PUSH0 RETURNDATACOPY RETURNDATASIZE PUSH0 REVERT JUMPDEST POP POP POP POP PUSH1 0x40 MLOAD RETURNDATASIZE PUSH1 0x1F NOT PUSH1 0x1F DUP3 ADD AND DUP3 ADD DUP1 PUSH1 0x40 MSTORE POP DUP2 ADD SWAP1 PUSH2 0x239D SWAP2 SWAP1 PUSH2 0x37C2 JUMP JUMPDEST DUP1 SWAP3 POP DUP2 SWAP4 POP POP POP PUSH2 0x244F JUMP JUMPDEST PUSH0 PUSH0 SWAP1 SLOAD SWAP1 PUSH2 0x100 EXP SWAP1 DIV PUSH20 0xFFFFFFFFFFFFFFFFFFFFFFFFFFFFFFFFFFFFFFFF AND PUSH20 0xFFFFFFFFFFFFFFFFFFFFFFFFFFFFFFFFFFFFFFFF AND PUSH4 0x8DFAC90C CALLER CALLVALUE PUSH0 PUSH1 0x40 MLOAD DUP5 PUSH4 0xFFFFFFFF AND PUSH1 0xE0 SHL DUP2 MSTORE PUSH1 0x4 ADD PUSH2 0x2407 SWAP4 SWAP3 SWAP2 SWAP1 PUSH2 0x3779 JUMP JUMPDEST PUSH1 0x40 DUP1 MLOAD DUP1 DUP4 SUB DUP2 PUSH0 DUP8 GAS CALL ISZERO DUP1 ISZERO PUSH2 0x2422 JUMPI RETURNDATASIZE PUSH0 PUSH0 RETURNDATACOPY RETURNDATASIZE PUSH0 REVERT JUMPDEST POP POP POP POP PUSH1 0x40 MLOAD RETURNDATASIZE PUSH1 0x1F NOT PUSH1 0x1F DUP3 ADD AND DUP3 ADD DUP1 PUSH1 0x40 MSTORE POP DUP2 ADD SWAP1 PUSH2 0x2446 SWAP2 SWAP1 PUSH2 0x37C2 JUMP JUMPDEST DUP1 SWAP3 POP DUP2 SWAP4 POP POP POP JUMPDEST JUMPDEST DUP5 PUSH1 0x6 PUSH0 CALLER PUSH20 0xFFFFFFFFFFFFFFFFFFFFFFFFFFFFFFFFFFFFFFFF AND PUSH20 0xFFFFFFFFFFFFFFFFFFFFFFFFFFFFFFFFFFFFFFFF AND DUP2 MSTORE PUSH1 0x20 ADD SWAP1 DUP2 MSTORE PUSH1 0x20 ADD PUSH0 KECCAK256 DUP2 SWAP1 SSTORE POP DUP5 PUSH1 0xC DUP2 SWAP1 SSTORE POP CALLER PUSH1 0xB PUSH0 PUSH2 0x100 EXP DUP2 SLOAD DUP2 PUSH20 0xFFFFFFFFFFFFFFFFFFFFFFFFFFFFFFFFFFFFFFFF MUL NOT AND SWAP1 DUP4 PUSH20 0xFFFFFFFFFFFFFFFFFFFFFFFFFFFFFFFFFFFFFFFF AND MUL OR SWAP1 SSTORE POP PUSH1 0x9 PUSH1 0x40 MLOAD DUP1 PUSH1 0x60 ADD PUSH1 0x40 MSTORE DUP1 CALLVALUE DUP2 MSTORE PUSH1 0x20 ADD TIMESTAMP DUP2 MSTORE PUSH1 0x20 ADD CALLER PUSH20 0xFFFFFFFFFFFFFFFFFFFFFFFFFFFFFFFFFFFFFFFF AND DUP2 MSTORE POP SWAP1 DUP1 PUSH1 0x1 DUP2 SLOAD ADD DUP1 DUP3 SSTORE DUP1 SWAP2 POP POP PUSH1 0x1 SWAP1 SUB SWAP1 PUSH0 MSTORE PUSH1 0x20 PUSH0 KECCAK256 SWAP1 PUSH1 0x3 MUL ADD PUSH0 SWAP1 SWAP2 SWAP1 SWAP2 SWAP1 SWAP2 POP PUSH0 DUP3 ADD MLOAD DUP2 PUSH0 ADD SSTORE PUSH1 0x20 DUP3 ADD MLOAD DUP2 PUSH1 0x1 ADD SSTORE PUSH1 0x40 DUP3 ADD MLOAD DUP2 PUSH1 0x2 ADD PUSH0 PUSH2 0x100 EXP DUP2 SLOAD DUP2 PUSH20 0xFFFFFFFFFFFFFFFFFFFFFFFFFFFFFFFFFFFFFFFF MUL NOT AND SWAP1 DUP4 PUSH20 0xFFFFFFFFFFFFFFFFFFFFFFFFFFFFFFFFFFFFFFFF AND MUL OR SWAP1 SSTORE POP POP POP PUSH1 0xA PUSH1 0x40 MLOAD DUP1 PUSH2 0x100 ADD PUSH1 0x40 MSTORE DUP1 CALLVALUE DUP2 MSTORE PUSH1 0x20 ADD TIMESTAMP DUP2 MSTORE PUSH1 0x20 ADD CALLER PUSH20 0xFFFFFFFFFFFFFFFFFFFFFFFFFFFFFFFFFFFFFFFF AND DUP2 MSTORE PUSH1 0x20 ADD DUP8 DUP2 MSTORE PUSH1 0x20 ADD DUP5 DUP2 MSTORE PUSH1 0x20 ADD DUP4 DUP2 MSTORE PUSH1 0x20 ADD DUP6 PUSH20 0xFFFFFFFFFFFFFFFFFFFFFFFFFFFFFFFFFFFFFFFF AND DUP2 MSTORE PUSH1 0x20 ADD DUP7 DUP2 MSTORE POP SWAP1 DUP1 PUSH1 0x1 DUP2 SLOAD ADD DUP1 DUP3 SSTORE DUP1 SWAP2 POP POP PUSH1 0x1 SWAP1 SUB SWAP1 PUSH0 MSTORE PUSH1 0x20 PUSH0 KECCAK256 SWAP1 PUSH1 0x8 MUL ADD PUSH0 SWAP1 SWAP2 SWAP1 SWAP2 SWAP1 SWAP2 POP PUSH0 DUP3 ADD MLOAD DUP2 PUSH0 ADD SSTORE PUSH1 0x20 DUP3 ADD MLOAD DUP2 PUSH1 0x1 ADD SSTORE PUSH1 0x40 DUP3 ADD MLOAD DUP2 PUSH1 0x2 ADD PUSH0 PUSH2 0x100 EXP DUP2 SLOAD DUP2 PUSH20 0xFFFFFFFFFFFFFFFFFFFFFFFFFFFFFFFFFFFFFFFF MUL NOT AND SWAP1 DUP4 PUSH20 0xFFFFFFFFFFFFFFFFFFFFFFFFFFFFFFFFFFFFFFFF AND MUL OR SWAP1 SSTORE POP PUSH1 0x60 DUP3 ADD MLOAD DUP2 PUSH1 0x3 ADD SSTORE PUSH1 0x80 DUP3 ADD MLOAD DUP2 PUSH1 0x4 ADD SSTORE PUSH1 0xA0 DUP3 ADD MLOAD DUP2 PUSH1 0x5 ADD SSTORE PUSH1 0xC0 DUP3 ADD MLOAD DUP2 PUSH1 0x6 ADD PUSH0 PUSH2 0x100 EXP DUP2 SLOAD DUP2 PUSH20 0xFFFFFFFFFFFFFFFFFFFFFFFFFFFFFFFFFFFFFFFF MUL NOT AND SWAP1 DUP4 PUSH20 0xFFFFFFFFFFFFFFFFFFFFFFFFFFFFFFFFFFFFFFFF AND MUL OR SWAP1 SSTORE POP PUSH1 0xE0 DUP3 ADD MLOAD DUP2 PUSH1 0x7 ADD SSTORE POP POP PUSH1 0x5 PUSH0 CALLER PUSH20 0xFFFFFFFFFFFFFFFFFFFFFFFFFFFFFFFFFFFFFFFF AND PUSH20 0xFFFFFFFFFFFFFFFFFFFFFFFFFFFFFFFFFFFFFFFF AND DUP2 MSTORE PUSH1 0x20 ADD SWAP1 DUP2 MSTORE PUSH1 0x20 ADD PUSH0 KECCAK256 PUSH0 SWAP1 SLOAD SWAP1 PUSH2 0x100 EXP SWAP1 DIV PUSH1 0xFF AND PUSH2 0x27FD JUMPI PUSH1 0x1 PUSH1 0x5 PUSH0 CALLER PUSH20 0xFFFFFFFFFFFFFFFFFFFFFFFFFFFFFFFFFFFFFFFF AND PUSH20 0xFFFFFFFFFFFFFFFFFFFFFFFFFFFFFFFFFFFFFFFF AND DUP2 MSTORE PUSH1 0x20 ADD SWAP1 DUP2 MSTORE PUSH1 0x20 ADD PUSH0 KECCAK256 PUSH0 PUSH2 0x100 EXP DUP2 SLOAD DUP2 PUSH1 0xFF MUL NOT AND SWAP1 DUP4 ISZERO ISZERO MUL OR SWAP1 SSTORE POP PUSH1 0x7 PUSH0 DUP2 SLOAD DUP1 SWAP3 SWAP2 SWAP1 PUSH2 0x2797 SWAP1 PUSH2 0x3895 JUMP JUMPDEST SWAP2 SWAP1 POP SSTORE POP PUSH1 0x8 CALLER SWAP1 DUP1 PUSH1 0x1 DUP2 SLOAD ADD DUP1 DUP3 SSTORE DUP1 SWAP2 POP POP PUSH1 0x1 SWAP1 SUB SWAP1 PUSH0 MSTORE PUSH1 0x20 PUSH0 KECCAK256 ADD PUSH0 SWAP1 SWAP2 SWAP1 SWAP2 SWAP1 SWAP2 PUSH2 0x100 EXP DUP2 SLOAD DUP2 PUSH20 0xFFFFFFFFFFFFFFFFFFFFFFFFFFFFFFFFFFFFFFFF MUL NOT AND SWAP1 DUP4 PUSH20 0xFFFFFFFFFFFFFFFFFFFFFFFFFFFFFFFFFFFFFFFF AND MUL OR SWAP1 SSTORE POP JUMPDEST PUSH32 0x6CD3B8608D4368D7A92CFDA5A745DFB2993256DA9506CD888F31FF9AA48E2BD9 CALLER PUSH1 0x40 MLOAD PUSH2 0x282C SWAP2 SWAP1 PUSH2 0x2E3E JUMP JUMPDEST PUSH1 0x40 MLOAD DUP1 SWAP2 SUB SWAP1 LOG1 DUP3 PUSH20 0xFFFFFFFFFFFFFFFFFFFFFFFFFFFFFFFFFFFFFFFF AND CALLER PUSH20 0xFFFFFFFFFFFFFFFFFFFFFFFFFFFFFFFFFFFFFFFF AND PUSH32 0x3D264E392F908228778E879AFE1033C40768D112E54EB947FD76595AA5A2B4E8 CALLVALUE DUP9 DUP7 DUP7 TIMESTAMP DUP12 PUSH1 0x40 MLOAD PUSH2 0x289B SWAP7 SWAP6 SWAP5 SWAP4 SWAP3 SWAP2 SWAP1 PUSH2 0x3B3D JUMP JUMPDEST PUSH1 0x40 MLOAD DUP1 SWAP2 SUB SWAP1 LOG3 POP POP POP POP POP POP JUMP JUMPDEST PUSH1 0x8 DUP2 DUP2 SLOAD DUP2 LT PUSH2 0x28BA JUMPI PUSH0 DUP1 REVERT JUMPDEST SWAP1 PUSH0 MSTORE PUSH1 0x20 PUSH0 KECCAK256 ADD PUSH0 SWAP2 POP SLOAD SWAP1 PUSH2 0x100 EXP SWAP1 DIV PUSH20 0xFFFFFFFFFFFFFFFFFFFFFFFFFFFFFFFFFFFFFFFF AND DUP2 JUMP JUMPDEST PUSH1 0x40 MLOAD DUP1 PUSH1 0x60 ADD PUSH1 0x40 MSTORE DUP1 PUSH0 DUP2 MSTORE PUSH1 0x20 ADD PUSH0 DUP2 MSTORE PUSH1 0x20 ADD PUSH0 PUSH20 0xFFFFFFFFFFFFFFFFFFFFFFFFFFFFFFFFFFFFFFFF AND DUP2 MSTORE POP SWAP1 JUMP JUMPDEST PUSH1 0x40 MLOAD DUP1 PUSH2 0x100 ADD PUSH1 0x40 MSTORE DUP1 PUSH0 DUP2 MSTORE PUSH1 0x20 ADD PUSH0 DUP2 MSTORE PUSH1 0x20 ADD PUSH0 PUSH20 0xFFFFFFFFFFFFFFFFFFFFFFFFFFFFFFFFFFFFFFFF AND DUP2 MSTORE PUSH1 0x20 ADD PUSH0 DUP2 MSTORE PUSH1 0x20 ADD PUSH0 DUP2 MSTORE PUSH1 0x20 ADD PUSH0 DUP2 MSTORE PUSH1 0x20 ADD PUSH0 PUSH20 0xFFFFFFFFFFFFFFFFFFFFFFFFFFFFFFFFFFFFFFFF AND DUP2 MSTORE PUSH1 0x20 ADD PUSH0 DUP2 MSTORE POP SWAP1 JUMP JUMPDEST PUSH0 PUSH0 REVERT JUMPDEST PUSH0 PUSH20 0xFFFFFFFFFFFFFFFFFFFFFFFFFFFFFFFFFFFFFFFF DUP3 AND SWAP1 POP SWAP2 SWAP1 POP JUMP JUMPDEST PUSH0 PUSH2 0x29B0 DUP3 PUSH2 0x2987 JUMP JUMPDEST SWAP1 POP SWAP2 SWAP1 POP JUMP JUMPDEST PUSH2 0x29C0 DUP2 PUSH2 0x29A6 JUMP JUMPDEST DUP2 EQ PUSH2 0x29CA JUMPI PUSH0 PUSH0 REVERT JUMPDEST POP JUMP JUMPDEST PUSH0 DUP2 CALLDATALOAD SWAP1 POP PUSH2 0x29DB DUP2 PUSH2 0x29B7 JUMP JUMPDEST SWAP3 SWAP2 POP POP JUMP JUMPDEST PUSH0 PUSH1 0x20 DUP3 DUP5 SUB SLT ISZERO PUSH2 0x29F6 JUMPI PUSH2 0x29F5 PUSH2 0x2983 JUMP JUMPDEST JUMPDEST PUSH0 PUSH2 0x2A03 DUP5 DUP3 DUP6 ADD PUSH2 0x29CD JUMP JUMPDEST SWAP2 POP POP SWAP3 SWAP2 POP POP JUMP JUMPDEST PUSH0 DUP2 ISZERO ISZERO SWAP1 POP SWAP2 SWAP1 POP JUMP JUMPDEST PUSH2 0x2A20 DUP2 PUSH2 0x2A0C JUMP JUMPDEST DUP3 MSTORE POP POP JUMP JUMPDEST PUSH0 DUP2 SWAP1 POP SWAP2 SWAP1 POP JUMP JUMPDEST PUSH2 0x2A38 DUP2 PUSH2 0x2A26 JUMP JUMPDEST DUP3 MSTORE POP POP JUMP JUMPDEST PUSH0 PUSH1 0xA0 DUP3 ADD SWAP1 POP PUSH2 0x2A51 PUSH0 DUP4 ADD DUP9 PUSH2 0x2A17 JUMP JUMPDEST PUSH2 0x2A5E PUSH1 0x20 DUP4 ADD DUP8 PUSH2 0x2A2F JUMP JUMPDEST PUSH2 0x2A6B PUSH1 0x40 DUP4 ADD DUP7 PUSH2 0x2A17 JUMP JUMPDEST PUSH2 0x2A78 PUSH1 0x60 DUP4 ADD DUP6 PUSH2 0x2A17 JUMP JUMPDEST PUSH2 0x2A85 PUSH1 0x80 DUP4 ADD DUP5 PUSH2 0x2A17 JUMP JUMPDEST SWAP7 SWAP6 POP POP POP POP POP POP JUMP JUMPDEST PUSH0 PUSH1 0x20 DUP3 ADD SWAP1 POP PUSH2 0x2AA2 PUSH0 DUP4 ADD DUP5 PUSH2 0x2A2F JUMP JUMPDEST SWAP3 SWAP2 POP POP JUMP JUMPDEST PUSH0 PUSH1 0x20 DUP3 ADD SWAP1 POP PUSH2 0x2ABB PUSH0 DUP4 ADD DUP5 PUSH2 0x2A17 JUMP JUMPDEST SWAP3 SWAP2 POP POP JUMP JUMPDEST PUSH0 DUP2 MLOAD SWAP1 POP SWAP2 SWAP1 POP JUMP JUMPDEST PUSH0 DUP3 DUP3 MSTORE PUSH1 0x20 DUP3 ADD SWAP1 POP SWAP3 SWAP2 POP POP JUMP JUMPDEST PUSH0 DUP2 SWAP1 POP PUSH1 0x20 DUP3 ADD SWAP1 POP SWAP2 SWAP1 POP JUMP JUMPDEST PUSH2 0x2AF3 DUP2 PUSH2 0x2A26 JUMP JUMPDEST DUP3 MSTORE POP POP JUMP JUMPDEST PUSH2 0x2B02 DUP2 PUSH2 0x29A6 JUMP JUMPDEST DUP3 MSTORE POP POP JUMP JUMPDEST PUSH2 0x100 DUP3 ADD PUSH0 DUP3 ADD MLOAD PUSH2 0x2B1D PUSH0 DUP6 ADD DUP3 PUSH2 0x2AEA JUMP JUMPDEST POP PUSH1 0x20 DUP3 ADD MLOAD PUSH2 0x2B30 PUSH1 0x20 DUP6 ADD DUP3 PUSH2 0x2AEA JUMP JUMPDEST POP PUSH1 0x40 DUP3 ADD MLOAD PUSH2 0x2B43 PUSH1 0x40 DUP6 ADD DUP3 PUSH2 0x2AF9 JUMP JUMPDEST POP PUSH1 0x60 DUP3 ADD MLOAD PUSH2 0x2B56 PUSH1 0x60 DUP6 ADD DUP3 PUSH2 0x2AEA JUMP JUMPDEST POP PUSH1 0x80 DUP3 ADD MLOAD PUSH2 0x2B69 PUSH1 0x80 DUP6 ADD DUP3 PUSH2 0x2AEA JUMP JUMPDEST POP PUSH1 0xA0 DUP3 ADD MLOAD PUSH2 0x2B7C PUSH1 0xA0 DUP6 ADD DUP3 PUSH2 0x2AEA JUMP JUMPDEST POP PUSH1 0xC0 DUP3 ADD MLOAD PUSH2 0x2B8F PUSH1 0xC0 DUP6 ADD DUP3 PUSH2 0x2AF9 JUMP JUMPDEST POP PUSH1 0xE0 DUP3 ADD MLOAD PUSH2 0x2BA2 PUSH1 0xE0 DUP6 ADD DUP3 PUSH2 0x2AEA JUMP JUMPDEST POP POP POP POP JUMP JUMPDEST PUSH0 PUSH2 0x2BB3 DUP4 DUP4 PUSH2 0x2B08 JUMP JUMPDEST PUSH2 0x100 DUP4 ADD SWAP1 POP SWAP3 SWAP2 POP POP JUMP JUMPDEST PUSH0 PUSH1 0x20 DUP3 ADD SWAP1 POP SWAP2 SWAP1 POP JUMP JUMPDEST PUSH0 PUSH2 0x2BD6 DUP3 PUSH2 0x2AC1 JUMP JUMPDEST PUSH2 0x2BE0 DUP2 DUP6 PUSH2 0x2ACB JUMP JUMPDEST SWAP4 POP PUSH2 0x2BEB DUP4 PUSH2 0x2ADB JUMP JUMPDEST DUP1 PUSH0 JUMPDEST DUP4 DUP2 LT ISZERO PUSH2 0x2C1B JUMPI DUP2 MLOAD PUSH2 0x2C02 DUP9 DUP3 PUSH2 0x2BA8 JUMP JUMPDEST SWAP8 POP PUSH2 0x2C0D DUP4 PUSH2 0x2BC0 JUMP JUMPDEST SWAP3 POP POP PUSH1 0x1 DUP2 ADD SWAP1 POP PUSH2 0x2BEE JUMP JUMPDEST POP DUP6 SWAP4 POP POP POP POP SWAP3 SWAP2 POP POP JUMP JUMPDEST PUSH0 PUSH1 0x20 DUP3 ADD SWAP1 POP DUP2 DUP2 SUB PUSH0 DUP4 ADD MSTORE PUSH2 0x2C40 DUP2 DUP5 PUSH2 0x2BCC JUMP JUMPDEST SWAP1 POP SWAP3 SWAP2 POP POP JUMP JUMPDEST PUSH0 DUP2 MLOAD SWAP1 POP SWAP2 SWAP1 POP JUMP JUMPDEST PUSH0 DUP3 DUP3 MSTORE PUSH1 0x20 DUP3 ADD SWAP1 POP SWAP3 SWAP2 POP POP JUMP JUMPDEST DUP3 DUP2 DUP4 MCOPY PUSH0 DUP4 DUP4 ADD MSTORE POP POP POP JUMP JUMPDEST PUSH0 PUSH1 0x1F NOT PUSH1 0x1F DUP4 ADD AND SWAP1 POP SWAP2 SWAP1 POP JUMP JUMPDEST PUSH0 PUSH2 0x2C8A DUP3 PUSH2 0x2C48 JUMP JUMPDEST PUSH2 0x2C94 DUP2 DUP6 PUSH2 0x2C52 JUMP JUMPDEST SWAP4 POP PUSH2 0x2CA4 DUP2 DUP6 PUSH1 0x20 DUP7 ADD PUSH2 0x2C62 JUMP JUMPDEST PUSH2 0x2CAD DUP2 PUSH2 0x2C70 JUMP JUMPDEST DUP5 ADD SWAP2 POP POP SWAP3 SWAP2 POP POP JUMP JUMPDEST PUSH0 PUSH1 0x20 DUP3 ADD SWAP1 POP DUP2 DUP2 SUB PUSH0 DUP4 ADD MSTORE PUSH2 0x2CD0 DUP2 DUP5 PUSH2 0x2C80 JUMP JUMPDEST SWAP1 POP SWAP3 SWAP2 POP POP JUMP JUMPDEST PUSH2 0x2CE1 DUP2 PUSH2 0x29A6 JUMP JUMPDEST DUP3 MSTORE POP POP JUMP JUMPDEST PUSH0 DUP2 MLOAD SWAP1 POP SWAP2 SWAP1 POP JUMP JUMPDEST PUSH0 DUP3 DUP3 MSTORE PUSH1 0x20 DUP3 ADD SWAP1 POP SWAP3 SWAP2 POP POP JUMP JUMPDEST PUSH0 DUP2 SWAP1 POP PUSH1 0x20 DUP3 ADD SWAP1 POP SWAP2 SWAP1 POP JUMP JUMPDEST PUSH0 PUSH2 0x2D1B DUP4 DUP4 PUSH2 0x2AF9 JUMP JUMPDEST PUSH1 0x20 DUP4 ADD SWAP1 POP SWAP3 SWAP2 POP POP JUMP JUMPDEST PUSH0 PUSH1 0x20 DUP3 ADD SWAP1 POP SWAP2 SWAP1 POP JUMP JUMPDEST PUSH0 PUSH2 0x2D3D DUP3 PUSH2 0x2CE7 JUMP JUMPDEST PUSH2 0x2D47 DUP2 DUP6 PUSH2 0x2CF1 JUMP JUMPDEST SWAP4 POP PUSH2 0x2D52 DUP4 PUSH2 0x2D01 JUMP JUMPDEST DUP1 PUSH0 JUMPDEST DUP4 DUP2 LT ISZERO PUSH2 0x2D82 JUMPI DUP2 MLOAD PUSH2 0x2D69 DUP9 DUP3 PUSH2 0x2D10 JUMP JUMPDEST SWAP8 POP PUSH2 0x2D74 DUP4 PUSH2 0x2D27 JUMP JUMPDEST SWAP3 POP POP PUSH1 0x1 DUP2 ADD SWAP1 POP PUSH2 0x2D55 JUMP JUMPDEST POP DUP6 SWAP4 POP POP POP POP SWAP3 SWAP2 POP POP JUMP JUMPDEST PUSH0 PUSH2 0x140 DUP3 ADD SWAP1 POP PUSH2 0x2DA3 PUSH0 DUP4 ADD DUP14 PUSH2 0x2A2F JUMP JUMPDEST PUSH2 0x2DB0 PUSH1 0x20 DUP4 ADD DUP13 PUSH2 0x2A2F JUMP JUMPDEST PUSH2 0x2DBD PUSH1 0x40 DUP4 ADD DUP12 PUSH2 0x2A2F JUMP JUMPDEST PUSH2 0x2DCA PUSH1 0x60 DUP4 ADD DUP11 PUSH2 0x2CD8 JUMP JUMPDEST PUSH2 0x2DD7 PUSH1 0x80 DUP4 ADD DUP10 PUSH2 0x2A2F JUMP JUMPDEST DUP2 DUP2 SUB PUSH1 0xA0 DUP4 ADD MSTORE PUSH2 0x2DE9 DUP2 DUP9 PUSH2 0x2C80 JUMP JUMPDEST SWAP1 POP DUP2 DUP2 SUB PUSH1 0xC0 DUP4 ADD MSTORE PUSH2 0x2DFD DUP2 DUP8 PUSH2 0x2C80 JUMP JUMPDEST SWAP1 POP PUSH2 0x2E0C PUSH1 0xE0 DUP4 ADD DUP7 PUSH2 0x2CD8 JUMP JUMPDEST DUP2 DUP2 SUB PUSH2 0x100 DUP4 ADD MSTORE PUSH2 0x2E1F DUP2 DUP6 PUSH2 0x2D33 JUMP JUMPDEST SWAP1 POP PUSH2 0x2E2F PUSH2 0x120 DUP4 ADD DUP5 PUSH2 0x2A2F JUMP JUMPDEST SWAP12 SWAP11 POP POP POP POP POP POP POP POP POP POP POP JUMP JUMPDEST PUSH0 PUSH1 0x20 DUP3 ADD SWAP1 POP PUSH2 0x2E51 PUSH0 DUP4 ADD DUP5 PUSH2 0x2CD8 JUMP JUMPDEST SWAP3 SWAP2 POP POP JUMP JUMPDEST PUSH0 PUSH2 0x120 DUP3 ADD SWAP1 POP PUSH2 0x2E6B PUSH0 DUP4 ADD DUP13 PUSH2 0x2A2F JUMP JUMPDEST PUSH2 0x2E78 PUSH1 0x20 DUP4 ADD DUP12 PUSH2 0x2A2F JUMP JUMPDEST PUSH2 0x2E85 PUSH1 0x40 DUP4 ADD DUP11 PUSH2 0x2A2F JUMP JUMPDEST PUSH2 0x2E92 PUSH1 0x60 DUP4 ADD DUP10 PUSH2 0x2CD8 JUMP JUMPDEST PUSH2 0x2E9F PUSH1 0x80 DUP4 ADD DUP9 PUSH2 0x2A2F JUMP JUMPDEST DUP2 DUP2 SUB PUSH1 0xA0 DUP4 ADD MSTORE PUSH2 0x2EB1 DUP2 DUP8 PUSH2 0x2C80 JUMP JUMPDEST SWAP1 POP PUSH2 0x2EC0 PUSH1 0xC0 DUP4 ADD DUP7 PUSH2 0x2CD8 JUMP JUMPDEST PUSH2 0x2ECD PUSH1 0xE0 DUP4 ADD DUP6 PUSH2 0x2A2F JUMP JUMPDEST PUSH2 0x2EDB PUSH2 0x100 DUP4 ADD DUP5 PUSH2 0x2A17 JUMP JUMPDEST SWAP11 SWAP10 POP POP POP POP POP POP POP POP POP POP JUMP JUMPDEST PUSH0 DUP2 MLOAD SWAP1 POP SWAP2 SWAP1 POP JUMP JUMPDEST PUSH0 DUP3 DUP3 MSTORE PUSH1 0x20 DUP3 ADD SWAP1 POP SWAP3 SWAP2 POP POP JUMP JUMPDEST PUSH0 DUP2 SWAP1 POP PUSH1 0x20 DUP3 ADD SWAP1 POP SWAP2 SWAP1 POP JUMP JUMPDEST PUSH1 0x60 DUP3 ADD PUSH0 DUP3 ADD MLOAD PUSH2 0x2F26 PUSH0 DUP6 ADD DUP3 PUSH2 0x2AEA JUMP JUMPDEST POP PUSH1 0x20 DUP3 ADD MLOAD PUSH2 0x2F39 PUSH1 0x20 DUP6 ADD DUP3 PUSH2 0x2AEA JUMP JUMPDEST POP PUSH1 0x40 DUP3 ADD MLOAD PUSH2 0x2F4C PUSH1 0x40 DUP6 ADD DUP3 PUSH2 0x2AF9 JUMP JUMPDEST POP POP POP POP JUMP JUMPDEST PUSH0 PUSH2 0x2F5D DUP4 DUP4 PUSH2 0x2F12 JUMP JUMPDEST PUSH1 0x60 DUP4 ADD SWAP1 POP SWAP3 SWAP2 POP POP JUMP JUMPDEST PUSH0 PUSH1 0x20 DUP3 ADD SWAP1 POP SWAP2 SWAP1 POP JUMP JUMPDEST PUSH0 PUSH2 0x2F7F DUP3 PUSH2 0x2EE9 JUMP JUMPDEST PUSH2 0x2F89 DUP2 DUP6 PUSH2 0x2EF3 JUMP JUMPDEST SWAP4 POP PUSH2 0x2F94 DUP4 PUSH2 0x2F03 JUMP JUMPDEST DUP1 PUSH0 JUMPDEST DUP4 DUP2 LT ISZERO PUSH2 0x2FC4 JUMPI DUP2 MLOAD PUSH2 0x2FAB DUP9 DUP3 PUSH2 0x2F52 JUMP JUMPDEST SWAP8 POP PUSH2 0x2FB6 DUP4 PUSH2 0x2F69 JUMP JUMPDEST SWAP3 POP POP PUSH1 0x1 DUP2 ADD SWAP1 POP PUSH2 0x2F97 JUMP JUMPDEST POP DUP6 SWAP4 POP POP POP POP SWAP3 SWAP2 POP POP JUMP JUMPDEST PUSH0 PUSH1 0x20 DUP3 ADD SWAP1 POP DUP2 DUP2 SUB PUSH0 DUP4 ADD MSTORE PUSH2 0x2FE9 DUP2 DUP5 PUSH2 0x2F75 JUMP JUMPDEST SWAP1 POP SWAP3 SWAP2 POP POP JUMP JUMPDEST PUSH2 0x2FFA DUP2 PUSH2 0x2A26 JUMP JUMPDEST DUP2 EQ PUSH2 0x3004 JUMPI PUSH0 PUSH0 REVERT JUMPDEST POP JUMP JUMPDEST PUSH0 DUP2 CALLDATALOAD SWAP1 POP PUSH2 0x3015 DUP2 PUSH2 0x2FF1 JUMP JUMPDEST SWAP3 SWAP2 POP POP JUMP JUMPDEST PUSH0 PUSH1 0x20 DUP3 DUP5 SUB SLT ISZERO PUSH2 0x3030 JUMPI PUSH2 0x302F PUSH2 0x2983 JUMP JUMPDEST JUMPDEST PUSH0 PUSH2 0x303D DUP5 DUP3 DUP6 ADD PUSH2 0x3007 JUMP JUMPDEST SWAP2 POP POP SWAP3 SWAP2 POP POP JUMP JUMPDEST PUSH0 PUSH2 0x100 DUP3 ADD SWAP1 POP PUSH2 0x305A PUSH0 DUP4 ADD DUP12 PUSH2 0x2A2F JUMP JUMPDEST PUSH2 0x3067 PUSH1 0x20 DUP4 ADD DUP11 PUSH2 0x2A2F JUMP JUMPDEST PUSH2 0x3074 PUSH1 0x40 DUP4 ADD DUP10 PUSH2 0x2CD8 JUMP JUMPDEST PUSH2 0x3081 PUSH1 0x60 DUP4 ADD DUP9 PUSH2 0x2A2F JUMP JUMPDEST PUSH2 0x308E PUSH1 0x80 DUP4 ADD DUP8 PUSH2 0x2A2F JUMP JUMPDEST PUSH2 0x309B PUSH1 0xA0 DUP4 ADD DUP7 PUSH2 0x2A2F JUMP JUMPDEST PUSH2 0x30A8 PUSH1 0xC0 DUP4 ADD DUP6 PUSH2 0x2CD8 JUMP JUMPDEST PUSH2 0x30B5 PUSH1 0xE0 DUP4 ADD DUP5 PUSH2 0x2A2F JUMP JUMPDEST SWAP10 SWAP9 POP POP POP POP POP POP POP POP POP JUMP JUMPDEST PUSH1 0x60 DUP3 ADD PUSH0 DUP3 ADD MLOAD PUSH2 0x30D6 PUSH0 DUP6 ADD DUP3 PUSH2 0x2AEA JUMP JUMPDEST POP PUSH1 0x20 DUP3 ADD MLOAD PUSH2 0x30E9 PUSH1 0x20 DUP6 ADD DUP3 PUSH2 0x2AEA JUMP JUMPDEST POP PUSH1 0x40 DUP3 ADD MLOAD PUSH2 0x30FC PUSH1 0x40 DUP6 ADD DUP3 PUSH2 0x2AF9 JUMP JUMPDEST POP POP POP POP JUMP JUMPDEST PUSH0 PUSH1 0x60 DUP3 ADD SWAP1 POP PUSH2 0x3115 PUSH0 DUP4 ADD DUP5 PUSH2 0x30C2 JUMP JUMPDEST SWAP3 SWAP2 POP POP JUMP JUMPDEST PUSH0 PUSH1 0x60 DUP3 ADD SWAP1 POP PUSH2 0x312E PUSH0 DUP4 ADD DUP7 PUSH2 0x2A2F JUMP JUMPDEST PUSH2 0x313B PUSH1 0x20 DUP4 ADD DUP6 PUSH2 0x2A2F JUMP JUMPDEST PUSH2 0x3148 PUSH1 0x40 DUP4 ADD DUP5 PUSH2 0x2CD8 JUMP JUMPDEST SWAP5 SWAP4 POP POP POP POP JUMP JUMPDEST PUSH0 PUSH1 0x20 DUP3 ADD SWAP1 POP DUP2 DUP2 SUB PUSH0 DUP4 ADD MSTORE PUSH2 0x3168 DUP2 DUP5 PUSH2 0x2D33 JUMP JUMPDEST SWAP1 POP SWAP3 SWAP2 POP POP JUMP JUMPDEST PUSH2 0x100 DUP3 ADD PUSH0 DUP3 ADD MLOAD PUSH2 0x3185 PUSH0 DUP6 ADD DUP3 PUSH2 0x2AEA JUMP JUMPDEST POP PUSH1 0x20 DUP3 ADD MLOAD PUSH2 0x3198 PUSH1 0x20 DUP6 ADD DUP3 PUSH2 0x2AEA JUMP JUMPDEST POP PUSH1 0x40 DUP3 ADD MLOAD PUSH2 0x31AB PUSH1 0x40 DUP6 ADD DUP3 PUSH2 0x2AF9 JUMP JUMPDEST POP PUSH1 0x60 DUP3 ADD MLOAD PUSH2 0x31BE PUSH1 0x60 DUP6 ADD DUP3 PUSH2 0x2AEA JUMP JUMPDEST POP PUSH1 0x80 DUP3 ADD MLOAD PUSH2 0x31D1 PUSH1 0x80 DUP6 ADD DUP3 PUSH2 0x2AEA JUMP JUMPDEST POP PUSH1 0xA0 DUP3 ADD MLOAD PUSH2 0x31E4 PUSH1 0xA0 DUP6 ADD DUP3 PUSH2 0x2AEA JUMP JUMPDEST POP PUSH1 0xC0 DUP3 ADD MLOAD PUSH2 0x31F7 PUSH1 0xC0 DUP6 ADD DUP3 PUSH2 0x2AF9 JUMP JUMPDEST POP PUSH1 0xE0 DUP3 ADD MLOAD PUSH2 0x320A PUSH1 0xE0 DUP6 ADD DUP3 PUSH2 0x2AEA JUMP JUMPDEST POP POP POP POP JUMP JUMPDEST PUSH0 PUSH2 0x100 DUP3 ADD SWAP1 POP PUSH2 0x3224 PUSH0 DUP4 ADD DUP5 PUSH2 0x3170 JUMP JUMPDEST SWAP3 SWAP2 POP POP JUMP JUMPDEST PUSH0 DUP2 SWAP1 POP SWAP2 SWAP1 POP JUMP JUMPDEST PUSH0 PUSH2 0x324D PUSH2 0x3248 PUSH2 0x3243 DUP5 PUSH2 0x2987 JUMP JUMPDEST PUSH2 0x322A JUMP JUMPDEST PUSH2 0x2987 JUMP JUMPDEST SWAP1 POP SWAP2 SWAP1 POP JUMP JUMPDEST PUSH0 PUSH2 0x325E DUP3 PUSH2 0x3233 JUMP JUMPDEST SWAP1 POP SWAP2 SWAP1 POP JUMP JUMPDEST PUSH0 PUSH2 0x326F DUP3 PUSH2 0x3254 JUMP JUMPDEST SWAP1 POP SWAP2 SWAP1 POP JUMP JUMPDEST PUSH2 0x327F DUP2 PUSH2 0x3265 JUMP JUMPDEST DUP3 MSTORE POP POP JUMP JUMPDEST PUSH0 PUSH1 0x20 DUP3 ADD SWAP1 POP PUSH2 0x3298 PUSH0 DUP4 ADD DUP5 PUSH2 0x3276 JUMP JUMPDEST SWAP3 SWAP2 POP POP JUMP JUMPDEST PUSH32 0x41756374696F6E206E6F742066696E616C697A65640000000000000000000000 PUSH0 DUP3 ADD MSTORE POP JUMP JUMPDEST PUSH0 PUSH2 0x32D2 PUSH1 0x15 DUP4 PUSH2 0x2C52 JUMP JUMPDEST SWAP2 POP PUSH2 0x32DD DUP3 PUSH2 0x329E JUMP JUMPDEST PUSH1 0x20 DUP3 ADD SWAP1 POP SWAP2 SWAP1 POP JUMP JUMPDEST PUSH0 PUSH1 0x20 DUP3 ADD SWAP1 POP DUP2 DUP2 SUB PUSH0 DUP4 ADD MSTORE PUSH2 0x32FF DUP2 PUSH2 0x32C6 JUMP JUMPDEST SWAP1 POP SWAP2 SWAP1 POP JUMP JUMPDEST PUSH32 0x57696E6E657220686173206E6F20726566756E64000000000000000000000000 PUSH0 DUP3 ADD MSTORE POP JUMP JUMPDEST PUSH0 PUSH2 0x333A PUSH1 0x14 DUP4 PUSH2 0x2C52 JUMP JUMPDEST SWAP2 POP PUSH2 0x3345 DUP3 PUSH2 0x3306 JUMP JUMPDEST PUSH1 0x20 DUP3 ADD SWAP1 POP SWAP2 SWAP1 POP JUMP JUMPDEST PUSH0 PUSH1 0x20 DUP3 ADD SWAP1 POP DUP2 DUP2 SUB PUSH0 DUP4 ADD MSTORE PUSH2 0x3367 DUP2 PUSH2 0x332E JUMP JUMPDEST SWAP1 POP SWAP2 SWAP1 POP JUMP JUMPDEST PUSH32 0x4E6F20726566756E6420617661696C61626C6500000000000000000000000000 PUSH0 DUP3 ADD MSTORE POP JUMP JUMPDEST PUSH0 PUSH2 0x33A2 PUSH1 0x13 DUP4 PUSH2 0x2C52 JUMP JUMPDEST SWAP2 POP PUSH2 0x33AD DUP3 PUSH2 0x336E JUMP JUMPDEST PUSH1 0x20 DUP3 ADD SWAP1 POP SWAP2 SWAP1 POP JUMP JUMPDEST PUSH0 PUSH1 0x20 DUP3 ADD SWAP1 POP DUP2 DUP2 SUB PUSH0 DUP4 ADD MSTORE PUSH2 0x33CF DUP2 PUSH2 0x3396 JUMP JUMPDEST SWAP1 POP SWAP2 SWAP1 POP JUMP JUMPDEST PUSH0 DUP2 SWAP1 POP SWAP3 SWAP2 POP POP JUMP JUMPDEST POP JUMP JUMPDEST PUSH0 PUSH2 0x33EE PUSH0 DUP4 PUSH2 0x33D6 JUMP JUMPDEST SWAP2 POP PUSH2 0x33F9 DUP3 PUSH2 0x33E0 JUMP JUMPDEST PUSH0 DUP3 ADD SWAP1 POP SWAP2 SWAP1 POP JUMP JUMPDEST PUSH0 PUSH2 0x340D DUP3 PUSH2 0x33E3 JUMP JUMPDEST SWAP2 POP DUP2 SWAP1 POP SWAP2 SWAP1 POP JUMP JUMPDEST PUSH32 0x526566756E64206661696C656400000000000000000000000000000000000000 PUSH0 DUP3 ADD MSTORE POP JUMP JUMPDEST PUSH0 PUSH2 0x344B PUSH1 0xD DUP4 PUSH2 0x2C52 JUMP JUMPDEST SWAP2 POP PUSH2 0x3456 DUP3 PUSH2 0x3417 JUMP JUMPDEST PUSH1 0x20 DUP3 ADD SWAP1 POP SWAP2 SWAP1 POP JUMP JUMPDEST PUSH0 PUSH1 0x20 DUP3 ADD SWAP1 POP DUP2 DUP2 SUB PUSH0 DUP4 ADD MSTORE PUSH2 0x3478 DUP2 PUSH2 0x343F JUMP JUMPDEST SWAP1 POP SWAP2 SWAP1 POP JUMP JUMPDEST PUSH32 0x4F6E6C792077696E6E65722063616E2061636365737320746865206461746100 PUSH0 DUP3 ADD MSTORE POP JUMP JUMPDEST PUSH0 PUSH2 0x34B3 PUSH1 0x1F DUP4 PUSH2 0x2C52 JUMP JUMPDEST SWAP2 POP PUSH2 0x34BE DUP3 PUSH2 0x347F JUMP JUMPDEST PUSH1 0x20 DUP3 ADD SWAP1 POP SWAP2 SWAP1 POP JUMP JUMPDEST PUSH0 PUSH1 0x20 DUP3 ADD SWAP1 POP DUP2 DUP2 SUB PUSH0 DUP4 ADD MSTORE PUSH2 0x34E0 DUP2 PUSH2 0x34A7 JUMP JUMPDEST SWAP1 POP SWAP2 SWAP1 POP JUMP JUMPDEST PUSH32 0x4E487B7100000000000000000000000000000000000000000000000000000000 PUSH0 MSTORE PUSH1 0x22 PUSH1 0x4 MSTORE PUSH1 0x24 PUSH0 REVERT JUMPDEST PUSH0 PUSH1 0x2 DUP3 DIV SWAP1 POP PUSH1 0x1 DUP3 AND DUP1 PUSH2 0x352B JUMPI PUSH1 0x7F DUP3 AND SWAP2 POP JUMPDEST PUSH1 0x20 DUP3 LT DUP2 SUB PUSH2 0x353E JUMPI PUSH2 0x353D PUSH2 0x34E7 JUMP JUMPDEST JUMPDEST POP SWAP2 SWAP1 POP JUMP JUMPDEST PUSH32 0x42696420696E646578206F7574206F662072616E676500000000000000000000 PUSH0 DUP3 ADD MSTORE POP JUMP JUMPDEST PUSH0 PUSH2 0x3578 PUSH1 0x16 DUP4 PUSH2 0x2C52 JUMP JUMPDEST SWAP2 POP PUSH2 0x3583 DUP3 PUSH2 0x3544 JUMP JUMPDEST PUSH1 0x20 DUP3 ADD SWAP1 POP SWAP2 SWAP1 POP JUMP JUMPDEST PUSH0 PUSH1 0x20 DUP3 ADD SWAP1 POP DUP2 DUP2 SUB PUSH0 DUP4 ADD MSTORE PUSH2 0x35A5 DUP2 PUSH2 0x356C JUMP JUMPDEST SWAP1 POP SWAP2 SWAP1 POP JUMP JUMPDEST PUSH32 0x4E487B7100000000000000000000000000000000000000000000000000000000 PUSH0 MSTORE PUSH1 0x32 PUSH1 0x4 MSTORE PUSH1 0x24 PUSH0 REVERT JUMPDEST PUSH32 0x41756374696F6E206E6F7420656E646564207965740000000000000000000000 PUSH0 DUP3 ADD MSTORE POP JUMP JUMPDEST PUSH0 PUSH2 0x360D PUSH1 0x15 DUP4 PUSH2 0x2C52 JUMP JUMPDEST SWAP2 POP PUSH2 0x3618 DUP3 PUSH2 0x35D9 JUMP JUMPDEST PUSH1 0x20 DUP3 ADD SWAP1 POP SWAP2 SWAP1 POP JUMP JUMPDEST PUSH0 PUSH1 0x20 DUP3 ADD SWAP1 POP DUP2 DUP2 SUB PUSH0 DUP4 ADD MSTORE PUSH2 0x363A DUP2 PUSH2 0x3601 JUMP JUMPDEST SWAP1 POP SWAP2 SWAP1 POP JUMP JUMPDEST PUSH32 0x41756374696F6E20616C72656164792066696E616C697A656400000000000000 PUSH0 DUP3 ADD MSTORE POP JUMP JUMPDEST PUSH0 PUSH2 0x3675 PUSH1 0x19 DUP4 PUSH2 0x2C52 JUMP JUMPDEST SWAP2 POP PUSH2 0x3680 DUP3 PUSH2 0x3641 JUMP JUMPDEST PUSH1 0x20 DUP3 ADD SWAP1 POP SWAP2 SWAP1 POP JUMP JUMPDEST PUSH0 PUSH1 0x20 DUP3 ADD SWAP1 POP DUP2 DUP2 SUB PUSH0 DUP4 ADD MSTORE PUSH2 0x36A2 DUP2 PUSH2 0x3669 JUMP JUMPDEST SWAP1 POP SWAP2 SWAP1 POP JUMP JUMPDEST PUSH32 0x496E73756666696369656E742062616C616E6365000000000000000000000000 PUSH0 DUP3 ADD MSTORE POP JUMP JUMPDEST PUSH0 PUSH2 0x36DD PUSH1 0x14 DUP4 PUSH2 0x2C52 JUMP JUMPDEST SWAP2 POP PUSH2 0x36E8 DUP3 PUSH2 0x36A9 JUMP JUMPDEST PUSH1 0x20 DUP3 ADD SWAP1 POP SWAP2 SWAP1 POP JUMP JUMPDEST PUSH0 PUSH1 0x20 DUP3 ADD SWAP1 POP DUP2 DUP2 SUB PUSH0 DUP4 ADD MSTORE PUSH2 0x370A DUP2 PUSH2 0x36D1 JUMP JUMPDEST SWAP1 POP SWAP2 SWAP1 POP JUMP JUMPDEST PUSH32 0x53656C6C6572207061796D656E74206661696C65640000000000000000000000 PUSH0 DUP3 ADD MSTORE POP JUMP JUMPDEST PUSH0 PUSH2 0x3745 PUSH1 0x15 DUP4 PUSH2 0x2C52 JUMP JUMPDEST SWAP2 POP PUSH2 0x3750 DUP3 PUSH2 0x3711 JUMP JUMPDEST PUSH1 0x20 DUP3 ADD SWAP1 POP SWAP2 SWAP1 POP JUMP JUMPDEST PUSH0 PUSH1 0x20 DUP3 ADD SWAP1 POP DUP2 DUP2 SUB PUSH0 DUP4 ADD MSTORE PUSH2 0x3772 DUP2 PUSH2 0x3739 JUMP JUMPDEST SWAP1 POP SWAP2 SWAP1 POP JUMP JUMPDEST PUSH0 PUSH1 0x60 DUP3 ADD SWAP1 POP PUSH2 0x378C PUSH0 DUP4 ADD DUP7 PUSH2 0x2CD8 JUMP JUMPDEST PUSH2 0x3799 PUSH1 0x20 DUP4 ADD DUP6 PUSH2 0x2A2F JUMP JUMPDEST PUSH2 0x37A6 PUSH1 0x40 DUP4 ADD DUP5 PUSH2 0x2A17 JUMP JUMPDEST SWAP5 SWAP4 POP POP POP POP JUMP JUMPDEST PUSH0 DUP2 MLOAD SWAP1 POP PUSH2 0x37BC DUP2 PUSH2 0x2FF1 JUMP JUMPDEST SWAP3 SWAP2 POP POP JUMP JUMPDEST PUSH0 PUSH0 PUSH1 0x40 DUP4 DUP6 SUB SLT ISZERO PUSH2 0x37D8 JUMPI PUSH2 0x37D7 PUSH2 0x2983 JUMP JUMPDEST JUMPDEST PUSH0 PUSH2 0x37E5 DUP6 DUP3 DUP7 ADD PUSH2 0x37AE JUMP JUMPDEST SWAP3 POP POP PUSH1 0x20 PUSH2 0x37F6 DUP6 DUP3 DUP7 ADD PUSH2 0x37AE JUMP JUMPDEST SWAP2 POP POP SWAP3 POP SWAP3 SWAP1 POP JUMP JUMPDEST PUSH32 0x42617463682073697A6520726571756972656400000000000000000000000000 PUSH0 DUP3 ADD MSTORE POP JUMP JUMPDEST PUSH0 PUSH2 0x3834 PUSH1 0x13 DUP4 PUSH2 0x2C52 JUMP JUMPDEST SWAP2 POP PUSH2 0x383F DUP3 PUSH2 0x3800 JUMP JUMPDEST PUSH1 0x20 DUP3 ADD SWAP1 POP SWAP2 SWAP1 POP JUMP JUMPDEST PUSH0 PUSH1 0x20 DUP3 ADD SWAP1 POP DUP2 DUP2 SUB PUSH0 DUP4 ADD MSTORE PUSH2 0x3861 DUP2 PUSH2 0x3828 JUMP JUMPDEST SWAP1 POP SWAP2 SWAP1 POP JUMP JUMPDEST PUSH32 0x4E487B7100000000000000000000000000000000000000000000000000000000 PUSH0 MSTORE PUSH1 0x11 PUSH1 0x4 MSTORE PUSH1 0x24 PUSH0 REVERT JUMPDEST PUSH0 PUSH2 0x389F DUP3 PUSH2 0x2A26 JUMP JUMPDEST SWAP2 POP PUSH32 0xFFFFFFFFFFFFFFFFFFFFFFFFFFFFFFFFFFFFFFFFFFFFFFFFFFFFFFFFFFFFFFFF DUP3 SUB PUSH2 0x38D1 JUMPI PUSH2 0x38D0 PUSH2 0x3868 JUMP JUMPDEST JUMPDEST PUSH1 0x1 DUP3 ADD SWAP1 POP SWAP2 SWAP1 POP JUMP JUMPDEST PUSH32 0x41756374696F6E20656E64656400000000000000000000000000000000000000 PUSH0 DUP3 ADD MSTORE POP JUMP JUMPDEST PUSH0 PUSH2 0x3910 PUSH1 0xD DUP4 PUSH2 0x2C52 JUMP JUMPDEST SWAP2 POP PUSH2 0x391B DUP3 PUSH2 0x38DC JUMP JUMPDEST PUSH1 0x20 DUP3 ADD SWAP1 POP SWAP2 SWAP1 POP JUMP JUMPDEST PUSH0 PUSH1 0x20 DUP3 ADD SWAP1 POP DUP2 DUP2 SUB PUSH0 DUP4 ADD MSTORE PUSH2 0x393D DUP2 PUSH2 0x3904 JUMP JUMPDEST SWAP1 POP SWAP2 SWAP1 POP JUMP JUMPDEST PUSH32 0x596F752063616E277420626964206F6E20796F7572206F776E2061756374696F PUSH0 DUP3 ADD MSTORE PUSH32 0x6E00000000000000000000000000000000000000000000000000000000000000 PUSH1 0x20 DUP3 ADD MSTORE POP JUMP JUMPDEST PUSH0 PUSH2 0x399E PUSH1 0x21 DUP4 PUSH2 0x2C52 JUMP JUMPDEST SWAP2 POP PUSH2 0x39A9 DUP3 PUSH2 0x3944 JUMP JUMPDEST PUSH1 0x40 DUP3 ADD SWAP1 POP SWAP2 SWAP1 POP JUMP JUMPDEST PUSH0 PUSH1 0x20 DUP3 ADD SWAP1 POP DUP2 DUP2 SUB PUSH0 DUP4 ADD MSTORE PUSH2 0x39CB DUP2 PUSH2 0x3992 JUMP JUMPDEST SWAP1 POP SWAP2 SWAP1 POP JUMP JUMPDEST PUSH32 0x4D7573742073656E6420736F6D65206574686572000000000000000000000000 PUSH0 DUP3 ADD MSTORE POP JUMP JUMPDEST PUSH0 PUSH2 0x3A06 PUSH1 0x14 DUP4 PUSH2 0x2C52 JUMP JUMPDEST SWAP2 POP PUSH2 0x3A11 DUP3 PUSH2 0x39D2 JUMP JUMPDEST PUSH1 0x20 DUP3 ADD SWAP1 POP SWAP2 SWAP1 POP JUMP JUMPDEST PUSH0 PUSH1 0x20 DUP3 ADD SWAP1 POP DUP2 DUP2 SUB PUSH0 DUP4 ADD MSTORE PUSH2 0x3A33 DUP2 PUSH2 0x39FA JUMP JUMPDEST SWAP1 POP SWAP2 SWAP1 POP JUMP JUMPDEST PUSH0 PUSH2 0x3A44 DUP3 PUSH2 0x2A26 JUMP JUMPDEST SWAP2 POP PUSH2 0x3A4F DUP4 PUSH2 0x2A26 JUMP JUMPDEST SWAP3 POP DUP3 DUP3 ADD SWAP1 POP DUP1 DUP3 GT ISZERO PUSH2 0x3A67 JUMPI PUSH2 0x3A66 PUSH2 0x3868 JUMP JUMPDEST JUMPDEST SWAP3 SWAP2 POP POP JUMP JUMPDEST PUSH32 0x42656C6F77206D696E696D756D20626964000000000000000000000000000000 PUSH0 DUP3 ADD MSTORE POP JUMP JUMPDEST PUSH0 PUSH2 0x3AA1 PUSH1 0x11 DUP4 PUSH2 0x2C52 JUMP JUMPDEST SWAP2 POP PUSH2 0x3AAC DUP3 PUSH2 0x3A6D JUMP JUMPDEST PUSH1 0x20 DUP3 ADD SWAP1 POP SWAP2 SWAP1 POP JUMP JUMPDEST PUSH0 PUSH1 0x20 DUP3 ADD SWAP1 POP DUP2 DUP2 SUB PUSH0 DUP4 ADD MSTORE PUSH2 0x3ACE DUP2 PUSH2 0x3A95 JUMP JUMPDEST SWAP1 POP SWAP2 SWAP1 POP JUMP JUMPDEST PUSH32 0x426964206D757374206578636565642063757272656E74206869676865737400 PUSH0 DUP3 ADD MSTORE POP JUMP JUMPDEST PUSH0 PUSH2 0x3B09 PUSH1 0x1F DUP4 PUSH2 0x2C52 JUMP JUMPDEST SWAP2 POP PUSH2 0x3B14 DUP3 PUSH2 0x3AD5 JUMP JUMPDEST PUSH1 0x20 DUP3 ADD SWAP1 POP SWAP2 SWAP1 POP JUMP JUMPDEST PUSH0 PUSH1 0x20 DUP3 ADD SWAP1 POP DUP2 DUP2 SUB PUSH0 DUP4 ADD MSTORE PUSH2 0x3B36 DUP2 PUSH2 0x3AFD JUMP JUMPDEST SWAP1 POP SWAP2 SWAP1 POP JUMP JUMPDEST PUSH0 PUSH1 0xC0 DUP3 ADD SWAP1 POP PUSH2 0x3B50 PUSH0 DUP4 ADD DUP10 PUSH2 0x2A2F JUMP JUMPDEST PUSH2 0x3B5D PUSH1 0x20 DUP4 ADD DUP9 PUSH2 0x2A2F JUMP JUMPDEST PUSH2 0x3B6A PUSH1 0x40 DUP4 ADD DUP8 PUSH2 0x2A2F JUMP JUMPDEST PUSH2 0x3B77 PUSH1 0x60 DUP4 ADD DUP7 PUSH2 0x2A2F JUMP JUMPDEST PUSH2 0x3B84 PUSH1 0x80 DUP4 ADD DUP6 PUSH2 0x2A2F JUMP JUMPDEST PUSH2 0x3B91 PUSH1 0xA0 DUP4 ADD DUP5 PUSH2 0x2A2F JUMP JUMPDEST SWAP8 SWAP7 POP POP POP POP POP POP POP JUMP INVALID LOG2 PUSH5 0x6970667358 0x22 SLT KECCAK256 0xD5 SWAP9 DUP4 0xEB 0xB7 INVALID BLOBHASH DUP9 PUSH23 0x98FCFA00C72E512895D4E0D2E7001634033E14DB71D675 PUSH5 0x736F6C6343 STOP ADDMOD 0x23 STOP CALLER "},"gasEstimates":{"creation":{"codeDepositCost":"3062800","executionCost":"infinite","totalCost":"infinite"},"external":{"addresses(uint256)":"5054","approvers(address)":"2924","approversCount()":"2471","approversMoney(address)":"2869","bidLedger(uint256)":"infinite","closed()":"2511","contribute()":"infinite","dataDescription()":"infinite","dataForSell()":"infinite","endTime()":"2493","factory()":"infinite","finalizeAuctionIfNeeded()":"infinite","getAddresses()":"infinite","getBid(address)":"2873","getBidLedger()":"infinite","getBidLedgerAt(uint256)":"infinite","getData()":"infinite","getListSummary()":"infinite","getStatus()":"2563","getSummary()":"infinite","getTransactionAt(uint256)":"infinite","getTransactionCount()":"2486","getTransactions()":"infinite","getUserAuctionStatus(address)":"infinite","highestBid()":"2491","highestBidder()":"2620","manager()":"2576","minimumContribution()":"2492","nextRefundIndex()":"2494","processRefunds(uint256)":"infinite","transactions(uint256)":"infinite","withdrawRefund()":"infinite"}},"methodIdentifiers":{"addresses(uint256)":"edf26d9b","approvers(address)":"0a144391","approversCount()":"82fde093","approversMoney(address)":"5dc1d641","bidLedger(uint256)":"8ba123e8","closed()":"597e1fb5","contribute()":"d7bb99ba","dataDescription()":"58d65629","dataForSell()":"7b87d856","endTime()":"3197cbb6","factory()":"c45a0155","finalizeAuctionIfNeeded()":"976af615","getAddresses()":"a39fac12","getBid(address)":"c8b342ab","getBidLedger()":"3a9d3027","getBidLedgerAt(uint256)":"c37fbb75","getData()":"3bc5de30","getListSummary()":"7914135e","getStatus()":"4e69d560","getSummary()":"4051ddac","getTransactionAt(uint256)":"9292260e","getTransactionCount()":"2e7700f0","getTransactions()":"83920e90","getUserAuctionStatus(address)":"05281103","highestBid()":"d57bde79","highestBidder()":"91f90157","manager()":"481c6a75","minimumContribution()":"937e09b1","nextRefundIndex()":"074d55c4","processRefunds(uint256)":"c6f56901","transactions(uint256)":"9ace38c2","withdrawRefund()":"110f8874"}},"storageLayout":{"storage":[{"astId":4,"contract":"Campaign.sol:Campaign","label":"factory","offset":0,"slot":"0","type":"t_contract(CampaignFactory)1255"},{"astId":64,"contract":"Campaign.sol:Campaign","label":"manager","offset":0,"slot":"1","type":"t_address"},{"astId":66,"contract":"Campaign.sol:Campaign","label":"minimumContribution","offset":0,"slot":"2","type":"t_uint256"},{"astId":68,"contract":"Campaign.sol:Campaign","label":"dataForSell","offset":0,"slot":"3","type":"t_string_storage"},{"astId":70,"contract":"Campaign.sol:Campaign","label":"dataDescription","offset":0,"slot":"4","type":"t_string_storage"},{"astId":74,"contract":"Campaign.sol:Campaign","label":"approvers","offset":0,"slot":"5","type":"t_mapping(t_address,t_bool)"},{"astId":78,"contract":"Campaign.sol:Campaign","label":"approversMoney","offset":0,"slot":"6","type":"t_mapping(t_address,t_uint256)"},{"astId":80,"contract":"Campaign.sol:Campaign","label":"approversCount","offset":0,"slot":"7","type":"t_uint256"},{"astId":83,"contract":"Campaign.sol:Campaign","label":"addresses","offset":0,"slot":"8","type":"t_array(t_address)dyn_storage"},{"astId":87,"contract":"Campaign.sol:Campaign","label":"transactions","offset":0,"slot":"9","type":"t_array(t_struct(Bid)45_storage)dyn_storage"},{"astId":91,"contract":"Campaign.sol:Campaign","label":"bidLedger","offset":0,"slot":"10","type":"t_array(t_struct(BidLedgerEntry)62_storage)dyn_storage"},{"astId":93,"contract":"Campaign.sol:Campaign","label":"highestBidder","offset":0,"slot":"11","type":"t_address"},{"astId":95,"contract":"Campaign.sol:Campaign","label":"highestBid","offset":0,"slot":"12","type":"t_uint256"},{"astId":97,"contract":"Campaign.sol:Campaign","label":"endTime","offset":0,"slot":"13","type":"t_uint256"},{"astId":99,"contract":"Campaign.sol:Campaign","label":"closed","offset":0,"slot":"14","type":"t_bool"},{"astId":101,"contract":"Campaign.sol:Campaign","label":"nextRefundIndex","offset":0,"slot":"15","type":"t_uint256"}],"types":{"t_address":{"encoding":"inplace","label":"address","numberOfBytes":"20"},"t_array(t_address)dyn_storage":{"base":"t_address","encoding":"dynamic_array","label":"address[]","numberOfBytes":"32"},"t_array(t_struct(Bid)45_storage)dyn_storage":{"base":"t_struct(Bid)45_storage","encoding":"dynamic_array","label":"struct Campaign.Bid[]","numberOfBytes":"32"},"t_array(t_struct(BidLedgerEntry)62_storage)dyn_storage":{"base":"t_struct(BidLedgerEntry)62_storage","encoding":"dynamic_array","label":"struct Campaign.BidLedgerEntry[]","numberOfBytes":"32"},"t_bool":{"encoding":"inplace","label":"bool","numberOfBytes":"1"},"t_contract(CampaignFactory)1255":{"encoding":"inplace","label":"contract CampaignFactory","numberOfBytes":"20"},"t_mapping(t_address,t_bool)":{"encoding":"mapping","key":"t_address","label":"mapping(address => bool)","numberOfBytes":"32","value":"t_bool"},"t_mapping(t_address,t_uint256)":{"encoding":"mapping","key":"t_address","label":"mapping(address => uint256)","numberOfBytes":"32","value":"t_uint256"},"t_string_storage":{"encoding":"bytes","label":"string","numberOfBytes":"32"},"t_struct(Bid)45_storage":{"encoding":"inplace","label":"struct Campaign.Bid","members":[{"astId":40,"contract":"Campaign.sol:Campaign","label":"value","offset":0,"slot":"0","type":"t_uint256"},{"astId":42,"contract":"Campaign.sol:Campaign","label":"time","offset":0,"slot":"1","type":"t_uint256"},{"astId":44,"contract":"Campaign.sol:Campaign","label":"bidderAddress","offset":0,"slot":"2","type":"t_address"}],"numberOfBytes":"96"},"t_struct(BidLedgerEntry)62_storage":{"encoding":"inplace","label":"struct Campaign.BidLedgerEntry","members":[{"astId":47,"contract":"Campaign.sol:Campaign","label":"value","offset":0,"slot":"0","type":"t_uint256"},{"astId":49,"contract":"Campaign.sol:Campaign","label":"time","offset":0,"slot":"1","type":"t_uint256"},{"astId":51,"contract":"Campaign.sol:Campaign","label":"bidderAddress","offset":0,"slot":"2","type":"t_address"},{"astId":53,"contract":"Campaign.sol:Campaign","label":"cumulativeBid","offset":0,"slot":"3","type":"t_uint256"},{"astId":55,"contract":"Campaign.sol:Campaign","label":"budgetBefore","offset":0,"slot":"4","type":"t_uint256"},{"astId":57,"contract":"Campaign.sol:Campaign","label":"budgetAfter","offset":0,"slot":"5","type":"t_uint256"},{"astId":59,"contract":"Campaign.sol:Campaign","label":"previousHighestBidder","offset":0,"slot":"6","type":"t_address"},{"astId":61,"contract":"Campaign.sol:Campaign","label":"previousHighestBid","offset":0,"slot":"7","type":"t_uint256"}],"numberOfBytes":"256"},"t_uint256":{"encoding":"inplace","label":"uint256","numberOfBytes":"32"}}},"transientStorageLayout":{"storage":[],"types":null},"userdoc":{"kind":"user","methods":{},"version":1}}