{"abi":[{"inputs":[{"internalType":"uint256","name":"minimum","type":"uint256"},{"internalType":"string","name":"dataSell","type":"string"},{"internalType":"string","name":"dataDesc","type":"string"},{"internalType":"address","name":"creator","type":"address"},{"internalType":"uint256","name":"duration","type":"uint256"},{"internalType":"address","name":"factoryAddress","type":"address"}],"stateMutability":"nonpayable","type":"constructor"},{"anonymous":false,"inputs":[{"indexed":false,"internalType":"address","name":"contributor","type":"address"}],"name":"BidAdded","type":"event"},{"anonymous":false,"inputs":[{"indexed":true,"internalType":"address","name":"contributor","type":"address"},{"indexed":false,"internalType":"uint256","name":"amount","type":"uint256"}],"name":"RefundProcessed","type":"event"},{"anonymous":false,"inputs":[{"indexed":true,"internalType":"address","name":"seller","type":"address"},{"indexed":false,"internalType":"uint256","name":"amount","type":"uint256"}],"name":"SellerPaid","type":"event"},{"inputs":[{"internalType":"uint256","name":"","type":"uint256"}],"name":"addresses","outputs":[{"internalType":"address","name":"","type":"address"}],"stateMutability":"view","type":"function"},{"inputs":[{"internalType":"address","name":"","type":"address"}],"name":"approvers","outputs":[{"internalType":"bool","name":"","type":"bool"}],"stateMutability":"view","type":"function"},{"inputs":[],"name":"approversCount","outputs":[{"internalType":"uint256","name":"","type":"uint256"}],"stateMutability":"view","type":"function"},{"inputs":[{"internalType":"address","name":"","type":"address"}],"name":"approversMoney","outputs":[{"internalType":"uint256","name":"","type":"uint256"}],"stateMutability":"view","type":"function"},{"inputs":[],"name":"closed","outputs":[{"internalType":"bool","name":"","type":"bool"}],"stateMutability":"view","type":"function"},{"inputs":[],"name":"contribute","outputs":[],"stateMutability":"payable","type":"function"},{"inputs":[],"name":"dataDescription","outputs":[{"internalType":"string","name":"","type":"string"}],"stateMutability":"view","type":"function"},{"inputs":[],"name":"dataForSell","outputs":[{"internalType":"string","name":"","type":"string"}],"stateMutability":"view","type":"function"},{"inputs":[],"name":"endTime","outputs":[{"internalType":"uint256","name":"","type":"uint256"}],"stateMutability":"view","type":"function"},{"inputs":[],"name":"factory","outputs":[{"internalType":"contract CampaignFactory","name":"","type":"address"}],"stateMutability":"view","type":"function"},{"inputs":[],"name":"finalizeAuctionIfNeeded","outputs":[],"stateMutability":"nonpayable","type":"function"},{"inputs":[],"name":"getAddresses","outputs":[{"internalType":"address[]","name":"","type":"address[]"}],"stateMutability":"view","type":"function"},{"inputs":[{"internalType":"address","name":"bidder","type":"address"}],"name":"getBid","outputs":[{"internalType":"uint256","name":"","type":"uint256"}],"stateMutability":"view","type":"function"},{"inputs":[],"name":"getData","outputs":[{"internalType":"string","name":"","type":"string"}],"stateMutability":"view","type":"function"},{"inputs":[],"name":"getListSummary","outputs":[{"internalType":"uint256","name":"","type":"uint256"},{"internalType":"uint256","name":"","type":"uint256"},{"internalType":"uint256","name":"","type":"uint256"},{"internalType":"address","name":"","type":"address"},{"internalType":"uint256","name":"","type":"uint256"},{"internalType":"string","name":"","type":"string"},{"internalType":"address","name":"","type":"address"},{"internalType":"uint256","name":"","type":"uint256"},{"internalType":"bool","name":"","type":"bool"}],"stateMutability":"view","type":"function"},{"inputs":[],"name":"getStatus","outputs":[{"internalType":"bool","name":"","type":"bool"}],"stateMutability":"view","type":"function"},{"inputs":[],"name":"getSummary","outputs":[{"internalType":"uint256","name":"","type":"uint256"},{"internalType":"uint256","name":"","type":"uint256"},{"internalType":"uint256","name":"","type":"uint256"},{"internalType":"address","name":"","type":"address"},{"internalType":"uint256","name":"","type":"uint256"},{"internalType":"string","name":"","type":"string"},{"internalType":"string","name":"","type":"string"},{"internalType":"address","name":"","type":"address"},{"internalType":"address[]","name":"","type":"address[]"},{"internalType":"uint256","name":"","type":"uint256"}],"stateMutability":"view","type":"function"},{"inputs":[],"name":"getTransactions","outputs":[{"components":[{"internalType":"uint256","name":"value","type":"uint256"},{"internalType":"uint256","name":"time","type":"uint256"},{"internalType":"address","name":"bidderAddress","type":"address"}],"internalType":"struct Campaign.Bid[]","name":"","type":"tuple[]"}],"stateMutability":"view","type":"function"},{"inputs":[{"internalType":"address","name":"user","type":"address"}],"name":"getUserAuctionStatus","outputs":[{"internalType":"bool","name":"","type":"bool"},{"internalType":"uint256","name":"","type":"uint256"},{"internalType":"bool","name":"","type":"bool"},{"internalType":"bool","name":"","type":"bool"},{"internalType":"bool","name":"","type":"bool"}],"stateMutability":"view","type":"function"},{"inputs":[],"name":"highestBid","outputs":[{"internalType":"uint256","name":"","type":"uint256"}],"stateMutability":"view","type":"function"},{"inputs":[],"name":"highestBidder","outputs":[{"internalType":"address","name":"","type":"address"}],"stateMutability":"view","type":"function"},{"inputs":[],"name":"manager","outputs":[{"internalType":"address","name":"","type":"address"}],"stateMutability":"view","type":"function"},{"inputs":[],"name":"minimumContribution","outputs":[{"internalType":"uint256","name":"","type":"uint256"}],"stateMutability":"view","type":"function"},{"inputs":[],"name":"nextRefundIndex","outputs":[{"internalType":"uint256","name":"","type":"uint256"}],"stateMutability":"view","type":"function"},{"inputs":[{"internalType":"uint256","name":"maxRefunds","type":"uint256"}],"name":"processRefunds","outputs":[],"stateMutability":"nonpayable","type":"function"},{"inputs":[{"internalType":"uint256","name":"","type":"uint256"}],"name":"transactions","outputs":[{"internalType":"uint256","name":"value","type":"uint256"},{"internalType":"uint256","name":"time","type":"uint256"},{"internalType":"address","name":"bidderAddress","type":"address"}],"stateMutability":"view","type":"function"},{"inputs":[],"name":"withdrawRefund","outputs":[],"stateMutability":"nonpayable","type":"function"}],"devdoc":{"kind":"dev","methods":{},"version":1},"evm":{"assembly":"    /* \"Campaign.sol\":561:7721  contract Campaign {... */\n  mstore(0x40, 0x80)\n    /* \"Campaign.sol\":1651:2100  constructor(... */\n  callvalue\n  dup1\n  iszero\n  tag_1\n  jumpi\n  revert(0x00, 0x00)\ntag_1:\n  pop\n  mload(0x40)\n  sub(codesize, bytecodeSize)\n  dup1\n  bytecodeSize\n  dup4\n  codecopy\n  dup2\n  dup2\n  add\n  0x40\n  mstore\n  dup2\n  add\n  swap1\n  tag_2\n  swap2\n  swap1\n  tag_3\n  jump\t// in\ntag_2:\n    /* \"Campaign.sol\":1869:1876  creator */\n  dup3\n    /* \"Campaign.sol\":1859:1866  manager */\n  0x01\n  0x00\n    /* \"Campaign.sol\":1859:1876  manager = creator */\n  0x0100\n  exp\n  dup2\n  sload\n  dup2\n  0xffffffffffffffffffffffffffffffffffffffff\n  mul\n  not\n  and\n  swap1\n  dup4\n  0xffffffffffffffffffffffffffffffffffffffff\n  and\n  mul\n  or\n  swap1\n  sstore\n  pop\n    /* \"Campaign.sol\":1909:1916  minimum */\n  dup6\n    /* \"Campaign.sol\":1887:1906  minimumContribution */\n  0x02\n    /* \"Campaign.sol\":1887:1916  minimumContribution = minimum */\n  dup2\n  swap1\n  sstore\n  pop\n    /* \"Campaign.sol\":1941:1949  dataSell */\n  dup5\n    /* \"Campaign.sol\":1927:1938  dataForSell */\n  0x03\n    /* \"Campaign.sol\":1927:1949  dataForSell = dataSell */\n  swap1\n  dup2\n  tag_6\n  swap2\n  swap1\n  tag_7\n  jump\t// in\ntag_6:\n  pop\n    /* \"Campaign.sol\":1978:1986  dataDesc */\n  dup4\n    /* \"Campaign.sol\":1960:1975  dataDescription */\n  0x04\n    /* \"Campaign.sol\":1960:1986  dataDescription = dataDesc */\n  swap1\n  dup2\n  tag_8\n  swap2\n  swap1\n  tag_7\n  jump\t// in\ntag_8:\n  pop\n    /* \"Campaign.sol\":2007:2015  duration */\n  dup2\n    /* \"Campaign.sol\":1997:2004  endTime */\n  0x0c\n    /* \"Campaign.sol\":1997:2015  endTime = duration */\n  dup2\n  swap1\n  sstore\n  pop\n    /* \"Campaign.sol\":2035:2040  false */\n  0x00\n    /* \"Campaign.sol\":2026:2032  closed */\n  0x0d\n  0x00\n    /* \"Campaign.sol\":2026:2040  closed = false */\n  0x0100\n  exp\n  dup2\n  sload\n  dup2\n  0xff\n  mul\n  not\n  and\n  swap1\n  dup4\n  iszero\n  iszero\n  mul\n  or\n  swap1\n  sstore\n  pop\n    /* \"Campaign.sol\":2077:2091  factoryAddress */\n  dup1\n    /* \"Campaign.sol\":2051:2058  factory */\n  0x00\n  0x00\n    /* \"Campaign.sol\":2051:2092  factory = CampaignFactory(factoryAddress) */\n  0x0100\n  exp\n  dup2\n  sload\n  dup2\n  0xffffffffffffffffffffffffffffffffffffffff\n  mul\n  not\n  and\n  swap1\n  dup4\n  0xffffffffffffffffffffffffffffffffffffffff\n  and\n  mul\n  or\n  swap1\n  sstore\n  pop\n    /* \"Campaign.sol\":1651:2100  constructor(... */\n  pop\n  pop\n  pop\n  pop\n  pop\n  pop\n    /* \"Campaign.sol\":561:7721  contract Campaign {... */\n  jump(tag_9)\n    /* \"#utility.yul\":7:82   */\ntag_10:\n    /* \"#utility.yul\":40:46   */\n  0x00\n    /* \"#utility.yul\":73:75   */\n  0x40\n    /* \"#utility.yul\":67:76   */\n  mload\n    /* \"#utility.yul\":57:76   */\n  swap1\n  pop\n    /* \"#utility.yul\":7:82   */\n  swap1\n  jump\t// out\n    /* \"#utility.yul\":88:205   */\ntag_11:\n    /* \"#utility.yul\":197:198   */\n  0x00\n    /* \"#utility.yul\":194:195   */\n  0x00\n    /* \"#utility.yul\":187:199   */\n  revert\n    /* \"#utility.yul\":211:328   */\ntag_12:\n    /* \"#utility.yul\":320:321   */\n  0x00\n    /* \"#utility.yul\":317:318   */\n  0x00\n    /* \"#utility.yul\":310:322   */\n  revert\n    /* \"#utility.yul\":334:411   */\ntag_13:\n    /* \"#utility.yul\":371:378   */\n  0x00\n    /* \"#utility.yul\":400:405   */\n  dup2\n    /* \"#utility.yul\":389:405   */\n  swap1\n  pop\n    /* \"#utility.yul\":334:411   */\n  swap2\n  swap1\n  pop\n  jump\t// out\n    /* \"#utility.yul\":417:539   */\ntag_14:\n    /* \"#utility.yul\":490:514   */\n  tag_54\n    /* \"#utility.yul\":508:513   */\n  dup2\n    /* \"#utility.yul\":490:514   */\n  tag_13\n  jump\t// in\ntag_54:\n    /* \"#utility.yul\":483:488   */\n  dup2\n    /* \"#utility.yul\":480:515   */\n  eq\n    /* \"#utility.yul\":470:533   */\n  tag_55\n  jumpi\n    /* \"#utility.yul\":529:530   */\n  0x00\n    /* \"#utility.yul\":526:527   */\n  0x00\n    /* \"#utility.yul\":519:531   */\n  revert\n    /* \"#utility.yul\":470:533   */\ntag_55:\n    /* \"#utility.yul\":417:539   */\n  pop\n  jump\t// out\n    /* \"#utility.yul\":545:688   */\ntag_15:\n    /* \"#utility.yul\":602:607   */\n  0x00\n    /* \"#utility.yul\":633:639   */\n  dup2\n    /* \"#utility.yul\":627:640   */\n  mload\n    /* \"#utility.yul\":618:640   */\n  swap1\n  pop\n    /* \"#utility.yul\":649:682   */\n  tag_57\n    /* \"#utility.yul\":676:681   */\n  dup2\n    /* \"#utility.yul\":649:682   */\n  tag_14\n  jump\t// in\ntag_57:\n    /* \"#utility.yul\":545:688   */\n  swap3\n  swap2\n  pop\n  pop\n  jump\t// out\n    /* \"#utility.yul\":694:811   */\ntag_16:\n    /* \"#utility.yul\":803:804   */\n  0x00\n    /* \"#utility.yul\":800:801   */\n  0x00\n    /* \"#utility.yul\":793:805   */\n  revert\n    /* \"#utility.yul\":817:934   */\ntag_17:\n    /* \"#utility.yul\":926:927   */\n  0x00\n    /* \"#utility.yul\":923:924   */\n  0x00\n    /* \"#utility.yul\":916:928   */\n  revert\n    /* \"#utility.yul\":940:1042   */\ntag_18:\n    /* \"#utility.yul\":981:987   */\n  0x00\n    /* \"#utility.yul\":1032:1034   */\n  0x1f\n    /* \"#utility.yul\":1028:1035   */\n  not\n    /* \"#utility.yul\":1023:1025   */\n  0x1f\n    /* \"#utility.yul\":1016:1021   */\n  dup4\n    /* \"#utility.yul\":1012:1026   */\n  add\n    /* \"#utility.yul\":1008:1036   */\n  and\n    /* \"#utility.yul\":998:1036   */\n  swap1\n  pop\n    /* \"#utility.yul\":940:1042   */\n  swap2\n  swap1\n  pop\n  jump\t// out\n    /* \"#utility.yul\":1048:1228   */\ntag_19:\n    /* \"#utility.yul\":1096:1173   */\n  0x4e487b7100000000000000000000000000000000000000000000000000000000\n    /* \"#utility.yul\":1093:1094   */\n  0x00\n    /* \"#utility.yul\":1086:1174   */\n  mstore\n    /* \"#utility.yul\":1193:1197   */\n  0x41\n    /* \"#utility.yul\":1190:1191   */\n  0x04\n    /* \"#utility.yul\":1183:1198   */\n  mstore\n    /* \"#utility.yul\":1217:1221   */\n  0x24\n    /* \"#utility.yul\":1214:1215   */\n  0x00\n    /* \"#utility.yul\":1207:1222   */\n  revert\n    /* \"#utility.yul\":1234:1515   */\ntag_20:\n    /* \"#utility.yul\":1317:1344   */\n  tag_63\n    /* \"#utility.yul\":1339:1343   */\n  dup3\n    /* \"#utility.yul\":1317:1344   */\n  tag_18\n  jump\t// in\ntag_63:\n    /* \"#utility.yul\":1309:1315   */\n  dup2\n    /* \"#utility.yul\":1305:1345   */\n  add\n    /* \"#utility.yul\":1447:1453   */\n  dup2\n    /* \"#utility.yul\":1435:1445   */\n  dup2\n    /* \"#utility.yul\":1432:1454   */\n  lt\n    /* \"#utility.yul\":1411:1429   */\n  0xffffffffffffffff\n    /* \"#utility.yul\":1399:1409   */\n  dup3\n    /* \"#utility.yul\":1396:1430   */\n  gt\n    /* \"#utility.yul\":1393:1455   */\n  or\n    /* \"#utility.yul\":1390:1478   */\n  iszero\n  tag_64\n  jumpi\n    /* \"#utility.yul\":1458:1476   */\n  tag_65\n  tag_19\n  jump\t// in\ntag_65:\n    /* \"#utility.yul\":1390:1478   */\ntag_64:\n    /* \"#utility.yul\":1498:1508   */\n  dup1\n    /* \"#utility.yul\":1494:1496   */\n  0x40\n    /* \"#utility.yul\":1487:1509   */\n  mstore\n    /* \"#utility.yul\":1277:1515   */\n  pop\n    /* \"#utility.yul\":1234:1515   */\n  pop\n  pop\n  jump\t// out\n    /* \"#utility.yul\":1521:1650   */\ntag_21:\n    /* \"#utility.yul\":1555:1561   */\n  0x00\n    /* \"#utility.yul\":1582:1602   */\n  tag_67\n  tag_10\n  jump\t// in\ntag_67:\n    /* \"#utility.yul\":1572:1602   */\n  swap1\n  pop\n    /* \"#utility.yul\":1611:1644   */\n  tag_68\n    /* \"#utility.yul\":1639:1643   */\n  dup3\n    /* \"#utility.yul\":1631:1637   */\n  dup3\n    /* \"#utility.yul\":1611:1644   */\n  tag_20\n  jump\t// in\ntag_68:\n    /* \"#utility.yul\":1521:1650   */\n  swap2\n  swap1\n  pop\n  jump\t// out\n    /* \"#utility.yul\":1656:1964   */\ntag_22:\n    /* \"#utility.yul\":1718:1722   */\n  0x00\n    /* \"#utility.yul\":1808:1826   */\n  0xffffffffffffffff\n    /* \"#utility.yul\":1800:1806   */\n  dup3\n    /* \"#utility.yul\":1797:1827   */\n  gt\n    /* \"#utility.yul\":1794:1850   */\n  iszero\n  tag_70\n  jumpi\n    /* \"#utility.yul\":1830:1848   */\n  tag_71\n  tag_19\n  jump\t// in\ntag_71:\n    /* \"#utility.yul\":1794:1850   */\ntag_70:\n    /* \"#utility.yul\":1868:1897   */\n  tag_72\n    /* \"#utility.yul\":1890:1896   */\n  dup3\n    /* \"#utility.yul\":1868:1897   */\n  tag_18\n  jump\t// in\ntag_72:\n    /* \"#utility.yul\":1860:1897   */\n  swap1\n  pop\n    /* \"#utility.yul\":1952:1956   */\n  0x20\n    /* \"#utility.yul\":1946:1950   */\n  dup2\n    /* \"#utility.yul\":1942:1957   */\n  add\n    /* \"#utility.yul\":1934:1957   */\n  swap1\n  pop\n    /* \"#utility.yul\":1656:1964   */\n  swap2\n  swap1\n  pop\n  jump\t// out\n    /* \"#utility.yul\":1970:2109   */\ntag_23:\n    /* \"#utility.yul\":2059:2065   */\n  dup3\n    /* \"#utility.yul\":2054:2057   */\n  dup2\n    /* \"#utility.yul\":2049:2052   */\n  dup4\n    /* \"#utility.yul\":2043:2066   */\n  mcopy\n    /* \"#utility.yul\":2100:2101   */\n  0x00\n    /* \"#utility.yul\":2091:2097   */\n  dup4\n    /* \"#utility.yul\":2086:2089   */\n  dup4\n    /* \"#utility.yul\":2082:2098   */\n  add\n    /* \"#utility.yul\":2075:2102   */\n  mstore\n    /* \"#utility.yul\":1970:2109   */\n  pop\n  pop\n  pop\n  jump\t// out\n    /* \"#utility.yul\":2115:2549   */\ntag_24:\n    /* \"#utility.yul\":2204:2209   */\n  0x00\n    /* \"#utility.yul\":2229:2295   */\n  tag_75\n    /* \"#utility.yul\":2245:2294   */\n  tag_76\n    /* \"#utility.yul\":2287:2293   */\n  dup5\n    /* \"#utility.yul\":2245:2294   */\n  tag_22\n  jump\t// in\ntag_76:\n    /* \"#utility.yul\":2229:2295   */\n  tag_21\n  jump\t// in\ntag_75:\n    /* \"#utility.yul\":2220:2295   */\n  swap1\n  pop\n    /* \"#utility.yul\":2318:2324   */\n  dup3\n    /* \"#utility.yul\":2311:2316   */\n  dup2\n    /* \"#utility.yul\":2304:2325   */\n  mstore\n    /* \"#utility.yul\":2356:2360   */\n  0x20\n    /* \"#utility.yul\":2349:2354   */\n  dup2\n    /* \"#utility.yul\":2345:2361   */\n  add\n    /* \"#utility.yul\":2394:2397   */\n  dup5\n    /* \"#utility.yul\":2385:2391   */\n  dup5\n    /* \"#utility.yul\":2380:2383   */\n  dup5\n    /* \"#utility.yul\":2376:2392   */\n  add\n    /* \"#utility.yul\":2373:2398   */\n  gt\n    /* \"#utility.yul\":2370:2482   */\n  iszero\n  tag_77\n  jumpi\n    /* \"#utility.yul\":2401:2480   */\n  tag_78\n  tag_17\n  jump\t// in\ntag_78:\n    /* \"#utility.yul\":2370:2482   */\ntag_77:\n    /* \"#utility.yul\":2491:2543   */\n  tag_79\n    /* \"#utility.yul\":2536:2542   */\n  dup5\n    /* \"#utility.yul\":2531:2534   */\n  dup3\n    /* \"#utility.yul\":2526:2529   */\n  dup6\n    /* \"#utility.yul\":2491:2543   */\n  tag_23\n  jump\t// in\ntag_79:\n    /* \"#utility.yul\":2210:2549   */\n  pop\n    /* \"#utility.yul\":2115:2549   */\n  swap4\n  swap3\n  pop\n  pop\n  pop\n  jump\t// out\n    /* \"#utility.yul\":2569:2924   */\ntag_25:\n    /* \"#utility.yul\":2636:2641   */\n  0x00\n    /* \"#utility.yul\":2685:2688   */\n  dup3\n    /* \"#utility.yul\":2678:2682   */\n  0x1f\n    /* \"#utility.yul\":2670:2676   */\n  dup4\n    /* \"#utility.yul\":2666:2683   */\n  add\n    /* \"#utility.yul\":2662:2689   */\n  slt\n    /* \"#utility.yul\":2652:2774   */\n  tag_81\n  jumpi\n    /* \"#utility.yul\":2693:2772   */\n  tag_82\n  tag_16\n  jump\t// in\ntag_82:\n    /* \"#utility.yul\":2652:2774   */\ntag_81:\n    /* \"#utility.yul\":2803:2809   */\n  dup2\n    /* \"#utility.yul\":2797:2810   */\n  mload\n    /* \"#utility.yul\":2828:2918   */\n  tag_83\n    /* \"#utility.yul\":2914:2917   */\n  dup5\n    /* \"#utility.yul\":2906:2912   */\n  dup3\n    /* \"#utility.yul\":2899:2903   */\n  0x20\n    /* \"#utility.yul\":2891:2897   */\n  dup7\n    /* \"#utility.yul\":2887:2904   */\n  add\n    /* \"#utility.yul\":2828:2918   */\n  tag_24\n  jump\t// in\ntag_83:\n    /* \"#utility.yul\":2819:2918   */\n  swap2\n  pop\n    /* \"#utility.yul\":2642:2924   */\n  pop\n    /* \"#utility.yul\":2569:2924   */\n  swap3\n  swap2\n  pop\n  pop\n  jump\t// out\n    /* \"#utility.yul\":2930:3056   */\ntag_26:\n    /* \"#utility.yul\":2967:2974   */\n  0x00\n    /* \"#utility.yul\":3007:3049   */\n  0xffffffffffffffffffffffffffffffffffffffff\n    /* \"#utility.yul\":3000:3005   */\n  dup3\n    /* \"#utility.yul\":2996:3050   */\n  and\n    /* \"#utility.yul\":2985:3050   */\n  swap1\n  pop\n    /* \"#utility.yul\":2930:3056   */\n  swap2\n  swap1\n  pop\n  jump\t// out\n    /* \"#utility.yul\":3062:3158   */\ntag_27:\n    /* \"#utility.yul\":3099:3106   */\n  0x00\n    /* \"#utility.yul\":3128:3152   */\n  tag_86\n    /* \"#utility.yul\":3146:3151   */\n  dup3\n    /* \"#utility.yul\":3128:3152   */\n  tag_26\n  jump\t// in\ntag_86:\n    /* \"#utility.yul\":3117:3152   */\n  swap1\n  pop\n    /* \"#utility.yul\":3062:3158   */\n  swap2\n  swap1\n  pop\n  jump\t// out\n    /* \"#utility.yul\":3164:3286   */\ntag_28:\n    /* \"#utility.yul\":3237:3261   */\n  tag_88\n    /* \"#utility.yul\":3255:3260   */\n  dup2\n    /* \"#utility.yul\":3237:3261   */\n  tag_27\n  jump\t// in\ntag_88:\n    /* \"#utility.yul\":3230:3235   */\n  dup2\n    /* \"#utility.yul\":3227:3262   */\n  eq\n    /* \"#utility.yul\":3217:3280   */\n  tag_89\n  jumpi\n    /* \"#utility.yul\":3276:3277   */\n  0x00\n    /* \"#utility.yul\":3273:3274   */\n  0x00\n    /* \"#utility.yul\":3266:3278   */\n  revert\n    /* \"#utility.yul\":3217:3280   */\ntag_89:\n    /* \"#utility.yul\":3164:3286   */\n  pop\n  jump\t// out\n    /* \"#utility.yul\":3292:3435   */\ntag_29:\n    /* \"#utility.yul\":3349:3354   */\n  0x00\n    /* \"#utility.yul\":3380:3386   */\n  dup2\n    /* \"#utility.yul\":3374:3387   */\n  mload\n    /* \"#utility.yul\":3365:3387   */\n  swap1\n  pop\n    /* \"#utility.yul\":3396:3429   */\n  tag_91\n    /* \"#utility.yul\":3423:3428   */\n  dup2\n    /* \"#utility.yul\":3396:3429   */\n  tag_28\n  jump\t// in\ntag_91:\n    /* \"#utility.yul\":3292:3435   */\n  swap3\n  swap2\n  pop\n  pop\n  jump\t// out\n    /* \"#utility.yul\":3441:4921   */\ntag_3:\n    /* \"#utility.yul\":3576:3582   */\n  0x00\n    /* \"#utility.yul\":3584:3590   */\n  0x00\n    /* \"#utility.yul\":3592:3598   */\n  0x00\n    /* \"#utility.yul\":3600:3606   */\n  0x00\n    /* \"#utility.yul\":3608:3614   */\n  0x00\n    /* \"#utility.yul\":3616:3622   */\n  0x00\n    /* \"#utility.yul\":3665:3668   */\n  0xc0\n    /* \"#utility.yul\":3653:3662   */\n  dup8\n    /* \"#utility.yul\":3644:3651   */\n  dup10\n    /* \"#utility.yul\":3640:3663   */\n  sub\n    /* \"#utility.yul\":3636:3669   */\n  slt\n    /* \"#utility.yul\":3633:3753   */\n  iszero\n  tag_93\n  jumpi\n    /* \"#utility.yul\":3672:3751   */\n  tag_94\n  tag_11\n  jump\t// in\ntag_94:\n    /* \"#utility.yul\":3633:3753   */\ntag_93:\n    /* \"#utility.yul\":3792:3793   */\n  0x00\n    /* \"#utility.yul\":3817:3881   */\n  tag_95\n    /* \"#utility.yul\":3873:3880   */\n  dup10\n    /* \"#utility.yul\":3864:3870   */\n  dup3\n    /* \"#utility.yul\":3853:3862   */\n  dup11\n    /* \"#utility.yul\":3849:3871   */\n  add\n    /* \"#utility.yul\":3817:3881   */\n  tag_15\n  jump\t// in\ntag_95:\n    /* \"#utility.yul\":3807:3881   */\n  swap7\n  pop\n    /* \"#utility.yul\":3763:3891   */\n  pop\n    /* \"#utility.yul\":3951:3953   */\n  0x20\n    /* \"#utility.yul\":3940:3949   */\n  dup8\n    /* \"#utility.yul\":3936:3954   */\n  add\n    /* \"#utility.yul\":3930:3955   */\n  mload\n    /* \"#utility.yul\":3982:4000   */\n  0xffffffffffffffff\n    /* \"#utility.yul\":3974:3980   */\n  dup2\n    /* \"#utility.yul\":3971:4001   */\n  gt\n    /* \"#utility.yul\":3968:4085   */\n  iszero\n  tag_96\n  jumpi\n    /* \"#utility.yul\":4004:4083   */\n  tag_97\n  tag_12\n  jump\t// in\ntag_97:\n    /* \"#utility.yul\":3968:4085   */\ntag_96:\n    /* \"#utility.yul\":4109:4183   */\n  tag_98\n    /* \"#utility.yul\":4175:4182   */\n  dup10\n    /* \"#utility.yul\":4166:4172   */\n  dup3\n    /* \"#utility.yul\":4155:4164   */\n  dup11\n    /* \"#utility.yul\":4151:4173   */\n  add\n    /* \"#utility.yul\":4109:4183   */\n  tag_25\n  jump\t// in\ntag_98:\n    /* \"#utility.yul\":4099:4183   */\n  swap6\n  pop\n    /* \"#utility.yul\":3901:4193   */\n  pop\n    /* \"#utility.yul\":4253:4255   */\n  0x40\n    /* \"#utility.yul\":4242:4251   */\n  dup8\n    /* \"#utility.yul\":4238:4256   */\n  add\n    /* \"#utility.yul\":4232:4257   */\n  mload\n    /* \"#utility.yul\":4284:4302   */\n  0xffffffffffffffff\n    /* \"#utility.yul\":4276:4282   */\n  dup2\n    /* \"#utility.yul\":4273:4303   */\n  gt\n    /* \"#utility.yul\":4270:4387   */\n  iszero\n  tag_99\n  jumpi\n    /* \"#utility.yul\":4306:4385   */\n  tag_100\n  tag_12\n  jump\t// in\ntag_100:\n    /* \"#utility.yul\":4270:4387   */\ntag_99:\n    /* \"#utility.yul\":4411:4485   */\n  tag_101\n    /* \"#utility.yul\":4477:4484   */\n  dup10\n    /* \"#utility.yul\":4468:4474   */\n  dup3\n    /* \"#utility.yul\":4457:4466   */\n  dup11\n    /* \"#utility.yul\":4453:4475   */\n  add\n    /* \"#utility.yul\":4411:4485   */\n  tag_25\n  jump\t// in\ntag_101:\n    /* \"#utility.yul\":4401:4485   */\n  swap5\n  pop\n    /* \"#utility.yul\":4203:4495   */\n  pop\n    /* \"#utility.yul\":4534:4536   */\n  0x60\n    /* \"#utility.yul\":4560:4624   */\n  tag_102\n    /* \"#utility.yul\":4616:4623   */\n  dup10\n    /* \"#utility.yul\":4607:4613   */\n  dup3\n    /* \"#utility.yul\":4596:4605   */\n  dup11\n    /* \"#utility.yul\":4592:4614   */\n  add\n    /* \"#utility.yul\":4560:4624   */\n  tag_29\n  jump\t// in\ntag_102:\n    /* \"#utility.yul\":4550:4624   */\n  swap4\n  pop\n    /* \"#utility.yul\":4505:4634   */\n  pop\n    /* \"#utility.yul\":4673:4676   */\n  0x80\n    /* \"#utility.yul\":4700:4764   */\n  tag_103\n    /* \"#utility.yul\":4756:4763   */\n  dup10\n    /* \"#utility.yul\":4747:4753   */\n  dup3\n    /* \"#utility.yul\":4736:4745   */\n  dup11\n    /* \"#utility.yul\":4732:4754   */\n  add\n    /* \"#utility.yul\":4700:4764   */\n  tag_15\n  jump\t// in\ntag_103:\n    /* \"#utility.yul\":4690:4764   */\n  swap3\n  pop\n    /* \"#utility.yul\":4644:4774   */\n  pop\n    /* \"#utility.yul\":4813:4816   */\n  0xa0\n    /* \"#utility.yul\":4840:4904   */\n  tag_104\n    /* \"#utility.yul\":4896:4903   */\n  dup10\n    /* \"#utility.yul\":4887:4893   */\n  dup3\n    /* \"#utility.yul\":4876:4885   */\n  dup11\n    /* \"#utility.yul\":4872:4894   */\n  add\n    /* \"#utility.yul\":4840:4904   */\n  tag_29\n  jump\t// in\ntag_104:\n    /* \"#utility.yul\":4830:4904   */\n  swap2\n  pop\n    /* \"#utility.yul\":4784:4914   */\n  pop\n    /* \"#utility.yul\":3441:4921   */\n  swap3\n  swap6\n  pop\n  swap3\n  swap6\n  pop\n  swap3\n  swap6\n  jump\t// out\n    /* \"#utility.yul\":4927:5026   */\ntag_30:\n    /* \"#utility.yul\":4979:4985   */\n  0x00\n    /* \"#utility.yul\":5013:5018   */\n  dup2\n    /* \"#utility.yul\":5007:5019   */\n  mload\n    /* \"#utility.yul\":4997:5019   */\n  swap1\n  pop\n    /* \"#utility.yul\":4927:5026   */\n  swap2\n  swap1\n  pop\n  jump\t// out\n    /* \"#utility.yul\":5032:5212   */\ntag_31:\n    /* \"#utility.yul\":5080:5157   */\n  0x4e487b7100000000000000000000000000000000000000000000000000000000\n    /* \"#utility.yul\":5077:5078   */\n  0x00\n    /* \"#utility.yul\":5070:5158   */\n  mstore\n    /* \"#utility.yul\":5177:5181   */\n  0x22\n    /* \"#utility.yul\":5174:5175   */\n  0x04\n    /* \"#utility.yul\":5167:5182   */\n  mstore\n    /* \"#utility.yul\":5201:5205   */\n  0x24\n    /* \"#utility.yul\":5198:5199   */\n  0x00\n    /* \"#utility.yul\":5191:5206   */\n  revert\n    /* \"#utility.yul\":5218:5538   */\ntag_32:\n    /* \"#utility.yul\":5262:5268   */\n  0x00\n    /* \"#utility.yul\":5299:5300   */\n  0x02\n    /* \"#utility.yul\":5293:5297   */\n  dup3\n    /* \"#utility.yul\":5289:5301   */\n  div\n    /* \"#utility.yul\":5279:5301   */\n  swap1\n  pop\n    /* \"#utility.yul\":5346:5347   */\n  0x01\n    /* \"#utility.yul\":5340:5344   */\n  dup3\n    /* \"#utility.yul\":5336:5348   */\n  and\n    /* \"#utility.yul\":5367:5385   */\n  dup1\n    /* \"#utility.yul\":5357:5438   */\n  tag_108\n  jumpi\n    /* \"#utility.yul\":5423:5427   */\n  0x7f\n    /* \"#utility.yul\":5415:5421   */\n  dup3\n    /* \"#utility.yul\":5411:5428   */\n  and\n    /* \"#utility.yul\":5401:5428   */\n  swap2\n  pop\n    /* \"#utility.yul\":5357:5438   */\ntag_108:\n    /* \"#utility.yul\":5485:5487   */\n  0x20\n    /* \"#utility.yul\":5477:5483   */\n  dup3\n    /* \"#utility.yul\":5474:5488   */\n  lt\n    /* \"#utility.yul\":5454:5472   */\n  dup2\n    /* \"#utility.yul\":5451:5489   */\n  sub\n    /* \"#utility.yul\":5448:5532   */\n  tag_109\n  jumpi\n    /* \"#utility.yul\":5504:5522   */\n  tag_110\n  tag_31\n  jump\t// in\ntag_110:\n    /* \"#utility.yul\":5448:5532   */\ntag_109:\n    /* \"#utility.yul\":5269:5538   */\n  pop\n    /* \"#utility.yul\":5218:5538   */\n  swap2\n  swap1\n  pop\n  jump\t// out\n    /* \"#utility.yul\":5544:5685   */\ntag_33:\n    /* \"#utility.yul\":5593:5597   */\n  0x00\n    /* \"#utility.yul\":5616:5619   */\n  dup2\n    /* \"#utility.yul\":5608:5619   */\n  swap1\n  pop\n    /* \"#utility.yul\":5639:5642   */\n  dup2\n    /* \"#utility.yul\":5636:5637   */\n  0x00\n    /* \"#utility.yul\":5629:5643   */\n  mstore\n    /* \"#utility.yul\":5673:5677   */\n  0x20\n    /* \"#utility.yul\":5670:5671   */\n  0x00\n    /* \"#utility.yul\":5660:5678   */\n  keccak256\n    /* \"#utility.yul\":5652:5678   */\n  swap1\n  pop\n    /* \"#utility.yul\":5544:5685   */\n  swap2\n  swap1\n  pop\n  jump\t// out\n    /* \"#utility.yul\":5691:5784   */\ntag_34:\n    /* \"#utility.yul\":5728:5734   */\n  0x00\n    /* \"#utility.yul\":5775:5777   */\n  0x20\n    /* \"#utility.yul\":5770:5772   */\n  0x1f\n    /* \"#utility.yul\":5763:5768   */\n  dup4\n    /* \"#utility.yul\":5759:5773   */\n  add\n    /* \"#utility.yul\":5755:5778   */\n  div\n    /* \"#utility.yul\":5745:5778   */\n  swap1\n  pop\n    /* \"#utility.yul\":5691:5784   */\n  swap2\n  swap1\n  pop\n  jump\t// out\n    /* \"#utility.yul\":5790:5897   */\ntag_35:\n    /* \"#utility.yul\":5834:5842   */\n  0x00\n    /* \"#utility.yul\":5884:5889   */\n  dup3\n    /* \"#utility.yul\":5878:5882   */\n  dup3\n    /* \"#utility.yul\":5874:5890   */\n  shl\n    /* \"#utility.yul\":5853:5890   */\n  swap1\n  pop\n    /* \"#utility.yul\":5790:5897   */\n  swap3\n  swap2\n  pop\n  pop\n  jump\t// out\n    /* \"#utility.yul\":5903:6296   */\ntag_36:\n    /* \"#utility.yul\":5972:5978   */\n  0x00\n    /* \"#utility.yul\":6022:6023   */\n  0x08\n    /* \"#utility.yul\":6010:6020   */\n  dup4\n    /* \"#utility.yul\":6006:6024   */\n  mul\n    /* \"#utility.yul\":6045:6142   */\n  tag_115\n    /* \"#utility.yul\":6075:6141   */\n  0xffffffffffffffffffffffffffffffffffffffffffffffffffffffffffffffff\n    /* \"#utility.yul\":6064:6073   */\n  dup3\n    /* \"#utility.yul\":6045:6142   */\n  tag_35\n  jump\t// in\ntag_115:\n    /* \"#utility.yul\":6163:6202   */\n  tag_116\n    /* \"#utility.yul\":6193:6201   */\n  dup7\n    /* \"#utility.yul\":6182:6191   */\n  dup4\n    /* \"#utility.yul\":6163:6202   */\n  tag_35\n  jump\t// in\ntag_116:\n    /* \"#utility.yul\":6151:6202   */\n  swap6\n  pop\n    /* \"#utility.yul\":6235:6239   */\n  dup1\n    /* \"#utility.yul\":6231:6240   */\n  not\n    /* \"#utility.yul\":6224:6229   */\n  dup5\n    /* \"#utility.yul\":6220:6241   */\n  and\n    /* \"#utility.yul\":6211:6241   */\n  swap4\n  pop\n    /* \"#utility.yul\":6284:6288   */\n  dup1\n    /* \"#utility.yul\":6274:6282   */\n  dup7\n    /* \"#utility.yul\":6270:6289   */\n  and\n    /* \"#utility.yul\":6263:6268   */\n  dup5\n    /* \"#utility.yul\":6260:6290   */\n  or\n    /* \"#utility.yul\":6250:6290   */\n  swap3\n  pop\n    /* \"#utility.yul\":5979:6296   */\n  pop\n  pop\n    /* \"#utility.yul\":5903:6296   */\n  swap4\n  swap3\n  pop\n  pop\n  pop\n  jump\t// out\n    /* \"#utility.yul\":6302:6362   */\ntag_37:\n    /* \"#utility.yul\":6330:6333   */\n  0x00\n    /* \"#utility.yul\":6351:6356   */\n  dup2\n    /* \"#utility.yul\":6344:6356   */\n  swap1\n  pop\n    /* \"#utility.yul\":6302:6362   */\n  swap2\n  swap1\n  pop\n  jump\t// out\n    /* \"#utility.yul\":6368:6510   */\ntag_38:\n    /* \"#utility.yul\":6418:6427   */\n  0x00\n    /* \"#utility.yul\":6451:6504   */\n  tag_119\n    /* \"#utility.yul\":6469:6503   */\n  tag_120\n    /* \"#utility.yul\":6478:6502   */\n  tag_121\n    /* \"#utility.yul\":6496:6501   */\n  dup5\n    /* \"#utility.yul\":6478:6502   */\n  tag_13\n  jump\t// in\ntag_121:\n    /* \"#utility.yul\":6469:6503   */\n  tag_37\n  jump\t// in\ntag_120:\n    /* \"#utility.yul\":6451:6504   */\n  tag_13\n  jump\t// in\ntag_119:\n    /* \"#utility.yul\":6438:6504   */\n  swap1\n  pop\n    /* \"#utility.yul\":6368:6510   */\n  swap2\n  swap1\n  pop\n  jump\t// out\n    /* \"#utility.yul\":6516:6591   */\ntag_39:\n    /* \"#utility.yul\":6559:6562   */\n  0x00\n    /* \"#utility.yul\":6580:6585   */\n  dup2\n    /* \"#utility.yul\":6573:6585   */\n  swap1\n  pop\n    /* \"#utility.yul\":6516:6591   */\n  swap2\n  swap1\n  pop\n  jump\t// out\n    /* \"#utility.yul\":6597:6866   */\ntag_40:\n    /* \"#utility.yul\":6707:6746   */\n  tag_124\n    /* \"#utility.yul\":6738:6745   */\n  dup4\n    /* \"#utility.yul\":6707:6746   */\n  tag_38\n  jump\t// in\ntag_124:\n    /* \"#utility.yul\":6768:6859   */\n  tag_125\n    /* \"#utility.yul\":6817:6858   */\n  tag_126\n    /* \"#utility.yul\":6841:6857   */\n  dup3\n    /* \"#utility.yul\":6817:6858   */\n  tag_39\n  jump\t// in\ntag_126:\n    /* \"#utility.yul\":6809:6815   */\n  dup5\n    /* \"#utility.yul\":6802:6806   */\n  dup5\n    /* \"#utility.yul\":6796:6807   */\n  sload\n    /* \"#utility.yul\":6768:6859   */\n  tag_36\n  jump\t// in\ntag_125:\n    /* \"#utility.yul\":6762:6766   */\n  dup3\n    /* \"#utility.yul\":6755:6860   */\n  sstore\n    /* \"#utility.yul\":6673:6866   */\n  pop\n    /* \"#utility.yul\":6597:6866   */\n  pop\n  pop\n  pop\n  jump\t// out\n    /* \"#utility.yul\":6872:6945   */\ntag_41:\n    /* \"#utility.yul\":6917:6920   */\n  0x00\n    /* \"#utility.yul\":6938:6939   */\n  0x00\n    /* \"#utility.yul\":6931:6939   */\n  swap1\n  pop\n    /* \"#utility.yul\":6872:6945   */\n  swap1\n  jump\t// out\n    /* \"#utility.yul\":6951:7140   */\ntag_42:\n    /* \"#utility.yul\":7028:7060   */\n  tag_129\n  tag_41\n  jump\t// in\ntag_129:\n    /* \"#utility.yul\":7069:7134   */\n  tag_130\n    /* \"#utility.yul\":7127:7133   */\n  dup2\n    /* \"#utility.yul\":7119:7125   */\n  dup5\n    /* \"#utility.yul\":7113:7117   */\n  dup5\n    /* \"#utility.yul\":7069:7134   */\n  tag_40\n  jump\t// in\ntag_130:\n    /* \"#utility.yul\":7004:7140   */\n  pop\n    /* \"#utility.yul\":6951:7140   */\n  pop\n  pop\n  jump\t// out\n    /* \"#utility.yul\":7146:7360   */\ntag_43:\n    /* \"#utility.yul\":7231:7232   */\n  0x00\n    /* \"#utility.yul\":7216:7354   */\ntag_132:\n    /* \"#utility.yul\":7241:7250   */\n  dup3\n    /* \"#utility.yul\":7238:7239   */\n  dup2\n    /* \"#utility.yul\":7235:7251   */\n  lt\n    /* \"#utility.yul\":7216:7354   */\n  iszero\n  tag_134\n  jumpi\n    /* \"#utility.yul\":7293:7344   */\n  tag_135\n    /* \"#utility.yul\":7342:7343   */\n  0x00\n    /* \"#utility.yul\":7338:7339   */\n  dup3\n    /* \"#utility.yul\":7327:7336   */\n  dup5\n    /* \"#utility.yul\":7323:7340   */\n  add\n    /* \"#utility.yul\":7293:7344   */\n  tag_42\n  jump\t// in\ntag_135:\n    /* \"#utility.yul\":7266:7267   */\n  0x01\n    /* \"#utility.yul\":7263:7264   */\n  dup2\n    /* \"#utility.yul\":7259:7268   */\n  add\n    /* \"#utility.yul\":7254:7268   */\n  swap1\n  pop\n    /* \"#utility.yul\":7216:7354   */\n  jump(tag_132)\ntag_134:\n    /* \"#utility.yul\":7220:7234   */\n  pop\n    /* \"#utility.yul\":7146:7360   */\n  pop\n  pop\n  jump\t// out\n    /* \"#utility.yul\":7366:8112   */\ntag_44:\n    /* \"#utility.yul\":7467:7469   */\n  0x1f\n    /* \"#utility.yul\":7462:7465   */\n  dup3\n    /* \"#utility.yul\":7459:7470   */\n  gt\n    /* \"#utility.yul\":7456:8105   */\n  iszero\n  tag_137\n  jumpi\n    /* \"#utility.yul\":7496:7506   */\n  dup3\n    /* \"#utility.yul\":7491:7494   */\n  dup3\n    /* \"#utility.yul\":7488:7507   */\n  gt\n    /* \"#utility.yul\":7485:8095   */\n  iszero\n  tag_138\n  jumpi\n    /* \"#utility.yul\":7542:7580   */\n  tag_139\n    /* \"#utility.yul\":7574:7579   */\n  dup2\n    /* \"#utility.yul\":7542:7580   */\n  tag_33\n  jump\t// in\ntag_139:\n    /* \"#utility.yul\":7617:7639   */\n  tag_140\n    /* \"#utility.yul\":7635:7638   */\n  dup4\n    /* \"#utility.yul\":7617:7639   */\n  tag_34\n  jump\t// in\ntag_140:\n    /* \"#utility.yul\":7676:7705   */\n  tag_141\n    /* \"#utility.yul\":7694:7704   */\n  dup6\n    /* \"#utility.yul\":7676:7705   */\n  tag_34\n  jump\t// in\ntag_141:\n    /* \"#utility.yul\":7866:7868   */\n  0x20\n    /* \"#utility.yul\":7854:7864   */\n  dup7\n    /* \"#utility.yul\":7851:7869   */\n  lt\n    /* \"#utility.yul\":7848:7927   */\n  iszero\n  tag_142\n  jumpi\n    /* \"#utility.yul\":7908:7909   */\n  0x00\n    /* \"#utility.yul\":7892:7909   */\n  swap1\n  pop\n    /* \"#utility.yul\":7848:7927   */\ntag_142:\n    /* \"#utility.yul\":7977:7989   */\n  dup1\n    /* \"#utility.yul\":7967:7975   */\n  dup4\n    /* \"#utility.yul\":7963:7990   */\n  add\n    /* \"#utility.yul\":8007:8081   */\n  tag_143\n    /* \"#utility.yul\":8067:8079   */\n  dup3\n    /* \"#utility.yul\":8053:8065   */\n  dup5\n    /* \"#utility.yul\":8049:8080   */\n  sub\n    /* \"#utility.yul\":8036:8047   */\n  dup3\n    /* \"#utility.yul\":8007:8081   */\n  tag_43\n  jump\t// in\ntag_143:\n    /* \"#utility.yul\":7508:8095   */\n  pop\n  pop\n  pop\n  pop\n    /* \"#utility.yul\":7485:8095   */\ntag_138:\n    /* \"#utility.yul\":7456:8105   */\ntag_137:\n    /* \"#utility.yul\":7366:8112   */\n  pop\n  pop\n  pop\n  jump\t// out\n    /* \"#utility.yul\":8118:8235   */\ntag_45:\n    /* \"#utility.yul\":8172:8180   */\n  0x00\n    /* \"#utility.yul\":8222:8227   */\n  dup3\n    /* \"#utility.yul\":8216:8220   */\n  dup3\n    /* \"#utility.yul\":8212:8228   */\n  shr\n    /* \"#utility.yul\":8191:8228   */\n  swap1\n  pop\n    /* \"#utility.yul\":8118:8235   */\n  swap3\n  swap2\n  pop\n  pop\n  jump\t// out\n    /* \"#utility.yul\":8241:8410   */\ntag_46:\n    /* \"#utility.yul\":8285:8291   */\n  0x00\n    /* \"#utility.yul\":8318:8369   */\n  tag_146\n    /* \"#utility.yul\":8366:8367   */\n  0x00\n    /* \"#utility.yul\":8362:8368   */\n  not\n    /* \"#utility.yul\":8354:8359   */\n  dup5\n    /* \"#utility.yul\":8351:8352   */\n  0x08\n    /* \"#utility.yul\":8347:8360   */\n  mul\n    /* \"#utility.yul\":8318:8369   */\n  tag_45\n  jump\t// in\ntag_146:\n    /* \"#utility.yul\":8314:8370   */\n  not\n    /* \"#utility.yul\":8399:8403   */\n  dup1\n    /* \"#utility.yul\":8393:8397   */\n  dup4\n    /* \"#utility.yul\":8389:8404   */\n  and\n    /* \"#utility.yul\":8379:8404   */\n  swap2\n  pop\n    /* \"#utility.yul\":8292:8410   */\n  pop\n    /* \"#utility.yul\":8241:8410   */\n  swap3\n  swap2\n  pop\n  pop\n  jump\t// out\n    /* \"#utility.yul\":8415:8710   */\ntag_47:\n    /* \"#utility.yul\":8491:8495   */\n  0x00\n    /* \"#utility.yul\":8637:8666   */\n  tag_148\n    /* \"#utility.yul\":8662:8665   */\n  dup4\n    /* \"#utility.yul\":8656:8660   */\n  dup4\n    /* \"#utility.yul\":8637:8666   */\n  tag_46\n  jump\t// in\ntag_148:\n    /* \"#utility.yul\":8629:8666   */\n  swap2\n  pop\n    /* \"#utility.yul\":8699:8702   */\n  dup3\n    /* \"#utility.yul\":8696:8697   */\n  0x02\n    /* \"#utility.yul\":8692:8703   */\n  mul\n    /* \"#utility.yul\":8686:8690   */\n  dup3\n    /* \"#utility.yul\":8683:8704   */\n  or\n    /* \"#utility.yul\":8675:8704   */\n  swap1\n  pop\n    /* \"#utility.yul\":8415:8710   */\n  swap3\n  swap2\n  pop\n  pop\n  jump\t// out\n    /* \"#utility.yul\":8715:10110   */\ntag_7:\n    /* \"#utility.yul\":8832:8869   */\n  tag_150\n    /* \"#utility.yul\":8865:8868   */\n  dup3\n    /* \"#utility.yul\":8832:8869   */\n  tag_30\n  jump\t// in\ntag_150:\n    /* \"#utility.yul\":8934:8952   */\n  0xffffffffffffffff\n    /* \"#utility.yul\":8926:8932   */\n  dup2\n    /* \"#utility.yul\":8923:8953   */\n  gt\n    /* \"#utility.yul\":8920:8976   */\n  iszero\n  tag_151\n  jumpi\n    /* \"#utility.yul\":8956:8974   */\n  tag_152\n  tag_19\n  jump\t// in\ntag_152:\n    /* \"#utility.yul\":8920:8976   */\ntag_151:\n    /* \"#utility.yul\":9000:9038   */\n  tag_153\n    /* \"#utility.yul\":9032:9036   */\n  dup3\n    /* \"#utility.yul\":9026:9037   */\n  sload\n    /* \"#utility.yul\":9000:9038   */\n  tag_32\n  jump\t// in\ntag_153:\n    /* \"#utility.yul\":9085:9152   */\n  tag_154\n    /* \"#utility.yul\":9145:9151   */\n  dup3\n    /* \"#utility.yul\":9137:9143   */\n  dup3\n    /* \"#utility.yul\":9131:9135   */\n  dup6\n    /* \"#utility.yul\":9085:9152   */\n  tag_44\n  jump\t// in\ntag_154:\n    /* \"#utility.yul\":9179:9180   */\n  0x00\n    /* \"#utility.yul\":9203:9207   */\n  0x20\n    /* \"#utility.yul\":9190:9207   */\n  swap1\n  pop\n    /* \"#utility.yul\":9235:9237   */\n  0x1f\n    /* \"#utility.yul\":9227:9233   */\n  dup4\n    /* \"#utility.yul\":9224:9238   */\n  gt\n    /* \"#utility.yul\":9252:9253   */\n  0x01\n    /* \"#utility.yul\":9247:9865   */\n  dup2\n  eq\n  tag_156\n  jumpi\n    /* \"#utility.yul\":9909:9910   */\n  0x00\n    /* \"#utility.yul\":9926:9932   */\n  dup5\n    /* \"#utility.yul\":9923:10000   */\n  iszero\n  tag_157\n  jumpi\n    /* \"#utility.yul\":9975:9984   */\n  dup3\n    /* \"#utility.yul\":9970:9973   */\n  dup8\n    /* \"#utility.yul\":9966:9985   */\n  add\n    /* \"#utility.yul\":9960:9986   */\n  mload\n    /* \"#utility.yul\":9951:9986   */\n  swap1\n  pop\n    /* \"#utility.yul\":9923:10000   */\ntag_157:\n    /* \"#utility.yul\":10026:10093   */\n  tag_158\n    /* \"#utility.yul\":10086:10092   */\n  dup6\n    /* \"#utility.yul\":10079:10084   */\n  dup3\n    /* \"#utility.yul\":10026:10093   */\n  tag_47\n  jump\t// in\ntag_158:\n    /* \"#utility.yul\":10020:10024   */\n  dup7\n    /* \"#utility.yul\":10013:10094   */\n  sstore\n    /* \"#utility.yul\":9882:10104   */\n  pop\n    /* \"#utility.yul\":9217:10104   */\n  jump(tag_155)\n    /* \"#utility.yul\":9247:9865   */\ntag_156:\n    /* \"#utility.yul\":9299:9303   */\n  0x1f\n    /* \"#utility.yul\":9295:9304   */\n  not\n    /* \"#utility.yul\":9287:9293   */\n  dup5\n    /* \"#utility.yul\":9283:9305   */\n  and\n    /* \"#utility.yul\":9333:9370   */\n  tag_159\n    /* \"#utility.yul\":9365:9369   */\n  dup7\n    /* \"#utility.yul\":9333:9370   */\n  tag_33\n  jump\t// in\ntag_159:\n    /* \"#utility.yul\":9392:9393   */\n  0x00\n    /* \"#utility.yul\":9406:9614   */\ntag_160:\n    /* \"#utility.yul\":9420:9427   */\n  dup3\n    /* \"#utility.yul\":9417:9418   */\n  dup2\n    /* \"#utility.yul\":9414:9428   */\n  lt\n    /* \"#utility.yul\":9406:9614   */\n  iszero\n  tag_162\n  jumpi\n    /* \"#utility.yul\":9499:9508   */\n  dup5\n    /* \"#utility.yul\":9494:9497   */\n  dup10\n    /* \"#utility.yul\":9490:9509   */\n  add\n    /* \"#utility.yul\":9484:9510   */\n  mload\n    /* \"#utility.yul\":9476:9482   */\n  dup3\n    /* \"#utility.yul\":9469:9511   */\n  sstore\n    /* \"#utility.yul\":9550:9551   */\n  0x01\n    /* \"#utility.yul\":9542:9548   */\n  dup3\n    /* \"#utility.yul\":9538:9552   */\n  add\n    /* \"#utility.yul\":9528:9552   */\n  swap2\n  pop\n    /* \"#utility.yul\":9597:9599   */\n  0x20\n    /* \"#utility.yul\":9586:9595   */\n  dup6\n    /* \"#utility.yul\":9582:9600   */\n  add\n    /* \"#utility.yul\":9569:9600   */\n  swap5\n  pop\n    /* \"#utility.yul\":9443:9447   */\n  0x20\n    /* \"#utility.yul\":9440:9441   */\n  dup2\n    /* \"#utility.yul\":9436:9448   */\n  add\n    /* \"#utility.yul\":9431:9448   */\n  swap1\n  pop\n    /* \"#utility.yul\":9406:9614   */\n  jump(tag_160)\ntag_162:\n    /* \"#utility.yul\":9642:9648   */\n  dup7\n    /* \"#utility.yul\":9633:9640   */\n  dup4\n    /* \"#utility.yul\":9630:9649   */\n  lt\n    /* \"#utility.yul\":9627:9806   */\n  iszero\n  tag_163\n  jumpi\n    /* \"#utility.yul\":9700:9709   */\n  dup5\n    /* \"#utility.yul\":9695:9698   */\n  dup10\n    /* \"#utility.yul\":9691:9710   */\n  add\n    /* \"#utility.yul\":9685:9711   */\n  mload\n    /* \"#utility.yul\":9743:9791   */\n  tag_164\n    /* \"#utility.yul\":9785:9789   */\n  0x1f\n    /* \"#utility.yul\":9777:9783   */\n  dup10\n    /* \"#utility.yul\":9773:9790   */\n  and\n    /* \"#utility.yul\":9762:9771   */\n  dup3\n    /* \"#utility.yul\":9743:9791   */\n  tag_46\n  jump\t// in\ntag_164:\n    /* \"#utility.yul\":9735:9741   */\n  dup4\n    /* \"#utility.yul\":9728:9792   */\n  sstore\n    /* \"#utility.yul\":9650:9806   */\n  pop\n    /* \"#utility.yul\":9627:9806   */\ntag_163:\n    /* \"#utility.yul\":9852:9853   */\n  0x01\n    /* \"#utility.yul\":9848:9849   */\n  0x02\n    /* \"#utility.yul\":9840:9846   */\n  dup9\n    /* \"#utility.yul\":9836:9850   */\n  mul\n    /* \"#utility.yul\":9832:9854   */\n  add\n    /* \"#utility.yul\":9826:9830   */\n  dup9\n    /* \"#utility.yul\":9819:9855   */\n  sstore\n    /* \"#utility.yul\":9254:9865   */\n  pop\n  pop\n  pop\n    /* \"#utility.yul\":9217:10104   */\ntag_155:\n  pop\n    /* \"#utility.yul\":8807:10110   */\n  pop\n  pop\n  pop\n    /* \"#utility.yul\":8715:10110   */\n  pop\n  pop\n  jump\t// out\n    /* \"Campaign.sol\":561:7721  contract Campaign {... */\ntag_9:\n  dataSize(sub_0)\n  dup1\n  dataOffset(sub_0)\n  0x00\n  codecopy\n  0x00\n  return\nstop\n\nsub_0: assembly {\n        /* \"Campaign.sol\":561:7721  contract Campaign {... */\n      mstore(0x40, 0x80)\n      jumpi(tag_1, lt(calldatasize, 0x04))\n      shr(0xe0, calldataload(0x00))\n      dup1\n      0x7b87d856\n      gt\n      tag_29\n      jumpi\n      dup1\n      0xa39fac12\n      gt\n      tag_30\n      jumpi\n      dup1\n      0xc8b342ab\n      gt\n      tag_31\n      jumpi\n      dup1\n      0xc8b342ab\n      eq\n      tag_25\n      jumpi\n      dup1\n      0xd57bde79\n      eq\n      tag_26\n      jumpi\n      dup1\n      0xd7bb99ba\n      eq\n      tag_27\n      jumpi\n      dup1\n      0xedf26d9b\n      eq\n      tag_28\n      jumpi\n      jump(tag_1)\n    tag_31:\n      dup1\n      0xa39fac12\n      eq\n      tag_22\n      jumpi\n      dup1\n      0xc45a0155\n      eq\n      tag_23\n      jumpi\n      dup1\n      0xc6f56901\n      eq\n      tag_24\n      jumpi\n      jump(tag_1)\n    tag_30:\n      dup1\n      0x91f90157\n      gt\n      tag_32\n      jumpi\n      dup1\n      0x91f90157\n      eq\n      tag_18\n      jumpi\n      dup1\n      0x937e09b1\n      eq\n      tag_19\n      jumpi\n      dup1\n      0x976af615\n      eq\n      tag_20\n      jumpi\n      dup1\n      0x9ace38c2\n      eq\n      tag_21\n      jumpi\n      jump(tag_1)\n    tag_32:\n      dup1\n      0x7b87d856\n      eq\n      tag_15\n      jumpi\n      dup1\n      0x82fde093\n      eq\n      tag_16\n      jumpi\n      dup1\n      0x83920e90\n      eq\n      tag_17\n      jumpi\n      jump(tag_1)\n    tag_29:\n      dup1\n      0x4051ddac\n      gt\n      tag_33\n      jumpi\n      dup1\n      0x58d65629\n      gt\n      tag_34\n      jumpi\n      dup1\n      0x58d65629\n      eq\n      tag_11\n      jumpi\n      dup1\n      0x597e1fb5\n      eq\n      tag_12\n      jumpi\n      dup1\n      0x5dc1d641\n      eq\n      tag_13\n      jumpi\n      dup1\n      0x7914135e\n      eq\n      tag_14\n      jumpi\n      jump(tag_1)\n    tag_34:\n      dup1\n      0x4051ddac\n      eq\n      tag_8\n      jumpi\n      dup1\n      0x481c6a75\n      eq\n      tag_9\n      jumpi\n      dup1\n      0x4e69d560\n      eq\n      tag_10\n      jumpi\n      jump(tag_1)\n    tag_33:\n      dup1\n      0x05281103\n      eq\n      tag_2\n      jumpi\n      dup1\n      0x074d55c4\n      eq\n      tag_3\n      jumpi\n      dup1\n      0x0a144391\n      eq\n      tag_4\n      jumpi\n      dup1\n      0x110f8874\n      eq\n      tag_5\n      jumpi\n      dup1\n      0x3197cbb6\n      eq\n      tag_6\n      jumpi\n      dup1\n      0x3bc5de30\n      eq\n      tag_7\n      jumpi\n    tag_1:\n      revert(0x00, 0x00)\n        /* \"Campaign.sol\":7246:7719  function getUserAuctionStatus(address user)... */\n    tag_2:\n      callvalue\n      dup1\n      iszero\n      tag_35\n      jumpi\n      revert(0x00, 0x00)\n    tag_35:\n      pop\n      tag_36\n      0x04\n      dup1\n      calldatasize\n      sub\n      dup2\n      add\n      swap1\n      tag_37\n      swap2\n      swap1\n      tag_38\n      jump\t// in\n    tag_37:\n      tag_39\n      jump\t// in\n    tag_36:\n      mload(0x40)\n      tag_40\n      swap6\n      swap5\n      swap4\n      swap3\n      swap2\n      swap1\n      tag_41\n      jump\t// in\n    tag_40:\n      mload(0x40)\n      dup1\n      swap2\n      sub\n      swap1\n      return\n        /* \"Campaign.sol\":1375:1405  uint256 public nextRefundIndex */\n    tag_3:\n      callvalue\n      dup1\n      iszero\n      tag_42\n      jumpi\n      revert(0x00, 0x00)\n    tag_42:\n      pop\n      tag_43\n      tag_44\n      jump\t// in\n    tag_43:\n      mload(0x40)\n      tag_45\n      swap2\n      swap1\n      tag_46\n      jump\t// in\n    tag_45:\n      mload(0x40)\n      dup1\n      swap2\n      sub\n      swap1\n      return\n        /* \"Campaign.sol\":1049:1090  mapping(address => bool) public approvers */\n    tag_4:\n      callvalue\n      dup1\n      iszero\n      tag_47\n      jumpi\n      revert(0x00, 0x00)\n    tag_47:\n      pop\n      tag_48\n      0x04\n      dup1\n      calldatasize\n      sub\n      dup2\n      add\n      swap1\n      tag_49\n      swap2\n      swap1\n      tag_38\n      jump\t// in\n    tag_49:\n      tag_50\n      jump\t// in\n    tag_48:\n      mload(0x40)\n      tag_51\n      swap2\n      swap1\n      tag_52\n      jump\t// in\n    tag_51:\n      mload(0x40)\n      dup1\n      swap2\n      sub\n      swap1\n      return\n        /* \"Campaign.sol\":4201:4693  function withdrawRefund() public {... */\n    tag_5:\n      callvalue\n      dup1\n      iszero\n      tag_53\n      jumpi\n      revert(0x00, 0x00)\n    tag_53:\n      pop\n      tag_54\n      tag_55\n      jump\t// in\n    tag_54:\n      stop\n        /* \"Campaign.sol\":1323:1345  uint256 public endTime */\n    tag_6:\n      callvalue\n      dup1\n      iszero\n      tag_56\n      jumpi\n      revert(0x00, 0x00)\n    tag_56:\n      pop\n      tag_57\n      tag_58\n      jump\t// in\n    tag_57:\n      mload(0x40)\n      tag_59\n      swap2\n      swap1\n      tag_46\n      jump\t// in\n    tag_59:\n      mload(0x40)\n      dup1\n      swap2\n      sub\n      swap1\n      return\n        /* \"Campaign.sol\":5888:6113  function getData() public view returns (string memory) {... */\n    tag_7:\n      callvalue\n      dup1\n      iszero\n      tag_60\n      jumpi\n      revert(0x00, 0x00)\n    tag_60:\n      pop\n      tag_61\n      tag_62\n      jump\t// in\n    tag_61:\n      mload(0x40)\n      tag_63\n      swap2\n      swap1\n      tag_64\n      jump\t// in\n    tag_63:\n      mload(0x40)\n      dup1\n      swap2\n      sub\n      swap1\n      return\n        /* \"Campaign.sol\":6227:6769  function getSummary()... */\n    tag_8:\n      callvalue\n      dup1\n      iszero\n      tag_65\n      jumpi\n      revert(0x00, 0x00)\n    tag_65:\n      pop\n      tag_66\n      tag_67\n      jump\t// in\n    tag_66:\n      mload(0x40)\n      tag_68\n      swap11\n      swap10\n      swap9\n      swap8\n      swap7\n      swap6\n      swap5\n      swap4\n      swap3\n      swap2\n      swap1\n      tag_69\n      jump\t// in\n    tag_68:\n      mload(0x40)\n      dup1\n      swap2\n      sub\n      swap1\n      return\n        /* \"Campaign.sol\":909:931  address public manager */\n    tag_9:\n      callvalue\n      dup1\n      iszero\n      tag_70\n      jumpi\n      revert(0x00, 0x00)\n    tag_70:\n      pop\n      tag_71\n      tag_72\n      jump\t// in\n    tag_71:\n      mload(0x40)\n      tag_73\n      swap2\n      swap1\n      tag_74\n      jump\t// in\n    tag_73:\n      mload(0x40)\n      dup1\n      swap2\n      sub\n      swap1\n      return\n        /* \"Campaign.sol\":5574:5654  function getStatus() public view returns (bool) {... */\n    tag_10:\n      callvalue\n      dup1\n      iszero\n      tag_75\n      jumpi\n      revert(0x00, 0x00)\n    tag_75:\n      pop\n      tag_76\n      tag_77\n      jump\t// in\n    tag_76:\n      mload(0x40)\n      tag_78\n      swap2\n      swap1\n      tag_52\n      jump\t// in\n    tag_78:\n      mload(0x40)\n      dup1\n      swap2\n      sub\n      swap1\n      return\n        /* \"Campaign.sol\":1011:1040  string public dataDescription */\n    tag_11:\n      callvalue\n      dup1\n      iszero\n      tag_79\n      jumpi\n      revert(0x00, 0x00)\n    tag_79:\n      pop\n      tag_80\n      tag_81\n      jump\t// in\n    tag_80:\n      mload(0x40)\n      tag_82\n      swap2\n      swap1\n      tag_64\n      jump\t// in\n    tag_82:\n      mload(0x40)\n      dup1\n      swap2\n      sub\n      swap1\n      return\n        /* \"Campaign.sol\":1351:1369  bool public closed */\n    tag_12:\n      callvalue\n      dup1\n      iszero\n      tag_83\n      jumpi\n      revert(0x00, 0x00)\n    tag_83:\n      pop\n      tag_84\n      tag_85\n      jump\t// in\n    tag_84:\n      mload(0x40)\n      tag_86\n      swap2\n      swap1\n      tag_52\n      jump\t// in\n    tag_86:\n      mload(0x40)\n      dup1\n      swap2\n      sub\n      swap1\n      return\n        /* \"Campaign.sol\":1097:1146  mapping(address => uint256) public approversMoney */\n    tag_13:\n      callvalue\n      dup1\n      iszero\n      tag_87\n      jumpi\n      revert(0x00, 0x00)\n    tag_87:\n      pop\n      tag_88\n      0x04\n      dup1\n      calldatasize\n      sub\n      dup2\n      add\n      swap1\n      tag_89\n      swap2\n      swap1\n      tag_38\n      jump\t// in\n    tag_89:\n      tag_90\n      jump\t// in\n    tag_88:\n      mload(0x40)\n      tag_91\n      swap2\n      swap1\n      tag_46\n      jump\t// in\n    tag_91:\n      mload(0x40)\n      dup1\n      swap2\n      sub\n      swap1\n      return\n        /* \"Campaign.sol\":6775:7240  function getListSummary()... */\n    tag_14:\n      callvalue\n      dup1\n      iszero\n      tag_92\n      jumpi\n      revert(0x00, 0x00)\n    tag_92:\n      pop\n      tag_93\n      tag_94\n      jump\t// in\n    tag_93:\n      mload(0x40)\n      tag_95\n      swap10\n      swap9\n      swap8\n      swap7\n      swap6\n      swap5\n      swap4\n      swap3\n      swap2\n      swap1\n      tag_96\n      jump\t// in\n    tag_95:\n      mload(0x40)\n      dup1\n      swap2\n      sub\n      swap1\n      return\n        /* \"Campaign.sol\":979:1004  string public dataForSell */\n    tag_15:\n      callvalue\n      dup1\n      iszero\n      tag_97\n      jumpi\n      revert(0x00, 0x00)\n    tag_97:\n      pop\n      tag_98\n      tag_99\n      jump\t// in\n    tag_98:\n      mload(0x40)\n      tag_100\n      swap2\n      swap1\n      tag_64\n      jump\t// in\n    tag_100:\n      mload(0x40)\n      dup1\n      swap2\n      sub\n      swap1\n      return\n        /* \"Campaign.sol\":1153:1182  uint256 public approversCount */\n    tag_16:\n      callvalue\n      dup1\n      iszero\n      tag_101\n      jumpi\n      revert(0x00, 0x00)\n    tag_101:\n      pop\n      tag_102\n      tag_103\n      jump\t// in\n    tag_102:\n      mload(0x40)\n      tag_104\n      swap2\n      swap1\n      tag_46\n      jump\t// in\n    tag_104:\n      mload(0x40)\n      dup1\n      swap2\n      sub\n      swap1\n      return\n        /* \"Campaign.sol\":5780:5880  function getTransactions() public view returns (Bid[] memory) {... */\n    tag_17:\n      callvalue\n      dup1\n      iszero\n      tag_105\n      jumpi\n      revert(0x00, 0x00)\n    tag_105:\n      pop\n      tag_106\n      tag_107\n      jump\t// in\n    tag_106:\n      mload(0x40)\n      tag_108\n      swap2\n      swap1\n      tag_109\n      jump\t// in\n    tag_108:\n      mload(0x40)\n      dup1\n      swap2\n      sub\n      swap1\n      return\n        /* \"Campaign.sol\":1258:1286  address public highestBidder */\n    tag_18:\n      callvalue\n      dup1\n      iszero\n      tag_110\n      jumpi\n      revert(0x00, 0x00)\n    tag_110:\n      pop\n      tag_111\n      tag_112\n      jump\t// in\n    tag_111:\n      mload(0x40)\n      tag_113\n      swap2\n      swap1\n      tag_74\n      jump\t// in\n    tag_113:\n      mload(0x40)\n      dup1\n      swap2\n      sub\n      swap1\n      return\n        /* \"Campaign.sol\":938:972  uint256 public minimumContribution */\n    tag_19:\n      callvalue\n      dup1\n      iszero\n      tag_114\n      jumpi\n      revert(0x00, 0x00)\n    tag_114:\n      pop\n      tag_115\n      tag_116\n      jump\t// in\n    tag_115:\n      mload(0x40)\n      tag_117\n      swap2\n      swap1\n      tag_46\n      jump\t// in\n    tag_117:\n      mload(0x40)\n      dup1\n      swap2\n      sub\n      swap1\n      return\n        /* \"Campaign.sol\":3645:4195  function finalizeAuctionIfNeeded() public onlyAfterEnd {... */\n    tag_20:\n      callvalue\n      dup1\n      iszero\n      tag_118\n      jumpi\n      revert(0x00, 0x00)\n    tag_118:\n      pop\n      tag_119\n      tag_120\n      jump\t// in\n    tag_119:\n      stop\n        /* \"Campaign.sol\":1224:1249  Bid[] public transactions */\n    tag_21:\n      callvalue\n      dup1\n      iszero\n      tag_121\n      jumpi\n      revert(0x00, 0x00)\n    tag_121:\n      pop\n      tag_122\n      0x04\n      dup1\n      calldatasize\n      sub\n      dup2\n      add\n      swap1\n      tag_123\n      swap2\n      swap1\n      tag_124\n      jump\t// in\n    tag_123:\n      tag_125\n      jump\t// in\n    tag_122:\n      mload(0x40)\n      tag_126\n      swap4\n      swap3\n      swap2\n      swap1\n      tag_127\n      jump\t// in\n    tag_126:\n      mload(0x40)\n      dup1\n      swap2\n      sub\n      swap1\n      return\n        /* \"Campaign.sol\":6121:6219  function getAddresses() public view returns (address[] memory) {... */\n    tag_22:\n      callvalue\n      dup1\n      iszero\n      tag_128\n      jumpi\n      revert(0x00, 0x00)\n    tag_128:\n      pop\n      tag_129\n      tag_130\n      jump\t// in\n    tag_129:\n      mload(0x40)\n      tag_131\n      swap2\n      swap1\n      tag_132\n      jump\t// in\n    tag_131:\n      mload(0x40)\n      dup1\n      swap2\n      sub\n      swap1\n      return\n        /* \"Campaign.sol\":586:616  CampaignFactory public factory */\n    tag_23:\n      callvalue\n      dup1\n      iszero\n      tag_133\n      jumpi\n      revert(0x00, 0x00)\n    tag_133:\n      pop\n      tag_134\n      tag_135\n      jump\t// in\n    tag_134:\n      mload(0x40)\n      tag_136\n      swap2\n      swap1\n      tag_137\n      jump\t// in\n    tag_136:\n      mload(0x40)\n      dup1\n      swap2\n      sub\n      swap1\n      return\n        /* \"Campaign.sol\":4699:5567  function processRefunds(uint256 maxRefunds) public {... */\n    tag_24:\n      callvalue\n      dup1\n      iszero\n      tag_138\n      jumpi\n      revert(0x00, 0x00)\n    tag_138:\n      pop\n      tag_139\n      0x04\n      dup1\n      calldatasize\n      sub\n      dup2\n      add\n      swap1\n      tag_140\n      swap2\n      swap1\n      tag_124\n      jump\t// in\n    tag_140:\n      tag_141\n      jump\t// in\n    tag_139:\n      stop\n        /* \"Campaign.sol\":5662:5772  function getBid(address bidder) public view returns (uint256) {... */\n    tag_25:\n      callvalue\n      dup1\n      iszero\n      tag_142\n      jumpi\n      revert(0x00, 0x00)\n    tag_142:\n      pop\n      tag_143\n      0x04\n      dup1\n      calldatasize\n      sub\n      dup2\n      add\n      swap1\n      tag_144\n      swap2\n      swap1\n      tag_38\n      jump\t// in\n    tag_144:\n      tag_145\n      jump\t// in\n    tag_143:\n      mload(0x40)\n      tag_146\n      swap2\n      swap1\n      tag_46\n      jump\t// in\n    tag_146:\n      mload(0x40)\n      dup1\n      swap2\n      sub\n      swap1\n      return\n        /* \"Campaign.sol\":1292:1317  uint256 public highestBid */\n    tag_26:\n      callvalue\n      dup1\n      iszero\n      tag_147\n      jumpi\n      revert(0x00, 0x00)\n    tag_147:\n      pop\n      tag_148\n      tag_149\n      jump\t// in\n    tag_148:\n      mload(0x40)\n      tag_150\n      swap2\n      swap1\n      tag_46\n      jump\t// in\n    tag_150:\n      mload(0x40)\n      dup1\n      swap2\n      sub\n      swap1\n      return\n        /* \"Campaign.sol\":2104:3637  function contribute() public payable onlyBeforeEnd {... */\n    tag_27:\n      tag_151\n      tag_152\n      jump\t// in\n    tag_151:\n      stop\n        /* \"Campaign.sol\":1191:1217  address[] public addresses */\n    tag_28:\n      callvalue\n      dup1\n      iszero\n      tag_153\n      jumpi\n      revert(0x00, 0x00)\n    tag_153:\n      pop\n      tag_154\n      0x04\n      dup1\n      calldatasize\n      sub\n      dup2\n      add\n      swap1\n      tag_155\n      swap2\n      swap1\n      tag_124\n      jump\t// in\n    tag_155:\n      tag_156\n      jump\t// in\n    tag_154:\n      mload(0x40)\n      tag_157\n      swap2\n      swap1\n      tag_74\n      jump\t// in\n    tag_157:\n      mload(0x40)\n      dup1\n      swap2\n      sub\n      swap1\n      return\n        /* \"Campaign.sol\":7246:7719  function getUserAuctionStatus(address user)... */\n    tag_39:\n        /* \"Campaign.sol\":7335:7339  bool */\n      0x00\n        /* \"Campaign.sol\":7341:7348  uint256 */\n      0x00\n        /* \"Campaign.sol\":7350:7354  bool */\n      0x00\n        /* \"Campaign.sol\":7356:7360  bool */\n      0x00\n        /* \"Campaign.sol\":7362:7366  bool */\n      0x00\n        /* \"Campaign.sol\":7382:7399  bool participated */\n      0x00\n        /* \"Campaign.sol\":7402:7411  approvers */\n      0x05\n        /* \"Campaign.sol\":7402:7417  approvers[user] */\n      0x00\n        /* \"Campaign.sol\":7412:7416  user */\n      dup9\n        /* \"Campaign.sol\":7402:7417  approvers[user] */\n      0xffffffffffffffffffffffffffffffffffffffff\n      and\n      0xffffffffffffffffffffffffffffffffffffffff\n      and\n      dup2\n      mstore\n      0x20\n      add\n      swap1\n      dup2\n      mstore\n      0x20\n      add\n      0x00\n      keccak256\n      0x00\n      swap1\n      sload\n      swap1\n      0x0100\n      exp\n      swap1\n      div\n      0xff\n      and\n        /* \"Campaign.sol\":7382:7417  bool participated = approvers[user] */\n      swap1\n      pop\n        /* \"Campaign.sol\":7427:7438  uint256 bid */\n      0x00\n        /* \"Campaign.sol\":7441:7455  approversMoney */\n      0x06\n        /* \"Campaign.sol\":7441:7461  approversMoney[user] */\n      0x00\n        /* \"Campaign.sol\":7456:7460  user */\n      dup10\n        /* \"Campaign.sol\":7441:7461  approversMoney[user] */\n      0xffffffffffffffffffffffffffffffffffffffff\n      and\n      0xffffffffffffffffffffffffffffffffffffffff\n      and\n      dup2\n      mstore\n      0x20\n      add\n      swap1\n      dup2\n      mstore\n      0x20\n      add\n      0x00\n      keccak256\n      sload\n        /* \"Campaign.sol\":7427:7461  uint256 bid = approversMoney[user] */\n      swap1\n      pop\n        /* \"Campaign.sol\":7471:7485  bool isManager */\n      0x00\n        /* \"Campaign.sol\":7496:7503  manager */\n      0x01\n      0x00\n      swap1\n      sload\n      swap1\n      0x0100\n      exp\n      swap1\n      div\n      0xffffffffffffffffffffffffffffffffffffffff\n      and\n        /* \"Campaign.sol\":7488:7503  user == manager */\n      0xffffffffffffffffffffffffffffffffffffffff\n      and\n        /* \"Campaign.sol\":7488:7492  user */\n      dup10\n        /* \"Campaign.sol\":7488:7503  user == manager */\n      0xffffffffffffffffffffffffffffffffffffffff\n      and\n      eq\n        /* \"Campaign.sol\":7471:7503  bool isManager = user == manager */\n      swap1\n      pop\n        /* \"Campaign.sol\":7513:7533  bool isHighestBidder */\n      0x00\n        /* \"Campaign.sol\":7544:7557  highestBidder */\n      0x0a\n      0x00\n      swap1\n      sload\n      swap1\n      0x0100\n      exp\n      swap1\n      div\n      0xffffffffffffffffffffffffffffffffffffffff\n      and\n        /* \"Campaign.sol\":7536:7557  user == highestBidder */\n      0xffffffffffffffffffffffffffffffffffffffff\n      and\n        /* \"Campaign.sol\":7536:7540  user */\n      dup11\n        /* \"Campaign.sol\":7536:7557  user == highestBidder */\n      0xffffffffffffffffffffffffffffffffffffffff\n      and\n      eq\n        /* \"Campaign.sol\":7513:7557  bool isHighestBidder = user == highestBidder */\n      swap1\n      pop\n        /* \"Campaign.sol\":7567:7580  bool refunded */\n      0x00\n        /* \"Campaign.sol\":7583:7589  closed */\n      0x0d\n      0x00\n      swap1\n      sload\n      swap1\n      0x0100\n      exp\n      swap1\n      div\n      0xff\n      and\n        /* \"Campaign.sol\":7583:7605  closed && participated */\n      dup1\n      iszero\n      tag_159\n      jumpi\n      pop\n        /* \"Campaign.sol\":7593:7605  participated */\n      dup5\n        /* \"Campaign.sol\":7583:7605  closed && participated */\n    tag_159:\n        /* \"Campaign.sol\":7583:7625  closed && participated && !isHighestBidder */\n      dup1\n      iszero\n      tag_160\n      jumpi\n      pop\n        /* \"Campaign.sol\":7610:7625  isHighestBidder */\n      dup2\n        /* \"Campaign.sol\":7609:7625  !isHighestBidder */\n      iszero\n        /* \"Campaign.sol\":7583:7625  closed && participated && !isHighestBidder */\n    tag_160:\n        /* \"Campaign.sol\":7583:7637  closed && participated && !isHighestBidder && bid == 0 */\n      dup1\n      iszero\n      tag_161\n      jumpi\n      pop\n        /* \"Campaign.sol\":7636:7637  0 */\n      0x00\n        /* \"Campaign.sol\":7629:7632  bid */\n      dup5\n        /* \"Campaign.sol\":7629:7637  bid == 0 */\n      eq\n        /* \"Campaign.sol\":7583:7637  closed && participated && !isHighestBidder && bid == 0 */\n    tag_161:\n        /* \"Campaign.sol\":7567:7637  bool refunded = closed && participated && !isHighestBidder && bid == 0 */\n      swap1\n      pop\n        /* \"Campaign.sol\":7656:7668  participated */\n      dup5\n        /* \"Campaign.sol\":7670:7673  bid */\n      dup5\n        /* \"Campaign.sol\":7675:7683  refunded */\n      dup3\n        /* \"Campaign.sol\":7685:7694  isManager */\n      dup6\n        /* \"Campaign.sol\":7696:7711  isHighestBidder */\n      dup6\n        /* \"Campaign.sol\":7648:7712  return (participated, bid, refunded, isManager, isHighestBidder) */\n      swap10\n      pop\n      swap10\n      pop\n      swap10\n      pop\n      swap10\n      pop\n      swap10\n      pop\n      pop\n      pop\n      pop\n      pop\n      pop\n        /* \"Campaign.sol\":7246:7719  function getUserAuctionStatus(address user)... */\n      swap2\n      swap4\n      swap6\n      swap1\n      swap3\n      swap5\n      pop\n      jump\t// out\n        /* \"Campaign.sol\":1375:1405  uint256 public nextRefundIndex */\n    tag_44:\n      sload(0x0e)\n      dup2\n      jump\t// out\n        /* \"Campaign.sol\":1049:1090  mapping(address => bool) public approvers */\n    tag_50:\n      mstore(0x20, 0x05)\n      dup1\n      0x00\n      mstore\n      keccak256(0x00, 0x40)\n      0x00\n      swap2\n      pop\n      sload\n      swap1\n      0x0100\n      exp\n      swap1\n      div\n      0xff\n      and\n      dup2\n      jump\t// out\n        /* \"Campaign.sol\":4201:4693  function withdrawRefund() public {... */\n    tag_55:\n        /* \"Campaign.sol\":4252:4258  closed */\n      0x0d\n      0x00\n      swap1\n      sload\n      swap1\n      0x0100\n      exp\n      swap1\n      div\n      0xff\n      and\n        /* \"Campaign.sol\":4244:4284  require(closed, \"Auction not finalized\") */\n      tag_163\n      jumpi\n      mload(0x40)\n      0x08c379a000000000000000000000000000000000000000000000000000000000\n      dup2\n      mstore\n      0x04\n      add\n      tag_164\n      swap1\n      tag_165\n      jump\t// in\n    tag_164:\n      mload(0x40)\n      dup1\n      swap2\n      sub\n      swap1\n      revert\n    tag_163:\n        /* \"Campaign.sol\":4316:4329  highestBidder */\n      0x0a\n      0x00\n      swap1\n      sload\n      swap1\n      0x0100\n      exp\n      swap1\n      div\n      0xffffffffffffffffffffffffffffffffffffffff\n      and\n        /* \"Campaign.sol\":4302:4329  msg.sender != highestBidder */\n      0xffffffffffffffffffffffffffffffffffffffff\n      and\n        /* \"Campaign.sol\":4302:4312  msg.sender */\n      caller\n        /* \"Campaign.sol\":4302:4329  msg.sender != highestBidder */\n      0xffffffffffffffffffffffffffffffffffffffff\n      and\n      sub\n        /* \"Campaign.sol\":4294:4354  require(msg.sender != highestBidder, \"Winner has no refund\") */\n      tag_166\n      jumpi\n      mload(0x40)\n      0x08c379a000000000000000000000000000000000000000000000000000000000\n      dup2\n      mstore\n      0x04\n      add\n      tag_167\n      swap1\n      tag_168\n      jump\t// in\n    tag_167:\n      mload(0x40)\n      dup1\n      swap2\n      sub\n      swap1\n      revert\n    tag_166:\n        /* \"Campaign.sol\":4365:4385  uint256 refundAmount */\n      0x00\n        /* \"Campaign.sol\":4388:4402  approversMoney */\n      0x06\n        /* \"Campaign.sol\":4388:4414  approversMoney[msg.sender] */\n      0x00\n        /* \"Campaign.sol\":4403:4413  msg.sender */\n      caller\n        /* \"Campaign.sol\":4388:4414  approversMoney[msg.sender] */\n      0xffffffffffffffffffffffffffffffffffffffff\n      and\n      0xffffffffffffffffffffffffffffffffffffffff\n      and\n      dup2\n      mstore\n      0x20\n      add\n      swap1\n      dup2\n      mstore\n      0x20\n      add\n      0x00\n      keccak256\n      sload\n        /* \"Campaign.sol\":4365:4414  uint256 refundAmount = approversMoney[msg.sender] */\n      swap1\n      pop\n        /* \"Campaign.sol\":4447:4448  0 */\n      0x00\n        /* \"Campaign.sol\":4432:4444  refundAmount */\n      dup2\n        /* \"Campaign.sol\":4432:4448  refundAmount > 0 */\n      gt\n        /* \"Campaign.sol\":4424:4472  require(refundAmount > 0, \"No refund available\") */\n      tag_169\n      jumpi\n      mload(0x40)\n      0x08c379a000000000000000000000000000000000000000000000000000000000\n      dup2\n      mstore\n      0x04\n      add\n      tag_170\n      swap1\n      tag_171\n      jump\t// in\n    tag_170:\n      mload(0x40)\n      dup1\n      swap2\n      sub\n      swap1\n      revert\n    tag_169:\n        /* \"Campaign.sol\":4512:4513  0 */\n      0x00\n        /* \"Campaign.sol\":4483:4497  approversMoney */\n      0x06\n        /* \"Campaign.sol\":4483:4509  approversMoney[msg.sender] */\n      0x00\n        /* \"Campaign.sol\":4498:4508  msg.sender */\n      caller\n        /* \"Campaign.sol\":4483:4509  approversMoney[msg.sender] */\n      0xffffffffffffffffffffffffffffffffffffffff\n      and\n      0xffffffffffffffffffffffffffffffffffffffff\n      and\n      dup2\n      mstore\n      0x20\n      add\n      swap1\n      dup2\n      mstore\n      0x20\n      add\n      0x00\n      keccak256\n        /* \"Campaign.sol\":4483:4513  approversMoney[msg.sender] = 0 */\n      dup2\n      swap1\n      sstore\n      pop\n        /* \"Campaign.sol\":4525:4534  bool sent */\n      0x00\n        /* \"Campaign.sol\":4548:4558  msg.sender */\n      caller\n        /* \"Campaign.sol\":4540:4564  payable(msg.sender).call */\n      0xffffffffffffffffffffffffffffffffffffffff\n      and\n        /* \"Campaign.sol\":4572:4584  refundAmount */\n      dup3\n        /* \"Campaign.sol\":4540:4589  payable(msg.sender).call{value: refundAmount}(\"\") */\n      mload(0x40)\n      tag_172\n      swap1\n      tag_173\n      jump\t// in\n    tag_172:\n      0x00\n      mload(0x40)\n      dup1\n      dup4\n      sub\n      dup2\n      dup6\n      dup8\n      gas\n      call\n      swap3\n      pop\n      pop\n      pop\n      returndatasize\n      dup1\n      0x00\n      dup2\n      eq\n      tag_176\n      jumpi\n      mload(0x40)\n      swap2\n      pop\n      and(add(returndatasize, 0x3f), not(0x1f))\n      dup3\n      add\n      0x40\n      mstore\n      returndatasize\n      dup3\n      mstore\n      returndatasize\n      0x00\n      0x20\n      dup5\n      add\n      returndatacopy\n      jump(tag_175)\n    tag_176:\n      0x60\n      swap2\n      pop\n    tag_175:\n      pop\n        /* \"Campaign.sol\":4524:4589  (bool sent, ) = payable(msg.sender).call{value: refundAmount}(\"\") */\n      pop\n      swap1\n      pop\n        /* \"Campaign.sol\":4607:4611  sent */\n      dup1\n        /* \"Campaign.sol\":4599:4629  require(sent, \"Refund failed\") */\n      tag_177\n      jumpi\n      mload(0x40)\n      0x08c379a000000000000000000000000000000000000000000000000000000000\n      dup2\n      mstore\n      0x04\n      add\n      tag_178\n      swap1\n      tag_179\n      jump\t// in\n    tag_178:\n      mload(0x40)\n      dup1\n      swap2\n      sub\n      swap1\n      revert\n    tag_177:\n        /* \"Campaign.sol\":4661:4671  msg.sender */\n      caller\n        /* \"Campaign.sol\":4645:4686  RefundProcessed(msg.sender, refundAmount) */\n      0xffffffffffffffffffffffffffffffffffffffff\n      and\n      0x3367befd2b2f39615cd79917c2153263c4af1d3945ec003e5d5bfc13a8d85833\n        /* \"Campaign.sol\":4673:4685  refundAmount */\n      dup4\n        /* \"Campaign.sol\":4645:4686  RefundProcessed(msg.sender, refundAmount) */\n      mload(0x40)\n      tag_180\n      swap2\n      swap1\n      tag_46\n      jump\t// in\n    tag_180:\n      mload(0x40)\n      dup1\n      swap2\n      sub\n      swap1\n      log2\n        /* \"Campaign.sol\":4234:4693  {... */\n      pop\n      pop\n        /* \"Campaign.sol\":4201:4693  function withdrawRefund() public {... */\n      jump\t// out\n        /* \"Campaign.sol\":1323:1345  uint256 public endTime */\n    tag_58:\n      sload(0x0c)\n      dup2\n      jump\t// out\n        /* \"Campaign.sol\":5888:6113  function getData() public view returns (string memory) {... */\n    tag_62:\n        /* \"Campaign.sol\":5928:5941  string memory */\n      0x60\n        /* \"Campaign.sol\":5962:5968  closed */\n      0x0d\n      0x00\n      swap1\n      sload\n      swap1\n      0x0100\n      exp\n      swap1\n      div\n      0xff\n      and\n        /* \"Campaign.sol\":5954:5994  require(closed, \"Auction not finalized\") */\n      tag_182\n      jumpi\n      mload(0x40)\n      0x08c379a000000000000000000000000000000000000000000000000000000000\n      dup2\n      mstore\n      0x04\n      add\n      tag_183\n      swap1\n      tag_165\n      jump\t// in\n    tag_183:\n      mload(0x40)\n      dup1\n      swap2\n      sub\n      swap1\n      revert\n    tag_182:\n        /* \"Campaign.sol\":6027:6040  highestBidder */\n      0x0a\n      0x00\n      swap1\n      sload\n      swap1\n      0x0100\n      exp\n      swap1\n      div\n      0xffffffffffffffffffffffffffffffffffffffff\n      and\n        /* \"Campaign.sol\":6013:6040  msg.sender == highestBidder */\n      0xffffffffffffffffffffffffffffffffffffffff\n      and\n        /* \"Campaign.sol\":6013:6023  msg.sender */\n      caller\n        /* \"Campaign.sol\":6013:6040  msg.sender == highestBidder */\n      0xffffffffffffffffffffffffffffffffffffffff\n      and\n      eq\n        /* \"Campaign.sol\":6005:6076  require(msg.sender == highestBidder, \"Only winner can access the data\") */\n      tag_184\n      jumpi\n      mload(0x40)\n      0x08c379a000000000000000000000000000000000000000000000000000000000\n      dup2\n      mstore\n      0x04\n      add\n      tag_185\n      swap1\n      tag_186\n      jump\t// in\n    tag_185:\n      mload(0x40)\n      dup1\n      swap2\n      sub\n      swap1\n      revert\n    tag_184:\n        /* \"Campaign.sol\":6094:6105  dataForSell */\n      0x03\n        /* \"Campaign.sol\":6087:6105  return dataForSell */\n      dup1\n      sload\n      tag_187\n      swap1\n      tag_188\n      jump\t// in\n    tag_187:\n      dup1\n      0x1f\n      add\n      0x20\n      dup1\n      swap2\n      div\n      mul\n      0x20\n      add\n      mload(0x40)\n      swap1\n      dup2\n      add\n      0x40\n      mstore\n      dup1\n      swap3\n      swap2\n      swap1\n      dup2\n      dup2\n      mstore\n      0x20\n      add\n      dup3\n      dup1\n      sload\n      tag_189\n      swap1\n      tag_188\n      jump\t// in\n    tag_189:\n      dup1\n      iszero\n      tag_190\n      jumpi\n      dup1\n      0x1f\n      lt\n      tag_191\n      jumpi\n      0x0100\n      dup1\n      dup4\n      sload\n      div\n      mul\n      dup4\n      mstore\n      swap2\n      0x20\n      add\n      swap2\n      jump(tag_190)\n    tag_191:\n      dup3\n      add\n      swap2\n      swap1\n      0x00\n      mstore\n      keccak256(0x00, 0x20)\n      swap1\n    tag_192:\n      dup2\n      sload\n      dup2\n      mstore\n      swap1\n      0x01\n      add\n      swap1\n      0x20\n      add\n      dup1\n      dup4\n      gt\n      tag_192\n      jumpi\n      dup3\n      swap1\n      sub\n      0x1f\n      and\n      dup3\n      add\n      swap2\n    tag_190:\n      pop\n      pop\n      pop\n      pop\n      pop\n      swap1\n      pop\n        /* \"Campaign.sol\":5888:6113  function getData() public view returns (string memory) {... */\n      swap1\n      jump\t// out\n        /* \"Campaign.sol\":6227:6769  function getSummary()... */\n    tag_67:\n        /* \"Campaign.sol\":6307:6314  uint256 */\n      0x00\n        /* \"Campaign.sol\":6316:6323  uint256 */\n      0x00\n        /* \"Campaign.sol\":6325:6332  uint256 */\n      0x00\n        /* \"Campaign.sol\":6334:6341  address */\n      0x00\n        /* \"Campaign.sol\":6355:6362  uint256 */\n      0x00\n        /* \"Campaign.sol\":6364:6377  string memory */\n      0x60\n        /* \"Campaign.sol\":6379:6392  string memory */\n      dup1\n        /* \"Campaign.sol\":6407:6414  address */\n      0x00\n        /* \"Campaign.sol\":6416:6432  address[] memory */\n      0x60\n        /* \"Campaign.sol\":6434:6441  uint256 */\n      0x00\n        /* \"Campaign.sol\":6491:6510  minimumContribution */\n      sload(0x02)\n        /* \"Campaign.sol\":6525:6546  address(this).balance */\n      selfbalance\n        /* \"Campaign.sol\":6561:6575  approversCount */\n      sload(0x07)\n        /* \"Campaign.sol\":6590:6597  manager */\n      0x01\n      0x00\n      swap1\n      sload\n      swap1\n      0x0100\n      exp\n      swap1\n      div\n      0xffffffffffffffffffffffffffffffffffffffff\n      and\n        /* \"Campaign.sol\":6612:6622  highestBid */\n      sload(0x0b)\n        /* \"Campaign.sol\":6637:6648  dataForSell */\n      0x03\n        /* \"Campaign.sol\":6663:6678  dataDescription */\n      0x04\n        /* \"Campaign.sol\":6693:6706  highestBidder */\n      0x0a\n      0x00\n      swap1\n      sload\n      swap1\n      0x0100\n      exp\n      swap1\n      div\n      0xffffffffffffffffffffffffffffffffffffffff\n      and\n        /* \"Campaign.sol\":6721:6730  addresses */\n      0x08\n        /* \"Campaign.sol\":6745:6752  endTime */\n      sload(0x0c)\n        /* \"Campaign.sol\":6469:6762  return (... */\n      dup5\n      dup1\n      sload\n      tag_194\n      swap1\n      tag_188\n      jump\t// in\n    tag_194:\n      dup1\n      0x1f\n      add\n      0x20\n      dup1\n      swap2\n      div\n      mul\n      0x20\n      add\n      mload(0x40)\n      swap1\n      dup2\n      add\n      0x40\n      mstore\n      dup1\n      swap3\n      swap2\n      swap1\n      dup2\n      dup2\n      mstore\n      0x20\n      add\n      dup3\n      dup1\n      sload\n      tag_195\n      swap1\n      tag_188\n      jump\t// in\n    tag_195:\n      dup1\n      iszero\n      tag_196\n      jumpi\n      dup1\n      0x1f\n      lt\n      tag_197\n      jumpi\n      0x0100\n      dup1\n      dup4\n      sload\n      div\n      mul\n      dup4\n      mstore\n      swap2\n      0x20\n      add\n      swap2\n      jump(tag_196)\n    tag_197:\n      dup3\n      add\n      swap2\n      swap1\n      0x00\n      mstore\n      keccak256(0x00, 0x20)\n      swap1\n    tag_198:\n      dup2\n      sload\n      dup2\n      mstore\n      swap1\n      0x01\n      add\n      swap1\n      0x20\n      add\n      dup1\n      dup4\n      gt\n      tag_198\n      jumpi\n      dup3\n      swap1\n      sub\n      0x1f\n      and\n      dup3\n      add\n      swap2\n    tag_196:\n      pop\n      pop\n      pop\n      pop\n      pop\n      swap5\n      pop\n      dup4\n      dup1\n      sload\n      tag_199\n      swap1\n      tag_188\n      jump\t// in\n    tag_199:\n      dup1\n      0x1f\n      add\n      0x20\n      dup1\n      swap2\n      div\n      mul\n      0x20\n      add\n      mload(0x40)\n      swap1\n      dup2\n      add\n      0x40\n      mstore\n      dup1\n      swap3\n      swap2\n      swap1\n      dup2\n      dup2\n      mstore\n      0x20\n      add\n      dup3\n      dup1\n      sload\n      tag_200\n      swap1\n      tag_188\n      jump\t// in\n    tag_200:\n      dup1\n      iszero\n      tag_201\n      jumpi\n      dup1\n      0x1f\n      lt\n      tag_202\n      jumpi\n      0x0100\n      dup1\n      dup4\n      sload\n      div\n      mul\n      dup4\n      mstore\n      swap2\n      0x20\n      add\n      swap2\n      jump(tag_201)\n    tag_202:\n      dup3\n      add\n      swap2\n      swap1\n      0x00\n      mstore\n      keccak256(0x00, 0x20)\n      swap1\n    tag_203:\n      dup2\n      sload\n      dup2\n      mstore\n      swap1\n      0x01\n      add\n      swap1\n      0x20\n      add\n      dup1\n      dup4\n      gt\n      tag_203\n      jumpi\n      dup3\n      swap1\n      sub\n      0x1f\n      and\n      dup3\n      add\n      swap2\n    tag_201:\n      pop\n      pop\n      pop\n      pop\n      pop\n      swap4\n      pop\n      dup2\n      dup1\n      sload\n      dup1\n      0x20\n      mul\n      0x20\n      add\n      mload(0x40)\n      swap1\n      dup2\n      add\n      0x40\n      mstore\n      dup1\n      swap3\n      swap2\n      swap1\n      dup2\n      dup2\n      mstore\n      0x20\n      add\n      dup3\n      dup1\n      sload\n      dup1\n      iszero\n      tag_204\n      jumpi\n      0x20\n      mul\n      dup3\n      add\n      swap2\n      swap1\n      0x00\n      mstore\n      keccak256(0x00, 0x20)\n      swap1\n    tag_205:\n      dup2\n      0x00\n      swap1\n      sload\n      swap1\n      0x0100\n      exp\n      swap1\n      div\n      0xffffffffffffffffffffffffffffffffffffffff\n      and\n      0xffffffffffffffffffffffffffffffffffffffff\n      and\n      dup2\n      mstore\n      0x20\n      add\n      swap1\n      0x01\n      add\n      swap1\n      dup1\n      dup4\n      gt\n      tag_205\n      jumpi\n    tag_204:\n      pop\n      pop\n      pop\n      pop\n      pop\n      swap2\n      pop\n      swap10\n      pop\n      swap10\n      pop\n      swap10\n      pop\n      swap10\n      pop\n      swap10\n      pop\n      swap10\n      pop\n      swap10\n      pop\n      swap10\n      pop\n      swap10\n      pop\n      swap10\n      pop\n        /* \"Campaign.sol\":6227:6769  function getSummary()... */\n      swap1\n      swap2\n      swap3\n      swap4\n      swap5\n      swap6\n      swap7\n      swap8\n      swap9\n      swap10\n      jump\t// out\n        /* \"Campaign.sol\":909:931  address public manager */\n    tag_72:\n      0x01\n      0x00\n      swap1\n      sload\n      swap1\n      0x0100\n      exp\n      swap1\n      div\n      0xffffffffffffffffffffffffffffffffffffffff\n      and\n      dup2\n      jump\t// out\n        /* \"Campaign.sol\":5574:5654  function getStatus() public view returns (bool) {... */\n    tag_77:\n        /* \"Campaign.sol\":5616:5620  bool */\n      0x00\n        /* \"Campaign.sol\":5640:5646  closed */\n      0x0d\n      0x00\n      swap1\n      sload\n      swap1\n      0x0100\n      exp\n      swap1\n      div\n      0xff\n      and\n        /* \"Campaign.sol\":5633:5646  return closed */\n      swap1\n      pop\n        /* \"Campaign.sol\":5574:5654  function getStatus() public view returns (bool) {... */\n      swap1\n      jump\t// out\n        /* \"Campaign.sol\":1011:1040  string public dataDescription */\n    tag_81:\n      0x04\n      dup1\n      sload\n      tag_207\n      swap1\n      tag_188\n      jump\t// in\n    tag_207:\n      dup1\n      0x1f\n      add\n      0x20\n      dup1\n      swap2\n      div\n      mul\n      0x20\n      add\n      mload(0x40)\n      swap1\n      dup2\n      add\n      0x40\n      mstore\n      dup1\n      swap3\n      swap2\n      swap1\n      dup2\n      dup2\n      mstore\n      0x20\n      add\n      dup3\n      dup1\n      sload\n      tag_208\n      swap1\n      tag_188\n      jump\t// in\n    tag_208:\n      dup1\n      iszero\n      tag_209\n      jumpi\n      dup1\n      0x1f\n      lt\n      tag_210\n      jumpi\n      0x0100\n      dup1\n      dup4\n      sload\n      div\n      mul\n      dup4\n      mstore\n      swap2\n      0x20\n      add\n      swap2\n      jump(tag_209)\n    tag_210:\n      dup3\n      add\n      swap2\n      swap1\n      0x00\n      mstore\n      keccak256(0x00, 0x20)\n      swap1\n    tag_211:\n      dup2\n      sload\n      dup2\n      mstore\n      swap1\n      0x01\n      add\n      swap1\n      0x20\n      add\n      dup1\n      dup4\n      gt\n      tag_211\n      jumpi\n      dup3\n      swap1\n      sub\n      0x1f\n      and\n      dup3\n      add\n      swap2\n    tag_209:\n      pop\n      pop\n      pop\n      pop\n      pop\n      dup2\n      jump\t// out\n        /* \"Campaign.sol\":1351:1369  bool public closed */\n    tag_85:\n      0x0d\n      0x00\n      swap1\n      sload\n      swap1\n      0x0100\n      exp\n      swap1\n      div\n      0xff\n      and\n      dup2\n      jump\t// out\n        /* \"Campaign.sol\":1097:1146  mapping(address => uint256) public approversMoney */\n    tag_90:\n      mstore(0x20, 0x06)\n      dup1\n      0x00\n      mstore\n      keccak256(0x00, 0x40)\n      0x00\n      swap2\n      pop\n      swap1\n      pop\n      sload\n      dup2\n      jump\t// out\n        /* \"Campaign.sol\":6775:7240  function getListSummary()... */\n    tag_94:\n        /* \"Campaign.sol\":6859:6866  uint256 */\n      0x00\n        /* \"Campaign.sol\":6868:6875  uint256 */\n      0x00\n        /* \"Campaign.sol\":6877:6884  uint256 */\n      0x00\n        /* \"Campaign.sol\":6886:6893  address */\n      0x00\n        /* \"Campaign.sol\":6907:6914  uint256 */\n      0x00\n        /* \"Campaign.sol\":6916:6929  string memory */\n      0x60\n        /* \"Campaign.sol\":6931:6938  address */\n      0x00\n        /* \"Campaign.sol\":6940:6947  uint256 */\n      0x00\n        /* \"Campaign.sol\":6949:6953  bool */\n      0x00\n        /* \"Campaign.sol\":6999:7018  minimumContribution */\n      sload(0x02)\n        /* \"Campaign.sol\":7032:7053  address(this).balance */\n      selfbalance\n        /* \"Campaign.sol\":7067:7081  approversCount */\n      sload(0x07)\n        /* \"Campaign.sol\":7095:7102  manager */\n      0x01\n      0x00\n      swap1\n      sload\n      swap1\n      0x0100\n      exp\n      swap1\n      div\n      0xffffffffffffffffffffffffffffffffffffffff\n      and\n        /* \"Campaign.sol\":7116:7126  highestBid */\n      sload(0x0b)\n        /* \"Campaign.sol\":7140:7155  dataDescription */\n      0x04\n        /* \"Campaign.sol\":7169:7182  highestBidder */\n      0x0a\n      0x00\n      swap1\n      sload\n      swap1\n      0x0100\n      exp\n      swap1\n      div\n      0xffffffffffffffffffffffffffffffffffffffff\n      and\n        /* \"Campaign.sol\":7196:7203  endTime */\n      sload(0x0c)\n        /* \"Campaign.sol\":7217:7223  closed */\n      0x0d\n      0x00\n      swap1\n      sload\n      swap1\n      0x0100\n      exp\n      swap1\n      div\n      0xff\n      and\n        /* \"Campaign.sol\":6978:7233  return (... */\n      dup4\n      dup1\n      sload\n      tag_213\n      swap1\n      tag_188\n      jump\t// in\n    tag_213:\n      dup1\n      0x1f\n      add\n      0x20\n      dup1\n      swap2\n      div\n      mul\n      0x20\n      add\n      mload(0x40)\n      swap1\n      dup2\n      add\n      0x40\n      mstore\n      dup1\n      swap3\n      swap2\n      swap1\n      dup2\n      dup2\n      mstore\n      0x20\n      add\n      dup3\n      dup1\n      sload\n      tag_214\n      swap1\n      tag_188\n      jump\t// in\n    tag_214:\n      dup1\n      iszero\n      tag_215\n      jumpi\n      dup1\n      0x1f\n      lt\n      tag_216\n      jumpi\n      0x0100\n      dup1\n      dup4\n      sload\n      div\n      mul\n      dup4\n      mstore\n      swap2\n      0x20\n      add\n      swap2\n      jump(tag_215)\n    tag_216:\n      dup3\n      add\n      swap2\n      swap1\n      0x00\n      mstore\n      keccak256(0x00, 0x20)\n      swap1\n    tag_217:\n      dup2\n      sload\n      dup2\n      mstore\n      swap1\n      0x01\n      add\n      swap1\n      0x20\n      add\n      dup1\n      dup4\n      gt\n      tag_217\n      jumpi\n      dup3\n      swap1\n      sub\n      0x1f\n      and\n      dup3\n      add\n      swap2\n    tag_215:\n      pop\n      pop\n      pop\n      pop\n      pop\n      swap4\n      pop\n      swap9\n      pop\n      swap9\n      pop\n      swap9\n      pop\n      swap9\n      pop\n      swap9\n      pop\n      swap9\n      pop\n      swap9\n      pop\n      swap9\n      pop\n      swap9\n      pop\n        /* \"Campaign.sol\":6775:7240  function getListSummary()... */\n      swap1\n      swap2\n      swap3\n      swap4\n      swap5\n      swap6\n      swap7\n      swap8\n      swap9\n      jump\t// out\n        /* \"Campaign.sol\":979:1004  string public dataForSell */\n    tag_99:\n      0x03\n      dup1\n      sload\n      tag_218\n      swap1\n      tag_188\n      jump\t// in\n    tag_218:\n      dup1\n      0x1f\n      add\n      0x20\n      dup1\n      swap2\n      div\n      mul\n      0x20\n      add\n      mload(0x40)\n      swap1\n      dup2\n      add\n      0x40\n      mstore\n      dup1\n      swap3\n      swap2\n      swap1\n      dup2\n      dup2\n      mstore\n      0x20\n      add\n      dup3\n      dup1\n      sload\n      tag_219\n      swap1\n      tag_188\n      jump\t// in\n    tag_219:\n      dup1\n      iszero\n      tag_220\n      jumpi\n      dup1\n      0x1f\n      lt\n      tag_221\n      jumpi\n      0x0100\n      dup1\n      dup4\n      sload\n      div\n      mul\n      dup4\n      mstore\n      swap2\n      0x20\n      add\n      swap2\n      jump(tag_220)\n    tag_221:\n      dup3\n      add\n      swap2\n      swap1\n      0x00\n      mstore\n      keccak256(0x00, 0x20)\n      swap1\n    tag_222:\n      dup2\n      sload\n      dup2\n      mstore\n      swap1\n      0x01\n      add\n      swap1\n      0x20\n      add\n      dup1\n      dup4\n      gt\n      tag_222\n      jumpi\n      dup3\n      swap1\n      sub\n      0x1f\n      and\n      dup3\n      add\n      swap2\n    tag_220:\n      pop\n      pop\n      pop\n      pop\n      pop\n      dup2\n      jump\t// out\n        /* \"Campaign.sol\":1153:1182  uint256 public approversCount */\n    tag_103:\n      sload(0x07)\n      dup2\n      jump\t// out\n        /* \"Campaign.sol\":5780:5880  function getTransactions() public view returns (Bid[] memory) {... */\n    tag_107:\n        /* \"Campaign.sol\":5828:5840  Bid[] memory */\n      0x60\n        /* \"Campaign.sol\":5860:5872  transactions */\n      0x09\n        /* \"Campaign.sol\":5853:5872  return transactions */\n      dup1\n      sload\n      dup1\n      0x20\n      mul\n      0x20\n      add\n      mload(0x40)\n      swap1\n      dup2\n      add\n      0x40\n      mstore\n      dup1\n      swap3\n      swap2\n      swap1\n      dup2\n      dup2\n      mstore\n      0x20\n      add\n      0x00\n      swap1\n    tag_224:\n      dup3\n      dup3\n      lt\n      iszero\n      tag_225\n      jumpi\n      dup4\n      dup3\n      swap1\n      0x00\n      mstore\n      keccak256(0x00, 0x20)\n      swap1\n      0x03\n      mul\n      add\n      mload(0x40)\n      dup1\n      0x60\n      add\n      0x40\n      mstore\n      swap1\n      dup2\n      0x00\n      dup3\n      add\n      sload\n      dup2\n      mstore\n      0x20\n      add\n      0x01\n      dup3\n      add\n      sload\n      dup2\n      mstore\n      0x20\n      add\n      0x02\n      dup3\n      add\n      0x00\n      swap1\n      sload\n      swap1\n      0x0100\n      exp\n      swap1\n      div\n      0xffffffffffffffffffffffffffffffffffffffff\n      and\n      0xffffffffffffffffffffffffffffffffffffffff\n      and\n      0xffffffffffffffffffffffffffffffffffffffff\n      and\n      dup2\n      mstore\n      pop\n      pop\n      dup2\n      mstore\n      0x20\n      add\n      swap1\n      0x01\n      add\n      swap1\n      jump(tag_224)\n    tag_225:\n      pop\n      pop\n      pop\n      pop\n      swap1\n      pop\n        /* \"Campaign.sol\":5780:5880  function getTransactions() public view returns (Bid[] memory) {... */\n      swap1\n      jump\t// out\n        /* \"Campaign.sol\":1258:1286  address public highestBidder */\n    tag_112:\n      0x0a\n      0x00\n      swap1\n      sload\n      swap1\n      0x0100\n      exp\n      swap1\n      div\n      0xffffffffffffffffffffffffffffffffffffffff\n      and\n      dup2\n      jump\t// out\n        /* \"Campaign.sol\":938:972  uint256 public minimumContribution */\n    tag_116:\n      sload(0x02)\n      dup2\n      jump\t// out\n        /* \"Campaign.sol\":3645:4195  function finalizeAuctionIfNeeded() public onlyAfterEnd {... */\n    tag_120:\n        /* \"Campaign.sol\":1590:1597  endTime */\n      sload(0x0c)\n        /* \"Campaign.sol\":1571:1586  block.timestamp */\n      timestamp\n        /* \"Campaign.sol\":1571:1597  block.timestamp >= endTime */\n      lt\n      iszero\n        /* \"Campaign.sol\":1563:1623  require(block.timestamp >= endTime, \"Auction not ended yet\") */\n      tag_228\n      jumpi\n      mload(0x40)\n      0x08c379a000000000000000000000000000000000000000000000000000000000\n      dup2\n      mstore\n      0x04\n      add\n      tag_229\n      swap1\n      tag_230\n      jump\t// in\n    tag_229:\n      mload(0x40)\n      dup1\n      swap2\n      sub\n      swap1\n      revert\n    tag_228:\n        /* \"Campaign.sol\":3719:3725  closed */\n      0x0d\n      0x00\n      swap1\n      sload\n      swap1\n      0x0100\n      exp\n      swap1\n      div\n      0xff\n      and\n        /* \"Campaign.sol\":3718:3725  !closed */\n      iszero\n        /* \"Campaign.sol\":3710:3755  require(!closed, \"Auction already finalized\") */\n      tag_232\n      jumpi\n      mload(0x40)\n      0x08c379a000000000000000000000000000000000000000000000000000000000\n      dup2\n      mstore\n      0x04\n      add\n      tag_233\n      swap1\n      tag_234\n      jump\t// in\n    tag_233:\n      mload(0x40)\n      dup1\n      swap2\n      sub\n      swap1\n      revert\n    tag_232:\n        /* \"Campaign.sol\":3775:3779  true */\n      0x01\n        /* \"Campaign.sol\":3766:3772  closed */\n      0x0d\n      0x00\n        /* \"Campaign.sol\":3766:3779  closed = true */\n      0x0100\n      exp\n      dup2\n      sload\n      dup2\n      0xff\n      mul\n      not\n      and\n      swap1\n      dup4\n      iszero\n      iszero\n      mul\n      or\n      swap1\n      sstore\n      pop\n        /* \"Campaign.sol\":3807:3808  0 */\n      0x00\n        /* \"Campaign.sol\":3794:3804  highestBid */\n      sload(0x0b)\n        /* \"Campaign.sol\":3794:3808  highestBid > 0 */\n      gt\n        /* \"Campaign.sol\":3790:4189  if (highestBid > 0) {... */\n      iszero\n      tag_235\n      jumpi\n        /* \"Campaign.sol\":3857:3867  highestBid */\n      sload(0x0b)\n        /* \"Campaign.sol\":3832:3853  address(this).balance */\n      selfbalance\n        /* \"Campaign.sol\":3832:3867  address(this).balance >= highestBid */\n      lt\n      iszero\n        /* \"Campaign.sol\":3824:3892  require(address(this).balance >= highestBid, \"Insufficient balance\") */\n      tag_236\n      jumpi\n      mload(0x40)\n      0x08c379a000000000000000000000000000000000000000000000000000000000\n      dup2\n      mstore\n      0x04\n      add\n      tag_237\n      swap1\n      tag_238\n      jump\t// in\n    tag_237:\n      mload(0x40)\n      dup1\n      swap2\n      sub\n      swap1\n      revert\n    tag_236:\n        /* \"Campaign.sol\":3938:3939  0 */\n      0x00\n        /* \"Campaign.sol\":3906:3920  approversMoney */\n      0x06\n        /* \"Campaign.sol\":3906:3935  approversMoney[highestBidder] */\n      0x00\n        /* \"Campaign.sol\":3921:3934  highestBidder */\n      0x0a\n      0x00\n      swap1\n      sload\n      swap1\n      0x0100\n      exp\n      swap1\n      div\n      0xffffffffffffffffffffffffffffffffffffffff\n      and\n        /* \"Campaign.sol\":3906:3935  approversMoney[highestBidder] */\n      0xffffffffffffffffffffffffffffffffffffffff\n      and\n      0xffffffffffffffffffffffffffffffffffffffff\n      and\n      dup2\n      mstore\n      0x20\n      add\n      swap1\n      dup2\n      mstore\n      0x20\n      add\n      0x00\n      keccak256\n        /* \"Campaign.sol\":3906:3939  approversMoney[highestBidder] = 0 */\n      dup2\n      swap1\n      sstore\n      pop\n        /* \"Campaign.sol\":3955:3964  bool sent */\n      0x00\n        /* \"Campaign.sol\":3978:3985  manager */\n      0x01\n      0x00\n      swap1\n      sload\n      swap1\n      0x0100\n      exp\n      swap1\n      div\n      0xffffffffffffffffffffffffffffffffffffffff\n      and\n        /* \"Campaign.sol\":3970:3991  payable(manager).call */\n      0xffffffffffffffffffffffffffffffffffffffff\n      and\n        /* \"Campaign.sol\":3999:4009  highestBid */\n      sload(0x0b)\n        /* \"Campaign.sol\":3970:4014  payable(manager).call{value: highestBid}(\"\") */\n      mload(0x40)\n      tag_239\n      swap1\n      tag_173\n      jump\t// in\n    tag_239:\n      0x00\n      mload(0x40)\n      dup1\n      dup4\n      sub\n      dup2\n      dup6\n      dup8\n      gas\n      call\n      swap3\n      pop\n      pop\n      pop\n      returndatasize\n      dup1\n      0x00\n      dup2\n      eq\n      tag_242\n      jumpi\n      mload(0x40)\n      swap2\n      pop\n      and(add(returndatasize, 0x3f), not(0x1f))\n      dup3\n      add\n      0x40\n      mstore\n      returndatasize\n      dup3\n      mstore\n      returndatasize\n      0x00\n      0x20\n      dup5\n      add\n      returndatacopy\n      jump(tag_241)\n    tag_242:\n      0x60\n      swap2\n      pop\n    tag_241:\n      pop\n        /* \"Campaign.sol\":3954:4014  (bool sent, ) = payable(manager).call{value: highestBid}(\"\") */\n      pop\n      swap1\n      pop\n        /* \"Campaign.sol\":4036:4040  sent */\n      dup1\n        /* \"Campaign.sol\":4028:4066  require(sent, \"Seller payment failed\") */\n      tag_243\n      jumpi\n      mload(0x40)\n      0x08c379a000000000000000000000000000000000000000000000000000000000\n      dup2\n      mstore\n      0x04\n      add\n      tag_244\n      swap1\n      tag_245\n      jump\t// in\n    tag_244:\n      mload(0x40)\n      dup1\n      swap2\n      sub\n      swap1\n      revert\n    tag_243:\n        /* \"Campaign.sol\":4081:4088  factory */\n      0x00\n      0x00\n      swap1\n      sload\n      swap1\n      0x0100\n      exp\n      swap1\n      div\n      0xffffffffffffffffffffffffffffffffffffffff\n      and\n        /* \"Campaign.sol\":4081:4101  factory.changeBudget */\n      0xffffffffffffffffffffffffffffffffffffffff\n      and\n      0x8dfac90c\n        /* \"Campaign.sol\":4102:4109  manager */\n      0x01\n      0x00\n      swap1\n      sload\n      swap1\n      0x0100\n      exp\n      swap1\n      div\n      0xffffffffffffffffffffffffffffffffffffffff\n      and\n        /* \"Campaign.sol\":4111:4121  highestBid */\n      sload(0x0b)\n        /* \"Campaign.sol\":4123:4127  true */\n      0x01\n        /* \"Campaign.sol\":4081:4128  factory.changeBudget(manager, highestBid, true) */\n      mload(0x40)\n      dup5\n      0xffffffff\n      and\n      0xe0\n      shl\n      dup2\n      mstore\n      0x04\n      add\n      tag_246\n      swap4\n      swap3\n      swap2\n      swap1\n      tag_247\n      jump\t// in\n    tag_246:\n      0x00\n      mload(0x40)\n      dup1\n      dup4\n      sub\n      dup2\n      0x00\n      dup8\n      dup1\n      extcodesize\n      iszero\n      dup1\n      iszero\n      tag_248\n      jumpi\n      revert(0x00, 0x00)\n    tag_248:\n      pop\n      gas\n      call\n      iszero\n      dup1\n      iszero\n      tag_250\n      jumpi\n      returndatacopy(0x00, 0x00, returndatasize)\n      revert(0x00, returndatasize)\n    tag_250:\n      pop\n      pop\n      pop\n      pop\n        /* \"Campaign.sol\":4158:4165  manager */\n      0x01\n      0x00\n      swap1\n      sload\n      swap1\n      0x0100\n      exp\n      swap1\n      div\n      0xffffffffffffffffffffffffffffffffffffffff\n      and\n        /* \"Campaign.sol\":4147:4178  SellerPaid(manager, highestBid) */\n      0xffffffffffffffffffffffffffffffffffffffff\n      and\n      0xcb4a9094da4df77fb2c0dbaa5047660b1237e61d82a02176c1be74ca757f2531\n        /* \"Campaign.sol\":4167:4177  highestBid */\n      sload(0x0b)\n        /* \"Campaign.sol\":4147:4178  SellerPaid(manager, highestBid) */\n      mload(0x40)\n      tag_251\n      swap2\n      swap1\n      tag_46\n      jump\t// in\n    tag_251:\n      mload(0x40)\n      dup1\n      swap2\n      sub\n      swap1\n      log2\n        /* \"Campaign.sol\":3810:4189  {... */\n      pop\n        /* \"Campaign.sol\":3790:4189  if (highestBid > 0) {... */\n    tag_235:\n        /* \"Campaign.sol\":3645:4195  function finalizeAuctionIfNeeded() public onlyAfterEnd {... */\n      jump\t// out\n        /* \"Campaign.sol\":1224:1249  Bid[] public transactions */\n    tag_125:\n      0x09\n      dup2\n      dup2\n      sload\n      dup2\n      lt\n      tag_252\n      jumpi\n      0x00\n      dup1\n      revert\n    tag_252:\n      swap1\n      0x00\n      mstore\n      keccak256(0x00, 0x20)\n      swap1\n      0x03\n      mul\n      add\n      0x00\n      swap2\n      pop\n      swap1\n      pop\n      dup1\n      0x00\n      add\n      sload\n      swap1\n      dup1\n      0x01\n      add\n      sload\n      swap1\n      dup1\n      0x02\n      add\n      0x00\n      swap1\n      sload\n      swap1\n      0x0100\n      exp\n      swap1\n      div\n      0xffffffffffffffffffffffffffffffffffffffff\n      and\n      swap1\n      pop\n      dup4\n      jump\t// out\n        /* \"Campaign.sol\":6121:6219  function getAddresses() public view returns (address[] memory) {... */\n    tag_130:\n        /* \"Campaign.sol\":6166:6182  address[] memory */\n      0x60\n        /* \"Campaign.sol\":6202:6211  addresses */\n      0x08\n        /* \"Campaign.sol\":6195:6211  return addresses */\n      dup1\n      sload\n      dup1\n      0x20\n      mul\n      0x20\n      add\n      mload(0x40)\n      swap1\n      dup2\n      add\n      0x40\n      mstore\n      dup1\n      swap3\n      swap2\n      swap1\n      dup2\n      dup2\n      mstore\n      0x20\n      add\n      dup3\n      dup1\n      sload\n      dup1\n      iszero\n      tag_255\n      jumpi\n      0x20\n      mul\n      dup3\n      add\n      swap2\n      swap1\n      0x00\n      mstore\n      keccak256(0x00, 0x20)\n      swap1\n    tag_256:\n      dup2\n      0x00\n      swap1\n      sload\n      swap1\n      0x0100\n      exp\n      swap1\n      div\n      0xffffffffffffffffffffffffffffffffffffffff\n      and\n      0xffffffffffffffffffffffffffffffffffffffff\n      and\n      dup2\n      mstore\n      0x20\n      add\n      swap1\n      0x01\n      add\n      swap1\n      dup1\n      dup4\n      gt\n      tag_256\n      jumpi\n    tag_255:\n      pop\n      pop\n      pop\n      pop\n      pop\n      swap1\n      pop\n        /* \"Campaign.sol\":6121:6219  function getAddresses() public view returns (address[] memory) {... */\n      swap1\n      jump\t// out\n        /* \"Campaign.sol\":586:616  CampaignFactory public factory */\n    tag_135:\n      0x00\n      0x00\n      swap1\n      sload\n      swap1\n      0x0100\n      exp\n      swap1\n      div\n      0xffffffffffffffffffffffffffffffffffffffff\n      and\n      dup2\n      jump\t// out\n        /* \"Campaign.sol\":4699:5567  function processRefunds(uint256 maxRefunds) public {... */\n    tag_141:\n        /* \"Campaign.sol\":4768:4774  closed */\n      0x0d\n      0x00\n      swap1\n      sload\n      swap1\n      0x0100\n      exp\n      swap1\n      div\n      0xff\n      and\n        /* \"Campaign.sol\":4760:4800  require(closed, \"Auction not finalized\") */\n      tag_258\n      jumpi\n      mload(0x40)\n      0x08c379a000000000000000000000000000000000000000000000000000000000\n      dup2\n      mstore\n      0x04\n      add\n      tag_259\n      swap1\n      tag_165\n      jump\t// in\n    tag_259:\n      mload(0x40)\n      dup1\n      swap2\n      sub\n      swap1\n      revert\n    tag_258:\n        /* \"Campaign.sol\":4831:4832  0 */\n      0x00\n        /* \"Campaign.sol\":4818:4828  maxRefunds */\n      dup2\n        /* \"Campaign.sol\":4818:4832  maxRefunds > 0 */\n      gt\n        /* \"Campaign.sol\":4810:4856  require(maxRefunds > 0, \"Batch size required\") */\n      tag_260\n      jumpi\n      mload(0x40)\n      0x08c379a000000000000000000000000000000000000000000000000000000000\n      dup2\n      mstore\n      0x04\n      add\n      tag_261\n      swap1\n      tag_262\n      jump\t// in\n    tag_261:\n      mload(0x40)\n      dup1\n      swap2\n      sub\n      swap1\n      revert\n    tag_260:\n        /* \"Campaign.sol\":4867:4884  uint256 processed */\n      0x00\n        /* \"Campaign.sol\":4887:4888  0 */\n      0x00\n        /* \"Campaign.sol\":4867:4888  uint256 processed = 0 */\n      swap1\n      pop\n        /* \"Campaign.sol\":4899:5561  while (nextRefundIndex < addresses.length && processed < maxRefunds) {... */\n    tag_263:\n        /* \"Campaign.sol\":4924:4933  addresses */\n      0x08\n        /* \"Campaign.sol\":4924:4940  addresses.length */\n      dup1\n      sload\n      swap1\n      pop\n        /* \"Campaign.sol\":4906:4921  nextRefundIndex */\n      sload(0x0e)\n        /* \"Campaign.sol\":4906:4940  nextRefundIndex < addresses.length */\n      lt\n        /* \"Campaign.sol\":4906:4966  nextRefundIndex < addresses.length && processed < maxRefunds */\n      dup1\n      iszero\n      tag_265\n      jumpi\n      pop\n        /* \"Campaign.sol\":4956:4966  maxRefunds */\n      dup2\n        /* \"Campaign.sol\":4944:4953  processed */\n      dup2\n        /* \"Campaign.sol\":4944:4966  processed < maxRefunds */\n      lt\n        /* \"Campaign.sol\":4906:4966  nextRefundIndex < addresses.length && processed < maxRefunds */\n    tag_265:\n        /* \"Campaign.sol\":4899:5561  while (nextRefundIndex < addresses.length && processed < maxRefunds) {... */\n      iszero\n      tag_264\n      jumpi\n        /* \"Campaign.sol\":4982:5001  address contributor */\n      0x00\n        /* \"Campaign.sol\":5004:5013  addresses */\n      0x08\n        /* \"Campaign.sol\":5014:5029  nextRefundIndex */\n      sload(0x0e)\n        /* \"Campaign.sol\":5004:5030  addresses[nextRefundIndex] */\n      dup2\n      sload\n      dup2\n      lt\n      tag_266\n      jumpi\n      tag_267\n      tag_268\n      jump\t// in\n    tag_267:\n    tag_266:\n      swap1\n      0x00\n      mstore\n      keccak256(0x00, 0x20)\n      add\n      0x00\n      swap1\n      sload\n      swap1\n      0x0100\n      exp\n      swap1\n      div\n      0xffffffffffffffffffffffffffffffffffffffff\n      and\n        /* \"Campaign.sol\":4982:5030  address contributor = addresses[nextRefundIndex] */\n      swap1\n      pop\n        /* \"Campaign.sol\":5044:5059  nextRefundIndex */\n      0x0e\n      0x00\n        /* \"Campaign.sol\":5044:5061  nextRefundIndex++ */\n      dup2\n      sload\n      dup1\n      swap3\n      swap2\n      swap1\n      tag_270\n      swap1\n      tag_271\n      jump\t// in\n    tag_270:\n      swap2\n      swap1\n      pop\n      sstore\n      pop\n        /* \"Campaign.sol\":5095:5108  highestBidder */\n      0x0a\n      0x00\n      swap1\n      sload\n      swap1\n      0x0100\n      exp\n      swap1\n      div\n      0xffffffffffffffffffffffffffffffffffffffff\n      and\n        /* \"Campaign.sol\":5080:5108  contributor == highestBidder */\n      0xffffffffffffffffffffffffffffffffffffffff\n      and\n        /* \"Campaign.sol\":5080:5091  contributor */\n      dup2\n        /* \"Campaign.sol\":5080:5108  contributor == highestBidder */\n      0xffffffffffffffffffffffffffffffffffffffff\n      and\n      sub\n        /* \"Campaign.sol\":5076:5151  if (contributor == highestBidder) {... */\n      tag_272\n      jumpi\n        /* \"Campaign.sol\":5128:5136  continue */\n      pop\n      jump(tag_263)\n        /* \"Campaign.sol\":5076:5151  if (contributor == highestBidder) {... */\n    tag_272:\n        /* \"Campaign.sol\":5165:5185  uint256 refundAmount */\n      0x00\n        /* \"Campaign.sol\":5188:5202  approversMoney */\n      0x06\n        /* \"Campaign.sol\":5188:5215  approversMoney[contributor] */\n      0x00\n        /* \"Campaign.sol\":5203:5214  contributor */\n      dup4\n        /* \"Campaign.sol\":5188:5215  approversMoney[contributor] */\n      0xffffffffffffffffffffffffffffffffffffffff\n      and\n      0xffffffffffffffffffffffffffffffffffffffff\n      and\n      dup2\n      mstore\n      0x20\n      add\n      swap1\n      dup2\n      mstore\n      0x20\n      add\n      0x00\n      keccak256\n      sload\n        /* \"Campaign.sol\":5165:5215  uint256 refundAmount = approversMoney[contributor] */\n      swap1\n      pop\n        /* \"Campaign.sol\":5249:5250  0 */\n      0x00\n        /* \"Campaign.sol\":5233:5245  refundAmount */\n      dup2\n        /* \"Campaign.sol\":5233:5250  refundAmount == 0 */\n      sub\n        /* \"Campaign.sol\":5229:5293  if (refundAmount == 0) {... */\n      tag_273\n      jumpi\n        /* \"Campaign.sol\":5270:5278  continue */\n      pop\n      pop\n      jump(tag_263)\n        /* \"Campaign.sol\":5229:5293  if (refundAmount == 0) {... */\n    tag_273:\n        /* \"Campaign.sol\":5337:5338  0 */\n      0x00\n        /* \"Campaign.sol\":5307:5321  approversMoney */\n      0x06\n        /* \"Campaign.sol\":5307:5334  approversMoney[contributor] */\n      0x00\n        /* \"Campaign.sol\":5322:5333  contributor */\n      dup5\n        /* \"Campaign.sol\":5307:5334  approversMoney[contributor] */\n      0xffffffffffffffffffffffffffffffffffffffff\n      and\n      0xffffffffffffffffffffffffffffffffffffffff\n      and\n      dup2\n      mstore\n      0x20\n      add\n      swap1\n      dup2\n      mstore\n      0x20\n      add\n      0x00\n      keccak256\n        /* \"Campaign.sol\":5307:5338  approversMoney[contributor] = 0 */\n      dup2\n      swap1\n      sstore\n      pop\n        /* \"Campaign.sol\":5354:5363  bool sent */\n      0x00\n        /* \"Campaign.sol\":5377:5388  contributor */\n      dup3\n        /* \"Campaign.sol\":5369:5394  payable(contributor).call */\n      0xffffffffffffffffffffffffffffffffffffffff\n      and\n        /* \"Campaign.sol\":5402:5414  refundAmount */\n      dup3\n        /* \"Campaign.sol\":5369:5419  payable(contributor).call{value: refundAmount}(\"\") */\n      mload(0x40)\n      tag_274\n      swap1\n      tag_173\n      jump\t// in\n    tag_274:\n      0x00\n      mload(0x40)\n      dup1\n      dup4\n      sub\n      dup2\n      dup6\n      dup8\n      gas\n      call\n      swap3\n      pop\n      pop\n      pop\n      returndatasize\n      dup1\n      0x00\n      dup2\n      eq\n      tag_277\n      jumpi\n      mload(0x40)\n      swap2\n      pop\n      and(add(returndatasize, 0x3f), not(0x1f))\n      dup3\n      add\n      0x40\n      mstore\n      returndatasize\n      dup3\n      mstore\n      returndatasize\n      0x00\n      0x20\n      dup5\n      add\n      returndatacopy\n      jump(tag_276)\n    tag_277:\n      0x60\n      swap2\n      pop\n    tag_276:\n      pop\n        /* \"Campaign.sol\":5353:5419  (bool sent, ) = payable(contributor).call{value: refundAmount}(\"\") */\n      pop\n      swap1\n      pop\n        /* \"Campaign.sol\":5441:5445  sent */\n      dup1\n        /* \"Campaign.sol\":5433:5463  require(sent, \"Refund failed\") */\n      tag_278\n      jumpi\n      mload(0x40)\n      0x08c379a000000000000000000000000000000000000000000000000000000000\n      dup2\n      mstore\n      0x04\n      add\n      tag_279\n      swap1\n      tag_179\n      jump\t// in\n    tag_279:\n      mload(0x40)\n      dup1\n      swap2\n      sub\n      swap1\n      revert\n    tag_278:\n        /* \"Campaign.sol\":5499:5510  contributor */\n      dup3\n        /* \"Campaign.sol\":5483:5525  RefundProcessed(contributor, refundAmount) */\n      0xffffffffffffffffffffffffffffffffffffffff\n      and\n      0x3367befd2b2f39615cd79917c2153263c4af1d3945ec003e5d5bfc13a8d85833\n        /* \"Campaign.sol\":5512:5524  refundAmount */\n      dup4\n        /* \"Campaign.sol\":5483:5525  RefundProcessed(contributor, refundAmount) */\n      mload(0x40)\n      tag_280\n      swap2\n      swap1\n      tag_46\n      jump\t// in\n    tag_280:\n      mload(0x40)\n      dup1\n      swap2\n      sub\n      swap1\n      log2\n        /* \"Campaign.sol\":5539:5550  processed++ */\n      dup4\n      dup1\n      tag_281\n      swap1\n      tag_271\n      jump\t// in\n    tag_281:\n      swap5\n      pop\n      pop\n        /* \"Campaign.sol\":4968:5561  {... */\n      pop\n      pop\n      pop\n        /* \"Campaign.sol\":4899:5561  while (nextRefundIndex < addresses.length && processed < maxRefunds) {... */\n      jump(tag_263)\n    tag_264:\n        /* \"Campaign.sol\":4750:5567  {... */\n      pop\n        /* \"Campaign.sol\":4699:5567  function processRefunds(uint256 maxRefunds) public {... */\n      pop\n      jump\t// out\n        /* \"Campaign.sol\":5662:5772  function getBid(address bidder) public view returns (uint256) {... */\n    tag_145:\n        /* \"Campaign.sol\":5715:5722  uint256 */\n      0x00\n        /* \"Campaign.sol\":5742:5756  approversMoney */\n      0x06\n        /* \"Campaign.sol\":5742:5764  approversMoney[bidder] */\n      0x00\n        /* \"Campaign.sol\":5757:5763  bidder */\n      dup4\n        /* \"Campaign.sol\":5742:5764  approversMoney[bidder] */\n      0xffffffffffffffffffffffffffffffffffffffff\n      and\n      0xffffffffffffffffffffffffffffffffffffffff\n      and\n      dup2\n      mstore\n      0x20\n      add\n      swap1\n      dup2\n      mstore\n      0x20\n      add\n      0x00\n      keccak256\n      sload\n        /* \"Campaign.sol\":5735:5764  return approversMoney[bidder] */\n      swap1\n      pop\n        /* \"Campaign.sol\":5662:5772  function getBid(address bidder) public view returns (uint256) {... */\n      swap2\n      swap1\n      pop\n      jump\t// out\n        /* \"Campaign.sol\":1292:1317  uint256 public highestBid */\n    tag_149:\n      sload(0x0b)\n      dup2\n      jump\t// out\n        /* \"Campaign.sol\":2104:3637  function contribute() public payable onlyBeforeEnd {... */\n    tag_152:\n        /* \"Campaign.sol\":1475:1482  endTime */\n      sload(0x0c)\n        /* \"Campaign.sol\":1457:1472  block.timestamp */\n      timestamp\n        /* \"Campaign.sol\":1457:1482  block.timestamp < endTime */\n      lt\n        /* \"Campaign.sol\":1449:1500  require(block.timestamp < endTime, \"Auction ended\") */\n      tag_284\n      jumpi\n      mload(0x40)\n      0x08c379a000000000000000000000000000000000000000000000000000000000\n      dup2\n      mstore\n      0x04\n      add\n      tag_285\n      swap1\n      tag_286\n      jump\t// in\n    tag_285:\n      mload(0x40)\n      dup1\n      swap2\n      sub\n      swap1\n      revert\n    tag_284:\n        /* \"Campaign.sol\":2184:2191  manager */\n      0x01\n      0x00\n      swap1\n      sload\n      swap1\n      0x0100\n      exp\n      swap1\n      div\n      0xffffffffffffffffffffffffffffffffffffffff\n      and\n        /* \"Campaign.sol\":2170:2191  msg.sender != manager */\n      0xffffffffffffffffffffffffffffffffffffffff\n      and\n        /* \"Campaign.sol\":2170:2180  msg.sender */\n      caller\n        /* \"Campaign.sol\":2170:2191  msg.sender != manager */\n      0xffffffffffffffffffffffffffffffffffffffff\n      and\n      sub\n        /* \"Campaign.sol\":2162:2229  require(msg.sender != manager, \"You can't bid on your own auction\") */\n      tag_288\n      jumpi\n      mload(0x40)\n      0x08c379a000000000000000000000000000000000000000000000000000000000\n      dup2\n      mstore\n      0x04\n      add\n      tag_289\n      swap1\n      tag_290\n      jump\t// in\n    tag_289:\n      mload(0x40)\n      dup1\n      swap2\n      sub\n      swap1\n      revert\n    tag_288:\n        /* \"Campaign.sol\":2256:2257  0 */\n      0x00\n        /* \"Campaign.sol\":2244:2253  msg.value */\n      callvalue\n        /* \"Campaign.sol\":2244:2257  msg.value > 0 */\n      gt\n        /* \"Campaign.sol\":2236:2282  require(msg.value > 0, \"Must send some ether\") */\n      tag_291\n      jumpi\n      mload(0x40)\n      0x08c379a000000000000000000000000000000000000000000000000000000000\n      dup2\n      mstore\n      0x04\n      add\n      tag_292\n      swap1\n      tag_293\n      jump\t// in\n    tag_292:\n      mload(0x40)\n      dup1\n      swap2\n      sub\n      swap1\n      revert\n    tag_291:\n        /* \"Campaign.sol\":2291:2307  uint256 previous */\n      0x00\n        /* \"Campaign.sol\":2310:2324  approversMoney */\n      0x06\n        /* \"Campaign.sol\":2310:2336  approversMoney[msg.sender] */\n      0x00\n        /* \"Campaign.sol\":2325:2335  msg.sender */\n      caller\n        /* \"Campaign.sol\":2310:2336  approversMoney[msg.sender] */\n      0xffffffffffffffffffffffffffffffffffffffff\n      and\n      0xffffffffffffffffffffffffffffffffffffffff\n      and\n      dup2\n      mstore\n      0x20\n      add\n      swap1\n      dup2\n      mstore\n      0x20\n      add\n      0x00\n      keccak256\n      sload\n        /* \"Campaign.sol\":2291:2336  uint256 previous = approversMoney[msg.sender] */\n      swap1\n      pop\n        /* \"Campaign.sol\":2343:2359  uint256 newTotal */\n      0x00\n        /* \"Campaign.sol\":2373:2382  msg.value */\n      callvalue\n        /* \"Campaign.sol\":2362:2370  previous */\n      dup3\n        /* \"Campaign.sol\":2362:2382  previous + msg.value */\n      tag_294\n      swap2\n      swap1\n      tag_295\n      jump\t// in\n    tag_294:\n        /* \"Campaign.sol\":2343:2382  uint256 newTotal = previous + msg.value */\n      swap1\n      pop\n        /* \"Campaign.sol\":2483:2484  0 */\n      0x00\n        /* \"Campaign.sol\":2458:2485  highestBidder == address(0) */\n      0xffffffffffffffffffffffffffffffffffffffff\n      and\n        /* \"Campaign.sol\":2458:2471  highestBidder */\n      0x0a\n      0x00\n      swap1\n      sload\n      swap1\n      0x0100\n      exp\n      swap1\n      div\n      0xffffffffffffffffffffffffffffffffffffffff\n      and\n        /* \"Campaign.sol\":2458:2485  highestBidder == address(0) */\n      0xffffffffffffffffffffffffffffffffffffffff\n      and\n      sub\n        /* \"Campaign.sol\":2454:3270  if (highestBidder == address(0)) {... */\n      tag_296\n      jumpi\n        /* \"Campaign.sol\":2518:2537  minimumContribution */\n      sload(0x02)\n        /* \"Campaign.sol\":2506:2514  newTotal */\n      dup2\n        /* \"Campaign.sol\":2506:2537  newTotal >= minimumContribution */\n      lt\n      iszero\n        /* \"Campaign.sol\":2498:2559  require(newTotal >= minimumContribution, \"Below minimum bid\") */\n      tag_297\n      jumpi\n      mload(0x40)\n      0x08c379a000000000000000000000000000000000000000000000000000000000\n      dup2\n      mstore\n      0x04\n      add\n      tag_298\n      swap1\n      tag_299\n      jump\t// in\n    tag_298:\n      mload(0x40)\n      dup1\n      swap2\n      sub\n      swap1\n      revert\n    tag_297:\n        /* \"Campaign.sol\":2570:2577  factory */\n      0x00\n      0x00\n      swap1\n      sload\n      swap1\n      0x0100\n      exp\n      swap1\n      div\n      0xffffffffffffffffffffffffffffffffffffffff\n      and\n        /* \"Campaign.sol\":2570:2590  factory.changeBudget */\n      0xffffffffffffffffffffffffffffffffffffffff\n      and\n      0x8dfac90c\n        /* \"Campaign.sol\":2591:2601  msg.sender */\n      caller\n        /* \"Campaign.sol\":2603:2612  msg.value */\n      callvalue\n        /* \"Campaign.sol\":2614:2619  false */\n      0x00\n        /* \"Campaign.sol\":2570:2620  factory.changeBudget(msg.sender, msg.value, false) */\n      mload(0x40)\n      dup5\n      0xffffffff\n      and\n      0xe0\n      shl\n      dup2\n      mstore\n      0x04\n      add\n      tag_300\n      swap4\n      swap3\n      swap2\n      swap1\n      tag_247\n      jump\t// in\n    tag_300:\n      0x00\n      mload(0x40)\n      dup1\n      dup4\n      sub\n      dup2\n      0x00\n      dup8\n      dup1\n      extcodesize\n      iszero\n      dup1\n      iszero\n      tag_301\n      jumpi\n      revert(0x00, 0x00)\n    tag_301:\n      pop\n      gas\n      call\n      iszero\n      dup1\n      iszero\n      tag_303\n      jumpi\n      returndatacopy(0x00, 0x00, returndatasize)\n      revert(0x00, returndatasize)\n    tag_303:\n      pop\n      pop\n      pop\n      pop\n        /* \"Campaign.sol\":2454:3270  if (highestBidder == address(0)) {... */\n      jump(tag_304)\n    tag_296:\n        /* \"Campaign.sol\":2703:2713  highestBid */\n      sload(0x0b)\n        /* \"Campaign.sol\":2692:2700  newTotal */\n      dup2\n        /* \"Campaign.sol\":2692:2713  newTotal > highestBid */\n      gt\n        /* \"Campaign.sol\":2684:2749  require(newTotal > highestBid, \"Bid must exceed current highest\") */\n      tag_305\n      jumpi\n      mload(0x40)\n      0x08c379a000000000000000000000000000000000000000000000000000000000\n      dup2\n      mstore\n      0x04\n      add\n      tag_306\n      swap1\n      tag_307\n      jump\t// in\n    tag_306:\n      mload(0x40)\n      dup1\n      swap2\n      sub\n      swap1\n      revert\n    tag_305:\n        /* \"Campaign.sol\":2865:2878  highestBidder */\n      0x0a\n      0x00\n      swap1\n      sload\n      swap1\n      0x0100\n      exp\n      swap1\n      div\n      0xffffffffffffffffffffffffffffffffffffffff\n      and\n        /* \"Campaign.sol\":2851:2878  msg.sender != highestBidder */\n      0xffffffffffffffffffffffffffffffffffffffff\n      and\n        /* \"Campaign.sol\":2851:2861  msg.sender */\n      caller\n        /* \"Campaign.sol\":2851:2878  msg.sender != highestBidder */\n      0xffffffffffffffffffffffffffffffffffffffff\n      and\n      eq\n        /* \"Campaign.sol\":2847:3263  if (msg.sender != highestBidder) {... */\n      tag_308\n      jumpi\n        /* \"Campaign.sol\":2895:2902  factory */\n      0x00\n      0x00\n      swap1\n      sload\n      swap1\n      0x0100\n      exp\n      swap1\n      div\n      0xffffffffffffffffffffffffffffffffffffffff\n      and\n        /* \"Campaign.sol\":2895:2915  factory.changeBudget */\n      0xffffffffffffffffffffffffffffffffffffffff\n      and\n      0x8dfac90c\n        /* \"Campaign.sol\":2916:2929  highestBidder */\n      0x0a\n      0x00\n      swap1\n      sload\n      swap1\n      0x0100\n      exp\n      swap1\n      div\n      0xffffffffffffffffffffffffffffffffffffffff\n      and\n        /* \"Campaign.sol\":2931:2941  highestBid */\n      sload(0x0b)\n        /* \"Campaign.sol\":2943:2947  true */\n      0x01\n        /* \"Campaign.sol\":2895:2948  factory.changeBudget(highestBidder, highestBid, true) */\n      mload(0x40)\n      dup5\n      0xffffffff\n      and\n      0xe0\n      shl\n      dup2\n      mstore\n      0x04\n      add\n      tag_309\n      swap4\n      swap3\n      swap2\n      swap1\n      tag_247\n      jump\t// in\n    tag_309:\n      0x00\n      mload(0x40)\n      dup1\n      dup4\n      sub\n      dup2\n      0x00\n      dup8\n      dup1\n      extcodesize\n      iszero\n      dup1\n      iszero\n      tag_310\n      jumpi\n      revert(0x00, 0x00)\n    tag_310:\n      pop\n      gas\n      call\n      iszero\n      dup1\n      iszero\n      tag_312\n      jumpi\n      returndatacopy(0x00, 0x00, returndatasize)\n      revert(0x00, returndatasize)\n    tag_312:\n      pop\n      pop\n      pop\n      pop\n        /* \"Campaign.sol\":2999:3006  factory */\n      0x00\n      0x00\n      swap1\n      sload\n      swap1\n      0x0100\n      exp\n      swap1\n      div\n      0xffffffffffffffffffffffffffffffffffffffff\n      and\n        /* \"Campaign.sol\":2999:3019  factory.changeBudget */\n      0xffffffffffffffffffffffffffffffffffffffff\n      and\n      0x8dfac90c\n        /* \"Campaign.sol\":3020:3030  msg.sender */\n      caller\n        /* \"Campaign.sol\":3032:3040  newTotal */\n      dup4\n        /* \"Campaign.sol\":3042:3047  false */\n      0x00\n        /* \"Campaign.sol\":2999:3048  factory.changeBudget(msg.sender, newTotal, false) */\n      mload(0x40)\n      dup5\n      0xffffffff\n      and\n      0xe0\n      shl\n      dup2\n      mstore\n      0x04\n      add\n      tag_313\n      swap4\n      swap3\n      swap2\n      swap1\n      tag_247\n      jump\t// in\n    tag_313:\n      0x00\n      mload(0x40)\n      dup1\n      dup4\n      sub\n      dup2\n      0x00\n      dup8\n      dup1\n      extcodesize\n      iszero\n      dup1\n      iszero\n      tag_314\n      jumpi\n      revert(0x00, 0x00)\n    tag_314:\n      pop\n      gas\n      call\n      iszero\n      dup1\n      iszero\n      tag_316\n      jumpi\n      returndatacopy(0x00, 0x00, returndatasize)\n      revert(0x00, returndatasize)\n    tag_316:\n      pop\n      pop\n      pop\n      pop\n        /* \"Campaign.sol\":2847:3263  if (msg.sender != highestBidder) {... */\n      jump(tag_317)\n    tag_308:\n        /* \"Campaign.sol\":3201:3208  factory */\n      0x00\n      0x00\n      swap1\n      sload\n      swap1\n      0x0100\n      exp\n      swap1\n      div\n      0xffffffffffffffffffffffffffffffffffffffff\n      and\n        /* \"Campaign.sol\":3201:3221  factory.changeBudget */\n      0xffffffffffffffffffffffffffffffffffffffff\n      and\n      0x8dfac90c\n        /* \"Campaign.sol\":3222:3232  msg.sender */\n      caller\n        /* \"Campaign.sol\":3234:3243  msg.value */\n      callvalue\n        /* \"Campaign.sol\":3245:3250  false */\n      0x00\n        /* \"Campaign.sol\":3201:3251  factory.changeBudget(msg.sender, msg.value, false) */\n      mload(0x40)\n      dup5\n      0xffffffff\n      and\n      0xe0\n      shl\n      dup2\n      mstore\n      0x04\n      add\n      tag_318\n      swap4\n      swap3\n      swap2\n      swap1\n      tag_247\n      jump\t// in\n    tag_318:\n      0x00\n      mload(0x40)\n      dup1\n      dup4\n      sub\n      dup2\n      0x00\n      dup8\n      dup1\n      extcodesize\n      iszero\n      dup1\n      iszero\n      tag_319\n      jumpi\n      revert(0x00, 0x00)\n    tag_319:\n      pop\n      gas\n      call\n      iszero\n      dup1\n      iszero\n      tag_321\n      jumpi\n      returndatacopy(0x00, 0x00, returndatasize)\n      revert(0x00, returndatasize)\n    tag_321:\n      pop\n      pop\n      pop\n      pop\n        /* \"Campaign.sol\":2847:3263  if (msg.sender != highestBidder) {... */\n    tag_317:\n        /* \"Campaign.sol\":2454:3270  if (highestBidder == address(0)) {... */\n    tag_304:\n        /* \"Campaign.sol\":3307:3315  newTotal */\n      dup1\n        /* \"Campaign.sol\":3278:3292  approversMoney */\n      0x06\n        /* \"Campaign.sol\":3278:3304  approversMoney[msg.sender] */\n      0x00\n        /* \"Campaign.sol\":3293:3303  msg.sender */\n      caller\n        /* \"Campaign.sol\":3278:3304  approversMoney[msg.sender] */\n      0xffffffffffffffffffffffffffffffffffffffff\n      and\n      0xffffffffffffffffffffffffffffffffffffffff\n      and\n      dup2\n      mstore\n      0x20\n      add\n      swap1\n      dup2\n      mstore\n      0x20\n      add\n      0x00\n      keccak256\n        /* \"Campaign.sol\":3278:3315  approversMoney[msg.sender] = newTotal */\n      dup2\n      swap1\n      sstore\n      pop\n        /* \"Campaign.sol\":3335:3343  newTotal */\n      dup1\n        /* \"Campaign.sol\":3322:3332  highestBid */\n      0x0b\n        /* \"Campaign.sol\":3322:3343  highestBid = newTotal */\n      dup2\n      swap1\n      sstore\n      pop\n        /* \"Campaign.sol\":3366:3376  msg.sender */\n      caller\n        /* \"Campaign.sol\":3350:3363  highestBidder */\n      0x0a\n      0x00\n        /* \"Campaign.sol\":3350:3376  highestBidder = msg.sender */\n      0x0100\n      exp\n      dup2\n      sload\n      dup2\n      0xffffffffffffffffffffffffffffffffffffffff\n      mul\n      not\n      and\n      swap1\n      dup4\n      0xffffffffffffffffffffffffffffffffffffffff\n      and\n      mul\n      or\n      swap1\n      sstore\n      pop\n        /* \"Campaign.sol\":3385:3397  transactions */\n      0x09\n        /* \"Campaign.sol\":3403:3446  Bid(msg.value, block.timestamp, msg.sender) */\n      mload(0x40)\n      dup1\n      0x60\n      add\n      0x40\n      mstore\n      dup1\n        /* \"Campaign.sol\":3407:3416  msg.value */\n      callvalue\n        /* \"Campaign.sol\":3403:3446  Bid(msg.value, block.timestamp, msg.sender) */\n      dup2\n      mstore\n      0x20\n      add\n        /* \"Campaign.sol\":3418:3433  block.timestamp */\n      timestamp\n        /* \"Campaign.sol\":3403:3446  Bid(msg.value, block.timestamp, msg.sender) */\n      dup2\n      mstore\n      0x20\n      add\n        /* \"Campaign.sol\":3435:3445  msg.sender */\n      caller\n        /* \"Campaign.sol\":3403:3446  Bid(msg.value, block.timestamp, msg.sender) */\n      0xffffffffffffffffffffffffffffffffffffffff\n      and\n      dup2\n      mstore\n      pop\n        /* \"Campaign.sol\":3385:3447  transactions.push(Bid(msg.value, block.timestamp, msg.sender)) */\n      swap1\n      dup1\n      0x01\n      dup2\n      sload\n      add\n      dup1\n      dup3\n      sstore\n      dup1\n      swap2\n      pop\n      pop\n      0x01\n      swap1\n      sub\n      swap1\n      0x00\n      mstore\n      keccak256(0x00, 0x20)\n      swap1\n      0x03\n      mul\n      add\n      0x00\n      swap1\n      swap2\n      swap1\n      swap2\n      swap1\n      swap2\n      pop\n      0x00\n      dup3\n      add\n      mload\n      dup2\n      0x00\n      add\n      sstore\n      0x20\n      dup3\n      add\n      mload\n      dup2\n      0x01\n      add\n      sstore\n      0x40\n      dup3\n      add\n      mload\n      dup2\n      0x02\n      add\n      exp(0x0100, 0x00)\n      dup2\n      sload\n      dup2\n      0xffffffffffffffffffffffffffffffffffffffff\n      mul\n      not\n      and\n      swap1\n      dup4\n      0xffffffffffffffffffffffffffffffffffffffff\n      and\n      mul\n      or\n      swap1\n      sstore\n      pop\n      pop\n      pop\n        /* \"Campaign.sol\":3461:3470  approvers */\n      0x05\n        /* \"Campaign.sol\":3461:3482  approvers[msg.sender] */\n      0x00\n        /* \"Campaign.sol\":3471:3481  msg.sender */\n      caller\n        /* \"Campaign.sol\":3461:3482  approvers[msg.sender] */\n      0xffffffffffffffffffffffffffffffffffffffff\n      and\n      0xffffffffffffffffffffffffffffffffffffffff\n      and\n      dup2\n      mstore\n      0x20\n      add\n      swap1\n      dup2\n      mstore\n      0x20\n      add\n      0x00\n      keccak256\n      0x00\n      swap1\n      sload\n      swap1\n      0x0100\n      exp\n      swap1\n      div\n      0xff\n      and\n        /* \"Campaign.sol\":3456:3595  if (!approvers[msg.sender]) {... */\n      tag_323\n      jumpi\n        /* \"Campaign.sol\":3519:3523  true */\n      0x01\n        /* \"Campaign.sol\":3495:3504  approvers */\n      0x05\n        /* \"Campaign.sol\":3495:3516  approvers[msg.sender] */\n      0x00\n        /* \"Campaign.sol\":3505:3515  msg.sender */\n      caller\n        /* \"Campaign.sol\":3495:3516  approvers[msg.sender] */\n      0xffffffffffffffffffffffffffffffffffffffff\n      and\n      0xffffffffffffffffffffffffffffffffffffffff\n      and\n      dup2\n      mstore\n      0x20\n      add\n      swap1\n      dup2\n      mstore\n      0x20\n      add\n      0x00\n      keccak256\n      0x00\n        /* \"Campaign.sol\":3495:3523  approvers[msg.sender] = true */\n      0x0100\n      exp\n      dup2\n      sload\n      dup2\n      0xff\n      mul\n      not\n      and\n      swap1\n      dup4\n      iszero\n      iszero\n      mul\n      or\n      swap1\n      sstore\n      pop\n        /* \"Campaign.sol\":3534:3548  approversCount */\n      0x07\n      0x00\n        /* \"Campaign.sol\":3534:3550  approversCount++ */\n      dup2\n      sload\n      dup1\n      swap3\n      swap2\n      swap1\n      tag_324\n      swap1\n      tag_271\n      jump\t// in\n    tag_324:\n      swap2\n      swap1\n      pop\n      sstore\n      pop\n        /* \"Campaign.sol\":3561:3570  addresses */\n      0x08\n        /* \"Campaign.sol\":3576:3586  msg.sender */\n      caller\n        /* \"Campaign.sol\":3561:3587  addresses.push(msg.sender) */\n      swap1\n      dup1\n      0x01\n      dup2\n      sload\n      add\n      dup1\n      dup3\n      sstore\n      dup1\n      swap2\n      pop\n      pop\n      0x01\n      swap1\n      sub\n      swap1\n      0x00\n      mstore\n      keccak256(0x00, 0x20)\n      add\n      0x00\n      swap1\n      swap2\n      swap1\n      swap2\n      swap1\n      swap2\n      0x0100\n      exp\n      dup2\n      sload\n      dup2\n      0xffffffffffffffffffffffffffffffffffffffff\n      mul\n      not\n      and\n      swap1\n      dup4\n      0xffffffffffffffffffffffffffffffffffffffff\n      and\n      mul\n      or\n      swap1\n      sstore\n      pop\n        /* \"Campaign.sol\":3456:3595  if (!approvers[msg.sender]) {... */\n    tag_323:\n        /* \"Campaign.sol\":3606:3626  BidAdded(msg.sender) */\n      0x6cd3b8608d4368d7a92cfda5a745dfb2993256da9506cd888f31ff9aa48e2bd9\n        /* \"Campaign.sol\":3615:3625  msg.sender */\n      caller\n        /* \"Campaign.sol\":3606:3626  BidAdded(msg.sender) */\n      mload(0x40)\n      tag_326\n      swap2\n      swap1\n      tag_74\n      jump\t// in\n    tag_326:\n      mload(0x40)\n      dup1\n      swap2\n      sub\n      swap1\n      log1\n        /* \"Campaign.sol\":2155:3637  {... */\n      pop\n      pop\n        /* \"Campaign.sol\":2104:3637  function contribute() public payable onlyBeforeEnd {... */\n      jump\t// out\n        /* \"Campaign.sol\":1191:1217  address[] public addresses */\n    tag_156:\n      0x08\n      dup2\n      dup2\n      sload\n      dup2\n      lt\n      tag_327\n      jumpi\n      0x00\n      dup1\n      revert\n    tag_327:\n      swap1\n      0x00\n      mstore\n      keccak256(0x00, 0x20)\n      add\n      0x00\n      swap2\n      pop\n      sload\n      swap1\n      0x0100\n      exp\n      swap1\n      div\n      0xffffffffffffffffffffffffffffffffffffffff\n      and\n      dup2\n      jump\t// out\n        /* \"#utility.yul\":88:205   */\n    tag_330:\n        /* \"#utility.yul\":197:198   */\n      0x00\n        /* \"#utility.yul\":194:195   */\n      0x00\n        /* \"#utility.yul\":187:199   */\n      revert\n        /* \"#utility.yul\":334:460   */\n    tag_332:\n        /* \"#utility.yul\":371:378   */\n      0x00\n        /* \"#utility.yul\":411:453   */\n      0xffffffffffffffffffffffffffffffffffffffff\n        /* \"#utility.yul\":404:409   */\n      dup3\n        /* \"#utility.yul\":400:454   */\n      and\n        /* \"#utility.yul\":389:454   */\n      swap1\n      pop\n        /* \"#utility.yul\":334:460   */\n      swap2\n      swap1\n      pop\n      jump\t// out\n        /* \"#utility.yul\":466:562   */\n    tag_333:\n        /* \"#utility.yul\":503:510   */\n      0x00\n        /* \"#utility.yul\":532:556   */\n      tag_409\n        /* \"#utility.yul\":550:555   */\n      dup3\n        /* \"#utility.yul\":532:556   */\n      tag_332\n      jump\t// in\n    tag_409:\n        /* \"#utility.yul\":521:556   */\n      swap1\n      pop\n        /* \"#utility.yul\":466:562   */\n      swap2\n      swap1\n      pop\n      jump\t// out\n        /* \"#utility.yul\":568:690   */\n    tag_334:\n        /* \"#utility.yul\":641:665   */\n      tag_411\n        /* \"#utility.yul\":659:664   */\n      dup2\n        /* \"#utility.yul\":641:665   */\n      tag_333\n      jump\t// in\n    tag_411:\n        /* \"#utility.yul\":634:639   */\n      dup2\n        /* \"#utility.yul\":631:666   */\n      eq\n        /* \"#utility.yul\":621:684   */\n      tag_412\n      jumpi\n        /* \"#utility.yul\":680:681   */\n      0x00\n        /* \"#utility.yul\":677:678   */\n      0x00\n        /* \"#utility.yul\":670:682   */\n      revert\n        /* \"#utility.yul\":621:684   */\n    tag_412:\n        /* \"#utility.yul\":568:690   */\n      pop\n      jump\t// out\n        /* \"#utility.yul\":696:835   */\n    tag_335:\n        /* \"#utility.yul\":742:747   */\n      0x00\n        /* \"#utility.yul\":780:786   */\n      dup2\n        /* \"#utility.yul\":767:787   */\n      calldataload\n        /* \"#utility.yul\":758:787   */\n      swap1\n      pop\n        /* \"#utility.yul\":796:829   */\n      tag_414\n        /* \"#utility.yul\":823:828   */\n      dup2\n        /* \"#utility.yul\":796:829   */\n      tag_334\n      jump\t// in\n    tag_414:\n        /* \"#utility.yul\":696:835   */\n      swap3\n      swap2\n      pop\n      pop\n      jump\t// out\n        /* \"#utility.yul\":841:1170   */\n    tag_38:\n        /* \"#utility.yul\":900:906   */\n      0x00\n        /* \"#utility.yul\":949:951   */\n      0x20\n        /* \"#utility.yul\":937:946   */\n      dup3\n        /* \"#utility.yul\":928:935   */\n      dup5\n        /* \"#utility.yul\":924:947   */\n      sub\n        /* \"#utility.yul\":920:952   */\n      slt\n        /* \"#utility.yul\":917:1036   */\n      iszero\n      tag_416\n      jumpi\n        /* \"#utility.yul\":955:1034   */\n      tag_417\n      tag_330\n      jump\t// in\n    tag_417:\n        /* \"#utility.yul\":917:1036   */\n    tag_416:\n        /* \"#utility.yul\":1075:1076   */\n      0x00\n        /* \"#utility.yul\":1100:1153   */\n      tag_418\n        /* \"#utility.yul\":1145:1152   */\n      dup5\n        /* \"#utility.yul\":1136:1142   */\n      dup3\n        /* \"#utility.yul\":1125:1134   */\n      dup6\n        /* \"#utility.yul\":1121:1143   */\n      add\n        /* \"#utility.yul\":1100:1153   */\n      tag_335\n      jump\t// in\n    tag_418:\n        /* \"#utility.yul\":1090:1153   */\n      swap2\n      pop\n        /* \"#utility.yul\":1046:1163   */\n      pop\n        /* \"#utility.yul\":841:1170   */\n      swap3\n      swap2\n      pop\n      pop\n      jump\t// out\n        /* \"#utility.yul\":1176:1266   */\n    tag_336:\n        /* \"#utility.yul\":1210:1217   */\n      0x00\n        /* \"#utility.yul\":1253:1258   */\n      dup2\n        /* \"#utility.yul\":1246:1259   */\n      iszero\n        /* \"#utility.yul\":1239:1260   */\n      iszero\n        /* \"#utility.yul\":1228:1260   */\n      swap1\n      pop\n        /* \"#utility.yul\":1176:1266   */\n      swap2\n      swap1\n      pop\n      jump\t// out\n        /* \"#utility.yul\":1272:1381   */\n    tag_337:\n        /* \"#utility.yul\":1353:1374   */\n      tag_421\n        /* \"#utility.yul\":1368:1373   */\n      dup2\n        /* \"#utility.yul\":1353:1374   */\n      tag_336\n      jump\t// in\n    tag_421:\n        /* \"#utility.yul\":1348:1351   */\n      dup3\n        /* \"#utility.yul\":1341:1375   */\n      mstore\n        /* \"#utility.yul\":1272:1381   */\n      pop\n      pop\n      jump\t// out\n        /* \"#utility.yul\":1387:1464   */\n    tag_338:\n        /* \"#utility.yul\":1424:1431   */\n      0x00\n        /* \"#utility.yul\":1453:1458   */\n      dup2\n        /* \"#utility.yul\":1442:1458   */\n      swap1\n      pop\n        /* \"#utility.yul\":1387:1464   */\n      swap2\n      swap1\n      pop\n      jump\t// out\n        /* \"#utility.yul\":1470:1588   */\n    tag_339:\n        /* \"#utility.yul\":1557:1581   */\n      tag_424\n        /* \"#utility.yul\":1575:1580   */\n      dup2\n        /* \"#utility.yul\":1557:1581   */\n      tag_338\n      jump\t// in\n    tag_424:\n        /* \"#utility.yul\":1552:1555   */\n      dup3\n        /* \"#utility.yul\":1545:1582   */\n      mstore\n        /* \"#utility.yul\":1470:1588   */\n      pop\n      pop\n      jump\t// out\n        /* \"#utility.yul\":1594:2210   */\n    tag_41:\n        /* \"#utility.yul\":1775:1779   */\n      0x00\n        /* \"#utility.yul\":1813:1816   */\n      0xa0\n        /* \"#utility.yul\":1802:1811   */\n      dup3\n        /* \"#utility.yul\":1798:1817   */\n      add\n        /* \"#utility.yul\":1790:1817   */\n      swap1\n      pop\n        /* \"#utility.yul\":1827:1892   */\n      tag_426\n        /* \"#utility.yul\":1889:1890   */\n      0x00\n        /* \"#utility.yul\":1878:1887   */\n      dup4\n        /* \"#utility.yul\":1874:1891   */\n      add\n        /* \"#utility.yul\":1865:1871   */\n      dup9\n        /* \"#utility.yul\":1827:1892   */\n      tag_337\n      jump\t// in\n    tag_426:\n        /* \"#utility.yul\":1902:1974   */\n      tag_427\n        /* \"#utility.yul\":1970:1972   */\n      0x20\n        /* \"#utility.yul\":1959:1968   */\n      dup4\n        /* \"#utility.yul\":1955:1973   */\n      add\n        /* \"#utility.yul\":1946:1952   */\n      dup8\n        /* \"#utility.yul\":1902:1974   */\n      tag_339\n      jump\t// in\n    tag_427:\n        /* \"#utility.yul\":1984:2050   */\n      tag_428\n        /* \"#utility.yul\":2046:2048   */\n      0x40\n        /* \"#utility.yul\":2035:2044   */\n      dup4\n        /* \"#utility.yul\":2031:2049   */\n      add\n        /* \"#utility.yul\":2022:2028   */\n      dup7\n        /* \"#utility.yul\":1984:2050   */\n      tag_337\n      jump\t// in\n    tag_428:\n        /* \"#utility.yul\":2060:2126   */\n      tag_429\n        /* \"#utility.yul\":2122:2124   */\n      0x60\n        /* \"#utility.yul\":2111:2120   */\n      dup4\n        /* \"#utility.yul\":2107:2125   */\n      add\n        /* \"#utility.yul\":2098:2104   */\n      dup6\n        /* \"#utility.yul\":2060:2126   */\n      tag_337\n      jump\t// in\n    tag_429:\n        /* \"#utility.yul\":2136:2203   */\n      tag_430\n        /* \"#utility.yul\":2198:2201   */\n      0x80\n        /* \"#utility.yul\":2187:2196   */\n      dup4\n        /* \"#utility.yul\":2183:2202   */\n      add\n        /* \"#utility.yul\":2174:2180   */\n      dup5\n        /* \"#utility.yul\":2136:2203   */\n      tag_337\n      jump\t// in\n    tag_430:\n        /* \"#utility.yul\":1594:2210   */\n      swap7\n      swap6\n      pop\n      pop\n      pop\n      pop\n      pop\n      pop\n      jump\t// out\n        /* \"#utility.yul\":2216:2438   */\n    tag_46:\n        /* \"#utility.yul\":2309:2313   */\n      0x00\n        /* \"#utility.yul\":2347:2349   */\n      0x20\n        /* \"#utility.yul\":2336:2345   */\n      dup3\n        /* \"#utility.yul\":2332:2350   */\n      add\n        /* \"#utility.yul\":2324:2350   */\n      swap1\n      pop\n        /* \"#utility.yul\":2360:2431   */\n      tag_432\n        /* \"#utility.yul\":2428:2429   */\n      0x00\n        /* \"#utility.yul\":2417:2426   */\n      dup4\n        /* \"#utility.yul\":2413:2430   */\n      add\n        /* \"#utility.yul\":2404:2410   */\n      dup5\n        /* \"#utility.yul\":2360:2431   */\n      tag_339\n      jump\t// in\n    tag_432:\n        /* \"#utility.yul\":2216:2438   */\n      swap3\n      swap2\n      pop\n      pop\n      jump\t// out\n        /* \"#utility.yul\":2444:2654   */\n    tag_52:\n        /* \"#utility.yul\":2531:2535   */\n      0x00\n        /* \"#utility.yul\":2569:2571   */\n      0x20\n        /* \"#utility.yul\":2558:2567   */\n      dup3\n        /* \"#utility.yul\":2554:2572   */\n      add\n        /* \"#utility.yul\":2546:2572   */\n      swap1\n      pop\n        /* \"#utility.yul\":2582:2647   */\n      tag_434\n        /* \"#utility.yul\":2644:2645   */\n      0x00\n        /* \"#utility.yul\":2633:2642   */\n      dup4\n        /* \"#utility.yul\":2629:2646   */\n      add\n        /* \"#utility.yul\":2620:2626   */\n      dup5\n        /* \"#utility.yul\":2582:2647   */\n      tag_337\n      jump\t// in\n    tag_434:\n        /* \"#utility.yul\":2444:2654   */\n      swap3\n      swap2\n      pop\n      pop\n      jump\t// out\n        /* \"#utility.yul\":2660:2759   */\n    tag_340:\n        /* \"#utility.yul\":2712:2718   */\n      0x00\n        /* \"#utility.yul\":2746:2751   */\n      dup2\n        /* \"#utility.yul\":2740:2752   */\n      mload\n        /* \"#utility.yul\":2730:2752   */\n      swap1\n      pop\n        /* \"#utility.yul\":2660:2759   */\n      swap2\n      swap1\n      pop\n      jump\t// out\n        /* \"#utility.yul\":2765:2934   */\n    tag_341:\n        /* \"#utility.yul\":2849:2860   */\n      0x00\n        /* \"#utility.yul\":2883:2889   */\n      dup3\n        /* \"#utility.yul\":2878:2881   */\n      dup3\n        /* \"#utility.yul\":2871:2890   */\n      mstore\n        /* \"#utility.yul\":2923:2927   */\n      0x20\n        /* \"#utility.yul\":2918:2921   */\n      dup3\n        /* \"#utility.yul\":2914:2928   */\n      add\n        /* \"#utility.yul\":2899:2928   */\n      swap1\n      pop\n        /* \"#utility.yul\":2765:2934   */\n      swap3\n      swap2\n      pop\n      pop\n      jump\t// out\n        /* \"#utility.yul\":2940:3079   */\n    tag_342:\n        /* \"#utility.yul\":3029:3035   */\n      dup3\n        /* \"#utility.yul\":3024:3027   */\n      dup2\n        /* \"#utility.yul\":3019:3022   */\n      dup4\n        /* \"#utility.yul\":3013:3036   */\n      mcopy\n        /* \"#utility.yul\":3070:3071   */\n      0x00\n        /* \"#utility.yul\":3061:3067   */\n      dup4\n        /* \"#utility.yul\":3056:3059   */\n      dup4\n        /* \"#utility.yul\":3052:3068   */\n      add\n        /* \"#utility.yul\":3045:3072   */\n      mstore\n        /* \"#utility.yul\":2940:3079   */\n      pop\n      pop\n      pop\n      jump\t// out\n        /* \"#utility.yul\":3085:3187   */\n    tag_343:\n        /* \"#utility.yul\":3126:3132   */\n      0x00\n        /* \"#utility.yul\":3177:3179   */\n      0x1f\n        /* \"#utility.yul\":3173:3180   */\n      not\n        /* \"#utility.yul\":3168:3170   */\n      0x1f\n        /* \"#utility.yul\":3161:3166   */\n      dup4\n        /* \"#utility.yul\":3157:3171   */\n      add\n        /* \"#utility.yul\":3153:3181   */\n      and\n        /* \"#utility.yul\":3143:3181   */\n      swap1\n      pop\n        /* \"#utility.yul\":3085:3187   */\n      swap2\n      swap1\n      pop\n      jump\t// out\n        /* \"#utility.yul\":3193:3570   */\n    tag_344:\n        /* \"#utility.yul\":3281:3284   */\n      0x00\n        /* \"#utility.yul\":3309:3348   */\n      tag_440\n        /* \"#utility.yul\":3342:3347   */\n      dup3\n        /* \"#utility.yul\":3309:3348   */\n      tag_340\n      jump\t// in\n    tag_440:\n        /* \"#utility.yul\":3364:3435   */\n      tag_441\n        /* \"#utility.yul\":3428:3434   */\n      dup2\n        /* \"#utility.yul\":3423:3426   */\n      dup6\n        /* \"#utility.yul\":3364:3435   */\n      tag_341\n      jump\t// in\n    tag_441:\n        /* \"#utility.yul\":3357:3435   */\n      swap4\n      pop\n        /* \"#utility.yul\":3444:3509   */\n      tag_442\n        /* \"#utility.yul\":3502:3508   */\n      dup2\n        /* \"#utility.yul\":3497:3500   */\n      dup6\n        /* \"#utility.yul\":3490:3494   */\n      0x20\n        /* \"#utility.yul\":3483:3488   */\n      dup7\n        /* \"#utility.yul\":3479:3495   */\n      add\n        /* \"#utility.yul\":3444:3509   */\n      tag_342\n      jump\t// in\n    tag_442:\n        /* \"#utility.yul\":3534:3563   */\n      tag_443\n        /* \"#utility.yul\":3556:3562   */\n      dup2\n        /* \"#utility.yul\":3534:3563   */\n      tag_343\n      jump\t// in\n    tag_443:\n        /* \"#utility.yul\":3529:3532   */\n      dup5\n        /* \"#utility.yul\":3525:3564   */\n      add\n        /* \"#utility.yul\":3518:3564   */\n      swap2\n      pop\n        /* \"#utility.yul\":3285:3570   */\n      pop\n        /* \"#utility.yul\":3193:3570   */\n      swap3\n      swap2\n      pop\n      pop\n      jump\t// out\n        /* \"#utility.yul\":3576:3889   */\n    tag_64:\n        /* \"#utility.yul\":3689:3693   */\n      0x00\n        /* \"#utility.yul\":3727:3729   */\n      0x20\n        /* \"#utility.yul\":3716:3725   */\n      dup3\n        /* \"#utility.yul\":3712:3730   */\n      add\n        /* \"#utility.yul\":3704:3730   */\n      swap1\n      pop\n        /* \"#utility.yul\":3776:3785   */\n      dup2\n        /* \"#utility.yul\":3770:3774   */\n      dup2\n        /* \"#utility.yul\":3766:3786   */\n      sub\n        /* \"#utility.yul\":3762:3763   */\n      0x00\n        /* \"#utility.yul\":3751:3760   */\n      dup4\n        /* \"#utility.yul\":3747:3764   */\n      add\n        /* \"#utility.yul\":3740:3787   */\n      mstore\n        /* \"#utility.yul\":3804:3882   */\n      tag_445\n        /* \"#utility.yul\":3877:3881   */\n      dup2\n        /* \"#utility.yul\":3868:3874   */\n      dup5\n        /* \"#utility.yul\":3804:3882   */\n      tag_344\n      jump\t// in\n    tag_445:\n        /* \"#utility.yul\":3796:3882   */\n      swap1\n      pop\n        /* \"#utility.yul\":3576:3889   */\n      swap3\n      swap2\n      pop\n      pop\n      jump\t// out\n        /* \"#utility.yul\":3895:4013   */\n    tag_345:\n        /* \"#utility.yul\":3982:4006   */\n      tag_447\n        /* \"#utility.yul\":4000:4005   */\n      dup2\n        /* \"#utility.yul\":3982:4006   */\n      tag_333\n      jump\t// in\n    tag_447:\n        /* \"#utility.yul\":3977:3980   */\n      dup3\n        /* \"#utility.yul\":3970:4007   */\n      mstore\n        /* \"#utility.yul\":3895:4013   */\n      pop\n      pop\n      jump\t// out\n        /* \"#utility.yul\":4019:4133   */\n    tag_346:\n        /* \"#utility.yul\":4086:4092   */\n      0x00\n        /* \"#utility.yul\":4120:4125   */\n      dup2\n        /* \"#utility.yul\":4114:4126   */\n      mload\n        /* \"#utility.yul\":4104:4126   */\n      swap1\n      pop\n        /* \"#utility.yul\":4019:4133   */\n      swap2\n      swap1\n      pop\n      jump\t// out\n        /* \"#utility.yul\":4139:4323   */\n    tag_347:\n        /* \"#utility.yul\":4238:4249   */\n      0x00\n        /* \"#utility.yul\":4272:4278   */\n      dup3\n        /* \"#utility.yul\":4267:4270   */\n      dup3\n        /* \"#utility.yul\":4260:4279   */\n      mstore\n        /* \"#utility.yul\":4312:4316   */\n      0x20\n        /* \"#utility.yul\":4307:4310   */\n      dup3\n        /* \"#utility.yul\":4303:4317   */\n      add\n        /* \"#utility.yul\":4288:4317   */\n      swap1\n      pop\n        /* \"#utility.yul\":4139:4323   */\n      swap3\n      swap2\n      pop\n      pop\n      jump\t// out\n        /* \"#utility.yul\":4329:4461   */\n    tag_348:\n        /* \"#utility.yul\":4396:4400   */\n      0x00\n        /* \"#utility.yul\":4419:4422   */\n      dup2\n        /* \"#utility.yul\":4411:4422   */\n      swap1\n      pop\n        /* \"#utility.yul\":4449:4453   */\n      0x20\n        /* \"#utility.yul\":4444:4447   */\n      dup3\n        /* \"#utility.yul\":4440:4454   */\n      add\n        /* \"#utility.yul\":4432:4454   */\n      swap1\n      pop\n        /* \"#utility.yul\":4329:4461   */\n      swap2\n      swap1\n      pop\n      jump\t// out\n        /* \"#utility.yul\":4467:4575   */\n    tag_349:\n        /* \"#utility.yul\":4544:4568   */\n      tag_452\n        /* \"#utility.yul\":4562:4567   */\n      dup2\n        /* \"#utility.yul\":4544:4568   */\n      tag_333\n      jump\t// in\n    tag_452:\n        /* \"#utility.yul\":4539:4542   */\n      dup3\n        /* \"#utility.yul\":4532:4569   */\n      mstore\n        /* \"#utility.yul\":4467:4575   */\n      pop\n      pop\n      jump\t// out\n        /* \"#utility.yul\":4581:4760   */\n    tag_350:\n        /* \"#utility.yul\":4650:4660   */\n      0x00\n        /* \"#utility.yul\":4671:4717   */\n      tag_454\n        /* \"#utility.yul\":4713:4716   */\n      dup4\n        /* \"#utility.yul\":4705:4711   */\n      dup4\n        /* \"#utility.yul\":4671:4717   */\n      tag_349\n      jump\t// in\n    tag_454:\n        /* \"#utility.yul\":4749:4753   */\n      0x20\n        /* \"#utility.yul\":4744:4747   */\n      dup4\n        /* \"#utility.yul\":4740:4754   */\n      add\n        /* \"#utility.yul\":4726:4754   */\n      swap1\n      pop\n        /* \"#utility.yul\":4581:4760   */\n      swap3\n      swap2\n      pop\n      pop\n      jump\t// out\n        /* \"#utility.yul\":4766:4879   */\n    tag_351:\n        /* \"#utility.yul\":4836:4840   */\n      0x00\n        /* \"#utility.yul\":4868:4872   */\n      0x20\n        /* \"#utility.yul\":4863:4866   */\n      dup3\n        /* \"#utility.yul\":4859:4873   */\n      add\n        /* \"#utility.yul\":4851:4873   */\n      swap1\n      pop\n        /* \"#utility.yul\":4766:4879   */\n      swap2\n      swap1\n      pop\n      jump\t// out\n        /* \"#utility.yul\":4915:5647   */\n    tag_352:\n        /* \"#utility.yul\":5034:5037   */\n      0x00\n        /* \"#utility.yul\":5063:5117   */\n      tag_457\n        /* \"#utility.yul\":5111:5116   */\n      dup3\n        /* \"#utility.yul\":5063:5117   */\n      tag_346\n      jump\t// in\n    tag_457:\n        /* \"#utility.yul\":5133:5219   */\n      tag_458\n        /* \"#utility.yul\":5212:5218   */\n      dup2\n        /* \"#utility.yul\":5207:5210   */\n      dup6\n        /* \"#utility.yul\":5133:5219   */\n      tag_347\n      jump\t// in\n    tag_458:\n        /* \"#utility.yul\":5126:5219   */\n      swap4\n      pop\n        /* \"#utility.yul\":5243:5299   */\n      tag_459\n        /* \"#utility.yul\":5293:5298   */\n      dup4\n        /* \"#utility.yul\":5243:5299   */\n      tag_348\n      jump\t// in\n    tag_459:\n        /* \"#utility.yul\":5322:5329   */\n      dup1\n        /* \"#utility.yul\":5353:5354   */\n      0x00\n        /* \"#utility.yul\":5338:5622   */\n    tag_460:\n        /* \"#utility.yul\":5363:5369   */\n      dup4\n        /* \"#utility.yul\":5360:5361   */\n      dup2\n        /* \"#utility.yul\":5357:5370   */\n      lt\n        /* \"#utility.yul\":5338:5622   */\n      iszero\n      tag_462\n      jumpi\n        /* \"#utility.yul\":5439:5445   */\n      dup2\n        /* \"#utility.yul\":5433:5446   */\n      mload\n        /* \"#utility.yul\":5466:5529   */\n      tag_463\n        /* \"#utility.yul\":5525:5528   */\n      dup9\n        /* \"#utility.yul\":5510:5523   */\n      dup3\n        /* \"#utility.yul\":5466:5529   */\n      tag_350\n      jump\t// in\n    tag_463:\n        /* \"#utility.yul\":5459:5529   */\n      swap8\n      pop\n        /* \"#utility.yul\":5552:5612   */\n      tag_464\n        /* \"#utility.yul\":5605:5611   */\n      dup4\n        /* \"#utility.yul\":5552:5612   */\n      tag_351\n      jump\t// in\n    tag_464:\n        /* \"#utility.yul\":5542:5612   */\n      swap3\n      pop\n        /* \"#utility.yul\":5398:5622   */\n      pop\n        /* \"#utility.yul\":5385:5386   */\n      0x01\n        /* \"#utility.yul\":5382:5383   */\n      dup2\n        /* \"#utility.yul\":5378:5387   */\n      add\n        /* \"#utility.yul\":5373:5387   */\n      swap1\n      pop\n        /* \"#utility.yul\":5338:5622   */\n      jump(tag_460)\n    tag_462:\n        /* \"#utility.yul\":5342:5356   */\n      pop\n        /* \"#utility.yul\":5638:5641   */\n      dup6\n        /* \"#utility.yul\":5631:5641   */\n      swap4\n      pop\n        /* \"#utility.yul\":5039:5647   */\n      pop\n      pop\n      pop\n        /* \"#utility.yul\":4915:5647   */\n      swap3\n      swap2\n      pop\n      pop\n      jump\t// out\n        /* \"#utility.yul\":5653:7205   */\n    tag_69:\n        /* \"#utility.yul\":6088:6092   */\n      0x00\n        /* \"#utility.yul\":6126:6129   */\n      0x0140\n        /* \"#utility.yul\":6115:6124   */\n      dup3\n        /* \"#utility.yul\":6111:6130   */\n      add\n        /* \"#utility.yul\":6103:6130   */\n      swap1\n      pop\n        /* \"#utility.yul\":6140:6211   */\n      tag_466\n        /* \"#utility.yul\":6208:6209   */\n      0x00\n        /* \"#utility.yul\":6197:6206   */\n      dup4\n        /* \"#utility.yul\":6193:6210   */\n      add\n        /* \"#utility.yul\":6184:6190   */\n      dup14\n        /* \"#utility.yul\":6140:6211   */\n      tag_339\n      jump\t// in\n    tag_466:\n        /* \"#utility.yul\":6221:6293   */\n      tag_467\n        /* \"#utility.yul\":6289:6291   */\n      0x20\n        /* \"#utility.yul\":6278:6287   */\n      dup4\n        /* \"#utility.yul\":6274:6292   */\n      add\n        /* \"#utility.yul\":6265:6271   */\n      dup13\n        /* \"#utility.yul\":6221:6293   */\n      tag_339\n      jump\t// in\n    tag_467:\n        /* \"#utility.yul\":6303:6375   */\n      tag_468\n        /* \"#utility.yul\":6371:6373   */\n      0x40\n        /* \"#utility.yul\":6360:6369   */\n      dup4\n        /* \"#utility.yul\":6356:6374   */\n      add\n        /* \"#utility.yul\":6347:6353   */\n      dup12\n        /* \"#utility.yul\":6303:6375   */\n      tag_339\n      jump\t// in\n    tag_468:\n        /* \"#utility.yul\":6385:6457   */\n      tag_469\n        /* \"#utility.yul\":6453:6455   */\n      0x60\n        /* \"#utility.yul\":6442:6451   */\n      dup4\n        /* \"#utility.yul\":6438:6456   */\n      add\n        /* \"#utility.yul\":6429:6435   */\n      dup11\n        /* \"#utility.yul\":6385:6457   */\n      tag_345\n      jump\t// in\n    tag_469:\n        /* \"#utility.yul\":6467:6540   */\n      tag_470\n        /* \"#utility.yul\":6535:6538   */\n      0x80\n        /* \"#utility.yul\":6524:6533   */\n      dup4\n        /* \"#utility.yul\":6520:6539   */\n      add\n        /* \"#utility.yul\":6511:6517   */\n      dup10\n        /* \"#utility.yul\":6467:6540   */\n      tag_339\n      jump\t// in\n    tag_470:\n        /* \"#utility.yul\":6588:6597   */\n      dup2\n        /* \"#utility.yul\":6582:6586   */\n      dup2\n        /* \"#utility.yul\":6578:6598   */\n      sub\n        /* \"#utility.yul\":6572:6575   */\n      0xa0\n        /* \"#utility.yul\":6561:6570   */\n      dup4\n        /* \"#utility.yul\":6557:6576   */\n      add\n        /* \"#utility.yul\":6550:6599   */\n      mstore\n        /* \"#utility.yul\":6616:6694   */\n      tag_471\n        /* \"#utility.yul\":6689:6693   */\n      dup2\n        /* \"#utility.yul\":6680:6686   */\n      dup9\n        /* \"#utility.yul\":6616:6694   */\n      tag_344\n      jump\t// in\n    tag_471:\n        /* \"#utility.yul\":6608:6694   */\n      swap1\n      pop\n        /* \"#utility.yul\":6742:6751   */\n      dup2\n        /* \"#utility.yul\":6736:6740   */\n      dup2\n        /* \"#utility.yul\":6732:6752   */\n      sub\n        /* \"#utility.yul\":6726:6729   */\n      0xc0\n        /* \"#utility.yul\":6715:6724   */\n      dup4\n        /* \"#utility.yul\":6711:6730   */\n      add\n        /* \"#utility.yul\":6704:6753   */\n      mstore\n        /* \"#utility.yul\":6770:6848   */\n      tag_472\n        /* \"#utility.yul\":6843:6847   */\n      dup2\n        /* \"#utility.yul\":6834:6840   */\n      dup8\n        /* \"#utility.yul\":6770:6848   */\n      tag_344\n      jump\t// in\n    tag_472:\n        /* \"#utility.yul\":6762:6848   */\n      swap1\n      pop\n        /* \"#utility.yul\":6858:6931   */\n      tag_473\n        /* \"#utility.yul\":6926:6929   */\n      0xe0\n        /* \"#utility.yul\":6915:6924   */\n      dup4\n        /* \"#utility.yul\":6911:6930   */\n      add\n        /* \"#utility.yul\":6902:6908   */\n      dup7\n        /* \"#utility.yul\":6858:6931   */\n      tag_345\n      jump\t// in\n    tag_473:\n        /* \"#utility.yul\":6979:6988   */\n      dup2\n        /* \"#utility.yul\":6973:6977   */\n      dup2\n        /* \"#utility.yul\":6969:6989   */\n      sub\n        /* \"#utility.yul\":6963:6966   */\n      0x0100\n        /* \"#utility.yul\":6952:6961   */\n      dup4\n        /* \"#utility.yul\":6948:6967   */\n      add\n        /* \"#utility.yul\":6941:6990   */\n      mstore\n        /* \"#utility.yul\":7007:7115   */\n      tag_474\n        /* \"#utility.yul\":7110:7114   */\n      dup2\n        /* \"#utility.yul\":7101:7107   */\n      dup6\n        /* \"#utility.yul\":7007:7115   */\n      tag_352\n      jump\t// in\n    tag_474:\n        /* \"#utility.yul\":6999:7115   */\n      swap1\n      pop\n        /* \"#utility.yul\":7125:7198   */\n      tag_475\n        /* \"#utility.yul\":7193:7196   */\n      0x0120\n        /* \"#utility.yul\":7182:7191   */\n      dup4\n        /* \"#utility.yul\":7178:7197   */\n      add\n        /* \"#utility.yul\":7169:7175   */\n      dup5\n        /* \"#utility.yul\":7125:7198   */\n      tag_339\n      jump\t// in\n    tag_475:\n        /* \"#utility.yul\":5653:7205   */\n      swap12\n      swap11\n      pop\n      pop\n      pop\n      pop\n      pop\n      pop\n      pop\n      pop\n      pop\n      pop\n      pop\n      jump\t// out\n        /* \"#utility.yul\":7211:7433   */\n    tag_74:\n        /* \"#utility.yul\":7304:7308   */\n      0x00\n        /* \"#utility.yul\":7342:7344   */\n      0x20\n        /* \"#utility.yul\":7331:7340   */\n      dup3\n        /* \"#utility.yul\":7327:7345   */\n      add\n        /* \"#utility.yul\":7319:7345   */\n      swap1\n      pop\n        /* \"#utility.yul\":7355:7426   */\n      tag_477\n        /* \"#utility.yul\":7423:7424   */\n      0x00\n        /* \"#utility.yul\":7412:7421   */\n      dup4\n        /* \"#utility.yul\":7408:7425   */\n      add\n        /* \"#utility.yul\":7399:7405   */\n      dup5\n        /* \"#utility.yul\":7355:7426   */\n      tag_345\n      jump\t// in\n    tag_477:\n        /* \"#utility.yul\":7211:7433   */\n      swap3\n      swap2\n      pop\n      pop\n      jump\t// out\n        /* \"#utility.yul\":7439:8626   */\n    tag_96:\n        /* \"#utility.yul\":7770:7774   */\n      0x00\n        /* \"#utility.yul\":7808:7811   */\n      0x0120\n        /* \"#utility.yul\":7797:7806   */\n      dup3\n        /* \"#utility.yul\":7793:7812   */\n      add\n        /* \"#utility.yul\":7785:7812   */\n      swap1\n      pop\n        /* \"#utility.yul\":7822:7893   */\n      tag_479\n        /* \"#utility.yul\":7890:7891   */\n      0x00\n        /* \"#utility.yul\":7879:7888   */\n      dup4\n        /* \"#utility.yul\":7875:7892   */\n      add\n        /* \"#utility.yul\":7866:7872   */\n      dup13\n        /* \"#utility.yul\":7822:7893   */\n      tag_339\n      jump\t// in\n    tag_479:\n        /* \"#utility.yul\":7903:7975   */\n      tag_480\n        /* \"#utility.yul\":7971:7973   */\n      0x20\n        /* \"#utility.yul\":7960:7969   */\n      dup4\n        /* \"#utility.yul\":7956:7974   */\n      add\n        /* \"#utility.yul\":7947:7953   */\n      dup12\n        /* \"#utility.yul\":7903:7975   */\n      tag_339\n      jump\t// in\n    tag_480:\n        /* \"#utility.yul\":7985:8057   */\n      tag_481\n        /* \"#utility.yul\":8053:8055   */\n      0x40\n        /* \"#utility.yul\":8042:8051   */\n      dup4\n        /* \"#utility.yul\":8038:8056   */\n      add\n        /* \"#utility.yul\":8029:8035   */\n      dup11\n        /* \"#utility.yul\":7985:8057   */\n      tag_339\n      jump\t// in\n    tag_481:\n        /* \"#utility.yul\":8067:8139   */\n      tag_482\n        /* \"#utility.yul\":8135:8137   */\n      0x60\n        /* \"#utility.yul\":8124:8133   */\n      dup4\n        /* \"#utility.yul\":8120:8138   */\n      add\n        /* \"#utility.yul\":8111:8117   */\n      dup10\n        /* \"#utility.yul\":8067:8139   */\n      tag_345\n      jump\t// in\n    tag_482:\n        /* \"#utility.yul\":8149:8222   */\n      tag_483\n        /* \"#utility.yul\":8217:8220   */\n      0x80\n        /* \"#utility.yul\":8206:8215   */\n      dup4\n        /* \"#utility.yul\":8202:8221   */\n      add\n        /* \"#utility.yul\":8193:8199   */\n      dup9\n        /* \"#utility.yul\":8149:8222   */\n      tag_339\n      jump\t// in\n    tag_483:\n        /* \"#utility.yul\":8270:8279   */\n      dup2\n        /* \"#utility.yul\":8264:8268   */\n      dup2\n        /* \"#utility.yul\":8260:8280   */\n      sub\n        /* \"#utility.yul\":8254:8257   */\n      0xa0\n        /* \"#utility.yul\":8243:8252   */\n      dup4\n        /* \"#utility.yul\":8239:8258   */\n      add\n        /* \"#utility.yul\":8232:8281   */\n      mstore\n        /* \"#utility.yul\":8298:8376   */\n      tag_484\n        /* \"#utility.yul\":8371:8375   */\n      dup2\n        /* \"#utility.yul\":8362:8368   */\n      dup8\n        /* \"#utility.yul\":8298:8376   */\n      tag_344\n      jump\t// in\n    tag_484:\n        /* \"#utility.yul\":8290:8376   */\n      swap1\n      pop\n        /* \"#utility.yul\":8386:8459   */\n      tag_485\n        /* \"#utility.yul\":8454:8457   */\n      0xc0\n        /* \"#utility.yul\":8443:8452   */\n      dup4\n        /* \"#utility.yul\":8439:8458   */\n      add\n        /* \"#utility.yul\":8430:8436   */\n      dup7\n        /* \"#utility.yul\":8386:8459   */\n      tag_345\n      jump\t// in\n    tag_485:\n        /* \"#utility.yul\":8469:8542   */\n      tag_486\n        /* \"#utility.yul\":8537:8540   */\n      0xe0\n        /* \"#utility.yul\":8526:8535   */\n      dup4\n        /* \"#utility.yul\":8522:8541   */\n      add\n        /* \"#utility.yul\":8513:8519   */\n      dup6\n        /* \"#utility.yul\":8469:8542   */\n      tag_339\n      jump\t// in\n    tag_486:\n        /* \"#utility.yul\":8552:8619   */\n      tag_487\n        /* \"#utility.yul\":8614:8617   */\n      0x0100\n        /* \"#utility.yul\":8603:8612   */\n      dup4\n        /* \"#utility.yul\":8599:8618   */\n      add\n        /* \"#utility.yul\":8590:8596   */\n      dup5\n        /* \"#utility.yul\":8552:8619   */\n      tag_337\n      jump\t// in\n    tag_487:\n        /* \"#utility.yul\":7439:8626   */\n      swap11\n      swap10\n      pop\n      pop\n      pop\n      pop\n      pop\n      pop\n      pop\n      pop\n      pop\n      pop\n      jump\t// out\n        /* \"#utility.yul\":8632:8765   */\n    tag_353:\n        /* \"#utility.yul\":8718:8724   */\n      0x00\n        /* \"#utility.yul\":8752:8757   */\n      dup2\n        /* \"#utility.yul\":8746:8758   */\n      mload\n        /* \"#utility.yul\":8736:8758   */\n      swap1\n      pop\n        /* \"#utility.yul\":8632:8765   */\n      swap2\n      swap1\n      pop\n      jump\t// out\n        /* \"#utility.yul\":8771:8974   */\n    tag_354:\n        /* \"#utility.yul\":8889:8900   */\n      0x00\n        /* \"#utility.yul\":8923:8929   */\n      dup3\n        /* \"#utility.yul\":8918:8921   */\n      dup3\n        /* \"#utility.yul\":8911:8930   */\n      mstore\n        /* \"#utility.yul\":8963:8967   */\n      0x20\n        /* \"#utility.yul\":8958:8961   */\n      dup3\n        /* \"#utility.yul\":8954:8968   */\n      add\n        /* \"#utility.yul\":8939:8968   */\n      swap1\n      pop\n        /* \"#utility.yul\":8771:8974   */\n      swap3\n      swap2\n      pop\n      pop\n      jump\t// out\n        /* \"#utility.yul\":8980:9131   */\n    tag_355:\n        /* \"#utility.yul\":9066:9070   */\n      0x00\n        /* \"#utility.yul\":9089:9092   */\n      dup2\n        /* \"#utility.yul\":9081:9092   */\n      swap1\n      pop\n        /* \"#utility.yul\":9119:9123   */\n      0x20\n        /* \"#utility.yul\":9114:9117   */\n      dup3\n        /* \"#utility.yul\":9110:9124   */\n      add\n        /* \"#utility.yul\":9102:9124   */\n      swap1\n      pop\n        /* \"#utility.yul\":8980:9131   */\n      swap2\n      swap1\n      pop\n      jump\t// out\n        /* \"#utility.yul\":9137:9245   */\n    tag_356:\n        /* \"#utility.yul\":9214:9238   */\n      tag_492\n        /* \"#utility.yul\":9232:9237   */\n      dup2\n        /* \"#utility.yul\":9214:9238   */\n      tag_338\n      jump\t// in\n    tag_492:\n        /* \"#utility.yul\":9209:9212   */\n      dup3\n        /* \"#utility.yul\":9202:9239   */\n      mstore\n        /* \"#utility.yul\":9137:9245   */\n      pop\n      pop\n      jump\t// out\n        /* \"#utility.yul\":9301:9970   */\n    tag_357:\n        /* \"#utility.yul\":9426:9430   */\n      0x60\n        /* \"#utility.yul\":9421:9424   */\n      dup3\n        /* \"#utility.yul\":9417:9431   */\n      add\n        /* \"#utility.yul\":9514:9518   */\n      0x00\n        /* \"#utility.yul\":9507:9512   */\n      dup3\n        /* \"#utility.yul\":9503:9519   */\n      add\n        /* \"#utility.yul\":9497:9520   */\n      mload\n        /* \"#utility.yul\":9533:9596   */\n      tag_494\n        /* \"#utility.yul\":9590:9594   */\n      0x00\n        /* \"#utility.yul\":9585:9588   */\n      dup6\n        /* \"#utility.yul\":9581:9595   */\n      add\n        /* \"#utility.yul\":9567:9579   */\n      dup3\n        /* \"#utility.yul\":9533:9596   */\n      tag_356\n      jump\t// in\n    tag_494:\n        /* \"#utility.yul\":9441:9606   */\n      pop\n        /* \"#utility.yul\":9688:9692   */\n      0x20\n        /* \"#utility.yul\":9681:9686   */\n      dup3\n        /* \"#utility.yul\":9677:9693   */\n      add\n        /* \"#utility.yul\":9671:9694   */\n      mload\n        /* \"#utility.yul\":9707:9770   */\n      tag_495\n        /* \"#utility.yul\":9764:9768   */\n      0x20\n        /* \"#utility.yul\":9759:9762   */\n      dup6\n        /* \"#utility.yul\":9755:9769   */\n      add\n        /* \"#utility.yul\":9741:9753   */\n      dup3\n        /* \"#utility.yul\":9707:9770   */\n      tag_356\n      jump\t// in\n    tag_495:\n        /* \"#utility.yul\":9616:9780   */\n      pop\n        /* \"#utility.yul\":9871:9875   */\n      0x40\n        /* \"#utility.yul\":9864:9869   */\n      dup3\n        /* \"#utility.yul\":9860:9876   */\n      add\n        /* \"#utility.yul\":9854:9877   */\n      mload\n        /* \"#utility.yul\":9890:9953   */\n      tag_496\n        /* \"#utility.yul\":9947:9951   */\n      0x40\n        /* \"#utility.yul\":9942:9945   */\n      dup6\n        /* \"#utility.yul\":9938:9952   */\n      add\n        /* \"#utility.yul\":9924:9936   */\n      dup3\n        /* \"#utility.yul\":9890:9953   */\n      tag_349\n      jump\t// in\n    tag_496:\n        /* \"#utility.yul\":9790:9963   */\n      pop\n        /* \"#utility.yul\":9395:9970   */\n      pop\n        /* \"#utility.yul\":9301:9970   */\n      pop\n      pop\n      jump\t// out\n        /* \"#utility.yul\":9976:10231   */\n    tag_358:\n        /* \"#utility.yul\":10083:10093   */\n      0x00\n        /* \"#utility.yul\":10104:10188   */\n      tag_498\n        /* \"#utility.yul\":10184:10187   */\n      dup4\n        /* \"#utility.yul\":10176:10182   */\n      dup4\n        /* \"#utility.yul\":10104:10188   */\n      tag_357\n      jump\t// in\n    tag_498:\n        /* \"#utility.yul\":10220:10224   */\n      0x60\n        /* \"#utility.yul\":10215:10218   */\n      dup4\n        /* \"#utility.yul\":10211:10225   */\n      add\n        /* \"#utility.yul\":10197:10225   */\n      swap1\n      pop\n        /* \"#utility.yul\":9976:10231   */\n      swap3\n      swap2\n      pop\n      pop\n      jump\t// out\n        /* \"#utility.yul\":10237:10369   */\n    tag_359:\n        /* \"#utility.yul\":10326:10330   */\n      0x00\n        /* \"#utility.yul\":10358:10362   */\n      0x20\n        /* \"#utility.yul\":10353:10356   */\n      dup3\n        /* \"#utility.yul\":10349:10363   */\n      add\n        /* \"#utility.yul\":10341:10363   */\n      swap1\n      pop\n        /* \"#utility.yul\":10237:10369   */\n      swap2\n      swap1\n      pop\n      jump\t// out\n        /* \"#utility.yul\":10429:11313   */\n    tag_360:\n        /* \"#utility.yul\":10586:10589   */\n      0x00\n        /* \"#utility.yul\":10615:10688   */\n      tag_501\n        /* \"#utility.yul\":10682:10687   */\n      dup3\n        /* \"#utility.yul\":10615:10688   */\n      tag_353\n      jump\t// in\n    tag_501:\n        /* \"#utility.yul\":10704:10809   */\n      tag_502\n        /* \"#utility.yul\":10802:10808   */\n      dup2\n        /* \"#utility.yul\":10797:10800   */\n      dup6\n        /* \"#utility.yul\":10704:10809   */\n      tag_354\n      jump\t// in\n    tag_502:\n        /* \"#utility.yul\":10697:10809   */\n      swap4\n      pop\n        /* \"#utility.yul\":10833:10908   */\n      tag_503\n        /* \"#utility.yul\":10902:10907   */\n      dup4\n        /* \"#utility.yul\":10833:10908   */\n      tag_355\n      jump\t// in\n    tag_503:\n        /* \"#utility.yul\":10931:10938   */\n      dup1\n        /* \"#utility.yul\":10962:10963   */\n      0x00\n        /* \"#utility.yul\":10947:11288   */\n    tag_504:\n        /* \"#utility.yul\":10972:10978   */\n      dup4\n        /* \"#utility.yul\":10969:10970   */\n      dup2\n        /* \"#utility.yul\":10966:10979   */\n      lt\n        /* \"#utility.yul\":10947:11288   */\n      iszero\n      tag_506\n      jumpi\n        /* \"#utility.yul\":11048:11054   */\n      dup2\n        /* \"#utility.yul\":11042:11055   */\n      mload\n        /* \"#utility.yul\":11075:11176   */\n      tag_507\n        /* \"#utility.yul\":11172:11175   */\n      dup9\n        /* \"#utility.yul\":11157:11170   */\n      dup3\n        /* \"#utility.yul\":11075:11176   */\n      tag_358\n      jump\t// in\n    tag_507:\n        /* \"#utility.yul\":11068:11176   */\n      swap8\n      pop\n        /* \"#utility.yul\":11199:11278   */\n      tag_508\n        /* \"#utility.yul\":11271:11277   */\n      dup4\n        /* \"#utility.yul\":11199:11278   */\n      tag_359\n      jump\t// in\n    tag_508:\n        /* \"#utility.yul\":11189:11278   */\n      swap3\n      pop\n        /* \"#utility.yul\":11007:11288   */\n      pop\n        /* \"#utility.yul\":10994:10995   */\n      0x01\n        /* \"#utility.yul\":10991:10992   */\n      dup2\n        /* \"#utility.yul\":10987:10996   */\n      add\n        /* \"#utility.yul\":10982:10996   */\n      swap1\n      pop\n        /* \"#utility.yul\":10947:11288   */\n      jump(tag_504)\n    tag_506:\n        /* \"#utility.yul\":10951:10965   */\n      pop\n        /* \"#utility.yul\":11304:11307   */\n      dup6\n        /* \"#utility.yul\":11297:11307   */\n      swap4\n      pop\n        /* \"#utility.yul\":10591:11313   */\n      pop\n      pop\n      pop\n        /* \"#utility.yul\":10429:11313   */\n      swap3\n      swap2\n      pop\n      pop\n      jump\t// out\n        /* \"#utility.yul\":11319:11768   */\n    tag_109:\n        /* \"#utility.yul\":11500:11504   */\n      0x00\n        /* \"#utility.yul\":11538:11540   */\n      0x20\n        /* \"#utility.yul\":11527:11536   */\n      dup3\n        /* \"#utility.yul\":11523:11541   */\n      add\n        /* \"#utility.yul\":11515:11541   */\n      swap1\n      pop\n        /* \"#utility.yul\":11587:11596   */\n      dup2\n        /* \"#utility.yul\":11581:11585   */\n      dup2\n        /* \"#utility.yul\":11577:11597   */\n      sub\n        /* \"#utility.yul\":11573:11574   */\n      0x00\n        /* \"#utility.yul\":11562:11571   */\n      dup4\n        /* \"#utility.yul\":11558:11575   */\n      add\n        /* \"#utility.yul\":11551:11598   */\n      mstore\n        /* \"#utility.yul\":11615:11761   */\n      tag_510\n        /* \"#utility.yul\":11756:11760   */\n      dup2\n        /* \"#utility.yul\":11747:11753   */\n      dup5\n        /* \"#utility.yul\":11615:11761   */\n      tag_360\n      jump\t// in\n    tag_510:\n        /* \"#utility.yul\":11607:11761   */\n      swap1\n      pop\n        /* \"#utility.yul\":11319:11768   */\n      swap3\n      swap2\n      pop\n      pop\n      jump\t// out\n        /* \"#utility.yul\":11774:11896   */\n    tag_361:\n        /* \"#utility.yul\":11847:11871   */\n      tag_512\n        /* \"#utility.yul\":11865:11870   */\n      dup2\n        /* \"#utility.yul\":11847:11871   */\n      tag_338\n      jump\t// in\n    tag_512:\n        /* \"#utility.yul\":11840:11845   */\n      dup2\n        /* \"#utility.yul\":11837:11872   */\n      eq\n        /* \"#utility.yul\":11827:11890   */\n      tag_513\n      jumpi\n        /* \"#utility.yul\":11886:11887   */\n      0x00\n        /* \"#utility.yul\":11883:11884   */\n      0x00\n        /* \"#utility.yul\":11876:11888   */\n      revert\n        /* \"#utility.yul\":11827:11890   */\n    tag_513:\n        /* \"#utility.yul\":11774:11896   */\n      pop\n      jump\t// out\n        /* \"#utility.yul\":11902:12041   */\n    tag_362:\n        /* \"#utility.yul\":11948:11953   */\n      0x00\n        /* \"#utility.yul\":11986:11992   */\n      dup2\n        /* \"#utility.yul\":11973:11993   */\n      calldataload\n        /* \"#utility.yul\":11964:11993   */\n      swap1\n      pop\n        /* \"#utility.yul\":12002:12035   */\n      tag_515\n        /* \"#utility.yul\":12029:12034   */\n      dup2\n        /* \"#utility.yul\":12002:12035   */\n      tag_361\n      jump\t// in\n    tag_515:\n        /* \"#utility.yul\":11902:12041   */\n      swap3\n      swap2\n      pop\n      pop\n      jump\t// out\n        /* \"#utility.yul\":12047:12376   */\n    tag_124:\n        /* \"#utility.yul\":12106:12112   */\n      0x00\n        /* \"#utility.yul\":12155:12157   */\n      0x20\n        /* \"#utility.yul\":12143:12152   */\n      dup3\n        /* \"#utility.yul\":12134:12141   */\n      dup5\n        /* \"#utility.yul\":12130:12153   */\n      sub\n        /* \"#utility.yul\":12126:12158   */\n      slt\n        /* \"#utility.yul\":12123:12242   */\n      iszero\n      tag_517\n      jumpi\n        /* \"#utility.yul\":12161:12240   */\n      tag_518\n      tag_330\n      jump\t// in\n    tag_518:\n        /* \"#utility.yul\":12123:12242   */\n    tag_517:\n        /* \"#utility.yul\":12281:12282   */\n      0x00\n        /* \"#utility.yul\":12306:12359   */\n      tag_519\n        /* \"#utility.yul\":12351:12358   */\n      dup5\n        /* \"#utility.yul\":12342:12348   */\n      dup3\n        /* \"#utility.yul\":12331:12340   */\n      dup6\n        /* \"#utility.yul\":12327:12349   */\n      add\n        /* \"#utility.yul\":12306:12359   */\n      tag_362\n      jump\t// in\n    tag_519:\n        /* \"#utility.yul\":12296:12359   */\n      swap2\n      pop\n        /* \"#utility.yul\":12252:12369   */\n      pop\n        /* \"#utility.yul\":12047:12376   */\n      swap3\n      swap2\n      pop\n      pop\n      jump\t// out\n        /* \"#utility.yul\":12382:12824   */\n    tag_127:\n        /* \"#utility.yul\":12531:12535   */\n      0x00\n        /* \"#utility.yul\":12569:12571   */\n      0x60\n        /* \"#utility.yul\":12558:12567   */\n      dup3\n        /* \"#utility.yul\":12554:12572   */\n      add\n        /* \"#utility.yul\":12546:12572   */\n      swap1\n      pop\n        /* \"#utility.yul\":12582:12653   */\n      tag_521\n        /* \"#utility.yul\":12650:12651   */\n      0x00\n        /* \"#utility.yul\":12639:12648   */\n      dup4\n        /* \"#utility.yul\":12635:12652   */\n      add\n        /* \"#utility.yul\":12626:12632   */\n      dup7\n        /* \"#utility.yul\":12582:12653   */\n      tag_339\n      jump\t// in\n    tag_521:\n        /* \"#utility.yul\":12663:12735   */\n      tag_522\n        /* \"#utility.yul\":12731:12733   */\n      0x20\n        /* \"#utility.yul\":12720:12729   */\n      dup4\n        /* \"#utility.yul\":12716:12734   */\n      add\n        /* \"#utility.yul\":12707:12713   */\n      dup6\n        /* \"#utility.yul\":12663:12735   */\n      tag_339\n      jump\t// in\n    tag_522:\n        /* \"#utility.yul\":12745:12817   */\n      tag_523\n        /* \"#utility.yul\":12813:12815   */\n      0x40\n        /* \"#utility.yul\":12802:12811   */\n      dup4\n        /* \"#utility.yul\":12798:12816   */\n      add\n        /* \"#utility.yul\":12789:12795   */\n      dup5\n        /* \"#utility.yul\":12745:12817   */\n      tag_345\n      jump\t// in\n    tag_523:\n        /* \"#utility.yul\":12382:12824   */\n      swap5\n      swap4\n      pop\n      pop\n      pop\n      pop\n      jump\t// out\n        /* \"#utility.yul\":12830:13203   */\n    tag_132:\n        /* \"#utility.yul\":12973:12977   */\n      0x00\n        /* \"#utility.yul\":13011:13013   */\n      0x20\n        /* \"#utility.yul\":13000:13009   */\n      dup3\n        /* \"#utility.yul\":12996:13014   */\n      add\n        /* \"#utility.yul\":12988:13014   */\n      swap1\n      pop\n        /* \"#utility.yul\":13060:13069   */\n      dup2\n        /* \"#utility.yul\":13054:13058   */\n      dup2\n        /* \"#utility.yul\":13050:13070   */\n      sub\n        /* \"#utility.yul\":13046:13047   */\n      0x00\n        /* \"#utility.yul\":13035:13044   */\n      dup4\n        /* \"#utility.yul\":13031:13048   */\n      add\n        /* \"#utility.yul\":13024:13071   */\n      mstore\n        /* \"#utility.yul\":13088:13196   */\n      tag_525\n        /* \"#utility.yul\":13191:13195   */\n      dup2\n        /* \"#utility.yul\":13182:13188   */\n      dup5\n        /* \"#utility.yul\":13088:13196   */\n      tag_352\n      jump\t// in\n    tag_525:\n        /* \"#utility.yul\":13080:13196   */\n      swap1\n      pop\n        /* \"#utility.yul\":12830:13203   */\n      swap3\n      swap2\n      pop\n      pop\n      jump\t// out\n        /* \"#utility.yul\":13209:13269   */\n    tag_363:\n        /* \"#utility.yul\":13237:13240   */\n      0x00\n        /* \"#utility.yul\":13258:13263   */\n      dup2\n        /* \"#utility.yul\":13251:13263   */\n      swap1\n      pop\n        /* \"#utility.yul\":13209:13269   */\n      swap2\n      swap1\n      pop\n      jump\t// out\n        /* \"#utility.yul\":13275:13417   */\n    tag_364:\n        /* \"#utility.yul\":13325:13334   */\n      0x00\n        /* \"#utility.yul\":13358:13411   */\n      tag_528\n        /* \"#utility.yul\":13376:13410   */\n      tag_529\n        /* \"#utility.yul\":13385:13409   */\n      tag_530\n        /* \"#utility.yul\":13403:13408   */\n      dup5\n        /* \"#utility.yul\":13385:13409   */\n      tag_332\n      jump\t// in\n    tag_530:\n        /* \"#utility.yul\":13376:13410   */\n      tag_363\n      jump\t// in\n    tag_529:\n        /* \"#utility.yul\":13358:13411   */\n      tag_332\n      jump\t// in\n    tag_528:\n        /* \"#utility.yul\":13345:13411   */\n      swap1\n      pop\n        /* \"#utility.yul\":13275:13417   */\n      swap2\n      swap1\n      pop\n      jump\t// out\n        /* \"#utility.yul\":13423:13549   */\n    tag_365:\n        /* \"#utility.yul\":13473:13482   */\n      0x00\n        /* \"#utility.yul\":13506:13543   */\n      tag_532\n        /* \"#utility.yul\":13537:13542   */\n      dup3\n        /* \"#utility.yul\":13506:13543   */\n      tag_364\n      jump\t// in\n    tag_532:\n        /* \"#utility.yul\":13493:13543   */\n      swap1\n      pop\n        /* \"#utility.yul\":13423:13549   */\n      swap2\n      swap1\n      pop\n      jump\t// out\n        /* \"#utility.yul\":13555:13704   */\n    tag_366:\n        /* \"#utility.yul\":13628:13637   */\n      0x00\n        /* \"#utility.yul\":13661:13698   */\n      tag_534\n        /* \"#utility.yul\":13692:13697   */\n      dup3\n        /* \"#utility.yul\":13661:13698   */\n      tag_365\n      jump\t// in\n    tag_534:\n        /* \"#utility.yul\":13648:13698   */\n      swap1\n      pop\n        /* \"#utility.yul\":13555:13704   */\n      swap2\n      swap1\n      pop\n      jump\t// out\n        /* \"#utility.yul\":13710:13887   */\n    tag_367:\n        /* \"#utility.yul\":13820:13880   */\n      tag_536\n        /* \"#utility.yul\":13874:13879   */\n      dup2\n        /* \"#utility.yul\":13820:13880   */\n      tag_366\n      jump\t// in\n    tag_536:\n        /* \"#utility.yul\":13815:13818   */\n      dup3\n        /* \"#utility.yul\":13808:13881   */\n      mstore\n        /* \"#utility.yul\":13710:13887   */\n      pop\n      pop\n      jump\t// out\n        /* \"#utility.yul\":13893:14161   */\n    tag_137:\n        /* \"#utility.yul\":14009:14013   */\n      0x00\n        /* \"#utility.yul\":14047:14049   */\n      0x20\n        /* \"#utility.yul\":14036:14045   */\n      dup3\n        /* \"#utility.yul\":14032:14050   */\n      add\n        /* \"#utility.yul\":14024:14050   */\n      swap1\n      pop\n        /* \"#utility.yul\":14060:14154   */\n      tag_538\n        /* \"#utility.yul\":14151:14152   */\n      0x00\n        /* \"#utility.yul\":14140:14149   */\n      dup4\n        /* \"#utility.yul\":14136:14153   */\n      add\n        /* \"#utility.yul\":14127:14133   */\n      dup5\n        /* \"#utility.yul\":14060:14154   */\n      tag_367\n      jump\t// in\n    tag_538:\n        /* \"#utility.yul\":13893:14161   */\n      swap3\n      swap2\n      pop\n      pop\n      jump\t// out\n        /* \"#utility.yul\":14167:14338   */\n    tag_368:\n        /* \"#utility.yul\":14307:14330   */\n      0x41756374696f6e206e6f742066696e616c697a65640000000000000000000000\n        /* \"#utility.yul\":14303:14304   */\n      0x00\n        /* \"#utility.yul\":14295:14301   */\n      dup3\n        /* \"#utility.yul\":14291:14305   */\n      add\n        /* \"#utility.yul\":14284:14331   */\n      mstore\n        /* \"#utility.yul\":14167:14338   */\n      pop\n      jump\t// out\n        /* \"#utility.yul\":14344:14710   */\n    tag_369:\n        /* \"#utility.yul\":14486:14489   */\n      0x00\n        /* \"#utility.yul\":14507:14574   */\n      tag_541\n        /* \"#utility.yul\":14571:14573   */\n      0x15\n        /* \"#utility.yul\":14566:14569   */\n      dup4\n        /* \"#utility.yul\":14507:14574   */\n      tag_341\n      jump\t// in\n    tag_541:\n        /* \"#utility.yul\":14500:14574   */\n      swap2\n      pop\n        /* \"#utility.yul\":14583:14676   */\n      tag_542\n        /* \"#utility.yul\":14672:14675   */\n      dup3\n        /* \"#utility.yul\":14583:14676   */\n      tag_368\n      jump\t// in\n    tag_542:\n        /* \"#utility.yul\":14701:14703   */\n      0x20\n        /* \"#utility.yul\":14696:14699   */\n      dup3\n        /* \"#utility.yul\":14692:14704   */\n      add\n        /* \"#utility.yul\":14685:14704   */\n      swap1\n      pop\n        /* \"#utility.yul\":14344:14710   */\n      swap2\n      swap1\n      pop\n      jump\t// out\n        /* \"#utility.yul\":14716:15135   */\n    tag_165:\n        /* \"#utility.yul\":14882:14886   */\n      0x00\n        /* \"#utility.yul\":14920:14922   */\n      0x20\n        /* \"#utility.yul\":14909:14918   */\n      dup3\n        /* \"#utility.yul\":14905:14923   */\n      add\n        /* \"#utility.yul\":14897:14923   */\n      swap1\n      pop\n        /* \"#utility.yul\":14969:14978   */\n      dup2\n        /* \"#utility.yul\":14963:14967   */\n      dup2\n        /* \"#utility.yul\":14959:14979   */\n      sub\n        /* \"#utility.yul\":14955:14956   */\n      0x00\n        /* \"#utility.yul\":14944:14953   */\n      dup4\n        /* \"#utility.yul\":14940:14957   */\n      add\n        /* \"#utility.yul\":14933:14980   */\n      mstore\n        /* \"#utility.yul\":14997:15128   */\n      tag_544\n        /* \"#utility.yul\":15123:15127   */\n      dup2\n        /* \"#utility.yul\":14997:15128   */\n      tag_369\n      jump\t// in\n    tag_544:\n        /* \"#utility.yul\":14989:15128   */\n      swap1\n      pop\n        /* \"#utility.yul\":14716:15135   */\n      swap2\n      swap1\n      pop\n      jump\t// out\n        /* \"#utility.yul\":15141:15311   */\n    tag_370:\n        /* \"#utility.yul\":15281:15303   */\n      0x57696e6e657220686173206e6f20726566756e64000000000000000000000000\n        /* \"#utility.yul\":15277:15278   */\n      0x00\n        /* \"#utility.yul\":15269:15275   */\n      dup3\n        /* \"#utility.yul\":15265:15279   */\n      add\n        /* \"#utility.yul\":15258:15304   */\n      mstore\n        /* \"#utility.yul\":15141:15311   */\n      pop\n      jump\t// out\n        /* \"#utility.yul\":15317:15683   */\n    tag_371:\n        /* \"#utility.yul\":15459:15462   */\n      0x00\n        /* \"#utility.yul\":15480:15547   */\n      tag_547\n        /* \"#utility.yul\":15544:15546   */\n      0x14\n        /* \"#utility.yul\":15539:15542   */\n      dup4\n        /* \"#utility.yul\":15480:15547   */\n      tag_341\n      jump\t// in\n    tag_547:\n        /* \"#utility.yul\":15473:15547   */\n      swap2\n      pop\n        /* \"#utility.yul\":15556:15649   */\n      tag_548\n        /* \"#utility.yul\":15645:15648   */\n      dup3\n        /* \"#utility.yul\":15556:15649   */\n      tag_370\n      jump\t// in\n    tag_548:\n        /* \"#utility.yul\":15674:15676   */\n      0x20\n        /* \"#utility.yul\":15669:15672   */\n      dup3\n        /* \"#utility.yul\":15665:15677   */\n      add\n        /* \"#utility.yul\":15658:15677   */\n      swap1\n      pop\n        /* \"#utility.yul\":15317:15683   */\n      swap2\n      swap1\n      pop\n      jump\t// out\n        /* \"#utility.yul\":15689:16108   */\n    tag_168:\n        /* \"#utility.yul\":15855:15859   */\n      0x00\n        /* \"#utility.yul\":15893:15895   */\n      0x20\n        /* \"#utility.yul\":15882:15891   */\n      dup3\n        /* \"#utility.yul\":15878:15896   */\n      add\n        /* \"#utility.yul\":15870:15896   */\n      swap1\n      pop\n        /* \"#utility.yul\":15942:15951   */\n      dup2\n        /* \"#utility.yul\":15936:15940   */\n      dup2\n        /* \"#utility.yul\":15932:15952   */\n      sub\n        /* \"#utility.yul\":15928:15929   */\n      0x00\n        /* \"#utility.yul\":15917:15926   */\n      dup4\n        /* \"#utility.yul\":15913:15930   */\n      add\n        /* \"#utility.yul\":15906:15953   */\n      mstore\n        /* \"#utility.yul\":15970:16101   */\n      tag_550\n        /* \"#utility.yul\":16096:16100   */\n      dup2\n        /* \"#utility.yul\":15970:16101   */\n      tag_371\n      jump\t// in\n    tag_550:\n        /* \"#utility.yul\":15962:16101   */\n      swap1\n      pop\n        /* \"#utility.yul\":15689:16108   */\n      swap2\n      swap1\n      pop\n      jump\t// out\n        /* \"#utility.yul\":16114:16283   */\n    tag_372:\n        /* \"#utility.yul\":16254:16275   */\n      0x4e6f20726566756e6420617661696c61626c6500000000000000000000000000\n        /* \"#utility.yul\":16250:16251   */\n      0x00\n        /* \"#utility.yul\":16242:16248   */\n      dup3\n        /* \"#utility.yul\":16238:16252   */\n      add\n        /* \"#utility.yul\":16231:16276   */\n      mstore\n        /* \"#utility.yul\":16114:16283   */\n      pop\n      jump\t// out\n        /* \"#utility.yul\":16289:16655   */\n    tag_373:\n        /* \"#utility.yul\":16431:16434   */\n      0x00\n        /* \"#utility.yul\":16452:16519   */\n      tag_553\n        /* \"#utility.yul\":16516:16518   */\n      0x13\n        /* \"#utility.yul\":16511:16514   */\n      dup4\n        /* \"#utility.yul\":16452:16519   */\n      tag_341\n      jump\t// in\n    tag_553:\n        /* \"#utility.yul\":16445:16519   */\n      swap2\n      pop\n        /* \"#utility.yul\":16528:16621   */\n      tag_554\n        /* \"#utility.yul\":16617:16620   */\n      dup3\n        /* \"#utility.yul\":16528:16621   */\n      tag_372\n      jump\t// in\n    tag_554:\n        /* \"#utility.yul\":16646:16648   */\n      0x20\n        /* \"#utility.yul\":16641:16644   */\n      dup3\n        /* \"#utility.yul\":16637:16649   */\n      add\n        /* \"#utility.yul\":16630:16649   */\n      swap1\n      pop\n        /* \"#utility.yul\":16289:16655   */\n      swap2\n      swap1\n      pop\n      jump\t// out\n        /* \"#utility.yul\":16661:17080   */\n    tag_171:\n        /* \"#utility.yul\":16827:16831   */\n      0x00\n        /* \"#utility.yul\":16865:16867   */\n      0x20\n        /* \"#utility.yul\":16854:16863   */\n      dup3\n        /* \"#utility.yul\":16850:16868   */\n      add\n        /* \"#utility.yul\":16842:16868   */\n      swap1\n      pop\n        /* \"#utility.yul\":16914:16923   */\n      dup2\n        /* \"#utility.yul\":16908:16912   */\n      dup2\n        /* \"#utility.yul\":16904:16924   */\n      sub\n        /* \"#utility.yul\":16900:16901   */\n      0x00\n        /* \"#utility.yul\":16889:16898   */\n      dup4\n        /* \"#utility.yul\":16885:16902   */\n      add\n        /* \"#utility.yul\":16878:16925   */\n      mstore\n        /* \"#utility.yul\":16942:17073   */\n      tag_556\n        /* \"#utility.yul\":17068:17072   */\n      dup2\n        /* \"#utility.yul\":16942:17073   */\n      tag_373\n      jump\t// in\n    tag_556:\n        /* \"#utility.yul\":16934:17073   */\n      swap1\n      pop\n        /* \"#utility.yul\":16661:17080   */\n      swap2\n      swap1\n      pop\n      jump\t// out\n        /* \"#utility.yul\":17086:17233   */\n    tag_374:\n        /* \"#utility.yul\":17187:17198   */\n      0x00\n        /* \"#utility.yul\":17224:17227   */\n      dup2\n        /* \"#utility.yul\":17209:17227   */\n      swap1\n      pop\n        /* \"#utility.yul\":17086:17233   */\n      swap3\n      swap2\n      pop\n      pop\n      jump\t// out\n        /* \"#utility.yul\":17239:17353   */\n    tag_375:\n      pop\n      jump\t// out\n        /* \"#utility.yul\":17359:17757   */\n    tag_376:\n        /* \"#utility.yul\":17518:17521   */\n      0x00\n        /* \"#utility.yul\":17539:17622   */\n      tag_560\n        /* \"#utility.yul\":17620:17621   */\n      0x00\n        /* \"#utility.yul\":17615:17618   */\n      dup4\n        /* \"#utility.yul\":17539:17622   */\n      tag_374\n      jump\t// in\n    tag_560:\n        /* \"#utility.yul\":17532:17622   */\n      swap2\n      pop\n        /* \"#utility.yul\":17631:17724   */\n      tag_561\n        /* \"#utility.yul\":17720:17723   */\n      dup3\n        /* \"#utility.yul\":17631:17724   */\n      tag_375\n      jump\t// in\n    tag_561:\n        /* \"#utility.yul\":17749:17750   */\n      0x00\n        /* \"#utility.yul\":17744:17747   */\n      dup3\n        /* \"#utility.yul\":17740:17751   */\n      add\n        /* \"#utility.yul\":17733:17751   */\n      swap1\n      pop\n        /* \"#utility.yul\":17359:17757   */\n      swap2\n      swap1\n      pop\n      jump\t// out\n        /* \"#utility.yul\":17763:18142   */\n    tag_173:\n        /* \"#utility.yul\":17947:17950   */\n      0x00\n        /* \"#utility.yul\":17969:18116   */\n      tag_563\n        /* \"#utility.yul\":18112:18115   */\n      dup3\n        /* \"#utility.yul\":17969:18116   */\n      tag_376\n      jump\t// in\n    tag_563:\n        /* \"#utility.yul\":17962:18116   */\n      swap2\n      pop\n        /* \"#utility.yul\":18133:18136   */\n      dup2\n        /* \"#utility.yul\":18126:18136   */\n      swap1\n      pop\n        /* \"#utility.yul\":17763:18142   */\n      swap2\n      swap1\n      pop\n      jump\t// out\n        /* \"#utility.yul\":18148:18311   */\n    tag_377:\n        /* \"#utility.yul\":18288:18303   */\n      0x526566756e64206661696c656400000000000000000000000000000000000000\n        /* \"#utility.yul\":18284:18285   */\n      0x00\n        /* \"#utility.yul\":18276:18282   */\n      dup3\n        /* \"#utility.yul\":18272:18286   */\n      add\n        /* \"#utility.yul\":18265:18304   */\n      mstore\n        /* \"#utility.yul\":18148:18311   */\n      pop\n      jump\t// out\n        /* \"#utility.yul\":18317:18683   */\n    tag_378:\n        /* \"#utility.yul\":18459:18462   */\n      0x00\n        /* \"#utility.yul\":18480:18547   */\n      tag_566\n        /* \"#utility.yul\":18544:18546   */\n      0x0d\n        /* \"#utility.yul\":18539:18542   */\n      dup4\n        /* \"#utility.yul\":18480:18547   */\n      tag_341\n      jump\t// in\n    tag_566:\n        /* \"#utility.yul\":18473:18547   */\n      swap2\n      pop\n        /* \"#utility.yul\":18556:18649   */\n      tag_567\n        /* \"#utility.yul\":18645:18648   */\n      dup3\n        /* \"#utility.yul\":18556:18649   */\n      tag_377\n      jump\t// in\n    tag_567:\n        /* \"#utility.yul\":18674:18676   */\n      0x20\n        /* \"#utility.yul\":18669:18672   */\n      dup3\n        /* \"#utility.yul\":18665:18677   */\n      add\n        /* \"#utility.yul\":18658:18677   */\n      swap1\n      pop\n        /* \"#utility.yul\":18317:18683   */\n      swap2\n      swap1\n      pop\n      jump\t// out\n        /* \"#utility.yul\":18689:19108   */\n    tag_179:\n        /* \"#utility.yul\":18855:18859   */\n      0x00\n        /* \"#utility.yul\":18893:18895   */\n      0x20\n        /* \"#utility.yul\":18882:18891   */\n      dup3\n        /* \"#utility.yul\":18878:18896   */\n      add\n        /* \"#utility.yul\":18870:18896   */\n      swap1\n      pop\n        /* \"#utility.yul\":18942:18951   */\n      dup2\n        /* \"#utility.yul\":18936:18940   */\n      dup2\n        /* \"#utility.yul\":18932:18952   */\n      sub\n        /* \"#utility.yul\":18928:18929   */\n      0x00\n        /* \"#utility.yul\":18917:18926   */\n      dup4\n        /* \"#utility.yul\":18913:18930   */\n      add\n        /* \"#utility.yul\":18906:18953   */\n      mstore\n        /* \"#utility.yul\":18970:19101   */\n      tag_569\n        /* \"#utility.yul\":19096:19100   */\n      dup2\n        /* \"#utility.yul\":18970:19101   */\n      tag_378\n      jump\t// in\n    tag_569:\n        /* \"#utility.yul\":18962:19101   */\n      swap1\n      pop\n        /* \"#utility.yul\":18689:19108   */\n      swap2\n      swap1\n      pop\n      jump\t// out\n        /* \"#utility.yul\":19114:19295   */\n    tag_379:\n        /* \"#utility.yul\":19254:19287   */\n      0x4f6e6c792077696e6e65722063616e2061636365737320746865206461746100\n        /* \"#utility.yul\":19250:19251   */\n      0x00\n        /* \"#utility.yul\":19242:19248   */\n      dup3\n        /* \"#utility.yul\":19238:19252   */\n      add\n        /* \"#utility.yul\":19231:19288   */\n      mstore\n        /* \"#utility.yul\":19114:19295   */\n      pop\n      jump\t// out\n        /* \"#utility.yul\":19301:19667   */\n    tag_380:\n        /* \"#utility.yul\":19443:19446   */\n      0x00\n        /* \"#utility.yul\":19464:19531   */\n      tag_572\n        /* \"#utility.yul\":19528:19530   */\n      0x1f\n        /* \"#utility.yul\":19523:19526   */\n      dup4\n        /* \"#utility.yul\":19464:19531   */\n      tag_341\n      jump\t// in\n    tag_572:\n        /* \"#utility.yul\":19457:19531   */\n      swap2\n      pop\n        /* \"#utility.yul\":19540:19633   */\n      tag_573\n        /* \"#utility.yul\":19629:19632   */\n      dup3\n        /* \"#utility.yul\":19540:19633   */\n      tag_379\n      jump\t// in\n    tag_573:\n        /* \"#utility.yul\":19658:19660   */\n      0x20\n        /* \"#utility.yul\":19653:19656   */\n      dup3\n        /* \"#utility.yul\":19649:19661   */\n      add\n        /* \"#utility.yul\":19642:19661   */\n      swap1\n      pop\n        /* \"#utility.yul\":19301:19667   */\n      swap2\n      swap1\n      pop\n      jump\t// out\n        /* \"#utility.yul\":19673:20092   */\n    tag_186:\n        /* \"#utility.yul\":19839:19843   */\n      0x00\n        /* \"#utility.yul\":19877:19879   */\n      0x20\n        /* \"#utility.yul\":19866:19875   */\n      dup3\n        /* \"#utility.yul\":19862:19880   */\n      add\n        /* \"#utility.yul\":19854:19880   */\n      swap1\n      pop\n        /* \"#utility.yul\":19926:19935   */\n      dup2\n        /* \"#utility.yul\":19920:19924   */\n      dup2\n        /* \"#utility.yul\":19916:19936   */\n      sub\n        /* \"#utility.yul\":19912:19913   */\n      0x00\n        /* \"#utility.yul\":19901:19910   */\n      dup4\n        /* \"#utility.yul\":19897:19914   */\n      add\n        /* \"#utility.yul\":19890:19937   */\n      mstore\n        /* \"#utility.yul\":19954:20085   */\n      tag_575\n        /* \"#utility.yul\":20080:20084   */\n      dup2\n        /* \"#utility.yul\":19954:20085   */\n      tag_380\n      jump\t// in\n    tag_575:\n        /* \"#utility.yul\":19946:20085   */\n      swap1\n      pop\n        /* \"#utility.yul\":19673:20092   */\n      swap2\n      swap1\n      pop\n      jump\t// out\n        /* \"#utility.yul\":20098:20278   */\n    tag_381:\n        /* \"#utility.yul\":20146:20223   */\n      0x4e487b7100000000000000000000000000000000000000000000000000000000\n        /* \"#utility.yul\":20143:20144   */\n      0x00\n        /* \"#utility.yul\":20136:20224   */\n      mstore\n        /* \"#utility.yul\":20243:20247   */\n      0x22\n        /* \"#utility.yul\":20240:20241   */\n      0x04\n        /* \"#utility.yul\":20233:20248   */\n      mstore\n        /* \"#utility.yul\":20267:20271   */\n      0x24\n        /* \"#utility.yul\":20264:20265   */\n      0x00\n        /* \"#utility.yul\":20257:20272   */\n      revert\n        /* \"#utility.yul\":20284:20604   */\n    tag_188:\n        /* \"#utility.yul\":20328:20334   */\n      0x00\n        /* \"#utility.yul\":20365:20366   */\n      0x02\n        /* \"#utility.yul\":20359:20363   */\n      dup3\n        /* \"#utility.yul\":20355:20367   */\n      div\n        /* \"#utility.yul\":20345:20367   */\n      swap1\n      pop\n        /* \"#utility.yul\":20412:20413   */\n      0x01\n        /* \"#utility.yul\":20406:20410   */\n      dup3\n        /* \"#utility.yul\":20402:20414   */\n      and\n        /* \"#utility.yul\":20433:20451   */\n      dup1\n        /* \"#utility.yul\":20423:20504   */\n      tag_578\n      jumpi\n        /* \"#utility.yul\":20489:20493   */\n      0x7f\n        /* \"#utility.yul\":20481:20487   */\n      dup3\n        /* \"#utility.yul\":20477:20494   */\n      and\n        /* \"#utility.yul\":20467:20494   */\n      swap2\n      pop\n        /* \"#utility.yul\":20423:20504   */\n    tag_578:\n        /* \"#utility.yul\":20551:20553   */\n      0x20\n        /* \"#utility.yul\":20543:20549   */\n      dup3\n        /* \"#utility.yul\":20540:20554   */\n      lt\n        /* \"#utility.yul\":20520:20538   */\n      dup2\n        /* \"#utility.yul\":20517:20555   */\n      sub\n        /* \"#utility.yul\":20514:20598   */\n      tag_579\n      jumpi\n        /* \"#utility.yul\":20570:20588   */\n      tag_580\n      tag_381\n      jump\t// in\n    tag_580:\n        /* \"#utility.yul\":20514:20598   */\n    tag_579:\n        /* \"#utility.yul\":20335:20604   */\n      pop\n        /* \"#utility.yul\":20284:20604   */\n      swap2\n      swap1\n      pop\n      jump\t// out\n        /* \"#utility.yul\":20610:20781   */\n    tag_382:\n        /* \"#utility.yul\":20750:20773   */\n      0x41756374696f6e206e6f7420656e646564207965740000000000000000000000\n        /* \"#utility.yul\":20746:20747   */\n      0x00\n        /* \"#utility.yul\":20738:20744   */\n      dup3\n        /* \"#utility.yul\":20734:20748   */\n      add\n        /* \"#utility.yul\":20727:20774   */\n      mstore\n        /* \"#utility.yul\":20610:20781   */\n      pop\n      jump\t// out\n        /* \"#utility.yul\":20787:21153   */\n    tag_383:\n        /* \"#utility.yul\":20929:20932   */\n      0x00\n        /* \"#utility.yul\":20950:21017   */\n      tag_583\n        /* \"#utility.yul\":21014:21016   */\n      0x15\n        /* \"#utility.yul\":21009:21012   */\n      dup4\n        /* \"#utility.yul\":20950:21017   */\n      tag_341\n      jump\t// in\n    tag_583:\n        /* \"#utility.yul\":20943:21017   */\n      swap2\n      pop\n        /* \"#utility.yul\":21026:21119   */\n      tag_584\n        /* \"#utility.yul\":21115:21118   */\n      dup3\n        /* \"#utility.yul\":21026:21119   */\n      tag_382\n      jump\t// in\n    tag_584:\n        /* \"#utility.yul\":21144:21146   */\n      0x20\n        /* \"#utility.yul\":21139:21142   */\n      dup3\n        /* \"#utility.yul\":21135:21147   */\n      add\n        /* \"#utility.yul\":21128:21147   */\n      swap1\n      pop\n        /* \"#utility.yul\":20787:21153   */\n      swap2\n      swap1\n      pop\n      jump\t// out\n        /* \"#utility.yul\":21159:21578   */\n    tag_230:\n        /* \"#utility.yul\":21325:21329   */\n      0x00\n        /* \"#utility.yul\":21363:21365   */\n      0x20\n        /* \"#utility.yul\":21352:21361   */\n      dup3\n        /* \"#utility.yul\":21348:21366   */\n      add\n        /* \"#utility.yul\":21340:21366   */\n      swap1\n      pop\n        /* \"#utility.yul\":21412:21421   */\n      dup2\n        /* \"#utility.yul\":21406:21410   */\n      dup2\n        /* \"#utility.yul\":21402:21422   */\n      sub\n        /* \"#utility.yul\":21398:21399   */\n      0x00\n        /* \"#utility.yul\":21387:21396   */\n      dup4\n        /* \"#utility.yul\":21383:21400   */\n      add\n        /* \"#utility.yul\":21376:21423   */\n      mstore\n        /* \"#utility.yul\":21440:21571   */\n      tag_586\n        /* \"#utility.yul\":21566:21570   */\n      dup2\n        /* \"#utility.yul\":21440:21571   */\n      tag_383\n      jump\t// in\n    tag_586:\n        /* \"#utility.yul\":21432:21571   */\n      swap1\n      pop\n        /* \"#utility.yul\":21159:21578   */\n      swap2\n      swap1\n      pop\n      jump\t// out\n        /* \"#utility.yul\":21584:21759   */\n    tag_384:\n        /* \"#utility.yul\":21724:21751   */\n      0x41756374696f6e20616c72656164792066696e616c697a656400000000000000\n        /* \"#utility.yul\":21720:21721   */\n      0x00\n        /* \"#utility.yul\":21712:21718   */\n      dup3\n        /* \"#utility.yul\":21708:21722   */\n      add\n        /* \"#utility.yul\":21701:21752   */\n      mstore\n        /* \"#utility.yul\":21584:21759   */\n      pop\n      jump\t// out\n        /* \"#utility.yul\":21765:22131   */\n    tag_385:\n        /* \"#utility.yul\":21907:21910   */\n      0x00\n        /* \"#utility.yul\":21928:21995   */\n      tag_589\n        /* \"#utility.yul\":21992:21994   */\n      0x19\n        /* \"#utility.yul\":21987:21990   */\n      dup4\n        /* \"#utility.yul\":21928:21995   */\n      tag_341\n      jump\t// in\n    tag_589:\n        /* \"#utility.yul\":21921:21995   */\n      swap2\n      pop\n        /* \"#utility.yul\":22004:22097   */\n      tag_590\n        /* \"#utility.yul\":22093:22096   */\n      dup3\n        /* \"#utility.yul\":22004:22097   */\n      tag_384\n      jump\t// in\n    tag_590:\n        /* \"#utility.yul\":22122:22124   */\n      0x20\n        /* \"#utility.yul\":22117:22120   */\n      dup3\n        /* \"#utility.yul\":22113:22125   */\n      add\n        /* \"#utility.yul\":22106:22125   */\n      swap1\n      pop\n        /* \"#utility.yul\":21765:22131   */\n      swap2\n      swap1\n      pop\n      jump\t// out\n        /* \"#utility.yul\":22137:22556   */\n    tag_234:\n        /* \"#utility.yul\":22303:22307   */\n      0x00\n        /* \"#utility.yul\":22341:22343   */\n      0x20\n        /* \"#utility.yul\":22330:22339   */\n      dup3\n        /* \"#utility.yul\":22326:22344   */\n      add\n        /* \"#utility.yul\":22318:22344   */\n      swap1\n      pop\n        /* \"#utility.yul\":22390:22399   */\n      dup2\n        /* \"#utility.yul\":22384:22388   */\n      dup2\n        /* \"#utility.yul\":22380:22400   */\n      sub\n        /* \"#utility.yul\":22376:22377   */\n      0x00\n        /* \"#utility.yul\":22365:22374   */\n      dup4\n        /* \"#utility.yul\":22361:22378   */\n      add\n        /* \"#utility.yul\":22354:22401   */\n      mstore\n        /* \"#utility.yul\":22418:22549   */\n      tag_592\n        /* \"#utility.yul\":22544:22548   */\n      dup2\n        /* \"#utility.yul\":22418:22549   */\n      tag_385\n      jump\t// in\n    tag_592:\n        /* \"#utility.yul\":22410:22549   */\n      swap1\n      pop\n        /* \"#utility.yul\":22137:22556   */\n      swap2\n      swap1\n      pop\n      jump\t// out\n        /* \"#utility.yul\":22562:22732   */\n    tag_386:\n        /* \"#utility.yul\":22702:22724   */\n      0x496e73756666696369656e742062616c616e6365000000000000000000000000\n        /* \"#utility.yul\":22698:22699   */\n      0x00\n        /* \"#utility.yul\":22690:22696   */\n      dup3\n        /* \"#utility.yul\":22686:22700   */\n      add\n        /* \"#utility.yul\":22679:22725   */\n      mstore\n        /* \"#utility.yul\":22562:22732   */\n      pop\n      jump\t// out\n        /* \"#utility.yul\":22738:23104   */\n    tag_387:\n        /* \"#utility.yul\":22880:22883   */\n      0x00\n        /* \"#utility.yul\":22901:22968   */\n      tag_595\n        /* \"#utility.yul\":22965:22967   */\n      0x14\n        /* \"#utility.yul\":22960:22963   */\n      dup4\n        /* \"#utility.yul\":22901:22968   */\n      tag_341\n      jump\t// in\n    tag_595:\n        /* \"#utility.yul\":22894:22968   */\n      swap2\n      pop\n        /* \"#utility.yul\":22977:23070   */\n      tag_596\n        /* \"#utility.yul\":23066:23069   */\n      dup3\n        /* \"#utility.yul\":22977:23070   */\n      tag_386\n      jump\t// in\n    tag_596:\n        /* \"#utility.yul\":23095:23097   */\n      0x20\n        /* \"#utility.yul\":23090:23093   */\n      dup3\n        /* \"#utility.yul\":23086:23098   */\n      add\n        /* \"#utility.yul\":23079:23098   */\n      swap1\n      pop\n        /* \"#utility.yul\":22738:23104   */\n      swap2\n      swap1\n      pop\n      jump\t// out\n        /* \"#utility.yul\":23110:23529   */\n    tag_238:\n        /* \"#utility.yul\":23276:23280   */\n      0x00\n        /* \"#utility.yul\":23314:23316   */\n      0x20\n        /* \"#utility.yul\":23303:23312   */\n      dup3\n        /* \"#utility.yul\":23299:23317   */\n      add\n        /* \"#utility.yul\":23291:23317   */\n      swap1\n      pop\n        /* \"#utility.yul\":23363:23372   */\n      dup2\n        /* \"#utility.yul\":23357:23361   */\n      dup2\n        /* \"#utility.yul\":23353:23373   */\n      sub\n        /* \"#utility.yul\":23349:23350   */\n      0x00\n        /* \"#utility.yul\":23338:23347   */\n      dup4\n        /* \"#utility.yul\":23334:23351   */\n      add\n        /* \"#utility.yul\":23327:23374   */\n      mstore\n        /* \"#utility.yul\":23391:23522   */\n      tag_598\n        /* \"#utility.yul\":23517:23521   */\n      dup2\n        /* \"#utility.yul\":23391:23522   */\n      tag_387\n      jump\t// in\n    tag_598:\n        /* \"#utility.yul\":23383:23522   */\n      swap1\n      pop\n        /* \"#utility.yul\":23110:23529   */\n      swap2\n      swap1\n      pop\n      jump\t// out\n        /* \"#utility.yul\":23535:23706   */\n    tag_388:\n        /* \"#utility.yul\":23675:23698   */\n      0x53656c6c6572207061796d656e74206661696c65640000000000000000000000\n        /* \"#utility.yul\":23671:23672   */\n      0x00\n        /* \"#utility.yul\":23663:23669   */\n      dup3\n        /* \"#utility.yul\":23659:23673   */\n      add\n        /* \"#utility.yul\":23652:23699   */\n      mstore\n        /* \"#utility.yul\":23535:23706   */\n      pop\n      jump\t// out\n        /* \"#utility.yul\":23712:24078   */\n    tag_389:\n        /* \"#utility.yul\":23854:23857   */\n      0x00\n        /* \"#utility.yul\":23875:23942   */\n      tag_601\n        /* \"#utility.yul\":23939:23941   */\n      0x15\n        /* \"#utility.yul\":23934:23937   */\n      dup4\n        /* \"#utility.yul\":23875:23942   */\n      tag_341\n      jump\t// in\n    tag_601:\n        /* \"#utility.yul\":23868:23942   */\n      swap2\n      pop\n        /* \"#utility.yul\":23951:24044   */\n      tag_602\n        /* \"#utility.yul\":24040:24043   */\n      dup3\n        /* \"#utility.yul\":23951:24044   */\n      tag_388\n      jump\t// in\n    tag_602:\n        /* \"#utility.yul\":24069:24071   */\n      0x20\n        /* \"#utility.yul\":24064:24067   */\n      dup3\n        /* \"#utility.yul\":24060:24072   */\n      add\n        /* \"#utility.yul\":24053:24072   */\n      swap1\n      pop\n        /* \"#utility.yul\":23712:24078   */\n      swap2\n      swap1\n      pop\n      jump\t// out\n        /* \"#utility.yul\":24084:24503   */\n    tag_245:\n        /* \"#utility.yul\":24250:24254   */\n      0x00\n        /* \"#utility.yul\":24288:24290   */\n      0x20\n        /* \"#utility.yul\":24277:24286   */\n      dup3\n        /* \"#utility.yul\":24273:24291   */\n      add\n        /* \"#utility.yul\":24265:24291   */\n      swap1\n      pop\n        /* \"#utility.yul\":24337:24346   */\n      dup2\n        /* \"#utility.yul\":24331:24335   */\n      dup2\n        /* \"#utility.yul\":24327:24347   */\n      sub\n        /* \"#utility.yul\":24323:24324   */\n      0x00\n        /* \"#utility.yul\":24312:24321   */\n      dup4\n        /* \"#utility.yul\":24308:24325   */\n      add\n        /* \"#utility.yul\":24301:24348   */\n      mstore\n        /* \"#utility.yul\":24365:24496   */\n      tag_604\n        /* \"#utility.yul\":24491:24495   */\n      dup2\n        /* \"#utility.yul\":24365:24496   */\n      tag_389\n      jump\t// in\n    tag_604:\n        /* \"#utility.yul\":24357:24496   */\n      swap1\n      pop\n        /* \"#utility.yul\":24084:24503   */\n      swap2\n      swap1\n      pop\n      jump\t// out\n        /* \"#utility.yul\":24509:24939   */\n    tag_247:\n        /* \"#utility.yul\":24652:24656   */\n      0x00\n        /* \"#utility.yul\":24690:24692   */\n      0x60\n        /* \"#utility.yul\":24679:24688   */\n      dup3\n        /* \"#utility.yul\":24675:24693   */\n      add\n        /* \"#utility.yul\":24667:24693   */\n      swap1\n      pop\n        /* \"#utility.yul\":24703:24774   */\n      tag_606\n        /* \"#utility.yul\":24771:24772   */\n      0x00\n        /* \"#utility.yul\":24760:24769   */\n      dup4\n        /* \"#utility.yul\":24756:24773   */\n      add\n        /* \"#utility.yul\":24747:24753   */\n      dup7\n        /* \"#utility.yul\":24703:24774   */\n      tag_345\n      jump\t// in\n    tag_606:\n        /* \"#utility.yul\":24784:24856   */\n      tag_607\n        /* \"#utility.yul\":24852:24854   */\n      0x20\n        /* \"#utility.yul\":24841:24850   */\n      dup4\n        /* \"#utility.yul\":24837:24855   */\n      add\n        /* \"#utility.yul\":24828:24834   */\n      dup6\n        /* \"#utility.yul\":24784:24856   */\n      tag_339\n      jump\t// in\n    tag_607:\n        /* \"#utility.yul\":24866:24932   */\n      tag_608\n        /* \"#utility.yul\":24928:24930   */\n      0x40\n        /* \"#utility.yul\":24917:24926   */\n      dup4\n        /* \"#utility.yul\":24913:24931   */\n      add\n        /* \"#utility.yul\":24904:24910   */\n      dup5\n        /* \"#utility.yul\":24866:24932   */\n      tag_337\n      jump\t// in\n    tag_608:\n        /* \"#utility.yul\":24509:24939   */\n      swap5\n      swap4\n      pop\n      pop\n      pop\n      pop\n      jump\t// out\n        /* \"#utility.yul\":24945:25114   */\n    tag_390:\n        /* \"#utility.yul\":25085:25106   */\n      0x42617463682073697a6520726571756972656400000000000000000000000000\n        /* \"#utility.yul\":25081:25082   */\n      0x00\n        /* \"#utility.yul\":25073:25079   */\n      dup3\n        /* \"#utility.yul\":25069:25083   */\n      add\n        /* \"#utility.yul\":25062:25107   */\n      mstore\n        /* \"#utility.yul\":24945:25114   */\n      pop\n      jump\t// out\n        /* \"#utility.yul\":25120:25486   */\n    tag_391:\n        /* \"#utility.yul\":25262:25265   */\n      0x00\n        /* \"#utility.yul\":25283:25350   */\n      tag_611\n        /* \"#utility.yul\":25347:25349   */\n      0x13\n        /* \"#utility.yul\":25342:25345   */\n      dup4\n        /* \"#utility.yul\":25283:25350   */\n      tag_341\n      jump\t// in\n    tag_611:\n        /* \"#utility.yul\":25276:25350   */\n      swap2\n      pop\n        /* \"#utility.yul\":25359:25452   */\n      tag_612\n        /* \"#utility.yul\":25448:25451   */\n      dup3\n        /* \"#utility.yul\":25359:25452   */\n      tag_390\n      jump\t// in\n    tag_612:\n        /* \"#utility.yul\":25477:25479   */\n      0x20\n        /* \"#utility.yul\":25472:25475   */\n      dup3\n        /* \"#utility.yul\":25468:25480   */\n      add\n        /* \"#utility.yul\":25461:25480   */\n      swap1\n      pop\n        /* \"#utility.yul\":25120:25486   */\n      swap2\n      swap1\n      pop\n      jump\t// out\n        /* \"#utility.yul\":25492:25911   */\n    tag_262:\n        /* \"#utility.yul\":25658:25662   */\n      0x00\n        /* \"#utility.yul\":25696:25698   */\n      0x20\n        /* \"#utility.yul\":25685:25694   */\n      dup3\n        /* \"#utility.yul\":25681:25699   */\n      add\n        /* \"#utility.yul\":25673:25699   */\n      swap1\n      pop\n        /* \"#utility.yul\":25745:25754   */\n      dup2\n        /* \"#utility.yul\":25739:25743   */\n      dup2\n        /* \"#utility.yul\":25735:25755   */\n      sub\n        /* \"#utility.yul\":25731:25732   */\n      0x00\n        /* \"#utility.yul\":25720:25729   */\n      dup4\n        /* \"#utility.yul\":25716:25733   */\n      add\n        /* \"#utility.yul\":25709:25756   */\n      mstore\n        /* \"#utility.yul\":25773:25904   */\n      tag_614\n        /* \"#utility.yul\":25899:25903   */\n      dup2\n        /* \"#utility.yul\":25773:25904   */\n      tag_391\n      jump\t// in\n    tag_614:\n        /* \"#utility.yul\":25765:25904   */\n      swap1\n      pop\n        /* \"#utility.yul\":25492:25911   */\n      swap2\n      swap1\n      pop\n      jump\t// out\n        /* \"#utility.yul\":25917:26097   */\n    tag_268:\n        /* \"#utility.yul\":25965:26042   */\n      0x4e487b7100000000000000000000000000000000000000000000000000000000\n        /* \"#utility.yul\":25962:25963   */\n      0x00\n        /* \"#utility.yul\":25955:26043   */\n      mstore\n        /* \"#utility.yul\":26062:26066   */\n      0x32\n        /* \"#utility.yul\":26059:26060   */\n      0x04\n        /* \"#utility.yul\":26052:26067   */\n      mstore\n        /* \"#utility.yul\":26086:26090   */\n      0x24\n        /* \"#utility.yul\":26083:26084   */\n      0x00\n        /* \"#utility.yul\":26076:26091   */\n      revert\n        /* \"#utility.yul\":26103:26283   */\n    tag_392:\n        /* \"#utility.yul\":26151:26228   */\n      0x4e487b7100000000000000000000000000000000000000000000000000000000\n        /* \"#utility.yul\":26148:26149   */\n      0x00\n        /* \"#utility.yul\":26141:26229   */\n      mstore\n        /* \"#utility.yul\":26248:26252   */\n      0x11\n        /* \"#utility.yul\":26245:26246   */\n      0x04\n        /* \"#utility.yul\":26238:26253   */\n      mstore\n        /* \"#utility.yul\":26272:26276   */\n      0x24\n        /* \"#utility.yul\":26269:26270   */\n      0x00\n        /* \"#utility.yul\":26262:26277   */\n      revert\n        /* \"#utility.yul\":26289:26522   */\n    tag_271:\n        /* \"#utility.yul\":26328:26331   */\n      0x00\n        /* \"#utility.yul\":26351:26375   */\n      tag_618\n        /* \"#utility.yul\":26369:26374   */\n      dup3\n        /* \"#utility.yul\":26351:26375   */\n      tag_338\n      jump\t// in\n    tag_618:\n        /* \"#utility.yul\":26342:26375   */\n      swap2\n      pop\n        /* \"#utility.yul\":26397:26463   */\n      0xffffffffffffffffffffffffffffffffffffffffffffffffffffffffffffffff\n        /* \"#utility.yul\":26390:26395   */\n      dup3\n        /* \"#utility.yul\":26387:26464   */\n      sub\n        /* \"#utility.yul\":26384:26487   */\n      tag_619\n      jumpi\n        /* \"#utility.yul\":26467:26485   */\n      tag_620\n      tag_392\n      jump\t// in\n    tag_620:\n        /* \"#utility.yul\":26384:26487   */\n    tag_619:\n        /* \"#utility.yul\":26514:26515   */\n      0x01\n        /* \"#utility.yul\":26507:26512   */\n      dup3\n        /* \"#utility.yul\":26503:26516   */\n      add\n        /* \"#utility.yul\":26496:26516   */\n      swap1\n      pop\n        /* \"#utility.yul\":26289:26522   */\n      swap2\n      swap1\n      pop\n      jump\t// out\n        /* \"#utility.yul\":26528:26691   */\n    tag_393:\n        /* \"#utility.yul\":26668:26683   */\n      0x41756374696f6e20656e64656400000000000000000000000000000000000000\n        /* \"#utility.yul\":26664:26665   */\n      0x00\n        /* \"#utility.yul\":26656:26662   */\n      dup3\n        /* \"#utility.yul\":26652:26666   */\n      add\n        /* \"#utility.yul\":26645:26684   */\n      mstore\n        /* \"#utility.yul\":26528:26691   */\n      pop\n      jump\t// out\n        /* \"#utility.yul\":26697:27063   */\n    tag_394:\n        /* \"#utility.yul\":26839:26842   */\n      0x00\n        /* \"#utility.yul\":26860:26927   */\n      tag_623\n        /* \"#utility.yul\":26924:26926   */\n      0x0d\n        /* \"#utility.yul\":26919:26922   */\n      dup4\n        /* \"#utility.yul\":26860:26927   */\n      tag_341\n      jump\t// in\n    tag_623:\n        /* \"#utility.yul\":26853:26927   */\n      swap2\n      pop\n        /* \"#utility.yul\":26936:27029   */\n      tag_624\n        /* \"#utility.yul\":27025:27028   */\n      dup3\n        /* \"#utility.yul\":26936:27029   */\n      tag_393\n      jump\t// in\n    tag_624:\n        /* \"#utility.yul\":27054:27056   */\n      0x20\n        /* \"#utility.yul\":27049:27052   */\n      dup3\n        /* \"#utility.yul\":27045:27057   */\n      add\n        /* \"#utility.yul\":27038:27057   */\n      swap1\n      pop\n        /* \"#utility.yul\":26697:27063   */\n      swap2\n      swap1\n      pop\n      jump\t// out\n        /* \"#utility.yul\":27069:27488   */\n    tag_286:\n        /* \"#utility.yul\":27235:27239   */\n      0x00\n        /* \"#utility.yul\":27273:27275   */\n      0x20\n        /* \"#utility.yul\":27262:27271   */\n      dup3\n        /* \"#utility.yul\":27258:27276   */\n      add\n        /* \"#utility.yul\":27250:27276   */\n      swap1\n      pop\n        /* \"#utility.yul\":27322:27331   */\n      dup2\n        /* \"#utility.yul\":27316:27320   */\n      dup2\n        /* \"#utility.yul\":27312:27332   */\n      sub\n        /* \"#utility.yul\":27308:27309   */\n      0x00\n        /* \"#utility.yul\":27297:27306   */\n      dup4\n        /* \"#utility.yul\":27293:27310   */\n      add\n        /* \"#utility.yul\":27286:27333   */\n      mstore\n        /* \"#utility.yul\":27350:27481   */\n      tag_626\n        /* \"#utility.yul\":27476:27480   */\n      dup2\n        /* \"#utility.yul\":27350:27481   */\n      tag_394\n      jump\t// in\n    tag_626:\n        /* \"#utility.yul\":27342:27481   */\n      swap1\n      pop\n        /* \"#utility.yul\":27069:27488   */\n      swap2\n      swap1\n      pop\n      jump\t// out\n        /* \"#utility.yul\":27494:27714   */\n    tag_395:\n        /* \"#utility.yul\":27634:27668   */\n      0x596f752063616e277420626964206f6e20796f7572206f776e2061756374696f\n        /* \"#utility.yul\":27630:27631   */\n      0x00\n        /* \"#utility.yul\":27622:27628   */\n      dup3\n        /* \"#utility.yul\":27618:27632   */\n      add\n        /* \"#utility.yul\":27611:27669   */\n      mstore\n        /* \"#utility.yul\":27703:27706   */\n      0x6e00000000000000000000000000000000000000000000000000000000000000\n        /* \"#utility.yul\":27698:27700   */\n      0x20\n        /* \"#utility.yul\":27690:27696   */\n      dup3\n        /* \"#utility.yul\":27686:27701   */\n      add\n        /* \"#utility.yul\":27679:27707   */\n      mstore\n        /* \"#utility.yul\":27494:27714   */\n      pop\n      jump\t// out\n        /* \"#utility.yul\":27720:28086   */\n    tag_396:\n        /* \"#utility.yul\":27862:27865   */\n      0x00\n        /* \"#utility.yul\":27883:27950   */\n      tag_629\n        /* \"#utility.yul\":27947:27949   */\n      0x21\n        /* \"#utility.yul\":27942:27945   */\n      dup4\n        /* \"#utility.yul\":27883:27950   */\n      tag_341\n      jump\t// in\n    tag_629:\n        /* \"#utility.yul\":27876:27950   */\n      swap2\n      pop\n        /* \"#utility.yul\":27959:28052   */\n      tag_630\n        /* \"#utility.yul\":28048:28051   */\n      dup3\n        /* \"#utility.yul\":27959:28052   */\n      tag_395\n      jump\t// in\n    tag_630:\n        /* \"#utility.yul\":28077:28079   */\n      0x40\n        /* \"#utility.yul\":28072:28075   */\n      dup3\n        /* \"#utility.yul\":28068:28080   */\n      add\n        /* \"#utility.yul\":28061:28080   */\n      swap1\n      pop\n        /* \"#utility.yul\":27720:28086   */\n      swap2\n      swap1\n      pop\n      jump\t// out\n        /* \"#utility.yul\":28092:28511   */\n    tag_290:\n        /* \"#utility.yul\":28258:28262   */\n      0x00\n        /* \"#utility.yul\":28296:28298   */\n      0x20\n        /* \"#utility.yul\":28285:28294   */\n      dup3\n        /* \"#utility.yul\":28281:28299   */\n      add\n        /* \"#utility.yul\":28273:28299   */\n      swap1\n      pop\n        /* \"#utility.yul\":28345:28354   */\n      dup2\n        /* \"#utility.yul\":28339:28343   */\n      dup2\n        /* \"#utility.yul\":28335:28355   */\n      sub\n        /* \"#utility.yul\":28331:28332   */\n      0x00\n        /* \"#utility.yul\":28320:28329   */\n      dup4\n        /* \"#utility.yul\":28316:28333   */\n      add\n        /* \"#utility.yul\":28309:28356   */\n      mstore\n        /* \"#utility.yul\":28373:28504   */\n      tag_632\n        /* \"#utility.yul\":28499:28503   */\n      dup2\n        /* \"#utility.yul\":28373:28504   */\n      tag_396\n      jump\t// in\n    tag_632:\n        /* \"#utility.yul\":28365:28504   */\n      swap1\n      pop\n        /* \"#utility.yul\":28092:28511   */\n      swap2\n      swap1\n      pop\n      jump\t// out\n        /* \"#utility.yul\":28517:28687   */\n    tag_397:\n        /* \"#utility.yul\":28657:28679   */\n      0x4d7573742073656e6420736f6d65206574686572000000000000000000000000\n        /* \"#utility.yul\":28653:28654   */\n      0x00\n        /* \"#utility.yul\":28645:28651   */\n      dup3\n        /* \"#utility.yul\":28641:28655   */\n      add\n        /* \"#utility.yul\":28634:28680   */\n      mstore\n        /* \"#utility.yul\":28517:28687   */\n      pop\n      jump\t// out\n        /* \"#utility.yul\":28693:29059   */\n    tag_398:\n        /* \"#utility.yul\":28835:28838   */\n      0x00\n        /* \"#utility.yul\":28856:28923   */\n      tag_635\n        /* \"#utility.yul\":28920:28922   */\n      0x14\n        /* \"#utility.yul\":28915:28918   */\n      dup4\n        /* \"#utility.yul\":28856:28923   */\n      tag_341\n      jump\t// in\n    tag_635:\n        /* \"#utility.yul\":28849:28923   */\n      swap2\n      pop\n        /* \"#utility.yul\":28932:29025   */\n      tag_636\n        /* \"#utility.yul\":29021:29024   */\n      dup3\n        /* \"#utility.yul\":28932:29025   */\n      tag_397\n      jump\t// in\n    tag_636:\n        /* \"#utility.yul\":29050:29052   */\n      0x20\n        /* \"#utility.yul\":29045:29048   */\n      dup3\n        /* \"#utility.yul\":29041:29053   */\n      add\n        /* \"#utility.yul\":29034:29053   */\n      swap1\n      pop\n        /* \"#utility.yul\":28693:29059   */\n      swap2\n      swap1\n      pop\n      jump\t// out\n        /* \"#utility.yul\":29065:29484   */\n    tag_293:\n        /* \"#utility.yul\":29231:29235   */\n      0x00\n        /* \"#utility.yul\":29269:29271   */\n      0x20\n        /* \"#utility.yul\":29258:29267   */\n      dup3\n        /* \"#utility.yul\":29254:29272   */\n      add\n        /* \"#utility.yul\":29246:29272   */\n      swap1\n      pop\n        /* \"#utility.yul\":29318:29327   */\n      dup2\n        /* \"#utility.yul\":29312:29316   */\n      dup2\n        /* \"#utility.yul\":29308:29328   */\n      sub\n        /* \"#utility.yul\":29304:29305   */\n      0x00\n        /* \"#utility.yul\":29293:29302   */\n      dup4\n        /* \"#utility.yul\":29289:29306   */\n      add\n        /* \"#utility.yul\":29282:29329   */\n      mstore\n        /* \"#utility.yul\":29346:29477   */\n      tag_638\n        /* \"#utility.yul\":29472:29476   */\n      dup2\n        /* \"#utility.yul\":29346:29477   */\n      tag_398\n      jump\t// in\n    tag_638:\n        /* \"#utility.yul\":29338:29477   */\n      swap1\n      pop\n        /* \"#utility.yul\":29065:29484   */\n      swap2\n      swap1\n      pop\n      jump\t// out\n        /* \"#utility.yul\":29490:29681   */\n    tag_295:\n        /* \"#utility.yul\":29530:29533   */\n      0x00\n        /* \"#utility.yul\":29549:29569   */\n      tag_640\n        /* \"#utility.yul\":29567:29568   */\n      dup3\n        /* \"#utility.yul\":29549:29569   */\n      tag_338\n      jump\t// in\n    tag_640:\n        /* \"#utility.yul\":29544:29569   */\n      swap2\n      pop\n        /* \"#utility.yul\":29583:29603   */\n      tag_641\n        /* \"#utility.yul\":29601:29602   */\n      dup4\n        /* \"#utility.yul\":29583:29603   */\n      tag_338\n      jump\t// in\n    tag_641:\n        /* \"#utility.yul\":29578:29603   */\n      swap3\n      pop\n        /* \"#utility.yul\":29626:29627   */\n      dup3\n        /* \"#utility.yul\":29623:29624   */\n      dup3\n        /* \"#utility.yul\":29619:29628   */\n      add\n        /* \"#utility.yul\":29612:29628   */\n      swap1\n      pop\n        /* \"#utility.yul\":29647:29650   */\n      dup1\n        /* \"#utility.yul\":29644:29645   */\n      dup3\n        /* \"#utility.yul\":29641:29651   */\n      gt\n        /* \"#utility.yul\":29638:29674   */\n      iszero\n      tag_642\n      jumpi\n        /* \"#utility.yul\":29654:29672   */\n      tag_643\n      tag_392\n      jump\t// in\n    tag_643:\n        /* \"#utility.yul\":29638:29674   */\n    tag_642:\n        /* \"#utility.yul\":29490:29681   */\n      swap3\n      swap2\n      pop\n      pop\n      jump\t// out\n        /* \"#utility.yul\":29687:29854   */\n    tag_399:\n        /* \"#utility.yul\":29827:29846   */\n      0x42656c6f77206d696e696d756d20626964000000000000000000000000000000\n        /* \"#utility.yul\":29823:29824   */\n      0x00\n        /* \"#utility.yul\":29815:29821   */\n      dup3\n        /* \"#utility.yul\":29811:29825   */\n      add\n        /* \"#utility.yul\":29804:29847   */\n      mstore\n        /* \"#utility.yul\":29687:29854   */\n      pop\n      jump\t// out\n        /* \"#utility.yul\":29860:30226   */\n    tag_400:\n        /* \"#utility.yul\":30002:30005   */\n      0x00\n        /* \"#utility.yul\":30023:30090   */\n      tag_646\n        /* \"#utility.yul\":30087:30089   */\n      0x11\n        /* \"#utility.yul\":30082:30085   */\n      dup4\n        /* \"#utility.yul\":30023:30090   */\n      tag_341\n      jump\t// in\n    tag_646:\n        /* \"#utility.yul\":30016:30090   */\n      swap2\n      pop\n        /* \"#utility.yul\":30099:30192   */\n      tag_647\n        /* \"#utility.yul\":30188:30191   */\n      dup3\n        /* \"#utility.yul\":30099:30192   */\n      tag_399\n      jump\t// in\n    tag_647:\n        /* \"#utility.yul\":30217:30219   */\n      0x20\n        /* \"#utility.yul\":30212:30215   */\n      dup3\n        /* \"#utility.yul\":30208:30220   */\n      add\n        /* \"#utility.yul\":30201:30220   */\n      swap1\n      pop\n        /* \"#utility.yul\":29860:30226   */\n      swap2\n      swap1\n      pop\n      jump\t// out\n        /* \"#utility.yul\":30232:30651   */\n    tag_299:\n        /* \"#utility.yul\":30398:30402   */\n      0x00\n        /* \"#utility.yul\":30436:30438   */\n      0x20\n        /* \"#utility.yul\":30425:30434   */\n      dup3\n        /* \"#utility.yul\":30421:30439   */\n      add\n        /* \"#utility.yul\":30413:30439   */\n      swap1\n      pop\n        /* \"#utility.yul\":30485:30494   */\n      dup2\n        /* \"#utility.yul\":30479:30483   */\n      dup2\n        /* \"#utility.yul\":30475:30495   */\n      sub\n        /* \"#utility.yul\":30471:30472   */\n      0x00\n        /* \"#utility.yul\":30460:30469   */\n      dup4\n        /* \"#utility.yul\":30456:30473   */\n      add\n        /* \"#utility.yul\":30449:30496   */\n      mstore\n        /* \"#utility.yul\":30513:30644   */\n      tag_649\n        /* \"#utility.yul\":30639:30643   */\n      dup2\n        /* \"#utility.yul\":30513:30644   */\n      tag_400\n      jump\t// in\n    tag_649:\n        /* \"#utility.yul\":30505:30644   */\n      swap1\n      pop\n        /* \"#utility.yul\":30232:30651   */\n      swap2\n      swap1\n      pop\n      jump\t// out\n        /* \"#utility.yul\":30657:30838   */\n    tag_401:\n        /* \"#utility.yul\":30797:30830   */\n      0x426964206d757374206578636565642063757272656e74206869676865737400\n        /* \"#utility.yul\":30793:30794   */\n      0x00\n        /* \"#utility.yul\":30785:30791   */\n      dup3\n        /* \"#utility.yul\":30781:30795   */\n      add\n        /* \"#utility.yul\":30774:30831   */\n      mstore\n        /* \"#utility.yul\":30657:30838   */\n      pop\n      jump\t// out\n        /* \"#utility.yul\":30844:31210   */\n    tag_402:\n        /* \"#utility.yul\":30986:30989   */\n      0x00\n        /* \"#utility.yul\":31007:31074   */\n      tag_652\n        /* \"#utility.yul\":31071:31073   */\n      0x1f\n        /* \"#utility.yul\":31066:31069   */\n      dup4\n        /* \"#utility.yul\":31007:31074   */\n      tag_341\n      jump\t// in\n    tag_652:\n        /* \"#utility.yul\":31000:31074   */\n      swap2\n      pop\n        /* \"#utility.yul\":31083:31176   */\n      tag_653\n        /* \"#utility.yul\":31172:31175   */\n      dup3\n        /* \"#utility.yul\":31083:31176   */\n      tag_401\n      jump\t// in\n    tag_653:\n        /* \"#utility.yul\":31201:31203   */\n      0x20\n        /* \"#utility.yul\":31196:31199   */\n      dup3\n        /* \"#utility.yul\":31192:31204   */\n      add\n        /* \"#utility.yul\":31185:31204   */\n      swap1\n      pop\n        /* \"#utility.yul\":30844:31210   */\n      swap2\n      swap1\n      pop\n      jump\t// out\n        /* \"#utility.yul\":31216:31635   */\n    tag_307:\n        /* \"#utility.yul\":31382:31386   */\n      0x00\n        /* \"#utility.yul\":31420:31422   */\n      0x20\n        /* \"#utility.yul\":31409:31418   */\n      dup3\n        /* \"#utility.yul\":31405:31423   */\n      add\n        /* \"#utility.yul\":31397:31423   */\n      swap1\n      pop\n        /* \"#utility.yul\":31469:31478   */\n      dup2\n        /* \"#utility.yul\":31463:31467   */\n      dup2\n        /* \"#utility.yul\":31459:31479   */\n      sub\n        /* \"#utility.yul\":31455:31456   */\n      0x00\n        /* \"#utility.yul\":31444:31453   */\n      dup4\n        /* \"#utility.yul\":31440:31457   */\n      add\n        /* \"#utility.yul\":31433:31480   */\n      mstore\n        /* \"#utility.yul\":31497:31628   */\n      tag_655\n        /* \"#utility.yul\":31623:31627   */\n      dup2\n        /* \"#utility.yul\":31497:31628   */\n      tag_402\n      jump\t// in\n    tag_655:\n        /* \"#utility.yul\":31489:31628   */\n      swap1\n      pop\n        /* \"#utility.yul\":31216:31635   */\n      swap2\n      swap1\n      pop\n      jump\t// out\n\n    auxdata: 0xa26469706673582212209607a43df7b5c84e1a60a6384c48b70134838abea1864d3b07d43ba2768a6e3164736f6c63430008230033\n}\n","bytecode":{"linkReferences":{},"object":"608060405234801561000f575f5ffd5b506040516135c43803806135c4833981810160405281019061003191906102dc565b8260015f6101000a81548173ffffffffffffffffffffffffffffffffffffffff021916908373ffffffffffffffffffffffffffffffffffffffff16021790555085600281905550846003908161008791906105b5565b50836004908161009791906105b5565b5081600c819055505f600d5f6101000a81548160ff021916908315150217905550805f5f6101000a81548173ffffffffffffffffffffffffffffffffffffffff021916908373ffffffffffffffffffffffffffffffffffffffff160217905550505050505050610684565b5f604051905090565b5f5ffd5b5f5ffd5b5f819050919050565b61012581610113565b811461012f575f5ffd5b50565b5f815190506101408161011c565b92915050565b5f5ffd5b5f5ffd5b5f601f19601f8301169050919050565b7f4e487b71000000000000000000000000000000000000000000000000000000005f52604160045260245ffd5b6101948261014e565b810181811067ffffffffffffffff821117156101b3576101b261015e565b5b80604052505050565b5f6101c5610102565b90506101d1828261018b565b919050565b5f67ffffffffffffffff8211156101f0576101ef61015e565b5b6101f98261014e565b9050602081019050919050565b8281835e5f83830152505050565b5f610226610221846101d6565b6101bc565b9050828152602081018484840111156102425761024161014a565b5b61024d848285610206565b509392505050565b5f82601f83011261026957610268610146565b5b8151610279848260208601610214565b91505092915050565b5f73ffffffffffffffffffffffffffffffffffffffff82169050919050565b5f6102ab82610282565b9050919050565b6102bb816102a1565b81146102c5575f5ffd5b50565b5f815190506102d6816102b2565b92915050565b5f5f5f5f5f5f60c087890312156102f6576102f561010b565b5b5f61030389828a01610132565b965050602087015167ffffffffffffffff8111156103245761032361010f565b5b61033089828a01610255565b955050604087015167ffffffffffffffff8111156103515761035061010f565b5b61035d89828a01610255565b945050606061036e89828a016102c8565b935050608061037f89828a01610132565b92505060a061039089828a016102c8565b9150509295509295509295565b5f81519050919050565b7f4e487b71000000000000000000000000000000000000000000000000000000005f52602260045260245ffd5b5f60028204905060018216806103eb57607f821691505b6020821081036103fe576103fd6103a7565b5b50919050565b5f819050815f5260205f209050919050565b5f6020601f8301049050919050565b5f82821b905092915050565b5f600883026104607fffffffffffffffffffffffffffffffffffffffffffffffffffffffffffffffff82610425565b61046a8683610425565b95508019841693508086168417925050509392505050565b5f819050919050565b5f6104a56104a061049b84610113565b610482565b610113565b9050919050565b5f819050919050565b6104be8361048b565b6104d26104ca826104ac565b848454610431565b825550505050565b5f5f905090565b6104e96104da565b6104f48184846104b5565b505050565b5f5b8281101561051a5761050f5f8284016104e1565b6001810190506104fb565b505050565b601f82111561056d578282111561056c5761053981610404565b61054283610416565b61054b85610416565b6020861015610558575f90505b808301610567828403826104f9565b505050505b5b505050565b5f82821c905092915050565b5f61058d5f1984600802610572565b1980831691505092915050565b5f6105a5838361057e565b9150826002028217905092915050565b6105be8261039d565b67ffffffffffffffff8111156105d7576105d661015e565b5b6105e182546103d4565b6105ec82828561051f565b5f60209050601f83116001811461061d575f841561060b578287015190505b610615858261059a565b86555061067c565b601f19841661062b86610404565b5f5b828110156106525784890151825560018201915060208501945060208101905061062d565b8683101561066f578489015161066b601f89168261057e565b8355505b6001600288020188555050505b505050505050565b612f33806106915f395ff3fe60806040526004361061019b575f3560e01c80637b87d856116100eb578063a39fac1211610089578063c8b342ab11610063578063c8b342ab1461059a578063d57bde79146105d6578063d7bb99ba14610600578063edf26d9b1461060a5761019b565b8063a39fac121461051e578063c45a015514610548578063c6f56901146105725761019b565b806391f90157116100c557806391f9015714610476578063937e09b1146104a0578063976af615146104ca5780639ace38c2146104e05761019b565b80637b87d856146103f857806382fde0931461042257806383920e901461044c5761019b565b80634051ddac1161015857806358d656291161013257806358d6562914610336578063597e1fb5146103605780635dc1d6411461038a5780637914135e146103c65761019b565b80634051ddac146102af578063481c6a75146102e25780634e69d5601461030c5761019b565b8063052811031461019f578063074d55c4146101df5780630a14439114610209578063110f8874146102455780633197cbb61461025b5780633bc5de3014610285575b5f5ffd5b3480156101aa575f5ffd5b506101c560048036038101906101c09190612153565b610646565b6040516101d69594939291906121b0565b60405180910390f35b3480156101ea575f5ffd5b506101f36107cc565b6040516102009190612201565b60405180910390f35b348015610214575f5ffd5b5061022f600480360381019061022a9190612153565b6107d2565b60405161023c919061221a565b60405180910390f35b348015610250575f5ffd5b506102596107ef565b005b348015610266575f5ffd5b5061026f610a8b565b60405161027c9190612201565b60405180910390f35b348015610290575f5ffd5b50610299610a91565b6040516102a691906122a3565b60405180910390f35b3480156102ba575f5ffd5b506102c3610bfe565b6040516102d99a99989796959493929190612389565b60405180910390f35b3480156102ed575f5ffd5b506102f6610e1a565b6040516103039190612438565b60405180910390f35b348015610317575f5ffd5b50610320610e3f565b60405161032d919061221a565b60405180910390f35b348015610341575f5ffd5b5061034a610e54565b60405161035791906122a3565b60405180910390f35b34801561036b575f5ffd5b50610374610ee0565b604051610381919061221a565b60405180910390f35b348015610395575f5ffd5b506103b060048036038101906103ab9190612153565b610ef2565b6040516103bd9190612201565b60405180910390f35b3480156103d1575f5ffd5b506103da610f07565b6040516103ef99989796959493929190612451565b60405180910390f35b348015610403575f5ffd5b5061040c61101a565b60405161041991906122a3565b60405180910390f35b34801561042d575f5ffd5b506104366110a6565b6040516104439190612201565b60405180910390f35b348015610457575f5ffd5b506104606110ac565b60405161046d91906125da565b60405180910390f35b348015610481575f5ffd5b5061048a611170565b6040516104979190612438565b60405180910390f35b3480156104ab575f5ffd5b506104b4611195565b6040516104c19190612201565b60405180910390f35b3480156104d5575f5ffd5b506104de61119b565b005b3480156104eb575f5ffd5b5061050660048036038101906105019190612624565b6114e9565b6040516105159392919061264f565b60405180910390f35b348015610529575f5ffd5b5061053261153d565b60405161053f9190612684565b60405180910390f35b348015610553575f5ffd5b5061055c6115c8565b60405161056991906126ff565b60405180910390f35b34801561057d575f5ffd5b5061059860048036038101906105939190612624565b6115ec565b005b3480156105a5575f5ffd5b506105c060048036038101906105bb9190612153565b6118ee565b6040516105cd9190612201565b60405180910390f35b3480156105e1575f5ffd5b506105ea611934565b6040516105f79190612201565b60405180910390f35b61060861193a565b005b348015610615575f5ffd5b50610630600480360381019061062b9190612624565b6120ba565b60405161063d9190612438565b60405180910390f35b5f5f5f5f5f5f60055f8873ffffffffffffffffffffffffffffffffffffffff1673ffffffffffffffffffffffffffffffffffffffff1681526020019081526020015f205f9054906101000a900460ff1690505f60065f8973ffffffffffffffffffffffffffffffffffffffff1673ffffffffffffffffffffffffffffffffffffffff1681526020019081526020015f205490505f60015f9054906101000a900473ffffffffffffffffffffffffffffffffffffffff1673ffffffffffffffffffffffffffffffffffffffff168973ffffffffffffffffffffffffffffffffffffffff161490505f600a5f9054906101000a900473ffffffffffffffffffffffffffffffffffffffff1673ffffffffffffffffffffffffffffffffffffffff168a73ffffffffffffffffffffffffffffffffffffffff161490505f600d5f9054906101000a900460ff1680156107985750845b80156107a2575081155b80156107ad57505f84145b9050848482858599509950995099509950505050505091939590929450565b600e5481565b6005602052805f5260405f205f915054906101000a900460ff1681565b600d5f9054906101000a900460ff1661083d576040517f08c379a000000000000000000000000000000000000000000000000000000000815260040161083490612762565b60405180910390fd5b600a5f9054906101000a900473ffffffffffffffffffffffffffffffffffffffff1673ffffffffffffffffffffffffffffffffffffffff163373ffffffffffffffffffffffffffffffffffffffff16036108cc576040517f08c379a00000000000000000000000000000000000000000000000000000000081526004016108c3906127ca565b60405180910390fd5b5f60065f3373ffffffffffffffffffffffffffffffffffffffff1673ffffffffffffffffffffffffffffffffffffffff1681526020019081526020015f205490505f811161094f576040517f08c379a000000000000000000000000000000000000000000000000000000000815260040161094690612832565b60405180910390fd5b5f60065f3373ffffffffffffffffffffffffffffffffffffffff1673ffffffffffffffffffffffffffffffffffffffff1681526020019081526020015f20819055505f3373ffffffffffffffffffffffffffffffffffffffff16826040516109b69061287d565b5f6040518083038185875af1925050503d805f81146109f0576040519150601f19603f3d011682016040523d82523d5f602084013e6109f5565b606091505b5050905080610a39576040517f08c379a0000000000000000000000000000000000000000000000000000000008152600401610a30906128db565b60405180910390fd5b3373ffffffffffffffffffffffffffffffffffffffff167f3367befd2b2f39615cd79917c2153263c4af1d3945ec003e5d5bfc13a8d8583383604051610a7f9190612201565b60405180910390a25050565b600c5481565b6060600d5f9054906101000a900460ff16610ae1576040517f08c379a0000000000000000000000000000000000000000000000000000000008152600401610ad890612762565b60405180910390fd5b600a5f9054906101000a900473ffffffffffffffffffffffffffffffffffffffff1673ffffffffffffffffffffffffffffffffffffffff163373ffffffffffffffffffffffffffffffffffffffff1614610b70576040517f08c379a0000000000000000000000000000000000000000000000000000000008152600401610b6790612943565b60405180910390fd5b60038054610b7d9061298e565b80601f0160208091040260200160405190810160405280929190818152602001828054610ba99061298e565b8015610bf45780601f10610bcb57610100808354040283529160200191610bf4565b820191905f5260205f20905b815481529060010190602001808311610bd757829003601f168201915b5050505050905090565b5f5f5f5f5f6060805f60605f6002544760075460015f9054906101000a900473ffffffffffffffffffffffffffffffffffffffff16600b5460036004600a5f9054906101000a900473ffffffffffffffffffffffffffffffffffffffff166008600c54848054610c6d9061298e565b80601f0160208091040260200160405190810160405280929190818152602001828054610c999061298e565b8015610ce45780601f10610cbb57610100808354040283529160200191610ce4565b820191905f5260205f20905b815481529060010190602001808311610cc757829003601f168201915b50505050509450838054610cf79061298e565b80601f0160208091040260200160405190810160405280929190818152602001828054610d239061298e565b8015610d6e5780601f10610d4557610100808354040283529160200191610d6e565b820191905f5260205f20905b815481529060010190602001808311610d5157829003601f168201915b5050505050935081805480602002602001604051908101604052809291908181526020018280548015610df357602002820191905f5260205f20905b815f9054906101000a900473ffffffffffffffffffffffffffffffffffffffff1673ffffffffffffffffffffffffffffffffffffffff1681526020019060010190808311610daa575b50505050509150995099509950995099509950995099509950995090919293949596979899565b60015f9054906101000a900473ffffffffffffffffffffffffffffffffffffffff1681565b5f600d5f9054906101000a900460ff16905090565b60048054610e619061298e565b80601f0160208091040260200160405190810160405280929190818152602001828054610e8d9061298e565b8015610ed85780601f10610eaf57610100808354040283529160200191610ed8565b820191905f5260205f20905b815481529060010190602001808311610ebb57829003601f168201915b505050505081565b600d5f9054906101000a900460ff1681565b6006602052805f5260405f205f915090505481565b5f5f5f5f5f60605f5f5f6002544760075460015f9054906101000a900473ffffffffffffffffffffffffffffffffffffffff16600b546004600a5f9054906101000a900473ffffffffffffffffffffffffffffffffffffffff16600c54600d5f9054906101000a900460ff16838054610f7f9061298e565b80601f0160208091040260200160405190810160405280929190818152602001828054610fab9061298e565b8015610ff65780601f10610fcd57610100808354040283529160200191610ff6565b820191905f5260205f20905b815481529060010190602001808311610fd957829003601f168201915b50505050509350985098509850985098509850985098509850909192939495969798565b600380546110279061298e565b80601f01602080910402602001604051908101604052809291908181526020018280546110539061298e565b801561109e5780601f106110755761010080835404028352916020019161109e565b820191905f5260205f20905b81548152906001019060200180831161108157829003601f168201915b505050505081565b60075481565b60606009805480602002602001604051908101604052809291908181526020015f905b82821015611167578382905f5260205f2090600302016040518060600160405290815f820154815260200160018201548152602001600282015f9054906101000a900473ffffffffffffffffffffffffffffffffffffffff1673ffffffffffffffffffffffffffffffffffffffff1673ffffffffffffffffffffffffffffffffffffffff1681525050815260200190600101906110cf565b50505050905090565b600a5f9054906101000a900473ffffffffffffffffffffffffffffffffffffffff1681565b60025481565b600c544210156111e0576040517f08c379a00000000000000000000000000000000000000000000000000000000081526004016111d790612a08565b60405180910390fd5b600d5f9054906101000a900460ff161561122f576040517f08c379a000000000000000000000000000000000000000000000000000000000815260040161122690612a70565b60405180910390fd5b6001600d5f6101000a81548160ff0219169083151502179055505f600b5411156114e757600b54471015611298576040517f08c379a000000000000000000000000000000000000000000000000000000000815260040161128f90612ad8565b60405180910390fd5b5f60065f600a5f9054906101000a900473ffffffffffffffffffffffffffffffffffffffff1673ffffffffffffffffffffffffffffffffffffffff1673ffffffffffffffffffffffffffffffffffffffff1681526020019081526020015f20819055505f60015f9054906101000a900473ffffffffffffffffffffffffffffffffffffffff1673ffffffffffffffffffffffffffffffffffffffff16600b546040516113439061287d565b5f6040518083038185875af1925050503d805f811461137d576040519150601f19603f3d011682016040523d82523d5f602084013e611382565b606091505b50509050806113c6576040517f08c379a00000000000000000000000000000000000000000000000000000000081526004016113bd90612b40565b60405180910390fd5b5f5f9054906101000a900473ffffffffffffffffffffffffffffffffffffffff1673ffffffffffffffffffffffffffffffffffffffff16638dfac90c60015f9054906101000a900473ffffffffffffffffffffffffffffffffffffffff16600b5460016040518463ffffffff1660e01b815260040161144793929190612b5e565b5f604051808303815f87803b15801561145e575f5ffd5b505af1158015611470573d5f5f3e3d5ffd5b5050505060015f9054906101000a900473ffffffffffffffffffffffffffffffffffffffff1673ffffffffffffffffffffffffffffffffffffffff167fcb4a9094da4df77fb2c0dbaa5047660b1237e61d82a02176c1be74ca757f2531600b546040516114dd9190612201565b60405180910390a2505b565b600981815481106114f8575f80fd5b905f5260205f2090600302015f91509050805f015490806001015490806002015f9054906101000a900473ffffffffffffffffffffffffffffffffffffffff16905083565b606060088054806020026020016040519081016040528092919081815260200182805480156115be57602002820191905f5260205f20905b815f9054906101000a900473ffffffffffffffffffffffffffffffffffffffff1673ffffffffffffffffffffffffffffffffffffffff1681526020019060010190808311611575575b5050505050905090565b5f5f9054906101000a900473ffffffffffffffffffffffffffffffffffffffff1681565b600d5f9054906101000a900460ff1661163a576040517f08c379a000000000000000000000000000000000000000000000000000000000815260040161163190612762565b60405180910390fd5b5f811161167c576040517f08c379a000000000000000000000000000000000000000000000000000000000815260040161167390612bdd565b60405180910390fd5b5f5f90505b600880549050600e5410801561169657508181105b156118ea575f6008600e54815481106116b2576116b1612bfb565b5b905f5260205f20015f9054906101000a900473ffffffffffffffffffffffffffffffffffffffff169050600e5f8154809291906116ee90612c55565b9190505550600a5f9054906101000a900473ffffffffffffffffffffffffffffffffffffffff1673ffffffffffffffffffffffffffffffffffffffff168173ffffffffffffffffffffffffffffffffffffffff160361174d5750611681565b5f60065f8373ffffffffffffffffffffffffffffffffffffffff1673ffffffffffffffffffffffffffffffffffffffff1681526020019081526020015f205490505f810361179c575050611681565b5f60065f8473ffffffffffffffffffffffffffffffffffffffff1673ffffffffffffffffffffffffffffffffffffffff1681526020019081526020015f20819055505f8273ffffffffffffffffffffffffffffffffffffffff16826040516118039061287d565b5f6040518083038185875af1925050503d805f811461183d576040519150601f19603f3d011682016040523d82523d5f602084013e611842565b606091505b5050905080611886576040517f08c379a000000000000000000000000000000000000000000000000000000000815260040161187d906128db565b60405180910390fd5b8273ffffffffffffffffffffffffffffffffffffffff167f3367befd2b2f39615cd79917c2153263c4af1d3945ec003e5d5bfc13a8d85833836040516118cc9190612201565b60405180910390a283806118df90612c55565b945050505050611681565b5050565b5f60065f8373ffffffffffffffffffffffffffffffffffffffff1673ffffffffffffffffffffffffffffffffffffffff1681526020019081526020015f20549050919050565b600b5481565b600c54421061197e576040517f08c379a000000000000000000000000000000000000000000000000000000000815260040161197590612ce6565b60405180910390fd5b60015f9054906101000a900473ffffffffffffffffffffffffffffffffffffffff1673ffffffffffffffffffffffffffffffffffffffff163373ffffffffffffffffffffffffffffffffffffffff1603611a0d576040517f08c379a0000000000000000000000000000000000000000000000000000000008152600401611a0490612d74565b60405180910390fd5b5f3411611a4f576040517f08c379a0000000000000000000000000000000000000000000000000000000008152600401611a4690612ddc565b60405180910390fd5b5f60065f3373ffffffffffffffffffffffffffffffffffffffff1673ffffffffffffffffffffffffffffffffffffffff1681526020019081526020015f205490505f3482611a9d9190612dfa565b90505f73ffffffffffffffffffffffffffffffffffffffff16600a5f9054906101000a900473ffffffffffffffffffffffffffffffffffffffff1673ffffffffffffffffffffffffffffffffffffffff1603611bc757600254811015611b38576040517f08c379a0000000000000000000000000000000000000000000000000000000008152600401611b2f90612e77565b60405180910390fd5b5f5f9054906101000a900473ffffffffffffffffffffffffffffffffffffffff1673ffffffffffffffffffffffffffffffffffffffff16638dfac90c33345f6040518463ffffffff1660e01b8152600401611b9593929190612b5e565b5f604051808303815f87803b158015611bac575f5ffd5b505af1158015611bbe573d5f5f3e3d5ffd5b50505050611e28565b600b548111611c0b576040517f08c379a0000000000000000000000000000000000000000000000000000000008152600401611c0290612edf565b60405180910390fd5b600a5f9054906101000a900473ffffffffffffffffffffffffffffffffffffffff1673ffffffffffffffffffffffffffffffffffffffff163373ffffffffffffffffffffffffffffffffffffffff1614611d9c575f5f9054906101000a900473ffffffffffffffffffffffffffffffffffffffff1673ffffffffffffffffffffffffffffffffffffffff16638dfac90c600a5f9054906101000a900473ffffffffffffffffffffffffffffffffffffffff16600b5460016040518463ffffffff1660e01b8152600401611ce093929190612b5e565b5f604051808303815f87803b158015611cf7575f5ffd5b505af1158015611d09573d5f5f3e3d5ffd5b505050505f5f9054906101000a900473ffffffffffffffffffffffffffffffffffffffff1673ffffffffffffffffffffffffffffffffffffffff16638dfac90c33835f6040518463ffffffff1660e01b8152600401611d6a93929190612b5e565b5f604051808303815f87803b158015611d81575f5ffd5b505af1158015611d93573d5f5f3e3d5ffd5b50505050611e27565b5f5f9054906101000a900473ffffffffffffffffffffffffffffffffffffffff1673ffffffffffffffffffffffffffffffffffffffff16638dfac90c33345f6040518463ffffffff1660e01b8152600401611df993929190612b5e565b5f604051808303815f87803b158015611e10575f5ffd5b505af1158015611e22573d5f5f3e3d5ffd5b505050505b5b8060065f3373ffffffffffffffffffffffffffffffffffffffff1673ffffffffffffffffffffffffffffffffffffffff1681526020019081526020015f208190555080600b8190555033600a5f6101000a81548173ffffffffffffffffffffffffffffffffffffffff021916908373ffffffffffffffffffffffffffffffffffffffff160217905550600960405180606001604052803481526020014281526020013373ffffffffffffffffffffffffffffffffffffffff16815250908060018154018082558091505060019003905f5260205f2090600302015f909190919091505f820151815f0155602082015181600101556040820151816002015f6101000a81548173ffffffffffffffffffffffffffffffffffffffff021916908373ffffffffffffffffffffffffffffffffffffffff160217905550505060055f3373ffffffffffffffffffffffffffffffffffffffff1673ffffffffffffffffffffffffffffffffffffffff1681526020019081526020015f205f9054906101000a900460ff1661207f57600160055f3373ffffffffffffffffffffffffffffffffffffffff1673ffffffffffffffffffffffffffffffffffffffff1681526020019081526020015f205f6101000a81548160ff02191690831515021790555060075f81548092919061201990612c55565b9190505550600833908060018154018082558091505060019003905f5260205f20015f9091909190916101000a81548173ffffffffffffffffffffffffffffffffffffffff021916908373ffffffffffffffffffffffffffffffffffffffff1602179055505b7f6cd3b8608d4368d7a92cfda5a745dfb2993256da9506cd888f31ff9aa48e2bd9336040516120ae9190612438565b60405180910390a15050565b600881815481106120c9575f80fd5b905f5260205f20015f915054906101000a900473ffffffffffffffffffffffffffffffffffffffff1681565b5f5ffd5b5f73ffffffffffffffffffffffffffffffffffffffff82169050919050565b5f612122826120f9565b9050919050565b61213281612118565b811461213c575f5ffd5b50565b5f8135905061214d81612129565b92915050565b5f60208284031215612168576121676120f5565b5b5f6121758482850161213f565b91505092915050565b5f8115159050919050565b6121928161217e565b82525050565b5f819050919050565b6121aa81612198565b82525050565b5f60a0820190506121c35f830188612189565b6121d060208301876121a1565b6121dd6040830186612189565b6121ea6060830185612189565b6121f76080830184612189565b9695505050505050565b5f6020820190506122145f8301846121a1565b92915050565b5f60208201905061222d5f830184612189565b92915050565b5f81519050919050565b5f82825260208201905092915050565b8281835e5f83830152505050565b5f601f19601f8301169050919050565b5f61227582612233565b61227f818561223d565b935061228f81856020860161224d565b6122988161225b565b840191505092915050565b5f6020820190508181035f8301526122bb818461226b565b905092915050565b6122cc81612118565b82525050565b5f81519050919050565b5f82825260208201905092915050565b5f819050602082019050919050565b61230481612118565b82525050565b5f61231583836122fb565b60208301905092915050565b5f602082019050919050565b5f612337826122d2565b61234181856122dc565b935061234c836122ec565b805f5b8381101561237c578151612363888261230a565b975061236e83612321565b92505060018101905061234f565b5085935050505092915050565b5f6101408201905061239d5f83018d6121a1565b6123aa602083018c6121a1565b6123b7604083018b6121a1565b6123c4606083018a6122c3565b6123d160808301896121a1565b81810360a08301526123e3818861226b565b905081810360c08301526123f7818761226b565b905061240660e08301866122c3565b818103610100830152612419818561232d565b90506124296101208301846121a1565b9b9a5050505050505050505050565b5f60208201905061244b5f8301846122c3565b92915050565b5f610120820190506124655f83018c6121a1565b612472602083018b6121a1565b61247f604083018a6121a1565b61248c60608301896122c3565b61249960808301886121a1565b81810360a08301526124ab818761226b565b90506124ba60c08301866122c3565b6124c760e08301856121a1565b6124d5610100830184612189565b9a9950505050505050505050565b5f81519050919050565b5f82825260208201905092915050565b5f819050602082019050919050565b61251581612198565b82525050565b606082015f82015161252f5f85018261250c565b506020820151612542602085018261250c565b50604082015161255560408501826122fb565b50505050565b5f612566838361251b565b60608301905092915050565b5f602082019050919050565b5f612588826124e3565b61259281856124ed565b935061259d836124fd565b805f5b838110156125cd5781516125b4888261255b565b97506125bf83612572565b9250506001810190506125a0565b5085935050505092915050565b5f6020820190508181035f8301526125f2818461257e565b905092915050565b61260381612198565b811461260d575f5ffd5b50565b5f8135905061261e816125fa565b92915050565b5f60208284031215612639576126386120f5565b5b5f61264684828501612610565b91505092915050565b5f6060820190506126625f8301866121a1565b61266f60208301856121a1565b61267c60408301846122c3565b949350505050565b5f6020820190508181035f83015261269c818461232d565b905092915050565b5f819050919050565b5f6126c76126c26126bd846120f9565b6126a4565b6120f9565b9050919050565b5f6126d8826126ad565b9050919050565b5f6126e9826126ce565b9050919050565b6126f9816126df565b82525050565b5f6020820190506127125f8301846126f0565b92915050565b7f41756374696f6e206e6f742066696e616c697a656400000000000000000000005f82015250565b5f61274c60158361223d565b915061275782612718565b602082019050919050565b5f6020820190508181035f83015261277981612740565b9050919050565b7f57696e6e657220686173206e6f20726566756e640000000000000000000000005f82015250565b5f6127b460148361223d565b91506127bf82612780565b602082019050919050565b5f6020820190508181035f8301526127e1816127a8565b9050919050565b7f4e6f20726566756e6420617661696c61626c65000000000000000000000000005f82015250565b5f61281c60138361223d565b9150612827826127e8565b602082019050919050565b5f6020820190508181035f83015261284981612810565b9050919050565b5f81905092915050565b50565b5f6128685f83612850565b91506128738261285a565b5f82019050919050565b5f6128878261285d565b9150819050919050565b7f526566756e64206661696c6564000000000000000000000000000000000000005f82015250565b5f6128c5600d8361223d565b91506128d082612891565b602082019050919050565b5f6020820190508181035f8301526128f2816128b9565b9050919050565b7f4f6e6c792077696e6e65722063616e20616363657373207468652064617461005f82015250565b5f61292d601f8361223d565b9150612938826128f9565b602082019050919050565b5f6020820190508181035f83015261295a81612921565b9050919050565b7f4e487b71000000000000000000000000000000000000000000000000000000005f52602260045260245ffd5b5f60028204905060018216806129a557607f821691505b6020821081036129b8576129b7612961565b5b50919050565b7f41756374696f6e206e6f7420656e6465642079657400000000000000000000005f82015250565b5f6129f260158361223d565b91506129fd826129be565b602082019050919050565b5f6020820190508181035f830152612a1f816129e6565b9050919050565b7f41756374696f6e20616c72656164792066696e616c697a6564000000000000005f82015250565b5f612a5a60198361223d565b9150612a6582612a26565b602082019050919050565b5f6020820190508181035f830152612a8781612a4e565b9050919050565b7f496e73756666696369656e742062616c616e63650000000000000000000000005f82015250565b5f612ac260148361223d565b9150612acd82612a8e565b602082019050919050565b5f6020820190508181035f830152612aef81612ab6565b9050919050565b7f53656c6c6572207061796d656e74206661696c656400000000000000000000005f82015250565b5f612b2a60158361223d565b9150612b3582612af6565b602082019050919050565b5f6020820190508181035f830152612b5781612b1e565b9050919050565b5f606082019050612b715f8301866122c3565b612b7e60208301856121a1565b612b8b6040830184612189565b949350505050565b7f42617463682073697a65207265717569726564000000000000000000000000005f82015250565b5f612bc760138361223d565b9150612bd282612b93565b602082019050919050565b5f6020820190508181035f830152612bf481612bbb565b9050919050565b7f4e487b71000000000000000000000000000000000000000000000000000000005f52603260045260245ffd5b7f4e487b71000000000000000000000000000000000000000000000000000000005f52601160045260245ffd5b5f612c5f82612198565b91507fffffffffffffffffffffffffffffffffffffffffffffffffffffffffffffffff8203612c9157612c90612c28565b5b600182019050919050565b7f41756374696f6e20656e646564000000000000000000000000000000000000005f82015250565b5f612cd0600d8361223d565b9150612cdb82612c9c565b602082019050919050565b5f6020820190508181035f830152612cfd81612cc4565b9050919050565b7f596f752063616e277420626964206f6e20796f7572206f776e2061756374696f5f8201527f6e00000000000000000000000000000000000000000000000000000000000000602082015250565b5f612d5e60218361223d565b9150612d6982612d04565b604082019050919050565b5f6020820190508181035f830152612d8b81612d52565b9050919050565b7f4d7573742073656e6420736f6d652065746865720000000000000000000000005f82015250565b5f612dc660148361223d565b9150612dd182612d92565b602082019050919050565b5f6020820190508181035f830152612df381612dba565b9050919050565b5f612e0482612198565b9150612e0f83612198565b9250828201905080821115612e2757612e26612c28565b5b92915050565b7f42656c6f77206d696e696d756d206269640000000000000000000000000000005f82015250565b5f612e6160118361223d565b9150612e6c82612e2d565b602082019050919050565b5f6020820190508181035f830152612e8e81612e55565b9050919050565b7f426964206d757374206578636565642063757272656e742068696768657374005f82015250565b5f612ec9601f8361223d565b9150612ed482612e95565b602082019050919050565b5f6020820190508181035f830152612ef681612ebd565b905091905056fea26469706673582212209607a43df7b5c84e1a60a6384c48b70134838abea1864d3b07d43ba2768a6e3164736f6c63430008230033","opcodes":"PUSH1 0x80 PUSH1 0x40 MSTORE CALLVALUE DUP1 ISZERO PUSH2 0xF JUMPI PUSH0 PUSH0 REVERT JUMPDEST POP PUSH1 0x40 MLOAD PUSH2 0x35C4 CODESIZE SUB DUP1 PUSH2 0x35C4 DUP4 CODECOPY DUP2 DUP2 ADD PUSH1 0x40 MSTORE DUP2 ADD SWAP1 PUSH2 0x31 SWAP2 SWAP1 PUSH2 0x2DC JUMP JUMPDEST DUP3 PUSH1 0x1 PUSH0 PUSH2 0x100 EXP DUP2 SLOAD DUP2 PUSH20 0xFFFFFFFFFFFFFFFFFFFFFFFFFFFFFFFFFFFFFFFF MUL NOT AND SWAP1 DUP4 PUSH20 0xFFFFFFFFFFFFFFFFFFFFFFFFFFFFFFFFFFFFFFFF AND MUL OR SWAP1 SSTORE POP DUP6 PUSH1 0x2 DUP2 SWAP1 SSTORE POP DUP5 PUSH1 0x3 SWAP1 DUP2 PUSH2 0x87 SWAP2 SWAP1 PUSH2 0x5B5 JUMP JUMPDEST POP DUP4 PUSH1 0x4 SWAP1 DUP2 PUSH2 0x97 SWAP2 SWAP1 PUSH2 0x5B5 JUMP JUMPDEST POP DUP2 PUSH1 0xC DUP2 SWAP1 SSTORE POP PUSH0 PUSH1 0xD PUSH0 PUSH2 0x100 EXP DUP2 SLOAD DUP2 PUSH1 0xFF MUL NOT AND SWAP1 DUP4 ISZERO ISZERO MUL OR SWAP1 SSTORE POP DUP1 PUSH0 PUSH0 PUSH2 0x100 EXP DUP2 SLOAD DUP2 PUSH20 0xFFFFFFFFFFFFFFFFFFFFFFFFFFFFFFFFFFFFFFFF MUL NOT AND SWAP1 DUP4 PUSH20 0xFFFFFFFFFFFFFFFFFFFFFFFFFFFFFFFFFFFFFFFF AND MUL OR SWAP1 SSTORE POP POP POP POP POP POP POP PUSH2 0x684 JUMP JUMPDEST PUSH0 PUSH1 0x40 MLOAD SWAP1 POP SWAP1 JUMP JUMPDEST PUSH0 PUSH0 REVERT JUMPDEST PUSH0 PUSH0 REVERT JUMPDEST PUSH0 DUP2 SWAP1 POP SWAP2 SWAP1 POP JUMP JUMPDEST PUSH2 0x125 DUP2 PUSH2 0x113 JUMP JUMPDEST DUP2 EQ PUSH2 0x12F JUMPI PUSH0 PUSH0 REVERT JUMPDEST POP JUMP JUMPDEST PUSH0 DUP2 MLOAD SWAP1 POP PUSH2 0x140 DUP2 PUSH2 0x11C JUMP JUMPDEST SWAP3 SWAP2 POP POP JUMP JUMPDEST PUSH0 PUSH0 REVERT JUMPDEST PUSH0 PUSH0 REVERT JUMPDEST PUSH0 PUSH1 0x1F NOT PUSH1 0x1F DUP4 ADD AND SWAP1 POP SWAP2 SWAP1 POP JUMP JUMPDEST PUSH32 0x4E487B7100000000000000000000000000000000000000000000000000000000 PUSH0 MSTORE PUSH1 0x41 PUSH1 0x4 MSTORE PUSH1 0x24 PUSH0 REVERT JUMPDEST PUSH2 0x194 DUP3 PUSH2 0x14E JUMP JUMPDEST DUP2 ADD DUP2 DUP2 LT PUSH8 0xFFFFFFFFFFFFFFFF DUP3 GT OR ISZERO PUSH2 0x1B3 JUMPI PUSH2 0x1B2 PUSH2 0x15E JUMP JUMPDEST JUMPDEST DUP1 PUSH1 0x40 MSTORE POP POP POP JUMP JUMPDEST PUSH0 PUSH2 0x1C5 PUSH2 0x102 JUMP JUMPDEST SWAP1 POP PUSH2 0x1D1 DUP3 DUP3 PUSH2 0x18B JUMP JUMPDEST SWAP2 SWAP1 POP JUMP JUMPDEST PUSH0 PUSH8 0xFFFFFFFFFFFFFFFF DUP3 GT ISZERO PUSH2 0x1F0 JUMPI PUSH2 0x1EF PUSH2 0x15E JUMP JUMPDEST JUMPDEST PUSH2 0x1F9 DUP3 PUSH2 0x14E JUMP JUMPDEST SWAP1 POP PUSH1 0x20 DUP2 ADD SWAP1 POP SWAP2 SWAP1 POP JUMP JUMPDEST DUP3 DUP2 DUP4 MCOPY PUSH0 DUP4 DUP4 ADD MSTORE POP POP POP JUMP JUMPDEST PUSH0 PUSH2 0x226 PUSH2 0x221 DUP5 PUSH2 0x1D6 JUMP JUMPDEST PUSH2 0x1BC JUMP JUMPDEST SWAP1 POP DUP3 DUP2 MSTORE PUSH1 0x20 DUP2 ADD DUP5 DUP5 DUP5 ADD GT ISZERO PUSH2 0x242 JUMPI PUSH2 0x241 PUSH2 0x14A JUMP JUMPDEST JUMPDEST PUSH2 0x24D DUP5 DUP3 DUP6 PUSH2 0x206 JUMP JUMPDEST POP SWAP4 SWAP3 POP POP POP JUMP JUMPDEST PUSH0 DUP3 PUSH1 0x1F DUP4 ADD SLT PUSH2 0x269 JUMPI PUSH2 0x268 PUSH2 0x146 JUMP JUMPDEST JUMPDEST DUP2 MLOAD PUSH2 0x279 DUP5 DUP3 PUSH1 0x20 DUP7 ADD PUSH2 0x214 JUMP JUMPDEST SWAP2 POP POP SWAP3 SWAP2 POP POP JUMP JUMPDEST PUSH0 PUSH20 0xFFFFFFFFFFFFFFFFFFFFFFFFFFFFFFFFFFFFFFFF DUP3 AND SWAP1 POP SWAP2 SWAP1 POP JUMP JUMPDEST PUSH0 PUSH2 0x2AB DUP3 PUSH2 0x282 JUMP JUMPDEST SWAP1 POP SWAP2 SWAP1 POP JUMP JUMPDEST PUSH2 0x2BB DUP2 PUSH2 0x2A1 JUMP JUMPDEST DUP2 EQ PUSH2 0x2C5 JUMPI PUSH0 PUSH0 REVERT JUMPDEST POP JUMP JUMPDEST PUSH0 DUP2 MLOAD SWAP1 POP PUSH2 0x2D6 DUP2 PUSH2 0x2B2 JUMP JUMPDEST SWAP3 SWAP2 POP POP JUMP JUMPDEST PUSH0 PUSH0 PUSH0 PUSH0 PUSH0 PUSH0 PUSH1 0xC0 DUP8 DUP10 SUB SLT ISZERO PUSH2 0x2F6 JUMPI PUSH2 0x2F5 PUSH2 0x10B JUMP JUMPDEST JUMPDEST PUSH0 PUSH2 0x303 DUP10 DUP3 DUP11 ADD PUSH2 0x132 JUMP JUMPDEST SWAP7 POP POP PUSH1 0x20 DUP8 ADD MLOAD PUSH8 0xFFFFFFFFFFFFFFFF DUP2 GT ISZERO PUSH2 0x324 JUMPI PUSH2 0x323 PUSH2 0x10F JUMP JUMPDEST JUMPDEST PUSH2 0x330 DUP10 DUP3 DUP11 ADD PUSH2 0x255 JUMP JUMPDEST SWAP6 POP POP PUSH1 0x40 DUP8 ADD MLOAD PUSH8 0xFFFFFFFFFFFFFFFF DUP2 GT ISZERO PUSH2 0x351 JUMPI PUSH2 0x350 PUSH2 0x10F JUMP JUMPDEST JUMPDEST PUSH2 0x35D DUP10 DUP3 DUP11 ADD PUSH2 0x255 JUMP JUMPDEST SWAP5 POP POP PUSH1 0x60 PUSH2 0x36E DUP10 DUP3 DUP11 ADD PUSH2 0x2C8 JUMP JUMPDEST SWAP4 POP POP PUSH1 0x80 PUSH2 0x37F DUP10 DUP3 DUP11 ADD PUSH2 0x132 JUMP JUMPDEST SWAP3 POP POP PUSH1 0xA0 PUSH2 0x390 DUP10 DUP3 DUP11 ADD PUSH2 0x2C8 JUMP JUMPDEST SWAP2 POP POP SWAP3 SWAP6 POP SWAP3 SWAP6 POP SWAP3 SWAP6 JUMP JUMPDEST PUSH0 DUP2 MLOAD SWAP1 POP SWAP2 SWAP1 POP JUMP JUMPDEST PUSH32 0x4E487B7100000000000000000000000000000000000000000000000000000000 PUSH0 MSTORE PUSH1 0x22 PUSH1 0x4 MSTORE PUSH1 0x24 PUSH0 REVERT JUMPDEST PUSH0 PUSH1 0x2 DUP3 DIV SWAP1 POP PUSH1 0x1 DUP3 AND DUP1 PUSH2 0x3EB JUMPI PUSH1 0x7F DUP3 AND SWAP2 POP JUMPDEST PUSH1 0x20 DUP3 LT DUP2 SUB PUSH2 0x3FE JUMPI PUSH2 0x3FD PUSH2 0x3A7 JUMP JUMPDEST JUMPDEST POP SWAP2 SWAP1 POP JUMP JUMPDEST PUSH0 DUP2 SWAP1 POP DUP2 PUSH0 MSTORE PUSH1 0x20 PUSH0 KECCAK256 SWAP1 POP SWAP2 SWAP1 POP JUMP JUMPDEST PUSH0 PUSH1 0x20 PUSH1 0x1F DUP4 ADD DIV SWAP1 POP SWAP2 SWAP1 POP JUMP JUMPDEST PUSH0 DUP3 DUP3 SHL SWAP1 POP SWAP3 SWAP2 POP POP JUMP JUMPDEST PUSH0 PUSH1 0x8 DUP4 MUL PUSH2 0x460 PUSH32 0xFFFFFFFFFFFFFFFFFFFFFFFFFFFFFFFFFFFFFFFFFFFFFFFFFFFFFFFFFFFFFFFF DUP3 PUSH2 0x425 JUMP JUMPDEST PUSH2 0x46A DUP7 DUP4 PUSH2 0x425 JUMP JUMPDEST SWAP6 POP DUP1 NOT DUP5 AND SWAP4 POP DUP1 DUP7 AND DUP5 OR SWAP3 POP POP POP SWAP4 SWAP3 POP POP POP JUMP JUMPDEST PUSH0 DUP2 SWAP1 POP SWAP2 SWAP1 POP JUMP JUMPDEST PUSH0 PUSH2 0x4A5 PUSH2 0x4A0 PUSH2 0x49B DUP5 PUSH2 0x113 JUMP JUMPDEST PUSH2 0x482 JUMP JUMPDEST PUSH2 0x113 JUMP JUMPDEST SWAP1 POP SWAP2 SWAP1 POP JUMP JUMPDEST PUSH0 DUP2 SWAP1 POP SWAP2 SWAP1 POP JUMP JUMPDEST PUSH2 0x4BE DUP4 PUSH2 0x48B JUMP JUMPDEST PUSH2 0x4D2 PUSH2 0x4CA DUP3 PUSH2 0x4AC JUMP JUMPDEST DUP5 DUP5 SLOAD PUSH2 0x431 JUMP JUMPDEST DUP3 SSTORE POP POP POP POP JUMP JUMPDEST PUSH0 PUSH0 SWAP1 POP SWAP1 JUMP JUMPDEST PUSH2 0x4E9 PUSH2 0x4DA JUMP JUMPDEST PUSH2 0x4F4 DUP2 DUP5 DUP5 PUSH2 0x4B5 JUMP JUMPDEST POP POP POP JUMP JUMPDEST PUSH0 JUMPDEST DUP3 DUP2 LT ISZERO PUSH2 0x51A JUMPI PUSH2 0x50F PUSH0 DUP3 DUP5 ADD PUSH2 0x4E1 JUMP JUMPDEST PUSH1 0x1 DUP2 ADD SWAP1 POP PUSH2 0x4FB JUMP JUMPDEST POP POP POP JUMP JUMPDEST PUSH1 0x1F DUP3 GT ISZERO PUSH2 0x56D JUMPI DUP3 DUP3 GT ISZERO PUSH2 0x56C JUMPI PUSH2 0x539 DUP2 PUSH2 0x404 JUMP JUMPDEST PUSH2 0x542 DUP4 PUSH2 0x416 JUMP JUMPDEST PUSH2 0x54B DUP6 PUSH2 0x416 JUMP JUMPDEST PUSH1 0x20 DUP7 LT ISZERO PUSH2 0x558 JUMPI PUSH0 SWAP1 POP JUMPDEST DUP1 DUP4 ADD PUSH2 0x567 DUP3 DUP5 SUB DUP3 PUSH2 0x4F9 JUMP JUMPDEST POP POP POP POP JUMPDEST JUMPDEST POP POP POP JUMP JUMPDEST PUSH0 DUP3 DUP3 SHR SWAP1 POP SWAP3 SWAP2 POP POP JUMP JUMPDEST PUSH0 PUSH2 0x58D PUSH0 NOT DUP5 PUSH1 0x8 MUL PUSH2 0x572 JUMP JUMPDEST NOT DUP1 DUP4 AND SWAP2 POP POP SWAP3 SWAP2 POP POP JUMP JUMPDEST PUSH0 PUSH2 0x5A5 DUP4 DUP4 PUSH2 0x57E JUMP JUMPDEST SWAP2 POP DUP3 PUSH1 0x2 MUL DUP3 OR SWAP1 POP SWAP3 SWAP2 POP POP JUMP JUMPDEST PUSH2 0x5BE DUP3 PUSH2 0x39D JUMP JUMPDEST PUSH8 0xFFFFFFFFFFFFFFFF DUP2 GT ISZERO PUSH2 0x5D7 JUMPI PUSH2 0x5D6 PUSH2 0x15E JUMP JUMPDEST JUMPDEST PUSH2 0x5E1 DUP3 SLOAD PUSH2 0x3D4 JUMP JUMPDEST PUSH2 0x5EC DUP3 DUP3 DUP6 PUSH2 0x51F JUMP JUMPDEST PUSH0 PUSH1 0x20 SWAP1 POP PUSH1 0x1F DUP4 GT PUSH1 0x1 DUP2 EQ PUSH2 0x61D JUMPI PUSH0 DUP5 ISZERO PUSH2 0x60B JUMPI DUP3 DUP8 ADD MLOAD SWAP1 POP JUMPDEST PUSH2 0x615 DUP6 DUP3 PUSH2 0x59A JUMP JUMPDEST DUP7 SSTORE POP PUSH2 0x67C JUMP JUMPDEST PUSH1 0x1F NOT DUP5 AND PUSH2 0x62B DUP7 PUSH2 0x404 JUMP JUMPDEST PUSH0 JUMPDEST DUP3 DUP2 LT ISZERO PUSH2 0x652 JUMPI DUP5 DUP10 ADD MLOAD DUP3 SSTORE PUSH1 0x1 DUP3 ADD SWAP2 POP PUSH1 0x20 DUP6 ADD SWAP5 POP PUSH1 0x20 DUP2 ADD SWAP1 POP PUSH2 0x62D JUMP JUMPDEST DUP7 DUP4 LT ISZERO PUSH2 0x66F JUMPI DUP5 DUP10 ADD MLOAD PUSH2 0x66B PUSH1 0x1F DUP10 AND DUP3 PUSH2 0x57E JUMP JUMPDEST DUP4 SSTORE POP JUMPDEST PUSH1 0x1 PUSH1 0x2 DUP9 MUL ADD DUP9 SSTORE POP POP POP JUMPDEST POP POP POP POP POP POP JUMP JUMPDEST PUSH2 0x2F33 DUP1 PUSH2 0x691 PUSH0 CODECOPY PUSH0 RETURN INVALID PUSH1 0x80 PUSH1 0x40 MSTORE PUSH1 0x4 CALLDATASIZE LT PUSH2 0x19B JUMPI PUSH0 CALLDATALOAD PUSH1 0xE0 SHR DUP1 PUSH4 0x7B87D856 GT PUSH2 0xEB JUMPI DUP1 PUSH4 0xA39FAC12 GT PUSH2 0x89 JUMPI DUP1 PUSH4 0xC8B342AB GT PUSH2 0x63 JUMPI DUP1 PUSH4 0xC8B342AB EQ PUSH2 0x59A JUMPI DUP1 PUSH4 0xD57BDE79 EQ PUSH2 0x5D6 JUMPI DUP1 PUSH4 0xD7BB99BA EQ PUSH2 0x600 JUMPI DUP1 PUSH4 0xEDF26D9B EQ PUSH2 0x60A JUMPI PUSH2 0x19B JUMP JUMPDEST DUP1 PUSH4 0xA39FAC12 EQ PUSH2 0x51E JUMPI DUP1 PUSH4 0xC45A0155 EQ PUSH2 0x548 JUMPI DUP1 PUSH4 0xC6F56901 EQ PUSH2 0x572 JUMPI PUSH2 0x19B JUMP JUMPDEST DUP1 PUSH4 0x91F90157 GT PUSH2 0xC5 JUMPI DUP1 PUSH4 0x91F90157 EQ PUSH2 0x476 JUMPI DUP1 PUSH4 0x937E09B1 EQ PUSH2 0x4A0 JUMPI DUP1 PUSH4 0x976AF615 EQ PUSH2 0x4CA JUMPI DUP1 PUSH4 0x9ACE38C2 EQ PUSH2 0x4E0 JUMPI PUSH2 0x19B JUMP JUMPDEST DUP1 PUSH4 0x7B87D856 EQ PUSH2 0x3F8 JUMPI DUP1 PUSH4 0x82FDE093 EQ PUSH2 0x422 JUMPI DUP1 PUSH4 0x83920E90 EQ PUSH2 0x44C JUMPI PUSH2 0x19B JUMP JUMPDEST DUP1 PUSH4 0x4051DDAC GT PUSH2 0x158 JUMPI DUP1 PUSH4 0x58D65629 GT PUSH2 0x132 JUMPI DUP1 PUSH4 0x58D65629 EQ PUSH2 0x336 JUMPI DUP1 PUSH4 0x597E1FB5 EQ PUSH2 0x360 JUMPI DUP1 PUSH4 0x5DC1D641 EQ PUSH2 0x38A JUMPI DUP1 PUSH4 0x7914135E EQ PUSH2 0x3C6 JUMPI PUSH2 0x19B JUMP JUMPDEST DUP1 PUSH4 0x4051DDAC EQ PUSH2 0x2AF JUMPI DUP1 PUSH4 0x481C6A75 EQ PUSH2 0x2E2 JUMPI DUP1 PUSH4 0x4E69D560 EQ PUSH2 0x30C JUMPI PUSH2 0x19B JUMP JUMPDEST DUP1 PUSH4 0x5281103 EQ PUSH2 0x19F JUMPI DUP1 PUSH4 0x74D55C4 EQ PUSH2 0x1DF JUMPI DUP1 PUSH4 0xA144391 EQ PUSH2 0x209 JUMPI DUP1 PUSH4 0x110F8874 EQ PUSH2 0x245 JUMPI DUP1 PUSH4 0x3197CBB6 EQ PUSH2 0x25B JUMPI DUP1 PUSH4 0x3BC5DE30 EQ PUSH2 0x285 JUMPI JUMPDEST PUSH0 PUSH0 REVERT JUMPDEST CALLVALUE DUP1 ISZERO PUSH2 0x1AA JUMPI PUSH0 PUSH0 REVERT JUMPDEST POP PUSH2 0x1C5 PUSH1 0x4 DUP1 CALLDATASIZE SUB DUP2 ADD SWAP1 PUSH2 0x1C0 SWAP2 SWAP1 PUSH2 0x2153 JUMP JUMPDEST PUSH2 0x646 JUMP JUMPDEST PUSH1 0x40 MLOAD PUSH2 0x1D6 SWAP6 SWAP5 SWAP4 SWAP3 SWAP2 SWAP1 PUSH2 0x21B0 JUMP JUMPDEST PUSH1 0x40 MLOAD DUP1 SWAP2 SUB SWAP1 RETURN JUMPDEST CALLVALUE DUP1 ISZERO PUSH2 0x1EA JUMPI PUSH0 PUSH0 REVERT JUMPDEST POP PUSH2 0x1F3 PUSH2 0x7CC JUMP JUMPDEST PUSH1 0x40 MLOAD PUSH2 0x200 SWAP2 SWAP1 PUSH2 0x2201 JUMP JUMPDEST PUSH1 0x40 MLOAD DUP1 SWAP2 SUB SWAP1 RETURN JUMPDEST CALLVALUE DUP1 ISZERO PUSH2 0x214 JUMPI PUSH0 PUSH0 REVERT JUMPDEST POP PUSH2 0x22F PUSH1 0x4 DUP1 CALLDATASIZE SUB DUP2 ADD SWAP1 PUSH2 0x22A SWAP2 SWAP1 PUSH2 0x2153 JUMP JUMPDEST PUSH2 0x7D2 JUMP JUMPDEST PUSH1 0x40 MLOAD PUSH2 0x23C SWAP2 SWAP1 PUSH2 0x221A JUMP JUMPDEST PUSH1 0x40 MLOAD DUP1 SWAP2 SUB SWAP1 RETURN JUMPDEST CALLVALUE DUP1 ISZERO PUSH2 0x250 JUMPI PUSH0 PUSH0 REVERT JUMPDEST POP PUSH2 0x259 PUSH2 0x7EF JUMP JUMPDEST STOP JUMPDEST CALLVALUE DUP1 ISZERO PUSH2 0x266 JUMPI PUSH0 PUSH0 REVERT JUMPDEST POP PUSH2 0x26F PUSH2 0xA8B JUMP JUMPDEST PUSH1 0x40 MLOAD PUSH2 0x27C SWAP2 SWAP1 PUSH2 0x2201 JUMP JUMPDEST PUSH1 0x40 MLOAD DUP1 SWAP2 SUB SWAP1 RETURN JUMPDEST CALLVALUE DUP1 ISZERO PUSH2 0x290 JUMPI PUSH0 PUSH0 REVERT JUMPDEST POP PUSH2 0x299 PUSH2 0xA91 JUMP JUMPDEST PUSH1 0x40 MLOAD PUSH2 0x2A6 SWAP2 SWAP1 PUSH2 0x22A3 JUMP JUMPDEST PUSH1 0x40 MLOAD DUP1 SWAP2 SUB SWAP1 RETURN JUMPDEST CALLVALUE DUP1 ISZERO PUSH2 0x2BA JUMPI PUSH0 PUSH0 REVERT JUMPDEST POP PUSH2 0x2C3 PUSH2 0xBFE JUMP JUMPDEST PUSH1 0x40 MLOAD PUSH2 0x2D9 SWAP11 SWAP10 SWAP9 SWAP8 SWAP7 SWAP6 SWAP5 SWAP4 SWAP3 SWAP2 SWAP1 PUSH2 0x2389 JUMP JUMPDEST PUSH1 0x40 MLOAD DUP1 SWAP2 SUB SWAP1 RETURN JUMPDEST CALLVALUE DUP1 ISZERO PUSH2 0x2ED JUMPI PUSH0 PUSH0 REVERT JUMPDEST POP PUSH2 0x2F6 PUSH2 0xE1A JUMP JUMPDEST PUSH1 0x40 MLOAD PUSH2 0x303 SWAP2 SWAP1 PUSH2 0x2438 JUMP JUMPDEST PUSH1 0x40 MLOAD DUP1 SWAP2 SUB SWAP1 RETURN JUMPDEST CALLVALUE DUP1 ISZERO PUSH2 0x317 JUMPI PUSH0 PUSH0 REVERT JUMPDEST POP PUSH2 0x320 PUSH2 0xE3F JUMP JUMPDEST PUSH1 0x40 MLOAD PUSH2 0x32D SWAP2 SWAP1 PUSH2 0x221A JUMP JUMPDEST PUSH1 0x40 MLOAD DUP1 SWAP2 SUB SWAP1 RETURN JUMPDEST CALLVALUE DUP1 ISZERO PUSH2 0x341 JUMPI PUSH0 PUSH0 REVERT JUMPDEST POP PUSH2 0x34A PUSH2 0xE54 JUMP JUMPDEST PUSH1 0x40 MLOAD PUSH2 0x357 SWAP2 SWAP1 PUSH2 0x22A3 JUMP JUMPDEST PUSH1 0x40 MLOAD DUP1 SWAP2 SUB SWAP1 RETURN JUMPDEST CALLVALUE DUP1 ISZERO PUSH2 0x36B JUMPI PUSH0 PUSH0 REVERT JUMPDEST POP PUSH2 0x374 PUSH2 0xEE0 JUMP JUMPDEST PUSH1 0x40 MLOAD PUSH2 0x381 SWAP2 SWAP1 PUSH2 0x221A JUMP JUMPDEST PUSH1 0x40 MLOAD DUP1 SWAP2 SUB SWAP1 RETURN JUMPDEST CALLVALUE DUP1 ISZERO PUSH2 0x395 JUMPI PUSH0 PUSH0 REVERT JUMPDEST POP PUSH2 0x3B0 PUSH1 0x4 DUP1 CALLDATASIZE SUB DUP2 ADD SWAP1 PUSH2 0x3AB SWAP2 SWAP1 PUSH2 0x2153 JUMP JUMPDEST PUSH2 0xEF2 JUMP JUMPDEST PUSH1 0x40 MLOAD PUSH2 0x3BD SWAP2 SWAP1 PUSH2 0x2201 JUMP JUMPDEST PUSH1 0x40 MLOAD DUP1 SWAP2 SUB SWAP1 RETURN JUMPDEST CALLVALUE DUP1 ISZERO PUSH2 0x3D1 JUMPI PUSH0 PUSH0 REVERT JUMPDEST POP PUSH2 0x3DA PUSH2 0xF07 JUMP JUMPDEST PUSH1 0x40 MLOAD PUSH2 0x3EF SWAP10 SWAP9 SWAP8 SWAP7 SWAP6 SWAP5 SWAP4 SWAP3 SWAP2 SWAP1 PUSH2 0x2451 JUMP JUMPDEST PUSH1 0x40 MLOAD DUP1 SWAP2 SUB SWAP1 RETURN JUMPDEST CALLVALUE DUP1 ISZERO PUSH2 0x403 JUMPI PUSH0 PUSH0 REVERT JUMPDEST POP PUSH2 0x40C PUSH2 0x101A JUMP JUMPDEST PUSH1 0x40 MLOAD PUSH2 0x419 SWAP2 SWAP1 PUSH2 0x22A3 JUMP JUMPDEST PUSH1 0x40 MLOAD DUP1 SWAP2 SUB SWAP1 RETURN JUMPDEST CALLVALUE DUP1 ISZERO PUSH2 0x42D JUMPI PUSH0 PUSH0 REVERT JUMPDEST POP PUSH2 0x436 PUSH2 0x10A6 JUMP JUMPDEST PUSH1 0x40 MLOAD PUSH2 0x443 SWAP2 SWAP1 PUSH2 0x2201 JUMP JUMPDEST PUSH1 0x40 MLOAD DUP1 SWAP2 SUB SWAP1 RETURN JUMPDEST CALLVALUE DUP1 ISZERO PUSH2 0x457 JUMPI PUSH0 PUSH0 REVERT JUMPDEST POP PUSH2 0x460 PUSH2 0x10AC JUMP JUMPDEST PUSH1 0x40 MLOAD PUSH2 0x46D SWAP2 SWAP1 PUSH2 0x25DA JUMP JUMPDEST PUSH1 0x40 MLOAD DUP1 SWAP2 SUB SWAP1 RETURN JUMPDEST CALLVALUE DUP1 ISZERO PUSH2 0x481 JUMPI PUSH0 PUSH0 REVERT JUMPDEST POP PUSH2 0x48A PUSH2 0x1170 JUMP JUMPDEST PUSH1 0x40 MLOAD PUSH2 0x497 SWAP2 SWAP1 PUSH2 0x2438 JUMP JUMPDEST PUSH1 0x40 MLOAD DUP1 SWAP2 SUB SWAP1 RETURN JUMPDEST CALLVALUE DUP1 ISZERO PUSH2 0x4AB JUMPI PUSH0 PUSH0 REVERT JUMPDEST POP PUSH2 0x4B4 PUSH2 0x1195 JUMP JUMPDEST PUSH1 0x40 MLOAD PUSH2 0x4C1 SWAP2 SWAP1 PUSH2 0x2201 JUMP JUMPDEST PUSH1 0x40 MLOAD DUP1 SWAP2 SUB SWAP1 RETURN JUMPDEST CALLVALUE DUP1 ISZERO PUSH2 0x4D5 JUMPI PUSH0 PUSH0 REVERT JUMPDEST POP PUSH2 0x4DE PUSH2 0x119B JUMP JUMPDEST STOP JUMPDEST CALLVALUE DUP1 ISZERO PUSH2 0x4EB JUMPI PUSH0 PUSH0 REVERT JUMPDEST POP PUSH2 0x506 PUSH1 0x4 DUP1 CALLDATASIZE SUB DUP2 ADD SWAP1 PUSH2 0x501 SWAP2 SWAP1 PUSH2 0x2624 JUMP JUMPDEST PUSH2 0x14E9 JUMP JUMPDEST PUSH1 0x40 MLOAD PUSH2 0x515 SWAP4 SWAP3 SWAP2 SWAP1 PUSH2 0x264F JUMP JUMPDEST PUSH1 0x40 MLOAD DUP1 SWAP2 SUB SWAP1 RETURN JUMPDEST CALLVALUE DUP1 ISZERO PUSH2 0x529 JUMPI PUSH0 PUSH0 REVERT JUMPDEST POP PUSH2 0x532 PUSH2 0x153D JUMP JUMPDEST PUSH1 0x40 MLOAD PUSH2 0x53F SWAP2 SWAP1 PUSH2 0x2684 JUMP JUMPDEST PUSH1 0x40 MLOAD DUP1 SWAP2 SUB SWAP1 RETURN JUMPDEST CALLVALUE DUP1 ISZERO PUSH2 0x553 JUMPI PUSH0 PUSH0 REVERT JUMPDEST POP PUSH2 0x55C PUSH2 0x15C8 JUMP JUMPDEST PUSH1 0x40 MLOAD PUSH2 0x569 SWAP2 SWAP1 PUSH2 0x26FF JUMP JUMPDEST PUSH1 0x40 MLOAD DUP1 SWAP2 SUB SWAP1 RETURN JUMPDEST CALLVALUE DUP1 ISZERO PUSH2 0x57D JUMPI PUSH0 PUSH0 REVERT JUMPDEST POP PUSH2 0x598 PUSH1 0x4 DUP1 CALLDATASIZE SUB DUP2 ADD SWAP1 PUSH2 0x593 SWAP2 SWAP1 PUSH2 0x2624 JUMP JUMPDEST PUSH2 0x15EC JUMP JUMPDEST STOP JUMPDEST CALLVALUE DUP1 ISZERO PUSH2 0x5A5 JUMPI PUSH0 PUSH0 REVERT JUMPDEST POP PUSH2 0x5C0 PUSH1 0x4 DUP1 CALLDATASIZE SUB DUP2 ADD SWAP1 PUSH2 0x5BB SWAP2 SWAP1 PUSH2 0x2153 JUMP JUMPDEST PUSH2 0x18EE JUMP JUMPDEST PUSH1 0x40 MLOAD PUSH2 0x5CD SWAP2 SWAP1 PUSH2 0x2201 JUMP JUMPDEST PUSH1 0x40 MLOAD DUP1 SWAP2 SUB SWAP1 RETURN JUMPDEST CALLVALUE DUP1 ISZERO PUSH2 0x5E1 JUMPI PUSH0 PUSH0 REVERT JUMPDEST POP PUSH2 0x5EA PUSH2 0x1934 JUMP JUMPDEST PUSH1 0x40 MLOAD PUSH2 0x5F7 SWAP2 SWAP1 PUSH2 0x2201 JUMP JUMPDEST PUSH1 0x40 MLOAD DUP1 SWAP2 SUB SWAP1 RETURN JUMPDEST PUSH2 0x608 PUSH2 0x193A JUMP JUMPDEST STOP JUMPDEST CALLVALUE DUP1 ISZERO PUSH2 0x615 JUMPI PUSH0 PUSH0 REVERT JUMPDEST POP PUSH2 0x630 PUSH1 0x4 DUP1 CALLDATASIZE SUB DUP2 ADD SWAP1 PUSH2 0x62B SWAP2 SWAP1 PUSH2 0x2624 JUMP JUMPDEST PUSH2 0x20BA JUMP JUMPDEST PUSH1 0x40 MLOAD PUSH2 0x63D SWAP2 SWAP1 PUSH2 0x2438 JUMP JUMPDEST PUSH1 0x40 MLOAD DUP1 SWAP2 SUB SWAP1 RETURN JUMPDEST PUSH0 PUSH0 PUSH0 PUSH0 PUSH0 PUSH0 PUSH1 0x5 PUSH0 DUP9 PUSH20 0xFFFFFFFFFFFFFFFFFFFFFFFFFFFFFFFFFFFFFFFF AND PUSH20 0xFFFFFFFFFFFFFFFFFFFFFFFFFFFFFFFFFFFFFFFF AND DUP2 MSTORE PUSH1 0x20 ADD SWAP1 DUP2 MSTORE PUSH1 0x20 ADD PUSH0 KECCAK256 PUSH0 SWAP1 SLOAD SWAP1 PUSH2 0x100 EXP SWAP1 DIV PUSH1 0xFF AND SWAP1 POP PUSH0 PUSH1 0x6 PUSH0 DUP10 PUSH20 0xFFFFFFFFFFFFFFFFFFFFFFFFFFFFFFFFFFFFFFFF AND PUSH20 0xFFFFFFFFFFFFFFFFFFFFFFFFFFFFFFFFFFFFFFFF AND DUP2 MSTORE PUSH1 0x20 ADD SWAP1 DUP2 MSTORE PUSH1 0x20 ADD PUSH0 KECCAK256 SLOAD SWAP1 POP PUSH0 PUSH1 0x1 PUSH0 SWAP1 SLOAD SWAP1 PUSH2 0x100 EXP SWAP1 DIV PUSH20 0xFFFFFFFFFFFFFFFFFFFFFFFFFFFFFFFFFFFFFFFF AND PUSH20 0xFFFFFFFFFFFFFFFFFFFFFFFFFFFFFFFFFFFFFFFF AND DUP10 PUSH20 0xFFFFFFFFFFFFFFFFFFFFFFFFFFFFFFFFFFFFFFFF AND EQ SWAP1 POP PUSH0 PUSH1 0xA PUSH0 SWAP1 SLOAD SWAP1 PUSH2 0x100 EXP SWAP1 DIV PUSH20 0xFFFFFFFFFFFFFFFFFFFFFFFFFFFFFFFFFFFFFFFF AND PUSH20 0xFFFFFFFFFFFFFFFFFFFFFFFFFFFFFFFFFFFFFFFF AND DUP11 PUSH20 0xFFFFFFFFFFFFFFFFFFFFFFFFFFFFFFFFFFFFFFFF AND EQ SWAP1 POP PUSH0 PUSH1 0xD PUSH0 SWAP1 SLOAD SWAP1 PUSH2 0x100 EXP SWAP1 DIV PUSH1 0xFF AND DUP1 ISZERO PUSH2 0x798 JUMPI POP DUP5 JUMPDEST DUP1 ISZERO PUSH2 0x7A2 JUMPI POP DUP2 ISZERO JUMPDEST DUP1 ISZERO PUSH2 0x7AD JUMPI POP PUSH0 DUP5 EQ JUMPDEST SWAP1 POP DUP5 DUP5 DUP3 DUP6 DUP6 SWAP10 POP SWAP10 POP SWAP10 POP SWAP10 POP SWAP10 POP POP POP POP POP POP SWAP2 SWAP4 SWAP6 SWAP1 SWAP3 SWAP5 POP JUMP JUMPDEST PUSH1 0xE SLOAD DUP2 JUMP JUMPDEST PUSH1 0x5 PUSH1 0x20 MSTORE DUP1 PUSH0 MSTORE PUSH1 0x40 PUSH0 KECCAK256 PUSH0 SWAP2 POP SLOAD SWAP1 PUSH2 0x100 EXP SWAP1 DIV PUSH1 0xFF AND DUP2 JUMP JUMPDEST PUSH1 0xD PUSH0 SWAP1 SLOAD SWAP1 PUSH2 0x100 EXP SWAP1 DIV PUSH1 0xFF AND PUSH2 0x83D JUMPI PUSH1 0x40 MLOAD PUSH32 0x8C379A000000000000000000000000000000000000000000000000000000000 DUP2 MSTORE PUSH1 0x4 ADD PUSH2 0x834 SWAP1 PUSH2 0x2762 JUMP JUMPDEST PUSH1 0x40 MLOAD DUP1 SWAP2 SUB SWAP1 REVERT JUMPDEST PUSH1 0xA PUSH0 SWAP1 SLOAD SWAP1 PUSH2 0x100 EXP SWAP1 DIV PUSH20 0xFFFFFFFFFFFFFFFFFFFFFFFFFFFFFFFFFFFFFFFF AND PUSH20 0xFFFFFFFFFFFFFFFFFFFFFFFFFFFFFFFFFFFFFFFF AND CALLER PUSH20 0xFFFFFFFFFFFFFFFFFFFFFFFFFFFFFFFFFFFFFFFF AND SUB PUSH2 0x8CC JUMPI PUSH1 0x40 MLOAD PUSH32 0x8C379A000000000000000000000000000000000000000000000000000000000 DUP2 MSTORE PUSH1 0x4 ADD PUSH2 0x8C3 SWAP1 PUSH2 0x27CA JUMP JUMPDEST PUSH1 0x40 MLOAD DUP1 SWAP2 SUB SWAP1 REVERT JUMPDEST PUSH0 PUSH1 0x6 PUSH0 CALLER PUSH20 0xFFFFFFFFFFFFFFFFFFFFFFFFFFFFFFFFFFFFFFFF AND PUSH20 0xFFFFFFFFFFFFFFFFFFFFFFFFFFFFFFFFFFFFFFFF AND DUP2 MSTORE PUSH1 0x20 ADD SWAP1 DUP2 MSTORE PUSH1 0x20 ADD PUSH0 KECCAK256 SLOAD SWAP1 POP PUSH0 DUP2 GT PUSH2 0x94F JUMPI PUSH1 0x40 MLOAD PUSH32 0x8C379A000000000000000000000000000000000000000000000000000000000 DUP2 MSTORE PUSH1 0x4 ADD PUSH2 0x946 SWAP1 PUSH2 0x2832 JUMP JUMPDEST PUSH1 0x40 MLOAD DUP1 SWAP2 SUB SWAP1 REVERT JUMPDEST PUSH0 PUSH1 0x6 PUSH0 CALLER PUSH20 0xFFFFFFFFFFFFFFFFFFFFFFFFFFFFFFFFFFFFFFFF AND PUSH20 0xFFFFFFFFFFFFFFFFFFFFFFFFFFFFFFFFFFFFFFFF AND DUP2 MSTORE PUSH1 0x20 ADD SWAP1 DUP2 MSTORE PUSH1 0x20 ADD PUSH0 KECCAK256 DUP2 SWAP1 SSTORE POP PUSH0 CALLER PUSH20 0xFFFFFFFFFFFFFFFFFFFFFFFFFFFFFFFFFFFFFFFF AND DUP3 PUSH1 0x40 MLOAD PUSH2 0x9B6 SWAP1 PUSH2 0x287D JUMP JUMPDEST PUSH0 PUSH1 0x40 MLOAD DUP1 DUP4 SUB DUP2 DUP6 DUP8 GAS CALL SWAP3 POP POP POP RETURNDATASIZE DUP1 PUSH0 DUP2 EQ PUSH2 0x9F0 JUMPI PUSH1 0x40 MLOAD SWAP2 POP PUSH1 0x1F NOT PUSH1 0x3F RETURNDATASIZE ADD AND DUP3 ADD PUSH1 0x40 MSTORE RETURNDATASIZE DUP3 MSTORE RETURNDATASIZE PUSH0 PUSH1 0x20 DUP5 ADD RETURNDATACOPY PUSH2 0x9F5 JUMP JUMPDEST PUSH1 0x60 SWAP2 POP JUMPDEST POP POP SWAP1 POP DUP1 PUSH2 0xA39 JUMPI PUSH1 0x40 MLOAD PUSH32 0x8C379A000000000000000000000000000000000000000000000000000000000 DUP2 MSTORE PUSH1 0x4 ADD PUSH2 0xA30 SWAP1 PUSH2 0x28DB JUMP JUMPDEST PUSH1 0x40 MLOAD DUP1 SWAP2 SUB SWAP1 REVERT JUMPDEST CALLER PUSH20 0xFFFFFFFFFFFFFFFFFFFFFFFFFFFFFFFFFFFFFFFF AND PUSH32 0x3367BEFD2B2F39615CD79917C2153263C4AF1D3945EC003E5D5BFC13A8D85833 DUP4 PUSH1 0x40 MLOAD PUSH2 0xA7F SWAP2 SWAP1 PUSH2 0x2201 JUMP JUMPDEST PUSH1 0x40 MLOAD DUP1 SWAP2 SUB SWAP1 LOG2 POP POP JUMP JUMPDEST PUSH1 0xC SLOAD DUP2 JUMP JUMPDEST PUSH1 0x60 PUSH1 0xD PUSH0 SWAP1 SLOAD SWAP1 PUSH2 0x100 EXP SWAP1 DIV PUSH1 0xFF AND PUSH2 0xAE1 JUMPI PUSH1 0x40 MLOAD PUSH32 0x8C379A000000000000000000000000000000000000000000000000000000000 DUP2 MSTORE PUSH1 0x4 ADD PUSH2 0xAD8 SWAP1 PUSH2 0x2762 JUMP JUMPDEST PUSH1 0x40 MLOAD DUP1 SWAP2 SUB SWAP1 REVERT JUMPDEST PUSH1 0xA PUSH0 SWAP1 SLOAD SWAP1 PUSH2 0x100 EXP SWAP1 DIV PUSH20 0xFFFFFFFFFFFFFFFFFFFFFFFFFFFFFFFFFFFFFFFF AND PUSH20 0xFFFFFFFFFFFFFFFFFFFFFFFFFFFFFFFFFFFFFFFF AND CALLER PUSH20 0xFFFFFFFFFFFFFFFFFFFFFFFFFFFFFFFFFFFFFFFF AND EQ PUSH2 0xB70 JUMPI PUSH1 0x40 MLOAD PUSH32 0x8C379A000000000000000000000000000000000000000000000000000000000 DUP2 MSTORE PUSH1 0x4 ADD PUSH2 0xB67 SWAP1 PUSH2 0x2943 JUMP JUMPDEST PUSH1 0x40 MLOAD DUP1 SWAP2 SUB SWAP1 REVERT JUMPDEST PUSH1 0x3 DUP1 SLOAD PUSH2 0xB7D SWAP1 PUSH2 0x298E JUMP JUMPDEST DUP1 PUSH1 0x1F ADD PUSH1 0x20 DUP1 SWAP2 DIV MUL PUSH1 0x20 ADD PUSH1 0x40 MLOAD SWAP1 DUP2 ADD PUSH1 0x40 MSTORE DUP1 SWAP3 SWAP2 SWAP1 DUP2 DUP2 MSTORE PUSH1 0x20 ADD DUP3 DUP1 SLOAD PUSH2 0xBA9 SWAP1 PUSH2 0x298E JUMP JUMPDEST DUP1 ISZERO PUSH2 0xBF4 JUMPI DUP1 PUSH1 0x1F LT PUSH2 0xBCB JUMPI PUSH2 0x100 DUP1 DUP4 SLOAD DIV MUL DUP4 MSTORE SWAP2 PUSH1 0x20 ADD SWAP2 PUSH2 0xBF4 JUMP JUMPDEST DUP3 ADD SWAP2 SWAP1 PUSH0 MSTORE PUSH1 0x20 PUSH0 KECCAK256 SWAP1 JUMPDEST DUP2 SLOAD DUP2 MSTORE SWAP1 PUSH1 0x1 ADD SWAP1 PUSH1 0x20 ADD DUP1 DUP4 GT PUSH2 0xBD7 JUMPI DUP3 SWAP1 SUB PUSH1 0x1F AND DUP3 ADD SWAP2 JUMPDEST POP POP POP POP POP SWAP1 POP SWAP1 JUMP JUMPDEST PUSH0 PUSH0 PUSH0 PUSH0 PUSH0 PUSH1 0x60 DUP1 PUSH0 PUSH1 0x60 PUSH0 PUSH1 0x2 SLOAD SELFBALANCE PUSH1 0x7 SLOAD PUSH1 0x1 PUSH0 SWAP1 SLOAD SWAP1 PUSH2 0x100 EXP SWAP1 DIV PUSH20 0xFFFFFFFFFFFFFFFFFFFFFFFFFFFFFFFFFFFFFFFF AND PUSH1 0xB SLOAD PUSH1 0x3 PUSH1 0x4 PUSH1 0xA PUSH0 SWAP1 SLOAD SWAP1 PUSH2 0x100 EXP SWAP1 DIV PUSH20 0xFFFFFFFFFFFFFFFFFFFFFFFFFFFFFFFFFFFFFFFF AND PUSH1 0x8 PUSH1 0xC SLOAD DUP5 DUP1 SLOAD PUSH2 0xC6D SWAP1 PUSH2 0x298E JUMP JUMPDEST DUP1 PUSH1 0x1F ADD PUSH1 0x20 DUP1 SWAP2 DIV MUL PUSH1 0x20 ADD PUSH1 0x40 MLOAD SWAP1 DUP2 ADD PUSH1 0x40 MSTORE DUP1 SWAP3 SWAP2 SWAP1 DUP2 DUP2 MSTORE PUSH1 0x20 ADD DUP3 DUP1 SLOAD PUSH2 0xC99 SWAP1 PUSH2 0x298E JUMP JUMPDEST DUP1 ISZERO PUSH2 0xCE4 JUMPI DUP1 PUSH1 0x1F LT PUSH2 0xCBB JUMPI PUSH2 0x100 DUP1 DUP4 SLOAD DIV MUL DUP4 MSTORE SWAP2 PUSH1 0x20 ADD SWAP2 PUSH2 0xCE4 JUMP JUMPDEST DUP3 ADD SWAP2 SWAP1 PUSH0 MSTORE PUSH1 0x20 PUSH0 KECCAK256 SWAP1 JUMPDEST DUP2 SLOAD DUP2 MSTORE SWAP1 PUSH1 0x1 ADD SWAP1 PUSH1 0x20 ADD DUP1 DUP4 GT PUSH2 0xCC7 JUMPI DUP3 SWAP1 SUB PUSH1 0x1F AND DUP3 ADD SWAP2 JUMPDEST POP POP POP POP POP SWAP5 POP DUP4 DUP1 SLOAD PUSH2 0xCF7 SWAP1 PUSH2 0x298E JUMP JUMPDEST DUP1 PUSH1 0x1F ADD PUSH1 0x20 DUP1 SWAP2 DIV MUL PUSH1 0x20 ADD PUSH1 0x40 MLOAD SWAP1 DUP2 ADD PUSH1 0x40 MSTORE DUP1 SWAP3 SWAP2 SWAP1 DUP2 DUP2 MSTORE PUSH1 0x20 ADD DUP3 DUP1 SLOAD PUSH2 0xD23 SWAP1 PUSH2 0x298E JUMP JUMPDEST DUP1 ISZERO PUSH2 0xD6E JUMPI DUP1 PUSH1 0x1F LT PUSH2 0xD45 JUMPI PUSH2 0x100 DUP1 DUP4 SLOAD DIV MUL DUP4 MSTORE SWAP2 PUSH1 0x20 ADD SWAP2 PUSH2 0xD6E JUMP JUMPDEST DUP3 ADD SWAP2 SWAP1 PUSH0 MSTORE PUSH1 0x20 PUSH0 KECCAK256 SWAP1 JUMPDEST DUP2 SLOAD DUP2 MSTORE SWAP1 PUSH1 0x1 ADD SWAP1 PUSH1 0x20 ADD DUP1 DUP4 GT PUSH2 0xD51 JUMPI DUP3 SWAP1 SUB PUSH1 0x1F AND DUP3 ADD SWAP2 JUMPDEST POP POP POP POP POP SWAP4 POP DUP2 DUP1 SLOAD DUP1 PUSH1 0x20 MUL PUSH1 0x20 ADD PUSH1 0x40 MLOAD SWAP1 DUP2 ADD PUSH1 0x40 MSTORE DUP1 SWAP3 SWAP2 SWAP1 DUP2 DUP2 MSTORE PUSH1 0x20 ADD DUP3 DUP1 SLOAD DUP1 ISZERO PUSH2 0xDF3 JUMPI PUSH1 0x20 MUL DUP3 ADD SWAP2 SWAP1 PUSH0 MSTORE PUSH1 0x20 PUSH0 KECCAK256 SWAP1 JUMPDEST DUP2 PUSH0 SWAP1 SLOAD SWAP1 PUSH2 0x100 EXP SWAP1 DIV PUSH20 0xFFFFFFFFFFFFFFFFFFFFFFFFFFFFFFFFFFFFFFFF AND PUSH20 0xFFFFFFFFFFFFFFFFFFFFFFFFFFFFFFFFFFFFFFFF AND DUP2 MSTORE PUSH1 0x20 ADD SWAP1 PUSH1 0x1 ADD SWAP1 DUP1 DUP4 GT PUSH2 0xDAA JUMPI JUMPDEST POP POP POP POP POP SWAP2 POP SWAP10 POP SWAP10 POP SWAP10 POP SWAP10 POP SWAP10 POP SWAP10 POP SWAP10 POP SWAP10 POP SWAP10 POP SWAP10 POP SWAP1 SWAP2 SWAP3 SWAP4 SWAP5 SWAP6 SWAP7 SWAP8 SWAP9 SWAP10 JUMP JUMPDEST PUSH1 0x1 PUSH0 SWAP1 SLOAD SWAP1 PUSH2 0x100 EXP SWAP1 DIV PUSH20 0xFFFFFFFFFFFFFFFFFFFFFFFFFFFFFFFFFFFFFFFF AND DUP2 JUMP JUMPDEST PUSH0 PUSH1 0xD PUSH0 SWAP1 SLOAD SWAP1 PUSH2 0x100 EXP SWAP1 DIV PUSH1 0xFF AND SWAP1 POP SWAP1 JUMP JUMPDEST PUSH1 0x4 DUP1 SLOAD PUSH2 0xE61 SWAP1 PUSH2 0x298E JUMP JUMPDEST DUP1 PUSH1 0x1F ADD PUSH1 0x20 DUP1 SWAP2 DIV MUL PUSH1 0x20 ADD PUSH1 0x40 MLOAD SWAP1 DUP2 ADD PUSH1 0x40 MSTORE DUP1 SWAP3 SWAP2 SWAP1 DUP2 DUP2 MSTORE PUSH1 0x20 ADD DUP3 DUP1 SLOAD PUSH2 0xE8D SWAP1 PUSH2 0x298E JUMP JUMPDEST DUP1 ISZERO PUSH2 0xED8 JUMPI DUP1 PUSH1 0x1F LT PUSH2 0xEAF JUMPI PUSH2 0x100 DUP1 DUP4 SLOAD DIV MUL DUP4 MSTORE SWAP2 PUSH1 0x20 ADD SWAP2 PUSH2 0xED8 JUMP JUMPDEST DUP3 ADD SWAP2 SWAP1 PUSH0 MSTORE PUSH1 0x20 PUSH0 KECCAK256 SWAP1 JUMPDEST DUP2 SLOAD DUP2 MSTORE SWAP1 PUSH1 0x1 ADD SWAP1 PUSH1 0x20 ADD DUP1 DUP4 GT PUSH2 0xEBB JUMPI DUP3 SWAP1 SUB PUSH1 0x1F AND DUP3 ADD SWAP2 JUMPDEST POP POP POP POP POP DUP2 JUMP JUMPDEST PUSH1 0xD PUSH0 SWAP1 SLOAD SWAP1 PUSH2 0x100 EXP SWAP1 DIV PUSH1 0xFF AND DUP2 JUMP JUMPDEST PUSH1 0x6 PUSH1 0x20 MSTORE DUP1 PUSH0 MSTORE PUSH1 0x40 PUSH0 KECCAK256 PUSH0 SWAP2 POP SWAP1 POP SLOAD DUP2 JUMP JUMPDEST PUSH0 PUSH0 PUSH0 PUSH0 PUSH0 PUSH1 0x60 PUSH0 PUSH0 PUSH0 PUSH1 0x2 SLOAD SELFBALANCE PUSH1 0x7 SLOAD PUSH1 0x1 PUSH0 SWAP1 SLOAD SWAP1 PUSH2 0x100 EXP SWAP1 DIV PUSH20 0xFFFFFFFFFFFFFFFFFFFFFFFFFFFFFFFFFFFFFFFF AND PUSH1 0xB SLOAD PUSH1 0x4 PUSH1 0xA PUSH0 SWAP1 SLOAD SWAP1 PUSH2 0x100 EXP SWAP1 DIV PUSH20 0xFFFFFFFFFFFFFFFFFFFFFFFFFFFFFFFFFFFFFFFF AND PUSH1 0xC SLOAD PUSH1 0xD PUSH0 SWAP1 SLOAD SWAP1 PUSH2 0x100 EXP SWAP1 DIV PUSH1 0xFF AND DUP4 DUP1 SLOAD PUSH2 0xF7F SWAP1 PUSH2 0x298E JUMP JUMPDEST DUP1 PUSH1 0x1F ADD PUSH1 0x20 DUP1 SWAP2 DIV MUL PUSH1 0x20 ADD PUSH1 0x40 MLOAD SWAP1 DUP2 ADD PUSH1 0x40 MSTORE DUP1 SWAP3 SWAP2 SWAP1 DUP2 DUP2 MSTORE PUSH1 0x20 ADD DUP3 DUP1 SLOAD PUSH2 0xFAB SWAP1 PUSH2 0x298E JUMP JUMPDEST DUP1 ISZERO PUSH2 0xFF6 JUMPI DUP1 PUSH1 0x1F LT PUSH2 0xFCD JUMPI PUSH2 0x100 DUP1 DUP4 SLOAD DIV MUL DUP4 MSTORE SWAP2 PUSH1 0x20 ADD SWAP2 PUSH2 0xFF6 JUMP JUMPDEST DUP3 ADD SWAP2 SWAP1 PUSH0 MSTORE PUSH1 0x20 PUSH0 KECCAK256 SWAP1 JUMPDEST DUP2 SLOAD DUP2 MSTORE SWAP1 PUSH1 0x1 ADD SWAP1 PUSH1 0x20 ADD DUP1 DUP4 GT PUSH2 0xFD9 JUMPI DUP3 SWAP1 SUB PUSH1 0x1F AND DUP3 ADD SWAP2 JUMPDEST POP POP POP POP POP SWAP4 POP SWAP9 POP SWAP9 POP SWAP9 POP SWAP9 POP SWAP9 POP SWAP9 POP SWAP9 POP SWAP9 POP SWAP9 POP SWAP1 SWAP2 SWAP3 SWAP4 SWAP5 SWAP6 SWAP7 SWAP8 SWAP9 JUMP JUMPDEST PUSH1 0x3 DUP1 SLOAD PUSH2 0x1027 SWAP1 PUSH2 0x298E JUMP JUMPDEST DUP1 PUSH1 0x1F ADD PUSH1 0x20 DUP1 SWAP2 DIV MUL PUSH1 0x20 ADD PUSH1 0x40 MLOAD SWAP1 DUP2 ADD PUSH1 0x40 MSTORE DUP1 SWAP3 SWAP2 SWAP1 DUP2 DUP2 MSTORE PUSH1 0x20 ADD DUP3 DUP1 SLOAD PUSH2 0x1053 SWAP1 PUSH2 0x298E JUMP JUMPDEST DUP1 ISZERO PUSH2 0x109E JUMPI DUP1 PUSH1 0x1F LT PUSH2 0x1075 JUMPI PUSH2 0x100 DUP1 DUP4 SLOAD DIV MUL DUP4 MSTORE SWAP2 PUSH1 0x20 ADD SWAP2 PUSH2 0x109E JUMP JUMPDEST DUP3 ADD SWAP2 SWAP1 PUSH0 MSTORE PUSH1 0x20 PUSH0 KECCAK256 SWAP1 JUMPDEST DUP2 SLOAD DUP2 MSTORE SWAP1 PUSH1 0x1 ADD SWAP1 PUSH1 0x20 ADD DUP1 DUP4 GT PUSH2 0x1081 JUMPI DUP3 SWAP1 SUB PUSH1 0x1F AND DUP3 ADD SWAP2 JUMPDEST POP POP POP POP POP DUP2 JUMP JUMPDEST PUSH1 0x7 SLOAD DUP2 JUMP JUMPDEST PUSH1 0x60 PUSH1 0x9 DUP1 SLOAD DUP1 PUSH1 0x20 MUL PUSH1 0x20 ADD PUSH1 0x40 MLOAD SWAP1 DUP2 ADD PUSH1 0x40 MSTORE DUP1 SWAP3 SWAP2 SWAP1 DUP2 DUP2 MSTORE PUSH1 0x20 ADD PUSH0 SWAP1 JUMPDEST DUP3 DUP3 LT ISZERO PUSH2 0x1167 JUMPI DUP4 DUP3 SWAP1 PUSH0 MSTORE PUSH1 0x20 PUSH0 KECCAK256 SWAP1 PUSH1 0x3 MUL ADD PUSH1 0x40 MLOAD DUP1 PUSH1 0x60 ADD PUSH1 0x40 MSTORE SWAP1 DUP2 PUSH0 DUP3 ADD SLOAD DUP2 MSTORE PUSH1 0x20 ADD PUSH1 0x1 DUP3 ADD SLOAD DUP2 MSTORE PUSH1 0x20 ADD PUSH1 0x2 DUP3 ADD PUSH0 SWAP1 SLOAD SWAP1 PUSH2 0x100 EXP SWAP1 DIV PUSH20 0xFFFFFFFFFFFFFFFFFFFFFFFFFFFFFFFFFFFFFFFF AND PUSH20 0xFFFFFFFFFFFFFFFFFFFFFFFFFFFFFFFFFFFFFFFF AND PUSH20 0xFFFFFFFFFFFFFFFFFFFFFFFFFFFFFFFFFFFFFFFF AND DUP2 MSTORE POP POP DUP2 MSTORE PUSH1 0x20 ADD SWAP1 PUSH1 0x1 ADD SWAP1 PUSH2 0x10CF JUMP JUMPDEST POP POP POP POP SWAP1 POP SWAP1 JUMP JUMPDEST PUSH1 0xA PUSH0 SWAP1 SLOAD SWAP1 PUSH2 0x100 EXP SWAP1 DIV PUSH20 0xFFFFFFFFFFFFFFFFFFFFFFFFFFFFFFFFFFFFFFFF AND DUP2 JUMP JUMPDEST PUSH1 0x2 SLOAD DUP2 JUMP JUMPDEST PUSH1 0xC SLOAD TIMESTAMP LT ISZERO PUSH2 0x11E0 JUMPI PUSH1 0x40 MLOAD PUSH32 0x8C379A000000000000000000000000000000000000000000000000000000000 DUP2 MSTORE PUSH1 0x4 ADD PUSH2 0x11D7 SWAP1 PUSH2 0x2A08 JUMP JUMPDEST PUSH1 0x40 MLOAD DUP1 SWAP2 SUB SWAP1 REVERT JUMPDEST PUSH1 0xD PUSH0 SWAP1 SLOAD SWAP1 PUSH2 0x100 EXP SWAP1 DIV PUSH1 0xFF AND ISZERO PUSH2 0x122F JUMPI PUSH1 0x40 MLOAD PUSH32 0x8C379A000000000000000000000000000000000000000000000000000000000 DUP2 MSTORE PUSH1 0x4 ADD PUSH2 0x1226 SWAP1 PUSH2 0x2A70 JUMP JUMPDEST PUSH1 0x40 MLOAD DUP1 SWAP2 SUB SWAP1 REVERT JUMPDEST PUSH1 0x1 PUSH1 0xD PUSH0 PUSH2 0x100 EXP DUP2 SLOAD DUP2 PUSH1 0xFF MUL NOT AND SWAP1 DUP4 ISZERO ISZERO MUL OR SWAP1 SSTORE POP PUSH0 PUSH1 0xB SLOAD GT ISZERO PUSH2 0x14E7 JUMPI PUSH1 0xB SLOAD SELFBALANCE LT ISZERO PUSH2 0x1298 JUMPI PUSH1 0x40 MLOAD PUSH32 0x8C379A000000000000000000000000000000000000000000000000000000000 DUP2 MSTORE PUSH1 0x4 ADD PUSH2 0x128F SWAP1 PUSH2 0x2AD8 JUMP JUMPDEST PUSH1 0x40 MLOAD DUP1 SWAP2 SUB SWAP1 REVERT JUMPDEST PUSH0 PUSH1 0x6 PUSH0 PUSH1 0xA PUSH0 SWAP1 SLOAD SWAP1 PUSH2 0x100 EXP SWAP1 DIV PUSH20 0xFFFFFFFFFFFFFFFFFFFFFFFFFFFFFFFFFFFFFFFF AND PUSH20 0xFFFFFFFFFFFFFFFFFFFFFFFFFFFFFFFFFFFFFFFF AND PUSH20 0xFFFFFFFFFFFFFFFFFFFFFFFFFFFFFFFFFFFFFFFF AND DUP2 MSTORE PUSH1 0x20 ADD SWAP1 DUP2 MSTORE PUSH1 0x20 ADD PUSH0 KECCAK256 DUP2 SWAP1 SSTORE POP PUSH0 PUSH1 0x1 PUSH0 SWAP1 SLOAD SWAP1 PUSH2 0x100 EXP SWAP1 DIV PUSH20 0xFFFFFFFFFFFFFFFFFFFFFFFFFFFFFFFFFFFFFFFF AND PUSH20 0xFFFFFFFFFFFFFFFFFFFFFFFFFFFFFFFFFFFFFFFF AND PUSH1 0xB SLOAD PUSH1 0x40 MLOAD PUSH2 0x1343 SWAP1 PUSH2 0x287D JUMP JUMPDEST PUSH0 PUSH1 0x40 MLOAD DUP1 DUP4 SUB DUP2 DUP6 DUP8 GAS CALL SWAP3 POP POP POP RETURNDATASIZE DUP1 PUSH0 DUP2 EQ PUSH2 0x137D JUMPI PUSH1 0x40 MLOAD SWAP2 POP PUSH1 0x1F NOT PUSH1 0x3F RETURNDATASIZE ADD AND DUP3 ADD PUSH1 0x40 MSTORE RETURNDATASIZE DUP3 MSTORE RETURNDATASIZE PUSH0 PUSH1 0x20 DUP5 ADD RETURNDATACOPY PUSH2 0x1382 JUMP JUMPDEST PUSH1 0x60 SWAP2 POP JUMPDEST POP POP SWAP1 POP DUP1 PUSH2 0x13C6 JUMPI PUSH1 0x40 MLOAD PUSH32 0x8C379A000000000000000000000000000000000000000000000000000000000 DUP2 MSTORE PUSH1 0x4 ADD PUSH2 0x13BD SWAP1 PUSH2 0x2B40 JUMP JUMPDEST PUSH1 0x40 MLOAD DUP1 SWAP2 SUB SWAP1 REVERT JUMPDEST PUSH0 PUSH0 SWAP1 SLOAD SWAP1 PUSH2 0x100 EXP SWAP1 DIV PUSH20 0xFFFFFFFFFFFFFFFFFFFFFFFFFFFFFFFFFFFFFFFF AND PUSH20 0xFFFFFFFFFFFFFFFFFFFFFFFFFFFFFFFFFFFFFFFF AND PUSH4 0x8DFAC90C PUSH1 0x1 PUSH0 SWAP1 SLOAD SWAP1 PUSH2 0x100 EXP SWAP1 DIV PUSH20 0xFFFFFFFFFFFFFFFFFFFFFFFFFFFFFFFFFFFFFFFF AND PUSH1 0xB SLOAD PUSH1 0x1 PUSH1 0x40 MLOAD DUP5 PUSH4 0xFFFFFFFF AND PUSH1 0xE0 SHL DUP2 MSTORE PUSH1 0x4 ADD PUSH2 0x1447 SWAP4 SWAP3 SWAP2 SWAP1 PUSH2 0x2B5E JUMP JUMPDEST PUSH0 PUSH1 0x40 MLOAD DUP1 DUP4 SUB DUP2 PUSH0 DUP8 DUP1 EXTCODESIZE ISZERO DUP1 ISZERO PUSH2 0x145E JUMPI PUSH0 PUSH0 REVERT JUMPDEST POP GAS CALL ISZERO DUP1 ISZERO PUSH2 0x1470 JUMPI RETURNDATASIZE PUSH0 PUSH0 RETURNDATACOPY RETURNDATASIZE PUSH0 REVERT JUMPDEST POP POP POP POP PUSH1 0x1 PUSH0 SWAP1 SLOAD SWAP1 PUSH2 0x100 EXP SWAP1 DIV PUSH20 0xFFFFFFFFFFFFFFFFFFFFFFFFFFFFFFFFFFFFFFFF AND PUSH20 0xFFFFFFFFFFFFFFFFFFFFFFFFFFFFFFFFFFFFFFFF AND PUSH32 0xCB4A9094DA4DF77FB2C0DBAA5047660B1237E61D82A02176C1BE74CA757F2531 PUSH1 0xB SLOAD PUSH1 0x40 MLOAD PUSH2 0x14DD SWAP2 SWAP1 PUSH2 0x2201 JUMP JUMPDEST PUSH1 0x40 MLOAD DUP1 SWAP2 SUB SWAP1 LOG2 POP JUMPDEST JUMP JUMPDEST PUSH1 0x9 DUP2 DUP2 SLOAD DUP2 LT PUSH2 0x14F8 JUMPI PUSH0 DUP1 REVERT JUMPDEST SWAP1 PUSH0 MSTORE PUSH1 0x20 PUSH0 KECCAK256 SWAP1 PUSH1 0x3 MUL ADD PUSH0 SWAP2 POP SWAP1 POP DUP1 PUSH0 ADD SLOAD SWAP1 DUP1 PUSH1 0x1 ADD SLOAD SWAP1 DUP1 PUSH1 0x2 ADD PUSH0 SWAP1 SLOAD SWAP1 PUSH2 0x100 EXP SWAP1 DIV PUSH20 0xFFFFFFFFFFFFFFFFFFFFFFFFFFFFFFFFFFFFFFFF AND SWAP1 POP DUP4 JUMP JUMPDEST PUSH1 0x60 PUSH1 0x8 DUP1 SLOAD DUP1 PUSH1 0x20 MUL PUSH1 0x20 ADD PUSH1 0x40 MLOAD SWAP1 DUP2 ADD PUSH1 0x40 MSTORE DUP1 SWAP3 SWAP2 SWAP1 DUP2 DUP2 MSTORE PUSH1 0x20 ADD DUP3 DUP1 SLOAD DUP1 ISZERO PUSH2 0x15BE JUMPI PUSH1 0x20 MUL DUP3 ADD SWAP2 SWAP1 PUSH0 MSTORE PUSH1 0x20 PUSH0 KECCAK256 SWAP1 JUMPDEST DUP2 PUSH0 SWAP1 SLOAD SWAP1 PUSH2 0x100 EXP SWAP1 DIV PUSH20 0xFFFFFFFFFFFFFFFFFFFFFFFFFFFFFFFFFFFFFFFF AND PUSH20 0xFFFFFFFFFFFFFFFFFFFFFFFFFFFFFFFFFFFFFFFF AND DUP2 MSTORE PUSH1 0x20 ADD SWAP1 PUSH1 0x1 ADD SWAP1 DUP1 DUP4 GT PUSH2 0x1575 JUMPI JUMPDEST POP POP POP POP POP SWAP1 POP SWAP1 JUMP JUMPDEST PUSH0 PUSH0 SWAP1 SLOAD SWAP1 PUSH2 0x100 EXP SWAP1 DIV PUSH20 0xFFFFFFFFFFFFFFFFFFFFFFFFFFFFFFFFFFFFFFFF AND DUP2 JUMP JUMPDEST PUSH1 0xD PUSH0 SWAP1 SLOAD SWAP1 PUSH2 0x100 EXP SWAP1 DIV PUSH1 0xFF AND PUSH2 0x163A JUMPI PUSH1 0x40 MLOAD PUSH32 0x8C379A000000000000000000000000000000000000000000000000000000000 DUP2 MSTORE PUSH1 0x4 ADD PUSH2 0x1631 SWAP1 PUSH2 0x2762 JUMP JUMPDEST PUSH1 0x40 MLOAD DUP1 SWAP2 SUB SWAP1 REVERT JUMPDEST PUSH0 DUP2 GT PUSH2 0x167C JUMPI PUSH1 0x40 MLOAD PUSH32 0x8C379A000000000000000000000000000000000000000000000000000000000 DUP2 MSTORE PUSH1 0x4 ADD PUSH2 0x1673 SWAP1 PUSH2 0x2BDD JUMP JUMPDEST PUSH1 0x40 MLOAD DUP1 SWAP2 SUB SWAP1 REVERT JUMPDEST PUSH0 PUSH0 SWAP1 POP JUMPDEST PUSH1 0x8 DUP1 SLOAD SWAP1 POP PUSH1 0xE SLOAD LT DUP1 ISZERO PUSH2 0x1696 JUMPI POP DUP2 DUP2 LT JUMPDEST ISZERO PUSH2 0x18EA JUMPI PUSH0 PUSH1 0x8 PUSH1 0xE SLOAD DUP2 SLOAD DUP2 LT PUSH2 0x16B2 JUMPI PUSH2 0x16B1 PUSH2 0x2BFB JUMP JUMPDEST JUMPDEST SWAP1 PUSH0 MSTORE PUSH1 0x20 PUSH0 KECCAK256 ADD PUSH0 SWAP1 SLOAD SWAP1 PUSH2 0x100 EXP SWAP1 DIV PUSH20 0xFFFFFFFFFFFFFFFFFFFFFFFFFFFFFFFFFFFFFFFF AND SWAP1 POP PUSH1 0xE PUSH0 DUP2 SLOAD DUP1 SWAP3 SWAP2 SWAP1 PUSH2 0x16EE SWAP1 PUSH2 0x2C55 JUMP JUMPDEST SWAP2 SWAP1 POP SSTORE POP PUSH1 0xA PUSH0 SWAP1 SLOAD SWAP1 PUSH2 0x100 EXP SWAP1 DIV PUSH20 0xFFFFFFFFFFFFFFFFFFFFFFFFFFFFFFFFFFFFFFFF AND PUSH20 0xFFFFFFFFFFFFFFFFFFFFFFFFFFFFFFFFFFFFFFFF AND DUP2 PUSH20 0xFFFFFFFFFFFFFFFFFFFFFFFFFFFFFFFFFFFFFFFF AND SUB PUSH2 0x174D JUMPI POP PUSH2 0x1681 JUMP JUMPDEST PUSH0 PUSH1 0x6 PUSH0 DUP4 PUSH20 0xFFFFFFFFFFFFFFFFFFFFFFFFFFFFFFFFFFFFFFFF AND PUSH20 0xFFFFFFFFFFFFFFFFFFFFFFFFFFFFFFFFFFFFFFFF AND DUP2 MSTORE PUSH1 0x20 ADD SWAP1 DUP2 MSTORE PUSH1 0x20 ADD PUSH0 KECCAK256 SLOAD SWAP1 POP PUSH0 DUP2 SUB PUSH2 0x179C JUMPI POP POP PUSH2 0x1681 JUMP JUMPDEST PUSH0 PUSH1 0x6 PUSH0 DUP5 PUSH20 0xFFFFFFFFFFFFFFFFFFFFFFFFFFFFFFFFFFFFFFFF AND PUSH20 0xFFFFFFFFFFFFFFFFFFFFFFFFFFFFFFFFFFFFFFFF AND DUP2 MSTORE PUSH1 0x20 ADD SWAP1 DUP2 MSTORE PUSH1 0x20 ADD PUSH0 KECCAK256 DUP2 SWAP1 SSTORE POP PUSH0 DUP3 PUSH20 0xFFFFFFFFFFFFFFFFFFFFFFFFFFFFFFFFFFFFFFFF AND DUP3 PUSH1 0x40 MLOAD PUSH2 0x1803 SWAP1 PUSH2 0x287D JUMP JUMPDEST PUSH0 PUSH1 0x40 MLOAD DUP1 DUP4 SUB DUP2 DUP6 DUP8 GAS CALL SWAP3 POP POP POP RETURNDATASIZE DUP1 PUSH0 DUP2 EQ PUSH2 0x183D JUMPI PUSH1 0x40 MLOAD SWAP2 POP PUSH1 0x1F NOT PUSH1 0x3F RETURNDATASIZE ADD AND DUP3 ADD PUSH1 0x40 MSTORE RETURNDATASIZE DUP3 MSTORE RETURNDATASIZE PUSH0 PUSH1 0x20 DUP5 ADD RETURNDATACOPY PUSH2 0x1842 JUMP JUMPDEST PUSH1 0x60 SWAP2 POP JUMPDEST POP POP SWAP1 POP DUP1 PUSH2 0x1886 JUMPI PUSH1 0x40 MLOAD PUSH32 0x8C379A000000000000000000000000000000000000000000000000000000000 DUP2 MSTORE PUSH1 0x4 ADD PUSH2 0x187D SWAP1 PUSH2 0x28DB JUMP JUMPDEST PUSH1 0x40 MLOAD DUP1 SWAP2 SUB SWAP1 REVERT JUMPDEST DUP3 PUSH20 0xFFFFFFFFFFFFFFFFFFFFFFFFFFFFFFFFFFFFFFFF AND PUSH32 0x3367BEFD2B2F39615CD79917C2153263C4AF1D3945EC003E5D5BFC13A8D85833 DUP4 PUSH1 0x40 MLOAD PUSH2 0x18CC SWAP2 SWAP1 PUSH2 0x2201 JUMP JUMPDEST PUSH1 0x40 MLOAD DUP1 SWAP2 SUB SWAP1 LOG2 DUP4 DUP1 PUSH2 0x18DF SWAP1 PUSH2 0x2C55 JUMP JUMPDEST SWAP5 POP POP POP POP POP PUSH2 0x1681 JUMP JUMPDEST POP POP JUMP JUMPDEST PUSH0 PUSH1 0x6 PUSH0 DUP4 PUSH20 0xFFFFFFFFFFFFFFFFFFFFFFFFFFFFFFFFFFFFFFFF AND PUSH20 0xFFFFFFFFFFFFFFFFFFFFFFFFFFFFFFFFFFFFFFFF AND DUP2 MSTORE PUSH1 0x20 ADD SWAP1 DUP2 MSTORE PUSH1 0x20 ADD PUSH0 KECCAK256 SLOAD SWAP1 POP SWAP2 SWAP1 POP JUMP JUMPDEST PUSH1 0xB SLOAD DUP2 JUMP JUMPDEST PUSH1 0xC SLOAD TIMESTAMP LT PUSH2 0x197E JUMPI PUSH1 0x40 MLOAD PUSH32 0x8C379A000000000000000000000000000000000000000000000000000000000 DUP2 MSTORE PUSH1 0x4 ADD PUSH2 0x1975 SWAP1 PUSH2 0x2CE6 JUMP JUMPDEST PUSH1 0x40 MLOAD DUP1 SWAP2 SUB SWAP1 REVERT JUMPDEST PUSH1 0x1 PUSH0 SWAP1 SLOAD SWAP1 PUSH2 0x100 EXP SWAP1 DIV PUSH20 0xFFFFFFFFFFFFFFFFFFFFFFFFFFFFFFFFFFFFFFFF AND PUSH20 0xFFFFFFFFFFFFFFFFFFFFFFFFFFFFFFFFFFFFFFFF AND CALLER PUSH20 0xFFFFFFFFFFFFFFFFFFFFFFFFFFFFFFFFFFFFFFFF AND SUB PUSH2 0x1A0D JUMPI PUSH1 0x40 MLOAD PUSH32 0x8C379A000000000000000000000000000000000000000000000000000000000 DUP2 MSTORE PUSH1 0x4 ADD PUSH2 0x1A04 SWAP1 PUSH2 0x2D74 JUMP JUMPDEST PUSH1 0x40 MLOAD DUP1 SWAP2 SUB SWAP1 REVERT JUMPDEST PUSH0 CALLVALUE GT PUSH2 0x1A4F JUMPI PUSH1 0x40 MLOAD PUSH32 0x8C379A000000000000000000000000000000000000000000000000000000000 DUP2 MSTORE PUSH1 0x4 ADD PUSH2 0x1A46 SWAP1 PUSH2 0x2DDC JUMP JUMPDEST PUSH1 0x40 MLOAD DUP1 SWAP2 SUB SWAP1 REVERT JUMPDEST PUSH0 PUSH1 0x6 PUSH0 CALLER PUSH20 0xFFFFFFFFFFFFFFFFFFFFFFFFFFFFFFFFFFFFFFFF AND PUSH20 0xFFFFFFFFFFFFFFFFFFFFFFFFFFFFFFFFFFFFFFFF AND DUP2 MSTORE PUSH1 0x20 ADD SWAP1 DUP2 MSTORE PUSH1 0x20 ADD PUSH0 KECCAK256 SLOAD SWAP1 POP PUSH0 CALLVALUE DUP3 PUSH2 0x1A9D SWAP2 SWAP1 PUSH2 0x2DFA JUMP JUMPDEST SWAP1 POP PUSH0 PUSH20 0xFFFFFFFFFFFFFFFFFFFFFFFFFFFFFFFFFFFFFFFF AND PUSH1 0xA PUSH0 SWAP1 SLOAD SWAP1 PUSH2 0x100 EXP SWAP1 DIV PUSH20 0xFFFFFFFFFFFFFFFFFFFFFFFFFFFFFFFFFFFFFFFF AND PUSH20 0xFFFFFFFFFFFFFFFFFFFFFFFFFFFFFFFFFFFFFFFF AND SUB PUSH2 0x1BC7 JUMPI PUSH1 0x2 SLOAD DUP2 LT ISZERO PUSH2 0x1B38 JUMPI PUSH1 0x40 MLOAD PUSH32 0x8C379A000000000000000000000000000000000000000000000000000000000 DUP2 MSTORE PUSH1 0x4 ADD PUSH2 0x1B2F SWAP1 PUSH2 0x2E77 JUMP JUMPDEST PUSH1 0x40 MLOAD DUP1 SWAP2 SUB SWAP1 REVERT JUMPDEST PUSH0 PUSH0 SWAP1 SLOAD SWAP1 PUSH2 0x100 EXP SWAP1 DIV PUSH20 0xFFFFFFFFFFFFFFFFFFFFFFFFFFFFFFFFFFFFFFFF AND PUSH20 0xFFFFFFFFFFFFFFFFFFFFFFFFFFFFFFFFFFFFFFFF AND PUSH4 0x8DFAC90C CALLER CALLVALUE PUSH0 PUSH1 0x40 MLOAD DUP5 PUSH4 0xFFFFFFFF AND PUSH1 0xE0 SHL DUP2 MSTORE PUSH1 0x4 ADD PUSH2 0x1B95 SWAP4 SWAP3 SWAP2 SWAP1 PUSH2 0x2B5E JUMP JUMPDEST PUSH0 PUSH1 0x40 MLOAD DUP1 DUP4 SUB DUP2 PUSH0 DUP8 DUP1 EXTCODESIZE ISZERO DUP1 ISZERO PUSH2 0x1BAC JUMPI PUSH0 PUSH0 REVERT JUMPDEST POP GAS CALL ISZERO DUP1 ISZERO PUSH2 0x1BBE JUMPI RETURNDATASIZE PUSH0 PUSH0 RETURNDATACOPY RETURNDATASIZE PUSH0 REVERT JUMPDEST POP POP POP POP PUSH2 0x1E28 JUMP JUMPDEST PUSH1 0xB SLOAD DUP2 GT PUSH2 0x1C0B JUMPI PUSH1 0x40 MLOAD PUSH32 0x8C379A000000000000000000000000000000000000000000000000000000000 DUP2 MSTORE PUSH1 0x4 ADD PUSH2 0x1C02 SWAP1 PUSH2 0x2EDF JUMP JUMPDEST PUSH1 0x40 MLOAD DUP1 SWAP2 SUB SWAP1 REVERT JUMPDEST PUSH1 0xA PUSH0 SWAP1 SLOAD SWAP1 PUSH2 0x100 EXP SWAP1 DIV PUSH20 0xFFFFFFFFFFFFFFFFFFFFFFFFFFFFFFFFFFFFFFFF AND PUSH20 0xFFFFFFFFFFFFFFFFFFFFFFFFFFFFFFFFFFFFFFFF AND CALLER PUSH20 0xFFFFFFFFFFFFFFFFFFFFFFFFFFFFFFFFFFFFFFFF AND EQ PUSH2 0x1D9C JUMPI PUSH0 PUSH0 SWAP1 SLOAD SWAP1 PUSH2 0x100 EXP SWAP1 DIV PUSH20 0xFFFFFFFFFFFFFFFFFFFFFFFFFFFFFFFFFFFFFFFF AND PUSH20 0xFFFFFFFFFFFFFFFFFFFFFFFFFFFFFFFFFFFFFFFF AND PUSH4 0x8DFAC90C PUSH1 0xA PUSH0 SWAP1 SLOAD SWAP1 PUSH2 0x100 EXP SWAP1 DIV PUSH20 0xFFFFFFFFFFFFFFFFFFFFFFFFFFFFFFFFFFFFFFFF AND PUSH1 0xB SLOAD PUSH1 0x1 PUSH1 0x40 MLOAD DUP5 PUSH4 0xFFFFFFFF AND PUSH1 0xE0 SHL DUP2 MSTORE PUSH1 0x4 ADD PUSH2 0x1CE0 SWAP4 SWAP3 SWAP2 SWAP1 PUSH2 0x2B5E JUMP JUMPDEST PUSH0 PUSH1 0x40 MLOAD DUP1 DUP4 SUB DUP2 PUSH0 DUP8 DUP1 EXTCODESIZE ISZERO DUP1 ISZERO PUSH2 0x1CF7 JUMPI PUSH0 PUSH0 REVERT JUMPDEST POP GAS CALL ISZERO DUP1 ISZERO PUSH2 0x1D09 JUMPI RETURNDATASIZE PUSH0 PUSH0 RETURNDATACOPY RETURNDATASIZE PUSH0 REVERT JUMPDEST POP POP POP POP PUSH0 PUSH0 SWAP1 SLOAD SWAP1 PUSH2 0x100 EXP SWAP1 DIV PUSH20 0xFFFFFFFFFFFFFFFFFFFFFFFFFFFFFFFFFFFFFFFF AND PUSH20 0xFFFFFFFFFFFFFFFFFFFFFFFFFFFFFFFFFFFFFFFF AND PUSH4 0x8DFAC90C CALLER DUP4 PUSH0 PUSH1 0x40 MLOAD DUP5 PUSH4 0xFFFFFFFF AND PUSH1 0xE0 SHL DUP2 MSTORE PUSH1 0x4 ADD PUSH2 0x1D6A SWAP4 SWAP3 SWAP2 SWAP1 PUSH2 0x2B5E JUMP JUMPDEST PUSH0 PUSH1 0x40 MLOAD DUP1 DUP4 SUB DUP2 PUSH0 DUP8 DUP1 EXTCODESIZE ISZERO DUP1 ISZERO PUSH2 0x1D81 JUMPI PUSH0 PUSH0 REVERT JUMPDEST POP GAS CALL ISZERO DUP1 ISZERO PUSH2 0x1D93 JUMPI RETURNDATASIZE PUSH0 PUSH0 RETURNDATACOPY RETURNDATASIZE PUSH0 REVERT JUMPDEST POP POP POP POP PUSH2 0x1E27 JUMP JUMPDEST PUSH0 PUSH0 SWAP1 SLOAD SWAP1 PUSH2 0x100 EXP SWAP1 DIV PUSH20 0xFFFFFFFFFFFFFFFFFFFFFFFFFFFFFFFFFFFFFFFF AND PUSH20 0xFFFFFFFFFFFFFFFFFFFFFFFFFFFFFFFFFFFFFFFF AND PUSH4 0x8DFAC90C CALLER CALLVALUE PUSH0 PUSH1 0x40 MLOAD DUP5 PUSH4 0xFFFFFFFF AND PUSH1 0xE0 SHL DUP2 MSTORE PUSH1 0x4 ADD PUSH2 0x1DF9 SWAP4 SWAP3 SWAP2 SWAP1 PUSH2 0x2B5E JUMP JUMPDEST PUSH0 PUSH1 0x40 MLOAD DUP1 DUP4 SUB DUP2 PUSH0 DUP8 DUP1 EXTCODESIZE ISZERO DUP1 ISZERO PUSH2 0x1E10 JUMPI PUSH0 PUSH0 REVERT JUMPDEST POP GAS CALL ISZERO DUP1 ISZERO PUSH2 0x1E22 JUMPI RETURNDATASIZE PUSH0 PUSH0 RETURNDATACOPY RETURNDATASIZE PUSH0 REVERT JUMPDEST POP POP POP POP JUMPDEST JUMPDEST DUP1 PUSH1 0x6 PUSH0 CALLER PUSH20 0xFFFFFFFFFFFFFFFFFFFFFFFFFFFFFFFFFFFFFFFF AND PUSH20 0xFFFFFFFFFFFFFFFFFFFFFFFFFFFFFFFFFFFFFFFF AND DUP2 MSTORE PUSH1 0x20 ADD SWAP1 DUP2 MSTORE PUSH1 0x20 ADD PUSH0 KECCAK256 DUP2 SWAP1 SSTORE POP DUP1 PUSH1 0xB DUP2 SWAP1 SSTORE POP CALLER PUSH1 0xA PUSH0 PUSH2 0x100 EXP DUP2 SLOAD DUP2 PUSH20 0xFFFFFFFFFFFFFFFFFFFFFFFFFFFFFFFFFFFFFFFF MUL NOT AND SWAP1 DUP4 PUSH20 0xFFFFFFFFFFFFFFFFFFFFFFFFFFFFFFFFFFFFFFFF AND MUL OR SWAP1 SSTORE POP PUSH1 0x9 PUSH1 0x40 MLOAD DUP1 PUSH1 0x60 ADD PUSH1 0x40 MSTORE DUP1 CALLVALUE DUP2 MSTORE PUSH1 0x20 ADD TIMESTAMP DUP2 MSTORE PUSH1 0x20 ADD CALLER PUSH20 0xFFFFFFFFFFFFFFFFFFFFFFFFFFFFFFFFFFFFFFFF AND DUP2 MSTORE POP SWAP1 DUP1 PUSH1 0x1 DUP2 SLOAD ADD DUP1 DUP3 SSTORE DUP1 SWAP2 POP POP PUSH1 0x1 SWAP1 SUB SWAP1 PUSH0 MSTORE PUSH1 0x20 PUSH0 KECCAK256 SWAP1 PUSH1 0x3 MUL ADD PUSH0 SWAP1 SWAP2 SWAP1 SWAP2 SWAP1 SWAP2 POP PUSH0 DUP3 ADD MLOAD DUP2 PUSH0 ADD SSTORE PUSH1 0x20 DUP3 ADD MLOAD DUP2 PUSH1 0x1 ADD SSTORE PUSH1 0x40 DUP3 ADD MLOAD DUP2 PUSH1 0x2 ADD PUSH0 PUSH2 0x100 EXP DUP2 SLOAD DUP2 PUSH20 0xFFFFFFFFFFFFFFFFFFFFFFFFFFFFFFFFFFFFFFFF MUL NOT AND SWAP1 DUP4 PUSH20 0xFFFFFFFFFFFFFFFFFFFFFFFFFFFFFFFFFFFFFFFF AND MUL OR SWAP1 SSTORE POP POP POP PUSH1 0x5 PUSH0 CALLER PUSH20 0xFFFFFFFFFFFFFFFFFFFFFFFFFFFFFFFFFFFFFFFF AND PUSH20 0xFFFFFFFFFFFFFFFFFFFFFFFFFFFFFFFFFFFFFFFF AND DUP2 MSTORE PUSH1 0x20 ADD SWAP1 DUP2 MSTORE PUSH1 0x20 ADD PUSH0 KECCAK256 PUSH0 SWAP1 SLOAD SWAP1 PUSH2 0x100 EXP SWAP1 DIV PUSH1 0xFF AND PUSH2 0x207F JUMPI PUSH1 0x1 PUSH1 0x5 PUSH0 CALLER PUSH20 0xFFFFFFFFFFFFFFFFFFFFFFFFFFFFFFFFFFFFFFFF AND PUSH20 0xFFFFFFFFFFFFFFFFFFFFFFFFFFFFFFFFFFFFFFFF AND DUP2 MSTORE PUSH1 0x20 ADD SWAP1 DUP2 MSTORE PUSH1 0x20 ADD PUSH0 KECCAK256 PUSH0 PUSH2 0x100 EXP DUP2 SLOAD DUP2 PUSH1 0xFF MUL NOT AND SWAP1 DUP4 ISZERO ISZERO MUL OR SWAP1 SSTORE POP PUSH1 0x7 PUSH0 DUP2 SLOAD DUP1 SWAP3 SWAP2 SWAP1 PUSH2 0x2019 SWAP1 PUSH2 0x2C55 JUMP JUMPDEST SWAP2 SWAP1 POP SSTORE POP PUSH1 0x8 CALLER SWAP1 DUP1 PUSH1 0x1 DUP2 SLOAD ADD DUP1 DUP3 SSTORE DUP1 SWAP2 POP POP PUSH1 0x1 SWAP1 SUB SWAP1 PUSH0 MSTORE PUSH1 0x20 PUSH0 KECCAK256 ADD PUSH0 SWAP1 SWAP2 SWAP1 SWAP2 SWAP1 SWAP2 PUSH2 0x100 EXP DUP2 SLOAD DUP2 PUSH20 0xFFFFFFFFFFFFFFFFFFFFFFFFFFFFFFFFFFFFFFFF MUL NOT AND SWAP1 DUP4 PUSH20 0xFFFFFFFFFFFFFFFFFFFFFFFFFFFFFFFFFFFFFFFF AND MUL OR SWAP1 SSTORE POP JUMPDEST PUSH32 0x6CD3B8608D4368D7A92CFDA5A745DFB2993256DA9506CD888F31FF9AA48E2BD9 CALLER PUSH1 0x40 MLOAD PUSH2 0x20AE SWAP2 SWAP1 PUSH2 0x2438 JUMP JUMPDEST PUSH1 0x40 MLOAD DUP1 SWAP2 SUB SWAP1 LOG1 POP POP JUMP JUMPDEST PUSH1 0x8 DUP2 DUP2 SLOAD DUP2 LT PUSH2 0x20C9 JUMPI PUSH0 DUP1 REVERT JUMPDEST SWAP1 PUSH0 MSTORE PUSH1 0x20 PUSH0 KECCAK256 ADD PUSH0 SWAP2 POP SLOAD SWAP1 PUSH2 0x100 EXP SWAP1 DIV PUSH20 0xFFFFFFFFFFFFFFFFFFFFFFFFFFFFFFFFFFFFFFFF AND DUP2 JUMP JUMPDEST PUSH0 PUSH0 REVERT JUMPDEST PUSH0 PUSH20 0xFFFFFFFFFFFFFFFFFFFFFFFFFFFFFFFFFFFFFFFF DUP3 AND SWAP1 POP SWAP2 SWAP1 POP JUMP JUMPDEST PUSH0 PUSH2 0x2122 DUP3 PUSH2 0x20F9 JUMP JUMPDEST SWAP1 POP SWAP2 SWAP1 POP JUMP JUMPDEST PUSH2 0x2132 DUP2 PUSH2 0x2118 JUMP JUMPDEST DUP2 EQ PUSH2 0x213C JUMPI PUSH0 PUSH0 REVERT JUMPDEST POP JUMP JUMPDEST PUSH0 DUP2 CALLDATALOAD SWAP1 POP PUSH2 0x214D DUP2 PUSH2 0x2129 JUMP JUMPDEST SWAP3 SWAP2 POP POP JUMP JUMPDEST PUSH0 PUSH1 0x20 DUP3 DUP5 SUB SLT ISZERO PUSH2 0x2168 JUMPI PUSH2 0x2167 PUSH2 0x20F5 JUMP JUMPDEST JUMPDEST PUSH0 PUSH2 0x2175 DUP5 DUP3 DUP6 ADD PUSH2 0x213F JUMP JUMPDEST SWAP2 POP POP SWAP3 SWAP2 POP POP JUMP JUMPDEST PUSH0 DUP2 ISZERO ISZERO SWAP1 POP SWAP2 SWAP1 POP JUMP JUMPDEST PUSH2 0x2192 DUP2 PUSH2 0x217E JUMP JUMPDEST DUP3 MSTORE POP POP JUMP JUMPDEST PUSH0 DUP2 SWAP1 POP SWAP2 SWAP1 POP JUMP JUMPDEST PUSH2 0x21AA DUP2 PUSH2 0x2198 JUMP JUMPDEST DUP3 MSTORE POP POP JUMP JUMPDEST PUSH0 PUSH1 0xA0 DUP3 ADD SWAP1 POP PUSH2 0x21C3 PUSH0 DUP4 ADD DUP9 PUSH2 0x2189 JUMP JUMPDEST PUSH2 0x21D0 PUSH1 0x20 DUP4 ADD DUP8 PUSH2 0x21A1 JUMP JUMPDEST PUSH2 0x21DD PUSH1 0x40 DUP4 ADD DUP7 PUSH2 0x2189 JUMP JUMPDEST PUSH2 0x21EA PUSH1 0x60 DUP4 ADD DUP6 PUSH2 0x2189 JUMP JUMPDEST PUSH2 0x21F7 PUSH1 0x80 DUP4 ADD DUP5 PUSH2 0x2189 JUMP JUMPDEST SWAP7 SWAP6 POP POP POP POP POP POP JUMP JUMPDEST PUSH0 PUSH1 0x20 DUP3 ADD SWAP1 POP PUSH2 0x2214 PUSH0 DUP4 ADD DUP5 PUSH2 0x21A1 JUMP JUMPDEST SWAP3 SWAP2 POP POP JUMP JUMPDEST PUSH0 PUSH1 0x20 DUP3 ADD SWAP1 POP PUSH2 0x222D PUSH0 DUP4 ADD DUP5 PUSH2 0x2189 JUMP JUMPDEST SWAP3 SWAP2 POP POP JUMP JUMPDEST PUSH0 DUP2 MLOAD SWAP1 POP SWAP2 SWAP1 POP JUMP JUMPDEST PUSH0 DUP3 DUP3 MSTORE PUSH1 0x20 DUP3 ADD SWAP1 POP SWAP3 SWAP2 POP POP JUMP JUMPDEST DUP3 DUP2 DUP4 MCOPY PUSH0 DUP4 DUP4 ADD MSTORE POP POP POP JUMP JUMPDEST PUSH0 PUSH1 0x1F NOT PUSH1 0x1F DUP4 ADD AND SWAP1 POP SWAP2 SWAP1 POP JUMP JUMPDEST PUSH0 PUSH2 0x2275 DUP3 PUSH2 0x2233 JUMP JUMPDEST PUSH2 0x227F DUP2 DUP6 PUSH2 0x223D JUMP JUMPDEST SWAP4 POP PUSH2 0x228F DUP2 DUP6 PUSH1 0x20 DUP7 ADD PUSH2 0x224D JUMP JUMPDEST PUSH2 0x2298 DUP2 PUSH2 0x225B JUMP JUMPDEST DUP5 ADD SWAP2 POP POP SWAP3 SWAP2 POP POP JUMP JUMPDEST PUSH0 PUSH1 0x20 DUP3 ADD SWAP1 POP DUP2 DUP2 SUB PUSH0 DUP4 ADD MSTORE PUSH2 0x22BB DUP2 DUP5 PUSH2 0x226B JUMP JUMPDEST SWAP1 POP SWAP3 SWAP2 POP POP JUMP JUMPDEST PUSH2 0x22CC DUP2 PUSH2 0x2118 JUMP JUMPDEST DUP3 MSTORE POP POP JUMP JUMPDEST PUSH0 DUP2 MLOAD SWAP1 POP SWAP2 SWAP1 POP JUMP JUMPDEST PUSH0 DUP3 DUP3 MSTORE PUSH1 0x20 DUP3 ADD SWAP1 POP SWAP3 SWAP2 POP POP JUMP JUMPDEST PUSH0 DUP2 SWAP1 POP PUSH1 0x20 DUP3 ADD SWAP1 POP SWAP2 SWAP1 POP JUMP JUMPDEST PUSH2 0x2304 DUP2 PUSH2 0x2118 JUMP JUMPDEST DUP3 MSTORE POP POP JUMP JUMPDEST PUSH0 PUSH2 0x2315 DUP4 DUP4 PUSH2 0x22FB JUMP JUMPDEST PUSH1 0x20 DUP4 ADD SWAP1 POP SWAP3 SWAP2 POP POP JUMP JUMPDEST PUSH0 PUSH1 0x20 DUP3 ADD SWAP1 POP SWAP2 SWAP1 POP JUMP JUMPDEST PUSH0 PUSH2 0x2337 DUP3 PUSH2 0x22D2 JUMP JUMPDEST PUSH2 0x2341 DUP2 DUP6 PUSH2 0x22DC JUMP JUMPDEST SWAP4 POP PUSH2 0x234C DUP4 PUSH2 0x22EC JUMP JUMPDEST DUP1 PUSH0 JUMPDEST DUP4 DUP2 LT ISZERO PUSH2 0x237C JUMPI DUP2 MLOAD PUSH2 0x2363 DUP9 DUP3 PUSH2 0x230A JUMP JUMPDEST SWAP8 POP PUSH2 0x236E DUP4 PUSH2 0x2321 JUMP JUMPDEST SWAP3 POP POP PUSH1 0x1 DUP2 ADD SWAP1 POP PUSH2 0x234F JUMP JUMPDEST POP DUP6 SWAP4 POP POP POP POP SWAP3 SWAP2 POP POP JUMP JUMPDEST PUSH0 PUSH2 0x140 DUP3 ADD SWAP1 POP PUSH2 0x239D PUSH0 DUP4 ADD DUP14 PUSH2 0x21A1 JUMP JUMPDEST PUSH2 0x23AA PUSH1 0x20 DUP4 ADD DUP13 PUSH2 0x21A1 JUMP JUMPDEST PUSH2 0x23B7 PUSH1 0x40 DUP4 ADD DUP12 PUSH2 0x21A1 JUMP JUMPDEST PUSH2 0x23C4 PUSH1 0x60 DUP4 ADD DUP11 PUSH2 0x22C3 JUMP JUMPDEST PUSH2 0x23D1 PUSH1 0x80 DUP4 ADD DUP10 PUSH2 0x21A1 JUMP JUMPDEST DUP2 DUP2 SUB PUSH1 0xA0 DUP4 ADD MSTORE PUSH2 0x23E3 DUP2 DUP9 PUSH2 0x226B JUMP JUMPDEST SWAP1 POP DUP2 DUP2 SUB PUSH1 0xC0 DUP4 ADD MSTORE PUSH2 0x23F7 DUP2 DUP8 PUSH2 0x226B JUMP JUMPDEST SWAP1 POP PUSH2 0x2406 PUSH1 0xE0 DUP4 ADD DUP7 PUSH2 0x22C3 JUMP JUMPDEST DUP2 DUP2 SUB PUSH2 0x100 DUP4 ADD MSTORE PUSH2 0x2419 DUP2 DUP6 PUSH2 0x232D JUMP JUMPDEST SWAP1 POP PUSH2 0x2429 PUSH2 0x120 DUP4 ADD DUP5 PUSH2 0x21A1 JUMP JUMPDEST SWAP12 SWAP11 POP POP POP POP POP POP POP POP POP POP POP JUMP JUMPDEST PUSH0 PUSH1 0x20 DUP3 ADD SWAP1 POP PUSH2 0x244B PUSH0 DUP4 ADD DUP5 PUSH2 0x22C3 JUMP JUMPDEST SWAP3 SWAP2 POP POP JUMP JUMPDEST PUSH0 PUSH2 0x120 DUP3 ADD SWAP1 POP PUSH2 0x2465 PUSH0 DUP4 ADD DUP13 PUSH2 0x21A1 JUMP JUMPDEST PUSH2 0x2472 PUSH1 0x20 DUP4 ADD DUP12 PUSH2 0x21A1 JUMP JUMPDEST PUSH2 0x247F PUSH1 0x40 DUP4 ADD DUP11 PUSH2 0x21A1 JUMP JUMPDEST PUSH2 0x248C PUSH1 0x60 DUP4 ADD DUP10 PUSH2 0x22C3 JUMP JUMPDEST PUSH2 0x2499 PUSH1 0x80 DUP4 ADD DUP9 PUSH2 0x21A1 JUMP JUMPDEST DUP2 DUP2 SUB PUSH1 0xA0 DUP4 ADD MSTORE PUSH2 0x24AB DUP2 DUP8 PUSH2 0x226B JUMP JUMPDEST SWAP1 POP PUSH2 0x24BA PUSH1 0xC0 DUP4 ADD DUP7 PUSH2 0x22C3 JUMP JUMPDEST PUSH2 0x24C7 PUSH1 0xE0 DUP4 ADD DUP6 PUSH2 0x21A1 JUMP JUMPDEST PUSH2 0x24D5 PUSH2 0x100 DUP4 ADD DUP5 PUSH2 0x2189 JUMP JUMPDEST SWAP11 SWAP10 POP POP POP POP POP POP POP POP POP POP JUMP JUMPDEST PUSH0 DUP2 MLOAD SWAP1 POP SWAP2 SWAP1 POP JUMP JUMPDEST PUSH0 DUP3 DUP3 MSTORE PUSH1 0x20 DUP3 ADD SWAP1 POP SWAP3 SWAP2 POP POP JUMP JUMPDEST PUSH0 DUP2 SWAP1 POP PUSH1 0x20 DUP3 ADD SWAP1 POP SWAP2 SWAP1 POP JUMP JUMPDEST PUSH2 0x2515 DUP2 PUSH2 0x2198 JUMP JUMPDEST DUP3 MSTORE POP POP JUMP JUMPDEST PUSH1 0x60 DUP3 ADD PUSH0 DUP3 ADD MLOAD PUSH2 0x252F PUSH0 DUP6 ADD DUP3 PUSH2 0x250C JUMP JUMPDEST POP PUSH1 0x20 DUP3 ADD MLOAD PUSH2 0x2542 PUSH1 0x20 DUP6 ADD DUP3 PUSH2 0x250C JUMP JUMPDEST POP PUSH1 0x40 DUP3 ADD MLOAD PUSH2 0x2555 PUSH1 0x40 DUP6 ADD DUP3 PUSH2 0x22FB JUMP JUMPDEST POP POP POP POP JUMP JUMPDEST PUSH0 PUSH2 0x2566 DUP4 DUP4 PUSH2 0x251B JUMP JUMPDEST PUSH1 0x60 DUP4 ADD SWAP1 POP SWAP3 SWAP2 POP POP JUMP JUMPDEST PUSH0 PUSH1 0x20 DUP3 ADD SWAP1 POP SWAP2 SWAP1 POP JUMP JUMPDEST PUSH0 PUSH2 0x2588 DUP3 PUSH2 0x24E3 JUMP JUMPDEST PUSH2 0x2592 DUP2 DUP6 PUSH2 0x24ED JUMP JUMPDEST SWAP4 POP PUSH2 0x259D DUP4 PUSH2 0x24FD JUMP JUMPDEST DUP1 PUSH0 JUMPDEST DUP4 DUP2 LT ISZERO PUSH2 0x25CD JUMPI DUP2 MLOAD PUSH2 0x25B4 DUP9 DUP3 PUSH2 0x255B JUMP JUMPDEST SWAP8 POP PUSH2 0x25BF DUP4 PUSH2 0x2572 JUMP JUMPDEST SWAP3 POP POP PUSH1 0x1 DUP2 ADD SWAP1 POP PUSH2 0x25A0 JUMP JUMPDEST POP DUP6 SWAP4 POP POP POP POP SWAP3 SWAP2 POP POP JUMP JUMPDEST PUSH0 PUSH1 0x20 DUP3 ADD SWAP1 POP DUP2 DUP2 SUB PUSH0 DUP4 ADD MSTORE PUSH2 0x25F2 DUP2 DUP5 PUSH2 0x257E JUMP JUMPDEST SWAP1 POP SWAP3 SWAP2 POP POP JUMP JUMPDEST PUSH2 0x2603 DUP2 PUSH2 0x2198 JUMP JUMPDEST DUP2 EQ PUSH2 0x260D JUMPI PUSH0 PUSH0 REVERT JUMPDEST POP JUMP JUMPDEST PUSH0 DUP2 CALLDATALOAD SWAP1 POP PUSH2 0x261E DUP2 PUSH2 0x25FA JUMP JUMPDEST SWAP3 SWAP2 POP POP JUMP JUMPDEST PUSH0 PUSH1 0x20 DUP3 DUP5 SUB SLT ISZERO PUSH2 0x2639 JUMPI PUSH2 0x2638 PUSH2 0x20F5 JUMP JUMPDEST JUMPDEST PUSH0 PUSH2 0x2646 DUP5 DUP3 DUP6 ADD PUSH2 0x2610 JUMP JUMPDEST SWAP2 POP POP SWAP3 SWAP2 POP POP JUMP JUMPDEST PUSH0 PUSH1 0x60 DUP3 ADD SWAP1 POP PUSH2 0x2662 PUSH0 DUP4 ADD DUP7 PUSH2 0x21A1 JUMP JUMPDEST PUSH2 0x266F PUSH1 0x20 DUP4 ADD DUP6 PUSH2 0x21A1 JUMP JUMPDEST PUSH2 0x267C PUSH1 0x40 DUP4 ADD DUP5 PUSH2 0x22C3 JUMP JUMPDEST SWAP5 SWAP4 POP POP POP POP JUMP JUMPDEST PUSH0 PUSH1 0x20 DUP3 ADD SWAP1 POP DUP2 DUP2 SUB PUSH0 DUP4 ADD MSTORE PUSH2 0x269C DUP2 DUP5 PUSH2 0x232D JUMP JUMPDEST SWAP1 POP SWAP3 SWAP2 POP POP JUMP JUMPDEST PUSH0 DUP2 SWAP1 POP SWAP2 SWAP1 POP JUMP JUMPDEST PUSH0 PUSH2 0x26C7 PUSH2 0x26C2 PUSH2 0x26BD DUP5 PUSH2 0x20F9 JUMP JUMPDEST PUSH2 0x26A4 JUMP JUMPDEST PUSH2 0x20F9 JUMP JUMPDEST SWAP1 POP SWAP2 SWAP1 POP JUMP JUMPDEST PUSH0 PUSH2 0x26D8 DUP3 PUSH2 0x26AD JUMP JUMPDEST SWAP1 POP SWAP2 SWAP1 POP JUMP JUMPDEST PUSH0 PUSH2 0x26E9 DUP3 PUSH2 0x26CE JUMP JUMPDEST SWAP1 POP SWAP2 SWAP1 POP JUMP JUMPDEST PUSH2 0x26F9 DUP2 PUSH2 0x26DF JUMP JUMPDEST DUP3 MSTORE POP POP JUMP JUMPDEST PUSH0 PUSH1 0x20 DUP3 ADD SWAP1 POP PUSH2 0x2712 PUSH0 DUP4 ADD DUP5 PUSH2 0x26F0 JUMP JUMPDEST SWAP3 SWAP2 POP POP JUMP JUMPDEST PUSH32 0x41756374696F6E206E6F742066696E616C697A65640000000000000000000000 PUSH0 DUP3 ADD MSTORE POP JUMP JUMPDEST PUSH0 PUSH2 0x274C PUSH1 0x15 DUP4 PUSH2 0x223D JUMP JUMPDEST SWAP2 POP PUSH2 0x2757 DUP3 PUSH2 0x2718 JUMP JUMPDEST PUSH1 0x20 DUP3 ADD SWAP1 POP SWAP2 SWAP1 POP JUMP JUMPDEST PUSH0 PUSH1 0x20 DUP3 ADD SWAP1 POP DUP2 DUP2 SUB PUSH0 DUP4 ADD MSTORE PUSH2 0x2779 DUP2 PUSH2 0x2740 JUMP JUMPDEST SWAP1 POP SWAP2 SWAP1 POP JUMP JUMPDEST PUSH32 0x57696E6E657220686173206E6F20726566756E64000000000000000000000000 PUSH0 DUP3 ADD MSTORE POP JUMP JUMPDEST PUSH0 PUSH2 0x27B4 PUSH1 0x14 DUP4 PUSH2 0x223D JUMP JUMPDEST SWAP2 POP PUSH2 0x27BF DUP3 PUSH2 0x2780 JUMP JUMPDEST PUSH1 0x20 DUP3 ADD SWAP1 POP SWAP2 SWAP1 POP JUMP JUMPDEST PUSH0 PUSH1 0x20 DUP3 ADD SWAP1 POP DUP2 DUP2 SUB PUSH0 DUP4 ADD MSTORE PUSH2 0x27E1 DUP2 PUSH2 0x27A8 JUMP JUMPDEST SWAP1 POP SWAP2 SWAP1 POP JUMP JUMPDEST PUSH32 0x4E6F20726566756E6420617661696C61626C6500000000000000000000000000 PUSH0 DUP3 ADD MSTORE POP JUMP JUMPDEST PUSH0 PUSH2 0x281C PUSH1 0x13 DUP4 PUSH2 0x223D JUMP JUMPDEST SWAP2 POP PUSH2 0x2827 DUP3 PUSH2 0x27E8 JUMP JUMPDEST PUSH1 0x20 DUP3 ADD SWAP1 POP SWAP2 SWAP1 POP JUMP JUMPDEST PUSH0 PUSH1 0x20 DUP3 ADD SWAP1 POP DUP2 DUP2 SUB PUSH0 DUP4 ADD MSTORE PUSH2 0x2849 DUP2 PUSH2 0x2810 JUMP JUMPDEST SWAP1 POP SWAP2 SWAP1 POP JUMP JUMPDEST PUSH0 DUP2 SWAP1 POP SWAP3 SWAP2 POP POP JUMP JUMPDEST POP JUMP JUMPDEST PUSH0 PUSH2 0x2868 PUSH0 DUP4 PUSH2 0x2850 JUMP JUMPDEST SWAP2 POP PUSH2 0x2873 DUP3 PUSH2 0x285A JUMP JUMPDEST PUSH0 DUP3 ADD SWAP1 POP SWAP2 SWAP1 POP JUMP JUMPDEST PUSH0 PUSH2 0x2887 DUP3 PUSH2 0x285D JUMP JUMPDEST SWAP2 POP DUP2 SWAP1 POP SWAP2 SWAP1 POP JUMP JUMPDEST PUSH32 0x526566756E64206661696C656400000000000000000000000000000000000000 PUSH0 DUP3 ADD MSTORE POP JUMP JUMPDEST PUSH0 PUSH2 0x28C5 PUSH1 0xD DUP4 PUSH2 0x223D JUMP JUMPDEST SWAP2 POP PUSH2 0x28D0 DUP3 PUSH2 0x2891 JUMP JUMPDEST PUSH1 0x20 DUP3 ADD SWAP1 POP SWAP2 SWAP1 POP JUMP JUMPDEST PUSH0 PUSH1 0x20 DUP3 ADD SWAP1 POP DUP2 DUP2 SUB PUSH0 DUP4 ADD MSTORE PUSH2 0x28F2 DUP2 PUSH2 0x28B9 JUMP JUMPDEST SWAP1 POP SWAP2 SWAP1 POP JUMP JUMPDEST PUSH32 0x4F6E6C792077696E6E65722063616E2061636365737320746865206461746100 PUSH0 DUP3 ADD MSTORE POP JUMP JUMPDEST PUSH0 PUSH2 0x292D PUSH1 0x1F DUP4 PUSH2 0x223D JUMP JUMPDEST SWAP2 POP PUSH2 0x2938 DUP3 PUSH2 0x28F9 JUMP JUMPDEST PUSH1 0x20 DUP3 ADD SWAP1 POP SWAP2 SWAP1 POP JUMP JUMPDEST PUSH0 PUSH1 0x20 DUP3 ADD SWAP1 POP DUP2 DUP2 SUB PUSH0 DUP4 ADD MSTORE PUSH2 0x295A DUP2 PUSH2 0x2921 JUMP JUMPDEST SWAP1 POP SWAP2 SWAP1 POP JUMP JUMPDEST PUSH32 0x4E487B7100000000000000000000000000000000000000000000000000000000 PUSH0 MSTORE PUSH1 0x22 PUSH1 0x4 MSTORE PUSH1 0x24 PUSH0 REVERT JUMPDEST PUSH0 PUSH1 0x2 DUP3 DIV SWAP1 POP PUSH1 0x1 DUP3 AND DUP1 PUSH2 0x29A5 JUMPI PUSH1 0x7F DUP3 AND SWAP2 POP JUMPDEST PUSH1 0x20 DUP3 LT DUP2 SUB PUSH2 0x29B8 JUMPI PUSH2 0x29B7 PUSH2 0x2961 JUMP JUMPDEST JUMPDEST POP SWAP2 SWAP1 POP JUMP JUMPDEST PUSH32 0x41756374696F6E206E6F7420656E646564207965740000000000000000000000 PUSH0 DUP3 ADD MSTORE POP JUMP JUMPDEST PUSH0 PUSH2 0x29F2 PUSH1 0x15 DUP4 PUSH2 0x223D JUMP JUMPDEST SWAP2 POP PUSH2 0x29FD DUP3 PUSH2 0x29BE JUMP JUMPDEST PUSH1 0x20 DUP3 ADD SWAP1 POP SWAP2 SWAP1 POP JUMP JUMPDEST PUSH0 PUSH1 0x20 DUP3 ADD SWAP1 POP DUP2 DUP2 SUB PUSH0 DUP4 ADD MSTORE PUSH2 0x2A1F DUP2 PUSH2 0x29E6 JUMP JUMPDEST SWAP1 POP SWAP2 SWAP1 POP JUMP JUMPDEST PUSH32 0x41756374696F6E20616C72656164792066696E616C697A656400000000000000 PUSH0 DUP3 ADD MSTORE POP JUMP JUMPDEST PUSH0 PUSH2 0x2A5A PUSH1 0x19 DUP4 PUSH2 0x223D JUMP JUMPDEST SWAP2 POP PUSH2 0x2A65 DUP3 PUSH2 0x2A26 JUMP JUMPDEST PUSH1 0x20 DUP3 ADD SWAP1 POP SWAP2 SWAP1 POP JUMP JUMPDEST PUSH0 PUSH1 0x20 DUP3 ADD SWAP1 POP DUP2 DUP2 SUB PUSH0 DUP4 ADD MSTORE PUSH2 0x2A87 DUP2 PUSH2 0x2A4E JUMP JUMPDEST SWAP1 POP SWAP2 SWAP1 POP JUMP JUMPDEST PUSH32 0x496E73756666696369656E742062616C616E6365000000000000000000000000 PUSH0 DUP3 ADD MSTORE POP JUMP JUMPDEST PUSH0 PUSH2 0x2AC2 PUSH1 0x14 DUP4 PUSH2 0x223D JUMP JUMPDEST SWAP2 POP PUSH2 0x2ACD DUP3 PUSH2 0x2A8E JUMP JUMPDEST PUSH1 0x20 DUP3 ADD SWAP1 POP SWAP2 SWAP1 POP JUMP JUMPDEST PUSH0 PUSH1 0x20 DUP3 ADD SWAP1 POP DUP2 DUP2 SUB PUSH0 DUP4 ADD MSTORE PUSH2 0x2AEF DUP2 PUSH2 0x2AB6 JUMP JUMPDEST SWAP1 POP SWAP2 SWAP1 POP JUMP JUMPDEST PUSH32 0x53656C6C6572207061796D656E74206661696C65640000000000000000000000 PUSH0 DUP3 ADD MSTORE POP JUMP JUMPDEST PUSH0 PUSH2 0x2B2A PUSH1 0x15 DUP4 PUSH2 0x223D JUMP JUMPDEST SWAP2 POP PUSH2 0x2B35 DUP3 PUSH2 0x2AF6 JUMP JUMPDEST PUSH1 0x20 DUP3 ADD SWAP1 POP SWAP2 SWAP1 POP JUMP JUMPDEST PUSH0 PUSH1 0x20 DUP3 ADD SWAP1 POP DUP2 DUP2 SUB PUSH0 DUP4 ADD MSTORE PUSH2 0x2B57 DUP2 PUSH2 0x2B1E JUMP JUMPDEST SWAP1 POP SWAP2 SWAP1 POP JUMP JUMPDEST PUSH0 PUSH1 0x60 DUP3 ADD SWAP1 POP PUSH2 0x2B71 PUSH0 DUP4 ADD DUP7 PUSH2 0x22C3 JUMP JUMPDEST PUSH2 0x2B7E PUSH1 0x20 DUP4 ADD DUP6 PUSH2 0x21A1 JUMP JUMPDEST PUSH2 0x2B8B PUSH1 0x40 DUP4 ADD DUP5 PUSH2 0x2189 JUMP JUMPDEST SWAP5 SWAP4 POP POP POP POP JUMP JUMPDEST PUSH32 0x42617463682073697A6520726571756972656400000000000000000000000000 PUSH0 DUP3 ADD MSTORE POP JUMP JUMPDEST PUSH0 PUSH2 0x2BC7 PUSH1 0x13 DUP4 PUSH2 0x223D JUMP JUMPDEST SWAP2 POP PUSH2 0x2BD2 DUP3 PUSH2 0x2B93 JUMP JUMPDEST PUSH1 0x20 DUP3 ADD SWAP1 POP SWAP2 SWAP1 POP JUMP JUMPDEST PUSH0 PUSH1 0x20 DUP3 ADD SWAP1 POP DUP2 DUP2 SUB PUSH0 DUP4 ADD MSTORE PUSH2 0x2BF4 DUP2 PUSH2 0x2BBB JUMP JUMPDEST SWAP1 POP SWAP2 SWAP1 POP JUMP JUMPDEST PUSH32 0x4E487B7100000000000000000000000000000000000000000000000000000000 PUSH0 MSTORE PUSH1 0x32 PUSH1 0x4 MSTORE PUSH1 0x24 PUSH0 REVERT JUMPDEST PUSH32 0x4E487B7100000000000000000000000000000000000000000000000000000000 PUSH0 MSTORE PUSH1 0x11 PUSH1 0x4 MSTORE PUSH1 0x24 PUSH0 REVERT JUMPDEST PUSH0 PUSH2 0x2C5F DUP3 PUSH2 0x2198 JUMP JUMPDEST SWAP2 POP PUSH32 0xFFFFFFFFFFFFFFFFFFFFFFFFFFFFFFFFFFFFFFFFFFFFFFFFFFFFFFFFFFFFFFFF DUP3 SUB PUSH2 0x2C91 JUMPI PUSH2 0x2C90 PUSH2 0x2C28 JUMP JUMPDEST JUMPDEST PUSH1 0x1 DUP3 ADD SWAP1 POP SWAP2 SWAP1 POP JUMP JUMPDEST PUSH32 0x41756374696F6E20656E64656400000000000000000000000000000000000000 PUSH0 DUP3 ADD MSTORE POP JUMP JUMPDEST PUSH0 PUSH2 0x2CD0 PUSH1 0xD DUP4 PUSH2 0x223D JUMP JUMPDEST SWAP2 POP PUSH2 0x2CDB DUP3 PUSH2 0x2C9C JUMP JUMPDEST PUSH1 0x20 DUP3 ADD SWAP1 POP SWAP2 SWAP1 POP JUMP JUMPDEST PUSH0 PUSH1 0x20 DUP3 ADD SWAP1 POP DUP2 DUP2 SUB PUSH0 DUP4 ADD MSTORE PUSH2 0x2CFD DUP2 PUSH2 0x2CC4 JUMP JUMPDEST SWAP1 POP SWAP2 SWAP1 POP JUMP JUMPDEST PUSH32 0x596F752063616E277420626964206F6E20796F7572206F776E2061756374696F PUSH0 DUP3 ADD MSTORE PUSH32 0x6E00000000000000000000000000000000000000000000000000000000000000 PUSH1 0x20 DUP3 ADD MSTORE POP JUMP JUMPDEST PUSH0 PUSH2 0x2D5E PUSH1 0x21 DUP4 PUSH2 0x223D JUMP JUMPDEST SWAP2 POP PUSH2 0x2D69 DUP3 PUSH2 0x2D04 JUMP JUMPDEST PUSH1 0x40 DUP3 ADD SWAP1 POP SWAP2 SWAP1 POP JUMP JUMPDEST PUSH0 PUSH1 0x20 DUP3 ADD SWAP1 POP DUP2 DUP2 SUB PUSH0 DUP4 ADD MSTORE PUSH2 0x2D8B DUP2 PUSH2 0x2D52 JUMP JUMPDEST SWAP1 POP SWAP2 SWAP1 POP JUMP JUMPDEST PUSH32 0x4D7573742073656E6420736F6D65206574686572000000000000000000000000 PUSH0 DUP3 ADD MSTORE POP JUMP JUMPDEST PUSH0 PUSH2 0x2DC6 PUSH1 0x14 DUP4 PUSH2 0x223D JUMP JUMPDEST SWAP2 POP PUSH2 0x2DD1 DUP3 PUSH2 0x2D92 JUMP JUMPDEST PUSH1 0x20 DUP3 ADD SWAP1 POP SWAP2 SWAP1 POP JUMP JUMPDEST PUSH0 PUSH1 0x20 DUP3 ADD SWAP1 POP DUP2 DUP2 SUB PUSH0 DUP4 ADD MSTORE PUSH2 0x2DF3 DUP2 PUSH2 0x2DBA JUMP JUMPDEST SWAP1 POP SWAP2 SWAP1 POP JUMP JUMPDEST PUSH0 PUSH2 0x2E04 DUP3 PUSH2 0x2198 JUMP JUMPDEST SWAP2 POP PUSH2 0x2E0F DUP4 PUSH2 0x2198 JUMP JUMPDEST SWAP3 POP DUP3 DUP3 ADD SWAP1 POP DUP1 DUP3 GT ISZERO PUSH2 0x2E27 JUMPI PUSH2 0x2E26 PUSH2 0x2C28 JUMP JUMPDEST JUMPDEST SWAP3 SWAP2 POP POP JUMP JUMPDEST PUSH32 0x42656C6F77206D696E696D756D20626964000000000000000000000000000000 PUSH0 DUP3 ADD MSTORE POP JUMP JUMPDEST PUSH0 PUSH2 0x2E61 PUSH1 0x11 DUP4 PUSH2 0x223D JUMP JUMPDEST SWAP2 POP PUSH2 0x2E6C DUP3 PUSH2 0x2E2D JUMP JUMPDEST PUSH1 0x20 DUP3 ADD SWAP1 POP SWAP2 SWAP1 POP JUMP JUMPDEST PUSH0 PUSH1 0x20 DUP3 ADD SWAP1 POP DUP2 DUP2 SUB PUSH0 DUP4 ADD MSTORE PUSH2 0x2E8E DUP2 PUSH2 0x2E55 JUMP JUMPDEST SWAP1 POP SWAP2 SWAP1 POP JUMP JUMPDEST PUSH32 0x426964206D757374206578636565642063757272656E74206869676865737400 PUSH0 DUP3 ADD MSTORE POP JUMP JUMPDEST PUSH0 PUSH2 0x2EC9 PUSH1 0x1F DUP4 PUSH2 0x223D JUMP JUMPDEST SWAP2 POP PUSH2 0x2ED4 DUP3 PUSH2 0x2E95 JUMP JUMPDEST PUSH1 0x20 DUP3 ADD SWAP1 POP SWAP2 SWAP1 POP JUMP JUMPDEST PUSH0 PUSH1 0x20 DUP3 ADD SWAP1 POP DUP2 DUP2 SUB PUSH0 DUP4 ADD MSTORE PUSH2 0x2EF6 DUP2 PUSH2 0x2EBD JUMP JUMPDEST SWAP1 POP SWAP2 SWAP1 POP JUMP INVALID LOG2 PUSH5 0x6970667358 0x22 SLT KECCAK256 SWAP7 SMOD LOG4 RETURNDATASIZE 0xF7 0xB5 0xC8 0x4E BYTE PUSH1 0xA6 CODESIZE 0x4C BASEFEE 0xB7 ADD CALLVALUE DUP4 DUP11 0xBE LOG1 DUP7 0x4D EXTCODESIZE SMOD 0xD4 EXTCODESIZE LOG2 PUSH23 0x8A6E3164736F6C63430008230033000000000000000000 "},"gasEstimates":{"creation":{"codeDepositCost":"2416600","executionCost":"infinite","totalCost":"infinite"},"external":{"addresses(uint256)":"5054","approvers(address)":"2901","approversCount()":"2493","approversMoney(address)":"2891","closed()":"2533","contribute()":"infinite","dataDescription()":"infinite","dataForSell()":"infinite","endTime()":"2537","factory()":"infinite","finalizeAuctionIfNeeded()":"infinite","getAddresses()":"infinite","getBid(address)":"2873","getData()":"infinite","getListSummary()":"infinite","getStatus()":"2563","getSummary()":"infinite","getTransactions()":"infinite","getUserAuctionStatus(address)":"infinite","highestBid()":"2491","highestBidder()":"2553","manager()":"2576","minimumContribution()":"2492","nextRefundIndex()":"2471","processRefunds(uint256)":"infinite","transactions(uint256)":"infinite","withdrawRefund()":"infinite"}},"methodIdentifiers":{"addresses(uint256)":"edf26d9b","approvers(address)":"0a144391","approversCount()":"82fde093","approversMoney(address)":"5dc1d641","closed()":"597e1fb5","contribute()":"d7bb99ba","dataDescription()":"58d65629","dataForSell()":"7b87d856","endTime()":"3197cbb6","factory()":"c45a0155","finalizeAuctionIfNeeded()":"976af615","getAddresses()":"a39fac12","getBid(address)":"c8b342ab","getData()":"3bc5de30","getListSummary()":"7914135e","getStatus()":"4e69d560","getSummary()":"4051ddac","getTransactions()":"83920e90","getUserAuctionStatus(address)":"05281103","highestBid()":"d57bde79","highestBidder()":"91f90157","manager()":"481c6a75","minimumContribution()":"937e09b1","nextRefundIndex()":"074d55c4","processRefunds(uint256)":"c6f56901","transactions(uint256)":"9ace38c2","withdrawRefund()":"110f8874"}},"storageLayout":{"storage":[{"astId":4,"contract":"Campaign.sol:Campaign","label":"factory","offset":0,"slot":"0","type":"t_contract(CampaignFactory)999"},{"astId":29,"contract":"Campaign.sol:Campaign","label":"manager","offset":0,"slot":"1","type":"t_address"},{"astId":31,"contract":"Campaign.sol:Campaign","label":"minimumContribution","offset":0,"slot":"2","type":"t_uint256"},{"astId":33,"contract":"Campaign.sol:Campaign","label":"dataForSell","offset":0,"slot":"3","type":"t_string_storage"},{"astId":35,"contract":"Campaign.sol:Campaign","label":"dataDescription","offset":0,"slot":"4","type":"t_string_storage"},{"astId":39,"contract":"Campaign.sol:Campaign","label":"approvers","offset":0,"slot":"5","type":"t_mapping(t_address,t_bool)"},{"astId":43,"contract":"Campaign.sol:Campaign","label":"approversMoney","offset":0,"slot":"6","type":"t_mapping(t_address,t_uint256)"},{"astId":45,"contract":"Campaign.sol:Campaign","label":"approversCount","offset":0,"slot":"7","type":"t_uint256"},{"astId":48,"contract":"Campaign.sol:Campaign","label":"addresses","offset":0,"slot":"8","type":"t_array(t_address)dyn_storage"},{"astId":52,"contract":"Campaign.sol:Campaign","label":"transactions","offset":0,"slot":"9","type":"t_array(t_struct(Bid)27_storage)dyn_storage"},{"astId":54,"contract":"Campaign.sol:Campaign","label":"highestBidder","offset":0,"slot":"10","type":"t_address"},{"astId":56,"contract":"Campaign.sol:Campaign","label":"highestBid","offset":0,"slot":"11","type":"t_uint256"},{"astId":58,"contract":"Campaign.sol:Campaign","label":"endTime","offset":0,"slot":"12","type":"t_uint256"},{"astId":60,"contract":"Campaign.sol:Campaign","label":"closed","offset":0,"slot":"13","type":"t_bool"},{"astId":62,"contract":"Campaign.sol:Campaign","label":"nextRefundIndex","offset":0,"slot":"14","type":"t_uint256"}],"types":{"t_address":{"encoding":"inplace","label":"address","numberOfBytes":"20"},"t_array(t_address)dyn_storage":{"base":"t_address","encoding":"dynamic_array","label":"address[]","numberOfBytes":"32"},"t_array(t_struct(Bid)27_storage)dyn_storage":{"base":"t_struct(Bid)27_storage","encoding":"dynamic_array","label":"struct Campaign.Bid[]","numberOfBytes":"32"},"t_bool":{"encoding":"inplace","label":"bool","numberOfBytes":"1"},"t_contract(CampaignFactory)999":{"encoding":"inplace","label":"contract CampaignFactory","numberOfBytes":"20"},"t_mapping(t_address,t_bool)":{"encoding":"mapping","key":"t_address","label":"mapping(address => bool)","numberOfBytes":"32","value":"t_bool"},"t_mapping(t_address,t_uint256)":{"encoding":"mapping","key":"t_address","label":"mapping(address => uint256)","numberOfBytes":"32","value":"t_uint256"},"t_string_storage":{"encoding":"bytes","label":"string","numberOfBytes":"32"},"t_struct(Bid)27_storage":{"encoding":"inplace","label":"struct Campaign.Bid","members":[{"astId":22,"contract":"Campaign.sol:Campaign","label":"value","offset":0,"slot":"0","type":"t_uint256"},{"astId":24,"contract":"Campaign.sol:Campaign","label":"time","offset":0,"slot":"1","type":"t_uint256"},{"astId":26,"contract":"Campaign.sol:Campaign","label":"bidderAddress","offset":0,"slot":"2","type":"t_address"}],"numberOfBytes":"96"},"t_uint256":{"encoding":"inplace","label":"uint256","numberOfBytes":"32"}}},"transientStorageLayout":{"storage":[],"types":null},"userdoc":{"kind":"user","methods":{},"version":1}}