{"abi":[{"inputs":[{"internalType":"uint256","name":"minimum","type":"uint256"},{"internalType":"string","name":"dataSell","type":"string"},{"internalType":"string","name":"dataDesc","type":"string"},{"internalType":"address","name":"creator","type":"address"},{"internalType":"uint256","name":"endtime","type":"uint256"}],"stateMutability":"nonpayable","type":"constructor"},{"anonymous":false,"inputs":[{"indexed":true,"internalType":"address[]","name":"myVariable","type":"address[]"}],"name":"LogMyVariable","type":"event"},{"anonymous":false,"inputs":[{"indexed":true,"internalType":"address","name":"myVariable","type":"address"}],"name":"LogMyVariable1","type":"event"},{"anonymous":false,"inputs":[{"indexed":true,"internalType":"address","name":"contributor","type":"address"},{"indexed":false,"internalType":"uint256","name":"amount","type":"uint256"}],"name":"RefundProcessed","type":"event"},{"anonymous":false,"inputs":[{"indexed":true,"internalType":"address","name":"seller","type":"address"},{"indexed":false,"internalType":"uint256","name":"amount","type":"uint256"}],"name":"SellerPaid","type":"event"},{"inputs":[],"name":"EndedAuctions","outputs":[],"stateMutability":"nonpayable","type":"function"},{"inputs":[{"internalType":"uint256","name":"","type":"uint256"}],"name":"addresses","outputs":[{"internalType":"address","name":"","type":"address"}],"stateMutability":"view","type":"function"},{"inputs":[{"internalType":"address","name":"","type":"address"}],"name":"approvers","outputs":[{"internalType":"bool","name":"","type":"bool"}],"stateMutability":"view","type":"function"},{"inputs":[],"name":"approversCount","outputs":[{"internalType":"uint256","name":"","type":"uint256"}],"stateMutability":"view","type":"function"},{"inputs":[{"internalType":"address","name":"","type":"address"}],"name":"approversMonney","outputs":[{"internalType":"uint256","name":"","type":"uint256"}],"stateMutability":"view","type":"function"},{"inputs":[],"name":"closed","outputs":[{"internalType":"bool","name":"","type":"bool"}],"stateMutability":"view","type":"function"},{"inputs":[{"internalType":"address","name":"a","type":"address"},{"internalType":"address","name":"b","type":"address"}],"name":"compareAddresses","outputs":[{"internalType":"bool","name":"","type":"bool"}],"stateMutability":"pure","type":"function"},{"inputs":[],"name":"contribute","outputs":[],"stateMutability":"payable","type":"function"},{"inputs":[],"name":"dataDescription","outputs":[{"internalType":"string","name":"","type":"string"}],"stateMutability":"view","type":"function"},{"inputs":[],"name":"dataForSell","outputs":[{"internalType":"string","name":"","type":"string"}],"stateMutability":"view","type":"function"},{"inputs":[],"name":"endTime","outputs":[{"internalType":"uint256","name":"","type":"uint256"}],"stateMutability":"view","type":"function"},{"inputs":[],"name":"getAddresses","outputs":[{"internalType":"address[]","name":"","type":"address[]"}],"stateMutability":"view","type":"function"},{"inputs":[{"internalType":"address","name":"add","type":"address"}],"name":"getBid","outputs":[{"internalType":"uint256","name":"","type":"uint256"}],"stateMutability":"view","type":"function"},{"inputs":[],"name":"getStatus","outputs":[{"internalType":"bool","name":"","type":"bool"}],"stateMutability":"view","type":"function"},{"inputs":[],"name":"getSummary","outputs":[{"internalType":"uint256","name":"","type":"uint256"},{"internalType":"uint256","name":"","type":"uint256"},{"internalType":"uint256","name":"","type":"uint256"},{"internalType":"address","name":"","type":"address"},{"internalType":"uint256","name":"","type":"uint256"},{"internalType":"string","name":"","type":"string"},{"internalType":"string","name":"","type":"string"},{"internalType":"uint256","name":"","type":"uint256"},{"internalType":"address","name":"","type":"address"},{"internalType":"address[]","name":"","type":"address[]"}],"stateMutability":"view","type":"function"},{"inputs":[],"name":"getTransactions","outputs":[{"components":[{"internalType":"uint256","name":"value","type":"uint256"},{"internalType":"uint256","name":"time","type":"uint256"},{"internalType":"address","name":"sellerAddress","type":"address"}],"internalType":"struct Campaign.Bid[]","name":"","type":"tuple[]"}],"stateMutability":"view","type":"function"},{"inputs":[],"name":"highestBid","outputs":[{"internalType":"uint256","name":"","type":"uint256"}],"stateMutability":"view","type":"function"},{"inputs":[],"name":"highestBidder","outputs":[{"internalType":"address","name":"","type":"address"}],"stateMutability":"view","type":"function"},{"inputs":[],"name":"manager","outputs":[{"internalType":"address","name":"","type":"address"}],"stateMutability":"view","type":"function"},{"inputs":[],"name":"minimumContribution","outputs":[{"internalType":"uint256","name":"","type":"uint256"}],"stateMutability":"view","type":"function"},{"inputs":[],"name":"paySeller","outputs":[],"stateMutability":"nonpayable","type":"function"},{"inputs":[],"name":"refundsProcessed","outputs":[{"internalType":"bool","name":"","type":"bool"}],"stateMutability":"view","type":"function"},{"inputs":[],"name":"sellerPaid","outputs":[{"internalType":"bool","name":"","type":"bool"}],"stateMutability":"view","type":"function"},{"inputs":[{"internalType":"address","name":"_address","type":"address"}],"name":"toLower","outputs":[{"internalType":"address","name":"","type":"address"}],"stateMutability":"pure","type":"function"},{"inputs":[{"internalType":"uint256","name":"","type":"uint256"}],"name":"transactions","outputs":[{"internalType":"uint256","name":"value","type":"uint256"},{"internalType":"uint256","name":"time","type":"uint256"},{"internalType":"address","name":"sellerAddress","type":"address"}],"stateMutability":"view","type":"function"},{"inputs":[{"internalType":"address payable","name":"_address","type":"address"}],"name":"withdrawBid","outputs":[],"stateMutability":"nonpayable","type":"function"}],"devdoc":{"kind":"dev","methods":{},"version":1},"evm":{"assembly":"    /* \"Campaign.sol\":1648:7688  contract Campaign {... */\n  mstore(0x40, 0x80)\n    /* \"Campaign.sol\":2607:3091  constructor(... */\n  callvalue\n  dup1\n  iszero\n  tag_1\n  jumpi\n  revert(0x00, 0x00)\ntag_1:\n  pop\n  mload(0x40)\n  sub(codesize, bytecodeSize)\n  dup1\n  bytecodeSize\n  dup4\n  codecopy\n  dup2\n  dup2\n  add\n  0x40\n  mstore\n  dup2\n  add\n  swap1\n  tag_2\n  swap2\n  swap1\n  tag_3\n  jump\t// in\ntag_2:\n    /* \"Campaign.sol\":2812:2819  creator */\n  dup2\n    /* \"Campaign.sol\":2802:2809  manager */\n  0x01\n  0x00\n    /* \"Campaign.sol\":2802:2819  manager = creator */\n  0x0100\n  exp\n  dup2\n  sload\n  dup2\n  0xffffffffffffffffffffffffffffffffffffffff\n  mul\n  not\n  and\n  swap1\n  dup4\n  0xffffffffffffffffffffffffffffffffffffffff\n  and\n  mul\n  or\n  swap1\n  sstore\n  pop\n    /* \"Campaign.sol\":2852:2859  minimum */\n  dup5\n    /* \"Campaign.sol\":2830:2849  minimumContribution */\n  0x02\n    /* \"Campaign.sol\":2830:2859  minimumContribution = minimum */\n  dup2\n  swap1\n  sstore\n  pop\n    /* \"Campaign.sol\":2884:2892  dataSell */\n  dup4\n    /* \"Campaign.sol\":2870:2881  dataForSell */\n  0x03\n    /* \"Campaign.sol\":2870:2892  dataForSell = dataSell */\n  swap1\n  dup2\n  tag_6\n  swap2\n  swap1\n  tag_7\n  jump\t// in\ntag_6:\n  pop\n    /* \"Campaign.sol\":2921:2929  dataDesc */\n  dup3\n    /* \"Campaign.sol\":2903:2918  dataDescription */\n  0x04\n    /* \"Campaign.sol\":2903:2929  dataDescription = dataDesc */\n  swap1\n  dup2\n  tag_8\n  swap2\n  swap1\n  tag_7\n  jump\t// in\ntag_8:\n  pop\n    /* \"Campaign.sol\":2950:2957  endtime */\n  dup1\n    /* \"Campaign.sol\":2940:2947  endTime */\n  0x0b\n    /* \"Campaign.sol\":2940:2957  endTime = endtime */\n  dup2\n  swap1\n  sstore\n  pop\n    /* \"Campaign.sol\":2977:2982  false */\n  0x00\n    /* \"Campaign.sol\":2968:2974  closed */\n  0x0c\n  0x00\n    /* \"Campaign.sol\":2968:2982  closed = false */\n  0x0100\n  exp\n  dup2\n  sload\n  dup2\n  0xff\n  mul\n  not\n  and\n  swap1\n  dup4\n  iszero\n  iszero\n  mul\n  or\n  swap1\n  sstore\n  pop\n    /* \"Campaign.sol\":3012:3017  false */\n  0x00\n    /* \"Campaign.sol\":2993:3009  refundsProcessed */\n  0x0c\n  0x01\n    /* \"Campaign.sol\":2993:3017  refundsProcessed = false */\n  0x0100\n  exp\n  dup2\n  sload\n  dup2\n  0xff\n  mul\n  not\n  and\n  swap1\n  dup4\n  iszero\n  iszero\n  mul\n  or\n  swap1\n  sstore\n  pop\n    /* \"Campaign.sol\":3041:3046  false */\n  0x00\n    /* \"Campaign.sol\":3028:3038  sellerPaid */\n  0x0c\n  0x02\n    /* \"Campaign.sol\":3028:3046  sellerPaid = false */\n  0x0100\n  exp\n  dup2\n  sload\n  dup2\n  0xff\n  mul\n  not\n  and\n  swap1\n  dup4\n  iszero\n  iszero\n  mul\n  or\n  swap1\n  sstore\n  pop\n    /* \"Campaign.sol\":2607:3091  constructor(... */\n  pop\n  pop\n  pop\n  pop\n  pop\n    /* \"Campaign.sol\":1648:7688  contract Campaign {... */\n  jump(tag_9)\n    /* \"#utility.yul\":7:82   */\ntag_10:\n    /* \"#utility.yul\":40:46   */\n  0x00\n    /* \"#utility.yul\":73:75   */\n  0x40\n    /* \"#utility.yul\":67:76   */\n  mload\n    /* \"#utility.yul\":57:76   */\n  swap1\n  pop\n    /* \"#utility.yul\":7:82   */\n  swap1\n  jump\t// out\n    /* \"#utility.yul\":88:205   */\ntag_11:\n    /* \"#utility.yul\":197:198   */\n  0x00\n    /* \"#utility.yul\":194:195   */\n  0x00\n    /* \"#utility.yul\":187:199   */\n  revert\n    /* \"#utility.yul\":211:328   */\ntag_12:\n    /* \"#utility.yul\":320:321   */\n  0x00\n    /* \"#utility.yul\":317:318   */\n  0x00\n    /* \"#utility.yul\":310:322   */\n  revert\n    /* \"#utility.yul\":334:411   */\ntag_13:\n    /* \"#utility.yul\":371:378   */\n  0x00\n    /* \"#utility.yul\":400:405   */\n  dup2\n    /* \"#utility.yul\":389:405   */\n  swap1\n  pop\n    /* \"#utility.yul\":334:411   */\n  swap2\n  swap1\n  pop\n  jump\t// out\n    /* \"#utility.yul\":417:539   */\ntag_14:\n    /* \"#utility.yul\":490:514   */\n  tag_54\n    /* \"#utility.yul\":508:513   */\n  dup2\n    /* \"#utility.yul\":490:514   */\n  tag_13\n  jump\t// in\ntag_54:\n    /* \"#utility.yul\":483:488   */\n  dup2\n    /* \"#utility.yul\":480:515   */\n  eq\n    /* \"#utility.yul\":470:533   */\n  tag_55\n  jumpi\n    /* \"#utility.yul\":529:530   */\n  0x00\n    /* \"#utility.yul\":526:527   */\n  0x00\n    /* \"#utility.yul\":519:531   */\n  revert\n    /* \"#utility.yul\":470:533   */\ntag_55:\n    /* \"#utility.yul\":417:539   */\n  pop\n  jump\t// out\n    /* \"#utility.yul\":545:688   */\ntag_15:\n    /* \"#utility.yul\":602:607   */\n  0x00\n    /* \"#utility.yul\":633:639   */\n  dup2\n    /* \"#utility.yul\":627:640   */\n  mload\n    /* \"#utility.yul\":618:640   */\n  swap1\n  pop\n    /* \"#utility.yul\":649:682   */\n  tag_57\n    /* \"#utility.yul\":676:681   */\n  dup2\n    /* \"#utility.yul\":649:682   */\n  tag_14\n  jump\t// in\ntag_57:\n    /* \"#utility.yul\":545:688   */\n  swap3\n  swap2\n  pop\n  pop\n  jump\t// out\n    /* \"#utility.yul\":694:811   */\ntag_16:\n    /* \"#utility.yul\":803:804   */\n  0x00\n    /* \"#utility.yul\":800:801   */\n  0x00\n    /* \"#utility.yul\":793:805   */\n  revert\n    /* \"#utility.yul\":817:934   */\ntag_17:\n    /* \"#utility.yul\":926:927   */\n  0x00\n    /* \"#utility.yul\":923:924   */\n  0x00\n    /* \"#utility.yul\":916:928   */\n  revert\n    /* \"#utility.yul\":940:1042   */\ntag_18:\n    /* \"#utility.yul\":981:987   */\n  0x00\n    /* \"#utility.yul\":1032:1034   */\n  0x1f\n    /* \"#utility.yul\":1028:1035   */\n  not\n    /* \"#utility.yul\":1023:1025   */\n  0x1f\n    /* \"#utility.yul\":1016:1021   */\n  dup4\n    /* \"#utility.yul\":1012:1026   */\n  add\n    /* \"#utility.yul\":1008:1036   */\n  and\n    /* \"#utility.yul\":998:1036   */\n  swap1\n  pop\n    /* \"#utility.yul\":940:1042   */\n  swap2\n  swap1\n  pop\n  jump\t// out\n    /* \"#utility.yul\":1048:1228   */\ntag_19:\n    /* \"#utility.yul\":1096:1173   */\n  0x4e487b7100000000000000000000000000000000000000000000000000000000\n    /* \"#utility.yul\":1093:1094   */\n  0x00\n    /* \"#utility.yul\":1086:1174   */\n  mstore\n    /* \"#utility.yul\":1193:1197   */\n  0x41\n    /* \"#utility.yul\":1190:1191   */\n  0x04\n    /* \"#utility.yul\":1183:1198   */\n  mstore\n    /* \"#utility.yul\":1217:1221   */\n  0x24\n    /* \"#utility.yul\":1214:1215   */\n  0x00\n    /* \"#utility.yul\":1207:1222   */\n  revert\n    /* \"#utility.yul\":1234:1515   */\ntag_20:\n    /* \"#utility.yul\":1317:1344   */\n  tag_63\n    /* \"#utility.yul\":1339:1343   */\n  dup3\n    /* \"#utility.yul\":1317:1344   */\n  tag_18\n  jump\t// in\ntag_63:\n    /* \"#utility.yul\":1309:1315   */\n  dup2\n    /* \"#utility.yul\":1305:1345   */\n  add\n    /* \"#utility.yul\":1447:1453   */\n  dup2\n    /* \"#utility.yul\":1435:1445   */\n  dup2\n    /* \"#utility.yul\":1432:1454   */\n  lt\n    /* \"#utility.yul\":1411:1429   */\n  0xffffffffffffffff\n    /* \"#utility.yul\":1399:1409   */\n  dup3\n    /* \"#utility.yul\":1396:1430   */\n  gt\n    /* \"#utility.yul\":1393:1455   */\n  or\n    /* \"#utility.yul\":1390:1478   */\n  iszero\n  tag_64\n  jumpi\n    /* \"#utility.yul\":1458:1476   */\n  tag_65\n  tag_19\n  jump\t// in\ntag_65:\n    /* \"#utility.yul\":1390:1478   */\ntag_64:\n    /* \"#utility.yul\":1498:1508   */\n  dup1\n    /* \"#utility.yul\":1494:1496   */\n  0x40\n    /* \"#utility.yul\":1487:1509   */\n  mstore\n    /* \"#utility.yul\":1277:1515   */\n  pop\n    /* \"#utility.yul\":1234:1515   */\n  pop\n  pop\n  jump\t// out\n    /* \"#utility.yul\":1521:1650   */\ntag_21:\n    /* \"#utility.yul\":1555:1561   */\n  0x00\n    /* \"#utility.yul\":1582:1602   */\n  tag_67\n  tag_10\n  jump\t// in\ntag_67:\n    /* \"#utility.yul\":1572:1602   */\n  swap1\n  pop\n    /* \"#utility.yul\":1611:1644   */\n  tag_68\n    /* \"#utility.yul\":1639:1643   */\n  dup3\n    /* \"#utility.yul\":1631:1637   */\n  dup3\n    /* \"#utility.yul\":1611:1644   */\n  tag_20\n  jump\t// in\ntag_68:\n    /* \"#utility.yul\":1521:1650   */\n  swap2\n  swap1\n  pop\n  jump\t// out\n    /* \"#utility.yul\":1656:1964   */\ntag_22:\n    /* \"#utility.yul\":1718:1722   */\n  0x00\n    /* \"#utility.yul\":1808:1826   */\n  0xffffffffffffffff\n    /* \"#utility.yul\":1800:1806   */\n  dup3\n    /* \"#utility.yul\":1797:1827   */\n  gt\n    /* \"#utility.yul\":1794:1850   */\n  iszero\n  tag_70\n  jumpi\n    /* \"#utility.yul\":1830:1848   */\n  tag_71\n  tag_19\n  jump\t// in\ntag_71:\n    /* \"#utility.yul\":1794:1850   */\ntag_70:\n    /* \"#utility.yul\":1868:1897   */\n  tag_72\n    /* \"#utility.yul\":1890:1896   */\n  dup3\n    /* \"#utility.yul\":1868:1897   */\n  tag_18\n  jump\t// in\ntag_72:\n    /* \"#utility.yul\":1860:1897   */\n  swap1\n  pop\n    /* \"#utility.yul\":1952:1956   */\n  0x20\n    /* \"#utility.yul\":1946:1950   */\n  dup2\n    /* \"#utility.yul\":1942:1957   */\n  add\n    /* \"#utility.yul\":1934:1957   */\n  swap1\n  pop\n    /* \"#utility.yul\":1656:1964   */\n  swap2\n  swap1\n  pop\n  jump\t// out\n    /* \"#utility.yul\":1970:2109   */\ntag_23:\n    /* \"#utility.yul\":2059:2065   */\n  dup3\n    /* \"#utility.yul\":2054:2057   */\n  dup2\n    /* \"#utility.yul\":2049:2052   */\n  dup4\n    /* \"#utility.yul\":2043:2066   */\n  mcopy\n    /* \"#utility.yul\":2100:2101   */\n  0x00\n    /* \"#utility.yul\":2091:2097   */\n  dup4\n    /* \"#utility.yul\":2086:2089   */\n  dup4\n    /* \"#utility.yul\":2082:2098   */\n  add\n    /* \"#utility.yul\":2075:2102   */\n  mstore\n    /* \"#utility.yul\":1970:2109   */\n  pop\n  pop\n  pop\n  jump\t// out\n    /* \"#utility.yul\":2115:2549   */\ntag_24:\n    /* \"#utility.yul\":2204:2209   */\n  0x00\n    /* \"#utility.yul\":2229:2295   */\n  tag_75\n    /* \"#utility.yul\":2245:2294   */\n  tag_76\n    /* \"#utility.yul\":2287:2293   */\n  dup5\n    /* \"#utility.yul\":2245:2294   */\n  tag_22\n  jump\t// in\ntag_76:\n    /* \"#utility.yul\":2229:2295   */\n  tag_21\n  jump\t// in\ntag_75:\n    /* \"#utility.yul\":2220:2295   */\n  swap1\n  pop\n    /* \"#utility.yul\":2318:2324   */\n  dup3\n    /* \"#utility.yul\":2311:2316   */\n  dup2\n    /* \"#utility.yul\":2304:2325   */\n  mstore\n    /* \"#utility.yul\":2356:2360   */\n  0x20\n    /* \"#utility.yul\":2349:2354   */\n  dup2\n    /* \"#utility.yul\":2345:2361   */\n  add\n    /* \"#utility.yul\":2394:2397   */\n  dup5\n    /* \"#utility.yul\":2385:2391   */\n  dup5\n    /* \"#utility.yul\":2380:2383   */\n  dup5\n    /* \"#utility.yul\":2376:2392   */\n  add\n    /* \"#utility.yul\":2373:2398   */\n  gt\n    /* \"#utility.yul\":2370:2482   */\n  iszero\n  tag_77\n  jumpi\n    /* \"#utility.yul\":2401:2480   */\n  tag_78\n  tag_17\n  jump\t// in\ntag_78:\n    /* \"#utility.yul\":2370:2482   */\ntag_77:\n    /* \"#utility.yul\":2491:2543   */\n  tag_79\n    /* \"#utility.yul\":2536:2542   */\n  dup5\n    /* \"#utility.yul\":2531:2534   */\n  dup3\n    /* \"#utility.yul\":2526:2529   */\n  dup6\n    /* \"#utility.yul\":2491:2543   */\n  tag_23\n  jump\t// in\ntag_79:\n    /* \"#utility.yul\":2210:2549   */\n  pop\n    /* \"#utility.yul\":2115:2549   */\n  swap4\n  swap3\n  pop\n  pop\n  pop\n  jump\t// out\n    /* \"#utility.yul\":2569:2924   */\ntag_25:\n    /* \"#utility.yul\":2636:2641   */\n  0x00\n    /* \"#utility.yul\":2685:2688   */\n  dup3\n    /* \"#utility.yul\":2678:2682   */\n  0x1f\n    /* \"#utility.yul\":2670:2676   */\n  dup4\n    /* \"#utility.yul\":2666:2683   */\n  add\n    /* \"#utility.yul\":2662:2689   */\n  slt\n    /* \"#utility.yul\":2652:2774   */\n  tag_81\n  jumpi\n    /* \"#utility.yul\":2693:2772   */\n  tag_82\n  tag_16\n  jump\t// in\ntag_82:\n    /* \"#utility.yul\":2652:2774   */\ntag_81:\n    /* \"#utility.yul\":2803:2809   */\n  dup2\n    /* \"#utility.yul\":2797:2810   */\n  mload\n    /* \"#utility.yul\":2828:2918   */\n  tag_83\n    /* \"#utility.yul\":2914:2917   */\n  dup5\n    /* \"#utility.yul\":2906:2912   */\n  dup3\n    /* \"#utility.yul\":2899:2903   */\n  0x20\n    /* \"#utility.yul\":2891:2897   */\n  dup7\n    /* \"#utility.yul\":2887:2904   */\n  add\n    /* \"#utility.yul\":2828:2918   */\n  tag_24\n  jump\t// in\ntag_83:\n    /* \"#utility.yul\":2819:2918   */\n  swap2\n  pop\n    /* \"#utility.yul\":2642:2924   */\n  pop\n    /* \"#utility.yul\":2569:2924   */\n  swap3\n  swap2\n  pop\n  pop\n  jump\t// out\n    /* \"#utility.yul\":2930:3056   */\ntag_26:\n    /* \"#utility.yul\":2967:2974   */\n  0x00\n    /* \"#utility.yul\":3007:3049   */\n  0xffffffffffffffffffffffffffffffffffffffff\n    /* \"#utility.yul\":3000:3005   */\n  dup3\n    /* \"#utility.yul\":2996:3050   */\n  and\n    /* \"#utility.yul\":2985:3050   */\n  swap1\n  pop\n    /* \"#utility.yul\":2930:3056   */\n  swap2\n  swap1\n  pop\n  jump\t// out\n    /* \"#utility.yul\":3062:3158   */\ntag_27:\n    /* \"#utility.yul\":3099:3106   */\n  0x00\n    /* \"#utility.yul\":3128:3152   */\n  tag_86\n    /* \"#utility.yul\":3146:3151   */\n  dup3\n    /* \"#utility.yul\":3128:3152   */\n  tag_26\n  jump\t// in\ntag_86:\n    /* \"#utility.yul\":3117:3152   */\n  swap1\n  pop\n    /* \"#utility.yul\":3062:3158   */\n  swap2\n  swap1\n  pop\n  jump\t// out\n    /* \"#utility.yul\":3164:3286   */\ntag_28:\n    /* \"#utility.yul\":3237:3261   */\n  tag_88\n    /* \"#utility.yul\":3255:3260   */\n  dup2\n    /* \"#utility.yul\":3237:3261   */\n  tag_27\n  jump\t// in\ntag_88:\n    /* \"#utility.yul\":3230:3235   */\n  dup2\n    /* \"#utility.yul\":3227:3262   */\n  eq\n    /* \"#utility.yul\":3217:3280   */\n  tag_89\n  jumpi\n    /* \"#utility.yul\":3276:3277   */\n  0x00\n    /* \"#utility.yul\":3273:3274   */\n  0x00\n    /* \"#utility.yul\":3266:3278   */\n  revert\n    /* \"#utility.yul\":3217:3280   */\ntag_89:\n    /* \"#utility.yul\":3164:3286   */\n  pop\n  jump\t// out\n    /* \"#utility.yul\":3292:3435   */\ntag_29:\n    /* \"#utility.yul\":3349:3354   */\n  0x00\n    /* \"#utility.yul\":3380:3386   */\n  dup2\n    /* \"#utility.yul\":3374:3387   */\n  mload\n    /* \"#utility.yul\":3365:3387   */\n  swap1\n  pop\n    /* \"#utility.yul\":3396:3429   */\n  tag_91\n    /* \"#utility.yul\":3423:3428   */\n  dup2\n    /* \"#utility.yul\":3396:3429   */\n  tag_28\n  jump\t// in\ntag_91:\n    /* \"#utility.yul\":3292:3435   */\n  swap3\n  swap2\n  pop\n  pop\n  jump\t// out\n    /* \"#utility.yul\":3441:4764   */\ntag_3:\n    /* \"#utility.yul\":3567:3573   */\n  0x00\n    /* \"#utility.yul\":3575:3581   */\n  0x00\n    /* \"#utility.yul\":3583:3589   */\n  0x00\n    /* \"#utility.yul\":3591:3597   */\n  0x00\n    /* \"#utility.yul\":3599:3605   */\n  0x00\n    /* \"#utility.yul\":3648:3651   */\n  0xa0\n    /* \"#utility.yul\":3636:3645   */\n  dup7\n    /* \"#utility.yul\":3627:3634   */\n  dup9\n    /* \"#utility.yul\":3623:3646   */\n  sub\n    /* \"#utility.yul\":3619:3652   */\n  slt\n    /* \"#utility.yul\":3616:3736   */\n  iszero\n  tag_93\n  jumpi\n    /* \"#utility.yul\":3655:3734   */\n  tag_94\n  tag_11\n  jump\t// in\ntag_94:\n    /* \"#utility.yul\":3616:3736   */\ntag_93:\n    /* \"#utility.yul\":3775:3776   */\n  0x00\n    /* \"#utility.yul\":3800:3864   */\n  tag_95\n    /* \"#utility.yul\":3856:3863   */\n  dup9\n    /* \"#utility.yul\":3847:3853   */\n  dup3\n    /* \"#utility.yul\":3836:3845   */\n  dup10\n    /* \"#utility.yul\":3832:3854   */\n  add\n    /* \"#utility.yul\":3800:3864   */\n  tag_15\n  jump\t// in\ntag_95:\n    /* \"#utility.yul\":3790:3864   */\n  swap6\n  pop\n    /* \"#utility.yul\":3746:3874   */\n  pop\n    /* \"#utility.yul\":3934:3936   */\n  0x20\n    /* \"#utility.yul\":3923:3932   */\n  dup7\n    /* \"#utility.yul\":3919:3937   */\n  add\n    /* \"#utility.yul\":3913:3938   */\n  mload\n    /* \"#utility.yul\":3965:3983   */\n  0xffffffffffffffff\n    /* \"#utility.yul\":3957:3963   */\n  dup2\n    /* \"#utility.yul\":3954:3984   */\n  gt\n    /* \"#utility.yul\":3951:4068   */\n  iszero\n  tag_96\n  jumpi\n    /* \"#utility.yul\":3987:4066   */\n  tag_97\n  tag_12\n  jump\t// in\ntag_97:\n    /* \"#utility.yul\":3951:4068   */\ntag_96:\n    /* \"#utility.yul\":4092:4166   */\n  tag_98\n    /* \"#utility.yul\":4158:4165   */\n  dup9\n    /* \"#utility.yul\":4149:4155   */\n  dup3\n    /* \"#utility.yul\":4138:4147   */\n  dup10\n    /* \"#utility.yul\":4134:4156   */\n  add\n    /* \"#utility.yul\":4092:4166   */\n  tag_25\n  jump\t// in\ntag_98:\n    /* \"#utility.yul\":4082:4166   */\n  swap5\n  pop\n    /* \"#utility.yul\":3884:4176   */\n  pop\n    /* \"#utility.yul\":4236:4238   */\n  0x40\n    /* \"#utility.yul\":4225:4234   */\n  dup7\n    /* \"#utility.yul\":4221:4239   */\n  add\n    /* \"#utility.yul\":4215:4240   */\n  mload\n    /* \"#utility.yul\":4267:4285   */\n  0xffffffffffffffff\n    /* \"#utility.yul\":4259:4265   */\n  dup2\n    /* \"#utility.yul\":4256:4286   */\n  gt\n    /* \"#utility.yul\":4253:4370   */\n  iszero\n  tag_99\n  jumpi\n    /* \"#utility.yul\":4289:4368   */\n  tag_100\n  tag_12\n  jump\t// in\ntag_100:\n    /* \"#utility.yul\":4253:4370   */\ntag_99:\n    /* \"#utility.yul\":4394:4468   */\n  tag_101\n    /* \"#utility.yul\":4460:4467   */\n  dup9\n    /* \"#utility.yul\":4451:4457   */\n  dup3\n    /* \"#utility.yul\":4440:4449   */\n  dup10\n    /* \"#utility.yul\":4436:4458   */\n  add\n    /* \"#utility.yul\":4394:4468   */\n  tag_25\n  jump\t// in\ntag_101:\n    /* \"#utility.yul\":4384:4468   */\n  swap4\n  pop\n    /* \"#utility.yul\":4186:4478   */\n  pop\n    /* \"#utility.yul\":4517:4519   */\n  0x60\n    /* \"#utility.yul\":4543:4607   */\n  tag_102\n    /* \"#utility.yul\":4599:4606   */\n  dup9\n    /* \"#utility.yul\":4590:4596   */\n  dup3\n    /* \"#utility.yul\":4579:4588   */\n  dup10\n    /* \"#utility.yul\":4575:4597   */\n  add\n    /* \"#utility.yul\":4543:4607   */\n  tag_29\n  jump\t// in\ntag_102:\n    /* \"#utility.yul\":4533:4607   */\n  swap3\n  pop\n    /* \"#utility.yul\":4488:4617   */\n  pop\n    /* \"#utility.yul\":4656:4659   */\n  0x80\n    /* \"#utility.yul\":4683:4747   */\n  tag_103\n    /* \"#utility.yul\":4739:4746   */\n  dup9\n    /* \"#utility.yul\":4730:4736   */\n  dup3\n    /* \"#utility.yul\":4719:4728   */\n  dup10\n    /* \"#utility.yul\":4715:4737   */\n  add\n    /* \"#utility.yul\":4683:4747   */\n  tag_15\n  jump\t// in\ntag_103:\n    /* \"#utility.yul\":4673:4747   */\n  swap2\n  pop\n    /* \"#utility.yul\":4627:4757   */\n  pop\n    /* \"#utility.yul\":3441:4764   */\n  swap3\n  swap6\n  pop\n  swap3\n  swap6\n  swap1\n  swap4\n  pop\n  jump\t// out\n    /* \"#utility.yul\":4770:4869   */\ntag_30:\n    /* \"#utility.yul\":4822:4828   */\n  0x00\n    /* \"#utility.yul\":4856:4861   */\n  dup2\n    /* \"#utility.yul\":4850:4862   */\n  mload\n    /* \"#utility.yul\":4840:4862   */\n  swap1\n  pop\n    /* \"#utility.yul\":4770:4869   */\n  swap2\n  swap1\n  pop\n  jump\t// out\n    /* \"#utility.yul\":4875:5055   */\ntag_31:\n    /* \"#utility.yul\":4923:5000   */\n  0x4e487b7100000000000000000000000000000000000000000000000000000000\n    /* \"#utility.yul\":4920:4921   */\n  0x00\n    /* \"#utility.yul\":4913:5001   */\n  mstore\n    /* \"#utility.yul\":5020:5024   */\n  0x22\n    /* \"#utility.yul\":5017:5018   */\n  0x04\n    /* \"#utility.yul\":5010:5025   */\n  mstore\n    /* \"#utility.yul\":5044:5048   */\n  0x24\n    /* \"#utility.yul\":5041:5042   */\n  0x00\n    /* \"#utility.yul\":5034:5049   */\n  revert\n    /* \"#utility.yul\":5061:5381   */\ntag_32:\n    /* \"#utility.yul\":5105:5111   */\n  0x00\n    /* \"#utility.yul\":5142:5143   */\n  0x02\n    /* \"#utility.yul\":5136:5140   */\n  dup3\n    /* \"#utility.yul\":5132:5144   */\n  div\n    /* \"#utility.yul\":5122:5144   */\n  swap1\n  pop\n    /* \"#utility.yul\":5189:5190   */\n  0x01\n    /* \"#utility.yul\":5183:5187   */\n  dup3\n    /* \"#utility.yul\":5179:5191   */\n  and\n    /* \"#utility.yul\":5210:5228   */\n  dup1\n    /* \"#utility.yul\":5200:5281   */\n  tag_107\n  jumpi\n    /* \"#utility.yul\":5266:5270   */\n  0x7f\n    /* \"#utility.yul\":5258:5264   */\n  dup3\n    /* \"#utility.yul\":5254:5271   */\n  and\n    /* \"#utility.yul\":5244:5271   */\n  swap2\n  pop\n    /* \"#utility.yul\":5200:5281   */\ntag_107:\n    /* \"#utility.yul\":5328:5330   */\n  0x20\n    /* \"#utility.yul\":5320:5326   */\n  dup3\n    /* \"#utility.yul\":5317:5331   */\n  lt\n    /* \"#utility.yul\":5297:5315   */\n  dup2\n    /* \"#utility.yul\":5294:5332   */\n  sub\n    /* \"#utility.yul\":5291:5375   */\n  tag_108\n  jumpi\n    /* \"#utility.yul\":5347:5365   */\n  tag_109\n  tag_31\n  jump\t// in\ntag_109:\n    /* \"#utility.yul\":5291:5375   */\ntag_108:\n    /* \"#utility.yul\":5112:5381   */\n  pop\n    /* \"#utility.yul\":5061:5381   */\n  swap2\n  swap1\n  pop\n  jump\t// out\n    /* \"#utility.yul\":5387:5528   */\ntag_33:\n    /* \"#utility.yul\":5436:5440   */\n  0x00\n    /* \"#utility.yul\":5459:5462   */\n  dup2\n    /* \"#utility.yul\":5451:5462   */\n  swap1\n  pop\n    /* \"#utility.yul\":5482:5485   */\n  dup2\n    /* \"#utility.yul\":5479:5480   */\n  0x00\n    /* \"#utility.yul\":5472:5486   */\n  mstore\n    /* \"#utility.yul\":5516:5520   */\n  0x20\n    /* \"#utility.yul\":5513:5514   */\n  0x00\n    /* \"#utility.yul\":5503:5521   */\n  keccak256\n    /* \"#utility.yul\":5495:5521   */\n  swap1\n  pop\n    /* \"#utility.yul\":5387:5528   */\n  swap2\n  swap1\n  pop\n  jump\t// out\n    /* \"#utility.yul\":5534:5627   */\ntag_34:\n    /* \"#utility.yul\":5571:5577   */\n  0x00\n    /* \"#utility.yul\":5618:5620   */\n  0x20\n    /* \"#utility.yul\":5613:5615   */\n  0x1f\n    /* \"#utility.yul\":5606:5611   */\n  dup4\n    /* \"#utility.yul\":5602:5616   */\n  add\n    /* \"#utility.yul\":5598:5621   */\n  div\n    /* \"#utility.yul\":5588:5621   */\n  swap1\n  pop\n    /* \"#utility.yul\":5534:5627   */\n  swap2\n  swap1\n  pop\n  jump\t// out\n    /* \"#utility.yul\":5633:5740   */\ntag_35:\n    /* \"#utility.yul\":5677:5685   */\n  0x00\n    /* \"#utility.yul\":5727:5732   */\n  dup3\n    /* \"#utility.yul\":5721:5725   */\n  dup3\n    /* \"#utility.yul\":5717:5733   */\n  shl\n    /* \"#utility.yul\":5696:5733   */\n  swap1\n  pop\n    /* \"#utility.yul\":5633:5740   */\n  swap3\n  swap2\n  pop\n  pop\n  jump\t// out\n    /* \"#utility.yul\":5746:6139   */\ntag_36:\n    /* \"#utility.yul\":5815:5821   */\n  0x00\n    /* \"#utility.yul\":5865:5866   */\n  0x08\n    /* \"#utility.yul\":5853:5863   */\n  dup4\n    /* \"#utility.yul\":5849:5867   */\n  mul\n    /* \"#utility.yul\":5888:5985   */\n  tag_114\n    /* \"#utility.yul\":5918:5984   */\n  0xffffffffffffffffffffffffffffffffffffffffffffffffffffffffffffffff\n    /* \"#utility.yul\":5907:5916   */\n  dup3\n    /* \"#utility.yul\":5888:5985   */\n  tag_35\n  jump\t// in\ntag_114:\n    /* \"#utility.yul\":6006:6045   */\n  tag_115\n    /* \"#utility.yul\":6036:6044   */\n  dup7\n    /* \"#utility.yul\":6025:6034   */\n  dup4\n    /* \"#utility.yul\":6006:6045   */\n  tag_35\n  jump\t// in\ntag_115:\n    /* \"#utility.yul\":5994:6045   */\n  swap6\n  pop\n    /* \"#utility.yul\":6078:6082   */\n  dup1\n    /* \"#utility.yul\":6074:6083   */\n  not\n    /* \"#utility.yul\":6067:6072   */\n  dup5\n    /* \"#utility.yul\":6063:6084   */\n  and\n    /* \"#utility.yul\":6054:6084   */\n  swap4\n  pop\n    /* \"#utility.yul\":6127:6131   */\n  dup1\n    /* \"#utility.yul\":6117:6125   */\n  dup7\n    /* \"#utility.yul\":6113:6132   */\n  and\n    /* \"#utility.yul\":6106:6111   */\n  dup5\n    /* \"#utility.yul\":6103:6133   */\n  or\n    /* \"#utility.yul\":6093:6133   */\n  swap3\n  pop\n    /* \"#utility.yul\":5822:6139   */\n  pop\n  pop\n    /* \"#utility.yul\":5746:6139   */\n  swap4\n  swap3\n  pop\n  pop\n  pop\n  jump\t// out\n    /* \"#utility.yul\":6145:6205   */\ntag_37:\n    /* \"#utility.yul\":6173:6176   */\n  0x00\n    /* \"#utility.yul\":6194:6199   */\n  dup2\n    /* \"#utility.yul\":6187:6199   */\n  swap1\n  pop\n    /* \"#utility.yul\":6145:6205   */\n  swap2\n  swap1\n  pop\n  jump\t// out\n    /* \"#utility.yul\":6211:6353   */\ntag_38:\n    /* \"#utility.yul\":6261:6270   */\n  0x00\n    /* \"#utility.yul\":6294:6347   */\n  tag_118\n    /* \"#utility.yul\":6312:6346   */\n  tag_119\n    /* \"#utility.yul\":6321:6345   */\n  tag_120\n    /* \"#utility.yul\":6339:6344   */\n  dup5\n    /* \"#utility.yul\":6321:6345   */\n  tag_13\n  jump\t// in\ntag_120:\n    /* \"#utility.yul\":6312:6346   */\n  tag_37\n  jump\t// in\ntag_119:\n    /* \"#utility.yul\":6294:6347   */\n  tag_13\n  jump\t// in\ntag_118:\n    /* \"#utility.yul\":6281:6347   */\n  swap1\n  pop\n    /* \"#utility.yul\":6211:6353   */\n  swap2\n  swap1\n  pop\n  jump\t// out\n    /* \"#utility.yul\":6359:6434   */\ntag_39:\n    /* \"#utility.yul\":6402:6405   */\n  0x00\n    /* \"#utility.yul\":6423:6428   */\n  dup2\n    /* \"#utility.yul\":6416:6428   */\n  swap1\n  pop\n    /* \"#utility.yul\":6359:6434   */\n  swap2\n  swap1\n  pop\n  jump\t// out\n    /* \"#utility.yul\":6440:6709   */\ntag_40:\n    /* \"#utility.yul\":6550:6589   */\n  tag_123\n    /* \"#utility.yul\":6581:6588   */\n  dup4\n    /* \"#utility.yul\":6550:6589   */\n  tag_38\n  jump\t// in\ntag_123:\n    /* \"#utility.yul\":6611:6702   */\n  tag_124\n    /* \"#utility.yul\":6660:6701   */\n  tag_125\n    /* \"#utility.yul\":6684:6700   */\n  dup3\n    /* \"#utility.yul\":6660:6701   */\n  tag_39\n  jump\t// in\ntag_125:\n    /* \"#utility.yul\":6652:6658   */\n  dup5\n    /* \"#utility.yul\":6645:6649   */\n  dup5\n    /* \"#utility.yul\":6639:6650   */\n  sload\n    /* \"#utility.yul\":6611:6702   */\n  tag_36\n  jump\t// in\ntag_124:\n    /* \"#utility.yul\":6605:6609   */\n  dup3\n    /* \"#utility.yul\":6598:6703   */\n  sstore\n    /* \"#utility.yul\":6516:6709   */\n  pop\n    /* \"#utility.yul\":6440:6709   */\n  pop\n  pop\n  pop\n  jump\t// out\n    /* \"#utility.yul\":6715:6788   */\ntag_41:\n    /* \"#utility.yul\":6760:6763   */\n  0x00\n    /* \"#utility.yul\":6781:6782   */\n  0x00\n    /* \"#utility.yul\":6774:6782   */\n  swap1\n  pop\n    /* \"#utility.yul\":6715:6788   */\n  swap1\n  jump\t// out\n    /* \"#utility.yul\":6794:6983   */\ntag_42:\n    /* \"#utility.yul\":6871:6903   */\n  tag_128\n  tag_41\n  jump\t// in\ntag_128:\n    /* \"#utility.yul\":6912:6977   */\n  tag_129\n    /* \"#utility.yul\":6970:6976   */\n  dup2\n    /* \"#utility.yul\":6962:6968   */\n  dup5\n    /* \"#utility.yul\":6956:6960   */\n  dup5\n    /* \"#utility.yul\":6912:6977   */\n  tag_40\n  jump\t// in\ntag_129:\n    /* \"#utility.yul\":6847:6983   */\n  pop\n    /* \"#utility.yul\":6794:6983   */\n  pop\n  pop\n  jump\t// out\n    /* \"#utility.yul\":6989:7175   */\ntag_43:\n    /* \"#utility.yul\":7049:7169   */\ntag_131:\n    /* \"#utility.yul\":7066:7069   */\n  dup2\n    /* \"#utility.yul\":7059:7064   */\n  dup2\n    /* \"#utility.yul\":7056:7070   */\n  lt\n    /* \"#utility.yul\":7049:7169   */\n  iszero\n  tag_133\n  jumpi\n    /* \"#utility.yul\":7120:7159   */\n  tag_134\n    /* \"#utility.yul\":7157:7158   */\n  0x00\n    /* \"#utility.yul\":7150:7155   */\n  dup3\n    /* \"#utility.yul\":7120:7159   */\n  tag_42\n  jump\t// in\ntag_134:\n    /* \"#utility.yul\":7093:7094   */\n  0x01\n    /* \"#utility.yul\":7086:7091   */\n  dup2\n    /* \"#utility.yul\":7082:7095   */\n  add\n    /* \"#utility.yul\":7073:7095   */\n  swap1\n  pop\n    /* \"#utility.yul\":7049:7169   */\n  jump(tag_131)\ntag_133:\n    /* \"#utility.yul\":6989:7175   */\n  pop\n  pop\n  jump\t// out\n    /* \"#utility.yul\":7181:7724   */\ntag_44:\n    /* \"#utility.yul\":7282:7284   */\n  0x1f\n    /* \"#utility.yul\":7277:7280   */\n  dup3\n    /* \"#utility.yul\":7274:7285   */\n  gt\n    /* \"#utility.yul\":7271:7717   */\n  iszero\n  tag_136\n  jumpi\n    /* \"#utility.yul\":7316:7354   */\n  tag_137\n    /* \"#utility.yul\":7348:7353   */\n  dup2\n    /* \"#utility.yul\":7316:7354   */\n  tag_33\n  jump\t// in\ntag_137:\n    /* \"#utility.yul\":7400:7429   */\n  tag_138\n    /* \"#utility.yul\":7418:7428   */\n  dup5\n    /* \"#utility.yul\":7400:7429   */\n  tag_34\n  jump\t// in\ntag_138:\n    /* \"#utility.yul\":7390:7398   */\n  dup2\n    /* \"#utility.yul\":7386:7430   */\n  add\n    /* \"#utility.yul\":7583:7585   */\n  0x20\n    /* \"#utility.yul\":7571:7581   */\n  dup6\n    /* \"#utility.yul\":7568:7586   */\n  lt\n    /* \"#utility.yul\":7565:7614   */\n  iszero\n  tag_139\n  jumpi\n    /* \"#utility.yul\":7604:7612   */\n  dup2\n    /* \"#utility.yul\":7589:7612   */\n  swap1\n  pop\n    /* \"#utility.yul\":7565:7614   */\ntag_139:\n    /* \"#utility.yul\":7627:7707   */\n  tag_140\n    /* \"#utility.yul\":7683:7705   */\n  tag_141\n    /* \"#utility.yul\":7701:7704   */\n  dup6\n    /* \"#utility.yul\":7683:7705   */\n  tag_34\n  jump\t// in\ntag_141:\n    /* \"#utility.yul\":7673:7681   */\n  dup4\n    /* \"#utility.yul\":7669:7706   */\n  add\n    /* \"#utility.yul\":7656:7667   */\n  dup3\n    /* \"#utility.yul\":7627:7707   */\n  tag_43\n  jump\t// in\ntag_140:\n    /* \"#utility.yul\":7286:7717   */\n  pop\n  pop\n    /* \"#utility.yul\":7271:7717   */\ntag_136:\n    /* \"#utility.yul\":7181:7724   */\n  pop\n  pop\n  pop\n  jump\t// out\n    /* \"#utility.yul\":7730:7847   */\ntag_45:\n    /* \"#utility.yul\":7784:7792   */\n  0x00\n    /* \"#utility.yul\":7834:7839   */\n  dup3\n    /* \"#utility.yul\":7828:7832   */\n  dup3\n    /* \"#utility.yul\":7824:7840   */\n  shr\n    /* \"#utility.yul\":7803:7840   */\n  swap1\n  pop\n    /* \"#utility.yul\":7730:7847   */\n  swap3\n  swap2\n  pop\n  pop\n  jump\t// out\n    /* \"#utility.yul\":7853:8022   */\ntag_46:\n    /* \"#utility.yul\":7897:7903   */\n  0x00\n    /* \"#utility.yul\":7930:7981   */\n  tag_144\n    /* \"#utility.yul\":7978:7979   */\n  0x00\n    /* \"#utility.yul\":7974:7980   */\n  not\n    /* \"#utility.yul\":7966:7971   */\n  dup5\n    /* \"#utility.yul\":7963:7964   */\n  0x08\n    /* \"#utility.yul\":7959:7972   */\n  mul\n    /* \"#utility.yul\":7930:7981   */\n  tag_45\n  jump\t// in\ntag_144:\n    /* \"#utility.yul\":7926:7982   */\n  not\n    /* \"#utility.yul\":8011:8015   */\n  dup1\n    /* \"#utility.yul\":8005:8009   */\n  dup4\n    /* \"#utility.yul\":8001:8016   */\n  and\n    /* \"#utility.yul\":7991:8016   */\n  swap2\n  pop\n    /* \"#utility.yul\":7904:8022   */\n  pop\n    /* \"#utility.yul\":7853:8022   */\n  swap3\n  swap2\n  pop\n  pop\n  jump\t// out\n    /* \"#utility.yul\":8027:8322   */\ntag_47:\n    /* \"#utility.yul\":8103:8107   */\n  0x00\n    /* \"#utility.yul\":8249:8278   */\n  tag_146\n    /* \"#utility.yul\":8274:8277   */\n  dup4\n    /* \"#utility.yul\":8268:8272   */\n  dup4\n    /* \"#utility.yul\":8249:8278   */\n  tag_46\n  jump\t// in\ntag_146:\n    /* \"#utility.yul\":8241:8278   */\n  swap2\n  pop\n    /* \"#utility.yul\":8311:8314   */\n  dup3\n    /* \"#utility.yul\":8308:8309   */\n  0x02\n    /* \"#utility.yul\":8304:8315   */\n  mul\n    /* \"#utility.yul\":8298:8302   */\n  dup3\n    /* \"#utility.yul\":8295:8316   */\n  or\n    /* \"#utility.yul\":8287:8316   */\n  swap1\n  pop\n    /* \"#utility.yul\":8027:8322   */\n  swap3\n  swap2\n  pop\n  pop\n  jump\t// out\n    /* \"#utility.yul\":8327:9722   */\ntag_7:\n    /* \"#utility.yul\":8444:8481   */\n  tag_148\n    /* \"#utility.yul\":8477:8480   */\n  dup3\n    /* \"#utility.yul\":8444:8481   */\n  tag_30\n  jump\t// in\ntag_148:\n    /* \"#utility.yul\":8546:8564   */\n  0xffffffffffffffff\n    /* \"#utility.yul\":8538:8544   */\n  dup2\n    /* \"#utility.yul\":8535:8565   */\n  gt\n    /* \"#utility.yul\":8532:8588   */\n  iszero\n  tag_149\n  jumpi\n    /* \"#utility.yul\":8568:8586   */\n  tag_150\n  tag_19\n  jump\t// in\ntag_150:\n    /* \"#utility.yul\":8532:8588   */\ntag_149:\n    /* \"#utility.yul\":8612:8650   */\n  tag_151\n    /* \"#utility.yul\":8644:8648   */\n  dup3\n    /* \"#utility.yul\":8638:8649   */\n  sload\n    /* \"#utility.yul\":8612:8650   */\n  tag_32\n  jump\t// in\ntag_151:\n    /* \"#utility.yul\":8697:8764   */\n  tag_152\n    /* \"#utility.yul\":8757:8763   */\n  dup3\n    /* \"#utility.yul\":8749:8755   */\n  dup3\n    /* \"#utility.yul\":8743:8747   */\n  dup6\n    /* \"#utility.yul\":8697:8764   */\n  tag_44\n  jump\t// in\ntag_152:\n    /* \"#utility.yul\":8791:8792   */\n  0x00\n    /* \"#utility.yul\":8815:8819   */\n  0x20\n    /* \"#utility.yul\":8802:8819   */\n  swap1\n  pop\n    /* \"#utility.yul\":8847:8849   */\n  0x1f\n    /* \"#utility.yul\":8839:8845   */\n  dup4\n    /* \"#utility.yul\":8836:8850   */\n  gt\n    /* \"#utility.yul\":8864:8865   */\n  0x01\n    /* \"#utility.yul\":8859:9477   */\n  dup2\n  eq\n  tag_154\n  jumpi\n    /* \"#utility.yul\":9521:9522   */\n  0x00\n    /* \"#utility.yul\":9538:9544   */\n  dup5\n    /* \"#utility.yul\":9535:9612   */\n  iszero\n  tag_155\n  jumpi\n    /* \"#utility.yul\":9587:9596   */\n  dup3\n    /* \"#utility.yul\":9582:9585   */\n  dup8\n    /* \"#utility.yul\":9578:9597   */\n  add\n    /* \"#utility.yul\":9572:9598   */\n  mload\n    /* \"#utility.yul\":9563:9598   */\n  swap1\n  pop\n    /* \"#utility.yul\":9535:9612   */\ntag_155:\n    /* \"#utility.yul\":9638:9705   */\n  tag_156\n    /* \"#utility.yul\":9698:9704   */\n  dup6\n    /* \"#utility.yul\":9691:9696   */\n  dup3\n    /* \"#utility.yul\":9638:9705   */\n  tag_47\n  jump\t// in\ntag_156:\n    /* \"#utility.yul\":9632:9636   */\n  dup7\n    /* \"#utility.yul\":9625:9706   */\n  sstore\n    /* \"#utility.yul\":9494:9716   */\n  pop\n    /* \"#utility.yul\":8829:9716   */\n  jump(tag_153)\n    /* \"#utility.yul\":8859:9477   */\ntag_154:\n    /* \"#utility.yul\":8911:8915   */\n  0x1f\n    /* \"#utility.yul\":8907:8916   */\n  not\n    /* \"#utility.yul\":8899:8905   */\n  dup5\n    /* \"#utility.yul\":8895:8917   */\n  and\n    /* \"#utility.yul\":8945:8982   */\n  tag_157\n    /* \"#utility.yul\":8977:8981   */\n  dup7\n    /* \"#utility.yul\":8945:8982   */\n  tag_33\n  jump\t// in\ntag_157:\n    /* \"#utility.yul\":9004:9005   */\n  0x00\n    /* \"#utility.yul\":9018:9226   */\ntag_158:\n    /* \"#utility.yul\":9032:9039   */\n  dup3\n    /* \"#utility.yul\":9029:9030   */\n  dup2\n    /* \"#utility.yul\":9026:9040   */\n  lt\n    /* \"#utility.yul\":9018:9226   */\n  iszero\n  tag_160\n  jumpi\n    /* \"#utility.yul\":9111:9120   */\n  dup5\n    /* \"#utility.yul\":9106:9109   */\n  dup10\n    /* \"#utility.yul\":9102:9121   */\n  add\n    /* \"#utility.yul\":9096:9122   */\n  mload\n    /* \"#utility.yul\":9088:9094   */\n  dup3\n    /* \"#utility.yul\":9081:9123   */\n  sstore\n    /* \"#utility.yul\":9162:9163   */\n  0x01\n    /* \"#utility.yul\":9154:9160   */\n  dup3\n    /* \"#utility.yul\":9150:9164   */\n  add\n    /* \"#utility.yul\":9140:9164   */\n  swap2\n  pop\n    /* \"#utility.yul\":9209:9211   */\n  0x20\n    /* \"#utility.yul\":9198:9207   */\n  dup6\n    /* \"#utility.yul\":9194:9212   */\n  add\n    /* \"#utility.yul\":9181:9212   */\n  swap5\n  pop\n    /* \"#utility.yul\":9055:9059   */\n  0x20\n    /* \"#utility.yul\":9052:9053   */\n  dup2\n    /* \"#utility.yul\":9048:9060   */\n  add\n    /* \"#utility.yul\":9043:9060   */\n  swap1\n  pop\n    /* \"#utility.yul\":9018:9226   */\n  jump(tag_158)\ntag_160:\n    /* \"#utility.yul\":9254:9260   */\n  dup7\n    /* \"#utility.yul\":9245:9252   */\n  dup4\n    /* \"#utility.yul\":9242:9261   */\n  lt\n    /* \"#utility.yul\":9239:9418   */\n  iszero\n  tag_161\n  jumpi\n    /* \"#utility.yul\":9312:9321   */\n  dup5\n    /* \"#utility.yul\":9307:9310   */\n  dup10\n    /* \"#utility.yul\":9303:9322   */\n  add\n    /* \"#utility.yul\":9297:9323   */\n  mload\n    /* \"#utility.yul\":9355:9403   */\n  tag_162\n    /* \"#utility.yul\":9397:9401   */\n  0x1f\n    /* \"#utility.yul\":9389:9395   */\n  dup10\n    /* \"#utility.yul\":9385:9402   */\n  and\n    /* \"#utility.yul\":9374:9383   */\n  dup3\n    /* \"#utility.yul\":9355:9403   */\n  tag_46\n  jump\t// in\ntag_162:\n    /* \"#utility.yul\":9347:9353   */\n  dup4\n    /* \"#utility.yul\":9340:9404   */\n  sstore\n    /* \"#utility.yul\":9262:9418   */\n  pop\n    /* \"#utility.yul\":9239:9418   */\ntag_161:\n    /* \"#utility.yul\":9464:9465   */\n  0x01\n    /* \"#utility.yul\":9460:9461   */\n  0x02\n    /* \"#utility.yul\":9452:9458   */\n  dup9\n    /* \"#utility.yul\":9448:9462   */\n  mul\n    /* \"#utility.yul\":9444:9466   */\n  add\n    /* \"#utility.yul\":9438:9442   */\n  dup9\n    /* \"#utility.yul\":9431:9467   */\n  sstore\n    /* \"#utility.yul\":8866:9477   */\n  pop\n  pop\n  pop\n    /* \"#utility.yul\":8829:9716   */\ntag_153:\n  pop\n    /* \"#utility.yul\":8419:9722   */\n  pop\n  pop\n  pop\n    /* \"#utility.yul\":8327:9722   */\n  pop\n  pop\n  jump\t// out\n    /* \"Campaign.sol\":1648:7688  contract Campaign {... */\ntag_9:\n  dataSize(sub_0)\n  dup1\n  dataOffset(sub_0)\n  0x00\n  codecopy\n  0x00\n  return\nstop\n\nsub_0: assembly {\n        /* \"Campaign.sol\":1648:7688  contract Campaign {... */\n      mstore(0x40, 0x80)\n      jumpi(tag_1, lt(calldatasize, 0x04))\n      shr(0xe0, calldataload(0x00))\n      dup1\n      0x82fde093\n      gt\n      tag_28\n      jumpi\n      dup1\n      0x9ace38c2\n      gt\n      tag_29\n      jumpi\n      dup1\n      0xc8b342ab\n      gt\n      tag_30\n      jumpi\n      dup1\n      0xc8b342ab\n      eq\n      tag_24\n      jumpi\n      dup1\n      0xd57bde79\n      eq\n      tag_25\n      jumpi\n      dup1\n      0xd7bb99ba\n      eq\n      tag_26\n      jumpi\n      dup1\n      0xedf26d9b\n      eq\n      tag_27\n      jumpi\n      jump(tag_1)\n    tag_30:\n      dup1\n      0x9ace38c2\n      eq\n      tag_21\n      jumpi\n      dup1\n      0xa0c97bce\n      eq\n      tag_22\n      jumpi\n      dup1\n      0xa39fac12\n      eq\n      tag_23\n      jumpi\n      jump(tag_1)\n    tag_29:\n      dup1\n      0x82fde093\n      eq\n      tag_15\n      jumpi\n      dup1\n      0x83920e90\n      eq\n      tag_16\n      jumpi\n      dup1\n      0x8d2a1dad\n      eq\n      tag_17\n      jumpi\n      dup1\n      0x91f90157\n      eq\n      tag_18\n      jumpi\n      dup1\n      0x937e09b1\n      eq\n      tag_19\n      jumpi\n      dup1\n      0x94073c25\n      eq\n      tag_20\n      jumpi\n      jump(tag_1)\n    tag_28:\n      dup1\n      0x481c6a75\n      gt\n      tag_31\n      jumpi\n      dup1\n      0x58d65629\n      gt\n      tag_32\n      jumpi\n      dup1\n      0x58d65629\n      eq\n      tag_11\n      jumpi\n      dup1\n      0x597e1fb5\n      eq\n      tag_12\n      jumpi\n      dup1\n      0x7b87d856\n      eq\n      tag_13\n      jumpi\n      dup1\n      0x7e06eb7d\n      eq\n      tag_14\n      jumpi\n      jump(tag_1)\n    tag_32:\n      dup1\n      0x481c6a75\n      eq\n      tag_8\n      jumpi\n      dup1\n      0x4e69d560\n      eq\n      tag_9\n      jumpi\n      dup1\n      0x4ede3648\n      eq\n      tag_10\n      jumpi\n      jump(tag_1)\n    tag_31:\n      dup1\n      0x0a144391\n      eq\n      tag_2\n      jumpi\n      dup1\n      0x17c7acec\n      eq\n      tag_3\n      jumpi\n      dup1\n      0x2ebc9a3e\n      eq\n      tag_4\n      jumpi\n      dup1\n      0x3197cbb6\n      eq\n      tag_5\n      jumpi\n      dup1\n      0x346143f4\n      eq\n      tag_6\n      jumpi\n      dup1\n      0x4051ddac\n      eq\n      tag_7\n      jumpi\n    tag_1:\n      revert(0x00, 0x00)\n        /* \"Campaign.sol\":2121:2162  mapping(address => bool) public approvers */\n    tag_2:\n      callvalue\n      dup1\n      iszero\n      tag_33\n      jumpi\n      revert(0x00, 0x00)\n    tag_33:\n      pop\n      tag_34\n      0x04\n      dup1\n      calldatasize\n      sub\n      dup2\n      add\n      swap1\n      tag_35\n      swap2\n      swap1\n      tag_36\n      jump\t// in\n    tag_35:\n      tag_37\n      jump\t// in\n    tag_34:\n      mload(0x40)\n      tag_38\n      swap2\n      swap1\n      tag_39\n      jump\t// in\n    tag_38:\n      mload(0x40)\n      dup1\n      swap2\n      sub\n      swap1\n      return\n        /* \"Campaign.sol\":2451:2473  bool public sellerPaid */\n    tag_3:\n      callvalue\n      dup1\n      iszero\n      tag_40\n      jumpi\n      revert(0x00, 0x00)\n    tag_40:\n      pop\n      tag_41\n      tag_42\n      jump\t// in\n    tag_41:\n      mload(0x40)\n      tag_43\n      swap2\n      swap1\n      tag_39\n      jump\t// in\n    tag_43:\n      mload(0x40)\n      dup1\n      swap2\n      sub\n      swap1\n      return\n        /* \"Campaign.sol\":2169:2219  mapping(address => uint256) public approversMonney */\n    tag_4:\n      callvalue\n      dup1\n      iszero\n      tag_44\n      jumpi\n      revert(0x00, 0x00)\n    tag_44:\n      pop\n      tag_45\n      0x04\n      dup1\n      calldatasize\n      sub\n      dup2\n      add\n      swap1\n      tag_46\n      swap2\n      swap1\n      tag_36\n      jump\t// in\n    tag_46:\n      tag_47\n      jump\t// in\n    tag_45:\n      mload(0x40)\n      tag_48\n      swap2\n      swap1\n      tag_49\n      jump\t// in\n    tag_48:\n      mload(0x40)\n      dup1\n      swap2\n      sub\n      swap1\n      return\n        /* \"Campaign.sol\":2362:2384  uint256 public endTime */\n    tag_5:\n      callvalue\n      dup1\n      iszero\n      tag_50\n      jumpi\n      revert(0x00, 0x00)\n    tag_50:\n      pop\n      tag_51\n      tag_52\n      jump\t// in\n    tag_51:\n      mload(0x40)\n      tag_53\n      swap2\n      swap1\n      tag_49\n      jump\t// in\n    tag_53:\n      mload(0x40)\n      dup1\n      swap2\n      sub\n      swap1\n      return\n        /* \"Campaign.sol\":2416:2444  bool public refundsProcessed */\n    tag_6:\n      callvalue\n      dup1\n      iszero\n      tag_54\n      jumpi\n      revert(0x00, 0x00)\n    tag_54:\n      pop\n      tag_55\n      tag_56\n      jump\t// in\n    tag_55:\n      mload(0x40)\n      tag_57\n      swap2\n      swap1\n      tag_39\n      jump\t// in\n    tag_57:\n      mload(0x40)\n      dup1\n      swap2\n      sub\n      swap1\n      return\n        /* \"Campaign.sol\":6859:7499  function getSummary()... */\n    tag_7:\n      callvalue\n      dup1\n      iszero\n      tag_58\n      jumpi\n      revert(0x00, 0x00)\n    tag_58:\n      pop\n      tag_59\n      tag_60\n      jump\t// in\n    tag_59:\n      mload(0x40)\n      tag_61\n      swap11\n      swap10\n      swap9\n      swap8\n      swap7\n      swap6\n      swap5\n      swap4\n      swap3\n      swap2\n      swap1\n      tag_62\n      jump\t// in\n    tag_61:\n      mload(0x40)\n      dup1\n      swap2\n      sub\n      swap1\n      return\n        /* \"Campaign.sol\":1983:2005  address public manager */\n    tag_8:\n      callvalue\n      dup1\n      iszero\n      tag_63\n      jumpi\n      revert(0x00, 0x00)\n    tag_63:\n      pop\n      tag_64\n      tag_65\n      jump\t// in\n    tag_64:\n      mload(0x40)\n      tag_66\n      swap2\n      swap1\n      tag_67\n      jump\t// in\n    tag_66:\n      mload(0x40)\n      dup1\n      swap2\n      sub\n      swap1\n      return\n        /* \"Campaign.sol\":5177:5257  function getStatus() public view returns (bool) {... */\n    tag_9:\n      callvalue\n      dup1\n      iszero\n      tag_68\n      jumpi\n      revert(0x00, 0x00)\n    tag_68:\n      pop\n      tag_69\n      tag_70\n      jump\t// in\n    tag_69:\n      mload(0x40)\n      tag_71\n      swap2\n      swap1\n      tag_39\n      jump\t// in\n    tag_71:\n      mload(0x40)\n      dup1\n      swap2\n      sub\n      swap1\n      return\n        /* \"Campaign.sol\":6591:6851  function withdrawBid(address payable _address) public {... */\n    tag_10:\n      callvalue\n      dup1\n      iszero\n      tag_72\n      jumpi\n      revert(0x00, 0x00)\n    tag_72:\n      pop\n      tag_73\n      0x04\n      dup1\n      calldatasize\n      sub\n      dup2\n      add\n      swap1\n      tag_74\n      swap2\n      swap1\n      tag_75\n      jump\t// in\n    tag_74:\n      tag_76\n      jump\t// in\n    tag_73:\n      stop\n        /* \"Campaign.sol\":2085:2114  string public dataDescription */\n    tag_11:\n      callvalue\n      dup1\n      iszero\n      tag_77\n      jumpi\n      revert(0x00, 0x00)\n    tag_77:\n      pop\n      tag_78\n      tag_79\n      jump\t// in\n    tag_78:\n      mload(0x40)\n      tag_80\n      swap2\n      swap1\n      tag_81\n      jump\t// in\n    tag_80:\n      mload(0x40)\n      dup1\n      swap2\n      sub\n      swap1\n      return\n        /* \"Campaign.sol\":2391:2409  bool public closed */\n    tag_12:\n      callvalue\n      dup1\n      iszero\n      tag_82\n      jumpi\n      revert(0x00, 0x00)\n    tag_82:\n      pop\n      tag_83\n      tag_84\n      jump\t// in\n    tag_83:\n      mload(0x40)\n      tag_85\n      swap2\n      swap1\n      tag_39\n      jump\t// in\n    tag_85:\n      mload(0x40)\n      dup1\n      swap2\n      sub\n      swap1\n      return\n        /* \"Campaign.sol\":2053:2078  string public dataForSell */\n    tag_13:\n      callvalue\n      dup1\n      iszero\n      tag_86\n      jumpi\n      revert(0x00, 0x00)\n    tag_86:\n      pop\n      tag_87\n      tag_88\n      jump\t// in\n    tag_87:\n      mload(0x40)\n      tag_89\n      swap2\n      swap1\n      tag_81\n      jump\t// in\n    tag_89:\n      mload(0x40)\n      dup1\n      swap2\n      sub\n      swap1\n      return\n        /* \"Campaign.sol\":3099:3224  function compareAddresses(address a, address b) public pure returns (bool) {... */\n    tag_14:\n      callvalue\n      dup1\n      iszero\n      tag_90\n      jumpi\n      revert(0x00, 0x00)\n    tag_90:\n      pop\n      tag_91\n      0x04\n      dup1\n      calldatasize\n      sub\n      dup2\n      add\n      swap1\n      tag_92\n      swap2\n      swap1\n      tag_93\n      jump\t// in\n    tag_92:\n      tag_94\n      jump\t// in\n    tag_91:\n      mload(0x40)\n      tag_95\n      swap2\n      swap1\n      tag_39\n      jump\t// in\n    tag_95:\n      mload(0x40)\n      dup1\n      swap2\n      sub\n      swap1\n      return\n        /* \"Campaign.sol\":2226:2255  uint256 public approversCount */\n    tag_15:\n      callvalue\n      dup1\n      iszero\n      tag_96\n      jumpi\n      revert(0x00, 0x00)\n    tag_96:\n      pop\n      tag_97\n      tag_98\n      jump\t// in\n    tag_97:\n      mload(0x40)\n      tag_99\n      swap2\n      swap1\n      tag_49\n      jump\t// in\n    tag_99:\n      mload(0x40)\n      dup1\n      swap2\n      sub\n      swap1\n      return\n        /* \"Campaign.sol\":4842:4942  function getTransactions() public view returns (Bid[] memory) {... */\n    tag_16:\n      callvalue\n      dup1\n      iszero\n      tag_100\n      jumpi\n      revert(0x00, 0x00)\n    tag_100:\n      pop\n      tag_101\n      tag_102\n      jump\t// in\n    tag_101:\n      mload(0x40)\n      tag_103\n      swap2\n      swap1\n      tag_104\n      jump\t// in\n    tag_103:\n      mload(0x40)\n      dup1\n      swap2\n      sub\n      swap1\n      return\n        /* \"Campaign.sol\":3647:4834  function EndedAuctions() public {... */\n    tag_17:\n      callvalue\n      dup1\n      iszero\n      tag_105\n      jumpi\n      revert(0x00, 0x00)\n    tag_105:\n      pop\n      tag_106\n      tag_107\n      jump\t// in\n    tag_106:\n      stop\n        /* \"Campaign.sol\":2295:2323  address public highestBidder */\n    tag_18:\n      callvalue\n      dup1\n      iszero\n      tag_108\n      jumpi\n      revert(0x00, 0x00)\n    tag_108:\n      pop\n      tag_109\n      tag_110\n      jump\t// in\n    tag_109:\n      mload(0x40)\n      tag_111\n      swap2\n      swap1\n      tag_67\n      jump\t// in\n    tag_111:\n      mload(0x40)\n      dup1\n      swap2\n      sub\n      swap1\n      return\n        /* \"Campaign.sol\":2012:2046  uint256 public minimumContribution */\n    tag_19:\n      callvalue\n      dup1\n      iszero\n      tag_112\n      jumpi\n      revert(0x00, 0x00)\n    tag_112:\n      pop\n      tag_113\n      tag_114\n      jump\t// in\n    tag_113:\n      mload(0x40)\n      tag_115\n      swap2\n      swap1\n      tag_49\n      jump\t// in\n    tag_115:\n      mload(0x40)\n      dup1\n      swap2\n      sub\n      swap1\n      return\n        /* \"Campaign.sol\":3232:3639  function toLower(address _address) public pure returns (address) {... */\n    tag_20:\n      callvalue\n      dup1\n      iszero\n      tag_116\n      jumpi\n      revert(0x00, 0x00)\n    tag_116:\n      pop\n      tag_117\n      0x04\n      dup1\n      calldatasize\n      sub\n      dup2\n      add\n      swap1\n      tag_118\n      swap2\n      swap1\n      tag_36\n      jump\t// in\n    tag_118:\n      tag_119\n      jump\t// in\n    tag_117:\n      mload(0x40)\n      tag_120\n      swap2\n      swap1\n      tag_67\n      jump\t// in\n    tag_120:\n      mload(0x40)\n      dup1\n      swap2\n      sub\n      swap1\n      return\n        /* \"Campaign.sol\":1951:1976  Bid[] public transactions */\n    tag_21:\n      callvalue\n      dup1\n      iszero\n      tag_121\n      jumpi\n      revert(0x00, 0x00)\n    tag_121:\n      pop\n      tag_122\n      0x04\n      dup1\n      calldatasize\n      sub\n      dup2\n      add\n      swap1\n      tag_123\n      swap2\n      swap1\n      tag_124\n      jump\t// in\n    tag_123:\n      tag_125\n      jump\t// in\n    tag_122:\n      mload(0x40)\n      tag_126\n      swap4\n      swap3\n      swap2\n      swap1\n      tag_127\n      jump\t// in\n    tag_126:\n      mload(0x40)\n      dup1\n      swap2\n      sub\n      swap1\n      return\n        /* \"Campaign.sol\":6343:6583  function paySeller() public {... */\n    tag_22:\n      callvalue\n      dup1\n      iszero\n      tag_128\n      jumpi\n      revert(0x00, 0x00)\n    tag_128:\n      pop\n      tag_129\n      tag_130\n      jump\t// in\n    tag_129:\n      stop\n        /* \"Campaign.sol\":5265:5363  function getAddresses() public view returns (address[] memory) {... */\n    tag_23:\n      callvalue\n      dup1\n      iszero\n      tag_131\n      jumpi\n      revert(0x00, 0x00)\n    tag_131:\n      pop\n      tag_132\n      tag_133\n      jump\t// in\n    tag_132:\n      mload(0x40)\n      tag_134\n      swap2\n      swap1\n      tag_135\n      jump\t// in\n    tag_134:\n      mload(0x40)\n      dup1\n      swap2\n      sub\n      swap1\n      return\n        /* \"Campaign.sol\":4950:5171  function getBid(address add) public view returns (uint256) {... */\n    tag_24:\n      callvalue\n      dup1\n      iszero\n      tag_136\n      jumpi\n      revert(0x00, 0x00)\n    tag_136:\n      pop\n      tag_137\n      0x04\n      dup1\n      calldatasize\n      sub\n      dup2\n      add\n      swap1\n      tag_138\n      swap2\n      swap1\n      tag_36\n      jump\t// in\n    tag_138:\n      tag_139\n      jump\t// in\n    tag_137:\n      mload(0x40)\n      tag_140\n      swap2\n      swap1\n      tag_49\n      jump\t// in\n    tag_140:\n      mload(0x40)\n      dup1\n      swap2\n      sub\n      swap1\n      return\n        /* \"Campaign.sol\":2330:2355  uint256 public highestBid */\n    tag_25:\n      callvalue\n      dup1\n      iszero\n      tag_141\n      jumpi\n      revert(0x00, 0x00)\n    tag_141:\n      pop\n      tag_142\n      tag_143\n      jump\t// in\n    tag_142:\n      mload(0x40)\n      tag_144\n      swap2\n      swap1\n      tag_49\n      jump\t// in\n    tag_144:\n      mload(0x40)\n      dup1\n      swap2\n      sub\n      swap1\n      return\n        /* \"Campaign.sol\":5371:6335  function contribute() public payable {... */\n    tag_26:\n      tag_145\n      tag_146\n      jump\t// in\n    tag_145:\n      stop\n        /* \"Campaign.sol\":2262:2288  address[] public addresses */\n    tag_27:\n      callvalue\n      dup1\n      iszero\n      tag_147\n      jumpi\n      revert(0x00, 0x00)\n    tag_147:\n      pop\n      tag_148\n      0x04\n      dup1\n      calldatasize\n      sub\n      dup2\n      add\n      swap1\n      tag_149\n      swap2\n      swap1\n      tag_124\n      jump\t// in\n    tag_149:\n      tag_150\n      jump\t// in\n    tag_148:\n      mload(0x40)\n      tag_151\n      swap2\n      swap1\n      tag_67\n      jump\t// in\n    tag_151:\n      mload(0x40)\n      dup1\n      swap2\n      sub\n      swap1\n      return\n        /* \"Campaign.sol\":2121:2162  mapping(address => bool) public approvers */\n    tag_37:\n      mstore(0x20, 0x05)\n      dup1\n      0x00\n      mstore\n      keccak256(0x00, 0x40)\n      0x00\n      swap2\n      pop\n      sload\n      swap1\n      0x0100\n      exp\n      swap1\n      div\n      0xff\n      and\n      dup2\n      jump\t// out\n        /* \"Campaign.sol\":2451:2473  bool public sellerPaid */\n    tag_42:\n      0x0c\n      0x02\n      swap1\n      sload\n      swap1\n      0x0100\n      exp\n      swap1\n      div\n      0xff\n      and\n      dup2\n      jump\t// out\n        /* \"Campaign.sol\":2169:2219  mapping(address => uint256) public approversMonney */\n    tag_47:\n      mstore(0x20, 0x06)\n      dup1\n      0x00\n      mstore\n      keccak256(0x00, 0x40)\n      0x00\n      swap2\n      pop\n      swap1\n      pop\n      sload\n      dup2\n      jump\t// out\n        /* \"Campaign.sol\":2362:2384  uint256 public endTime */\n    tag_52:\n      sload(0x0b)\n      dup2\n      jump\t// out\n        /* \"Campaign.sol\":2416:2444  bool public refundsProcessed */\n    tag_56:\n      0x0c\n      0x01\n      swap1\n      sload\n      swap1\n      0x0100\n      exp\n      swap1\n      div\n      0xff\n      and\n      dup2\n      jump\t// out\n        /* \"Campaign.sol\":6859:7499  function getSummary()... */\n    tag_60:\n        /* \"Campaign.sol\":6943:6950  uint256 */\n      0x00\n        /* \"Campaign.sol\":6965:6972  uint256 */\n      0x00\n        /* \"Campaign.sol\":6987:6994  uint256 */\n      0x00\n        /* \"Campaign.sol\":7009:7016  address */\n      0x00\n        /* \"Campaign.sol\":7031:7038  uint256 */\n      0x00\n        /* \"Campaign.sol\":7053:7066  string memory */\n      0x60\n        /* \"Campaign.sol\":7081:7094  string memory */\n      dup1\n        /* \"Campaign.sol\":7109:7116  uint256 */\n      0x00\n        /* \"Campaign.sol\":7131:7138  address */\n      0x00\n        /* \"Campaign.sol\":7153:7169  address[] memory */\n      0x60\n        /* \"Campaign.sol\":7219:7238  minimumContribution */\n      sload(0x02)\n        /* \"Campaign.sol\":7253:7274  address(this).balance */\n      selfbalance\n        /* \"Campaign.sol\":7289:7303  approversCount */\n      sload(0x07)\n        /* \"Campaign.sol\":7318:7325  manager */\n      0x01\n      0x00\n      swap1\n      sload\n      swap1\n      0x0100\n      exp\n      swap1\n      div\n      0xffffffffffffffffffffffffffffffffffffffff\n      and\n        /* \"Campaign.sol\":7340:7350  highestBid */\n      sload(0x0a)\n        /* \"Campaign.sol\":7365:7376  dataForSell */\n      0x03\n        /* \"Campaign.sol\":7391:7406  dataDescription */\n      0x04\n        /* \"Campaign.sol\":7421:7428  endTime */\n      sload(0x0b)\n        /* \"Campaign.sol\":7443:7456  highestBidder */\n      0x09\n      0x00\n      swap1\n      sload\n      swap1\n      0x0100\n      exp\n      swap1\n      div\n      0xffffffffffffffffffffffffffffffffffffffff\n      and\n        /* \"Campaign.sol\":7471:7480  addresses */\n      0x08\n        /* \"Campaign.sol\":7197:7491  return (... */\n      dup5\n      dup1\n      sload\n      tag_153\n      swap1\n      tag_154\n      jump\t// in\n    tag_153:\n      dup1\n      0x1f\n      add\n      0x20\n      dup1\n      swap2\n      div\n      mul\n      0x20\n      add\n      mload(0x40)\n      swap1\n      dup2\n      add\n      0x40\n      mstore\n      dup1\n      swap3\n      swap2\n      swap1\n      dup2\n      dup2\n      mstore\n      0x20\n      add\n      dup3\n      dup1\n      sload\n      tag_155\n      swap1\n      tag_154\n      jump\t// in\n    tag_155:\n      dup1\n      iszero\n      tag_156\n      jumpi\n      dup1\n      0x1f\n      lt\n      tag_157\n      jumpi\n      0x0100\n      dup1\n      dup4\n      sload\n      div\n      mul\n      dup4\n      mstore\n      swap2\n      0x20\n      add\n      swap2\n      jump(tag_156)\n    tag_157:\n      dup3\n      add\n      swap2\n      swap1\n      0x00\n      mstore\n      keccak256(0x00, 0x20)\n      swap1\n    tag_158:\n      dup2\n      sload\n      dup2\n      mstore\n      swap1\n      0x01\n      add\n      swap1\n      0x20\n      add\n      dup1\n      dup4\n      gt\n      tag_158\n      jumpi\n      dup3\n      swap1\n      sub\n      0x1f\n      and\n      dup3\n      add\n      swap2\n    tag_156:\n      pop\n      pop\n      pop\n      pop\n      pop\n      swap5\n      pop\n      dup4\n      dup1\n      sload\n      tag_159\n      swap1\n      tag_154\n      jump\t// in\n    tag_159:\n      dup1\n      0x1f\n      add\n      0x20\n      dup1\n      swap2\n      div\n      mul\n      0x20\n      add\n      mload(0x40)\n      swap1\n      dup2\n      add\n      0x40\n      mstore\n      dup1\n      swap3\n      swap2\n      swap1\n      dup2\n      dup2\n      mstore\n      0x20\n      add\n      dup3\n      dup1\n      sload\n      tag_160\n      swap1\n      tag_154\n      jump\t// in\n    tag_160:\n      dup1\n      iszero\n      tag_161\n      jumpi\n      dup1\n      0x1f\n      lt\n      tag_162\n      jumpi\n      0x0100\n      dup1\n      dup4\n      sload\n      div\n      mul\n      dup4\n      mstore\n      swap2\n      0x20\n      add\n      swap2\n      jump(tag_161)\n    tag_162:\n      dup3\n      add\n      swap2\n      swap1\n      0x00\n      mstore\n      keccak256(0x00, 0x20)\n      swap1\n    tag_163:\n      dup2\n      sload\n      dup2\n      mstore\n      swap1\n      0x01\n      add\n      swap1\n      0x20\n      add\n      dup1\n      dup4\n      gt\n      tag_163\n      jumpi\n      dup3\n      swap1\n      sub\n      0x1f\n      and\n      dup3\n      add\n      swap2\n    tag_161:\n      pop\n      pop\n      pop\n      pop\n      pop\n      swap4\n      pop\n      dup1\n      dup1\n      sload\n      dup1\n      0x20\n      mul\n      0x20\n      add\n      mload(0x40)\n      swap1\n      dup2\n      add\n      0x40\n      mstore\n      dup1\n      swap3\n      swap2\n      swap1\n      dup2\n      dup2\n      mstore\n      0x20\n      add\n      dup3\n      dup1\n      sload\n      dup1\n      iszero\n      tag_164\n      jumpi\n      0x20\n      mul\n      dup3\n      add\n      swap2\n      swap1\n      0x00\n      mstore\n      keccak256(0x00, 0x20)\n      swap1\n    tag_165:\n      dup2\n      0x00\n      swap1\n      sload\n      swap1\n      0x0100\n      exp\n      swap1\n      div\n      0xffffffffffffffffffffffffffffffffffffffff\n      and\n      0xffffffffffffffffffffffffffffffffffffffff\n      and\n      dup2\n      mstore\n      0x20\n      add\n      swap1\n      0x01\n      add\n      swap1\n      dup1\n      dup4\n      gt\n      tag_165\n      jumpi\n    tag_164:\n      pop\n      pop\n      pop\n      pop\n      pop\n      swap1\n      pop\n      swap10\n      pop\n      swap10\n      pop\n      swap10\n      pop\n      swap10\n      pop\n      swap10\n      pop\n      swap10\n      pop\n      swap10\n      pop\n      swap10\n      pop\n      swap10\n      pop\n      swap10\n      pop\n        /* \"Campaign.sol\":6859:7499  function getSummary()... */\n      swap1\n      swap2\n      swap3\n      swap4\n      swap5\n      swap6\n      swap7\n      swap8\n      swap9\n      swap10\n      jump\t// out\n        /* \"Campaign.sol\":1983:2005  address public manager */\n    tag_65:\n      0x01\n      0x00\n      swap1\n      sload\n      swap1\n      0x0100\n      exp\n      swap1\n      div\n      0xffffffffffffffffffffffffffffffffffffffff\n      and\n      dup2\n      jump\t// out\n        /* \"Campaign.sol\":5177:5257  function getStatus() public view returns (bool) {... */\n    tag_70:\n        /* \"Campaign.sol\":5219:5223  bool */\n      0x00\n        /* \"Campaign.sol\":5243:5249  closed */\n      0x0c\n      0x00\n      swap1\n      sload\n      swap1\n      0x0100\n      exp\n      swap1\n      div\n      0xff\n      and\n        /* \"Campaign.sol\":5236:5249  return closed */\n      swap1\n      pop\n        /* \"Campaign.sol\":5177:5257  function getStatus() public view returns (bool) {... */\n      swap1\n      jump\t// out\n        /* \"Campaign.sol\":6591:6851  function withdrawBid(address payable _address) public {... */\n    tag_76:\n        /* \"Campaign.sol\":6692:6693  0 */\n      0x00\n        /* \"Campaign.sol\":6664:6679  approversMonney */\n      0x06\n        /* \"Campaign.sol\":6664:6689  approversMonney[_address] */\n      0x00\n        /* \"Campaign.sol\":6680:6688  _address */\n      dup4\n        /* \"Campaign.sol\":6664:6689  approversMonney[_address] */\n      0xffffffffffffffffffffffffffffffffffffffff\n      and\n      0xffffffffffffffffffffffffffffffffffffffff\n      and\n      dup2\n      mstore\n      0x20\n      add\n      swap1\n      dup2\n      mstore\n      0x20\n      add\n      0x00\n      keccak256\n      sload\n        /* \"Campaign.sol\":6664:6693  approversMonney[_address] > 0 */\n      gt\n        /* \"Campaign.sol\":6656:6714  require(approversMonney[_address] > 0, \"No bid to refund\") */\n      tag_168\n      jumpi\n      mload(0x40)\n      0x08c379a000000000000000000000000000000000000000000000000000000000\n      dup2\n      mstore\n      0x04\n      add\n      tag_169\n      swap1\n      tag_170\n      jump\t// in\n    tag_169:\n      mload(0x40)\n      dup1\n      swap2\n      sub\n      swap1\n      revert\n    tag_168:\n        /* \"Campaign.sol\":6725:6739  uint256 refund */\n      0x00\n        /* \"Campaign.sol\":6742:6757  approversMonney */\n      0x06\n        /* \"Campaign.sol\":6742:6767  approversMonney[_address] */\n      0x00\n        /* \"Campaign.sol\":6758:6766  _address */\n      dup4\n        /* \"Campaign.sol\":6742:6767  approversMonney[_address] */\n      0xffffffffffffffffffffffffffffffffffffffff\n      and\n      0xffffffffffffffffffffffffffffffffffffffff\n      and\n      dup2\n      mstore\n      0x20\n      add\n      swap1\n      dup2\n      mstore\n      0x20\n      add\n      0x00\n      keccak256\n      sload\n        /* \"Campaign.sol\":6725:6767  uint256 refund = approversMonney[_address] */\n      swap1\n      pop\n        /* \"Campaign.sol\":6806:6807  0 */\n      0x00\n        /* \"Campaign.sol\":6778:6793  approversMonney */\n      0x06\n        /* \"Campaign.sol\":6778:6803  approversMonney[_address] */\n      0x00\n        /* \"Campaign.sol\":6794:6802  _address */\n      dup5\n        /* \"Campaign.sol\":6778:6803  approversMonney[_address] */\n      0xffffffffffffffffffffffffffffffffffffffff\n      and\n      0xffffffffffffffffffffffffffffffffffffffff\n      and\n      dup2\n      mstore\n      0x20\n      add\n      swap1\n      dup2\n      mstore\n      0x20\n      add\n      0x00\n      keccak256\n        /* \"Campaign.sol\":6778:6807  approversMonney[_address] = 0 */\n      dup2\n      swap1\n      sstore\n      pop\n        /* \"Campaign.sol\":6818:6826  _address */\n      dup2\n        /* \"Campaign.sol\":6818:6835  _address.transfer */\n      0xffffffffffffffffffffffffffffffffffffffff\n      and\n        /* \"Campaign.sol\":6818:6843  _address.transfer(refund) */\n      0x08fc\n        /* \"Campaign.sol\":6836:6842  refund */\n      dup3\n        /* \"Campaign.sol\":6818:6843  _address.transfer(refund) */\n      swap1\n      dup2\n      iszero\n      mul\n      swap1\n      mload(0x40)\n      0x00\n      mload(0x40)\n      dup1\n      dup4\n      sub\n      dup2\n      dup6\n      dup9\n      dup9\n      call\n      swap4\n      pop\n      pop\n      pop\n      pop\n      iszero\n      dup1\n      iszero\n      tag_172\n      jumpi\n      returndatacopy(0x00, 0x00, returndatasize)\n      revert(0x00, returndatasize)\n    tag_172:\n      pop\n        /* \"Campaign.sol\":6645:6851  {... */\n      pop\n        /* \"Campaign.sol\":6591:6851  function withdrawBid(address payable _address) public {... */\n      pop\n      jump\t// out\n        /* \"Campaign.sol\":2085:2114  string public dataDescription */\n    tag_79:\n      0x04\n      dup1\n      sload\n      tag_173\n      swap1\n      tag_154\n      jump\t// in\n    tag_173:\n      dup1\n      0x1f\n      add\n      0x20\n      dup1\n      swap2\n      div\n      mul\n      0x20\n      add\n      mload(0x40)\n      swap1\n      dup2\n      add\n      0x40\n      mstore\n      dup1\n      swap3\n      swap2\n      swap1\n      dup2\n      dup2\n      mstore\n      0x20\n      add\n      dup3\n      dup1\n      sload\n      tag_174\n      swap1\n      tag_154\n      jump\t// in\n    tag_174:\n      dup1\n      iszero\n      tag_175\n      jumpi\n      dup1\n      0x1f\n      lt\n      tag_176\n      jumpi\n      0x0100\n      dup1\n      dup4\n      sload\n      div\n      mul\n      dup4\n      mstore\n      swap2\n      0x20\n      add\n      swap2\n      jump(tag_175)\n    tag_176:\n      dup3\n      add\n      swap2\n      swap1\n      0x00\n      mstore\n      keccak256(0x00, 0x20)\n      swap1\n    tag_177:\n      dup2\n      sload\n      dup2\n      mstore\n      swap1\n      0x01\n      add\n      swap1\n      0x20\n      add\n      dup1\n      dup4\n      gt\n      tag_177\n      jumpi\n      dup3\n      swap1\n      sub\n      0x1f\n      and\n      dup3\n      add\n      swap2\n    tag_175:\n      pop\n      pop\n      pop\n      pop\n      pop\n      dup2\n      jump\t// out\n        /* \"Campaign.sol\":2391:2409  bool public closed */\n    tag_84:\n      0x0c\n      0x00\n      swap1\n      sload\n      swap1\n      0x0100\n      exp\n      swap1\n      div\n      0xff\n      and\n      dup2\n      jump\t// out\n        /* \"Campaign.sol\":2053:2078  string public dataForSell */\n    tag_88:\n      0x03\n      dup1\n      sload\n      tag_178\n      swap1\n      tag_154\n      jump\t// in\n    tag_178:\n      dup1\n      0x1f\n      add\n      0x20\n      dup1\n      swap2\n      div\n      mul\n      0x20\n      add\n      mload(0x40)\n      swap1\n      dup2\n      add\n      0x40\n      mstore\n      dup1\n      swap3\n      swap2\n      swap1\n      dup2\n      dup2\n      mstore\n      0x20\n      add\n      dup3\n      dup1\n      sload\n      tag_179\n      swap1\n      tag_154\n      jump\t// in\n    tag_179:\n      dup1\n      iszero\n      tag_180\n      jumpi\n      dup1\n      0x1f\n      lt\n      tag_181\n      jumpi\n      0x0100\n      dup1\n      dup4\n      sload\n      div\n      mul\n      dup4\n      mstore\n      swap2\n      0x20\n      add\n      swap2\n      jump(tag_180)\n    tag_181:\n      dup3\n      add\n      swap2\n      swap1\n      0x00\n      mstore\n      keccak256(0x00, 0x20)\n      swap1\n    tag_182:\n      dup2\n      sload\n      dup2\n      mstore\n      swap1\n      0x01\n      add\n      swap1\n      0x20\n      add\n      dup1\n      dup4\n      gt\n      tag_182\n      jumpi\n      dup3\n      swap1\n      sub\n      0x1f\n      and\n      dup3\n      add\n      swap2\n    tag_180:\n      pop\n      pop\n      pop\n      pop\n      pop\n      dup2\n      jump\t// out\n        /* \"Campaign.sol\":3099:3224  function compareAddresses(address a, address b) public pure returns (bool) {... */\n    tag_94:\n        /* \"Campaign.sol\":3168:3172  bool */\n      0x00\n        /* \"Campaign.sol\":3206:3216  toLower(b) */\n      tag_184\n        /* \"Campaign.sol\":3214:3215  b */\n      dup3\n        /* \"Campaign.sol\":3206:3213  toLower */\n      tag_119\n        /* \"Campaign.sol\":3206:3216  toLower(b) */\n      jump\t// in\n    tag_184:\n        /* \"Campaign.sol\":3192:3216  toLower(a) == toLower(b) */\n      0xffffffffffffffffffffffffffffffffffffffff\n      and\n        /* \"Campaign.sol\":3192:3202  toLower(a) */\n      tag_185\n        /* \"Campaign.sol\":3200:3201  a */\n      dup5\n        /* \"Campaign.sol\":3192:3199  toLower */\n      tag_119\n        /* \"Campaign.sol\":3192:3202  toLower(a) */\n      jump\t// in\n    tag_185:\n        /* \"Campaign.sol\":3192:3216  toLower(a) == toLower(b) */\n      0xffffffffffffffffffffffffffffffffffffffff\n      and\n      eq\n        /* \"Campaign.sol\":3185:3216  return toLower(a) == toLower(b) */\n      swap1\n      pop\n        /* \"Campaign.sol\":3099:3224  function compareAddresses(address a, address b) public pure returns (bool) {... */\n      swap3\n      swap2\n      pop\n      pop\n      jump\t// out\n        /* \"Campaign.sol\":2226:2255  uint256 public approversCount */\n    tag_98:\n      sload(0x07)\n      dup2\n      jump\t// out\n        /* \"Campaign.sol\":4842:4942  function getTransactions() public view returns (Bid[] memory) {... */\n    tag_102:\n        /* \"Campaign.sol\":4890:4902  Bid[] memory */\n      0x60\n        /* \"Campaign.sol\":4922:4934  transactions */\n      0x00\n        /* \"Campaign.sol\":4915:4934  return transactions */\n      dup1\n      sload\n      dup1\n      0x20\n      mul\n      0x20\n      add\n      mload(0x40)\n      swap1\n      dup2\n      add\n      0x40\n      mstore\n      dup1\n      swap3\n      swap2\n      swap1\n      dup2\n      dup2\n      mstore\n      0x20\n      add\n      0x00\n      swap1\n    tag_187:\n      dup3\n      dup3\n      lt\n      iszero\n      tag_188\n      jumpi\n      dup4\n      dup3\n      swap1\n      0x00\n      mstore\n      keccak256(0x00, 0x20)\n      swap1\n      0x03\n      mul\n      add\n      mload(0x40)\n      dup1\n      0x60\n      add\n      0x40\n      mstore\n      swap1\n      dup2\n      0x00\n      dup3\n      add\n      sload\n      dup2\n      mstore\n      0x20\n      add\n      0x01\n      dup3\n      add\n      sload\n      dup2\n      mstore\n      0x20\n      add\n      0x02\n      dup3\n      add\n      0x00\n      swap1\n      sload\n      swap1\n      0x0100\n      exp\n      swap1\n      div\n      0xffffffffffffffffffffffffffffffffffffffff\n      and\n      0xffffffffffffffffffffffffffffffffffffffff\n      and\n      0xffffffffffffffffffffffffffffffffffffffff\n      and\n      dup2\n      mstore\n      pop\n      pop\n      dup2\n      mstore\n      0x20\n      add\n      swap1\n      0x01\n      add\n      swap1\n      jump(tag_187)\n    tag_188:\n      pop\n      pop\n      pop\n      pop\n      swap1\n      pop\n        /* \"Campaign.sol\":4842:4942  function getTransactions() public view returns (Bid[] memory) {... */\n      swap1\n      jump\t// out\n        /* \"Campaign.sol\":3647:4834  function EndedAuctions() public {... */\n    tag_107:\n        /* \"Campaign.sol\":3708:3723  block.timestamp */\n      timestamp\n        /* \"Campaign.sol\":3698:3705  endTime */\n      sload(0x0b)\n        /* \"Campaign.sol\":3698:3723  endTime < block.timestamp */\n      lt\n        /* \"Campaign.sol\":3690:3751  require(endTime < block.timestamp, \"Auction is still active\") */\n      tag_191\n      jumpi\n      mload(0x40)\n      0x08c379a000000000000000000000000000000000000000000000000000000000\n      dup2\n      mstore\n      0x04\n      add\n      tag_192\n      swap1\n      tag_193\n      jump\t// in\n    tag_192:\n      mload(0x40)\n      dup1\n      swap2\n      sub\n      swap1\n      revert\n    tag_191:\n        /* \"Campaign.sol\":3771:3787  refundsProcessed */\n      0x0c\n      0x01\n      swap1\n      sload\n      swap1\n      0x0100\n      exp\n      swap1\n      div\n      0xff\n      and\n        /* \"Campaign.sol\":3770:3787  !refundsProcessed */\n      iszero\n        /* \"Campaign.sol\":3770:3802  !refundsProcessed || !sellerPaid */\n      dup1\n      tag_194\n      jumpi\n      pop\n        /* \"Campaign.sol\":3792:3802  sellerPaid */\n      0x0c\n      0x02\n      swap1\n      sload\n      swap1\n      0x0100\n      exp\n      swap1\n      div\n      0xff\n      and\n        /* \"Campaign.sol\":3791:3802  !sellerPaid */\n      iszero\n        /* \"Campaign.sol\":3770:3802  !refundsProcessed || !sellerPaid */\n    tag_194:\n        /* \"Campaign.sol\":3762:3832  require(!refundsProcessed || !sellerPaid, \"Auction already finalized\") */\n      tag_195\n      jumpi\n      mload(0x40)\n      0x08c379a000000000000000000000000000000000000000000000000000000000\n      dup2\n      mstore\n      0x04\n      add\n      tag_196\n      swap1\n      tag_197\n      jump\t// in\n    tag_196:\n      mload(0x40)\n      dup1\n      swap2\n      sub\n      swap1\n      revert\n    tag_195:\n        /* \"Campaign.sol\":3893:3909  refundsProcessed */\n      0x0c\n      0x01\n      swap1\n      sload\n      swap1\n      0x0100\n      exp\n      swap1\n      div\n      0xff\n      and\n        /* \"Campaign.sol\":3888:4505  if (!refundsProcessed) {... */\n      tag_198\n      jumpi\n        /* \"Campaign.sol\":3931:3937  uint i */\n      0x00\n        /* \"Campaign.sol\":3940:3941  0 */\n      0x00\n        /* \"Campaign.sol\":3931:3941  uint i = 0 */\n      swap1\n      pop\n        /* \"Campaign.sol\":3926:4456  for (uint i = 0; i < addresses.length; i++) {... */\n    tag_199:\n        /* \"Campaign.sol\":3947:3956  addresses */\n      0x08\n        /* \"Campaign.sol\":3947:3963  addresses.length */\n      dup1\n      sload\n      swap1\n      pop\n        /* \"Campaign.sol\":3943:3944  i */\n      dup2\n        /* \"Campaign.sol\":3943:3963  i < addresses.length */\n      lt\n        /* \"Campaign.sol\":3926:4456  for (uint i = 0; i < addresses.length; i++) {... */\n      iszero\n      tag_200\n      jumpi\n        /* \"Campaign.sol\":3989:4008  address contributor */\n      0x00\n        /* \"Campaign.sol\":4011:4020  addresses */\n      0x08\n        /* \"Campaign.sol\":4021:4022  i */\n      dup3\n        /* \"Campaign.sol\":4011:4023  addresses[i] */\n      dup2\n      sload\n      dup2\n      lt\n      tag_202\n      jumpi\n      tag_203\n      tag_204\n      jump\t// in\n    tag_203:\n    tag_202:\n      swap1\n      0x00\n      mstore\n      keccak256(0x00, 0x20)\n      add\n      0x00\n      swap1\n      sload\n      swap1\n      0x0100\n      exp\n      swap1\n      div\n      0xffffffffffffffffffffffffffffffffffffffff\n      and\n        /* \"Campaign.sol\":3989:4023  address contributor = addresses[i] */\n      swap1\n      pop\n        /* \"Campaign.sol\":4061:4074  highestBidder */\n      0x09\n      0x00\n      swap1\n      sload\n      swap1\n      0x0100\n      exp\n      swap1\n      div\n      0xffffffffffffffffffffffffffffffffffffffff\n      and\n        /* \"Campaign.sol\":4046:4074  contributor != highestBidder */\n      0xffffffffffffffffffffffffffffffffffffffff\n      and\n        /* \"Campaign.sol\":4046:4057  contributor */\n      dup2\n        /* \"Campaign.sol\":4046:4074  contributor != highestBidder */\n      0xffffffffffffffffffffffffffffffffffffffff\n      and\n      eq\n        /* \"Campaign.sol\":4042:4441  if (contributor != highestBidder) {... */\n      tag_206\n      jumpi\n        /* \"Campaign.sol\":4099:4119  uint256 refundAmount */\n      0x00\n        /* \"Campaign.sol\":4122:4137  approversMonney */\n      0x06\n        /* \"Campaign.sol\":4122:4150  approversMonney[contributor] */\n      0x00\n        /* \"Campaign.sol\":4138:4149  contributor */\n      dup4\n        /* \"Campaign.sol\":4122:4150  approversMonney[contributor] */\n      0xffffffffffffffffffffffffffffffffffffffff\n      and\n      0xffffffffffffffffffffffffffffffffffffffff\n      and\n      dup2\n      mstore\n      0x20\n      add\n      swap1\n      dup2\n      mstore\n      0x20\n      add\n      0x00\n      keccak256\n      sload\n        /* \"Campaign.sol\":4099:4150  uint256 refundAmount = approversMonney[contributor] */\n      swap1\n      pop\n        /* \"Campaign.sol\":4192:4193  0 */\n      0x00\n        /* \"Campaign.sol\":4177:4189  refundAmount */\n      dup2\n        /* \"Campaign.sol\":4177:4193  refundAmount > 0 */\n      gt\n        /* \"Campaign.sol\":4173:4422  if (refundAmount > 0) {... */\n      iszero\n      tag_207\n      jumpi\n        /* \"Campaign.sol\":4253:4254  0 */\n      0x00\n        /* \"Campaign.sol\":4222:4237  approversMonney */\n      0x06\n        /* \"Campaign.sol\":4222:4250  approversMonney[contributor] */\n      0x00\n        /* \"Campaign.sol\":4238:4249  contributor */\n      dup5\n        /* \"Campaign.sol\":4222:4250  approversMonney[contributor] */\n      0xffffffffffffffffffffffffffffffffffffffff\n      and\n      0xffffffffffffffffffffffffffffffffffffffff\n      and\n      dup2\n      mstore\n      0x20\n      add\n      swap1\n      dup2\n      mstore\n      0x20\n      add\n      0x00\n      keccak256\n        /* \"Campaign.sol\":4222:4254  approversMonney[contributor] = 0 */\n      dup2\n      swap1\n      sstore\n      pop\n        /* \"Campaign.sol\":4289:4300  contributor */\n      dup2\n        /* \"Campaign.sol\":4281:4310  payable(contributor).transfer */\n      0xffffffffffffffffffffffffffffffffffffffff\n      and\n        /* \"Campaign.sol\":4281:4324  payable(contributor).transfer(refundAmount) */\n      0x08fc\n        /* \"Campaign.sol\":4311:4323  refundAmount */\n      dup3\n        /* \"Campaign.sol\":4281:4324  payable(contributor).transfer(refundAmount) */\n      swap1\n      dup2\n      iszero\n      mul\n      swap1\n      mload(0x40)\n      0x00\n      mload(0x40)\n      dup1\n      dup4\n      sub\n      dup2\n      dup6\n      dup9\n      dup9\n      call\n      swap4\n      pop\n      pop\n      pop\n      pop\n      iszero\n      dup1\n      iszero\n      tag_209\n      jumpi\n      returndatacopy(0x00, 0x00, returndatasize)\n      revert(0x00, returndatasize)\n    tag_209:\n      pop\n        /* \"Campaign.sol\":4372:4383  contributor */\n      dup2\n        /* \"Campaign.sol\":4356:4398  RefundProcessed(contributor, refundAmount) */\n      0xffffffffffffffffffffffffffffffffffffffff\n      and\n      0x3367befd2b2f39615cd79917c2153263c4af1d3945ec003e5d5bfc13a8d85833\n        /* \"Campaign.sol\":4385:4397  refundAmount */\n      dup3\n        /* \"Campaign.sol\":4356:4398  RefundProcessed(contributor, refundAmount) */\n      mload(0x40)\n      tag_210\n      swap2\n      swap1\n      tag_49\n      jump\t// in\n    tag_210:\n      mload(0x40)\n      dup1\n      swap2\n      sub\n      swap1\n      log2\n        /* \"Campaign.sol\":4173:4422  if (refundAmount > 0) {... */\n    tag_207:\n        /* \"Campaign.sol\":4076:4441  {... */\n      pop\n        /* \"Campaign.sol\":4042:4441  if (contributor != highestBidder) {... */\n    tag_206:\n        /* \"Campaign.sol\":3970:4456  {... */\n      pop\n        /* \"Campaign.sol\":3965:3968  i++ */\n      dup1\n      dup1\n      0x01\n      add\n      swap2\n      pop\n      pop\n        /* \"Campaign.sol\":3926:4456  for (uint i = 0; i < addresses.length; i++) {... */\n      jump(tag_199)\n    tag_200:\n      pop\n        /* \"Campaign.sol\":4489:4493  true */\n      0x01\n        /* \"Campaign.sol\":4470:4486  refundsProcessed */\n      0x0c\n      0x01\n        /* \"Campaign.sol\":4470:4493  refundsProcessed = true */\n      0x0100\n      exp\n      dup2\n      sload\n      dup2\n      0xff\n      mul\n      not\n      and\n      swap1\n      dup4\n      iszero\n      iszero\n      mul\n      or\n      swap1\n      sstore\n      pop\n        /* \"Campaign.sol\":3888:4505  if (!refundsProcessed) {... */\n    tag_198:\n        /* \"Campaign.sol\":4557:4567  sellerPaid */\n      0x0c\n      0x02\n      swap1\n      sload\n      swap1\n      0x0100\n      exp\n      swap1\n      div\n      0xff\n      and\n        /* \"Campaign.sol\":4552:4827  if (!sellerPaid) {... */\n      tag_211\n      jumpi\n        /* \"Campaign.sol\":4617:4627  highestBid */\n      sload(0x0a)\n        /* \"Campaign.sol\":4592:4613  address(this).balance */\n      selfbalance\n        /* \"Campaign.sol\":4592:4627  address(this).balance >= highestBid */\n      lt\n      iszero\n        /* \"Campaign.sol\":4584:4652  require(address(this).balance >= highestBid, \"Insufficient balance\") */\n      tag_212\n      jumpi\n      mload(0x40)\n      0x08c379a000000000000000000000000000000000000000000000000000000000\n      dup2\n      mstore\n      0x04\n      add\n      tag_213\n      swap1\n      tag_214\n      jump\t// in\n    tag_213:\n      mload(0x40)\n      dup1\n      swap2\n      sub\n      swap1\n      revert\n    tag_212:\n        /* \"Campaign.sol\":4675:4682  manager */\n      0x01\n      0x00\n      swap1\n      sload\n      swap1\n      0x0100\n      exp\n      swap1\n      div\n      0xffffffffffffffffffffffffffffffffffffffff\n      and\n        /* \"Campaign.sol\":4667:4692  payable(manager).transfer */\n      0xffffffffffffffffffffffffffffffffffffffff\n      and\n        /* \"Campaign.sol\":4667:4704  payable(manager).transfer(highestBid) */\n      0x08fc\n        /* \"Campaign.sol\":4693:4703  highestBid */\n      sload(0x0a)\n        /* \"Campaign.sol\":4667:4704  payable(manager).transfer(highestBid) */\n      swap1\n      dup2\n      iszero\n      mul\n      swap1\n      mload(0x40)\n      0x00\n      mload(0x40)\n      dup1\n      dup4\n      sub\n      dup2\n      dup6\n      dup9\n      dup9\n      call\n      swap4\n      pop\n      pop\n      pop\n      pop\n      iszero\n      dup1\n      iszero\n      tag_216\n      jumpi\n      returndatacopy(0x00, 0x00, returndatasize)\n      revert(0x00, returndatasize)\n    tag_216:\n      pop\n        /* \"Campaign.sol\":4732:4736  true */\n      0x01\n        /* \"Campaign.sol\":4719:4729  sellerPaid */\n      0x0c\n      0x02\n        /* \"Campaign.sol\":4719:4736  sellerPaid = true */\n      0x0100\n      exp\n      dup2\n      sload\n      dup2\n      0xff\n      mul\n      not\n      and\n      swap1\n      dup4\n      iszero\n      iszero\n      mul\n      or\n      swap1\n      sstore\n      pop\n        /* \"Campaign.sol\":4760:4764  true */\n      0x01\n        /* \"Campaign.sol\":4751:4757  closed */\n      0x0c\n      0x00\n        /* \"Campaign.sol\":4751:4764  closed = true */\n      0x0100\n      exp\n      dup2\n      sload\n      dup2\n      0xff\n      mul\n      not\n      and\n      swap1\n      dup4\n      iszero\n      iszero\n      mul\n      or\n      swap1\n      sstore\n      pop\n        /* \"Campaign.sol\":4795:4802  manager */\n      0x01\n      0x00\n      swap1\n      sload\n      swap1\n      0x0100\n      exp\n      swap1\n      div\n      0xffffffffffffffffffffffffffffffffffffffff\n      and\n        /* \"Campaign.sol\":4784:4815  SellerPaid(manager, highestBid) */\n      0xffffffffffffffffffffffffffffffffffffffff\n      and\n      0xcb4a9094da4df77fb2c0dbaa5047660b1237e61d82a02176c1be74ca757f2531\n        /* \"Campaign.sol\":4804:4814  highestBid */\n      sload(0x0a)\n        /* \"Campaign.sol\":4784:4815  SellerPaid(manager, highestBid) */\n      mload(0x40)\n      tag_217\n      swap2\n      swap1\n      tag_49\n      jump\t// in\n    tag_217:\n      mload(0x40)\n      dup1\n      swap2\n      sub\n      swap1\n      log2\n        /* \"Campaign.sol\":4552:4827  if (!sellerPaid) {... */\n    tag_211:\n        /* \"Campaign.sol\":3647:4834  function EndedAuctions() public {... */\n      jump\t// out\n        /* \"Campaign.sol\":2295:2323  address public highestBidder */\n    tag_110:\n      0x09\n      0x00\n      swap1\n      sload\n      swap1\n      0x0100\n      exp\n      swap1\n      div\n      0xffffffffffffffffffffffffffffffffffffffff\n      and\n      dup2\n      jump\t// out\n        /* \"Campaign.sol\":2012:2046  uint256 public minimumContribution */\n    tag_114:\n      sload(0x02)\n      dup2\n      jump\t// out\n        /* \"Campaign.sol\":3232:3639  function toLower(address _address) public pure returns (address) {... */\n    tag_119:\n        /* \"Campaign.sol\":3288:3295  address */\n      0x00\n        /* \"Campaign.sol\":3308:3326  uint160 intAddress */\n      0x00\n        /* \"Campaign.sol\":3337:3345  _address */\n      dup3\n        /* \"Campaign.sol\":3308:3346  uint160 intAddress = uint160(_address) */\n      swap1\n      pop\n        /* \"Campaign.sol\":3362:3368  uint i */\n      0x00\n        /* \"Campaign.sol\":3371:3372  0 */\n      0x00\n        /* \"Campaign.sol\":3362:3372  uint i = 0 */\n      swap1\n      pop\n        /* \"Campaign.sol\":3357:3595  for (uint i = 0; i < 20; i++) {... */\n    tag_219:\n        /* \"Campaign.sol\":3378:3380  20 */\n      0x14\n        /* \"Campaign.sol\":3374:3375  i */\n      dup2\n        /* \"Campaign.sol\":3374:3380  i < 20 */\n      lt\n        /* \"Campaign.sol\":3357:3595  for (uint i = 0; i < 20; i++) {... */\n      iszero\n      tag_220\n      jumpi\n        /* \"Campaign.sol\":3402:3409  uint8 b */\n      0x00\n        /* \"Campaign.sol\":3426:3434  _address */\n      dup5\n        /* \"Campaign.sol\":3418:3435  bytes20(_address) */\n      0x60\n      shl\n        /* \"Campaign.sol\":3436:3437  i */\n      dup3\n        /* \"Campaign.sol\":3418:3438  bytes20(_address)[i] */\n      0x14\n      dup2\n      lt\n      tag_222\n      jumpi\n      tag_223\n      tag_204\n      jump\t// in\n    tag_223:\n    tag_222:\n      byte\n      0xf8\n      shl\n        /* \"Campaign.sol\":3412:3439  uint8(bytes20(_address)[i]) */\n      0xf8\n      shr\n        /* \"Campaign.sol\":3402:3439  uint8 b = uint8(bytes20(_address)[i]) */\n      swap1\n      pop\n        /* \"Campaign.sol\":3463:3465  65 */\n      0x41\n        /* \"Campaign.sol\":3458:3459  b */\n      dup2\n        /* \"Campaign.sol\":3458:3465  b >= 65 */\n      0xff\n      and\n      lt\n      iszero\n        /* \"Campaign.sol\":3458:3476  b >= 65 && b <= 90 */\n      dup1\n      iszero\n      tag_224\n      jumpi\n      pop\n        /* \"Campaign.sol\":3474:3476  90 */\n      0x5a\n        /* \"Campaign.sol\":3469:3470  b */\n      dup2\n        /* \"Campaign.sol\":3469:3476  b <= 90 */\n      0xff\n      and\n      gt\n      iszero\n        /* \"Campaign.sol\":3458:3476  b >= 65 && b <= 90 */\n    tag_224:\n        /* \"Campaign.sol\":3454:3520  if (b >= 65 && b <= 90) {... */\n      iszero\n      tag_225\n      jumpi\n        /* \"Campaign.sol\":3502:3504  32 */\n      0x20\n        /* \"Campaign.sol\":3497:3504  b += 32 */\n      dup2\n      tag_226\n      swap2\n      swap1\n      tag_227\n      jump\t// in\n    tag_226:\n      swap1\n      pop\n        /* \"Campaign.sol\":3454:3520  if (b >= 65 && b <= 90) {... */\n    tag_225:\n        /* \"Campaign.sol\":3580:3581  i */\n      dup2\n        /* \"Campaign.sol\":3575:3577  19 */\n      0x13\n        /* \"Campaign.sol\":3575:3581  19 - i */\n      tag_228\n      swap2\n      swap1\n      tag_229\n      jump\t// in\n    tag_228:\n        /* \"Campaign.sol\":3570:3571  8 */\n      0x08\n        /* \"Campaign.sol\":3570:3582  8 * (19 - i) */\n      tag_230\n      swap2\n      swap1\n      tag_231\n      jump\t// in\n    tag_230:\n        /* \"Campaign.sol\":3548:3583  uint160(b) << uint160(8 * (19 - i)) */\n      0xffffffffffffffffffffffffffffffffffffffff\n      and\n        /* \"Campaign.sol\":3556:3557  b */\n      dup2\n        /* \"Campaign.sol\":3548:3558  uint160(b) */\n      0xff\n      and\n        /* \"Campaign.sol\":3548:3583  uint160(b) << uint160(8 * (19 - i)) */\n      0xffffffffffffffffffffffffffffffffffffffff\n      and\n      swap1\n      shl\n        /* \"Campaign.sol\":3534:3583  intAddress |= uint160(b) << uint160(8 * (19 - i)) */\n      dup4\n      or\n      swap3\n      pop\n        /* \"Campaign.sol\":3387:3595  {... */\n      pop\n        /* \"Campaign.sol\":3382:3385  i++ */\n      dup1\n      dup1\n      0x01\n      add\n      swap2\n      pop\n      pop\n        /* \"Campaign.sol\":3357:3595  for (uint i = 0; i < 20; i++) {... */\n      jump(tag_219)\n    tag_220:\n      pop\n        /* \"Campaign.sol\":3620:3630  intAddress */\n      dup1\n        /* \"Campaign.sol\":3605:3631  return address(intAddress) */\n      swap2\n      pop\n      pop\n        /* \"Campaign.sol\":3232:3639  function toLower(address _address) public pure returns (address) {... */\n      swap2\n      swap1\n      pop\n      jump\t// out\n        /* \"Campaign.sol\":1951:1976  Bid[] public transactions */\n    tag_125:\n      0x00\n      dup2\n      dup2\n      sload\n      dup2\n      lt\n      tag_232\n      jumpi\n      0x00\n      dup1\n      revert\n    tag_232:\n      swap1\n      0x00\n      mstore\n      keccak256(0x00, 0x20)\n      swap1\n      0x03\n      mul\n      add\n      0x00\n      swap2\n      pop\n      swap1\n      pop\n      dup1\n      0x00\n      add\n      sload\n      swap1\n      dup1\n      0x01\n      add\n      sload\n      swap1\n      dup1\n      0x02\n      add\n      0x00\n      swap1\n      sload\n      swap1\n      0x0100\n      exp\n      swap1\n      div\n      0xffffffffffffffffffffffffffffffffffffffff\n      and\n      swap1\n      pop\n      dup4\n      jump\t// out\n        /* \"Campaign.sol\":6343:6583  function paySeller() public {... */\n    tag_130:\n        /* \"Campaign.sol\":6391:6397  closed */\n      0x0c\n      0x00\n      swap1\n      sload\n      swap1\n      0x0100\n      exp\n      swap1\n      div\n      0xff\n      and\n        /* \"Campaign.sol\":6390:6397  !closed */\n      iszero\n        /* \"Campaign.sol\":6382:6424  require(!closed, \"Auction already closed\") */\n      tag_235\n      jumpi\n      mload(0x40)\n      0x08c379a000000000000000000000000000000000000000000000000000000000\n      dup2\n      mstore\n      0x04\n      add\n      tag_236\n      swap1\n      tag_237\n      jump\t// in\n    tag_236:\n      mload(0x40)\n      dup1\n      swap2\n      sub\n      swap1\n      revert\n    tag_235:\n        /* \"Campaign.sol\":6468:6478  highestBid */\n      sload(0x0a)\n        /* \"Campaign.sol\":6443:6464  address(this).balance */\n      selfbalance\n        /* \"Campaign.sol\":6443:6478  address(this).balance >= highestBid */\n      lt\n      iszero\n        /* \"Campaign.sol\":6435:6503  require(address(this).balance >= highestBid, \"Insufficient balance\") */\n      tag_238\n      jumpi\n      mload(0x40)\n      0x08c379a000000000000000000000000000000000000000000000000000000000\n      dup2\n      mstore\n      0x04\n      add\n      tag_239\n      swap1\n      tag_214\n      jump\t// in\n    tag_239:\n      mload(0x40)\n      dup1\n      swap2\n      sub\n      swap1\n      revert\n    tag_238:\n        /* \"Campaign.sol\":6522:6529  manager */\n      0x01\n      0x00\n      swap1\n      sload\n      swap1\n      0x0100\n      exp\n      swap1\n      div\n      0xffffffffffffffffffffffffffffffffffffffff\n      and\n        /* \"Campaign.sol\":6514:6539  payable(manager).transfer */\n      0xffffffffffffffffffffffffffffffffffffffff\n      and\n        /* \"Campaign.sol\":6514:6551  payable(manager).transfer(highestBid) */\n      0x08fc\n        /* \"Campaign.sol\":6540:6550  highestBid */\n      sload(0x0a)\n        /* \"Campaign.sol\":6514:6551  payable(manager).transfer(highestBid) */\n      swap1\n      dup2\n      iszero\n      mul\n      swap1\n      mload(0x40)\n      0x00\n      mload(0x40)\n      dup1\n      dup4\n      sub\n      dup2\n      dup6\n      dup9\n      dup9\n      call\n      swap4\n      pop\n      pop\n      pop\n      pop\n      iszero\n      dup1\n      iszero\n      tag_241\n      jumpi\n      returndatacopy(0x00, 0x00, returndatasize)\n      revert(0x00, returndatasize)\n    tag_241:\n      pop\n        /* \"Campaign.sol\":6571:6575  true */\n      0x01\n        /* \"Campaign.sol\":6562:6568  closed */\n      0x0c\n      0x00\n        /* \"Campaign.sol\":6562:6575  closed = true */\n      0x0100\n      exp\n      dup2\n      sload\n      dup2\n      0xff\n      mul\n      not\n      and\n      swap1\n      dup4\n      iszero\n      iszero\n      mul\n      or\n      swap1\n      sstore\n      pop\n        /* \"Campaign.sol\":6343:6583  function paySeller() public {... */\n      jump\t// out\n        /* \"Campaign.sol\":5265:5363  function getAddresses() public view returns (address[] memory) {... */\n    tag_133:\n        /* \"Campaign.sol\":5310:5326  address[] memory */\n      0x60\n        /* \"Campaign.sol\":5346:5355  addresses */\n      0x08\n        /* \"Campaign.sol\":5339:5355  return addresses */\n      dup1\n      sload\n      dup1\n      0x20\n      mul\n      0x20\n      add\n      mload(0x40)\n      swap1\n      dup2\n      add\n      0x40\n      mstore\n      dup1\n      swap3\n      swap2\n      swap1\n      dup2\n      dup2\n      mstore\n      0x20\n      add\n      dup3\n      dup1\n      sload\n      dup1\n      iszero\n      tag_243\n      jumpi\n      0x20\n      mul\n      dup3\n      add\n      swap2\n      swap1\n      0x00\n      mstore\n      keccak256(0x00, 0x20)\n      swap1\n    tag_244:\n      dup2\n      0x00\n      swap1\n      sload\n      swap1\n      0x0100\n      exp\n      swap1\n      div\n      0xffffffffffffffffffffffffffffffffffffffff\n      and\n      0xffffffffffffffffffffffffffffffffffffffff\n      and\n      dup2\n      mstore\n      0x20\n      add\n      swap1\n      0x01\n      add\n      swap1\n      dup1\n      dup4\n      gt\n      tag_244\n      jumpi\n    tag_243:\n      pop\n      pop\n      pop\n      pop\n      pop\n      swap1\n      pop\n        /* \"Campaign.sol\":5265:5363  function getAddresses() public view returns (address[] memory) {... */\n      swap1\n      jump\t// out\n        /* \"Campaign.sol\":4950:5171  function getBid(address add) public view returns (uint256) {... */\n    tag_139:\n        /* \"Campaign.sol\":5000:5007  uint256 */\n      0x00\n        /* \"Campaign.sol\":5020:5034  uint256 monney */\n      0x00\n        /* \"Campaign.sol\":5037:5038  0 */\n      0x00\n        /* \"Campaign.sol\":5020:5038  uint256 monney = 0 */\n      swap1\n      pop\n        /* \"Campaign.sol\":5079:5080  0 */\n      0x00\n        /* \"Campaign.sol\":5055:5070  approversMonney */\n      0x06\n        /* \"Campaign.sol\":5055:5075  approversMonney[add] */\n      0x00\n        /* \"Campaign.sol\":5071:5074  add */\n      dup6\n        /* \"Campaign.sol\":5055:5075  approversMonney[add] */\n      0xffffffffffffffffffffffffffffffffffffffff\n      and\n      0xffffffffffffffffffffffffffffffffffffffff\n      and\n      dup2\n      mstore\n      0x20\n      add\n      swap1\n      dup2\n      mstore\n      0x20\n      add\n      0x00\n      keccak256\n      sload\n        /* \"Campaign.sol\":5055:5080  approversMonney[add] != 0 */\n      eq\n        /* \"Campaign.sol\":5051:5138  if (approversMonney[add] != 0) {... */\n      tag_246\n      jumpi\n        /* \"Campaign.sol\":5106:5121  approversMonney */\n      0x06\n        /* \"Campaign.sol\":5106:5126  approversMonney[add] */\n      0x00\n        /* \"Campaign.sol\":5122:5125  add */\n      dup5\n        /* \"Campaign.sol\":5106:5126  approversMonney[add] */\n      0xffffffffffffffffffffffffffffffffffffffff\n      and\n      0xffffffffffffffffffffffffffffffffffffffff\n      and\n      dup2\n      mstore\n      0x20\n      add\n      swap1\n      dup2\n      mstore\n      0x20\n      add\n      0x00\n      keccak256\n      sload\n        /* \"Campaign.sol\":5097:5126  monney = approversMonney[add] */\n      swap1\n      pop\n        /* \"Campaign.sol\":5051:5138  if (approversMonney[add] != 0) {... */\n    tag_246:\n        /* \"Campaign.sol\":5157:5163  monney */\n      dup1\n        /* \"Campaign.sol\":5150:5163  return monney */\n      swap2\n      pop\n      pop\n        /* \"Campaign.sol\":4950:5171  function getBid(address add) public view returns (uint256) {... */\n      swap2\n      swap1\n      pop\n      jump\t// out\n        /* \"Campaign.sol\":2330:2355  uint256 public highestBid */\n    tag_143:\n      sload(0x0a)\n      dup2\n      jump\t// out\n        /* \"Campaign.sol\":5371:6335  function contribute() public payable {... */\n    tag_146:\n        /* \"Campaign.sol\":5441:5448  manager */\n      0x01\n      0x00\n      swap1\n      sload\n      swap1\n      0x0100\n      exp\n      swap1\n      div\n      0xffffffffffffffffffffffffffffffffffffffff\n      and\n        /* \"Campaign.sol\":5427:5448  msg.sender != manager */\n      0xffffffffffffffffffffffffffffffffffffffff\n      and\n        /* \"Campaign.sol\":5427:5437  msg.sender */\n      caller\n        /* \"Campaign.sol\":5427:5448  msg.sender != manager */\n      0xffffffffffffffffffffffffffffffffffffffff\n      and\n      sub\n        /* \"Campaign.sol\":5419:5480  require(msg.sender != manager, \"you can't buy your own data\") */\n      tag_248\n      jumpi\n      mload(0x40)\n      0x08c379a000000000000000000000000000000000000000000000000000000000\n      dup2\n      mstore\n      0x04\n      add\n      tag_249\n      swap1\n      tag_250\n      jump\t// in\n    tag_249:\n      mload(0x40)\n      dup1\n      swap2\n      sub\n      swap1\n      revert\n    tag_248:\n        /* \"Campaign.sol\":5523:5538  block.timestamp */\n      timestamp\n        /* \"Campaign.sol\":5513:5520  endTime */\n      sload(0x0b)\n        /* \"Campaign.sol\":5513:5538  endTime > block.timestamp */\n      gt\n        /* \"Campaign.sol\":5491:5606  require(... */\n      tag_251\n      jumpi\n      mload(0x40)\n      0x08c379a000000000000000000000000000000000000000000000000000000000\n      dup2\n      mstore\n      0x04\n      add\n      tag_252\n      swap1\n      tag_253\n      jump\t// in\n    tag_252:\n      mload(0x40)\n      dup1\n      swap2\n      sub\n      swap1\n      revert\n    tag_251:\n        /* \"Campaign.sol\":5619:5637  uint256 currentBid */\n      0x00\n        /* \"Campaign.sol\":5640:5655  approversMonney */\n      0x06\n        /* \"Campaign.sol\":5640:5667  approversMonney[msg.sender] */\n      0x00\n        /* \"Campaign.sol\":5656:5666  msg.sender */\n      caller\n        /* \"Campaign.sol\":5640:5667  approversMonney[msg.sender] */\n      0xffffffffffffffffffffffffffffffffffffffff\n      and\n      0xffffffffffffffffffffffffffffffffffffffff\n      and\n      dup2\n      mstore\n      0x20\n      add\n      swap1\n      dup2\n      mstore\n      0x20\n      add\n      0x00\n      keccak256\n      sload\n        /* \"Campaign.sol\":5619:5667  uint256 currentBid = approversMonney[msg.sender] */\n      swap1\n      pop\n        /* \"Campaign.sol\":5678:5697  uint256 newTotalBid */\n      0x00\n        /* \"Campaign.sol\":5713:5722  msg.value */\n      callvalue\n        /* \"Campaign.sol\":5700:5710  currentBid */\n      dup3\n        /* \"Campaign.sol\":5700:5722  currentBid + msg.value */\n      tag_254\n      swap2\n      swap1\n      tag_255\n      jump\t// in\n    tag_254:\n        /* \"Campaign.sol\":5678:5722  uint256 newTotalBid = currentBid + msg.value */\n      swap1\n      pop\n        /* \"Campaign.sol\":5758:5777  minimumContribution */\n      sload(0x02)\n        /* \"Campaign.sol\":5743:5754  newTotalBid */\n      dup2\n        /* \"Campaign.sol\":5743:5777  newTotalBid >= minimumContribution */\n      lt\n      iszero\n        /* \"Campaign.sol\":5735:5799  require(newTotalBid >= minimumContribution, \"Bid below minimum\") */\n      tag_256\n      jumpi\n      mload(0x40)\n      0x08c379a000000000000000000000000000000000000000000000000000000000\n      dup2\n      mstore\n      0x04\n      add\n      tag_257\n      swap1\n      tag_258\n      jump\t// in\n    tag_257:\n      mload(0x40)\n      dup1\n      swap2\n      sub\n      swap1\n      revert\n    tag_256:\n        /* \"Campaign.sol\":5846:5856  highestBid */\n      sload(0x0a)\n        /* \"Campaign.sol\":5832:5843  newTotalBid */\n      dup2\n        /* \"Campaign.sol\":5832:5856  newTotalBid > highestBid */\n      gt\n        /* \"Campaign.sol\":5810:5922  require(... */\n      tag_259\n      jumpi\n      mload(0x40)\n      0x08c379a000000000000000000000000000000000000000000000000000000000\n      dup2\n      mstore\n      0x04\n      add\n      tag_260\n      swap1\n      tag_261\n      jump\t// in\n    tag_260:\n      mload(0x40)\n      dup1\n      swap2\n      sub\n      swap1\n      revert\n    tag_259:\n        /* \"Campaign.sol\":5988:5998  msg.sender */\n      caller\n        /* \"Campaign.sol\":5972:5985  highestBidder */\n      0x09\n      0x00\n        /* \"Campaign.sol\":5972:5998  highestBidder = msg.sender */\n      0x0100\n      exp\n      dup2\n      sload\n      dup2\n      0xffffffffffffffffffffffffffffffffffffffff\n      mul\n      not\n      and\n      swap1\n      dup4\n      0xffffffffffffffffffffffffffffffffffffffff\n      and\n      mul\n      or\n      swap1\n      sstore\n      pop\n        /* \"Campaign.sol\":6022:6033  newTotalBid */\n      dup1\n        /* \"Campaign.sol\":6009:6019  highestBid */\n      0x0a\n        /* \"Campaign.sol\":6009:6033  highestBid = newTotalBid */\n      dup2\n      swap1\n      sstore\n      pop\n        /* \"Campaign.sol\":6074:6085  newTotalBid */\n      dup1\n        /* \"Campaign.sol\":6044:6059  approversMonney */\n      0x06\n        /* \"Campaign.sol\":6044:6071  approversMonney[msg.sender] */\n      0x00\n        /* \"Campaign.sol\":6060:6070  msg.sender */\n      caller\n        /* \"Campaign.sol\":6044:6071  approversMonney[msg.sender] */\n      0xffffffffffffffffffffffffffffffffffffffff\n      and\n      0xffffffffffffffffffffffffffffffffffffffff\n      and\n      dup2\n      mstore\n      0x20\n      add\n      swap1\n      dup2\n      mstore\n      0x20\n      add\n      0x00\n      keccak256\n        /* \"Campaign.sol\":6044:6085  approversMonney[msg.sender] = newTotalBid */\n      dup2\n      swap1\n      sstore\n      pop\n        /* \"Campaign.sol\":6098:6110  transactions */\n      0x00\n        /* \"Campaign.sol\":6116:6159  Bid(msg.value, block.timestamp, msg.sender) */\n      mload(0x40)\n      dup1\n      0x60\n      add\n      0x40\n      mstore\n      dup1\n        /* \"Campaign.sol\":6120:6129  msg.value */\n      callvalue\n        /* \"Campaign.sol\":6116:6159  Bid(msg.value, block.timestamp, msg.sender) */\n      dup2\n      mstore\n      0x20\n      add\n        /* \"Campaign.sol\":6131:6146  block.timestamp */\n      timestamp\n        /* \"Campaign.sol\":6116:6159  Bid(msg.value, block.timestamp, msg.sender) */\n      dup2\n      mstore\n      0x20\n      add\n        /* \"Campaign.sol\":6148:6158  msg.sender */\n      caller\n        /* \"Campaign.sol\":6116:6159  Bid(msg.value, block.timestamp, msg.sender) */\n      0xffffffffffffffffffffffffffffffffffffffff\n      and\n      dup2\n      mstore\n      pop\n        /* \"Campaign.sol\":6098:6160  transactions.push(Bid(msg.value, block.timestamp, msg.sender)) */\n      swap1\n      dup1\n      0x01\n      dup2\n      sload\n      add\n      dup1\n      dup3\n      sstore\n      dup1\n      swap2\n      pop\n      pop\n      0x01\n      swap1\n      sub\n      swap1\n      0x00\n      mstore\n      keccak256(0x00, 0x20)\n      swap1\n      0x03\n      mul\n      add\n      0x00\n      swap1\n      swap2\n      swap1\n      swap2\n      swap1\n      swap2\n      pop\n      0x00\n      dup3\n      add\n      mload\n      dup2\n      0x00\n      add\n      sstore\n      0x20\n      dup3\n      add\n      mload\n      dup2\n      0x01\n      add\n      sstore\n      0x40\n      dup3\n      add\n      mload\n      dup2\n      0x02\n      add\n      exp(0x0100, 0x00)\n      dup2\n      sload\n      dup2\n      0xffffffffffffffffffffffffffffffffffffffff\n      mul\n      not\n      and\n      swap1\n      dup4\n      0xffffffffffffffffffffffffffffffffffffffff\n      and\n      mul\n      or\n      swap1\n      sstore\n      pop\n      pop\n      pop\n        /* \"Campaign.sol\":6178:6187  approvers */\n      0x05\n        /* \"Campaign.sol\":6178:6199  approvers[msg.sender] */\n      0x00\n        /* \"Campaign.sol\":6188:6198  msg.sender */\n      caller\n        /* \"Campaign.sol\":6178:6199  approvers[msg.sender] */\n      0xffffffffffffffffffffffffffffffffffffffff\n      and\n      0xffffffffffffffffffffffffffffffffffffffff\n      and\n      dup2\n      mstore\n      0x20\n      add\n      swap1\n      dup2\n      mstore\n      0x20\n      add\n      0x00\n      keccak256\n      0x00\n      swap1\n      sload\n      swap1\n      0x0100\n      exp\n      swap1\n      div\n      0xff\n      and\n        /* \"Campaign.sol\":6173:6328  if (!approvers[msg.sender]) {... */\n      tag_263\n      jumpi\n        /* \"Campaign.sol\":6240:6244  true */\n      0x01\n        /* \"Campaign.sol\":6216:6225  approvers */\n      0x05\n        /* \"Campaign.sol\":6216:6237  approvers[msg.sender] */\n      0x00\n        /* \"Campaign.sol\":6226:6236  msg.sender */\n      caller\n        /* \"Campaign.sol\":6216:6237  approvers[msg.sender] */\n      0xffffffffffffffffffffffffffffffffffffffff\n      and\n      0xffffffffffffffffffffffffffffffffffffffff\n      and\n      dup2\n      mstore\n      0x20\n      add\n      swap1\n      dup2\n      mstore\n      0x20\n      add\n      0x00\n      keccak256\n      0x00\n        /* \"Campaign.sol\":6216:6244  approvers[msg.sender] = true */\n      0x0100\n      exp\n      dup2\n      sload\n      dup2\n      0xff\n      mul\n      not\n      and\n      swap1\n      dup4\n      iszero\n      iszero\n      mul\n      or\n      swap1\n      sstore\n      pop\n        /* \"Campaign.sol\":6259:6273  approversCount */\n      0x07\n      0x00\n        /* \"Campaign.sol\":6259:6275  approversCount++ */\n      dup2\n      sload\n      dup1\n      swap3\n      swap2\n      swap1\n      tag_264\n      swap1\n      tag_265\n      jump\t// in\n    tag_264:\n      swap2\n      swap1\n      pop\n      sstore\n      pop\n        /* \"Campaign.sol\":6290:6299  addresses */\n      0x08\n        /* \"Campaign.sol\":6305:6315  msg.sender */\n      caller\n        /* \"Campaign.sol\":6290:6316  addresses.push(msg.sender) */\n      swap1\n      dup1\n      0x01\n      dup2\n      sload\n      add\n      dup1\n      dup3\n      sstore\n      dup1\n      swap2\n      pop\n      pop\n      0x01\n      swap1\n      sub\n      swap1\n      0x00\n      mstore\n      keccak256(0x00, 0x20)\n      add\n      0x00\n      swap1\n      swap2\n      swap1\n      swap2\n      swap1\n      swap2\n      0x0100\n      exp\n      dup2\n      sload\n      dup2\n      0xffffffffffffffffffffffffffffffffffffffff\n      mul\n      not\n      and\n      swap1\n      dup4\n      0xffffffffffffffffffffffffffffffffffffffff\n      and\n      mul\n      or\n      swap1\n      sstore\n      pop\n        /* \"Campaign.sol\":6173:6328  if (!approvers[msg.sender]) {... */\n    tag_263:\n        /* \"Campaign.sol\":5408:6335  {... */\n      pop\n      pop\n        /* \"Campaign.sol\":5371:6335  function contribute() public payable {... */\n      jump\t// out\n        /* \"Campaign.sol\":2262:2288  address[] public addresses */\n    tag_150:\n      0x08\n      dup2\n      dup2\n      sload\n      dup2\n      lt\n      tag_267\n      jumpi\n      0x00\n      dup1\n      revert\n    tag_267:\n      swap1\n      0x00\n      mstore\n      keccak256(0x00, 0x20)\n      add\n      0x00\n      swap2\n      pop\n      sload\n      swap1\n      0x0100\n      exp\n      swap1\n      div\n      0xffffffffffffffffffffffffffffffffffffffff\n      and\n      dup2\n      jump\t// out\n        /* \"#utility.yul\":88:205   */\n    tag_270:\n        /* \"#utility.yul\":197:198   */\n      0x00\n        /* \"#utility.yul\":194:195   */\n      0x00\n        /* \"#utility.yul\":187:199   */\n      revert\n        /* \"#utility.yul\":334:460   */\n    tag_272:\n        /* \"#utility.yul\":371:378   */\n      0x00\n        /* \"#utility.yul\":411:453   */\n      0xffffffffffffffffffffffffffffffffffffffff\n        /* \"#utility.yul\":404:409   */\n      dup3\n        /* \"#utility.yul\":400:454   */\n      and\n        /* \"#utility.yul\":389:454   */\n      swap1\n      pop\n        /* \"#utility.yul\":334:460   */\n      swap2\n      swap1\n      pop\n      jump\t// out\n        /* \"#utility.yul\":466:562   */\n    tag_273:\n        /* \"#utility.yul\":503:510   */\n      0x00\n        /* \"#utility.yul\":532:556   */\n      tag_333\n        /* \"#utility.yul\":550:555   */\n      dup3\n        /* \"#utility.yul\":532:556   */\n      tag_272\n      jump\t// in\n    tag_333:\n        /* \"#utility.yul\":521:556   */\n      swap1\n      pop\n        /* \"#utility.yul\":466:562   */\n      swap2\n      swap1\n      pop\n      jump\t// out\n        /* \"#utility.yul\":568:690   */\n    tag_274:\n        /* \"#utility.yul\":641:665   */\n      tag_335\n        /* \"#utility.yul\":659:664   */\n      dup2\n        /* \"#utility.yul\":641:665   */\n      tag_273\n      jump\t// in\n    tag_335:\n        /* \"#utility.yul\":634:639   */\n      dup2\n        /* \"#utility.yul\":631:666   */\n      eq\n        /* \"#utility.yul\":621:684   */\n      tag_336\n      jumpi\n        /* \"#utility.yul\":680:681   */\n      0x00\n        /* \"#utility.yul\":677:678   */\n      0x00\n        /* \"#utility.yul\":670:682   */\n      revert\n        /* \"#utility.yul\":621:684   */\n    tag_336:\n        /* \"#utility.yul\":568:690   */\n      pop\n      jump\t// out\n        /* \"#utility.yul\":696:835   */\n    tag_275:\n        /* \"#utility.yul\":742:747   */\n      0x00\n        /* \"#utility.yul\":780:786   */\n      dup2\n        /* \"#utility.yul\":767:787   */\n      calldataload\n        /* \"#utility.yul\":758:787   */\n      swap1\n      pop\n        /* \"#utility.yul\":796:829   */\n      tag_338\n        /* \"#utility.yul\":823:828   */\n      dup2\n        /* \"#utility.yul\":796:829   */\n      tag_274\n      jump\t// in\n    tag_338:\n        /* \"#utility.yul\":696:835   */\n      swap3\n      swap2\n      pop\n      pop\n      jump\t// out\n        /* \"#utility.yul\":841:1170   */\n    tag_36:\n        /* \"#utility.yul\":900:906   */\n      0x00\n        /* \"#utility.yul\":949:951   */\n      0x20\n        /* \"#utility.yul\":937:946   */\n      dup3\n        /* \"#utility.yul\":928:935   */\n      dup5\n        /* \"#utility.yul\":924:947   */\n      sub\n        /* \"#utility.yul\":920:952   */\n      slt\n        /* \"#utility.yul\":917:1036   */\n      iszero\n      tag_340\n      jumpi\n        /* \"#utility.yul\":955:1034   */\n      tag_341\n      tag_270\n      jump\t// in\n    tag_341:\n        /* \"#utility.yul\":917:1036   */\n    tag_340:\n        /* \"#utility.yul\":1075:1076   */\n      0x00\n        /* \"#utility.yul\":1100:1153   */\n      tag_342\n        /* \"#utility.yul\":1145:1152   */\n      dup5\n        /* \"#utility.yul\":1136:1142   */\n      dup3\n        /* \"#utility.yul\":1125:1134   */\n      dup6\n        /* \"#utility.yul\":1121:1143   */\n      add\n        /* \"#utility.yul\":1100:1153   */\n      tag_275\n      jump\t// in\n    tag_342:\n        /* \"#utility.yul\":1090:1153   */\n      swap2\n      pop\n        /* \"#utility.yul\":1046:1163   */\n      pop\n        /* \"#utility.yul\":841:1170   */\n      swap3\n      swap2\n      pop\n      pop\n      jump\t// out\n        /* \"#utility.yul\":1176:1266   */\n    tag_276:\n        /* \"#utility.yul\":1210:1217   */\n      0x00\n        /* \"#utility.yul\":1253:1258   */\n      dup2\n        /* \"#utility.yul\":1246:1259   */\n      iszero\n        /* \"#utility.yul\":1239:1260   */\n      iszero\n        /* \"#utility.yul\":1228:1260   */\n      swap1\n      pop\n        /* \"#utility.yul\":1176:1266   */\n      swap2\n      swap1\n      pop\n      jump\t// out\n        /* \"#utility.yul\":1272:1381   */\n    tag_277:\n        /* \"#utility.yul\":1353:1374   */\n      tag_345\n        /* \"#utility.yul\":1368:1373   */\n      dup2\n        /* \"#utility.yul\":1353:1374   */\n      tag_276\n      jump\t// in\n    tag_345:\n        /* \"#utility.yul\":1348:1351   */\n      dup3\n        /* \"#utility.yul\":1341:1375   */\n      mstore\n        /* \"#utility.yul\":1272:1381   */\n      pop\n      pop\n      jump\t// out\n        /* \"#utility.yul\":1387:1597   */\n    tag_39:\n        /* \"#utility.yul\":1474:1478   */\n      0x00\n        /* \"#utility.yul\":1512:1514   */\n      0x20\n        /* \"#utility.yul\":1501:1510   */\n      dup3\n        /* \"#utility.yul\":1497:1515   */\n      add\n        /* \"#utility.yul\":1489:1515   */\n      swap1\n      pop\n        /* \"#utility.yul\":1525:1590   */\n      tag_347\n        /* \"#utility.yul\":1587:1588   */\n      0x00\n        /* \"#utility.yul\":1576:1585   */\n      dup4\n        /* \"#utility.yul\":1572:1589   */\n      add\n        /* \"#utility.yul\":1563:1569   */\n      dup5\n        /* \"#utility.yul\":1525:1590   */\n      tag_277\n      jump\t// in\n    tag_347:\n        /* \"#utility.yul\":1387:1597   */\n      swap3\n      swap2\n      pop\n      pop\n      jump\t// out\n        /* \"#utility.yul\":1603:1680   */\n    tag_278:\n        /* \"#utility.yul\":1640:1647   */\n      0x00\n        /* \"#utility.yul\":1669:1674   */\n      dup2\n        /* \"#utility.yul\":1658:1674   */\n      swap1\n      pop\n        /* \"#utility.yul\":1603:1680   */\n      swap2\n      swap1\n      pop\n      jump\t// out\n        /* \"#utility.yul\":1686:1804   */\n    tag_279:\n        /* \"#utility.yul\":1773:1797   */\n      tag_350\n        /* \"#utility.yul\":1791:1796   */\n      dup2\n        /* \"#utility.yul\":1773:1797   */\n      tag_278\n      jump\t// in\n    tag_350:\n        /* \"#utility.yul\":1768:1771   */\n      dup3\n        /* \"#utility.yul\":1761:1798   */\n      mstore\n        /* \"#utility.yul\":1686:1804   */\n      pop\n      pop\n      jump\t// out\n        /* \"#utility.yul\":1810:2032   */\n    tag_49:\n        /* \"#utility.yul\":1903:1907   */\n      0x00\n        /* \"#utility.yul\":1941:1943   */\n      0x20\n        /* \"#utility.yul\":1930:1939   */\n      dup3\n        /* \"#utility.yul\":1926:1944   */\n      add\n        /* \"#utility.yul\":1918:1944   */\n      swap1\n      pop\n        /* \"#utility.yul\":1954:2025   */\n      tag_352\n        /* \"#utility.yul\":2022:2023   */\n      0x00\n        /* \"#utility.yul\":2011:2020   */\n      dup4\n        /* \"#utility.yul\":2007:2024   */\n      add\n        /* \"#utility.yul\":1998:2004   */\n      dup5\n        /* \"#utility.yul\":1954:2025   */\n      tag_279\n      jump\t// in\n    tag_352:\n        /* \"#utility.yul\":1810:2032   */\n      swap3\n      swap2\n      pop\n      pop\n      jump\t// out\n        /* \"#utility.yul\":2038:2156   */\n    tag_280:\n        /* \"#utility.yul\":2125:2149   */\n      tag_354\n        /* \"#utility.yul\":2143:2148   */\n      dup2\n        /* \"#utility.yul\":2125:2149   */\n      tag_273\n      jump\t// in\n    tag_354:\n        /* \"#utility.yul\":2120:2123   */\n      dup3\n        /* \"#utility.yul\":2113:2150   */\n      mstore\n        /* \"#utility.yul\":2038:2156   */\n      pop\n      pop\n      jump\t// out\n        /* \"#utility.yul\":2162:2261   */\n    tag_281:\n        /* \"#utility.yul\":2214:2220   */\n      0x00\n        /* \"#utility.yul\":2248:2253   */\n      dup2\n        /* \"#utility.yul\":2242:2254   */\n      mload\n        /* \"#utility.yul\":2232:2254   */\n      swap1\n      pop\n        /* \"#utility.yul\":2162:2261   */\n      swap2\n      swap1\n      pop\n      jump\t// out\n        /* \"#utility.yul\":2267:2436   */\n    tag_282:\n        /* \"#utility.yul\":2351:2362   */\n      0x00\n        /* \"#utility.yul\":2385:2391   */\n      dup3\n        /* \"#utility.yul\":2380:2383   */\n      dup3\n        /* \"#utility.yul\":2373:2392   */\n      mstore\n        /* \"#utility.yul\":2425:2429   */\n      0x20\n        /* \"#utility.yul\":2420:2423   */\n      dup3\n        /* \"#utility.yul\":2416:2430   */\n      add\n        /* \"#utility.yul\":2401:2430   */\n      swap1\n      pop\n        /* \"#utility.yul\":2267:2436   */\n      swap3\n      swap2\n      pop\n      pop\n      jump\t// out\n        /* \"#utility.yul\":2442:2581   */\n    tag_283:\n        /* \"#utility.yul\":2531:2537   */\n      dup3\n        /* \"#utility.yul\":2526:2529   */\n      dup2\n        /* \"#utility.yul\":2521:2524   */\n      dup4\n        /* \"#utility.yul\":2515:2538   */\n      mcopy\n        /* \"#utility.yul\":2572:2573   */\n      0x00\n        /* \"#utility.yul\":2563:2569   */\n      dup4\n        /* \"#utility.yul\":2558:2561   */\n      dup4\n        /* \"#utility.yul\":2554:2570   */\n      add\n        /* \"#utility.yul\":2547:2574   */\n      mstore\n        /* \"#utility.yul\":2442:2581   */\n      pop\n      pop\n      pop\n      jump\t// out\n        /* \"#utility.yul\":2587:2689   */\n    tag_284:\n        /* \"#utility.yul\":2628:2634   */\n      0x00\n        /* \"#utility.yul\":2679:2681   */\n      0x1f\n        /* \"#utility.yul\":2675:2682   */\n      not\n        /* \"#utility.yul\":2670:2672   */\n      0x1f\n        /* \"#utility.yul\":2663:2668   */\n      dup4\n        /* \"#utility.yul\":2659:2673   */\n      add\n        /* \"#utility.yul\":2655:2683   */\n      and\n        /* \"#utility.yul\":2645:2683   */\n      swap1\n      pop\n        /* \"#utility.yul\":2587:2689   */\n      swap2\n      swap1\n      pop\n      jump\t// out\n        /* \"#utility.yul\":2695:3072   */\n    tag_285:\n        /* \"#utility.yul\":2783:2786   */\n      0x00\n        /* \"#utility.yul\":2811:2850   */\n      tag_360\n        /* \"#utility.yul\":2844:2849   */\n      dup3\n        /* \"#utility.yul\":2811:2850   */\n      tag_281\n      jump\t// in\n    tag_360:\n        /* \"#utility.yul\":2866:2937   */\n      tag_361\n        /* \"#utility.yul\":2930:2936   */\n      dup2\n        /* \"#utility.yul\":2925:2928   */\n      dup6\n        /* \"#utility.yul\":2866:2937   */\n      tag_282\n      jump\t// in\n    tag_361:\n        /* \"#utility.yul\":2859:2937   */\n      swap4\n      pop\n        /* \"#utility.yul\":2946:3011   */\n      tag_362\n        /* \"#utility.yul\":3004:3010   */\n      dup2\n        /* \"#utility.yul\":2999:3002   */\n      dup6\n        /* \"#utility.yul\":2992:2996   */\n      0x20\n        /* \"#utility.yul\":2985:2990   */\n      dup7\n        /* \"#utility.yul\":2981:2997   */\n      add\n        /* \"#utility.yul\":2946:3011   */\n      tag_283\n      jump\t// in\n    tag_362:\n        /* \"#utility.yul\":3036:3065   */\n      tag_363\n        /* \"#utility.yul\":3058:3064   */\n      dup2\n        /* \"#utility.yul\":3036:3065   */\n      tag_284\n      jump\t// in\n    tag_363:\n        /* \"#utility.yul\":3031:3034   */\n      dup5\n        /* \"#utility.yul\":3027:3066   */\n      add\n        /* \"#utility.yul\":3020:3066   */\n      swap2\n      pop\n        /* \"#utility.yul\":2787:3072   */\n      pop\n        /* \"#utility.yul\":2695:3072   */\n      swap3\n      swap2\n      pop\n      pop\n      jump\t// out\n        /* \"#utility.yul\":3078:3192   */\n    tag_286:\n        /* \"#utility.yul\":3145:3151   */\n      0x00\n        /* \"#utility.yul\":3179:3184   */\n      dup2\n        /* \"#utility.yul\":3173:3185   */\n      mload\n        /* \"#utility.yul\":3163:3185   */\n      swap1\n      pop\n        /* \"#utility.yul\":3078:3192   */\n      swap2\n      swap1\n      pop\n      jump\t// out\n        /* \"#utility.yul\":3198:3382   */\n    tag_287:\n        /* \"#utility.yul\":3297:3308   */\n      0x00\n        /* \"#utility.yul\":3331:3337   */\n      dup3\n        /* \"#utility.yul\":3326:3329   */\n      dup3\n        /* \"#utility.yul\":3319:3338   */\n      mstore\n        /* \"#utility.yul\":3371:3375   */\n      0x20\n        /* \"#utility.yul\":3366:3369   */\n      dup3\n        /* \"#utility.yul\":3362:3376   */\n      add\n        /* \"#utility.yul\":3347:3376   */\n      swap1\n      pop\n        /* \"#utility.yul\":3198:3382   */\n      swap3\n      swap2\n      pop\n      pop\n      jump\t// out\n        /* \"#utility.yul\":3388:3520   */\n    tag_288:\n        /* \"#utility.yul\":3455:3459   */\n      0x00\n        /* \"#utility.yul\":3478:3481   */\n      dup2\n        /* \"#utility.yul\":3470:3481   */\n      swap1\n      pop\n        /* \"#utility.yul\":3508:3512   */\n      0x20\n        /* \"#utility.yul\":3503:3506   */\n      dup3\n        /* \"#utility.yul\":3499:3513   */\n      add\n        /* \"#utility.yul\":3491:3513   */\n      swap1\n      pop\n        /* \"#utility.yul\":3388:3520   */\n      swap2\n      swap1\n      pop\n      jump\t// out\n        /* \"#utility.yul\":3526:3634   */\n    tag_289:\n        /* \"#utility.yul\":3603:3627   */\n      tag_368\n        /* \"#utility.yul\":3621:3626   */\n      dup2\n        /* \"#utility.yul\":3603:3627   */\n      tag_273\n      jump\t// in\n    tag_368:\n        /* \"#utility.yul\":3598:3601   */\n      dup3\n        /* \"#utility.yul\":3591:3628   */\n      mstore\n        /* \"#utility.yul\":3526:3634   */\n      pop\n      pop\n      jump\t// out\n        /* \"#utility.yul\":3640:3819   */\n    tag_290:\n        /* \"#utility.yul\":3709:3719   */\n      0x00\n        /* \"#utility.yul\":3730:3776   */\n      tag_370\n        /* \"#utility.yul\":3772:3775   */\n      dup4\n        /* \"#utility.yul\":3764:3770   */\n      dup4\n        /* \"#utility.yul\":3730:3776   */\n      tag_289\n      jump\t// in\n    tag_370:\n        /* \"#utility.yul\":3808:3812   */\n      0x20\n        /* \"#utility.yul\":3803:3806   */\n      dup4\n        /* \"#utility.yul\":3799:3813   */\n      add\n        /* \"#utility.yul\":3785:3813   */\n      swap1\n      pop\n        /* \"#utility.yul\":3640:3819   */\n      swap3\n      swap2\n      pop\n      pop\n      jump\t// out\n        /* \"#utility.yul\":3825:3938   */\n    tag_291:\n        /* \"#utility.yul\":3895:3899   */\n      0x00\n        /* \"#utility.yul\":3927:3931   */\n      0x20\n        /* \"#utility.yul\":3922:3925   */\n      dup3\n        /* \"#utility.yul\":3918:3932   */\n      add\n        /* \"#utility.yul\":3910:3932   */\n      swap1\n      pop\n        /* \"#utility.yul\":3825:3938   */\n      swap2\n      swap1\n      pop\n      jump\t// out\n        /* \"#utility.yul\":3974:4706   */\n    tag_292:\n        /* \"#utility.yul\":4093:4096   */\n      0x00\n        /* \"#utility.yul\":4122:4176   */\n      tag_373\n        /* \"#utility.yul\":4170:4175   */\n      dup3\n        /* \"#utility.yul\":4122:4176   */\n      tag_286\n      jump\t// in\n    tag_373:\n        /* \"#utility.yul\":4192:4278   */\n      tag_374\n        /* \"#utility.yul\":4271:4277   */\n      dup2\n        /* \"#utility.yul\":4266:4269   */\n      dup6\n        /* \"#utility.yul\":4192:4278   */\n      tag_287\n      jump\t// in\n    tag_374:\n        /* \"#utility.yul\":4185:4278   */\n      swap4\n      pop\n        /* \"#utility.yul\":4302:4358   */\n      tag_375\n        /* \"#utility.yul\":4352:4357   */\n      dup4\n        /* \"#utility.yul\":4302:4358   */\n      tag_288\n      jump\t// in\n    tag_375:\n        /* \"#utility.yul\":4381:4388   */\n      dup1\n        /* \"#utility.yul\":4412:4413   */\n      0x00\n        /* \"#utility.yul\":4397:4681   */\n    tag_376:\n        /* \"#utility.yul\":4422:4428   */\n      dup4\n        /* \"#utility.yul\":4419:4420   */\n      dup2\n        /* \"#utility.yul\":4416:4429   */\n      lt\n        /* \"#utility.yul\":4397:4681   */\n      iszero\n      tag_378\n      jumpi\n        /* \"#utility.yul\":4498:4504   */\n      dup2\n        /* \"#utility.yul\":4492:4505   */\n      mload\n        /* \"#utility.yul\":4525:4588   */\n      tag_379\n        /* \"#utility.yul\":4584:4587   */\n      dup9\n        /* \"#utility.yul\":4569:4582   */\n      dup3\n        /* \"#utility.yul\":4525:4588   */\n      tag_290\n      jump\t// in\n    tag_379:\n        /* \"#utility.yul\":4518:4588   */\n      swap8\n      pop\n        /* \"#utility.yul\":4611:4671   */\n      tag_380\n        /* \"#utility.yul\":4664:4670   */\n      dup4\n        /* \"#utility.yul\":4611:4671   */\n      tag_291\n      jump\t// in\n    tag_380:\n        /* \"#utility.yul\":4601:4671   */\n      swap3\n      pop\n        /* \"#utility.yul\":4457:4681   */\n      pop\n        /* \"#utility.yul\":4444:4445   */\n      0x01\n        /* \"#utility.yul\":4441:4442   */\n      dup2\n        /* \"#utility.yul\":4437:4446   */\n      add\n        /* \"#utility.yul\":4432:4446   */\n      swap1\n      pop\n        /* \"#utility.yul\":4397:4681   */\n      jump(tag_376)\n    tag_378:\n        /* \"#utility.yul\":4401:4415   */\n      pop\n        /* \"#utility.yul\":4697:4700   */\n      dup6\n        /* \"#utility.yul\":4690:4700   */\n      swap4\n      pop\n        /* \"#utility.yul\":4098:4706   */\n      pop\n      pop\n      pop\n        /* \"#utility.yul\":3974:4706   */\n      swap3\n      swap2\n      pop\n      pop\n      jump\t// out\n        /* \"#utility.yul\":4712:6264   */\n    tag_62:\n        /* \"#utility.yul\":5147:5151   */\n      0x00\n        /* \"#utility.yul\":5185:5188   */\n      0x0140\n        /* \"#utility.yul\":5174:5183   */\n      dup3\n        /* \"#utility.yul\":5170:5189   */\n      add\n        /* \"#utility.yul\":5162:5189   */\n      swap1\n      pop\n        /* \"#utility.yul\":5199:5270   */\n      tag_382\n        /* \"#utility.yul\":5267:5268   */\n      0x00\n        /* \"#utility.yul\":5256:5265   */\n      dup4\n        /* \"#utility.yul\":5252:5269   */\n      add\n        /* \"#utility.yul\":5243:5249   */\n      dup14\n        /* \"#utility.yul\":5199:5270   */\n      tag_279\n      jump\t// in\n    tag_382:\n        /* \"#utility.yul\":5280:5352   */\n      tag_383\n        /* \"#utility.yul\":5348:5350   */\n      0x20\n        /* \"#utility.yul\":5337:5346   */\n      dup4\n        /* \"#utility.yul\":5333:5351   */\n      add\n        /* \"#utility.yul\":5324:5330   */\n      dup13\n        /* \"#utility.yul\":5280:5352   */\n      tag_279\n      jump\t// in\n    tag_383:\n        /* \"#utility.yul\":5362:5434   */\n      tag_384\n        /* \"#utility.yul\":5430:5432   */\n      0x40\n        /* \"#utility.yul\":5419:5428   */\n      dup4\n        /* \"#utility.yul\":5415:5433   */\n      add\n        /* \"#utility.yul\":5406:5412   */\n      dup12\n        /* \"#utility.yul\":5362:5434   */\n      tag_279\n      jump\t// in\n    tag_384:\n        /* \"#utility.yul\":5444:5516   */\n      tag_385\n        /* \"#utility.yul\":5512:5514   */\n      0x60\n        /* \"#utility.yul\":5501:5510   */\n      dup4\n        /* \"#utility.yul\":5497:5515   */\n      add\n        /* \"#utility.yul\":5488:5494   */\n      dup11\n        /* \"#utility.yul\":5444:5516   */\n      tag_280\n      jump\t// in\n    tag_385:\n        /* \"#utility.yul\":5526:5599   */\n      tag_386\n        /* \"#utility.yul\":5594:5597   */\n      0x80\n        /* \"#utility.yul\":5583:5592   */\n      dup4\n        /* \"#utility.yul\":5579:5598   */\n      add\n        /* \"#utility.yul\":5570:5576   */\n      dup10\n        /* \"#utility.yul\":5526:5599   */\n      tag_279\n      jump\t// in\n    tag_386:\n        /* \"#utility.yul\":5647:5656   */\n      dup2\n        /* \"#utility.yul\":5641:5645   */\n      dup2\n        /* \"#utility.yul\":5637:5657   */\n      sub\n        /* \"#utility.yul\":5631:5634   */\n      0xa0\n        /* \"#utility.yul\":5620:5629   */\n      dup4\n        /* \"#utility.yul\":5616:5635   */\n      add\n        /* \"#utility.yul\":5609:5658   */\n      mstore\n        /* \"#utility.yul\":5675:5753   */\n      tag_387\n        /* \"#utility.yul\":5748:5752   */\n      dup2\n        /* \"#utility.yul\":5739:5745   */\n      dup9\n        /* \"#utility.yul\":5675:5753   */\n      tag_285\n      jump\t// in\n    tag_387:\n        /* \"#utility.yul\":5667:5753   */\n      swap1\n      pop\n        /* \"#utility.yul\":5801:5810   */\n      dup2\n        /* \"#utility.yul\":5795:5799   */\n      dup2\n        /* \"#utility.yul\":5791:5811   */\n      sub\n        /* \"#utility.yul\":5785:5788   */\n      0xc0\n        /* \"#utility.yul\":5774:5783   */\n      dup4\n        /* \"#utility.yul\":5770:5789   */\n      add\n        /* \"#utility.yul\":5763:5812   */\n      mstore\n        /* \"#utility.yul\":5829:5907   */\n      tag_388\n        /* \"#utility.yul\":5902:5906   */\n      dup2\n        /* \"#utility.yul\":5893:5899   */\n      dup8\n        /* \"#utility.yul\":5829:5907   */\n      tag_285\n      jump\t// in\n    tag_388:\n        /* \"#utility.yul\":5821:5907   */\n      swap1\n      pop\n        /* \"#utility.yul\":5917:5990   */\n      tag_389\n        /* \"#utility.yul\":5985:5988   */\n      0xe0\n        /* \"#utility.yul\":5974:5983   */\n      dup4\n        /* \"#utility.yul\":5970:5989   */\n      add\n        /* \"#utility.yul\":5961:5967   */\n      dup7\n        /* \"#utility.yul\":5917:5990   */\n      tag_279\n      jump\t// in\n    tag_389:\n        /* \"#utility.yul\":6000:6073   */\n      tag_390\n        /* \"#utility.yul\":6068:6071   */\n      0x0100\n        /* \"#utility.yul\":6057:6066   */\n      dup4\n        /* \"#utility.yul\":6053:6072   */\n      add\n        /* \"#utility.yul\":6044:6050   */\n      dup6\n        /* \"#utility.yul\":6000:6073   */\n      tag_280\n      jump\t// in\n    tag_390:\n        /* \"#utility.yul\":6121:6130   */\n      dup2\n        /* \"#utility.yul\":6115:6119   */\n      dup2\n        /* \"#utility.yul\":6111:6131   */\n      sub\n        /* \"#utility.yul\":6105:6108   */\n      0x0120\n        /* \"#utility.yul\":6094:6103   */\n      dup4\n        /* \"#utility.yul\":6090:6109   */\n      add\n        /* \"#utility.yul\":6083:6132   */\n      mstore\n        /* \"#utility.yul\":6149:6257   */\n      tag_391\n        /* \"#utility.yul\":6252:6256   */\n      dup2\n        /* \"#utility.yul\":6243:6249   */\n      dup5\n        /* \"#utility.yul\":6149:6257   */\n      tag_292\n      jump\t// in\n    tag_391:\n        /* \"#utility.yul\":6141:6257   */\n      swap1\n      pop\n        /* \"#utility.yul\":4712:6264   */\n      swap12\n      swap11\n      pop\n      pop\n      pop\n      pop\n      pop\n      pop\n      pop\n      pop\n      pop\n      pop\n      pop\n      jump\t// out\n        /* \"#utility.yul\":6270:6492   */\n    tag_67:\n        /* \"#utility.yul\":6363:6367   */\n      0x00\n        /* \"#utility.yul\":6401:6403   */\n      0x20\n        /* \"#utility.yul\":6390:6399   */\n      dup3\n        /* \"#utility.yul\":6386:6404   */\n      add\n        /* \"#utility.yul\":6378:6404   */\n      swap1\n      pop\n        /* \"#utility.yul\":6414:6485   */\n      tag_393\n        /* \"#utility.yul\":6482:6483   */\n      0x00\n        /* \"#utility.yul\":6471:6480   */\n      dup4\n        /* \"#utility.yul\":6467:6484   */\n      add\n        /* \"#utility.yul\":6458:6464   */\n      dup5\n        /* \"#utility.yul\":6414:6485   */\n      tag_280\n      jump\t// in\n    tag_393:\n        /* \"#utility.yul\":6270:6492   */\n      swap3\n      swap2\n      pop\n      pop\n      jump\t// out\n        /* \"#utility.yul\":6498:6602   */\n    tag_293:\n        /* \"#utility.yul\":6543:6550   */\n      0x00\n        /* \"#utility.yul\":6572:6596   */\n      tag_395\n        /* \"#utility.yul\":6590:6595   */\n      dup3\n        /* \"#utility.yul\":6572:6596   */\n      tag_272\n      jump\t// in\n    tag_395:\n        /* \"#utility.yul\":6561:6596   */\n      swap1\n      pop\n        /* \"#utility.yul\":6498:6602   */\n      swap2\n      swap1\n      pop\n      jump\t// out\n        /* \"#utility.yul\":6608:6746   */\n    tag_294:\n        /* \"#utility.yul\":6689:6721   */\n      tag_397\n        /* \"#utility.yul\":6715:6720   */\n      dup2\n        /* \"#utility.yul\":6689:6721   */\n      tag_293\n      jump\t// in\n    tag_397:\n        /* \"#utility.yul\":6682:6687   */\n      dup2\n        /* \"#utility.yul\":6679:6722   */\n      eq\n        /* \"#utility.yul\":6669:6740   */\n      tag_398\n      jumpi\n        /* \"#utility.yul\":6736:6737   */\n      0x00\n        /* \"#utility.yul\":6733:6734   */\n      0x00\n        /* \"#utility.yul\":6726:6738   */\n      revert\n        /* \"#utility.yul\":6669:6740   */\n    tag_398:\n        /* \"#utility.yul\":6608:6746   */\n      pop\n      jump\t// out\n        /* \"#utility.yul\":6752:6907   */\n    tag_295:\n        /* \"#utility.yul\":6806:6811   */\n      0x00\n        /* \"#utility.yul\":6844:6850   */\n      dup2\n        /* \"#utility.yul\":6831:6851   */\n      calldataload\n        /* \"#utility.yul\":6822:6851   */\n      swap1\n      pop\n        /* \"#utility.yul\":6860:6901   */\n      tag_400\n        /* \"#utility.yul\":6895:6900   */\n      dup2\n        /* \"#utility.yul\":6860:6901   */\n      tag_294\n      jump\t// in\n    tag_400:\n        /* \"#utility.yul\":6752:6907   */\n      swap3\n      swap2\n      pop\n      pop\n      jump\t// out\n        /* \"#utility.yul\":6913:7258   */\n    tag_75:\n        /* \"#utility.yul\":6980:6986   */\n      0x00\n        /* \"#utility.yul\":7029:7031   */\n      0x20\n        /* \"#utility.yul\":7017:7026   */\n      dup3\n        /* \"#utility.yul\":7008:7015   */\n      dup5\n        /* \"#utility.yul\":7004:7027   */\n      sub\n        /* \"#utility.yul\":7000:7032   */\n      slt\n        /* \"#utility.yul\":6997:7116   */\n      iszero\n      tag_402\n      jumpi\n        /* \"#utility.yul\":7035:7114   */\n      tag_403\n      tag_270\n      jump\t// in\n    tag_403:\n        /* \"#utility.yul\":6997:7116   */\n    tag_402:\n        /* \"#utility.yul\":7155:7156   */\n      0x00\n        /* \"#utility.yul\":7180:7241   */\n      tag_404\n        /* \"#utility.yul\":7233:7240   */\n      dup5\n        /* \"#utility.yul\":7224:7230   */\n      dup3\n        /* \"#utility.yul\":7213:7222   */\n      dup6\n        /* \"#utility.yul\":7209:7231   */\n      add\n        /* \"#utility.yul\":7180:7241   */\n      tag_295\n      jump\t// in\n    tag_404:\n        /* \"#utility.yul\":7170:7241   */\n      swap2\n      pop\n        /* \"#utility.yul\":7126:7251   */\n      pop\n        /* \"#utility.yul\":6913:7258   */\n      swap3\n      swap2\n      pop\n      pop\n      jump\t// out\n        /* \"#utility.yul\":7264:7577   */\n    tag_81:\n        /* \"#utility.yul\":7377:7381   */\n      0x00\n        /* \"#utility.yul\":7415:7417   */\n      0x20\n        /* \"#utility.yul\":7404:7413   */\n      dup3\n        /* \"#utility.yul\":7400:7418   */\n      add\n        /* \"#utility.yul\":7392:7418   */\n      swap1\n      pop\n        /* \"#utility.yul\":7464:7473   */\n      dup2\n        /* \"#utility.yul\":7458:7462   */\n      dup2\n        /* \"#utility.yul\":7454:7474   */\n      sub\n        /* \"#utility.yul\":7450:7451   */\n      0x00\n        /* \"#utility.yul\":7439:7448   */\n      dup4\n        /* \"#utility.yul\":7435:7452   */\n      add\n        /* \"#utility.yul\":7428:7475   */\n      mstore\n        /* \"#utility.yul\":7492:7570   */\n      tag_406\n        /* \"#utility.yul\":7565:7569   */\n      dup2\n        /* \"#utility.yul\":7556:7562   */\n      dup5\n        /* \"#utility.yul\":7492:7570   */\n      tag_285\n      jump\t// in\n    tag_406:\n        /* \"#utility.yul\":7484:7570   */\n      swap1\n      pop\n        /* \"#utility.yul\":7264:7577   */\n      swap3\n      swap2\n      pop\n      pop\n      jump\t// out\n        /* \"#utility.yul\":7583:8057   */\n    tag_93:\n        /* \"#utility.yul\":7651:7657   */\n      0x00\n        /* \"#utility.yul\":7659:7665   */\n      0x00\n        /* \"#utility.yul\":7708:7710   */\n      0x40\n        /* \"#utility.yul\":7696:7705   */\n      dup4\n        /* \"#utility.yul\":7687:7694   */\n      dup6\n        /* \"#utility.yul\":7683:7706   */\n      sub\n        /* \"#utility.yul\":7679:7711   */\n      slt\n        /* \"#utility.yul\":7676:7795   */\n      iszero\n      tag_408\n      jumpi\n        /* \"#utility.yul\":7714:7793   */\n      tag_409\n      tag_270\n      jump\t// in\n    tag_409:\n        /* \"#utility.yul\":7676:7795   */\n    tag_408:\n        /* \"#utility.yul\":7834:7835   */\n      0x00\n        /* \"#utility.yul\":7859:7912   */\n      tag_410\n        /* \"#utility.yul\":7904:7911   */\n      dup6\n        /* \"#utility.yul\":7895:7901   */\n      dup3\n        /* \"#utility.yul\":7884:7893   */\n      dup7\n        /* \"#utility.yul\":7880:7902   */\n      add\n        /* \"#utility.yul\":7859:7912   */\n      tag_275\n      jump\t// in\n    tag_410:\n        /* \"#utility.yul\":7849:7912   */\n      swap3\n      pop\n        /* \"#utility.yul\":7805:7922   */\n      pop\n        /* \"#utility.yul\":7961:7963   */\n      0x20\n        /* \"#utility.yul\":7987:8040   */\n      tag_411\n        /* \"#utility.yul\":8032:8039   */\n      dup6\n        /* \"#utility.yul\":8023:8029   */\n      dup3\n        /* \"#utility.yul\":8012:8021   */\n      dup7\n        /* \"#utility.yul\":8008:8030   */\n      add\n        /* \"#utility.yul\":7987:8040   */\n      tag_275\n      jump\t// in\n    tag_411:\n        /* \"#utility.yul\":7977:8040   */\n      swap2\n      pop\n        /* \"#utility.yul\":7932:8050   */\n      pop\n        /* \"#utility.yul\":7583:8057   */\n      swap3\n      pop\n      swap3\n      swap1\n      pop\n      jump\t// out\n        /* \"#utility.yul\":8063:8197   */\n    tag_296:\n        /* \"#utility.yul\":8150:8156   */\n      0x00\n        /* \"#utility.yul\":8184:8189   */\n      dup2\n        /* \"#utility.yul\":8178:8190   */\n      mload\n        /* \"#utility.yul\":8168:8190   */\n      swap1\n      pop\n        /* \"#utility.yul\":8063:8197   */\n      swap2\n      swap1\n      pop\n      jump\t// out\n        /* \"#utility.yul\":8203:8407   */\n    tag_297:\n        /* \"#utility.yul\":8322:8333   */\n      0x00\n        /* \"#utility.yul\":8356:8362   */\n      dup3\n        /* \"#utility.yul\":8351:8354   */\n      dup3\n        /* \"#utility.yul\":8344:8363   */\n      mstore\n        /* \"#utility.yul\":8396:8400   */\n      0x20\n        /* \"#utility.yul\":8391:8394   */\n      dup3\n        /* \"#utility.yul\":8387:8401   */\n      add\n        /* \"#utility.yul\":8372:8401   */\n      swap1\n      pop\n        /* \"#utility.yul\":8203:8407   */\n      swap3\n      swap2\n      pop\n      pop\n      jump\t// out\n        /* \"#utility.yul\":8413:8565   */\n    tag_298:\n        /* \"#utility.yul\":8500:8504   */\n      0x00\n        /* \"#utility.yul\":8523:8526   */\n      dup2\n        /* \"#utility.yul\":8515:8526   */\n      swap1\n      pop\n        /* \"#utility.yul\":8553:8557   */\n      0x20\n        /* \"#utility.yul\":8548:8551   */\n      dup3\n        /* \"#utility.yul\":8544:8558   */\n      add\n        /* \"#utility.yul\":8536:8558   */\n      swap1\n      pop\n        /* \"#utility.yul\":8413:8565   */\n      swap2\n      swap1\n      pop\n      jump\t// out\n        /* \"#utility.yul\":8571:8679   */\n    tag_299:\n        /* \"#utility.yul\":8648:8672   */\n      tag_416\n        /* \"#utility.yul\":8666:8671   */\n      dup2\n        /* \"#utility.yul\":8648:8672   */\n      tag_278\n      jump\t// in\n    tag_416:\n        /* \"#utility.yul\":8643:8646   */\n      dup3\n        /* \"#utility.yul\":8636:8673   */\n      mstore\n        /* \"#utility.yul\":8571:8679   */\n      pop\n      pop\n      jump\t// out\n        /* \"#utility.yul\":8735:9406   */\n    tag_300:\n        /* \"#utility.yul\":8862:8866   */\n      0x60\n        /* \"#utility.yul\":8857:8860   */\n      dup3\n        /* \"#utility.yul\":8853:8867   */\n      add\n        /* \"#utility.yul\":8950:8954   */\n      0x00\n        /* \"#utility.yul\":8943:8948   */\n      dup3\n        /* \"#utility.yul\":8939:8955   */\n      add\n        /* \"#utility.yul\":8933:8956   */\n      mload\n        /* \"#utility.yul\":8969:9032   */\n      tag_418\n        /* \"#utility.yul\":9026:9030   */\n      0x00\n        /* \"#utility.yul\":9021:9024   */\n      dup6\n        /* \"#utility.yul\":9017:9031   */\n      add\n        /* \"#utility.yul\":9003:9015   */\n      dup3\n        /* \"#utility.yul\":8969:9032   */\n      tag_299\n      jump\t// in\n    tag_418:\n        /* \"#utility.yul\":8877:9042   */\n      pop\n        /* \"#utility.yul\":9124:9128   */\n      0x20\n        /* \"#utility.yul\":9117:9122   */\n      dup3\n        /* \"#utility.yul\":9113:9129   */\n      add\n        /* \"#utility.yul\":9107:9130   */\n      mload\n        /* \"#utility.yul\":9143:9206   */\n      tag_419\n        /* \"#utility.yul\":9200:9204   */\n      0x20\n        /* \"#utility.yul\":9195:9198   */\n      dup6\n        /* \"#utility.yul\":9191:9205   */\n      add\n        /* \"#utility.yul\":9177:9189   */\n      dup3\n        /* \"#utility.yul\":9143:9206   */\n      tag_299\n      jump\t// in\n    tag_419:\n        /* \"#utility.yul\":9052:9216   */\n      pop\n        /* \"#utility.yul\":9307:9311   */\n      0x40\n        /* \"#utility.yul\":9300:9305   */\n      dup3\n        /* \"#utility.yul\":9296:9312   */\n      add\n        /* \"#utility.yul\":9290:9313   */\n      mload\n        /* \"#utility.yul\":9326:9389   */\n      tag_420\n        /* \"#utility.yul\":9383:9387   */\n      0x40\n        /* \"#utility.yul\":9378:9381   */\n      dup6\n        /* \"#utility.yul\":9374:9388   */\n      add\n        /* \"#utility.yul\":9360:9372   */\n      dup3\n        /* \"#utility.yul\":9326:9389   */\n      tag_289\n      jump\t// in\n    tag_420:\n        /* \"#utility.yul\":9226:9399   */\n      pop\n        /* \"#utility.yul\":8831:9406   */\n      pop\n        /* \"#utility.yul\":8735:9406   */\n      pop\n      pop\n      jump\t// out\n        /* \"#utility.yul\":9412:9671   */\n    tag_301:\n        /* \"#utility.yul\":9521:9531   */\n      0x00\n        /* \"#utility.yul\":9542:9628   */\n      tag_422\n        /* \"#utility.yul\":9624:9627   */\n      dup4\n        /* \"#utility.yul\":9616:9622   */\n      dup4\n        /* \"#utility.yul\":9542:9628   */\n      tag_300\n      jump\t// in\n    tag_422:\n        /* \"#utility.yul\":9660:9664   */\n      0x60\n        /* \"#utility.yul\":9655:9658   */\n      dup4\n        /* \"#utility.yul\":9651:9665   */\n      add\n        /* \"#utility.yul\":9637:9665   */\n      swap1\n      pop\n        /* \"#utility.yul\":9412:9671   */\n      swap3\n      swap2\n      pop\n      pop\n      jump\t// out\n        /* \"#utility.yul\":9677:9810   */\n    tag_302:\n        /* \"#utility.yul\":9767:9771   */\n      0x00\n        /* \"#utility.yul\":9799:9803   */\n      0x20\n        /* \"#utility.yul\":9794:9797   */\n      dup3\n        /* \"#utility.yul\":9790:9804   */\n      add\n        /* \"#utility.yul\":9782:9804   */\n      swap1\n      pop\n        /* \"#utility.yul\":9677:9810   */\n      swap2\n      swap1\n      pop\n      jump\t// out\n        /* \"#utility.yul\":9870:10762   */\n    tag_303:\n        /* \"#utility.yul\":10029:10032   */\n      0x00\n        /* \"#utility.yul\":10058:10132   */\n      tag_425\n        /* \"#utility.yul\":10126:10131   */\n      dup3\n        /* \"#utility.yul\":10058:10132   */\n      tag_296\n      jump\t// in\n    tag_425:\n        /* \"#utility.yul\":10148:10254   */\n      tag_426\n        /* \"#utility.yul\":10247:10253   */\n      dup2\n        /* \"#utility.yul\":10242:10245   */\n      dup6\n        /* \"#utility.yul\":10148:10254   */\n      tag_297\n      jump\t// in\n    tag_426:\n        /* \"#utility.yul\":10141:10254   */\n      swap4\n      pop\n        /* \"#utility.yul\":10278:10354   */\n      tag_427\n        /* \"#utility.yul\":10348:10353   */\n      dup4\n        /* \"#utility.yul\":10278:10354   */\n      tag_298\n      jump\t// in\n    tag_427:\n        /* \"#utility.yul\":10377:10384   */\n      dup1\n        /* \"#utility.yul\":10408:10409   */\n      0x00\n        /* \"#utility.yul\":10393:10737   */\n    tag_428:\n        /* \"#utility.yul\":10418:10424   */\n      dup4\n        /* \"#utility.yul\":10415:10416   */\n      dup2\n        /* \"#utility.yul\":10412:10425   */\n      lt\n        /* \"#utility.yul\":10393:10737   */\n      iszero\n      tag_430\n      jumpi\n        /* \"#utility.yul\":10494:10500   */\n      dup2\n        /* \"#utility.yul\":10488:10501   */\n      mload\n        /* \"#utility.yul\":10521:10624   */\n      tag_431\n        /* \"#utility.yul\":10620:10623   */\n      dup9\n        /* \"#utility.yul\":10605:10618   */\n      dup3\n        /* \"#utility.yul\":10521:10624   */\n      tag_301\n      jump\t// in\n    tag_431:\n        /* \"#utility.yul\":10514:10624   */\n      swap8\n      pop\n        /* \"#utility.yul\":10647:10727   */\n      tag_432\n        /* \"#utility.yul\":10720:10726   */\n      dup4\n        /* \"#utility.yul\":10647:10727   */\n      tag_302\n      jump\t// in\n    tag_432:\n        /* \"#utility.yul\":10637:10727   */\n      swap3\n      pop\n        /* \"#utility.yul\":10453:10737   */\n      pop\n        /* \"#utility.yul\":10440:10441   */\n      0x01\n        /* \"#utility.yul\":10437:10438   */\n      dup2\n        /* \"#utility.yul\":10433:10442   */\n      add\n        /* \"#utility.yul\":10428:10442   */\n      swap1\n      pop\n        /* \"#utility.yul\":10393:10737   */\n      jump(tag_428)\n    tag_430:\n        /* \"#utility.yul\":10397:10411   */\n      pop\n        /* \"#utility.yul\":10753:10756   */\n      dup6\n        /* \"#utility.yul\":10746:10756   */\n      swap4\n      pop\n        /* \"#utility.yul\":10034:10762   */\n      pop\n      pop\n      pop\n        /* \"#utility.yul\":9870:10762   */\n      swap3\n      swap2\n      pop\n      pop\n      jump\t// out\n        /* \"#utility.yul\":10768:11221   */\n    tag_104:\n        /* \"#utility.yul\":10951:10955   */\n      0x00\n        /* \"#utility.yul\":10989:10991   */\n      0x20\n        /* \"#utility.yul\":10978:10987   */\n      dup3\n        /* \"#utility.yul\":10974:10992   */\n      add\n        /* \"#utility.yul\":10966:10992   */\n      swap1\n      pop\n        /* \"#utility.yul\":11038:11047   */\n      dup2\n        /* \"#utility.yul\":11032:11036   */\n      dup2\n        /* \"#utility.yul\":11028:11048   */\n      sub\n        /* \"#utility.yul\":11024:11025   */\n      0x00\n        /* \"#utility.yul\":11013:11022   */\n      dup4\n        /* \"#utility.yul\":11009:11026   */\n      add\n        /* \"#utility.yul\":11002:11049   */\n      mstore\n        /* \"#utility.yul\":11066:11214   */\n      tag_434\n        /* \"#utility.yul\":11209:11213   */\n      dup2\n        /* \"#utility.yul\":11200:11206   */\n      dup5\n        /* \"#utility.yul\":11066:11214   */\n      tag_303\n      jump\t// in\n    tag_434:\n        /* \"#utility.yul\":11058:11214   */\n      swap1\n      pop\n        /* \"#utility.yul\":10768:11221   */\n      swap3\n      swap2\n      pop\n      pop\n      jump\t// out\n        /* \"#utility.yul\":11227:11349   */\n    tag_304:\n        /* \"#utility.yul\":11300:11324   */\n      tag_436\n        /* \"#utility.yul\":11318:11323   */\n      dup2\n        /* \"#utility.yul\":11300:11324   */\n      tag_278\n      jump\t// in\n    tag_436:\n        /* \"#utility.yul\":11293:11298   */\n      dup2\n        /* \"#utility.yul\":11290:11325   */\n      eq\n        /* \"#utility.yul\":11280:11343   */\n      tag_437\n      jumpi\n        /* \"#utility.yul\":11339:11340   */\n      0x00\n        /* \"#utility.yul\":11336:11337   */\n      0x00\n        /* \"#utility.yul\":11329:11341   */\n      revert\n        /* \"#utility.yul\":11280:11343   */\n    tag_437:\n        /* \"#utility.yul\":11227:11349   */\n      pop\n      jump\t// out\n        /* \"#utility.yul\":11355:11494   */\n    tag_305:\n        /* \"#utility.yul\":11401:11406   */\n      0x00\n        /* \"#utility.yul\":11439:11445   */\n      dup2\n        /* \"#utility.yul\":11426:11446   */\n      calldataload\n        /* \"#utility.yul\":11417:11446   */\n      swap1\n      pop\n        /* \"#utility.yul\":11455:11488   */\n      tag_439\n        /* \"#utility.yul\":11482:11487   */\n      dup2\n        /* \"#utility.yul\":11455:11488   */\n      tag_304\n      jump\t// in\n    tag_439:\n        /* \"#utility.yul\":11355:11494   */\n      swap3\n      swap2\n      pop\n      pop\n      jump\t// out\n        /* \"#utility.yul\":11500:11829   */\n    tag_124:\n        /* \"#utility.yul\":11559:11565   */\n      0x00\n        /* \"#utility.yul\":11608:11610   */\n      0x20\n        /* \"#utility.yul\":11596:11605   */\n      dup3\n        /* \"#utility.yul\":11587:11594   */\n      dup5\n        /* \"#utility.yul\":11583:11606   */\n      sub\n        /* \"#utility.yul\":11579:11611   */\n      slt\n        /* \"#utility.yul\":11576:11695   */\n      iszero\n      tag_441\n      jumpi\n        /* \"#utility.yul\":11614:11693   */\n      tag_442\n      tag_270\n      jump\t// in\n    tag_442:\n        /* \"#utility.yul\":11576:11695   */\n    tag_441:\n        /* \"#utility.yul\":11734:11735   */\n      0x00\n        /* \"#utility.yul\":11759:11812   */\n      tag_443\n        /* \"#utility.yul\":11804:11811   */\n      dup5\n        /* \"#utility.yul\":11795:11801   */\n      dup3\n        /* \"#utility.yul\":11784:11793   */\n      dup6\n        /* \"#utility.yul\":11780:11802   */\n      add\n        /* \"#utility.yul\":11759:11812   */\n      tag_305\n      jump\t// in\n    tag_443:\n        /* \"#utility.yul\":11749:11812   */\n      swap2\n      pop\n        /* \"#utility.yul\":11705:11822   */\n      pop\n        /* \"#utility.yul\":11500:11829   */\n      swap3\n      swap2\n      pop\n      pop\n      jump\t// out\n        /* \"#utility.yul\":11835:12277   */\n    tag_127:\n        /* \"#utility.yul\":11984:11988   */\n      0x00\n        /* \"#utility.yul\":12022:12024   */\n      0x60\n        /* \"#utility.yul\":12011:12020   */\n      dup3\n        /* \"#utility.yul\":12007:12025   */\n      add\n        /* \"#utility.yul\":11999:12025   */\n      swap1\n      pop\n        /* \"#utility.yul\":12035:12106   */\n      tag_445\n        /* \"#utility.yul\":12103:12104   */\n      0x00\n        /* \"#utility.yul\":12092:12101   */\n      dup4\n        /* \"#utility.yul\":12088:12105   */\n      add\n        /* \"#utility.yul\":12079:12085   */\n      dup7\n        /* \"#utility.yul\":12035:12106   */\n      tag_279\n      jump\t// in\n    tag_445:\n        /* \"#utility.yul\":12116:12188   */\n      tag_446\n        /* \"#utility.yul\":12184:12186   */\n      0x20\n        /* \"#utility.yul\":12173:12182   */\n      dup4\n        /* \"#utility.yul\":12169:12187   */\n      add\n        /* \"#utility.yul\":12160:12166   */\n      dup6\n        /* \"#utility.yul\":12116:12188   */\n      tag_279\n      jump\t// in\n    tag_446:\n        /* \"#utility.yul\":12198:12270   */\n      tag_447\n        /* \"#utility.yul\":12266:12268   */\n      0x40\n        /* \"#utility.yul\":12255:12264   */\n      dup4\n        /* \"#utility.yul\":12251:12269   */\n      add\n        /* \"#utility.yul\":12242:12248   */\n      dup5\n        /* \"#utility.yul\":12198:12270   */\n      tag_280\n      jump\t// in\n    tag_447:\n        /* \"#utility.yul\":11835:12277   */\n      swap5\n      swap4\n      pop\n      pop\n      pop\n      pop\n      jump\t// out\n        /* \"#utility.yul\":12283:12656   */\n    tag_135:\n        /* \"#utility.yul\":12426:12430   */\n      0x00\n        /* \"#utility.yul\":12464:12466   */\n      0x20\n        /* \"#utility.yul\":12453:12462   */\n      dup3\n        /* \"#utility.yul\":12449:12467   */\n      add\n        /* \"#utility.yul\":12441:12467   */\n      swap1\n      pop\n        /* \"#utility.yul\":12513:12522   */\n      dup2\n        /* \"#utility.yul\":12507:12511   */\n      dup2\n        /* \"#utility.yul\":12503:12523   */\n      sub\n        /* \"#utility.yul\":12499:12500   */\n      0x00\n        /* \"#utility.yul\":12488:12497   */\n      dup4\n        /* \"#utility.yul\":12484:12501   */\n      add\n        /* \"#utility.yul\":12477:12524   */\n      mstore\n        /* \"#utility.yul\":12541:12649   */\n      tag_449\n        /* \"#utility.yul\":12644:12648   */\n      dup2\n        /* \"#utility.yul\":12635:12641   */\n      dup5\n        /* \"#utility.yul\":12541:12649   */\n      tag_292\n      jump\t// in\n    tag_449:\n        /* \"#utility.yul\":12533:12649   */\n      swap1\n      pop\n        /* \"#utility.yul\":12283:12656   */\n      swap3\n      swap2\n      pop\n      pop\n      jump\t// out\n        /* \"#utility.yul\":12662:12842   */\n    tag_306:\n        /* \"#utility.yul\":12710:12787   */\n      0x4e487b7100000000000000000000000000000000000000000000000000000000\n        /* \"#utility.yul\":12707:12708   */\n      0x00\n        /* \"#utility.yul\":12700:12788   */\n      mstore\n        /* \"#utility.yul\":12807:12811   */\n      0x22\n        /* \"#utility.yul\":12804:12805   */\n      0x04\n        /* \"#utility.yul\":12797:12812   */\n      mstore\n        /* \"#utility.yul\":12831:12835   */\n      0x24\n        /* \"#utility.yul\":12828:12829   */\n      0x00\n        /* \"#utility.yul\":12821:12836   */\n      revert\n        /* \"#utility.yul\":12848:13168   */\n    tag_154:\n        /* \"#utility.yul\":12892:12898   */\n      0x00\n        /* \"#utility.yul\":12929:12930   */\n      0x02\n        /* \"#utility.yul\":12923:12927   */\n      dup3\n        /* \"#utility.yul\":12919:12931   */\n      div\n        /* \"#utility.yul\":12909:12931   */\n      swap1\n      pop\n        /* \"#utility.yul\":12976:12977   */\n      0x01\n        /* \"#utility.yul\":12970:12974   */\n      dup3\n        /* \"#utility.yul\":12966:12978   */\n      and\n        /* \"#utility.yul\":12997:13015   */\n      dup1\n        /* \"#utility.yul\":12987:13068   */\n      tag_452\n      jumpi\n        /* \"#utility.yul\":13053:13057   */\n      0x7f\n        /* \"#utility.yul\":13045:13051   */\n      dup3\n        /* \"#utility.yul\":13041:13058   */\n      and\n        /* \"#utility.yul\":13031:13058   */\n      swap2\n      pop\n        /* \"#utility.yul\":12987:13068   */\n    tag_452:\n        /* \"#utility.yul\":13115:13117   */\n      0x20\n        /* \"#utility.yul\":13107:13113   */\n      dup3\n        /* \"#utility.yul\":13104:13118   */\n      lt\n        /* \"#utility.yul\":13084:13102   */\n      dup2\n        /* \"#utility.yul\":13081:13119   */\n      sub\n        /* \"#utility.yul\":13078:13162   */\n      tag_453\n      jumpi\n        /* \"#utility.yul\":13134:13152   */\n      tag_454\n      tag_306\n      jump\t// in\n    tag_454:\n        /* \"#utility.yul\":13078:13162   */\n    tag_453:\n        /* \"#utility.yul\":12899:13168   */\n      pop\n        /* \"#utility.yul\":12848:13168   */\n      swap2\n      swap1\n      pop\n      jump\t// out\n        /* \"#utility.yul\":13174:13340   */\n    tag_307:\n        /* \"#utility.yul\":13314:13332   */\n      0x4e6f2062696420746f20726566756e6400000000000000000000000000000000\n        /* \"#utility.yul\":13310:13311   */\n      0x00\n        /* \"#utility.yul\":13302:13308   */\n      dup3\n        /* \"#utility.yul\":13298:13312   */\n      add\n        /* \"#utility.yul\":13291:13333   */\n      mstore\n        /* \"#utility.yul\":13174:13340   */\n      pop\n      jump\t// out\n        /* \"#utility.yul\":13346:13712   */\n    tag_308:\n        /* \"#utility.yul\":13488:13491   */\n      0x00\n        /* \"#utility.yul\":13509:13576   */\n      tag_457\n        /* \"#utility.yul\":13573:13575   */\n      0x10\n        /* \"#utility.yul\":13568:13571   */\n      dup4\n        /* \"#utility.yul\":13509:13576   */\n      tag_282\n      jump\t// in\n    tag_457:\n        /* \"#utility.yul\":13502:13576   */\n      swap2\n      pop\n        /* \"#utility.yul\":13585:13678   */\n      tag_458\n        /* \"#utility.yul\":13674:13677   */\n      dup3\n        /* \"#utility.yul\":13585:13678   */\n      tag_307\n      jump\t// in\n    tag_458:\n        /* \"#utility.yul\":13703:13705   */\n      0x20\n        /* \"#utility.yul\":13698:13701   */\n      dup3\n        /* \"#utility.yul\":13694:13706   */\n      add\n        /* \"#utility.yul\":13687:13706   */\n      swap1\n      pop\n        /* \"#utility.yul\":13346:13712   */\n      swap2\n      swap1\n      pop\n      jump\t// out\n        /* \"#utility.yul\":13718:14137   */\n    tag_170:\n        /* \"#utility.yul\":13884:13888   */\n      0x00\n        /* \"#utility.yul\":13922:13924   */\n      0x20\n        /* \"#utility.yul\":13911:13920   */\n      dup3\n        /* \"#utility.yul\":13907:13925   */\n      add\n        /* \"#utility.yul\":13899:13925   */\n      swap1\n      pop\n        /* \"#utility.yul\":13971:13980   */\n      dup2\n        /* \"#utility.yul\":13965:13969   */\n      dup2\n        /* \"#utility.yul\":13961:13981   */\n      sub\n        /* \"#utility.yul\":13957:13958   */\n      0x00\n        /* \"#utility.yul\":13946:13955   */\n      dup4\n        /* \"#utility.yul\":13942:13959   */\n      add\n        /* \"#utility.yul\":13935:13982   */\n      mstore\n        /* \"#utility.yul\":13999:14130   */\n      tag_460\n        /* \"#utility.yul\":14125:14129   */\n      dup2\n        /* \"#utility.yul\":13999:14130   */\n      tag_308\n      jump\t// in\n    tag_460:\n        /* \"#utility.yul\":13991:14130   */\n      swap1\n      pop\n        /* \"#utility.yul\":13718:14137   */\n      swap2\n      swap1\n      pop\n      jump\t// out\n        /* \"#utility.yul\":14143:14316   */\n    tag_309:\n        /* \"#utility.yul\":14283:14308   */\n      0x41756374696f6e206973207374696c6c20616374697665000000000000000000\n        /* \"#utility.yul\":14279:14280   */\n      0x00\n        /* \"#utility.yul\":14271:14277   */\n      dup3\n        /* \"#utility.yul\":14267:14281   */\n      add\n        /* \"#utility.yul\":14260:14309   */\n      mstore\n        /* \"#utility.yul\":14143:14316   */\n      pop\n      jump\t// out\n        /* \"#utility.yul\":14322:14688   */\n    tag_310:\n        /* \"#utility.yul\":14464:14467   */\n      0x00\n        /* \"#utility.yul\":14485:14552   */\n      tag_463\n        /* \"#utility.yul\":14549:14551   */\n      0x17\n        /* \"#utility.yul\":14544:14547   */\n      dup4\n        /* \"#utility.yul\":14485:14552   */\n      tag_282\n      jump\t// in\n    tag_463:\n        /* \"#utility.yul\":14478:14552   */\n      swap2\n      pop\n        /* \"#utility.yul\":14561:14654   */\n      tag_464\n        /* \"#utility.yul\":14650:14653   */\n      dup3\n        /* \"#utility.yul\":14561:14654   */\n      tag_309\n      jump\t// in\n    tag_464:\n        /* \"#utility.yul\":14679:14681   */\n      0x20\n        /* \"#utility.yul\":14674:14677   */\n      dup3\n        /* \"#utility.yul\":14670:14682   */\n      add\n        /* \"#utility.yul\":14663:14682   */\n      swap1\n      pop\n        /* \"#utility.yul\":14322:14688   */\n      swap2\n      swap1\n      pop\n      jump\t// out\n        /* \"#utility.yul\":14694:15113   */\n    tag_193:\n        /* \"#utility.yul\":14860:14864   */\n      0x00\n        /* \"#utility.yul\":14898:14900   */\n      0x20\n        /* \"#utility.yul\":14887:14896   */\n      dup3\n        /* \"#utility.yul\":14883:14901   */\n      add\n        /* \"#utility.yul\":14875:14901   */\n      swap1\n      pop\n        /* \"#utility.yul\":14947:14956   */\n      dup2\n        /* \"#utility.yul\":14941:14945   */\n      dup2\n        /* \"#utility.yul\":14937:14957   */\n      sub\n        /* \"#utility.yul\":14933:14934   */\n      0x00\n        /* \"#utility.yul\":14922:14931   */\n      dup4\n        /* \"#utility.yul\":14918:14935   */\n      add\n        /* \"#utility.yul\":14911:14958   */\n      mstore\n        /* \"#utility.yul\":14975:15106   */\n      tag_466\n        /* \"#utility.yul\":15101:15105   */\n      dup2\n        /* \"#utility.yul\":14975:15106   */\n      tag_310\n      jump\t// in\n    tag_466:\n        /* \"#utility.yul\":14967:15106   */\n      swap1\n      pop\n        /* \"#utility.yul\":14694:15113   */\n      swap2\n      swap1\n      pop\n      jump\t// out\n        /* \"#utility.yul\":15119:15294   */\n    tag_311:\n        /* \"#utility.yul\":15259:15286   */\n      0x41756374696f6e20616c72656164792066696e616c697a656400000000000000\n        /* \"#utility.yul\":15255:15256   */\n      0x00\n        /* \"#utility.yul\":15247:15253   */\n      dup3\n        /* \"#utility.yul\":15243:15257   */\n      add\n        /* \"#utility.yul\":15236:15287   */\n      mstore\n        /* \"#utility.yul\":15119:15294   */\n      pop\n      jump\t// out\n        /* \"#utility.yul\":15300:15666   */\n    tag_312:\n        /* \"#utility.yul\":15442:15445   */\n      0x00\n        /* \"#utility.yul\":15463:15530   */\n      tag_469\n        /* \"#utility.yul\":15527:15529   */\n      0x19\n        /* \"#utility.yul\":15522:15525   */\n      dup4\n        /* \"#utility.yul\":15463:15530   */\n      tag_282\n      jump\t// in\n    tag_469:\n        /* \"#utility.yul\":15456:15530   */\n      swap2\n      pop\n        /* \"#utility.yul\":15539:15632   */\n      tag_470\n        /* \"#utility.yul\":15628:15631   */\n      dup3\n        /* \"#utility.yul\":15539:15632   */\n      tag_311\n      jump\t// in\n    tag_470:\n        /* \"#utility.yul\":15657:15659   */\n      0x20\n        /* \"#utility.yul\":15652:15655   */\n      dup3\n        /* \"#utility.yul\":15648:15660   */\n      add\n        /* \"#utility.yul\":15641:15660   */\n      swap1\n      pop\n        /* \"#utility.yul\":15300:15666   */\n      swap2\n      swap1\n      pop\n      jump\t// out\n        /* \"#utility.yul\":15672:16091   */\n    tag_197:\n        /* \"#utility.yul\":15838:15842   */\n      0x00\n        /* \"#utility.yul\":15876:15878   */\n      0x20\n        /* \"#utility.yul\":15865:15874   */\n      dup3\n        /* \"#utility.yul\":15861:15879   */\n      add\n        /* \"#utility.yul\":15853:15879   */\n      swap1\n      pop\n        /* \"#utility.yul\":15925:15934   */\n      dup2\n        /* \"#utility.yul\":15919:15923   */\n      dup2\n        /* \"#utility.yul\":15915:15935   */\n      sub\n        /* \"#utility.yul\":15911:15912   */\n      0x00\n        /* \"#utility.yul\":15900:15909   */\n      dup4\n        /* \"#utility.yul\":15896:15913   */\n      add\n        /* \"#utility.yul\":15889:15936   */\n      mstore\n        /* \"#utility.yul\":15953:16084   */\n      tag_472\n        /* \"#utility.yul\":16079:16083   */\n      dup2\n        /* \"#utility.yul\":15953:16084   */\n      tag_312\n      jump\t// in\n    tag_472:\n        /* \"#utility.yul\":15945:16084   */\n      swap1\n      pop\n        /* \"#utility.yul\":15672:16091   */\n      swap2\n      swap1\n      pop\n      jump\t// out\n        /* \"#utility.yul\":16097:16277   */\n    tag_204:\n        /* \"#utility.yul\":16145:16222   */\n      0x4e487b7100000000000000000000000000000000000000000000000000000000\n        /* \"#utility.yul\":16142:16143   */\n      0x00\n        /* \"#utility.yul\":16135:16223   */\n      mstore\n        /* \"#utility.yul\":16242:16246   */\n      0x32\n        /* \"#utility.yul\":16239:16240   */\n      0x04\n        /* \"#utility.yul\":16232:16247   */\n      mstore\n        /* \"#utility.yul\":16266:16270   */\n      0x24\n        /* \"#utility.yul\":16263:16264   */\n      0x00\n        /* \"#utility.yul\":16256:16271   */\n      revert\n        /* \"#utility.yul\":16283:16453   */\n    tag_313:\n        /* \"#utility.yul\":16423:16445   */\n      0x496e73756666696369656e742062616c616e6365000000000000000000000000\n        /* \"#utility.yul\":16419:16420   */\n      0x00\n        /* \"#utility.yul\":16411:16417   */\n      dup3\n        /* \"#utility.yul\":16407:16421   */\n      add\n        /* \"#utility.yul\":16400:16446   */\n      mstore\n        /* \"#utility.yul\":16283:16453   */\n      pop\n      jump\t// out\n        /* \"#utility.yul\":16459:16825   */\n    tag_314:\n        /* \"#utility.yul\":16601:16604   */\n      0x00\n        /* \"#utility.yul\":16622:16689   */\n      tag_476\n        /* \"#utility.yul\":16686:16688   */\n      0x14\n        /* \"#utility.yul\":16681:16684   */\n      dup4\n        /* \"#utility.yul\":16622:16689   */\n      tag_282\n      jump\t// in\n    tag_476:\n        /* \"#utility.yul\":16615:16689   */\n      swap2\n      pop\n        /* \"#utility.yul\":16698:16791   */\n      tag_477\n        /* \"#utility.yul\":16787:16790   */\n      dup3\n        /* \"#utility.yul\":16698:16791   */\n      tag_313\n      jump\t// in\n    tag_477:\n        /* \"#utility.yul\":16816:16818   */\n      0x20\n        /* \"#utility.yul\":16811:16814   */\n      dup3\n        /* \"#utility.yul\":16807:16819   */\n      add\n        /* \"#utility.yul\":16800:16819   */\n      swap1\n      pop\n        /* \"#utility.yul\":16459:16825   */\n      swap2\n      swap1\n      pop\n      jump\t// out\n        /* \"#utility.yul\":16831:17250   */\n    tag_214:\n        /* \"#utility.yul\":16997:17001   */\n      0x00\n        /* \"#utility.yul\":17035:17037   */\n      0x20\n        /* \"#utility.yul\":17024:17033   */\n      dup3\n        /* \"#utility.yul\":17020:17038   */\n      add\n        /* \"#utility.yul\":17012:17038   */\n      swap1\n      pop\n        /* \"#utility.yul\":17084:17093   */\n      dup2\n        /* \"#utility.yul\":17078:17082   */\n      dup2\n        /* \"#utility.yul\":17074:17094   */\n      sub\n        /* \"#utility.yul\":17070:17071   */\n      0x00\n        /* \"#utility.yul\":17059:17068   */\n      dup4\n        /* \"#utility.yul\":17055:17072   */\n      add\n        /* \"#utility.yul\":17048:17095   */\n      mstore\n        /* \"#utility.yul\":17112:17243   */\n      tag_479\n        /* \"#utility.yul\":17238:17242   */\n      dup2\n        /* \"#utility.yul\":17112:17243   */\n      tag_314\n      jump\t// in\n    tag_479:\n        /* \"#utility.yul\":17104:17243   */\n      swap1\n      pop\n        /* \"#utility.yul\":16831:17250   */\n      swap2\n      swap1\n      pop\n      jump\t// out\n        /* \"#utility.yul\":17256:17342   */\n    tag_315:\n        /* \"#utility.yul\":17291:17298   */\n      0x00\n        /* \"#utility.yul\":17331:17335   */\n      0xff\n        /* \"#utility.yul\":17324:17329   */\n      dup3\n        /* \"#utility.yul\":17320:17336   */\n      and\n        /* \"#utility.yul\":17309:17336   */\n      swap1\n      pop\n        /* \"#utility.yul\":17256:17342   */\n      swap2\n      swap1\n      pop\n      jump\t// out\n        /* \"#utility.yul\":17348:17528   */\n    tag_316:\n        /* \"#utility.yul\":17396:17473   */\n      0x4e487b7100000000000000000000000000000000000000000000000000000000\n        /* \"#utility.yul\":17393:17394   */\n      0x00\n        /* \"#utility.yul\":17386:17474   */\n      mstore\n        /* \"#utility.yul\":17493:17497   */\n      0x11\n        /* \"#utility.yul\":17490:17491   */\n      0x04\n        /* \"#utility.yul\":17483:17498   */\n      mstore\n        /* \"#utility.yul\":17517:17521   */\n      0x24\n        /* \"#utility.yul\":17514:17515   */\n      0x00\n        /* \"#utility.yul\":17507:17522   */\n      revert\n        /* \"#utility.yul\":17534:17722   */\n    tag_227:\n        /* \"#utility.yul\":17572:17575   */\n      0x00\n        /* \"#utility.yul\":17591:17609   */\n      tag_483\n        /* \"#utility.yul\":17607:17608   */\n      dup3\n        /* \"#utility.yul\":17591:17609   */\n      tag_315\n      jump\t// in\n    tag_483:\n        /* \"#utility.yul\":17586:17609   */\n      swap2\n      pop\n        /* \"#utility.yul\":17623:17641   */\n      tag_484\n        /* \"#utility.yul\":17639:17640   */\n      dup4\n        /* \"#utility.yul\":17623:17641   */\n      tag_315\n      jump\t// in\n    tag_484:\n        /* \"#utility.yul\":17618:17641   */\n      swap3\n      pop\n        /* \"#utility.yul\":17664:17665   */\n      dup3\n        /* \"#utility.yul\":17661:17662   */\n      dup3\n        /* \"#utility.yul\":17657:17666   */\n      add\n        /* \"#utility.yul\":17650:17666   */\n      swap1\n      pop\n        /* \"#utility.yul\":17687:17691   */\n      0xff\n        /* \"#utility.yul\":17682:17685   */\n      dup2\n        /* \"#utility.yul\":17679:17692   */\n      gt\n        /* \"#utility.yul\":17676:17715   */\n      iszero\n      tag_485\n      jumpi\n        /* \"#utility.yul\":17695:17713   */\n      tag_486\n      tag_316\n      jump\t// in\n    tag_486:\n        /* \"#utility.yul\":17676:17715   */\n    tag_485:\n        /* \"#utility.yul\":17534:17722   */\n      swap3\n      swap2\n      pop\n      pop\n      jump\t// out\n        /* \"#utility.yul\":17728:17922   */\n    tag_229:\n        /* \"#utility.yul\":17768:17772   */\n      0x00\n        /* \"#utility.yul\":17788:17808   */\n      tag_488\n        /* \"#utility.yul\":17806:17807   */\n      dup3\n        /* \"#utility.yul\":17788:17808   */\n      tag_278\n      jump\t// in\n    tag_488:\n        /* \"#utility.yul\":17783:17808   */\n      swap2\n      pop\n        /* \"#utility.yul\":17822:17842   */\n      tag_489\n        /* \"#utility.yul\":17840:17841   */\n      dup4\n        /* \"#utility.yul\":17822:17842   */\n      tag_278\n      jump\t// in\n    tag_489:\n        /* \"#utility.yul\":17817:17842   */\n      swap3\n      pop\n        /* \"#utility.yul\":17866:17867   */\n      dup3\n        /* \"#utility.yul\":17863:17864   */\n      dup3\n        /* \"#utility.yul\":17859:17868   */\n      sub\n        /* \"#utility.yul\":17851:17868   */\n      swap1\n      pop\n        /* \"#utility.yul\":17890:17891   */\n      dup2\n        /* \"#utility.yul\":17884:17888   */\n      dup2\n        /* \"#utility.yul\":17881:17892   */\n      gt\n        /* \"#utility.yul\":17878:17915   */\n      iszero\n      tag_490\n      jumpi\n        /* \"#utility.yul\":17895:17913   */\n      tag_491\n      tag_316\n      jump\t// in\n    tag_491:\n        /* \"#utility.yul\":17878:17915   */\n    tag_490:\n        /* \"#utility.yul\":17728:17922   */\n      swap3\n      swap2\n      pop\n      pop\n      jump\t// out\n        /* \"#utility.yul\":17928:18338   */\n    tag_231:\n        /* \"#utility.yul\":17968:17975   */\n      0x00\n        /* \"#utility.yul\":17991:18011   */\n      tag_493\n        /* \"#utility.yul\":18009:18010   */\n      dup3\n        /* \"#utility.yul\":17991:18011   */\n      tag_278\n      jump\t// in\n    tag_493:\n        /* \"#utility.yul\":17986:18011   */\n      swap2\n      pop\n        /* \"#utility.yul\":18025:18045   */\n      tag_494\n        /* \"#utility.yul\":18043:18044   */\n      dup4\n        /* \"#utility.yul\":18025:18045   */\n      tag_278\n      jump\t// in\n    tag_494:\n        /* \"#utility.yul\":18020:18045   */\n      swap3\n      pop\n        /* \"#utility.yul\":18080:18081   */\n      dup3\n        /* \"#utility.yul\":18077:18078   */\n      dup3\n        /* \"#utility.yul\":18073:18082   */\n      mul\n        /* \"#utility.yul\":18102:18132   */\n      tag_495\n        /* \"#utility.yul\":18120:18131   */\n      dup2\n        /* \"#utility.yul\":18102:18132   */\n      tag_278\n      jump\t// in\n    tag_495:\n        /* \"#utility.yul\":18091:18132   */\n      swap2\n      pop\n        /* \"#utility.yul\":18281:18282   */\n      dup3\n        /* \"#utility.yul\":18272:18279   */\n      dup3\n        /* \"#utility.yul\":18268:18283   */\n      div\n        /* \"#utility.yul\":18265:18266   */\n      dup5\n        /* \"#utility.yul\":18262:18284   */\n      eq\n        /* \"#utility.yul\":18242:18243   */\n      dup4\n        /* \"#utility.yul\":18235:18244   */\n      iszero\n        /* \"#utility.yul\":18215:18298   */\n      or\n        /* \"#utility.yul\":18192:18331   */\n      tag_496\n      jumpi\n        /* \"#utility.yul\":18311:18329   */\n      tag_497\n      tag_316\n      jump\t// in\n    tag_497:\n        /* \"#utility.yul\":18192:18331   */\n    tag_496:\n        /* \"#utility.yul\":17976:18338   */\n      pop\n        /* \"#utility.yul\":17928:18338   */\n      swap3\n      swap2\n      pop\n      pop\n      jump\t// out\n        /* \"#utility.yul\":18344:18516   */\n    tag_317:\n        /* \"#utility.yul\":18484:18508   */\n      0x41756374696f6e20616c726561647920636c6f73656400000000000000000000\n        /* \"#utility.yul\":18480:18481   */\n      0x00\n        /* \"#utility.yul\":18472:18478   */\n      dup3\n        /* \"#utility.yul\":18468:18482   */\n      add\n        /* \"#utility.yul\":18461:18509   */\n      mstore\n        /* \"#utility.yul\":18344:18516   */\n      pop\n      jump\t// out\n        /* \"#utility.yul\":18522:18888   */\n    tag_318:\n        /* \"#utility.yul\":18664:18667   */\n      0x00\n        /* \"#utility.yul\":18685:18752   */\n      tag_500\n        /* \"#utility.yul\":18749:18751   */\n      0x16\n        /* \"#utility.yul\":18744:18747   */\n      dup4\n        /* \"#utility.yul\":18685:18752   */\n      tag_282\n      jump\t// in\n    tag_500:\n        /* \"#utility.yul\":18678:18752   */\n      swap2\n      pop\n        /* \"#utility.yul\":18761:18854   */\n      tag_501\n        /* \"#utility.yul\":18850:18853   */\n      dup3\n        /* \"#utility.yul\":18761:18854   */\n      tag_317\n      jump\t// in\n    tag_501:\n        /* \"#utility.yul\":18879:18881   */\n      0x20\n        /* \"#utility.yul\":18874:18877   */\n      dup3\n        /* \"#utility.yul\":18870:18882   */\n      add\n        /* \"#utility.yul\":18863:18882   */\n      swap1\n      pop\n        /* \"#utility.yul\":18522:18888   */\n      swap2\n      swap1\n      pop\n      jump\t// out\n        /* \"#utility.yul\":18894:19313   */\n    tag_237:\n        /* \"#utility.yul\":19060:19064   */\n      0x00\n        /* \"#utility.yul\":19098:19100   */\n      0x20\n        /* \"#utility.yul\":19087:19096   */\n      dup3\n        /* \"#utility.yul\":19083:19101   */\n      add\n        /* \"#utility.yul\":19075:19101   */\n      swap1\n      pop\n        /* \"#utility.yul\":19147:19156   */\n      dup2\n        /* \"#utility.yul\":19141:19145   */\n      dup2\n        /* \"#utility.yul\":19137:19157   */\n      sub\n        /* \"#utility.yul\":19133:19134   */\n      0x00\n        /* \"#utility.yul\":19122:19131   */\n      dup4\n        /* \"#utility.yul\":19118:19135   */\n      add\n        /* \"#utility.yul\":19111:19158   */\n      mstore\n        /* \"#utility.yul\":19175:19306   */\n      tag_503\n        /* \"#utility.yul\":19301:19305   */\n      dup2\n        /* \"#utility.yul\":19175:19306   */\n      tag_318\n      jump\t// in\n    tag_503:\n        /* \"#utility.yul\":19167:19306   */\n      swap1\n      pop\n        /* \"#utility.yul\":18894:19313   */\n      swap2\n      swap1\n      pop\n      jump\t// out\n        /* \"#utility.yul\":19319:19496   */\n    tag_319:\n        /* \"#utility.yul\":19459:19488   */\n      0x796f752063616e27742062757920796f7572206f776e20646174610000000000\n        /* \"#utility.yul\":19455:19456   */\n      0x00\n        /* \"#utility.yul\":19447:19453   */\n      dup3\n        /* \"#utility.yul\":19443:19457   */\n      add\n        /* \"#utility.yul\":19436:19489   */\n      mstore\n        /* \"#utility.yul\":19319:19496   */\n      pop\n      jump\t// out\n        /* \"#utility.yul\":19502:19868   */\n    tag_320:\n        /* \"#utility.yul\":19644:19647   */\n      0x00\n        /* \"#utility.yul\":19665:19732   */\n      tag_506\n        /* \"#utility.yul\":19729:19731   */\n      0x1b\n        /* \"#utility.yul\":19724:19727   */\n      dup4\n        /* \"#utility.yul\":19665:19732   */\n      tag_282\n      jump\t// in\n    tag_506:\n        /* \"#utility.yul\":19658:19732   */\n      swap2\n      pop\n        /* \"#utility.yul\":19741:19834   */\n      tag_507\n        /* \"#utility.yul\":19830:19833   */\n      dup3\n        /* \"#utility.yul\":19741:19834   */\n      tag_319\n      jump\t// in\n    tag_507:\n        /* \"#utility.yul\":19859:19861   */\n      0x20\n        /* \"#utility.yul\":19854:19857   */\n      dup3\n        /* \"#utility.yul\":19850:19862   */\n      add\n        /* \"#utility.yul\":19843:19862   */\n      swap1\n      pop\n        /* \"#utility.yul\":19502:19868   */\n      swap2\n      swap1\n      pop\n      jump\t// out\n        /* \"#utility.yul\":19874:20293   */\n    tag_250:\n        /* \"#utility.yul\":20040:20044   */\n      0x00\n        /* \"#utility.yul\":20078:20080   */\n      0x20\n        /* \"#utility.yul\":20067:20076   */\n      dup3\n        /* \"#utility.yul\":20063:20081   */\n      add\n        /* \"#utility.yul\":20055:20081   */\n      swap1\n      pop\n        /* \"#utility.yul\":20127:20136   */\n      dup2\n        /* \"#utility.yul\":20121:20125   */\n      dup2\n        /* \"#utility.yul\":20117:20137   */\n      sub\n        /* \"#utility.yul\":20113:20114   */\n      0x00\n        /* \"#utility.yul\":20102:20111   */\n      dup4\n        /* \"#utility.yul\":20098:20115   */\n      add\n        /* \"#utility.yul\":20091:20138   */\n      mstore\n        /* \"#utility.yul\":20155:20286   */\n      tag_509\n        /* \"#utility.yul\":20281:20285   */\n      dup2\n        /* \"#utility.yul\":20155:20286   */\n      tag_320\n      jump\t// in\n    tag_509:\n        /* \"#utility.yul\":20147:20286   */\n      swap1\n      pop\n        /* \"#utility.yul\":19874:20293   */\n      swap2\n      swap1\n      pop\n      jump\t// out\n        /* \"#utility.yul\":20299:20526   */\n    tag_321:\n        /* \"#utility.yul\":20439:20473   */\n      0x796f752063616e277420636f6e7472696275746520746f20616e20656e646564\n        /* \"#utility.yul\":20435:20436   */\n      0x00\n        /* \"#utility.yul\":20427:20433   */\n      dup3\n        /* \"#utility.yul\":20423:20437   */\n      add\n        /* \"#utility.yul\":20416:20474   */\n      mstore\n        /* \"#utility.yul\":20508:20518   */\n      0x2061756374696f6e000000000000000000000000000000000000000000000000\n        /* \"#utility.yul\":20503:20505   */\n      0x20\n        /* \"#utility.yul\":20495:20501   */\n      dup3\n        /* \"#utility.yul\":20491:20506   */\n      add\n        /* \"#utility.yul\":20484:20519   */\n      mstore\n        /* \"#utility.yul\":20299:20526   */\n      pop\n      jump\t// out\n        /* \"#utility.yul\":20532:20898   */\n    tag_322:\n        /* \"#utility.yul\":20674:20677   */\n      0x00\n        /* \"#utility.yul\":20695:20762   */\n      tag_512\n        /* \"#utility.yul\":20759:20761   */\n      0x28\n        /* \"#utility.yul\":20754:20757   */\n      dup4\n        /* \"#utility.yul\":20695:20762   */\n      tag_282\n      jump\t// in\n    tag_512:\n        /* \"#utility.yul\":20688:20762   */\n      swap2\n      pop\n        /* \"#utility.yul\":20771:20864   */\n      tag_513\n        /* \"#utility.yul\":20860:20863   */\n      dup3\n        /* \"#utility.yul\":20771:20864   */\n      tag_321\n      jump\t// in\n    tag_513:\n        /* \"#utility.yul\":20889:20891   */\n      0x40\n        /* \"#utility.yul\":20884:20887   */\n      dup3\n        /* \"#utility.yul\":20880:20892   */\n      add\n        /* \"#utility.yul\":20873:20892   */\n      swap1\n      pop\n        /* \"#utility.yul\":20532:20898   */\n      swap2\n      swap1\n      pop\n      jump\t// out\n        /* \"#utility.yul\":20904:21323   */\n    tag_253:\n        /* \"#utility.yul\":21070:21074   */\n      0x00\n        /* \"#utility.yul\":21108:21110   */\n      0x20\n        /* \"#utility.yul\":21097:21106   */\n      dup3\n        /* \"#utility.yul\":21093:21111   */\n      add\n        /* \"#utility.yul\":21085:21111   */\n      swap1\n      pop\n        /* \"#utility.yul\":21157:21166   */\n      dup2\n        /* \"#utility.yul\":21151:21155   */\n      dup2\n        /* \"#utility.yul\":21147:21167   */\n      sub\n        /* \"#utility.yul\":21143:21144   */\n      0x00\n        /* \"#utility.yul\":21132:21141   */\n      dup4\n        /* \"#utility.yul\":21128:21145   */\n      add\n        /* \"#utility.yul\":21121:21168   */\n      mstore\n        /* \"#utility.yul\":21185:21316   */\n      tag_515\n        /* \"#utility.yul\":21311:21315   */\n      dup2\n        /* \"#utility.yul\":21185:21316   */\n      tag_322\n      jump\t// in\n    tag_515:\n        /* \"#utility.yul\":21177:21316   */\n      swap1\n      pop\n        /* \"#utility.yul\":20904:21323   */\n      swap2\n      swap1\n      pop\n      jump\t// out\n        /* \"#utility.yul\":21329:21520   */\n    tag_255:\n        /* \"#utility.yul\":21369:21372   */\n      0x00\n        /* \"#utility.yul\":21388:21408   */\n      tag_517\n        /* \"#utility.yul\":21406:21407   */\n      dup3\n        /* \"#utility.yul\":21388:21408   */\n      tag_278\n      jump\t// in\n    tag_517:\n        /* \"#utility.yul\":21383:21408   */\n      swap2\n      pop\n        /* \"#utility.yul\":21422:21442   */\n      tag_518\n        /* \"#utility.yul\":21440:21441   */\n      dup4\n        /* \"#utility.yul\":21422:21442   */\n      tag_278\n      jump\t// in\n    tag_518:\n        /* \"#utility.yul\":21417:21442   */\n      swap3\n      pop\n        /* \"#utility.yul\":21465:21466   */\n      dup3\n        /* \"#utility.yul\":21462:21463   */\n      dup3\n        /* \"#utility.yul\":21458:21467   */\n      add\n        /* \"#utility.yul\":21451:21467   */\n      swap1\n      pop\n        /* \"#utility.yul\":21486:21489   */\n      dup1\n        /* \"#utility.yul\":21483:21484   */\n      dup3\n        /* \"#utility.yul\":21480:21490   */\n      gt\n        /* \"#utility.yul\":21477:21513   */\n      iszero\n      tag_519\n      jumpi\n        /* \"#utility.yul\":21493:21511   */\n      tag_520\n      tag_316\n      jump\t// in\n    tag_520:\n        /* \"#utility.yul\":21477:21513   */\n    tag_519:\n        /* \"#utility.yul\":21329:21520   */\n      swap3\n      swap2\n      pop\n      pop\n      jump\t// out\n        /* \"#utility.yul\":21526:21693   */\n    tag_323:\n        /* \"#utility.yul\":21666:21685   */\n      0x4269642062656c6f77206d696e696d756d000000000000000000000000000000\n        /* \"#utility.yul\":21662:21663   */\n      0x00\n        /* \"#utility.yul\":21654:21660   */\n      dup3\n        /* \"#utility.yul\":21650:21664   */\n      add\n        /* \"#utility.yul\":21643:21686   */\n      mstore\n        /* \"#utility.yul\":21526:21693   */\n      pop\n      jump\t// out\n        /* \"#utility.yul\":21699:22065   */\n    tag_324:\n        /* \"#utility.yul\":21841:21844   */\n      0x00\n        /* \"#utility.yul\":21862:21929   */\n      tag_523\n        /* \"#utility.yul\":21926:21928   */\n      0x11\n        /* \"#utility.yul\":21921:21924   */\n      dup4\n        /* \"#utility.yul\":21862:21929   */\n      tag_282\n      jump\t// in\n    tag_523:\n        /* \"#utility.yul\":21855:21929   */\n      swap2\n      pop\n        /* \"#utility.yul\":21938:22031   */\n      tag_524\n        /* \"#utility.yul\":22027:22030   */\n      dup3\n        /* \"#utility.yul\":21938:22031   */\n      tag_323\n      jump\t// in\n    tag_524:\n        /* \"#utility.yul\":22056:22058   */\n      0x20\n        /* \"#utility.yul\":22051:22054   */\n      dup3\n        /* \"#utility.yul\":22047:22059   */\n      add\n        /* \"#utility.yul\":22040:22059   */\n      swap1\n      pop\n        /* \"#utility.yul\":21699:22065   */\n      swap2\n      swap1\n      pop\n      jump\t// out\n        /* \"#utility.yul\":22071:22490   */\n    tag_258:\n        /* \"#utility.yul\":22237:22241   */\n      0x00\n        /* \"#utility.yul\":22275:22277   */\n      0x20\n        /* \"#utility.yul\":22264:22273   */\n      dup3\n        /* \"#utility.yul\":22260:22278   */\n      add\n        /* \"#utility.yul\":22252:22278   */\n      swap1\n      pop\n        /* \"#utility.yul\":22324:22333   */\n      dup2\n        /* \"#utility.yul\":22318:22322   */\n      dup2\n        /* \"#utility.yul\":22314:22334   */\n      sub\n        /* \"#utility.yul\":22310:22311   */\n      0x00\n        /* \"#utility.yul\":22299:22308   */\n      dup4\n        /* \"#utility.yul\":22295:22312   */\n      add\n        /* \"#utility.yul\":22288:22335   */\n      mstore\n        /* \"#utility.yul\":22352:22483   */\n      tag_526\n        /* \"#utility.yul\":22478:22482   */\n      dup2\n        /* \"#utility.yul\":22352:22483   */\n      tag_324\n      jump\t// in\n    tag_526:\n        /* \"#utility.yul\":22344:22483   */\n      swap1\n      pop\n        /* \"#utility.yul\":22071:22490   */\n      swap2\n      swap1\n      pop\n      jump\t// out\n        /* \"#utility.yul\":22496:22721   */\n    tag_325:\n        /* \"#utility.yul\":22636:22670   */\n      0x546865726520616c7265616479206973206120686967686572206f7220657175\n        /* \"#utility.yul\":22632:22633   */\n      0x00\n        /* \"#utility.yul\":22624:22630   */\n      dup3\n        /* \"#utility.yul\":22620:22634   */\n      add\n        /* \"#utility.yul\":22613:22671   */\n      mstore\n        /* \"#utility.yul\":22705:22713   */\n      0x616c206269640000000000000000000000000000000000000000000000000000\n        /* \"#utility.yul\":22700:22702   */\n      0x20\n        /* \"#utility.yul\":22692:22698   */\n      dup3\n        /* \"#utility.yul\":22688:22703   */\n      add\n        /* \"#utility.yul\":22681:22714   */\n      mstore\n        /* \"#utility.yul\":22496:22721   */\n      pop\n      jump\t// out\n        /* \"#utility.yul\":22727:23093   */\n    tag_326:\n        /* \"#utility.yul\":22869:22872   */\n      0x00\n        /* \"#utility.yul\":22890:22957   */\n      tag_529\n        /* \"#utility.yul\":22954:22956   */\n      0x26\n        /* \"#utility.yul\":22949:22952   */\n      dup4\n        /* \"#utility.yul\":22890:22957   */\n      tag_282\n      jump\t// in\n    tag_529:\n        /* \"#utility.yul\":22883:22957   */\n      swap2\n      pop\n        /* \"#utility.yul\":22966:23059   */\n      tag_530\n        /* \"#utility.yul\":23055:23058   */\n      dup3\n        /* \"#utility.yul\":22966:23059   */\n      tag_325\n      jump\t// in\n    tag_530:\n        /* \"#utility.yul\":23084:23086   */\n      0x40\n        /* \"#utility.yul\":23079:23082   */\n      dup3\n        /* \"#utility.yul\":23075:23087   */\n      add\n        /* \"#utility.yul\":23068:23087   */\n      swap1\n      pop\n        /* \"#utility.yul\":22727:23093   */\n      swap2\n      swap1\n      pop\n      jump\t// out\n        /* \"#utility.yul\":23099:23518   */\n    tag_261:\n        /* \"#utility.yul\":23265:23269   */\n      0x00\n        /* \"#utility.yul\":23303:23305   */\n      0x20\n        /* \"#utility.yul\":23292:23301   */\n      dup3\n        /* \"#utility.yul\":23288:23306   */\n      add\n        /* \"#utility.yul\":23280:23306   */\n      swap1\n      pop\n        /* \"#utility.yul\":23352:23361   */\n      dup2\n        /* \"#utility.yul\":23346:23350   */\n      dup2\n        /* \"#utility.yul\":23342:23362   */\n      sub\n        /* \"#utility.yul\":23338:23339   */\n      0x00\n        /* \"#utility.yul\":23327:23336   */\n      dup4\n        /* \"#utility.yul\":23323:23340   */\n      add\n        /* \"#utility.yul\":23316:23363   */\n      mstore\n        /* \"#utility.yul\":23380:23511   */\n      tag_532\n        /* \"#utility.yul\":23506:23510   */\n      dup2\n        /* \"#utility.yul\":23380:23511   */\n      tag_326\n      jump\t// in\n    tag_532:\n        /* \"#utility.yul\":23372:23511   */\n      swap1\n      pop\n        /* \"#utility.yul\":23099:23518   */\n      swap2\n      swap1\n      pop\n      jump\t// out\n        /* \"#utility.yul\":23524:23757   */\n    tag_265:\n        /* \"#utility.yul\":23563:23566   */\n      0x00\n        /* \"#utility.yul\":23586:23610   */\n      tag_534\n        /* \"#utility.yul\":23604:23609   */\n      dup3\n        /* \"#utility.yul\":23586:23610   */\n      tag_278\n      jump\t// in\n    tag_534:\n        /* \"#utility.yul\":23577:23610   */\n      swap2\n      pop\n        /* \"#utility.yul\":23632:23698   */\n      0xffffffffffffffffffffffffffffffffffffffffffffffffffffffffffffffff\n        /* \"#utility.yul\":23625:23630   */\n      dup3\n        /* \"#utility.yul\":23622:23699   */\n      sub\n        /* \"#utility.yul\":23619:23722   */\n      tag_535\n      jumpi\n        /* \"#utility.yul\":23702:23720   */\n      tag_536\n      tag_316\n      jump\t// in\n    tag_536:\n        /* \"#utility.yul\":23619:23722   */\n    tag_535:\n        /* \"#utility.yul\":23749:23750   */\n      0x01\n        /* \"#utility.yul\":23742:23747   */\n      dup3\n        /* \"#utility.yul\":23738:23751   */\n      add\n        /* \"#utility.yul\":23731:23751   */\n      swap1\n      pop\n        /* \"#utility.yul\":23524:23757   */\n      swap2\n      swap1\n      pop\n      jump\t// out\n\n    auxdata: 0xa2646970667358221220e67ff92c60d1048212e782679f14cc9dc3b56e5ef68f401a5e80775d31040b1764736f6c634300081e0033\n}\n","bytecode":{"linkReferences":{},"object":"608060405234801561000f575f5ffd5b506040516129fb3803806129fb833981810160405281019061003191906102d0565b8160015f6101000a81548173ffffffffffffffffffffffffffffffffffffffff021916908373ffffffffffffffffffffffffffffffffffffffff1602179055508460028190555083600390816100879190610586565b5082600490816100979190610586565b5080600b819055505f600c5f6101000a81548160ff0219169083151502179055505f600c60016101000a81548160ff0219169083151502179055505f600c60026101000a81548160ff0219169083151502179055505050505050610655565b5f604051905090565b5f5ffd5b5f5ffd5b5f819050919050565b61011981610107565b8114610123575f5ffd5b50565b5f8151905061013481610110565b92915050565b5f5ffd5b5f5ffd5b5f601f19601f8301169050919050565b7f4e487b71000000000000000000000000000000000000000000000000000000005f52604160045260245ffd5b61018882610142565b810181811067ffffffffffffffff821117156101a7576101a6610152565b5b80604052505050565b5f6101b96100f6565b90506101c5828261017f565b919050565b5f67ffffffffffffffff8211156101e4576101e3610152565b5b6101ed82610142565b9050602081019050919050565b8281835e5f83830152505050565b5f61021a610215846101ca565b6101b0565b9050828152602081018484840111156102365761023561013e565b5b6102418482856101fa565b509392505050565b5f82601f83011261025d5761025c61013a565b5b815161026d848260208601610208565b91505092915050565b5f73ffffffffffffffffffffffffffffffffffffffff82169050919050565b5f61029f82610276565b9050919050565b6102af81610295565b81146102b9575f5ffd5b50565b5f815190506102ca816102a6565b92915050565b5f5f5f5f5f60a086880312156102e9576102e86100ff565b5b5f6102f688828901610126565b955050602086015167ffffffffffffffff81111561031757610316610103565b5b61032388828901610249565b945050604086015167ffffffffffffffff81111561034457610343610103565b5b61035088828901610249565b9350506060610361888289016102bc565b925050608061037288828901610126565b9150509295509295909350565b5f81519050919050565b7f4e487b71000000000000000000000000000000000000000000000000000000005f52602260045260245ffd5b5f60028204905060018216806103cd57607f821691505b6020821081036103e0576103df610389565b5b50919050565b5f819050815f5260205f209050919050565b5f6020601f8301049050919050565b5f82821b905092915050565b5f600883026104427fffffffffffffffffffffffffffffffffffffffffffffffffffffffffffffffff82610407565b61044c8683610407565b95508019841693508086168417925050509392505050565b5f819050919050565b5f61048761048261047d84610107565b610464565b610107565b9050919050565b5f819050919050565b6104a08361046d565b6104b46104ac8261048e565b848454610413565b825550505050565b5f5f905090565b6104cb6104bc565b6104d6818484610497565b505050565b5b818110156104f9576104ee5f826104c3565b6001810190506104dc565b5050565b601f82111561053e5761050f816103e6565b610518846103f8565b81016020851015610527578190505b61053b610533856103f8565b8301826104db565b50505b505050565b5f82821c905092915050565b5f61055e5f1984600802610543565b1980831691505092915050565b5f610576838361054f565b9150826002028217905092915050565b61058f8261037f565b67ffffffffffffffff8111156105a8576105a7610152565b5b6105b282546103b6565b6105bd8282856104fd565b5f60209050601f8311600181146105ee575f84156105dc578287015190505b6105e6858261056b565b86555061064d565b601f1984166105fc866103e6565b5f5b82811015610623578489015182556001820191506020850194506020810190506105fe565b86831015610640578489015161063c601f89168261054f565b8355505b6001600288020188555050505b505050505050565b612399806106625f395ff3fe608060405260043610610180575f3560e01c806382fde093116100d05780639ace38c211610089578063c8b342ab11610063578063c8b342ab1461055b578063d57bde7914610597578063d7bb99ba146105c1578063edf26d9b146105cb57610180565b80639ace38c2146104dd578063a0c97bce1461051b578063a39fac121461053157610180565b806382fde093146103e357806383920e901461040d5780638d2a1dad1461043757806391f901571461044d578063937e09b11461047757806394073c25146104a157610180565b8063481c6a751161013d57806358d656291161011757806358d6562914610329578063597e1fb5146103535780637b87d8561461037d5780637e06eb7d146103a757610180565b8063481c6a75146102ad5780634e69d560146102d75780634ede36481461030157610180565b80630a1443911461018457806317c7acec146101c05780632ebc9a3e146101ea5780633197cbb614610226578063346143f4146102505780634051ddac1461027a575b5f5ffd5b34801561018f575f5ffd5b506101aa60048036038101906101a59190611878565b610607565b6040516101b791906118bd565b60405180910390f35b3480156101cb575f5ffd5b506101d4610624565b6040516101e191906118bd565b60405180910390f35b3480156101f5575f5ffd5b50610210600480360381019061020b9190611878565b610637565b60405161021d91906118ee565b60405180910390f35b348015610231575f5ffd5b5061023a61064c565b60405161024791906118ee565b60405180910390f35b34801561025b575f5ffd5b50610264610652565b60405161027191906118bd565b60405180910390f35b348015610285575f5ffd5b5061028e610665565b6040516102a49a99989796959493929190611a3d565b60405180910390f35b3480156102b8575f5ffd5b506102c1610881565b6040516102ce9190611aec565b60405180910390f35b3480156102e2575f5ffd5b506102eb6108a6565b6040516102f891906118bd565b60405180910390f35b34801561030c575f5ffd5b5061032760048036038101906103229190611b40565b6108bb565b005b348015610334575f5ffd5b5061033d610a05565b60405161034a9190611b6b565b60405180910390f35b34801561035e575f5ffd5b50610367610a91565b60405161037491906118bd565b60405180910390f35b348015610388575f5ffd5b50610391610aa3565b60405161039e9190611b6b565b60405180910390f35b3480156103b2575f5ffd5b506103cd60048036038101906103c89190611b8b565b610b2f565b6040516103da91906118bd565b60405180910390f35b3480156103ee575f5ffd5b506103f7610b77565b60405161040491906118ee565b60405180910390f35b348015610418575f5ffd5b50610421610b7d565b60405161042e9190611cc0565b60405180910390f35b348015610442575f5ffd5b5061044b610c40565b005b348015610458575f5ffd5b50610461611059565b60405161046e9190611aec565b60405180910390f35b348015610482575f5ffd5b5061048b61107e565b60405161049891906118ee565b60405180910390f35b3480156104ac575f5ffd5b506104c760048036038101906104c29190611878565b611084565b6040516104d49190611aec565b60405180910390f35b3480156104e8575f5ffd5b5061050360048036038101906104fe9190611d0a565b61114b565b60405161051293929190611d35565b60405180910390f35b348015610526575f5ffd5b5061052f61119e565b005b34801561053c575f5ffd5b506105456112b5565b6040516105529190611d6a565b60405180910390f35b348015610566575f5ffd5b50610581600480360381019061057c9190611878565b611340565b60405161058e91906118ee565b60405180910390f35b3480156105a2575f5ffd5b506105ab6113d3565b6040516105b891906118ee565b60405180910390f35b6105c96113d9565b005b3480156105d6575f5ffd5b506105f160048036038101906105ec9190611d0a565b6117df565b6040516105fe9190611aec565b60405180910390f35b6005602052805f5260405f205f915054906101000a900460ff1681565b600c60029054906101000a900460ff1681565b6006602052805f5260405f205f915090505481565b600b5481565b600c60019054906101000a900460ff1681565b5f5f5f5f5f6060805f5f60606002544760075460015f9054906101000a900473ffffffffffffffffffffffffffffffffffffffff16600a5460036004600b5460095f9054906101000a900473ffffffffffffffffffffffffffffffffffffffff1660088480546106d490611db7565b80601f016020809104026020016040519081016040528092919081815260200182805461070090611db7565b801561074b5780601f106107225761010080835404028352916020019161074b565b820191905f5260205f20905b81548152906001019060200180831161072e57829003601f168201915b5050505050945083805461075e90611db7565b80601f016020809104026020016040519081016040528092919081815260200182805461078a90611db7565b80156107d55780601f106107ac576101008083540402835291602001916107d5565b820191905f5260205f20905b8154815290600101906020018083116107b857829003601f168201915b505050505093508080548060200260200160405190810160405280929190818152602001828054801561085a57602002820191905f5260205f20905b815f9054906101000a900473ffffffffffffffffffffffffffffffffffffffff1673ffffffffffffffffffffffffffffffffffffffff1681526020019060010190808311610811575b50505050509050995099509950995099509950995099509950995090919293949596979899565b60015f9054906101000a900473ffffffffffffffffffffffffffffffffffffffff1681565b5f600c5f9054906101000a900460ff16905090565b5f60065f8373ffffffffffffffffffffffffffffffffffffffff1673ffffffffffffffffffffffffffffffffffffffff1681526020019081526020015f20541161093a576040517f08c379a000000000000000000000000000000000000000000000000000000000815260040161093190611e31565b60405180910390fd5b5f60065f8373ffffffffffffffffffffffffffffffffffffffff1673ffffffffffffffffffffffffffffffffffffffff1681526020019081526020015f205490505f60065f8473ffffffffffffffffffffffffffffffffffffffff1673ffffffffffffffffffffffffffffffffffffffff1681526020019081526020015f20819055508173ffffffffffffffffffffffffffffffffffffffff166108fc8290811502906040515f60405180830381858888f19350505050158015610a00573d5f5f3e3d5ffd5b505050565b60048054610a1290611db7565b80601f0160208091040260200160405190810160405280929190818152602001828054610a3e90611db7565b8015610a895780601f10610a6057610100808354040283529160200191610a89565b820191905f5260205f20905b815481529060010190602001808311610a6c57829003601f168201915b505050505081565b600c5f9054906101000a900460ff1681565b60038054610ab090611db7565b80601f0160208091040260200160405190810160405280929190818152602001828054610adc90611db7565b8015610b275780601f10610afe57610100808354040283529160200191610b27565b820191905f5260205f20905b815481529060010190602001808311610b0a57829003601f168201915b505050505081565b5f610b3982611084565b73ffffffffffffffffffffffffffffffffffffffff16610b5884611084565b73ffffffffffffffffffffffffffffffffffffffff1614905092915050565b60075481565b60605f805480602002602001604051908101604052809291908181526020015f905b82821015610c37578382905f5260205f2090600302016040518060600160405290815f820154815260200160018201548152602001600282015f9054906101000a900473ffffffffffffffffffffffffffffffffffffffff1673ffffffffffffffffffffffffffffffffffffffff1673ffffffffffffffffffffffffffffffffffffffff168152505081526020019060010190610b9f565b50505050905090565b42600b5410610c84576040517f08c379a0000000000000000000000000000000000000000000000000000000008152600401610c7b90611e99565b60405180910390fd5b600c60019054906101000a900460ff161580610cad5750600c60029054906101000a900460ff16155b610cec576040517f08c379a0000000000000000000000000000000000000000000000000000000008152600401610ce390611f01565b60405180910390fd5b600c60019054906101000a900460ff16610ef0575f5f90505b600880549050811015610ed3575f60088281548110610d2757610d26611f1f565b5b905f5260205f20015f9054906101000a900473ffffffffffffffffffffffffffffffffffffffff16905060095f9054906101000a900473ffffffffffffffffffffffffffffffffffffffff1673ffffffffffffffffffffffffffffffffffffffff168173ffffffffffffffffffffffffffffffffffffffff1614610ec5575f60065f8373ffffffffffffffffffffffffffffffffffffffff1673ffffffffffffffffffffffffffffffffffffffff1681526020019081526020015f205490505f811115610ec3575f60065f8473ffffffffffffffffffffffffffffffffffffffff1673ffffffffffffffffffffffffffffffffffffffff1681526020019081526020015f20819055508173ffffffffffffffffffffffffffffffffffffffff166108fc8290811502906040515f60405180830381858888f19350505050158015610e73573d5f5f3e3d5ffd5b508173ffffffffffffffffffffffffffffffffffffffff167f3367befd2b2f39615cd79917c2153263c4af1d3945ec003e5d5bfc13a8d8583382604051610eba91906118ee565b60405180910390a25b505b508080600101915050610d05565b506001600c60016101000a81548160ff0219169083151502179055505b600c60029054906101000a900460ff1661105757600a54471015610f49576040517f08c379a0000000000000000000000000000000000000000000000000000000008152600401610f4090611f96565b60405180910390fd5b60015f9054906101000a900473ffffffffffffffffffffffffffffffffffffffff1673ffffffffffffffffffffffffffffffffffffffff166108fc600a5490811502906040515f60405180830381858888f19350505050158015610faf573d5f5f3e3d5ffd5b506001600c60026101000a81548160ff0219169083151502179055506001600c5f6101000a81548160ff02191690831515021790555060015f9054906101000a900473ffffffffffffffffffffffffffffffffffffffff1673ffffffffffffffffffffffffffffffffffffffff167fcb4a9094da4df77fb2c0dbaa5047660b1237e61d82a02176c1be74ca757f2531600a5460405161104e91906118ee565b60405180910390a25b565b60095f9054906101000a900473ffffffffffffffffffffffffffffffffffffffff1681565b60025481565b5f5f8290505f5f90505b6014811015611141575f8460601b82601481106110ae576110ad611f1f565b5b1a60f81b60f81c905060418160ff16101580156110cf5750605a8160ff1611155b156110e4576020816110e19190611fed565b90505b8160136110f19190612021565b60086110fd9190612054565b73ffffffffffffffffffffffffffffffffffffffff168160ff1673ffffffffffffffffffffffffffffffffffffffff16901b8317925050808060010191505061108e565b5080915050919050565b5f8181548110611159575f80fd5b905f5260205f2090600302015f91509050805f015490806001015490806002015f9054906101000a900473ffffffffffffffffffffffffffffffffffffffff16905083565b600c5f9054906101000a900460ff16156111ed576040517f08c379a00000000000000000000000000000000000000000000000000000000081526004016111e4906120df565b60405180910390fd5b600a54471015611232576040517f08c379a000000000000000000000000000000000000000000000000000000000815260040161122990611f96565b60405180910390fd5b60015f9054906101000a900473ffffffffffffffffffffffffffffffffffffffff1673ffffffffffffffffffffffffffffffffffffffff166108fc600a5490811502906040515f60405180830381858888f19350505050158015611298573d5f5f3e3d5ffd5b506001600c5f6101000a81548160ff021916908315150217905550565b6060600880548060200260200160405190810160405280929190818152602001828054801561133657602002820191905f5260205f20905b815f9054906101000a900473ffffffffffffffffffffffffffffffffffffffff1673ffffffffffffffffffffffffffffffffffffffff16815260200190600101908083116112ed575b5050505050905090565b5f5f5f90505f60065f8573ffffffffffffffffffffffffffffffffffffffff1673ffffffffffffffffffffffffffffffffffffffff1681526020019081526020015f2054146113ca5760065f8473ffffffffffffffffffffffffffffffffffffffff1673ffffffffffffffffffffffffffffffffffffffff1681526020019081526020015f205490505b80915050919050565b600a5481565b60015f9054906101000a900473ffffffffffffffffffffffffffffffffffffffff1673ffffffffffffffffffffffffffffffffffffffff163373ffffffffffffffffffffffffffffffffffffffff1603611468576040517f08c379a000000000000000000000000000000000000000000000000000000000815260040161145f90612147565b60405180910390fd5b42600b54116114ac576040517f08c379a00000000000000000000000000000000000000000000000000000000081526004016114a3906121d5565b60405180910390fd5b5f60065f3373ffffffffffffffffffffffffffffffffffffffff1673ffffffffffffffffffffffffffffffffffffffff1681526020019081526020015f205490505f34826114fa91906121f3565b9050600254811015611541576040517f08c379a000000000000000000000000000000000000000000000000000000000815260040161153890612270565b60405180910390fd5b600a548111611585576040517f08c379a000000000000000000000000000000000000000000000000000000000815260040161157c906122fe565b60405180910390fd5b3360095f6101000a81548173ffffffffffffffffffffffffffffffffffffffff021916908373ffffffffffffffffffffffffffffffffffffffff16021790555080600a819055508060065f3373ffffffffffffffffffffffffffffffffffffffff1673ffffffffffffffffffffffffffffffffffffffff1681526020019081526020015f20819055505f60405180606001604052803481526020014281526020013373ffffffffffffffffffffffffffffffffffffffff16815250908060018154018082558091505060019003905f5260205f2090600302015f909190919091505f820151815f0155602082015181600101556040820151816002015f6101000a81548173ffffffffffffffffffffffffffffffffffffffff021916908373ffffffffffffffffffffffffffffffffffffffff160217905550505060055f3373ffffffffffffffffffffffffffffffffffffffff1673ffffffffffffffffffffffffffffffffffffffff1681526020019081526020015f205f9054906101000a900460ff166117db57600160055f3373ffffffffffffffffffffffffffffffffffffffff1673ffffffffffffffffffffffffffffffffffffffff1681526020019081526020015f205f6101000a81548160ff02191690831515021790555060075f8154809291906117759061231c565b9190505550600833908060018154018082558091505060019003905f5260205f20015f9091909190916101000a81548173ffffffffffffffffffffffffffffffffffffffff021916908373ffffffffffffffffffffffffffffffffffffffff1602179055505b5050565b600881815481106117ee575f80fd5b905f5260205f20015f915054906101000a900473ffffffffffffffffffffffffffffffffffffffff1681565b5f5ffd5b5f73ffffffffffffffffffffffffffffffffffffffff82169050919050565b5f6118478261181e565b9050919050565b6118578161183d565b8114611861575f5ffd5b50565b5f813590506118728161184e565b92915050565b5f6020828403121561188d5761188c61181a565b5b5f61189a84828501611864565b91505092915050565b5f8115159050919050565b6118b7816118a3565b82525050565b5f6020820190506118d05f8301846118ae565b92915050565b5f819050919050565b6118e8816118d6565b82525050565b5f6020820190506119015f8301846118df565b92915050565b6119108161183d565b82525050565b5f81519050919050565b5f82825260208201905092915050565b8281835e5f83830152505050565b5f601f19601f8301169050919050565b5f61195882611916565b6119628185611920565b9350611972818560208601611930565b61197b8161193e565b840191505092915050565b5f81519050919050565b5f82825260208201905092915050565b5f819050602082019050919050565b6119b88161183d565b82525050565b5f6119c983836119af565b60208301905092915050565b5f602082019050919050565b5f6119eb82611986565b6119f58185611990565b9350611a00836119a0565b805f5b83811015611a30578151611a1788826119be565b9750611a22836119d5565b925050600181019050611a03565b5085935050505092915050565b5f61014082019050611a515f83018d6118df565b611a5e602083018c6118df565b611a6b604083018b6118df565b611a78606083018a611907565b611a8560808301896118df565b81810360a0830152611a97818861194e565b905081810360c0830152611aab818761194e565b9050611aba60e08301866118df565b611ac8610100830185611907565b818103610120830152611adb81846119e1565b90509b9a5050505050505050505050565b5f602082019050611aff5f830184611907565b92915050565b5f611b0f8261181e565b9050919050565b611b1f81611b05565b8114611b29575f5ffd5b50565b5f81359050611b3a81611b16565b92915050565b5f60208284031215611b5557611b5461181a565b5b5f611b6284828501611b2c565b91505092915050565b5f6020820190508181035f830152611b83818461194e565b905092915050565b5f5f60408385031215611ba157611ba061181a565b5b5f611bae85828601611864565b9250506020611bbf85828601611864565b9150509250929050565b5f81519050919050565b5f82825260208201905092915050565b5f819050602082019050919050565b611bfb816118d6565b82525050565b606082015f820151611c155f850182611bf2565b506020820151611c286020850182611bf2565b506040820151611c3b60408501826119af565b50505050565b5f611c4c8383611c01565b60608301905092915050565b5f602082019050919050565b5f611c6e82611bc9565b611c788185611bd3565b9350611c8383611be3565b805f5b83811015611cb3578151611c9a8882611c41565b9750611ca583611c58565b925050600181019050611c86565b5085935050505092915050565b5f6020820190508181035f830152611cd88184611c64565b905092915050565b611ce9816118d6565b8114611cf3575f5ffd5b50565b5f81359050611d0481611ce0565b92915050565b5f60208284031215611d1f57611d1e61181a565b5b5f611d2c84828501611cf6565b91505092915050565b5f606082019050611d485f8301866118df565b611d5560208301856118df565b611d626040830184611907565b949350505050565b5f6020820190508181035f830152611d8281846119e1565b905092915050565b7f4e487b71000000000000000000000000000000000000000000000000000000005f52602260045260245ffd5b5f6002820490506001821680611dce57607f821691505b602082108103611de157611de0611d8a565b5b50919050565b7f4e6f2062696420746f20726566756e64000000000000000000000000000000005f82015250565b5f611e1b601083611920565b9150611e2682611de7565b602082019050919050565b5f6020820190508181035f830152611e4881611e0f565b9050919050565b7f41756374696f6e206973207374696c6c206163746976650000000000000000005f82015250565b5f611e83601783611920565b9150611e8e82611e4f565b602082019050919050565b5f6020820190508181035f830152611eb081611e77565b9050919050565b7f41756374696f6e20616c72656164792066696e616c697a6564000000000000005f82015250565b5f611eeb601983611920565b9150611ef682611eb7565b602082019050919050565b5f6020820190508181035f830152611f1881611edf565b9050919050565b7f4e487b71000000000000000000000000000000000000000000000000000000005f52603260045260245ffd5b7f496e73756666696369656e742062616c616e63650000000000000000000000005f82015250565b5f611f80601483611920565b9150611f8b82611f4c565b602082019050919050565b5f6020820190508181035f830152611fad81611f74565b9050919050565b5f60ff82169050919050565b7f4e487b71000000000000000000000000000000000000000000000000000000005f52601160045260245ffd5b5f611ff782611fb4565b915061200283611fb4565b9250828201905060ff81111561201b5761201a611fc0565b5b92915050565b5f61202b826118d6565b9150612036836118d6565b925082820390508181111561204e5761204d611fc0565b5b92915050565b5f61205e826118d6565b9150612069836118d6565b9250828202612077816118d6565b9150828204841483151761208e5761208d611fc0565b5b5092915050565b7f41756374696f6e20616c726561647920636c6f736564000000000000000000005f82015250565b5f6120c9601683611920565b91506120d482612095565b602082019050919050565b5f6020820190508181035f8301526120f6816120bd565b9050919050565b7f796f752063616e27742062757920796f7572206f776e206461746100000000005f82015250565b5f612131601b83611920565b915061213c826120fd565b602082019050919050565b5f6020820190508181035f83015261215e81612125565b9050919050565b7f796f752063616e277420636f6e7472696275746520746f20616e20656e6465645f8201527f2061756374696f6e000000000000000000000000000000000000000000000000602082015250565b5f6121bf602883611920565b91506121ca82612165565b604082019050919050565b5f6020820190508181035f8301526121ec816121b3565b9050919050565b5f6121fd826118d6565b9150612208836118d6565b92508282019050808211156122205761221f611fc0565b5b92915050565b7f4269642062656c6f77206d696e696d756d0000000000000000000000000000005f82015250565b5f61225a601183611920565b915061226582612226565b602082019050919050565b5f6020820190508181035f8301526122878161224e565b9050919050565b7f546865726520616c7265616479206973206120686967686572206f72206571755f8201527f616c206269640000000000000000000000000000000000000000000000000000602082015250565b5f6122e8602683611920565b91506122f38261228e565b604082019050919050565b5f6020820190508181035f830152612315816122dc565b9050919050565b5f612326826118d6565b91507fffffffffffffffffffffffffffffffffffffffffffffffffffffffffffffffff820361235857612357611fc0565b5b60018201905091905056fea2646970667358221220e67ff92c60d1048212e782679f14cc9dc3b56e5ef68f401a5e80775d31040b1764736f6c634300081e0033","opcodes":"PUSH1 0x80 PUSH1 0x40 MSTORE CALLVALUE DUP1 ISZERO PUSH2 0xF JUMPI PUSH0 PUSH0 REVERT JUMPDEST POP PUSH1 0x40 MLOAD PUSH2 0x29FB CODESIZE SUB DUP1 PUSH2 0x29FB DUP4 CODECOPY DUP2 DUP2 ADD PUSH1 0x40 MSTORE DUP2 ADD SWAP1 PUSH2 0x31 SWAP2 SWAP1 PUSH2 0x2D0 JUMP JUMPDEST DUP2 PUSH1 0x1 PUSH0 PUSH2 0x100 EXP DUP2 SLOAD DUP2 PUSH20 0xFFFFFFFFFFFFFFFFFFFFFFFFFFFFFFFFFFFFFFFF MUL NOT AND SWAP1 DUP4 PUSH20 0xFFFFFFFFFFFFFFFFFFFFFFFFFFFFFFFFFFFFFFFF AND MUL OR SWAP1 SSTORE POP DUP5 PUSH1 0x2 DUP2 SWAP1 SSTORE POP DUP4 PUSH1 0x3 SWAP1 DUP2 PUSH2 0x87 SWAP2 SWAP1 PUSH2 0x586 JUMP JUMPDEST POP DUP3 PUSH1 0x4 SWAP1 DUP2 PUSH2 0x97 SWAP2 SWAP1 PUSH2 0x586 JUMP JUMPDEST POP DUP1 PUSH1 0xB DUP2 SWAP1 SSTORE POP PUSH0 PUSH1 0xC PUSH0 PUSH2 0x100 EXP DUP2 SLOAD DUP2 PUSH1 0xFF MUL NOT AND SWAP1 DUP4 ISZERO ISZERO MUL OR SWAP1 SSTORE POP PUSH0 PUSH1 0xC PUSH1 0x1 PUSH2 0x100 EXP DUP2 SLOAD DUP2 PUSH1 0xFF MUL NOT AND SWAP1 DUP4 ISZERO ISZERO MUL OR SWAP1 SSTORE POP PUSH0 PUSH1 0xC PUSH1 0x2 PUSH2 0x100 EXP DUP2 SLOAD DUP2 PUSH1 0xFF MUL NOT AND SWAP1 DUP4 ISZERO ISZERO MUL OR SWAP1 SSTORE POP POP POP POP POP POP PUSH2 0x655 JUMP JUMPDEST PUSH0 PUSH1 0x40 MLOAD SWAP1 POP SWAP1 JUMP JUMPDEST PUSH0 PUSH0 REVERT JUMPDEST PUSH0 PUSH0 REVERT JUMPDEST PUSH0 DUP2 SWAP1 POP SWAP2 SWAP1 POP JUMP JUMPDEST PUSH2 0x119 DUP2 PUSH2 0x107 JUMP JUMPDEST DUP2 EQ PUSH2 0x123 JUMPI PUSH0 PUSH0 REVERT JUMPDEST POP JUMP JUMPDEST PUSH0 DUP2 MLOAD SWAP1 POP PUSH2 0x134 DUP2 PUSH2 0x110 JUMP JUMPDEST SWAP3 SWAP2 POP POP JUMP JUMPDEST PUSH0 PUSH0 REVERT JUMPDEST PUSH0 PUSH0 REVERT JUMPDEST PUSH0 PUSH1 0x1F NOT PUSH1 0x1F DUP4 ADD AND SWAP1 POP SWAP2 SWAP1 POP JUMP JUMPDEST PUSH32 0x4E487B7100000000000000000000000000000000000000000000000000000000 PUSH0 MSTORE PUSH1 0x41 PUSH1 0x4 MSTORE PUSH1 0x24 PUSH0 REVERT JUMPDEST PUSH2 0x188 DUP3 PUSH2 0x142 JUMP JUMPDEST DUP2 ADD DUP2 DUP2 LT PUSH8 0xFFFFFFFFFFFFFFFF DUP3 GT OR ISZERO PUSH2 0x1A7 JUMPI PUSH2 0x1A6 PUSH2 0x152 JUMP JUMPDEST JUMPDEST DUP1 PUSH1 0x40 MSTORE POP POP POP JUMP JUMPDEST PUSH0 PUSH2 0x1B9 PUSH2 0xF6 JUMP JUMPDEST SWAP1 POP PUSH2 0x1C5 DUP3 DUP3 PUSH2 0x17F JUMP JUMPDEST SWAP2 SWAP1 POP JUMP JUMPDEST PUSH0 PUSH8 0xFFFFFFFFFFFFFFFF DUP3 GT ISZERO PUSH2 0x1E4 JUMPI PUSH2 0x1E3 PUSH2 0x152 JUMP JUMPDEST JUMPDEST PUSH2 0x1ED DUP3 PUSH2 0x142 JUMP JUMPDEST SWAP1 POP PUSH1 0x20 DUP2 ADD SWAP1 POP SWAP2 SWAP1 POP JUMP JUMPDEST DUP3 DUP2 DUP4 MCOPY PUSH0 DUP4 DUP4 ADD MSTORE POP POP POP JUMP JUMPDEST PUSH0 PUSH2 0x21A PUSH2 0x215 DUP5 PUSH2 0x1CA JUMP JUMPDEST PUSH2 0x1B0 JUMP JUMPDEST SWAP1 POP DUP3 DUP2 MSTORE PUSH1 0x20 DUP2 ADD DUP5 DUP5 DUP5 ADD GT ISZERO PUSH2 0x236 JUMPI PUSH2 0x235 PUSH2 0x13E JUMP JUMPDEST JUMPDEST PUSH2 0x241 DUP5 DUP3 DUP6 PUSH2 0x1FA JUMP JUMPDEST POP SWAP4 SWAP3 POP POP POP JUMP JUMPDEST PUSH0 DUP3 PUSH1 0x1F DUP4 ADD SLT PUSH2 0x25D JUMPI PUSH2 0x25C PUSH2 0x13A JUMP JUMPDEST JUMPDEST DUP2 MLOAD PUSH2 0x26D DUP5 DUP3 PUSH1 0x20 DUP7 ADD PUSH2 0x208 JUMP JUMPDEST SWAP2 POP POP SWAP3 SWAP2 POP POP JUMP JUMPDEST PUSH0 PUSH20 0xFFFFFFFFFFFFFFFFFFFFFFFFFFFFFFFFFFFFFFFF DUP3 AND SWAP1 POP SWAP2 SWAP1 POP JUMP JUMPDEST PUSH0 PUSH2 0x29F DUP3 PUSH2 0x276 JUMP JUMPDEST SWAP1 POP SWAP2 SWAP1 POP JUMP JUMPDEST PUSH2 0x2AF DUP2 PUSH2 0x295 JUMP JUMPDEST DUP2 EQ PUSH2 0x2B9 JUMPI PUSH0 PUSH0 REVERT JUMPDEST POP JUMP JUMPDEST PUSH0 DUP2 MLOAD SWAP1 POP PUSH2 0x2CA DUP2 PUSH2 0x2A6 JUMP JUMPDEST SWAP3 SWAP2 POP POP JUMP JUMPDEST PUSH0 PUSH0 PUSH0 PUSH0 PUSH0 PUSH1 0xA0 DUP7 DUP9 SUB SLT ISZERO PUSH2 0x2E9 JUMPI PUSH2 0x2E8 PUSH2 0xFF JUMP JUMPDEST JUMPDEST PUSH0 PUSH2 0x2F6 DUP9 DUP3 DUP10 ADD PUSH2 0x126 JUMP JUMPDEST SWAP6 POP POP PUSH1 0x20 DUP7 ADD MLOAD PUSH8 0xFFFFFFFFFFFFFFFF DUP2 GT ISZERO PUSH2 0x317 JUMPI PUSH2 0x316 PUSH2 0x103 JUMP JUMPDEST JUMPDEST PUSH2 0x323 DUP9 DUP3 DUP10 ADD PUSH2 0x249 JUMP JUMPDEST SWAP5 POP POP PUSH1 0x40 DUP7 ADD MLOAD PUSH8 0xFFFFFFFFFFFFFFFF DUP2 GT ISZERO PUSH2 0x344 JUMPI PUSH2 0x343 PUSH2 0x103 JUMP JUMPDEST JUMPDEST PUSH2 0x350 DUP9 DUP3 DUP10 ADD PUSH2 0x249 JUMP JUMPDEST SWAP4 POP POP PUSH1 0x60 PUSH2 0x361 DUP9 DUP3 DUP10 ADD PUSH2 0x2BC JUMP JUMPDEST SWAP3 POP POP PUSH1 0x80 PUSH2 0x372 DUP9 DUP3 DUP10 ADD PUSH2 0x126 JUMP JUMPDEST SWAP2 POP POP SWAP3 SWAP6 POP SWAP3 SWAP6 SWAP1 SWAP4 POP JUMP JUMPDEST PUSH0 DUP2 MLOAD SWAP1 POP SWAP2 SWAP1 POP JUMP JUMPDEST PUSH32 0x4E487B7100000000000000000000000000000000000000000000000000000000 PUSH0 MSTORE PUSH1 0x22 PUSH1 0x4 MSTORE PUSH1 0x24 PUSH0 REVERT JUMPDEST PUSH0 PUSH1 0x2 DUP3 DIV SWAP1 POP PUSH1 0x1 DUP3 AND DUP1 PUSH2 0x3CD JUMPI PUSH1 0x7F DUP3 AND SWAP2 POP JUMPDEST PUSH1 0x20 DUP3 LT DUP2 SUB PUSH2 0x3E0 JUMPI PUSH2 0x3DF PUSH2 0x389 JUMP JUMPDEST JUMPDEST POP SWAP2 SWAP1 POP JUMP JUMPDEST PUSH0 DUP2 SWAP1 POP DUP2 PUSH0 MSTORE PUSH1 0x20 PUSH0 KECCAK256 SWAP1 POP SWAP2 SWAP1 POP JUMP JUMPDEST PUSH0 PUSH1 0x20 PUSH1 0x1F DUP4 ADD DIV SWAP1 POP SWAP2 SWAP1 POP JUMP JUMPDEST PUSH0 DUP3 DUP3 SHL SWAP1 POP SWAP3 SWAP2 POP POP JUMP JUMPDEST PUSH0 PUSH1 0x8 DUP4 MUL PUSH2 0x442 PUSH32 0xFFFFFFFFFFFFFFFFFFFFFFFFFFFFFFFFFFFFFFFFFFFFFFFFFFFFFFFFFFFFFFFF DUP3 PUSH2 0x407 JUMP JUMPDEST PUSH2 0x44C DUP7 DUP4 PUSH2 0x407 JUMP JUMPDEST SWAP6 POP DUP1 NOT DUP5 AND SWAP4 POP DUP1 DUP7 AND DUP5 OR SWAP3 POP POP POP SWAP4 SWAP3 POP POP POP JUMP JUMPDEST PUSH0 DUP2 SWAP1 POP SWAP2 SWAP1 POP JUMP JUMPDEST PUSH0 PUSH2 0x487 PUSH2 0x482 PUSH2 0x47D DUP5 PUSH2 0x107 JUMP JUMPDEST PUSH2 0x464 JUMP JUMPDEST PUSH2 0x107 JUMP JUMPDEST SWAP1 POP SWAP2 SWAP1 POP JUMP JUMPDEST PUSH0 DUP2 SWAP1 POP SWAP2 SWAP1 POP JUMP JUMPDEST PUSH2 0x4A0 DUP4 PUSH2 0x46D JUMP JUMPDEST PUSH2 0x4B4 PUSH2 0x4AC DUP3 PUSH2 0x48E JUMP JUMPDEST DUP5 DUP5 SLOAD PUSH2 0x413 JUMP JUMPDEST DUP3 SSTORE POP POP POP POP JUMP JUMPDEST PUSH0 PUSH0 SWAP1 POP SWAP1 JUMP JUMPDEST PUSH2 0x4CB PUSH2 0x4BC JUMP JUMPDEST PUSH2 0x4D6 DUP2 DUP5 DUP5 PUSH2 0x497 JUMP JUMPDEST POP POP POP JUMP JUMPDEST JUMPDEST DUP2 DUP2 LT ISZERO PUSH2 0x4F9 JUMPI PUSH2 0x4EE PUSH0 DUP3 PUSH2 0x4C3 JUMP JUMPDEST PUSH1 0x1 DUP2 ADD SWAP1 POP PUSH2 0x4DC JUMP JUMPDEST POP POP JUMP JUMPDEST PUSH1 0x1F DUP3 GT ISZERO PUSH2 0x53E JUMPI PUSH2 0x50F DUP2 PUSH2 0x3E6 JUMP JUMPDEST PUSH2 0x518 DUP5 PUSH2 0x3F8 JUMP JUMPDEST DUP2 ADD PUSH1 0x20 DUP6 LT ISZERO PUSH2 0x527 JUMPI DUP2 SWAP1 POP JUMPDEST PUSH2 0x53B PUSH2 0x533 DUP6 PUSH2 0x3F8 JUMP JUMPDEST DUP4 ADD DUP3 PUSH2 0x4DB JUMP JUMPDEST POP POP JUMPDEST POP POP POP JUMP JUMPDEST PUSH0 DUP3 DUP3 SHR SWAP1 POP SWAP3 SWAP2 POP POP JUMP JUMPDEST PUSH0 PUSH2 0x55E PUSH0 NOT DUP5 PUSH1 0x8 MUL PUSH2 0x543 JUMP JUMPDEST NOT DUP1 DUP4 AND SWAP2 POP POP SWAP3 SWAP2 POP POP JUMP JUMPDEST PUSH0 PUSH2 0x576 DUP4 DUP4 PUSH2 0x54F JUMP JUMPDEST SWAP2 POP DUP3 PUSH1 0x2 MUL DUP3 OR SWAP1 POP SWAP3 SWAP2 POP POP JUMP JUMPDEST PUSH2 0x58F DUP3 PUSH2 0x37F JUMP JUMPDEST PUSH8 0xFFFFFFFFFFFFFFFF DUP2 GT ISZERO PUSH2 0x5A8 JUMPI PUSH2 0x5A7 PUSH2 0x152 JUMP JUMPDEST JUMPDEST PUSH2 0x5B2 DUP3 SLOAD PUSH2 0x3B6 JUMP JUMPDEST PUSH2 0x5BD DUP3 DUP3 DUP6 PUSH2 0x4FD JUMP JUMPDEST PUSH0 PUSH1 0x20 SWAP1 POP PUSH1 0x1F DUP4 GT PUSH1 0x1 DUP2 EQ PUSH2 0x5EE JUMPI PUSH0 DUP5 ISZERO PUSH2 0x5DC JUMPI DUP3 DUP8 ADD MLOAD SWAP1 POP JUMPDEST PUSH2 0x5E6 DUP6 DUP3 PUSH2 0x56B JUMP JUMPDEST DUP7 SSTORE POP PUSH2 0x64D JUMP JUMPDEST PUSH1 0x1F NOT DUP5 AND PUSH2 0x5FC DUP7 PUSH2 0x3E6 JUMP JUMPDEST PUSH0 JUMPDEST DUP3 DUP2 LT ISZERO PUSH2 0x623 JUMPI DUP5 DUP10 ADD MLOAD DUP3 SSTORE PUSH1 0x1 DUP3 ADD SWAP2 POP PUSH1 0x20 DUP6 ADD SWAP5 POP PUSH1 0x20 DUP2 ADD SWAP1 POP PUSH2 0x5FE JUMP JUMPDEST DUP7 DUP4 LT ISZERO PUSH2 0x640 JUMPI DUP5 DUP10 ADD MLOAD PUSH2 0x63C PUSH1 0x1F DUP10 AND DUP3 PUSH2 0x54F JUMP JUMPDEST DUP4 SSTORE POP JUMPDEST PUSH1 0x1 PUSH1 0x2 DUP9 MUL ADD DUP9 SSTORE POP POP POP JUMPDEST POP POP POP POP POP POP JUMP JUMPDEST PUSH2 0x2399 DUP1 PUSH2 0x662 PUSH0 CODECOPY PUSH0 RETURN INVALID PUSH1 0x80 PUSH1 0x40 MSTORE PUSH1 0x4 CALLDATASIZE LT PUSH2 0x180 JUMPI PUSH0 CALLDATALOAD PUSH1 0xE0 SHR DUP1 PUSH4 0x82FDE093 GT PUSH2 0xD0 JUMPI DUP1 PUSH4 0x9ACE38C2 GT PUSH2 0x89 JUMPI DUP1 PUSH4 0xC8B342AB GT PUSH2 0x63 JUMPI DUP1 PUSH4 0xC8B342AB EQ PUSH2 0x55B JUMPI DUP1 PUSH4 0xD57BDE79 EQ PUSH2 0x597 JUMPI DUP1 PUSH4 0xD7BB99BA EQ PUSH2 0x5C1 JUMPI DUP1 PUSH4 0xEDF26D9B EQ PUSH2 0x5CB JUMPI PUSH2 0x180 JUMP JUMPDEST DUP1 PUSH4 0x9ACE38C2 EQ PUSH2 0x4DD JUMPI DUP1 PUSH4 0xA0C97BCE EQ PUSH2 0x51B JUMPI DUP1 PUSH4 0xA39FAC12 EQ PUSH2 0x531 JUMPI PUSH2 0x180 JUMP JUMPDEST DUP1 PUSH4 0x82FDE093 EQ PUSH2 0x3E3 JUMPI DUP1 PUSH4 0x83920E90 EQ PUSH2 0x40D JUMPI DUP1 PUSH4 0x8D2A1DAD EQ PUSH2 0x437 JUMPI DUP1 PUSH4 0x91F90157 EQ PUSH2 0x44D JUMPI DUP1 PUSH4 0x937E09B1 EQ PUSH2 0x477 JUMPI DUP1 PUSH4 0x94073C25 EQ PUSH2 0x4A1 JUMPI PUSH2 0x180 JUMP JUMPDEST DUP1 PUSH4 0x481C6A75 GT PUSH2 0x13D JUMPI DUP1 PUSH4 0x58D65629 GT PUSH2 0x117 JUMPI DUP1 PUSH4 0x58D65629 EQ PUSH2 0x329 JUMPI DUP1 PUSH4 0x597E1FB5 EQ PUSH2 0x353 JUMPI DUP1 PUSH4 0x7B87D856 EQ PUSH2 0x37D JUMPI DUP1 PUSH4 0x7E06EB7D EQ PUSH2 0x3A7 JUMPI PUSH2 0x180 JUMP JUMPDEST DUP1 PUSH4 0x481C6A75 EQ PUSH2 0x2AD JUMPI DUP1 PUSH4 0x4E69D560 EQ PUSH2 0x2D7 JUMPI DUP1 PUSH4 0x4EDE3648 EQ PUSH2 0x301 JUMPI PUSH2 0x180 JUMP JUMPDEST DUP1 PUSH4 0xA144391 EQ PUSH2 0x184 JUMPI DUP1 PUSH4 0x17C7ACEC EQ PUSH2 0x1C0 JUMPI DUP1 PUSH4 0x2EBC9A3E EQ PUSH2 0x1EA JUMPI DUP1 PUSH4 0x3197CBB6 EQ PUSH2 0x226 JUMPI DUP1 PUSH4 0x346143F4 EQ PUSH2 0x250 JUMPI DUP1 PUSH4 0x4051DDAC EQ PUSH2 0x27A JUMPI JUMPDEST PUSH0 PUSH0 REVERT JUMPDEST CALLVALUE DUP1 ISZERO PUSH2 0x18F JUMPI PUSH0 PUSH0 REVERT JUMPDEST POP PUSH2 0x1AA PUSH1 0x4 DUP1 CALLDATASIZE SUB DUP2 ADD SWAP1 PUSH2 0x1A5 SWAP2 SWAP1 PUSH2 0x1878 JUMP JUMPDEST PUSH2 0x607 JUMP JUMPDEST PUSH1 0x40 MLOAD PUSH2 0x1B7 SWAP2 SWAP1 PUSH2 0x18BD JUMP JUMPDEST PUSH1 0x40 MLOAD DUP1 SWAP2 SUB SWAP1 RETURN JUMPDEST CALLVALUE DUP1 ISZERO PUSH2 0x1CB JUMPI PUSH0 PUSH0 REVERT JUMPDEST POP PUSH2 0x1D4 PUSH2 0x624 JUMP JUMPDEST PUSH1 0x40 MLOAD PUSH2 0x1E1 SWAP2 SWAP1 PUSH2 0x18BD JUMP JUMPDEST PUSH1 0x40 MLOAD DUP1 SWAP2 SUB SWAP1 RETURN JUMPDEST CALLVALUE DUP1 ISZERO PUSH2 0x1F5 JUMPI PUSH0 PUSH0 REVERT JUMPDEST POP PUSH2 0x210 PUSH1 0x4 DUP1 CALLDATASIZE SUB DUP2 ADD SWAP1 PUSH2 0x20B SWAP2 SWAP1 PUSH2 0x1878 JUMP JUMPDEST PUSH2 0x637 JUMP JUMPDEST PUSH1 0x40 MLOAD PUSH2 0x21D SWAP2 SWAP1 PUSH2 0x18EE JUMP JUMPDEST PUSH1 0x40 MLOAD DUP1 SWAP2 SUB SWAP1 RETURN JUMPDEST CALLVALUE DUP1 ISZERO PUSH2 0x231 JUMPI PUSH0 PUSH0 REVERT JUMPDEST POP PUSH2 0x23A PUSH2 0x64C JUMP JUMPDEST PUSH1 0x40 MLOAD PUSH2 0x247 SWAP2 SWAP1 PUSH2 0x18EE JUMP JUMPDEST PUSH1 0x40 MLOAD DUP1 SWAP2 SUB SWAP1 RETURN JUMPDEST CALLVALUE DUP1 ISZERO PUSH2 0x25B JUMPI PUSH0 PUSH0 REVERT JUMPDEST POP PUSH2 0x264 PUSH2 0x652 JUMP JUMPDEST PUSH1 0x40 MLOAD PUSH2 0x271 SWAP2 SWAP1 PUSH2 0x18BD JUMP JUMPDEST PUSH1 0x40 MLOAD DUP1 SWAP2 SUB SWAP1 RETURN JUMPDEST CALLVALUE DUP1 ISZERO PUSH2 0x285 JUMPI PUSH0 PUSH0 REVERT JUMPDEST POP PUSH2 0x28E PUSH2 0x665 JUMP JUMPDEST PUSH1 0x40 MLOAD PUSH2 0x2A4 SWAP11 SWAP10 SWAP9 SWAP8 SWAP7 SWAP6 SWAP5 SWAP4 SWAP3 SWAP2 SWAP1 PUSH2 0x1A3D JUMP JUMPDEST PUSH1 0x40 MLOAD DUP1 SWAP2 SUB SWAP1 RETURN JUMPDEST CALLVALUE DUP1 ISZERO PUSH2 0x2B8 JUMPI PUSH0 PUSH0 REVERT JUMPDEST POP PUSH2 0x2C1 PUSH2 0x881 JUMP JUMPDEST PUSH1 0x40 MLOAD PUSH2 0x2CE SWAP2 SWAP1 PUSH2 0x1AEC JUMP JUMPDEST PUSH1 0x40 MLOAD DUP1 SWAP2 SUB SWAP1 RETURN JUMPDEST CALLVALUE DUP1 ISZERO PUSH2 0x2E2 JUMPI PUSH0 PUSH0 REVERT JUMPDEST POP PUSH2 0x2EB PUSH2 0x8A6 JUMP JUMPDEST PUSH1 0x40 MLOAD PUSH2 0x2F8 SWAP2 SWAP1 PUSH2 0x18BD JUMP JUMPDEST PUSH1 0x40 MLOAD DUP1 SWAP2 SUB SWAP1 RETURN JUMPDEST CALLVALUE DUP1 ISZERO PUSH2 0x30C JUMPI PUSH0 PUSH0 REVERT JUMPDEST POP PUSH2 0x327 PUSH1 0x4 DUP1 CALLDATASIZE SUB DUP2 ADD SWAP1 PUSH2 0x322 SWAP2 SWAP1 PUSH2 0x1B40 JUMP JUMPDEST PUSH2 0x8BB JUMP JUMPDEST STOP JUMPDEST CALLVALUE DUP1 ISZERO PUSH2 0x334 JUMPI PUSH0 PUSH0 REVERT JUMPDEST POP PUSH2 0x33D PUSH2 0xA05 JUMP JUMPDEST PUSH1 0x40 MLOAD PUSH2 0x34A SWAP2 SWAP1 PUSH2 0x1B6B JUMP JUMPDEST PUSH1 0x40 MLOAD DUP1 SWAP2 SUB SWAP1 RETURN JUMPDEST CALLVALUE DUP1 ISZERO PUSH2 0x35E JUMPI PUSH0 PUSH0 REVERT JUMPDEST POP PUSH2 0x367 PUSH2 0xA91 JUMP JUMPDEST PUSH1 0x40 MLOAD PUSH2 0x374 SWAP2 SWAP1 PUSH2 0x18BD JUMP JUMPDEST PUSH1 0x40 MLOAD DUP1 SWAP2 SUB SWAP1 RETURN JUMPDEST CALLVALUE DUP1 ISZERO PUSH2 0x388 JUMPI PUSH0 PUSH0 REVERT JUMPDEST POP PUSH2 0x391 PUSH2 0xAA3 JUMP JUMPDEST PUSH1 0x40 MLOAD PUSH2 0x39E SWAP2 SWAP1 PUSH2 0x1B6B JUMP JUMPDEST PUSH1 0x40 MLOAD DUP1 SWAP2 SUB SWAP1 RETURN JUMPDEST CALLVALUE DUP1 ISZERO PUSH2 0x3B2 JUMPI PUSH0 PUSH0 REVERT JUMPDEST POP PUSH2 0x3CD PUSH1 0x4 DUP1 CALLDATASIZE SUB DUP2 ADD SWAP1 PUSH2 0x3C8 SWAP2 SWAP1 PUSH2 0x1B8B JUMP JUMPDEST PUSH2 0xB2F JUMP JUMPDEST PUSH1 0x40 MLOAD PUSH2 0x3DA SWAP2 SWAP1 PUSH2 0x18BD JUMP JUMPDEST PUSH1 0x40 MLOAD DUP1 SWAP2 SUB SWAP1 RETURN JUMPDEST CALLVALUE DUP1 ISZERO PUSH2 0x3EE JUMPI PUSH0 PUSH0 REVERT JUMPDEST POP PUSH2 0x3F7 PUSH2 0xB77 JUMP JUMPDEST PUSH1 0x40 MLOAD PUSH2 0x404 SWAP2 SWAP1 PUSH2 0x18EE JUMP JUMPDEST PUSH1 0x40 MLOAD DUP1 SWAP2 SUB SWAP1 RETURN JUMPDEST CALLVALUE DUP1 ISZERO PUSH2 0x418 JUMPI PUSH0 PUSH0 REVERT JUMPDEST POP PUSH2 0x421 PUSH2 0xB7D JUMP JUMPDEST PUSH1 0x40 MLOAD PUSH2 0x42E SWAP2 SWAP1 PUSH2 0x1CC0 JUMP JUMPDEST PUSH1 0x40 MLOAD DUP1 SWAP2 SUB SWAP1 RETURN JUMPDEST CALLVALUE DUP1 ISZERO PUSH2 0x442 JUMPI PUSH0 PUSH0 REVERT JUMPDEST POP PUSH2 0x44B PUSH2 0xC40 JUMP JUMPDEST STOP JUMPDEST CALLVALUE DUP1 ISZERO PUSH2 0x458 JUMPI PUSH0 PUSH0 REVERT JUMPDEST POP PUSH2 0x461 PUSH2 0x1059 JUMP JUMPDEST PUSH1 0x40 MLOAD PUSH2 0x46E SWAP2 SWAP1 PUSH2 0x1AEC JUMP JUMPDEST PUSH1 0x40 MLOAD DUP1 SWAP2 SUB SWAP1 RETURN JUMPDEST CALLVALUE DUP1 ISZERO PUSH2 0x482 JUMPI PUSH0 PUSH0 REVERT JUMPDEST POP PUSH2 0x48B PUSH2 0x107E JUMP JUMPDEST PUSH1 0x40 MLOAD PUSH2 0x498 SWAP2 SWAP1 PUSH2 0x18EE JUMP JUMPDEST PUSH1 0x40 MLOAD DUP1 SWAP2 SUB SWAP1 RETURN JUMPDEST CALLVALUE DUP1 ISZERO PUSH2 0x4AC JUMPI PUSH0 PUSH0 REVERT JUMPDEST POP PUSH2 0x4C7 PUSH1 0x4 DUP1 CALLDATASIZE SUB DUP2 ADD SWAP1 PUSH2 0x4C2 SWAP2 SWAP1 PUSH2 0x1878 JUMP JUMPDEST PUSH2 0x1084 JUMP JUMPDEST PUSH1 0x40 MLOAD PUSH2 0x4D4 SWAP2 SWAP1 PUSH2 0x1AEC JUMP JUMPDEST PUSH1 0x40 MLOAD DUP1 SWAP2 SUB SWAP1 RETURN JUMPDEST CALLVALUE DUP1 ISZERO PUSH2 0x4E8 JUMPI PUSH0 PUSH0 REVERT JUMPDEST POP PUSH2 0x503 PUSH1 0x4 DUP1 CALLDATASIZE SUB DUP2 ADD SWAP1 PUSH2 0x4FE SWAP2 SWAP1 PUSH2 0x1D0A JUMP JUMPDEST PUSH2 0x114B JUMP JUMPDEST PUSH1 0x40 MLOAD PUSH2 0x512 SWAP4 SWAP3 SWAP2 SWAP1 PUSH2 0x1D35 JUMP JUMPDEST PUSH1 0x40 MLOAD DUP1 SWAP2 SUB SWAP1 RETURN JUMPDEST CALLVALUE DUP1 ISZERO PUSH2 0x526 JUMPI PUSH0 PUSH0 REVERT JUMPDEST POP PUSH2 0x52F PUSH2 0x119E JUMP JUMPDEST STOP JUMPDEST CALLVALUE DUP1 ISZERO PUSH2 0x53C JUMPI PUSH0 PUSH0 REVERT JUMPDEST POP PUSH2 0x545 PUSH2 0x12B5 JUMP JUMPDEST PUSH1 0x40 MLOAD PUSH2 0x552 SWAP2 SWAP1 PUSH2 0x1D6A JUMP JUMPDEST PUSH1 0x40 MLOAD DUP1 SWAP2 SUB SWAP1 RETURN JUMPDEST CALLVALUE DUP1 ISZERO PUSH2 0x566 JUMPI PUSH0 PUSH0 REVERT JUMPDEST POP PUSH2 0x581 PUSH1 0x4 DUP1 CALLDATASIZE SUB DUP2 ADD SWAP1 PUSH2 0x57C SWAP2 SWAP1 PUSH2 0x1878 JUMP JUMPDEST PUSH2 0x1340 JUMP JUMPDEST PUSH1 0x40 MLOAD PUSH2 0x58E SWAP2 SWAP1 PUSH2 0x18EE JUMP JUMPDEST PUSH1 0x40 MLOAD DUP1 SWAP2 SUB SWAP1 RETURN JUMPDEST CALLVALUE DUP1 ISZERO PUSH2 0x5A2 JUMPI PUSH0 PUSH0 REVERT JUMPDEST POP PUSH2 0x5AB PUSH2 0x13D3 JUMP JUMPDEST PUSH1 0x40 MLOAD PUSH2 0x5B8 SWAP2 SWAP1 PUSH2 0x18EE JUMP JUMPDEST PUSH1 0x40 MLOAD DUP1 SWAP2 SUB SWAP1 RETURN JUMPDEST PUSH2 0x5C9 PUSH2 0x13D9 JUMP JUMPDEST STOP JUMPDEST CALLVALUE DUP1 ISZERO PUSH2 0x5D6 JUMPI PUSH0 PUSH0 REVERT JUMPDEST POP PUSH2 0x5F1 PUSH1 0x4 DUP1 CALLDATASIZE SUB DUP2 ADD SWAP1 PUSH2 0x5EC SWAP2 SWAP1 PUSH2 0x1D0A JUMP JUMPDEST PUSH2 0x17DF JUMP JUMPDEST PUSH1 0x40 MLOAD PUSH2 0x5FE SWAP2 SWAP1 PUSH2 0x1AEC JUMP JUMPDEST PUSH1 0x40 MLOAD DUP1 SWAP2 SUB SWAP1 RETURN JUMPDEST PUSH1 0x5 PUSH1 0x20 MSTORE DUP1 PUSH0 MSTORE PUSH1 0x40 PUSH0 KECCAK256 PUSH0 SWAP2 POP SLOAD SWAP1 PUSH2 0x100 EXP SWAP1 DIV PUSH1 0xFF AND DUP2 JUMP JUMPDEST PUSH1 0xC PUSH1 0x2 SWAP1 SLOAD SWAP1 PUSH2 0x100 EXP SWAP1 DIV PUSH1 0xFF AND DUP2 JUMP JUMPDEST PUSH1 0x6 PUSH1 0x20 MSTORE DUP1 PUSH0 MSTORE PUSH1 0x40 PUSH0 KECCAK256 PUSH0 SWAP2 POP SWAP1 POP SLOAD DUP2 JUMP JUMPDEST PUSH1 0xB SLOAD DUP2 JUMP JUMPDEST PUSH1 0xC PUSH1 0x1 SWAP1 SLOAD SWAP1 PUSH2 0x100 EXP SWAP1 DIV PUSH1 0xFF AND DUP2 JUMP JUMPDEST PUSH0 PUSH0 PUSH0 PUSH0 PUSH0 PUSH1 0x60 DUP1 PUSH0 PUSH0 PUSH1 0x60 PUSH1 0x2 SLOAD SELFBALANCE PUSH1 0x7 SLOAD PUSH1 0x1 PUSH0 SWAP1 SLOAD SWAP1 PUSH2 0x100 EXP SWAP1 DIV PUSH20 0xFFFFFFFFFFFFFFFFFFFFFFFFFFFFFFFFFFFFFFFF AND PUSH1 0xA SLOAD PUSH1 0x3 PUSH1 0x4 PUSH1 0xB SLOAD PUSH1 0x9 PUSH0 SWAP1 SLOAD SWAP1 PUSH2 0x100 EXP SWAP1 DIV PUSH20 0xFFFFFFFFFFFFFFFFFFFFFFFFFFFFFFFFFFFFFFFF AND PUSH1 0x8 DUP5 DUP1 SLOAD PUSH2 0x6D4 SWAP1 PUSH2 0x1DB7 JUMP JUMPDEST DUP1 PUSH1 0x1F ADD PUSH1 0x20 DUP1 SWAP2 DIV MUL PUSH1 0x20 ADD PUSH1 0x40 MLOAD SWAP1 DUP2 ADD PUSH1 0x40 MSTORE DUP1 SWAP3 SWAP2 SWAP1 DUP2 DUP2 MSTORE PUSH1 0x20 ADD DUP3 DUP1 SLOAD PUSH2 0x700 SWAP1 PUSH2 0x1DB7 JUMP JUMPDEST DUP1 ISZERO PUSH2 0x74B JUMPI DUP1 PUSH1 0x1F LT PUSH2 0x722 JUMPI PUSH2 0x100 DUP1 DUP4 SLOAD DIV MUL DUP4 MSTORE SWAP2 PUSH1 0x20 ADD SWAP2 PUSH2 0x74B JUMP JUMPDEST DUP3 ADD SWAP2 SWAP1 PUSH0 MSTORE PUSH1 0x20 PUSH0 KECCAK256 SWAP1 JUMPDEST DUP2 SLOAD DUP2 MSTORE SWAP1 PUSH1 0x1 ADD SWAP1 PUSH1 0x20 ADD DUP1 DUP4 GT PUSH2 0x72E JUMPI DUP3 SWAP1 SUB PUSH1 0x1F AND DUP3 ADD SWAP2 JUMPDEST POP POP POP POP POP SWAP5 POP DUP4 DUP1 SLOAD PUSH2 0x75E SWAP1 PUSH2 0x1DB7 JUMP JUMPDEST DUP1 PUSH1 0x1F ADD PUSH1 0x20 DUP1 SWAP2 DIV MUL PUSH1 0x20 ADD PUSH1 0x40 MLOAD SWAP1 DUP2 ADD PUSH1 0x40 MSTORE DUP1 SWAP3 SWAP2 SWAP1 DUP2 DUP2 MSTORE PUSH1 0x20 ADD DUP3 DUP1 SLOAD PUSH2 0x78A SWAP1 PUSH2 0x1DB7 JUMP JUMPDEST DUP1 ISZERO PUSH2 0x7D5 JUMPI DUP1 PUSH1 0x1F LT PUSH2 0x7AC JUMPI PUSH2 0x100 DUP1 DUP4 SLOAD DIV MUL DUP4 MSTORE SWAP2 PUSH1 0x20 ADD SWAP2 PUSH2 0x7D5 JUMP JUMPDEST DUP3 ADD SWAP2 SWAP1 PUSH0 MSTORE PUSH1 0x20 PUSH0 KECCAK256 SWAP1 JUMPDEST DUP2 SLOAD DUP2 MSTORE SWAP1 PUSH1 0x1 ADD SWAP1 PUSH1 0x20 ADD DUP1 DUP4 GT PUSH2 0x7B8 JUMPI DUP3 SWAP1 SUB PUSH1 0x1F AND DUP3 ADD SWAP2 JUMPDEST POP POP POP POP POP SWAP4 POP DUP1 DUP1 SLOAD DUP1 PUSH1 0x20 MUL PUSH1 0x20 ADD PUSH1 0x40 MLOAD SWAP1 DUP2 ADD PUSH1 0x40 MSTORE DUP1 SWAP3 SWAP2 SWAP1 DUP2 DUP2 MSTORE PUSH1 0x20 ADD DUP3 DUP1 SLOAD DUP1 ISZERO PUSH2 0x85A JUMPI PUSH1 0x20 MUL DUP3 ADD SWAP2 SWAP1 PUSH0 MSTORE PUSH1 0x20 PUSH0 KECCAK256 SWAP1 JUMPDEST DUP2 PUSH0 SWAP1 SLOAD SWAP1 PUSH2 0x100 EXP SWAP1 DIV PUSH20 0xFFFFFFFFFFFFFFFFFFFFFFFFFFFFFFFFFFFFFFFF AND PUSH20 0xFFFFFFFFFFFFFFFFFFFFFFFFFFFFFFFFFFFFFFFF AND DUP2 MSTORE PUSH1 0x20 ADD SWAP1 PUSH1 0x1 ADD SWAP1 DUP1 DUP4 GT PUSH2 0x811 JUMPI JUMPDEST POP POP POP POP POP SWAP1 POP SWAP10 POP SWAP10 POP SWAP10 POP SWAP10 POP SWAP10 POP SWAP10 POP SWAP10 POP SWAP10 POP SWAP10 POP SWAP10 POP SWAP1 SWAP2 SWAP3 SWAP4 SWAP5 SWAP6 SWAP7 SWAP8 SWAP9 SWAP10 JUMP JUMPDEST PUSH1 0x1 PUSH0 SWAP1 SLOAD SWAP1 PUSH2 0x100 EXP SWAP1 DIV PUSH20 0xFFFFFFFFFFFFFFFFFFFFFFFFFFFFFFFFFFFFFFFF AND DUP2 JUMP JUMPDEST PUSH0 PUSH1 0xC PUSH0 SWAP1 SLOAD SWAP1 PUSH2 0x100 EXP SWAP1 DIV PUSH1 0xFF AND SWAP1 POP SWAP1 JUMP JUMPDEST PUSH0 PUSH1 0x6 PUSH0 DUP4 PUSH20 0xFFFFFFFFFFFFFFFFFFFFFFFFFFFFFFFFFFFFFFFF AND PUSH20 0xFFFFFFFFFFFFFFFFFFFFFFFFFFFFFFFFFFFFFFFF AND DUP2 MSTORE PUSH1 0x20 ADD SWAP1 DUP2 MSTORE PUSH1 0x20 ADD PUSH0 KECCAK256 SLOAD GT PUSH2 0x93A JUMPI PUSH1 0x40 MLOAD PUSH32 0x8C379A000000000000000000000000000000000000000000000000000000000 DUP2 MSTORE PUSH1 0x4 ADD PUSH2 0x931 SWAP1 PUSH2 0x1E31 JUMP JUMPDEST PUSH1 0x40 MLOAD DUP1 SWAP2 SUB SWAP1 REVERT JUMPDEST PUSH0 PUSH1 0x6 PUSH0 DUP4 PUSH20 0xFFFFFFFFFFFFFFFFFFFFFFFFFFFFFFFFFFFFFFFF AND PUSH20 0xFFFFFFFFFFFFFFFFFFFFFFFFFFFFFFFFFFFFFFFF AND DUP2 MSTORE PUSH1 0x20 ADD SWAP1 DUP2 MSTORE PUSH1 0x20 ADD PUSH0 KECCAK256 SLOAD SWAP1 POP PUSH0 PUSH1 0x6 PUSH0 DUP5 PUSH20 0xFFFFFFFFFFFFFFFFFFFFFFFFFFFFFFFFFFFFFFFF AND PUSH20 0xFFFFFFFFFFFFFFFFFFFFFFFFFFFFFFFFFFFFFFFF AND DUP2 MSTORE PUSH1 0x20 ADD SWAP1 DUP2 MSTORE PUSH1 0x20 ADD PUSH0 KECCAK256 DUP2 SWAP1 SSTORE POP DUP2 PUSH20 0xFFFFFFFFFFFFFFFFFFFFFFFFFFFFFFFFFFFFFFFF AND PUSH2 0x8FC DUP3 SWAP1 DUP2 ISZERO MUL SWAP1 PUSH1 0x40 MLOAD PUSH0 PUSH1 0x40 MLOAD DUP1 DUP4 SUB DUP2 DUP6 DUP9 DUP9 CALL SWAP4 POP POP POP POP ISZERO DUP1 ISZERO PUSH2 0xA00 JUMPI RETURNDATASIZE PUSH0 PUSH0 RETURNDATACOPY RETURNDATASIZE PUSH0 REVERT JUMPDEST POP POP POP JUMP JUMPDEST PUSH1 0x4 DUP1 SLOAD PUSH2 0xA12 SWAP1 PUSH2 0x1DB7 JUMP JUMPDEST DUP1 PUSH1 0x1F ADD PUSH1 0x20 DUP1 SWAP2 DIV MUL PUSH1 0x20 ADD PUSH1 0x40 MLOAD SWAP1 DUP2 ADD PUSH1 0x40 MSTORE DUP1 SWAP3 SWAP2 SWAP1 DUP2 DUP2 MSTORE PUSH1 0x20 ADD DUP3 DUP1 SLOAD PUSH2 0xA3E SWAP1 PUSH2 0x1DB7 JUMP JUMPDEST DUP1 ISZERO PUSH2 0xA89 JUMPI DUP1 PUSH1 0x1F LT PUSH2 0xA60 JUMPI PUSH2 0x100 DUP1 DUP4 SLOAD DIV MUL DUP4 MSTORE SWAP2 PUSH1 0x20 ADD SWAP2 PUSH2 0xA89 JUMP JUMPDEST DUP3 ADD SWAP2 SWAP1 PUSH0 MSTORE PUSH1 0x20 PUSH0 KECCAK256 SWAP1 JUMPDEST DUP2 SLOAD DUP2 MSTORE SWAP1 PUSH1 0x1 ADD SWAP1 PUSH1 0x20 ADD DUP1 DUP4 GT PUSH2 0xA6C JUMPI DUP3 SWAP1 SUB PUSH1 0x1F AND DUP3 ADD SWAP2 JUMPDEST POP POP POP POP POP DUP2 JUMP JUMPDEST PUSH1 0xC PUSH0 SWAP1 SLOAD SWAP1 PUSH2 0x100 EXP SWAP1 DIV PUSH1 0xFF AND DUP2 JUMP JUMPDEST PUSH1 0x3 DUP1 SLOAD PUSH2 0xAB0 SWAP1 PUSH2 0x1DB7 JUMP JUMPDEST DUP1 PUSH1 0x1F ADD PUSH1 0x20 DUP1 SWAP2 DIV MUL PUSH1 0x20 ADD PUSH1 0x40 MLOAD SWAP1 DUP2 ADD PUSH1 0x40 MSTORE DUP1 SWAP3 SWAP2 SWAP1 DUP2 DUP2 MSTORE PUSH1 0x20 ADD DUP3 DUP1 SLOAD PUSH2 0xADC SWAP1 PUSH2 0x1DB7 JUMP JUMPDEST DUP1 ISZERO PUSH2 0xB27 JUMPI DUP1 PUSH1 0x1F LT PUSH2 0xAFE JUMPI PUSH2 0x100 DUP1 DUP4 SLOAD DIV MUL DUP4 MSTORE SWAP2 PUSH1 0x20 ADD SWAP2 PUSH2 0xB27 JUMP JUMPDEST DUP3 ADD SWAP2 SWAP1 PUSH0 MSTORE PUSH1 0x20 PUSH0 KECCAK256 SWAP1 JUMPDEST DUP2 SLOAD DUP2 MSTORE SWAP1 PUSH1 0x1 ADD SWAP1 PUSH1 0x20 ADD DUP1 DUP4 GT PUSH2 0xB0A JUMPI DUP3 SWAP1 SUB PUSH1 0x1F AND DUP3 ADD SWAP2 JUMPDEST POP POP POP POP POP DUP2 JUMP JUMPDEST PUSH0 PUSH2 0xB39 DUP3 PUSH2 0x1084 JUMP JUMPDEST PUSH20 0xFFFFFFFFFFFFFFFFFFFFFFFFFFFFFFFFFFFFFFFF AND PUSH2 0xB58 DUP5 PUSH2 0x1084 JUMP JUMPDEST PUSH20 0xFFFFFFFFFFFFFFFFFFFFFFFFFFFFFFFFFFFFFFFF AND EQ SWAP1 POP SWAP3 SWAP2 POP POP JUMP JUMPDEST PUSH1 0x7 SLOAD DUP2 JUMP JUMPDEST PUSH1 0x60 PUSH0 DUP1 SLOAD DUP1 PUSH1 0x20 MUL PUSH1 0x20 ADD PUSH1 0x40 MLOAD SWAP1 DUP2 ADD PUSH1 0x40 MSTORE DUP1 SWAP3 SWAP2 SWAP1 DUP2 DUP2 MSTORE PUSH1 0x20 ADD PUSH0 SWAP1 JUMPDEST DUP3 DUP3 LT ISZERO PUSH2 0xC37 JUMPI DUP4 DUP3 SWAP1 PUSH0 MSTORE PUSH1 0x20 PUSH0 KECCAK256 SWAP1 PUSH1 0x3 MUL ADD PUSH1 0x40 MLOAD DUP1 PUSH1 0x60 ADD PUSH1 0x40 MSTORE SWAP1 DUP2 PUSH0 DUP3 ADD SLOAD DUP2 MSTORE PUSH1 0x20 ADD PUSH1 0x1 DUP3 ADD SLOAD DUP2 MSTORE PUSH1 0x20 ADD PUSH1 0x2 DUP3 ADD PUSH0 SWAP1 SLOAD SWAP1 PUSH2 0x100 EXP SWAP1 DIV PUSH20 0xFFFFFFFFFFFFFFFFFFFFFFFFFFFFFFFFFFFFFFFF AND PUSH20 0xFFFFFFFFFFFFFFFFFFFFFFFFFFFFFFFFFFFFFFFF AND PUSH20 0xFFFFFFFFFFFFFFFFFFFFFFFFFFFFFFFFFFFFFFFF AND DUP2 MSTORE POP POP DUP2 MSTORE PUSH1 0x20 ADD SWAP1 PUSH1 0x1 ADD SWAP1 PUSH2 0xB9F JUMP JUMPDEST POP POP POP POP SWAP1 POP SWAP1 JUMP JUMPDEST TIMESTAMP PUSH1 0xB SLOAD LT PUSH2 0xC84 JUMPI PUSH1 0x40 MLOAD PUSH32 0x8C379A000000000000000000000000000000000000000000000000000000000 DUP2 MSTORE PUSH1 0x4 ADD PUSH2 0xC7B SWAP1 PUSH2 0x1E99 JUMP JUMPDEST PUSH1 0x40 MLOAD DUP1 SWAP2 SUB SWAP1 REVERT JUMPDEST PUSH1 0xC PUSH1 0x1 SWAP1 SLOAD SWAP1 PUSH2 0x100 EXP SWAP1 DIV PUSH1 0xFF AND ISZERO DUP1 PUSH2 0xCAD JUMPI POP PUSH1 0xC PUSH1 0x2 SWAP1 SLOAD SWAP1 PUSH2 0x100 EXP SWAP1 DIV PUSH1 0xFF AND ISZERO JUMPDEST PUSH2 0xCEC JUMPI PUSH1 0x40 MLOAD PUSH32 0x8C379A000000000000000000000000000000000000000000000000000000000 DUP2 MSTORE PUSH1 0x4 ADD PUSH2 0xCE3 SWAP1 PUSH2 0x1F01 JUMP JUMPDEST PUSH1 0x40 MLOAD DUP1 SWAP2 SUB SWAP1 REVERT JUMPDEST PUSH1 0xC PUSH1 0x1 SWAP1 SLOAD SWAP1 PUSH2 0x100 EXP SWAP1 DIV PUSH1 0xFF AND PUSH2 0xEF0 JUMPI PUSH0 PUSH0 SWAP1 POP JUMPDEST PUSH1 0x8 DUP1 SLOAD SWAP1 POP DUP2 LT ISZERO PUSH2 0xED3 JUMPI PUSH0 PUSH1 0x8 DUP3 DUP2 SLOAD DUP2 LT PUSH2 0xD27 JUMPI PUSH2 0xD26 PUSH2 0x1F1F JUMP JUMPDEST JUMPDEST SWAP1 PUSH0 MSTORE PUSH1 0x20 PUSH0 KECCAK256 ADD PUSH0 SWAP1 SLOAD SWAP1 PUSH2 0x100 EXP SWAP1 DIV PUSH20 0xFFFFFFFFFFFFFFFFFFFFFFFFFFFFFFFFFFFFFFFF AND SWAP1 POP PUSH1 0x9 PUSH0 SWAP1 SLOAD SWAP1 PUSH2 0x100 EXP SWAP1 DIV PUSH20 0xFFFFFFFFFFFFFFFFFFFFFFFFFFFFFFFFFFFFFFFF AND PUSH20 0xFFFFFFFFFFFFFFFFFFFFFFFFFFFFFFFFFFFFFFFF AND DUP2 PUSH20 0xFFFFFFFFFFFFFFFFFFFFFFFFFFFFFFFFFFFFFFFF AND EQ PUSH2 0xEC5 JUMPI PUSH0 PUSH1 0x6 PUSH0 DUP4 PUSH20 0xFFFFFFFFFFFFFFFFFFFFFFFFFFFFFFFFFFFFFFFF AND PUSH20 0xFFFFFFFFFFFFFFFFFFFFFFFFFFFFFFFFFFFFFFFF AND DUP2 MSTORE PUSH1 0x20 ADD SWAP1 DUP2 MSTORE PUSH1 0x20 ADD PUSH0 KECCAK256 SLOAD SWAP1 POP PUSH0 DUP2 GT ISZERO PUSH2 0xEC3 JUMPI PUSH0 PUSH1 0x6 PUSH0 DUP5 PUSH20 0xFFFFFFFFFFFFFFFFFFFFFFFFFFFFFFFFFFFFFFFF AND PUSH20 0xFFFFFFFFFFFFFFFFFFFFFFFFFFFFFFFFFFFFFFFF AND DUP2 MSTORE PUSH1 0x20 ADD SWAP1 DUP2 MSTORE PUSH1 0x20 ADD PUSH0 KECCAK256 DUP2 SWAP1 SSTORE POP DUP2 PUSH20 0xFFFFFFFFFFFFFFFFFFFFFFFFFFFFFFFFFFFFFFFF AND PUSH2 0x8FC DUP3 SWAP1 DUP2 ISZERO MUL SWAP1 PUSH1 0x40 MLOAD PUSH0 PUSH1 0x40 MLOAD DUP1 DUP4 SUB DUP2 DUP6 DUP9 DUP9 CALL SWAP4 POP POP POP POP ISZERO DUP1 ISZERO PUSH2 0xE73 JUMPI RETURNDATASIZE PUSH0 PUSH0 RETURNDATACOPY RETURNDATASIZE PUSH0 REVERT JUMPDEST POP DUP2 PUSH20 0xFFFFFFFFFFFFFFFFFFFFFFFFFFFFFFFFFFFFFFFF AND PUSH32 0x3367BEFD2B2F39615CD79917C2153263C4AF1D3945EC003E5D5BFC13A8D85833 DUP3 PUSH1 0x40 MLOAD PUSH2 0xEBA SWAP2 SWAP1 PUSH2 0x18EE JUMP JUMPDEST PUSH1 0x40 MLOAD DUP1 SWAP2 SUB SWAP1 LOG2 JUMPDEST POP JUMPDEST POP DUP1 DUP1 PUSH1 0x1 ADD SWAP2 POP POP PUSH2 0xD05 JUMP JUMPDEST POP PUSH1 0x1 PUSH1 0xC PUSH1 0x1 PUSH2 0x100 EXP DUP2 SLOAD DUP2 PUSH1 0xFF MUL NOT AND SWAP1 DUP4 ISZERO ISZERO MUL OR SWAP1 SSTORE POP JUMPDEST PUSH1 0xC PUSH1 0x2 SWAP1 SLOAD SWAP1 PUSH2 0x100 EXP SWAP1 DIV PUSH1 0xFF AND PUSH2 0x1057 JUMPI PUSH1 0xA SLOAD SELFBALANCE LT ISZERO PUSH2 0xF49 JUMPI PUSH1 0x40 MLOAD PUSH32 0x8C379A000000000000000000000000000000000000000000000000000000000 DUP2 MSTORE PUSH1 0x4 ADD PUSH2 0xF40 SWAP1 PUSH2 0x1F96 JUMP JUMPDEST PUSH1 0x40 MLOAD DUP1 SWAP2 SUB SWAP1 REVERT JUMPDEST PUSH1 0x1 PUSH0 SWAP1 SLOAD SWAP1 PUSH2 0x100 EXP SWAP1 DIV PUSH20 0xFFFFFFFFFFFFFFFFFFFFFFFFFFFFFFFFFFFFFFFF AND PUSH20 0xFFFFFFFFFFFFFFFFFFFFFFFFFFFFFFFFFFFFFFFF AND PUSH2 0x8FC PUSH1 0xA SLOAD SWAP1 DUP2 ISZERO MUL SWAP1 PUSH1 0x40 MLOAD PUSH0 PUSH1 0x40 MLOAD DUP1 DUP4 SUB DUP2 DUP6 DUP9 DUP9 CALL SWAP4 POP POP POP POP ISZERO DUP1 ISZERO PUSH2 0xFAF JUMPI RETURNDATASIZE PUSH0 PUSH0 RETURNDATACOPY RETURNDATASIZE PUSH0 REVERT JUMPDEST POP PUSH1 0x1 PUSH1 0xC PUSH1 0x2 PUSH2 0x100 EXP DUP2 SLOAD DUP2 PUSH1 0xFF MUL NOT AND SWAP1 DUP4 ISZERO ISZERO MUL OR SWAP1 SSTORE POP PUSH1 0x1 PUSH1 0xC PUSH0 PUSH2 0x100 EXP DUP2 SLOAD DUP2 PUSH1 0xFF MUL NOT AND SWAP1 DUP4 ISZERO ISZERO MUL OR SWAP1 SSTORE POP PUSH1 0x1 PUSH0 SWAP1 SLOAD SWAP1 PUSH2 0x100 EXP SWAP1 DIV PUSH20 0xFFFFFFFFFFFFFFFFFFFFFFFFFFFFFFFFFFFFFFFF AND PUSH20 0xFFFFFFFFFFFFFFFFFFFFFFFFFFFFFFFFFFFFFFFF AND PUSH32 0xCB4A9094DA4DF77FB2C0DBAA5047660B1237E61D82A02176C1BE74CA757F2531 PUSH1 0xA SLOAD PUSH1 0x40 MLOAD PUSH2 0x104E SWAP2 SWAP1 PUSH2 0x18EE JUMP JUMPDEST PUSH1 0x40 MLOAD DUP1 SWAP2 SUB SWAP1 LOG2 JUMPDEST JUMP JUMPDEST PUSH1 0x9 PUSH0 SWAP1 SLOAD SWAP1 PUSH2 0x100 EXP SWAP1 DIV PUSH20 0xFFFFFFFFFFFFFFFFFFFFFFFFFFFFFFFFFFFFFFFF AND DUP2 JUMP JUMPDEST PUSH1 0x2 SLOAD DUP2 JUMP JUMPDEST PUSH0 PUSH0 DUP3 SWAP1 POP PUSH0 PUSH0 SWAP1 POP JUMPDEST PUSH1 0x14 DUP2 LT ISZERO PUSH2 0x1141 JUMPI PUSH0 DUP5 PUSH1 0x60 SHL DUP3 PUSH1 0x14 DUP2 LT PUSH2 0x10AE JUMPI PUSH2 0x10AD PUSH2 0x1F1F JUMP JUMPDEST JUMPDEST BYTE PUSH1 0xF8 SHL PUSH1 0xF8 SHR SWAP1 POP PUSH1 0x41 DUP2 PUSH1 0xFF AND LT ISZERO DUP1 ISZERO PUSH2 0x10CF JUMPI POP PUSH1 0x5A DUP2 PUSH1 0xFF AND GT ISZERO JUMPDEST ISZERO PUSH2 0x10E4 JUMPI PUSH1 0x20 DUP2 PUSH2 0x10E1 SWAP2 SWAP1 PUSH2 0x1FED JUMP JUMPDEST SWAP1 POP JUMPDEST DUP2 PUSH1 0x13 PUSH2 0x10F1 SWAP2 SWAP1 PUSH2 0x2021 JUMP JUMPDEST PUSH1 0x8 PUSH2 0x10FD SWAP2 SWAP1 PUSH2 0x2054 JUMP JUMPDEST PUSH20 0xFFFFFFFFFFFFFFFFFFFFFFFFFFFFFFFFFFFFFFFF AND DUP2 PUSH1 0xFF AND PUSH20 0xFFFFFFFFFFFFFFFFFFFFFFFFFFFFFFFFFFFFFFFF AND SWAP1 SHL DUP4 OR SWAP3 POP POP DUP1 DUP1 PUSH1 0x1 ADD SWAP2 POP POP PUSH2 0x108E JUMP JUMPDEST POP DUP1 SWAP2 POP POP SWAP2 SWAP1 POP JUMP JUMPDEST PUSH0 DUP2 DUP2 SLOAD DUP2 LT PUSH2 0x1159 JUMPI PUSH0 DUP1 REVERT JUMPDEST SWAP1 PUSH0 MSTORE PUSH1 0x20 PUSH0 KECCAK256 SWAP1 PUSH1 0x3 MUL ADD PUSH0 SWAP2 POP SWAP1 POP DUP1 PUSH0 ADD SLOAD SWAP1 DUP1 PUSH1 0x1 ADD SLOAD SWAP1 DUP1 PUSH1 0x2 ADD PUSH0 SWAP1 SLOAD SWAP1 PUSH2 0x100 EXP SWAP1 DIV PUSH20 0xFFFFFFFFFFFFFFFFFFFFFFFFFFFFFFFFFFFFFFFF AND SWAP1 POP DUP4 JUMP JUMPDEST PUSH1 0xC PUSH0 SWAP1 SLOAD SWAP1 PUSH2 0x100 EXP SWAP1 DIV PUSH1 0xFF AND ISZERO PUSH2 0x11ED JUMPI PUSH1 0x40 MLOAD PUSH32 0x8C379A000000000000000000000000000000000000000000000000000000000 DUP2 MSTORE PUSH1 0x4 ADD PUSH2 0x11E4 SWAP1 PUSH2 0x20DF JUMP JUMPDEST PUSH1 0x40 MLOAD DUP1 SWAP2 SUB SWAP1 REVERT JUMPDEST PUSH1 0xA SLOAD SELFBALANCE LT ISZERO PUSH2 0x1232 JUMPI PUSH1 0x40 MLOAD PUSH32 0x8C379A000000000000000000000000000000000000000000000000000000000 DUP2 MSTORE PUSH1 0x4 ADD PUSH2 0x1229 SWAP1 PUSH2 0x1F96 JUMP JUMPDEST PUSH1 0x40 MLOAD DUP1 SWAP2 SUB SWAP1 REVERT JUMPDEST PUSH1 0x1 PUSH0 SWAP1 SLOAD SWAP1 PUSH2 0x100 EXP SWAP1 DIV PUSH20 0xFFFFFFFFFFFFFFFFFFFFFFFFFFFFFFFFFFFFFFFF AND PUSH20 0xFFFFFFFFFFFFFFFFFFFFFFFFFFFFFFFFFFFFFFFF AND PUSH2 0x8FC PUSH1 0xA SLOAD SWAP1 DUP2 ISZERO MUL SWAP1 PUSH1 0x40 MLOAD PUSH0 PUSH1 0x40 MLOAD DUP1 DUP4 SUB DUP2 DUP6 DUP9 DUP9 CALL SWAP4 POP POP POP POP ISZERO DUP1 ISZERO PUSH2 0x1298 JUMPI RETURNDATASIZE PUSH0 PUSH0 RETURNDATACOPY RETURNDATASIZE PUSH0 REVERT JUMPDEST POP PUSH1 0x1 PUSH1 0xC PUSH0 PUSH2 0x100 EXP DUP2 SLOAD DUP2 PUSH1 0xFF MUL NOT AND SWAP1 DUP4 ISZERO ISZERO MUL OR SWAP1 SSTORE POP JUMP JUMPDEST PUSH1 0x60 PUSH1 0x8 DUP1 SLOAD DUP1 PUSH1 0x20 MUL PUSH1 0x20 ADD PUSH1 0x40 MLOAD SWAP1 DUP2 ADD PUSH1 0x40 MSTORE DUP1 SWAP3 SWAP2 SWAP1 DUP2 DUP2 MSTORE PUSH1 0x20 ADD DUP3 DUP1 SLOAD DUP1 ISZERO PUSH2 0x1336 JUMPI PUSH1 0x20 MUL DUP3 ADD SWAP2 SWAP1 PUSH0 MSTORE PUSH1 0x20 PUSH0 KECCAK256 SWAP1 JUMPDEST DUP2 PUSH0 SWAP1 SLOAD SWAP1 PUSH2 0x100 EXP SWAP1 DIV PUSH20 0xFFFFFFFFFFFFFFFFFFFFFFFFFFFFFFFFFFFFFFFF AND PUSH20 0xFFFFFFFFFFFFFFFFFFFFFFFFFFFFFFFFFFFFFFFF AND DUP2 MSTORE PUSH1 0x20 ADD SWAP1 PUSH1 0x1 ADD SWAP1 DUP1 DUP4 GT PUSH2 0x12ED JUMPI JUMPDEST POP POP POP POP POP SWAP1 POP SWAP1 JUMP JUMPDEST PUSH0 PUSH0 PUSH0 SWAP1 POP PUSH0 PUSH1 0x6 PUSH0 DUP6 PUSH20 0xFFFFFFFFFFFFFFFFFFFFFFFFFFFFFFFFFFFFFFFF AND PUSH20 0xFFFFFFFFFFFFFFFFFFFFFFFFFFFFFFFFFFFFFFFF AND DUP2 MSTORE PUSH1 0x20 ADD SWAP1 DUP2 MSTORE PUSH1 0x20 ADD PUSH0 KECCAK256 SLOAD EQ PUSH2 0x13CA JUMPI PUSH1 0x6 PUSH0 DUP5 PUSH20 0xFFFFFFFFFFFFFFFFFFFFFFFFFFFFFFFFFFFFFFFF AND PUSH20 0xFFFFFFFFFFFFFFFFFFFFFFFFFFFFFFFFFFFFFFFF AND DUP2 MSTORE PUSH1 0x20 ADD SWAP1 DUP2 MSTORE PUSH1 0x20 ADD PUSH0 KECCAK256 SLOAD SWAP1 POP JUMPDEST DUP1 SWAP2 POP POP SWAP2 SWAP1 POP JUMP JUMPDEST PUSH1 0xA SLOAD DUP2 JUMP JUMPDEST PUSH1 0x1 PUSH0 SWAP1 SLOAD SWAP1 PUSH2 0x100 EXP SWAP1 DIV PUSH20 0xFFFFFFFFFFFFFFFFFFFFFFFFFFFFFFFFFFFFFFFF AND PUSH20 0xFFFFFFFFFFFFFFFFFFFFFFFFFFFFFFFFFFFFFFFF AND CALLER PUSH20 0xFFFFFFFFFFFFFFFFFFFFFFFFFFFFFFFFFFFFFFFF AND SUB PUSH2 0x1468 JUMPI PUSH1 0x40 MLOAD PUSH32 0x8C379A000000000000000000000000000000000000000000000000000000000 DUP2 MSTORE PUSH1 0x4 ADD PUSH2 0x145F SWAP1 PUSH2 0x2147 JUMP JUMPDEST PUSH1 0x40 MLOAD DUP1 SWAP2 SUB SWAP1 REVERT JUMPDEST TIMESTAMP PUSH1 0xB SLOAD GT PUSH2 0x14AC JUMPI PUSH1 0x40 MLOAD PUSH32 0x8C379A000000000000000000000000000000000000000000000000000000000 DUP2 MSTORE PUSH1 0x4 ADD PUSH2 0x14A3 SWAP1 PUSH2 0x21D5 JUMP JUMPDEST PUSH1 0x40 MLOAD DUP1 SWAP2 SUB SWAP1 REVERT JUMPDEST PUSH0 PUSH1 0x6 PUSH0 CALLER PUSH20 0xFFFFFFFFFFFFFFFFFFFFFFFFFFFFFFFFFFFFFFFF AND PUSH20 0xFFFFFFFFFFFFFFFFFFFFFFFFFFFFFFFFFFFFFFFF AND DUP2 MSTORE PUSH1 0x20 ADD SWAP1 DUP2 MSTORE PUSH1 0x20 ADD PUSH0 KECCAK256 SLOAD SWAP1 POP PUSH0 CALLVALUE DUP3 PUSH2 0x14FA SWAP2 SWAP1 PUSH2 0x21F3 JUMP JUMPDEST SWAP1 POP PUSH1 0x2 SLOAD DUP2 LT ISZERO PUSH2 0x1541 JUMPI PUSH1 0x40 MLOAD PUSH32 0x8C379A000000000000000000000000000000000000000000000000000000000 DUP2 MSTORE PUSH1 0x4 ADD PUSH2 0x1538 SWAP1 PUSH2 0x2270 JUMP JUMPDEST PUSH1 0x40 MLOAD DUP1 SWAP2 SUB SWAP1 REVERT JUMPDEST PUSH1 0xA SLOAD DUP2 GT PUSH2 0x1585 JUMPI PUSH1 0x40 MLOAD PUSH32 0x8C379A000000000000000000000000000000000000000000000000000000000 DUP2 MSTORE PUSH1 0x4 ADD PUSH2 0x157C SWAP1 PUSH2 0x22FE JUMP JUMPDEST PUSH1 0x40 MLOAD DUP1 SWAP2 SUB SWAP1 REVERT JUMPDEST CALLER PUSH1 0x9 PUSH0 PUSH2 0x100 EXP DUP2 SLOAD DUP2 PUSH20 0xFFFFFFFFFFFFFFFFFFFFFFFFFFFFFFFFFFFFFFFF MUL NOT AND SWAP1 DUP4 PUSH20 0xFFFFFFFFFFFFFFFFFFFFFFFFFFFFFFFFFFFFFFFF AND MUL OR SWAP1 SSTORE POP DUP1 PUSH1 0xA DUP2 SWAP1 SSTORE POP DUP1 PUSH1 0x6 PUSH0 CALLER PUSH20 0xFFFFFFFFFFFFFFFFFFFFFFFFFFFFFFFFFFFFFFFF AND PUSH20 0xFFFFFFFFFFFFFFFFFFFFFFFFFFFFFFFFFFFFFFFF AND DUP2 MSTORE PUSH1 0x20 ADD SWAP1 DUP2 MSTORE PUSH1 0x20 ADD PUSH0 KECCAK256 DUP2 SWAP1 SSTORE POP PUSH0 PUSH1 0x40 MLOAD DUP1 PUSH1 0x60 ADD PUSH1 0x40 MSTORE DUP1 CALLVALUE DUP2 MSTORE PUSH1 0x20 ADD TIMESTAMP DUP2 MSTORE PUSH1 0x20 ADD CALLER PUSH20 0xFFFFFFFFFFFFFFFFFFFFFFFFFFFFFFFFFFFFFFFF AND DUP2 MSTORE POP SWAP1 DUP1 PUSH1 0x1 DUP2 SLOAD ADD DUP1 DUP3 SSTORE DUP1 SWAP2 POP POP PUSH1 0x1 SWAP1 SUB SWAP1 PUSH0 MSTORE PUSH1 0x20 PUSH0 KECCAK256 SWAP1 PUSH1 0x3 MUL ADD PUSH0 SWAP1 SWAP2 SWAP1 SWAP2 SWAP1 SWAP2 POP PUSH0 DUP3 ADD MLOAD DUP2 PUSH0 ADD SSTORE PUSH1 0x20 DUP3 ADD MLOAD DUP2 PUSH1 0x1 ADD SSTORE PUSH1 0x40 DUP3 ADD MLOAD DUP2 PUSH1 0x2 ADD PUSH0 PUSH2 0x100 EXP DUP2 SLOAD DUP2 PUSH20 0xFFFFFFFFFFFFFFFFFFFFFFFFFFFFFFFFFFFFFFFF MUL NOT AND SWAP1 DUP4 PUSH20 0xFFFFFFFFFFFFFFFFFFFFFFFFFFFFFFFFFFFFFFFF AND MUL OR SWAP1 SSTORE POP POP POP PUSH1 0x5 PUSH0 CALLER PUSH20 0xFFFFFFFFFFFFFFFFFFFFFFFFFFFFFFFFFFFFFFFF AND PUSH20 0xFFFFFFFFFFFFFFFFFFFFFFFFFFFFFFFFFFFFFFFF AND DUP2 MSTORE PUSH1 0x20 ADD SWAP1 DUP2 MSTORE PUSH1 0x20 ADD PUSH0 KECCAK256 PUSH0 SWAP1 SLOAD SWAP1 PUSH2 0x100 EXP SWAP1 DIV PUSH1 0xFF AND PUSH2 0x17DB JUMPI PUSH1 0x1 PUSH1 0x5 PUSH0 CALLER PUSH20 0xFFFFFFFFFFFFFFFFFFFFFFFFFFFFFFFFFFFFFFFF AND PUSH20 0xFFFFFFFFFFFFFFFFFFFFFFFFFFFFFFFFFFFFFFFF AND DUP2 MSTORE PUSH1 0x20 ADD SWAP1 DUP2 MSTORE PUSH1 0x20 ADD PUSH0 KECCAK256 PUSH0 PUSH2 0x100 EXP DUP2 SLOAD DUP2 PUSH1 0xFF MUL NOT AND SWAP1 DUP4 ISZERO ISZERO MUL OR SWAP1 SSTORE POP PUSH1 0x7 PUSH0 DUP2 SLOAD DUP1 SWAP3 SWAP2 SWAP1 PUSH2 0x1775 SWAP1 PUSH2 0x231C JUMP JUMPDEST SWAP2 SWAP1 POP SSTORE POP PUSH1 0x8 CALLER SWAP1 DUP1 PUSH1 0x1 DUP2 SLOAD ADD DUP1 DUP3 SSTORE DUP1 SWAP2 POP POP PUSH1 0x1 SWAP1 SUB SWAP1 PUSH0 MSTORE PUSH1 0x20 PUSH0 KECCAK256 ADD PUSH0 SWAP1 SWAP2 SWAP1 SWAP2 SWAP1 SWAP2 PUSH2 0x100 EXP DUP2 SLOAD DUP2 PUSH20 0xFFFFFFFFFFFFFFFFFFFFFFFFFFFFFFFFFFFFFFFF MUL NOT AND SWAP1 DUP4 PUSH20 0xFFFFFFFFFFFFFFFFFFFFFFFFFFFFFFFFFFFFFFFF AND MUL OR SWAP1 SSTORE POP JUMPDEST POP POP JUMP JUMPDEST PUSH1 0x8 DUP2 DUP2 SLOAD DUP2 LT PUSH2 0x17EE JUMPI PUSH0 DUP1 REVERT JUMPDEST SWAP1 PUSH0 MSTORE PUSH1 0x20 PUSH0 KECCAK256 ADD PUSH0 SWAP2 POP SLOAD SWAP1 PUSH2 0x100 EXP SWAP1 DIV PUSH20 0xFFFFFFFFFFFFFFFFFFFFFFFFFFFFFFFFFFFFFFFF AND DUP2 JUMP JUMPDEST PUSH0 PUSH0 REVERT JUMPDEST PUSH0 PUSH20 0xFFFFFFFFFFFFFFFFFFFFFFFFFFFFFFFFFFFFFFFF DUP3 AND SWAP1 POP SWAP2 SWAP1 POP JUMP JUMPDEST PUSH0 PUSH2 0x1847 DUP3 PUSH2 0x181E JUMP JUMPDEST SWAP1 POP SWAP2 SWAP1 POP JUMP JUMPDEST PUSH2 0x1857 DUP2 PUSH2 0x183D JUMP JUMPDEST DUP2 EQ PUSH2 0x1861 JUMPI PUSH0 PUSH0 REVERT JUMPDEST POP JUMP JUMPDEST PUSH0 DUP2 CALLDATALOAD SWAP1 POP PUSH2 0x1872 DUP2 PUSH2 0x184E JUMP JUMPDEST SWAP3 SWAP2 POP POP JUMP JUMPDEST PUSH0 PUSH1 0x20 DUP3 DUP5 SUB SLT ISZERO PUSH2 0x188D JUMPI PUSH2 0x188C PUSH2 0x181A JUMP JUMPDEST JUMPDEST PUSH0 PUSH2 0x189A DUP5 DUP3 DUP6 ADD PUSH2 0x1864 JUMP JUMPDEST SWAP2 POP POP SWAP3 SWAP2 POP POP JUMP JUMPDEST PUSH0 DUP2 ISZERO ISZERO SWAP1 POP SWAP2 SWAP1 POP JUMP JUMPDEST PUSH2 0x18B7 DUP2 PUSH2 0x18A3 JUMP JUMPDEST DUP3 MSTORE POP POP JUMP JUMPDEST PUSH0 PUSH1 0x20 DUP3 ADD SWAP1 POP PUSH2 0x18D0 PUSH0 DUP4 ADD DUP5 PUSH2 0x18AE JUMP JUMPDEST SWAP3 SWAP2 POP POP JUMP JUMPDEST PUSH0 DUP2 SWAP1 POP SWAP2 SWAP1 POP JUMP JUMPDEST PUSH2 0x18E8 DUP2 PUSH2 0x18D6 JUMP JUMPDEST DUP3 MSTORE POP POP JUMP JUMPDEST PUSH0 PUSH1 0x20 DUP3 ADD SWAP1 POP PUSH2 0x1901 PUSH0 DUP4 ADD DUP5 PUSH2 0x18DF JUMP JUMPDEST SWAP3 SWAP2 POP POP JUMP JUMPDEST PUSH2 0x1910 DUP2 PUSH2 0x183D JUMP JUMPDEST DUP3 MSTORE POP POP JUMP JUMPDEST PUSH0 DUP2 MLOAD SWAP1 POP SWAP2 SWAP1 POP JUMP JUMPDEST PUSH0 DUP3 DUP3 MSTORE PUSH1 0x20 DUP3 ADD SWAP1 POP SWAP3 SWAP2 POP POP JUMP JUMPDEST DUP3 DUP2 DUP4 MCOPY PUSH0 DUP4 DUP4 ADD MSTORE POP POP POP JUMP JUMPDEST PUSH0 PUSH1 0x1F NOT PUSH1 0x1F DUP4 ADD AND SWAP1 POP SWAP2 SWAP1 POP JUMP JUMPDEST PUSH0 PUSH2 0x1958 DUP3 PUSH2 0x1916 JUMP JUMPDEST PUSH2 0x1962 DUP2 DUP6 PUSH2 0x1920 JUMP JUMPDEST SWAP4 POP PUSH2 0x1972 DUP2 DUP6 PUSH1 0x20 DUP7 ADD PUSH2 0x1930 JUMP JUMPDEST PUSH2 0x197B DUP2 PUSH2 0x193E JUMP JUMPDEST DUP5 ADD SWAP2 POP POP SWAP3 SWAP2 POP POP JUMP JUMPDEST PUSH0 DUP2 MLOAD SWAP1 POP SWAP2 SWAP1 POP JUMP JUMPDEST PUSH0 DUP3 DUP3 MSTORE PUSH1 0x20 DUP3 ADD SWAP1 POP SWAP3 SWAP2 POP POP JUMP JUMPDEST PUSH0 DUP2 SWAP1 POP PUSH1 0x20 DUP3 ADD SWAP1 POP SWAP2 SWAP1 POP JUMP JUMPDEST PUSH2 0x19B8 DUP2 PUSH2 0x183D JUMP JUMPDEST DUP3 MSTORE POP POP JUMP JUMPDEST PUSH0 PUSH2 0x19C9 DUP4 DUP4 PUSH2 0x19AF JUMP JUMPDEST PUSH1 0x20 DUP4 ADD SWAP1 POP SWAP3 SWAP2 POP POP JUMP JUMPDEST PUSH0 PUSH1 0x20 DUP3 ADD SWAP1 POP SWAP2 SWAP1 POP JUMP JUMPDEST PUSH0 PUSH2 0x19EB DUP3 PUSH2 0x1986 JUMP JUMPDEST PUSH2 0x19F5 DUP2 DUP6 PUSH2 0x1990 JUMP JUMPDEST SWAP4 POP PUSH2 0x1A00 DUP4 PUSH2 0x19A0 JUMP JUMPDEST DUP1 PUSH0 JUMPDEST DUP4 DUP2 LT ISZERO PUSH2 0x1A30 JUMPI DUP2 MLOAD PUSH2 0x1A17 DUP9 DUP3 PUSH2 0x19BE JUMP JUMPDEST SWAP8 POP PUSH2 0x1A22 DUP4 PUSH2 0x19D5 JUMP JUMPDEST SWAP3 POP POP PUSH1 0x1 DUP2 ADD SWAP1 POP PUSH2 0x1A03 JUMP JUMPDEST POP DUP6 SWAP4 POP POP POP POP SWAP3 SWAP2 POP POP JUMP JUMPDEST PUSH0 PUSH2 0x140 DUP3 ADD SWAP1 POP PUSH2 0x1A51 PUSH0 DUP4 ADD DUP14 PUSH2 0x18DF JUMP JUMPDEST PUSH2 0x1A5E PUSH1 0x20 DUP4 ADD DUP13 PUSH2 0x18DF JUMP JUMPDEST PUSH2 0x1A6B PUSH1 0x40 DUP4 ADD DUP12 PUSH2 0x18DF JUMP JUMPDEST PUSH2 0x1A78 PUSH1 0x60 DUP4 ADD DUP11 PUSH2 0x1907 JUMP JUMPDEST PUSH2 0x1A85 PUSH1 0x80 DUP4 ADD DUP10 PUSH2 0x18DF JUMP JUMPDEST DUP2 DUP2 SUB PUSH1 0xA0 DUP4 ADD MSTORE PUSH2 0x1A97 DUP2 DUP9 PUSH2 0x194E JUMP JUMPDEST SWAP1 POP DUP2 DUP2 SUB PUSH1 0xC0 DUP4 ADD MSTORE PUSH2 0x1AAB DUP2 DUP8 PUSH2 0x194E JUMP JUMPDEST SWAP1 POP PUSH2 0x1ABA PUSH1 0xE0 DUP4 ADD DUP7 PUSH2 0x18DF JUMP JUMPDEST PUSH2 0x1AC8 PUSH2 0x100 DUP4 ADD DUP6 PUSH2 0x1907 JUMP JUMPDEST DUP2 DUP2 SUB PUSH2 0x120 DUP4 ADD MSTORE PUSH2 0x1ADB DUP2 DUP5 PUSH2 0x19E1 JUMP JUMPDEST SWAP1 POP SWAP12 SWAP11 POP POP POP POP POP POP POP POP POP POP POP JUMP JUMPDEST PUSH0 PUSH1 0x20 DUP3 ADD SWAP1 POP PUSH2 0x1AFF PUSH0 DUP4 ADD DUP5 PUSH2 0x1907 JUMP JUMPDEST SWAP3 SWAP2 POP POP JUMP JUMPDEST PUSH0 PUSH2 0x1B0F DUP3 PUSH2 0x181E JUMP JUMPDEST SWAP1 POP SWAP2 SWAP1 POP JUMP JUMPDEST PUSH2 0x1B1F DUP2 PUSH2 0x1B05 JUMP JUMPDEST DUP2 EQ PUSH2 0x1B29 JUMPI PUSH0 PUSH0 REVERT JUMPDEST POP JUMP JUMPDEST PUSH0 DUP2 CALLDATALOAD SWAP1 POP PUSH2 0x1B3A DUP2 PUSH2 0x1B16 JUMP JUMPDEST SWAP3 SWAP2 POP POP JUMP JUMPDEST PUSH0 PUSH1 0x20 DUP3 DUP5 SUB SLT ISZERO PUSH2 0x1B55 JUMPI PUSH2 0x1B54 PUSH2 0x181A JUMP JUMPDEST JUMPDEST PUSH0 PUSH2 0x1B62 DUP5 DUP3 DUP6 ADD PUSH2 0x1B2C JUMP JUMPDEST SWAP2 POP POP SWAP3 SWAP2 POP POP JUMP JUMPDEST PUSH0 PUSH1 0x20 DUP3 ADD SWAP1 POP DUP2 DUP2 SUB PUSH0 DUP4 ADD MSTORE PUSH2 0x1B83 DUP2 DUP5 PUSH2 0x194E JUMP JUMPDEST SWAP1 POP SWAP3 SWAP2 POP POP JUMP JUMPDEST PUSH0 PUSH0 PUSH1 0x40 DUP4 DUP6 SUB SLT ISZERO PUSH2 0x1BA1 JUMPI PUSH2 0x1BA0 PUSH2 0x181A JUMP JUMPDEST JUMPDEST PUSH0 PUSH2 0x1BAE DUP6 DUP3 DUP7 ADD PUSH2 0x1864 JUMP JUMPDEST SWAP3 POP POP PUSH1 0x20 PUSH2 0x1BBF DUP6 DUP3 DUP7 ADD PUSH2 0x1864 JUMP JUMPDEST SWAP2 POP POP SWAP3 POP SWAP3 SWAP1 POP JUMP JUMPDEST PUSH0 DUP2 MLOAD SWAP1 POP SWAP2 SWAP1 POP JUMP JUMPDEST PUSH0 DUP3 DUP3 MSTORE PUSH1 0x20 DUP3 ADD SWAP1 POP SWAP3 SWAP2 POP POP JUMP JUMPDEST PUSH0 DUP2 SWAP1 POP PUSH1 0x20 DUP3 ADD SWAP1 POP SWAP2 SWAP1 POP JUMP JUMPDEST PUSH2 0x1BFB DUP2 PUSH2 0x18D6 JUMP JUMPDEST DUP3 MSTORE POP POP JUMP JUMPDEST PUSH1 0x60 DUP3 ADD PUSH0 DUP3 ADD MLOAD PUSH2 0x1C15 PUSH0 DUP6 ADD DUP3 PUSH2 0x1BF2 JUMP JUMPDEST POP PUSH1 0x20 DUP3 ADD MLOAD PUSH2 0x1C28 PUSH1 0x20 DUP6 ADD DUP3 PUSH2 0x1BF2 JUMP JUMPDEST POP PUSH1 0x40 DUP3 ADD MLOAD PUSH2 0x1C3B PUSH1 0x40 DUP6 ADD DUP3 PUSH2 0x19AF JUMP JUMPDEST POP POP POP POP JUMP JUMPDEST PUSH0 PUSH2 0x1C4C DUP4 DUP4 PUSH2 0x1C01 JUMP JUMPDEST PUSH1 0x60 DUP4 ADD SWAP1 POP SWAP3 SWAP2 POP POP JUMP JUMPDEST PUSH0 PUSH1 0x20 DUP3 ADD SWAP1 POP SWAP2 SWAP1 POP JUMP JUMPDEST PUSH0 PUSH2 0x1C6E DUP3 PUSH2 0x1BC9 JUMP JUMPDEST PUSH2 0x1C78 DUP2 DUP6 PUSH2 0x1BD3 JUMP JUMPDEST SWAP4 POP PUSH2 0x1C83 DUP4 PUSH2 0x1BE3 JUMP JUMPDEST DUP1 PUSH0 JUMPDEST DUP4 DUP2 LT ISZERO PUSH2 0x1CB3 JUMPI DUP2 MLOAD PUSH2 0x1C9A DUP9 DUP3 PUSH2 0x1C41 JUMP JUMPDEST SWAP8 POP PUSH2 0x1CA5 DUP4 PUSH2 0x1C58 JUMP JUMPDEST SWAP3 POP POP PUSH1 0x1 DUP2 ADD SWAP1 POP PUSH2 0x1C86 JUMP JUMPDEST POP DUP6 SWAP4 POP POP POP POP SWAP3 SWAP2 POP POP JUMP JUMPDEST PUSH0 PUSH1 0x20 DUP3 ADD SWAP1 POP DUP2 DUP2 SUB PUSH0 DUP4 ADD MSTORE PUSH2 0x1CD8 DUP2 DUP5 PUSH2 0x1C64 JUMP JUMPDEST SWAP1 POP SWAP3 SWAP2 POP POP JUMP JUMPDEST PUSH2 0x1CE9 DUP2 PUSH2 0x18D6 JUMP JUMPDEST DUP2 EQ PUSH2 0x1CF3 JUMPI PUSH0 PUSH0 REVERT JUMPDEST POP JUMP JUMPDEST PUSH0 DUP2 CALLDATALOAD SWAP1 POP PUSH2 0x1D04 DUP2 PUSH2 0x1CE0 JUMP JUMPDEST SWAP3 SWAP2 POP POP JUMP JUMPDEST PUSH0 PUSH1 0x20 DUP3 DUP5 SUB SLT ISZERO PUSH2 0x1D1F JUMPI PUSH2 0x1D1E PUSH2 0x181A JUMP JUMPDEST JUMPDEST PUSH0 PUSH2 0x1D2C DUP5 DUP3 DUP6 ADD PUSH2 0x1CF6 JUMP JUMPDEST SWAP2 POP POP SWAP3 SWAP2 POP POP JUMP JUMPDEST PUSH0 PUSH1 0x60 DUP3 ADD SWAP1 POP PUSH2 0x1D48 PUSH0 DUP4 ADD DUP7 PUSH2 0x18DF JUMP JUMPDEST PUSH2 0x1D55 PUSH1 0x20 DUP4 ADD DUP6 PUSH2 0x18DF JUMP JUMPDEST PUSH2 0x1D62 PUSH1 0x40 DUP4 ADD DUP5 PUSH2 0x1907 JUMP JUMPDEST SWAP5 SWAP4 POP POP POP POP JUMP JUMPDEST PUSH0 PUSH1 0x20 DUP3 ADD SWAP1 POP DUP2 DUP2 SUB PUSH0 DUP4 ADD MSTORE PUSH2 0x1D82 DUP2 DUP5 PUSH2 0x19E1 JUMP JUMPDEST SWAP1 POP SWAP3 SWAP2 POP POP JUMP JUMPDEST PUSH32 0x4E487B7100000000000000000000000000000000000000000000000000000000 PUSH0 MSTORE PUSH1 0x22 PUSH1 0x4 MSTORE PUSH1 0x24 PUSH0 REVERT JUMPDEST PUSH0 PUSH1 0x2 DUP3 DIV SWAP1 POP PUSH1 0x1 DUP3 AND DUP1 PUSH2 0x1DCE JUMPI PUSH1 0x7F DUP3 AND SWAP2 POP JUMPDEST PUSH1 0x20 DUP3 LT DUP2 SUB PUSH2 0x1DE1 JUMPI PUSH2 0x1DE0 PUSH2 0x1D8A JUMP JUMPDEST JUMPDEST POP SWAP2 SWAP1 POP JUMP JUMPDEST PUSH32 0x4E6F2062696420746F20726566756E6400000000000000000000000000000000 PUSH0 DUP3 ADD MSTORE POP JUMP JUMPDEST PUSH0 PUSH2 0x1E1B PUSH1 0x10 DUP4 PUSH2 0x1920 JUMP JUMPDEST SWAP2 POP PUSH2 0x1E26 DUP3 PUSH2 0x1DE7 JUMP JUMPDEST PUSH1 0x20 DUP3 ADD SWAP1 POP SWAP2 SWAP1 POP JUMP JUMPDEST PUSH0 PUSH1 0x20 DUP3 ADD SWAP1 POP DUP2 DUP2 SUB PUSH0 DUP4 ADD MSTORE PUSH2 0x1E48 DUP2 PUSH2 0x1E0F JUMP JUMPDEST SWAP1 POP SWAP2 SWAP1 POP JUMP JUMPDEST PUSH32 0x41756374696F6E206973207374696C6C20616374697665000000000000000000 PUSH0 DUP3 ADD MSTORE POP JUMP JUMPDEST PUSH0 PUSH2 0x1E83 PUSH1 0x17 DUP4 PUSH2 0x1920 JUMP JUMPDEST SWAP2 POP PUSH2 0x1E8E DUP3 PUSH2 0x1E4F JUMP JUMPDEST PUSH1 0x20 DUP3 ADD SWAP1 POP SWAP2 SWAP1 POP JUMP JUMPDEST PUSH0 PUSH1 0x20 DUP3 ADD SWAP1 POP DUP2 DUP2 SUB PUSH0 DUP4 ADD MSTORE PUSH2 0x1EB0 DUP2 PUSH2 0x1E77 JUMP JUMPDEST SWAP1 POP SWAP2 SWAP1 POP JUMP JUMPDEST PUSH32 0x41756374696F6E20616C72656164792066696E616C697A656400000000000000 PUSH0 DUP3 ADD MSTORE POP JUMP JUMPDEST PUSH0 PUSH2 0x1EEB PUSH1 0x19 DUP4 PUSH2 0x1920 JUMP JUMPDEST SWAP2 POP PUSH2 0x1EF6 DUP3 PUSH2 0x1EB7 JUMP JUMPDEST PUSH1 0x20 DUP3 ADD SWAP1 POP SWAP2 SWAP1 POP JUMP JUMPDEST PUSH0 PUSH1 0x20 DUP3 ADD SWAP1 POP DUP2 DUP2 SUB PUSH0 DUP4 ADD MSTORE PUSH2 0x1F18 DUP2 PUSH2 0x1EDF JUMP JUMPDEST SWAP1 POP SWAP2 SWAP1 POP JUMP JUMPDEST PUSH32 0x4E487B7100000000000000000000000000000000000000000000000000000000 PUSH0 MSTORE PUSH1 0x32 PUSH1 0x4 MSTORE PUSH1 0x24 PUSH0 REVERT JUMPDEST PUSH32 0x496E73756666696369656E742062616C616E6365000000000000000000000000 PUSH0 DUP3 ADD MSTORE POP JUMP JUMPDEST PUSH0 PUSH2 0x1F80 PUSH1 0x14 DUP4 PUSH2 0x1920 JUMP JUMPDEST SWAP2 POP PUSH2 0x1F8B DUP3 PUSH2 0x1F4C JUMP JUMPDEST PUSH1 0x20 DUP3 ADD SWAP1 POP SWAP2 SWAP1 POP JUMP JUMPDEST PUSH0 PUSH1 0x20 DUP3 ADD SWAP1 POP DUP2 DUP2 SUB PUSH0 DUP4 ADD MSTORE PUSH2 0x1FAD DUP2 PUSH2 0x1F74 JUMP JUMPDEST SWAP1 POP SWAP2 SWAP1 POP JUMP JUMPDEST PUSH0 PUSH1 0xFF DUP3 AND SWAP1 POP SWAP2 SWAP1 POP JUMP JUMPDEST PUSH32 0x4E487B7100000000000000000000000000000000000000000000000000000000 PUSH0 MSTORE PUSH1 0x11 PUSH1 0x4 MSTORE PUSH1 0x24 PUSH0 REVERT JUMPDEST PUSH0 PUSH2 0x1FF7 DUP3 PUSH2 0x1FB4 JUMP JUMPDEST SWAP2 POP PUSH2 0x2002 DUP4 PUSH2 0x1FB4 JUMP JUMPDEST SWAP3 POP DUP3 DUP3 ADD SWAP1 POP PUSH1 0xFF DUP2 GT ISZERO PUSH2 0x201B JUMPI PUSH2 0x201A PUSH2 0x1FC0 JUMP JUMPDEST JUMPDEST SWAP3 SWAP2 POP POP JUMP JUMPDEST PUSH0 PUSH2 0x202B DUP3 PUSH2 0x18D6 JUMP JUMPDEST SWAP2 POP PUSH2 0x2036 DUP4 PUSH2 0x18D6 JUMP JUMPDEST SWAP3 POP DUP3 DUP3 SUB SWAP1 POP DUP2 DUP2 GT ISZERO PUSH2 0x204E JUMPI PUSH2 0x204D PUSH2 0x1FC0 JUMP JUMPDEST JUMPDEST SWAP3 SWAP2 POP POP JUMP JUMPDEST PUSH0 PUSH2 0x205E DUP3 PUSH2 0x18D6 JUMP JUMPDEST SWAP2 POP PUSH2 0x2069 DUP4 PUSH2 0x18D6 JUMP JUMPDEST SWAP3 POP DUP3 DUP3 MUL PUSH2 0x2077 DUP2 PUSH2 0x18D6 JUMP JUMPDEST SWAP2 POP DUP3 DUP3 DIV DUP5 EQ DUP4 ISZERO OR PUSH2 0x208E JUMPI PUSH2 0x208D PUSH2 0x1FC0 JUMP JUMPDEST JUMPDEST POP SWAP3 SWAP2 POP POP JUMP JUMPDEST PUSH32 0x41756374696F6E20616C726561647920636C6F73656400000000000000000000 PUSH0 DUP3 ADD MSTORE POP JUMP JUMPDEST PUSH0 PUSH2 0x20C9 PUSH1 0x16 DUP4 PUSH2 0x1920 JUMP JUMPDEST SWAP2 POP PUSH2 0x20D4 DUP3 PUSH2 0x2095 JUMP JUMPDEST PUSH1 0x20 DUP3 ADD SWAP1 POP SWAP2 SWAP1 POP JUMP JUMPDEST PUSH0 PUSH1 0x20 DUP3 ADD SWAP1 POP DUP2 DUP2 SUB PUSH0 DUP4 ADD MSTORE PUSH2 0x20F6 DUP2 PUSH2 0x20BD JUMP JUMPDEST SWAP1 POP SWAP2 SWAP1 POP JUMP JUMPDEST PUSH32 0x796F752063616E27742062757920796F7572206F776E20646174610000000000 PUSH0 DUP3 ADD MSTORE POP JUMP JUMPDEST PUSH0 PUSH2 0x2131 PUSH1 0x1B DUP4 PUSH2 0x1920 JUMP JUMPDEST SWAP2 POP PUSH2 0x213C DUP3 PUSH2 0x20FD JUMP JUMPDEST PUSH1 0x20 DUP3 ADD SWAP1 POP SWAP2 SWAP1 POP JUMP JUMPDEST PUSH0 PUSH1 0x20 DUP3 ADD SWAP1 POP DUP2 DUP2 SUB PUSH0 DUP4 ADD MSTORE PUSH2 0x215E DUP2 PUSH2 0x2125 JUMP JUMPDEST SWAP1 POP SWAP2 SWAP1 POP JUMP JUMPDEST PUSH32 0x796F752063616E277420636F6E7472696275746520746F20616E20656E646564 PUSH0 DUP3 ADD MSTORE PUSH32 0x2061756374696F6E000000000000000000000000000000000000000000000000 PUSH1 0x20 DUP3 ADD MSTORE POP JUMP JUMPDEST PUSH0 PUSH2 0x21BF PUSH1 0x28 DUP4 PUSH2 0x1920 JUMP JUMPDEST SWAP2 POP PUSH2 0x21CA DUP3 PUSH2 0x2165 JUMP JUMPDEST PUSH1 0x40 DUP3 ADD SWAP1 POP SWAP2 SWAP1 POP JUMP JUMPDEST PUSH0 PUSH1 0x20 DUP3 ADD SWAP1 POP DUP2 DUP2 SUB PUSH0 DUP4 ADD MSTORE PUSH2 0x21EC DUP2 PUSH2 0x21B3 JUMP JUMPDEST SWAP1 POP SWAP2 SWAP1 POP JUMP JUMPDEST PUSH0 PUSH2 0x21FD DUP3 PUSH2 0x18D6 JUMP JUMPDEST SWAP2 POP PUSH2 0x2208 DUP4 PUSH2 0x18D6 JUMP JUMPDEST SWAP3 POP DUP3 DUP3 ADD SWAP1 POP DUP1 DUP3 GT ISZERO PUSH2 0x2220 JUMPI PUSH2 0x221F PUSH2 0x1FC0 JUMP JUMPDEST JUMPDEST SWAP3 SWAP2 POP POP JUMP JUMPDEST PUSH32 0x4269642062656C6F77206D696E696D756D000000000000000000000000000000 PUSH0 DUP3 ADD MSTORE POP JUMP JUMPDEST PUSH0 PUSH2 0x225A PUSH1 0x11 DUP4 PUSH2 0x1920 JUMP JUMPDEST SWAP2 POP PUSH2 0x2265 DUP3 PUSH2 0x2226 JUMP JUMPDEST PUSH1 0x20 DUP3 ADD SWAP1 POP SWAP2 SWAP1 POP JUMP JUMPDEST PUSH0 PUSH1 0x20 DUP3 ADD SWAP1 POP DUP2 DUP2 SUB PUSH0 DUP4 ADD MSTORE PUSH2 0x2287 DUP2 PUSH2 0x224E JUMP JUMPDEST SWAP1 POP SWAP2 SWAP1 POP JUMP JUMPDEST PUSH32 0x546865726520616C7265616479206973206120686967686572206F7220657175 PUSH0 DUP3 ADD MSTORE PUSH32 0x616C206269640000000000000000000000000000000000000000000000000000 PUSH1 0x20 DUP3 ADD MSTORE POP JUMP JUMPDEST PUSH0 PUSH2 0x22E8 PUSH1 0x26 DUP4 PUSH2 0x1920 JUMP JUMPDEST SWAP2 POP PUSH2 0x22F3 DUP3 PUSH2 0x228E JUMP JUMPDEST PUSH1 0x40 DUP3 ADD SWAP1 POP SWAP2 SWAP1 POP JUMP JUMPDEST PUSH0 PUSH1 0x20 DUP3 ADD SWAP1 POP DUP2 DUP2 SUB PUSH0 DUP4 ADD MSTORE PUSH2 0x2315 DUP2 PUSH2 0x22DC JUMP JUMPDEST SWAP1 POP SWAP2 SWAP1 POP JUMP JUMPDEST PUSH0 PUSH2 0x2326 DUP3 PUSH2 0x18D6 JUMP JUMPDEST SWAP2 POP PUSH32 0xFFFFFFFFFFFFFFFFFFFFFFFFFFFFFFFFFFFFFFFFFFFFFFFFFFFFFFFFFFFFFFFF DUP3 SUB PUSH2 0x2358 JUMPI PUSH2 0x2357 PUSH2 0x1FC0 JUMP JUMPDEST JUMPDEST PUSH1 0x1 DUP3 ADD SWAP1 POP SWAP2 SWAP1 POP JUMP INVALID LOG2 PUSH5 0x6970667358 0x22 SLT KECCAK256 DUPN 0x7F EXTDELEGATECALL 0x2C PUSH1 0xD1 DIV DUP3 SLT SWAPN 0x82 PUSH8 0x9F14CC9DC3B56E5E 0xF6 DUP16 BLOCKHASH BYTE MCOPY DUP1 PUSH24 0x5D31040B1764736F6C634300081E00330000000000000000 "},"gasEstimates":{"creation":{"codeDepositCost":"1822600","executionCost":"infinite","totalCost":"infinite"},"external":{"EndedAuctions()":"infinite","addresses(uint256)":"5054","approvers(address)":"2857","approversCount()":"2448","approversMonney(address)":"2870","closed()":"2533","compareAddresses(address,address)":"infinite","contribute()":"infinite","dataDescription()":"infinite","dataForSell()":"infinite","endTime()":"2515","getAddresses()":"infinite","getBid(address)":"5102","getStatus()":"2541","getSummary()":"infinite","getTransactions()":"infinite","highestBid()":"2491","highestBidder()":"2597","manager()":"2554","minimumContribution()":"2536","paySeller()":"infinite","refundsProcessed()":"2629","sellerPaid()":"2563","toLower(address)":"infinite","transactions(uint256)":"infinite","withdrawBid(address)":"infinite"}},"methodIdentifiers":{"EndedAuctions()":"8d2a1dad","addresses(uint256)":"edf26d9b","approvers(address)":"0a144391","approversCount()":"82fde093","approversMonney(address)":"2ebc9a3e","closed()":"597e1fb5","compareAddresses(address,address)":"7e06eb7d","contribute()":"d7bb99ba","dataDescription()":"58d65629","dataForSell()":"7b87d856","endTime()":"3197cbb6","getAddresses()":"a39fac12","getBid(address)":"c8b342ab","getStatus()":"4e69d560","getSummary()":"4051ddac","getTransactions()":"83920e90","highestBid()":"d57bde79","highestBidder()":"91f90157","manager()":"481c6a75","minimumContribution()":"937e09b1","paySeller()":"a0c97bce","refundsProcessed()":"346143f4","sellerPaid()":"17c7acec","toLower(address)":"94073c25","transactions(uint256)":"9ace38c2","withdrawBid(address)":"4ede3648"}},"storageLayout":{"storage":[{"astId":116,"contract":"Campaign.sol:Campaign","label":"transactions","offset":0,"slot":"0","type":"t_array(t_struct(Bid)112_storage)dyn_storage"},{"astId":118,"contract":"Campaign.sol:Campaign","label":"manager","offset":0,"slot":"1","type":"t_address"},{"astId":120,"contract":"Campaign.sol:Campaign","label":"minimumContribution","offset":0,"slot":"2","type":"t_uint256"},{"astId":122,"contract":"Campaign.sol:Campaign","label":"dataForSell","offset":0,"slot":"3","type":"t_string_storage"},{"astId":124,"contract":"Campaign.sol:Campaign","label":"dataDescription","offset":0,"slot":"4","type":"t_string_storage"},{"astId":128,"contract":"Campaign.sol:Campaign","label":"approvers","offset":0,"slot":"5","type":"t_mapping(t_address,t_bool)"},{"astId":132,"contract":"Campaign.sol:Campaign","label":"approversMonney","offset":0,"slot":"6","type":"t_mapping(t_address,t_uint256)"},{"astId":134,"contract":"Campaign.sol:Campaign","label":"approversCount","offset":0,"slot":"7","type":"t_uint256"},{"astId":137,"contract":"Campaign.sol:Campaign","label":"addresses","offset":0,"slot":"8","type":"t_array(t_address)dyn_storage"},{"astId":139,"contract":"Campaign.sol:Campaign","label":"highestBidder","offset":0,"slot":"9","type":"t_address"},{"astId":141,"contract":"Campaign.sol:Campaign","label":"highestBid","offset":0,"slot":"10","type":"t_uint256"},{"astId":143,"contract":"Campaign.sol:Campaign","label":"endTime","offset":0,"slot":"11","type":"t_uint256"},{"astId":145,"contract":"Campaign.sol:Campaign","label":"closed","offset":0,"slot":"12","type":"t_bool"},{"astId":147,"contract":"Campaign.sol:Campaign","label":"refundsProcessed","offset":1,"slot":"12","type":"t_bool"},{"astId":149,"contract":"Campaign.sol:Campaign","label":"sellerPaid","offset":2,"slot":"12","type":"t_bool"}],"types":{"t_address":{"encoding":"inplace","label":"address","numberOfBytes":"20"},"t_array(t_address)dyn_storage":{"base":"t_address","encoding":"dynamic_array","label":"address[]","numberOfBytes":"32"},"t_array(t_struct(Bid)112_storage)dyn_storage":{"base":"t_struct(Bid)112_storage","encoding":"dynamic_array","label":"struct Campaign.Bid[]","numberOfBytes":"32"},"t_bool":{"encoding":"inplace","label":"bool","numberOfBytes":"1"},"t_mapping(t_address,t_bool)":{"encoding":"mapping","key":"t_address","label":"mapping(address => bool)","numberOfBytes":"32","value":"t_bool"},"t_mapping(t_address,t_uint256)":{"encoding":"mapping","key":"t_address","label":"mapping(address => uint256)","numberOfBytes":"32","value":"t_uint256"},"t_string_storage":{"encoding":"bytes","label":"string","numberOfBytes":"32"},"t_struct(Bid)112_storage":{"encoding":"inplace","label":"struct Campaign.Bid","members":[{"astId":107,"contract":"Campaign.sol:Campaign","label":"value","offset":0,"slot":"0","type":"t_uint256"},{"astId":109,"contract":"Campaign.sol:Campaign","label":"time","offset":0,"slot":"1","type":"t_uint256"},{"astId":111,"contract":"Campaign.sol:Campaign","label":"sellerAddress","offset":0,"slot":"2","type":"t_address"}],"numberOfBytes":"96"},"t_uint256":{"encoding":"inplace","label":"uint256","numberOfBytes":"32"}}},"transientStorageLayout":{"storage":[],"types":null},"userdoc":{"kind":"user","methods":{},"version":1}}