{
  "_format": "hh-sol-artifact-1",
  "contractName": "MyToken",
  "sourceName": "contracts/MyToken.sol",
  "abi": [
    {
      "inputs": [
        {
          "internalType": "address",
          "name": "initialOwner",
          "type": "address"
        }
      ],
      "stateMutability": "nonpayable",
      "type": "constructor"
    },
    {
      "inputs": [],
      "name": "ECDSAInvalidSignature",
      "type": "error"
    },
    {
      "inputs": [
        {
          "internalType": "uint256",
          "name": "length",
          "type": "uint256"
        }
      ],
      "name": "ECDSAInvalidSignatureLength",
      "type": "error"
    },
    {
      "inputs": [
        {
          "internalType": "bytes32",
          "name": "s",
          "type": "bytes32"
        }
      ],
      "name": "ECDSAInvalidSignatureS",
      "type": "error"
    },
    {
      "inputs": [
        {
          "internalType": "address",
          "name": "spender",
          "type": "address"
        },
        {
          "internalType": "uint256",
          "name": "allowance",
          "type": "uint256"
        },
        {
          "internalType": "uint256",
          "name": "needed",
          "type": "uint256"
        }
      ],
      "name": "ERC20InsufficientAllowance",
      "type": "error"
    },
    {
      "inputs": [
        {
          "internalType": "address",
          "name": "sender",
          "type": "address"
        },
        {
          "internalType": "uint256",
          "name": "balance",
          "type": "uint256"
        },
        {
          "internalType": "uint256",
          "name": "needed",
          "type": "uint256"
        }
      ],
      "name": "ERC20InsufficientBalance",
      "type": "error"
    },
    {
      "inputs": [
        {
          "internalType": "address",
          "name": "approver",
          "type": "address"
        }
      ],
      "name": "ERC20InvalidApprover",
      "type": "error"
    },
    {
      "inputs": [
        {
          "internalType": "address",
          "name": "receiver",
          "type": "address"
        }
      ],
      "name": "ERC20InvalidReceiver",
      "type": "error"
    },
    {
      "inputs": [
        {
          "internalType": "address",
          "name": "sender",
          "type": "address"
        }
      ],
      "name": "ERC20InvalidSender",
      "type": "error"
    },
    {
      "inputs": [
        {
          "internalType": "address",
          "name": "spender",
          "type": "address"
        }
      ],
      "name": "ERC20InvalidSpender",
      "type": "error"
    },
    {
      "inputs": [
        {
          "internalType": "uint256",
          "name": "deadline",
          "type": "uint256"
        }
      ],
      "name": "ERC2612ExpiredSignature",
      "type": "error"
    },
    {
      "inputs": [
        {
          "internalType": "address",
          "name": "signer",
          "type": "address"
        },
        {
          "internalType": "address",
          "name": "owner",
          "type": "address"
        }
      ],
      "name": "ERC2612InvalidSigner",
      "type": "error"
    },
    {
      "inputs": [
        {
          "internalType": "address",
          "name": "account",
          "type": "address"
        },
        {
          "internalType": "uint256",
          "name": "currentNonce",
          "type": "uint256"
        }
      ],
      "name": "InvalidAccountNonce",
      "type": "error"
    },
    {
      "inputs": [],
      "name": "InvalidShortString",
      "type": "error"
    },
    {
      "inputs": [
        {
          "internalType": "address",
          "name": "owner",
          "type": "address"
        }
      ],
      "name": "OwnableInvalidOwner",
      "type": "error"
    },
    {
      "inputs": [
        {
          "internalType": "address",
          "name": "account",
          "type": "address"
        }
      ],
      "name": "OwnableUnauthorizedAccount",
      "type": "error"
    },
    {
      "inputs": [
        {
          "internalType": "string",
          "name": "str",
          "type": "string"
        }
      ],
      "name": "StringTooLong",
      "type": "error"
    },
    {
      "anonymous": false,
      "inputs": [
        {
          "indexed": true,
          "internalType": "address",
          "name": "owner",
          "type": "address"
        },
        {
          "indexed": true,
          "internalType": "address",
          "name": "spender",
          "type": "address"
        },
        {
          "indexed": false,
          "internalType": "uint256",
          "name": "value",
          "type": "uint256"
        }
      ],
      "name": "Approval",
      "type": "event"
    },
    {
      "anonymous": false,
      "inputs": [],
      "name": "EIP712DomainChanged",
      "type": "event"
    },
    {
      "anonymous": false,
      "inputs": [
        {
          "indexed": true,
          "internalType": "address",
          "name": "previousOwner",
          "type": "address"
        },
        {
          "indexed": true,
          "internalType": "address",
          "name": "newOwner",
          "type": "address"
        }
      ],
      "name": "OwnershipTransferred",
      "type": "event"
    },
    {
      "anonymous": false,
      "inputs": [
        {
          "indexed": true,
          "internalType": "address",
          "name": "from",
          "type": "address"
        },
        {
          "indexed": true,
          "internalType": "address",
          "name": "to",
          "type": "address"
        },
        {
          "indexed": false,
          "internalType": "uint256",
          "name": "value",
          "type": "uint256"
        }
      ],
      "name": "Transfer",
      "type": "event"
    },
    {
      "inputs": [],
      "name": "DOMAIN_SEPARATOR",
      "outputs": [
        {
          "internalType": "bytes32",
          "name": "",
          "type": "bytes32"
        }
      ],
      "stateMutability": "view",
      "type": "function"
    },
    {
      "inputs": [],
      "name": "FAUCET_AMOUNT",
      "outputs": [
        {
          "internalType": "uint256",
          "name": "",
          "type": "uint256"
        }
      ],
      "stateMutability": "view",
      "type": "function"
    },
    {
      "inputs": [
        {
          "internalType": "address",
          "name": "owner",
          "type": "address"
        },
        {
          "internalType": "address",
          "name": "spender",
          "type": "address"
        }
      ],
      "name": "allowance",
      "outputs": [
        {
          "internalType": "uint256",
          "name": "",
          "type": "uint256"
        }
      ],
      "stateMutability": "view",
      "type": "function"
    },
    {
      "inputs": [
        {
          "internalType": "address",
          "name": "spender",
          "type": "address"
        },
        {
          "internalType": "uint256",
          "name": "value",
          "type": "uint256"
        }
      ],
      "name": "approve",
      "outputs": [
        {
          "internalType": "bool",
          "name": "",
          "type": "bool"
        }
      ],
      "stateMutability": "nonpayable",
      "type": "function"
    },
    {
      "inputs": [
        {
          "internalType": "address",
          "name": "account",
          "type": "address"
        }
      ],
      "name": "balanceOf",
      "outputs": [
        {
          "internalType": "uint256",
          "name": "",
          "type": "uint256"
        }
      ],
      "stateMutability": "view",
      "type": "function"
    },
    {
      "inputs": [],
      "name": "decimals",
      "outputs": [
        {
          "internalType": "uint8",
          "name": "",
          "type": "uint8"
        }
      ],
      "stateMutability": "view",
      "type": "function"
    },
    {
      "inputs": [],
      "name": "eip712Domain",
      "outputs": [
        {
          "internalType": "bytes1",
          "name": "fields",
          "type": "bytes1"
        },
        {
          "internalType": "string",
          "name": "name",
          "type": "string"
        },
        {
          "internalType": "string",
          "name": "version",
          "type": "string"
        },
        {
          "internalType": "uint256",
          "name": "chainId",
          "type": "uint256"
        },
        {
          "internalType": "address",
          "name": "verifyingContract",
          "type": "address"
        },
        {
          "internalType": "bytes32",
          "name": "salt",
          "type": "bytes32"
        },
        {
          "internalType": "uint256[]",
          "name": "extensions",
          "type": "uint256[]"
        }
      ],
      "stateMutability": "view",
      "type": "function"
    },
    {
      "inputs": [],
      "name": "faucet",
      "outputs": [],
      "stateMutability": "nonpayable",
      "type": "function"
    },
    {
      "inputs": [
        {
          "internalType": "address",
          "name": "",
          "type": "address"
        }
      ],
      "name": "hasClaimed",
      "outputs": [
        {
          "internalType": "bool",
          "name": "",
          "type": "bool"
        }
      ],
      "stateMutability": "view",
      "type": "function"
    },
    {
      "inputs": [],
      "name": "name",
      "outputs": [
        {
          "internalType": "string",
          "name": "",
          "type": "string"
        }
      ],
      "stateMutability": "view",
      "type": "function"
    },
    {
      "inputs": [
        {
          "internalType": "address",
          "name": "owner",
          "type": "address"
        }
      ],
      "name": "nonces",
      "outputs": [
        {
          "internalType": "uint256",
          "name": "",
          "type": "uint256"
        }
      ],
      "stateMutability": "view",
      "type": "function"
    },
    {
      "inputs": [],
      "name": "owner",
      "outputs": [
        {
          "internalType": "address",
          "name": "",
          "type": "address"
        }
      ],
      "stateMutability": "view",
      "type": "function"
    },
    {
      "inputs": [
        {
          "internalType": "address",
          "name": "owner",
          "type": "address"
        },
        {
          "internalType": "address",
          "name": "spender",
          "type": "address"
        },
        {
          "internalType": "uint256",
          "name": "value",
          "type": "uint256"
        },
        {
          "internalType": "uint256",
          "name": "deadline",
          "type": "uint256"
        },
        {
          "internalType": "uint8",
          "name": "v",
          "type": "uint8"
        },
        {
          "internalType": "bytes32",
          "name": "r",
          "type": "bytes32"
        },
        {
          "internalType": "bytes32",
          "name": "s",
          "type": "bytes32"
        }
      ],
      "name": "permit",
      "outputs": [],
      "stateMutability": "nonpayable",
      "type": "function"
    },
    {
      "inputs": [],
      "name": "renounceOwnership",
      "outputs": [],
      "stateMutability": "nonpayable",
      "type": "function"
    },
    {
      "inputs": [],
      "name": "symbol",
      "outputs": [
        {
          "internalType": "string",
          "name": "",
          "type": "string"
        }
      ],
      "stateMutability": "view",
      "type": "function"
    },
    {
      "inputs": [],
      "name": "totalSupply",
      "outputs": [
        {
          "internalType": "uint256",
          "name": "",
          "type": "uint256"
        }
      ],
      "stateMutability": "view",
      "type": "function"
    },
    {
      "inputs": [
        {
          "internalType": "address",
          "name": "to",
          "type": "address"
        },
        {
          "internalType": "uint256",
          "name": "value",
          "type": "uint256"
        }
      ],
      "name": "transfer",
      "outputs": [
        {
          "internalType": "bool",
          "name": "",
          "type": "bool"
        }
      ],
      "stateMutability": "nonpayable",
      "type": "function"
    },
    {
      "inputs": [
        {
          "internalType": "address",
          "name": "from",
          "type": "address"
        },
        {
          "internalType": "address",
          "name": "to",
          "type": "address"
        },
        {
          "internalType": "uint256",
          "name": "value",
          "type": "uint256"
        }
      ],
      "name": "transferFrom",
      "outputs": [
        {
          "internalType": "bool",
          "name": "",
          "type": "bool"
        }
      ],
      "stateMutability": "nonpayable",
      "type": "function"
    },
    {
      "inputs": [
        {
          "internalType": "address",
          "name": "newOwner",
          "type": "address"
        }
      ],
      "name": "transferOwnership",
      "outputs": [],
      "stateMutability": "nonpayable",
      "type": "function"
    }
  ],
  "bytecode": "0x61016060405234801561001157600080fd5b506040516130cf3803806130cf83398181016040528101906100339190610795565b806040518060400160405280600981526020017f48756a6920436f696e0000000000000000000000000000000000000000000000815250806040518060400160405280600181526020017f31000000000000000000000000000000000000000000000000000000000000008152506040518060400160405280600981526020017f48756a6920436f696e00000000000000000000000000000000000000000000008152506040518060400160405280600981526020017f48756a6920436f696e0000000000000000000000000000000000000000000000815250816003908161011c9190610a12565b50806004908161012c9190610a12565b50505061014360058361029960201b90919060201c565b610120818152505061015f60068261029960201b90919060201c565b6101408181525050818051906020012060e08181525050808051906020012061010081815250504660a0818152505061019c6102e960201b60201c565b608081815250503073ffffffffffffffffffffffffffffffffffffffff1660c08173ffffffffffffffffffffffffffffffffffffffff1681525050505050600073ffffffffffffffffffffffffffffffffffffffff168173ffffffffffffffffffffffffffffffffffffffff160361024c5760006040517f1e4fbdf70000000000000000000000000000000000000000000000000000000081526004016102439190610af3565b60405180910390fd5b61025b8161034460201b60201c565b506102938161026e61040a60201b60201c565b600a61027a9190610c7d565b620f42406102889190610cc8565b61041360201b60201c565b50610f49565b60006020835110156102bb576102b48361049b60201b60201c565b90506102e3565b826102cb8361050360201b60201c565b60000190816102da9190610a12565b5060ff60001b90505b92915050565b60007f8b73c3c69bb8fe3d512ecc4cf759cc79239f7b179b0ffacaa9a75d522b39400f60e051610100514630604051602001610329959493929190610d32565b60405160208183030381529060405280519060200120905090565b6000600860009054906101000a900473ffffffffffffffffffffffffffffffffffffffff16905081600860006101000a81548173ffffffffffffffffffffffffffffffffffffffff021916908373ffffffffffffffffffffffffffffffffffffffff1602179055508173ffffffffffffffffffffffffffffffffffffffff168173ffffffffffffffffffffffffffffffffffffffff167f8be0079c531659141344cd1fd0a4f28419497f9722a3daafe3b4186f6b6457e060405160405180910390a35050565b60006012905090565b600073ffffffffffffffffffffffffffffffffffffffff168273ffffffffffffffffffffffffffffffffffffffff16036104855760006040517fec442f0500000000000000000000000000000000000000000000000000000000815260040161047c9190610af3565b60405180910390fd5b6104976000838361050d60201b60201c565b5050565b600080829050601f815111156104e857826040517f305a27a90000000000000000000000000000000000000000000000000000000081526004016104df9190610e0a565b60405180910390fd5b8051816104f490610e5c565b60001c1760001b915050919050565b6000819050919050565b600073ffffffffffffffffffffffffffffffffffffffff168373ffffffffffffffffffffffffffffffffffffffff160361055f5780600260008282546105539190610ec3565b92505081905550610632565b60008060008573ffffffffffffffffffffffffffffffffffffffff1673ffffffffffffffffffffffffffffffffffffffff168152602001908152602001600020549050818110156105eb578381836040517fe450d38c0000000000000000000000000000000000000000000000000000000081526004016105e293929190610ef7565b60405180910390fd5b8181036000808673ffffffffffffffffffffffffffffffffffffffff1673ffffffffffffffffffffffffffffffffffffffff16815260200190815260200160002081905550505b600073ffffffffffffffffffffffffffffffffffffffff168273ffffffffffffffffffffffffffffffffffffffff160361067b57806002600082825403925050819055506106c8565b806000808473ffffffffffffffffffffffffffffffffffffffff1673ffffffffffffffffffffffffffffffffffffffff168152602001908152602001600020600082825401925050819055505b8173ffffffffffffffffffffffffffffffffffffffff168373ffffffffffffffffffffffffffffffffffffffff167fddf252ad1be2c89b69c2b068fc378daa952ba7f163c4a11628f55a4df523b3ef836040516107259190610f2e565b60405180910390a3505050565b600080fd5b600073ffffffffffffffffffffffffffffffffffffffff82169050919050565b600061076282610737565b9050919050565b61077281610757565b811461077d57600080fd5b50565b60008151905061078f81610769565b92915050565b6000602082840312156107ab576107aa610732565b5b60006107b984828501610780565b91505092915050565b600081519050919050565b7f4e487b7100000000000000000000000000000000000000000000000000000000600052604160045260246000fd5b7f4e487b7100000000000000000000000000000000000000000000000000000000600052602260045260246000fd5b6000600282049050600182168061084357607f821691505b602082108103610856576108556107fc565b5b50919050565b60008190508160005260206000209050919050565b60006020601f8301049050919050565b600082821b905092915050565b6000600883026108be7fffffffffffffffffffffffffffffffffffffffffffffffffffffffffffffffff82610881565b6108c88683610881565b95508019841693508086168417925050509392505050565b6000819050919050565b6000819050919050565b600061090f61090a610905846108e0565b6108ea565b6108e0565b9050919050565b6000819050919050565b610929836108f4565b61093d61093582610916565b84845461088e565b825550505050565b600090565b610952610945565b61095d818484610920565b505050565b5b818110156109815761097660008261094a565b600181019050610963565b5050565b601f8211156109c6576109978161085c565b6109a084610871565b810160208510156109af578190505b6109c36109bb85610871565b830182610962565b50505b505050565b600082821c905092915050565b60006109e9600019846008026109cb565b1980831691505092915050565b6000610a0283836109d8565b9150826002028217905092915050565b610a1b826107c2565b67ffffffffffffffff811115610a3457610a336107cd565b5b610a3e825461082b565b610a49828285610985565b600060209050601f831160018114610a7c5760008415610a6a578287015190505b610a7485826109f6565b865550610adc565b601f198416610a8a8661085c565b60005b82811015610ab257848901518255600182019150602085019450602081019050610a8d565b86831015610acf5784890151610acb601f8916826109d8565b8355505b6001600288020188555050505b505050505050565b610aed81610757565b82525050565b6000602082019050610b086000830184610ae4565b92915050565b7f4e487b7100000000000000000000000000000000000000000000000000000000600052601160045260246000fd5b60008160011c9050919050565b6000808291508390505b6001851115610b9457808604811115610b7057610b6f610b0e565b5b6001851615610b7f5780820291505b8081029050610b8d85610b3d565b9450610b54565b94509492505050565b600082610bad5760019050610c69565b81610bbb5760009050610c69565b8160018114610bd15760028114610bdb57610c0a565b6001915050610c69565b60ff841115610bed57610bec610b0e565b5b8360020a915084821115610c0457610c03610b0e565b5b50610c69565b5060208310610133831016604e8410600b8410161715610c3f5782820a905083811115610c3a57610c39610b0e565b5b610c69565b610c4c8484846001610b4a565b92509050818404811115610c6357610c62610b0e565b5b81810290505b9392505050565b600060ff82169050919050565b6000610c88826108e0565b9150610c9383610c70565b9250610cc07fffffffffffffffffffffffffffffffffffffffffffffffffffffffffffffffff8484610b9d565b905092915050565b6000610cd3826108e0565b9150610cde836108e0565b9250828202610cec816108e0565b91508282048414831517610d0357610d02610b0e565b5b5092915050565b6000819050919050565b610d1d81610d0a565b82525050565b610d2c816108e0565b82525050565b600060a082019050610d476000830188610d14565b610d546020830187610d14565b610d616040830186610d14565b610d6e6060830185610d23565b610d7b6080830184610ae4565b9695505050505050565b600082825260208201905092915050565b60005b83811015610db4578082015181840152602081019050610d99565b60008484015250505050565b6000601f19601f8301169050919050565b6000610ddc826107c2565b610de68185610d85565b9350610df6818560208601610d96565b610dff81610dc0565b840191505092915050565b60006020820190508181036000830152610e248184610dd1565b905092915050565b600081519050919050565b6000819050602082019050919050565b6000610e538251610d0a565b80915050919050565b6000610e6782610e2c565b82610e7184610e37565b9050610e7c81610e47565b92506020821015610ebc57610eb77fffffffffffffffffffffffffffffffffffffffffffffffffffffffffffffffff83602003600802610881565b831692505b5050919050565b6000610ece826108e0565b9150610ed9836108e0565b9250828201905080821115610ef157610ef0610b0e565b5b92915050565b6000606082019050610f0c6000830186610ae4565b610f196020830185610d23565b610f266040830184610d23565b949350505050565b6000602082019050610f436000830184610d23565b92915050565b60805160a05160c05160e05161010051610120516101405161212c610fa36000396000610e6501526000610e2a015260006113fc015260006113db01526000610bd801526000610c2e01526000610c57015261212c6000f3fe608060405234801561001057600080fd5b50600436106101215760003560e01c806376697640116100ad578063a9059cbb11610071578063a9059cbb14610316578063d505accf14610346578063dd62ed3e14610362578063de5f72fd14610392578063f2fde38b1461039c57610121565b806376697640146102685780637ecebe001461028657806384b0196e146102b65780638da5cb5b146102da57806395d89b41146102f857610121565b8063313ce567116100f4578063313ce567146101c25780633644e515146101e057806370a08231146101fe578063715018a61461022e57806373b2e80e1461023857610121565b806306fdde0314610126578063095ea7b31461014457806318160ddd1461017457806323b872dd14610192575b600080fd5b61012e6103b8565b60405161013b91906118e9565b60405180910390f35b61015e600480360381019061015991906119a4565b61044a565b60405161016b91906119ff565b60405180910390f35b61017c61046d565b6040516101899190611a29565b60405180910390f35b6101ac60048036038101906101a79190611a44565b610477565b6040516101b991906119ff565b60405180910390f35b6101ca6104a6565b6040516101d79190611ab3565b60405180910390f35b6101e86104af565b6040516101f59190611ae7565b60405180910390f35b61021860048036038101906102139190611b02565b6104be565b6040516102259190611a29565b60405180910390f35b610236610506565b005b610252600480360381019061024d9190611b02565b61051a565b60405161025f91906119ff565b60405180910390f35b61027061053a565b60405161027d9190611a29565b60405180910390f35b6102a0600480360381019061029b9190611b02565b610547565b6040516102ad9190611a29565b60405180910390f35b6102be610559565b6040516102d19796959493929190611c37565b60405180910390f35b6102e2610603565b6040516102ef9190611cbb565b60405180910390f35b61030061062d565b60405161030d91906118e9565b60405180910390f35b610330600480360381019061032b91906119a4565b6106bf565b60405161033d91906119ff565b60405180910390f35b610360600480360381019061035b9190611d2e565b6106e2565b005b61037c60048036038101906103779190611dd0565b61082a565b6040516103899190611a29565b60405180910390f35b61039a6108b1565b005b6103b660048036038101906103b19190611b02565b6109ab565b005b6060600380546103c790611e3f565b80601f01602080910402602001604051908101604052809291908181526020018280546103f390611e3f565b80156104405780601f1061041557610100808354040283529160200191610440565b820191906000526020600020905b81548152906001019060200180831161042357829003601f168201915b5050505050905090565b600080610455610a31565b9050610462818585610a39565b600191505092915050565b6000600254905090565b600080610482610a31565b905061048f858285610a4b565b61049a858585610ae0565b60019150509392505050565b60006012905090565b60006104b9610bd4565b905090565b60008060008373ffffffffffffffffffffffffffffffffffffffff1673ffffffffffffffffffffffffffffffffffffffff168152602001908152602001600020549050919050565b61050e610c8b565b6105186000610d12565b565b60096020528060005260406000206000915054906101000a900460ff1681565b68056bc75e2d6310000081565b600061055282610dd8565b9050919050565b60006060806000806000606061056d610e21565b610575610e5c565b46306000801b600067ffffffffffffffff81111561059657610595611e70565b5b6040519080825280602002602001820160405280156105c45781602001602082028036833780820191505090505b507f0f00000000000000000000000000000000000000000000000000000000000000959493929190965096509650965096509650965090919293949596565b6000600860009054906101000a900473ffffffffffffffffffffffffffffffffffffffff16905090565b60606004805461063c90611e3f565b80601f016020809104026020016040519081016040528092919081815260200182805461066890611e3f565b80156106b55780601f1061068a576101008083540402835291602001916106b5565b820191906000526020600020905b81548152906001019060200180831161069857829003601f168201915b5050505050905090565b6000806106ca610a31565b90506106d7818585610ae0565b600191505092915050565b8342111561072757836040517f6279130200000000000000000000000000000000000000000000000000000000815260040161071e9190611a29565b60405180910390fd5b60007f6e71edae12b1b97f4d1f60370fef10105fa2faae0126114a169c64845d6126c98888886107568c610e97565b8960405160200161076c96959493929190611e9f565b604051602081830303815290604052805190602001209050600061078f82610eee565b9050600061079f82878787610f08565b90508973ffffffffffffffffffffffffffffffffffffffff168173ffffffffffffffffffffffffffffffffffffffff161461081357808a6040517f4b800e4600000000000000000000000000000000000000000000000000000000815260040161080a929190611f00565b60405180910390fd5b61081e8a8a8a610a39565b50505050505050505050565b6000600160008473ffffffffffffffffffffffffffffffffffffffff1673ffffffffffffffffffffffffffffffffffffffff16815260200190815260200160002060008373ffffffffffffffffffffffffffffffffffffffff1673ffffffffffffffffffffffffffffffffffffffff16815260200190815260200160002054905092915050565b600960003373ffffffffffffffffffffffffffffffffffffffff1673ffffffffffffffffffffffffffffffffffffffff16815260200190815260200160002060009054906101000a900460ff161561093e576040517f08c379a000000000000000000000000000000000000000000000000000000000815260040161093590611f75565b60405180910390fd5b6001600960003373ffffffffffffffffffffffffffffffffffffffff1673ffffffffffffffffffffffffffffffffffffffff16815260200190815260200160002060006101000a81548160ff0219169083151502179055506109a93368056bc75e2d63100000610f38565b565b6109b3610c8b565b600073ffffffffffffffffffffffffffffffffffffffff168173ffffffffffffffffffffffffffffffffffffffff1603610a255760006040517f1e4fbdf7000000000000000000000000000000000000000000000000000000008152600401610a1c9190611cbb565b60405180910390fd5b610a2e81610d12565b50565b600033905090565b610a468383836001610fba565b505050565b6000610a57848461082a565b90507fffffffffffffffffffffffffffffffffffffffffffffffffffffffffffffffff811015610ada5781811015610aca578281836040517ffb8f41b2000000000000000000000000000000000000000000000000000000008152600401610ac193929190611f95565b60405180910390fd5b610ad984848484036000610fba565b5b50505050565b600073ffffffffffffffffffffffffffffffffffffffff168373ffffffffffffffffffffffffffffffffffffffff1603610b525760006040517f96c6fd1e000000000000000000000000000000000000000000000000000000008152600401610b499190611cbb565b60405180910390fd5b600073ffffffffffffffffffffffffffffffffffffffff168273ffffffffffffffffffffffffffffffffffffffff1603610bc45760006040517fec442f05000000000000000000000000000000000000000000000000000000008152600401610bbb9190611cbb565b60405180910390fd5b610bcf838383611191565b505050565b60007f000000000000000000000000000000000000000000000000000000000000000073ffffffffffffffffffffffffffffffffffffffff163073ffffffffffffffffffffffffffffffffffffffff16148015610c5057507f000000000000000000000000000000000000000000000000000000000000000046145b15610c7d577f00000000000000000000000000000000000000000000000000000000000000009050610c88565b610c856113b6565b90505b90565b610c93610a31565b73ffffffffffffffffffffffffffffffffffffffff16610cb1610603565b73ffffffffffffffffffffffffffffffffffffffff1614610d1057610cd4610a31565b6040517f118cdaa7000000000000000000000000000000000000000000000000000000008152600401610d079190611cbb565b60405180910390fd5b565b6000600860009054906101000a900473ffffffffffffffffffffffffffffffffffffffff16905081600860006101000a81548173ffffffffffffffffffffffffffffffffffffffff021916908373ffffffffffffffffffffffffffffffffffffffff1602179055508173ffffffffffffffffffffffffffffffffffffffff168173ffffffffffffffffffffffffffffffffffffffff167f8be0079c531659141344cd1fd0a4f28419497f9722a3daafe3b4186f6b6457e060405160405180910390a35050565b6000600760008373ffffffffffffffffffffffffffffffffffffffff1673ffffffffffffffffffffffffffffffffffffffff168152602001908152602001600020549050919050565b6060610e5760057f000000000000000000000000000000000000000000000000000000000000000061144c90919063ffffffff16565b905090565b6060610e9260067f000000000000000000000000000000000000000000000000000000000000000061144c90919063ffffffff16565b905090565b6000600760008373ffffffffffffffffffffffffffffffffffffffff1673ffffffffffffffffffffffffffffffffffffffff1681526020019081526020016000206000815480929190600101919050559050919050565b6000610f01610efb610bd4565b836114fc565b9050919050565b600080600080610f1a8888888861153d565b925092509250610f2a8282611631565b829350505050949350505050565b600073ffffffffffffffffffffffffffffffffffffffff168273ffffffffffffffffffffffffffffffffffffffff1603610faa5760006040517fec442f05000000000000000000000000000000000000000000000000000000008152600401610fa19190611cbb565b60405180910390fd5b610fb660008383611191565b5050565b600073ffffffffffffffffffffffffffffffffffffffff168473ffffffffffffffffffffffffffffffffffffffff160361102c5760006040517fe602df050000000000000000000000000000000000000000000000000000000081526004016110239190611cbb565b60405180910390fd5b600073ffffffffffffffffffffffffffffffffffffffff168373ffffffffffffffffffffffffffffffffffffffff160361109e5760006040517f94280d620000000000000000000000000000000000000000000000000000000081526004016110959190611cbb565b60405180910390fd5b81600160008673ffffffffffffffffffffffffffffffffffffffff1673ffffffffffffffffffffffffffffffffffffffff16815260200190815260200160002060008573ffffffffffffffffffffffffffffffffffffffff1673ffffffffffffffffffffffffffffffffffffffff16815260200190815260200160002081905550801561118b578273ffffffffffffffffffffffffffffffffffffffff168473ffffffffffffffffffffffffffffffffffffffff167f8c5be1e5ebec7d5bd14f71427d1e84f3dd0314c0f7b2291e5b200ac8c7c3b925846040516111829190611a29565b60405180910390a35b50505050565b600073ffffffffffffffffffffffffffffffffffffffff168373ffffffffffffffffffffffffffffffffffffffff16036111e35780600260008282546111d79190611ffb565b925050819055506112b6565b60008060008573ffffffffffffffffffffffffffffffffffffffff1673ffffffffffffffffffffffffffffffffffffffff1681526020019081526020016000205490508181101561126f578381836040517fe450d38c00000000000000000000000000000000000000000000000000000000815260040161126693929190611f95565b60405180910390fd5b8181036000808673ffffffffffffffffffffffffffffffffffffffff1673ffffffffffffffffffffffffffffffffffffffff16815260200190815260200160002081905550505b600073ffffffffffffffffffffffffffffffffffffffff168273ffffffffffffffffffffffffffffffffffffffff16036112ff578060026000828254039250508190555061134c565b806000808473ffffffffffffffffffffffffffffffffffffffff1673ffffffffffffffffffffffffffffffffffffffff168152602001908152602001600020600082825401925050819055505b8173ffffffffffffffffffffffffffffffffffffffff168373ffffffffffffffffffffffffffffffffffffffff167fddf252ad1be2c89b69c2b068fc378daa952ba7f163c4a11628f55a4df523b3ef836040516113a99190611a29565b60405180910390a3505050565b60007f8b73c3c69bb8fe3d512ecc4cf759cc79239f7b179b0ffacaa9a75d522b39400f7f00000000000000000000000000000000000000000000000000000000000000007f0000000000000000000000000000000000000000000000000000000000000000463060405160200161143195949392919061202f565b60405160208183030381529060405280519060200120905090565b606060ff60001b83146114695761146283611795565b90506114f6565b81805461147590611e3f565b80601f01602080910402602001604051908101604052809291908181526020018280546114a190611e3f565b80156114ee5780601f106114c3576101008083540402835291602001916114ee565b820191906000526020600020905b8154815290600101906020018083116114d157829003601f168201915b505050505090505b92915050565b60006040517f190100000000000000000000000000000000000000000000000000000000000081528360028201528260228201526042812091505092915050565b60008060007f7fffffffffffffffffffffffffffffff5d576e7357a4501ddfe92f46681b20a08460001c111561157d576000600385925092509250611627565b6000600188888888604051600081526020016040526040516115a29493929190612082565b6020604051602081039080840390855afa1580156115c4573d6000803e3d6000fd5b505050602060405103519050600073ffffffffffffffffffffffffffffffffffffffff168173ffffffffffffffffffffffffffffffffffffffff160361161857600060016000801b93509350935050611627565b8060008060001b935093509350505b9450945094915050565b60006003811115611645576116446120c7565b5b826003811115611658576116576120c7565b5b03156117915760016003811115611672576116716120c7565b5b826003811115611685576116846120c7565b5b036116bc576040517ff645eedf00000000000000000000000000000000000000000000000000000000815260040160405180910390fd5b600260038111156116d0576116cf6120c7565b5b8260038111156116e3576116e26120c7565b5b03611728578060001c6040517ffce698f700000000000000000000000000000000000000000000000000000000815260040161171f9190611a29565b60405180910390fd5b60038081111561173b5761173a6120c7565b5b82600381111561174e5761174d6120c7565b5b0361179057806040517fd78bce0c0000000000000000000000000000000000000000000000000000000081526004016117879190611ae7565b60405180910390fd5b5b5050565b606060006117a283611809565b90506000602067ffffffffffffffff8111156117c1576117c0611e70565b5b6040519080825280601f01601f1916602001820160405280156117f35781602001600182028036833780820191505090505b5090508181528360208201528092505050919050565b60008060ff8360001c169050601f811115611850576040517fb3512b0c00000000000000000000000000000000000000000000000000000000815260040160405180910390fd5b80915050919050565b600081519050919050565b600082825260208201905092915050565b60005b83811015611893578082015181840152602081019050611878565b60008484015250505050565b6000601f19601f8301169050919050565b60006118bb82611859565b6118c58185611864565b93506118d5818560208601611875565b6118de8161189f565b840191505092915050565b6000602082019050818103600083015261190381846118b0565b905092915050565b600080fd5b600073ffffffffffffffffffffffffffffffffffffffff82169050919050565b600061193b82611910565b9050919050565b61194b81611930565b811461195657600080fd5b50565b60008135905061196881611942565b92915050565b6000819050919050565b6119818161196e565b811461198c57600080fd5b50565b60008135905061199e81611978565b92915050565b600080604083850312156119bb576119ba61190b565b5b60006119c985828601611959565b92505060206119da8582860161198f565b9150509250929050565b60008115159050919050565b6119f9816119e4565b82525050565b6000602082019050611a1460008301846119f0565b92915050565b611a238161196e565b82525050565b6000602082019050611a3e6000830184611a1a565b92915050565b600080600060608486031215611a5d57611a5c61190b565b5b6000611a6b86828701611959565b9350506020611a7c86828701611959565b9250506040611a8d8682870161198f565b9150509250925092565b600060ff82169050919050565b611aad81611a97565b82525050565b6000602082019050611ac86000830184611aa4565b92915050565b6000819050919050565b611ae181611ace565b82525050565b6000602082019050611afc6000830184611ad8565b92915050565b600060208284031215611b1857611b1761190b565b5b6000611b2684828501611959565b91505092915050565b60007fff0000000000000000000000000000000000000000000000000000000000000082169050919050565b611b6481611b2f565b82525050565b611b7381611930565b82525050565b600081519050919050565b600082825260208201905092915050565b6000819050602082019050919050565b611bae8161196e565b82525050565b6000611bc08383611ba5565b60208301905092915050565b6000602082019050919050565b6000611be482611b79565b611bee8185611b84565b9350611bf983611b95565b8060005b83811015611c2a578151611c118882611bb4565b9750611c1c83611bcc565b925050600181019050611bfd565b5085935050505092915050565b600060e082019050611c4c600083018a611b5b565b8181036020830152611c5e81896118b0565b90508181036040830152611c7281886118b0565b9050611c816060830187611a1a565b611c8e6080830186611b6a565b611c9b60a0830185611ad8565b81810360c0830152611cad8184611bd9565b905098975050505050505050565b6000602082019050611cd06000830184611b6a565b92915050565b611cdf81611a97565b8114611cea57600080fd5b50565b600081359050611cfc81611cd6565b92915050565b611d0b81611ace565b8114611d1657600080fd5b50565b600081359050611d2881611d02565b92915050565b600080600080600080600060e0888a031215611d4d57611d4c61190b565b5b6000611d5b8a828b01611959565b9750506020611d6c8a828b01611959565b9650506040611d7d8a828b0161198f565b9550506060611d8e8a828b0161198f565b9450506080611d9f8a828b01611ced565b93505060a0611db08a828b01611d19565b92505060c0611dc18a828b01611d19565b91505092959891949750929550565b60008060408385031215611de757611de661190b565b5b6000611df585828601611959565b9250506020611e0685828601611959565b9150509250929050565b7f4e487b7100000000000000000000000000000000000000000000000000000000600052602260045260246000fd5b60006002820490506001821680611e5757607f821691505b602082108103611e6a57611e69611e10565b5b50919050565b7f4e487b7100000000000000000000000000000000000000000000000000000000600052604160045260246000fd5b600060c082019050611eb46000830189611ad8565b611ec16020830188611b6a565b611ece6040830187611b6a565b611edb6060830186611a1a565b611ee86080830185611a1a565b611ef560a0830184611a1a565b979650505050505050565b6000604082019050611f156000830185611b6a565b611f226020830184611b6a565b9392505050565b7f596f7520616c726561647920636c61696d656400000000000000000000000000600082015250565b6000611f5f601383611864565b9150611f6a82611f29565b602082019050919050565b60006020820190508181036000830152611f8e81611f52565b9050919050565b6000606082019050611faa6000830186611b6a565b611fb76020830185611a1a565b611fc46040830184611a1a565b949350505050565b7f4e487b7100000000000000000000000000000000000000000000000000000000600052601160045260246000fd5b60006120068261196e565b91506120118361196e565b925082820190508082111561202957612028611fcc565b5b92915050565b600060a0820190506120446000830188611ad8565b6120516020830187611ad8565b61205e6040830186611ad8565b61206b6060830185611a1a565b6120786080830184611b6a565b9695505050505050565b60006080820190506120976000830187611ad8565b6120a46020830186611aa4565b6120b16040830185611ad8565b6120be6060830184611ad8565b95945050505050565b7f4e487b7100000000000000000000000000000000000000000000000000000000600052602160045260246000fdfea26469706673582212201017f90a8c21372fb1cda91466177b208730d26b26905a8c7a2f56d6bf1551f564736f6c634300081c0033",
  "linkReferences": {},
  "deployedLinkReferences": {}
}